{
  "_format": "hh-sol-artifact-1",
  "contractName": "InterpoolContract",
  "sourceName": "contracts/InterpoolContract.sol",
  "abi": [
    {
      "inputs": [],
      "stateMutability": "nonpayable",
      "type": "constructor"
    },
    {
      "anonymous": false,
      "inputs": [
        {
          "indexed": true,
          "internalType": "address",
          "name": "previousOwner",
          "type": "address"
        },
        {
          "indexed": true,
          "internalType": "address",
          "name": "newOwner",
          "type": "address"
        }
      ],
      "name": "OwnershipTransferred",
      "type": "event"
    },
    {
      "anonymous": false,
      "inputs": [
        {
          "indexed": false,
          "internalType": "address",
          "name": "account",
          "type": "address"
        }
      ],
      "name": "Paused",
      "type": "event"
    },
    {
      "anonymous": false,
      "inputs": [
        {
          "indexed": false,
          "internalType": "address",
          "name": "account",
          "type": "address"
        }
      ],
      "name": "Unpaused",
      "type": "event"
    },
    {
      "inputs": [
        {
          "internalType": "uint256",
          "name": "_contestId",
          "type": "uint256"
        },
        {
          "components": [
            {
              "internalType": "address",
              "name": "player",
              "type": "address"
            },
            {
              "internalType": "uint256",
              "name": "nbTickets",
              "type": "uint256"
            },
            {
              "internalType": "uint256",
              "name": "nbPoints",
              "type": "uint256"
            }
          ],
          "internalType": "struct InterpoolContract.PlayerPointsAndTickets[]",
          "name": "_pointsTable",
          "type": "tuple[]"
        }
      ],
      "name": "calculateGain",
      "outputs": [
        {
          "components": [
            {
              "internalType": "address",
              "name": "player",
              "type": "address"
            },
            {
              "internalType": "uint256",
              "name": "nbPoints",
              "type": "uint256"
            },
            {
              "internalType": "uint256",
              "name": "rankExAequo",
              "type": "uint256"
            },
            {
              "internalType": "uint256",
              "name": "rewardNoExAequo",
              "type": "uint256"
            },
            {
              "internalType": "uint256",
              "name": "cumulatedRewardsNoExAequo",
              "type": "uint256"
            },
            {
              "internalType": "uint256",
              "name": "cumulatedRewardsPerRank",
              "type": "uint256"
            },
            {
              "internalType": "uint256",
              "name": "rewardPerRankPerPlayer",
              "type": "uint256"
            }
          ],
          "internalType": "struct InterpoolContract.Gain[]",
          "name": "",
          "type": "tuple[]"
        }
      ],
      "stateMutability": "view",
      "type": "function"
    },
    {
      "inputs": [
        {
          "internalType": "uint8",
          "name": "_homeScore",
          "type": "uint8"
        },
        {
          "internalType": "uint8",
          "name": "_awayScore",
          "type": "uint8"
        }
      ],
      "name": "calculateMatchResult",
      "outputs": [
        {
          "internalType": "uint256",
          "name": "",
          "type": "uint256"
        }
      ],
      "stateMutability": "pure",
      "type": "function"
    },
    {
      "inputs": [],
      "name": "claim",
      "outputs": [],
      "stateMutability": "nonpayable",
      "type": "function"
    },
    {
      "inputs": [
        {
          "internalType": "uint256",
          "name": "_leagueId",
          "type": "uint256"
        },
        {
          "internalType": "uint256",
          "name": "_dateEndContestPredictions",
          "type": "uint256"
        },
        {
          "internalType": "uint256[]",
          "name": "_requestDates",
          "type": "uint256[]"
        }
      ],
      "name": "createContest",
      "outputs": [],
      "stateMutability": "nonpayable",
      "type": "function"
    },
    {
      "inputs": [
        {
          "internalType": "uint256",
          "name": "_contestId",
          "type": "uint256"
        }
      ],
      "name": "createContestTable",
      "outputs": [],
      "stateMutability": "nonpayable",
      "type": "function"
    },
    {
      "inputs": [
        {
          "internalType": "uint256",
          "name": "_amount",
          "type": "uint256"
        }
      ],
      "name": "deposit",
      "outputs": [],
      "stateMutability": "nonpayable",
      "type": "function"
    },
    {
      "inputs": [],
      "name": "getContestPredictionEndDate",
      "outputs": [
        {
          "internalType": "uint256",
          "name": "",
          "type": "uint256"
        }
      ],
      "stateMutability": "view",
      "type": "function"
    },
    {
      "inputs": [
        {
          "internalType": "uint256",
          "name": "_contestId",
          "type": "uint256"
        }
      ],
      "name": "getContestTable",
      "outputs": [
        {
          "components": [
            {
              "internalType": "address",
              "name": "player",
              "type": "address"
            },
            {
              "internalType": "uint256",
              "name": "nbTickets",
              "type": "uint256"
            },
            {
              "internalType": "uint256",
              "name": "nbPoints",
              "type": "uint256"
            },
            {
              "internalType": "uint256",
              "name": "rankExAequo",
              "type": "uint256"
            },
            {
              "internalType": "uint256",
              "name": "rewardPerRankPerPlayer",
              "type": "uint256"
            }
          ],
          "internalType": "struct InterpoolContract.ContestResult[]",
          "name": "",
          "type": "tuple[]"
        }
      ],
      "stateMutability": "view",
      "type": "function"
    },
    {
      "inputs": [],
      "name": "getCurrentContestId",
      "outputs": [
        {
          "internalType": "uint256",
          "name": "",
          "type": "uint256"
        }
      ],
      "stateMutability": "view",
      "type": "function"
    },
    {
      "inputs": [],
      "name": "getGlobalPrizePool",
      "outputs": [
        {
          "internalType": "uint256",
          "name": "",
          "type": "uint256"
        }
      ],
      "stateMutability": "view",
      "type": "function"
    },
    {
      "inputs": [
        {
          "internalType": "uint256",
          "name": "_contestId",
          "type": "uint256"
        }
      ],
      "name": "getIdGamesPerContest",
      "outputs": [
        {
          "internalType": "uint32[]",
          "name": "",
          "type": "uint32[]"
        }
      ],
      "stateMutability": "view",
      "type": "function"
    },
    {
      "inputs": [
        {
          "internalType": "uint256",
          "name": "_contestId",
          "type": "uint256"
        },
        {
          "internalType": "uint256",
          "name": "_market",
          "type": "uint256"
        }
      ],
      "name": "getListRequestIdPerContest",
      "outputs": [
        {
          "internalType": "bytes32[]",
          "name": "",
          "type": "bytes32[]"
        }
      ],
      "stateMutability": "view",
      "type": "function"
    },
    {
      "inputs": [
        {
          "internalType": "uint256",
          "name": "_contestId",
          "type": "uint256"
        }
      ],
      "name": "getNumberOfGamesPerContest",
      "outputs": [
        {
          "internalType": "uint256",
          "name": "",
          "type": "uint256"
        }
      ],
      "stateMutability": "view",
      "type": "function"
    },
    {
      "inputs": [
        {
          "internalType": "uint256",
          "name": "_contestId",
          "type": "uint256"
        }
      ],
      "name": "getNumberOfPlayers",
      "outputs": [
        {
          "internalType": "uint256",
          "name": "",
          "type": "uint256"
        }
      ],
      "stateMutability": "view",
      "type": "function"
    },
    {
      "inputs": [
        {
          "internalType": "uint256",
          "name": "_contestId",
          "type": "uint256"
        },
        {
          "internalType": "address",
          "name": "_player",
          "type": "address"
        }
      ],
      "name": "getPlayerRank",
      "outputs": [
        {
          "internalType": "uint256",
          "name": "",
          "type": "uint256"
        }
      ],
      "stateMutability": "view",
      "type": "function"
    },
    {
      "inputs": [
        {
          "internalType": "uint256",
          "name": "_contestId",
          "type": "uint256"
        },
        {
          "internalType": "address",
          "name": "_player",
          "type": "address"
        }
      ],
      "name": "getPointsOfPlayerForContest",
      "outputs": [
        {
          "internalType": "uint256",
          "name": "",
          "type": "uint256"
        }
      ],
      "stateMutability": "view",
      "type": "function"
    },
    {
      "inputs": [
        {
          "internalType": "uint256",
          "name": "_contestId",
          "type": "uint256"
        }
      ],
      "name": "getPointsTable",
      "outputs": [
        {
          "components": [
            {
              "internalType": "address",
              "name": "player",
              "type": "address"
            },
            {
              "internalType": "uint256",
              "name": "nbTickets",
              "type": "uint256"
            },
            {
              "internalType": "uint256",
              "name": "nbPoints",
              "type": "uint256"
            }
          ],
          "internalType": "struct InterpoolContract.PlayerPointsAndTickets[]",
          "name": "",
          "type": "tuple[]"
        }
      ],
      "stateMutability": "view",
      "type": "function"
    },
    {
      "inputs": [
        {
          "internalType": "uint256",
          "name": "_contestId",
          "type": "uint256"
        },
        {
          "internalType": "address",
          "name": "_player",
          "type": "address"
        }
      ],
      "name": "getPrevisionsPerPlayerPerContest",
      "outputs": [
        {
          "components": [
            {
              "internalType": "uint32",
              "name": "gameId",
              "type": "uint32"
            },
            {
              "internalType": "uint8",
              "name": "homeScore",
              "type": "uint8"
            },
            {
              "internalType": "uint8",
              "name": "awayScore",
              "type": "uint8"
            }
          ],
          "internalType": "struct InterpoolContract.GamePredict[]",
          "name": "",
          "type": "tuple[]"
        }
      ],
      "stateMutability": "view",
      "type": "function"
    },
    {
      "inputs": [
        {
          "internalType": "address",
          "name": "_player",
          "type": "address"
        },
        {
          "internalType": "uint32",
          "name": "_gameId",
          "type": "uint32"
        }
      ],
      "name": "getPrevisionsPerPlayerPerGame",
      "outputs": [
        {
          "internalType": "uint8",
          "name": "",
          "type": "uint8"
        },
        {
          "internalType": "uint8",
          "name": "",
          "type": "uint8"
        }
      ],
      "stateMutability": "view",
      "type": "function"
    },
    {
      "inputs": [
        {
          "internalType": "uint256",
          "name": "_contestId",
          "type": "uint256"
        },
        {
          "internalType": "uint32",
          "name": "_gameId",
          "type": "uint32"
        }
      ],
      "name": "getScoresPerGameId",
      "outputs": [
        {
          "internalType": "uint8",
          "name": "",
          "type": "uint8"
        },
        {
          "internalType": "uint8",
          "name": "",
          "type": "uint8"
        }
      ],
      "stateMutability": "view",
      "type": "function"
    },
    {
      "inputs": [
        {
          "internalType": "address",
          "name": "_player",
          "type": "address"
        }
      ],
      "name": "getVerifPlayerPlayedPerContest",
      "outputs": [
        {
          "internalType": "bool",
          "name": "",
          "type": "bool"
        }
      ],
      "stateMutability": "view",
      "type": "function"
    },
    {
      "inputs": [
        {
          "internalType": "address",
          "name": "_player",
          "type": "address"
        }
      ],
      "name": "getWinningsPerPlayer",
      "outputs": [
        {
          "internalType": "uint256",
          "name": "",
          "type": "uint256"
        },
        {
          "internalType": "uint256",
          "name": "",
          "type": "uint256"
        }
      ],
      "stateMutability": "view",
      "type": "function"
    },
    {
      "inputs": [
        {
          "internalType": "uint256",
          "name": "",
          "type": "uint256"
        },
        {
          "internalType": "uint256",
          "name": "",
          "type": "uint256"
        }
      ],
      "name": "listPlayersWithNbTicketsPerContest",
      "outputs": [
        {
          "internalType": "address",
          "name": "player",
          "type": "address"
        },
        {
          "internalType": "uint256",
          "name": "nbTickets",
          "type": "uint256"
        }
      ],
      "stateMutability": "view",
      "type": "function"
    },
    {
      "inputs": [],
      "name": "owner",
      "outputs": [
        {
          "internalType": "address",
          "name": "",
          "type": "address"
        }
      ],
      "stateMutability": "view",
      "type": "function"
    },
    {
      "inputs": [],
      "name": "pause",
      "outputs": [],
      "stateMutability": "nonpayable",
      "type": "function"
    },
    {
      "inputs": [],
      "name": "paused",
      "outputs": [
        {
          "internalType": "bool",
          "name": "",
          "type": "bool"
        }
      ],
      "stateMutability": "view",
      "type": "function"
    },
    {
      "inputs": [],
      "name": "renounceOwnership",
      "outputs": [],
      "stateMutability": "nonpayable",
      "type": "function"
    },
    {
      "inputs": [
        {
          "internalType": "uint256",
          "name": "_leagueId",
          "type": "uint256"
        },
        {
          "internalType": "uint256[]",
          "name": "_requestDates",
          "type": "uint256[]"
        }
      ],
      "name": "resolveGames",
      "outputs": [],
      "stateMutability": "nonpayable",
      "type": "function"
    },
    {
      "inputs": [
        {
          "components": [
            {
              "internalType": "uint32",
              "name": "gameId",
              "type": "uint32"
            },
            {
              "internalType": "uint8",
              "name": "homeScore",
              "type": "uint8"
            },
            {
              "internalType": "uint8",
              "name": "awayScore",
              "type": "uint8"
            }
          ],
          "internalType": "struct InterpoolContract.GamePredict[]",
          "name": "_gamePredictions",
          "type": "tuple[]"
        }
      ],
      "name": "savePrediction",
      "outputs": [],
      "stateMutability": "nonpayable",
      "type": "function"
    },
    {
      "inputs": [
        {
          "internalType": "address",
          "name": "_enetContract",
          "type": "address"
        }
      ],
      "name": "setEnetContract",
      "outputs": [],
      "stateMutability": "nonpayable",
      "type": "function"
    },
    {
      "inputs": [
        {
          "internalType": "address",
          "name": "_poolContract",
          "type": "address"
        }
      ],
      "name": "setPoolContract",
      "outputs": [],
      "stateMutability": "nonpayable",
      "type": "function"
    },
    {
      "inputs": [
        {
          "internalType": "address",
          "name": "newOwner",
          "type": "address"
        }
      ],
      "name": "transferOwnership",
      "outputs": [],
      "stateMutability": "nonpayable",
      "type": "function"
    },
    {
      "inputs": [],
      "name": "unpause",
      "outputs": [],
      "stateMutability": "nonpayable",
      "type": "function"
    },
    {
      "inputs": [
        {
          "internalType": "uint256",
          "name": "_nbTickets",
          "type": "uint256"
        }
      ],
      "name": "withdraw",
      "outputs": [],
      "stateMutability": "nonpayable",
      "type": "function"
    }
  ],
  "bytecode": "0x60806040523480156200001157600080fd5b5062000032620000266200010160201b60201c565b6200010960201b60201c565b60008060146101000a81548160ff02191690831515021790555073d81e4a61fd6bf066539df6ea48bfaeae847dcda1600b60006101000a81548173ffffffffffffffffffffffffffffffffffffffff021916908373ffffffffffffffffffffffffffffffffffffffff160217905550620000c67349672edd419e4795307ccc906cab0e8fc5d147f9620001cd60201b60201c565b620000eb7380a9c7c5f5bfd765a2dc3773dff00d02db8b34ae6200022160201b60201c565b6005600a819055506000600981905550620003b2565b600033905090565b60008060009054906101000a900473ffffffffffffffffffffffffffffffffffffffff169050816000806101000a81548173ffffffffffffffffffffffffffffffffffffffff021916908373ffffffffffffffffffffffffffffffffffffffff1602179055508173ffffffffffffffffffffffffffffffffffffffff168173ffffffffffffffffffffffffffffffffffffffff167f8be0079c531659141344cd1fd0a4f28419497f9722a3daafe3b4186f6b6457e060405160405180910390a35050565b620001dd6200027560201b60201c565b80600c60006101000a81548173ffffffffffffffffffffffffffffffffffffffff021916908373ffffffffffffffffffffffffffffffffffffffff16021790555050565b620002316200027560201b60201c565b80600d60006101000a81548173ffffffffffffffffffffffffffffffffffffffff021916908373ffffffffffffffffffffffffffffffffffffffff16021790555050565b620002856200010160201b60201c565b73ffffffffffffffffffffffffffffffffffffffff16620002ab6200030660201b60201c565b73ffffffffffffffffffffffffffffffffffffffff161462000304576040517f08c379a0000000000000000000000000000000000000000000000000000000008152600401620002fb9062000390565b60405180910390fd5b565b60008060009054906101000a900473ffffffffffffffffffffffffffffffffffffffff16905090565b600082825260208201905092915050565b7f4f776e61626c653a2063616c6c6572206973206e6f7420746865206f776e6572600082015250565b6000620003786020836200032f565b9150620003858262000340565b602082019050919050565b60006020820190508181036000830152620003ab8162000369565b9050919050565b6152ce80620003c26000396000f3fe608060405234801561001057600080fd5b50600436106102065760003560e01c8063715018a61161011a578063b6b55f25116100ad578063d69d40771161007c578063d69d4077146105ff578063f2fde38b1461062f578063f49a20bd1461064b578063fb46bd221461067b578063fee901601461069957610206565b8063b6b55f2514610552578063baf637831461056e578063bd874a1d1461059e578063c7cbdb66146105cf57610206565b80638ad2e864116100e95780638ad2e864146104c95780638da5cb5b146104fa5780639fa75e9a14610518578063b4ace1581461053457610206565b8063715018a61461047d5780637158f6101461048757806371ce137e146104a35780638456cb59146104bf57610206565b80634e71d92d1161019d5780635c975abb1161016c5780635c975abb146103b157806362436d9d146103cf57806366194e14146103ff5780636851e9a91461041b5780636fe9141b1461044c57610206565b80634e71d92d1461032b5780634fda591e1461033557806351fe0b4d1461036557806359c3f3e01461039557610206565b806327ca8b98116101d957806327ca8b98146102b95780632e1a7d4d146102e95780633f4ba83a146103055780633fc101011461030f57610206565b806308af2d781461020b578063117f3998146102295780631d883342146102595780632452a7e314610289575b600080fd5b6102136106c9565b60405161022091906139cf565b60405180910390f35b610243600480360381019061023e9190613a88565b6106e9565b6040516102509190613bf4565b60405180910390f35b610273600480360381019061026e9190613c16565b61093f565b60405161028091906139cf565b60405180910390f35b6102a3600480360381019061029e9190613c16565b610a68565b6040516102b09190613d78565b60405180910390f35b6102d360048036038101906102ce9190613c16565b610b58565b6040516102e09190613e8b565b60405180910390f35b61030360048036038101906102fe9190613c16565b610cea565b005b61030d610e44565b005b61032960048036038101906103249190613c16565b610e56565b005b6103336114c5565b005b61034f600480360381019061034a9190613a88565b611554565b60405161035c91906139cf565b60405180910390f35b61037f600480360381019061037a9190613ead565b611786565b60405161038c9190613fb5565b60405180910390f35b6103af60048036038101906103aa9190613fd7565b611864565b005b6103b96118b0565b6040516103c6919061401f565b60405180910390f35b6103e960048036038101906103e49190613c16565b6118c6565b6040516103f691906139cf565b60405180910390f35b61041960048036038101906104149190614193565b6118e6565b005b6104356004803603810190610430919061422e565b611a6a565b60405161044392919061427d565b60405180910390f35b61046660048036038101906104619190613ead565b611bb0565b6040516104749291906142b5565b60405180910390f35b610485611c11565b005b6104a1600480360381019061049c91906142de565b611c25565b005b6104bd60048036038101906104b89190613fd7565b611d4f565b005b6104c7611d9b565b005b6104e360048036038101906104de9190613fd7565b611dad565b6040516104f192919061433a565b60405180910390f35b610502611e54565b60405161050f9190614363565b60405180910390f35b610532600480360381019061052d91906144d6565b611e7d565b005b61053c6123f9565b60405161054991906139cf565b60405180910390f35b61056c60048036038101906105679190613c16565b612491565b005b61058860048036038101906105839190614646565b612523565b60405161059591906147df565b60405180910390f35b6105b860048036038101906105b39190614801565b612f24565b6040516105c692919061427d565b60405180910390f35b6105e960048036038101906105e49190613c16565b613027565b6040516105f691906148f0565b60405180910390f35b61061960048036038101906106149190613fd7565b6132b8565b604051610626919061401f565b60405180910390f35b61064960048036038101906106449190613fd7565b613321565b005b61066560048036038101906106609190614912565b6133a4565b60405161067291906139cf565b60405180910390f35b6106836133e5565b60405161069091906139cf565b60405180910390f35b6106b360048036038101906106ae9190613a88565b6133ef565b6040516106c091906139cf565b60405180910390f35b600060016000600954815260200190815260200160002060010154905090565b606060006106f68461093f565b90506000808267ffffffffffffffff81111561071557610714614050565b5b60405190808252806020026020018201604052801561074e57816020015b61073b6137e1565b8152602001906001900390816107335790505b50905060008367ffffffffffffffff81111561076d5761076c614050565b5b60405190808252806020026020018201604052801561079b5781602001602082028036833780820191505090505b5090506107a787613027565b905060005b84811015610931578181815181106107c7576107c6614952565b5b6020026020010151935060405180606001604052808563ffffffff168152602001600460008a73ffffffffffffffffffffffffffffffffffffffff1673ffffffffffffffffffffffffffffffffffffffff16815260200190815260200160002060008763ffffffff1663ffffffff16815260200190815260200160002060006002811061085757610856614952565b5b602091828204019190069054906101000a900460ff1660ff168152602001600460008a73ffffffffffffffffffffffffffffffffffffffff1673ffffffffffffffffffffffffffffffffffffffff16815260200190815260200160002060008763ffffffff1663ffffffff1681526020019081526020016000206001600281106108e4576108e3614952565b5b602091828204019190069054906101000a900460ff1660ff1681525083828151811061091357610912614952565b5b60200260200101819052508080610929906149b0565b9150506107ac565b508194505050505092915050565b6000806000905060006005600085815260200190815260200160002080549050905060005b81811015610a5d57600060056000878152602001908152602001600020828154811061099357610992614952565b5b90600052602060002001549050600c60009054906101000a900473ffffffffffffffffffffffffffffffffffffffff1673ffffffffffffffffffffffffffffffffffffffff1663f02e41a3826040518263ffffffff1660e01b81526004016109fb9190614a07565b602060405180830381865afa158015610a18573d6000803e3d6000fd5b505050506040513d601f19601f82011682018060405250810190610a3c9190614a37565b84610a479190614a64565b9350508080610a55906149b0565b915050610964565b508192505050919050565b606060076000838152602001908152602001600020805480602002602001604051908101604052809291908181526020016000905b82821015610b4d57838290600052602060002090600502016040518060a00160405290816000820160009054906101000a900473ffffffffffffffffffffffffffffffffffffffff1673ffffffffffffffffffffffffffffffffffffffff1673ffffffffffffffffffffffffffffffffffffffff16815260200160018201548152602001600282015481526020016003820154815260200160048201548152505081526020019060010190610a9d565b505050509050919050565b60606000600260008481526020019081526020016000208054905090506000806000808467ffffffffffffffff811115610b9557610b94614050565b5b604051908082528060200260200182016040528015610bce57816020015b610bbb61380e565b815260200190600190039081610bb35790505b50905060005b85811015610cdc57600260008981526020019081526020016000208181548110610c0157610c00614952565b5b906000526020600020906002020160000160009054906101000a900473ffffffffffffffffffffffffffffffffffffffff169450600260008981526020019081526020016000208181548110610c5a57610c59614952565b5b9060005260206000209060020201600101549350610c7888866133ef565b925060405180606001604052808673ffffffffffffffffffffffffffffffffffffffff16815260200185815260200184815250828281518110610cbe57610cbd614952565b5b60200260200101819052508080610cd4906149b0565b915050610bd4565b508095505050505050919050565b6000151560086000600954815260200190815260200160002060003373ffffffffffffffffffffffffffffffffffffffff1673ffffffffffffffffffffffffffffffffffffffff16815260200190815260200160002060009054906101000a900460ff1615151480610d7357506001600060095481526020019081526020016000206001015442115b610db2576040517f08c379a0000000000000000000000000000000000000000000000000000000008152600401610da990614b3d565b60405180910390fd5b600d60009054906101000a900473ffffffffffffffffffffffffffffffffffffffff1673ffffffffffffffffffffffffffffffffffffffff16632cbcb1f282336040518363ffffffff1660e01b8152600401610e0f929190614b5d565b600060405180830381600087803b158015610e2957600080fd5b505af1158015610e3d573d6000803e3d6000fd5b5050505050565b610e4c61353f565b610e546135bd565b565b610e5e61353f565b600b60009054906101000a900473ffffffffffffffffffffffffffffffffffffffff1673ffffffffffffffffffffffffffffffffffffffff166318160ddd6040518163ffffffff1660e01b8152600401602060405180830381865afa158015610ecb573d6000803e3d6000fd5b505050506040513d601f19601f82011682018060405250810190610eef9190614a37565b60036000838152602001908152602001600020819055506000610f1182610b58565b90506000610f1f8383612523565b90506000600760008581526020019081526020016000206040518060a0016040528084600081518110610f5557610f54614952565b5b60200260200101516000015173ffffffffffffffffffffffffffffffffffffffff1681526020016001815260200184600081518110610f9757610f96614952565b5b602002602001015160200151815260200184600081518110610fbc57610fbb614952565b5b602002602001015160400151815260200184600081518110610fe157610fe0614952565b5b602002602001015160c00151815250908060018154018082558091505060019003906000526020600020906005020160009091909190915060008201518160000160006101000a81548173ffffffffffffffffffffffffffffffffffffffff021916908373ffffffffffffffffffffffffffffffffffffffff1602179055506020820151816001015560408201518160020155606082015181600301556080820151816004015550506000600190505b600360008681526020019081526020016000205481101561136857826001826110ba9190614b86565b815181106110cb576110ca614952565b5b60200260200101516000015173ffffffffffffffffffffffffffffffffffffffff16838281518110611100576110ff614952565b5b60200260200101516000015173ffffffffffffffffffffffffffffffffffffffff16036111e35760076000868152602001908152602001600020828154811061114c5761114b614952565b5b9060005260206000209060050201600101600081548092919061116e906149b0565b919050555082818151811061118657611185614952565b5b602002602001015160c001516007600087815260200190815260200160002083815481106111b7576111b6614952565b5b906000526020600020906005020160040160008282546111d79190614a64565b92505081905550611355565b600760008681526020019081526020016000206040518060a0016040528085848151811061121457611213614952565b5b60200260200101516000015173ffffffffffffffffffffffffffffffffffffffff1681526020016001815260200185848151811061125557611254614952565b5b602002602001015160200151815260200185848151811061127957611278614952565b5b602002602001015160400151815260200185848151811061129d5761129c614952565b5b602002602001015160c00151815250908060018154018082558091505060019003906000526020600020906005020160009091909190915060008201518160000160006101000a81548173ffffffffffffffffffffffffffffffffffffffff021916908373ffffffffffffffffffffffffffffffffffffffff1602179055506020820151816001015560408201518160020155606082015181600301556080820151816004015550508180611351906149b0565b9250505b8080611360906149b0565b915050611091565b5060005b60076000868152602001908152602001600020805490508110156114be5760006007600087815260200190815260200160002082815481106113b1576113b0614952565b5b906000526020600020906005020160000160009054906101000a900473ffffffffffffffffffffffffffffffffffffffff169050600d60009054906101000a900473ffffffffffffffffffffffffffffffffffffffff1673ffffffffffffffffffffffffffffffffffffffff166371dd884082600760008a8152602001908152602001600020858154811061144957611448614952565b5b9060005260206000209060050201600401546040518363ffffffff1660e01b81526004016114789291906142b5565b600060405180830381600087803b15801561149257600080fd5b505af11580156114a6573d6000803e3d6000fd5b505050505080806114b6906149b0565b91505061136c565b5050505050565b600d60009054906101000a900473ffffffffffffffffffffffffffffffffffffffff1673ffffffffffffffffffffffffffffffffffffffff16630de6e321336040518263ffffffff1660e01b81526004016115209190614363565b600060405180830381600087803b15801561153a57600080fd5b505af115801561154e573d6000803e3d6000fd5b50505050565b60008061156084610b58565b9050600080825190506000808267ffffffffffffffff81111561158657611585614050565b5b6040519080825280602002602001820160405280156115bf57816020015b6115ac613845565b8152602001906001900390816115a45790505b50905060005b838110156116e1576001945060005b84811015611642578681815181106115ef576115ee614952565b5b60200260200101516040015187838151811061160e5761160d614952565b5b602002602001015160400151101561162f57858061162b906149b0565b9650505b808061163a906149b0565b9150506115d4565b50604051806060016040528087838151811061166157611660614952565b5b60200260200101516000015173ffffffffffffffffffffffffffffffffffffffff16815260200187838151811061169b5761169a614952565b5b6020026020010151604001518152602001868152508282815181106116c3576116c2614952565b5b602002602001018190525080806116d9906149b0565b9150506115c5565b5060005b8381101561177757818181518110611700576116ff614952565b5b60200260200101516000015173ffffffffffffffffffffffffffffffffffffffff168873ffffffffffffffffffffffffffffffffffffffff16036117645781818151811061175157611750614952565b5b6020026020010151604001519250611777565b808061176f906149b0565b9150506116e5565b50819550505050505092915050565b6060600082036117f957600560008481526020019081526020016000208054806020026020016040519081016040528092919081815260200182805480156117ed57602002820191906000526020600020905b8154815260200190600101908083116117d9575b5050505050905061185e565b6006600084815260200190815260200160002080548060200260200160405190810160405280929190818152602001828054801561185657602002820191906000526020600020905b815481526020019060010190808311611842575b505050505090505b92915050565b61186c61353f565b80600d60006101000a81548173ffffffffffffffffffffffffffffffffffffffff021916908373ffffffffffffffffffffffffffffffffffffffff16021790555050565b60008060149054906101000a900460ff16905090565b600060026000838152602001908152602001600020805490509050919050565b6118ee61353f565b60096000815480929190611901906149b0565b919050555060008151905060005b81811015611a2257600560006009548152602001908152602001600020600c60009054906101000a900473ffffffffffffffffffffffffffffffffffffffff1673ffffffffffffffffffffffffffffffffffffffff1663580c2f546000888786815181106119805761197f614952565b5b60200260200101516040518463ffffffff1660e01b81526004016119a693929190614bff565b6020604051808303816000875af11580156119c5573d6000803e3d6000fd5b505050506040513d601f19601f820116820180604052508101906119e99190614c62565b90806001815401808255809150506001900390600052602060002001600090919091909150558080611a1a906149b0565b91505061190f565b50604051806040016040528085815260200184815250600160006009548152602001908152602001600020600082015181600001556020820151816001015590505050505050565b600080600060066000868152602001908152602001600020805490509050600060ff905060008060005b84811015611b9e576000600660008b81526020019081526020016000208281548110611ac357611ac2614952565b5b90600052602060002001549050600c60009054906101000a900473ffffffffffffffffffffffffffffffffffffffff1673ffffffffffffffffffffffffffffffffffffffff16633910b2c2828b6040518363ffffffff1660e01b8152600401611b2d929190614c9e565b606060405180830381865afa158015611b4a573d6000803e3d6000fd5b505050506040513d601f19601f82011682018060405250810190611b6e9190614d08565b809550819650829750505050600192508215611b8a5750611b9e565b508080611b96906149b0565b915050611a94565b50828295509550505050509250929050565b60026020528160005260406000208181548110611bcc57600080fd5b9060005260206000209060020201600091509150508060000160009054906101000a900473ffffffffffffffffffffffffffffffffffffffff16908060010154905082565b611c1961353f565b611c23600061361f565b565b611c2d61353f565b60008151905060005b81811015611d4957600660006009548152602001908152602001600020600c60009054906101000a900473ffffffffffffffffffffffffffffffffffffffff1673ffffffffffffffffffffffffffffffffffffffff1663580c2f54600187878681518110611ca757611ca6614952565b5b60200260200101516040518463ffffffff1660e01b8152600401611ccd93929190614d96565b6020604051808303816000875af1158015611cec573d6000803e3d6000fd5b505050506040513d601f19601f82011682018060405250810190611d109190614c62565b90806001815401808255809150506001900390600052602060002001600090919091909150558080611d41906149b0565b915050611c36565b50505050565b611d5761353f565b80600c60006101000a81548173ffffffffffffffffffffffffffffffffffffffff021916908373ffffffffffffffffffffffffffffffffffffffff16021790555050565b611da361353f565b611dab6136e3565b565b600080600d60009054906101000a900473ffffffffffffffffffffffffffffffffffffffff1673ffffffffffffffffffffffffffffffffffffffff16638ad2e864846040518263ffffffff1660e01b8152600401611e0b9190614363565b6040805180830381865afa158015611e27573d6000803e3d6000fd5b505050506040513d601f19601f82011682018060405250810190611e4b9190614dcd565b91509150915091565b60008060009054906101000a900473ffffffffffffffffffffffffffffffffffffffff16905090565b6000600b60009054906101000a900473ffffffffffffffffffffffffffffffffffffffff1673ffffffffffffffffffffffffffffffffffffffff166370a08231336040518263ffffffff1660e01b8152600401611eda9190614363565b602060405180830381865afa158015611ef7573d6000803e3d6000fd5b505050506040513d601f19601f82011682018060405250810190611f1b9190614a37565b11611f5b576040517f08c379a0000000000000000000000000000000000000000000000000000000008152600401611f5290614e7f565b60405180910390fd5b600160006009548152602001908152602001600020600101544210611fb5576040517f08c379a0000000000000000000000000000000000000000000000000000000008152600401611fac90614eeb565b60405180910390fd5b611fc060095461093f565b815114612002576040517f08c379a0000000000000000000000000000000000000000000000000000000008152600401611ff990614f7d565b60405180910390fd5b600061200f60095461093f565b90506000600b60009054906101000a900473ffffffffffffffffffffffffffffffffffffffff1673ffffffffffffffffffffffffffffffffffffffff166370a08231336040518263ffffffff1660e01b815260040161206e9190614363565b602060405180830381865afa15801561208b573d6000803e3d6000fd5b505050506040513d601f19601f820116820180604052508101906120af9190614a37565b905060005b828110156121b55760405180604001604052808583815181106120da576120d9614952565b5b60200260200101516020015160ff1660ff16815260200185838151811061210457612103614952565b5b60200260200101516040015160ff1660ff16815250600460003373ffffffffffffffffffffffffffffffffffffffff1673ffffffffffffffffffffffffffffffffffffffff168152602001908152602001600020600086848151811061216d5761216c614952565b5b60200260200101516000015163ffffffff1663ffffffff1681526020019081526020016000209060026121a192919061387c565b5080806121ad906149b0565b9150506120b4565b50600080600090505b600260006009548152602001908152602001600020805490508110156122be57600260006009548152602001908152602001600020818154811061220557612204614952565b5b906000526020600020906002020160000160009054906101000a900473ffffffffffffffffffffffffffffffffffffffff1673ffffffffffffffffffffffffffffffffffffffff163373ffffffffffffffffffffffffffffffffffffffff16036122ab5782600260006009548152602001908152602001600020828154811061229157612290614952565b5b906000526020600020906002020160010181905550600191505b80806122b6906149b0565b9150506121be565b5060001515811515036123f35760026000600954815260200190815260200160002060405180604001604052803373ffffffffffffffffffffffffffffffffffffffff16815260200184815250908060018154018082558091505060019003906000526020600020906002020160009091909190915060008201518160000160006101000a81548173ffffffffffffffffffffffffffffffffffffffff021916908373ffffffffffffffffffffffffffffffffffffffff160217905550602082015181600101555050600160086000600954815260200190815260200160002060003373ffffffffffffffffffffffffffffffffffffffff1673ffffffffffffffffffffffffffffffffffffffff16815260200190815260200160002060006101000a81548160ff0219169083151502179055505b50505050565b6000600d60009054906101000a900473ffffffffffffffffffffffffffffffffffffffff1673ffffffffffffffffffffffffffffffffffffffff1663b4ace1586040518163ffffffff1660e01b8152600401602060405180830381865afa158015612468573d6000803e3d6000fd5b505050506040513d601f19601f8201168201806040525081019061248c9190614a37565b905090565b600d60009054906101000a900473ffffffffffffffffffffffffffffffffffffffff1673ffffffffffffffffffffffffffffffffffffffff1663016fc9d782336040518363ffffffff1660e01b81526004016124ee929190614b5d565b600060405180830381600087803b15801561250857600080fd5b505af115801561251c573d6000803e3d6000fd5b5050505050565b606060008060008080600080600d60009054906101000a900473ffffffffffffffffffffffffffffffffffffffff1673ffffffffffffffffffffffffffffffffffffffff1663b4ace1586040518163ffffffff1660e01b8152600401602060405180830381865afa15801561259c573d6000803e3d6000fd5b505050506040513d601f19601f820116820180604052508101906125c09190614a37565b90506000600360008c815260200190815260200160002054905060008167ffffffffffffffff8111156125f6576125f5614050565b5b60405190808252806020026020018201604052801561262f57816020015b61261c613916565b8152602001906001900390816126145790505b50905060008267ffffffffffffffff81111561264e5761264d614050565b5b60405190808252806020026020018201604052801561268757816020015b612674613845565b81526020019060019003908161266c5790505b50905060008367ffffffffffffffff8111156126a6576126a5614050565b5b6040519080825280602002602001820160405280156126df57816020015b6126cc613946565b8152602001906001900390816126c45790505b50905060005b8d518110156127a35760008e828151811061270357612702614952565b5b6020026020010151905060005b816020015181101561278e576040518060400160405280836000015173ffffffffffffffffffffffffffffffffffffffff1681526020018360400151815250868a8151811061276257612761614952565b5b60200260200101819052508880612778906149b0565b9950508080612786906149b0565b915050612710565b5050808061279b906149b0565b9150506126e5565b5060005b848110156128cf5760019b5060005b85811015612830578481815181106127d1576127d0614952565b5b6020026020010151602001518583815181106127f0576127ef614952565b5b602002602001015160200151101561281d578c8061280d906149b0565b9d50508b8d111561281c578c9b505b5b8080612828906149b0565b9150506127b6565b50604051806060016040528085838151811061284f5761284e614952565b5b60200260200101516000015173ffffffffffffffffffffffffffffffffffffffff16815260200185838151811061288957612888614952565b5b60200260200101516020015181526020018d8152508382815181106128b1576128b0614952565b5b602002602001018190525080806128c7906149b0565b9150506127a7565b50600095506000600190505b8a8111612a0d5760005b858110156129f9578184828151811061290157612900614952565b5b602002602001015160400151036129e6576040518060e001604052808583815181106129305761292f614952565b5b60200260200101516000015173ffffffffffffffffffffffffffffffffffffffff16815260200185838151811061296a57612969614952565b5b602002602001015160200151815260200185838151811061298e5761298d614952565b5b602002602001015160400151815260200160008152602001600081526020016000815260200160008152508389815181106129cc576129cb614952565b5b602002602001018190525087806129e2906149b0565b9850505b80806129f1906149b0565b9150506128e5565b508080612a05906149b0565b9150506128db565b506064600a548a87612a1f9190614b86565b612a299190614f9d565b612a339190615026565b96508689612a419190614a64565b98508681600081518110612a5857612a57614952565b5b602002602001015160600181815250508681600081518110612a7d57612a7c614952565b5b602002602001015160800181815250508681600081518110612aa257612aa1614952565b5b602002602001015160a00181815250508681600081518110612ac757612ac6614952565b5b602002602001015160c00181815250506000600190505b84811015612f0f576064600a548b88612af79190614b86565b612b019190614f9d565b612b0b9190615026565b975087828281518110612b2157612b20614952565b5b60200260200101516060018181525050878a612b3d9190614a64565b995089828281518110612b5357612b52614952565b5b60200260200101516080018181525050600185612b709190614b86565b8114612d565781600182612b849190614b86565b81518110612b9557612b94614952565b5b602002602001015160400151828281518110612bb457612bb3614952565b5b60200260200101516040015103612c23578782600183612bd49190614b86565b81518110612be557612be4614952565b5b602002602001015160a00151612bfb9190614a64565b828281518110612c0e57612c0d614952565b5b602002602001015160a0018181525050612d51565b87828281518110612c3757612c36614952565b5b602002602001015160a001818152505087828281518110612c5b57612c5a614952565b5b602002602001015160c001818152505081600182612c799190614b86565b81518110612c8a57612c89614952565b5b602002602001015160400151828281518110612ca957612ca8614952565b5b602002602001015160400151612cbf9190614b86565b985060005b89811015612d4f578983600184612cdb9190614b86565b81518110612cec57612ceb614952565b5b602002602001015160a00151612d029190615026565b83600183612d109190614a64565b84612d1b9190614b86565b81518110612d2c57612d2b614952565b5b602002602001015160c00181815250508080612d47906149b0565b915050612cc4565b505b612efc565b81600182612d649190614b86565b81518110612d7557612d74614952565b5b602002602001015160400151828281518110612d9457612d93614952565b5b60200260200101516040015103612eb2578782600183612db49190614b86565b81518110612dc557612dc4614952565b5b602002602001015160a00151612ddb9190614a64565b828281518110612dee57612ded614952565b5b602002602001015160a0018181525050818181518110612e1157612e10614952565b5b602002602001015160400151600186612e2a9190614a64565b612e349190614b86565b985060005b89811015612eac5789838381518110612e5557612e54614952565b5b602002602001015160a00151612e6b9190615026565b838284612e789190614b86565b81518110612e8957612e88614952565b5b602002602001015160c00181815250508080612ea4906149b0565b915050612e39565b50612efb565b87828281518110612ec657612ec5614952565b5b602002602001015160a001818152505087828281518110612eea57612ee9614952565b5b602002602001015160c00181815250505b5b8080612f07906149b0565b915050612ade565b50809b50505050505050505050505092915050565b6000806000600460008673ffffffffffffffffffffffffffffffffffffffff1673ffffffffffffffffffffffffffffffffffffffff16815260200190815260200160002060008563ffffffff1663ffffffff168152602001908152602001600020600280602002604051908101604052809291908260028015612fe2576020028201916000905b82829054906101000a900460ff1660ff1681526020019060010190602082600001049283019260010382029150808411612fab5790505b5050505050905080600060028110612ffd57612ffc614952565b5b60200201518160016002811061301657613015614952565b5b602002015192509250509250929050565b606060006130348361093f565b90506000808267ffffffffffffffff81111561305357613052614050565b5b6040519080825280602002602001820160405280156130815781602001602082028036833780820191505090505b50905060005b60056000878152602001908152602001600020805490508110156132ac57600c60009054906101000a900473ffffffffffffffffffffffffffffffffffffffff1673ffffffffffffffffffffffffffffffffffffffff1663f02e41a360056000898152602001908152602001600020838154811061310857613107614952565b5b90600052602060002001546040518263ffffffff1660e01b815260040161312f9190614a07565b602060405180830381865afa15801561314c573d6000803e3d6000fd5b505050506040513d601f19601f820116820180604052508101906131709190614a37565b935060005b8481101561329857600c60009054906101000a900473ffffffffffffffffffffffffffffffffffffffff1673ffffffffffffffffffffffffffffffffffffffff1663ab2fb9a9600560008a815260200190815260200160002084815481106131e0576131df614952565b5b9060005260206000200154836040518363ffffffff1660e01b8152600401613209929190615057565b602060405180830381865afa158015613226573d6000803e3d6000fd5b505050506040513d601f19601f8201168201806040525081019061324a9190615095565b83858151811061325d5761325c614952565b5b602002602001019063ffffffff16908163ffffffff16815250508380613282906149b0565b9450508080613290906149b0565b915050613175565b5080806132a4906149b0565b915050613087565b50809350505050919050565b600060086000600954815260200190815260200160002060008373ffffffffffffffffffffffffffffffffffffffff1673ffffffffffffffffffffffffffffffffffffffff16815260200190815260200160002060009054906101000a900460ff169050919050565b61332961353f565b600073ffffffffffffffffffffffffffffffffffffffff168173ffffffffffffffffffffffffffffffffffffffff1603613398576040517f08c379a000000000000000000000000000000000000000000000000000000000815260040161338f90615134565b60405180910390fd5b6133a18161361f565b50565b6000808260ff168460ff1611156133be57600090506133db565b8360ff168360ff1611156133d557600290506133da565b600190505b5b8091505092915050565b6000600954905090565b600080600080600090506000806134058861093f565b905060008167ffffffffffffffff81111561342357613422614050565b5b6040519080825280602002602001820160405280156134515781602001602082028036833780820191505090505b50905061345d89613027565b905060005b8281101561352f5781818151811061347d5761347c614952565b5b602002602001015193506000806134948c87611a6a565b915091506000806134a58d89612f24565b915091506134b382826133a4565b9a506134bf84846133a4565b9950898b1480156134d4575060ff8460ff1614155b15613518576001896134e69190614a64565b98508360ff168260ff1614801561350257508260ff168160ff16145b15613517576002896135149190614a64565b98505b5b505050508080613527906149b0565b915050613462565b5083965050505050505092915050565b613547613746565b73ffffffffffffffffffffffffffffffffffffffff16613565611e54565b73ffffffffffffffffffffffffffffffffffffffff16146135bb576040517f08c379a00000000000000000000000000000000000000000000000000000000081526004016135b2906151a0565b60405180910390fd5b565b6135c561374e565b60008060146101000a81548160ff0219169083151502179055507f5db9ee0a495bf2e6ff9c91a7834c1ba4fdd244a5e8aa4e537bd38aeae4b073aa613608613746565b6040516136159190614363565b60405180910390a1565b60008060009054906101000a900473ffffffffffffffffffffffffffffffffffffffff169050816000806101000a81548173ffffffffffffffffffffffffffffffffffffffff021916908373ffffffffffffffffffffffffffffffffffffffff1602179055508173ffffffffffffffffffffffffffffffffffffffff168173ffffffffffffffffffffffffffffffffffffffff167f8be0079c531659141344cd1fd0a4f28419497f9722a3daafe3b4186f6b6457e060405160405180910390a35050565b6136eb613797565b6001600060146101000a81548160ff0219169083151502179055507f62e78cea01bee320cd4e420270b5ea74000d11b0c9f74754ebdbfc544b05a25861372f613746565b60405161373c9190614363565b60405180910390a1565b600033905090565b6137566118b0565b613795576040517f08c379a000000000000000000000000000000000000000000000000000000000815260040161378c9061520c565b60405180910390fd5b565b61379f6118b0565b156137df576040517f08c379a00000000000000000000000000000000000000000000000000000000081526004016137d690615278565b60405180910390fd5b565b6040518060600160405280600063ffffffff168152602001600060ff168152602001600060ff1681525090565b6040518060600160405280600073ffffffffffffffffffffffffffffffffffffffff16815260200160008152602001600081525090565b6040518060600160405280600073ffffffffffffffffffffffffffffffffffffffff16815260200160008152602001600081525090565b826002601f016020900481019282156139055791602002820160005b838211156138d657835183826101000a81548160ff021916908360ff1602179055509260200192600101602081600001049283019260010302613898565b80156139035782816101000a81549060ff02191690556001016020816000010492830192600103026138d6565b505b5090506139129190613999565b5090565b6040518060400160405280600073ffffffffffffffffffffffffffffffffffffffff168152602001600081525090565b6040518060e00160405280600073ffffffffffffffffffffffffffffffffffffffff1681526020016000815260200160008152602001600081526020016000815260200160008152602001600081525090565b5b808211156139b257600081600090555060010161399a565b5090565b6000819050919050565b6139c9816139b6565b82525050565b60006020820190506139e460008301846139c0565b92915050565b6000604051905090565b600080fd5b600080fd5b613a07816139b6565b8114613a1257600080fd5b50565b600081359050613a24816139fe565b92915050565b600073ffffffffffffffffffffffffffffffffffffffff82169050919050565b6000613a5582613a2a565b9050919050565b613a6581613a4a565b8114613a7057600080fd5b50565b600081359050613a8281613a5c565b92915050565b60008060408385031215613a9f57613a9e6139f4565b5b6000613aad85828601613a15565b9250506020613abe85828601613a73565b9150509250929050565b600081519050919050565b600082825260208201905092915050565b6000819050602082019050919050565b600063ffffffff82169050919050565b613b0d81613af4565b82525050565b600060ff82169050919050565b613b2981613b13565b82525050565b606082016000820151613b456000850182613b04565b506020820151613b586020850182613b20565b506040820151613b6b6040850182613b20565b50505050565b6000613b7d8383613b2f565b60608301905092915050565b6000602082019050919050565b6000613ba182613ac8565b613bab8185613ad3565b9350613bb683613ae4565b8060005b83811015613be7578151613bce8882613b71565b9750613bd983613b89565b925050600181019050613bba565b5085935050505092915050565b60006020820190508181036000830152613c0e8184613b96565b905092915050565b600060208284031215613c2c57613c2b6139f4565b5b6000613c3a84828501613a15565b91505092915050565b600081519050919050565b600082825260208201905092915050565b6000819050602082019050919050565b613c7881613a4a565b82525050565b613c87816139b6565b82525050565b60a082016000820151613ca36000850182613c6f565b506020820151613cb66020850182613c7e565b506040820151613cc96040850182613c7e565b506060820151613cdc6060850182613c7e565b506080820151613cef6080850182613c7e565b50505050565b6000613d018383613c8d565b60a08301905092915050565b6000602082019050919050565b6000613d2582613c43565b613d2f8185613c4e565b9350613d3a83613c5f565b8060005b83811015613d6b578151613d528882613cf5565b9750613d5d83613d0d565b925050600181019050613d3e565b5085935050505092915050565b60006020820190508181036000830152613d928184613d1a565b905092915050565b600081519050919050565b600082825260208201905092915050565b6000819050602082019050919050565b606082016000820151613ddc6000850182613c6f565b506020820151613def6020850182613c7e565b506040820151613e026040850182613c7e565b50505050565b6000613e148383613dc6565b60608301905092915050565b6000602082019050919050565b6000613e3882613d9a565b613e428185613da5565b9350613e4d83613db6565b8060005b83811015613e7e578151613e658882613e08565b9750613e7083613e20565b925050600181019050613e51565b5085935050505092915050565b60006020820190508181036000830152613ea58184613e2d565b905092915050565b60008060408385031215613ec457613ec36139f4565b5b6000613ed285828601613a15565b9250506020613ee385828601613a15565b9150509250929050565b600081519050919050565b600082825260208201905092915050565b6000819050602082019050919050565b6000819050919050565b613f2c81613f19565b82525050565b6000613f3e8383613f23565b60208301905092915050565b6000602082019050919050565b6000613f6282613eed565b613f6c8185613ef8565b9350613f7783613f09565b8060005b83811015613fa8578151613f8f8882613f32565b9750613f9a83613f4a565b925050600181019050613f7b565b5085935050505092915050565b60006020820190508181036000830152613fcf8184613f57565b905092915050565b600060208284031215613fed57613fec6139f4565b5b6000613ffb84828501613a73565b91505092915050565b60008115159050919050565b61401981614004565b82525050565b60006020820190506140346000830184614010565b92915050565b600080fd5b6000601f19601f8301169050919050565b7f4e487b7100000000000000000000000000000000000000000000000000000000600052604160045260246000fd5b6140888261403f565b810181811067ffffffffffffffff821117156140a7576140a6614050565b5b80604052505050565b60006140ba6139ea565b90506140c6828261407f565b919050565b600067ffffffffffffffff8211156140e6576140e5614050565b5b602082029050602081019050919050565b600080fd5b600061410f61410a846140cb565b6140b0565b90508083825260208201905060208402830185811115614132576141316140f7565b5b835b8181101561415b57806141478882613a15565b845260208401935050602081019050614134565b5050509392505050565b600082601f83011261417a5761417961403a565b5b813561418a8482602086016140fc565b91505092915050565b6000806000606084860312156141ac576141ab6139f4565b5b60006141ba86828701613a15565b93505060206141cb86828701613a15565b925050604084013567ffffffffffffffff8111156141ec576141eb6139f9565b5b6141f886828701614165565b9150509250925092565b61420b81613af4565b811461421657600080fd5b50565b60008135905061422881614202565b92915050565b60008060408385031215614245576142446139f4565b5b600061425385828601613a15565b925050602061426485828601614219565b9150509250929050565b61427781613b13565b82525050565b6000604082019050614292600083018561426e565b61429f602083018461426e565b9392505050565b6142af81613a4a565b82525050565b60006040820190506142ca60008301856142a6565b6142d760208301846139c0565b9392505050565b600080604083850312156142f5576142f46139f4565b5b600061430385828601613a15565b925050602083013567ffffffffffffffff811115614324576143236139f9565b5b61433085828601614165565b9150509250929050565b600060408201905061434f60008301856139c0565b61435c60208301846139c0565b9392505050565b600060208201905061437860008301846142a6565b92915050565b600067ffffffffffffffff82111561439957614398614050565b5b602082029050602081019050919050565b600080fd5b6143b881613b13565b81146143c357600080fd5b50565b6000813590506143d5816143af565b92915050565b6000606082840312156143f1576143f06143aa565b5b6143fb60606140b0565b9050600061440b84828501614219565b600083015250602061441f848285016143c6565b6020830152506040614433848285016143c6565b60408301525092915050565b600061445261444d8461437e565b6140b0565b90508083825260208201905060608402830185811115614475576144746140f7565b5b835b8181101561449e578061448a88826143db565b845260208401935050606081019050614477565b5050509392505050565b600082601f8301126144bd576144bc61403a565b5b81356144cd84826020860161443f565b91505092915050565b6000602082840312156144ec576144eb6139f4565b5b600082013567ffffffffffffffff81111561450a576145096139f9565b5b614516848285016144a8565b91505092915050565b600067ffffffffffffffff82111561453a57614539614050565b5b602082029050602081019050919050565b600060608284031215614561576145606143aa565b5b61456b60606140b0565b9050600061457b84828501613a73565b600083015250602061458f84828501613a15565b60208301525060406145a384828501613a15565b60408301525092915050565b60006145c26145bd8461451f565b6140b0565b905080838252602082019050606084028301858111156145e5576145e46140f7565b5b835b8181101561460e57806145fa888261454b565b8452602084019350506060810190506145e7565b5050509392505050565b600082601f83011261462d5761462c61403a565b5b813561463d8482602086016145af565b91505092915050565b6000806040838503121561465d5761465c6139f4565b5b600061466b85828601613a15565b925050602083013567ffffffffffffffff81111561468c5761468b6139f9565b5b61469885828601614618565b9150509250929050565b600081519050919050565b600082825260208201905092915050565b6000819050602082019050919050565b60e0820160008201516146e46000850182613c6f565b5060208201516146f76020850182613c7e565b50604082015161470a6040850182613c7e565b50606082015161471d6060850182613c7e565b5060808201516147306080850182613c7e565b5060a082015161474360a0850182613c7e565b5060c082015161475660c0850182613c7e565b50505050565b600061476883836146ce565b60e08301905092915050565b6000602082019050919050565b600061478c826146a2565b61479681856146ad565b93506147a1836146be565b8060005b838110156147d25781516147b9888261475c565b97506147c483614774565b9250506001810190506147a5565b5085935050505092915050565b600060208201905081810360008301526147f98184614781565b905092915050565b60008060408385031215614818576148176139f4565b5b600061482685828601613a73565b925050602061483785828601614219565b9150509250929050565b600081519050919050565b600082825260208201905092915050565b6000819050602082019050919050565b60006148798383613b04565b60208301905092915050565b6000602082019050919050565b600061489d82614841565b6148a7818561484c565b93506148b28361485d565b8060005b838110156148e35781516148ca888261486d565b97506148d583614885565b9250506001810190506148b6565b5085935050505092915050565b6000602082019050818103600083015261490a8184614892565b905092915050565b60008060408385031215614929576149286139f4565b5b6000614937858286016143c6565b9250506020614948858286016143c6565b9150509250929050565b7f4e487b7100000000000000000000000000000000000000000000000000000000600052603260045260246000fd5b7f4e487b7100000000000000000000000000000000000000000000000000000000600052601160045260246000fd5b60006149bb826139b6565b91507fffffffffffffffffffffffffffffffffffffffffffffffffffffffffffffffff82036149ed576149ec614981565b5b600182019050919050565b614a0181613f19565b82525050565b6000602082019050614a1c60008301846149f8565b92915050565b600081519050614a31816139fe565b92915050565b600060208284031215614a4d57614a4c6139f4565b5b6000614a5b84828501614a22565b91505092915050565b6000614a6f826139b6565b9150614a7a836139b6565b9250827fffffffffffffffffffffffffffffffffffffffffffffffffffffffffffffffff03821115614aaf57614aae614981565b5b828201905092915050565b600082825260208201905092915050565b7f596f752063616e6e6f7420776974686472617720756e74696c2074686520656e60008201527f64206f662074686520636f6e7465737421000000000000000000000000000000602082015250565b6000614b27603183614aba565b9150614b3282614acb565b604082019050919050565b60006020820190508181036000830152614b5681614b1a565b9050919050565b6000604082019050614b7260008301856139c0565b614b7f60208301846142a6565b9392505050565b6000614b91826139b6565b9150614b9c836139b6565b925082821015614baf57614bae614981565b5b828203905092915050565b6000819050919050565b6000819050919050565b6000614be9614be4614bdf84614bba565b614bc4565b6139b6565b9050919050565b614bf981614bce565b82525050565b6000606082019050614c146000830186614bf0565b614c2160208301856139c0565b614c2e60408301846139c0565b949350505050565b614c3f81613f19565b8114614c4a57600080fd5b50565b600081519050614c5c81614c36565b92915050565b600060208284031215614c7857614c776139f4565b5b6000614c8684828501614c4d565b91505092915050565b614c9881613af4565b82525050565b6000604082019050614cb360008301856149f8565b614cc06020830184614c8f565b9392505050565b600081519050614cd6816143af565b92915050565b614ce581614004565b8114614cf057600080fd5b50565b600081519050614d0281614cdc565b92915050565b600080600060608486031215614d2157614d206139f4565b5b6000614d2f86828701614cc7565b9350506020614d4086828701614cc7565b9250506040614d5186828701614cf3565b9150509250925092565b6000819050919050565b6000614d80614d7b614d7684614d5b565b614bc4565b6139b6565b9050919050565b614d9081614d65565b82525050565b6000606082019050614dab6000830186614d87565b614db860208301856139c0565b614dc560408301846139c0565b949350505050565b60008060408385031215614de457614de36139f4565b5b6000614df285828601614a22565b9250506020614e0385828601614a22565b9150509250929050565b7f596f75206e6565642061207469636b657420666f7220736176696e672070726560008201527f64696374696f6e73210000000000000000000000000000000000000000000000602082015250565b6000614e69602983614aba565b9150614e7482614e0d565b604082019050919050565b60006020820190508181036000830152614e9881614e5c565b9050919050565b7f50726564696374696f6e20506572696f6420697320636c6f7365642100000000600082015250565b6000614ed5601c83614aba565b9150614ee082614e9f565b602082019050919050565b60006020820190508181036000830152614f0481614ec8565b9050919050565b7f546865206e756d626572206f662070726564696374696f6e7320646f65736e2760008201527f74206d6174636821000000000000000000000000000000000000000000000000602082015250565b6000614f67602883614aba565b9150614f7282614f0b565b604082019050919050565b60006020820190508181036000830152614f9681614f5a565b9050919050565b6000614fa8826139b6565b9150614fb3836139b6565b9250817fffffffffffffffffffffffffffffffffffffffffffffffffffffffffffffffff0483118215151615614fec57614feb614981565b5b828202905092915050565b7f4e487b7100000000000000000000000000000000000000000000000000000000600052601260045260246000fd5b6000615031826139b6565b915061503c836139b6565b92508261504c5761504b614ff7565b5b828204905092915050565b600060408201905061506c60008301856149f8565b61507960208301846139c0565b9392505050565b60008151905061508f81614202565b92915050565b6000602082840312156150ab576150aa6139f4565b5b60006150b984828501615080565b91505092915050565b7f4f776e61626c653a206e6577206f776e657220697320746865207a65726f206160008201527f6464726573730000000000000000000000000000000000000000000000000000602082015250565b600061511e602683614aba565b9150615129826150c2565b604082019050919050565b6000602082019050818103600083015261514d81615111565b9050919050565b7f4f776e61626c653a2063616c6c6572206973206e6f7420746865206f776e6572600082015250565b600061518a602083614aba565b915061519582615154565b602082019050919050565b600060208201905081810360008301526151b98161517d565b9050919050565b7f5061757361626c653a206e6f7420706175736564000000000000000000000000600082015250565b60006151f6601483614aba565b9150615201826151c0565b602082019050919050565b60006020820190508181036000830152615225816151e9565b9050919050565b7f5061757361626c653a2070617573656400000000000000000000000000000000600082015250565b6000615262601083614aba565b915061526d8261522c565b602082019050919050565b6000602082019050818103600083015261529181615255565b905091905056fea2646970667358221220ee77e744d2db442ade0e663f4b50157720798d1b1b9d110c219b7a0c029ea11664736f6c634300080f0033",
  "linkReferences": {},
  "deployedLinkReferences": {}
}