{
  "_format": "hh-sol-artifact-1",
  "contractName": "InterpoolContract",
  "sourceName": "contracts/InterpoolContract.sol",
  "abi": [
    {
      "inputs": [],
      "stateMutability": "nonpayable",
      "type": "constructor"
    },
    {
      "anonymous": false,
      "inputs": [
        {
          "indexed": true,
          "internalType": "address",
          "name": "previousOwner",
          "type": "address"
        },
        {
          "indexed": true,
          "internalType": "address",
          "name": "newOwner",
          "type": "address"
        }
      ],
      "name": "OwnershipTransferred",
      "type": "event"
    },
    {
      "anonymous": false,
      "inputs": [
        {
          "indexed": false,
          "internalType": "address",
          "name": "account",
          "type": "address"
        }
      ],
      "name": "Paused",
      "type": "event"
    },
    {
      "anonymous": false,
      "inputs": [
        {
          "indexed": false,
          "internalType": "address",
          "name": "account",
          "type": "address"
        }
      ],
      "name": "Unpaused",
      "type": "event"
    },
    {
      "inputs": [
        {
          "internalType": "uint256",
          "name": "_contestId",
          "type": "uint256"
        },
        {
          "components": [
            {
              "internalType": "address",
              "name": "player",
              "type": "address"
            },
            {
              "internalType": "uint256",
              "name": "nbTickets",
              "type": "uint256"
            },
            {
              "internalType": "uint256",
              "name": "nbPoints",
              "type": "uint256"
            }
          ],
          "internalType": "struct InterpoolContract.PlayerPointsAndTickets[]",
          "name": "_pointsTable",
          "type": "tuple[]"
        }
      ],
      "name": "calculateGain",
      "outputs": [
        {
          "components": [
            {
              "internalType": "address",
              "name": "player",
              "type": "address"
            },
            {
              "internalType": "uint256",
              "name": "nbPoints",
              "type": "uint256"
            },
            {
              "internalType": "uint256",
              "name": "rankExAequo",
              "type": "uint256"
            },
            {
              "internalType": "uint256",
              "name": "rewardNoExAequo",
              "type": "uint256"
            },
            {
              "internalType": "uint256",
              "name": "cumulatedRewardsNoExAequo",
              "type": "uint256"
            },
            {
              "internalType": "uint256",
              "name": "cumulatedRewardsPerRank",
              "type": "uint256"
            },
            {
              "internalType": "uint256",
              "name": "rewardPerRankPerPlayer",
              "type": "uint256"
            }
          ],
          "internalType": "struct InterpoolContract.Gain[]",
          "name": "",
          "type": "tuple[]"
        }
      ],
      "stateMutability": "view",
      "type": "function"
    },
    {
      "inputs": [
        {
          "internalType": "uint8",
          "name": "_homeScore",
          "type": "uint8"
        },
        {
          "internalType": "uint8",
          "name": "_awayScore",
          "type": "uint8"
        }
      ],
      "name": "calculateMatchResult",
      "outputs": [
        {
          "internalType": "uint256",
          "name": "",
          "type": "uint256"
        }
      ],
      "stateMutability": "pure",
      "type": "function"
    },
    {
      "inputs": [],
      "name": "claim",
      "outputs": [],
      "stateMutability": "nonpayable",
      "type": "function"
    },
    {
      "inputs": [
        {
          "internalType": "uint256",
          "name": "_leagueId",
          "type": "uint256"
        },
        {
          "internalType": "uint256",
          "name": "_dateEndContestPredictions",
          "type": "uint256"
        },
        {
          "internalType": "uint256[]",
          "name": "_requestDates",
          "type": "uint256[]"
        }
      ],
      "name": "createContest",
      "outputs": [],
      "stateMutability": "nonpayable",
      "type": "function"
    },
    {
      "inputs": [
        {
          "internalType": "uint256",
          "name": "_contestId",
          "type": "uint256"
        }
      ],
      "name": "createContestTable",
      "outputs": [],
      "stateMutability": "nonpayable",
      "type": "function"
    },
    {
      "inputs": [
        {
          "internalType": "uint256",
          "name": "_amount",
          "type": "uint256"
        }
      ],
      "name": "deposit",
      "outputs": [],
      "stateMutability": "nonpayable",
      "type": "function"
    },
    {
      "inputs": [],
      "name": "getContestPredictionEndDate",
      "outputs": [
        {
          "internalType": "uint256",
          "name": "",
          "type": "uint256"
        }
      ],
      "stateMutability": "view",
      "type": "function"
    },
    {
      "inputs": [
        {
          "internalType": "uint256",
          "name": "_contestId",
          "type": "uint256"
        }
      ],
      "name": "getContestTable",
      "outputs": [
        {
          "components": [
            {
              "internalType": "address",
              "name": "player",
              "type": "address"
            },
            {
              "internalType": "uint256",
              "name": "nbTickets",
              "type": "uint256"
            },
            {
              "internalType": "uint256",
              "name": "nbPoints",
              "type": "uint256"
            },
            {
              "internalType": "uint256",
              "name": "rankExAequo",
              "type": "uint256"
            },
            {
              "internalType": "uint256",
              "name": "rewardPerRankPerPlayer",
              "type": "uint256"
            }
          ],
          "internalType": "struct InterpoolContract.ContestResult[]",
          "name": "",
          "type": "tuple[]"
        }
      ],
      "stateMutability": "view",
      "type": "function"
    },
    {
      "inputs": [],
      "name": "getCurrentContestId",
      "outputs": [
        {
          "internalType": "uint256",
          "name": "",
          "type": "uint256"
        }
      ],
      "stateMutability": "view",
      "type": "function"
    },
    {
      "inputs": [],
      "name": "getGlobalPrizePool",
      "outputs": [
        {
          "internalType": "uint256",
          "name": "",
          "type": "uint256"
        }
      ],
      "stateMutability": "view",
      "type": "function"
    },
    {
      "inputs": [
        {
          "internalType": "uint256",
          "name": "_contestId",
          "type": "uint256"
        }
      ],
      "name": "getIdGamesPerContest",
      "outputs": [
        {
          "internalType": "uint32[]",
          "name": "",
          "type": "uint32[]"
        }
      ],
      "stateMutability": "view",
      "type": "function"
    },
    {
      "inputs": [
        {
          "internalType": "uint256",
          "name": "_contestId",
          "type": "uint256"
        },
        {
          "internalType": "uint256",
          "name": "_market",
          "type": "uint256"
        }
      ],
      "name": "getListRequestIdPerContest",
      "outputs": [
        {
          "internalType": "bytes32[]",
          "name": "",
          "type": "bytes32[]"
        }
      ],
      "stateMutability": "view",
      "type": "function"
    },
    {
      "inputs": [
        {
          "internalType": "uint256",
          "name": "_contestId",
          "type": "uint256"
        }
      ],
      "name": "getNumberOfGamesPerContest",
      "outputs": [
        {
          "internalType": "uint256",
          "name": "",
          "type": "uint256"
        }
      ],
      "stateMutability": "view",
      "type": "function"
    },
    {
      "inputs": [
        {
          "internalType": "uint256",
          "name": "_contestId",
          "type": "uint256"
        }
      ],
      "name": "getNumberOfPlayers",
      "outputs": [
        {
          "internalType": "uint256",
          "name": "",
          "type": "uint256"
        }
      ],
      "stateMutability": "view",
      "type": "function"
    },
    {
      "inputs": [
        {
          "internalType": "uint256",
          "name": "_contestId",
          "type": "uint256"
        },
        {
          "internalType": "address",
          "name": "_player",
          "type": "address"
        }
      ],
      "name": "getPlayerRank",
      "outputs": [
        {
          "internalType": "uint256",
          "name": "",
          "type": "uint256"
        }
      ],
      "stateMutability": "view",
      "type": "function"
    },
    {
      "inputs": [
        {
          "internalType": "uint256",
          "name": "_contestId",
          "type": "uint256"
        },
        {
          "internalType": "address",
          "name": "_player",
          "type": "address"
        }
      ],
      "name": "getPointsOfPlayerForContest",
      "outputs": [
        {
          "internalType": "uint256",
          "name": "",
          "type": "uint256"
        }
      ],
      "stateMutability": "view",
      "type": "function"
    },
    {
      "inputs": [
        {
          "internalType": "uint256",
          "name": "_contestId",
          "type": "uint256"
        }
      ],
      "name": "getPointsTable",
      "outputs": [
        {
          "components": [
            {
              "internalType": "address",
              "name": "player",
              "type": "address"
            },
            {
              "internalType": "uint256",
              "name": "nbTickets",
              "type": "uint256"
            },
            {
              "internalType": "uint256",
              "name": "nbPoints",
              "type": "uint256"
            }
          ],
          "internalType": "struct InterpoolContract.PlayerPointsAndTickets[]",
          "name": "",
          "type": "tuple[]"
        }
      ],
      "stateMutability": "view",
      "type": "function"
    },
    {
      "inputs": [
        {
          "internalType": "uint256",
          "name": "_contestId",
          "type": "uint256"
        },
        {
          "internalType": "address",
          "name": "_player",
          "type": "address"
        }
      ],
      "name": "getPrevisionsPerPlayerPerContest",
      "outputs": [
        {
          "components": [
            {
              "internalType": "uint32",
              "name": "gameId",
              "type": "uint32"
            },
            {
              "internalType": "uint8",
              "name": "homeScore",
              "type": "uint8"
            },
            {
              "internalType": "uint8",
              "name": "awayScore",
              "type": "uint8"
            }
          ],
          "internalType": "struct InterpoolContract.GamePredict[]",
          "name": "",
          "type": "tuple[]"
        }
      ],
      "stateMutability": "view",
      "type": "function"
    },
    {
      "inputs": [
        {
          "internalType": "address",
          "name": "_player",
          "type": "address"
        },
        {
          "internalType": "uint32",
          "name": "_gameId",
          "type": "uint32"
        }
      ],
      "name": "getPrevisionsPerPlayerPerGame",
      "outputs": [
        {
          "internalType": "uint8",
          "name": "",
          "type": "uint8"
        },
        {
          "internalType": "uint8",
          "name": "",
          "type": "uint8"
        }
      ],
      "stateMutability": "view",
      "type": "function"
    },
    {
      "inputs": [
        {
          "internalType": "uint256",
          "name": "_contestId",
          "type": "uint256"
        },
        {
          "internalType": "uint32",
          "name": "_gameId",
          "type": "uint32"
        }
      ],
      "name": "getScoresPerGameId",
      "outputs": [
        {
          "internalType": "uint8",
          "name": "",
          "type": "uint8"
        },
        {
          "internalType": "uint8",
          "name": "",
          "type": "uint8"
        }
      ],
      "stateMutability": "view",
      "type": "function"
    },
    {
      "inputs": [
        {
          "internalType": "address",
          "name": "_player",
          "type": "address"
        }
      ],
      "name": "getWinningsPerPlayer",
      "outputs": [
        {
          "internalType": "uint256",
          "name": "",
          "type": "uint256"
        },
        {
          "internalType": "uint256",
          "name": "",
          "type": "uint256"
        }
      ],
      "stateMutability": "view",
      "type": "function"
    },
    {
      "inputs": [
        {
          "internalType": "uint256",
          "name": "",
          "type": "uint256"
        },
        {
          "internalType": "uint256",
          "name": "",
          "type": "uint256"
        }
      ],
      "name": "listPlayersWithNbTicketsPerContest",
      "outputs": [
        {
          "internalType": "address",
          "name": "player",
          "type": "address"
        },
        {
          "internalType": "uint256",
          "name": "nbTickets",
          "type": "uint256"
        }
      ],
      "stateMutability": "view",
      "type": "function"
    },
    {
      "inputs": [],
      "name": "owner",
      "outputs": [
        {
          "internalType": "address",
          "name": "",
          "type": "address"
        }
      ],
      "stateMutability": "view",
      "type": "function"
    },
    {
      "inputs": [],
      "name": "pause",
      "outputs": [],
      "stateMutability": "nonpayable",
      "type": "function"
    },
    {
      "inputs": [],
      "name": "paused",
      "outputs": [
        {
          "internalType": "bool",
          "name": "",
          "type": "bool"
        }
      ],
      "stateMutability": "view",
      "type": "function"
    },
    {
      "inputs": [],
      "name": "renounceOwnership",
      "outputs": [],
      "stateMutability": "nonpayable",
      "type": "function"
    },
    {
      "inputs": [
        {
          "internalType": "uint256",
          "name": "_leagueId",
          "type": "uint256"
        },
        {
          "internalType": "uint256[]",
          "name": "_requestDates",
          "type": "uint256[]"
        }
      ],
      "name": "resolveGames",
      "outputs": [],
      "stateMutability": "nonpayable",
      "type": "function"
    },
    {
      "inputs": [
        {
          "components": [
            {
              "internalType": "uint32",
              "name": "gameId",
              "type": "uint32"
            },
            {
              "internalType": "uint8",
              "name": "homeScore",
              "type": "uint8"
            },
            {
              "internalType": "uint8",
              "name": "awayScore",
              "type": "uint8"
            }
          ],
          "internalType": "struct InterpoolContract.GamePredict[]",
          "name": "_gamePredictions",
          "type": "tuple[]"
        }
      ],
      "name": "savePrediction",
      "outputs": [],
      "stateMutability": "nonpayable",
      "type": "function"
    },
    {
      "inputs": [
        {
          "internalType": "address",
          "name": "_enetContract",
          "type": "address"
        }
      ],
      "name": "setEnetContract",
      "outputs": [],
      "stateMutability": "nonpayable",
      "type": "function"
    },
    {
      "inputs": [
        {
          "internalType": "address",
          "name": "newOwner",
          "type": "address"
        }
      ],
      "name": "transferOwnership",
      "outputs": [],
      "stateMutability": "nonpayable",
      "type": "function"
    },
    {
      "inputs": [],
      "name": "unpause",
      "outputs": [],
      "stateMutability": "nonpayable",
      "type": "function"
    },
    {
      "inputs": [
        {
          "internalType": "uint256",
          "name": "_nbTickets",
          "type": "uint256"
        }
      ],
      "name": "withdraw",
      "outputs": [],
      "stateMutability": "nonpayable",
      "type": "function"
    }
  ],
  "bytecode": "0x60806040523480156200001157600080fd5b5062000032620000266200013160201b60201c565b6200013960201b60201c565b60008060146101000a81548160ff02191690831515021790555073d81e4a61fd6bf066539df6ea48bfaeae847dcda1600b60006101000a81548173ffffffffffffffffffffffffffffffffffffffff021916908373ffffffffffffffffffffffffffffffffffffffff160217905550620000c67349672edd419e4795307ccc906cab0e8fc5d147f9620001fd60201b60201c565b73332e806ad041a832e0b8ef0470af985b047903a7600d60006101000a81548173ffffffffffffffffffffffffffffffffffffffff021916908373ffffffffffffffffffffffffffffffffffffffff1602179055506005600a8190555060006009819055506200038e565b600033905090565b60008060009054906101000a900473ffffffffffffffffffffffffffffffffffffffff169050816000806101000a81548173ffffffffffffffffffffffffffffffffffffffff021916908373ffffffffffffffffffffffffffffffffffffffff1602179055508173ffffffffffffffffffffffffffffffffffffffff168173ffffffffffffffffffffffffffffffffffffffff167f8be0079c531659141344cd1fd0a4f28419497f9722a3daafe3b4186f6b6457e060405160405180910390a35050565b6200020d6200025160201b60201c565b80600c60006101000a81548173ffffffffffffffffffffffffffffffffffffffff021916908373ffffffffffffffffffffffffffffffffffffffff16021790555050565b620002616200013160201b60201c565b73ffffffffffffffffffffffffffffffffffffffff1662000287620002e260201b60201c565b73ffffffffffffffffffffffffffffffffffffffff1614620002e0576040517f08c379a0000000000000000000000000000000000000000000000000000000008152600401620002d7906200036c565b60405180910390fd5b565b60008060009054906101000a900473ffffffffffffffffffffffffffffffffffffffff16905090565b600082825260208201905092915050565b7f4f776e61626c653a2063616c6c6572206973206e6f7420746865206f776e6572600082015250565b6000620003546020836200030b565b915062000361826200031c565b602082019050919050565b60006020820190508181036000830152620003878162000345565b9050919050565b6151b7806200039e6000396000f3fe608060405234801561001057600080fd5b50600436106101f05760003560e01c8063715018a61161010f578063b6b55f25116100a2578063f2fde38b11610071578063f2fde38b146105cd578063f49a20bd146105e9578063fb46bd2214610619578063fee9016014610637576101f0565b8063b6b55f2514610520578063baf637831461053c578063bd874a1d1461056c578063c7cbdb661461059d576101f0565b80638ad2e864116100de5780638ad2e864146104975780638da5cb5b146104c85780639fa75e9a146104e6578063b4ace15814610502576101f0565b8063715018a61461044b5780637158f6101461045557806371ce137e146104715780638456cb591461048d576101f0565b80634e71d92d1161018757806362436d9d1161015657806362436d9d1461039d57806366194e14146103cd5780636851e9a9146103e95780636fe9141b1461041a576101f0565b80634e71d92d146103155780634fda591e1461031f57806351fe0b4d1461034f5780635c975abb1461037f576101f0565b806327ca8b98116101c357806327ca8b98146102a35780632e1a7d4d146102d35780633f4ba83a146102ef5780633fc10101146102f9576101f0565b806308af2d78146101f5578063117f3998146102135780631d883342146102435780632452a7e314610273575b600080fd5b6101fd610667565b60405161020a91906138b8565b60405180910390f35b61022d60048036038101906102289190613971565b610687565b60405161023a9190613add565b60405180910390f35b61025d60048036038101906102589190613aff565b6108dd565b60405161026a91906138b8565b60405180910390f35b61028d60048036038101906102889190613aff565b610a06565b60405161029a9190613c61565b60405180910390f35b6102bd60048036038101906102b89190613aff565b610af6565b6040516102ca9190613d74565b60405180910390f35b6102ed60048036038101906102e89190613aff565b610c88565b005b6102f7610de2565b005b610313600480360381019061030e9190613aff565b610df4565b005b61031d611463565b005b61033960048036038101906103349190613971565b6114f2565b60405161034691906138b8565b60405180910390f35b61036960048036038101906103649190613d96565b611724565b6040516103769190613e9e565b60405180910390f35b610387611802565b6040516103949190613edb565b60405180910390f35b6103b760048036038101906103b29190613aff565b611818565b6040516103c491906138b8565b60405180910390f35b6103e760048036038101906103e2919061404f565b611838565b005b61040360048036038101906103fe91906140ea565b6119bc565b604051610411929190614139565b60405180910390f35b610434600480360381019061042f9190613d96565b611b02565b604051610442929190614171565b60405180910390f35b610453611b63565b005b61046f600480360381019061046a919061419a565b611b77565b005b61048b600480360381019061048691906141f6565b611ca1565b005b610495611ced565b005b6104b160048036038101906104ac91906141f6565b611cff565b6040516104bf929190614223565b60405180910390f35b6104d0611da6565b6040516104dd919061424c565b60405180910390f35b61050060048036038101906104fb91906143bf565b611dcf565b005b61050a61234b565b60405161051791906138b8565b60405180910390f35b61053a60048036038101906105359190613aff565b6123e3565b005b6105566004803603810190610551919061452f565b612475565b60405161056391906146c8565b60405180910390f35b610586600480360381019061058191906146ea565b612e76565b604051610594929190614139565b60405180910390f35b6105b760048036038101906105b29190613aff565b612f79565b6040516105c491906147d9565b60405180910390f35b6105e760048036038101906105e291906141f6565b61320a565b005b61060360048036038101906105fe91906147fb565b61328d565b60405161061091906138b8565b60405180910390f35b6106216132ce565b60405161062e91906138b8565b60405180910390f35b610651600480360381019061064c9190613971565b6132d8565b60405161065e91906138b8565b60405180910390f35b600060016000600954815260200190815260200160002060010154905090565b60606000610694846108dd565b90506000808267ffffffffffffffff8111156106b3576106b2613f0c565b5b6040519080825280602002602001820160405280156106ec57816020015b6106d96136ca565b8152602001906001900390816106d15790505b50905060008367ffffffffffffffff81111561070b5761070a613f0c565b5b6040519080825280602002602001820160405280156107395781602001602082028036833780820191505090505b50905061074587612f79565b905060005b848110156108cf578181815181106107655761076461483b565b5b6020026020010151935060405180606001604052808563ffffffff168152602001600460008a73ffffffffffffffffffffffffffffffffffffffff1673ffffffffffffffffffffffffffffffffffffffff16815260200190815260200160002060008763ffffffff1663ffffffff1681526020019081526020016000206000600281106107f5576107f461483b565b5b602091828204019190069054906101000a900460ff1660ff168152602001600460008a73ffffffffffffffffffffffffffffffffffffffff1673ffffffffffffffffffffffffffffffffffffffff16815260200190815260200160002060008763ffffffff1663ffffffff1681526020019081526020016000206001600281106108825761088161483b565b5b602091828204019190069054906101000a900460ff1660ff168152508382815181106108b1576108b061483b565b5b602002602001018190525080806108c790614899565b91505061074a565b508194505050505092915050565b6000806000905060006005600085815260200190815260200160002080549050905060005b818110156109fb5760006005600087815260200190815260200160002082815481106109315761093061483b565b5b90600052602060002001549050600c60009054906101000a900473ffffffffffffffffffffffffffffffffffffffff1673ffffffffffffffffffffffffffffffffffffffff1663f02e41a3826040518263ffffffff1660e01b815260040161099991906148f0565b602060405180830381865afa1580156109b6573d6000803e3d6000fd5b505050506040513d601f19601f820116820180604052508101906109da9190614920565b846109e5919061494d565b93505080806109f390614899565b915050610902565b508192505050919050565b606060076000838152602001908152602001600020805480602002602001604051908101604052809291908181526020016000905b82821015610aeb57838290600052602060002090600502016040518060a00160405290816000820160009054906101000a900473ffffffffffffffffffffffffffffffffffffffff1673ffffffffffffffffffffffffffffffffffffffff1673ffffffffffffffffffffffffffffffffffffffff16815260200160018201548152602001600282015481526020016003820154815260200160048201548152505081526020019060010190610a3b565b505050509050919050565b60606000600260008481526020019081526020016000208054905090506000806000808467ffffffffffffffff811115610b3357610b32613f0c565b5b604051908082528060200260200182016040528015610b6c57816020015b610b596136f7565b815260200190600190039081610b515790505b50905060005b85811015610c7a57600260008981526020019081526020016000208181548110610b9f57610b9e61483b565b5b906000526020600020906002020160000160009054906101000a900473ffffffffffffffffffffffffffffffffffffffff169450600260008981526020019081526020016000208181548110610bf857610bf761483b565b5b9060005260206000209060020201600101549350610c1688866132d8565b925060405180606001604052808673ffffffffffffffffffffffffffffffffffffffff16815260200185815260200184815250828281518110610c5c57610c5b61483b565b5b60200260200101819052508080610c7290614899565b915050610b72565b508095505050505050919050565b6000151560086000600954815260200190815260200160002060003373ffffffffffffffffffffffffffffffffffffffff1673ffffffffffffffffffffffffffffffffffffffff16815260200190815260200160002060009054906101000a900460ff1615151480610d1157506001600060095481526020019081526020016000206001015442115b610d50576040517f08c379a0000000000000000000000000000000000000000000000000000000008152600401610d4790614a26565b60405180910390fd5b600d60009054906101000a900473ffffffffffffffffffffffffffffffffffffffff1673ffffffffffffffffffffffffffffffffffffffff16632cbcb1f282336040518363ffffffff1660e01b8152600401610dad929190614a46565b600060405180830381600087803b158015610dc757600080fd5b505af1158015610ddb573d6000803e3d6000fd5b5050505050565b610dea613428565b610df26134a6565b565b610dfc613428565b600b60009054906101000a900473ffffffffffffffffffffffffffffffffffffffff1673ffffffffffffffffffffffffffffffffffffffff166318160ddd6040518163ffffffff1660e01b8152600401602060405180830381865afa158015610e69573d6000803e3d6000fd5b505050506040513d601f19601f82011682018060405250810190610e8d9190614920565b60036000838152602001908152602001600020819055506000610eaf82610af6565b90506000610ebd8383612475565b90506000600760008581526020019081526020016000206040518060a0016040528084600081518110610ef357610ef261483b565b5b60200260200101516000015173ffffffffffffffffffffffffffffffffffffffff1681526020016001815260200184600081518110610f3557610f3461483b565b5b602002602001015160200151815260200184600081518110610f5a57610f5961483b565b5b602002602001015160400151815260200184600081518110610f7f57610f7e61483b565b5b602002602001015160c00151815250908060018154018082558091505060019003906000526020600020906005020160009091909190915060008201518160000160006101000a81548173ffffffffffffffffffffffffffffffffffffffff021916908373ffffffffffffffffffffffffffffffffffffffff1602179055506020820151816001015560408201518160020155606082015181600301556080820151816004015550506000600190505b600360008681526020019081526020016000205481101561130657826001826110589190614a6f565b815181106110695761106861483b565b5b60200260200101516000015173ffffffffffffffffffffffffffffffffffffffff1683828151811061109e5761109d61483b565b5b60200260200101516000015173ffffffffffffffffffffffffffffffffffffffff1603611181576007600086815260200190815260200160002082815481106110ea576110e961483b565b5b9060005260206000209060050201600101600081548092919061110c90614899565b91905055508281815181106111245761112361483b565b5b602002602001015160c001516007600087815260200190815260200160002083815481106111555761115461483b565b5b90600052602060002090600502016004016000828254611175919061494d565b925050819055506112f3565b600760008681526020019081526020016000206040518060a001604052808584815181106111b2576111b161483b565b5b60200260200101516000015173ffffffffffffffffffffffffffffffffffffffff168152602001600181526020018584815181106111f3576111f261483b565b5b60200260200101516020015181526020018584815181106112175761121661483b565b5b602002602001015160400151815260200185848151811061123b5761123a61483b565b5b602002602001015160c00151815250908060018154018082558091505060019003906000526020600020906005020160009091909190915060008201518160000160006101000a81548173ffffffffffffffffffffffffffffffffffffffff021916908373ffffffffffffffffffffffffffffffffffffffff16021790555060208201518160010155604082015181600201556060820151816003015560808201518160040155505081806112ef90614899565b9250505b80806112fe90614899565b91505061102f565b5060005b600760008681526020019081526020016000208054905081101561145c57600060076000878152602001908152602001600020828154811061134f5761134e61483b565b5b906000526020600020906005020160000160009054906101000a900473ffffffffffffffffffffffffffffffffffffffff169050600d60009054906101000a900473ffffffffffffffffffffffffffffffffffffffff1673ffffffffffffffffffffffffffffffffffffffff166371dd884082600760008a815260200190815260200160002085815481106113e7576113e661483b565b5b9060005260206000209060050201600401546040518363ffffffff1660e01b8152600401611416929190614171565b600060405180830381600087803b15801561143057600080fd5b505af1158015611444573d6000803e3d6000fd5b5050505050808061145490614899565b91505061130a565b5050505050565b600d60009054906101000a900473ffffffffffffffffffffffffffffffffffffffff1673ffffffffffffffffffffffffffffffffffffffff16630de6e321336040518263ffffffff1660e01b81526004016114be919061424c565b600060405180830381600087803b1580156114d857600080fd5b505af11580156114ec573d6000803e3d6000fd5b50505050565b6000806114fe84610af6565b9050600080825190506000808267ffffffffffffffff81111561152457611523613f0c565b5b60405190808252806020026020018201604052801561155d57816020015b61154a61372e565b8152602001906001900390816115425790505b50905060005b8381101561167f576001945060005b848110156115e05786818151811061158d5761158c61483b565b5b6020026020010151604001518783815181106115ac576115ab61483b565b5b60200260200101516040015110156115cd5785806115c990614899565b9650505b80806115d890614899565b915050611572565b5060405180606001604052808783815181106115ff576115fe61483b565b5b60200260200101516000015173ffffffffffffffffffffffffffffffffffffffff1681526020018783815181106116395761163861483b565b5b6020026020010151604001518152602001868152508282815181106116615761166061483b565b5b6020026020010181905250808061167790614899565b915050611563565b5060005b838110156117155781818151811061169e5761169d61483b565b5b60200260200101516000015173ffffffffffffffffffffffffffffffffffffffff168873ffffffffffffffffffffffffffffffffffffffff1603611702578181815181106116ef576116ee61483b565b5b6020026020010151604001519250611715565b808061170d90614899565b915050611683565b50819550505050505092915050565b606060008203611797576005600084815260200190815260200160002080548060200260200160405190810160405280929190818152602001828054801561178b57602002820191906000526020600020905b815481526020019060010190808311611777575b505050505090506117fc565b600660008481526020019081526020016000208054806020026020016040519081016040528092919081815260200182805480156117f457602002820191906000526020600020905b8154815260200190600101908083116117e0575b505050505090505b92915050565b60008060149054906101000a900460ff16905090565b600060026000838152602001908152602001600020805490509050919050565b611840613428565b6009600081548092919061185390614899565b919050555060008151905060005b8181101561197457600560006009548152602001908152602001600020600c60009054906101000a900473ffffffffffffffffffffffffffffffffffffffff1673ffffffffffffffffffffffffffffffffffffffff1663580c2f546000888786815181106118d2576118d161483b565b5b60200260200101516040518463ffffffff1660e01b81526004016118f893929190614ae8565b6020604051808303816000875af1158015611917573d6000803e3d6000fd5b505050506040513d601f19601f8201168201806040525081019061193b9190614b4b565b9080600181540180825580915050600190039060005260206000200160009091909190915055808061196c90614899565b915050611861565b50604051806040016040528085815260200184815250600160006009548152602001908152602001600020600082015181600001556020820151816001015590505050505050565b600080600060066000868152602001908152602001600020805490509050600060ff905060008060005b84811015611af0576000600660008b81526020019081526020016000208281548110611a1557611a1461483b565b5b90600052602060002001549050600c60009054906101000a900473ffffffffffffffffffffffffffffffffffffffff1673ffffffffffffffffffffffffffffffffffffffff16633910b2c2828b6040518363ffffffff1660e01b8152600401611a7f929190614b87565b606060405180830381865afa158015611a9c573d6000803e3d6000fd5b505050506040513d601f19601f82011682018060405250810190611ac09190614bf1565b809550819650829750505050600192508215611adc5750611af0565b508080611ae890614899565b9150506119e6565b50828295509550505050509250929050565b60026020528160005260406000208181548110611b1e57600080fd5b9060005260206000209060020201600091509150508060000160009054906101000a900473ffffffffffffffffffffffffffffffffffffffff16908060010154905082565b611b6b613428565b611b756000613508565b565b611b7f613428565b60008151905060005b81811015611c9b57600660006009548152602001908152602001600020600c60009054906101000a900473ffffffffffffffffffffffffffffffffffffffff1673ffffffffffffffffffffffffffffffffffffffff1663580c2f54600187878681518110611bf957611bf861483b565b5b60200260200101516040518463ffffffff1660e01b8152600401611c1f93929190614c7f565b6020604051808303816000875af1158015611c3e573d6000803e3d6000fd5b505050506040513d601f19601f82011682018060405250810190611c629190614b4b565b90806001815401808255809150506001900390600052602060002001600090919091909150558080611c9390614899565b915050611b88565b50505050565b611ca9613428565b80600c60006101000a81548173ffffffffffffffffffffffffffffffffffffffff021916908373ffffffffffffffffffffffffffffffffffffffff16021790555050565b611cf5613428565b611cfd6135cc565b565b600080600d60009054906101000a900473ffffffffffffffffffffffffffffffffffffffff1673ffffffffffffffffffffffffffffffffffffffff16638ad2e864846040518263ffffffff1660e01b8152600401611d5d919061424c565b6040805180830381865afa158015611d79573d6000803e3d6000fd5b505050506040513d601f19601f82011682018060405250810190611d9d9190614cb6565b91509150915091565b60008060009054906101000a900473ffffffffffffffffffffffffffffffffffffffff16905090565b6000600b60009054906101000a900473ffffffffffffffffffffffffffffffffffffffff1673ffffffffffffffffffffffffffffffffffffffff166370a08231336040518263ffffffff1660e01b8152600401611e2c919061424c565b602060405180830381865afa158015611e49573d6000803e3d6000fd5b505050506040513d601f19601f82011682018060405250810190611e6d9190614920565b11611ead576040517f08c379a0000000000000000000000000000000000000000000000000000000008152600401611ea490614d68565b60405180910390fd5b600160006009548152602001908152602001600020600101544210611f07576040517f08c379a0000000000000000000000000000000000000000000000000000000008152600401611efe90614dd4565b60405180910390fd5b611f126009546108dd565b815114611f54576040517f08c379a0000000000000000000000000000000000000000000000000000000008152600401611f4b90614e66565b60405180910390fd5b6000611f616009546108dd565b90506000600b60009054906101000a900473ffffffffffffffffffffffffffffffffffffffff1673ffffffffffffffffffffffffffffffffffffffff166370a08231336040518263ffffffff1660e01b8152600401611fc0919061424c565b602060405180830381865afa158015611fdd573d6000803e3d6000fd5b505050506040513d601f19601f820116820180604052508101906120019190614920565b905060005b8281101561210757604051806040016040528085838151811061202c5761202b61483b565b5b60200260200101516020015160ff1660ff1681526020018583815181106120565761205561483b565b5b60200260200101516040015160ff1660ff16815250600460003373ffffffffffffffffffffffffffffffffffffffff1673ffffffffffffffffffffffffffffffffffffffff16815260200190815260200160002060008684815181106120bf576120be61483b565b5b60200260200101516000015163ffffffff1663ffffffff1681526020019081526020016000209060026120f3929190613765565b5080806120ff90614899565b915050612006565b50600080600090505b600260006009548152602001908152602001600020805490508110156122105760026000600954815260200190815260200160002081815481106121575761215661483b565b5b906000526020600020906002020160000160009054906101000a900473ffffffffffffffffffffffffffffffffffffffff1673ffffffffffffffffffffffffffffffffffffffff163373ffffffffffffffffffffffffffffffffffffffff16036121fd578260026000600954815260200190815260200160002082815481106121e3576121e261483b565b5b906000526020600020906002020160010181905550600191505b808061220890614899565b915050612110565b5060001515811515036123455760026000600954815260200190815260200160002060405180604001604052803373ffffffffffffffffffffffffffffffffffffffff16815260200184815250908060018154018082558091505060019003906000526020600020906002020160009091909190915060008201518160000160006101000a81548173ffffffffffffffffffffffffffffffffffffffff021916908373ffffffffffffffffffffffffffffffffffffffff160217905550602082015181600101555050600160086000600954815260200190815260200160002060003373ffffffffffffffffffffffffffffffffffffffff1673ffffffffffffffffffffffffffffffffffffffff16815260200190815260200160002060006101000a81548160ff0219169083151502179055505b50505050565b6000600d60009054906101000a900473ffffffffffffffffffffffffffffffffffffffff1673ffffffffffffffffffffffffffffffffffffffff1663b4ace1586040518163ffffffff1660e01b8152600401602060405180830381865afa1580156123ba573d6000803e3d6000fd5b505050506040513d601f19601f820116820180604052508101906123de9190614920565b905090565b600d60009054906101000a900473ffffffffffffffffffffffffffffffffffffffff1673ffffffffffffffffffffffffffffffffffffffff1663016fc9d782336040518363ffffffff1660e01b8152600401612440929190614a46565b600060405180830381600087803b15801561245a57600080fd5b505af115801561246e573d6000803e3d6000fd5b5050505050565b606060008060008080600080600d60009054906101000a900473ffffffffffffffffffffffffffffffffffffffff1673ffffffffffffffffffffffffffffffffffffffff1663b4ace1586040518163ffffffff1660e01b8152600401602060405180830381865afa1580156124ee573d6000803e3d6000fd5b505050506040513d601f19601f820116820180604052508101906125129190614920565b90506000600360008c815260200190815260200160002054905060008167ffffffffffffffff81111561254857612547613f0c565b5b60405190808252806020026020018201604052801561258157816020015b61256e6137ff565b8152602001906001900390816125665790505b50905060008267ffffffffffffffff8111156125a05761259f613f0c565b5b6040519080825280602002602001820160405280156125d957816020015b6125c661372e565b8152602001906001900390816125be5790505b50905060008367ffffffffffffffff8111156125f8576125f7613f0c565b5b60405190808252806020026020018201604052801561263157816020015b61261e61382f565b8152602001906001900390816126165790505b50905060005b8d518110156126f55760008e82815181106126555761265461483b565b5b6020026020010151905060005b81602001518110156126e0576040518060400160405280836000015173ffffffffffffffffffffffffffffffffffffffff1681526020018360400151815250868a815181106126b4576126b361483b565b5b602002602001018190525088806126ca90614899565b99505080806126d890614899565b915050612662565b505080806126ed90614899565b915050612637565b5060005b848110156128215760019b5060005b85811015612782578481815181106127235761272261483b565b5b6020026020010151602001518583815181106127425761274161483b565b5b602002602001015160200151101561276f578c8061275f90614899565b9d50508b8d111561276e578c9b505b5b808061277a90614899565b915050612708565b5060405180606001604052808583815181106127a1576127a061483b565b5b60200260200101516000015173ffffffffffffffffffffffffffffffffffffffff1681526020018583815181106127db576127da61483b565b5b60200260200101516020015181526020018d8152508382815181106128035761280261483b565b5b6020026020010181905250808061281990614899565b9150506126f9565b50600095506000600190505b8a811161295f5760005b8581101561294b57818482815181106128535761285261483b565b5b60200260200101516040015103612938576040518060e001604052808583815181106128825761288161483b565b5b60200260200101516000015173ffffffffffffffffffffffffffffffffffffffff1681526020018583815181106128bc576128bb61483b565b5b60200260200101516020015181526020018583815181106128e0576128df61483b565b5b6020026020010151604001518152602001600081526020016000815260200160008152602001600081525083898151811061291e5761291d61483b565b5b6020026020010181905250878061293490614899565b9850505b808061294390614899565b915050612837565b50808061295790614899565b91505061282d565b506064600a548a876129719190614a6f565b61297b9190614e86565b6129859190614f0f565b96508689612993919061494d565b985086816000815181106129aa576129a961483b565b5b6020026020010151606001818152505086816000815181106129cf576129ce61483b565b5b6020026020010151608001818152505086816000815181106129f4576129f361483b565b5b602002602001015160a00181815250508681600081518110612a1957612a1861483b565b5b602002602001015160c00181815250506000600190505b84811015612e61576064600a548b88612a499190614a6f565b612a539190614e86565b612a5d9190614f0f565b975087828281518110612a7357612a7261483b565b5b60200260200101516060018181525050878a612a8f919061494d565b995089828281518110612aa557612aa461483b565b5b60200260200101516080018181525050600185612ac29190614a6f565b8114612ca85781600182612ad69190614a6f565b81518110612ae757612ae661483b565b5b602002602001015160400151828281518110612b0657612b0561483b565b5b60200260200101516040015103612b75578782600183612b269190614a6f565b81518110612b3757612b3661483b565b5b602002602001015160a00151612b4d919061494d565b828281518110612b6057612b5f61483b565b5b602002602001015160a0018181525050612ca3565b87828281518110612b8957612b8861483b565b5b602002602001015160a001818152505087828281518110612bad57612bac61483b565b5b602002602001015160c001818152505081600182612bcb9190614a6f565b81518110612bdc57612bdb61483b565b5b602002602001015160400151828281518110612bfb57612bfa61483b565b5b602002602001015160400151612c119190614a6f565b985060005b89811015612ca1578983600184612c2d9190614a6f565b81518110612c3e57612c3d61483b565b5b602002602001015160a00151612c549190614f0f565b83600183612c62919061494d565b84612c6d9190614a6f565b81518110612c7e57612c7d61483b565b5b602002602001015160c00181815250508080612c9990614899565b915050612c16565b505b612e4e565b81600182612cb69190614a6f565b81518110612cc757612cc661483b565b5b602002602001015160400151828281518110612ce657612ce561483b565b5b60200260200101516040015103612e04578782600183612d069190614a6f565b81518110612d1757612d1661483b565b5b602002602001015160a00151612d2d919061494d565b828281518110612d4057612d3f61483b565b5b602002602001015160a0018181525050818181518110612d6357612d6261483b565b5b602002602001015160400151600186612d7c919061494d565b612d869190614a6f565b985060005b89811015612dfe5789838381518110612da757612da661483b565b5b602002602001015160a00151612dbd9190614f0f565b838284612dca9190614a6f565b81518110612ddb57612dda61483b565b5b602002602001015160c00181815250508080612df690614899565b915050612d8b565b50612e4d565b87828281518110612e1857612e1761483b565b5b602002602001015160a001818152505087828281518110612e3c57612e3b61483b565b5b602002602001015160c00181815250505b5b8080612e5990614899565b915050612a30565b50809b50505050505050505050505092915050565b6000806000600460008673ffffffffffffffffffffffffffffffffffffffff1673ffffffffffffffffffffffffffffffffffffffff16815260200190815260200160002060008563ffffffff1663ffffffff168152602001908152602001600020600280602002604051908101604052809291908260028015612f34576020028201916000905b82829054906101000a900460ff1660ff1681526020019060010190602082600001049283019260010382029150808411612efd5790505b5050505050905080600060028110612f4f57612f4e61483b565b5b602002015181600160028110612f6857612f6761483b565b5b602002015192509250509250929050565b60606000612f86836108dd565b90506000808267ffffffffffffffff811115612fa557612fa4613f0c565b5b604051908082528060200260200182016040528015612fd35781602001602082028036833780820191505090505b50905060005b60056000878152602001908152602001600020805490508110156131fe57600c60009054906101000a900473ffffffffffffffffffffffffffffffffffffffff1673ffffffffffffffffffffffffffffffffffffffff1663f02e41a360056000898152602001908152602001600020838154811061305a5761305961483b565b5b90600052602060002001546040518263ffffffff1660e01b815260040161308191906148f0565b602060405180830381865afa15801561309e573d6000803e3d6000fd5b505050506040513d601f19601f820116820180604052508101906130c29190614920565b935060005b848110156131ea57600c60009054906101000a900473ffffffffffffffffffffffffffffffffffffffff1673ffffffffffffffffffffffffffffffffffffffff1663ab2fb9a9600560008a815260200190815260200160002084815481106131325761313161483b565b5b9060005260206000200154836040518363ffffffff1660e01b815260040161315b929190614f40565b602060405180830381865afa158015613178573d6000803e3d6000fd5b505050506040513d601f19601f8201168201806040525081019061319c9190614f7e565b8385815181106131af576131ae61483b565b5b602002602001019063ffffffff16908163ffffffff168152505083806131d490614899565b94505080806131e290614899565b9150506130c7565b5080806131f690614899565b915050612fd9565b50809350505050919050565b613212613428565b600073ffffffffffffffffffffffffffffffffffffffff168173ffffffffffffffffffffffffffffffffffffffff1603613281576040517f08c379a00000000000000000000000000000000000000000000000000000000081526004016132789061501d565b60405180910390fd5b61328a81613508565b50565b6000808260ff168460ff1611156132a757600090506132c4565b8360ff168360ff1611156132be57600290506132c3565b600190505b5b8091505092915050565b6000600954905090565b600080600080600090506000806132ee886108dd565b905060008167ffffffffffffffff81111561330c5761330b613f0c565b5b60405190808252806020026020018201604052801561333a5781602001602082028036833780820191505090505b50905061334689612f79565b905060005b82811015613418578181815181106133665761336561483b565b5b6020026020010151935060008061337d8c876119bc565b9150915060008061338e8d89612e76565b9150915061339c828261328d565b9a506133a8848461328d565b9950898b1480156133bd575060ff8460ff1614155b15613401576001896133cf919061494d565b98508360ff168260ff161480156133eb57508260ff168160ff16145b15613400576002896133fd919061494d565b98505b5b50505050808061341090614899565b91505061334b565b5083965050505050505092915050565b61343061362f565b73ffffffffffffffffffffffffffffffffffffffff1661344e611da6565b73ffffffffffffffffffffffffffffffffffffffff16146134a4576040517f08c379a000000000000000000000000000000000000000000000000000000000815260040161349b90615089565b60405180910390fd5b565b6134ae613637565b60008060146101000a81548160ff0219169083151502179055507f5db9ee0a495bf2e6ff9c91a7834c1ba4fdd244a5e8aa4e537bd38aeae4b073aa6134f161362f565b6040516134fe919061424c565b60405180910390a1565b60008060009054906101000a900473ffffffffffffffffffffffffffffffffffffffff169050816000806101000a81548173ffffffffffffffffffffffffffffffffffffffff021916908373ffffffffffffffffffffffffffffffffffffffff1602179055508173ffffffffffffffffffffffffffffffffffffffff168173ffffffffffffffffffffffffffffffffffffffff167f8be0079c531659141344cd1fd0a4f28419497f9722a3daafe3b4186f6b6457e060405160405180910390a35050565b6135d4613680565b6001600060146101000a81548160ff0219169083151502179055507f62e78cea01bee320cd4e420270b5ea74000d11b0c9f74754ebdbfc544b05a25861361861362f565b604051613625919061424c565b60405180910390a1565b600033905090565b61363f611802565b61367e576040517f08c379a0000000000000000000000000000000000000000000000000000000008152600401613675906150f5565b60405180910390fd5b565b613688611802565b156136c8576040517f08c379a00000000000000000000000000000000000000000000000000000000081526004016136bf90615161565b60405180910390fd5b565b6040518060600160405280600063ffffffff168152602001600060ff168152602001600060ff1681525090565b6040518060600160405280600073ffffffffffffffffffffffffffffffffffffffff16815260200160008152602001600081525090565b6040518060600160405280600073ffffffffffffffffffffffffffffffffffffffff16815260200160008152602001600081525090565b826002601f016020900481019282156137ee5791602002820160005b838211156137bf57835183826101000a81548160ff021916908360ff1602179055509260200192600101602081600001049283019260010302613781565b80156137ec5782816101000a81549060ff02191690556001016020816000010492830192600103026137bf565b505b5090506137fb9190613882565b5090565b6040518060400160405280600073ffffffffffffffffffffffffffffffffffffffff168152602001600081525090565b6040518060e00160405280600073ffffffffffffffffffffffffffffffffffffffff1681526020016000815260200160008152602001600081526020016000815260200160008152602001600081525090565b5b8082111561389b576000816000905550600101613883565b5090565b6000819050919050565b6138b28161389f565b82525050565b60006020820190506138cd60008301846138a9565b92915050565b6000604051905090565b600080fd5b600080fd5b6138f08161389f565b81146138fb57600080fd5b50565b60008135905061390d816138e7565b92915050565b600073ffffffffffffffffffffffffffffffffffffffff82169050919050565b600061393e82613913565b9050919050565b61394e81613933565b811461395957600080fd5b50565b60008135905061396b81613945565b92915050565b60008060408385031215613988576139876138dd565b5b6000613996858286016138fe565b92505060206139a78582860161395c565b9150509250929050565b600081519050919050565b600082825260208201905092915050565b6000819050602082019050919050565b600063ffffffff82169050919050565b6139f6816139dd565b82525050565b600060ff82169050919050565b613a12816139fc565b82525050565b606082016000820151613a2e60008501826139ed565b506020820151613a416020850182613a09565b506040820151613a546040850182613a09565b50505050565b6000613a668383613a18565b60608301905092915050565b6000602082019050919050565b6000613a8a826139b1565b613a9481856139bc565b9350613a9f836139cd565b8060005b83811015613ad0578151613ab78882613a5a565b9750613ac283613a72565b925050600181019050613aa3565b5085935050505092915050565b60006020820190508181036000830152613af78184613a7f565b905092915050565b600060208284031215613b1557613b146138dd565b5b6000613b23848285016138fe565b91505092915050565b600081519050919050565b600082825260208201905092915050565b6000819050602082019050919050565b613b6181613933565b82525050565b613b708161389f565b82525050565b60a082016000820151613b8c6000850182613b58565b506020820151613b9f6020850182613b67565b506040820151613bb26040850182613b67565b506060820151613bc56060850182613b67565b506080820151613bd86080850182613b67565b50505050565b6000613bea8383613b76565b60a08301905092915050565b6000602082019050919050565b6000613c0e82613b2c565b613c188185613b37565b9350613c2383613b48565b8060005b83811015613c54578151613c3b8882613bde565b9750613c4683613bf6565b925050600181019050613c27565b5085935050505092915050565b60006020820190508181036000830152613c7b8184613c03565b905092915050565b600081519050919050565b600082825260208201905092915050565b6000819050602082019050919050565b606082016000820151613cc56000850182613b58565b506020820151613cd86020850182613b67565b506040820151613ceb6040850182613b67565b50505050565b6000613cfd8383613caf565b60608301905092915050565b6000602082019050919050565b6000613d2182613c83565b613d2b8185613c8e565b9350613d3683613c9f565b8060005b83811015613d67578151613d4e8882613cf1565b9750613d5983613d09565b925050600181019050613d3a565b5085935050505092915050565b60006020820190508181036000830152613d8e8184613d16565b905092915050565b60008060408385031215613dad57613dac6138dd565b5b6000613dbb858286016138fe565b9250506020613dcc858286016138fe565b9150509250929050565b600081519050919050565b600082825260208201905092915050565b6000819050602082019050919050565b6000819050919050565b613e1581613e02565b82525050565b6000613e278383613e0c565b60208301905092915050565b6000602082019050919050565b6000613e4b82613dd6565b613e558185613de1565b9350613e6083613df2565b8060005b83811015613e91578151613e788882613e1b565b9750613e8383613e33565b925050600181019050613e64565b5085935050505092915050565b60006020820190508181036000830152613eb88184613e40565b905092915050565b60008115159050919050565b613ed581613ec0565b82525050565b6000602082019050613ef06000830184613ecc565b92915050565b600080fd5b6000601f19601f8301169050919050565b7f4e487b7100000000000000000000000000000000000000000000000000000000600052604160045260246000fd5b613f4482613efb565b810181811067ffffffffffffffff82111715613f6357613f62613f0c565b5b80604052505050565b6000613f766138d3565b9050613f828282613f3b565b919050565b600067ffffffffffffffff821115613fa257613fa1613f0c565b5b602082029050602081019050919050565b600080fd5b6000613fcb613fc684613f87565b613f6c565b90508083825260208201905060208402830185811115613fee57613fed613fb3565b5b835b81811015614017578061400388826138fe565b845260208401935050602081019050613ff0565b5050509392505050565b600082601f83011261403657614035613ef6565b5b8135614046848260208601613fb8565b91505092915050565b600080600060608486031215614068576140676138dd565b5b6000614076868287016138fe565b9350506020614087868287016138fe565b925050604084013567ffffffffffffffff8111156140a8576140a76138e2565b5b6140b486828701614021565b9150509250925092565b6140c7816139dd565b81146140d257600080fd5b50565b6000813590506140e4816140be565b92915050565b60008060408385031215614101576141006138dd565b5b600061410f858286016138fe565b9250506020614120858286016140d5565b9150509250929050565b614133816139fc565b82525050565b600060408201905061414e600083018561412a565b61415b602083018461412a565b9392505050565b61416b81613933565b82525050565b60006040820190506141866000830185614162565b61419360208301846138a9565b9392505050565b600080604083850312156141b1576141b06138dd565b5b60006141bf858286016138fe565b925050602083013567ffffffffffffffff8111156141e0576141df6138e2565b5b6141ec85828601614021565b9150509250929050565b60006020828403121561420c5761420b6138dd565b5b600061421a8482850161395c565b91505092915050565b600060408201905061423860008301856138a9565b61424560208301846138a9565b9392505050565b60006020820190506142616000830184614162565b92915050565b600067ffffffffffffffff82111561428257614281613f0c565b5b602082029050602081019050919050565b600080fd5b6142a1816139fc565b81146142ac57600080fd5b50565b6000813590506142be81614298565b92915050565b6000606082840312156142da576142d9614293565b5b6142e46060613f6c565b905060006142f4848285016140d5565b6000830152506020614308848285016142af565b602083015250604061431c848285016142af565b60408301525092915050565b600061433b61433684614267565b613f6c565b9050808382526020820190506060840283018581111561435e5761435d613fb3565b5b835b81811015614387578061437388826142c4565b845260208401935050606081019050614360565b5050509392505050565b600082601f8301126143a6576143a5613ef6565b5b81356143b6848260208601614328565b91505092915050565b6000602082840312156143d5576143d46138dd565b5b600082013567ffffffffffffffff8111156143f3576143f26138e2565b5b6143ff84828501614391565b91505092915050565b600067ffffffffffffffff82111561442357614422613f0c565b5b602082029050602081019050919050565b60006060828403121561444a57614449614293565b5b6144546060613f6c565b905060006144648482850161395c565b6000830152506020614478848285016138fe565b602083015250604061448c848285016138fe565b60408301525092915050565b60006144ab6144a684614408565b613f6c565b905080838252602082019050606084028301858111156144ce576144cd613fb3565b5b835b818110156144f757806144e38882614434565b8452602084019350506060810190506144d0565b5050509392505050565b600082601f83011261451657614515613ef6565b5b8135614526848260208601614498565b91505092915050565b60008060408385031215614546576145456138dd565b5b6000614554858286016138fe565b925050602083013567ffffffffffffffff811115614575576145746138e2565b5b61458185828601614501565b9150509250929050565b600081519050919050565b600082825260208201905092915050565b6000819050602082019050919050565b60e0820160008201516145cd6000850182613b58565b5060208201516145e06020850182613b67565b5060408201516145f36040850182613b67565b5060608201516146066060850182613b67565b5060808201516146196080850182613b67565b5060a082015161462c60a0850182613b67565b5060c082015161463f60c0850182613b67565b50505050565b600061465183836145b7565b60e08301905092915050565b6000602082019050919050565b60006146758261458b565b61467f8185614596565b935061468a836145a7565b8060005b838110156146bb5781516146a28882614645565b97506146ad8361465d565b92505060018101905061468e565b5085935050505092915050565b600060208201905081810360008301526146e2818461466a565b905092915050565b60008060408385031215614701576147006138dd565b5b600061470f8582860161395c565b9250506020614720858286016140d5565b9150509250929050565b600081519050919050565b600082825260208201905092915050565b6000819050602082019050919050565b600061476283836139ed565b60208301905092915050565b6000602082019050919050565b60006147868261472a565b6147908185614735565b935061479b83614746565b8060005b838110156147cc5781516147b38882614756565b97506147be8361476e565b92505060018101905061479f565b5085935050505092915050565b600060208201905081810360008301526147f3818461477b565b905092915050565b60008060408385031215614812576148116138dd565b5b6000614820858286016142af565b9250506020614831858286016142af565b9150509250929050565b7f4e487b7100000000000000000000000000000000000000000000000000000000600052603260045260246000fd5b7f4e487b7100000000000000000000000000000000000000000000000000000000600052601160045260246000fd5b60006148a48261389f565b91507fffffffffffffffffffffffffffffffffffffffffffffffffffffffffffffffff82036148d6576148d561486a565b5b600182019050919050565b6148ea81613e02565b82525050565b600060208201905061490560008301846148e1565b92915050565b60008151905061491a816138e7565b92915050565b600060208284031215614936576149356138dd565b5b60006149448482850161490b565b91505092915050565b60006149588261389f565b91506149638361389f565b9250827fffffffffffffffffffffffffffffffffffffffffffffffffffffffffffffffff038211156149985761499761486a565b5b828201905092915050565b600082825260208201905092915050565b7f596f752063616e6e6f7420776974686472617720756e74696c2074686520656e60008201527f64206f662074686520636f6e7465737421000000000000000000000000000000602082015250565b6000614a106031836149a3565b9150614a1b826149b4565b604082019050919050565b60006020820190508181036000830152614a3f81614a03565b9050919050565b6000604082019050614a5b60008301856138a9565b614a686020830184614162565b9392505050565b6000614a7a8261389f565b9150614a858361389f565b925082821015614a9857614a9761486a565b5b828203905092915050565b6000819050919050565b6000819050919050565b6000614ad2614acd614ac884614aa3565b614aad565b61389f565b9050919050565b614ae281614ab7565b82525050565b6000606082019050614afd6000830186614ad9565b614b0a60208301856138a9565b614b1760408301846138a9565b949350505050565b614b2881613e02565b8114614b3357600080fd5b50565b600081519050614b4581614b1f565b92915050565b600060208284031215614b6157614b606138dd565b5b6000614b6f84828501614b36565b91505092915050565b614b81816139dd565b82525050565b6000604082019050614b9c60008301856148e1565b614ba96020830184614b78565b9392505050565b600081519050614bbf81614298565b92915050565b614bce81613ec0565b8114614bd957600080fd5b50565b600081519050614beb81614bc5565b92915050565b600080600060608486031215614c0a57614c096138dd565b5b6000614c1886828701614bb0565b9350506020614c2986828701614bb0565b9250506040614c3a86828701614bdc565b9150509250925092565b6000819050919050565b6000614c69614c64614c5f84614c44565b614aad565b61389f565b9050919050565b614c7981614c4e565b82525050565b6000606082019050614c946000830186614c70565b614ca160208301856138a9565b614cae60408301846138a9565b949350505050565b60008060408385031215614ccd57614ccc6138dd565b5b6000614cdb8582860161490b565b9250506020614cec8582860161490b565b9150509250929050565b7f596f75206e6565642061207469636b657420666f7220736176696e672070726560008201527f64696374696f6e73210000000000000000000000000000000000000000000000602082015250565b6000614d526029836149a3565b9150614d5d82614cf6565b604082019050919050565b60006020820190508181036000830152614d8181614d45565b9050919050565b7f50726564696374696f6e20506572696f6420697320636c6f7365642100000000600082015250565b6000614dbe601c836149a3565b9150614dc982614d88565b602082019050919050565b60006020820190508181036000830152614ded81614db1565b9050919050565b7f546865206e756d626572206f662070726564696374696f6e7320646f65736e2760008201527f74206d6174636821000000000000000000000000000000000000000000000000602082015250565b6000614e506028836149a3565b9150614e5b82614df4565b604082019050919050565b60006020820190508181036000830152614e7f81614e43565b9050919050565b6000614e918261389f565b9150614e9c8361389f565b9250817fffffffffffffffffffffffffffffffffffffffffffffffffffffffffffffffff0483118215151615614ed557614ed461486a565b5b828202905092915050565b7f4e487b7100000000000000000000000000000000000000000000000000000000600052601260045260246000fd5b6000614f1a8261389f565b9150614f258361389f565b925082614f3557614f34614ee0565b5b828204905092915050565b6000604082019050614f5560008301856148e1565b614f6260208301846138a9565b9392505050565b600081519050614f78816140be565b92915050565b600060208284031215614f9457614f936138dd565b5b6000614fa284828501614f69565b91505092915050565b7f4f776e61626c653a206e6577206f776e657220697320746865207a65726f206160008201527f6464726573730000000000000000000000000000000000000000000000000000602082015250565b60006150076026836149a3565b915061501282614fab565b604082019050919050565b6000602082019050818103600083015261503681614ffa565b9050919050565b7f4f776e61626c653a2063616c6c6572206973206e6f7420746865206f776e6572600082015250565b60006150736020836149a3565b915061507e8261503d565b602082019050919050565b600060208201905081810360008301526150a281615066565b9050919050565b7f5061757361626c653a206e6f7420706175736564000000000000000000000000600082015250565b60006150df6014836149a3565b91506150ea826150a9565b602082019050919050565b6000602082019050818103600083015261510e816150d2565b9050919050565b7f5061757361626c653a2070617573656400000000000000000000000000000000600082015250565b600061514b6010836149a3565b915061515682615115565b602082019050919050565b6000602082019050818103600083015261517a8161513e565b905091905056fea2646970667358221220e7178232b9a11bb3ad98e18c5308525cc0a5e7aa6409fb48289499a8c812ec1164736f6c634300080f0033",
  "linkReferences": {},
  "deployedLinkReferences": {}
}