{
  "_format": "hh-sol-artifact-1",
  "contractName": "InterpoolContract",
  "sourceName": "contracts/InterpoolContract.sol",
  "abi": [
    {
      "inputs": [],
      "stateMutability": "nonpayable",
      "type": "constructor"
    },
    {
      "anonymous": false,
      "inputs": [
        {
          "indexed": true,
          "internalType": "address",
          "name": "previousOwner",
          "type": "address"
        },
        {
          "indexed": true,
          "internalType": "address",
          "name": "newOwner",
          "type": "address"
        }
      ],
      "name": "OwnershipTransferred",
      "type": "event"
    },
    {
      "anonymous": false,
      "inputs": [
        {
          "indexed": false,
          "internalType": "address",
          "name": "account",
          "type": "address"
        }
      ],
      "name": "Paused",
      "type": "event"
    },
    {
      "anonymous": false,
      "inputs": [
        {
          "indexed": false,
          "internalType": "address",
          "name": "account",
          "type": "address"
        }
      ],
      "name": "Unpaused",
      "type": "event"
    },
    {
      "inputs": [
        {
          "internalType": "uint256",
          "name": "_contestId",
          "type": "uint256"
        },
        {
          "components": [
            {
              "internalType": "address",
              "name": "player",
              "type": "address"
            },
            {
              "internalType": "uint256",
              "name": "nbTickets",
              "type": "uint256"
            },
            {
              "internalType": "uint256",
              "name": "nbPoints",
              "type": "uint256"
            }
          ],
          "internalType": "struct InterpoolContract.PlayerPointsAndTickets[]",
          "name": "_pointsTable",
          "type": "tuple[]"
        }
      ],
      "name": "calculateGain",
      "outputs": [
        {
          "components": [
            {
              "internalType": "address",
              "name": "player",
              "type": "address"
            },
            {
              "internalType": "uint256",
              "name": "nbPoints",
              "type": "uint256"
            },
            {
              "internalType": "uint256",
              "name": "rankExAequo",
              "type": "uint256"
            },
            {
              "internalType": "uint256",
              "name": "rewardNoExAequo",
              "type": "uint256"
            },
            {
              "internalType": "uint256",
              "name": "cumulatedRewardsNoExAequo",
              "type": "uint256"
            },
            {
              "internalType": "uint256",
              "name": "cumulatedRewardsPerRank",
              "type": "uint256"
            },
            {
              "internalType": "uint256",
              "name": "rewardPerRankPerPlayer",
              "type": "uint256"
            }
          ],
          "internalType": "struct InterpoolContract.Gain[]",
          "name": "",
          "type": "tuple[]"
        }
      ],
      "stateMutability": "view",
      "type": "function"
    },
    {
      "inputs": [
        {
          "internalType": "uint8",
          "name": "_homeScore",
          "type": "uint8"
        },
        {
          "internalType": "uint8",
          "name": "_awayScore",
          "type": "uint8"
        }
      ],
      "name": "calculateMatchResult",
      "outputs": [
        {
          "internalType": "uint256",
          "name": "",
          "type": "uint256"
        }
      ],
      "stateMutability": "pure",
      "type": "function"
    },
    {
      "inputs": [],
      "name": "claim",
      "outputs": [],
      "stateMutability": "nonpayable",
      "type": "function"
    },
    {
      "inputs": [
        {
          "internalType": "uint256",
          "name": "_leagueId",
          "type": "uint256"
        },
        {
          "internalType": "uint256",
          "name": "_dateEndContestPredictions",
          "type": "uint256"
        },
        {
          "internalType": "uint32[]",
          "name": "_listGameIds",
          "type": "uint32[]"
        }
      ],
      "name": "createContest",
      "outputs": [],
      "stateMutability": "nonpayable",
      "type": "function"
    },
    {
      "inputs": [
        {
          "internalType": "uint256",
          "name": "_amount",
          "type": "uint256"
        }
      ],
      "name": "deposit",
      "outputs": [],
      "stateMutability": "nonpayable",
      "type": "function"
    },
    {
      "inputs": [],
      "name": "getContestPredictionEndDate",
      "outputs": [
        {
          "internalType": "uint256",
          "name": "",
          "type": "uint256"
        }
      ],
      "stateMutability": "view",
      "type": "function"
    },
    {
      "inputs": [
        {
          "internalType": "uint256",
          "name": "_contestId",
          "type": "uint256"
        }
      ],
      "name": "getContestTable",
      "outputs": [
        {
          "components": [
            {
              "internalType": "address",
              "name": "player",
              "type": "address"
            },
            {
              "internalType": "uint256",
              "name": "nbTickets",
              "type": "uint256"
            },
            {
              "internalType": "uint256",
              "name": "nbPoints",
              "type": "uint256"
            },
            {
              "internalType": "uint256",
              "name": "rankExAequo",
              "type": "uint256"
            },
            {
              "internalType": "uint256",
              "name": "rewardPerRankPerPlayer",
              "type": "uint256"
            }
          ],
          "internalType": "struct InterpoolContract.ContestResult[]",
          "name": "",
          "type": "tuple[]"
        }
      ],
      "stateMutability": "view",
      "type": "function"
    },
    {
      "inputs": [],
      "name": "getCurrentContestId",
      "outputs": [
        {
          "internalType": "uint256",
          "name": "",
          "type": "uint256"
        }
      ],
      "stateMutability": "view",
      "type": "function"
    },
    {
      "inputs": [],
      "name": "getGlobalPrizePool",
      "outputs": [
        {
          "internalType": "uint256",
          "name": "",
          "type": "uint256"
        }
      ],
      "stateMutability": "view",
      "type": "function"
    },
    {
      "inputs": [
        {
          "internalType": "uint256",
          "name": "_contestId",
          "type": "uint256"
        }
      ],
      "name": "getListRequestIdPerContest",
      "outputs": [
        {
          "internalType": "bytes32[]",
          "name": "",
          "type": "bytes32[]"
        }
      ],
      "stateMutability": "view",
      "type": "function"
    },
    {
      "inputs": [
        {
          "internalType": "uint256",
          "name": "_contestId",
          "type": "uint256"
        }
      ],
      "name": "getNumberOfGamesPerContest",
      "outputs": [
        {
          "internalType": "uint256",
          "name": "",
          "type": "uint256"
        }
      ],
      "stateMutability": "view",
      "type": "function"
    },
    {
      "inputs": [
        {
          "internalType": "uint256",
          "name": "_contestId",
          "type": "uint256"
        }
      ],
      "name": "getNumberOfPlayers",
      "outputs": [
        {
          "internalType": "uint256",
          "name": "",
          "type": "uint256"
        }
      ],
      "stateMutability": "view",
      "type": "function"
    },
    {
      "inputs": [
        {
          "internalType": "uint256",
          "name": "_contestId",
          "type": "uint256"
        },
        {
          "internalType": "address",
          "name": "_player",
          "type": "address"
        }
      ],
      "name": "getPlayerRank",
      "outputs": [
        {
          "internalType": "uint256",
          "name": "",
          "type": "uint256"
        }
      ],
      "stateMutability": "view",
      "type": "function"
    },
    {
      "inputs": [
        {
          "internalType": "uint256",
          "name": "_contestId",
          "type": "uint256"
        },
        {
          "internalType": "address",
          "name": "_player",
          "type": "address"
        }
      ],
      "name": "getPointsOfPlayerForContest",
      "outputs": [
        {
          "internalType": "uint256",
          "name": "",
          "type": "uint256"
        }
      ],
      "stateMutability": "view",
      "type": "function"
    },
    {
      "inputs": [
        {
          "internalType": "uint256",
          "name": "_contestId",
          "type": "uint256"
        }
      ],
      "name": "getPointsTable",
      "outputs": [
        {
          "components": [
            {
              "internalType": "address",
              "name": "player",
              "type": "address"
            },
            {
              "internalType": "uint256",
              "name": "nbTickets",
              "type": "uint256"
            },
            {
              "internalType": "uint256",
              "name": "nbPoints",
              "type": "uint256"
            }
          ],
          "internalType": "struct InterpoolContract.PlayerPointsAndTickets[]",
          "name": "",
          "type": "tuple[]"
        }
      ],
      "stateMutability": "view",
      "type": "function"
    },
    {
      "inputs": [
        {
          "internalType": "uint256",
          "name": "_contestId",
          "type": "uint256"
        },
        {
          "internalType": "address",
          "name": "_player",
          "type": "address"
        }
      ],
      "name": "getPrevisionsPerPlayerPerContest",
      "outputs": [
        {
          "components": [
            {
              "internalType": "uint32",
              "name": "gameId",
              "type": "uint32"
            },
            {
              "internalType": "uint8",
              "name": "homeScore",
              "type": "uint8"
            },
            {
              "internalType": "uint8",
              "name": "awayScore",
              "type": "uint8"
            }
          ],
          "internalType": "struct InterpoolContract.GamePredict[]",
          "name": "",
          "type": "tuple[]"
        }
      ],
      "stateMutability": "view",
      "type": "function"
    },
    {
      "inputs": [
        {
          "internalType": "address",
          "name": "_player",
          "type": "address"
        },
        {
          "internalType": "uint32",
          "name": "_gameId",
          "type": "uint32"
        }
      ],
      "name": "getPrevisionsPerPlayerPerGame",
      "outputs": [
        {
          "internalType": "uint8",
          "name": "",
          "type": "uint8"
        },
        {
          "internalType": "uint8",
          "name": "",
          "type": "uint8"
        }
      ],
      "stateMutability": "view",
      "type": "function"
    },
    {
      "inputs": [
        {
          "internalType": "uint256",
          "name": "_contestId",
          "type": "uint256"
        },
        {
          "internalType": "uint32",
          "name": "_gameId",
          "type": "uint32"
        }
      ],
      "name": "getScoresPerGameId",
      "outputs": [
        {
          "internalType": "uint8",
          "name": "",
          "type": "uint8"
        },
        {
          "internalType": "uint8",
          "name": "",
          "type": "uint8"
        }
      ],
      "stateMutability": "view",
      "type": "function"
    },
    {
      "inputs": [
        {
          "internalType": "address",
          "name": "_player",
          "type": "address"
        }
      ],
      "name": "getVerifPlayerPlayedPerContest",
      "outputs": [
        {
          "internalType": "bool",
          "name": "",
          "type": "bool"
        }
      ],
      "stateMutability": "view",
      "type": "function"
    },
    {
      "inputs": [
        {
          "internalType": "address",
          "name": "_player",
          "type": "address"
        }
      ],
      "name": "getWinningsPerPlayer",
      "outputs": [
        {
          "internalType": "uint256",
          "name": "",
          "type": "uint256"
        },
        {
          "internalType": "uint256",
          "name": "",
          "type": "uint256"
        }
      ],
      "stateMutability": "view",
      "type": "function"
    },
    {
      "inputs": [],
      "name": "owner",
      "outputs": [
        {
          "internalType": "address",
          "name": "",
          "type": "address"
        }
      ],
      "stateMutability": "view",
      "type": "function"
    },
    {
      "inputs": [],
      "name": "pause",
      "outputs": [],
      "stateMutability": "nonpayable",
      "type": "function"
    },
    {
      "inputs": [],
      "name": "paused",
      "outputs": [
        {
          "internalType": "bool",
          "name": "",
          "type": "bool"
        }
      ],
      "stateMutability": "view",
      "type": "function"
    },
    {
      "inputs": [],
      "name": "renounceOwnership",
      "outputs": [],
      "stateMutability": "nonpayable",
      "type": "function"
    },
    {
      "inputs": [
        {
          "internalType": "uint256",
          "name": "_leagueId",
          "type": "uint256"
        },
        {
          "internalType": "uint256[]",
          "name": "_requestDates",
          "type": "uint256[]"
        }
      ],
      "name": "resolveGames",
      "outputs": [],
      "stateMutability": "nonpayable",
      "type": "function"
    },
    {
      "inputs": [
        {
          "internalType": "uint256",
          "name": "_contestId",
          "type": "uint256"
        },
        {
          "internalType": "uint32[]",
          "name": "_listGameIds",
          "type": "uint32[]"
        }
      ],
      "name": "saveGameResult",
      "outputs": [],
      "stateMutability": "nonpayable",
      "type": "function"
    },
    {
      "inputs": [
        {
          "components": [
            {
              "internalType": "uint32",
              "name": "gameId",
              "type": "uint32"
            },
            {
              "internalType": "uint8",
              "name": "homeScore",
              "type": "uint8"
            },
            {
              "internalType": "uint8",
              "name": "awayScore",
              "type": "uint8"
            }
          ],
          "internalType": "struct InterpoolContract.GamePredict[]",
          "name": "_gamePredictions",
          "type": "tuple[]"
        }
      ],
      "name": "savePrediction",
      "outputs": [],
      "stateMutability": "nonpayable",
      "type": "function"
    },
    {
      "inputs": [
        {
          "internalType": "address",
          "name": "_player",
          "type": "address"
        },
        {
          "components": [
            {
              "internalType": "uint32",
              "name": "gameId",
              "type": "uint32"
            },
            {
              "internalType": "uint8",
              "name": "homeScore",
              "type": "uint8"
            },
            {
              "internalType": "uint8",
              "name": "awayScore",
              "type": "uint8"
            }
          ],
          "internalType": "struct InterpoolContract.GamePredict[]",
          "name": "_gamePredictions",
          "type": "tuple[]"
        }
      ],
      "name": "savePredictionPerOwner",
      "outputs": [],
      "stateMutability": "nonpayable",
      "type": "function"
    },
    {
      "inputs": [
        {
          "internalType": "uint256",
          "name": "_contestId",
          "type": "uint256"
        }
      ],
      "name": "setContestTable",
      "outputs": [],
      "stateMutability": "nonpayable",
      "type": "function"
    },
    {
      "inputs": [
        {
          "internalType": "address",
          "name": "_enetContract",
          "type": "address"
        }
      ],
      "name": "setEnetContract",
      "outputs": [],
      "stateMutability": "nonpayable",
      "type": "function"
    },
    {
      "inputs": [
        {
          "internalType": "address",
          "name": "_poolContract",
          "type": "address"
        }
      ],
      "name": "setPoolContract",
      "outputs": [],
      "stateMutability": "nonpayable",
      "type": "function"
    },
    {
      "inputs": [
        {
          "internalType": "address",
          "name": "newOwner",
          "type": "address"
        }
      ],
      "name": "transferOwnership",
      "outputs": [],
      "stateMutability": "nonpayable",
      "type": "function"
    },
    {
      "inputs": [],
      "name": "unpause",
      "outputs": [],
      "stateMutability": "nonpayable",
      "type": "function"
    },
    {
      "inputs": [
        {
          "internalType": "uint256",
          "name": "_nbTickets",
          "type": "uint256"
        }
      ],
      "name": "withdraw",
      "outputs": [],
      "stateMutability": "nonpayable",
      "type": "function"
    }
  ],
  "bytecode": "0x60806040523480156200001157600080fd5b5062000032620000266200010160201b60201c565b6200010960201b60201c565b60008060146101000a81548160ff02191690831515021790555073d81e4a61fd6bf066539df6ea48bfaeae847dcda1600c60006101000a81548173ffffffffffffffffffffffffffffffffffffffff021916908373ffffffffffffffffffffffffffffffffffffffff160217905550620000c673376d4a2cb540e01a7e233c9b721c04087511ef3a620001cd60201b60201c565b620000eb7380a9c7c5f5bfd765a2dc3773dff00d02db8b34ae6200022160201b60201c565b6005600b819055506000600a81905550620003b2565b600033905090565b60008060009054906101000a900473ffffffffffffffffffffffffffffffffffffffff169050816000806101000a81548173ffffffffffffffffffffffffffffffffffffffff021916908373ffffffffffffffffffffffffffffffffffffffff1602179055508173ffffffffffffffffffffffffffffffffffffffff168173ffffffffffffffffffffffffffffffffffffffff167f8be0079c531659141344cd1fd0a4f28419497f9722a3daafe3b4186f6b6457e060405160405180910390a35050565b620001dd6200027560201b60201c565b80600d60006101000a81548173ffffffffffffffffffffffffffffffffffffffff021916908373ffffffffffffffffffffffffffffffffffffffff16021790555050565b620002316200027560201b60201c565b80600e60006101000a81548173ffffffffffffffffffffffffffffffffffffffff021916908373ffffffffffffffffffffffffffffffffffffffff16021790555050565b620002856200010160201b60201c565b73ffffffffffffffffffffffffffffffffffffffff16620002ab6200030660201b60201c565b73ffffffffffffffffffffffffffffffffffffffff161462000304576040517f08c379a0000000000000000000000000000000000000000000000000000000008152600401620002fb9062000390565b60405180910390fd5b565b60008060009054906101000a900473ffffffffffffffffffffffffffffffffffffffff16905090565b600082825260208201905092915050565b7f4f776e61626c653a2063616c6c6572206973206e6f7420746865206f776e6572600082015250565b6000620003786020836200032f565b9150620003858262000340565b602082019050919050565b60006020820190508181036000830152620003ab8162000369565b9050919050565b61523e80620003c26000396000f3fe608060405234801561001057600080fd5b50600436106102065760003560e01c80638456cb591161011a578063bd874a1d116100ad578063f0fad4aa1161007c578063f0fad4aa146105d6578063f2fde38b14610606578063f49a20bd14610622578063fb46bd2214610652578063fee901601461067057610206565b8063bd874a1d1461053d578063d69d40771461056e578063d97a55d61461059e578063e3a5215d146105ba57610206565b80639fa75e9a116100e95780639fa75e9a146104b7578063b4ace158146104d3578063b6b55f25146104f1578063baf637831461050d57610206565b80638456cb59146104425780638ad2e8641461044c5780638da5cb5b1461047d578063942350c21461049b57610206565b80634e71d92d1161019d57806362436d9d1161016c57806362436d9d1461039f5780636851e9a9146103cf578063715018a6146104005780637158f6101461040a57806371ce137e1461042657610206565b80634e71d92d1461032b5780634fda591e1461033557806359c3f3e0146103655780635c975abb1461038157610206565b806327ca8b98116101d957806327ca8b98146102b95780632e1a7d4d146102e95780633f4ba83a14610305578063413dc26d1461030f57610206565b806308af2d781461020b578063117f3998146102295780631d883342146102595780632452a7e314610289575b600080fd5b6102136106a0565b6040516102209190613a0c565b60405180910390f35b610243600480360381019061023e9190613ac5565b6106c0565b6040516102509190613c31565b60405180910390f35b610273600480360381019061026e9190613c53565b6108ed565b6040516102809190613a0c565b60405180910390f35b6102a3600480360381019061029e9190613c53565b61090d565b6040516102b09190613db5565b60405180910390f35b6102d360048036038101906102ce9190613c53565b6109fd565b6040516102e09190613ec8565b60405180910390f35b61030360048036038101906102fe9190613c53565b610b8f565b005b61030d610ce9565b005b6103296004803603810190610324919061406f565b610cfb565b005b610333610da2565b005b61034f600480360381019061034a9190613ac5565b610e31565b60405161035c9190613a0c565b60405180910390f35b61037f600480360381019061037a91906140de565b611063565b005b6103896110af565b6040516103969190614126565b60405180910390f35b6103b960048036038101906103b49190613c53565b6110c5565b6040516103c69190613a0c565b60405180910390f35b6103e960048036038101906103e49190614141565b6110e5565b6040516103f7929190614190565b60405180910390f35b610408611228565b005b610424600480360381019061041f919061427c565b61123c565b005b610440600480360381019061043b91906140de565b611366565b005b61044a6113b2565b005b610466600480360381019061046191906140de565b6113c4565b6040516104749291906142d8565b60405180910390f35b61048561146b565b6040516104929190614310565b60405180910390f35b6104b560048036038101906104b0919061432b565b611494565b005b6104d160048036038101906104cc91906144df565b611641565b005b6104db611bbd565b6040516104e89190613a0c565b60405180910390f35b61050b60048036038101906105069190613c53565b611c55565b005b6105276004803603810190610522919061464f565b611ce7565b60405161053491906147e8565b60405180910390f35b6105576004803603810190610552919061480a565b6126e8565b604051610565929190614190565b60405180910390f35b610588600480360381019061058391906140de565b6127eb565b6040516105959190614126565b60405180910390f35b6105b860048036038101906105b39190613c53565b612854565b005b6105d460048036038101906105cf919061484a565b612ec3565b005b6105f060048036038101906105eb9190613c53565b6131a3565b6040516105fd919061496e565b60405180910390f35b610620600480360381019061061b91906140de565b61320e565b005b61063c60048036038101906106379190614990565b613291565b6040516106499190613a0c565b60405180910390f35b61065a6132d2565b6040516106679190613a0c565b60405180910390f35b61068a60048036038101906106859190613ac5565b6132dc565b6040516106979190613a0c565b60405180910390f35b600060016000600a54815260200190815260200160002060010154905090565b606060006106cd846108ed565b90506000808267ffffffffffffffff8111156106ec576106eb613f00565b5b60405190808252806020026020018201604052801561072557816020015b61071261376e565b81526020019060019003908161070a5790505b50905060005b838110156108e057600660008881526020019081526020016000208181548110610758576107576149d0565b5b90600052602060002090600891828204019190066004029054906101000a900463ffffffff16925060405180606001604052808463ffffffff168152602001600460008973ffffffffffffffffffffffffffffffffffffffff1673ffffffffffffffffffffffffffffffffffffffff16815260200190815260200160002060008663ffffffff1663ffffffff168152602001908152602001600020600060028110610806576108056149d0565b5b602091828204019190069054906101000a900460ff1660ff168152602001600460008973ffffffffffffffffffffffffffffffffffffffff1673ffffffffffffffffffffffffffffffffffffffff16815260200190815260200160002060008663ffffffff1663ffffffff168152602001908152602001600020600160028110610893576108926149d0565b5b602091828204019190069054906101000a900460ff1660ff168152508282815181106108c2576108c16149d0565b5b602002602001018190525080806108d890614a2e565b91505061072b565b5080935050505092915050565b600060066000838152602001908152602001600020805490509050919050565b606060086000838152602001908152602001600020805480602002602001604051908101604052809291908181526020016000905b828210156109f257838290600052602060002090600502016040518060a00160405290816000820160009054906101000a900473ffffffffffffffffffffffffffffffffffffffff1673ffffffffffffffffffffffffffffffffffffffff1673ffffffffffffffffffffffffffffffffffffffff16815260200160018201548152602001600282015481526020016003820154815260200160048201548152505081526020019060010190610942565b505050509050919050565b60606000600260008481526020019081526020016000208054905090506000806000808467ffffffffffffffff811115610a3a57610a39613f00565b5b604051908082528060200260200182016040528015610a7357816020015b610a6061379b565b815260200190600190039081610a585790505b50905060005b85811015610b8157600260008981526020019081526020016000208181548110610aa657610aa56149d0565b5b906000526020600020906002020160000160009054906101000a900473ffffffffffffffffffffffffffffffffffffffff169450600260008981526020019081526020016000208181548110610aff57610afe6149d0565b5b9060005260206000209060020201600101549350610b1d88866132dc565b925060405180606001604052808673ffffffffffffffffffffffffffffffffffffffff16815260200185815260200184815250828281518110610b6357610b626149d0565b5b60200260200101819052508080610b7990614a2e565b915050610a79565b508095505050505050919050565b6000151560096000600a54815260200190815260200160002060003373ffffffffffffffffffffffffffffffffffffffff1673ffffffffffffffffffffffffffffffffffffffff16815260200190815260200160002060009054906101000a900460ff1615151480610c18575060016000600a5481526020019081526020016000206001015442115b610c57576040517f08c379a0000000000000000000000000000000000000000000000000000000008152600401610c4e90614af9565b60405180910390fd5b600e60009054906101000a900473ffffffffffffffffffffffffffffffffffffffff1673ffffffffffffffffffffffffffffffffffffffff16632cbcb1f282336040518363ffffffff1660e01b8152600401610cb4929190614b19565b600060405180830381600087803b158015610cce57600080fd5b505af1158015610ce2573d6000803e3d6000fd5b5050505050565b610cf16134cc565b610cf961354a565b565b610d036134cc565b600a6000815480929190610d1690614a2e565b91905055506000815190508160066000600a5481526020019081526020016000209080519060200190610d4a9291906137d2565b5060405180606001604052808581526020018481526020018281525060016000600a54815260200190815260200160002060008201518160000155602082015181600101556040820151816002015590505050505050565b600e60009054906101000a900473ffffffffffffffffffffffffffffffffffffffff1673ffffffffffffffffffffffffffffffffffffffff16630de6e321336040518263ffffffff1660e01b8152600401610dfd9190614310565b600060405180830381600087803b158015610e1757600080fd5b505af1158015610e2b573d6000803e3d6000fd5b50505050565b600080610e3d846109fd565b9050600080825190506000808267ffffffffffffffff811115610e6357610e62613f00565b5b604051908082528060200260200182016040528015610e9c57816020015b610e89613882565b815260200190600190039081610e815790505b50905060005b83811015610fbe576001945060005b84811015610f1f57868181518110610ecc57610ecb6149d0565b5b602002602001015160400151878381518110610eeb57610eea6149d0565b5b6020026020010151604001511015610f0c578580610f0890614a2e565b9650505b8080610f1790614a2e565b915050610eb1565b506040518060600160405280878381518110610f3e57610f3d6149d0565b5b60200260200101516000015173ffffffffffffffffffffffffffffffffffffffff168152602001878381518110610f7857610f776149d0565b5b602002602001015160400151815260200186815250828281518110610fa057610f9f6149d0565b5b60200260200101819052508080610fb690614a2e565b915050610ea2565b5060005b8381101561105457818181518110610fdd57610fdc6149d0565b5b60200260200101516000015173ffffffffffffffffffffffffffffffffffffffff168873ffffffffffffffffffffffffffffffffffffffff16036110415781818151811061102e5761102d6149d0565b5b6020026020010151604001519250611054565b808061104c90614a2e565b915050610fc2565b50819550505050505092915050565b61106b6134cc565b80600e60006101000a81548173ffffffffffffffffffffffffffffffffffffffff021916908373ffffffffffffffffffffffffffffffffffffffff16021790555050565b60008060149054906101000a900460ff16905090565b600060026000838152602001908152602001600020805490509050919050565b600080600060076000868152602001908152602001600020805490509050600060ff9050600080600090505b83811015611217576000600760008a815260200190815260200160002082815481106111405761113f6149d0565b5b90600052602060002001549050600d60009054906101000a900473ffffffffffffffffffffffffffffffffffffffff1673ffffffffffffffffffffffffffffffffffffffff16633910b2c2828a6040518363ffffffff1660e01b81526004016111aa929190614b60565b6040805180830381865afa1580156111c6573d6000803e3d6000fd5b505050506040513d601f19601f820116820180604052508101906111ea9190614b9e565b809450819550505060ff8460ff16146112035750611217565b50808061120f90614a2e565b915050611111565b508181945094505050509250929050565b6112306134cc565b61123a60006135ac565b565b6112446134cc565b60008151905060005b818110156113605760076000600a548152602001908152602001600020600d60009054906101000a900473ffffffffffffffffffffffffffffffffffffffff1673ffffffffffffffffffffffffffffffffffffffff1663580c2f546001878786815181106112be576112bd6149d0565b5b60200260200101516040518463ffffffff1660e01b81526004016112e493929190614c23565b6020604051808303816000875af1158015611303573d6000803e3d6000fd5b505050506040513d601f19601f820116820180604052508101906113279190614c86565b9080600181540180825580915050600190039060005260206000200160009091909190915055808061135890614a2e565b91505061124d565b50505050565b61136e6134cc565b80600d60006101000a81548173ffffffffffffffffffffffffffffffffffffffff021916908373ffffffffffffffffffffffffffffffffffffffff16021790555050565b6113ba6134cc565b6113c2613670565b565b600080600e60009054906101000a900473ffffffffffffffffffffffffffffffffffffffff1673ffffffffffffffffffffffffffffffffffffffff16638ad2e864846040518263ffffffff1660e01b81526004016114229190614310565b6040805180830381865afa15801561143e573d6000803e3d6000fd5b505050506040513d601f19601f820116820180604052508101906114629190614cc8565b91509150915091565b60008060009054906101000a900473ffffffffffffffffffffffffffffffffffffffff16905090565b61149c6134cc565b60005b815181101561163c576000806114cf858585815181106114c2576114c16149d0565b5b60200260200101516110e5565b9150915060ff8260ff16146116275781600560008686815181106114f6576114f56149d0565b5b602002602001015163ffffffff1663ffffffff16815260200190815260200160002060006003811061152b5761152a6149d0565b5b602091828204019190066101000a81548160ff021916908360ff1602179055508060056000868681518110611563576115626149d0565b5b602002602001015163ffffffff1663ffffffff168152602001908152602001600020600160038110611598576115976149d0565b5b602091828204019190066101000a81548160ff021916908360ff1602179055506001600560008686815181106115d1576115d06149d0565b5b602002602001015163ffffffff1663ffffffff168152602001908152602001600020600260038110611606576116056149d0565b5b602091828204019190066101000a81548160ff021916908360ff1602179055505b5050808061163490614a2e565b91505061149f565b505050565b6000600c60009054906101000a900473ffffffffffffffffffffffffffffffffffffffff1673ffffffffffffffffffffffffffffffffffffffff166370a08231336040518263ffffffff1660e01b815260040161169e9190614310565b602060405180830381865afa1580156116bb573d6000803e3d6000fd5b505050506040513d601f19601f820116820180604052508101906116df9190614d08565b1161171f576040517f08c379a000000000000000000000000000000000000000000000000000000000815260040161171690614da7565b60405180910390fd5b60016000600a548152602001908152602001600020600101544210611779576040517f08c379a000000000000000000000000000000000000000000000000000000000815260040161177090614e13565b60405180910390fd5b611784600a546108ed565b8151146117c6576040517f08c379a00000000000000000000000000000000000000000000000000000000081526004016117bd90614ea5565b60405180910390fd5b60006117d3600a546108ed565b90506000600c60009054906101000a900473ffffffffffffffffffffffffffffffffffffffff1673ffffffffffffffffffffffffffffffffffffffff166370a08231336040518263ffffffff1660e01b81526004016118329190614310565b602060405180830381865afa15801561184f573d6000803e3d6000fd5b505050506040513d601f19601f820116820180604052508101906118739190614d08565b905060005b8281101561197957604051806040016040528085838151811061189e5761189d6149d0565b5b60200260200101516020015160ff1660ff1681526020018583815181106118c8576118c76149d0565b5b60200260200101516040015160ff1660ff16815250600460003373ffffffffffffffffffffffffffffffffffffffff1673ffffffffffffffffffffffffffffffffffffffff1681526020019081526020016000206000868481518110611931576119306149d0565b5b60200260200101516000015163ffffffff1663ffffffff1681526020019081526020016000209060026119659291906138b9565b50808061197190614a2e565b915050611878565b50600080600090505b60026000600a54815260200190815260200160002080549050811015611a825760026000600a54815260200190815260200160002081815481106119c9576119c86149d0565b5b906000526020600020906002020160000160009054906101000a900473ffffffffffffffffffffffffffffffffffffffff1673ffffffffffffffffffffffffffffffffffffffff163373ffffffffffffffffffffffffffffffffffffffff1603611a6f578260026000600a5481526020019081526020016000208281548110611a5557611a546149d0565b5b906000526020600020906002020160010181905550600191505b8080611a7a90614a2e565b915050611982565b506000151581151503611bb75760026000600a54815260200190815260200160002060405180604001604052803373ffffffffffffffffffffffffffffffffffffffff16815260200184815250908060018154018082558091505060019003906000526020600020906002020160009091909190915060008201518160000160006101000a81548173ffffffffffffffffffffffffffffffffffffffff021916908373ffffffffffffffffffffffffffffffffffffffff160217905550602082015181600101555050600160096000600a54815260200190815260200160002060003373ffffffffffffffffffffffffffffffffffffffff1673ffffffffffffffffffffffffffffffffffffffff16815260200190815260200160002060006101000a81548160ff0219169083151502179055505b50505050565b6000600e60009054906101000a900473ffffffffffffffffffffffffffffffffffffffff1673ffffffffffffffffffffffffffffffffffffffff1663b4ace1586040518163ffffffff1660e01b8152600401602060405180830381865afa158015611c2c573d6000803e3d6000fd5b505050506040513d601f19601f82011682018060405250810190611c509190614d08565b905090565b600e60009054906101000a900473ffffffffffffffffffffffffffffffffffffffff1673ffffffffffffffffffffffffffffffffffffffff1663016fc9d782336040518363ffffffff1660e01b8152600401611cb2929190614b19565b600060405180830381600087803b158015611ccc57600080fd5b505af1158015611ce0573d6000803e3d6000fd5b5050505050565b606060008060008080600080600e60009054906101000a900473ffffffffffffffffffffffffffffffffffffffff1673ffffffffffffffffffffffffffffffffffffffff1663b4ace1586040518163ffffffff1660e01b8152600401602060405180830381865afa158015611d60573d6000803e3d6000fd5b505050506040513d601f19601f82011682018060405250810190611d849190614d08565b90506000600360008c815260200190815260200160002054905060008167ffffffffffffffff811115611dba57611db9613f00565b5b604051908082528060200260200182016040528015611df357816020015b611de0613953565b815260200190600190039081611dd85790505b50905060008267ffffffffffffffff811115611e1257611e11613f00565b5b604051908082528060200260200182016040528015611e4b57816020015b611e38613882565b815260200190600190039081611e305790505b50905060008367ffffffffffffffff811115611e6a57611e69613f00565b5b604051908082528060200260200182016040528015611ea357816020015b611e90613983565b815260200190600190039081611e885790505b50905060005b8d51811015611f675760008e8281518110611ec757611ec66149d0565b5b6020026020010151905060005b8160200151811015611f52576040518060400160405280836000015173ffffffffffffffffffffffffffffffffffffffff1681526020018360400151815250868a81518110611f2657611f256149d0565b5b60200260200101819052508880611f3c90614a2e565b9950508080611f4a90614a2e565b915050611ed4565b50508080611f5f90614a2e565b915050611ea9565b5060005b848110156120935760019b5060005b85811015611ff457848181518110611f9557611f946149d0565b5b602002602001015160200151858381518110611fb457611fb36149d0565b5b6020026020010151602001511015611fe1578c80611fd190614a2e565b9d50508b8d1115611fe0578c9b505b5b8080611fec90614a2e565b915050611f7a565b506040518060600160405280858381518110612013576120126149d0565b5b60200260200101516000015173ffffffffffffffffffffffffffffffffffffffff16815260200185838151811061204d5761204c6149d0565b5b60200260200101516020015181526020018d815250838281518110612075576120746149d0565b5b6020026020010181905250808061208b90614a2e565b915050611f6b565b50600095506000600190505b8a81116121d15760005b858110156121bd57818482815181106120c5576120c46149d0565b5b602002602001015160400151036121aa576040518060e001604052808583815181106120f4576120f36149d0565b5b60200260200101516000015173ffffffffffffffffffffffffffffffffffffffff16815260200185838151811061212e5761212d6149d0565b5b6020026020010151602001518152602001858381518110612152576121516149d0565b5b602002602001015160400151815260200160008152602001600081526020016000815260200160008152508389815181106121905761218f6149d0565b5b602002602001018190525087806121a690614a2e565b9850505b80806121b590614a2e565b9150506120a9565b5080806121c990614a2e565b91505061209f565b506064600b548a876121e39190614ec5565b6121ed9190614ef9565b6121f79190614f82565b965086896122059190614fb3565b9850868160008151811061221c5761221b6149d0565b5b602002602001015160600181815250508681600081518110612241576122406149d0565b5b602002602001015160800181815250508681600081518110612266576122656149d0565b5b602002602001015160a0018181525050868160008151811061228b5761228a6149d0565b5b602002602001015160c00181815250506000600190505b848110156126d3576064600b548b886122bb9190614ec5565b6122c59190614ef9565b6122cf9190614f82565b9750878282815181106122e5576122e46149d0565b5b60200260200101516060018181525050878a6123019190614fb3565b995089828281518110612317576123166149d0565b5b602002602001015160800181815250506001856123349190614ec5565b811461251a57816001826123489190614ec5565b81518110612359576123586149d0565b5b602002602001015160400151828281518110612378576123776149d0565b5b602002602001015160400151036123e75787826001836123989190614ec5565b815181106123a9576123a86149d0565b5b602002602001015160a001516123bf9190614fb3565b8282815181106123d2576123d16149d0565b5b602002602001015160a0018181525050612515565b878282815181106123fb576123fa6149d0565b5b602002602001015160a00181815250508782828151811061241f5761241e6149d0565b5b602002602001015160c00181815250508160018261243d9190614ec5565b8151811061244e5761244d6149d0565b5b60200260200101516040015182828151811061246d5761246c6149d0565b5b6020026020010151604001516124839190614ec5565b985060005b8981101561251357898360018461249f9190614ec5565b815181106124b0576124af6149d0565b5b602002602001015160a001516124c69190614f82565b836001836124d49190614fb3565b846124df9190614ec5565b815181106124f0576124ef6149d0565b5b602002602001015160c0018181525050808061250b90614a2e565b915050612488565b505b6126c0565b816001826125289190614ec5565b81518110612539576125386149d0565b5b602002602001015160400151828281518110612558576125576149d0565b5b602002602001015160400151036126765787826001836125789190614ec5565b81518110612589576125886149d0565b5b602002602001015160a0015161259f9190614fb3565b8282815181106125b2576125b16149d0565b5b602002602001015160a00181815250508181815181106125d5576125d46149d0565b5b6020026020010151604001516001866125ee9190614fb3565b6125f89190614ec5565b985060005b898110156126705789838381518110612619576126186149d0565b5b602002602001015160a0015161262f9190614f82565b83828461263c9190614ec5565b8151811061264d5761264c6149d0565b5b602002602001015160c0018181525050808061266890614a2e565b9150506125fd565b506126bf565b8782828151811061268a576126896149d0565b5b602002602001015160a0018181525050878282815181106126ae576126ad6149d0565b5b602002602001015160c00181815250505b5b80806126cb90614a2e565b9150506122a2565b50809b50505050505050505050505092915050565b6000806000600460008673ffffffffffffffffffffffffffffffffffffffff1673ffffffffffffffffffffffffffffffffffffffff16815260200190815260200160002060008563ffffffff1663ffffffff1681526020019081526020016000206002806020026040519081016040528092919082600280156127a6576020028201916000905b82829054906101000a900460ff1660ff168152602001906001019060208260000104928301926001038202915080841161276f5790505b50505050509050806000600281106127c1576127c06149d0565b5b6020020151816001600281106127da576127d96149d0565b5b602002015192509250509250929050565b600060096000600a54815260200190815260200160002060008373ffffffffffffffffffffffffffffffffffffffff1673ffffffffffffffffffffffffffffffffffffffff16815260200190815260200160002060009054906101000a900460ff169050919050565b61285c6134cc565b600c60009054906101000a900473ffffffffffffffffffffffffffffffffffffffff1673ffffffffffffffffffffffffffffffffffffffff166318160ddd6040518163ffffffff1660e01b8152600401602060405180830381865afa1580156128c9573d6000803e3d6000fd5b505050506040513d601f19601f820116820180604052508101906128ed9190614d08565b6003600083815260200190815260200160002081905550600061290f826109fd565b9050600061291d8383611ce7565b90506000600860008581526020019081526020016000206040518060a0016040528084600081518110612953576129526149d0565b5b60200260200101516000015173ffffffffffffffffffffffffffffffffffffffff1681526020016001815260200184600081518110612995576129946149d0565b5b6020026020010151602001518152602001846000815181106129ba576129b96149d0565b5b6020026020010151604001518152602001846000815181106129df576129de6149d0565b5b602002602001015160c00151815250908060018154018082558091505060019003906000526020600020906005020160009091909190915060008201518160000160006101000a81548173ffffffffffffffffffffffffffffffffffffffff021916908373ffffffffffffffffffffffffffffffffffffffff1602179055506020820151816001015560408201518160020155606082015181600301556080820151816004015550506000600190505b6003600086815260200190815260200160002054811015612d665782600182612ab89190614ec5565b81518110612ac957612ac86149d0565b5b60200260200101516000015173ffffffffffffffffffffffffffffffffffffffff16838281518110612afe57612afd6149d0565b5b60200260200101516000015173ffffffffffffffffffffffffffffffffffffffff1603612be157600860008681526020019081526020016000208281548110612b4a57612b496149d0565b5b90600052602060002090600502016001016000815480929190612b6c90614a2e565b9190505550828181518110612b8457612b836149d0565b5b602002602001015160c00151600860008781526020019081526020016000208381548110612bb557612bb46149d0565b5b90600052602060002090600502016004016000828254612bd59190614fb3565b92505081905550612d53565b600860008681526020019081526020016000206040518060a00160405280858481518110612c1257612c116149d0565b5b60200260200101516000015173ffffffffffffffffffffffffffffffffffffffff16815260200160018152602001858481518110612c5357612c526149d0565b5b6020026020010151602001518152602001858481518110612c7757612c766149d0565b5b6020026020010151604001518152602001858481518110612c9b57612c9a6149d0565b5b602002602001015160c00151815250908060018154018082558091505060019003906000526020600020906005020160009091909190915060008201518160000160006101000a81548173ffffffffffffffffffffffffffffffffffffffff021916908373ffffffffffffffffffffffffffffffffffffffff1602179055506020820151816001015560408201518160020155606082015181600301556080820151816004015550508180612d4f90614a2e565b9250505b8080612d5e90614a2e565b915050612a8f565b5060005b6008600086815260200190815260200160002080549050811015612ebc576000600860008781526020019081526020016000208281548110612daf57612dae6149d0565b5b906000526020600020906005020160000160009054906101000a900473ffffffffffffffffffffffffffffffffffffffff169050600e60009054906101000a900473ffffffffffffffffffffffffffffffffffffffff1673ffffffffffffffffffffffffffffffffffffffff166371dd884082600860008a81526020019081526020016000208581548110612e4757612e466149d0565b5b9060005260206000209060050201600401546040518363ffffffff1660e01b8152600401612e76929190615009565b600060405180830381600087803b158015612e9057600080fd5b505af1158015612ea4573d6000803e3d6000fd5b50505050508080612eb490614a2e565b915050612d6a565b5050505050565b612ecb6134cc565b6000603090506000600c60009054906101000a900473ffffffffffffffffffffffffffffffffffffffff1673ffffffffffffffffffffffffffffffffffffffff166370a08231856040518263ffffffff1660e01b8152600401612f2e9190614310565b602060405180830381865afa158015612f4b573d6000803e3d6000fd5b505050506040513d601f19601f82011682018060405250810190612f6f9190614d08565b905060005b82811015613075576040518060400160405280858381518110612f9a57612f996149d0565b5b60200260200101516020015160ff1660ff168152602001858381518110612fc457612fc36149d0565b5b60200260200101516040015160ff1660ff16815250600460008773ffffffffffffffffffffffffffffffffffffffff1673ffffffffffffffffffffffffffffffffffffffff168152602001908152602001600020600086848151811061302d5761302c6149d0565b5b60200260200101516000015163ffffffff1663ffffffff1681526020019081526020016000209060026130619291906138b9565b50808061306d90614a2e565b915050612f74565b5060026000600a54815260200190815260200160002060405180604001604052808673ffffffffffffffffffffffffffffffffffffffff16815260200183815250908060018154018082558091505060019003906000526020600020906002020160009091909190915060008201518160000160006101000a81548173ffffffffffffffffffffffffffffffffffffffff021916908373ffffffffffffffffffffffffffffffffffffffff160217905550602082015181600101555050600160096000600a54815260200190815260200160002060008673ffffffffffffffffffffffffffffffffffffffff1673ffffffffffffffffffffffffffffffffffffffff16815260200190815260200160002060006101000a81548160ff02191690831515021790555050505050565b60606007600083815260200190815260200160002080548060200260200160405190810160405280929190818152602001828054801561320257602002820191906000526020600020905b8154815260200190600101908083116131ee575b50505050509050919050565b6132166134cc565b600073ffffffffffffffffffffffffffffffffffffffff168173ffffffffffffffffffffffffffffffffffffffff1603613285576040517f08c379a000000000000000000000000000000000000000000000000000000000815260040161327c906150a4565b60405180910390fd5b61328e816135ac565b50565b6000808260ff168460ff1611156132ab57600090506132c8565b8360ff168360ff1611156132c257600290506132c7565b600190505b5b8091505092915050565b6000600a54905090565b600080600080600090506000806132f2886108ed565b905060005b818110156134bd57600660008a81526020019081526020016000208181548110613324576133236149d0565b5b90600052602060002090600891828204019190066004029054906101000a900463ffffffff1692506001600560008563ffffffff1663ffffffff1681526020019081526020016000206002600381106133805761337f6149d0565b5b602091828204019190069054906101000a900460ff1660ff16036134aa576000600560008563ffffffff1663ffffffff1681526020019081526020016000206000600381106133d2576133d16149d0565b5b602091828204019190069054906101000a900460ff1690506000600560008663ffffffff1663ffffffff16815260200190815260200160002060016003811061341e5761341d6149d0565b5b602091828204019190069054906101000a900460ff1690506000806134438c886126e8565b915091506134518282613291565b995061345d8484613291565b9850888a036134a5576001886134739190614fb3565b97508360ff168260ff1614801561348f57508260ff168160ff16145b156134a4576002886134a19190614fb3565b97505b5b505050505b80806134b590614a2e565b9150506132f7565b50829550505050505092915050565b6134d46136d3565b73ffffffffffffffffffffffffffffffffffffffff166134f261146b565b73ffffffffffffffffffffffffffffffffffffffff1614613548576040517f08c379a000000000000000000000000000000000000000000000000000000000815260040161353f90615110565b60405180910390fd5b565b6135526136db565b60008060146101000a81548160ff0219169083151502179055507f5db9ee0a495bf2e6ff9c91a7834c1ba4fdd244a5e8aa4e537bd38aeae4b073aa6135956136d3565b6040516135a29190614310565b60405180910390a1565b60008060009054906101000a900473ffffffffffffffffffffffffffffffffffffffff169050816000806101000a81548173ffffffffffffffffffffffffffffffffffffffff021916908373ffffffffffffffffffffffffffffffffffffffff1602179055508173ffffffffffffffffffffffffffffffffffffffff168173ffffffffffffffffffffffffffffffffffffffff167f8be0079c531659141344cd1fd0a4f28419497f9722a3daafe3b4186f6b6457e060405160405180910390a35050565b613678613724565b6001600060146101000a81548160ff0219169083151502179055507f62e78cea01bee320cd4e420270b5ea74000d11b0c9f74754ebdbfc544b05a2586136bc6136d3565b6040516136c99190614310565b60405180910390a1565b600033905090565b6136e36110af565b613722576040517f08c379a00000000000000000000000000000000000000000000000000000000081526004016137199061517c565b60405180910390fd5b565b61372c6110af565b1561376c576040517f08c379a0000000000000000000000000000000000000000000000000000000008152600401613763906151e8565b60405180910390fd5b565b6040518060600160405280600063ffffffff168152602001600060ff168152602001600060ff1681525090565b6040518060600160405280600073ffffffffffffffffffffffffffffffffffffffff16815260200160008152602001600081525090565b828054828255906000526020600020906007016008900481019282156138715791602002820160005b8382111561383f57835183826101000a81548163ffffffff021916908363ffffffff16021790555092602001926004016020816003010492830192600103026137fb565b801561386f5782816101000a81549063ffffffff021916905560040160208160030104928301926001030261383f565b505b50905061387e91906139d6565b5090565b6040518060600160405280600073ffffffffffffffffffffffffffffffffffffffff16815260200160008152602001600081525090565b826002601f016020900481019282156139425791602002820160005b8382111561391357835183826101000a81548160ff021916908360ff16021790555092602001926001016020816000010492830192600103026138d5565b80156139405782816101000a81549060ff0219169055600101602081600001049283019260010302613913565b505b50905061394f91906139d6565b5090565b6040518060400160405280600073ffffffffffffffffffffffffffffffffffffffff168152602001600081525090565b6040518060e00160405280600073ffffffffffffffffffffffffffffffffffffffff1681526020016000815260200160008152602001600081526020016000815260200160008152602001600081525090565b5b808211156139ef5760008160009055506001016139d7565b5090565b6000819050919050565b613a06816139f3565b82525050565b6000602082019050613a2160008301846139fd565b92915050565b6000604051905090565b600080fd5b600080fd5b613a44816139f3565b8114613a4f57600080fd5b50565b600081359050613a6181613a3b565b92915050565b600073ffffffffffffffffffffffffffffffffffffffff82169050919050565b6000613a9282613a67565b9050919050565b613aa281613a87565b8114613aad57600080fd5b50565b600081359050613abf81613a99565b92915050565b60008060408385031215613adc57613adb613a31565b5b6000613aea85828601613a52565b9250506020613afb85828601613ab0565b9150509250929050565b600081519050919050565b600082825260208201905092915050565b6000819050602082019050919050565b600063ffffffff82169050919050565b613b4a81613b31565b82525050565b600060ff82169050919050565b613b6681613b50565b82525050565b606082016000820151613b826000850182613b41565b506020820151613b956020850182613b5d565b506040820151613ba86040850182613b5d565b50505050565b6000613bba8383613b6c565b60608301905092915050565b6000602082019050919050565b6000613bde82613b05565b613be88185613b10565b9350613bf383613b21565b8060005b83811015613c24578151613c0b8882613bae565b9750613c1683613bc6565b925050600181019050613bf7565b5085935050505092915050565b60006020820190508181036000830152613c4b8184613bd3565b905092915050565b600060208284031215613c6957613c68613a31565b5b6000613c7784828501613a52565b91505092915050565b600081519050919050565b600082825260208201905092915050565b6000819050602082019050919050565b613cb581613a87565b82525050565b613cc4816139f3565b82525050565b60a082016000820151613ce06000850182613cac565b506020820151613cf36020850182613cbb565b506040820151613d066040850182613cbb565b506060820151613d196060850182613cbb565b506080820151613d2c6080850182613cbb565b50505050565b6000613d3e8383613cca565b60a08301905092915050565b6000602082019050919050565b6000613d6282613c80565b613d6c8185613c8b565b9350613d7783613c9c565b8060005b83811015613da8578151613d8f8882613d32565b9750613d9a83613d4a565b925050600181019050613d7b565b5085935050505092915050565b60006020820190508181036000830152613dcf8184613d57565b905092915050565b600081519050919050565b600082825260208201905092915050565b6000819050602082019050919050565b606082016000820151613e196000850182613cac565b506020820151613e2c6020850182613cbb565b506040820151613e3f6040850182613cbb565b50505050565b6000613e518383613e03565b60608301905092915050565b6000602082019050919050565b6000613e7582613dd7565b613e7f8185613de2565b9350613e8a83613df3565b8060005b83811015613ebb578151613ea28882613e45565b9750613ead83613e5d565b925050600181019050613e8e565b5085935050505092915050565b60006020820190508181036000830152613ee28184613e6a565b905092915050565b600080fd5b6000601f19601f8301169050919050565b7f4e487b7100000000000000000000000000000000000000000000000000000000600052604160045260246000fd5b613f3882613eef565b810181811067ffffffffffffffff82111715613f5757613f56613f00565b5b80604052505050565b6000613f6a613a27565b9050613f768282613f2f565b919050565b600067ffffffffffffffff821115613f9657613f95613f00565b5b602082029050602081019050919050565b600080fd5b613fb581613b31565b8114613fc057600080fd5b50565b600081359050613fd281613fac565b92915050565b6000613feb613fe684613f7b565b613f60565b9050808382526020820190506020840283018581111561400e5761400d613fa7565b5b835b8181101561403757806140238882613fc3565b845260208401935050602081019050614010565b5050509392505050565b600082601f83011261405657614055613eea565b5b8135614066848260208601613fd8565b91505092915050565b60008060006060848603121561408857614087613a31565b5b600061409686828701613a52565b93505060206140a786828701613a52565b925050604084013567ffffffffffffffff8111156140c8576140c7613a36565b5b6140d486828701614041565b9150509250925092565b6000602082840312156140f4576140f3613a31565b5b600061410284828501613ab0565b91505092915050565b60008115159050919050565b6141208161410b565b82525050565b600060208201905061413b6000830184614117565b92915050565b6000806040838503121561415857614157613a31565b5b600061416685828601613a52565b925050602061417785828601613fc3565b9150509250929050565b61418a81613b50565b82525050565b60006040820190506141a56000830185614181565b6141b26020830184614181565b9392505050565b600067ffffffffffffffff8211156141d4576141d3613f00565b5b602082029050602081019050919050565b60006141f86141f3846141b9565b613f60565b9050808382526020820190506020840283018581111561421b5761421a613fa7565b5b835b8181101561424457806142308882613a52565b84526020840193505060208101905061421d565b5050509392505050565b600082601f83011261426357614262613eea565b5b81356142738482602086016141e5565b91505092915050565b6000806040838503121561429357614292613a31565b5b60006142a185828601613a52565b925050602083013567ffffffffffffffff8111156142c2576142c1613a36565b5b6142ce8582860161424e565b9150509250929050565b60006040820190506142ed60008301856139fd565b6142fa60208301846139fd565b9392505050565b61430a81613a87565b82525050565b60006020820190506143256000830184614301565b92915050565b6000806040838503121561434257614341613a31565b5b600061435085828601613a52565b925050602083013567ffffffffffffffff81111561437157614370613a36565b5b61437d85828601614041565b9150509250929050565b600067ffffffffffffffff8211156143a2576143a1613f00565b5b602082029050602081019050919050565b600080fd5b6143c181613b50565b81146143cc57600080fd5b50565b6000813590506143de816143b8565b92915050565b6000606082840312156143fa576143f96143b3565b5b6144046060613f60565b9050600061441484828501613fc3565b6000830152506020614428848285016143cf565b602083015250604061443c848285016143cf565b60408301525092915050565b600061445b61445684614387565b613f60565b9050808382526020820190506060840283018581111561447e5761447d613fa7565b5b835b818110156144a7578061449388826143e4565b845260208401935050606081019050614480565b5050509392505050565b600082601f8301126144c6576144c5613eea565b5b81356144d6848260208601614448565b91505092915050565b6000602082840312156144f5576144f4613a31565b5b600082013567ffffffffffffffff81111561451357614512613a36565b5b61451f848285016144b1565b91505092915050565b600067ffffffffffffffff82111561454357614542613f00565b5b602082029050602081019050919050565b60006060828403121561456a576145696143b3565b5b6145746060613f60565b9050600061458484828501613ab0565b600083015250602061459884828501613a52565b60208301525060406145ac84828501613a52565b60408301525092915050565b60006145cb6145c684614528565b613f60565b905080838252602082019050606084028301858111156145ee576145ed613fa7565b5b835b8181101561461757806146038882614554565b8452602084019350506060810190506145f0565b5050509392505050565b600082601f83011261463657614635613eea565b5b81356146468482602086016145b8565b91505092915050565b6000806040838503121561466657614665613a31565b5b600061467485828601613a52565b925050602083013567ffffffffffffffff81111561469557614694613a36565b5b6146a185828601614621565b9150509250929050565b600081519050919050565b600082825260208201905092915050565b6000819050602082019050919050565b60e0820160008201516146ed6000850182613cac565b5060208201516147006020850182613cbb565b5060408201516147136040850182613cbb565b5060608201516147266060850182613cbb565b5060808201516147396080850182613cbb565b5060a082015161474c60a0850182613cbb565b5060c082015161475f60c0850182613cbb565b50505050565b600061477183836146d7565b60e08301905092915050565b6000602082019050919050565b6000614795826146ab565b61479f81856146b6565b93506147aa836146c7565b8060005b838110156147db5781516147c28882614765565b97506147cd8361477d565b9250506001810190506147ae565b5085935050505092915050565b60006020820190508181036000830152614802818461478a565b905092915050565b6000806040838503121561482157614820613a31565b5b600061482f85828601613ab0565b925050602061484085828601613fc3565b9150509250929050565b6000806040838503121561486157614860613a31565b5b600061486f85828601613ab0565b925050602083013567ffffffffffffffff8111156148905761488f613a36565b5b61489c858286016144b1565b9150509250929050565b600081519050919050565b600082825260208201905092915050565b6000819050602082019050919050565b6000819050919050565b6148e5816148d2565b82525050565b60006148f783836148dc565b60208301905092915050565b6000602082019050919050565b600061491b826148a6565b61492581856148b1565b9350614930836148c2565b8060005b8381101561496157815161494888826148eb565b975061495383614903565b925050600181019050614934565b5085935050505092915050565b600060208201905081810360008301526149888184614910565b905092915050565b600080604083850312156149a7576149a6613a31565b5b60006149b5858286016143cf565b92505060206149c6858286016143cf565b9150509250929050565b7f4e487b7100000000000000000000000000000000000000000000000000000000600052603260045260246000fd5b7f4e487b7100000000000000000000000000000000000000000000000000000000600052601160045260246000fd5b6000614a39826139f3565b91507fffffffffffffffffffffffffffffffffffffffffffffffffffffffffffffffff8203614a6b57614a6a6149ff565b5b600182019050919050565b600082825260208201905092915050565b7f596f752063616e6e6f7420776974686472617720756e74696c2074686520656e60008201527f64206f662074686520636f6e7465737421000000000000000000000000000000602082015250565b6000614ae3603183614a76565b9150614aee82614a87565b604082019050919050565b60006020820190508181036000830152614b1281614ad6565b9050919050565b6000604082019050614b2e60008301856139fd565b614b3b6020830184614301565b9392505050565b614b4b816148d2565b82525050565b614b5a81613b31565b82525050565b6000604082019050614b756000830185614b42565b614b826020830184614b51565b9392505050565b600081519050614b98816143b8565b92915050565b60008060408385031215614bb557614bb4613a31565b5b6000614bc385828601614b89565b9250506020614bd485828601614b89565b9150509250929050565b6000819050919050565b6000819050919050565b6000614c0d614c08614c0384614bde565b614be8565b6139f3565b9050919050565b614c1d81614bf2565b82525050565b6000606082019050614c386000830186614c14565b614c4560208301856139fd565b614c5260408301846139fd565b949350505050565b614c63816148d2565b8114614c6e57600080fd5b50565b600081519050614c8081614c5a565b92915050565b600060208284031215614c9c57614c9b613a31565b5b6000614caa84828501614c71565b91505092915050565b600081519050614cc281613a3b565b92915050565b60008060408385031215614cdf57614cde613a31565b5b6000614ced85828601614cb3565b9250506020614cfe85828601614cb3565b9150509250929050565b600060208284031215614d1e57614d1d613a31565b5b6000614d2c84828501614cb3565b91505092915050565b7f596f75206e6565642061207469636b657420666f7220736176696e672070726560008201527f64696374696f6e73210000000000000000000000000000000000000000000000602082015250565b6000614d91602983614a76565b9150614d9c82614d35565b604082019050919050565b60006020820190508181036000830152614dc081614d84565b9050919050565b7f50726564696374696f6e20506572696f6420697320636c6f7365642100000000600082015250565b6000614dfd601c83614a76565b9150614e0882614dc7565b602082019050919050565b60006020820190508181036000830152614e2c81614df0565b9050919050565b7f546865206e756d626572206f662070726564696374696f6e7320646f65736e2760008201527f74206d6174636821000000000000000000000000000000000000000000000000602082015250565b6000614e8f602883614a76565b9150614e9a82614e33565b604082019050919050565b60006020820190508181036000830152614ebe81614e82565b9050919050565b6000614ed0826139f3565b9150614edb836139f3565b925082821015614eee57614eed6149ff565b5b828203905092915050565b6000614f04826139f3565b9150614f0f836139f3565b9250817fffffffffffffffffffffffffffffffffffffffffffffffffffffffffffffffff0483118215151615614f4857614f476149ff565b5b828202905092915050565b7f4e487b7100000000000000000000000000000000000000000000000000000000600052601260045260246000fd5b6000614f8d826139f3565b9150614f98836139f3565b925082614fa857614fa7614f53565b5b828204905092915050565b6000614fbe826139f3565b9150614fc9836139f3565b9250827fffffffffffffffffffffffffffffffffffffffffffffffffffffffffffffffff03821115614ffe57614ffd6149ff565b5b828201905092915050565b600060408201905061501e6000830185614301565b61502b60208301846139fd565b9392505050565b7f4f776e61626c653a206e6577206f776e657220697320746865207a65726f206160008201527f6464726573730000000000000000000000000000000000000000000000000000602082015250565b600061508e602683614a76565b915061509982615032565b604082019050919050565b600060208201905081810360008301526150bd81615081565b9050919050565b7f4f776e61626c653a2063616c6c6572206973206e6f7420746865206f776e6572600082015250565b60006150fa602083614a76565b9150615105826150c4565b602082019050919050565b60006020820190508181036000830152615129816150ed565b9050919050565b7f5061757361626c653a206e6f7420706175736564000000000000000000000000600082015250565b6000615166601483614a76565b915061517182615130565b602082019050919050565b6000602082019050818103600083015261519581615159565b9050919050565b7f5061757361626c653a2070617573656400000000000000000000000000000000600082015250565b60006151d2601083614a76565b91506151dd8261519c565b602082019050919050565b60006020820190508181036000830152615201816151c5565b905091905056fea264697066735822122080a278c9b85a523efbfce0c53031a271758b8a2d2fb22db6a1a25d2118e6e41b64736f6c634300080f0033",
  "linkReferences": {},
  "deployedLinkReferences": {}
}