{
  "_format": "hh-sol-artifact-1",
  "contractName": "InterpoolContract",
  "sourceName": "contracts/InterpoolContract.sol",
  "abi": [
    {
      "inputs": [],
      "stateMutability": "nonpayable",
      "type": "constructor"
    },
    {
      "anonymous": false,
      "inputs": [
        {
          "indexed": true,
          "internalType": "address",
          "name": "previousOwner",
          "type": "address"
        },
        {
          "indexed": true,
          "internalType": "address",
          "name": "newOwner",
          "type": "address"
        }
      ],
      "name": "OwnershipTransferred",
      "type": "event"
    },
    {
      "anonymous": false,
      "inputs": [
        {
          "indexed": false,
          "internalType": "address",
          "name": "account",
          "type": "address"
        }
      ],
      "name": "Paused",
      "type": "event"
    },
    {
      "anonymous": false,
      "inputs": [
        {
          "indexed": false,
          "internalType": "address",
          "name": "account",
          "type": "address"
        }
      ],
      "name": "Unpaused",
      "type": "event"
    },
    {
      "inputs": [
        {
          "internalType": "uint256",
          "name": "_contestId",
          "type": "uint256"
        },
        {
          "components": [
            {
              "internalType": "address",
              "name": "player",
              "type": "address"
            },
            {
              "internalType": "uint256",
              "name": "nbTickets",
              "type": "uint256"
            },
            {
              "internalType": "uint256",
              "name": "nbPoints",
              "type": "uint256"
            }
          ],
          "internalType": "struct InterpoolContract.PlayerPointsAndTickets[]",
          "name": "_pointsTable",
          "type": "tuple[]"
        }
      ],
      "name": "calculateGain",
      "outputs": [
        {
          "components": [
            {
              "internalType": "address",
              "name": "player",
              "type": "address"
            },
            {
              "internalType": "uint256",
              "name": "nbPoints",
              "type": "uint256"
            },
            {
              "internalType": "uint256",
              "name": "rankExAequo",
              "type": "uint256"
            },
            {
              "internalType": "uint256",
              "name": "rewardNoExAequo",
              "type": "uint256"
            },
            {
              "internalType": "uint256",
              "name": "cumulatedRewardsNoExAequo",
              "type": "uint256"
            },
            {
              "internalType": "uint256",
              "name": "cumulatedRewardsPerRank",
              "type": "uint256"
            },
            {
              "internalType": "uint256",
              "name": "rewardPerRankPerPlayer",
              "type": "uint256"
            }
          ],
          "internalType": "struct InterpoolContract.Gain[]",
          "name": "",
          "type": "tuple[]"
        }
      ],
      "stateMutability": "view",
      "type": "function"
    },
    {
      "inputs": [
        {
          "internalType": "uint8",
          "name": "_homeScore",
          "type": "uint8"
        },
        {
          "internalType": "uint8",
          "name": "_awayScore",
          "type": "uint8"
        }
      ],
      "name": "calculateMatchResult",
      "outputs": [
        {
          "internalType": "uint256",
          "name": "",
          "type": "uint256"
        }
      ],
      "stateMutability": "pure",
      "type": "function"
    },
    {
      "inputs": [],
      "name": "claim",
      "outputs": [],
      "stateMutability": "nonpayable",
      "type": "function"
    },
    {
      "inputs": [
        {
          "internalType": "uint256",
          "name": "_leagueId",
          "type": "uint256"
        },
        {
          "internalType": "uint256",
          "name": "_dateEndContestPredictions",
          "type": "uint256"
        },
        {
          "internalType": "uint256[]",
          "name": "_requestDates",
          "type": "uint256[]"
        }
      ],
      "name": "createContest",
      "outputs": [],
      "stateMutability": "nonpayable",
      "type": "function"
    },
    {
      "inputs": [
        {
          "internalType": "uint256",
          "name": "_contestId",
          "type": "uint256"
        }
      ],
      "name": "createContestTable",
      "outputs": [],
      "stateMutability": "nonpayable",
      "type": "function"
    },
    {
      "inputs": [
        {
          "internalType": "uint256",
          "name": "_amount",
          "type": "uint256"
        }
      ],
      "name": "deposit",
      "outputs": [],
      "stateMutability": "nonpayable",
      "type": "function"
    },
    {
      "inputs": [],
      "name": "getContestPredictionEndDate",
      "outputs": [
        {
          "internalType": "uint256",
          "name": "",
          "type": "uint256"
        }
      ],
      "stateMutability": "view",
      "type": "function"
    },
    {
      "inputs": [
        {
          "internalType": "uint256",
          "name": "_contestId",
          "type": "uint256"
        }
      ],
      "name": "getContestTable",
      "outputs": [
        {
          "components": [
            {
              "internalType": "address",
              "name": "player",
              "type": "address"
            },
            {
              "internalType": "uint256",
              "name": "nbTickets",
              "type": "uint256"
            },
            {
              "internalType": "uint256",
              "name": "nbPoints",
              "type": "uint256"
            },
            {
              "internalType": "uint256",
              "name": "rankExAequo",
              "type": "uint256"
            },
            {
              "internalType": "uint256",
              "name": "rewardPerRankPerPlayer",
              "type": "uint256"
            }
          ],
          "internalType": "struct InterpoolContract.ContestResult[]",
          "name": "",
          "type": "tuple[]"
        }
      ],
      "stateMutability": "view",
      "type": "function"
    },
    {
      "inputs": [],
      "name": "getCurrentContestId",
      "outputs": [
        {
          "internalType": "uint256",
          "name": "",
          "type": "uint256"
        }
      ],
      "stateMutability": "view",
      "type": "function"
    },
    {
      "inputs": [],
      "name": "getGlobalPrizePool",
      "outputs": [
        {
          "internalType": "uint256",
          "name": "",
          "type": "uint256"
        }
      ],
      "stateMutability": "view",
      "type": "function"
    },
    {
      "inputs": [
        {
          "internalType": "uint256",
          "name": "_contestId",
          "type": "uint256"
        }
      ],
      "name": "getIdGamesPerContest",
      "outputs": [
        {
          "internalType": "uint32[]",
          "name": "",
          "type": "uint32[]"
        }
      ],
      "stateMutability": "view",
      "type": "function"
    },
    {
      "inputs": [
        {
          "internalType": "uint256",
          "name": "_contestId",
          "type": "uint256"
        },
        {
          "internalType": "uint256",
          "name": "_market",
          "type": "uint256"
        }
      ],
      "name": "getListRequestIdPerContest",
      "outputs": [
        {
          "internalType": "bytes32[]",
          "name": "",
          "type": "bytes32[]"
        }
      ],
      "stateMutability": "view",
      "type": "function"
    },
    {
      "inputs": [
        {
          "internalType": "uint256",
          "name": "_contestId",
          "type": "uint256"
        }
      ],
      "name": "getNumberOfGamesPerContest",
      "outputs": [
        {
          "internalType": "uint256",
          "name": "",
          "type": "uint256"
        }
      ],
      "stateMutability": "view",
      "type": "function"
    },
    {
      "inputs": [
        {
          "internalType": "uint256",
          "name": "_contestId",
          "type": "uint256"
        }
      ],
      "name": "getNumberOfPlayers",
      "outputs": [
        {
          "internalType": "uint256",
          "name": "",
          "type": "uint256"
        }
      ],
      "stateMutability": "view",
      "type": "function"
    },
    {
      "inputs": [
        {
          "internalType": "uint256",
          "name": "_contestId",
          "type": "uint256"
        },
        {
          "internalType": "address",
          "name": "_player",
          "type": "address"
        }
      ],
      "name": "getPlayerRank",
      "outputs": [
        {
          "internalType": "uint256",
          "name": "",
          "type": "uint256"
        }
      ],
      "stateMutability": "view",
      "type": "function"
    },
    {
      "inputs": [
        {
          "internalType": "uint256",
          "name": "_contestId",
          "type": "uint256"
        },
        {
          "internalType": "address",
          "name": "_player",
          "type": "address"
        }
      ],
      "name": "getPointsOfPlayerForContest",
      "outputs": [
        {
          "internalType": "uint256",
          "name": "",
          "type": "uint256"
        }
      ],
      "stateMutability": "view",
      "type": "function"
    },
    {
      "inputs": [
        {
          "internalType": "uint256",
          "name": "_contestId",
          "type": "uint256"
        }
      ],
      "name": "getPointsTable",
      "outputs": [
        {
          "components": [
            {
              "internalType": "address",
              "name": "player",
              "type": "address"
            },
            {
              "internalType": "uint256",
              "name": "nbTickets",
              "type": "uint256"
            },
            {
              "internalType": "uint256",
              "name": "nbPoints",
              "type": "uint256"
            }
          ],
          "internalType": "struct InterpoolContract.PlayerPointsAndTickets[]",
          "name": "",
          "type": "tuple[]"
        }
      ],
      "stateMutability": "view",
      "type": "function"
    },
    {
      "inputs": [
        {
          "internalType": "uint256",
          "name": "_contestId",
          "type": "uint256"
        },
        {
          "internalType": "address",
          "name": "_player",
          "type": "address"
        }
      ],
      "name": "getPrevisionsPerPlayerPerContest",
      "outputs": [
        {
          "components": [
            {
              "internalType": "uint32",
              "name": "gameId",
              "type": "uint32"
            },
            {
              "internalType": "uint8",
              "name": "homeScore",
              "type": "uint8"
            },
            {
              "internalType": "uint8",
              "name": "awayScore",
              "type": "uint8"
            }
          ],
          "internalType": "struct InterpoolContract.GamePredict[]",
          "name": "",
          "type": "tuple[]"
        }
      ],
      "stateMutability": "view",
      "type": "function"
    },
    {
      "inputs": [
        {
          "internalType": "address",
          "name": "_player",
          "type": "address"
        },
        {
          "internalType": "uint32",
          "name": "_gameId",
          "type": "uint32"
        }
      ],
      "name": "getPrevisionsPerPlayerPerGame",
      "outputs": [
        {
          "internalType": "uint8",
          "name": "",
          "type": "uint8"
        },
        {
          "internalType": "uint8",
          "name": "",
          "type": "uint8"
        }
      ],
      "stateMutability": "view",
      "type": "function"
    },
    {
      "inputs": [
        {
          "internalType": "uint256",
          "name": "_contestId",
          "type": "uint256"
        },
        {
          "internalType": "uint32",
          "name": "_gameId",
          "type": "uint32"
        }
      ],
      "name": "getScoresPerGameId",
      "outputs": [
        {
          "internalType": "uint8",
          "name": "",
          "type": "uint8"
        },
        {
          "internalType": "uint8",
          "name": "",
          "type": "uint8"
        }
      ],
      "stateMutability": "view",
      "type": "function"
    },
    {
      "inputs": [
        {
          "internalType": "address",
          "name": "_player",
          "type": "address"
        }
      ],
      "name": "getWinningsPerPlayer",
      "outputs": [
        {
          "internalType": "uint256",
          "name": "",
          "type": "uint256"
        },
        {
          "internalType": "uint256",
          "name": "",
          "type": "uint256"
        }
      ],
      "stateMutability": "view",
      "type": "function"
    },
    {
      "inputs": [
        {
          "internalType": "uint256",
          "name": "",
          "type": "uint256"
        },
        {
          "internalType": "uint256",
          "name": "",
          "type": "uint256"
        }
      ],
      "name": "listPlayersWithNbTicketsPerContest",
      "outputs": [
        {
          "internalType": "address",
          "name": "player",
          "type": "address"
        },
        {
          "internalType": "uint256",
          "name": "nbTickets",
          "type": "uint256"
        }
      ],
      "stateMutability": "view",
      "type": "function"
    },
    {
      "inputs": [],
      "name": "owner",
      "outputs": [
        {
          "internalType": "address",
          "name": "",
          "type": "address"
        }
      ],
      "stateMutability": "view",
      "type": "function"
    },
    {
      "inputs": [],
      "name": "pause",
      "outputs": [],
      "stateMutability": "nonpayable",
      "type": "function"
    },
    {
      "inputs": [],
      "name": "paused",
      "outputs": [
        {
          "internalType": "bool",
          "name": "",
          "type": "bool"
        }
      ],
      "stateMutability": "view",
      "type": "function"
    },
    {
      "inputs": [],
      "name": "renounceOwnership",
      "outputs": [],
      "stateMutability": "nonpayable",
      "type": "function"
    },
    {
      "inputs": [
        {
          "internalType": "uint256",
          "name": "_leagueId",
          "type": "uint256"
        },
        {
          "internalType": "uint256[]",
          "name": "_requestDates",
          "type": "uint256[]"
        }
      ],
      "name": "resolveGames",
      "outputs": [],
      "stateMutability": "nonpayable",
      "type": "function"
    },
    {
      "inputs": [
        {
          "components": [
            {
              "internalType": "uint32",
              "name": "gameId",
              "type": "uint32"
            },
            {
              "internalType": "uint8",
              "name": "homeScore",
              "type": "uint8"
            },
            {
              "internalType": "uint8",
              "name": "awayScore",
              "type": "uint8"
            }
          ],
          "internalType": "struct InterpoolContract.GamePredict[]",
          "name": "_gamePredictions",
          "type": "tuple[]"
        }
      ],
      "name": "savePrediction",
      "outputs": [],
      "stateMutability": "nonpayable",
      "type": "function"
    },
    {
      "inputs": [
        {
          "internalType": "address",
          "name": "_enetContract",
          "type": "address"
        }
      ],
      "name": "setEnetContract",
      "outputs": [],
      "stateMutability": "nonpayable",
      "type": "function"
    },
    {
      "inputs": [
        {
          "internalType": "address",
          "name": "_poolContract",
          "type": "address"
        }
      ],
      "name": "setPoolContract",
      "outputs": [],
      "stateMutability": "nonpayable",
      "type": "function"
    },
    {
      "inputs": [
        {
          "internalType": "address",
          "name": "newOwner",
          "type": "address"
        }
      ],
      "name": "transferOwnership",
      "outputs": [],
      "stateMutability": "nonpayable",
      "type": "function"
    },
    {
      "inputs": [],
      "name": "unpause",
      "outputs": [],
      "stateMutability": "nonpayable",
      "type": "function"
    },
    {
      "inputs": [
        {
          "internalType": "uint256",
          "name": "_nbTickets",
          "type": "uint256"
        }
      ],
      "name": "withdraw",
      "outputs": [],
      "stateMutability": "nonpayable",
      "type": "function"
    }
  ],
  "bytecode": "0x60806040523480156200001157600080fd5b5062000032620000266200010160201b60201c565b6200010960201b60201c565b60008060146101000a81548160ff021916908315150217905550731e0a4b2e73779fd6a1db504cd3668f23f42ce683600b60006101000a81548173ffffffffffffffffffffffffffffffffffffffff021916908373ffffffffffffffffffffffffffffffffffffffff160217905550620000c67349672edd419e4795307ccc906cab0e8fc5d147f9620001cd60201b60201c565b620000eb73d3babc11ccc23648a24c42d4812af2380c28626a6200022160201b60201c565b6005600a819055506000600981905550620003b2565b600033905090565b60008060009054906101000a900473ffffffffffffffffffffffffffffffffffffffff169050816000806101000a81548173ffffffffffffffffffffffffffffffffffffffff021916908373ffffffffffffffffffffffffffffffffffffffff1602179055508173ffffffffffffffffffffffffffffffffffffffff168173ffffffffffffffffffffffffffffffffffffffff167f8be0079c531659141344cd1fd0a4f28419497f9722a3daafe3b4186f6b6457e060405160405180910390a35050565b620001dd6200027560201b60201c565b80600c60006101000a81548173ffffffffffffffffffffffffffffffffffffffff021916908373ffffffffffffffffffffffffffffffffffffffff16021790555050565b620002316200027560201b60201c565b80600d60006101000a81548173ffffffffffffffffffffffffffffffffffffffff021916908373ffffffffffffffffffffffffffffffffffffffff16021790555050565b620002856200010160201b60201c565b73ffffffffffffffffffffffffffffffffffffffff16620002ab6200030660201b60201c565b73ffffffffffffffffffffffffffffffffffffffff161462000304576040517f08c379a0000000000000000000000000000000000000000000000000000000008152600401620002fb9062000390565b60405180910390fd5b565b60008060009054906101000a900473ffffffffffffffffffffffffffffffffffffffff16905090565b600082825260208201905092915050565b7f4f776e61626c653a2063616c6c6572206973206e6f7420746865206f776e6572600082015250565b6000620003786020836200032f565b9150620003858262000340565b602082019050919050565b60006020820190508181036000830152620003ab8162000369565b9050919050565b61522a80620003c26000396000f3fe608060405234801561001057600080fd5b50600436106101fb5760003560e01c80636fe9141b1161011a578063b4ace158116100ad578063c7cbdb661161007c578063c7cbdb66146105c4578063f2fde38b146105f4578063f49a20bd14610610578063fb46bd2214610640578063fee901601461065e576101fb565b8063b4ace15814610529578063b6b55f2514610547578063baf6378314610563578063bd874a1d14610593576101fb565b80638456cb59116100e95780638456cb59146104b45780638ad2e864146104be5780638da5cb5b146104ef5780639fa75e9a1461050d576101fb565b80636fe9141b14610441578063715018a6146104725780637158f6101461047c57806371ce137e14610498576101fb565b80634e71d92d116101925780635c975abb116101615780635c975abb146103a657806362436d9d146103c457806366194e14146103f45780636851e9a914610410576101fb565b80634e71d92d146103205780634fda591e1461032a57806351fe0b4d1461035a57806359c3f3e01461038a576101fb565b806327ca8b98116101ce57806327ca8b98146102ae5780632e1a7d4d146102de5780633f4ba83a146102fa5780633fc1010114610304576101fb565b806308af2d7814610200578063117f39981461021e5780631d8833421461024e5780632452a7e31461027e575b600080fd5b61020861068e565b604051610215919061392b565b60405180910390f35b610238600480360381019061023391906139e4565b6106ae565b6040516102459190613b50565b60405180910390f35b61026860048036038101906102639190613b72565b610904565b604051610275919061392b565b60405180910390f35b61029860048036038101906102939190613b72565b610a2d565b6040516102a59190613cd4565b60405180910390f35b6102c860048036038101906102c39190613b72565b610b1d565b6040516102d59190613de7565b60405180910390f35b6102f860048036038101906102f39190613b72565b610caf565b005b610302610e09565b005b61031e60048036038101906103199190613b72565b610e1b565b005b61032861148a565b005b610344600480360381019061033f91906139e4565b611519565b604051610351919061392b565b60405180910390f35b610374600480360381019061036f9190613e09565b61174b565b6040516103819190613f11565b60405180910390f35b6103a4600480360381019061039f9190613f33565b611829565b005b6103ae611875565b6040516103bb9190613f7b565b60405180910390f35b6103de60048036038101906103d99190613b72565b61188b565b6040516103eb919061392b565b60405180910390f35b61040e600480360381019061040991906140ef565b6118ab565b005b61042a6004803603810190610425919061418a565b611a2f565b6040516104389291906141d9565b60405180910390f35b61045b60048036038101906104569190613e09565b611b75565b604051610469929190614211565b60405180910390f35b61047a611bd6565b005b6104966004803603810190610491919061423a565b611bea565b005b6104b260048036038101906104ad9190613f33565b611d14565b005b6104bc611d60565b005b6104d860048036038101906104d39190613f33565b611d72565b6040516104e6929190614296565b60405180910390f35b6104f7611e19565b60405161050491906142bf565b60405180910390f35b61052760048036038101906105229190614432565b611e42565b005b6105316123be565b60405161053e919061392b565b60405180910390f35b610561600480360381019061055c9190613b72565b612456565b005b61057d600480360381019061057891906145a2565b6124e8565b60405161058a919061473b565b60405180910390f35b6105ad60048036038101906105a8919061475d565b612ee9565b6040516105bb9291906141d9565b60405180910390f35b6105de60048036038101906105d99190613b72565b612fec565b6040516105eb919061484c565b60405180910390f35b61060e60048036038101906106099190613f33565b61327d565b005b61062a6004803603810190610625919061486e565b613300565b604051610637919061392b565b60405180910390f35b610648613341565b604051610655919061392b565b60405180910390f35b610678600480360381019061067391906139e4565b61334b565b604051610685919061392b565b60405180910390f35b600060016000600954815260200190815260200160002060010154905090565b606060006106bb84610904565b90506000808267ffffffffffffffff8111156106da576106d9613fac565b5b60405190808252806020026020018201604052801561071357816020015b61070061373d565b8152602001906001900390816106f85790505b50905060008367ffffffffffffffff81111561073257610731613fac565b5b6040519080825280602002602001820160405280156107605781602001602082028036833780820191505090505b50905061076c87612fec565b905060005b848110156108f65781818151811061078c5761078b6148ae565b5b6020026020010151935060405180606001604052808563ffffffff168152602001600460008a73ffffffffffffffffffffffffffffffffffffffff1673ffffffffffffffffffffffffffffffffffffffff16815260200190815260200160002060008763ffffffff1663ffffffff16815260200190815260200160002060006002811061081c5761081b6148ae565b5b602091828204019190069054906101000a900460ff1660ff168152602001600460008a73ffffffffffffffffffffffffffffffffffffffff1673ffffffffffffffffffffffffffffffffffffffff16815260200190815260200160002060008763ffffffff1663ffffffff1681526020019081526020016000206001600281106108a9576108a86148ae565b5b602091828204019190069054906101000a900460ff1660ff168152508382815181106108d8576108d76148ae565b5b602002602001018190525080806108ee9061490c565b915050610771565b508194505050505092915050565b6000806000905060006005600085815260200190815260200160002080549050905060005b81811015610a22576000600560008781526020019081526020016000208281548110610958576109576148ae565b5b90600052602060002001549050600c60009054906101000a900473ffffffffffffffffffffffffffffffffffffffff1673ffffffffffffffffffffffffffffffffffffffff1663f02e41a3826040518263ffffffff1660e01b81526004016109c09190614963565b602060405180830381865afa1580156109dd573d6000803e3d6000fd5b505050506040513d601f19601f82011682018060405250810190610a019190614993565b84610a0c91906149c0565b9350508080610a1a9061490c565b915050610929565b508192505050919050565b606060076000838152602001908152602001600020805480602002602001604051908101604052809291908181526020016000905b82821015610b1257838290600052602060002090600502016040518060a00160405290816000820160009054906101000a900473ffffffffffffffffffffffffffffffffffffffff1673ffffffffffffffffffffffffffffffffffffffff1673ffffffffffffffffffffffffffffffffffffffff16815260200160018201548152602001600282015481526020016003820154815260200160048201548152505081526020019060010190610a62565b505050509050919050565b60606000600260008481526020019081526020016000208054905090506000806000808467ffffffffffffffff811115610b5a57610b59613fac565b5b604051908082528060200260200182016040528015610b9357816020015b610b8061376a565b815260200190600190039081610b785790505b50905060005b85811015610ca157600260008981526020019081526020016000208181548110610bc657610bc56148ae565b5b906000526020600020906002020160000160009054906101000a900473ffffffffffffffffffffffffffffffffffffffff169450600260008981526020019081526020016000208181548110610c1f57610c1e6148ae565b5b9060005260206000209060020201600101549350610c3d888661334b565b925060405180606001604052808673ffffffffffffffffffffffffffffffffffffffff16815260200185815260200184815250828281518110610c8357610c826148ae565b5b60200260200101819052508080610c999061490c565b915050610b99565b508095505050505050919050565b6000151560086000600954815260200190815260200160002060003373ffffffffffffffffffffffffffffffffffffffff1673ffffffffffffffffffffffffffffffffffffffff16815260200190815260200160002060009054906101000a900460ff1615151480610d3857506001600060095481526020019081526020016000206001015442115b610d77576040517f08c379a0000000000000000000000000000000000000000000000000000000008152600401610d6e90614a99565b60405180910390fd5b600d60009054906101000a900473ffffffffffffffffffffffffffffffffffffffff1673ffffffffffffffffffffffffffffffffffffffff16632cbcb1f282336040518363ffffffff1660e01b8152600401610dd4929190614ab9565b600060405180830381600087803b158015610dee57600080fd5b505af1158015610e02573d6000803e3d6000fd5b5050505050565b610e1161349b565b610e19613519565b565b610e2361349b565b600b60009054906101000a900473ffffffffffffffffffffffffffffffffffffffff1673ffffffffffffffffffffffffffffffffffffffff166318160ddd6040518163ffffffff1660e01b8152600401602060405180830381865afa158015610e90573d6000803e3d6000fd5b505050506040513d601f19601f82011682018060405250810190610eb49190614993565b60036000838152602001908152602001600020819055506000610ed682610b1d565b90506000610ee483836124e8565b90506000600760008581526020019081526020016000206040518060a0016040528084600081518110610f1a57610f196148ae565b5b60200260200101516000015173ffffffffffffffffffffffffffffffffffffffff1681526020016001815260200184600081518110610f5c57610f5b6148ae565b5b602002602001015160200151815260200184600081518110610f8157610f806148ae565b5b602002602001015160400151815260200184600081518110610fa657610fa56148ae565b5b602002602001015160c00151815250908060018154018082558091505060019003906000526020600020906005020160009091909190915060008201518160000160006101000a81548173ffffffffffffffffffffffffffffffffffffffff021916908373ffffffffffffffffffffffffffffffffffffffff1602179055506020820151816001015560408201518160020155606082015181600301556080820151816004015550506000600190505b600360008681526020019081526020016000205481101561132d578260018261107f9190614ae2565b815181106110905761108f6148ae565b5b60200260200101516000015173ffffffffffffffffffffffffffffffffffffffff168382815181106110c5576110c46148ae565b5b60200260200101516000015173ffffffffffffffffffffffffffffffffffffffff16036111a857600760008681526020019081526020016000208281548110611111576111106148ae565b5b906000526020600020906005020160010160008154809291906111339061490c565b919050555082818151811061114b5761114a6148ae565b5b602002602001015160c0015160076000878152602001908152602001600020838154811061117c5761117b6148ae565b5b9060005260206000209060050201600401600082825461119c91906149c0565b9250508190555061131a565b600760008681526020019081526020016000206040518060a001604052808584815181106111d9576111d86148ae565b5b60200260200101516000015173ffffffffffffffffffffffffffffffffffffffff1681526020016001815260200185848151811061121a576112196148ae565b5b602002602001015160200151815260200185848151811061123e5761123d6148ae565b5b6020026020010151604001518152602001858481518110611262576112616148ae565b5b602002602001015160c00151815250908060018154018082558091505060019003906000526020600020906005020160009091909190915060008201518160000160006101000a81548173ffffffffffffffffffffffffffffffffffffffff021916908373ffffffffffffffffffffffffffffffffffffffff16021790555060208201518160010155604082015181600201556060820151816003015560808201518160040155505081806113169061490c565b9250505b80806113259061490c565b915050611056565b5060005b6007600086815260200190815260200160002080549050811015611483576000600760008781526020019081526020016000208281548110611376576113756148ae565b5b906000526020600020906005020160000160009054906101000a900473ffffffffffffffffffffffffffffffffffffffff169050600d60009054906101000a900473ffffffffffffffffffffffffffffffffffffffff1673ffffffffffffffffffffffffffffffffffffffff166371dd884082600760008a8152602001908152602001600020858154811061140e5761140d6148ae565b5b9060005260206000209060050201600401546040518363ffffffff1660e01b815260040161143d929190614211565b600060405180830381600087803b15801561145757600080fd5b505af115801561146b573d6000803e3d6000fd5b5050505050808061147b9061490c565b915050611331565b5050505050565b600d60009054906101000a900473ffffffffffffffffffffffffffffffffffffffff1673ffffffffffffffffffffffffffffffffffffffff16630de6e321336040518263ffffffff1660e01b81526004016114e591906142bf565b600060405180830381600087803b1580156114ff57600080fd5b505af1158015611513573d6000803e3d6000fd5b50505050565b60008061152584610b1d565b9050600080825190506000808267ffffffffffffffff81111561154b5761154a613fac565b5b60405190808252806020026020018201604052801561158457816020015b6115716137a1565b8152602001906001900390816115695790505b50905060005b838110156116a6576001945060005b84811015611607578681815181106115b4576115b36148ae565b5b6020026020010151604001518783815181106115d3576115d26148ae565b5b60200260200101516040015110156115f45785806115f09061490c565b9650505b80806115ff9061490c565b915050611599565b506040518060600160405280878381518110611626576116256148ae565b5b60200260200101516000015173ffffffffffffffffffffffffffffffffffffffff1681526020018783815181106116605761165f6148ae565b5b602002602001015160400151815260200186815250828281518110611688576116876148ae565b5b6020026020010181905250808061169e9061490c565b91505061158a565b5060005b8381101561173c578181815181106116c5576116c46148ae565b5b60200260200101516000015173ffffffffffffffffffffffffffffffffffffffff168873ffffffffffffffffffffffffffffffffffffffff160361172957818181518110611716576117156148ae565b5b602002602001015160400151925061173c565b80806117349061490c565b9150506116aa565b50819550505050505092915050565b6060600082036117be57600560008481526020019081526020016000208054806020026020016040519081016040528092919081815260200182805480156117b257602002820191906000526020600020905b81548152602001906001019080831161179e575b50505050509050611823565b6006600084815260200190815260200160002080548060200260200160405190810160405280929190818152602001828054801561181b57602002820191906000526020600020905b815481526020019060010190808311611807575b505050505090505b92915050565b61183161349b565b80600d60006101000a81548173ffffffffffffffffffffffffffffffffffffffff021916908373ffffffffffffffffffffffffffffffffffffffff16021790555050565b60008060149054906101000a900460ff16905090565b600060026000838152602001908152602001600020805490509050919050565b6118b361349b565b600960008154809291906118c69061490c565b919050555060008151905060005b818110156119e757600560006009548152602001908152602001600020600c60009054906101000a900473ffffffffffffffffffffffffffffffffffffffff1673ffffffffffffffffffffffffffffffffffffffff1663580c2f54600088878681518110611945576119446148ae565b5b60200260200101516040518463ffffffff1660e01b815260040161196b93929190614b5b565b6020604051808303816000875af115801561198a573d6000803e3d6000fd5b505050506040513d601f19601f820116820180604052508101906119ae9190614bbe565b908060018154018082558091505060019003906000526020600020016000909190919091505580806119df9061490c565b9150506118d4565b50604051806040016040528085815260200184815250600160006009548152602001908152602001600020600082015181600001556020820151816001015590505050505050565b600080600060066000868152602001908152602001600020805490509050600060ff905060008060005b84811015611b63576000600660008b81526020019081526020016000208281548110611a8857611a876148ae565b5b90600052602060002001549050600c60009054906101000a900473ffffffffffffffffffffffffffffffffffffffff1673ffffffffffffffffffffffffffffffffffffffff16633910b2c2828b6040518363ffffffff1660e01b8152600401611af2929190614bfa565b606060405180830381865afa158015611b0f573d6000803e3d6000fd5b505050506040513d601f19601f82011682018060405250810190611b339190614c64565b809550819650829750505050600192508215611b4f5750611b63565b508080611b5b9061490c565b915050611a59565b50828295509550505050509250929050565b60026020528160005260406000208181548110611b9157600080fd5b9060005260206000209060020201600091509150508060000160009054906101000a900473ffffffffffffffffffffffffffffffffffffffff16908060010154905082565b611bde61349b565b611be8600061357b565b565b611bf261349b565b60008151905060005b81811015611d0e57600660006009548152602001908152602001600020600c60009054906101000a900473ffffffffffffffffffffffffffffffffffffffff1673ffffffffffffffffffffffffffffffffffffffff1663580c2f54600187878681518110611c6c57611c6b6148ae565b5b60200260200101516040518463ffffffff1660e01b8152600401611c9293929190614cf2565b6020604051808303816000875af1158015611cb1573d6000803e3d6000fd5b505050506040513d601f19601f82011682018060405250810190611cd59190614bbe565b90806001815401808255809150506001900390600052602060002001600090919091909150558080611d069061490c565b915050611bfb565b50505050565b611d1c61349b565b80600c60006101000a81548173ffffffffffffffffffffffffffffffffffffffff021916908373ffffffffffffffffffffffffffffffffffffffff16021790555050565b611d6861349b565b611d7061363f565b565b600080600d60009054906101000a900473ffffffffffffffffffffffffffffffffffffffff1673ffffffffffffffffffffffffffffffffffffffff16638ad2e864846040518263ffffffff1660e01b8152600401611dd091906142bf565b6040805180830381865afa158015611dec573d6000803e3d6000fd5b505050506040513d601f19601f82011682018060405250810190611e109190614d29565b91509150915091565b60008060009054906101000a900473ffffffffffffffffffffffffffffffffffffffff16905090565b6000600b60009054906101000a900473ffffffffffffffffffffffffffffffffffffffff1673ffffffffffffffffffffffffffffffffffffffff166370a08231336040518263ffffffff1660e01b8152600401611e9f91906142bf565b602060405180830381865afa158015611ebc573d6000803e3d6000fd5b505050506040513d601f19601f82011682018060405250810190611ee09190614993565b11611f20576040517f08c379a0000000000000000000000000000000000000000000000000000000008152600401611f1790614ddb565b60405180910390fd5b600160006009548152602001908152602001600020600101544210611f7a576040517f08c379a0000000000000000000000000000000000000000000000000000000008152600401611f7190614e47565b60405180910390fd5b611f85600954610904565b815114611fc7576040517f08c379a0000000000000000000000000000000000000000000000000000000008152600401611fbe90614ed9565b60405180910390fd5b6000611fd4600954610904565b90506000600b60009054906101000a900473ffffffffffffffffffffffffffffffffffffffff1673ffffffffffffffffffffffffffffffffffffffff166370a08231336040518263ffffffff1660e01b815260040161203391906142bf565b602060405180830381865afa158015612050573d6000803e3d6000fd5b505050506040513d601f19601f820116820180604052508101906120749190614993565b905060005b8281101561217a57604051806040016040528085838151811061209f5761209e6148ae565b5b60200260200101516020015160ff1660ff1681526020018583815181106120c9576120c86148ae565b5b60200260200101516040015160ff1660ff16815250600460003373ffffffffffffffffffffffffffffffffffffffff1673ffffffffffffffffffffffffffffffffffffffff1681526020019081526020016000206000868481518110612132576121316148ae565b5b60200260200101516000015163ffffffff1663ffffffff1681526020019081526020016000209060026121669291906137d8565b5080806121729061490c565b915050612079565b50600080600090505b600260006009548152602001908152602001600020805490508110156122835760026000600954815260200190815260200160002081815481106121ca576121c96148ae565b5b906000526020600020906002020160000160009054906101000a900473ffffffffffffffffffffffffffffffffffffffff1673ffffffffffffffffffffffffffffffffffffffff163373ffffffffffffffffffffffffffffffffffffffff160361227057826002600060095481526020019081526020016000208281548110612256576122556148ae565b5b906000526020600020906002020160010181905550600191505b808061227b9061490c565b915050612183565b5060001515811515036123b85760026000600954815260200190815260200160002060405180604001604052803373ffffffffffffffffffffffffffffffffffffffff16815260200184815250908060018154018082558091505060019003906000526020600020906002020160009091909190915060008201518160000160006101000a81548173ffffffffffffffffffffffffffffffffffffffff021916908373ffffffffffffffffffffffffffffffffffffffff160217905550602082015181600101555050600160086000600954815260200190815260200160002060003373ffffffffffffffffffffffffffffffffffffffff1673ffffffffffffffffffffffffffffffffffffffff16815260200190815260200160002060006101000a81548160ff0219169083151502179055505b50505050565b6000600d60009054906101000a900473ffffffffffffffffffffffffffffffffffffffff1673ffffffffffffffffffffffffffffffffffffffff1663b4ace1586040518163ffffffff1660e01b8152600401602060405180830381865afa15801561242d573d6000803e3d6000fd5b505050506040513d601f19601f820116820180604052508101906124519190614993565b905090565b600d60009054906101000a900473ffffffffffffffffffffffffffffffffffffffff1673ffffffffffffffffffffffffffffffffffffffff1663016fc9d782336040518363ffffffff1660e01b81526004016124b3929190614ab9565b600060405180830381600087803b1580156124cd57600080fd5b505af11580156124e1573d6000803e3d6000fd5b5050505050565b606060008060008080600080600d60009054906101000a900473ffffffffffffffffffffffffffffffffffffffff1673ffffffffffffffffffffffffffffffffffffffff1663b4ace1586040518163ffffffff1660e01b8152600401602060405180830381865afa158015612561573d6000803e3d6000fd5b505050506040513d601f19601f820116820180604052508101906125859190614993565b90506000600360008c815260200190815260200160002054905060008167ffffffffffffffff8111156125bb576125ba613fac565b5b6040519080825280602002602001820160405280156125f457816020015b6125e1613872565b8152602001906001900390816125d95790505b50905060008267ffffffffffffffff81111561261357612612613fac565b5b60405190808252806020026020018201604052801561264c57816020015b6126396137a1565b8152602001906001900390816126315790505b50905060008367ffffffffffffffff81111561266b5761266a613fac565b5b6040519080825280602002602001820160405280156126a457816020015b6126916138a2565b8152602001906001900390816126895790505b50905060005b8d518110156127685760008e82815181106126c8576126c76148ae565b5b6020026020010151905060005b8160200151811015612753576040518060400160405280836000015173ffffffffffffffffffffffffffffffffffffffff1681526020018360400151815250868a81518110612727576127266148ae565b5b6020026020010181905250888061273d9061490c565b995050808061274b9061490c565b9150506126d5565b505080806127609061490c565b9150506126aa565b5060005b848110156128945760019b5060005b858110156127f557848181518110612796576127956148ae565b5b6020026020010151602001518583815181106127b5576127b46148ae565b5b60200260200101516020015110156127e2578c806127d29061490c565b9d50508b8d11156127e1578c9b505b5b80806127ed9061490c565b91505061277b565b506040518060600160405280858381518110612814576128136148ae565b5b60200260200101516000015173ffffffffffffffffffffffffffffffffffffffff16815260200185838151811061284e5761284d6148ae565b5b60200260200101516020015181526020018d815250838281518110612876576128756148ae565b5b6020026020010181905250808061288c9061490c565b91505061276c565b50600095506000600190505b8a81116129d25760005b858110156129be57818482815181106128c6576128c56148ae565b5b602002602001015160400151036129ab576040518060e001604052808583815181106128f5576128f46148ae565b5b60200260200101516000015173ffffffffffffffffffffffffffffffffffffffff16815260200185838151811061292f5761292e6148ae565b5b6020026020010151602001518152602001858381518110612953576129526148ae565b5b60200260200101516040015181526020016000815260200160008152602001600081526020016000815250838981518110612991576129906148ae565b5b602002602001018190525087806129a79061490c565b9850505b80806129b69061490c565b9150506128aa565b5080806129ca9061490c565b9150506128a0565b506064600a548a876129e49190614ae2565b6129ee9190614ef9565b6129f89190614f82565b96508689612a0691906149c0565b98508681600081518110612a1d57612a1c6148ae565b5b602002602001015160600181815250508681600081518110612a4257612a416148ae565b5b602002602001015160800181815250508681600081518110612a6757612a666148ae565b5b602002602001015160a00181815250508681600081518110612a8c57612a8b6148ae565b5b602002602001015160c00181815250506000600190505b84811015612ed4576064600a548b88612abc9190614ae2565b612ac69190614ef9565b612ad09190614f82565b975087828281518110612ae657612ae56148ae565b5b60200260200101516060018181525050878a612b0291906149c0565b995089828281518110612b1857612b176148ae565b5b60200260200101516080018181525050600185612b359190614ae2565b8114612d1b5781600182612b499190614ae2565b81518110612b5a57612b596148ae565b5b602002602001015160400151828281518110612b7957612b786148ae565b5b60200260200101516040015103612be8578782600183612b999190614ae2565b81518110612baa57612ba96148ae565b5b602002602001015160a00151612bc091906149c0565b828281518110612bd357612bd26148ae565b5b602002602001015160a0018181525050612d16565b87828281518110612bfc57612bfb6148ae565b5b602002602001015160a001818152505087828281518110612c2057612c1f6148ae565b5b602002602001015160c001818152505081600182612c3e9190614ae2565b81518110612c4f57612c4e6148ae565b5b602002602001015160400151828281518110612c6e57612c6d6148ae565b5b602002602001015160400151612c849190614ae2565b985060005b89811015612d14578983600184612ca09190614ae2565b81518110612cb157612cb06148ae565b5b602002602001015160a00151612cc79190614f82565b83600183612cd591906149c0565b84612ce09190614ae2565b81518110612cf157612cf06148ae565b5b602002602001015160c00181815250508080612d0c9061490c565b915050612c89565b505b612ec1565b81600182612d299190614ae2565b81518110612d3a57612d396148ae565b5b602002602001015160400151828281518110612d5957612d586148ae565b5b60200260200101516040015103612e77578782600183612d799190614ae2565b81518110612d8a57612d896148ae565b5b602002602001015160a00151612da091906149c0565b828281518110612db357612db26148ae565b5b602002602001015160a0018181525050818181518110612dd657612dd56148ae565b5b602002602001015160400151600186612def91906149c0565b612df99190614ae2565b985060005b89811015612e715789838381518110612e1a57612e196148ae565b5b602002602001015160a00151612e309190614f82565b838284612e3d9190614ae2565b81518110612e4e57612e4d6148ae565b5b602002602001015160c00181815250508080612e699061490c565b915050612dfe565b50612ec0565b87828281518110612e8b57612e8a6148ae565b5b602002602001015160a001818152505087828281518110612eaf57612eae6148ae565b5b602002602001015160c00181815250505b5b8080612ecc9061490c565b915050612aa3565b50809b50505050505050505050505092915050565b6000806000600460008673ffffffffffffffffffffffffffffffffffffffff1673ffffffffffffffffffffffffffffffffffffffff16815260200190815260200160002060008563ffffffff1663ffffffff168152602001908152602001600020600280602002604051908101604052809291908260028015612fa7576020028201916000905b82829054906101000a900460ff1660ff1681526020019060010190602082600001049283019260010382029150808411612f705790505b5050505050905080600060028110612fc257612fc16148ae565b5b602002015181600160028110612fdb57612fda6148ae565b5b602002015192509250509250929050565b60606000612ff983610904565b90506000808267ffffffffffffffff81111561301857613017613fac565b5b6040519080825280602002602001820160405280156130465781602001602082028036833780820191505090505b50905060005b600560008781526020019081526020016000208054905081101561327157600c60009054906101000a900473ffffffffffffffffffffffffffffffffffffffff1673ffffffffffffffffffffffffffffffffffffffff1663f02e41a36005600089815260200190815260200160002083815481106130cd576130cc6148ae565b5b90600052602060002001546040518263ffffffff1660e01b81526004016130f49190614963565b602060405180830381865afa158015613111573d6000803e3d6000fd5b505050506040513d601f19601f820116820180604052508101906131359190614993565b935060005b8481101561325d57600c60009054906101000a900473ffffffffffffffffffffffffffffffffffffffff1673ffffffffffffffffffffffffffffffffffffffff1663ab2fb9a9600560008a815260200190815260200160002084815481106131a5576131a46148ae565b5b9060005260206000200154836040518363ffffffff1660e01b81526004016131ce929190614fb3565b602060405180830381865afa1580156131eb573d6000803e3d6000fd5b505050506040513d601f19601f8201168201806040525081019061320f9190614ff1565b838581518110613222576132216148ae565b5b602002602001019063ffffffff16908163ffffffff168152505083806132479061490c565b94505080806132559061490c565b91505061313a565b5080806132699061490c565b91505061304c565b50809350505050919050565b61328561349b565b600073ffffffffffffffffffffffffffffffffffffffff168173ffffffffffffffffffffffffffffffffffffffff16036132f4576040517f08c379a00000000000000000000000000000000000000000000000000000000081526004016132eb90615090565b60405180910390fd5b6132fd8161357b565b50565b6000808260ff168460ff16111561331a5760009050613337565b8360ff168360ff1611156133315760029050613336565b600190505b5b8091505092915050565b6000600954905090565b6000806000806000905060008061336188610904565b905060008167ffffffffffffffff81111561337f5761337e613fac565b5b6040519080825280602002602001820160405280156133ad5781602001602082028036833780820191505090505b5090506133b989612fec565b905060005b8281101561348b578181815181106133d9576133d86148ae565b5b602002602001015193506000806133f08c87611a2f565b915091506000806134018d89612ee9565b9150915061340f8282613300565b9a5061341b8484613300565b9950898b148015613430575060ff8460ff1614155b156134745760018961344291906149c0565b98508360ff168260ff1614801561345e57508260ff168160ff16145b156134735760028961347091906149c0565b98505b5b5050505080806134839061490c565b9150506133be565b5083965050505050505092915050565b6134a36136a2565b73ffffffffffffffffffffffffffffffffffffffff166134c1611e19565b73ffffffffffffffffffffffffffffffffffffffff1614613517576040517f08c379a000000000000000000000000000000000000000000000000000000000815260040161350e906150fc565b60405180910390fd5b565b6135216136aa565b60008060146101000a81548160ff0219169083151502179055507f5db9ee0a495bf2e6ff9c91a7834c1ba4fdd244a5e8aa4e537bd38aeae4b073aa6135646136a2565b60405161357191906142bf565b60405180910390a1565b60008060009054906101000a900473ffffffffffffffffffffffffffffffffffffffff169050816000806101000a81548173ffffffffffffffffffffffffffffffffffffffff021916908373ffffffffffffffffffffffffffffffffffffffff1602179055508173ffffffffffffffffffffffffffffffffffffffff168173ffffffffffffffffffffffffffffffffffffffff167f8be0079c531659141344cd1fd0a4f28419497f9722a3daafe3b4186f6b6457e060405160405180910390a35050565b6136476136f3565b6001600060146101000a81548160ff0219169083151502179055507f62e78cea01bee320cd4e420270b5ea74000d11b0c9f74754ebdbfc544b05a25861368b6136a2565b60405161369891906142bf565b60405180910390a1565b600033905090565b6136b2611875565b6136f1576040517f08c379a00000000000000000000000000000000000000000000000000000000081526004016136e890615168565b60405180910390fd5b565b6136fb611875565b1561373b576040517f08c379a0000000000000000000000000000000000000000000000000000000008152600401613732906151d4565b60405180910390fd5b565b6040518060600160405280600063ffffffff168152602001600060ff168152602001600060ff1681525090565b6040518060600160405280600073ffffffffffffffffffffffffffffffffffffffff16815260200160008152602001600081525090565b6040518060600160405280600073ffffffffffffffffffffffffffffffffffffffff16815260200160008152602001600081525090565b826002601f016020900481019282156138615791602002820160005b8382111561383257835183826101000a81548160ff021916908360ff16021790555092602001926001016020816000010492830192600103026137f4565b801561385f5782816101000a81549060ff0219169055600101602081600001049283019260010302613832565b505b50905061386e91906138f5565b5090565b6040518060400160405280600073ffffffffffffffffffffffffffffffffffffffff168152602001600081525090565b6040518060e00160405280600073ffffffffffffffffffffffffffffffffffffffff1681526020016000815260200160008152602001600081526020016000815260200160008152602001600081525090565b5b8082111561390e5760008160009055506001016138f6565b5090565b6000819050919050565b61392581613912565b82525050565b6000602082019050613940600083018461391c565b92915050565b6000604051905090565b600080fd5b600080fd5b61396381613912565b811461396e57600080fd5b50565b6000813590506139808161395a565b92915050565b600073ffffffffffffffffffffffffffffffffffffffff82169050919050565b60006139b182613986565b9050919050565b6139c1816139a6565b81146139cc57600080fd5b50565b6000813590506139de816139b8565b92915050565b600080604083850312156139fb576139fa613950565b5b6000613a0985828601613971565b9250506020613a1a858286016139cf565b9150509250929050565b600081519050919050565b600082825260208201905092915050565b6000819050602082019050919050565b600063ffffffff82169050919050565b613a6981613a50565b82525050565b600060ff82169050919050565b613a8581613a6f565b82525050565b606082016000820151613aa16000850182613a60565b506020820151613ab46020850182613a7c565b506040820151613ac76040850182613a7c565b50505050565b6000613ad98383613a8b565b60608301905092915050565b6000602082019050919050565b6000613afd82613a24565b613b078185613a2f565b9350613b1283613a40565b8060005b83811015613b43578151613b2a8882613acd565b9750613b3583613ae5565b925050600181019050613b16565b5085935050505092915050565b60006020820190508181036000830152613b6a8184613af2565b905092915050565b600060208284031215613b8857613b87613950565b5b6000613b9684828501613971565b91505092915050565b600081519050919050565b600082825260208201905092915050565b6000819050602082019050919050565b613bd4816139a6565b82525050565b613be381613912565b82525050565b60a082016000820151613bff6000850182613bcb565b506020820151613c126020850182613bda565b506040820151613c256040850182613bda565b506060820151613c386060850182613bda565b506080820151613c4b6080850182613bda565b50505050565b6000613c5d8383613be9565b60a08301905092915050565b6000602082019050919050565b6000613c8182613b9f565b613c8b8185613baa565b9350613c9683613bbb565b8060005b83811015613cc7578151613cae8882613c51565b9750613cb983613c69565b925050600181019050613c9a565b5085935050505092915050565b60006020820190508181036000830152613cee8184613c76565b905092915050565b600081519050919050565b600082825260208201905092915050565b6000819050602082019050919050565b606082016000820151613d386000850182613bcb565b506020820151613d4b6020850182613bda565b506040820151613d5e6040850182613bda565b50505050565b6000613d708383613d22565b60608301905092915050565b6000602082019050919050565b6000613d9482613cf6565b613d9e8185613d01565b9350613da983613d12565b8060005b83811015613dda578151613dc18882613d64565b9750613dcc83613d7c565b925050600181019050613dad565b5085935050505092915050565b60006020820190508181036000830152613e018184613d89565b905092915050565b60008060408385031215613e2057613e1f613950565b5b6000613e2e85828601613971565b9250506020613e3f85828601613971565b9150509250929050565b600081519050919050565b600082825260208201905092915050565b6000819050602082019050919050565b6000819050919050565b613e8881613e75565b82525050565b6000613e9a8383613e7f565b60208301905092915050565b6000602082019050919050565b6000613ebe82613e49565b613ec88185613e54565b9350613ed383613e65565b8060005b83811015613f04578151613eeb8882613e8e565b9750613ef683613ea6565b925050600181019050613ed7565b5085935050505092915050565b60006020820190508181036000830152613f2b8184613eb3565b905092915050565b600060208284031215613f4957613f48613950565b5b6000613f57848285016139cf565b91505092915050565b60008115159050919050565b613f7581613f60565b82525050565b6000602082019050613f906000830184613f6c565b92915050565b600080fd5b6000601f19601f8301169050919050565b7f4e487b7100000000000000000000000000000000000000000000000000000000600052604160045260246000fd5b613fe482613f9b565b810181811067ffffffffffffffff8211171561400357614002613fac565b5b80604052505050565b6000614016613946565b90506140228282613fdb565b919050565b600067ffffffffffffffff82111561404257614041613fac565b5b602082029050602081019050919050565b600080fd5b600061406b61406684614027565b61400c565b9050808382526020820190506020840283018581111561408e5761408d614053565b5b835b818110156140b757806140a38882613971565b845260208401935050602081019050614090565b5050509392505050565b600082601f8301126140d6576140d5613f96565b5b81356140e6848260208601614058565b91505092915050565b60008060006060848603121561410857614107613950565b5b600061411686828701613971565b935050602061412786828701613971565b925050604084013567ffffffffffffffff81111561414857614147613955565b5b614154868287016140c1565b9150509250925092565b61416781613a50565b811461417257600080fd5b50565b6000813590506141848161415e565b92915050565b600080604083850312156141a1576141a0613950565b5b60006141af85828601613971565b92505060206141c085828601614175565b9150509250929050565b6141d381613a6f565b82525050565b60006040820190506141ee60008301856141ca565b6141fb60208301846141ca565b9392505050565b61420b816139a6565b82525050565b60006040820190506142266000830185614202565b614233602083018461391c565b9392505050565b6000806040838503121561425157614250613950565b5b600061425f85828601613971565b925050602083013567ffffffffffffffff8111156142805761427f613955565b5b61428c858286016140c1565b9150509250929050565b60006040820190506142ab600083018561391c565b6142b8602083018461391c565b9392505050565b60006020820190506142d46000830184614202565b92915050565b600067ffffffffffffffff8211156142f5576142f4613fac565b5b602082029050602081019050919050565b600080fd5b61431481613a6f565b811461431f57600080fd5b50565b6000813590506143318161430b565b92915050565b60006060828403121561434d5761434c614306565b5b614357606061400c565b9050600061436784828501614175565b600083015250602061437b84828501614322565b602083015250604061438f84828501614322565b60408301525092915050565b60006143ae6143a9846142da565b61400c565b905080838252602082019050606084028301858111156143d1576143d0614053565b5b835b818110156143fa57806143e68882614337565b8452602084019350506060810190506143d3565b5050509392505050565b600082601f83011261441957614418613f96565b5b813561442984826020860161439b565b91505092915050565b60006020828403121561444857614447613950565b5b600082013567ffffffffffffffff81111561446657614465613955565b5b61447284828501614404565b91505092915050565b600067ffffffffffffffff82111561449657614495613fac565b5b602082029050602081019050919050565b6000606082840312156144bd576144bc614306565b5b6144c7606061400c565b905060006144d7848285016139cf565b60008301525060206144eb84828501613971565b60208301525060406144ff84828501613971565b60408301525092915050565b600061451e6145198461447b565b61400c565b9050808382526020820190506060840283018581111561454157614540614053565b5b835b8181101561456a578061455688826144a7565b845260208401935050606081019050614543565b5050509392505050565b600082601f83011261458957614588613f96565b5b813561459984826020860161450b565b91505092915050565b600080604083850312156145b9576145b8613950565b5b60006145c785828601613971565b925050602083013567ffffffffffffffff8111156145e8576145e7613955565b5b6145f485828601614574565b9150509250929050565b600081519050919050565b600082825260208201905092915050565b6000819050602082019050919050565b60e0820160008201516146406000850182613bcb565b5060208201516146536020850182613bda565b5060408201516146666040850182613bda565b5060608201516146796060850182613bda565b50608082015161468c6080850182613bda565b5060a082015161469f60a0850182613bda565b5060c08201516146b260c0850182613bda565b50505050565b60006146c4838361462a565b60e08301905092915050565b6000602082019050919050565b60006146e8826145fe565b6146f28185614609565b93506146fd8361461a565b8060005b8381101561472e57815161471588826146b8565b9750614720836146d0565b925050600181019050614701565b5085935050505092915050565b6000602082019050818103600083015261475581846146dd565b905092915050565b6000806040838503121561477457614773613950565b5b6000614782858286016139cf565b925050602061479385828601614175565b9150509250929050565b600081519050919050565b600082825260208201905092915050565b6000819050602082019050919050565b60006147d58383613a60565b60208301905092915050565b6000602082019050919050565b60006147f98261479d565b61480381856147a8565b935061480e836147b9565b8060005b8381101561483f57815161482688826147c9565b9750614831836147e1565b925050600181019050614812565b5085935050505092915050565b6000602082019050818103600083015261486681846147ee565b905092915050565b6000806040838503121561488557614884613950565b5b600061489385828601614322565b92505060206148a485828601614322565b9150509250929050565b7f4e487b7100000000000000000000000000000000000000000000000000000000600052603260045260246000fd5b7f4e487b7100000000000000000000000000000000000000000000000000000000600052601160045260246000fd5b600061491782613912565b91507fffffffffffffffffffffffffffffffffffffffffffffffffffffffffffffffff8203614949576149486148dd565b5b600182019050919050565b61495d81613e75565b82525050565b60006020820190506149786000830184614954565b92915050565b60008151905061498d8161395a565b92915050565b6000602082840312156149a9576149a8613950565b5b60006149b78482850161497e565b91505092915050565b60006149cb82613912565b91506149d683613912565b9250827fffffffffffffffffffffffffffffffffffffffffffffffffffffffffffffffff03821115614a0b57614a0a6148dd565b5b828201905092915050565b600082825260208201905092915050565b7f596f752063616e6e6f7420776974686472617720756e74696c2074686520656e60008201527f64206f662074686520636f6e7465737421000000000000000000000000000000602082015250565b6000614a83603183614a16565b9150614a8e82614a27565b604082019050919050565b60006020820190508181036000830152614ab281614a76565b9050919050565b6000604082019050614ace600083018561391c565b614adb6020830184614202565b9392505050565b6000614aed82613912565b9150614af883613912565b925082821015614b0b57614b0a6148dd565b5b828203905092915050565b6000819050919050565b6000819050919050565b6000614b45614b40614b3b84614b16565b614b20565b613912565b9050919050565b614b5581614b2a565b82525050565b6000606082019050614b706000830186614b4c565b614b7d602083018561391c565b614b8a604083018461391c565b949350505050565b614b9b81613e75565b8114614ba657600080fd5b50565b600081519050614bb881614b92565b92915050565b600060208284031215614bd457614bd3613950565b5b6000614be284828501614ba9565b91505092915050565b614bf481613a50565b82525050565b6000604082019050614c0f6000830185614954565b614c1c6020830184614beb565b9392505050565b600081519050614c328161430b565b92915050565b614c4181613f60565b8114614c4c57600080fd5b50565b600081519050614c5e81614c38565b92915050565b600080600060608486031215614c7d57614c7c613950565b5b6000614c8b86828701614c23565b9350506020614c9c86828701614c23565b9250506040614cad86828701614c4f565b9150509250925092565b6000819050919050565b6000614cdc614cd7614cd284614cb7565b614b20565b613912565b9050919050565b614cec81614cc1565b82525050565b6000606082019050614d076000830186614ce3565b614d14602083018561391c565b614d21604083018461391c565b949350505050565b60008060408385031215614d4057614d3f613950565b5b6000614d4e8582860161497e565b9250506020614d5f8582860161497e565b9150509250929050565b7f596f75206e6565642061207469636b657420666f7220736176696e672070726560008201527f64696374696f6e73210000000000000000000000000000000000000000000000602082015250565b6000614dc5602983614a16565b9150614dd082614d69565b604082019050919050565b60006020820190508181036000830152614df481614db8565b9050919050565b7f50726564696374696f6e20506572696f6420697320636c6f7365642100000000600082015250565b6000614e31601c83614a16565b9150614e3c82614dfb565b602082019050919050565b60006020820190508181036000830152614e6081614e24565b9050919050565b7f546865206e756d626572206f662070726564696374696f6e7320646f65736e2760008201527f74206d6174636821000000000000000000000000000000000000000000000000602082015250565b6000614ec3602883614a16565b9150614ece82614e67565b604082019050919050565b60006020820190508181036000830152614ef281614eb6565b9050919050565b6000614f0482613912565b9150614f0f83613912565b9250817fffffffffffffffffffffffffffffffffffffffffffffffffffffffffffffffff0483118215151615614f4857614f476148dd565b5b828202905092915050565b7f4e487b7100000000000000000000000000000000000000000000000000000000600052601260045260246000fd5b6000614f8d82613912565b9150614f9883613912565b925082614fa857614fa7614f53565b5b828204905092915050565b6000604082019050614fc86000830185614954565b614fd5602083018461391c565b9392505050565b600081519050614feb8161415e565b92915050565b60006020828403121561500757615006613950565b5b600061501584828501614fdc565b91505092915050565b7f4f776e61626c653a206e6577206f776e657220697320746865207a65726f206160008201527f6464726573730000000000000000000000000000000000000000000000000000602082015250565b600061507a602683614a16565b91506150858261501e565b604082019050919050565b600060208201905081810360008301526150a98161506d565b9050919050565b7f4f776e61626c653a2063616c6c6572206973206e6f7420746865206f776e6572600082015250565b60006150e6602083614a16565b91506150f1826150b0565b602082019050919050565b60006020820190508181036000830152615115816150d9565b9050919050565b7f5061757361626c653a206e6f7420706175736564000000000000000000000000600082015250565b6000615152601483614a16565b915061515d8261511c565b602082019050919050565b6000602082019050818103600083015261518181615145565b9050919050565b7f5061757361626c653a2070617573656400000000000000000000000000000000600082015250565b60006151be601083614a16565b91506151c982615188565b602082019050919050565b600060208201905081810360008301526151ed816151b1565b905091905056fea2646970667358221220695a5d08aeabbb9fff72bdfc25c1222fb3d569796acd67d17b54af150da83ae564736f6c634300080f0033",
  "linkReferences": {},
  "deployedLinkReferences": {}
}