{
  "_format": "hh-sol-artifact-1",
  "contractName": "InterpoolContract",
  "sourceName": "contracts/InterpoolContract.sol",
  "abi": [
    {
      "inputs": [],
      "stateMutability": "nonpayable",
      "type": "constructor"
    },
    {
      "anonymous": false,
      "inputs": [
        {
          "indexed": true,
          "internalType": "address",
          "name": "previousOwner",
          "type": "address"
        },
        {
          "indexed": true,
          "internalType": "address",
          "name": "newOwner",
          "type": "address"
        }
      ],
      "name": "OwnershipTransferred",
      "type": "event"
    },
    {
      "anonymous": false,
      "inputs": [
        {
          "indexed": false,
          "internalType": "address",
          "name": "account",
          "type": "address"
        }
      ],
      "name": "Paused",
      "type": "event"
    },
    {
      "anonymous": false,
      "inputs": [
        {
          "indexed": false,
          "internalType": "address",
          "name": "account",
          "type": "address"
        }
      ],
      "name": "Unpaused",
      "type": "event"
    },
    {
      "inputs": [],
      "name": "claimFromPool",
      "outputs": [],
      "stateMutability": "nonpayable",
      "type": "function"
    },
    {
      "inputs": [
        {
          "internalType": "uint256",
          "name": "_leagueId",
          "type": "uint256"
        },
        {
          "internalType": "string[]",
          "name": "_listRequestId",
          "type": "string[]"
        },
        {
          "internalType": "uint256",
          "name": "_dateEndContest",
          "type": "uint256"
        }
      ],
      "name": "createContest",
      "outputs": [],
      "stateMutability": "nonpayable",
      "type": "function"
    },
    {
      "inputs": [
        {
          "internalType": "uint256",
          "name": "_amount",
          "type": "uint256"
        }
      ],
      "name": "depositOnAave",
      "outputs": [],
      "stateMutability": "nonpayable",
      "type": "function"
    },
    {
      "inputs": [],
      "name": "getContestPredictionEndDate",
      "outputs": [
        {
          "internalType": "uint256",
          "name": "",
          "type": "uint256"
        }
      ],
      "stateMutability": "view",
      "type": "function"
    },
    {
      "inputs": [
        {
          "internalType": "uint256",
          "name": "_contestId",
          "type": "uint256"
        }
      ],
      "name": "getContestTable",
      "outputs": [
        {
          "components": [
            {
              "internalType": "address",
              "name": "player",
              "type": "address"
            },
            {
              "internalType": "uint256",
              "name": "nbTickets",
              "type": "uint256"
            },
            {
              "internalType": "uint256",
              "name": "score",
              "type": "uint256"
            },
            {
              "internalType": "uint256",
              "name": "rankExAequo",
              "type": "uint256"
            },
            {
              "internalType": "uint256",
              "name": "rewardPerRankPerPlayer",
              "type": "uint256"
            }
          ],
          "internalType": "struct InterpoolContract.ContestResult[]",
          "name": "",
          "type": "tuple[]"
        }
      ],
      "stateMutability": "view",
      "type": "function"
    },
    {
      "inputs": [],
      "name": "getCurrentContestId",
      "outputs": [
        {
          "internalType": "uint256",
          "name": "",
          "type": "uint256"
        }
      ],
      "stateMutability": "view",
      "type": "function"
    },
    {
      "inputs": [],
      "name": "getGlobalPrizePool",
      "outputs": [
        {
          "internalType": "uint256",
          "name": "",
          "type": "uint256"
        }
      ],
      "stateMutability": "view",
      "type": "function"
    },
    {
      "inputs": [
        {
          "internalType": "uint256",
          "name": "_contestId",
          "type": "uint256"
        }
      ],
      "name": "getListGamesPerContest",
      "outputs": [
        {
          "components": [
            {
              "internalType": "uint32",
              "name": "gameId",
              "type": "uint32"
            },
            {
              "internalType": "string",
              "name": "homeTeam",
              "type": "string"
            },
            {
              "internalType": "string",
              "name": "awayTeam",
              "type": "string"
            }
          ],
          "internalType": "struct InterpoolContract.GameInfo[]",
          "name": "",
          "type": "tuple[]"
        }
      ],
      "stateMutability": "view",
      "type": "function"
    },
    {
      "inputs": [
        {
          "internalType": "uint256",
          "name": "_contestId",
          "type": "uint256"
        }
      ],
      "name": "getNumberOfPlayers",
      "outputs": [
        {
          "internalType": "uint256",
          "name": "",
          "type": "uint256"
        }
      ],
      "stateMutability": "view",
      "type": "function"
    },
    {
      "inputs": [
        {
          "internalType": "uint256",
          "name": "_contestId",
          "type": "uint256"
        },
        {
          "internalType": "address",
          "name": "_player",
          "type": "address"
        }
      ],
      "name": "getPlayerRank",
      "outputs": [
        {
          "internalType": "uint256",
          "name": "",
          "type": "uint256"
        }
      ],
      "stateMutability": "view",
      "type": "function"
    },
    {
      "inputs": [
        {
          "internalType": "uint256",
          "name": "_contestId",
          "type": "uint256"
        },
        {
          "internalType": "address",
          "name": "_player",
          "type": "address"
        }
      ],
      "name": "getPrevisionsPerPlayerPerContest",
      "outputs": [
        {
          "components": [
            {
              "internalType": "uint32",
              "name": "gameId",
              "type": "uint32"
            },
            {
              "internalType": "uint8",
              "name": "homeScore",
              "type": "uint8"
            },
            {
              "internalType": "uint8",
              "name": "awayScore",
              "type": "uint8"
            }
          ],
          "internalType": "struct InterpoolContract.GamePredict[]",
          "name": "",
          "type": "tuple[]"
        }
      ],
      "stateMutability": "view",
      "type": "function"
    },
    {
      "inputs": [
        {
          "internalType": "uint256",
          "name": "_contestId",
          "type": "uint256"
        }
      ],
      "name": "getScoreTable",
      "outputs": [
        {
          "components": [
            {
              "internalType": "address",
              "name": "player",
              "type": "address"
            },
            {
              "internalType": "uint256",
              "name": "nbTickets",
              "type": "uint256"
            },
            {
              "internalType": "uint256",
              "name": "score",
              "type": "uint256"
            }
          ],
          "internalType": "struct InterpoolContract.PlayerScoreTicket[]",
          "name": "",
          "type": "tuple[]"
        }
      ],
      "stateMutability": "view",
      "type": "function"
    },
    {
      "inputs": [
        {
          "internalType": "address",
          "name": "_player",
          "type": "address"
        }
      ],
      "name": "getWinningsPerPlayer",
      "outputs": [
        {
          "components": [
            {
              "internalType": "uint256",
              "name": "pendingWinnings",
              "type": "uint256"
            },
            {
              "internalType": "uint256",
              "name": "claimedWinnings",
              "type": "uint256"
            }
          ],
          "internalType": "struct IpPool.Winnings",
          "name": "",
          "type": "tuple"
        }
      ],
      "stateMutability": "view",
      "type": "function"
    },
    {
      "inputs": [],
      "name": "globalPendingWinnings",
      "outputs": [
        {
          "internalType": "uint256",
          "name": "",
          "type": "uint256"
        }
      ],
      "stateMutability": "view",
      "type": "function"
    },
    {
      "inputs": [],
      "name": "owner",
      "outputs": [
        {
          "internalType": "address",
          "name": "",
          "type": "address"
        }
      ],
      "stateMutability": "view",
      "type": "function"
    },
    {
      "inputs": [],
      "name": "pause",
      "outputs": [],
      "stateMutability": "nonpayable",
      "type": "function"
    },
    {
      "inputs": [],
      "name": "paused",
      "outputs": [
        {
          "internalType": "bool",
          "name": "",
          "type": "bool"
        }
      ],
      "stateMutability": "view",
      "type": "function"
    },
    {
      "inputs": [],
      "name": "renounceOwnership",
      "outputs": [],
      "stateMutability": "nonpayable",
      "type": "function"
    },
    {
      "inputs": [
        {
          "components": [
            {
              "internalType": "uint32",
              "name": "gameId",
              "type": "uint32"
            },
            {
              "internalType": "uint8",
              "name": "homeScore",
              "type": "uint8"
            },
            {
              "internalType": "uint8",
              "name": "awayScore",
              "type": "uint8"
            }
          ],
          "internalType": "struct InterpoolContract.GamePredict[]",
          "name": "_gamePredictions",
          "type": "tuple[]"
        }
      ],
      "name": "savePrediction",
      "outputs": [],
      "stateMutability": "nonpayable",
      "type": "function"
    },
    {
      "inputs": [
        {
          "internalType": "address",
          "name": "newOwner",
          "type": "address"
        }
      ],
      "name": "transferOwnership",
      "outputs": [],
      "stateMutability": "nonpayable",
      "type": "function"
    },
    {
      "inputs": [],
      "name": "unpause",
      "outputs": [],
      "stateMutability": "nonpayable",
      "type": "function"
    },
    {
      "inputs": [
        {
          "internalType": "uint256",
          "name": "_contestId",
          "type": "uint256"
        }
      ],
      "name": "updateContestTable",
      "outputs": [],
      "stateMutability": "nonpayable",
      "type": "function"
    },
    {
      "inputs": [
        {
          "internalType": "uint256",
          "name": "_nbTickets",
          "type": "uint256"
        }
      ],
      "name": "withdraw",
      "outputs": [],
      "stateMutability": "nonpayable",
      "type": "function"
    }
  ],
  "bytecode": "0x60806040523480156200001157600080fd5b5062000032620000266200021360201b60201c565b6200021b60201b60201c565b60008060146101000a81548160ff02191690831515021790555073a2025b15a1757311bfd68cb14eaefcc237af5b43600360006101000a81548173ffffffffffffffffffffffffffffffffffffffff021916908373ffffffffffffffffffffffffffffffffffffffff16021790555073368eedf3f56ad10b9bc57eed4dac65b26bb667f6600660006101000a81548173ffffffffffffffffffffffffffffffffffffffff021916908373ffffffffffffffffffffffffffffffffffffffff160217905550731ee669290939f8a8864497af3bc83728715265ff600460006101000a81548173ffffffffffffffffffffffffffffffffffffffff021916908373ffffffffffffffffffffffffffffffffffffffff16021790555073d81e4a61fd6bf066539df6ea48bfaeae847dcda1600560006101000a81548173ffffffffffffffffffffffffffffffffffffffff021916908373ffffffffffffffffffffffffffffffffffffffff160217905550600060028190555073973680af677b40128b8c4015e2ef4c0d889ed7b0601060006101000a81548173ffffffffffffffffffffffffffffffffffffffff021916908373ffffffffffffffffffffffffffffffffffffffff1602179055506005600f819055506000600e81905550620002df565b600033905090565b60008060009054906101000a900473ffffffffffffffffffffffffffffffffffffffff169050816000806101000a81548173ffffffffffffffffffffffffffffffffffffffff021916908373ffffffffffffffffffffffffffffffffffffffff1602179055508173ffffffffffffffffffffffffffffffffffffffff168173ffffffffffffffffffffffffffffffffffffffff167f8be0079c531659141344cd1fd0a4f28419497f9722a3daafe3b4186f6b6457e060405160405180910390a35050565b6157d380620002ef6000396000f3fe608060405234801561001057600080fd5b506004361061014d5760003560e01c80637e5dd913116100c3578063b4ace1581161007c578063b4ace15814610366578063b66195b814610384578063d6221518146103b4578063f2fde38b146103d0578063fb46bd22146103ec578063fd8d19091461040a5761014d565b80637e5dd913146102b85780638456cb59146102e85780638ad2e864146102f25780638d44f13b146103225780638da5cb5b1461032c5780639fa75e9a1461034a5761014d565b80633f4ba83a116101155780633f4ba83a1461020857806341944175146102125780634fda591e146102305780635c975abb1461026057806362436d9d1461027e578063715018a6146102ae5761014d565b806308af2d7814610152578063117f39981461017057806318699547146101a05780632452a7e3146101bc5780632e1a7d4d146101ec575b600080fd5b61015a610426565b6040516101679190613c2b565b60405180910390f35b61018a60048036038101906101859190613ce4565b610446565b6040516101979190613e50565b60405180910390f35b6101ba60048036038101906101b5919061409e565b61069d565b005b6101d660048036038101906101d1919061410d565b610785565b6040516101e3919061426f565b60405180910390f35b6102066004803603810190610201919061410d565b610875565b005b610210610949565b005b61021a61095b565b6040516102279190613c2b565b60405180910390f35b61024a60048036038101906102459190613ce4565b610961565b6040516102579190613c2b565b60405180910390f35b610268610b93565b60405161027591906142ac565b60405180910390f35b6102986004803603810190610293919061410d565b610ba9565b6040516102a59190613c2b565b60405180910390f35b6102b6610bc9565b005b6102d260048036038101906102cd919061410d565b610bdd565b6040516102df9190614468565b60405180910390f35b6102f0610ec2565b005b61030c6004803603810190610307919061448a565b610ed4565b60405161031991906144e6565b60405180910390f35b61032a610f41565b005b61033461117d565b6040516103419190614510565b60405180910390f35b610364600480360381019061035f91906146af565b6111a6565b005b61036e611765565b60405161037b9190613c2b565b60405180910390f35b61039e6004803603810190610399919061410d565b6118d5565b6040516103ab91906147e9565b60405180910390f35b6103ce60048036038101906103c9919061410d565b611a6b565b005b6103ea60048036038101906103e5919061448a565b6120f3565b005b6103f4612176565b6040516104019190613c2b565b60405180910390f35b610424600480360381019061041f919061410d565b612180565b005b600060076000600e54815260200190815260200160002060010154905090565b6060600061045384612693565b90506000808267ffffffffffffffff81111561047257610471613e88565b5b6040519080825280602002602001820160405280156104ab57816020015b610498613ab3565b8152602001906001900390816104905790505b50905060008367ffffffffffffffff8111156104ca576104c9613e88565b5b60405190808252806020026020018201604052801561050357816020015b6104f0613ae0565b8152602001906001900390816104e85790505b50905061050f87610bdd565b905060005b8481101561068f5781818151811061052f5761052e61480b565b5b602002602001015160000151935060405180606001604052808563ffffffff168152602001600a60008a73ffffffffffffffffffffffffffffffffffffffff1673ffffffffffffffffffffffffffffffffffffffff16815260200190815260200160002060008b815260200190815260200160002060008763ffffffff1663ffffffff16815260200190815260200160002060000160009054906101000a900460ff1660ff168152602001600a60008a73ffffffffffffffffffffffffffffffffffffffff1673ffffffffffffffffffffffffffffffffffffffff16815260200190815260200160002060008b815260200190815260200160002060008763ffffffff1663ffffffff16815260200190815260200160002060000160019054906101000a900460ff1660ff168152508382815181106106715761067061480b565b5b6020026020010181905250808061068790614869565b915050610514565b508194505050505092915050565b6106a56127af565b600e60008154809291906106b890614869565b919050555060005b825181101561073e57600b6000600e5481526020019081526020016000208382815181106106f1576106f061480b565b5b602002602001015190806001815401808255809150506001900390600052602060002001600090919091909150908161072a9190614abd565b50808061073690614869565b9150506106c0565b5060405180604001604052808481526020018281525060076000600e5481526020019081526020016000206000820151816000015560208201518160010155905050505050565b6060600c6000838152602001908152602001600020805480602002602001604051908101604052809291908181526020016000905b8282101561086a57838290600052602060002090600502016040518060a00160405290816000820160009054906101000a900473ffffffffffffffffffffffffffffffffffffffff1673ffffffffffffffffffffffffffffffffffffffff1673ffffffffffffffffffffffffffffffffffffffff168152602001600182015481526020016002820154815260200160038201548152602001600482015481525050815260200190600101906107ba565b505050509050919050565b60001515600d6000600e54815260200190815260200160002060003373ffffffffffffffffffffffffffffffffffffffff1673ffffffffffffffffffffffffffffffffffffffff16815260200190815260200160002060009054906101000a900460ff16151514806108fe575060076000600e5481526020019081526020016000206001015442115b61093d576040517f08c379a000000000000000000000000000000000000000000000000000000000815260040161093490614c12565b60405180910390fd5b6109468161282d565b50565b6109516127af565b610959612a6a565b565b60025481565b60008061096d846118d5565b9050600080825190506000808267ffffffffffffffff81111561099357610992613e88565b5b6040519080825280602002602001820160405280156109cc57816020015b6109b9613b07565b8152602001906001900390816109b15790505b50905060005b83811015610aee576001945060005b84811015610a4f578681815181106109fc576109fb61480b565b5b602002602001015160400151878381518110610a1b57610a1a61480b565b5b6020026020010151604001511015610a3c578580610a3890614869565b9650505b8080610a4790614869565b9150506109e1565b506040518060600160405280878381518110610a6e57610a6d61480b565b5b60200260200101516000015173ffffffffffffffffffffffffffffffffffffffff168152602001878381518110610aa857610aa761480b565b5b602002602001015160400151815260200186815250828281518110610ad057610acf61480b565b5b60200260200101819052508080610ae690614869565b9150506109d2565b5060005b83811015610b8457818181518110610b0d57610b0c61480b565b5b60200260200101516000015173ffffffffffffffffffffffffffffffffffffffff168873ffffffffffffffffffffffffffffffffffffffff1603610b7157818181518110610b5e57610b5d61480b565b5b6020026020010151604001519250610b84565b8080610b7c90614869565b915050610af2565b50819550505050505092915050565b60008060149054906101000a900460ff16905090565b600060086000838152602001908152602001600020805490509050919050565b610bd16127af565b610bdb6000612acc565b565b60606000610bea83612693565b90506000808267ffffffffffffffff811115610c0957610c08613e88565b5b604051908082528060200260200182016040528015610c4257816020015b610c2f613ae0565b815260200190600190039081610c275790505b50905060005b600b600087815260200190815260200160002080549050811015610eb657601060009054906101000a900473ffffffffffffffffffffffffffffffffffffffff1673ffffffffffffffffffffffffffffffffffffffff1663ea6a0410600b60008981526020019081526020016000208381548110610cc957610cc861480b565b5b906000526020600020016040518263ffffffff1660e01b8152600401610cef9190614cb6565b602060405180830381865afa158015610d0c573d6000803e3d6000fd5b505050506040513d601f19601f82011682018060405250810190610d309190614ced565b935060005b84811015610ea257601060009054906101000a900473ffffffffffffffffffffffffffffffffffffffff1673ffffffffffffffffffffffffffffffffffffffff1663cdfba66a600b60008a81526020019081526020016000208481548110610da057610d9f61480b565b5b90600052602060002001836040518363ffffffff1660e01b8152600401610dc8929190614d1a565b600060405180830381865afa158015610de5573d6000803e3d6000fd5b505050506040513d6000823e3d601f19601f82011682018060405250810190610e0e9190614dcf565b858781518110610e2157610e2061480b565b5b6020026020010151600001868881518110610e3f57610e3e61480b565b5b6020026020010151602001878981518110610e5d57610e5c61480b565b5b60200260200101516040018390528390528363ffffffff1663ffffffff168152505050508380610e8c90614869565b9450508080610e9a90614869565b915050610d35565b508080610eae90614869565b915050610c48565b50809350505050919050565b610eca6127af565b610ed2612b90565b565b610edc613b3e565b600160008373ffffffffffffffffffffffffffffffffffffffff1673ffffffffffffffffffffffffffffffffffffffff168152602001908152602001600020604051806040016040529081600082015481526020016001820154815250509050919050565b6000600160003373ffffffffffffffffffffffffffffffffffffffff1673ffffffffffffffffffffffffffffffffffffffff1681526020019081526020016000206000015411610fc6576040517f08c379a0000000000000000000000000000000000000000000000000000000008152600401610fbd90614ea6565b60405180910390fd5b6000600160003373ffffffffffffffffffffffffffffffffffffffff1673ffffffffffffffffffffffffffffffffffffffff168152602001908152602001600020600001549050600660009054906101000a900473ffffffffffffffffffffffffffffffffffffffff1673ffffffffffffffffffffffffffffffffffffffff166369328dec600360009054906101000a900473ffffffffffffffffffffffffffffffffffffffff1683336040518463ffffffff1660e01b815260040161108e93929190614ec6565b600060405180830381600087803b1580156110a857600080fd5b505af11580156110bc573d6000803e3d6000fd5b505050506000600160003373ffffffffffffffffffffffffffffffffffffffff1673ffffffffffffffffffffffffffffffffffffffff1681526020019081526020016000206000018190555080600160003373ffffffffffffffffffffffffffffffffffffffff1673ffffffffffffffffffffffffffffffffffffffff168152602001908152602001600020600101600082825461115a9190614efd565b9250508190555080600260008282546111739190614f53565b9250508190555050565b60008060009054906101000a900473ffffffffffffffffffffffffffffffffffffffff16905090565b6000600560009054906101000a900473ffffffffffffffffffffffffffffffffffffffff1673ffffffffffffffffffffffffffffffffffffffff166370a08231336040518263ffffffff1660e01b81526004016112039190614510565b602060405180830381865afa158015611220573d6000803e3d6000fd5b505050506040513d601f19601f820116820180604052508101906112449190614ced565b11611284576040517f08c379a000000000000000000000000000000000000000000000000000000000815260040161127b90614ff9565b60405180910390fd5b60076000600e5481526020019081526020016000206001015442106112de576040517f08c379a00000000000000000000000000000000000000000000000000000000081526004016112d590615065565b60405180910390fd5b6112e9600e54612693565b81511461132b576040517f08c379a0000000000000000000000000000000000000000000000000000000008152600401611322906150f7565b60405180910390fd5b6000611338600e54612693565b90506000600560009054906101000a900473ffffffffffffffffffffffffffffffffffffffff1673ffffffffffffffffffffffffffffffffffffffff166370a08231336040518263ffffffff1660e01b81526004016113979190614510565b602060405180830381865afa1580156113b4573d6000803e3d6000fd5b505050506040513d601f19601f820116820180604052508101906113d89190614ced565b905060005b828110156115215760405180604001604052808583815181106114035761140261480b565b5b60200260200101516020015160ff16815260200185838151811061142a5761142961480b565b5b60200260200101516040015160ff16815250600a60003373ffffffffffffffffffffffffffffffffffffffff1673ffffffffffffffffffffffffffffffffffffffff1681526020019081526020016000206000600e54815260200190815260200160002060008684815181106114a3576114a261480b565b5b60200260200101516000015163ffffffff1663ffffffff16815260200190815260200160002060008201518160000160006101000a81548160ff021916908360ff16021790555060208201518160000160016101000a81548160ff021916908360ff160217905550905050808061151990614869565b9150506113dd565b50600080600090505b60086000600e5481526020019081526020016000208054905081101561162a5760086000600e54815260200190815260200160002081815481106115715761157061480b565b5b906000526020600020906002020160000160009054906101000a900473ffffffffffffffffffffffffffffffffffffffff1673ffffffffffffffffffffffffffffffffffffffff163373ffffffffffffffffffffffffffffffffffffffff1603611613578260086000600e54815260200190815260200160002082815481106115fd576115fc61480b565b5b9060005260206000209060020201600101819055505b60019150808061162290614869565b91505061152a565b5060001515811515036116f45760086000600e54815260200190815260200160002060405180604001604052803373ffffffffffffffffffffffffffffffffffffffff16815260200184815250908060018154018082558091505060019003906000526020600020906002020160009091909190915060008201518160000160006101000a81548173ffffffffffffffffffffffffffffffffffffffff021916908373ffffffffffffffffffffffffffffffffffffffff1602179055506020820151816001015550505b6001600d6000600e54815260200190815260200160002060003373ffffffffffffffffffffffffffffffffffffffff1673ffffffffffffffffffffffffffffffffffffffff16815260200190815260200160002060006101000a81548160ff02191690831515021790555050505050565b600080600460009054906101000a900473ffffffffffffffffffffffffffffffffffffffff1673ffffffffffffffffffffffffffffffffffffffff166370a08231306040518263ffffffff1660e01b81526004016117c39190614510565b602060405180830381865afa1580156117e0573d6000803e3d6000fd5b505050506040513d601f19601f820116820180604052508101906118049190614ced565b90506000620f42406032600560009054906101000a900473ffffffffffffffffffffffffffffffffffffffff1673ffffffffffffffffffffffffffffffffffffffff166318160ddd6040518163ffffffff1660e01b8152600401602060405180830381865afa15801561187b573d6000803e3d6000fd5b505050506040513d601f19601f8201168201806040525081019061189f9190614ced565b6118a99190615117565b6118b39190615117565b905060025481836118c49190614f53565b6118ce9190614f53565b9250505090565b606060006008600084815260200190815260200160002080549050905060008060008367ffffffffffffffff81111561191157611910613e88565b5b60405190808252806020026020018201604052801561194a57816020015b611937613b58565b81526020019060019003908161192f5790505b509050600080600090505b85811015611a5d576008600089815260200190815260200160002081815481106119825761198161480b565b5b906000526020600020906002020160000160009054906101000a900473ffffffffffffffffffffffffffffffffffffffff1694506008600089815260200190815260200160002081815481106119db576119da61480b565b5b90600052602060002090600202016001015493506119f98886612bf3565b915060405180606001604052808673ffffffffffffffffffffffffffffffffffffffff16815260200185815260200183815250838281518110611a3f57611a3e61480b565b5b60200260200101819052508080611a5590614869565b915050611955565b508195505050505050919050565b611a736127af565b600560009054906101000a900473ffffffffffffffffffffffffffffffffffffffff1673ffffffffffffffffffffffffffffffffffffffff166318160ddd6040518163ffffffff1660e01b8152600401602060405180830381865afa158015611ae0573d6000803e3d6000fd5b505050506040513d601f19601f82011682018060405250810190611b049190614ced565b60096000838152602001908152602001600020819055506000611b26826118d5565b90506000611b34838361305f565b90506000600c60008581526020019081526020016000206040518060a0016040528084600081518110611b6a57611b6961480b565b5b60200260200101516000015173ffffffffffffffffffffffffffffffffffffffff1681526020016001815260200184600081518110611bac57611bab61480b565b5b602002602001015160200151815260200184600081518110611bd157611bd061480b565b5b602002602001015160400151815260200184600081518110611bf657611bf561480b565b5b602002602001015160c00151815250908060018154018082558091505060019003906000526020600020906005020160009091909190915060008201518160000160006101000a81548173ffffffffffffffffffffffffffffffffffffffff021916908373ffffffffffffffffffffffffffffffffffffffff1602179055506020820151816001015560408201518160020155606082015181600301556080820151816004015550506000600190505b6009600086815260200190815260200160002054811015611f7d5782600182611ccf9190614f53565b81518110611ce057611cdf61480b565b5b60200260200101516000015173ffffffffffffffffffffffffffffffffffffffff16838281518110611d1557611d1461480b565b5b60200260200101516000015173ffffffffffffffffffffffffffffffffffffffff1603611df857600c60008681526020019081526020016000208281548110611d6157611d6061480b565b5b90600052602060002090600502016001016000815480929190611d8390614869565b9190505550828181518110611d9b57611d9a61480b565b5b602002602001015160c00151600c60008781526020019081526020016000208381548110611dcc57611dcb61480b565b5b90600052602060002090600502016004016000828254611dec9190614efd565b92505081905550611f6a565b600c60008681526020019081526020016000206040518060a00160405280858481518110611e2957611e2861480b565b5b60200260200101516000015173ffffffffffffffffffffffffffffffffffffffff16815260200160018152602001858481518110611e6a57611e6961480b565b5b6020026020010151602001518152602001858481518110611e8e57611e8d61480b565b5b6020026020010151604001518152602001858481518110611eb257611eb161480b565b5b602002602001015160c00151815250908060018154018082558091505060019003906000526020600020906005020160009091909190915060008201518160000160006101000a81548173ffffffffffffffffffffffffffffffffffffffff021916908373ffffffffffffffffffffffffffffffffffffffff1602179055506020820151816001015560408201518160020155606082015181600301556080820151816004015550508180611f6690614869565b9250505b8080611f7590614869565b915050611ca6565b5060005b600c6000868152602001908152602001600020805490508110156120ec576000600c60008781526020019081526020016000208281548110611fc657611fc561480b565b5b906000526020600020906005020160000160009054906101000a900473ffffffffffffffffffffffffffffffffffffffff169050600c6000878152602001908152602001600020828154811061201f5761201e61480b565b5b906000526020600020906005020160040154600160008373ffffffffffffffffffffffffffffffffffffffff1673ffffffffffffffffffffffffffffffffffffffff16815260200190815260200160002060000160008282546120829190614efd565b92505081905550600c600087815260200190815260200160002082815481106120ae576120ad61480b565b5b906000526020600020906005020160040154600260008282546120d19190614efd565b925050819055505080806120e490614869565b915050611f81565b5050505050565b6120fb6127af565b600073ffffffffffffffffffffffffffffffffffffffff168173ffffffffffffffffffffffffffffffffffffffff160361216a576040517f08c379a0000000000000000000000000000000000000000000000000000000008152600401612161906151e3565b60405180910390fd5b61217381612acc565b50565b6000600e54905090565b600060328261218f9190615232565b146121cf576040517f08c379a00000000000000000000000000000000000000000000000000000000081526004016121c6906152d5565b60405180910390fd5b600360009054906101000a900473ffffffffffffffffffffffffffffffffffffffff1673ffffffffffffffffffffffffffffffffffffffff166370a08231336040518263ffffffff1660e01b815260040161222a9190614510565b602060405180830381865afa158015612247573d6000803e3d6000fd5b505050506040513d601f19601f8201168201806040525081019061226b9190614ced565b620f42408261227a9190615117565b11156122bb576040517f08c379a00000000000000000000000000000000000000000000000000000000081526004016122b290615341565b60405180910390fd5b600360009054906101000a900473ffffffffffffffffffffffffffffffffffffffff1673ffffffffffffffffffffffffffffffffffffffff1663dd62ed3e33306040518363ffffffff1660e01b8152600401612318929190615361565b602060405180830381865afa158015612335573d6000803e3d6000fd5b505050506040513d601f19601f820116820180604052508101906123599190614ced565b620f4240826123689190615117565b11156123a9576040517f08c379a00000000000000000000000000000000000000000000000000000000081526004016123a0906153d6565b60405180910390fd5b60006032826123b891906153f6565b9050600360009054906101000a900473ffffffffffffffffffffffffffffffffffffffff1673ffffffffffffffffffffffffffffffffffffffff166323b872dd3330620f4240866124099190615117565b6040518463ffffffff1660e01b815260040161242793929190615427565b6020604051808303816000875af1158015612446573d6000803e3d6000fd5b505050506040513d601f19601f8201168201806040525081019061246a919061548a565b50600360009054906101000a900473ffffffffffffffffffffffffffffffffffffffff1673ffffffffffffffffffffffffffffffffffffffff1663095ea7b3600660009054906101000a900473ffffffffffffffffffffffffffffffffffffffff16620f4240856124db9190615117565b6040518363ffffffff1660e01b81526004016124f89291906154b7565b6020604051808303816000875af1158015612517573d6000803e3d6000fd5b505050506040513d601f19601f8201168201806040525081019061253b919061548a565b50600660009054906101000a900473ffffffffffffffffffffffffffffffffffffffff1673ffffffffffffffffffffffffffffffffffffffff1663617ba037600360009054906101000a900473ffffffffffffffffffffffffffffffffffffffff16620f4240856125ac9190615117565b3060006040518563ffffffff1660e01b81526004016125ce9493929190615529565b600060405180830381600087803b1580156125e857600080fd5b505af11580156125fc573d6000803e3d6000fd5b50505050600560009054906101000a900473ffffffffffffffffffffffffffffffffffffffff1673ffffffffffffffffffffffffffffffffffffffff166340c10f1933836040518363ffffffff1660e01b815260040161265d9291906154b7565b600060405180830381600087803b15801561267757600080fd5b505af115801561268b573d6000803e3d6000fd5b505050505050565b6000806000905060005b600b6000858152602001908152602001600020805490508110156127a557601060009054906101000a900473ffffffffffffffffffffffffffffffffffffffff1673ffffffffffffffffffffffffffffffffffffffff1663ea6a0410600b6000878152602001908152602001600020838154811061271e5761271d61480b565b5b906000526020600020016040518263ffffffff1660e01b81526004016127449190614cb6565b602060405180830381865afa158015612761573d6000803e3d6000fd5b505050506040513d601f19601f820116820180604052508101906127859190614ced565b826127909190614efd565b9150808061279d90614869565b91505061269d565b5080915050919050565b6127b76139d7565b73ffffffffffffffffffffffffffffffffffffffff166127d561117d565b73ffffffffffffffffffffffffffffffffffffffff161461282b576040517f08c379a0000000000000000000000000000000000000000000000000000000008152600401612822906155ba565b60405180910390fd5b565b80600560009054906101000a900473ffffffffffffffffffffffffffffffffffffffff1673ffffffffffffffffffffffffffffffffffffffff166370a08231336040518263ffffffff1660e01b81526004016128899190614510565b602060405180830381865afa1580156128a6573d6000803e3d6000fd5b505050506040513d601f19601f820116820180604052508101906128ca9190614ced565b101561290b576040517f08c379a000000000000000000000000000000000000000000000000000000000815260040161290290615626565b60405180910390fd5b600560009054906101000a900473ffffffffffffffffffffffffffffffffffffffff1673ffffffffffffffffffffffffffffffffffffffff16639dc29fac33836040518363ffffffff1660e01b81526004016129689291906154b7565b600060405180830381600087803b15801561298257600080fd5b505af1158015612996573d6000803e3d6000fd5b50505050600660009054906101000a900473ffffffffffffffffffffffffffffffffffffffff1673ffffffffffffffffffffffffffffffffffffffff166369328dec600360009054906101000a900473ffffffffffffffffffffffffffffffffffffffff16620f4240603285612a0c9190615117565b612a169190615117565b336040518463ffffffff1660e01b8152600401612a3593929190614ec6565b600060405180830381600087803b158015612a4f57600080fd5b505af1158015612a63573d6000803e3d6000fd5b5050505050565b612a726139df565b60008060146101000a81548160ff0219169083151502179055507f5db9ee0a495bf2e6ff9c91a7834c1ba4fdd244a5e8aa4e537bd38aeae4b073aa612ab56139d7565b604051612ac29190614510565b60405180910390a1565b60008060009054906101000a900473ffffffffffffffffffffffffffffffffffffffff169050816000806101000a81548173ffffffffffffffffffffffffffffffffffffffff021916908373ffffffffffffffffffffffffffffffffffffffff1602179055508173ffffffffffffffffffffffffffffffffffffffff168173ffffffffffffffffffffffffffffffffffffffff167f8be0079c531659141344cd1fd0a4f28419497f9722a3daafe3b4186f6b6457e060405160405180910390a35050565b612b98613a28565b6001600060146101000a81548160ff0219169083151502179055507f62e78cea01bee320cd4e420270b5ea74000d11b0c9f74754ebdbfc544b05a258612bdc6139d7565b604051612be99190614510565b60405180910390a1565b60008060008060009050600080612c0988612693565b905060008167ffffffffffffffff811115612c2757612c26613e88565b5b604051908082528060200260200182016040528015612c6057816020015b612c4d613ae0565b815260200190600190039081612c455790505b509050612c6c89610bdd565b905060005b8281101561304f57818181518110612c8c57612c8b61480b565b5b6020026020010151600001519350612d9e600a60008b73ffffffffffffffffffffffffffffffffffffffff1673ffffffffffffffffffffffffffffffffffffffff16815260200190815260200160002060008c815260200190815260200160002060008663ffffffff1663ffffffff16815260200190815260200160002060000160009054906101000a900460ff16600a60008c73ffffffffffffffffffffffffffffffffffffffff1673ffffffffffffffffffffffffffffffffffffffff16815260200190815260200160002060008d815260200190815260200160002060008763ffffffff1663ffffffff16815260200190815260200160002060000160019054906101000a900460ff16613a72565b9650600080601060009054906101000a900473ffffffffffffffffffffffffffffffffffffffff1673ffffffffffffffffffffffffffffffffffffffff16633c09f3be876040518263ffffffff1660e01b8152600401612dfe9190615655565b6040805180830381865afa158015612e1a573d6000803e3d6000fd5b505050506040513d601f19601f82011682018060405250810190612e3e9190615685565b91509150612e4c8282613a72565b97508789148015612efc575060011515601060009054906101000a900473ffffffffffffffffffffffffffffffffffffffff1673ffffffffffffffffffffffffffffffffffffffff166314ea531d886040518263ffffffff1660e01b8152600401612eb79190615655565b602060405180830381865afa158015612ed4573d6000803e3d6000fd5b505050506040513d601f19601f82011682018060405250810190612ef8919061548a565b1515145b1561303a57600187612f0e9190614efd565b96508160ff16600a60008d73ffffffffffffffffffffffffffffffffffffffff1673ffffffffffffffffffffffffffffffffffffffff16815260200190815260200160002060008e815260200190815260200160002060008863ffffffff1663ffffffff16815260200190815260200160002060000160009054906101000a900460ff1660ff1614801561302457508060ff16600a60008d73ffffffffffffffffffffffffffffffffffffffff1673ffffffffffffffffffffffffffffffffffffffff16815260200190815260200160002060008e815260200190815260200160002060008863ffffffff1663ffffffff16815260200190815260200160002060000160019054906101000a900460ff1660ff16145b15613039576002876130369190614efd565b96505b5b5050808061304790614869565b915050612c71565b5083965050505050505092915050565b606060008060008080600080613073611765565b90506000600960008c815260200190815260200160002054905060008167ffffffffffffffff8111156130a9576130a8613e88565b5b6040519080825280602002602001820160405280156130e257816020015b6130cf613b8f565b8152602001906001900390816130c75790505b50905060008267ffffffffffffffff81111561310157613100613e88565b5b60405190808252806020026020018201604052801561313a57816020015b613127613b07565b81526020019060019003908161311f5790505b50905060008367ffffffffffffffff81111561315957613158613e88565b5b60405190808252806020026020018201604052801561319257816020015b61317f613bbf565b8152602001906001900390816131775790505b50905060005b8d518110156132565760008e82815181106131b6576131b561480b565b5b6020026020010151905060005b8160200151811015613241576040518060400160405280836000015173ffffffffffffffffffffffffffffffffffffffff1681526020018360400151815250868a815181106132155761321461480b565b5b6020026020010181905250888061322b90614869565b995050808061323990614869565b9150506131c3565b5050808061324e90614869565b915050613198565b5060005b848110156133825760019b5060005b858110156132e3578481815181106132845761328361480b565b5b6020026020010151602001518583815181106132a3576132a261480b565b5b60200260200101516020015110156132d0578c806132c090614869565b9d50508b8d11156132cf578c9b505b5b80806132db90614869565b915050613269565b5060405180606001604052808583815181106133025761330161480b565b5b60200260200101516000015173ffffffffffffffffffffffffffffffffffffffff16815260200185838151811061333c5761333b61480b565b5b60200260200101516020015181526020018d8152508382815181106133645761336361480b565b5b6020026020010181905250808061337a90614869565b91505061325a565b50600095506000600190505b8a81116134c05760005b858110156134ac57818482815181106133b4576133b361480b565b5b60200260200101516040015103613499576040518060e001604052808583815181106133e3576133e261480b565b5b60200260200101516000015173ffffffffffffffffffffffffffffffffffffffff16815260200185838151811061341d5761341c61480b565b5b60200260200101516020015181526020018583815181106134415761344061480b565b5b6020026020010151604001518152602001600081526020016000815260200160008152602001600081525083898151811061347f5761347e61480b565b5b6020026020010181905250878061349590614869565b9850505b80806134a490614869565b915050613398565b5080806134b890614869565b91505061338e565b506064600f548a876134d29190614f53565b6134dc9190615117565b6134e691906153f6565b965086896134f49190614efd565b9850868160008151811061350b5761350a61480b565b5b6020026020010151606001818152505086816000815181106135305761352f61480b565b5b6020026020010151608001818152505086816000815181106135555761355461480b565b5b602002602001015160a0018181525050868160008151811061357a5761357961480b565b5b602002602001015160c00181815250506000600190505b848110156139c2576064600f548b886135aa9190614f53565b6135b49190615117565b6135be91906153f6565b9750878282815181106135d4576135d361480b565b5b60200260200101516060018181525050878a6135f09190614efd565b9950898282815181106136065761360561480b565b5b602002602001015160800181815250506001856136239190614f53565b811461380957816001826136379190614f53565b815181106136485761364761480b565b5b6020026020010151604001518282815181106136675761366661480b565b5b602002602001015160400151036136d65787826001836136879190614f53565b815181106136985761369761480b565b5b602002602001015160a001516136ae9190614efd565b8282815181106136c1576136c061480b565b5b602002602001015160a0018181525050613804565b878282815181106136ea576136e961480b565b5b602002602001015160a00181815250508782828151811061370e5761370d61480b565b5b602002602001015160c00181815250508160018261372c9190614f53565b8151811061373d5761373c61480b565b5b60200260200101516040015182828151811061375c5761375b61480b565b5b6020026020010151604001516137729190614f53565b985060005b8981101561380257898360018461378e9190614f53565b8151811061379f5761379e61480b565b5b602002602001015160a001516137b591906153f6565b836001836137c39190614efd565b846137ce9190614f53565b815181106137df576137de61480b565b5b602002602001015160c001818152505080806137fa90614869565b915050613777565b505b6139af565b816001826138179190614f53565b815181106138285761382761480b565b5b6020026020010151604001518282815181106138475761384661480b565b5b602002602001015160400151036139655787826001836138679190614f53565b815181106138785761387761480b565b5b602002602001015160a0015161388e9190614efd565b8282815181106138a1576138a061480b565b5b602002602001015160a00181815250508181815181106138c4576138c361480b565b5b6020026020010151604001516001866138dd9190614efd565b6138e79190614f53565b985060005b8981101561395f57898383815181106139085761390761480b565b5b602002602001015160a0015161391e91906153f6565b83828461392b9190614f53565b8151811061393c5761393b61480b565b5b602002602001015160c0018181525050808061395790614869565b9150506138ec565b506139ae565b878282815181106139795761397861480b565b5b602002602001015160a00181815250508782828151811061399d5761399c61480b565b5b602002602001015160c00181815250505b5b80806139ba90614869565b915050613591565b50809b50505050505050505050505092915050565b600033905090565b6139e7610b93565b613a26576040517f08c379a0000000000000000000000000000000000000000000000000000000008152600401613a1d90615711565b60405180910390fd5b565b613a30610b93565b15613a70576040517f08c379a0000000000000000000000000000000000000000000000000000000008152600401613a679061577d565b60405180910390fd5b565b6000808260ff168460ff161115613a8c5760009050613aa9565b8360ff168360ff161115613aa35760029050613aa8565b600190505b5b8091505092915050565b6040518060600160405280600063ffffffff168152602001600060ff168152602001600060ff1681525090565b6040518060600160405280600063ffffffff16815260200160608152602001606081525090565b6040518060600160405280600073ffffffffffffffffffffffffffffffffffffffff16815260200160008152602001600081525090565b604051806040016040528060008152602001600081525090565b6040518060600160405280600073ffffffffffffffffffffffffffffffffffffffff16815260200160008152602001600081525090565b6040518060400160405280600073ffffffffffffffffffffffffffffffffffffffff168152602001600081525090565b6040518060e00160405280600073ffffffffffffffffffffffffffffffffffffffff1681526020016000815260200160008152602001600081526020016000815260200160008152602001600081525090565b6000819050919050565b613c2581613c12565b82525050565b6000602082019050613c406000830184613c1c565b92915050565b6000604051905090565b600080fd5b600080fd5b613c6381613c12565b8114613c6e57600080fd5b50565b600081359050613c8081613c5a565b92915050565b600073ffffffffffffffffffffffffffffffffffffffff82169050919050565b6000613cb182613c86565b9050919050565b613cc181613ca6565b8114613ccc57600080fd5b50565b600081359050613cde81613cb8565b92915050565b60008060408385031215613cfb57613cfa613c50565b5b6000613d0985828601613c71565b9250506020613d1a85828601613ccf565b9150509250929050565b600081519050919050565b600082825260208201905092915050565b6000819050602082019050919050565b600063ffffffff82169050919050565b613d6981613d50565b82525050565b600060ff82169050919050565b613d8581613d6f565b82525050565b606082016000820151613da16000850182613d60565b506020820151613db46020850182613d7c565b506040820151613dc76040850182613d7c565b50505050565b6000613dd98383613d8b565b60608301905092915050565b6000602082019050919050565b6000613dfd82613d24565b613e078185613d2f565b9350613e1283613d40565b8060005b83811015613e43578151613e2a8882613dcd565b9750613e3583613de5565b925050600181019050613e16565b5085935050505092915050565b60006020820190508181036000830152613e6a8184613df2565b905092915050565b600080fd5b6000601f19601f8301169050919050565b7f4e487b7100000000000000000000000000000000000000000000000000000000600052604160045260246000fd5b613ec082613e77565b810181811067ffffffffffffffff82111715613edf57613ede613e88565b5b80604052505050565b6000613ef2613c46565b9050613efe8282613eb7565b919050565b600067ffffffffffffffff821115613f1e57613f1d613e88565b5b602082029050602081019050919050565b600080fd5b600080fd5b600067ffffffffffffffff821115613f5457613f53613e88565b5b613f5d82613e77565b9050602081019050919050565b82818337600083830152505050565b6000613f8c613f8784613f39565b613ee8565b905082815260208101848484011115613fa857613fa7613f34565b5b613fb3848285613f6a565b509392505050565b600082601f830112613fd057613fcf613e72565b5b8135613fe0848260208601613f79565b91505092915050565b6000613ffc613ff784613f03565b613ee8565b9050808382526020820190506020840283018581111561401f5761401e613f2f565b5b835b8181101561406657803567ffffffffffffffff81111561404457614043613e72565b5b8086016140518982613fbb565b85526020850194505050602081019050614021565b5050509392505050565b600082601f83011261408557614084613e72565b5b8135614095848260208601613fe9565b91505092915050565b6000806000606084860312156140b7576140b6613c50565b5b60006140c586828701613c71565b935050602084013567ffffffffffffffff8111156140e6576140e5613c55565b5b6140f286828701614070565b925050604061410386828701613c71565b9150509250925092565b60006020828403121561412357614122613c50565b5b600061413184828501613c71565b91505092915050565b600081519050919050565b600082825260208201905092915050565b6000819050602082019050919050565b61416f81613ca6565b82525050565b61417e81613c12565b82525050565b60a08201600082015161419a6000850182614166565b5060208201516141ad6020850182614175565b5060408201516141c06040850182614175565b5060608201516141d36060850182614175565b5060808201516141e66080850182614175565b50505050565b60006141f88383614184565b60a08301905092915050565b6000602082019050919050565b600061421c8261413a565b6142268185614145565b935061423183614156565b8060005b8381101561426257815161424988826141ec565b975061425483614204565b925050600181019050614235565b5085935050505092915050565b600060208201905081810360008301526142898184614211565b905092915050565b60008115159050919050565b6142a681614291565b82525050565b60006020820190506142c1600083018461429d565b92915050565b600081519050919050565b600082825260208201905092915050565b6000819050602082019050919050565b600081519050919050565b600082825260208201905092915050565b60005b8381101561432d578082015181840152602081019050614312565b8381111561433c576000848401525b50505050565b600061434d826142f3565b61435781856142fe565b935061436781856020860161430f565b61437081613e77565b840191505092915050565b60006060830160008301516143936000860182613d60565b50602083015184820360208601526143ab8282614342565b915050604083015184820360408601526143c58282614342565b9150508091505092915050565b60006143de838361437b565b905092915050565b6000602082019050919050565b60006143fe826142c7565b61440881856142d2565b93508360208202850161441a856142e3565b8060005b85811015614456578484038952815161443785826143d2565b9450614442836143e6565b925060208a0199505060018101905061441e565b50829750879550505050505092915050565b6000602082019050818103600083015261448281846143f3565b905092915050565b6000602082840312156144a05761449f613c50565b5b60006144ae84828501613ccf565b91505092915050565b6040820160008201516144cd6000850182614175565b5060208201516144e06020850182614175565b50505050565b60006040820190506144fb60008301846144b7565b92915050565b61450a81613ca6565b82525050565b60006020820190506145256000830184614501565b92915050565b600067ffffffffffffffff82111561454657614545613e88565b5b602082029050602081019050919050565b600080fd5b61456581613d50565b811461457057600080fd5b50565b6000813590506145828161455c565b92915050565b61459181613d6f565b811461459c57600080fd5b50565b6000813590506145ae81614588565b92915050565b6000606082840312156145ca576145c9614557565b5b6145d46060613ee8565b905060006145e484828501614573565b60008301525060206145f88482850161459f565b602083015250604061460c8482850161459f565b60408301525092915050565b600061462b6146268461452b565b613ee8565b9050808382526020820190506060840283018581111561464e5761464d613f2f565b5b835b81811015614677578061466388826145b4565b845260208401935050606081019050614650565b5050509392505050565b600082601f83011261469657614695613e72565b5b81356146a6848260208601614618565b91505092915050565b6000602082840312156146c5576146c4613c50565b5b600082013567ffffffffffffffff8111156146e3576146e2613c55565b5b6146ef84828501614681565b91505092915050565b600081519050919050565b600082825260208201905092915050565b6000819050602082019050919050565b60608201600082015161473a6000850182614166565b50602082015161474d6020850182614175565b5060408201516147606040850182614175565b50505050565b60006147728383614724565b60608301905092915050565b6000602082019050919050565b6000614796826146f8565b6147a08185614703565b93506147ab83614714565b8060005b838110156147dc5781516147c38882614766565b97506147ce8361477e565b9250506001810190506147af565b5085935050505092915050565b60006020820190508181036000830152614803818461478b565b905092915050565b7f4e487b7100000000000000000000000000000000000000000000000000000000600052603260045260246000fd5b7f4e487b7100000000000000000000000000000000000000000000000000000000600052601160045260246000fd5b600061487482613c12565b91507fffffffffffffffffffffffffffffffffffffffffffffffffffffffffffffffff82036148a6576148a561483a565b5b600182019050919050565b7f4e487b7100000000000000000000000000000000000000000000000000000000600052602260045260246000fd5b600060028204905060018216806148f857607f821691505b60208210810361490b5761490a6148b1565b5b50919050565b60008190508160005260206000209050919050565b60006020601f8301049050919050565b600082821b905092915050565b6000600883026149737fffffffffffffffffffffffffffffffffffffffffffffffffffffffffffffffff82614936565b61497d8683614936565b95508019841693508086168417925050509392505050565b6000819050919050565b60006149ba6149b56149b084613c12565b614995565b613c12565b9050919050565b6000819050919050565b6149d48361499f565b6149e86149e0826149c1565b848454614943565b825550505050565b600090565b6149fd6149f0565b614a088184846149cb565b505050565b5b81811015614a2c57614a216000826149f5565b600181019050614a0e565b5050565b601f821115614a7157614a4281614911565b614a4b84614926565b81016020851015614a5a578190505b614a6e614a6685614926565b830182614a0d565b50505b505050565b600082821c905092915050565b6000614a9460001984600802614a76565b1980831691505092915050565b6000614aad8383614a83565b9150826002028217905092915050565b614ac6826142f3565b67ffffffffffffffff811115614adf57614ade613e88565b5b614ae982546148e0565b614af4828285614a30565b600060209050601f831160018114614b275760008415614b15578287015190505b614b1f8582614aa1565b865550614b87565b601f198416614b3586614911565b60005b82811015614b5d57848901518255600182019150602085019450602081019050614b38565b86831015614b7a5784890151614b76601f891682614a83565b8355505b6001600288020188555050505b505050505050565b600082825260208201905092915050565b7f596f752063616e6e6f7420776974686472617720756e74696c2074686520656e60008201527f64206f662074686520636f6e7465737421000000000000000000000000000000602082015250565b6000614bfc603183614b8f565b9150614c0782614ba0565b604082019050919050565b60006020820190508181036000830152614c2b81614bef565b9050919050565b60008154614c3f816148e0565b614c498186614b8f565b94506001821660008114614c645760018114614c7a57614cad565b60ff198316865281151560200286019350614cad565b614c8385614911565b60005b83811015614ca557815481890152600182019150602081019050614c86565b808801955050505b50505092915050565b60006020820190508181036000830152614cd08184614c32565b905092915050565b600081519050614ce781613c5a565b92915050565b600060208284031215614d0357614d02613c50565b5b6000614d1184828501614cd8565b91505092915050565b60006040820190508181036000830152614d348185614c32565b9050614d436020830184613c1c565b9392505050565b600081519050614d598161455c565b92915050565b6000614d72614d6d84613f39565b613ee8565b905082815260208101848484011115614d8e57614d8d613f34565b5b614d9984828561430f565b509392505050565b600082601f830112614db657614db5613e72565b5b8151614dc6848260208601614d5f565b91505092915050565b600080600060608486031215614de857614de7613c50565b5b6000614df686828701614d4a565b935050602084015167ffffffffffffffff811115614e1757614e16613c55565b5b614e2386828701614da1565b925050604084015167ffffffffffffffff811115614e4457614e43613c55565b5b614e5086828701614da1565b9150509250925092565b7f5468657265206973206e6f2070656e64696e672077696e6e696e677321000000600082015250565b6000614e90601d83614b8f565b9150614e9b82614e5a565b602082019050919050565b60006020820190508181036000830152614ebf81614e83565b9050919050565b6000606082019050614edb6000830186614501565b614ee86020830185613c1c565b614ef56040830184614501565b949350505050565b6000614f0882613c12565b9150614f1383613c12565b9250827fffffffffffffffffffffffffffffffffffffffffffffffffffffffffffffffff03821115614f4857614f4761483a565b5b828201905092915050565b6000614f5e82613c12565b9150614f6983613c12565b925082821015614f7c57614f7b61483a565b5b828203905092915050565b7f596f75206e6565642061207469636b657420666f7220736176696e672070726560008201527f64696374696f6e73210000000000000000000000000000000000000000000000602082015250565b6000614fe3602983614b8f565b9150614fee82614f87565b604082019050919050565b6000602082019050818103600083015261501281614fd6565b9050919050565b7f50726564696374696f6e20506572696f6420697320636c6f7365642100000000600082015250565b600061504f601c83614b8f565b915061505a82615019565b602082019050919050565b6000602082019050818103600083015261507e81615042565b9050919050565b7f546865206e756d626572206f662070726564696374696f6e7320646f65736e2760008201527f74206d6174636821000000000000000000000000000000000000000000000000602082015250565b60006150e1602883614b8f565b91506150ec82615085565b604082019050919050565b60006020820190508181036000830152615110816150d4565b9050919050565b600061512282613c12565b915061512d83613c12565b9250817fffffffffffffffffffffffffffffffffffffffffffffffffffffffffffffffff04831182151516156151665761516561483a565b5b828202905092915050565b7f4f776e61626c653a206e6577206f776e657220697320746865207a65726f206160008201527f6464726573730000000000000000000000000000000000000000000000000000602082015250565b60006151cd602683614b8f565b91506151d882615171565b604082019050919050565b600060208201905081810360008301526151fc816151c0565b9050919050565b7f4e487b7100000000000000000000000000000000000000000000000000000000600052601260045260246000fd5b600061523d82613c12565b915061524883613c12565b92508261525857615257615203565b5b828206905092915050565b7f54686520616d6f756e74206d7573742062652061206d756c7469706c65206f6660008201527f2035300000000000000000000000000000000000000000000000000000000000602082015250565b60006152bf602383614b8f565b91506152ca82615263565b604082019050919050565b600060208201905081810360008301526152ee816152b2565b9050919050565b7f496e737566666963656e7420616d6f756e74206f662055534443000000000000600082015250565b600061532b601a83614b8f565b9150615336826152f5565b602082019050919050565b6000602082019050818103600083015261535a8161531e565b9050919050565b60006040820190506153766000830185614501565b6153836020830184614501565b9392505050565b7f496e73756666696369656e7420616c6c6f776564205553444300000000000000600082015250565b60006153c0601983614b8f565b91506153cb8261538a565b602082019050919050565b600060208201905081810360008301526153ef816153b3565b9050919050565b600061540182613c12565b915061540c83613c12565b92508261541c5761541b615203565b5b828204905092915050565b600060608201905061543c6000830186614501565b6154496020830185614501565b6154566040830184613c1c565b949350505050565b61546781614291565b811461547257600080fd5b50565b6000815190506154848161545e565b92915050565b6000602082840312156154a05761549f613c50565b5b60006154ae84828501615475565b91505092915050565b60006040820190506154cc6000830185614501565b6154d96020830184613c1c565b9392505050565b6000819050919050565b600061ffff82169050919050565b600061551361550e615509846154e0565b614995565b6154ea565b9050919050565b615523816154f8565b82525050565b600060808201905061553e6000830187614501565b61554b6020830186613c1c565b6155586040830185614501565b615565606083018461551a565b95945050505050565b7f4f776e61626c653a2063616c6c6572206973206e6f7420746865206f776e6572600082015250565b60006155a4602083614b8f565b91506155af8261556e565b602082019050919050565b600060208201905081810360008301526155d381615597565b9050919050565b7f596f7520646f6e2774206861766520656e6f756768207469636b657473210000600082015250565b6000615610601e83614b8f565b915061561b826155da565b602082019050919050565b6000602082019050818103600083015261563f81615603565b9050919050565b61564f81613d50565b82525050565b600060208201905061566a6000830184615646565b92915050565b60008151905061567f81614588565b92915050565b6000806040838503121561569c5761569b613c50565b5b60006156aa85828601615670565b92505060206156bb85828601615670565b9150509250929050565b7f5061757361626c653a206e6f7420706175736564000000000000000000000000600082015250565b60006156fb601483614b8f565b9150615706826156c5565b602082019050919050565b6000602082019050818103600083015261572a816156ee565b9050919050565b7f5061757361626c653a2070617573656400000000000000000000000000000000600082015250565b6000615767601083614b8f565b915061577282615731565b602082019050919050565b600060208201905081810360008301526157968161575a565b905091905056fea26469706673582212201adc79da9324886f0d181b21952e27457c80f04642cc97e95c9c83fba0c684ac64736f6c634300080f0033",
  "linkReferences": {},
  "deployedLinkReferences": {}
}