{
  "_format": "hh-sol-artifact-1",
  "contractName": "InterpoolContract",
  "sourceName": "contracts/InterpoolContract.sol",
  "abi": [
    {
      "inputs": [],
      "stateMutability": "nonpayable",
      "type": "constructor"
    },
    {
      "anonymous": false,
      "inputs": [
        {
          "indexed": true,
          "internalType": "address",
          "name": "previousOwner",
          "type": "address"
        },
        {
          "indexed": true,
          "internalType": "address",
          "name": "newOwner",
          "type": "address"
        }
      ],
      "name": "OwnershipTransferred",
      "type": "event"
    },
    {
      "anonymous": false,
      "inputs": [
        {
          "indexed": false,
          "internalType": "address",
          "name": "account",
          "type": "address"
        }
      ],
      "name": "Paused",
      "type": "event"
    },
    {
      "anonymous": false,
      "inputs": [
        {
          "indexed": false,
          "internalType": "address",
          "name": "account",
          "type": "address"
        }
      ],
      "name": "Unpaused",
      "type": "event"
    },
    {
      "inputs": [],
      "name": "claimFromPool",
      "outputs": [],
      "stateMutability": "nonpayable",
      "type": "function"
    },
    {
      "inputs": [
        {
          "internalType": "uint256",
          "name": "_leagueId",
          "type": "uint256"
        },
        {
          "internalType": "uint256",
          "name": "_dateEndContestPredictions",
          "type": "uint256"
        },
        {
          "internalType": "uint256[]",
          "name": "_requestDates",
          "type": "uint256[]"
        }
      ],
      "name": "createContest",
      "outputs": [],
      "stateMutability": "nonpayable",
      "type": "function"
    },
    {
      "inputs": [
        {
          "internalType": "uint256",
          "name": "_amount",
          "type": "uint256"
        }
      ],
      "name": "depositOnAave",
      "outputs": [],
      "stateMutability": "nonpayable",
      "type": "function"
    },
    {
      "inputs": [],
      "name": "getContestPredictionEndDate",
      "outputs": [
        {
          "internalType": "uint256",
          "name": "",
          "type": "uint256"
        }
      ],
      "stateMutability": "view",
      "type": "function"
    },
    {
      "inputs": [
        {
          "internalType": "uint256",
          "name": "_contestId",
          "type": "uint256"
        }
      ],
      "name": "getContestTable",
      "outputs": [
        {
          "components": [
            {
              "internalType": "address",
              "name": "player",
              "type": "address"
            },
            {
              "internalType": "uint256",
              "name": "nbTickets",
              "type": "uint256"
            },
            {
              "internalType": "uint256",
              "name": "score",
              "type": "uint256"
            },
            {
              "internalType": "uint256",
              "name": "rankExAequo",
              "type": "uint256"
            },
            {
              "internalType": "uint256",
              "name": "rewardPerRankPerPlayer",
              "type": "uint256"
            }
          ],
          "internalType": "struct InterpoolContract.ContestResult[]",
          "name": "",
          "type": "tuple[]"
        }
      ],
      "stateMutability": "view",
      "type": "function"
    },
    {
      "inputs": [],
      "name": "getCurrentContestId",
      "outputs": [
        {
          "internalType": "uint256",
          "name": "",
          "type": "uint256"
        }
      ],
      "stateMutability": "view",
      "type": "function"
    },
    {
      "inputs": [],
      "name": "getGlobalPrizePool",
      "outputs": [
        {
          "internalType": "uint256",
          "name": "",
          "type": "uint256"
        }
      ],
      "stateMutability": "view",
      "type": "function"
    },
    {
      "inputs": [
        {
          "internalType": "uint256",
          "name": "_contestId",
          "type": "uint256"
        }
      ],
      "name": "getIdGamesPerContest",
      "outputs": [
        {
          "internalType": "uint32[]",
          "name": "",
          "type": "uint32[]"
        }
      ],
      "stateMutability": "view",
      "type": "function"
    },
    {
      "inputs": [
        {
          "internalType": "uint256",
          "name": "_contestId",
          "type": "uint256"
        }
      ],
      "name": "getNumberOfPlayers",
      "outputs": [
        {
          "internalType": "uint256",
          "name": "",
          "type": "uint256"
        }
      ],
      "stateMutability": "view",
      "type": "function"
    },
    {
      "inputs": [
        {
          "internalType": "uint256",
          "name": "_contestId",
          "type": "uint256"
        },
        {
          "internalType": "address",
          "name": "_player",
          "type": "address"
        }
      ],
      "name": "getPlayerRank",
      "outputs": [
        {
          "internalType": "uint256",
          "name": "",
          "type": "uint256"
        }
      ],
      "stateMutability": "view",
      "type": "function"
    },
    {
      "inputs": [
        {
          "internalType": "uint256",
          "name": "_contestId",
          "type": "uint256"
        },
        {
          "internalType": "address",
          "name": "_player",
          "type": "address"
        }
      ],
      "name": "getPrevisionsPerPlayerPerContest",
      "outputs": [
        {
          "components": [
            {
              "internalType": "uint32",
              "name": "gameId",
              "type": "uint32"
            },
            {
              "internalType": "uint8",
              "name": "homeScore",
              "type": "uint8"
            },
            {
              "internalType": "uint8",
              "name": "awayScore",
              "type": "uint8"
            }
          ],
          "internalType": "struct InterpoolContract.GamePredict[]",
          "name": "",
          "type": "tuple[]"
        }
      ],
      "stateMutability": "view",
      "type": "function"
    },
    {
      "inputs": [
        {
          "internalType": "address",
          "name": "_player",
          "type": "address"
        },
        {
          "internalType": "uint32",
          "name": "_gameId",
          "type": "uint32"
        }
      ],
      "name": "getPrevisionsPerPlayerPerGame",
      "outputs": [
        {
          "internalType": "uint8",
          "name": "",
          "type": "uint8"
        },
        {
          "internalType": "uint8",
          "name": "",
          "type": "uint8"
        }
      ],
      "stateMutability": "view",
      "type": "function"
    },
    {
      "inputs": [
        {
          "internalType": "uint256",
          "name": "_contestId",
          "type": "uint256"
        }
      ],
      "name": "getScoreTable",
      "outputs": [
        {
          "components": [
            {
              "internalType": "address",
              "name": "player",
              "type": "address"
            },
            {
              "internalType": "uint256",
              "name": "nbTickets",
              "type": "uint256"
            },
            {
              "internalType": "uint256",
              "name": "score",
              "type": "uint256"
            }
          ],
          "internalType": "struct InterpoolContract.PlayerScoreTicket[]",
          "name": "",
          "type": "tuple[]"
        }
      ],
      "stateMutability": "view",
      "type": "function"
    },
    {
      "inputs": [
        {
          "internalType": "uint256",
          "name": "_contestId",
          "type": "uint256"
        },
        {
          "internalType": "uint32",
          "name": "_gameId",
          "type": "uint32"
        }
      ],
      "name": "getScoresPerGameId",
      "outputs": [
        {
          "internalType": "uint8",
          "name": "",
          "type": "uint8"
        },
        {
          "internalType": "uint8",
          "name": "",
          "type": "uint8"
        }
      ],
      "stateMutability": "view",
      "type": "function"
    },
    {
      "inputs": [
        {
          "internalType": "address",
          "name": "_player",
          "type": "address"
        }
      ],
      "name": "getWinningsPerPlayer",
      "outputs": [
        {
          "components": [
            {
              "internalType": "uint256",
              "name": "pendingWinnings",
              "type": "uint256"
            },
            {
              "internalType": "uint256",
              "name": "claimedWinnings",
              "type": "uint256"
            }
          ],
          "internalType": "struct IpPool.Winnings",
          "name": "",
          "type": "tuple"
        }
      ],
      "stateMutability": "view",
      "type": "function"
    },
    {
      "inputs": [],
      "name": "globalPendingWinnings",
      "outputs": [
        {
          "internalType": "uint256",
          "name": "",
          "type": "uint256"
        }
      ],
      "stateMutability": "view",
      "type": "function"
    },
    {
      "inputs": [],
      "name": "owner",
      "outputs": [
        {
          "internalType": "address",
          "name": "",
          "type": "address"
        }
      ],
      "stateMutability": "view",
      "type": "function"
    },
    {
      "inputs": [],
      "name": "pause",
      "outputs": [],
      "stateMutability": "nonpayable",
      "type": "function"
    },
    {
      "inputs": [],
      "name": "paused",
      "outputs": [
        {
          "internalType": "bool",
          "name": "",
          "type": "bool"
        }
      ],
      "stateMutability": "view",
      "type": "function"
    },
    {
      "inputs": [],
      "name": "renounceOwnership",
      "outputs": [],
      "stateMutability": "nonpayable",
      "type": "function"
    },
    {
      "inputs": [
        {
          "internalType": "uint256",
          "name": "_leagueId",
          "type": "uint256"
        },
        {
          "internalType": "uint256[]",
          "name": "_requestDates",
          "type": "uint256[]"
        }
      ],
      "name": "resolveGames",
      "outputs": [],
      "stateMutability": "nonpayable",
      "type": "function"
    },
    {
      "inputs": [
        {
          "components": [
            {
              "internalType": "uint32",
              "name": "gameId",
              "type": "uint32"
            },
            {
              "internalType": "uint8",
              "name": "homeScore",
              "type": "uint8"
            },
            {
              "internalType": "uint8",
              "name": "awayScore",
              "type": "uint8"
            }
          ],
          "internalType": "struct InterpoolContract.GamePredict[]",
          "name": "_gamePredictions",
          "type": "tuple[]"
        }
      ],
      "name": "savePrediction",
      "outputs": [],
      "stateMutability": "nonpayable",
      "type": "function"
    },
    {
      "inputs": [
        {
          "internalType": "address",
          "name": "newOwner",
          "type": "address"
        }
      ],
      "name": "transferOwnership",
      "outputs": [],
      "stateMutability": "nonpayable",
      "type": "function"
    },
    {
      "inputs": [],
      "name": "unpause",
      "outputs": [],
      "stateMutability": "nonpayable",
      "type": "function"
    },
    {
      "inputs": [
        {
          "internalType": "uint256",
          "name": "_contestId",
          "type": "uint256"
        }
      ],
      "name": "updateContestTable",
      "outputs": [],
      "stateMutability": "nonpayable",
      "type": "function"
    },
    {
      "inputs": [
        {
          "internalType": "uint256",
          "name": "_nbTickets",
          "type": "uint256"
        }
      ],
      "name": "withdraw",
      "outputs": [],
      "stateMutability": "nonpayable",
      "type": "function"
    }
  ],
  "bytecode": "0x60806040523480156200001157600080fd5b5062000032620000266200027160201b60201c565b6200027960201b60201c565b60008060146101000a81548160ff02191690831515021790555073a2025b15a1757311bfd68cb14eaefcc237af5b43600360006101000a81548173ffffffffffffffffffffffffffffffffffffffff021916908373ffffffffffffffffffffffffffffffffffffffff16021790555073368eedf3f56ad10b9bc57eed4dac65b26bb667f6600660006101000a81548173ffffffffffffffffffffffffffffffffffffffff021916908373ffffffffffffffffffffffffffffffffffffffff160217905550731ee669290939f8a8864497af3bc83728715265ff600460006101000a81548173ffffffffffffffffffffffffffffffffffffffff021916908373ffffffffffffffffffffffffffffffffffffffff16021790555073d81e4a61fd6bf066539df6ea48bfaeae847dcda1600560006101000a81548173ffffffffffffffffffffffffffffffffffffffff021916908373ffffffffffffffffffffffffffffffffffffffff160217905550600060028190555073ef249f41e80f34a2a96dd07ab0403777317ef726601160006101000a81548173ffffffffffffffffffffffffffffffffffffffff021916908373ffffffffffffffffffffffffffffffffffffffff16021790555060056010819055506000600f81905550600b6000600181526020019081526020016000207f8f1abe4dfa5f4feed04ebefcdf63a9a7a5dce5f9ed4840524b3d8023be78398a908060018154018082558091505060019003906000526020600020016000909160001b9091909150556200033d565b600033905090565b60008060009054906101000a900473ffffffffffffffffffffffffffffffffffffffff169050816000806101000a81548173ffffffffffffffffffffffffffffffffffffffff021916908373ffffffffffffffffffffffffffffffffffffffff1602179055508173ffffffffffffffffffffffffffffffffffffffff168173ffffffffffffffffffffffffffffffffffffffff167f8be0079c531659141344cd1fd0a4f28419497f9722a3daafe3b4186f6b6457e060405160405180910390a35050565b6158e5806200034d6000396000f3fe608060405234801561001057600080fd5b506004361061018e5760003560e01c80638456cb59116100de578063b66195b811610097578063d622151811610071578063d622151814610473578063f2fde38b1461048f578063fb46bd22146104ab578063fd8d1909146104c95761018e565b8063b66195b8146103e2578063bd874a1d14610412578063c7cbdb66146104435761018e565b80638456cb59146103465780638ad2e864146103505780638d44f13b146103805780638da5cb5b1461038a5780639fa75e9a146103a8578063b4ace158146103c45761018e565b80634fda591e1161014b57806366194e141161012557806366194e14146102d35780636851e9a9146102ef578063715018a6146103205780637158f6101461032a5761018e565b80634fda591e146102555780635c975abb1461028557806362436d9d146102a35761018e565b806308af2d7814610193578063117f3998146101b15780632452a7e3146101e15780632e1a7d4d146102115780633f4ba83a1461022d5780634194417514610237575b600080fd5b61019b6104e5565b6040516101a89190613f85565b60405180910390f35b6101cb60048036038101906101c6919061403e565b610505565b6040516101d891906141aa565b60405180910390f35b6101fb60048036038101906101f691906141cc565b61075b565b604051610208919061432e565b60405180910390f35b61022b600480360381019061022691906141cc565b61084b565b005b61023561091f565b005b61023f610931565b60405161024c9190613f85565b60405180910390f35b61026f600480360381019061026a919061403e565b610937565b60405161027c9190613f85565b60405180910390f35b61028d610b69565b60405161029a919061436b565b60405180910390f35b6102bd60048036038101906102b891906141cc565b610b7f565b6040516102ca9190613f85565b60405180910390f35b6102ed60048036038101906102e891906144df565b610b9f565b005b6103096004803603810190610304919061457a565b610d23565b6040516103179291906145c9565b60405180910390f35b610328611088565b005b610344600480360381019061033f91906145f2565b61109c565b005b61034e6111c6565b005b61036a6004803603810190610365919061464e565b6111d8565b60405161037791906146aa565b60405180910390f35b610388611245565b005b610392611481565b60405161039f91906146d4565b60405180910390f35b6103c260048036038101906103bd919061484c565b6114aa565b005b6103cc6119bb565b6040516103d99190613f85565b60405180910390f35b6103fc60048036038101906103f791906141cc565b611b2b565b6040516104099190614986565b60405180910390f35b61042c600480360381019061042791906149a8565b611cc1565b60405161043a9291906145c9565b60405180910390f35b61045d600480360381019061045891906141cc565b611dc4565b60405161046a9190614a97565b60405180910390f35b61048d600480360381019061048891906141cc565b612055565b005b6104a960048036038101906104a4919061464e565b6126dd565b005b6104b3612760565b6040516104c09190613f85565b60405180910390f35b6104e360048036038101906104de91906141cc565b61276a565b005b600060076000600f54815260200190815260200160002060010154905090565b6060600061051284612c7d565b90506000808267ffffffffffffffff8111156105315761053061439c565b5b60405190808252806020026020018201604052801561056a57816020015b610557613d7d565b81526020019060019003908161054f5790505b50905060008367ffffffffffffffff8111156105895761058861439c565b5b6040519080825280602002602001820160405280156105b75781602001602082028036833780820191505090505b5090506105c387611dc4565b905060005b8481101561074d578181815181106105e3576105e2614ab9565b5b6020026020010151935060405180606001604052808563ffffffff168152602001600a60008a73ffffffffffffffffffffffffffffffffffffffff1673ffffffffffffffffffffffffffffffffffffffff16815260200190815260200160002060008763ffffffff1663ffffffff16815260200190815260200160002060006002811061067357610672614ab9565b5b602091828204019190069054906101000a900460ff1660ff168152602001600a60008a73ffffffffffffffffffffffffffffffffffffffff1673ffffffffffffffffffffffffffffffffffffffff16815260200190815260200160002060008763ffffffff1663ffffffff168152602001908152602001600020600160028110610700576106ff614ab9565b5b602091828204019190069054906101000a900460ff1660ff1681525083828151811061072f5761072e614ab9565b5b6020026020010181905250808061074590614b17565b9150506105c8565b508194505050505092915050565b6060600d6000838152602001908152602001600020805480602002602001604051908101604052809291908181526020016000905b8282101561084057838290600052602060002090600502016040518060a00160405290816000820160009054906101000a900473ffffffffffffffffffffffffffffffffffffffff1673ffffffffffffffffffffffffffffffffffffffff1673ffffffffffffffffffffffffffffffffffffffff16815260200160018201548152602001600282015481526020016003820154815260200160048201548152505081526020019060010190610790565b505050509050919050565b60001515600e6000600f54815260200190815260200160002060003373ffffffffffffffffffffffffffffffffffffffff1673ffffffffffffffffffffffffffffffffffffffff16815260200190815260200160002060009054906101000a900460ff16151514806108d4575060076000600f5481526020019081526020016000206001015442115b610913576040517f08c379a000000000000000000000000000000000000000000000000000000000815260040161090a90614be2565b60405180910390fd5b61091c81612da6565b50565b610927612fe3565b61092f613061565b565b60025481565b60008061094384611b2b565b9050600080825190506000808267ffffffffffffffff8111156109695761096861439c565b5b6040519080825280602002602001820160405280156109a257816020015b61098f613daa565b8152602001906001900390816109875790505b50905060005b83811015610ac4576001945060005b84811015610a25578681815181106109d2576109d1614ab9565b5b6020026020010151604001518783815181106109f1576109f0614ab9565b5b6020026020010151604001511015610a12578580610a0e90614b17565b9650505b8080610a1d90614b17565b9150506109b7565b506040518060600160405280878381518110610a4457610a43614ab9565b5b60200260200101516000015173ffffffffffffffffffffffffffffffffffffffff168152602001878381518110610a7e57610a7d614ab9565b5b602002602001015160400151815260200186815250828281518110610aa657610aa5614ab9565b5b60200260200101819052508080610abc90614b17565b9150506109a8565b5060005b83811015610b5a57818181518110610ae357610ae2614ab9565b5b60200260200101516000015173ffffffffffffffffffffffffffffffffffffffff168873ffffffffffffffffffffffffffffffffffffffff1603610b4757818181518110610b3457610b33614ab9565b5b6020026020010151604001519250610b5a565b8080610b5290614b17565b915050610ac8565b50819550505050505092915050565b60008060149054906101000a900460ff16905090565b600060086000838152602001908152602001600020805490509050919050565b610ba7612fe3565b600f6000815480929190610bba90614b17565b919050555060008151905060005b81811015610cdb57600b6000600f548152602001908152602001600020601160009054906101000a900473ffffffffffffffffffffffffffffffffffffffff1673ffffffffffffffffffffffffffffffffffffffff1663580c2f54600088878681518110610c3957610c38614ab9565b5b60200260200101516040518463ffffffff1660e01b8152600401610c5f93929190614c47565b6020604051808303816000875af1158015610c7e573d6000803e3d6000fd5b505050506040513d601f19601f82011682018060405250810190610ca29190614cb4565b90806001815401808255809150506001900390600052602060002001600090919091909150558080610cd390614b17565b915050610bc8565b5060405180604001604052808581526020018481525060076000600f548152602001908152602001600020600082015181600001556020820151816001015590505050505050565b6000806000600c6000868152602001908152602001600020805490509050600060ff9050600060ff905060005b83811015611077576000600c60008a81526020019081526020016000208281548110610d7f57610d7e614ab9565b5b906000526020600020015490506000601160009054906101000a900473ffffffffffffffffffffffffffffffffffffffff1673ffffffffffffffffffffffffffffffffffffffff1663f02e41a3836040518263ffffffff1660e01b8152600401610de99190614cf0565b602060405180830381865afa158015610e06573d6000803e3d6000fd5b505050506040513d601f19601f82011682018060405250810190610e2a9190614d20565b905060005b81811015611061576000601160009054906101000a900473ffffffffffffffffffffffffffffffffffffffff1673ffffffffffffffffffffffffffffffffffffffff1663de00d10785846040518363ffffffff1660e01b8152600401610e96929190614d4d565b600060405180830381865afa158015610eb3573d6000803e3d6000fd5b505050506040513d6000823e3d601f19601f82011682018060405250810190610edc9190614f0d565b6000015190508a63ffffffff168163ffffffff160361104d57601160009054906101000a900473ffffffffffffffffffffffffffffffffffffffff1673ffffffffffffffffffffffffffffffffffffffff1663de00d10785846040518363ffffffff1660e01b8152600401610f52929190614d4d565b600060405180830381865afa158015610f6f573d6000803e3d6000fd5b505050506040513d6000823e3d601f19601f82011682018060405250810190610f989190614f0d565b602001519650601160009054906101000a900473ffffffffffffffffffffffffffffffffffffffff1673ffffffffffffffffffffffffffffffffffffffff1663de00d10785846040518363ffffffff1660e01b8152600401610ffb929190614d4d565b600060405180830381865afa158015611018573d6000803e3d6000fd5b505050506040513d6000823e3d601f19601f820116820180604052508101906110419190614f0d565b60400151955050611061565b50808061105990614b17565b915050610e2f565b505050808061106f90614b17565b915050610d50565b508181945094505050509250929050565b611090612fe3565b61109a60006130c3565b565b6110a4612fe3565b60008151905060005b818110156111c057600c6000600f548152602001908152602001600020601160009054906101000a900473ffffffffffffffffffffffffffffffffffffffff1673ffffffffffffffffffffffffffffffffffffffff1663580c2f5460018787868151811061111e5761111d614ab9565b5b60200260200101516040518463ffffffff1660e01b815260040161114493929190614f91565b6020604051808303816000875af1158015611163573d6000803e3d6000fd5b505050506040513d601f19601f820116820180604052508101906111879190614cb4565b908060018154018082558091505060019003906000526020600020016000909190919091505580806111b890614b17565b9150506110ad565b50505050565b6111ce612fe3565b6111d6613187565b565b6111e0613de1565b600160008373ffffffffffffffffffffffffffffffffffffffff1673ffffffffffffffffffffffffffffffffffffffff168152602001908152602001600020604051806040016040529081600082015481526020016001820154815250509050919050565b6000600160003373ffffffffffffffffffffffffffffffffffffffff1673ffffffffffffffffffffffffffffffffffffffff16815260200190815260200160002060000154116112ca576040517f08c379a00000000000000000000000000000000000000000000000000000000081526004016112c190615014565b60405180910390fd5b6000600160003373ffffffffffffffffffffffffffffffffffffffff1673ffffffffffffffffffffffffffffffffffffffff168152602001908152602001600020600001549050600660009054906101000a900473ffffffffffffffffffffffffffffffffffffffff1673ffffffffffffffffffffffffffffffffffffffff166369328dec600360009054906101000a900473ffffffffffffffffffffffffffffffffffffffff1683336040518463ffffffff1660e01b815260040161139293929190615034565b600060405180830381600087803b1580156113ac57600080fd5b505af11580156113c0573d6000803e3d6000fd5b505050506000600160003373ffffffffffffffffffffffffffffffffffffffff1673ffffffffffffffffffffffffffffffffffffffff1681526020019081526020016000206000018190555080600160003373ffffffffffffffffffffffffffffffffffffffff1673ffffffffffffffffffffffffffffffffffffffff168152602001908152602001600020600101600082825461145e919061506b565b92505081905550806002600082825461147791906150c1565b9250508190555050565b60008060009054906101000a900473ffffffffffffffffffffffffffffffffffffffff16905090565b6000600560009054906101000a900473ffffffffffffffffffffffffffffffffffffffff1673ffffffffffffffffffffffffffffffffffffffff166370a08231336040518263ffffffff1660e01b815260040161150791906146d4565b602060405180830381865afa158015611524573d6000803e3d6000fd5b505050506040513d601f19601f820116820180604052508101906115489190614d20565b11611588576040517f08c379a000000000000000000000000000000000000000000000000000000000815260040161157f90615167565b60405180910390fd5b60076000600f5481526020019081526020016000206001015442106115e2576040517f08c379a00000000000000000000000000000000000000000000000000000000081526004016115d9906151d3565b60405180910390fd5b6115ed600f54612c7d565b81511461162f576040517f08c379a000000000000000000000000000000000000000000000000000000000815260040161162690615265565b60405180910390fd5b600061163c600f54612c7d565b90506000600560009054906101000a900473ffffffffffffffffffffffffffffffffffffffff1673ffffffffffffffffffffffffffffffffffffffff166370a08231336040518263ffffffff1660e01b815260040161169b91906146d4565b602060405180830381865afa1580156116b8573d6000803e3d6000fd5b505050506040513d601f19601f820116820180604052508101906116dc9190614d20565b905060005b828110156117e257604051806040016040528085838151811061170757611706614ab9565b5b60200260200101516020015160ff1660ff16815260200185838151811061173157611730614ab9565b5b60200260200101516040015160ff1660ff16815250600a60003373ffffffffffffffffffffffffffffffffffffffff1673ffffffffffffffffffffffffffffffffffffffff168152602001908152602001600020600086848151811061179a57611799614ab9565b5b60200260200101516000015163ffffffff1663ffffffff1681526020019081526020016000209060026117ce929190613dfb565b5080806117da90614b17565b9150506116e1565b50600080600090505b60086000600f548152602001908152602001600020805490508110156118eb5760086000600f548152602001908152602001600020818154811061183257611831614ab9565b5b906000526020600020906002020160000160009054906101000a900473ffffffffffffffffffffffffffffffffffffffff1673ffffffffffffffffffffffffffffffffffffffff163373ffffffffffffffffffffffffffffffffffffffff16036118d4578260086000600f54815260200190815260200160002082815481106118be576118bd614ab9565b5b9060005260206000209060020201600101819055505b6001915080806118e390614b17565b9150506117eb565b5060001515811515036119b55760086000600f54815260200190815260200160002060405180604001604052803373ffffffffffffffffffffffffffffffffffffffff16815260200184815250908060018154018082558091505060019003906000526020600020906002020160009091909190915060008201518160000160006101000a81548173ffffffffffffffffffffffffffffffffffffffff021916908373ffffffffffffffffffffffffffffffffffffffff1602179055506020820151816001015550505b50505050565b600080600460009054906101000a900473ffffffffffffffffffffffffffffffffffffffff1673ffffffffffffffffffffffffffffffffffffffff166370a08231306040518263ffffffff1660e01b8152600401611a1991906146d4565b602060405180830381865afa158015611a36573d6000803e3d6000fd5b505050506040513d601f19601f82011682018060405250810190611a5a9190614d20565b90506000620f42406032600560009054906101000a900473ffffffffffffffffffffffffffffffffffffffff1673ffffffffffffffffffffffffffffffffffffffff166318160ddd6040518163ffffffff1660e01b8152600401602060405180830381865afa158015611ad1573d6000803e3d6000fd5b505050506040513d601f19601f82011682018060405250810190611af59190614d20565b611aff9190615285565b611b099190615285565b90506002548183611b1a91906150c1565b611b2491906150c1565b9250505090565b606060006008600084815260200190815260200160002080549050905060008060008367ffffffffffffffff811115611b6757611b6661439c565b5b604051908082528060200260200182016040528015611ba057816020015b611b8d613e95565b815260200190600190039081611b855790505b509050600080600090505b85811015611cb357600860008981526020019081526020016000208181548110611bd857611bd7614ab9565b5b906000526020600020906002020160000160009054906101000a900473ffffffffffffffffffffffffffffffffffffffff169450600860008981526020019081526020016000208181548110611c3157611c30614ab9565b5b9060005260206000209060020201600101549350611c4f88866131ea565b915060405180606001604052808673ffffffffffffffffffffffffffffffffffffffff16815260200185815260200183815250838281518110611c9557611c94614ab9565b5b60200260200101819052508080611cab90614b17565b915050611bab565b508195505050505050919050565b6000806000600a60008673ffffffffffffffffffffffffffffffffffffffff1673ffffffffffffffffffffffffffffffffffffffff16815260200190815260200160002060008563ffffffff1663ffffffff168152602001908152602001600020600280602002604051908101604052809291908260028015611d7f576020028201916000905b82829054906101000a900460ff1660ff1681526020019060010190602082600001049283019260010382029150808411611d485790505b5050505050905080600060028110611d9a57611d99614ab9565b5b602002015181600160028110611db357611db2614ab9565b5b602002015192509250509250929050565b60606000611dd183612c7d565b90506000808267ffffffffffffffff811115611df057611def61439c565b5b604051908082528060200260200182016040528015611e1e5781602001602082028036833780820191505090505b50905060005b600b60008781526020019081526020016000208054905081101561204957601160009054906101000a900473ffffffffffffffffffffffffffffffffffffffff1673ffffffffffffffffffffffffffffffffffffffff1663f02e41a3600b60008981526020019081526020016000208381548110611ea557611ea4614ab9565b5b90600052602060002001546040518263ffffffff1660e01b8152600401611ecc9190614cf0565b602060405180830381865afa158015611ee9573d6000803e3d6000fd5b505050506040513d601f19601f82011682018060405250810190611f0d9190614d20565b935060005b8481101561203557601160009054906101000a900473ffffffffffffffffffffffffffffffffffffffff1673ffffffffffffffffffffffffffffffffffffffff1663ab2fb9a9600b60008a81526020019081526020016000208481548110611f7d57611f7c614ab9565b5b9060005260206000200154836040518363ffffffff1660e01b8152600401611fa6929190614d4d565b602060405180830381865afa158015611fc3573d6000803e3d6000fd5b505050506040513d601f19601f82011682018060405250810190611fe791906152df565b838581518110611ffa57611ff9614ab9565b5b602002602001019063ffffffff16908163ffffffff1681525050838061201f90614b17565b945050808061202d90614b17565b915050611f12565b50808061204190614b17565b915050611e24565b50809350505050919050565b61205d612fe3565b600560009054906101000a900473ffffffffffffffffffffffffffffffffffffffff1673ffffffffffffffffffffffffffffffffffffffff166318160ddd6040518163ffffffff1660e01b8152600401602060405180830381865afa1580156120ca573d6000803e3d6000fd5b505050506040513d601f19601f820116820180604052508101906120ee9190614d20565b6009600083815260200190815260200160002081905550600061211082611b2b565b9050600061211e8383613329565b90506000600d60008581526020019081526020016000206040518060a001604052808460008151811061215457612153614ab9565b5b60200260200101516000015173ffffffffffffffffffffffffffffffffffffffff168152602001600181526020018460008151811061219657612195614ab9565b5b6020026020010151602001518152602001846000815181106121bb576121ba614ab9565b5b6020026020010151604001518152602001846000815181106121e0576121df614ab9565b5b602002602001015160c00151815250908060018154018082558091505060019003906000526020600020906005020160009091909190915060008201518160000160006101000a81548173ffffffffffffffffffffffffffffffffffffffff021916908373ffffffffffffffffffffffffffffffffffffffff1602179055506020820151816001015560408201518160020155606082015181600301556080820151816004015550506000600190505b600960008681526020019081526020016000205481101561256757826001826122b991906150c1565b815181106122ca576122c9614ab9565b5b60200260200101516000015173ffffffffffffffffffffffffffffffffffffffff168382815181106122ff576122fe614ab9565b5b60200260200101516000015173ffffffffffffffffffffffffffffffffffffffff16036123e257600d6000868152602001908152602001600020828154811061234b5761234a614ab9565b5b9060005260206000209060050201600101600081548092919061236d90614b17565b919050555082818151811061238557612384614ab9565b5b602002602001015160c00151600d600087815260200190815260200160002083815481106123b6576123b5614ab9565b5b906000526020600020906005020160040160008282546123d6919061506b565b92505081905550612554565b600d60008681526020019081526020016000206040518060a0016040528085848151811061241357612412614ab9565b5b60200260200101516000015173ffffffffffffffffffffffffffffffffffffffff1681526020016001815260200185848151811061245457612453614ab9565b5b602002602001015160200151815260200185848151811061247857612477614ab9565b5b602002602001015160400151815260200185848151811061249c5761249b614ab9565b5b602002602001015160c00151815250908060018154018082558091505060019003906000526020600020906005020160009091909190915060008201518160000160006101000a81548173ffffffffffffffffffffffffffffffffffffffff021916908373ffffffffffffffffffffffffffffffffffffffff160217905550602082015181600101556040820151816002015560608201518160030155608082015181600401555050818061255090614b17565b9250505b808061255f90614b17565b915050612290565b5060005b600d6000868152602001908152602001600020805490508110156126d6576000600d600087815260200190815260200160002082815481106125b0576125af614ab9565b5b906000526020600020906005020160000160009054906101000a900473ffffffffffffffffffffffffffffffffffffffff169050600d6000878152602001908152602001600020828154811061260957612608614ab9565b5b906000526020600020906005020160040154600160008373ffffffffffffffffffffffffffffffffffffffff1673ffffffffffffffffffffffffffffffffffffffff168152602001908152602001600020600001600082825461266c919061506b565b92505081905550600d6000878152602001908152602001600020828154811061269857612697614ab9565b5b906000526020600020906005020160040154600260008282546126bb919061506b565b925050819055505080806126ce90614b17565b91505061256b565b5050505050565b6126e5612fe3565b600073ffffffffffffffffffffffffffffffffffffffff168173ffffffffffffffffffffffffffffffffffffffff1603612754576040517f08c379a000000000000000000000000000000000000000000000000000000000815260040161274b9061537e565b60405180910390fd5b61275d816130c3565b50565b6000600f54905090565b600060328261277991906153cd565b146127b9576040517f08c379a00000000000000000000000000000000000000000000000000000000081526004016127b090615470565b60405180910390fd5b600360009054906101000a900473ffffffffffffffffffffffffffffffffffffffff1673ffffffffffffffffffffffffffffffffffffffff166370a08231336040518263ffffffff1660e01b815260040161281491906146d4565b602060405180830381865afa158015612831573d6000803e3d6000fd5b505050506040513d601f19601f820116820180604052508101906128559190614d20565b620f4240826128649190615285565b11156128a5576040517f08c379a000000000000000000000000000000000000000000000000000000000815260040161289c906154dc565b60405180910390fd5b600360009054906101000a900473ffffffffffffffffffffffffffffffffffffffff1673ffffffffffffffffffffffffffffffffffffffff1663dd62ed3e33306040518363ffffffff1660e01b81526004016129029291906154fc565b602060405180830381865afa15801561291f573d6000803e3d6000fd5b505050506040513d601f19601f820116820180604052508101906129439190614d20565b620f4240826129529190615285565b1115612993576040517f08c379a000000000000000000000000000000000000000000000000000000000815260040161298a90615571565b60405180910390fd5b60006032826129a29190615591565b9050600360009054906101000a900473ffffffffffffffffffffffffffffffffffffffff1673ffffffffffffffffffffffffffffffffffffffff166323b872dd3330620f4240866129f39190615285565b6040518463ffffffff1660e01b8152600401612a11939291906155c2565b6020604051808303816000875af1158015612a30573d6000803e3d6000fd5b505050506040513d601f19601f82011682018060405250810190612a549190615625565b50600360009054906101000a900473ffffffffffffffffffffffffffffffffffffffff1673ffffffffffffffffffffffffffffffffffffffff1663095ea7b3600660009054906101000a900473ffffffffffffffffffffffffffffffffffffffff16620f424085612ac59190615285565b6040518363ffffffff1660e01b8152600401612ae2929190615652565b6020604051808303816000875af1158015612b01573d6000803e3d6000fd5b505050506040513d601f19601f82011682018060405250810190612b259190615625565b50600660009054906101000a900473ffffffffffffffffffffffffffffffffffffffff1673ffffffffffffffffffffffffffffffffffffffff1663617ba037600360009054906101000a900473ffffffffffffffffffffffffffffffffffffffff16620f424085612b969190615285565b3060006040518563ffffffff1660e01b8152600401612bb894939291906156ba565b600060405180830381600087803b158015612bd257600080fd5b505af1158015612be6573d6000803e3d6000fd5b50505050600560009054906101000a900473ffffffffffffffffffffffffffffffffffffffff1673ffffffffffffffffffffffffffffffffffffffff166340c10f1933836040518363ffffffff1660e01b8152600401612c47929190615652565b600060405180830381600087803b158015612c6157600080fd5b505af1158015612c75573d6000803e3d6000fd5b505050505050565b600080600090506000600b600085815260200190815260200160002080549050905060005b81811015612d9b576000600b60008781526020019081526020016000208281548110612cd157612cd0614ab9565b5b90600052602060002001549050601160009054906101000a900473ffffffffffffffffffffffffffffffffffffffff1673ffffffffffffffffffffffffffffffffffffffff1663f02e41a3826040518263ffffffff1660e01b8152600401612d399190614cf0565b602060405180830381865afa158015612d56573d6000803e3d6000fd5b505050506040513d601f19601f82011682018060405250810190612d7a9190614d20565b84612d85919061506b565b9350508080612d9390614b17565b915050612ca2565b508192505050919050565b80600560009054906101000a900473ffffffffffffffffffffffffffffffffffffffff1673ffffffffffffffffffffffffffffffffffffffff166370a08231336040518263ffffffff1660e01b8152600401612e0291906146d4565b602060405180830381865afa158015612e1f573d6000803e3d6000fd5b505050506040513d601f19601f82011682018060405250810190612e439190614d20565b1015612e84576040517f08c379a0000000000000000000000000000000000000000000000000000000008152600401612e7b9061574b565b60405180910390fd5b600560009054906101000a900473ffffffffffffffffffffffffffffffffffffffff1673ffffffffffffffffffffffffffffffffffffffff16639dc29fac33836040518363ffffffff1660e01b8152600401612ee1929190615652565b600060405180830381600087803b158015612efb57600080fd5b505af1158015612f0f573d6000803e3d6000fd5b50505050600660009054906101000a900473ffffffffffffffffffffffffffffffffffffffff1673ffffffffffffffffffffffffffffffffffffffff166369328dec600360009054906101000a900473ffffffffffffffffffffffffffffffffffffffff16620f4240603285612f859190615285565b612f8f9190615285565b336040518463ffffffff1660e01b8152600401612fae93929190615034565b600060405180830381600087803b158015612fc857600080fd5b505af1158015612fdc573d6000803e3d6000fd5b5050505050565b612feb613ca1565b73ffffffffffffffffffffffffffffffffffffffff16613009611481565b73ffffffffffffffffffffffffffffffffffffffff161461305f576040517f08c379a0000000000000000000000000000000000000000000000000000000008152600401613056906157b7565b60405180910390fd5b565b613069613ca9565b60008060146101000a81548160ff0219169083151502179055507f5db9ee0a495bf2e6ff9c91a7834c1ba4fdd244a5e8aa4e537bd38aeae4b073aa6130ac613ca1565b6040516130b991906146d4565b60405180910390a1565b60008060009054906101000a900473ffffffffffffffffffffffffffffffffffffffff169050816000806101000a81548173ffffffffffffffffffffffffffffffffffffffff021916908373ffffffffffffffffffffffffffffffffffffffff1602179055508173ffffffffffffffffffffffffffffffffffffffff168173ffffffffffffffffffffffffffffffffffffffff167f8be0079c531659141344cd1fd0a4f28419497f9722a3daafe3b4186f6b6457e060405160405180910390a35050565b61318f613cf2565b6001600060146101000a81548160ff0219169083151502179055507f62e78cea01bee320cd4e420270b5ea74000d11b0c9f74754ebdbfc544b05a2586131d3613ca1565b6040516131e091906146d4565b60405180910390a1565b6000806000806000905060008061320088612c7d565b905060008167ffffffffffffffff81111561321e5761321d61439c565b5b60405190808252806020026020018201604052801561324c5781602001602082028036833780820191505090505b50905061325889611dc4565b905060005b828110156133195781818151811061327857613277614ab9565b5b6020026020010151935060008061328f8c87610d23565b915091506000806132a08d89611cc1565b915091506132ae8282613d3c565b9a506132ba8484613d3c565b9950898b03613302576001896132d0919061506b565b98508360ff168260ff161480156132ec57508260ff168160ff16145b15613301576002896132fe919061506b565b98505b5b50505050808061331190614b17565b91505061325d565b5083965050505050505092915050565b60606000806000808060008061333d6119bb565b90506000600960008c815260200190815260200160002054905060008167ffffffffffffffff8111156133735761337261439c565b5b6040519080825280602002602001820160405280156133ac57816020015b613399613ecc565b8152602001906001900390816133915790505b50905060008267ffffffffffffffff8111156133cb576133ca61439c565b5b60405190808252806020026020018201604052801561340457816020015b6133f1613daa565b8152602001906001900390816133e95790505b50905060008367ffffffffffffffff8111156134235761342261439c565b5b60405190808252806020026020018201604052801561345c57816020015b613449613efc565b8152602001906001900390816134415790505b50905060005b8d518110156135205760008e82815181106134805761347f614ab9565b5b6020026020010151905060005b816020015181101561350b576040518060400160405280836000015173ffffffffffffffffffffffffffffffffffffffff1681526020018360400151815250868a815181106134df576134de614ab9565b5b602002602001018190525088806134f590614b17565b995050808061350390614b17565b91505061348d565b5050808061351890614b17565b915050613462565b5060005b8481101561364c5760019b5060005b858110156135ad5784818151811061354e5761354d614ab9565b5b60200260200101516020015185838151811061356d5761356c614ab9565b5b602002602001015160200151101561359a578c8061358a90614b17565b9d50508b8d1115613599578c9b505b5b80806135a590614b17565b915050613533565b5060405180606001604052808583815181106135cc576135cb614ab9565b5b60200260200101516000015173ffffffffffffffffffffffffffffffffffffffff16815260200185838151811061360657613605614ab9565b5b60200260200101516020015181526020018d81525083828151811061362e5761362d614ab9565b5b6020026020010181905250808061364490614b17565b915050613524565b50600095506000600190505b8a811161378a5760005b85811015613776578184828151811061367e5761367d614ab9565b5b60200260200101516040015103613763576040518060e001604052808583815181106136ad576136ac614ab9565b5b60200260200101516000015173ffffffffffffffffffffffffffffffffffffffff1681526020018583815181106136e7576136e6614ab9565b5b602002602001015160200151815260200185838151811061370b5761370a614ab9565b5b6020026020010151604001518152602001600081526020016000815260200160008152602001600081525083898151811061374957613748614ab9565b5b6020026020010181905250878061375f90614b17565b9850505b808061376e90614b17565b915050613662565b50808061378290614b17565b915050613658565b5060646010548a8761379c91906150c1565b6137a69190615285565b6137b09190615591565b965086896137be919061506b565b985086816000815181106137d5576137d4614ab9565b5b6020026020010151606001818152505086816000815181106137fa576137f9614ab9565b5b60200260200101516080018181525050868160008151811061381f5761381e614ab9565b5b602002602001015160a0018181525050868160008151811061384457613843614ab9565b5b602002602001015160c00181815250506000600190505b84811015613c8c5760646010548b8861387491906150c1565b61387e9190615285565b6138889190615591565b97508782828151811061389e5761389d614ab9565b5b60200260200101516060018181525050878a6138ba919061506b565b9950898282815181106138d0576138cf614ab9565b5b602002602001015160800181815250506001856138ed91906150c1565b8114613ad3578160018261390191906150c1565b8151811061391257613911614ab9565b5b60200260200101516040015182828151811061393157613930614ab9565b5b602002602001015160400151036139a057878260018361395191906150c1565b8151811061396257613961614ab9565b5b602002602001015160a00151613978919061506b565b82828151811061398b5761398a614ab9565b5b602002602001015160a0018181525050613ace565b878282815181106139b4576139b3614ab9565b5b602002602001015160a0018181525050878282815181106139d8576139d7614ab9565b5b602002602001015160c0018181525050816001826139f691906150c1565b81518110613a0757613a06614ab9565b5b602002602001015160400151828281518110613a2657613a25614ab9565b5b602002602001015160400151613a3c91906150c1565b985060005b89811015613acc578983600184613a5891906150c1565b81518110613a6957613a68614ab9565b5b602002602001015160a00151613a7f9190615591565b83600183613a8d919061506b565b84613a9891906150c1565b81518110613aa957613aa8614ab9565b5b602002602001015160c00181815250508080613ac490614b17565b915050613a41565b505b613c79565b81600182613ae191906150c1565b81518110613af257613af1614ab9565b5b602002602001015160400151828281518110613b1157613b10614ab9565b5b60200260200101516040015103613c2f578782600183613b3191906150c1565b81518110613b4257613b41614ab9565b5b602002602001015160a00151613b58919061506b565b828281518110613b6b57613b6a614ab9565b5b602002602001015160a0018181525050818181518110613b8e57613b8d614ab9565b5b602002602001015160400151600186613ba7919061506b565b613bb191906150c1565b985060005b89811015613c295789838381518110613bd257613bd1614ab9565b5b602002602001015160a00151613be89190615591565b838284613bf591906150c1565b81518110613c0657613c05614ab9565b5b602002602001015160c00181815250508080613c2190614b17565b915050613bb6565b50613c78565b87828281518110613c4357613c42614ab9565b5b602002602001015160a001818152505087828281518110613c6757613c66614ab9565b5b602002602001015160c00181815250505b5b8080613c8490614b17565b91505061385b565b50809b50505050505050505050505092915050565b600033905090565b613cb1610b69565b613cf0576040517f08c379a0000000000000000000000000000000000000000000000000000000008152600401613ce790615823565b60405180910390fd5b565b613cfa610b69565b15613d3a576040517f08c379a0000000000000000000000000000000000000000000000000000000008152600401613d319061588f565b60405180910390fd5b565b6000808260ff168460ff161115613d565760009050613d73565b8360ff168360ff161115613d6d5760029050613d72565b600190505b5b8091505092915050565b6040518060600160405280600063ffffffff168152602001600060ff168152602001600060ff1681525090565b6040518060600160405280600073ffffffffffffffffffffffffffffffffffffffff16815260200160008152602001600081525090565b604051806040016040528060008152602001600081525090565b826002601f01602090048101928215613e845791602002820160005b83821115613e5557835183826101000a81548160ff021916908360ff1602179055509260200192600101602081600001049283019260010302613e17565b8015613e825782816101000a81549060ff0219169055600101602081600001049283019260010302613e55565b505b509050613e919190613f4f565b5090565b6040518060600160405280600073ffffffffffffffffffffffffffffffffffffffff16815260200160008152602001600081525090565b6040518060400160405280600073ffffffffffffffffffffffffffffffffffffffff168152602001600081525090565b6040518060e00160405280600073ffffffffffffffffffffffffffffffffffffffff1681526020016000815260200160008152602001600081526020016000815260200160008152602001600081525090565b5b80821115613f68576000816000905550600101613f50565b5090565b6000819050919050565b613f7f81613f6c565b82525050565b6000602082019050613f9a6000830184613f76565b92915050565b6000604051905090565b600080fd5b600080fd5b613fbd81613f6c565b8114613fc857600080fd5b50565b600081359050613fda81613fb4565b92915050565b600073ffffffffffffffffffffffffffffffffffffffff82169050919050565b600061400b82613fe0565b9050919050565b61401b81614000565b811461402657600080fd5b50565b60008135905061403881614012565b92915050565b6000806040838503121561405557614054613faa565b5b600061406385828601613fcb565b925050602061407485828601614029565b9150509250929050565b600081519050919050565b600082825260208201905092915050565b6000819050602082019050919050565b600063ffffffff82169050919050565b6140c3816140aa565b82525050565b600060ff82169050919050565b6140df816140c9565b82525050565b6060820160008201516140fb60008501826140ba565b50602082015161410e60208501826140d6565b50604082015161412160408501826140d6565b50505050565b600061413383836140e5565b60608301905092915050565b6000602082019050919050565b60006141578261407e565b6141618185614089565b935061416c8361409a565b8060005b8381101561419d5781516141848882614127565b975061418f8361413f565b925050600181019050614170565b5085935050505092915050565b600060208201905081810360008301526141c4818461414c565b905092915050565b6000602082840312156141e2576141e1613faa565b5b60006141f084828501613fcb565b91505092915050565b600081519050919050565b600082825260208201905092915050565b6000819050602082019050919050565b61422e81614000565b82525050565b61423d81613f6c565b82525050565b60a0820160008201516142596000850182614225565b50602082015161426c6020850182614234565b50604082015161427f6040850182614234565b5060608201516142926060850182614234565b5060808201516142a56080850182614234565b50505050565b60006142b78383614243565b60a08301905092915050565b6000602082019050919050565b60006142db826141f9565b6142e58185614204565b93506142f083614215565b8060005b8381101561432157815161430888826142ab565b9750614313836142c3565b9250506001810190506142f4565b5085935050505092915050565b6000602082019050818103600083015261434881846142d0565b905092915050565b60008115159050919050565b61436581614350565b82525050565b6000602082019050614380600083018461435c565b92915050565b600080fd5b6000601f19601f8301169050919050565b7f4e487b7100000000000000000000000000000000000000000000000000000000600052604160045260246000fd5b6143d48261438b565b810181811067ffffffffffffffff821117156143f3576143f261439c565b5b80604052505050565b6000614406613fa0565b905061441282826143cb565b919050565b600067ffffffffffffffff8211156144325761443161439c565b5b602082029050602081019050919050565b600080fd5b600061445b61445684614417565b6143fc565b9050808382526020820190506020840283018581111561447e5761447d614443565b5b835b818110156144a757806144938882613fcb565b845260208401935050602081019050614480565b5050509392505050565b600082601f8301126144c6576144c5614386565b5b81356144d6848260208601614448565b91505092915050565b6000806000606084860312156144f8576144f7613faa565b5b600061450686828701613fcb565b935050602061451786828701613fcb565b925050604084013567ffffffffffffffff81111561453857614537613faf565b5b614544868287016144b1565b9150509250925092565b614557816140aa565b811461456257600080fd5b50565b6000813590506145748161454e565b92915050565b6000806040838503121561459157614590613faa565b5b600061459f85828601613fcb565b92505060206145b085828601614565565b9150509250929050565b6145c3816140c9565b82525050565b60006040820190506145de60008301856145ba565b6145eb60208301846145ba565b9392505050565b6000806040838503121561460957614608613faa565b5b600061461785828601613fcb565b925050602083013567ffffffffffffffff81111561463857614637613faf565b5b614644858286016144b1565b9150509250929050565b60006020828403121561466457614663613faa565b5b600061467284828501614029565b91505092915050565b6040820160008201516146916000850182614234565b5060208201516146a46020850182614234565b50505050565b60006040820190506146bf600083018461467b565b92915050565b6146ce81614000565b82525050565b60006020820190506146e960008301846146c5565b92915050565b600067ffffffffffffffff82111561470a5761470961439c565b5b602082029050602081019050919050565b600080fd5b600080fd5b61472e816140c9565b811461473957600080fd5b50565b60008135905061474b81614725565b92915050565b6000606082840312156147675761476661471b565b5b61477160606143fc565b9050600061478184828501614565565b60008301525060206147958482850161473c565b60208301525060406147a98482850161473c565b60408301525092915050565b60006147c86147c3846146ef565b6143fc565b905080838252602082019050606084028301858111156147eb576147ea614443565b5b835b8181101561481457806148008882614751565b8452602084019350506060810190506147ed565b5050509392505050565b600082601f83011261483357614832614386565b5b81356148438482602086016147b5565b91505092915050565b60006020828403121561486257614861613faa565b5b600082013567ffffffffffffffff8111156148805761487f613faf565b5b61488c8482850161481e565b91505092915050565b600081519050919050565b600082825260208201905092915050565b6000819050602082019050919050565b6060820160008201516148d76000850182614225565b5060208201516148ea6020850182614234565b5060408201516148fd6040850182614234565b50505050565b600061490f83836148c1565b60608301905092915050565b6000602082019050919050565b600061493382614895565b61493d81856148a0565b9350614948836148b1565b8060005b838110156149795781516149608882614903565b975061496b8361491b565b92505060018101905061494c565b5085935050505092915050565b600060208201905081810360008301526149a08184614928565b905092915050565b600080604083850312156149bf576149be613faa565b5b60006149cd85828601614029565b92505060206149de85828601614565565b9150509250929050565b600081519050919050565b600082825260208201905092915050565b6000819050602082019050919050565b6000614a2083836140ba565b60208301905092915050565b6000602082019050919050565b6000614a44826149e8565b614a4e81856149f3565b9350614a5983614a04565b8060005b83811015614a8a578151614a718882614a14565b9750614a7c83614a2c565b925050600181019050614a5d565b5085935050505092915050565b60006020820190508181036000830152614ab18184614a39565b905092915050565b7f4e487b7100000000000000000000000000000000000000000000000000000000600052603260045260246000fd5b7f4e487b7100000000000000000000000000000000000000000000000000000000600052601160045260246000fd5b6000614b2282613f6c565b91507fffffffffffffffffffffffffffffffffffffffffffffffffffffffffffffffff8203614b5457614b53614ae8565b5b600182019050919050565b600082825260208201905092915050565b7f596f752063616e6e6f7420776974686472617720756e74696c2074686520656e60008201527f64206f662074686520636f6e7465737421000000000000000000000000000000602082015250565b6000614bcc603183614b5f565b9150614bd782614b70565b604082019050919050565b60006020820190508181036000830152614bfb81614bbf565b9050919050565b6000819050919050565b6000819050919050565b6000614c31614c2c614c2784614c02565b614c0c565b613f6c565b9050919050565b614c4181614c16565b82525050565b6000606082019050614c5c6000830186614c38565b614c696020830185613f76565b614c766040830184613f76565b949350505050565b6000819050919050565b614c9181614c7e565b8114614c9c57600080fd5b50565b600081519050614cae81614c88565b92915050565b600060208284031215614cca57614cc9613faa565b5b6000614cd884828501614c9f565b91505092915050565b614cea81614c7e565b82525050565b6000602082019050614d056000830184614ce1565b92915050565b600081519050614d1a81613fb4565b92915050565b600060208284031215614d3657614d35613faa565b5b6000614d4484828501614d0b565b91505092915050565b6000604082019050614d626000830185614ce1565b614d6f6020830184613f76565b9392505050565b600081519050614d858161454e565b92915050565b600081519050614d9a81614725565b92915050565b600080fd5b600067ffffffffffffffff821115614dc057614dbf61439c565b5b614dc98261438b565b9050602081019050919050565b60005b83811015614df4578082015181840152602081019050614dd9565b83811115614e03576000848401525b50505050565b6000614e1c614e1784614da5565b6143fc565b905082815260208101848484011115614e3857614e37614da0565b5b614e43848285614dd6565b509392505050565b600082601f830112614e6057614e5f614386565b5b8151614e70848260208601614e09565b91505092915050565b600060808284031215614e8f57614e8e61471b565b5b614e9960806143fc565b90506000614ea984828501614d76565b6000830152506020614ebd84828501614d8b565b6020830152506040614ed184828501614d8b565b604083015250606082015167ffffffffffffffff811115614ef557614ef4614720565b5b614f0184828501614e4b565b60608301525092915050565b600060208284031215614f2357614f22613faa565b5b600082015167ffffffffffffffff811115614f4157614f40613faf565b5b614f4d84828501614e79565b91505092915050565b6000819050919050565b6000614f7b614f76614f7184614f56565b614c0c565b613f6c565b9050919050565b614f8b81614f60565b82525050565b6000606082019050614fa66000830186614f82565b614fb36020830185613f76565b614fc06040830184613f76565b949350505050565b7f5468657265206973206e6f2070656e64696e672077696e6e696e677321000000600082015250565b6000614ffe601d83614b5f565b915061500982614fc8565b602082019050919050565b6000602082019050818103600083015261502d81614ff1565b9050919050565b600060608201905061504960008301866146c5565b6150566020830185613f76565b61506360408301846146c5565b949350505050565b600061507682613f6c565b915061508183613f6c565b9250827fffffffffffffffffffffffffffffffffffffffffffffffffffffffffffffffff038211156150b6576150b5614ae8565b5b828201905092915050565b60006150cc82613f6c565b91506150d783613f6c565b9250828210156150ea576150e9614ae8565b5b828203905092915050565b7f596f75206e6565642061207469636b657420666f7220736176696e672070726560008201527f64696374696f6e73210000000000000000000000000000000000000000000000602082015250565b6000615151602983614b5f565b915061515c826150f5565b604082019050919050565b6000602082019050818103600083015261518081615144565b9050919050565b7f50726564696374696f6e20506572696f6420697320636c6f7365642100000000600082015250565b60006151bd601c83614b5f565b91506151c882615187565b602082019050919050565b600060208201905081810360008301526151ec816151b0565b9050919050565b7f546865206e756d626572206f662070726564696374696f6e7320646f65736e2760008201527f74206d6174636821000000000000000000000000000000000000000000000000602082015250565b600061524f602883614b5f565b915061525a826151f3565b604082019050919050565b6000602082019050818103600083015261527e81615242565b9050919050565b600061529082613f6c565b915061529b83613f6c565b9250817fffffffffffffffffffffffffffffffffffffffffffffffffffffffffffffffff04831182151516156152d4576152d3614ae8565b5b828202905092915050565b6000602082840312156152f5576152f4613faa565b5b600061530384828501614d76565b91505092915050565b7f4f776e61626c653a206e6577206f776e657220697320746865207a65726f206160008201527f6464726573730000000000000000000000000000000000000000000000000000602082015250565b6000615368602683614b5f565b91506153738261530c565b604082019050919050565b600060208201905081810360008301526153978161535b565b9050919050565b7f4e487b7100000000000000000000000000000000000000000000000000000000600052601260045260246000fd5b60006153d882613f6c565b91506153e383613f6c565b9250826153f3576153f261539e565b5b828206905092915050565b7f54686520616d6f756e74206d7573742062652061206d756c7469706c65206f6660008201527f2035300000000000000000000000000000000000000000000000000000000000602082015250565b600061545a602383614b5f565b9150615465826153fe565b604082019050919050565b600060208201905081810360008301526154898161544d565b9050919050565b7f496e737566666963656e7420616d6f756e74206f662055534443000000000000600082015250565b60006154c6601a83614b5f565b91506154d182615490565b602082019050919050565b600060208201905081810360008301526154f5816154b9565b9050919050565b600060408201905061551160008301856146c5565b61551e60208301846146c5565b9392505050565b7f496e73756666696369656e7420616c6c6f776564205553444300000000000000600082015250565b600061555b601983614b5f565b915061556682615525565b602082019050919050565b6000602082019050818103600083015261558a8161554e565b9050919050565b600061559c82613f6c565b91506155a783613f6c565b9250826155b7576155b661539e565b5b828204905092915050565b60006060820190506155d760008301866146c5565b6155e460208301856146c5565b6155f16040830184613f76565b949350505050565b61560281614350565b811461560d57600080fd5b50565b60008151905061561f816155f9565b92915050565b60006020828403121561563b5761563a613faa565b5b600061564984828501615610565b91505092915050565b600060408201905061566760008301856146c5565b6156746020830184613f76565b9392505050565b600061ffff82169050919050565b60006156a461569f61569a84614c02565b614c0c565b61567b565b9050919050565b6156b481615689565b82525050565b60006080820190506156cf60008301876146c5565b6156dc6020830186613f76565b6156e960408301856146c5565b6156f660608301846156ab565b95945050505050565b7f596f7520646f6e2774206861766520656e6f756768207469636b657473210000600082015250565b6000615735601e83614b5f565b9150615740826156ff565b602082019050919050565b6000602082019050818103600083015261576481615728565b9050919050565b7f4f776e61626c653a2063616c6c6572206973206e6f7420746865206f776e6572600082015250565b60006157a1602083614b5f565b91506157ac8261576b565b602082019050919050565b600060208201905081810360008301526157d081615794565b9050919050565b7f5061757361626c653a206e6f7420706175736564000000000000000000000000600082015250565b600061580d601483614b5f565b9150615818826157d7565b602082019050919050565b6000602082019050818103600083015261583c81615800565b9050919050565b7f5061757361626c653a2070617573656400000000000000000000000000000000600082015250565b6000615879601083614b5f565b915061588482615843565b602082019050919050565b600060208201905081810360008301526158a88161586c565b905091905056fea2646970667358221220d2fd094513375eca01586bafe386ca724d120b613c21cff50d5909dd0d7dcd1464736f6c634300080f0033",
  "linkReferences": {},
  "deployedLinkReferences": {}
}