{
  "_format": "hh-sol-artifact-1",
  "contractName": "InterpoolContract",
  "sourceName": "contracts/InterpoolContract.sol",
  "abi": [
    {
      "inputs": [],
      "stateMutability": "nonpayable",
      "type": "constructor"
    },
    {
      "anonymous": false,
      "inputs": [
        {
          "indexed": true,
          "internalType": "address",
          "name": "previousOwner",
          "type": "address"
        },
        {
          "indexed": true,
          "internalType": "address",
          "name": "newOwner",
          "type": "address"
        }
      ],
      "name": "OwnershipTransferred",
      "type": "event"
    },
    {
      "anonymous": false,
      "inputs": [
        {
          "indexed": false,
          "internalType": "address",
          "name": "account",
          "type": "address"
        }
      ],
      "name": "Paused",
      "type": "event"
    },
    {
      "anonymous": false,
      "inputs": [
        {
          "indexed": false,
          "internalType": "address",
          "name": "account",
          "type": "address"
        }
      ],
      "name": "Unpaused",
      "type": "event"
    },
    {
      "inputs": [
        {
          "internalType": "uint256",
          "name": "_contestId",
          "type": "uint256"
        },
        {
          "components": [
            {
              "internalType": "address",
              "name": "player",
              "type": "address"
            },
            {
              "internalType": "uint256",
              "name": "nbTickets",
              "type": "uint256"
            },
            {
              "internalType": "uint256",
              "name": "score",
              "type": "uint256"
            }
          ],
          "internalType": "struct InterpoolContract.PlayerScoreTicket[]",
          "name": "_scoreTable",
          "type": "tuple[]"
        }
      ],
      "name": "calculateGain",
      "outputs": [
        {
          "components": [
            {
              "internalType": "address",
              "name": "player",
              "type": "address"
            },
            {
              "internalType": "uint256",
              "name": "score",
              "type": "uint256"
            },
            {
              "internalType": "uint256",
              "name": "rankExAequo",
              "type": "uint256"
            },
            {
              "internalType": "uint256",
              "name": "rewardNoExAequo",
              "type": "uint256"
            },
            {
              "internalType": "uint256",
              "name": "cumulatedRewardsNoExAequo",
              "type": "uint256"
            },
            {
              "internalType": "uint256",
              "name": "cumulatedRewardsPerRank",
              "type": "uint256"
            },
            {
              "internalType": "uint256",
              "name": "rewardPerRankPerPlayer",
              "type": "uint256"
            }
          ],
          "internalType": "struct InterpoolContract.Gain[]",
          "name": "",
          "type": "tuple[]"
        }
      ],
      "stateMutability": "view",
      "type": "function"
    },
    {
      "inputs": [
        {
          "internalType": "uint256",
          "name": "_contestId",
          "type": "uint256"
        },
        {
          "internalType": "address",
          "name": "_player",
          "type": "address"
        }
      ],
      "name": "checkResult",
      "outputs": [
        {
          "internalType": "uint256",
          "name": "",
          "type": "uint256"
        }
      ],
      "stateMutability": "view",
      "type": "function"
    },
    {
      "inputs": [
        {
          "internalType": "uint256",
          "name": "",
          "type": "uint256"
        },
        {
          "internalType": "uint256",
          "name": "",
          "type": "uint256"
        }
      ],
      "name": "contestTable",
      "outputs": [
        {
          "internalType": "address",
          "name": "player",
          "type": "address"
        },
        {
          "internalType": "uint256",
          "name": "nbTickets",
          "type": "uint256"
        },
        {
          "internalType": "uint256",
          "name": "score",
          "type": "uint256"
        },
        {
          "internalType": "uint256",
          "name": "rankExAequo",
          "type": "uint256"
        },
        {
          "internalType": "uint256",
          "name": "rewardPerRankPerPlayer",
          "type": "uint256"
        }
      ],
      "stateMutability": "view",
      "type": "function"
    },
    {
      "inputs": [
        {
          "internalType": "uint256",
          "name": "_leagueId",
          "type": "uint256"
        },
        {
          "internalType": "string[]",
          "name": "_listRequestId",
          "type": "string[]"
        },
        {
          "internalType": "uint256",
          "name": "_dateEndContest",
          "type": "uint256"
        }
      ],
      "name": "createContest",
      "outputs": [],
      "stateMutability": "nonpayable",
      "type": "function"
    },
    {
      "inputs": [
        {
          "internalType": "uint256",
          "name": "_amount",
          "type": "uint256"
        }
      ],
      "name": "depositOnAave",
      "outputs": [],
      "stateMutability": "nonpayable",
      "type": "function"
    },
    {
      "inputs": [
        {
          "internalType": "string",
          "name": "_requestId",
          "type": "string"
        },
        {
          "components": [
            {
              "internalType": "uint32",
              "name": "gameId",
              "type": "uint32"
            },
            {
              "internalType": "uint40",
              "name": "startTime",
              "type": "uint40"
            },
            {
              "internalType": "string",
              "name": "homeTeam",
              "type": "string"
            },
            {
              "internalType": "string",
              "name": "awayTeam",
              "type": "string"
            }
          ],
          "internalType": "struct IpFakeEnetScore.GameCreate[]",
          "name": "_fakeGameCreate",
          "type": "tuple[]"
        }
      ],
      "name": "fakeGameCreate",
      "outputs": [],
      "stateMutability": "nonpayable",
      "type": "function"
    },
    {
      "inputs": [
        {
          "internalType": "uint32",
          "name": "",
          "type": "uint32"
        }
      ],
      "name": "gamePlayed",
      "outputs": [
        {
          "internalType": "bool",
          "name": "",
          "type": "bool"
        }
      ],
      "stateMutability": "view",
      "type": "function"
    },
    {
      "inputs": [],
      "name": "getContestPredictionEndDate",
      "outputs": [
        {
          "internalType": "uint256",
          "name": "",
          "type": "uint256"
        }
      ],
      "stateMutability": "view",
      "type": "function"
    },
    {
      "inputs": [
        {
          "internalType": "uint256",
          "name": "_contestId",
          "type": "uint256"
        }
      ],
      "name": "getContestTable",
      "outputs": [
        {
          "components": [
            {
              "internalType": "address",
              "name": "player",
              "type": "address"
            },
            {
              "internalType": "uint256",
              "name": "nbTickets",
              "type": "uint256"
            },
            {
              "internalType": "uint256",
              "name": "score",
              "type": "uint256"
            },
            {
              "internalType": "uint256",
              "name": "rankExAequo",
              "type": "uint256"
            },
            {
              "internalType": "uint256",
              "name": "rewardPerRankPerPlayer",
              "type": "uint256"
            }
          ],
          "internalType": "struct InterpoolContract.ContestResult[]",
          "name": "",
          "type": "tuple[]"
        }
      ],
      "stateMutability": "view",
      "type": "function"
    },
    {
      "inputs": [],
      "name": "getCurrentContestId",
      "outputs": [
        {
          "internalType": "uint256",
          "name": "",
          "type": "uint256"
        }
      ],
      "stateMutability": "view",
      "type": "function"
    },
    {
      "inputs": [
        {
          "internalType": "string",
          "name": "_requestId",
          "type": "string"
        },
        {
          "internalType": "uint256",
          "name": "_idx",
          "type": "uint256"
        }
      ],
      "name": "getGameCreate",
      "outputs": [
        {
          "components": [
            {
              "internalType": "uint32",
              "name": "gameId",
              "type": "uint32"
            },
            {
              "internalType": "uint40",
              "name": "startTime",
              "type": "uint40"
            },
            {
              "internalType": "string",
              "name": "homeTeam",
              "type": "string"
            },
            {
              "internalType": "string",
              "name": "awayTeam",
              "type": "string"
            }
          ],
          "internalType": "struct IpFakeEnetScore.GameCreate",
          "name": "",
          "type": "tuple"
        }
      ],
      "stateMutability": "view",
      "type": "function"
    },
    {
      "inputs": [],
      "name": "getGlobalPrizePool",
      "outputs": [
        {
          "internalType": "uint256",
          "name": "",
          "type": "uint256"
        }
      ],
      "stateMutability": "view",
      "type": "function"
    },
    {
      "inputs": [
        {
          "internalType": "uint256",
          "name": "_contestId",
          "type": "uint256"
        }
      ],
      "name": "getListGamesPerContest",
      "outputs": [
        {
          "components": [
            {
              "internalType": "uint32",
              "name": "gameId",
              "type": "uint32"
            },
            {
              "internalType": "uint40",
              "name": "startTime",
              "type": "uint40"
            },
            {
              "internalType": "string",
              "name": "homeTeam",
              "type": "string"
            },
            {
              "internalType": "string",
              "name": "awayTeam",
              "type": "string"
            }
          ],
          "internalType": "struct IpFakeEnetScore.GameCreate[]",
          "name": "",
          "type": "tuple[]"
        }
      ],
      "stateMutability": "view",
      "type": "function"
    },
    {
      "inputs": [
        {
          "internalType": "uint256",
          "name": "_contestId",
          "type": "uint256"
        }
      ],
      "name": "getNumberOfGamesPerContest",
      "outputs": [
        {
          "internalType": "uint256",
          "name": "",
          "type": "uint256"
        }
      ],
      "stateMutability": "view",
      "type": "function"
    },
    {
      "inputs": [
        {
          "internalType": "string",
          "name": "_requestId",
          "type": "string"
        }
      ],
      "name": "getNumberOfGamesPerRequest",
      "outputs": [
        {
          "internalType": "uint256",
          "name": "",
          "type": "uint256"
        }
      ],
      "stateMutability": "view",
      "type": "function"
    },
    {
      "inputs": [
        {
          "internalType": "uint256",
          "name": "_contestId",
          "type": "uint256"
        }
      ],
      "name": "getNumberOfPlayers",
      "outputs": [
        {
          "internalType": "uint256",
          "name": "",
          "type": "uint256"
        }
      ],
      "stateMutability": "view",
      "type": "function"
    },
    {
      "inputs": [
        {
          "internalType": "uint256",
          "name": "_contestId",
          "type": "uint256"
        },
        {
          "internalType": "address",
          "name": "_player",
          "type": "address"
        }
      ],
      "name": "getPlayerRank",
      "outputs": [
        {
          "internalType": "uint256",
          "name": "",
          "type": "uint256"
        }
      ],
      "stateMutability": "view",
      "type": "function"
    },
    {
      "inputs": [
        {
          "internalType": "uint256",
          "name": "_contestId",
          "type": "uint256"
        },
        {
          "internalType": "address",
          "name": "_player",
          "type": "address"
        }
      ],
      "name": "getPrevisionsPerPlayerPerContest",
      "outputs": [
        {
          "components": [
            {
              "internalType": "uint32",
              "name": "gameId",
              "type": "uint32"
            },
            {
              "internalType": "uint8",
              "name": "homeScore",
              "type": "uint8"
            },
            {
              "internalType": "uint8",
              "name": "awayScore",
              "type": "uint8"
            }
          ],
          "internalType": "struct IpFakeEnetScore.GamePredict[]",
          "name": "",
          "type": "tuple[]"
        }
      ],
      "stateMutability": "view",
      "type": "function"
    },
    {
      "inputs": [
        {
          "internalType": "uint256",
          "name": "_contestId",
          "type": "uint256"
        }
      ],
      "name": "getRequestIdPerContest",
      "outputs": [
        {
          "internalType": "string[]",
          "name": "",
          "type": "string[]"
        }
      ],
      "stateMutability": "view",
      "type": "function"
    },
    {
      "inputs": [
        {
          "internalType": "uint32",
          "name": "_gameId",
          "type": "uint32"
        }
      ],
      "name": "getScorePerGameId",
      "outputs": [
        {
          "components": [
            {
              "internalType": "uint8",
              "name": "homeScore",
              "type": "uint8"
            },
            {
              "internalType": "uint8",
              "name": "awayScore",
              "type": "uint8"
            }
          ],
          "internalType": "struct IpFakeEnetScore.Scores",
          "name": "",
          "type": "tuple"
        }
      ],
      "stateMutability": "view",
      "type": "function"
    },
    {
      "inputs": [
        {
          "internalType": "uint256",
          "name": "_contestId",
          "type": "uint256"
        }
      ],
      "name": "getScoreTable",
      "outputs": [
        {
          "components": [
            {
              "internalType": "address",
              "name": "player",
              "type": "address"
            },
            {
              "internalType": "uint256",
              "name": "nbTickets",
              "type": "uint256"
            },
            {
              "internalType": "uint256",
              "name": "score",
              "type": "uint256"
            }
          ],
          "internalType": "struct InterpoolContract.PlayerScoreTicket[]",
          "name": "",
          "type": "tuple[]"
        }
      ],
      "stateMutability": "view",
      "type": "function"
    },
    {
      "inputs": [
        {
          "internalType": "uint256",
          "name": "",
          "type": "uint256"
        }
      ],
      "name": "nbTotalTicketsPerContest",
      "outputs": [
        {
          "internalType": "uint256",
          "name": "",
          "type": "uint256"
        }
      ],
      "stateMutability": "view",
      "type": "function"
    },
    {
      "inputs": [],
      "name": "owner",
      "outputs": [
        {
          "internalType": "address",
          "name": "",
          "type": "address"
        }
      ],
      "stateMutability": "view",
      "type": "function"
    },
    {
      "inputs": [],
      "name": "pause",
      "outputs": [],
      "stateMutability": "nonpayable",
      "type": "function"
    },
    {
      "inputs": [],
      "name": "paused",
      "outputs": [
        {
          "internalType": "bool",
          "name": "",
          "type": "bool"
        }
      ],
      "stateMutability": "view",
      "type": "function"
    },
    {
      "inputs": [],
      "name": "renounceOwnership",
      "outputs": [],
      "stateMutability": "nonpayable",
      "type": "function"
    },
    {
      "inputs": [
        {
          "components": [
            {
              "internalType": "uint32",
              "name": "gameId",
              "type": "uint32"
            },
            {
              "internalType": "uint8",
              "name": "homeScore",
              "type": "uint8"
            },
            {
              "internalType": "uint8",
              "name": "awayScore",
              "type": "uint8"
            }
          ],
          "internalType": "struct IpFakeEnetScore.GamePredict[]",
          "name": "_gamePredictions",
          "type": "tuple[]"
        }
      ],
      "name": "savePrediction",
      "outputs": [],
      "stateMutability": "nonpayable",
      "type": "function"
    },
    {
      "inputs": [
        {
          "components": [
            {
              "internalType": "uint32",
              "name": "gameId",
              "type": "uint32"
            },
            {
              "internalType": "uint8",
              "name": "homeScore",
              "type": "uint8"
            },
            {
              "internalType": "uint8",
              "name": "awayScore",
              "type": "uint8"
            },
            {
              "internalType": "string",
              "name": "status",
              "type": "string"
            }
          ],
          "internalType": "struct IpFakeEnetScore.GameResolve[]",
          "name": "_fakeGameResolve",
          "type": "tuple[]"
        }
      ],
      "name": "saveRequestResults",
      "outputs": [],
      "stateMutability": "nonpayable",
      "type": "function"
    },
    {
      "inputs": [
        {
          "internalType": "address",
          "name": "newOwner",
          "type": "address"
        }
      ],
      "name": "transferOwnership",
      "outputs": [],
      "stateMutability": "nonpayable",
      "type": "function"
    },
    {
      "inputs": [],
      "name": "unpause",
      "outputs": [],
      "stateMutability": "nonpayable",
      "type": "function"
    },
    {
      "inputs": [
        {
          "internalType": "uint256",
          "name": "_contestId",
          "type": "uint256"
        }
      ],
      "name": "updateContestTable",
      "outputs": [],
      "stateMutability": "nonpayable",
      "type": "function"
    }
  ],
  "bytecode": "0x60806040523480156200001157600080fd5b5060006008819055506200003a6200002e620001b760201b60201c565b620001bf60201b60201c565b6000600a60146101000a81548160ff02191690831515021790555073a2025b15a1757311bfd68cb14eaefcc237af5b43600d60006101000a81548173ffffffffffffffffffffffffffffffffffffffff021916908373ffffffffffffffffffffffffffffffffffffffff16021790555073368eedf3f56ad10b9bc57eed4dac65b26bb667f6601060006101000a81548173ffffffffffffffffffffffffffffffffffffffff021916908373ffffffffffffffffffffffffffffffffffffffff160217905550731ee669290939f8a8864497af3bc83728715265ff600e60006101000a81548173ffffffffffffffffffffffffffffffffffffffff021916908373ffffffffffffffffffffffffffffffffffffffff160217905550733cb49b846f13c89dee256e90a3e8830f6a6fa9d1600f60006101000a81548173ffffffffffffffffffffffffffffffffffffffff021916908373ffffffffffffffffffffffffffffffffffffffff160217905550600560128190555062000285565b600033905090565b6000600a60009054906101000a900473ffffffffffffffffffffffffffffffffffffffff16905081600a60006101000a81548173ffffffffffffffffffffffffffffffffffffffff021916908373ffffffffffffffffffffffffffffffffffffffff1602179055508173ffffffffffffffffffffffffffffffffffffffff168173ffffffffffffffffffffffffffffffffffffffff167f8be0079c531659141344cd1fd0a4f28419497f9722a3daafe3b4186f6b6457e060405160405180910390a35050565b615def80620002956000396000f3fe608060405234801561001057600080fd5b50600436106101e55760003560e01c80637e5dd9131161010f578063b4ace158116100a2578063ea6a041011610071578063ea6a0410146105e0578063f2fde38b14610610578063fb46bd221461062c578063fd8d19091461064a576101e5565b8063b4ace15814610546578063b66195b814610564578063baf6378314610594578063d6221518146105c4576101e5565b80638b617036116100de5780638b617036146104ac5780638da5cb5b146104dc578063946e18d9146104fa5780639fa75e9a1461052a576101e5565b80637e5dd913146104125780637fb9c45f1461044257806380b41a09146104725780638456cb59146104a2576101e5565b80632452a7e31161018757806357d088ff1161015657806357d088ff146103865780635c975abb146103ba57806362436d9d146103d8578063715018a614610408576101e5565b80632452a7e3146103005780633302787d146103305780633f4ba83a1461034c5780634fda591e14610356576101e5565b806318699547116101c357806318699547146102685780631d883342146102845780631e7741f0146102b45780631f2bf10c146102e4576101e5565b806308af2d78146101ea578063117f3998146102085780631506bca614610238575b600080fd5b6101f2610666565b6040516101ff9190613b7e565b60405180910390f35b610222600480360381019061021d9190613c37565b610686565b60405161022f9190613da3565b60405180910390f35b610252600480360381019061024d9190613dc5565b6108dd565b60405161025f9190613f4d565b60405180910390f35b610282600480360381019061027d919061418a565b6109c9565b005b61029e60048036038101906102999190613dc5565b610aa9565b6040516102ab9190613b7e565b60405180910390f35b6102ce60048036038101906102c99190614225565b610b4b565b6040516102db9190614281565b60405180910390f35b6102fe60048036038101906102f99190614474565b610bbe565b005b61031a60048036038101906103159190613dc5565b610d4d565b6040516103279190614621565b60405180910390f35b61034a600480360381019061034591906147e4565b610e3d565b005b610354610f8f565b005b610370600480360381019061036b9190613c37565b610fa1565b60405161037d9190613b7e565b60405180910390f35b6103a0600480360381019061039b919061482d565b6111d3565b6040516103b195949392919061487c565b60405180910390f35b6103c2611246565b6040516103cf91906148ea565b60405180910390f35b6103f260048036038101906103ed9190613dc5565b61125d565b6040516103ff9190613b7e565b60405180910390f35b61041061127d565b005b61042c60048036038101906104279190613dc5565b611291565b6040516104399190614a40565b60405180910390f35b61045c60048036038101906104579190613c37565b6115c0565b6040516104699190613b7e565b60405180910390f35b61048c60048036038101906104879190614a62565b6119d5565b6040516104999190614b28565b60405180910390f35b6104aa611ba1565b005b6104c660048036038101906104c19190614225565b611bb3565b6040516104d391906148ea565b60405180910390f35b6104e4611bd3565b6040516104f19190614b4a565b60405180910390f35b610514600480360381019061050f9190613dc5565b611bfd565b6040516105219190613b7e565b60405180910390f35b610544600480360381019061053f9190614c8c565b611c15565b005b61054e611f6b565b60405161055b9190613b7e565b60405180910390f35b61057e60048036038101906105799190613dc5565b6120ce565b60405161058b9190614dc6565b60405180910390f35b6105ae60048036038101906105a99190614f0f565b6122c2565b6040516105bb91906150a8565b60405180910390f35b6105de60048036038101906105d99190613dc5565b612c31565b005b6105fa60048036038101906105f591906150ca565b613142565b6040516106079190613b7e565b60405180910390f35b61062a60048036038101906106259190615113565b61316c565b005b6106346131ef565b6040516106419190613b7e565b60405180910390f35b610664600480360381019061065f9190613dc5565b6131f9565b005b600060026000600854815260200190815260200160002060010154905090565b6060600061069384610aa9565b90506000808267ffffffffffffffff8111156106b2576106b1613f74565b5b6040519080825280602002602001820160405280156106eb57816020015b6106d86139f2565b8152602001906001900390816106d05790505b50905060008367ffffffffffffffff81111561070a57610709613f74565b5b60405190808252806020026020018201604052801561074357816020015b610730613a1f565b8152602001906001900390816107285790505b50905061074f87611291565b905060005b848110156108cf5781818151811061076f5761076e615140565b5b602002602001015160000151935060405180606001604052808563ffffffff168152602001600460008a73ffffffffffffffffffffffffffffffffffffffff1673ffffffffffffffffffffffffffffffffffffffff16815260200190815260200160002060008b815260200190815260200160002060008763ffffffff1663ffffffff16815260200190815260200160002060000160009054906101000a900460ff1660ff168152602001600460008a73ffffffffffffffffffffffffffffffffffffffff1673ffffffffffffffffffffffffffffffffffffffff16815260200190815260200160002060008b815260200190815260200160002060008763ffffffff1663ffffffff16815260200190815260200160002060000160019054906101000a900460ff1660ff168152508382815181106108b1576108b0615140565b5b602002602001018190525080806108c79061519e565b915050610754565b508194505050505092915050565b606060016000838152602001908152602001600020805480602002602001604051908101604052809291908181526020016000905b828210156109be57838290600052602060002001805461093190615215565b80601f016020809104026020016040519081016040528092919081815260200182805461095d90615215565b80156109aa5780601f1061097f576101008083540402835291602001916109aa565b820191906000526020600020905b81548152906001019060200180831161098d57829003601f168201915b505050505081526020019060010190610912565b505050509050919050565b600860008154809291906109dc9061519e565b919050555060005b8251811015610a6257600160006008548152602001908152602001600020838281518110610a1557610a14615140565b5b6020026020010151908060018154018082558091505060019003906000526020600020016000909190919091509081610a4e91906153f2565b508080610a5a9061519e565b9150506109e4565b506040518060400160405280848152602001828152506002600060085481526020019081526020016000206000820151816000015560208201518160010155905050505050565b6000806000905060005b6001600085815260200190815260200160002080549050811015610b41576000600160008681526020019081526020016000208281548110610af857610af7615140565b5b90600052602060002001604051610b0f9190615552565b90815260200160405180910390208054905082610b2c9190615569565b91508080610b399061519e565b915050610ab3565b5080915050919050565b610b53613a54565b600360008363ffffffff1663ffffffff1681526020019081526020016000206040518060400160405290816000820160009054906101000a900460ff1660ff1660ff1681526020016000820160019054906101000a900460ff1660ff1660ff16815250509050919050565b60005b8151811015610d4857600083604051610bda91906155f0565b90815260200160405180910390206040518060800160405280848481518110610c0657610c05615140565b5b60200260200101516000015163ffffffff168152602001848481518110610c3057610c2f615140565b5b60200260200101516020015164ffffffffff168152602001848481518110610c5b57610c5a615140565b5b6020026020010151604001518152602001848481518110610c7f57610c7e615140565b5b602002602001015160600151815250908060018154018082558091505060019003906000526020600020906003020160009091909190915060008201518160000160006101000a81548163ffffffff021916908363ffffffff16021790555060208201518160000160046101000a81548164ffffffffff021916908364ffffffffff1602179055506040820151816001019081610d1c91906153f2565b506060820151816002019081610d3291906153f2565b5050508080610d409061519e565b915050610bc1565b505050565b606060136000838152602001908152602001600020805480602002602001604051908101604052809291908181526020016000905b82821015610e3257838290600052602060002090600502016040518060a00160405290816000820160009054906101000a900473ffffffffffffffffffffffffffffffffffffffff1673ffffffffffffffffffffffffffffffffffffffff1673ffffffffffffffffffffffffffffffffffffffff16815260200160018201548152602001600282015481526020016003820154815260200160048201548152505081526020019060010190610d82565b505050509050919050565b60005b8151811015610f8b576040518060400160405280838381518110610e6757610e66615140565b5b60200260200101516020015160ff168152602001838381518110610e8e57610e8d615140565b5b60200260200101516040015160ff1681525060036000848481518110610eb757610eb6615140565b5b60200260200101516000015163ffffffff1663ffffffff16815260200190815260200160002060008201518160000160006101000a81548160ff021916908360ff16021790555060208201518160000160016101000a81548160ff021916908360ff160217905550905050600160096000848481518110610f3b57610f3a615140565b5b60200260200101516000015163ffffffff1663ffffffff16815260200190815260200160002060006101000a81548160ff0219169083151502179055508080610f839061519e565b915050610e40565b5050565b610f9761370c565b610f9f61378a565b565b600080610fad846120ce565b9050600080825190506000808267ffffffffffffffff811115610fd357610fd2613f74565b5b60405190808252806020026020018201604052801561100c57816020015b610ff9613a74565b815260200190600190039081610ff15790505b50905060005b8381101561112e576001945060005b8481101561108f5786818151811061103c5761103b615140565b5b60200260200101516040015187838151811061105b5761105a615140565b5b602002602001015160400151101561107c5785806110789061519e565b9650505b80806110879061519e565b915050611021565b5060405180606001604052808783815181106110ae576110ad615140565b5b60200260200101516000015173ffffffffffffffffffffffffffffffffffffffff1681526020018783815181106110e8576110e7615140565b5b6020026020010151604001518152602001868152508282815181106111105761110f615140565b5b602002602001018190525080806111269061519e565b915050611012565b5060005b838110156111c45781818151811061114d5761114c615140565b5b60200260200101516000015173ffffffffffffffffffffffffffffffffffffffff168873ffffffffffffffffffffffffffffffffffffffff16036111b15781818151811061119e5761119d615140565b5b60200260200101516040015192506111c4565b80806111bc9061519e565b915050611132565b50819550505050505092915050565b601360205281600052604060002081815481106111ef57600080fd5b9060005260206000209060050201600091509150508060000160009054906101000a900473ffffffffffffffffffffffffffffffffffffffff16908060010154908060020154908060030154908060040154905085565b6000600a60149054906101000a900460ff16905090565b600060056000838152602001908152602001600020805490509050919050565b61128561370c565b61128f60006137ed565b565b6060600061129e83610aa9565b90506000808267ffffffffffffffff8111156112bd576112bc613f74565b5b6040519080825280602002602001820160405280156112f657816020015b6112e3613a1f565b8152602001906001900390816112db5790505b50905060005b60016000878152602001908152602001600020805490508110156115b457600060016000888152602001908152602001600020828154811061134157611340615140565b5b906000526020600020016040516113589190615552565b908152602001604051809103902080549050935060005b848110156115a057600060016000898152602001908152602001600020838154811061139e5761139d615140565b5b906000526020600020016040516113b59190615552565b908152602001604051809103902081815481106113d5576113d4615140565b5b90600052602060002090600302016040518060800160405290816000820160009054906101000a900463ffffffff1663ffffffff1663ffffffff1681526020016000820160049054906101000a900464ffffffffff1664ffffffffff1664ffffffffff16815260200160018201805461144d90615215565b80601f016020809104026020016040519081016040528092919081815260200182805461147990615215565b80156114c65780601f1061149b576101008083540402835291602001916114c6565b820191906000526020600020905b8154815290600101906020018083116114a957829003601f168201915b505050505081526020016002820180546114df90615215565b80601f016020809104026020016040519081016040528092919081815260200182805461150b90615215565b80156115585780601f1061152d57610100808354040283529160200191611558565b820191906000526020600020905b81548152906001019060200180831161153b57829003601f168201915b50505050508152505083858151811061157457611573615140565b5b6020026020010181905250838061158a9061519e565b94505080806115989061519e565b91505061136f565b5080806115ac9061519e565b9150506112fc565b50809350505050919050565b600080600080600090506000806115d688610aa9565b905060008167ffffffffffffffff8111156115f4576115f3613f74565b5b60405190808252806020026020018201604052801561162d57816020015b61161a613a1f565b8152602001906001900390816116125790505b50905061163989611291565b905060005b828110156119c55781818151811061165957611658615140565b5b602002602001015160000151935061176b600460008b73ffffffffffffffffffffffffffffffffffffffff1673ffffffffffffffffffffffffffffffffffffffff16815260200190815260200160002060008c815260200190815260200160002060008663ffffffff1663ffffffff16815260200190815260200160002060000160009054906101000a900460ff16600460008c73ffffffffffffffffffffffffffffffffffffffff1673ffffffffffffffffffffffffffffffffffffffff16815260200190815260200160002060008d815260200190815260200160002060008763ffffffff1663ffffffff16815260200190815260200160002060000160019054906101000a900460ff166138b3565b96506117d5600360008663ffffffff1663ffffffff16815260200190815260200160002060000160009054906101000a900460ff16600360008763ffffffff1663ffffffff16815260200190815260200160002060000160019054906101000a900460ff166138b3565b95508587148015611816575060011515600960008663ffffffff1663ffffffff16815260200190815260200160002060009054906101000a900460ff161515145b156119b2576001856118289190615569565b9450600360008563ffffffff1663ffffffff16815260200190815260200160002060000160009054906101000a900460ff1660ff16600460008b73ffffffffffffffffffffffffffffffffffffffff1673ffffffffffffffffffffffffffffffffffffffff16815260200190815260200160002060008c815260200190815260200160002060008663ffffffff1663ffffffff16815260200190815260200160002060000160009054906101000a900460ff1660ff1614801561199c5750600360008563ffffffff1663ffffffff16815260200190815260200160002060000160019054906101000a900460ff1660ff16600460008b73ffffffffffffffffffffffffffffffffffffffff1673ffffffffffffffffffffffffffffffffffffffff16815260200190815260200160002060008c815260200190815260200160002060008663ffffffff1663ffffffff16815260200190815260200160002060000160019054906101000a900460ff1660ff16145b156119b1576002856119ae9190615569565b94505b5b80806119bd9061519e565b91505061163e565b5083965050505050505092915050565b6119dd613a1f565b6000836040516119ed91906155f0565b90815260200160405180910390208281548110611a0d57611a0c615140565b5b90600052602060002090600302016040518060800160405290816000820160009054906101000a900463ffffffff1663ffffffff1663ffffffff1681526020016000820160049054906101000a900464ffffffffff1664ffffffffff1664ffffffffff168152602001600182018054611a8590615215565b80601f0160208091040260200160405190810160405280929190818152602001828054611ab190615215565b8015611afe5780601f10611ad357610100808354040283529160200191611afe565b820191906000526020600020905b815481529060010190602001808311611ae157829003601f168201915b50505050508152602001600282018054611b1790615215565b80601f0160208091040260200160405190810160405280929190818152602001828054611b4390615215565b8015611b905780601f10611b6557610100808354040283529160200191611b90565b820191906000526020600020905b815481529060010190602001808311611b7357829003601f168201915b505050505081525050905092915050565b611ba961370c565b611bb16138f4565b565b60096020528060005260406000206000915054906101000a900460ff1681565b6000600a60009054906101000a900473ffffffffffffffffffffffffffffffffffffffff16905090565b60146020528060005260406000206000915090505481565b6000600f60009054906101000a900473ffffffffffffffffffffffffffffffffffffffff1673ffffffffffffffffffffffffffffffffffffffff166370a08231336040518263ffffffff1660e01b8152600401611c729190614b4a565b602060405180830381865afa158015611c8f573d6000803e3d6000fd5b505050506040513d601f19601f82011682018060405250810190611cb3919061561c565b11611cf3576040517f08c379a0000000000000000000000000000000000000000000000000000000008152600401611cea906156cc565b60405180910390fd5b600260006008548152602001908152602001600020600101544210611d4d576040517f08c379a0000000000000000000000000000000000000000000000000000000008152600401611d4490615738565b60405180910390fd5b611d58600854610aa9565b815114611d9a576040517f08c379a0000000000000000000000000000000000000000000000000000000008152600401611d91906157ca565b60405180910390fd5b6000611da7600854610aa9565b905060005b81811015611ef0576040518060400160405280848381518110611dd257611dd1615140565b5b60200260200101516020015160ff168152602001848381518110611df957611df8615140565b5b60200260200101516040015160ff16815250600460003373ffffffffffffffffffffffffffffffffffffffff1673ffffffffffffffffffffffffffffffffffffffff168152602001908152602001600020600060085481526020019081526020016000206000858481518110611e7257611e71615140565b5b60200260200101516000015163ffffffff1663ffffffff16815260200190815260200160002060008201518160000160006101000a81548160ff021916908360ff16021790555060208201518160000160016101000a81548160ff021916908360ff1602179055509050508080611ee89061519e565b915050611dac565b50600560006008548152602001908152602001600020339080600181540180825580915050600190039060005260206000200160009091909190916101000a81548173ffffffffffffffffffffffffffffffffffffffff021916908373ffffffffffffffffffffffffffffffffffffffff1602179055505050565b600080600e60009054906101000a900473ffffffffffffffffffffffffffffffffffffffff1673ffffffffffffffffffffffffffffffffffffffff166370a08231306040518263ffffffff1660e01b8152600401611fc99190614b4a565b602060405180830381865afa158015611fe6573d6000803e3d6000fd5b505050506040513d601f19601f8201168201806040525081019061200a919061561c565b90506000620f42406032600f60009054906101000a900473ffffffffffffffffffffffffffffffffffffffff1673ffffffffffffffffffffffffffffffffffffffff166318160ddd6040518163ffffffff1660e01b8152600401602060405180830381865afa158015612081573d6000803e3d6000fd5b505050506040513d601f19601f820116820180604052508101906120a5919061561c565b6120af91906157ea565b6120b991906157ea565b905080826120c79190615844565b9250505090565b606060006005600084815260200190815260200160002080549050905060008060008367ffffffffffffffff81111561210a57612109613f74565b5b60405190808252806020026020018201604052801561214357816020015b612130613aab565b8152602001906001900390816121285790505b509050600080600090505b858110156122b45760056000898152602001908152602001600020818154811061217b5761217a615140565b5b9060005260206000200160009054906101000a900473ffffffffffffffffffffffffffffffffffffffff169450600f60009054906101000a900473ffffffffffffffffffffffffffffffffffffffff1673ffffffffffffffffffffffffffffffffffffffff166370a08231866040518263ffffffff1660e01b81526004016122039190614b4a565b602060405180830381865afa158015612220573d6000803e3d6000fd5b505050506040513d601f19601f82011682018060405250810190612244919061561c565b935061225088866115c0565b915060405180606001604052808673ffffffffffffffffffffffffffffffffffffffff1681526020018581526020018381525083828151811061229657612295615140565b5b602002602001018190525080806122ac9061519e565b91505061214e565b508195505050505050919050565b606060008060008080600080601460008b815260200190815260200160002054905060008167ffffffffffffffff811115612300576122ff613f74565b5b60405190808252806020026020018201604052801561233957816020015b612326613ae2565b81526020019060019003908161231e5790505b50905060008267ffffffffffffffff81111561235857612357613f74565b5b60405190808252806020026020018201604052801561239157816020015b61237e613a74565b8152602001906001900390816123765790505b50905060008367ffffffffffffffff8111156123b0576123af613f74565b5b6040519080825280602002602001820160405280156123e957816020015b6123d6613b12565b8152602001906001900390816123ce5790505b50905060005b8c518110156124ad5760008d828151811061240d5761240c615140565b5b6020026020010151905060005b8160200151811015612498576040518060400160405280836000015173ffffffffffffffffffffffffffffffffffffffff168152602001836040015181525086898151811061246c5761246b615140565b5b602002602001018190525087806124829061519e565b98505080806124909061519e565b91505061241a565b505080806124a59061519e565b9150506123ef565b5060005b848110156125d95760019a5060005b8581101561253a578481815181106124db576124da615140565b5b6020026020010151602001518583815181106124fa576124f9615140565b5b6020026020010151602001511015612527578b806125179061519e565b9c50508a8c1115612526578b9a505b5b80806125329061519e565b9150506124c0565b50604051806060016040528085838151811061255957612558615140565b5b60200260200101516000015173ffffffffffffffffffffffffffffffffffffffff16815260200185838151811061259357612592615140565b5b60200260200101516020015181526020018c8152508382815181106125bb576125ba615140565b5b602002602001018190525080806125d19061519e565b9150506124b1565b50600094506000600190505b8981116127175760005b85811015612703578184828151811061260b5761260a615140565b5b602002602001015160400151036126f0576040518060e0016040528085838151811061263a57612639615140565b5b60200260200101516000015173ffffffffffffffffffffffffffffffffffffffff16815260200185838151811061267457612673615140565b5b602002602001015160200151815260200185838151811061269857612697615140565b5b602002602001015160400151815260200160008152602001600081526020016000815260200160008152508388815181106126d6576126d5615140565b5b602002602001018190525086806126ec9061519e565b9750505b80806126fb9061519e565b9150506125ef565b50808061270f9061519e565b9150506125e5565b5060646012548960115461272b9190615844565b61273591906157ea565b61273f91906158a7565b9550858861274d9190615569565b9750858160008151811061276457612763615140565b5b60200260200101516060018181525050858160008151811061278957612788615140565b5b6020026020010151608001818152505085816000815181106127ae576127ad615140565b5b602002602001015160a001818152505085816000815181106127d3576127d2615140565b5b602002602001015160c00181815250506000600190505b84811015612c1d5760646012548a6011546128059190615844565b61280f91906157ea565b61281991906158a7565b96508682828151811061282f5761282e615140565b5b60200260200101516060018181525050868961284b9190615569565b98508882828151811061286157612860615140565b5b6020026020010151608001818152505060018561287e9190615844565b8114612a6457816001826128929190615844565b815181106128a3576128a2615140565b5b6020026020010151604001518282815181106128c2576128c1615140565b5b602002602001015160400151036129315786826001836128e29190615844565b815181106128f3576128f2615140565b5b602002602001015160a001516129099190615569565b82828151811061291c5761291b615140565b5b602002602001015160a0018181525050612a5f565b8682828151811061294557612944615140565b5b602002602001015160a00181815250508682828151811061296957612968615140565b5b602002602001015160c0018181525050816001826129879190615844565b8151811061299857612997615140565b5b6020026020010151604001518282815181106129b7576129b6615140565b5b6020026020010151604001516129cd9190615844565b975060005b88811015612a5d5788836001846129e99190615844565b815181106129fa576129f9615140565b5b602002602001015160a00151612a1091906158a7565b83600183612a1e9190615569565b84612a299190615844565b81518110612a3a57612a39615140565b5b602002602001015160c00181815250508080612a559061519e565b9150506129d2565b505b612c0a565b81600182612a729190615844565b81518110612a8357612a82615140565b5b602002602001015160400151828281518110612aa257612aa1615140565b5b60200260200101516040015103612bc0578682600183612ac29190615844565b81518110612ad357612ad2615140565b5b602002602001015160a00151612ae99190615569565b828281518110612afc57612afb615140565b5b602002602001015160a0018181525050818181518110612b1f57612b1e615140565b5b602002602001015160400151600186612b389190615569565b612b429190615844565b975060005b88811015612bba5788838381518110612b6357612b62615140565b5b602002602001015160a00151612b7991906158a7565b838284612b869190615844565b81518110612b9757612b96615140565b5b602002602001015160c00181815250508080612bb29061519e565b915050612b47565b50612c09565b86828281518110612bd457612bd3615140565b5b602002602001015160a001818152505086828281518110612bf857612bf7615140565b5b602002602001015160c00181815250505b5b8080612c159061519e565b9150506127ea565b50809a505050505050505050505092915050565b600f60009054906101000a900473ffffffffffffffffffffffffffffffffffffffff1673ffffffffffffffffffffffffffffffffffffffff166318160ddd6040518163ffffffff1660e01b8152600401602060405180830381865afa158015612c9e573d6000803e3d6000fd5b505050506040513d601f19601f82011682018060405250810190612cc2919061561c565b60146000838152602001908152602001600020819055506000612ce4826120ce565b90506000612cf283836122c2565b90506000601360008581526020019081526020016000206040518060a0016040528084600081518110612d2857612d27615140565b5b60200260200101516000015173ffffffffffffffffffffffffffffffffffffffff1681526020016001815260200184600081518110612d6a57612d69615140565b5b602002602001015160200151815260200184600081518110612d8f57612d8e615140565b5b602002602001015160400151815260200184600081518110612db457612db3615140565b5b602002602001015160c00151815250908060018154018082558091505060019003906000526020600020906005020160009091909190915060008201518160000160006101000a81548173ffffffffffffffffffffffffffffffffffffffff021916908373ffffffffffffffffffffffffffffffffffffffff1602179055506020820151816001015560408201518160020155606082015181600301556080820151816004015550506000600190505b601460008681526020019081526020016000205481101561313b5782600182612e8d9190615844565b81518110612e9e57612e9d615140565b5b60200260200101516000015173ffffffffffffffffffffffffffffffffffffffff16838281518110612ed357612ed2615140565b5b60200260200101516000015173ffffffffffffffffffffffffffffffffffffffff1603612fb657601360008681526020019081526020016000208281548110612f1f57612f1e615140565b5b90600052602060002090600502016001016000815480929190612f419061519e565b9190505550828181518110612f5957612f58615140565b5b602002602001015160c00151601360008781526020019081526020016000208381548110612f8a57612f89615140565b5b90600052602060002090600502016004016000828254612faa9190615569565b92505081905550613128565b601360008681526020019081526020016000206040518060a00160405280858481518110612fe757612fe6615140565b5b60200260200101516000015173ffffffffffffffffffffffffffffffffffffffff1681526020016001815260200185848151811061302857613027615140565b5b602002602001015160200151815260200185848151811061304c5761304b615140565b5b60200260200101516040015181526020018584815181106130705761306f615140565b5b602002602001015160c00151815250908060018154018082558091505060019003906000526020600020906005020160009091909190915060008201518160000160006101000a81548173ffffffffffffffffffffffffffffffffffffffff021916908373ffffffffffffffffffffffffffffffffffffffff16021790555060208201518160010155604082015181600201556060820151816003015560808201518160040155505081806131249061519e565b9250505b80806131339061519e565b915050612e64565b5050505050565b6000808260405161315391906155f0565b9081526020016040518091039020805490509050919050565b61317461370c565b600073ffffffffffffffffffffffffffffffffffffffff168173ffffffffffffffffffffffffffffffffffffffff16036131e3576040517f08c379a00000000000000000000000000000000000000000000000000000000081526004016131da9061594a565b60405180910390fd5b6131ec816137ed565b50565b6000600854905090565b6000603282613208919061596a565b14613248576040517f08c379a000000000000000000000000000000000000000000000000000000000815260040161323f90615a0d565b60405180910390fd5b600d60009054906101000a900473ffffffffffffffffffffffffffffffffffffffff1673ffffffffffffffffffffffffffffffffffffffff166370a08231336040518263ffffffff1660e01b81526004016132a39190614b4a565b602060405180830381865afa1580156132c0573d6000803e3d6000fd5b505050506040513d601f19601f820116820180604052508101906132e4919061561c565b620f4240826132f391906157ea565b1115613334576040517f08c379a000000000000000000000000000000000000000000000000000000000815260040161332b90615a79565b60405180910390fd5b600d60009054906101000a900473ffffffffffffffffffffffffffffffffffffffff1673ffffffffffffffffffffffffffffffffffffffff1663dd62ed3e33306040518363ffffffff1660e01b8152600401613391929190615a99565b602060405180830381865afa1580156133ae573d6000803e3d6000fd5b505050506040513d601f19601f820116820180604052508101906133d2919061561c565b620f4240826133e191906157ea565b1115613422576040517f08c379a000000000000000000000000000000000000000000000000000000000815260040161341990615b0e565b60405180910390fd5b600060328261343191906158a7565b9050600d60009054906101000a900473ffffffffffffffffffffffffffffffffffffffff1673ffffffffffffffffffffffffffffffffffffffff166323b872dd3330620f42408661348291906157ea565b6040518463ffffffff1660e01b81526004016134a093929190615b2e565b6020604051808303816000875af11580156134bf573d6000803e3d6000fd5b505050506040513d601f19601f820116820180604052508101906134e39190615b91565b50600d60009054906101000a900473ffffffffffffffffffffffffffffffffffffffff1673ffffffffffffffffffffffffffffffffffffffff1663095ea7b3601060009054906101000a900473ffffffffffffffffffffffffffffffffffffffff16620f42408561355491906157ea565b6040518363ffffffff1660e01b8152600401613571929190615bbe565b6020604051808303816000875af1158015613590573d6000803e3d6000fd5b505050506040513d601f19601f820116820180604052508101906135b49190615b91565b50601060009054906101000a900473ffffffffffffffffffffffffffffffffffffffff1673ffffffffffffffffffffffffffffffffffffffff1663617ba037600d60009054906101000a900473ffffffffffffffffffffffffffffffffffffffff16620f42408561362591906157ea565b3060006040518563ffffffff1660e01b81526004016136479493929190615c30565b600060405180830381600087803b15801561366157600080fd5b505af1158015613675573d6000803e3d6000fd5b50505050600f60009054906101000a900473ffffffffffffffffffffffffffffffffffffffff1673ffffffffffffffffffffffffffffffffffffffff166340c10f1933836040518363ffffffff1660e01b81526004016136d6929190615bbe565b600060405180830381600087803b1580156136f057600080fd5b505af1158015613704573d6000803e3d6000fd5b505050505050565b613714613957565b73ffffffffffffffffffffffffffffffffffffffff16613732611bd3565b73ffffffffffffffffffffffffffffffffffffffff1614613788576040517f08c379a000000000000000000000000000000000000000000000000000000000815260040161377f90615cc1565b60405180910390fd5b565b61379261395f565b6000600a60146101000a81548160ff0219169083151502179055507f5db9ee0a495bf2e6ff9c91a7834c1ba4fdd244a5e8aa4e537bd38aeae4b073aa6137d6613957565b6040516137e39190614b4a565b60405180910390a1565b6000600a60009054906101000a900473ffffffffffffffffffffffffffffffffffffffff16905081600a60006101000a81548173ffffffffffffffffffffffffffffffffffffffff021916908373ffffffffffffffffffffffffffffffffffffffff1602179055508173ffffffffffffffffffffffffffffffffffffffff168173ffffffffffffffffffffffffffffffffffffffff167f8be0079c531659141344cd1fd0a4f28419497f9722a3daafe3b4186f6b6457e060405160405180910390a35050565b6000808260ff168460ff1611156138cd57600090506138ea565b8360ff168360ff1611156138e457600290506138e9565b600190505b5b8091505092915050565b6138fc6139a8565b6001600a60146101000a81548160ff0219169083151502179055507f62e78cea01bee320cd4e420270b5ea74000d11b0c9f74754ebdbfc544b05a258613940613957565b60405161394d9190614b4a565b60405180910390a1565b600033905090565b613967611246565b6139a6576040517f08c379a000000000000000000000000000000000000000000000000000000000815260040161399d90615d2d565b60405180910390fd5b565b6139b0611246565b156139f0576040517f08c379a00000000000000000000000000000000000000000000000000000000081526004016139e790615d99565b60405180910390fd5b565b6040518060600160405280600063ffffffff168152602001600060ff168152602001600060ff1681525090565b6040518060800160405280600063ffffffff168152602001600064ffffffffff16815260200160608152602001606081525090565b6040518060400160405280600060ff168152602001600060ff1681525090565b6040518060600160405280600073ffffffffffffffffffffffffffffffffffffffff16815260200160008152602001600081525090565b6040518060600160405280600073ffffffffffffffffffffffffffffffffffffffff16815260200160008152602001600081525090565b6040518060400160405280600073ffffffffffffffffffffffffffffffffffffffff168152602001600081525090565b6040518060e00160405280600073ffffffffffffffffffffffffffffffffffffffff1681526020016000815260200160008152602001600081526020016000815260200160008152602001600081525090565b6000819050919050565b613b7881613b65565b82525050565b6000602082019050613b936000830184613b6f565b92915050565b6000604051905090565b600080fd5b600080fd5b613bb681613b65565b8114613bc157600080fd5b50565b600081359050613bd381613bad565b92915050565b600073ffffffffffffffffffffffffffffffffffffffff82169050919050565b6000613c0482613bd9565b9050919050565b613c1481613bf9565b8114613c1f57600080fd5b50565b600081359050613c3181613c0b565b92915050565b60008060408385031215613c4e57613c4d613ba3565b5b6000613c5c85828601613bc4565b9250506020613c6d85828601613c22565b9150509250929050565b600081519050919050565b600082825260208201905092915050565b6000819050602082019050919050565b600063ffffffff82169050919050565b613cbc81613ca3565b82525050565b600060ff82169050919050565b613cd881613cc2565b82525050565b606082016000820151613cf46000850182613cb3565b506020820151613d076020850182613ccf565b506040820151613d1a6040850182613ccf565b50505050565b6000613d2c8383613cde565b60608301905092915050565b6000602082019050919050565b6000613d5082613c77565b613d5a8185613c82565b9350613d6583613c93565b8060005b83811015613d96578151613d7d8882613d20565b9750613d8883613d38565b925050600181019050613d69565b5085935050505092915050565b60006020820190508181036000830152613dbd8184613d45565b905092915050565b600060208284031215613ddb57613dda613ba3565b5b6000613de984828501613bc4565b91505092915050565b600081519050919050565b600082825260208201905092915050565b6000819050602082019050919050565b600081519050919050565b600082825260208201905092915050565b60005b83811015613e58578082015181840152602081019050613e3d565b83811115613e67576000848401525b50505050565b6000601f19601f8301169050919050565b6000613e8982613e1e565b613e938185613e29565b9350613ea3818560208601613e3a565b613eac81613e6d565b840191505092915050565b6000613ec38383613e7e565b905092915050565b6000602082019050919050565b6000613ee382613df2565b613eed8185613dfd565b935083602082028501613eff85613e0e565b8060005b85811015613f3b5784840389528151613f1c8582613eb7565b9450613f2783613ecb565b925060208a01995050600181019050613f03565b50829750879550505050505092915050565b60006020820190508181036000830152613f678184613ed8565b905092915050565b600080fd5b7f4e487b7100000000000000000000000000000000000000000000000000000000600052604160045260246000fd5b613fac82613e6d565b810181811067ffffffffffffffff82111715613fcb57613fca613f74565b5b80604052505050565b6000613fde613b99565b9050613fea8282613fa3565b919050565b600067ffffffffffffffff82111561400a57614009613f74565b5b602082029050602081019050919050565b600080fd5b600080fd5b600067ffffffffffffffff8211156140405761403f613f74565b5b61404982613e6d565b9050602081019050919050565b82818337600083830152505050565b600061407861407384614025565b613fd4565b90508281526020810184848401111561409457614093614020565b5b61409f848285614056565b509392505050565b600082601f8301126140bc576140bb613f6f565b5b81356140cc848260208601614065565b91505092915050565b60006140e86140e384613fef565b613fd4565b9050808382526020820190506020840283018581111561410b5761410a61401b565b5b835b8181101561415257803567ffffffffffffffff8111156141305761412f613f6f565b5b80860161413d89826140a7565b8552602085019450505060208101905061410d565b5050509392505050565b600082601f83011261417157614170613f6f565b5b81356141818482602086016140d5565b91505092915050565b6000806000606084860312156141a3576141a2613ba3565b5b60006141b186828701613bc4565b935050602084013567ffffffffffffffff8111156141d2576141d1613ba8565b5b6141de8682870161415c565b92505060406141ef86828701613bc4565b9150509250925092565b61420281613ca3565b811461420d57600080fd5b50565b60008135905061421f816141f9565b92915050565b60006020828403121561423b5761423a613ba3565b5b600061424984828501614210565b91505092915050565b6040820160008201516142686000850182613ccf565b50602082015161427b6020850182613ccf565b50505050565b60006040820190506142966000830184614252565b92915050565b600067ffffffffffffffff8211156142b7576142b6613f74565b5b602082029050602081019050919050565b600080fd5b600080fd5b600064ffffffffff82169050919050565b6142ec816142d2565b81146142f757600080fd5b50565b600081359050614309816142e3565b92915050565b600060808284031215614325576143246142c8565b5b61432f6080613fd4565b9050600061433f84828501614210565b6000830152506020614353848285016142fa565b602083015250604082013567ffffffffffffffff811115614377576143766142cd565b5b614383848285016140a7565b604083015250606082013567ffffffffffffffff8111156143a7576143a66142cd565b5b6143b3848285016140a7565b60608301525092915050565b60006143d26143cd8461429c565b613fd4565b905080838252602082019050602084028301858111156143f5576143f461401b565b5b835b8181101561443c57803567ffffffffffffffff81111561441a57614419613f6f565b5b808601614427898261430f565b855260208501945050506020810190506143f7565b5050509392505050565b600082601f83011261445b5761445a613f6f565b5b813561446b8482602086016143bf565b91505092915050565b6000806040838503121561448b5761448a613ba3565b5b600083013567ffffffffffffffff8111156144a9576144a8613ba8565b5b6144b5858286016140a7565b925050602083013567ffffffffffffffff8111156144d6576144d5613ba8565b5b6144e285828601614446565b9150509250929050565b600081519050919050565b600082825260208201905092915050565b6000819050602082019050919050565b61452181613bf9565b82525050565b61453081613b65565b82525050565b60a08201600082015161454c6000850182614518565b50602082015161455f6020850182614527565b5060408201516145726040850182614527565b5060608201516145856060850182614527565b5060808201516145986080850182614527565b50505050565b60006145aa8383614536565b60a08301905092915050565b6000602082019050919050565b60006145ce826144ec565b6145d881856144f7565b93506145e383614508565b8060005b838110156146145781516145fb888261459e565b9750614606836145b6565b9250506001810190506145e7565b5085935050505092915050565b6000602082019050818103600083015261463b81846145c3565b905092915050565b600067ffffffffffffffff82111561465e5761465d613f74565b5b602082029050602081019050919050565b61467881613cc2565b811461468357600080fd5b50565b6000813590506146958161466f565b92915050565b6000608082840312156146b1576146b06142c8565b5b6146bb6080613fd4565b905060006146cb84828501614210565b60008301525060206146df84828501614686565b60208301525060406146f384828501614686565b604083015250606082013567ffffffffffffffff811115614717576147166142cd565b5b614723848285016140a7565b60608301525092915050565b600061474261473d84614643565b613fd4565b905080838252602082019050602084028301858111156147655761476461401b565b5b835b818110156147ac57803567ffffffffffffffff81111561478a57614789613f6f565b5b808601614797898261469b565b85526020850194505050602081019050614767565b5050509392505050565b600082601f8301126147cb576147ca613f6f565b5b81356147db84826020860161472f565b91505092915050565b6000602082840312156147fa576147f9613ba3565b5b600082013567ffffffffffffffff81111561481857614817613ba8565b5b614824848285016147b6565b91505092915050565b6000806040838503121561484457614843613ba3565b5b600061485285828601613bc4565b925050602061486385828601613bc4565b9150509250929050565b61487681613bf9565b82525050565b600060a082019050614891600083018861486d565b61489e6020830187613b6f565b6148ab6040830186613b6f565b6148b86060830185613b6f565b6148c56080830184613b6f565b9695505050505050565b60008115159050919050565b6148e4816148cf565b82525050565b60006020820190506148ff60008301846148db565b92915050565b600081519050919050565b600082825260208201905092915050565b6000819050602082019050919050565b61493a816142d2565b82525050565b60006080830160008301516149586000860182613cb3565b50602083015161496b6020860182614931565b50604083015184820360408601526149838282613e7e565b9150506060830151848203606086015261499d8282613e7e565b9150508091505092915050565b60006149b68383614940565b905092915050565b6000602082019050919050565b60006149d682614905565b6149e08185614910565b9350836020820285016149f285614921565b8060005b85811015614a2e5784840389528151614a0f85826149aa565b9450614a1a836149be565b925060208a019950506001810190506149f6565b50829750879550505050505092915050565b60006020820190508181036000830152614a5a81846149cb565b905092915050565b60008060408385031215614a7957614a78613ba3565b5b600083013567ffffffffffffffff811115614a9757614a96613ba8565b5b614aa3858286016140a7565b9250506020614ab485828601613bc4565b9150509250929050565b6000608083016000830151614ad66000860182613cb3565b506020830151614ae96020860182614931565b5060408301518482036040860152614b018282613e7e565b91505060608301518482036060860152614b1b8282613e7e565b9150508091505092915050565b60006020820190508181036000830152614b428184614abe565b905092915050565b6000602082019050614b5f600083018461486d565b92915050565b600067ffffffffffffffff821115614b8057614b7f613f74565b5b602082029050602081019050919050565b600060608284031215614ba757614ba66142c8565b5b614bb16060613fd4565b90506000614bc184828501614210565b6000830152506020614bd584828501614686565b6020830152506040614be984828501614686565b60408301525092915050565b6000614c08614c0384614b65565b613fd4565b90508083825260208201905060608402830185811115614c2b57614c2a61401b565b5b835b81811015614c545780614c408882614b91565b845260208401935050606081019050614c2d565b5050509392505050565b600082601f830112614c7357614c72613f6f565b5b8135614c83848260208601614bf5565b91505092915050565b600060208284031215614ca257614ca1613ba3565b5b600082013567ffffffffffffffff811115614cc057614cbf613ba8565b5b614ccc84828501614c5e565b91505092915050565b600081519050919050565b600082825260208201905092915050565b6000819050602082019050919050565b606082016000820151614d176000850182614518565b506020820151614d2a6020850182614527565b506040820151614d3d6040850182614527565b50505050565b6000614d4f8383614d01565b60608301905092915050565b6000602082019050919050565b6000614d7382614cd5565b614d7d8185614ce0565b9350614d8883614cf1565b8060005b83811015614db9578151614da08882614d43565b9750614dab83614d5b565b925050600181019050614d8c565b5085935050505092915050565b60006020820190508181036000830152614de08184614d68565b905092915050565b600067ffffffffffffffff821115614e0357614e02613f74565b5b602082029050602081019050919050565b600060608284031215614e2a57614e296142c8565b5b614e346060613fd4565b90506000614e4484828501613c22565b6000830152506020614e5884828501613bc4565b6020830152506040614e6c84828501613bc4565b60408301525092915050565b6000614e8b614e8684614de8565b613fd4565b90508083825260208201905060608402830185811115614eae57614ead61401b565b5b835b81811015614ed75780614ec38882614e14565b845260208401935050606081019050614eb0565b5050509392505050565b600082601f830112614ef657614ef5613f6f565b5b8135614f06848260208601614e78565b91505092915050565b60008060408385031215614f2657614f25613ba3565b5b6000614f3485828601613bc4565b925050602083013567ffffffffffffffff811115614f5557614f54613ba8565b5b614f6185828601614ee1565b9150509250929050565b600081519050919050565b600082825260208201905092915050565b6000819050602082019050919050565b60e082016000820151614fad6000850182614518565b506020820151614fc06020850182614527565b506040820151614fd36040850182614527565b506060820151614fe66060850182614527565b506080820151614ff96080850182614527565b5060a082015161500c60a0850182614527565b5060c082015161501f60c0850182614527565b50505050565b60006150318383614f97565b60e08301905092915050565b6000602082019050919050565b600061505582614f6b565b61505f8185614f76565b935061506a83614f87565b8060005b8381101561509b5781516150828882615025565b975061508d8361503d565b92505060018101905061506e565b5085935050505092915050565b600060208201905081810360008301526150c2818461504a565b905092915050565b6000602082840312156150e0576150df613ba3565b5b600082013567ffffffffffffffff8111156150fe576150fd613ba8565b5b61510a848285016140a7565b91505092915050565b60006020828403121561512957615128613ba3565b5b600061513784828501613c22565b91505092915050565b7f4e487b7100000000000000000000000000000000000000000000000000000000600052603260045260246000fd5b7f4e487b7100000000000000000000000000000000000000000000000000000000600052601160045260246000fd5b60006151a982613b65565b91507fffffffffffffffffffffffffffffffffffffffffffffffffffffffffffffffff82036151db576151da61516f565b5b600182019050919050565b7f4e487b7100000000000000000000000000000000000000000000000000000000600052602260045260246000fd5b6000600282049050600182168061522d57607f821691505b6020821081036152405761523f6151e6565b5b50919050565b60008190508160005260206000209050919050565b60006020601f8301049050919050565b600082821b905092915050565b6000600883026152a87fffffffffffffffffffffffffffffffffffffffffffffffffffffffffffffffff8261526b565b6152b2868361526b565b95508019841693508086168417925050509392505050565b6000819050919050565b60006152ef6152ea6152e584613b65565b6152ca565b613b65565b9050919050565b6000819050919050565b615309836152d4565b61531d615315826152f6565b848454615278565b825550505050565b600090565b615332615325565b61533d818484615300565b505050565b5b818110156153615761535660008261532a565b600181019050615343565b5050565b601f8211156153a65761537781615246565b6153808461525b565b8101602085101561538f578190505b6153a361539b8561525b565b830182615342565b50505b505050565b600082821c905092915050565b60006153c9600019846008026153ab565b1980831691505092915050565b60006153e283836153b8565b9150826002028217905092915050565b6153fb82613e1e565b67ffffffffffffffff81111561541457615413613f74565b5b61541e8254615215565b615429828285615365565b600060209050601f83116001811461545c576000841561544a578287015190505b61545485826153d6565b8655506154bc565b601f19841661546a86615246565b60005b828110156154925784890151825560018201915060208501945060208101905061546d565b868310156154af57848901516154ab601f8916826153b8565b8355505b6001600288020188555050505b505050505050565b600081905092915050565b600081546154dc81615215565b6154e681866154c4565b94506001821660008114615501576001811461551657615549565b60ff1983168652811515820286019350615549565b61551f85615246565b60005b8381101561554157815481890152600182019150602081019050615522565b838801955050505b50505092915050565b600061555e82846154cf565b915081905092915050565b600061557482613b65565b915061557f83613b65565b9250827fffffffffffffffffffffffffffffffffffffffffffffffffffffffffffffffff038211156155b4576155b361516f565b5b828201905092915050565b60006155ca82613e1e565b6155d481856154c4565b93506155e4818560208601613e3a565b80840191505092915050565b60006155fc82846155bf565b915081905092915050565b60008151905061561681613bad565b92915050565b60006020828403121561563257615631613ba3565b5b600061564084828501615607565b91505092915050565b600082825260208201905092915050565b7f596f75206e6565642061207469636b657420666f7220736176696e672070726560008201527f64696374696f6e73210000000000000000000000000000000000000000000000602082015250565b60006156b6602983615649565b91506156c18261565a565b604082019050919050565b600060208201905081810360008301526156e5816156a9565b9050919050565b7f50726564696374696f6e20506572696f6420697320636c6f7365642100000000600082015250565b6000615722601c83615649565b915061572d826156ec565b602082019050919050565b6000602082019050818103600083015261575181615715565b9050919050565b7f546865206e756d626572206f662070726564696374696f6e7320646f65736e2760008201527f74206d6174636821000000000000000000000000000000000000000000000000602082015250565b60006157b4602883615649565b91506157bf82615758565b604082019050919050565b600060208201905081810360008301526157e3816157a7565b9050919050565b60006157f582613b65565b915061580083613b65565b9250817fffffffffffffffffffffffffffffffffffffffffffffffffffffffffffffffff04831182151516156158395761583861516f565b5b828202905092915050565b600061584f82613b65565b915061585a83613b65565b92508282101561586d5761586c61516f565b5b828203905092915050565b7f4e487b7100000000000000000000000000000000000000000000000000000000600052601260045260246000fd5b60006158b282613b65565b91506158bd83613b65565b9250826158cd576158cc615878565b5b828204905092915050565b7f4f776e61626c653a206e6577206f776e657220697320746865207a65726f206160008201527f6464726573730000000000000000000000000000000000000000000000000000602082015250565b6000615934602683615649565b915061593f826158d8565b604082019050919050565b6000602082019050818103600083015261596381615927565b9050919050565b600061597582613b65565b915061598083613b65565b9250826159905761598f615878565b5b828206905092915050565b7f54686520616d6f756e74206d7573742062652061206d756c7469706c65206f6660008201527f2035300000000000000000000000000000000000000000000000000000000000602082015250565b60006159f7602383615649565b9150615a028261599b565b604082019050919050565b60006020820190508181036000830152615a26816159ea565b9050919050565b7f496e737566666963656e7420616d6f756e74206f662055534443000000000000600082015250565b6000615a63601a83615649565b9150615a6e82615a2d565b602082019050919050565b60006020820190508181036000830152615a9281615a56565b9050919050565b6000604082019050615aae600083018561486d565b615abb602083018461486d565b9392505050565b7f496e73756666696369656e7420616c6c6f776564205553444300000000000000600082015250565b6000615af8601983615649565b9150615b0382615ac2565b602082019050919050565b60006020820190508181036000830152615b2781615aeb565b9050919050565b6000606082019050615b43600083018661486d565b615b50602083018561486d565b615b5d6040830184613b6f565b949350505050565b615b6e816148cf565b8114615b7957600080fd5b50565b600081519050615b8b81615b65565b92915050565b600060208284031215615ba757615ba6613ba3565b5b6000615bb584828501615b7c565b91505092915050565b6000604082019050615bd3600083018561486d565b615be06020830184613b6f565b9392505050565b6000819050919050565b600061ffff82169050919050565b6000615c1a615c15615c1084615be7565b6152ca565b615bf1565b9050919050565b615c2a81615bff565b82525050565b6000608082019050615c45600083018761486d565b615c526020830186613b6f565b615c5f604083018561486d565b615c6c6060830184615c21565b95945050505050565b7f4f776e61626c653a2063616c6c6572206973206e6f7420746865206f776e6572600082015250565b6000615cab602083615649565b9150615cb682615c75565b602082019050919050565b60006020820190508181036000830152615cda81615c9e565b9050919050565b7f5061757361626c653a206e6f7420706175736564000000000000000000000000600082015250565b6000615d17601483615649565b9150615d2282615ce1565b602082019050919050565b60006020820190508181036000830152615d4681615d0a565b9050919050565b7f5061757361626c653a2070617573656400000000000000000000000000000000600082015250565b6000615d83601083615649565b9150615d8e82615d4d565b602082019050919050565b60006020820190508181036000830152615db281615d76565b905091905056fea26469706673582212205ed8afd0d8dd73f27a2d0205470717ec90b13d7078b2d12509ccb44b52d6552364736f6c634300080f0033",
  "linkReferences": {},
  "deployedLinkReferences": {}
}