{
  "_format": "hh-sol-artifact-1",
  "contractName": "InterpoolContract",
  "sourceName": "contracts/InterpoolContract.sol",
  "abi": [
    {
      "inputs": [],
      "stateMutability": "nonpayable",
      "type": "constructor"
    },
    {
      "anonymous": false,
      "inputs": [
        {
          "indexed": true,
          "internalType": "address",
          "name": "previousOwner",
          "type": "address"
        },
        {
          "indexed": true,
          "internalType": "address",
          "name": "newOwner",
          "type": "address"
        }
      ],
      "name": "OwnershipTransferred",
      "type": "event"
    },
    {
      "anonymous": false,
      "inputs": [
        {
          "indexed": false,
          "internalType": "address",
          "name": "account",
          "type": "address"
        }
      ],
      "name": "Paused",
      "type": "event"
    },
    {
      "anonymous": false,
      "inputs": [
        {
          "indexed": false,
          "internalType": "address",
          "name": "account",
          "type": "address"
        }
      ],
      "name": "Unpaused",
      "type": "event"
    },
    {
      "inputs": [
        {
          "internalType": "uint256",
          "name": "_contestId",
          "type": "uint256"
        },
        {
          "components": [
            {
              "internalType": "address",
              "name": "player",
              "type": "address"
            },
            {
              "internalType": "uint256",
              "name": "nbTickets",
              "type": "uint256"
            },
            {
              "internalType": "uint256",
              "name": "score",
              "type": "uint256"
            }
          ],
          "internalType": "struct InterpoolContract.PlayerScoreTicket[]",
          "name": "_scoreTable",
          "type": "tuple[]"
        }
      ],
      "name": "calculateGain",
      "outputs": [
        {
          "components": [
            {
              "internalType": "address",
              "name": "player",
              "type": "address"
            },
            {
              "internalType": "uint256",
              "name": "score",
              "type": "uint256"
            },
            {
              "internalType": "uint256",
              "name": "rankExAequo",
              "type": "uint256"
            },
            {
              "internalType": "uint256",
              "name": "rewardNoExAequo",
              "type": "uint256"
            },
            {
              "internalType": "uint256",
              "name": "cumulatedRewardsNoExAequo",
              "type": "uint256"
            },
            {
              "internalType": "uint256",
              "name": "cumulatedRewardsPerRank",
              "type": "uint256"
            },
            {
              "internalType": "uint256",
              "name": "rewardPerRankPerPlayer",
              "type": "uint256"
            }
          ],
          "internalType": "struct InterpoolContract.Gain[]",
          "name": "",
          "type": "tuple[]"
        }
      ],
      "stateMutability": "view",
      "type": "function"
    },
    {
      "inputs": [
        {
          "internalType": "uint256",
          "name": "_contestId",
          "type": "uint256"
        },
        {
          "internalType": "address",
          "name": "_player",
          "type": "address"
        }
      ],
      "name": "checkResult",
      "outputs": [
        {
          "internalType": "uint256",
          "name": "",
          "type": "uint256"
        }
      ],
      "stateMutability": "view",
      "type": "function"
    },
    {
      "inputs": [],
      "name": "claimFromInterpool",
      "outputs": [],
      "stateMutability": "nonpayable",
      "type": "function"
    },
    {
      "inputs": [
        {
          "internalType": "uint256",
          "name": "",
          "type": "uint256"
        },
        {
          "internalType": "uint256",
          "name": "",
          "type": "uint256"
        }
      ],
      "name": "contestTable",
      "outputs": [
        {
          "internalType": "address",
          "name": "player",
          "type": "address"
        },
        {
          "internalType": "uint256",
          "name": "nbTickets",
          "type": "uint256"
        },
        {
          "internalType": "uint256",
          "name": "score",
          "type": "uint256"
        },
        {
          "internalType": "uint256",
          "name": "rankExAequo",
          "type": "uint256"
        },
        {
          "internalType": "uint256",
          "name": "rewardPerRankPerPlayer",
          "type": "uint256"
        }
      ],
      "stateMutability": "view",
      "type": "function"
    },
    {
      "inputs": [
        {
          "internalType": "uint256",
          "name": "_leagueId",
          "type": "uint256"
        },
        {
          "internalType": "string[]",
          "name": "_listRequestId",
          "type": "string[]"
        },
        {
          "internalType": "uint256",
          "name": "_dateEndContest",
          "type": "uint256"
        }
      ],
      "name": "createContest",
      "outputs": [],
      "stateMutability": "nonpayable",
      "type": "function"
    },
    {
      "inputs": [
        {
          "internalType": "uint256",
          "name": "_amount",
          "type": "uint256"
        }
      ],
      "name": "depositOnAave",
      "outputs": [],
      "stateMutability": "nonpayable",
      "type": "function"
    },
    {
      "inputs": [],
      "name": "getContestPredictionEndDate",
      "outputs": [
        {
          "internalType": "uint256",
          "name": "",
          "type": "uint256"
        }
      ],
      "stateMutability": "view",
      "type": "function"
    },
    {
      "inputs": [
        {
          "internalType": "uint256",
          "name": "_contestId",
          "type": "uint256"
        }
      ],
      "name": "getContestTable",
      "outputs": [
        {
          "components": [
            {
              "internalType": "address",
              "name": "player",
              "type": "address"
            },
            {
              "internalType": "uint256",
              "name": "nbTickets",
              "type": "uint256"
            },
            {
              "internalType": "uint256",
              "name": "score",
              "type": "uint256"
            },
            {
              "internalType": "uint256",
              "name": "rankExAequo",
              "type": "uint256"
            },
            {
              "internalType": "uint256",
              "name": "rewardPerRankPerPlayer",
              "type": "uint256"
            }
          ],
          "internalType": "struct InterpoolContract.ContestResult[]",
          "name": "",
          "type": "tuple[]"
        }
      ],
      "stateMutability": "view",
      "type": "function"
    },
    {
      "inputs": [],
      "name": "getCurrentContestId",
      "outputs": [
        {
          "internalType": "uint256",
          "name": "",
          "type": "uint256"
        }
      ],
      "stateMutability": "view",
      "type": "function"
    },
    {
      "inputs": [],
      "name": "getGlobalPrizePool",
      "outputs": [
        {
          "internalType": "uint256",
          "name": "",
          "type": "uint256"
        }
      ],
      "stateMutability": "view",
      "type": "function"
    },
    {
      "inputs": [
        {
          "internalType": "uint256",
          "name": "_contestId",
          "type": "uint256"
        }
      ],
      "name": "getListGamesPerContest",
      "outputs": [
        {
          "components": [
            {
              "internalType": "uint32",
              "name": "gameId",
              "type": "uint32"
            },
            {
              "internalType": "uint40",
              "name": "startTime",
              "type": "uint40"
            },
            {
              "internalType": "string",
              "name": "homeTeam",
              "type": "string"
            },
            {
              "internalType": "string",
              "name": "awayTeam",
              "type": "string"
            }
          ],
          "internalType": "struct InterpoolContract.GameCreate[]",
          "name": "",
          "type": "tuple[]"
        }
      ],
      "stateMutability": "view",
      "type": "function"
    },
    {
      "inputs": [
        {
          "internalType": "uint256",
          "name": "_contestId",
          "type": "uint256"
        }
      ],
      "name": "getNumberOfGamesPerContest",
      "outputs": [
        {
          "internalType": "uint256",
          "name": "",
          "type": "uint256"
        }
      ],
      "stateMutability": "view",
      "type": "function"
    },
    {
      "inputs": [
        {
          "internalType": "string",
          "name": "_requestId",
          "type": "string"
        }
      ],
      "name": "getNumberOfGamesPerRequest",
      "outputs": [
        {
          "internalType": "uint256",
          "name": "",
          "type": "uint256"
        }
      ],
      "stateMutability": "view",
      "type": "function"
    },
    {
      "inputs": [
        {
          "internalType": "uint256",
          "name": "_contestId",
          "type": "uint256"
        }
      ],
      "name": "getNumberOfPlayers",
      "outputs": [
        {
          "internalType": "uint256",
          "name": "",
          "type": "uint256"
        }
      ],
      "stateMutability": "view",
      "type": "function"
    },
    {
      "inputs": [
        {
          "internalType": "uint256",
          "name": "_contestId",
          "type": "uint256"
        },
        {
          "internalType": "address",
          "name": "_player",
          "type": "address"
        }
      ],
      "name": "getPlayerRank",
      "outputs": [
        {
          "internalType": "uint256",
          "name": "",
          "type": "uint256"
        }
      ],
      "stateMutability": "view",
      "type": "function"
    },
    {
      "inputs": [
        {
          "internalType": "uint256",
          "name": "_contestId",
          "type": "uint256"
        },
        {
          "internalType": "address",
          "name": "_player",
          "type": "address"
        }
      ],
      "name": "getPrevisionsPerPlayerPerContest",
      "outputs": [
        {
          "components": [
            {
              "internalType": "uint32",
              "name": "gameId",
              "type": "uint32"
            },
            {
              "internalType": "uint8",
              "name": "homeScore",
              "type": "uint8"
            },
            {
              "internalType": "uint8",
              "name": "awayScore",
              "type": "uint8"
            }
          ],
          "internalType": "struct InterpoolContract.GamePredict[]",
          "name": "",
          "type": "tuple[]"
        }
      ],
      "stateMutability": "view",
      "type": "function"
    },
    {
      "inputs": [
        {
          "internalType": "uint256",
          "name": "_contestId",
          "type": "uint256"
        }
      ],
      "name": "getRequestIdPerContest",
      "outputs": [
        {
          "internalType": "string[]",
          "name": "",
          "type": "string[]"
        }
      ],
      "stateMutability": "view",
      "type": "function"
    },
    {
      "inputs": [
        {
          "internalType": "uint256",
          "name": "_contestId",
          "type": "uint256"
        }
      ],
      "name": "getScoreTable",
      "outputs": [
        {
          "components": [
            {
              "internalType": "address",
              "name": "player",
              "type": "address"
            },
            {
              "internalType": "uint256",
              "name": "nbTickets",
              "type": "uint256"
            },
            {
              "internalType": "uint256",
              "name": "score",
              "type": "uint256"
            }
          ],
          "internalType": "struct InterpoolContract.PlayerScoreTicket[]",
          "name": "",
          "type": "tuple[]"
        }
      ],
      "stateMutability": "view",
      "type": "function"
    },
    {
      "inputs": [
        {
          "internalType": "address",
          "name": "_player",
          "type": "address"
        }
      ],
      "name": "getWinningsPerPlayer",
      "outputs": [
        {
          "components": [
            {
              "internalType": "uint256",
              "name": "pendingWinnings",
              "type": "uint256"
            },
            {
              "internalType": "uint256",
              "name": "claimedWinnings",
              "type": "uint256"
            }
          ],
          "internalType": "struct IpPool.Winnings",
          "name": "",
          "type": "tuple"
        }
      ],
      "stateMutability": "view",
      "type": "function"
    },
    {
      "inputs": [],
      "name": "globalPendingWinnings",
      "outputs": [
        {
          "internalType": "uint256",
          "name": "",
          "type": "uint256"
        }
      ],
      "stateMutability": "view",
      "type": "function"
    },
    {
      "inputs": [
        {
          "internalType": "uint256",
          "name": "",
          "type": "uint256"
        }
      ],
      "name": "nbTotalTicketsPerContest",
      "outputs": [
        {
          "internalType": "uint256",
          "name": "",
          "type": "uint256"
        }
      ],
      "stateMutability": "view",
      "type": "function"
    },
    {
      "inputs": [],
      "name": "owner",
      "outputs": [
        {
          "internalType": "address",
          "name": "",
          "type": "address"
        }
      ],
      "stateMutability": "view",
      "type": "function"
    },
    {
      "inputs": [],
      "name": "pause",
      "outputs": [],
      "stateMutability": "nonpayable",
      "type": "function"
    },
    {
      "inputs": [],
      "name": "paused",
      "outputs": [
        {
          "internalType": "bool",
          "name": "",
          "type": "bool"
        }
      ],
      "stateMutability": "view",
      "type": "function"
    },
    {
      "inputs": [],
      "name": "renounceOwnership",
      "outputs": [],
      "stateMutability": "nonpayable",
      "type": "function"
    },
    {
      "inputs": [
        {
          "components": [
            {
              "internalType": "uint32",
              "name": "gameId",
              "type": "uint32"
            },
            {
              "internalType": "uint8",
              "name": "homeScore",
              "type": "uint8"
            },
            {
              "internalType": "uint8",
              "name": "awayScore",
              "type": "uint8"
            }
          ],
          "internalType": "struct InterpoolContract.GamePredict[]",
          "name": "_gamePredictions",
          "type": "tuple[]"
        }
      ],
      "name": "savePrediction",
      "outputs": [],
      "stateMutability": "nonpayable",
      "type": "function"
    },
    {
      "inputs": [
        {
          "internalType": "address",
          "name": "newOwner",
          "type": "address"
        }
      ],
      "name": "transferOwnership",
      "outputs": [],
      "stateMutability": "nonpayable",
      "type": "function"
    },
    {
      "inputs": [],
      "name": "unpause",
      "outputs": [],
      "stateMutability": "nonpayable",
      "type": "function"
    },
    {
      "inputs": [
        {
          "internalType": "uint256",
          "name": "_contestId",
          "type": "uint256"
        }
      ],
      "name": "updateContestTable",
      "outputs": [],
      "stateMutability": "nonpayable",
      "type": "function"
    },
    {
      "inputs": [
        {
          "internalType": "address",
          "name": "",
          "type": "address"
        }
      ],
      "name": "winningsPerPlayer",
      "outputs": [
        {
          "internalType": "uint256",
          "name": "pendingWinnings",
          "type": "uint256"
        },
        {
          "internalType": "uint256",
          "name": "claimedWinnings",
          "type": "uint256"
        }
      ],
      "stateMutability": "view",
      "type": "function"
    },
    {
      "inputs": [
        {
          "internalType": "uint256",
          "name": "_nbTickets",
          "type": "uint256"
        }
      ],
      "name": "withdrawFromInterpool",
      "outputs": [],
      "stateMutability": "nonpayable",
      "type": "function"
    }
  ],
  "bytecode": "0x60806040523480156200001157600080fd5b5062000032620000266200021360201b60201c565b6200021b60201b60201c565b60008060146101000a81548160ff02191690831515021790555073a2025b15a1757311bfd68cb14eaefcc237af5b43600360006101000a81548173ffffffffffffffffffffffffffffffffffffffff021916908373ffffffffffffffffffffffffffffffffffffffff16021790555073368eedf3f56ad10b9bc57eed4dac65b26bb667f6600660006101000a81548173ffffffffffffffffffffffffffffffffffffffff021916908373ffffffffffffffffffffffffffffffffffffffff160217905550731ee669290939f8a8864497af3bc83728715265ff600460006101000a81548173ffffffffffffffffffffffffffffffffffffffff021916908373ffffffffffffffffffffffffffffffffffffffff16021790555073d81e4a61fd6bf066539df6ea48bfaeae847dcda1600560006101000a81548173ffffffffffffffffffffffffffffffffffffffff021916908373ffffffffffffffffffffffffffffffffffffffff160217905550600060028190555073973680af677b40128b8c4015e2ef4c0d889ed7b0600f60006101000a81548173ffffffffffffffffffffffffffffffffffffffff021916908373ffffffffffffffffffffffffffffffffffffffff16021790555060056007819055506000600e81905550620002df565b600033905090565b60008060009054906101000a900473ffffffffffffffffffffffffffffffffffffffff169050816000806101000a81548173ffffffffffffffffffffffffffffffffffffffff021916908373ffffffffffffffffffffffffffffffffffffffff1602179055508173ffffffffffffffffffffffffffffffffffffffff168173ffffffffffffffffffffffffffffffffffffffff167f8be0079c531659141344cd1fd0a4f28419497f9722a3daafe3b4186f6b6457e060405160405180910390a35050565b615f6880620002ef6000396000f3fe608060405234801561001057600080fd5b50600436106101e55760003560e01c80637e5dd9131161010f578063b66195b8116100a2578063ea6a041011610071578063ea6a0410146105bd578063f2fde38b146105ed578063fb46bd2214610609578063fd8d190914610627576101e5565b8063b66195b814610525578063baf6378314610555578063c014cbb414610585578063d6221518146105a1576101e5565b80638da5cb5b116100de5780638da5cb5b1461049d578063946e18d9146104bb5780639fa75e9a146104eb578063b4ace15814610507576101e5565b80637e5dd913146104035780637fb9c45f146104335780638456cb59146104635780638ad2e8641461046d576101e5565b80633f4ba83a116101875780635c975abb116101565780635c975abb146103a157806362436d9d146103bf5780636711c530146103ef578063715018a6146103f9576101e5565b80633f4ba83a14610315578063419441751461031f5780634fda591e1461033d57806357d088ff1461036d576101e5565b806315ccbe53116101c357806315ccbe531461026857806318699547146102995780631d883342146102b55780632452a7e3146102e5576101e5565b806308af2d78146101ea578063117f3998146102085780631506bca614610238575b600080fd5b6101f2610643565b6040516101ff9190613eb9565b60405180910390f35b610222600480360381019061021d9190613f72565b610663565b60405161022f91906140de565b60405180910390f35b610252600480360381019061024d9190614100565b6108ba565b60405161025f9190614288565b60405180910390f35b610282600480360381019061027d91906142aa565b6109a6565b6040516102909291906142d7565b60405180910390f35b6102b360048036038101906102ae919061451b565b6109ca565b005b6102cf60048036038101906102ca9190614100565b610aaa565b6040516102dc9190613eb9565b60405180910390f35b6102ff60048036038101906102fa9190614100565b610bc6565b60405161030c91906146bf565b60405180910390f35b61031d610cb6565b005b610327610cc8565b6040516103349190613eb9565b60405180910390f35b61035760048036038101906103529190613f72565b610cce565b6040516103649190613eb9565b60405180910390f35b610387600480360381019061038291906146e1565b610f00565b604051610398959493929190614730565b60405180910390f35b6103a9610f73565b6040516103b6919061479e565b60405180910390f35b6103d960048036038101906103d49190614100565b610f89565b6040516103e69190613eb9565b60405180910390f35b6103f7610fa9565b005b6104016111f3565b005b61041d60048036038101906104189190614100565b611207565b60405161042a9190614905565b60405180910390f35b61044d60048036038101906104489190613f72565b61151d565b60405161045a9190613eb9565b60405180910390f35b61046b611989565b005b610487600480360381019061048291906142aa565b61199b565b6040516104949190614956565b60405180910390f35b6104a5611a08565b6040516104b29190614971565b60405180910390f35b6104d560048036038101906104d09190614100565b611a31565b6040516104e29190613eb9565b60405180910390f35b61050560048036038101906105009190614b10565b611a49565b005b61050f611e72565b60405161051c9190613eb9565b60405180910390f35b61053f600480360381019061053a9190614100565b611fe2565b60405161054c9190614c4a565b60405180910390f35b61056f600480360381019061056a9190614d93565b6121d6565b60405161057c9190614f2c565b60405180910390f35b61059f600480360381019061059a9190614100565b612b4e565b005b6105bb60048036038101906105b69190614100565b612d8b565b005b6105d760048036038101906105d29190614f4e565b61340b565b6040516105e49190613eb9565b60405180910390f35b610607600480360381019061060291906142aa565b6134b0565b005b610611613533565b60405161061e9190613eb9565b60405180910390f35b610641600480360381019061063c9190614100565b61353d565b005b6000600b6000600e54815260200190815260200160002060010154905090565b6060600061067084610aaa565b90506000808267ffffffffffffffff81111561068f5761068e614305565b5b6040519080825280602002602001820160405280156106c857816020015b6106b5613d33565b8152602001906001900390816106ad5790505b50905060008367ffffffffffffffff8111156106e7576106e6614305565b5b60405190808252806020026020018201604052801561072057816020015b61070d613d60565b8152602001906001900390816107055790505b50905061072c87611207565b905060005b848110156108ac5781818151811061074c5761074b614f97565b5b602002602001015160000151935060405180606001604052808563ffffffff168152602001600c60008a73ffffffffffffffffffffffffffffffffffffffff1673ffffffffffffffffffffffffffffffffffffffff16815260200190815260200160002060008b815260200190815260200160002060008763ffffffff1663ffffffff16815260200190815260200160002060000160009054906101000a900460ff1660ff168152602001600c60008a73ffffffffffffffffffffffffffffffffffffffff1673ffffffffffffffffffffffffffffffffffffffff16815260200190815260200160002060008b815260200190815260200160002060008763ffffffff1663ffffffff16815260200190815260200160002060000160019054906101000a900460ff1660ff1681525083828151811061088e5761088d614f97565b5b602002602001018190525080806108a490614ff5565b915050610731565b508194505050505092915050565b6060600a6000838152602001908152602001600020805480602002602001604051908101604052809291908181526020016000905b8282101561099b57838290600052602060002001805461090e9061506c565b80601f016020809104026020016040519081016040528092919081815260200182805461093a9061506c565b80156109875780601f1061095c57610100808354040283529160200191610987565b820191906000526020600020905b81548152906001019060200180831161096a57829003601f168201915b5050505050815260200190600101906108ef565b505050509050919050565b60016020528060005260406000206000915090508060000154908060010154905082565b600e60008154809291906109dd90614ff5565b919050555060005b8251811015610a6357600a6000600e548152602001908152602001600020838281518110610a1657610a15614f97565b5b6020026020010151908060018154018082558091505060019003906000526020600020016000909190919091509081610a4f9190615249565b508080610a5b90614ff5565b9150506109e5565b50604051806040016040528084815260200182815250600b6000600e5481526020019081526020016000206000820151816000015560208201518160010155905050505050565b6000806000905060005b600a600085815260200190815260200160002080549050811015610bbc57600f60009054906101000a900473ffffffffffffffffffffffffffffffffffffffff1673ffffffffffffffffffffffffffffffffffffffff1663ea6a0410600a60008781526020019081526020016000208381548110610b3557610b34614f97565b5b906000526020600020016040518263ffffffff1660e01b8152600401610b5b91906153b0565b602060405180830381865afa158015610b78573d6000803e3d6000fd5b505050506040513d601f19601f82011682018060405250810190610b9c91906153e7565b82610ba79190615414565b91508080610bb490614ff5565b915050610ab4565b5080915050919050565b606060086000838152602001908152602001600020805480602002602001604051908101604052809291908181526020016000905b82821015610cab57838290600052602060002090600502016040518060a00160405290816000820160009054906101000a900473ffffffffffffffffffffffffffffffffffffffff1673ffffffffffffffffffffffffffffffffffffffff1673ffffffffffffffffffffffffffffffffffffffff16815260200160018201548152602001600282015481526020016003820154815260200160048201548152505081526020019060010190610bfb565b505050509050919050565b610cbe613a50565b610cc6613ace565b565b60025481565b600080610cda84611fe2565b9050600080825190506000808267ffffffffffffffff811115610d0057610cff614305565b5b604051908082528060200260200182016040528015610d3957816020015b610d26613d95565b815260200190600190039081610d1e5790505b50905060005b83811015610e5b576001945060005b84811015610dbc57868181518110610d6957610d68614f97565b5b602002602001015160400151878381518110610d8857610d87614f97565b5b6020026020010151604001511015610da9578580610da590614ff5565b9650505b8080610db490614ff5565b915050610d4e565b506040518060600160405280878381518110610ddb57610dda614f97565b5b60200260200101516000015173ffffffffffffffffffffffffffffffffffffffff168152602001878381518110610e1557610e14614f97565b5b602002602001015160400151815260200186815250828281518110610e3d57610e3c614f97565b5b60200260200101819052508080610e5390614ff5565b915050610d3f565b5060005b83811015610ef157818181518110610e7a57610e79614f97565b5b60200260200101516000015173ffffffffffffffffffffffffffffffffffffffff168873ffffffffffffffffffffffffffffffffffffffff1603610ede57818181518110610ecb57610eca614f97565b5b6020026020010151604001519250610ef1565b8080610ee990614ff5565b915050610e5f565b50819550505050505092915050565b60086020528160005260406000208181548110610f1c57600080fd5b9060005260206000209060050201600091509150508060000160009054906101000a900473ffffffffffffffffffffffffffffffffffffffff16908060010154908060020154908060030154908060040154905085565b60008060149054906101000a900460ff16905090565b6000600d6000838152602001908152602001600020805490509050919050565b6000600160003373ffffffffffffffffffffffffffffffffffffffff1673ffffffffffffffffffffffffffffffffffffffff168152602001908152602001600020600001541161102e576040517f08c379a0000000000000000000000000000000000000000000000000000000008152600401611025906154b6565b60405180910390fd5b6000600160003373ffffffffffffffffffffffffffffffffffffffff1673ffffffffffffffffffffffffffffffffffffffff168152602001908152602001600020600001549050600660009054906101000a900473ffffffffffffffffffffffffffffffffffffffff1673ffffffffffffffffffffffffffffffffffffffff166369328dec600360009054906101000a900473ffffffffffffffffffffffffffffffffffffffff16620f4240846110e591906154d6565b336040518463ffffffff1660e01b815260040161110493929190615530565b600060405180830381600087803b15801561111e57600080fd5b505af1158015611132573d6000803e3d6000fd5b505050506000600160003373ffffffffffffffffffffffffffffffffffffffff1673ffffffffffffffffffffffffffffffffffffffff1681526020019081526020016000206000018190555080600160003373ffffffffffffffffffffffffffffffffffffffff1673ffffffffffffffffffffffffffffffffffffffff16815260200190815260200160002060010160008282546111d09190615414565b9250508190555080600260008282546111e99190615567565b9250508190555050565b6111fb613a50565b6112056000613b30565b565b6060600061121483610aaa565b90506000808267ffffffffffffffff81111561123357611232614305565b5b60405190808252806020026020018201604052801561126c57816020015b611259613d60565b8152602001906001900390816112515790505b50905060005b600a60008781526020019081526020016000208054905081101561151157600f60009054906101000a900473ffffffffffffffffffffffffffffffffffffffff1673ffffffffffffffffffffffffffffffffffffffff1663ea6a0410600a600089815260200190815260200160002083815481106112f3576112f2614f97565b5b906000526020600020016040518263ffffffff1660e01b815260040161131991906153b0565b602060405180830381865afa158015611336573d6000803e3d6000fd5b505050506040513d601f19601f8201168201806040525081019061135a91906153e7565b935060005b848110156114fd57600f60009054906101000a900473ffffffffffffffffffffffffffffffffffffffff1673ffffffffffffffffffffffffffffffffffffffff1663cdfba66a600a60008a815260200190815260200160002084815481106113ca576113c9614f97565b5b90600052602060002001836040518363ffffffff1660e01b81526004016113f292919061559b565b600060405180830381865afa15801561140f573d6000803e3d6000fd5b505050506040513d6000823e3d601f19601f82011682018060405250810190611438919061567c565b86888151811061144b5761144a614f97565b5b602002602001015160000187898151811061146957611468614f97565b5b6020026020010151602001888a8151811061148757611486614f97565b5b6020026020010151604001898b815181106114a5576114a4614f97565b5b60200260200101516060018490528490528464ffffffffff1664ffffffffff168152508463ffffffff1663ffffffff168152505050505083806114e790614ff5565b94505080806114f590614ff5565b91505061135f565b50808061150990614ff5565b915050611272565b50809350505050919050565b6000806000806000905060008061153388610aaa565b905060008167ffffffffffffffff81111561155157611550614305565b5b60405190808252806020026020018201604052801561158a57816020015b611577613d60565b81526020019060019003908161156f5790505b50905061159689611207565b905060005b82811015611979578181815181106115b6576115b5614f97565b5b60200260200101516000015193506116c8600c60008b73ffffffffffffffffffffffffffffffffffffffff1673ffffffffffffffffffffffffffffffffffffffff16815260200190815260200160002060008c815260200190815260200160002060008663ffffffff1663ffffffff16815260200190815260200160002060000160009054906101000a900460ff16600c60008c73ffffffffffffffffffffffffffffffffffffffff1673ffffffffffffffffffffffffffffffffffffffff16815260200190815260200160002060008d815260200190815260200160002060008763ffffffff1663ffffffff16815260200190815260200160002060000160019054906101000a900460ff16613bf4565b9650600080600f60009054906101000a900473ffffffffffffffffffffffffffffffffffffffff1673ffffffffffffffffffffffffffffffffffffffff16633c09f3be876040518263ffffffff1660e01b8152600401611728919061572a565b6040805180830381865afa158015611744573d6000803e3d6000fd5b505050506040513d601f19601f82011682018060405250810190611768919061575a565b915091506117768282613bf4565b97508789148015611826575060011515600f60009054906101000a900473ffffffffffffffffffffffffffffffffffffffff1673ffffffffffffffffffffffffffffffffffffffff166314ea531d886040518263ffffffff1660e01b81526004016117e1919061572a565b602060405180830381865afa1580156117fe573d6000803e3d6000fd5b505050506040513d601f19601f8201168201806040525081019061182291906157c6565b1515145b15611964576001876118389190615414565b96508160ff16600c60008d73ffffffffffffffffffffffffffffffffffffffff1673ffffffffffffffffffffffffffffffffffffffff16815260200190815260200160002060008e815260200190815260200160002060008863ffffffff1663ffffffff16815260200190815260200160002060000160009054906101000a900460ff1660ff1614801561194e57508060ff16600c60008d73ffffffffffffffffffffffffffffffffffffffff1673ffffffffffffffffffffffffffffffffffffffff16815260200190815260200160002060008e815260200190815260200160002060008863ffffffff1663ffffffff16815260200190815260200160002060000160019054906101000a900460ff1660ff16145b15611963576002876119609190615414565b96505b5b5050808061197190614ff5565b91505061159b565b5083965050505050505092915050565b611991613a50565b611999613c35565b565b6119a3613dcc565b600160008373ffffffffffffffffffffffffffffffffffffffff1673ffffffffffffffffffffffffffffffffffffffff168152602001908152602001600020604051806040016040529081600082015481526020016001820154815250509050919050565b60008060009054906101000a900473ffffffffffffffffffffffffffffffffffffffff16905090565b60096020528060005260406000206000915090505481565b6000600560009054906101000a900473ffffffffffffffffffffffffffffffffffffffff1673ffffffffffffffffffffffffffffffffffffffff166370a08231336040518263ffffffff1660e01b8152600401611aa69190614971565b602060405180830381865afa158015611ac3573d6000803e3d6000fd5b505050506040513d601f19601f82011682018060405250810190611ae791906153e7565b11611b27576040517f08c379a0000000000000000000000000000000000000000000000000000000008152600401611b1e90615865565b60405180910390fd5b600b6000600e548152602001908152602001600020600101544210611b81576040517f08c379a0000000000000000000000000000000000000000000000000000000008152600401611b78906158d1565b60405180910390fd5b611b8c600e54610aaa565b815114611bce576040517f08c379a0000000000000000000000000000000000000000000000000000000008152600401611bc590615963565b60405180910390fd5b6000611bdb600e54610aaa565b905060005b81811015611d24576040518060400160405280848381518110611c0657611c05614f97565b5b60200260200101516020015160ff168152602001848381518110611c2d57611c2c614f97565b5b60200260200101516040015160ff16815250600c60003373ffffffffffffffffffffffffffffffffffffffff1673ffffffffffffffffffffffffffffffffffffffff1681526020019081526020016000206000600e5481526020019081526020016000206000858481518110611ca657611ca5614f97565b5b60200260200101516000015163ffffffff1663ffffffff16815260200190815260200160002060008201518160000160006101000a81548160ff021916908360ff16021790555060208201518160000160016101000a81548160ff021916908360ff1602179055509050508080611d1c90614ff5565b915050611be0565b50600080600090505b600d6000600e54815260200190815260200160002080549050811015611de957600d6000600e5481526020019081526020016000208181548110611d7457611d73614f97565b5b9060005260206000200160009054906101000a900473ffffffffffffffffffffffffffffffffffffffff1673ffffffffffffffffffffffffffffffffffffffff163373ffffffffffffffffffffffffffffffffffffffff1603611dd657600191505b8080611de190614ff5565b915050611d2d565b506000151581151503611e6d57600d6000600e548152602001908152602001600020339080600181540180825580915050600190039060005260206000200160009091909190916101000a81548173ffffffffffffffffffffffffffffffffffffffff021916908373ffffffffffffffffffffffffffffffffffffffff1602179055505b505050565b600080600460009054906101000a900473ffffffffffffffffffffffffffffffffffffffff1673ffffffffffffffffffffffffffffffffffffffff166370a08231306040518263ffffffff1660e01b8152600401611ed09190614971565b602060405180830381865afa158015611eed573d6000803e3d6000fd5b505050506040513d601f19601f82011682018060405250810190611f1191906153e7565b90506000620f42406032600560009054906101000a900473ffffffffffffffffffffffffffffffffffffffff1673ffffffffffffffffffffffffffffffffffffffff166318160ddd6040518163ffffffff1660e01b8152600401602060405180830381865afa158015611f88573d6000803e3d6000fd5b505050506040513d601f19601f82011682018060405250810190611fac91906153e7565b611fb691906154d6565b611fc091906154d6565b90506002548183611fd19190615567565b611fdb9190615567565b9250505090565b60606000600d600084815260200190815260200160002080549050905060008060008367ffffffffffffffff81111561201e5761201d614305565b5b60405190808252806020026020018201604052801561205757816020015b612044613de6565b81526020019060019003908161203c5790505b509050600080600090505b858110156121c857600d6000898152602001908152602001600020818154811061208f5761208e614f97565b5b9060005260206000200160009054906101000a900473ffffffffffffffffffffffffffffffffffffffff169450600560009054906101000a900473ffffffffffffffffffffffffffffffffffffffff1673ffffffffffffffffffffffffffffffffffffffff166370a08231866040518263ffffffff1660e01b81526004016121179190614971565b602060405180830381865afa158015612134573d6000803e3d6000fd5b505050506040513d601f19601f8201168201806040525081019061215891906153e7565b9350612164888661151d565b915060405180606001604052808673ffffffffffffffffffffffffffffffffffffffff168152602001858152602001838152508382815181106121aa576121a9614f97565b5b602002602001018190525080806121c090614ff5565b915050612062565b508195505050505050919050565b6060600080600080806000806121ea611e72565b90506000600960008c815260200190815260200160002054905060008167ffffffffffffffff8111156122205761221f614305565b5b60405190808252806020026020018201604052801561225957816020015b612246613e1d565b81526020019060019003908161223e5790505b50905060008267ffffffffffffffff81111561227857612277614305565b5b6040519080825280602002602001820160405280156122b157816020015b61229e613d95565b8152602001906001900390816122965790505b50905060008367ffffffffffffffff8111156122d0576122cf614305565b5b60405190808252806020026020018201604052801561230957816020015b6122f6613e4d565b8152602001906001900390816122ee5790505b50905060005b8d518110156123cd5760008e828151811061232d5761232c614f97565b5b6020026020010151905060005b81602001518110156123b8576040518060400160405280836000015173ffffffffffffffffffffffffffffffffffffffff1681526020018360400151815250868a8151811061238c5761238b614f97565b5b602002602001018190525088806123a290614ff5565b99505080806123b090614ff5565b91505061233a565b505080806123c590614ff5565b91505061230f565b5060005b848110156124f95760019b5060005b8581101561245a578481815181106123fb576123fa614f97565b5b60200260200101516020015185838151811061241a57612419614f97565b5b6020026020010151602001511015612447578c8061243790614ff5565b9d50508b8d1115612446578c9b505b5b808061245290614ff5565b9150506123e0565b50604051806060016040528085838151811061247957612478614f97565b5b60200260200101516000015173ffffffffffffffffffffffffffffffffffffffff1681526020018583815181106124b3576124b2614f97565b5b60200260200101516020015181526020018d8152508382815181106124db576124da614f97565b5b602002602001018190525080806124f190614ff5565b9150506123d1565b50600095506000600190505b8a81116126375760005b85811015612623578184828151811061252b5761252a614f97565b5b60200260200101516040015103612610576040518060e0016040528085838151811061255a57612559614f97565b5b60200260200101516000015173ffffffffffffffffffffffffffffffffffffffff16815260200185838151811061259457612593614f97565b5b60200260200101516020015181526020018583815181106125b8576125b7614f97565b5b602002602001015160400151815260200160008152602001600081526020016000815260200160008152508389815181106125f6576125f5614f97565b5b6020026020010181905250878061260c90614ff5565b9850505b808061261b90614ff5565b91505061250f565b50808061262f90614ff5565b915050612505565b5060646007548a876126499190615567565b61265391906154d6565b61265d91906159b2565b9650868961266b9190615414565b9850868160008151811061268257612681614f97565b5b6020026020010151606001818152505086816000815181106126a7576126a6614f97565b5b6020026020010151608001818152505086816000815181106126cc576126cb614f97565b5b602002602001015160a001818152505086816000815181106126f1576126f0614f97565b5b602002602001015160c00181815250506000600190505b84811015612b395760646007548b886127219190615567565b61272b91906154d6565b61273591906159b2565b97508782828151811061274b5761274a614f97565b5b60200260200101516060018181525050878a6127679190615414565b99508982828151811061277d5761277c614f97565b5b6020026020010151608001818152505060018561279a9190615567565b811461298057816001826127ae9190615567565b815181106127bf576127be614f97565b5b6020026020010151604001518282815181106127de576127dd614f97565b5b6020026020010151604001510361284d5787826001836127fe9190615567565b8151811061280f5761280e614f97565b5b602002602001015160a001516128259190615414565b82828151811061283857612837614f97565b5b602002602001015160a001818152505061297b565b8782828151811061286157612860614f97565b5b602002602001015160a00181815250508782828151811061288557612884614f97565b5b602002602001015160c0018181525050816001826128a39190615567565b815181106128b4576128b3614f97565b5b6020026020010151604001518282815181106128d3576128d2614f97565b5b6020026020010151604001516128e99190615567565b985060005b898110156129795789836001846129059190615567565b8151811061291657612915614f97565b5b602002602001015160a0015161292c91906159b2565b8360018361293a9190615414565b846129459190615567565b8151811061295657612955614f97565b5b602002602001015160c0018181525050808061297190614ff5565b9150506128ee565b505b612b26565b8160018261298e9190615567565b8151811061299f5761299e614f97565b5b6020026020010151604001518282815181106129be576129bd614f97565b5b60200260200101516040015103612adc5787826001836129de9190615567565b815181106129ef576129ee614f97565b5b602002602001015160a00151612a059190615414565b828281518110612a1857612a17614f97565b5b602002602001015160a0018181525050818181518110612a3b57612a3a614f97565b5b602002602001015160400151600186612a549190615414565b612a5e9190615567565b985060005b89811015612ad65789838381518110612a7f57612a7e614f97565b5b602002602001015160a00151612a9591906159b2565b838284612aa29190615567565b81518110612ab357612ab2614f97565b5b602002602001015160c00181815250508080612ace90614ff5565b915050612a63565b50612b25565b87828281518110612af057612aef614f97565b5b602002602001015160a001818152505087828281518110612b1457612b13614f97565b5b602002602001015160c00181815250505b5b8080612b3190614ff5565b915050612708565b50809b50505050505050505050505092915050565b80600560009054906101000a900473ffffffffffffffffffffffffffffffffffffffff1673ffffffffffffffffffffffffffffffffffffffff166370a08231336040518263ffffffff1660e01b8152600401612baa9190614971565b602060405180830381865afa158015612bc7573d6000803e3d6000fd5b505050506040513d601f19601f82011682018060405250810190612beb91906153e7565b1015612c2c576040517f08c379a0000000000000000000000000000000000000000000000000000000008152600401612c2390615a2f565b60405180910390fd5b600560009054906101000a900473ffffffffffffffffffffffffffffffffffffffff1673ffffffffffffffffffffffffffffffffffffffff16639dc29fac33836040518363ffffffff1660e01b8152600401612c89929190615a4f565b600060405180830381600087803b158015612ca357600080fd5b505af1158015612cb7573d6000803e3d6000fd5b50505050600660009054906101000a900473ffffffffffffffffffffffffffffffffffffffff1673ffffffffffffffffffffffffffffffffffffffff166369328dec600360009054906101000a900473ffffffffffffffffffffffffffffffffffffffff16620f4240603285612d2d91906154d6565b612d3791906154d6565b336040518463ffffffff1660e01b8152600401612d5693929190615530565b600060405180830381600087803b158015612d7057600080fd5b505af1158015612d84573d6000803e3d6000fd5b5050505050565b600560009054906101000a900473ffffffffffffffffffffffffffffffffffffffff1673ffffffffffffffffffffffffffffffffffffffff166318160ddd6040518163ffffffff1660e01b8152600401602060405180830381865afa158015612df8573d6000803e3d6000fd5b505050506040513d601f19601f82011682018060405250810190612e1c91906153e7565b60096000838152602001908152602001600020819055506000612e3e82611fe2565b90506000612e4c83836121d6565b90506000600860008581526020019081526020016000206040518060a0016040528084600081518110612e8257612e81614f97565b5b60200260200101516000015173ffffffffffffffffffffffffffffffffffffffff1681526020016001815260200184600081518110612ec457612ec3614f97565b5b602002602001015160200151815260200184600081518110612ee957612ee8614f97565b5b602002602001015160400151815260200184600081518110612f0e57612f0d614f97565b5b602002602001015160c00151815250908060018154018082558091505060019003906000526020600020906005020160009091909190915060008201518160000160006101000a81548173ffffffffffffffffffffffffffffffffffffffff021916908373ffffffffffffffffffffffffffffffffffffffff1602179055506020820151816001015560408201518160020155606082015181600301556080820151816004015550506000600190505b60096000868152602001908152602001600020548110156132955782600182612fe79190615567565b81518110612ff857612ff7614f97565b5b60200260200101516000015173ffffffffffffffffffffffffffffffffffffffff1683828151811061302d5761302c614f97565b5b60200260200101516000015173ffffffffffffffffffffffffffffffffffffffff16036131105760086000868152602001908152602001600020828154811061307957613078614f97565b5b9060005260206000209060050201600101600081548092919061309b90614ff5565b91905055508281815181106130b3576130b2614f97565b5b602002602001015160c001516008600087815260200190815260200160002083815481106130e4576130e3614f97565b5b906000526020600020906005020160040160008282546131049190615414565b92505081905550613282565b600860008681526020019081526020016000206040518060a0016040528085848151811061314157613140614f97565b5b60200260200101516000015173ffffffffffffffffffffffffffffffffffffffff1681526020016001815260200185848151811061318257613181614f97565b5b60200260200101516020015181526020018584815181106131a6576131a5614f97565b5b60200260200101516040015181526020018584815181106131ca576131c9614f97565b5b602002602001015160c00151815250908060018154018082558091505060019003906000526020600020906005020160009091909190915060008201518160000160006101000a81548173ffffffffffffffffffffffffffffffffffffffff021916908373ffffffffffffffffffffffffffffffffffffffff160217905550602082015181600101556040820151816002015560608201518160030155608082015181600401555050818061327e90614ff5565b9250505b808061328d90614ff5565b915050612fbe565b5060005b60086000868152602001908152602001600020805490508110156134045760006008600087815260200190815260200160002082815481106132de576132dd614f97565b5b906000526020600020906005020160000160009054906101000a900473ffffffffffffffffffffffffffffffffffffffff16905060086000878152602001908152602001600020828154811061333757613336614f97565b5b906000526020600020906005020160040154600160008373ffffffffffffffffffffffffffffffffffffffff1673ffffffffffffffffffffffffffffffffffffffff168152602001908152602001600020600001600082825461339a9190615414565b925050819055506008600087815260200190815260200160002082815481106133c6576133c5614f97565b5b906000526020600020906005020160040154600260008282546133e99190615414565b925050819055505080806133fc90614ff5565b915050613299565b5050505050565b6000600f60009054906101000a900473ffffffffffffffffffffffffffffffffffffffff1673ffffffffffffffffffffffffffffffffffffffff1663ea6a0410836040518263ffffffff1660e01b81526004016134689190615ab1565b602060405180830381865afa158015613485573d6000803e3d6000fd5b505050506040513d601f19601f820116820180604052508101906134a991906153e7565b9050919050565b6134b8613a50565b600073ffffffffffffffffffffffffffffffffffffffff168173ffffffffffffffffffffffffffffffffffffffff1603613527576040517f08c379a000000000000000000000000000000000000000000000000000000000815260040161351e90615b45565b60405180910390fd5b61353081613b30565b50565b6000600e54905090565b600060328261354c9190615b65565b1461358c576040517f08c379a000000000000000000000000000000000000000000000000000000000815260040161358390615c08565b60405180910390fd5b600360009054906101000a900473ffffffffffffffffffffffffffffffffffffffff1673ffffffffffffffffffffffffffffffffffffffff166370a08231336040518263ffffffff1660e01b81526004016135e79190614971565b602060405180830381865afa158015613604573d6000803e3d6000fd5b505050506040513d601f19601f8201168201806040525081019061362891906153e7565b620f42408261363791906154d6565b1115613678576040517f08c379a000000000000000000000000000000000000000000000000000000000815260040161366f90615c74565b60405180910390fd5b600360009054906101000a900473ffffffffffffffffffffffffffffffffffffffff1673ffffffffffffffffffffffffffffffffffffffff1663dd62ed3e33306040518363ffffffff1660e01b81526004016136d5929190615c94565b602060405180830381865afa1580156136f2573d6000803e3d6000fd5b505050506040513d601f19601f8201168201806040525081019061371691906153e7565b620f42408261372591906154d6565b1115613766576040517f08c379a000000000000000000000000000000000000000000000000000000000815260040161375d90615d09565b60405180910390fd5b600060328261377591906159b2565b9050600360009054906101000a900473ffffffffffffffffffffffffffffffffffffffff1673ffffffffffffffffffffffffffffffffffffffff166323b872dd3330620f4240866137c691906154d6565b6040518463ffffffff1660e01b81526004016137e493929190615d29565b6020604051808303816000875af1158015613803573d6000803e3d6000fd5b505050506040513d601f19601f8201168201806040525081019061382791906157c6565b50600360009054906101000a900473ffffffffffffffffffffffffffffffffffffffff1673ffffffffffffffffffffffffffffffffffffffff1663095ea7b3600660009054906101000a900473ffffffffffffffffffffffffffffffffffffffff16620f42408561389891906154d6565b6040518363ffffffff1660e01b81526004016138b5929190615a4f565b6020604051808303816000875af11580156138d4573d6000803e3d6000fd5b505050506040513d601f19601f820116820180604052508101906138f891906157c6565b50600660009054906101000a900473ffffffffffffffffffffffffffffffffffffffff1673ffffffffffffffffffffffffffffffffffffffff1663617ba037600360009054906101000a900473ffffffffffffffffffffffffffffffffffffffff16620f42408561396991906154d6565b3060006040518563ffffffff1660e01b815260040161398b9493929190615da9565b600060405180830381600087803b1580156139a557600080fd5b505af11580156139b9573d6000803e3d6000fd5b50505050600560009054906101000a900473ffffffffffffffffffffffffffffffffffffffff1673ffffffffffffffffffffffffffffffffffffffff166340c10f1933836040518363ffffffff1660e01b8152600401613a1a929190615a4f565b600060405180830381600087803b158015613a3457600080fd5b505af1158015613a48573d6000803e3d6000fd5b505050505050565b613a58613c98565b73ffffffffffffffffffffffffffffffffffffffff16613a76611a08565b73ffffffffffffffffffffffffffffffffffffffff1614613acc576040517f08c379a0000000000000000000000000000000000000000000000000000000008152600401613ac390615e3a565b60405180910390fd5b565b613ad6613ca0565b60008060146101000a81548160ff0219169083151502179055507f5db9ee0a495bf2e6ff9c91a7834c1ba4fdd244a5e8aa4e537bd38aeae4b073aa613b19613c98565b604051613b269190614971565b60405180910390a1565b60008060009054906101000a900473ffffffffffffffffffffffffffffffffffffffff169050816000806101000a81548173ffffffffffffffffffffffffffffffffffffffff021916908373ffffffffffffffffffffffffffffffffffffffff1602179055508173ffffffffffffffffffffffffffffffffffffffff168173ffffffffffffffffffffffffffffffffffffffff167f8be0079c531659141344cd1fd0a4f28419497f9722a3daafe3b4186f6b6457e060405160405180910390a35050565b6000808260ff168460ff161115613c0e5760009050613c2b565b8360ff168360ff161115613c255760029050613c2a565b600190505b5b8091505092915050565b613c3d613ce9565b6001600060146101000a81548160ff0219169083151502179055507f62e78cea01bee320cd4e420270b5ea74000d11b0c9f74754ebdbfc544b05a258613c81613c98565b604051613c8e9190614971565b60405180910390a1565b600033905090565b613ca8610f73565b613ce7576040517f08c379a0000000000000000000000000000000000000000000000000000000008152600401613cde90615ea6565b60405180910390fd5b565b613cf1610f73565b15613d31576040517f08c379a0000000000000000000000000000000000000000000000000000000008152600401613d2890615f12565b60405180910390fd5b565b6040518060600160405280600063ffffffff168152602001600060ff168152602001600060ff1681525090565b6040518060800160405280600063ffffffff168152602001600064ffffffffff16815260200160608152602001606081525090565b6040518060600160405280600073ffffffffffffffffffffffffffffffffffffffff16815260200160008152602001600081525090565b604051806040016040528060008152602001600081525090565b6040518060600160405280600073ffffffffffffffffffffffffffffffffffffffff16815260200160008152602001600081525090565b6040518060400160405280600073ffffffffffffffffffffffffffffffffffffffff168152602001600081525090565b6040518060e00160405280600073ffffffffffffffffffffffffffffffffffffffff1681526020016000815260200160008152602001600081526020016000815260200160008152602001600081525090565b6000819050919050565b613eb381613ea0565b82525050565b6000602082019050613ece6000830184613eaa565b92915050565b6000604051905090565b600080fd5b600080fd5b613ef181613ea0565b8114613efc57600080fd5b50565b600081359050613f0e81613ee8565b92915050565b600073ffffffffffffffffffffffffffffffffffffffff82169050919050565b6000613f3f82613f14565b9050919050565b613f4f81613f34565b8114613f5a57600080fd5b50565b600081359050613f6c81613f46565b92915050565b60008060408385031215613f8957613f88613ede565b5b6000613f9785828601613eff565b9250506020613fa885828601613f5d565b9150509250929050565b600081519050919050565b600082825260208201905092915050565b6000819050602082019050919050565b600063ffffffff82169050919050565b613ff781613fde565b82525050565b600060ff82169050919050565b61401381613ffd565b82525050565b60608201600082015161402f6000850182613fee565b506020820151614042602085018261400a565b506040820151614055604085018261400a565b50505050565b60006140678383614019565b60608301905092915050565b6000602082019050919050565b600061408b82613fb2565b6140958185613fbd565b93506140a083613fce565b8060005b838110156140d15781516140b8888261405b565b97506140c383614073565b9250506001810190506140a4565b5085935050505092915050565b600060208201905081810360008301526140f88184614080565b905092915050565b60006020828403121561411657614115613ede565b5b600061412484828501613eff565b91505092915050565b600081519050919050565b600082825260208201905092915050565b6000819050602082019050919050565b600081519050919050565b600082825260208201905092915050565b60005b83811015614193578082015181840152602081019050614178565b838111156141a2576000848401525b50505050565b6000601f19601f8301169050919050565b60006141c482614159565b6141ce8185614164565b93506141de818560208601614175565b6141e7816141a8565b840191505092915050565b60006141fe83836141b9565b905092915050565b6000602082019050919050565b600061421e8261412d565b6142288185614138565b93508360208202850161423a85614149565b8060005b85811015614276578484038952815161425785826141f2565b945061426283614206565b925060208a0199505060018101905061423e565b50829750879550505050505092915050565b600060208201905081810360008301526142a28184614213565b905092915050565b6000602082840312156142c0576142bf613ede565b5b60006142ce84828501613f5d565b91505092915050565b60006040820190506142ec6000830185613eaa565b6142f96020830184613eaa565b9392505050565b600080fd5b7f4e487b7100000000000000000000000000000000000000000000000000000000600052604160045260246000fd5b61433d826141a8565b810181811067ffffffffffffffff8211171561435c5761435b614305565b5b80604052505050565b600061436f613ed4565b905061437b8282614334565b919050565b600067ffffffffffffffff82111561439b5761439a614305565b5b602082029050602081019050919050565b600080fd5b600080fd5b600067ffffffffffffffff8211156143d1576143d0614305565b5b6143da826141a8565b9050602081019050919050565b82818337600083830152505050565b6000614409614404846143b6565b614365565b905082815260208101848484011115614425576144246143b1565b5b6144308482856143e7565b509392505050565b600082601f83011261444d5761444c614300565b5b813561445d8482602086016143f6565b91505092915050565b600061447961447484614380565b614365565b9050808382526020820190506020840283018581111561449c5761449b6143ac565b5b835b818110156144e357803567ffffffffffffffff8111156144c1576144c0614300565b5b8086016144ce8982614438565b8552602085019450505060208101905061449e565b5050509392505050565b600082601f83011261450257614501614300565b5b8135614512848260208601614466565b91505092915050565b60008060006060848603121561453457614533613ede565b5b600061454286828701613eff565b935050602084013567ffffffffffffffff81111561456357614562613ee3565b5b61456f868287016144ed565b925050604061458086828701613eff565b9150509250925092565b600081519050919050565b600082825260208201905092915050565b6000819050602082019050919050565b6145bf81613f34565b82525050565b6145ce81613ea0565b82525050565b60a0820160008201516145ea60008501826145b6565b5060208201516145fd60208501826145c5565b50604082015161461060408501826145c5565b50606082015161462360608501826145c5565b50608082015161463660808501826145c5565b50505050565b600061464883836145d4565b60a08301905092915050565b6000602082019050919050565b600061466c8261458a565b6146768185614595565b9350614681836145a6565b8060005b838110156146b2578151614699888261463c565b97506146a483614654565b925050600181019050614685565b5085935050505092915050565b600060208201905081810360008301526146d98184614661565b905092915050565b600080604083850312156146f8576146f7613ede565b5b600061470685828601613eff565b925050602061471785828601613eff565b9150509250929050565b61472a81613f34565b82525050565b600060a0820190506147456000830188614721565b6147526020830187613eaa565b61475f6040830186613eaa565b61476c6060830185613eaa565b6147796080830184613eaa565b9695505050505050565b60008115159050919050565b61479881614783565b82525050565b60006020820190506147b3600083018461478f565b92915050565b600081519050919050565b600082825260208201905092915050565b6000819050602082019050919050565b600064ffffffffff82169050919050565b6147ff816147e5565b82525050565b600060808301600083015161481d6000860182613fee565b50602083015161483060208601826147f6565b506040830151848203604086015261484882826141b9565b9150506060830151848203606086015261486282826141b9565b9150508091505092915050565b600061487b8383614805565b905092915050565b6000602082019050919050565b600061489b826147b9565b6148a581856147c4565b9350836020820285016148b7856147d5565b8060005b858110156148f357848403895281516148d4858261486f565b94506148df83614883565b925060208a019950506001810190506148bb565b50829750879550505050505092915050565b6000602082019050818103600083015261491f8184614890565b905092915050565b60408201600082015161493d60008501826145c5565b50602082015161495060208501826145c5565b50505050565b600060408201905061496b6000830184614927565b92915050565b60006020820190506149866000830184614721565b92915050565b600067ffffffffffffffff8211156149a7576149a6614305565b5b602082029050602081019050919050565b600080fd5b6149c681613fde565b81146149d157600080fd5b50565b6000813590506149e3816149bd565b92915050565b6149f281613ffd565b81146149fd57600080fd5b50565b600081359050614a0f816149e9565b92915050565b600060608284031215614a2b57614a2a6149b8565b5b614a356060614365565b90506000614a45848285016149d4565b6000830152506020614a5984828501614a00565b6020830152506040614a6d84828501614a00565b60408301525092915050565b6000614a8c614a878461498c565b614365565b90508083825260208201905060608402830185811115614aaf57614aae6143ac565b5b835b81811015614ad85780614ac48882614a15565b845260208401935050606081019050614ab1565b5050509392505050565b600082601f830112614af757614af6614300565b5b8135614b07848260208601614a79565b91505092915050565b600060208284031215614b2657614b25613ede565b5b600082013567ffffffffffffffff811115614b4457614b43613ee3565b5b614b5084828501614ae2565b91505092915050565b600081519050919050565b600082825260208201905092915050565b6000819050602082019050919050565b606082016000820151614b9b60008501826145b6565b506020820151614bae60208501826145c5565b506040820151614bc160408501826145c5565b50505050565b6000614bd38383614b85565b60608301905092915050565b6000602082019050919050565b6000614bf782614b59565b614c018185614b64565b9350614c0c83614b75565b8060005b83811015614c3d578151614c248882614bc7565b9750614c2f83614bdf565b925050600181019050614c10565b5085935050505092915050565b60006020820190508181036000830152614c648184614bec565b905092915050565b600067ffffffffffffffff821115614c8757614c86614305565b5b602082029050602081019050919050565b600060608284031215614cae57614cad6149b8565b5b614cb86060614365565b90506000614cc884828501613f5d565b6000830152506020614cdc84828501613eff565b6020830152506040614cf084828501613eff565b60408301525092915050565b6000614d0f614d0a84614c6c565b614365565b90508083825260208201905060608402830185811115614d3257614d316143ac565b5b835b81811015614d5b5780614d478882614c98565b845260208401935050606081019050614d34565b5050509392505050565b600082601f830112614d7a57614d79614300565b5b8135614d8a848260208601614cfc565b91505092915050565b60008060408385031215614daa57614da9613ede565b5b6000614db885828601613eff565b925050602083013567ffffffffffffffff811115614dd957614dd8613ee3565b5b614de585828601614d65565b9150509250929050565b600081519050919050565b600082825260208201905092915050565b6000819050602082019050919050565b60e082016000820151614e3160008501826145b6565b506020820151614e4460208501826145c5565b506040820151614e5760408501826145c5565b506060820151614e6a60608501826145c5565b506080820151614e7d60808501826145c5565b5060a0820151614e9060a08501826145c5565b5060c0820151614ea360c08501826145c5565b50505050565b6000614eb58383614e1b565b60e08301905092915050565b6000602082019050919050565b6000614ed982614def565b614ee38185614dfa565b9350614eee83614e0b565b8060005b83811015614f1f578151614f068882614ea9565b9750614f1183614ec1565b925050600181019050614ef2565b5085935050505092915050565b60006020820190508181036000830152614f468184614ece565b905092915050565b600060208284031215614f6457614f63613ede565b5b600082013567ffffffffffffffff811115614f8257614f81613ee3565b5b614f8e84828501614438565b91505092915050565b7f4e487b7100000000000000000000000000000000000000000000000000000000600052603260045260246000fd5b7f4e487b7100000000000000000000000000000000000000000000000000000000600052601160045260246000fd5b600061500082613ea0565b91507fffffffffffffffffffffffffffffffffffffffffffffffffffffffffffffffff820361503257615031614fc6565b5b600182019050919050565b7f4e487b7100000000000000000000000000000000000000000000000000000000600052602260045260246000fd5b6000600282049050600182168061508457607f821691505b6020821081036150975761509661503d565b5b50919050565b60008190508160005260206000209050919050565b60006020601f8301049050919050565b600082821b905092915050565b6000600883026150ff7fffffffffffffffffffffffffffffffffffffffffffffffffffffffffffffffff826150c2565b61510986836150c2565b95508019841693508086168417925050509392505050565b6000819050919050565b600061514661514161513c84613ea0565b615121565b613ea0565b9050919050565b6000819050919050565b6151608361512b565b61517461516c8261514d565b8484546150cf565b825550505050565b600090565b61518961517c565b615194818484615157565b505050565b5b818110156151b8576151ad600082615181565b60018101905061519a565b5050565b601f8211156151fd576151ce8161509d565b6151d7846150b2565b810160208510156151e6578190505b6151fa6151f2856150b2565b830182615199565b50505b505050565b600082821c905092915050565b600061522060001984600802615202565b1980831691505092915050565b6000615239838361520f565b9150826002028217905092915050565b61525282614159565b67ffffffffffffffff81111561526b5761526a614305565b5b615275825461506c565b6152808282856151bc565b600060209050601f8311600181146152b357600084156152a1578287015190505b6152ab858261522d565b865550615313565b601f1984166152c18661509d565b60005b828110156152e9578489015182556001820191506020850194506020810190506152c4565b868310156153065784890151615302601f89168261520f565b8355505b6001600288020188555050505b505050505050565b600082825260208201905092915050565b600081546153398161506c565b615343818661531b565b9450600182166000811461535e5760018114615374576153a7565b60ff1983168652811515602002860193506153a7565b61537d8561509d565b60005b8381101561539f57815481890152600182019150602081019050615380565b808801955050505b50505092915050565b600060208201905081810360008301526153ca818461532c565b905092915050565b6000815190506153e181613ee8565b92915050565b6000602082840312156153fd576153fc613ede565b5b600061540b848285016153d2565b91505092915050565b600061541f82613ea0565b915061542a83613ea0565b9250827fffffffffffffffffffffffffffffffffffffffffffffffffffffffffffffffff0382111561545f5761545e614fc6565b5b828201905092915050565b7f5468657265206973206e6f2070656e64696e672077696e6e696e677321000000600082015250565b60006154a0601d8361531b565b91506154ab8261546a565b602082019050919050565b600060208201905081810360008301526154cf81615493565b9050919050565b60006154e182613ea0565b91506154ec83613ea0565b9250817fffffffffffffffffffffffffffffffffffffffffffffffffffffffffffffffff048311821515161561552557615524614fc6565b5b828202905092915050565b60006060820190506155456000830186614721565b6155526020830185613eaa565b61555f6040830184614721565b949350505050565b600061557282613ea0565b915061557d83613ea0565b9250828210156155905761558f614fc6565b5b828203905092915050565b600060408201905081810360008301526155b5818561532c565b90506155c46020830184613eaa565b9392505050565b6000815190506155da816149bd565b92915050565b6155e9816147e5565b81146155f457600080fd5b50565b600081519050615606816155e0565b92915050565b600061561f61561a846143b6565b614365565b90508281526020810184848401111561563b5761563a6143b1565b5b615646848285614175565b509392505050565b600082601f83011261566357615662614300565b5b815161567384826020860161560c565b91505092915050565b6000806000806080858703121561569657615695613ede565b5b60006156a4878288016155cb565b94505060206156b5878288016155f7565b935050604085015167ffffffffffffffff8111156156d6576156d5613ee3565b5b6156e28782880161564e565b925050606085015167ffffffffffffffff81111561570357615702613ee3565b5b61570f8782880161564e565b91505092959194509250565b61572481613fde565b82525050565b600060208201905061573f600083018461571b565b92915050565b600081519050615754816149e9565b92915050565b6000806040838503121561577157615770613ede565b5b600061577f85828601615745565b925050602061579085828601615745565b9150509250929050565b6157a381614783565b81146157ae57600080fd5b50565b6000815190506157c08161579a565b92915050565b6000602082840312156157dc576157db613ede565b5b60006157ea848285016157b1565b91505092915050565b7f596f75206e6565642061207469636b657420666f7220736176696e672070726560008201527f64696374696f6e73210000000000000000000000000000000000000000000000602082015250565b600061584f60298361531b565b915061585a826157f3565b604082019050919050565b6000602082019050818103600083015261587e81615842565b9050919050565b7f50726564696374696f6e20506572696f6420697320636c6f7365642100000000600082015250565b60006158bb601c8361531b565b91506158c682615885565b602082019050919050565b600060208201905081810360008301526158ea816158ae565b9050919050565b7f546865206e756d626572206f662070726564696374696f6e7320646f65736e2760008201527f74206d6174636821000000000000000000000000000000000000000000000000602082015250565b600061594d60288361531b565b9150615958826158f1565b604082019050919050565b6000602082019050818103600083015261597c81615940565b9050919050565b7f4e487b7100000000000000000000000000000000000000000000000000000000600052601260045260246000fd5b60006159bd82613ea0565b91506159c883613ea0565b9250826159d8576159d7615983565b5b828204905092915050565b7f596f7520646f6e2774206861766520656e6f756768207469636b657473210000600082015250565b6000615a19601e8361531b565b9150615a24826159e3565b602082019050919050565b60006020820190508181036000830152615a4881615a0c565b9050919050565b6000604082019050615a646000830185614721565b615a716020830184613eaa565b9392505050565b6000615a8382614159565b615a8d818561531b565b9350615a9d818560208601614175565b615aa6816141a8565b840191505092915050565b60006020820190508181036000830152615acb8184615a78565b905092915050565b7f4f776e61626c653a206e6577206f776e657220697320746865207a65726f206160008201527f6464726573730000000000000000000000000000000000000000000000000000602082015250565b6000615b2f60268361531b565b9150615b3a82615ad3565b604082019050919050565b60006020820190508181036000830152615b5e81615b22565b9050919050565b6000615b7082613ea0565b9150615b7b83613ea0565b925082615b8b57615b8a615983565b5b828206905092915050565b7f54686520616d6f756e74206d7573742062652061206d756c7469706c65206f6660008201527f2035300000000000000000000000000000000000000000000000000000000000602082015250565b6000615bf260238361531b565b9150615bfd82615b96565b604082019050919050565b60006020820190508181036000830152615c2181615be5565b9050919050565b7f496e737566666963656e7420616d6f756e74206f662055534443000000000000600082015250565b6000615c5e601a8361531b565b9150615c6982615c28565b602082019050919050565b60006020820190508181036000830152615c8d81615c51565b9050919050565b6000604082019050615ca96000830185614721565b615cb66020830184614721565b9392505050565b7f496e73756666696369656e7420616c6c6f776564205553444300000000000000600082015250565b6000615cf360198361531b565b9150615cfe82615cbd565b602082019050919050565b60006020820190508181036000830152615d2281615ce6565b9050919050565b6000606082019050615d3e6000830186614721565b615d4b6020830185614721565b615d586040830184613eaa565b949350505050565b6000819050919050565b600061ffff82169050919050565b6000615d93615d8e615d8984615d60565b615121565b615d6a565b9050919050565b615da381615d78565b82525050565b6000608082019050615dbe6000830187614721565b615dcb6020830186613eaa565b615dd86040830185614721565b615de56060830184615d9a565b95945050505050565b7f4f776e61626c653a2063616c6c6572206973206e6f7420746865206f776e6572600082015250565b6000615e2460208361531b565b9150615e2f82615dee565b602082019050919050565b60006020820190508181036000830152615e5381615e17565b9050919050565b7f5061757361626c653a206e6f7420706175736564000000000000000000000000600082015250565b6000615e9060148361531b565b9150615e9b82615e5a565b602082019050919050565b60006020820190508181036000830152615ebf81615e83565b9050919050565b7f5061757361626c653a2070617573656400000000000000000000000000000000600082015250565b6000615efc60108361531b565b9150615f0782615ec6565b602082019050919050565b60006020820190508181036000830152615f2b81615eef565b905091905056fea2646970667358221220107d41585fae18aeb57222cd88d0b8b07e7050e55f68a6b22cbea4312b1bde6364736f6c634300080f0033",
  "linkReferences": {},
  "deployedLinkReferences": {}
}