{
  "_format": "hh-sol-artifact-1",
  "contractName": "InterpoolContract",
  "sourceName": "contracts/InterpoolContract.sol",
  "abi": [
    {
      "inputs": [],
      "stateMutability": "nonpayable",
      "type": "constructor"
    },
    {
      "anonymous": false,
      "inputs": [
        {
          "indexed": true,
          "internalType": "address",
          "name": "previousOwner",
          "type": "address"
        },
        {
          "indexed": true,
          "internalType": "address",
          "name": "newOwner",
          "type": "address"
        }
      ],
      "name": "OwnershipTransferred",
      "type": "event"
    },
    {
      "anonymous": false,
      "inputs": [
        {
          "indexed": false,
          "internalType": "address",
          "name": "account",
          "type": "address"
        }
      ],
      "name": "Paused",
      "type": "event"
    },
    {
      "anonymous": false,
      "inputs": [
        {
          "indexed": false,
          "internalType": "address",
          "name": "account",
          "type": "address"
        }
      ],
      "name": "Unpaused",
      "type": "event"
    },
    {
      "inputs": [
        {
          "internalType": "uint256",
          "name": "_contestId",
          "type": "uint256"
        },
        {
          "components": [
            {
              "internalType": "address",
              "name": "player",
              "type": "address"
            },
            {
              "internalType": "uint256",
              "name": "nbTickets",
              "type": "uint256"
            },
            {
              "internalType": "uint256",
              "name": "nbPoints",
              "type": "uint256"
            }
          ],
          "internalType": "struct InterpoolContract.PlayerPointsAndTickets[]",
          "name": "_pointsTable",
          "type": "tuple[]"
        }
      ],
      "name": "calculateGain",
      "outputs": [
        {
          "components": [
            {
              "internalType": "address",
              "name": "player",
              "type": "address"
            },
            {
              "internalType": "uint256",
              "name": "nbPoints",
              "type": "uint256"
            },
            {
              "internalType": "uint256",
              "name": "rankExAequo",
              "type": "uint256"
            },
            {
              "internalType": "uint256",
              "name": "rewardNoExAequo",
              "type": "uint256"
            },
            {
              "internalType": "uint256",
              "name": "cumulatedRewardsNoExAequo",
              "type": "uint256"
            },
            {
              "internalType": "uint256",
              "name": "cumulatedRewardsPerRank",
              "type": "uint256"
            },
            {
              "internalType": "uint256",
              "name": "rewardPerRankPerPlayer",
              "type": "uint256"
            }
          ],
          "internalType": "struct InterpoolContract.Gain[]",
          "name": "",
          "type": "tuple[]"
        }
      ],
      "stateMutability": "view",
      "type": "function"
    },
    {
      "inputs": [
        {
          "internalType": "uint8",
          "name": "_homeScore",
          "type": "uint8"
        },
        {
          "internalType": "uint8",
          "name": "_awayScore",
          "type": "uint8"
        }
      ],
      "name": "calculateMatchResult",
      "outputs": [
        {
          "internalType": "uint256",
          "name": "",
          "type": "uint256"
        }
      ],
      "stateMutability": "pure",
      "type": "function"
    },
    {
      "inputs": [],
      "name": "claim",
      "outputs": [],
      "stateMutability": "nonpayable",
      "type": "function"
    },
    {
      "inputs": [
        {
          "internalType": "uint256",
          "name": "_leagueId",
          "type": "uint256"
        },
        {
          "internalType": "uint256",
          "name": "_dateEndPredictionsSubmission",
          "type": "uint256"
        },
        {
          "internalType": "uint256",
          "name": "_dateEndContest",
          "type": "uint256"
        },
        {
          "internalType": "uint32[]",
          "name": "_listGameIds",
          "type": "uint32[]"
        }
      ],
      "name": "createContest",
      "outputs": [],
      "stateMutability": "nonpayable",
      "type": "function"
    },
    {
      "inputs": [
        {
          "internalType": "uint256",
          "name": "_amount",
          "type": "uint256"
        }
      ],
      "name": "deposit",
      "outputs": [],
      "stateMutability": "nonpayable",
      "type": "function"
    },
    {
      "inputs": [
        {
          "internalType": "uint256",
          "name": "_contestId",
          "type": "uint256"
        }
      ],
      "name": "getContestEndDate",
      "outputs": [
        {
          "internalType": "uint256",
          "name": "",
          "type": "uint256"
        }
      ],
      "stateMutability": "view",
      "type": "function"
    },
    {
      "inputs": [
        {
          "internalType": "uint256",
          "name": "_contestId",
          "type": "uint256"
        }
      ],
      "name": "getContestPredictionSubmissionEndDate",
      "outputs": [
        {
          "internalType": "uint256",
          "name": "",
          "type": "uint256"
        }
      ],
      "stateMutability": "view",
      "type": "function"
    },
    {
      "inputs": [
        {
          "internalType": "uint256",
          "name": "_contestId",
          "type": "uint256"
        }
      ],
      "name": "getContestTable",
      "outputs": [
        {
          "components": [
            {
              "internalType": "address",
              "name": "player",
              "type": "address"
            },
            {
              "internalType": "uint256",
              "name": "nbTickets",
              "type": "uint256"
            },
            {
              "internalType": "uint256",
              "name": "nbPoints",
              "type": "uint256"
            },
            {
              "internalType": "uint256",
              "name": "rankExAequo",
              "type": "uint256"
            },
            {
              "internalType": "uint256",
              "name": "rewardPerRankPerPlayer",
              "type": "uint256"
            }
          ],
          "internalType": "struct InterpoolContract.ContestResult[]",
          "name": "",
          "type": "tuple[]"
        }
      ],
      "stateMutability": "view",
      "type": "function"
    },
    {
      "inputs": [],
      "name": "getCurrentContestId",
      "outputs": [
        {
          "internalType": "uint256",
          "name": "",
          "type": "uint256"
        }
      ],
      "stateMutability": "view",
      "type": "function"
    },
    {
      "inputs": [],
      "name": "getGlobalPrizePool",
      "outputs": [
        {
          "internalType": "uint256",
          "name": "",
          "type": "uint256"
        }
      ],
      "stateMutability": "view",
      "type": "function"
    },
    {
      "inputs": [
        {
          "internalType": "uint256",
          "name": "_contestId",
          "type": "uint256"
        }
      ],
      "name": "getListRequestIdPerContest",
      "outputs": [
        {
          "internalType": "bytes32[]",
          "name": "",
          "type": "bytes32[]"
        }
      ],
      "stateMutability": "view",
      "type": "function"
    },
    {
      "inputs": [
        {
          "internalType": "uint256",
          "name": "_contestId",
          "type": "uint256"
        }
      ],
      "name": "getNumberOfGamesPerContest",
      "outputs": [
        {
          "internalType": "uint256",
          "name": "",
          "type": "uint256"
        }
      ],
      "stateMutability": "view",
      "type": "function"
    },
    {
      "inputs": [
        {
          "internalType": "uint256",
          "name": "_contestId",
          "type": "uint256"
        }
      ],
      "name": "getNumberOfPlayers",
      "outputs": [
        {
          "internalType": "uint256",
          "name": "",
          "type": "uint256"
        }
      ],
      "stateMutability": "view",
      "type": "function"
    },
    {
      "inputs": [
        {
          "internalType": "uint256",
          "name": "_contestId",
          "type": "uint256"
        },
        {
          "internalType": "address",
          "name": "_player",
          "type": "address"
        }
      ],
      "name": "getPlayerRank",
      "outputs": [
        {
          "internalType": "uint256",
          "name": "",
          "type": "uint256"
        }
      ],
      "stateMutability": "view",
      "type": "function"
    },
    {
      "inputs": [
        {
          "internalType": "uint256",
          "name": "_contestId",
          "type": "uint256"
        },
        {
          "internalType": "address",
          "name": "_player",
          "type": "address"
        }
      ],
      "name": "getPointsOfPlayerForContest",
      "outputs": [
        {
          "internalType": "uint256",
          "name": "",
          "type": "uint256"
        }
      ],
      "stateMutability": "view",
      "type": "function"
    },
    {
      "inputs": [
        {
          "internalType": "uint256",
          "name": "_contestId",
          "type": "uint256"
        }
      ],
      "name": "getPointsTable",
      "outputs": [
        {
          "components": [
            {
              "internalType": "address",
              "name": "player",
              "type": "address"
            },
            {
              "internalType": "uint256",
              "name": "nbTickets",
              "type": "uint256"
            },
            {
              "internalType": "uint256",
              "name": "nbPoints",
              "type": "uint256"
            }
          ],
          "internalType": "struct InterpoolContract.PlayerPointsAndTickets[]",
          "name": "",
          "type": "tuple[]"
        }
      ],
      "stateMutability": "view",
      "type": "function"
    },
    {
      "inputs": [
        {
          "internalType": "uint256",
          "name": "_contestId",
          "type": "uint256"
        },
        {
          "internalType": "address",
          "name": "_player",
          "type": "address"
        }
      ],
      "name": "getPrevisionsPerPlayerPerContest",
      "outputs": [
        {
          "components": [
            {
              "internalType": "uint32",
              "name": "gameId",
              "type": "uint32"
            },
            {
              "internalType": "uint8",
              "name": "homeScore",
              "type": "uint8"
            },
            {
              "internalType": "uint8",
              "name": "awayScore",
              "type": "uint8"
            }
          ],
          "internalType": "struct InterpoolContract.GamePredict[]",
          "name": "",
          "type": "tuple[]"
        }
      ],
      "stateMutability": "view",
      "type": "function"
    },
    {
      "inputs": [
        {
          "internalType": "address",
          "name": "_player",
          "type": "address"
        },
        {
          "internalType": "uint32",
          "name": "_gameId",
          "type": "uint32"
        }
      ],
      "name": "getPrevisionsPerPlayerPerGame",
      "outputs": [
        {
          "internalType": "uint8",
          "name": "",
          "type": "uint8"
        },
        {
          "internalType": "uint8",
          "name": "",
          "type": "uint8"
        }
      ],
      "stateMutability": "view",
      "type": "function"
    },
    {
      "inputs": [
        {
          "internalType": "uint256",
          "name": "_contestId",
          "type": "uint256"
        },
        {
          "internalType": "uint32",
          "name": "_gameId",
          "type": "uint32"
        }
      ],
      "name": "getScoresPerGameId",
      "outputs": [
        {
          "internalType": "uint8",
          "name": "",
          "type": "uint8"
        },
        {
          "internalType": "uint8",
          "name": "",
          "type": "uint8"
        }
      ],
      "stateMutability": "view",
      "type": "function"
    },
    {
      "inputs": [
        {
          "internalType": "uint256",
          "name": "_contestId",
          "type": "uint256"
        },
        {
          "internalType": "address",
          "name": "_player",
          "type": "address"
        }
      ],
      "name": "getVerifPlayerPlayedPerContest",
      "outputs": [
        {
          "internalType": "bool",
          "name": "",
          "type": "bool"
        }
      ],
      "stateMutability": "view",
      "type": "function"
    },
    {
      "inputs": [
        {
          "internalType": "address",
          "name": "_player",
          "type": "address"
        }
      ],
      "name": "getWinningsPerPlayer",
      "outputs": [
        {
          "internalType": "uint256",
          "name": "",
          "type": "uint256"
        },
        {
          "internalType": "uint256",
          "name": "",
          "type": "uint256"
        }
      ],
      "stateMutability": "view",
      "type": "function"
    },
    {
      "inputs": [],
      "name": "owner",
      "outputs": [
        {
          "internalType": "address",
          "name": "",
          "type": "address"
        }
      ],
      "stateMutability": "view",
      "type": "function"
    },
    {
      "inputs": [],
      "name": "pause",
      "outputs": [],
      "stateMutability": "nonpayable",
      "type": "function"
    },
    {
      "inputs": [],
      "name": "paused",
      "outputs": [
        {
          "internalType": "bool",
          "name": "",
          "type": "bool"
        }
      ],
      "stateMutability": "view",
      "type": "function"
    },
    {
      "inputs": [],
      "name": "renounceOwnership",
      "outputs": [],
      "stateMutability": "nonpayable",
      "type": "function"
    },
    {
      "inputs": [
        {
          "internalType": "uint256",
          "name": "_contestId",
          "type": "uint256"
        },
        {
          "internalType": "uint256",
          "name": "_leagueId",
          "type": "uint256"
        },
        {
          "internalType": "uint256[]",
          "name": "_requestDates",
          "type": "uint256[]"
        }
      ],
      "name": "resolveGames",
      "outputs": [],
      "stateMutability": "nonpayable",
      "type": "function"
    },
    {
      "inputs": [
        {
          "internalType": "uint256",
          "name": "_contestId",
          "type": "uint256"
        },
        {
          "internalType": "bytes32",
          "name": "_requestId",
          "type": "bytes32"
        }
      ],
      "name": "saveExistingRequest",
      "outputs": [],
      "stateMutability": "nonpayable",
      "type": "function"
    },
    {
      "inputs": [
        {
          "internalType": "uint256",
          "name": "_contestId",
          "type": "uint256"
        },
        {
          "internalType": "uint32[]",
          "name": "_listGameIds",
          "type": "uint32[]"
        }
      ],
      "name": "saveGameResult",
      "outputs": [],
      "stateMutability": "nonpayable",
      "type": "function"
    },
    {
      "inputs": [
        {
          "components": [
            {
              "internalType": "uint32",
              "name": "gameId",
              "type": "uint32"
            },
            {
              "internalType": "uint8",
              "name": "homeScore",
              "type": "uint8"
            },
            {
              "internalType": "uint8",
              "name": "awayScore",
              "type": "uint8"
            }
          ],
          "internalType": "struct InterpoolContract.GamePredict[]",
          "name": "_gamePredictions",
          "type": "tuple[]"
        }
      ],
      "name": "savePrediction",
      "outputs": [],
      "stateMutability": "nonpayable",
      "type": "function"
    },
    {
      "inputs": [
        {
          "internalType": "uint256",
          "name": "_contestId",
          "type": "uint256"
        },
        {
          "internalType": "address",
          "name": "_player",
          "type": "address"
        },
        {
          "components": [
            {
              "internalType": "uint32",
              "name": "gameId",
              "type": "uint32"
            },
            {
              "internalType": "uint8",
              "name": "homeScore",
              "type": "uint8"
            },
            {
              "internalType": "uint8",
              "name": "awayScore",
              "type": "uint8"
            }
          ],
          "internalType": "struct InterpoolContract.GamePredict[]",
          "name": "_gamePredictions",
          "type": "tuple[]"
        }
      ],
      "name": "savePredictionPerOwner",
      "outputs": [],
      "stateMutability": "nonpayable",
      "type": "function"
    },
    {
      "inputs": [
        {
          "internalType": "uint256",
          "name": "_contestId",
          "type": "uint256"
        }
      ],
      "name": "setContestTable",
      "outputs": [],
      "stateMutability": "nonpayable",
      "type": "function"
    },
    {
      "inputs": [
        {
          "internalType": "address",
          "name": "_enetContract",
          "type": "address"
        }
      ],
      "name": "setEnetContract",
      "outputs": [],
      "stateMutability": "nonpayable",
      "type": "function"
    },
    {
      "inputs": [
        {
          "internalType": "address",
          "name": "_poolContract",
          "type": "address"
        }
      ],
      "name": "setPoolContract",
      "outputs": [],
      "stateMutability": "nonpayable",
      "type": "function"
    },
    {
      "inputs": [
        {
          "internalType": "address",
          "name": "newOwner",
          "type": "address"
        }
      ],
      "name": "transferOwnership",
      "outputs": [],
      "stateMutability": "nonpayable",
      "type": "function"
    },
    {
      "inputs": [],
      "name": "unpause",
      "outputs": [],
      "stateMutability": "nonpayable",
      "type": "function"
    },
    {
      "inputs": [
        {
          "internalType": "uint256",
          "name": "_contestId",
          "type": "uint256"
        },
        {
          "internalType": "uint256",
          "name": "_nbTickets",
          "type": "uint256"
        }
      ],
      "name": "withdraw",
      "outputs": [],
      "stateMutability": "nonpayable",
      "type": "function"
    }
  ],
  "bytecode": "0x60806040523480156200001157600080fd5b5062000032620000266200010160201b60201c565b6200010960201b60201c565b60008060146101000a81548160ff02191690831515021790555073d81e4a61fd6bf066539df6ea48bfaeae847dcda1600c60006101000a81548173ffffffffffffffffffffffffffffffffffffffff021916908373ffffffffffffffffffffffffffffffffffffffff160217905550620000c673376d4a2cb540e01a7e233c9b721c04087511ef3a620001cd60201b60201c565b620000eb7380a9c7c5f5bfd765a2dc3773dff00d02db8b34ae6200022160201b60201c565b6005600b819055506000600a81905550620003b2565b600033905090565b60008060009054906101000a900473ffffffffffffffffffffffffffffffffffffffff169050816000806101000a81548173ffffffffffffffffffffffffffffffffffffffff021916908373ffffffffffffffffffffffffffffffffffffffff1602179055508173ffffffffffffffffffffffffffffffffffffffff168173ffffffffffffffffffffffffffffffffffffffff167f8be0079c531659141344cd1fd0a4f28419497f9722a3daafe3b4186f6b6457e060405160405180910390a35050565b620001dd6200027560201b60201c565b80600d60006101000a81548173ffffffffffffffffffffffffffffffffffffffff021916908373ffffffffffffffffffffffffffffffffffffffff16021790555050565b620002316200027560201b60201c565b80600e60006101000a81548173ffffffffffffffffffffffffffffffffffffffff021916908373ffffffffffffffffffffffffffffffffffffffff16021790555050565b620002856200010160201b60201c565b73ffffffffffffffffffffffffffffffffffffffff16620002ab6200030660201b60201c565b73ffffffffffffffffffffffffffffffffffffffff161462000304576040517f08c379a0000000000000000000000000000000000000000000000000000000008152600401620002fb9062000390565b60405180910390fd5b565b60008060009054906101000a900473ffffffffffffffffffffffffffffffffffffffff16905090565b600082825260208201905092915050565b7f4f776e61626c653a2063616c6c6572206973206e6f7420746865206f776e6572600082015250565b6000620003786020836200032f565b9150620003858262000340565b602082019050919050565b60006020820190508181036000830152620003ab8162000369565b9050919050565b61541680620003c26000396000f3fe608060405234801561001057600080fd5b506004361061021c5760003560e01c80638da5cb5b11610125578063d7449367116100ad578063f0fad4aa1161007c578063f0fad4aa1461064a578063f2fde38b1461067a578063f49a20bd14610696578063fb46bd22146106c6578063fee90160146106e45761021c565b8063d7449367146105c6578063d97a55d6146105f6578063e1a0dea214610612578063e7a1f11f1461062e5761021c565b8063b4ace158116100f4578063b4ace158146104fb578063b6b55f2514610519578063baf6378314610535578063bd874a1d14610565578063c6853e12146105965761021c565b80638da5cb5b14610475578063922fcb0d14610493578063942350c2146104c35780639fa75e9a146104df5761021c565b80635c975abb116101a857806371ce137e1161017757806371ce137e146103e65780637751055e14610402578063796634e21461041e5780638456cb591461043a5780638ad2e864146104445761021c565b80635c975abb1461035d57806362436d9d1461037b5780636851e9a9146103ab578063715018a6146103dc5761021c565b80633f4ba83a116101ef5780633f4ba83a146102e1578063441a3e70146102eb5780634e71d92d146103075780634fda591e1461031157806359c3f3e0146103415761021c565b8063117f3998146102215780631d883342146102515780632452a7e31461028157806327ca8b98146102b1575b600080fd5b61023b60048036038101906102369190613b7e565b610714565b6040516102489190613cea565b60405180910390f35b61026b60048036038101906102669190613d0c565b610941565b6040516102789190613d48565b60405180910390f35b61029b60048036038101906102969190613d0c565b610961565b6040516102a89190613e98565b60405180910390f35b6102cb60048036038101906102c69190613d0c565b610a51565b6040516102d89190613fab565b60405180910390f35b6102e9610be3565b005b61030560048036038101906103009190613fcd565b610bf5565b005b61030f610d4c565b005b61032b60048036038101906103269190613b7e565b610ddb565b6040516103389190613d48565b60405180910390f35b61035b6004803603810190610356919061400d565b61100d565b005b610365611059565b6040516103729190614055565b60405180910390f35b61039560048036038101906103909190613d0c565b61106f565b6040516103a29190613d48565b60405180910390f35b6103c560048036038101906103c0919061409c565b61108f565b6040516103d39291906140eb565b60405180910390f35b6103e46111d2565b005b61040060048036038101906103fb919061400d565b6111e6565b005b61041c6004803603810190610417919061414a565b611232565b005b610438600480360381019061043391906142e3565b611278565b005b610442611330565b005b61045e6004803603810190610459919061400d565b611342565b60405161046c929190614366565b60405180910390f35b61047d6113e9565b60405161048a919061439e565b60405180910390f35b6104ad60048036038101906104a89190613d0c565b611412565b6040516104ba9190613d48565b60405180910390f35b6104dd60048036038101906104d891906143b9565b611432565b005b6104f960048036038101906104f4919061456d565b6115df565b005b610503611b5b565b6040516105109190613d48565b60405180910390f35b610533600480360381019061052e9190613d0c565b611bf3565b005b61054f600480360381019061054a91906146dd565b611c85565b60405161055c9190614876565b60405180910390f35b61057f600480360381019061057a9190614898565b612686565b60405161058d9291906140eb565b60405180910390f35b6105b060048036038101906105ab9190613b7e565b612789565b6040516105bd9190614055565b60405180910390f35b6105e060048036038101906105db9190613d0c565b6127f1565b6040516105ed9190613d48565b60405180910390f35b610610600480360381019061060b9190613d0c565b612811565b005b61062c6004803603810190610627919061499b565b612e80565b005b61064860048036038101906106439190614a0a565b612fa9565b005b610664600480360381019061065f9190613d0c565b613286565b6040516106719190614b37565b60405180910390f35b610694600480360381019061068f919061400d565b6132f1565b005b6106b060048036038101906106ab9190614b59565b613374565b6040516106bd9190613d48565b60405180910390f35b6106ce6133b5565b6040516106db9190613d48565b60405180910390f35b6106fe60048036038101906106f99190613b7e565b6133bf565b60405161070b9190613d48565b60405180910390f35b6060600061072184610941565b90506000808267ffffffffffffffff8111156107405761073f6141a0565b5b60405190808252806020026020018201604052801561077957816020015b610766613851565b81526020019060019003908161075e5790505b50905060005b83811015610934576006600088815260200190815260200160002081815481106107ac576107ab614b99565b5b90600052602060002090600891828204019190066004029054906101000a900463ffffffff16925060405180606001604052808463ffffffff168152602001600460008973ffffffffffffffffffffffffffffffffffffffff1673ffffffffffffffffffffffffffffffffffffffff16815260200190815260200160002060008663ffffffff1663ffffffff16815260200190815260200160002060006002811061085a57610859614b99565b5b602091828204019190069054906101000a900460ff1660ff168152602001600460008973ffffffffffffffffffffffffffffffffffffffff1673ffffffffffffffffffffffffffffffffffffffff16815260200190815260200160002060008663ffffffff1663ffffffff1681526020019081526020016000206001600281106108e7576108e6614b99565b5b602091828204019190069054906101000a900460ff1660ff1681525082828151811061091657610915614b99565b5b6020026020010181905250808061092c90614bf7565b91505061077f565b5080935050505092915050565b600060066000838152602001908152602001600020805490509050919050565b606060086000838152602001908152602001600020805480602002602001604051908101604052809291908181526020016000905b82821015610a4657838290600052602060002090600502016040518060a00160405290816000820160009054906101000a900473ffffffffffffffffffffffffffffffffffffffff1673ffffffffffffffffffffffffffffffffffffffff1673ffffffffffffffffffffffffffffffffffffffff16815260200160018201548152602001600282015481526020016003820154815260200160048201548152505081526020019060010190610996565b505050509050919050565b60606000600260008481526020019081526020016000208054905090506000806000808467ffffffffffffffff811115610a8e57610a8d6141a0565b5b604051908082528060200260200182016040528015610ac757816020015b610ab461387e565b815260200190600190039081610aac5790505b50905060005b85811015610bd557600260008981526020019081526020016000208181548110610afa57610af9614b99565b5b906000526020600020906002020160000160009054906101000a900473ffffffffffffffffffffffffffffffffffffffff169450600260008981526020019081526020016000208181548110610b5357610b52614b99565b5b9060005260206000209060020201600101549350610b7188866133bf565b925060405180606001604052808673ffffffffffffffffffffffffffffffffffffffff16815260200185815260200184815250828281518110610bb757610bb6614b99565b5b60200260200101819052508080610bcd90614bf7565b915050610acd565b508095505050505050919050565b610beb6135af565b610bf361362d565b565b600015156009600084815260200190815260200160002060003373ffffffffffffffffffffffffffffffffffffffff1673ffffffffffffffffffffffffffffffffffffffff16815260200190815260200160002060009054906101000a900460ff1615151480610c7a5750600160008381526020019081526020016000206002015442115b610cb9576040517f08c379a0000000000000000000000000000000000000000000000000000000008152600401610cb090614cc2565b60405180910390fd5b600e60009054906101000a900473ffffffffffffffffffffffffffffffffffffffff1673ffffffffffffffffffffffffffffffffffffffff16632cbcb1f282336040518363ffffffff1660e01b8152600401610d16929190614ce2565b600060405180830381600087803b158015610d3057600080fd5b505af1158015610d44573d6000803e3d6000fd5b505050505050565b600e60009054906101000a900473ffffffffffffffffffffffffffffffffffffffff1673ffffffffffffffffffffffffffffffffffffffff16630de6e321336040518263ffffffff1660e01b8152600401610da7919061439e565b600060405180830381600087803b158015610dc157600080fd5b505af1158015610dd5573d6000803e3d6000fd5b50505050565b600080610de784610a51565b9050600080825190506000808267ffffffffffffffff811115610e0d57610e0c6141a0565b5b604051908082528060200260200182016040528015610e4657816020015b610e336138b5565b815260200190600190039081610e2b5790505b50905060005b83811015610f68576001945060005b84811015610ec957868181518110610e7657610e75614b99565b5b602002602001015160400151878381518110610e9557610e94614b99565b5b6020026020010151604001511015610eb6578580610eb290614bf7565b9650505b8080610ec190614bf7565b915050610e5b565b506040518060600160405280878381518110610ee857610ee7614b99565b5b60200260200101516000015173ffffffffffffffffffffffffffffffffffffffff168152602001878381518110610f2257610f21614b99565b5b602002602001015160400151815260200186815250828281518110610f4a57610f49614b99565b5b60200260200101819052508080610f6090614bf7565b915050610e4c565b5060005b83811015610ffe57818181518110610f8757610f86614b99565b5b60200260200101516000015173ffffffffffffffffffffffffffffffffffffffff168873ffffffffffffffffffffffffffffffffffffffff1603610feb57818181518110610fd857610fd7614b99565b5b6020026020010151604001519250610ffe565b8080610ff690614bf7565b915050610f6c565b50819550505050505092915050565b6110156135af565b80600e60006101000a81548173ffffffffffffffffffffffffffffffffffffffff021916908373ffffffffffffffffffffffffffffffffffffffff16021790555050565b60008060149054906101000a900460ff16905090565b600060026000838152602001908152602001600020805490509050919050565b600080600060076000868152602001908152602001600020805490509050600060ff9050600080600090505b838110156111c1576000600760008a815260200190815260200160002082815481106110ea576110e9614b99565b5b90600052602060002001549050600d60009054906101000a900473ffffffffffffffffffffffffffffffffffffffff1673ffffffffffffffffffffffffffffffffffffffff16633910b2c2828a6040518363ffffffff1660e01b8152600401611154929190614d29565b6040805180830381865afa158015611170573d6000803e3d6000fd5b505050506040513d601f19601f820116820180604052508101906111949190614d67565b809450819550505060ff8460ff16146111ad57506111c1565b5080806111b990614bf7565b9150506110bb565b508181945094505050509250929050565b6111da6135af565b6111e4600061368f565b565b6111ee6135af565b80600d60006101000a81548173ffffffffffffffffffffffffffffffffffffffff021916908373ffffffffffffffffffffffffffffffffffffffff16021790555050565b61123a6135af565b600760008381526020019081526020016000208190806001815401808255809150506001900390600052602060002001600090919091909150555050565b6112806135af565b600a600081548092919061129390614bf7565b91905055506000815190508160066000600a54815260200190815260200160002090805190602001906112c79291906138ec565b5060405180608001604052808681526020018581526020018481526020018281525060016000600a548152602001908152602001600020600082015181600001556020820151816001015560408201518160020155606082015181600301559050505050505050565b6113386135af565b611340613753565b565b600080600e60009054906101000a900473ffffffffffffffffffffffffffffffffffffffff1673ffffffffffffffffffffffffffffffffffffffff16638ad2e864846040518263ffffffff1660e01b81526004016113a0919061439e565b6040805180830381865afa1580156113bc573d6000803e3d6000fd5b505050506040513d601f19601f820116820180604052508101906113e09190614dbc565b91509150915091565b60008060009054906101000a900473ffffffffffffffffffffffffffffffffffffffff16905090565b600060016000838152602001908152602001600020600101549050919050565b61143a6135af565b60005b81518110156115da5760008061146d858585815181106114605761145f614b99565b5b602002602001015161108f565b9150915060ff8260ff16146115c557816005600086868151811061149457611493614b99565b5b602002602001015163ffffffff1663ffffffff1681526020019081526020016000206000600381106114c9576114c8614b99565b5b602091828204019190066101000a81548160ff021916908360ff160217905550806005600086868151811061150157611500614b99565b5b602002602001015163ffffffff1663ffffffff16815260200190815260200160002060016003811061153657611535614b99565b5b602091828204019190066101000a81548160ff021916908360ff16021790555060016005600086868151811061156f5761156e614b99565b5b602002602001015163ffffffff1663ffffffff1681526020019081526020016000206002600381106115a4576115a3614b99565b5b602091828204019190066101000a81548160ff021916908360ff1602179055505b505080806115d290614bf7565b91505061143d565b505050565b6000600c60009054906101000a900473ffffffffffffffffffffffffffffffffffffffff1673ffffffffffffffffffffffffffffffffffffffff166370a08231336040518263ffffffff1660e01b815260040161163c919061439e565b602060405180830381865afa158015611659573d6000803e3d6000fd5b505050506040513d601f19601f8201168201806040525081019061167d9190614dfc565b116116bd576040517f08c379a00000000000000000000000000000000000000000000000000000000081526004016116b490614e9b565b60405180910390fd5b60016000600a548152602001908152602001600020600101544210611717576040517f08c379a000000000000000000000000000000000000000000000000000000000815260040161170e90614f2d565b60405180910390fd5b611722600a54610941565b815114611764576040517f08c379a000000000000000000000000000000000000000000000000000000000815260040161175b90614fbf565b60405180910390fd5b6000611771600a54610941565b90506000600c60009054906101000a900473ffffffffffffffffffffffffffffffffffffffff1673ffffffffffffffffffffffffffffffffffffffff166370a08231336040518263ffffffff1660e01b81526004016117d0919061439e565b602060405180830381865afa1580156117ed573d6000803e3d6000fd5b505050506040513d601f19601f820116820180604052508101906118119190614dfc565b905060005b8281101561191757604051806040016040528085838151811061183c5761183b614b99565b5b60200260200101516020015160ff1660ff16815260200185838151811061186657611865614b99565b5b60200260200101516040015160ff1660ff16815250600460003373ffffffffffffffffffffffffffffffffffffffff1673ffffffffffffffffffffffffffffffffffffffff16815260200190815260200160002060008684815181106118cf576118ce614b99565b5b60200260200101516000015163ffffffff1663ffffffff16815260200190815260200160002090600261190392919061399c565b50808061190f90614bf7565b915050611816565b50600080600090505b60026000600a54815260200190815260200160002080549050811015611a205760026000600a548152602001908152602001600020818154811061196757611966614b99565b5b906000526020600020906002020160000160009054906101000a900473ffffffffffffffffffffffffffffffffffffffff1673ffffffffffffffffffffffffffffffffffffffff163373ffffffffffffffffffffffffffffffffffffffff1603611a0d578260026000600a54815260200190815260200160002082815481106119f3576119f2614b99565b5b906000526020600020906002020160010181905550600191505b8080611a1890614bf7565b915050611920565b506000151581151503611b555760026000600a54815260200190815260200160002060405180604001604052803373ffffffffffffffffffffffffffffffffffffffff16815260200184815250908060018154018082558091505060019003906000526020600020906002020160009091909190915060008201518160000160006101000a81548173ffffffffffffffffffffffffffffffffffffffff021916908373ffffffffffffffffffffffffffffffffffffffff160217905550602082015181600101555050600160096000600a54815260200190815260200160002060003373ffffffffffffffffffffffffffffffffffffffff1673ffffffffffffffffffffffffffffffffffffffff16815260200190815260200160002060006101000a81548160ff0219169083151502179055505b50505050565b6000600e60009054906101000a900473ffffffffffffffffffffffffffffffffffffffff1673ffffffffffffffffffffffffffffffffffffffff1663b4ace1586040518163ffffffff1660e01b8152600401602060405180830381865afa158015611bca573d6000803e3d6000fd5b505050506040513d601f19601f82011682018060405250810190611bee9190614dfc565b905090565b600e60009054906101000a900473ffffffffffffffffffffffffffffffffffffffff1673ffffffffffffffffffffffffffffffffffffffff1663016fc9d782336040518363ffffffff1660e01b8152600401611c50929190614ce2565b600060405180830381600087803b158015611c6a57600080fd5b505af1158015611c7e573d6000803e3d6000fd5b5050505050565b606060008060008080600080600e60009054906101000a900473ffffffffffffffffffffffffffffffffffffffff1673ffffffffffffffffffffffffffffffffffffffff1663b4ace1586040518163ffffffff1660e01b8152600401602060405180830381865afa158015611cfe573d6000803e3d6000fd5b505050506040513d601f19601f82011682018060405250810190611d229190614dfc565b90506000600360008c815260200190815260200160002054905060008167ffffffffffffffff811115611d5857611d576141a0565b5b604051908082528060200260200182016040528015611d9157816020015b611d7e613a36565b815260200190600190039081611d765790505b50905060008267ffffffffffffffff811115611db057611daf6141a0565b5b604051908082528060200260200182016040528015611de957816020015b611dd66138b5565b815260200190600190039081611dce5790505b50905060008367ffffffffffffffff811115611e0857611e076141a0565b5b604051908082528060200260200182016040528015611e4157816020015b611e2e613a66565b815260200190600190039081611e265790505b50905060005b8d51811015611f055760008e8281518110611e6557611e64614b99565b5b6020026020010151905060005b8160200151811015611ef0576040518060400160405280836000015173ffffffffffffffffffffffffffffffffffffffff1681526020018360400151815250868a81518110611ec457611ec3614b99565b5b60200260200101819052508880611eda90614bf7565b9950508080611ee890614bf7565b915050611e72565b50508080611efd90614bf7565b915050611e47565b5060005b848110156120315760019b5060005b85811015611f9257848181518110611f3357611f32614b99565b5b602002602001015160200151858381518110611f5257611f51614b99565b5b6020026020010151602001511015611f7f578c80611f6f90614bf7565b9d50508b8d1115611f7e578c9b505b5b8080611f8a90614bf7565b915050611f18565b506040518060600160405280858381518110611fb157611fb0614b99565b5b60200260200101516000015173ffffffffffffffffffffffffffffffffffffffff168152602001858381518110611feb57611fea614b99565b5b60200260200101516020015181526020018d81525083828151811061201357612012614b99565b5b6020026020010181905250808061202990614bf7565b915050611f09565b50600095506000600190505b8a811161216f5760005b8581101561215b578184828151811061206357612062614b99565b5b60200260200101516040015103612148576040518060e0016040528085838151811061209257612091614b99565b5b60200260200101516000015173ffffffffffffffffffffffffffffffffffffffff1681526020018583815181106120cc576120cb614b99565b5b60200260200101516020015181526020018583815181106120f0576120ef614b99565b5b6020026020010151604001518152602001600081526020016000815260200160008152602001600081525083898151811061212e5761212d614b99565b5b6020026020010181905250878061214490614bf7565b9850505b808061215390614bf7565b915050612047565b50808061216790614bf7565b91505061203d565b506064600b548a876121819190614fdf565b61218b9190615013565b612195919061509c565b965086896121a391906150cd565b985086816000815181106121ba576121b9614b99565b5b6020026020010151606001818152505086816000815181106121df576121de614b99565b5b60200260200101516080018181525050868160008151811061220457612203614b99565b5b602002602001015160a0018181525050868160008151811061222957612228614b99565b5b602002602001015160c00181815250506000600190505b84811015612671576064600b548b886122599190614fdf565b6122639190615013565b61226d919061509c565b97508782828151811061228357612282614b99565b5b60200260200101516060018181525050878a61229f91906150cd565b9950898282815181106122b5576122b4614b99565b5b602002602001015160800181815250506001856122d29190614fdf565b81146124b857816001826122e69190614fdf565b815181106122f7576122f6614b99565b5b60200260200101516040015182828151811061231657612315614b99565b5b602002602001015160400151036123855787826001836123369190614fdf565b8151811061234757612346614b99565b5b602002602001015160a0015161235d91906150cd565b8282815181106123705761236f614b99565b5b602002602001015160a00181815250506124b3565b8782828151811061239957612398614b99565b5b602002602001015160a0018181525050878282815181106123bd576123bc614b99565b5b602002602001015160c0018181525050816001826123db9190614fdf565b815181106123ec576123eb614b99565b5b60200260200101516040015182828151811061240b5761240a614b99565b5b6020026020010151604001516124219190614fdf565b985060005b898110156124b157898360018461243d9190614fdf565b8151811061244e5761244d614b99565b5b602002602001015160a00151612464919061509c565b8360018361247291906150cd565b8461247d9190614fdf565b8151811061248e5761248d614b99565b5b602002602001015160c001818152505080806124a990614bf7565b915050612426565b505b61265e565b816001826124c69190614fdf565b815181106124d7576124d6614b99565b5b6020026020010151604001518282815181106124f6576124f5614b99565b5b602002602001015160400151036126145787826001836125169190614fdf565b8151811061252757612526614b99565b5b602002602001015160a0015161253d91906150cd565b8282815181106125505761254f614b99565b5b602002602001015160a001818152505081818151811061257357612572614b99565b5b60200260200101516040015160018661258c91906150cd565b6125969190614fdf565b985060005b8981101561260e57898383815181106125b7576125b6614b99565b5b602002602001015160a001516125cd919061509c565b8382846125da9190614fdf565b815181106125eb576125ea614b99565b5b602002602001015160c0018181525050808061260690614bf7565b91505061259b565b5061265d565b8782828151811061262857612627614b99565b5b602002602001015160a00181815250508782828151811061264c5761264b614b99565b5b602002602001015160c00181815250505b5b808061266990614bf7565b915050612240565b50809b50505050505050505050505092915050565b6000806000600460008673ffffffffffffffffffffffffffffffffffffffff1673ffffffffffffffffffffffffffffffffffffffff16815260200190815260200160002060008563ffffffff1663ffffffff168152602001908152602001600020600280602002604051908101604052809291908260028015612744576020028201916000905b82829054906101000a900460ff1660ff168152602001906001019060208260000104928301926001038202915080841161270d5790505b505050505090508060006002811061275f5761275e614b99565b5b60200201518160016002811061277857612777614b99565b5b602002015192509250509250929050565b60006009600084815260200190815260200160002060008373ffffffffffffffffffffffffffffffffffffffff1673ffffffffffffffffffffffffffffffffffffffff16815260200190815260200160002060009054906101000a900460ff16905092915050565b600060016000838152602001908152602001600020600201549050919050565b6128196135af565b600c60009054906101000a900473ffffffffffffffffffffffffffffffffffffffff1673ffffffffffffffffffffffffffffffffffffffff166318160ddd6040518163ffffffff1660e01b8152600401602060405180830381865afa158015612886573d6000803e3d6000fd5b505050506040513d601f19601f820116820180604052508101906128aa9190614dfc565b600360008381526020019081526020016000208190555060006128cc82610a51565b905060006128da8383611c85565b90506000600860008581526020019081526020016000206040518060a00160405280846000815181106129105761290f614b99565b5b60200260200101516000015173ffffffffffffffffffffffffffffffffffffffff168152602001600181526020018460008151811061295257612951614b99565b5b60200260200101516020015181526020018460008151811061297757612976614b99565b5b60200260200101516040015181526020018460008151811061299c5761299b614b99565b5b602002602001015160c00151815250908060018154018082558091505060019003906000526020600020906005020160009091909190915060008201518160000160006101000a81548173ffffffffffffffffffffffffffffffffffffffff021916908373ffffffffffffffffffffffffffffffffffffffff1602179055506020820151816001015560408201518160020155606082015181600301556080820151816004015550506000600190505b6003600086815260200190815260200160002054811015612d235782600182612a759190614fdf565b81518110612a8657612a85614b99565b5b60200260200101516000015173ffffffffffffffffffffffffffffffffffffffff16838281518110612abb57612aba614b99565b5b60200260200101516000015173ffffffffffffffffffffffffffffffffffffffff1603612b9e57600860008681526020019081526020016000208281548110612b0757612b06614b99565b5b90600052602060002090600502016001016000815480929190612b2990614bf7565b9190505550828181518110612b4157612b40614b99565b5b602002602001015160c00151600860008781526020019081526020016000208381548110612b7257612b71614b99565b5b90600052602060002090600502016004016000828254612b9291906150cd565b92505081905550612d10565b600860008681526020019081526020016000206040518060a00160405280858481518110612bcf57612bce614b99565b5b60200260200101516000015173ffffffffffffffffffffffffffffffffffffffff16815260200160018152602001858481518110612c1057612c0f614b99565b5b6020026020010151602001518152602001858481518110612c3457612c33614b99565b5b6020026020010151604001518152602001858481518110612c5857612c57614b99565b5b602002602001015160c00151815250908060018154018082558091505060019003906000526020600020906005020160009091909190915060008201518160000160006101000a81548173ffffffffffffffffffffffffffffffffffffffff021916908373ffffffffffffffffffffffffffffffffffffffff1602179055506020820151816001015560408201518160020155606082015181600301556080820151816004015550508180612d0c90614bf7565b9250505b8080612d1b90614bf7565b915050612a4c565b5060005b6008600086815260200190815260200160002080549050811015612e79576000600860008781526020019081526020016000208281548110612d6c57612d6b614b99565b5b906000526020600020906005020160000160009054906101000a900473ffffffffffffffffffffffffffffffffffffffff169050600e60009054906101000a900473ffffffffffffffffffffffffffffffffffffffff1673ffffffffffffffffffffffffffffffffffffffff166371dd884082600860008a81526020019081526020016000208581548110612e0457612e03614b99565b5b9060005260206000209060050201600401546040518363ffffffff1660e01b8152600401612e33929190615123565b600060405180830381600087803b158015612e4d57600080fd5b505af1158015612e61573d6000803e3d6000fd5b50505050508080612e7190614bf7565b915050612d27565b5050505050565b612e886135af565b60008151905060005b81811015612fa25760076000868152602001908152602001600020600d60009054906101000a900473ffffffffffffffffffffffffffffffffffffffff1673ffffffffffffffffffffffffffffffffffffffff1663580c2f54600187878681518110612f0057612eff614b99565b5b60200260200101516040518463ffffffff1660e01b8152600401612f2693929190615191565b6020604051808303816000875af1158015612f45573d6000803e3d6000fd5b505050506040513d601f19601f82011682018060405250810190612f6991906151dd565b90806001815401808255809150506001900390600052602060002001600090919091909150558080612f9a90614bf7565b915050612e91565b5050505050565b612fb16135af565b6000603090506000600c60009054906101000a900473ffffffffffffffffffffffffffffffffffffffff1673ffffffffffffffffffffffffffffffffffffffff166370a08231856040518263ffffffff1660e01b8152600401613014919061439e565b602060405180830381865afa158015613031573d6000803e3d6000fd5b505050506040513d601f19601f820116820180604052508101906130559190614dfc565b905060005b8281101561315b5760405180604001604052808583815181106130805761307f614b99565b5b60200260200101516020015160ff1660ff1681526020018583815181106130aa576130a9614b99565b5b60200260200101516040015160ff1660ff16815250600460008773ffffffffffffffffffffffffffffffffffffffff1673ffffffffffffffffffffffffffffffffffffffff168152602001908152602001600020600086848151811061311357613112614b99565b5b60200260200101516000015163ffffffff1663ffffffff16815260200190815260200160002090600261314792919061399c565b50808061315390614bf7565b91505061305a565b506002600086815260200190815260200160002060405180604001604052808673ffffffffffffffffffffffffffffffffffffffff16815260200183815250908060018154018082558091505060019003906000526020600020906002020160009091909190915060008201518160000160006101000a81548173ffffffffffffffffffffffffffffffffffffffff021916908373ffffffffffffffffffffffffffffffffffffffff16021790555060208201518160010155505060016009600087815260200190815260200160002060008673ffffffffffffffffffffffffffffffffffffffff1673ffffffffffffffffffffffffffffffffffffffff16815260200190815260200160002060006101000a81548160ff0219169083151502179055505050505050565b6060600760008381526020019081526020016000208054806020026020016040519081016040528092919081815260200182805480156132e557602002820191906000526020600020905b8154815260200190600101908083116132d1575b50505050509050919050565b6132f96135af565b600073ffffffffffffffffffffffffffffffffffffffff168173ffffffffffffffffffffffffffffffffffffffff1603613368576040517f08c379a000000000000000000000000000000000000000000000000000000000815260040161335f9061527c565b60405180910390fd5b6133718161368f565b50565b6000808260ff168460ff16111561338e57600090506133ab565b8360ff168360ff1611156133a557600290506133aa565b600190505b5b8091505092915050565b6000600a54905090565b600080600080600090506000806133d588610941565b905060005b818110156135a057600660008a8152602001908152602001600020818154811061340757613406614b99565b5b90600052602060002090600891828204019190066004029054906101000a900463ffffffff1692506001600560008563ffffffff1663ffffffff16815260200190815260200160002060026003811061346357613462614b99565b5b602091828204019190069054906101000a900460ff1660ff160361358d576000600560008563ffffffff1663ffffffff1681526020019081526020016000206000600381106134b5576134b4614b99565b5b602091828204019190069054906101000a900460ff1690506000600560008663ffffffff1663ffffffff16815260200190815260200160002060016003811061350157613500614b99565b5b602091828204019190069054906101000a900460ff1690506000806135268c88612686565b915091506135348282613374565b99506135408484613374565b9850888a036135885760018861355691906150cd565b97508360ff168260ff1614801561357257508260ff168160ff16145b156135875760028861358491906150cd565b97505b5b505050505b808061359890614bf7565b9150506133da565b50829550505050505092915050565b6135b76137b6565b73ffffffffffffffffffffffffffffffffffffffff166135d56113e9565b73ffffffffffffffffffffffffffffffffffffffff161461362b576040517f08c379a0000000000000000000000000000000000000000000000000000000008152600401613622906152e8565b60405180910390fd5b565b6136356137be565b60008060146101000a81548160ff0219169083151502179055507f5db9ee0a495bf2e6ff9c91a7834c1ba4fdd244a5e8aa4e537bd38aeae4b073aa6136786137b6565b604051613685919061439e565b60405180910390a1565b60008060009054906101000a900473ffffffffffffffffffffffffffffffffffffffff169050816000806101000a81548173ffffffffffffffffffffffffffffffffffffffff021916908373ffffffffffffffffffffffffffffffffffffffff1602179055508173ffffffffffffffffffffffffffffffffffffffff168173ffffffffffffffffffffffffffffffffffffffff167f8be0079c531659141344cd1fd0a4f28419497f9722a3daafe3b4186f6b6457e060405160405180910390a35050565b61375b613807565b6001600060146101000a81548160ff0219169083151502179055507f62e78cea01bee320cd4e420270b5ea74000d11b0c9f74754ebdbfc544b05a25861379f6137b6565b6040516137ac919061439e565b60405180910390a1565b600033905090565b6137c6611059565b613805576040517f08c379a00000000000000000000000000000000000000000000000000000000081526004016137fc90615354565b60405180910390fd5b565b61380f611059565b1561384f576040517f08c379a0000000000000000000000000000000000000000000000000000000008152600401613846906153c0565b60405180910390fd5b565b6040518060600160405280600063ffffffff168152602001600060ff168152602001600060ff1681525090565b6040518060600160405280600073ffffffffffffffffffffffffffffffffffffffff16815260200160008152602001600081525090565b6040518060600160405280600073ffffffffffffffffffffffffffffffffffffffff16815260200160008152602001600081525090565b8280548282559060005260206000209060070160089004810192821561398b5791602002820160005b8382111561395957835183826101000a81548163ffffffff021916908363ffffffff1602179055509260200192600401602081600301049283019260010302613915565b80156139895782816101000a81549063ffffffff0219169055600401602081600301049283019260010302613959565b505b5090506139989190613ab9565b5090565b826002601f01602090048101928215613a255791602002820160005b838211156139f657835183826101000a81548160ff021916908360ff16021790555092602001926001016020816000010492830192600103026139b8565b8015613a235782816101000a81549060ff02191690556001016020816000010492830192600103026139f6565b505b509050613a329190613ab9565b5090565b6040518060400160405280600073ffffffffffffffffffffffffffffffffffffffff168152602001600081525090565b6040518060e00160405280600073ffffffffffffffffffffffffffffffffffffffff1681526020016000815260200160008152602001600081526020016000815260200160008152602001600081525090565b5b80821115613ad2576000816000905550600101613aba565b5090565b6000604051905090565b600080fd5b600080fd5b6000819050919050565b613afd81613aea565b8114613b0857600080fd5b50565b600081359050613b1a81613af4565b92915050565b600073ffffffffffffffffffffffffffffffffffffffff82169050919050565b6000613b4b82613b20565b9050919050565b613b5b81613b40565b8114613b6657600080fd5b50565b600081359050613b7881613b52565b92915050565b60008060408385031215613b9557613b94613ae0565b5b6000613ba385828601613b0b565b9250506020613bb485828601613b69565b9150509250929050565b600081519050919050565b600082825260208201905092915050565b6000819050602082019050919050565b600063ffffffff82169050919050565b613c0381613bea565b82525050565b600060ff82169050919050565b613c1f81613c09565b82525050565b606082016000820151613c3b6000850182613bfa565b506020820151613c4e6020850182613c16565b506040820151613c616040850182613c16565b50505050565b6000613c738383613c25565b60608301905092915050565b6000602082019050919050565b6000613c9782613bbe565b613ca18185613bc9565b9350613cac83613bda565b8060005b83811015613cdd578151613cc48882613c67565b9750613ccf83613c7f565b925050600181019050613cb0565b5085935050505092915050565b60006020820190508181036000830152613d048184613c8c565b905092915050565b600060208284031215613d2257613d21613ae0565b5b6000613d3084828501613b0b565b91505092915050565b613d4281613aea565b82525050565b6000602082019050613d5d6000830184613d39565b92915050565b600081519050919050565b600082825260208201905092915050565b6000819050602082019050919050565b613d9881613b40565b82525050565b613da781613aea565b82525050565b60a082016000820151613dc36000850182613d8f565b506020820151613dd66020850182613d9e565b506040820151613de96040850182613d9e565b506060820151613dfc6060850182613d9e565b506080820151613e0f6080850182613d9e565b50505050565b6000613e218383613dad565b60a08301905092915050565b6000602082019050919050565b6000613e4582613d63565b613e4f8185613d6e565b9350613e5a83613d7f565b8060005b83811015613e8b578151613e728882613e15565b9750613e7d83613e2d565b925050600181019050613e5e565b5085935050505092915050565b60006020820190508181036000830152613eb28184613e3a565b905092915050565b600081519050919050565b600082825260208201905092915050565b6000819050602082019050919050565b606082016000820151613efc6000850182613d8f565b506020820151613f0f6020850182613d9e565b506040820151613f226040850182613d9e565b50505050565b6000613f348383613ee6565b60608301905092915050565b6000602082019050919050565b6000613f5882613eba565b613f628185613ec5565b9350613f6d83613ed6565b8060005b83811015613f9e578151613f858882613f28565b9750613f9083613f40565b925050600181019050613f71565b5085935050505092915050565b60006020820190508181036000830152613fc58184613f4d565b905092915050565b60008060408385031215613fe457613fe3613ae0565b5b6000613ff285828601613b0b565b925050602061400385828601613b0b565b9150509250929050565b60006020828403121561402357614022613ae0565b5b600061403184828501613b69565b91505092915050565b60008115159050919050565b61404f8161403a565b82525050565b600060208201905061406a6000830184614046565b92915050565b61407981613bea565b811461408457600080fd5b50565b60008135905061409681614070565b92915050565b600080604083850312156140b3576140b2613ae0565b5b60006140c185828601613b0b565b92505060206140d285828601614087565b9150509250929050565b6140e581613c09565b82525050565b600060408201905061410060008301856140dc565b61410d60208301846140dc565b9392505050565b6000819050919050565b61412781614114565b811461413257600080fd5b50565b6000813590506141448161411e565b92915050565b6000806040838503121561416157614160613ae0565b5b600061416f85828601613b0b565b925050602061418085828601614135565b9150509250929050565b600080fd5b6000601f19601f8301169050919050565b7f4e487b7100000000000000000000000000000000000000000000000000000000600052604160045260246000fd5b6141d88261418f565b810181811067ffffffffffffffff821117156141f7576141f66141a0565b5b80604052505050565b600061420a613ad6565b905061421682826141cf565b919050565b600067ffffffffffffffff821115614236576142356141a0565b5b602082029050602081019050919050565b600080fd5b600061425f61425a8461421b565b614200565b9050808382526020820190506020840283018581111561428257614281614247565b5b835b818110156142ab57806142978882614087565b845260208401935050602081019050614284565b5050509392505050565b600082601f8301126142ca576142c961418a565b5b81356142da84826020860161424c565b91505092915050565b600080600080608085870312156142fd576142fc613ae0565b5b600061430b87828801613b0b565b945050602061431c87828801613b0b565b935050604061432d87828801613b0b565b925050606085013567ffffffffffffffff81111561434e5761434d613ae5565b5b61435a878288016142b5565b91505092959194509250565b600060408201905061437b6000830185613d39565b6143886020830184613d39565b9392505050565b61439881613b40565b82525050565b60006020820190506143b3600083018461438f565b92915050565b600080604083850312156143d0576143cf613ae0565b5b60006143de85828601613b0b565b925050602083013567ffffffffffffffff8111156143ff576143fe613ae5565b5b61440b858286016142b5565b9150509250929050565b600067ffffffffffffffff8211156144305761442f6141a0565b5b602082029050602081019050919050565b600080fd5b61444f81613c09565b811461445a57600080fd5b50565b60008135905061446c81614446565b92915050565b60006060828403121561448857614487614441565b5b6144926060614200565b905060006144a284828501614087565b60008301525060206144b68482850161445d565b60208301525060406144ca8482850161445d565b60408301525092915050565b60006144e96144e484614415565b614200565b9050808382526020820190506060840283018581111561450c5761450b614247565b5b835b8181101561453557806145218882614472565b84526020840193505060608101905061450e565b5050509392505050565b600082601f8301126145545761455361418a565b5b81356145648482602086016144d6565b91505092915050565b60006020828403121561458357614582613ae0565b5b600082013567ffffffffffffffff8111156145a1576145a0613ae5565b5b6145ad8482850161453f565b91505092915050565b600067ffffffffffffffff8211156145d1576145d06141a0565b5b602082029050602081019050919050565b6000606082840312156145f8576145f7614441565b5b6146026060614200565b9050600061461284828501613b69565b600083015250602061462684828501613b0b565b602083015250604061463a84828501613b0b565b60408301525092915050565b6000614659614654846145b6565b614200565b9050808382526020820190506060840283018581111561467c5761467b614247565b5b835b818110156146a5578061469188826145e2565b84526020840193505060608101905061467e565b5050509392505050565b600082601f8301126146c4576146c361418a565b5b81356146d4848260208601614646565b91505092915050565b600080604083850312156146f4576146f3613ae0565b5b600061470285828601613b0b565b925050602083013567ffffffffffffffff81111561472357614722613ae5565b5b61472f858286016146af565b9150509250929050565b600081519050919050565b600082825260208201905092915050565b6000819050602082019050919050565b60e08201600082015161477b6000850182613d8f565b50602082015161478e6020850182613d9e565b5060408201516147a16040850182613d9e565b5060608201516147b46060850182613d9e565b5060808201516147c76080850182613d9e565b5060a08201516147da60a0850182613d9e565b5060c08201516147ed60c0850182613d9e565b50505050565b60006147ff8383614765565b60e08301905092915050565b6000602082019050919050565b600061482382614739565b61482d8185614744565b935061483883614755565b8060005b8381101561486957815161485088826147f3565b975061485b8361480b565b92505060018101905061483c565b5085935050505092915050565b600060208201905081810360008301526148908184614818565b905092915050565b600080604083850312156148af576148ae613ae0565b5b60006148bd85828601613b69565b92505060206148ce85828601614087565b9150509250929050565b600067ffffffffffffffff8211156148f3576148f26141a0565b5b602082029050602081019050919050565b6000614917614912846148d8565b614200565b9050808382526020820190506020840283018581111561493a57614939614247565b5b835b81811015614963578061494f8882613b0b565b84526020840193505060208101905061493c565b5050509392505050565b600082601f8301126149825761498161418a565b5b8135614992848260208601614904565b91505092915050565b6000806000606084860312156149b4576149b3613ae0565b5b60006149c286828701613b0b565b93505060206149d386828701613b0b565b925050604084013567ffffffffffffffff8111156149f4576149f3613ae5565b5b614a008682870161496d565b9150509250925092565b600080600060608486031215614a2357614a22613ae0565b5b6000614a3186828701613b0b565b9350506020614a4286828701613b69565b925050604084013567ffffffffffffffff811115614a6357614a62613ae5565b5b614a6f8682870161453f565b9150509250925092565b600081519050919050565b600082825260208201905092915050565b6000819050602082019050919050565b614aae81614114565b82525050565b6000614ac08383614aa5565b60208301905092915050565b6000602082019050919050565b6000614ae482614a79565b614aee8185614a84565b9350614af983614a95565b8060005b83811015614b2a578151614b118882614ab4565b9750614b1c83614acc565b925050600181019050614afd565b5085935050505092915050565b60006020820190508181036000830152614b518184614ad9565b905092915050565b60008060408385031215614b7057614b6f613ae0565b5b6000614b7e8582860161445d565b9250506020614b8f8582860161445d565b9150509250929050565b7f4e487b7100000000000000000000000000000000000000000000000000000000600052603260045260246000fd5b7f4e487b7100000000000000000000000000000000000000000000000000000000600052601160045260246000fd5b6000614c0282613aea565b91507fffffffffffffffffffffffffffffffffffffffffffffffffffffffffffffffff8203614c3457614c33614bc8565b5b600182019050919050565b600082825260208201905092915050565b7f596f752063616e6e6f7420776974686472617720756e74696c2074686520656e60008201527f64206f662074686520636f6e7465737421000000000000000000000000000000602082015250565b6000614cac603183614c3f565b9150614cb782614c50565b604082019050919050565b60006020820190508181036000830152614cdb81614c9f565b9050919050565b6000604082019050614cf76000830185613d39565b614d04602083018461438f565b9392505050565b614d1481614114565b82525050565b614d2381613bea565b82525050565b6000604082019050614d3e6000830185614d0b565b614d4b6020830184614d1a565b9392505050565b600081519050614d6181614446565b92915050565b60008060408385031215614d7e57614d7d613ae0565b5b6000614d8c85828601614d52565b9250506020614d9d85828601614d52565b9150509250929050565b600081519050614db681613af4565b92915050565b60008060408385031215614dd357614dd2613ae0565b5b6000614de185828601614da7565b9250506020614df285828601614da7565b9150509250929050565b600060208284031215614e1257614e11613ae0565b5b6000614e2084828501614da7565b91505092915050565b7f596f75206e6565642061207469636b657420666f7220736176696e672070726560008201527f64696374696f6e73210000000000000000000000000000000000000000000000602082015250565b6000614e85602983614c3f565b9150614e9082614e29565b604082019050919050565b60006020820190508181036000830152614eb481614e78565b9050919050565b7f5375626d697373696f6e20506572696f6420666f722070726564696374696f6e60008201527f7320697320636c6f736564210000000000000000000000000000000000000000602082015250565b6000614f17602c83614c3f565b9150614f2282614ebb565b604082019050919050565b60006020820190508181036000830152614f4681614f0a565b9050919050565b7f546865206e756d626572206f662070726564696374696f6e7320646f65736e2760008201527f74206d6174636821000000000000000000000000000000000000000000000000602082015250565b6000614fa9602883614c3f565b9150614fb482614f4d565b604082019050919050565b60006020820190508181036000830152614fd881614f9c565b9050919050565b6000614fea82613aea565b9150614ff583613aea565b92508282101561500857615007614bc8565b5b828203905092915050565b600061501e82613aea565b915061502983613aea565b9250817fffffffffffffffffffffffffffffffffffffffffffffffffffffffffffffffff048311821515161561506257615061614bc8565b5b828202905092915050565b7f4e487b7100000000000000000000000000000000000000000000000000000000600052601260045260246000fd5b60006150a782613aea565b91506150b283613aea565b9250826150c2576150c161506d565b5b828204905092915050565b60006150d882613aea565b91506150e383613aea565b9250827fffffffffffffffffffffffffffffffffffffffffffffffffffffffffffffffff0382111561511857615117614bc8565b5b828201905092915050565b6000604082019050615138600083018561438f565b6151456020830184613d39565b9392505050565b6000819050919050565b6000819050919050565b600061517b6151766151718461514c565b615156565b613aea565b9050919050565b61518b81615160565b82525050565b60006060820190506151a66000830186615182565b6151b36020830185613d39565b6151c06040830184613d39565b949350505050565b6000815190506151d78161411e565b92915050565b6000602082840312156151f3576151f2613ae0565b5b6000615201848285016151c8565b91505092915050565b7f4f776e61626c653a206e6577206f776e657220697320746865207a65726f206160008201527f6464726573730000000000000000000000000000000000000000000000000000602082015250565b6000615266602683614c3f565b91506152718261520a565b604082019050919050565b6000602082019050818103600083015261529581615259565b9050919050565b7f4f776e61626c653a2063616c6c6572206973206e6f7420746865206f776e6572600082015250565b60006152d2602083614c3f565b91506152dd8261529c565b602082019050919050565b60006020820190508181036000830152615301816152c5565b9050919050565b7f5061757361626c653a206e6f7420706175736564000000000000000000000000600082015250565b600061533e601483614c3f565b915061534982615308565b602082019050919050565b6000602082019050818103600083015261536d81615331565b9050919050565b7f5061757361626c653a2070617573656400000000000000000000000000000000600082015250565b60006153aa601083614c3f565b91506153b582615374565b602082019050919050565b600060208201905081810360008301526153d98161539d565b905091905056fea2646970667358221220d8a33edbfaa19b68cc16d860d578d0dfac5ef976a89ef7643d114b6c149223d164736f6c634300080f0033",
  "linkReferences": {},
  "deployedLinkReferences": {}
}