{
  "_format": "hh-sol-artifact-1",
  "contractName": "InterpoolContract",
  "sourceName": "contracts/InterpoolContract.sol",
  "abi": [
    {
      "inputs": [],
      "stateMutability": "nonpayable",
      "type": "constructor"
    },
    {
      "anonymous": false,
      "inputs": [
        {
          "indexed": true,
          "internalType": "address",
          "name": "previousOwner",
          "type": "address"
        },
        {
          "indexed": true,
          "internalType": "address",
          "name": "newOwner",
          "type": "address"
        }
      ],
      "name": "OwnershipTransferred",
      "type": "event"
    },
    {
      "anonymous": false,
      "inputs": [
        {
          "indexed": false,
          "internalType": "address",
          "name": "account",
          "type": "address"
        }
      ],
      "name": "Paused",
      "type": "event"
    },
    {
      "anonymous": false,
      "inputs": [
        {
          "indexed": false,
          "internalType": "address",
          "name": "account",
          "type": "address"
        }
      ],
      "name": "Unpaused",
      "type": "event"
    },
    {
      "inputs": [
        {
          "internalType": "uint256",
          "name": "_contestId",
          "type": "uint256"
        },
        {
          "components": [
            {
              "internalType": "address",
              "name": "player",
              "type": "address"
            },
            {
              "internalType": "uint256",
              "name": "nbTickets",
              "type": "uint256"
            },
            {
              "internalType": "uint256",
              "name": "score",
              "type": "uint256"
            }
          ],
          "internalType": "struct InterpoolContract.PlayerScoreTicket[]",
          "name": "_scoreTable",
          "type": "tuple[]"
        }
      ],
      "name": "calculateGain",
      "outputs": [
        {
          "components": [
            {
              "internalType": "address",
              "name": "player",
              "type": "address"
            },
            {
              "internalType": "uint256",
              "name": "score",
              "type": "uint256"
            },
            {
              "internalType": "uint256",
              "name": "rankExAequo",
              "type": "uint256"
            },
            {
              "internalType": "uint256",
              "name": "rewardNoExAequo",
              "type": "uint256"
            },
            {
              "internalType": "uint256",
              "name": "cumulatedRewardsNoExAequo",
              "type": "uint256"
            },
            {
              "internalType": "uint256",
              "name": "cumulatedRewardsPerRank",
              "type": "uint256"
            },
            {
              "internalType": "uint256",
              "name": "rewardPerRankPerPlayer",
              "type": "uint256"
            }
          ],
          "internalType": "struct InterpoolContract.Gain[]",
          "name": "",
          "type": "tuple[]"
        }
      ],
      "stateMutability": "view",
      "type": "function"
    },
    {
      "inputs": [
        {
          "internalType": "uint256",
          "name": "_contestId",
          "type": "uint256"
        },
        {
          "internalType": "address",
          "name": "_player",
          "type": "address"
        }
      ],
      "name": "checkResult",
      "outputs": [
        {
          "internalType": "uint256",
          "name": "",
          "type": "uint256"
        }
      ],
      "stateMutability": "view",
      "type": "function"
    },
    {
      "inputs": [],
      "name": "claimFromInterpool",
      "outputs": [],
      "stateMutability": "nonpayable",
      "type": "function"
    },
    {
      "inputs": [
        {
          "internalType": "uint256",
          "name": "",
          "type": "uint256"
        },
        {
          "internalType": "uint256",
          "name": "",
          "type": "uint256"
        }
      ],
      "name": "contestTable",
      "outputs": [
        {
          "internalType": "address",
          "name": "player",
          "type": "address"
        },
        {
          "internalType": "uint256",
          "name": "nbTickets",
          "type": "uint256"
        },
        {
          "internalType": "uint256",
          "name": "score",
          "type": "uint256"
        },
        {
          "internalType": "uint256",
          "name": "rankExAequo",
          "type": "uint256"
        },
        {
          "internalType": "uint256",
          "name": "rewardPerRankPerPlayer",
          "type": "uint256"
        }
      ],
      "stateMutability": "view",
      "type": "function"
    },
    {
      "inputs": [
        {
          "internalType": "uint256",
          "name": "_leagueId",
          "type": "uint256"
        },
        {
          "internalType": "string[]",
          "name": "_listRequestId",
          "type": "string[]"
        },
        {
          "internalType": "uint256",
          "name": "_dateEndContest",
          "type": "uint256"
        }
      ],
      "name": "createContest",
      "outputs": [],
      "stateMutability": "nonpayable",
      "type": "function"
    },
    {
      "inputs": [
        {
          "internalType": "uint256",
          "name": "_amount",
          "type": "uint256"
        }
      ],
      "name": "depositOnAave",
      "outputs": [],
      "stateMutability": "nonpayable",
      "type": "function"
    },
    {
      "inputs": [],
      "name": "getContestPredictionEndDate",
      "outputs": [
        {
          "internalType": "uint256",
          "name": "",
          "type": "uint256"
        }
      ],
      "stateMutability": "view",
      "type": "function"
    },
    {
      "inputs": [
        {
          "internalType": "uint256",
          "name": "_contestId",
          "type": "uint256"
        }
      ],
      "name": "getContestTable",
      "outputs": [
        {
          "components": [
            {
              "internalType": "address",
              "name": "player",
              "type": "address"
            },
            {
              "internalType": "uint256",
              "name": "nbTickets",
              "type": "uint256"
            },
            {
              "internalType": "uint256",
              "name": "score",
              "type": "uint256"
            },
            {
              "internalType": "uint256",
              "name": "rankExAequo",
              "type": "uint256"
            },
            {
              "internalType": "uint256",
              "name": "rewardPerRankPerPlayer",
              "type": "uint256"
            }
          ],
          "internalType": "struct InterpoolContract.ContestResult[]",
          "name": "",
          "type": "tuple[]"
        }
      ],
      "stateMutability": "view",
      "type": "function"
    },
    {
      "inputs": [],
      "name": "getCurrentContestId",
      "outputs": [
        {
          "internalType": "uint256",
          "name": "",
          "type": "uint256"
        }
      ],
      "stateMutability": "view",
      "type": "function"
    },
    {
      "inputs": [],
      "name": "getGlobalPrizePool",
      "outputs": [
        {
          "internalType": "uint256",
          "name": "",
          "type": "uint256"
        }
      ],
      "stateMutability": "view",
      "type": "function"
    },
    {
      "inputs": [
        {
          "internalType": "uint256",
          "name": "_contestId",
          "type": "uint256"
        }
      ],
      "name": "getListGamesPerContest",
      "outputs": [
        {
          "components": [
            {
              "internalType": "uint32",
              "name": "gameId",
              "type": "uint32"
            },
            {
              "internalType": "uint40",
              "name": "startTime",
              "type": "uint40"
            },
            {
              "internalType": "string",
              "name": "homeTeam",
              "type": "string"
            },
            {
              "internalType": "string",
              "name": "awayTeam",
              "type": "string"
            }
          ],
          "internalType": "struct InterpoolContract.GameCreate[]",
          "name": "",
          "type": "tuple[]"
        }
      ],
      "stateMutability": "view",
      "type": "function"
    },
    {
      "inputs": [
        {
          "internalType": "uint256",
          "name": "_contestId",
          "type": "uint256"
        }
      ],
      "name": "getNumberOfGamesPerContest",
      "outputs": [
        {
          "internalType": "uint256",
          "name": "",
          "type": "uint256"
        }
      ],
      "stateMutability": "view",
      "type": "function"
    },
    {
      "inputs": [
        {
          "internalType": "string",
          "name": "_requestId",
          "type": "string"
        }
      ],
      "name": "getNumberOfGamesPerRequest",
      "outputs": [
        {
          "internalType": "uint256",
          "name": "",
          "type": "uint256"
        }
      ],
      "stateMutability": "view",
      "type": "function"
    },
    {
      "inputs": [
        {
          "internalType": "uint256",
          "name": "_contestId",
          "type": "uint256"
        }
      ],
      "name": "getNumberOfPlayers",
      "outputs": [
        {
          "internalType": "uint256",
          "name": "",
          "type": "uint256"
        }
      ],
      "stateMutability": "view",
      "type": "function"
    },
    {
      "inputs": [
        {
          "internalType": "uint256",
          "name": "_contestId",
          "type": "uint256"
        },
        {
          "internalType": "address",
          "name": "_player",
          "type": "address"
        }
      ],
      "name": "getPlayerRank",
      "outputs": [
        {
          "internalType": "uint256",
          "name": "",
          "type": "uint256"
        }
      ],
      "stateMutability": "view",
      "type": "function"
    },
    {
      "inputs": [
        {
          "internalType": "uint256",
          "name": "_contestId",
          "type": "uint256"
        },
        {
          "internalType": "address",
          "name": "_player",
          "type": "address"
        }
      ],
      "name": "getPrevisionsPerPlayerPerContest",
      "outputs": [
        {
          "components": [
            {
              "internalType": "uint32",
              "name": "gameId",
              "type": "uint32"
            },
            {
              "internalType": "uint8",
              "name": "homeScore",
              "type": "uint8"
            },
            {
              "internalType": "uint8",
              "name": "awayScore",
              "type": "uint8"
            }
          ],
          "internalType": "struct InterpoolContract.GamePredict[]",
          "name": "",
          "type": "tuple[]"
        }
      ],
      "stateMutability": "view",
      "type": "function"
    },
    {
      "inputs": [
        {
          "internalType": "uint256",
          "name": "_contestId",
          "type": "uint256"
        }
      ],
      "name": "getRequestIdPerContest",
      "outputs": [
        {
          "internalType": "string[]",
          "name": "",
          "type": "string[]"
        }
      ],
      "stateMutability": "view",
      "type": "function"
    },
    {
      "inputs": [
        {
          "internalType": "uint256",
          "name": "_contestId",
          "type": "uint256"
        }
      ],
      "name": "getScoreTable",
      "outputs": [
        {
          "components": [
            {
              "internalType": "address",
              "name": "player",
              "type": "address"
            },
            {
              "internalType": "uint256",
              "name": "nbTickets",
              "type": "uint256"
            },
            {
              "internalType": "uint256",
              "name": "score",
              "type": "uint256"
            }
          ],
          "internalType": "struct InterpoolContract.PlayerScoreTicket[]",
          "name": "",
          "type": "tuple[]"
        }
      ],
      "stateMutability": "view",
      "type": "function"
    },
    {
      "inputs": [
        {
          "internalType": "address",
          "name": "_player",
          "type": "address"
        }
      ],
      "name": "getWinningsPerPlayer",
      "outputs": [
        {
          "components": [
            {
              "internalType": "uint256",
              "name": "pendingWinnings",
              "type": "uint256"
            },
            {
              "internalType": "uint256",
              "name": "claimedWinnings",
              "type": "uint256"
            }
          ],
          "internalType": "struct IpPool.Winnings",
          "name": "",
          "type": "tuple"
        }
      ],
      "stateMutability": "view",
      "type": "function"
    },
    {
      "inputs": [],
      "name": "globalPendingWinnings",
      "outputs": [
        {
          "internalType": "uint256",
          "name": "",
          "type": "uint256"
        }
      ],
      "stateMutability": "view",
      "type": "function"
    },
    {
      "inputs": [
        {
          "internalType": "uint256",
          "name": "",
          "type": "uint256"
        }
      ],
      "name": "nbTotalTicketsPerContest",
      "outputs": [
        {
          "internalType": "uint256",
          "name": "",
          "type": "uint256"
        }
      ],
      "stateMutability": "view",
      "type": "function"
    },
    {
      "inputs": [],
      "name": "owner",
      "outputs": [
        {
          "internalType": "address",
          "name": "",
          "type": "address"
        }
      ],
      "stateMutability": "view",
      "type": "function"
    },
    {
      "inputs": [],
      "name": "pause",
      "outputs": [],
      "stateMutability": "nonpayable",
      "type": "function"
    },
    {
      "inputs": [],
      "name": "paused",
      "outputs": [
        {
          "internalType": "bool",
          "name": "",
          "type": "bool"
        }
      ],
      "stateMutability": "view",
      "type": "function"
    },
    {
      "inputs": [],
      "name": "renounceOwnership",
      "outputs": [],
      "stateMutability": "nonpayable",
      "type": "function"
    },
    {
      "inputs": [
        {
          "components": [
            {
              "internalType": "uint32",
              "name": "gameId",
              "type": "uint32"
            },
            {
              "internalType": "uint8",
              "name": "homeScore",
              "type": "uint8"
            },
            {
              "internalType": "uint8",
              "name": "awayScore",
              "type": "uint8"
            }
          ],
          "internalType": "struct InterpoolContract.GamePredict[]",
          "name": "_gamePredictions",
          "type": "tuple[]"
        }
      ],
      "name": "savePrediction",
      "outputs": [],
      "stateMutability": "nonpayable",
      "type": "function"
    },
    {
      "inputs": [
        {
          "internalType": "address",
          "name": "newOwner",
          "type": "address"
        }
      ],
      "name": "transferOwnership",
      "outputs": [],
      "stateMutability": "nonpayable",
      "type": "function"
    },
    {
      "inputs": [],
      "name": "unpause",
      "outputs": [],
      "stateMutability": "nonpayable",
      "type": "function"
    },
    {
      "inputs": [
        {
          "internalType": "uint256",
          "name": "_contestId",
          "type": "uint256"
        }
      ],
      "name": "updateContestTable",
      "outputs": [],
      "stateMutability": "nonpayable",
      "type": "function"
    },
    {
      "inputs": [
        {
          "internalType": "address",
          "name": "",
          "type": "address"
        }
      ],
      "name": "winningsPerPlayer",
      "outputs": [
        {
          "internalType": "uint256",
          "name": "pendingWinnings",
          "type": "uint256"
        },
        {
          "internalType": "uint256",
          "name": "claimedWinnings",
          "type": "uint256"
        }
      ],
      "stateMutability": "view",
      "type": "function"
    },
    {
      "inputs": [
        {
          "internalType": "uint256",
          "name": "_nbTickets",
          "type": "uint256"
        }
      ],
      "name": "witdrawFromInterpool",
      "outputs": [],
      "stateMutability": "nonpayable",
      "type": "function"
    }
  ],
  "bytecode": "0x60806040523480156200001157600080fd5b5062000032620000266200020b60201b60201c565b6200021360201b60201c565b60008060146101000a81548160ff02191690831515021790555073a2025b15a1757311bfd68cb14eaefcc237af5b43600360006101000a81548173ffffffffffffffffffffffffffffffffffffffff021916908373ffffffffffffffffffffffffffffffffffffffff16021790555073368eedf3f56ad10b9bc57eed4dac65b26bb667f6600660006101000a81548173ffffffffffffffffffffffffffffffffffffffff021916908373ffffffffffffffffffffffffffffffffffffffff160217905550731ee669290939f8a8864497af3bc83728715265ff600460006101000a81548173ffffffffffffffffffffffffffffffffffffffff021916908373ffffffffffffffffffffffffffffffffffffffff160217905550733cb49b846f13c89dee256e90a3e8830f6a6fa9d1600560006101000a81548173ffffffffffffffffffffffffffffffffffffffff021916908373ffffffffffffffffffffffffffffffffffffffff16021790555073973680af677b40128b8c4015e2ef4c0d889ed7b0600f60006101000a81548173ffffffffffffffffffffffffffffffffffffffff021916908373ffffffffffffffffffffffffffffffffffffffff16021790555060056007819055506000600e81905550620002d7565b600033905090565b60008060009054906101000a900473ffffffffffffffffffffffffffffffffffffffff169050816000806101000a81548173ffffffffffffffffffffffffffffffffffffffff021916908373ffffffffffffffffffffffffffffffffffffffff1602179055508173ffffffffffffffffffffffffffffffffffffffff168173ffffffffffffffffffffffffffffffffffffffff167f8be0079c531659141344cd1fd0a4f28419497f9722a3daafe3b4186f6b6457e060405160405180910390a35050565b615f6880620002e76000396000f3fe608060405234801561001057600080fd5b50600436106101e55760003560e01c8063715018a61161010f578063b4ace158116100a2578063ea6a041011610071578063ea6a0410146105bd578063f2fde38b146105ed578063fb46bd2214610609578063fd8d190914610627576101e5565b8063b4ace15814610523578063b66195b814610541578063baf6378314610571578063d6221518146105a1576101e5565b80638ad2e864116100de5780638ad2e864146104895780638da5cb5b146104b9578063946e18d9146104d75780639fa75e9a14610507576101e5565b8063715018a6146104155780637e5dd9131461041f5780637fb9c45f1461044f5780638456cb591461047f576101e5565b80632452a7e31161018757806357d088ff1161015657806357d088ff146103895780635c975abb146103bd57806362436d9d146103db5780636711c5301461040b576101e5565b80632452a7e3146103015780633f4ba83a14610331578063419441751461033b5780634fda591e14610359576101e5565b806315ccbe53116101c357806315ccbe531461026857806315d9006a1461029957806318699547146102b55780631d883342146102d1576101e5565b806308af2d78146101ea578063117f3998146102085780631506bca614610238575b600080fd5b6101f2610643565b6040516101ff9190613eb9565b60405180910390f35b610222600480360381019061021d9190613f72565b610663565b60405161022f91906140de565b60405180910390f35b610252600480360381019061024d9190614100565b6108ba565b60405161025f9190614288565b60405180910390f35b610282600480360381019061027d91906142aa565b6109a6565b6040516102909291906142d7565b60405180910390f35b6102b360048036038101906102ae9190614100565b6109ca565b005b6102cf60048036038101906102ca919061451b565b610c07565b005b6102eb60048036038101906102e69190614100565b610ce7565b6040516102f89190613eb9565b60405180910390f35b61031b60048036038101906103169190614100565b610e03565b60405161032891906146bf565b60405180910390f35b610339610ef3565b005b610343610f05565b6040516103509190613eb9565b60405180910390f35b610373600480360381019061036e9190613f72565b610f0b565b6040516103809190613eb9565b60405180910390f35b6103a3600480360381019061039e91906146e1565b61113d565b6040516103b4959493929190614730565b60405180910390f35b6103c56111b0565b6040516103d2919061479e565b60405180910390f35b6103f560048036038101906103f09190614100565b6111c6565b6040516104029190613eb9565b60405180910390f35b6104136111e6565b005b61041d611430565b005b61043960048036038101906104349190614100565b611444565b6040516104469190614905565b60405180910390f35b61046960048036038101906104649190613f72565b61175a565b6040516104769190613eb9565b60405180910390f35b610487611bc6565b005b6104a3600480360381019061049e91906142aa565b611bd8565b6040516104b09190614956565b60405180910390f35b6104c1611c45565b6040516104ce9190614971565b60405180910390f35b6104f160048036038101906104ec9190614100565b611c6e565b6040516104fe9190613eb9565b60405180910390f35b610521600480360381019061051c9190614b10565b611c86565b005b61052b6120af565b6040516105389190613eb9565b60405180910390f35b61055b60048036038101906105569190614100565b61221f565b6040516105689190614c4a565b60405180910390f35b61058b60048036038101906105869190614d93565b612413565b6040516105989190614f2c565b60405180910390f35b6105bb60048036038101906105b69190614100565b612d8b565b005b6105d760048036038101906105d29190614f4e565b61340b565b6040516105e49190613eb9565b60405180910390f35b610607600480360381019061060291906142aa565b6134b0565b005b610611613533565b60405161061e9190613eb9565b60405180910390f35b610641600480360381019061063c9190614100565b61353d565b005b6000600b6000600e54815260200190815260200160002060010154905090565b6060600061067084610ce7565b90506000808267ffffffffffffffff81111561068f5761068e614305565b5b6040519080825280602002602001820160405280156106c857816020015b6106b5613d33565b8152602001906001900390816106ad5790505b50905060008367ffffffffffffffff8111156106e7576106e6614305565b5b60405190808252806020026020018201604052801561072057816020015b61070d613d60565b8152602001906001900390816107055790505b50905061072c87611444565b905060005b848110156108ac5781818151811061074c5761074b614f97565b5b602002602001015160000151935060405180606001604052808563ffffffff168152602001600c60008a73ffffffffffffffffffffffffffffffffffffffff1673ffffffffffffffffffffffffffffffffffffffff16815260200190815260200160002060008b815260200190815260200160002060008763ffffffff1663ffffffff16815260200190815260200160002060000160009054906101000a900460ff1660ff168152602001600c60008a73ffffffffffffffffffffffffffffffffffffffff1673ffffffffffffffffffffffffffffffffffffffff16815260200190815260200160002060008b815260200190815260200160002060008763ffffffff1663ffffffff16815260200190815260200160002060000160019054906101000a900460ff1660ff1681525083828151811061088e5761088d614f97565b5b602002602001018190525080806108a490614ff5565b915050610731565b508194505050505092915050565b6060600a6000838152602001908152602001600020805480602002602001604051908101604052809291908181526020016000905b8282101561099b57838290600052602060002001805461090e9061506c565b80601f016020809104026020016040519081016040528092919081815260200182805461093a9061506c565b80156109875780601f1061095c57610100808354040283529160200191610987565b820191906000526020600020905b81548152906001019060200180831161096a57829003601f168201915b5050505050815260200190600101906108ef565b505050509050919050565b60016020528060005260406000206000915090508060000154908060010154905082565b80600560009054906101000a900473ffffffffffffffffffffffffffffffffffffffff1673ffffffffffffffffffffffffffffffffffffffff166370a08231336040518263ffffffff1660e01b8152600401610a269190614971565b602060405180830381865afa158015610a43573d6000803e3d6000fd5b505050506040513d601f19601f82011682018060405250810190610a6791906150b2565b1015610aa8576040517f08c379a0000000000000000000000000000000000000000000000000000000008152600401610a9f9061513c565b60405180910390fd5b600560009054906101000a900473ffffffffffffffffffffffffffffffffffffffff1673ffffffffffffffffffffffffffffffffffffffff16639dc29fac33836040518363ffffffff1660e01b8152600401610b0592919061515c565b600060405180830381600087803b158015610b1f57600080fd5b505af1158015610b33573d6000803e3d6000fd5b50505050600660009054906101000a900473ffffffffffffffffffffffffffffffffffffffff1673ffffffffffffffffffffffffffffffffffffffff166369328dec600360009054906101000a900473ffffffffffffffffffffffffffffffffffffffff16620f4240603285610ba99190615185565b610bb39190615185565b336040518463ffffffff1660e01b8152600401610bd2939291906151df565b600060405180830381600087803b158015610bec57600080fd5b505af1158015610c00573d6000803e3d6000fd5b5050505050565b600e6000815480929190610c1a90614ff5565b919050555060005b8251811015610ca057600a6000600e548152602001908152602001600020838281518110610c5357610c52614f97565b5b6020026020010151908060018154018082558091505060019003906000526020600020016000909190919091509081610c8c91906153c2565b508080610c9890614ff5565b915050610c22565b50604051806040016040528084815260200182815250600b6000600e5481526020019081526020016000206000820151816000015560208201518160010155905050505050565b6000806000905060005b600a600085815260200190815260200160002080549050811015610df957600f60009054906101000a900473ffffffffffffffffffffffffffffffffffffffff1673ffffffffffffffffffffffffffffffffffffffff1663ea6a0410600a60008781526020019081526020016000208381548110610d7257610d71614f97565b5b906000526020600020016040518263ffffffff1660e01b8152600401610d989190615518565b602060405180830381865afa158015610db5573d6000803e3d6000fd5b505050506040513d601f19601f82011682018060405250810190610dd991906150b2565b82610de4919061553a565b91508080610df190614ff5565b915050610cf1565b5080915050919050565b606060086000838152602001908152602001600020805480602002602001604051908101604052809291908181526020016000905b82821015610ee857838290600052602060002090600502016040518060a00160405290816000820160009054906101000a900473ffffffffffffffffffffffffffffffffffffffff1673ffffffffffffffffffffffffffffffffffffffff1673ffffffffffffffffffffffffffffffffffffffff16815260200160018201548152602001600282015481526020016003820154815260200160048201548152505081526020019060010190610e38565b505050509050919050565b610efb613a50565b610f03613ace565b565b60025481565b600080610f178461221f565b9050600080825190506000808267ffffffffffffffff811115610f3d57610f3c614305565b5b604051908082528060200260200182016040528015610f7657816020015b610f63613d95565b815260200190600190039081610f5b5790505b50905060005b83811015611098576001945060005b84811015610ff957868181518110610fa657610fa5614f97565b5b602002602001015160400151878381518110610fc557610fc4614f97565b5b6020026020010151604001511015610fe6578580610fe290614ff5565b9650505b8080610ff190614ff5565b915050610f8b565b50604051806060016040528087838151811061101857611017614f97565b5b60200260200101516000015173ffffffffffffffffffffffffffffffffffffffff16815260200187838151811061105257611051614f97565b5b60200260200101516040015181526020018681525082828151811061107a57611079614f97565b5b6020026020010181905250808061109090614ff5565b915050610f7c565b5060005b8381101561112e578181815181106110b7576110b6614f97565b5b60200260200101516000015173ffffffffffffffffffffffffffffffffffffffff168873ffffffffffffffffffffffffffffffffffffffff160361111b5781818151811061110857611107614f97565b5b602002602001015160400151925061112e565b808061112690614ff5565b91505061109c565b50819550505050505092915050565b6008602052816000526040600020818154811061115957600080fd5b9060005260206000209060050201600091509150508060000160009054906101000a900473ffffffffffffffffffffffffffffffffffffffff16908060010154908060020154908060030154908060040154905085565b60008060149054906101000a900460ff16905090565b6000600d6000838152602001908152602001600020805490509050919050565b6000600160003373ffffffffffffffffffffffffffffffffffffffff1673ffffffffffffffffffffffffffffffffffffffff168152602001908152602001600020600001541161126b576040517f08c379a0000000000000000000000000000000000000000000000000000000008152600401611262906155dc565b60405180910390fd5b6000600160003373ffffffffffffffffffffffffffffffffffffffff1673ffffffffffffffffffffffffffffffffffffffff168152602001908152602001600020600001549050600660009054906101000a900473ffffffffffffffffffffffffffffffffffffffff1673ffffffffffffffffffffffffffffffffffffffff166369328dec600360009054906101000a900473ffffffffffffffffffffffffffffffffffffffff16620f4240846113229190615185565b336040518463ffffffff1660e01b8152600401611341939291906151df565b600060405180830381600087803b15801561135b57600080fd5b505af115801561136f573d6000803e3d6000fd5b505050506000600160003373ffffffffffffffffffffffffffffffffffffffff1673ffffffffffffffffffffffffffffffffffffffff1681526020019081526020016000206000018190555080600160003373ffffffffffffffffffffffffffffffffffffffff1673ffffffffffffffffffffffffffffffffffffffff168152602001908152602001600020600101600082825461140d919061553a565b92505081905550806002600082825461142691906155fc565b9250508190555050565b611438613a50565b6114426000613b30565b565b6060600061145183610ce7565b90506000808267ffffffffffffffff8111156114705761146f614305565b5b6040519080825280602002602001820160405280156114a957816020015b611496613d60565b81526020019060019003908161148e5790505b50905060005b600a60008781526020019081526020016000208054905081101561174e57600f60009054906101000a900473ffffffffffffffffffffffffffffffffffffffff1673ffffffffffffffffffffffffffffffffffffffff1663ea6a0410600a600089815260200190815260200160002083815481106115305761152f614f97565b5b906000526020600020016040518263ffffffff1660e01b81526004016115569190615518565b602060405180830381865afa158015611573573d6000803e3d6000fd5b505050506040513d601f19601f8201168201806040525081019061159791906150b2565b935060005b8481101561173a57600f60009054906101000a900473ffffffffffffffffffffffffffffffffffffffff1673ffffffffffffffffffffffffffffffffffffffff1663cdfba66a600a60008a8152602001908152602001600020848154811061160757611606614f97565b5b90600052602060002001836040518363ffffffff1660e01b815260040161162f929190615630565b600060405180830381865afa15801561164c573d6000803e3d6000fd5b505050506040513d6000823e3d601f19601f820116820180604052508101906116759190615711565b86888151811061168857611687614f97565b5b60200260200101516000018789815181106116a6576116a5614f97565b5b6020026020010151602001888a815181106116c4576116c3614f97565b5b6020026020010151604001898b815181106116e2576116e1614f97565b5b60200260200101516060018490528490528464ffffffffff1664ffffffffff168152508463ffffffff1663ffffffff1681525050505050838061172490614ff5565b945050808061173290614ff5565b91505061159c565b50808061174690614ff5565b9150506114af565b50809350505050919050565b6000806000806000905060008061177088610ce7565b905060008167ffffffffffffffff81111561178e5761178d614305565b5b6040519080825280602002602001820160405280156117c757816020015b6117b4613d60565b8152602001906001900390816117ac5790505b5090506117d389611444565b905060005b82811015611bb6578181815181106117f3576117f2614f97565b5b6020026020010151600001519350611905600c60008b73ffffffffffffffffffffffffffffffffffffffff1673ffffffffffffffffffffffffffffffffffffffff16815260200190815260200160002060008c815260200190815260200160002060008663ffffffff1663ffffffff16815260200190815260200160002060000160009054906101000a900460ff16600c60008c73ffffffffffffffffffffffffffffffffffffffff1673ffffffffffffffffffffffffffffffffffffffff16815260200190815260200160002060008d815260200190815260200160002060008763ffffffff1663ffffffff16815260200190815260200160002060000160019054906101000a900460ff16613bf4565b9650600080600f60009054906101000a900473ffffffffffffffffffffffffffffffffffffffff1673ffffffffffffffffffffffffffffffffffffffff16633c09f3be876040518263ffffffff1660e01b815260040161196591906157bf565b6040805180830381865afa158015611981573d6000803e3d6000fd5b505050506040513d601f19601f820116820180604052508101906119a591906157ef565b915091506119b38282613bf4565b97508789148015611a63575060011515600f60009054906101000a900473ffffffffffffffffffffffffffffffffffffffff1673ffffffffffffffffffffffffffffffffffffffff166314ea531d886040518263ffffffff1660e01b8152600401611a1e91906157bf565b602060405180830381865afa158015611a3b573d6000803e3d6000fd5b505050506040513d601f19601f82011682018060405250810190611a5f919061585b565b1515145b15611ba157600187611a75919061553a565b96508160ff16600c60008d73ffffffffffffffffffffffffffffffffffffffff1673ffffffffffffffffffffffffffffffffffffffff16815260200190815260200160002060008e815260200190815260200160002060008863ffffffff1663ffffffff16815260200190815260200160002060000160009054906101000a900460ff1660ff16148015611b8b57508060ff16600c60008d73ffffffffffffffffffffffffffffffffffffffff1673ffffffffffffffffffffffffffffffffffffffff16815260200190815260200160002060008e815260200190815260200160002060008863ffffffff1663ffffffff16815260200190815260200160002060000160019054906101000a900460ff1660ff16145b15611ba057600287611b9d919061553a565b96505b5b50508080611bae90614ff5565b9150506117d8565b5083965050505050505092915050565b611bce613a50565b611bd6613c35565b565b611be0613dcc565b600160008373ffffffffffffffffffffffffffffffffffffffff1673ffffffffffffffffffffffffffffffffffffffff168152602001908152602001600020604051806040016040529081600082015481526020016001820154815250509050919050565b60008060009054906101000a900473ffffffffffffffffffffffffffffffffffffffff16905090565b60096020528060005260406000206000915090505481565b6000600560009054906101000a900473ffffffffffffffffffffffffffffffffffffffff1673ffffffffffffffffffffffffffffffffffffffff166370a08231336040518263ffffffff1660e01b8152600401611ce39190614971565b602060405180830381865afa158015611d00573d6000803e3d6000fd5b505050506040513d601f19601f82011682018060405250810190611d2491906150b2565b11611d64576040517f08c379a0000000000000000000000000000000000000000000000000000000008152600401611d5b906158fa565b60405180910390fd5b600b6000600e548152602001908152602001600020600101544210611dbe576040517f08c379a0000000000000000000000000000000000000000000000000000000008152600401611db590615966565b60405180910390fd5b611dc9600e54610ce7565b815114611e0b576040517f08c379a0000000000000000000000000000000000000000000000000000000008152600401611e02906159f8565b60405180910390fd5b6000611e18600e54610ce7565b905060005b81811015611f61576040518060400160405280848381518110611e4357611e42614f97565b5b60200260200101516020015160ff168152602001848381518110611e6a57611e69614f97565b5b60200260200101516040015160ff16815250600c60003373ffffffffffffffffffffffffffffffffffffffff1673ffffffffffffffffffffffffffffffffffffffff1681526020019081526020016000206000600e5481526020019081526020016000206000858481518110611ee357611ee2614f97565b5b60200260200101516000015163ffffffff1663ffffffff16815260200190815260200160002060008201518160000160006101000a81548160ff021916908360ff16021790555060208201518160000160016101000a81548160ff021916908360ff1602179055509050508080611f5990614ff5565b915050611e1d565b50600080600090505b600d6000600e5481526020019081526020016000208054905081101561202657600d6000600e5481526020019081526020016000208181548110611fb157611fb0614f97565b5b9060005260206000200160009054906101000a900473ffffffffffffffffffffffffffffffffffffffff1673ffffffffffffffffffffffffffffffffffffffff163373ffffffffffffffffffffffffffffffffffffffff160361201357600191505b808061201e90614ff5565b915050611f6a565b5060001515811515036120aa57600d6000600e548152602001908152602001600020339080600181540180825580915050600190039060005260206000200160009091909190916101000a81548173ffffffffffffffffffffffffffffffffffffffff021916908373ffffffffffffffffffffffffffffffffffffffff1602179055505b505050565b600080600460009054906101000a900473ffffffffffffffffffffffffffffffffffffffff1673ffffffffffffffffffffffffffffffffffffffff166370a08231306040518263ffffffff1660e01b815260040161210d9190614971565b602060405180830381865afa15801561212a573d6000803e3d6000fd5b505050506040513d601f19601f8201168201806040525081019061214e91906150b2565b90506000620f42406032600560009054906101000a900473ffffffffffffffffffffffffffffffffffffffff1673ffffffffffffffffffffffffffffffffffffffff166318160ddd6040518163ffffffff1660e01b8152600401602060405180830381865afa1580156121c5573d6000803e3d6000fd5b505050506040513d601f19601f820116820180604052508101906121e991906150b2565b6121f39190615185565b6121fd9190615185565b9050600254818361220e91906155fc565b61221891906155fc565b9250505090565b60606000600d600084815260200190815260200160002080549050905060008060008367ffffffffffffffff81111561225b5761225a614305565b5b60405190808252806020026020018201604052801561229457816020015b612281613de6565b8152602001906001900390816122795790505b509050600080600090505b8581101561240557600d600089815260200190815260200160002081815481106122cc576122cb614f97565b5b9060005260206000200160009054906101000a900473ffffffffffffffffffffffffffffffffffffffff169450600560009054906101000a900473ffffffffffffffffffffffffffffffffffffffff1673ffffffffffffffffffffffffffffffffffffffff166370a08231866040518263ffffffff1660e01b81526004016123549190614971565b602060405180830381865afa158015612371573d6000803e3d6000fd5b505050506040513d601f19601f8201168201806040525081019061239591906150b2565b93506123a1888661175a565b915060405180606001604052808673ffffffffffffffffffffffffffffffffffffffff168152602001858152602001838152508382815181106123e7576123e6614f97565b5b602002602001018190525080806123fd90614ff5565b91505061229f565b508195505050505050919050565b6060600080600080806000806124276120af565b90506000600960008c815260200190815260200160002054905060008167ffffffffffffffff81111561245d5761245c614305565b5b60405190808252806020026020018201604052801561249657816020015b612483613e1d565b81526020019060019003908161247b5790505b50905060008267ffffffffffffffff8111156124b5576124b4614305565b5b6040519080825280602002602001820160405280156124ee57816020015b6124db613d95565b8152602001906001900390816124d35790505b50905060008367ffffffffffffffff81111561250d5761250c614305565b5b60405190808252806020026020018201604052801561254657816020015b612533613e4d565b81526020019060019003908161252b5790505b50905060005b8d5181101561260a5760008e828151811061256a57612569614f97565b5b6020026020010151905060005b81602001518110156125f5576040518060400160405280836000015173ffffffffffffffffffffffffffffffffffffffff1681526020018360400151815250868a815181106125c9576125c8614f97565b5b602002602001018190525088806125df90614ff5565b99505080806125ed90614ff5565b915050612577565b5050808061260290614ff5565b91505061254c565b5060005b848110156127365760019b5060005b858110156126975784818151811061263857612637614f97565b5b60200260200101516020015185838151811061265757612656614f97565b5b6020026020010151602001511015612684578c8061267490614ff5565b9d50508b8d1115612683578c9b505b5b808061268f90614ff5565b91505061261d565b5060405180606001604052808583815181106126b6576126b5614f97565b5b60200260200101516000015173ffffffffffffffffffffffffffffffffffffffff1681526020018583815181106126f0576126ef614f97565b5b60200260200101516020015181526020018d81525083828151811061271857612717614f97565b5b6020026020010181905250808061272e90614ff5565b91505061260e565b50600095506000600190505b8a81116128745760005b85811015612860578184828151811061276857612767614f97565b5b6020026020010151604001510361284d576040518060e0016040528085838151811061279757612796614f97565b5b60200260200101516000015173ffffffffffffffffffffffffffffffffffffffff1681526020018583815181106127d1576127d0614f97565b5b60200260200101516020015181526020018583815181106127f5576127f4614f97565b5b6020026020010151604001518152602001600081526020016000815260200160008152602001600081525083898151811061283357612832614f97565b5b6020026020010181905250878061284990614ff5565b9850505b808061285890614ff5565b91505061274c565b50808061286c90614ff5565b915050612742565b5060646007548a8761288691906155fc565b6128909190615185565b61289a9190615a47565b965086896128a8919061553a565b985086816000815181106128bf576128be614f97565b5b6020026020010151606001818152505086816000815181106128e4576128e3614f97565b5b60200260200101516080018181525050868160008151811061290957612908614f97565b5b602002602001015160a0018181525050868160008151811061292e5761292d614f97565b5b602002602001015160c00181815250506000600190505b84811015612d765760646007548b8861295e91906155fc565b6129689190615185565b6129729190615a47565b97508782828151811061298857612987614f97565b5b60200260200101516060018181525050878a6129a4919061553a565b9950898282815181106129ba576129b9614f97565b5b602002602001015160800181815250506001856129d791906155fc565b8114612bbd57816001826129eb91906155fc565b815181106129fc576129fb614f97565b5b602002602001015160400151828281518110612a1b57612a1a614f97565b5b60200260200101516040015103612a8a578782600183612a3b91906155fc565b81518110612a4c57612a4b614f97565b5b602002602001015160a00151612a62919061553a565b828281518110612a7557612a74614f97565b5b602002602001015160a0018181525050612bb8565b87828281518110612a9e57612a9d614f97565b5b602002602001015160a001818152505087828281518110612ac257612ac1614f97565b5b602002602001015160c001818152505081600182612ae091906155fc565b81518110612af157612af0614f97565b5b602002602001015160400151828281518110612b1057612b0f614f97565b5b602002602001015160400151612b2691906155fc565b985060005b89811015612bb6578983600184612b4291906155fc565b81518110612b5357612b52614f97565b5b602002602001015160a00151612b699190615a47565b83600183612b77919061553a565b84612b8291906155fc565b81518110612b9357612b92614f97565b5b602002602001015160c00181815250508080612bae90614ff5565b915050612b2b565b505b612d63565b81600182612bcb91906155fc565b81518110612bdc57612bdb614f97565b5b602002602001015160400151828281518110612bfb57612bfa614f97565b5b60200260200101516040015103612d19578782600183612c1b91906155fc565b81518110612c2c57612c2b614f97565b5b602002602001015160a00151612c42919061553a565b828281518110612c5557612c54614f97565b5b602002602001015160a0018181525050818181518110612c7857612c77614f97565b5b602002602001015160400151600186612c91919061553a565b612c9b91906155fc565b985060005b89811015612d135789838381518110612cbc57612cbb614f97565b5b602002602001015160a00151612cd29190615a47565b838284612cdf91906155fc565b81518110612cf057612cef614f97565b5b602002602001015160c00181815250508080612d0b90614ff5565b915050612ca0565b50612d62565b87828281518110612d2d57612d2c614f97565b5b602002602001015160a001818152505087828281518110612d5157612d50614f97565b5b602002602001015160c00181815250505b5b8080612d6e90614ff5565b915050612945565b50809b50505050505050505050505092915050565b600560009054906101000a900473ffffffffffffffffffffffffffffffffffffffff1673ffffffffffffffffffffffffffffffffffffffff166318160ddd6040518163ffffffff1660e01b8152600401602060405180830381865afa158015612df8573d6000803e3d6000fd5b505050506040513d601f19601f82011682018060405250810190612e1c91906150b2565b60096000838152602001908152602001600020819055506000612e3e8261221f565b90506000612e4c8383612413565b90506000600860008581526020019081526020016000206040518060a0016040528084600081518110612e8257612e81614f97565b5b60200260200101516000015173ffffffffffffffffffffffffffffffffffffffff1681526020016001815260200184600081518110612ec457612ec3614f97565b5b602002602001015160200151815260200184600081518110612ee957612ee8614f97565b5b602002602001015160400151815260200184600081518110612f0e57612f0d614f97565b5b602002602001015160c00151815250908060018154018082558091505060019003906000526020600020906005020160009091909190915060008201518160000160006101000a81548173ffffffffffffffffffffffffffffffffffffffff021916908373ffffffffffffffffffffffffffffffffffffffff1602179055506020820151816001015560408201518160020155606082015181600301556080820151816004015550506000600190505b60096000868152602001908152602001600020548110156132955782600182612fe791906155fc565b81518110612ff857612ff7614f97565b5b60200260200101516000015173ffffffffffffffffffffffffffffffffffffffff1683828151811061302d5761302c614f97565b5b60200260200101516000015173ffffffffffffffffffffffffffffffffffffffff16036131105760086000868152602001908152602001600020828154811061307957613078614f97565b5b9060005260206000209060050201600101600081548092919061309b90614ff5565b91905055508281815181106130b3576130b2614f97565b5b602002602001015160c001516008600087815260200190815260200160002083815481106130e4576130e3614f97565b5b90600052602060002090600502016004016000828254613104919061553a565b92505081905550613282565b600860008681526020019081526020016000206040518060a0016040528085848151811061314157613140614f97565b5b60200260200101516000015173ffffffffffffffffffffffffffffffffffffffff1681526020016001815260200185848151811061318257613181614f97565b5b60200260200101516020015181526020018584815181106131a6576131a5614f97565b5b60200260200101516040015181526020018584815181106131ca576131c9614f97565b5b602002602001015160c00151815250908060018154018082558091505060019003906000526020600020906005020160009091909190915060008201518160000160006101000a81548173ffffffffffffffffffffffffffffffffffffffff021916908373ffffffffffffffffffffffffffffffffffffffff160217905550602082015181600101556040820151816002015560608201518160030155608082015181600401555050818061327e90614ff5565b9250505b808061328d90614ff5565b915050612fbe565b5060005b60086000868152602001908152602001600020805490508110156134045760006008600087815260200190815260200160002082815481106132de576132dd614f97565b5b906000526020600020906005020160000160009054906101000a900473ffffffffffffffffffffffffffffffffffffffff16905060086000878152602001908152602001600020828154811061333757613336614f97565b5b906000526020600020906005020160040154600160008373ffffffffffffffffffffffffffffffffffffffff1673ffffffffffffffffffffffffffffffffffffffff168152602001908152602001600020600001600082825461339a919061553a565b925050819055506008600087815260200190815260200160002082815481106133c6576133c5614f97565b5b906000526020600020906005020160040154600260008282546133e9919061553a565b925050819055505080806133fc90614ff5565b915050613299565b5050505050565b6000600f60009054906101000a900473ffffffffffffffffffffffffffffffffffffffff1673ffffffffffffffffffffffffffffffffffffffff1663ea6a0410836040518263ffffffff1660e01b81526004016134689190615ab1565b602060405180830381865afa158015613485573d6000803e3d6000fd5b505050506040513d601f19601f820116820180604052508101906134a991906150b2565b9050919050565b6134b8613a50565b600073ffffffffffffffffffffffffffffffffffffffff168173ffffffffffffffffffffffffffffffffffffffff1603613527576040517f08c379a000000000000000000000000000000000000000000000000000000000815260040161351e90615b45565b60405180910390fd5b61353081613b30565b50565b6000600e54905090565b600060328261354c9190615b65565b1461358c576040517f08c379a000000000000000000000000000000000000000000000000000000000815260040161358390615c08565b60405180910390fd5b600360009054906101000a900473ffffffffffffffffffffffffffffffffffffffff1673ffffffffffffffffffffffffffffffffffffffff166370a08231336040518263ffffffff1660e01b81526004016135e79190614971565b602060405180830381865afa158015613604573d6000803e3d6000fd5b505050506040513d601f19601f8201168201806040525081019061362891906150b2565b620f4240826136379190615185565b1115613678576040517f08c379a000000000000000000000000000000000000000000000000000000000815260040161366f90615c74565b60405180910390fd5b600360009054906101000a900473ffffffffffffffffffffffffffffffffffffffff1673ffffffffffffffffffffffffffffffffffffffff1663dd62ed3e33306040518363ffffffff1660e01b81526004016136d5929190615c94565b602060405180830381865afa1580156136f2573d6000803e3d6000fd5b505050506040513d601f19601f8201168201806040525081019061371691906150b2565b620f4240826137259190615185565b1115613766576040517f08c379a000000000000000000000000000000000000000000000000000000000815260040161375d90615d09565b60405180910390fd5b60006032826137759190615a47565b9050600360009054906101000a900473ffffffffffffffffffffffffffffffffffffffff1673ffffffffffffffffffffffffffffffffffffffff166323b872dd3330620f4240866137c69190615185565b6040518463ffffffff1660e01b81526004016137e493929190615d29565b6020604051808303816000875af1158015613803573d6000803e3d6000fd5b505050506040513d601f19601f82011682018060405250810190613827919061585b565b50600360009054906101000a900473ffffffffffffffffffffffffffffffffffffffff1673ffffffffffffffffffffffffffffffffffffffff1663095ea7b3600660009054906101000a900473ffffffffffffffffffffffffffffffffffffffff16620f4240856138989190615185565b6040518363ffffffff1660e01b81526004016138b592919061515c565b6020604051808303816000875af11580156138d4573d6000803e3d6000fd5b505050506040513d601f19601f820116820180604052508101906138f8919061585b565b50600660009054906101000a900473ffffffffffffffffffffffffffffffffffffffff1673ffffffffffffffffffffffffffffffffffffffff1663617ba037600360009054906101000a900473ffffffffffffffffffffffffffffffffffffffff16620f4240856139699190615185565b3060006040518563ffffffff1660e01b815260040161398b9493929190615da9565b600060405180830381600087803b1580156139a557600080fd5b505af11580156139b9573d6000803e3d6000fd5b50505050600560009054906101000a900473ffffffffffffffffffffffffffffffffffffffff1673ffffffffffffffffffffffffffffffffffffffff166340c10f1933836040518363ffffffff1660e01b8152600401613a1a92919061515c565b600060405180830381600087803b158015613a3457600080fd5b505af1158015613a48573d6000803e3d6000fd5b505050505050565b613a58613c98565b73ffffffffffffffffffffffffffffffffffffffff16613a76611c45565b73ffffffffffffffffffffffffffffffffffffffff1614613acc576040517f08c379a0000000000000000000000000000000000000000000000000000000008152600401613ac390615e3a565b60405180910390fd5b565b613ad6613ca0565b60008060146101000a81548160ff0219169083151502179055507f5db9ee0a495bf2e6ff9c91a7834c1ba4fdd244a5e8aa4e537bd38aeae4b073aa613b19613c98565b604051613b269190614971565b60405180910390a1565b60008060009054906101000a900473ffffffffffffffffffffffffffffffffffffffff169050816000806101000a81548173ffffffffffffffffffffffffffffffffffffffff021916908373ffffffffffffffffffffffffffffffffffffffff1602179055508173ffffffffffffffffffffffffffffffffffffffff168173ffffffffffffffffffffffffffffffffffffffff167f8be0079c531659141344cd1fd0a4f28419497f9722a3daafe3b4186f6b6457e060405160405180910390a35050565b6000808260ff168460ff161115613c0e5760009050613c2b565b8360ff168360ff161115613c255760029050613c2a565b600190505b5b8091505092915050565b613c3d613ce9565b6001600060146101000a81548160ff0219169083151502179055507f62e78cea01bee320cd4e420270b5ea74000d11b0c9f74754ebdbfc544b05a258613c81613c98565b604051613c8e9190614971565b60405180910390a1565b600033905090565b613ca86111b0565b613ce7576040517f08c379a0000000000000000000000000000000000000000000000000000000008152600401613cde90615ea6565b60405180910390fd5b565b613cf16111b0565b15613d31576040517f08c379a0000000000000000000000000000000000000000000000000000000008152600401613d2890615f12565b60405180910390fd5b565b6040518060600160405280600063ffffffff168152602001600060ff168152602001600060ff1681525090565b6040518060800160405280600063ffffffff168152602001600064ffffffffff16815260200160608152602001606081525090565b6040518060600160405280600073ffffffffffffffffffffffffffffffffffffffff16815260200160008152602001600081525090565b604051806040016040528060008152602001600081525090565b6040518060600160405280600073ffffffffffffffffffffffffffffffffffffffff16815260200160008152602001600081525090565b6040518060400160405280600073ffffffffffffffffffffffffffffffffffffffff168152602001600081525090565b6040518060e00160405280600073ffffffffffffffffffffffffffffffffffffffff1681526020016000815260200160008152602001600081526020016000815260200160008152602001600081525090565b6000819050919050565b613eb381613ea0565b82525050565b6000602082019050613ece6000830184613eaa565b92915050565b6000604051905090565b600080fd5b600080fd5b613ef181613ea0565b8114613efc57600080fd5b50565b600081359050613f0e81613ee8565b92915050565b600073ffffffffffffffffffffffffffffffffffffffff82169050919050565b6000613f3f82613f14565b9050919050565b613f4f81613f34565b8114613f5a57600080fd5b50565b600081359050613f6c81613f46565b92915050565b60008060408385031215613f8957613f88613ede565b5b6000613f9785828601613eff565b9250506020613fa885828601613f5d565b9150509250929050565b600081519050919050565b600082825260208201905092915050565b6000819050602082019050919050565b600063ffffffff82169050919050565b613ff781613fde565b82525050565b600060ff82169050919050565b61401381613ffd565b82525050565b60608201600082015161402f6000850182613fee565b506020820151614042602085018261400a565b506040820151614055604085018261400a565b50505050565b60006140678383614019565b60608301905092915050565b6000602082019050919050565b600061408b82613fb2565b6140958185613fbd565b93506140a083613fce565b8060005b838110156140d15781516140b8888261405b565b97506140c383614073565b9250506001810190506140a4565b5085935050505092915050565b600060208201905081810360008301526140f88184614080565b905092915050565b60006020828403121561411657614115613ede565b5b600061412484828501613eff565b91505092915050565b600081519050919050565b600082825260208201905092915050565b6000819050602082019050919050565b600081519050919050565b600082825260208201905092915050565b60005b83811015614193578082015181840152602081019050614178565b838111156141a2576000848401525b50505050565b6000601f19601f8301169050919050565b60006141c482614159565b6141ce8185614164565b93506141de818560208601614175565b6141e7816141a8565b840191505092915050565b60006141fe83836141b9565b905092915050565b6000602082019050919050565b600061421e8261412d565b6142288185614138565b93508360208202850161423a85614149565b8060005b85811015614276578484038952815161425785826141f2565b945061426283614206565b925060208a0199505060018101905061423e565b50829750879550505050505092915050565b600060208201905081810360008301526142a28184614213565b905092915050565b6000602082840312156142c0576142bf613ede565b5b60006142ce84828501613f5d565b91505092915050565b60006040820190506142ec6000830185613eaa565b6142f96020830184613eaa565b9392505050565b600080fd5b7f4e487b7100000000000000000000000000000000000000000000000000000000600052604160045260246000fd5b61433d826141a8565b810181811067ffffffffffffffff8211171561435c5761435b614305565b5b80604052505050565b600061436f613ed4565b905061437b8282614334565b919050565b600067ffffffffffffffff82111561439b5761439a614305565b5b602082029050602081019050919050565b600080fd5b600080fd5b600067ffffffffffffffff8211156143d1576143d0614305565b5b6143da826141a8565b9050602081019050919050565b82818337600083830152505050565b6000614409614404846143b6565b614365565b905082815260208101848484011115614425576144246143b1565b5b6144308482856143e7565b509392505050565b600082601f83011261444d5761444c614300565b5b813561445d8482602086016143f6565b91505092915050565b600061447961447484614380565b614365565b9050808382526020820190506020840283018581111561449c5761449b6143ac565b5b835b818110156144e357803567ffffffffffffffff8111156144c1576144c0614300565b5b8086016144ce8982614438565b8552602085019450505060208101905061449e565b5050509392505050565b600082601f83011261450257614501614300565b5b8135614512848260208601614466565b91505092915050565b60008060006060848603121561453457614533613ede565b5b600061454286828701613eff565b935050602084013567ffffffffffffffff81111561456357614562613ee3565b5b61456f868287016144ed565b925050604061458086828701613eff565b9150509250925092565b600081519050919050565b600082825260208201905092915050565b6000819050602082019050919050565b6145bf81613f34565b82525050565b6145ce81613ea0565b82525050565b60a0820160008201516145ea60008501826145b6565b5060208201516145fd60208501826145c5565b50604082015161461060408501826145c5565b50606082015161462360608501826145c5565b50608082015161463660808501826145c5565b50505050565b600061464883836145d4565b60a08301905092915050565b6000602082019050919050565b600061466c8261458a565b6146768185614595565b9350614681836145a6565b8060005b838110156146b2578151614699888261463c565b97506146a483614654565b925050600181019050614685565b5085935050505092915050565b600060208201905081810360008301526146d98184614661565b905092915050565b600080604083850312156146f8576146f7613ede565b5b600061470685828601613eff565b925050602061471785828601613eff565b9150509250929050565b61472a81613f34565b82525050565b600060a0820190506147456000830188614721565b6147526020830187613eaa565b61475f6040830186613eaa565b61476c6060830185613eaa565b6147796080830184613eaa565b9695505050505050565b60008115159050919050565b61479881614783565b82525050565b60006020820190506147b3600083018461478f565b92915050565b600081519050919050565b600082825260208201905092915050565b6000819050602082019050919050565b600064ffffffffff82169050919050565b6147ff816147e5565b82525050565b600060808301600083015161481d6000860182613fee565b50602083015161483060208601826147f6565b506040830151848203604086015261484882826141b9565b9150506060830151848203606086015261486282826141b9565b9150508091505092915050565b600061487b8383614805565b905092915050565b6000602082019050919050565b600061489b826147b9565b6148a581856147c4565b9350836020820285016148b7856147d5565b8060005b858110156148f357848403895281516148d4858261486f565b94506148df83614883565b925060208a019950506001810190506148bb565b50829750879550505050505092915050565b6000602082019050818103600083015261491f8184614890565b905092915050565b60408201600082015161493d60008501826145c5565b50602082015161495060208501826145c5565b50505050565b600060408201905061496b6000830184614927565b92915050565b60006020820190506149866000830184614721565b92915050565b600067ffffffffffffffff8211156149a7576149a6614305565b5b602082029050602081019050919050565b600080fd5b6149c681613fde565b81146149d157600080fd5b50565b6000813590506149e3816149bd565b92915050565b6149f281613ffd565b81146149fd57600080fd5b50565b600081359050614a0f816149e9565b92915050565b600060608284031215614a2b57614a2a6149b8565b5b614a356060614365565b90506000614a45848285016149d4565b6000830152506020614a5984828501614a00565b6020830152506040614a6d84828501614a00565b60408301525092915050565b6000614a8c614a878461498c565b614365565b90508083825260208201905060608402830185811115614aaf57614aae6143ac565b5b835b81811015614ad85780614ac48882614a15565b845260208401935050606081019050614ab1565b5050509392505050565b600082601f830112614af757614af6614300565b5b8135614b07848260208601614a79565b91505092915050565b600060208284031215614b2657614b25613ede565b5b600082013567ffffffffffffffff811115614b4457614b43613ee3565b5b614b5084828501614ae2565b91505092915050565b600081519050919050565b600082825260208201905092915050565b6000819050602082019050919050565b606082016000820151614b9b60008501826145b6565b506020820151614bae60208501826145c5565b506040820151614bc160408501826145c5565b50505050565b6000614bd38383614b85565b60608301905092915050565b6000602082019050919050565b6000614bf782614b59565b614c018185614b64565b9350614c0c83614b75565b8060005b83811015614c3d578151614c248882614bc7565b9750614c2f83614bdf565b925050600181019050614c10565b5085935050505092915050565b60006020820190508181036000830152614c648184614bec565b905092915050565b600067ffffffffffffffff821115614c8757614c86614305565b5b602082029050602081019050919050565b600060608284031215614cae57614cad6149b8565b5b614cb86060614365565b90506000614cc884828501613f5d565b6000830152506020614cdc84828501613eff565b6020830152506040614cf084828501613eff565b60408301525092915050565b6000614d0f614d0a84614c6c565b614365565b90508083825260208201905060608402830185811115614d3257614d316143ac565b5b835b81811015614d5b5780614d478882614c98565b845260208401935050606081019050614d34565b5050509392505050565b600082601f830112614d7a57614d79614300565b5b8135614d8a848260208601614cfc565b91505092915050565b60008060408385031215614daa57614da9613ede565b5b6000614db885828601613eff565b925050602083013567ffffffffffffffff811115614dd957614dd8613ee3565b5b614de585828601614d65565b9150509250929050565b600081519050919050565b600082825260208201905092915050565b6000819050602082019050919050565b60e082016000820151614e3160008501826145b6565b506020820151614e4460208501826145c5565b506040820151614e5760408501826145c5565b506060820151614e6a60608501826145c5565b506080820151614e7d60808501826145c5565b5060a0820151614e9060a08501826145c5565b5060c0820151614ea360c08501826145c5565b50505050565b6000614eb58383614e1b565b60e08301905092915050565b6000602082019050919050565b6000614ed982614def565b614ee38185614dfa565b9350614eee83614e0b565b8060005b83811015614f1f578151614f068882614ea9565b9750614f1183614ec1565b925050600181019050614ef2565b5085935050505092915050565b60006020820190508181036000830152614f468184614ece565b905092915050565b600060208284031215614f6457614f63613ede565b5b600082013567ffffffffffffffff811115614f8257614f81613ee3565b5b614f8e84828501614438565b91505092915050565b7f4e487b7100000000000000000000000000000000000000000000000000000000600052603260045260246000fd5b7f4e487b7100000000000000000000000000000000000000000000000000000000600052601160045260246000fd5b600061500082613ea0565b91507fffffffffffffffffffffffffffffffffffffffffffffffffffffffffffffffff820361503257615031614fc6565b5b600182019050919050565b7f4e487b7100000000000000000000000000000000000000000000000000000000600052602260045260246000fd5b6000600282049050600182168061508457607f821691505b6020821081036150975761509661503d565b5b50919050565b6000815190506150ac81613ee8565b92915050565b6000602082840312156150c8576150c7613ede565b5b60006150d68482850161509d565b91505092915050565b600082825260208201905092915050565b7f596f7520646f6e2774206861766520656e6f756768207469636b657473210000600082015250565b6000615126601e836150df565b9150615131826150f0565b602082019050919050565b6000602082019050818103600083015261515581615119565b9050919050565b60006040820190506151716000830185614721565b61517e6020830184613eaa565b9392505050565b600061519082613ea0565b915061519b83613ea0565b9250817fffffffffffffffffffffffffffffffffffffffffffffffffffffffffffffffff04831182151516156151d4576151d3614fc6565b5b828202905092915050565b60006060820190506151f46000830186614721565b6152016020830185613eaa565b61520e6040830184614721565b949350505050565b60008190508160005260206000209050919050565b60006020601f8301049050919050565b600082821b905092915050565b6000600883026152787fffffffffffffffffffffffffffffffffffffffffffffffffffffffffffffffff8261523b565b615282868361523b565b95508019841693508086168417925050509392505050565b6000819050919050565b60006152bf6152ba6152b584613ea0565b61529a565b613ea0565b9050919050565b6000819050919050565b6152d9836152a4565b6152ed6152e5826152c6565b848454615248565b825550505050565b600090565b6153026152f5565b61530d8184846152d0565b505050565b5b81811015615331576153266000826152fa565b600181019050615313565b5050565b601f8211156153765761534781615216565b6153508461522b565b8101602085101561535f578190505b61537361536b8561522b565b830182615312565b50505b505050565b600082821c905092915050565b60006153996000198460080261537b565b1980831691505092915050565b60006153b28383615388565b9150826002028217905092915050565b6153cb82614159565b67ffffffffffffffff8111156153e4576153e3614305565b5b6153ee825461506c565b6153f9828285615335565b600060209050601f83116001811461542c576000841561541a578287015190505b61542485826153a6565b86555061548c565b601f19841661543a86615216565b60005b828110156154625784890151825560018201915060208501945060208101905061543d565b8683101561547f578489015161547b601f891682615388565b8355505b6001600288020188555050505b505050505050565b600081546154a18161506c565b6154ab81866150df565b945060018216600081146154c657600181146154dc5761550f565b60ff19831686528115156020028601935061550f565b6154e585615216565b60005b83811015615507578154818901526001820191506020810190506154e8565b808801955050505b50505092915050565b600060208201905081810360008301526155328184615494565b905092915050565b600061554582613ea0565b915061555083613ea0565b9250827fffffffffffffffffffffffffffffffffffffffffffffffffffffffffffffffff0382111561558557615584614fc6565b5b828201905092915050565b7f5468657265206973206e6f2070656e64696e672077696e6e696e677321000000600082015250565b60006155c6601d836150df565b91506155d182615590565b602082019050919050565b600060208201905081810360008301526155f5816155b9565b9050919050565b600061560782613ea0565b915061561283613ea0565b92508282101561562557615624614fc6565b5b828203905092915050565b6000604082019050818103600083015261564a8185615494565b90506156596020830184613eaa565b9392505050565b60008151905061566f816149bd565b92915050565b61567e816147e5565b811461568957600080fd5b50565b60008151905061569b81615675565b92915050565b60006156b46156af846143b6565b614365565b9050828152602081018484840111156156d0576156cf6143b1565b5b6156db848285614175565b509392505050565b600082601f8301126156f8576156f7614300565b5b81516157088482602086016156a1565b91505092915050565b6000806000806080858703121561572b5761572a613ede565b5b600061573987828801615660565b945050602061574a8782880161568c565b935050604085015167ffffffffffffffff81111561576b5761576a613ee3565b5b615777878288016156e3565b925050606085015167ffffffffffffffff81111561579857615797613ee3565b5b6157a4878288016156e3565b91505092959194509250565b6157b981613fde565b82525050565b60006020820190506157d460008301846157b0565b92915050565b6000815190506157e9816149e9565b92915050565b6000806040838503121561580657615805613ede565b5b6000615814858286016157da565b9250506020615825858286016157da565b9150509250929050565b61583881614783565b811461584357600080fd5b50565b6000815190506158558161582f565b92915050565b60006020828403121561587157615870613ede565b5b600061587f84828501615846565b91505092915050565b7f596f75206e6565642061207469636b657420666f7220736176696e672070726560008201527f64696374696f6e73210000000000000000000000000000000000000000000000602082015250565b60006158e46029836150df565b91506158ef82615888565b604082019050919050565b60006020820190508181036000830152615913816158d7565b9050919050565b7f50726564696374696f6e20506572696f6420697320636c6f7365642100000000600082015250565b6000615950601c836150df565b915061595b8261591a565b602082019050919050565b6000602082019050818103600083015261597f81615943565b9050919050565b7f546865206e756d626572206f662070726564696374696f6e7320646f65736e2760008201527f74206d6174636821000000000000000000000000000000000000000000000000602082015250565b60006159e26028836150df565b91506159ed82615986565b604082019050919050565b60006020820190508181036000830152615a11816159d5565b9050919050565b7f4e487b7100000000000000000000000000000000000000000000000000000000600052601260045260246000fd5b6000615a5282613ea0565b9150615a5d83613ea0565b925082615a6d57615a6c615a18565b5b828204905092915050565b6000615a8382614159565b615a8d81856150df565b9350615a9d818560208601614175565b615aa6816141a8565b840191505092915050565b60006020820190508181036000830152615acb8184615a78565b905092915050565b7f4f776e61626c653a206e6577206f776e657220697320746865207a65726f206160008201527f6464726573730000000000000000000000000000000000000000000000000000602082015250565b6000615b2f6026836150df565b9150615b3a82615ad3565b604082019050919050565b60006020820190508181036000830152615b5e81615b22565b9050919050565b6000615b7082613ea0565b9150615b7b83613ea0565b925082615b8b57615b8a615a18565b5b828206905092915050565b7f54686520616d6f756e74206d7573742062652061206d756c7469706c65206f6660008201527f2035300000000000000000000000000000000000000000000000000000000000602082015250565b6000615bf26023836150df565b9150615bfd82615b96565b604082019050919050565b60006020820190508181036000830152615c2181615be5565b9050919050565b7f496e737566666963656e7420616d6f756e74206f662055534443000000000000600082015250565b6000615c5e601a836150df565b9150615c6982615c28565b602082019050919050565b60006020820190508181036000830152615c8d81615c51565b9050919050565b6000604082019050615ca96000830185614721565b615cb66020830184614721565b9392505050565b7f496e73756666696369656e7420616c6c6f776564205553444300000000000000600082015250565b6000615cf36019836150df565b9150615cfe82615cbd565b602082019050919050565b60006020820190508181036000830152615d2281615ce6565b9050919050565b6000606082019050615d3e6000830186614721565b615d4b6020830185614721565b615d586040830184613eaa565b949350505050565b6000819050919050565b600061ffff82169050919050565b6000615d93615d8e615d8984615d60565b61529a565b615d6a565b9050919050565b615da381615d78565b82525050565b6000608082019050615dbe6000830187614721565b615dcb6020830186613eaa565b615dd86040830185614721565b615de56060830184615d9a565b95945050505050565b7f4f776e61626c653a2063616c6c6572206973206e6f7420746865206f776e6572600082015250565b6000615e246020836150df565b9150615e2f82615dee565b602082019050919050565b60006020820190508181036000830152615e5381615e17565b9050919050565b7f5061757361626c653a206e6f7420706175736564000000000000000000000000600082015250565b6000615e906014836150df565b9150615e9b82615e5a565b602082019050919050565b60006020820190508181036000830152615ebf81615e83565b9050919050565b7f5061757361626c653a2070617573656400000000000000000000000000000000600082015250565b6000615efc6010836150df565b9150615f0782615ec6565b602082019050919050565b60006020820190508181036000830152615f2b81615eef565b905091905056fea26469706673582212209329c919fbd840ab22ee879ec1fa2dfe5a273cd46f63d457bbfc883676c0012664736f6c634300080f0033",
  "linkReferences": {},
  "deployedLinkReferences": {}
}