{
  "_format": "hh-sol-artifact-1",
  "contractName": "Enet",
  "sourceName": "contracts/Enet.sol",
  "abi": [
    {
      "inputs": [],
      "stateMutability": "nonpayable",
      "type": "constructor"
    },
    {
      "inputs": [
        {
          "internalType": "address",
          "name": "to",
          "type": "address"
        },
        {
          "internalType": "uint256",
          "name": "amount",
          "type": "uint256"
        }
      ],
      "name": "FailedTransferLINK",
      "type": "error"
    },
    {
      "anonymous": false,
      "inputs": [
        {
          "indexed": true,
          "internalType": "bytes32",
          "name": "id",
          "type": "bytes32"
        }
      ],
      "name": "ChainlinkCancelled",
      "type": "event"
    },
    {
      "anonymous": false,
      "inputs": [
        {
          "indexed": true,
          "internalType": "bytes32",
          "name": "id",
          "type": "bytes32"
        }
      ],
      "name": "ChainlinkFulfilled",
      "type": "event"
    },
    {
      "anonymous": false,
      "inputs": [
        {
          "indexed": true,
          "internalType": "bytes32",
          "name": "id",
          "type": "bytes32"
        }
      ],
      "name": "ChainlinkRequested",
      "type": "event"
    },
    {
      "anonymous": false,
      "inputs": [
        {
          "indexed": true,
          "internalType": "address",
          "name": "previousOwner",
          "type": "address"
        },
        {
          "indexed": true,
          "internalType": "address",
          "name": "newOwner",
          "type": "address"
        }
      ],
      "name": "OwnershipTransferred",
      "type": "event"
    },
    {
      "inputs": [],
      "name": "_getOracleAddress",
      "outputs": [
        {
          "internalType": "address",
          "name": "",
          "type": "address"
        }
      ],
      "stateMutability": "view",
      "type": "function"
    },
    {
      "inputs": [
        {
          "internalType": "bytes32",
          "name": "_requestId",
          "type": "bytes32"
        },
        {
          "internalType": "uint256",
          "name": "_payment",
          "type": "uint256"
        },
        {
          "internalType": "bytes4",
          "name": "_callbackFunctionId",
          "type": "bytes4"
        },
        {
          "internalType": "uint256",
          "name": "_expiration",
          "type": "uint256"
        }
      ],
      "name": "cancelRequest",
      "outputs": [],
      "stateMutability": "nonpayable",
      "type": "function"
    },
    {
      "inputs": [
        {
          "internalType": "uint8",
          "name": "_leagueId",
          "type": "uint8"
        }
      ],
      "name": "changeLeagueId",
      "outputs": [],
      "stateMutability": "nonpayable",
      "type": "function"
    },
    {
      "inputs": [
        {
          "internalType": "uint16",
          "name": "_nbOfPredictions",
          "type": "uint16"
        }
      ],
      "name": "changeNumberOfPredictions",
      "outputs": [],
      "stateMutability": "nonpayable",
      "type": "function"
    },
    {
      "inputs": [
        {
          "internalType": "address",
          "name": "_player",
          "type": "address"
        }
      ],
      "name": "checkResult",
      "outputs": [
        {
          "internalType": "uint16",
          "name": "",
          "type": "uint16"
        }
      ],
      "stateMutability": "view",
      "type": "function"
    },
    {
      "inputs": [],
      "name": "contractBalances",
      "outputs": [
        {
          "internalType": "uint256",
          "name": "eth",
          "type": "uint256"
        },
        {
          "internalType": "uint256",
          "name": "link",
          "type": "uint256"
        }
      ],
      "stateMutability": "view",
      "type": "function"
    },
    {
      "inputs": [
        {
          "internalType": "bytes32",
          "name": "_requestId",
          "type": "bytes32"
        },
        {
          "internalType": "bytes[]",
          "name": "_result",
          "type": "bytes[]"
        }
      ],
      "name": "fulfillSchedule",
      "outputs": [],
      "stateMutability": "nonpayable",
      "type": "function"
    },
    {
      "inputs": [
        {
          "internalType": "bytes32",
          "name": "_requestId",
          "type": "bytes32"
        },
        {
          "internalType": "uint256",
          "name": "_idx",
          "type": "uint256"
        }
      ],
      "name": "getGameCreate",
      "outputs": [
        {
          "components": [
            {
              "internalType": "uint32",
              "name": "gameId",
              "type": "uint32"
            },
            {
              "internalType": "uint40",
              "name": "startTime",
              "type": "uint40"
            },
            {
              "internalType": "string",
              "name": "homeTeam",
              "type": "string"
            },
            {
              "internalType": "string",
              "name": "awayTeam",
              "type": "string"
            }
          ],
          "internalType": "struct Enet.GameCreate",
          "name": "",
          "type": "tuple"
        }
      ],
      "stateMutability": "view",
      "type": "function"
    },
    {
      "inputs": [
        {
          "internalType": "bytes32",
          "name": "_requestId",
          "type": "bytes32"
        },
        {
          "internalType": "uint256",
          "name": "_idx",
          "type": "uint256"
        }
      ],
      "name": "getGameResolve",
      "outputs": [
        {
          "components": [
            {
              "internalType": "uint32",
              "name": "gameId",
              "type": "uint32"
            },
            {
              "internalType": "uint8",
              "name": "homeScore",
              "type": "uint8"
            },
            {
              "internalType": "uint8",
              "name": "awayScore",
              "type": "uint8"
            },
            {
              "internalType": "string",
              "name": "status",
              "type": "string"
            }
          ],
          "internalType": "struct Enet.GameResolve",
          "name": "",
          "type": "tuple"
        }
      ],
      "stateMutability": "view",
      "type": "function"
    },
    {
      "inputs": [
        {
          "internalType": "bytes32",
          "name": "_requestId",
          "type": "bytes32"
        }
      ],
      "name": "getLengthResults",
      "outputs": [
        {
          "internalType": "uint256",
          "name": "",
          "type": "uint256"
        }
      ],
      "stateMutability": "view",
      "type": "function"
    },
    {
      "inputs": [
        {
          "internalType": "address",
          "name": "_player",
          "type": "address"
        }
      ],
      "name": "getPrevisionsPerPlayer",
      "outputs": [
        {
          "components": [
            {
              "internalType": "uint32",
              "name": "gameId",
              "type": "uint32"
            },
            {
              "internalType": "uint8",
              "name": "homeScore",
              "type": "uint8"
            },
            {
              "internalType": "uint8",
              "name": "awayScore",
              "type": "uint8"
            },
            {
              "internalType": "string",
              "name": "status",
              "type": "string"
            }
          ],
          "internalType": "struct Enet.GameResolve[]",
          "name": "",
          "type": "tuple[]"
        }
      ],
      "stateMutability": "view",
      "type": "function"
    },
    {
      "inputs": [],
      "name": "owner",
      "outputs": [
        {
          "internalType": "address",
          "name": "",
          "type": "address"
        }
      ],
      "stateMutability": "view",
      "type": "function"
    },
    {
      "inputs": [
        {
          "internalType": "address",
          "name": "",
          "type": "address"
        },
        {
          "internalType": "uint256",
          "name": "",
          "type": "uint256"
        }
      ],
      "name": "predictionsPerPlayer",
      "outputs": [
        {
          "internalType": "uint32",
          "name": "gameId",
          "type": "uint32"
        },
        {
          "internalType": "uint8",
          "name": "homeScore",
          "type": "uint8"
        },
        {
          "internalType": "uint8",
          "name": "awayScore",
          "type": "uint8"
        },
        {
          "internalType": "string",
          "name": "status",
          "type": "string"
        }
      ],
      "stateMutability": "view",
      "type": "function"
    },
    {
      "inputs": [],
      "name": "renounceOwnership",
      "outputs": [],
      "stateMutability": "nonpayable",
      "type": "function"
    },
    {
      "inputs": [
        {
          "internalType": "bytes32",
          "name": "",
          "type": "bytes32"
        },
        {
          "internalType": "uint256",
          "name": "",
          "type": "uint256"
        }
      ],
      "name": "requestIdGames",
      "outputs": [
        {
          "internalType": "bytes",
          "name": "",
          "type": "bytes"
        }
      ],
      "stateMutability": "view",
      "type": "function"
    },
    {
      "inputs": [
        {
          "internalType": "uint256",
          "name": "_market",
          "type": "uint256"
        },
        {
          "internalType": "uint256",
          "name": "_date",
          "type": "uint256"
        }
      ],
      "name": "requestSchedule",
      "outputs": [],
      "stateMutability": "nonpayable",
      "type": "function"
    },
    {
      "inputs": [
        {
          "internalType": "uint256",
          "name": "_market",
          "type": "uint256"
        },
        {
          "internalType": "uint256",
          "name": "_date",
          "type": "uint256"
        },
        {
          "internalType": "uint256[]",
          "name": "_gameIds",
          "type": "uint256[]"
        }
      ],
      "name": "requestSchedulePerGameId",
      "outputs": [],
      "stateMutability": "nonpayable",
      "type": "function"
    },
    {
      "inputs": [
        {
          "internalType": "uint256",
          "name": "",
          "type": "uint256"
        }
      ],
      "name": "requestsIdList",
      "outputs": [
        {
          "internalType": "bytes32",
          "name": "",
          "type": "bytes32"
        }
      ],
      "stateMutability": "view",
      "type": "function"
    },
    {
      "inputs": [
        {
          "components": [
            {
              "internalType": "uint32",
              "name": "gameId",
              "type": "uint32"
            },
            {
              "internalType": "uint8",
              "name": "homeScore",
              "type": "uint8"
            },
            {
              "internalType": "uint8",
              "name": "awayScore",
              "type": "uint8"
            },
            {
              "internalType": "string",
              "name": "status",
              "type": "string"
            }
          ],
          "internalType": "struct Enet.GameResolve[]",
          "name": "_gamePredictions",
          "type": "tuple[]"
        }
      ],
      "name": "savePrediction",
      "outputs": [],
      "stateMutability": "nonpayable",
      "type": "function"
    },
    {
      "inputs": [
        {
          "internalType": "bytes32",
          "name": "_requestId",
          "type": "bytes32"
        },
        {
          "internalType": "bytes[]",
          "name": "_games",
          "type": "bytes[]"
        }
      ],
      "name": "setRequestIdGames",
      "outputs": [],
      "stateMutability": "nonpayable",
      "type": "function"
    },
    {
      "inputs": [
        {
          "internalType": "address",
          "name": "newOwner",
          "type": "address"
        }
      ],
      "name": "transferOwnership",
      "outputs": [],
      "stateMutability": "nonpayable",
      "type": "function"
    },
    {
      "inputs": [
        {
          "internalType": "address payable",
          "name": "_payee",
          "type": "address"
        },
        {
          "internalType": "uint256",
          "name": "_amount",
          "type": "uint256"
        }
      ],
      "name": "withdrawLink",
      "outputs": [],
      "stateMutability": "nonpayable",
      "type": "function"
    }
  ],
  "bytecode": "0x608060405260016004553480156200001657600080fd5b50620000376200002b6200010260201b60201c565b6200010a60201b60201c565b6200005c73326c977e6efc84e512bb9c30f76e30c160ed06fb620001d060201b60201c565b6200008173d5821b900e44db9490da9b09541bbd027fbecf4e6200021460201b60201c565b7f643131306235633462383364343264636132306534313061633533376364393460001b600a8190555067016345785d8a0000600b81905550602a600c60006101000a81548160ff021916908360ff1602179055506001600d819055506001600e60006101000a81548161ffff021916908361ffff16021790555062000258565b600033905090565b6000600660009054906101000a900473ffffffffffffffffffffffffffffffffffffffff16905081600660006101000a81548173ffffffffffffffffffffffffffffffffffffffff021916908373ffffffffffffffffffffffffffffffffffffffff1602179055508173ffffffffffffffffffffffffffffffffffffffff168173ffffffffffffffffffffffffffffffffffffffff167f8be0079c531659141344cd1fd0a4f28419497f9722a3daafe3b4186f6b6457e060405160405180910390a35050565b80600260006101000a81548173ffffffffffffffffffffffffffffffffffffffff021916908373ffffffffffffffffffffffffffffffffffffffff16021790555050565b80600360006101000a81548173ffffffffffffffffffffffffffffffffffffffff021916908373ffffffffffffffffffffffffffffffffffffffff16021790555050565b61462e80620002686000396000f3fe608060405234801561001057600080fd5b50600436106101425760003560e01c80638da5cb5b116100b8578063b075f5321161007c578063b075f53214610361578063b8033c9e1461037f578063de00d107146103af578063e3c046a7146103df578063ec65d0f81461040f578063f2fde38b1461042b57610142565b80638da5cb5b146102bf5780638ecf0521146102dd57806393d07072146102f9578063a294360814610315578063ac91ab9c1461034557610142565b8063303a712f1161010a578063303a712f146102155780633123b05b1461023157806331536f181461024d57806354b7faae146102695780636eaf5a5f14610285578063715018a6146102b557610142565b806301e3100514610147578063193c2654146101775780632163885a146101aa57806329d08efc146101c95780632a9ec636146101e5575b600080fd5b610161600480360381019061015c91906127c9565b610447565b60405161016e919061280f565b60405180910390f35b610191600480360381019061018c9190612888565b61045f565b6040516101a1949392919061299c565b60405180910390f35b6101b261055e565b6040516101c09291906129f7565b60405180910390f35b6101e360048036038101906101de9190612d31565b6105f1565b005b6101ff60048036038101906101fa9190612d7a565b6108a5565b60405161020c9190612f34565b60405180910390f35b61022f600480360381019061022a9190613104565b610a35565b005b61024b600480360381019061024691906131bb565b610a61565b005b61026760048036038101906102629190613269565b610c05565b005b610283600480360381019061027e91906132d4565b610c2d565b005b61029f600480360381019061029a9190613314565b610cff565b6040516102ac9190613341565b60405180910390f35b6102bd610d1f565b005b6102c7610d33565b6040516102d4919061336b565b60405180910390f35b6102f760048036038101906102f29190613386565b610d5d565b005b610313600480360381019061030e9190613104565b610d83565b005b61032f600480360381019061032a91906133b3565b610ee7565b60405161033c9190613448565b60405180910390f35b61035f600480360381019061035a919061346a565b610fa0565b005b6103696110c1565b604051610376919061336b565b60405180910390f35b61039960048036038101906103949190612d7a565b6110d0565b6040516103a691906134b9565b60405180910390f35b6103c960048036038101906103c491906133b3565b611452565b6040516103d69190613537565b60405180910390f35b6103f960048036038101906103f491906133b3565b611522565b60405161040691906135e3565b60405180910390f35b6104296004803603810190610424919061365d565b6115f2565b005b61044560048036038101906104409190612d7a565b611604565b005b60086020528060005260406000206000915090505481565b6009602052816000526040600020818154811061047b57600080fd5b9060005260206000209060020201600091509150508060000160009054906101000a900463ffffffff16908060000160049054906101000a900460ff16908060000160059054906101000a900460ff16908060010180546104db906136f3565b80601f0160208091040260200160405190810160405280929190818152602001828054610507906136f3565b80156105545780601f1061052957610100808354040283529160200191610554565b820191906000526020600020905b81548152906001019060200180831161053757829003601f168201915b5050505050905084565b600080479150600061056e611687565b90508073ffffffffffffffffffffffffffffffffffffffff166370a08231306040518263ffffffff1660e01b81526004016105a9919061336b565b602060405180830381865afa1580156105c6573d6000803e3d6000fd5b505050506040513d601f19601f820116820180604052508101906105ea9190613739565b9150509091565b600e60009054906101000a900461ffff1661ffff16815114610648576040517f08c379a000000000000000000000000000000000000000000000000000000000815260040161063f906137d8565b60405180910390fd5b6000600960003373ffffffffffffffffffffffffffffffffffffffff1673ffffffffffffffffffffffffffffffffffffffff16815260200190815260200160002080549050146106cd576040517f08c379a00000000000000000000000000000000000000000000000000000000081526004016106c490613844565b60405180910390fd5b60005b600e60009054906101000a900461ffff1661ffff168161ffff1610156108a157600960003373ffffffffffffffffffffffffffffffffffffffff1673ffffffffffffffffffffffffffffffffffffffff1681526020019081526020016000206040518060800160405280848461ffff168151811061075157610750613864565b5b60200260200101516000015163ffffffff168152602001848461ffff168151811061077f5761077e613864565b5b60200260200101516020015160ff168152602001848461ffff16815181106107aa576107a9613864565b5b60200260200101516040015160ff168152602001848461ffff16815181106107d5576107d4613864565b5b602002602001015160600151815250908060018154018082558091505060019003906000526020600020906002020160009091909190915060008201518160000160006101000a81548163ffffffff021916908363ffffffff16021790555060208201518160000160046101000a81548160ff021916908360ff16021790555060408201518160000160056101000a81548160ff021916908360ff160217905550606082015181600101908161088b9190613a3f565b505050808061089990613b40565b9150506106d0565b5050565b6060600960008373ffffffffffffffffffffffffffffffffffffffff1673ffffffffffffffffffffffffffffffffffffffff168152602001908152602001600020805480602002602001604051908101604052809291908181526020016000905b82821015610a2a57838290600052602060002090600202016040518060800160405290816000820160009054906101000a900463ffffffff1663ffffffff1663ffffffff1681526020016000820160049054906101000a900460ff1660ff1660ff1681526020016000820160059054906101000a900460ff1660ff1660ff168152602001600182018054610999906136f3565b80601f01602080910402602001604051908101604052809291908181526020018280546109c5906136f3565b8015610a125780601f106109e757610100808354040283529160200191610a12565b820191906000526020600020905b8154815290600101906020018083116109f557829003601f168201915b50505050508152505081526020019060010190610906565b505050509050919050565b80600760008481526020019081526020016000209080519060200190610a5c9291906125b5565b505050565b610a696116b1565b6000610a7e600a546393d0707260e01b61172f565b9050610aca6040518060400160405280600681526020017f6d61726b65740000000000000000000000000000000000000000000000000000815250868361175f9092919063ffffffff16565b610b266040518060400160405280600881526020017f6c65616775654964000000000000000000000000000000000000000000000000815250600c60009054906101000a900460ff1660ff168361175f9092919063ffffffff16565b610b706040518060400160405280600481526020017f6461746500000000000000000000000000000000000000000000000000000000815250858361175f9092919063ffffffff16565b610bf1816040518060400160405280600781526020017f67616d6549647300000000000000000000000000000000000000000000000000815250858580806020026020016040519081016040528093929190818152602001838360200280828437600081840152601f19601f82011690508083019250505050505050611792565b610bfd81600b54611820565b505050505050565b610c0d6116b1565b80600e60006101000a81548161ffff021916908361ffff16021790555050565b6000610c37611687565b90508073ffffffffffffffffffffffffffffffffffffffff1663a9059cbb84846040518363ffffffff1660e01b8152600401610c74929190613bbf565b6020604051808303816000875af1158015610c93573d6000803e3d6000fd5b505050506040513d601f19601f82011682018060405250810190610cb79190613c20565b610cfa5782826040517f7ab2f977000000000000000000000000000000000000000000000000000000008152600401610cf1929190613bbf565b60405180910390fd5b505050565b600060076000838152602001908152602001600020805490509050919050565b610d276116b1565b610d316000611857565b565b6000600660009054906101000a900473ffffffffffffffffffffffffffffffffffffffff16905090565b610d656116b1565b80600c60006101000a81548160ff021916908360ff16021790555050565b816005600082815260200190815260200160002060009054906101000a900473ffffffffffffffffffffffffffffffffffffffff1673ffffffffffffffffffffffffffffffffffffffff163373ffffffffffffffffffffffffffffffffffffffff1614610e25576040517f08c379a0000000000000000000000000000000000000000000000000000000008152600401610e1c90613cbf565b60405180910390fd5b6005600082815260200190815260200160002060006101000a81549073ffffffffffffffffffffffffffffffffffffffff0219169055807f7cc135e0cebb02c3480ae5d74d377283180a2601f8f644edf7987b009316c63a60405160405180910390a281600760008581526020019081526020016000209080519060200190610eaf9291906125b5565b508260086000600d54815260200190815260200160002081905550600d6000815480929190610edd90613cdf565b9190505550505050565b60076020528160005260406000208181548110610f0357600080fd5b90600052602060002001600091509150508054610f1f906136f3565b80601f0160208091040260200160405190810160405280929190818152602001828054610f4b906136f3565b8015610f985780601f10610f6d57610100808354040283529160200191610f98565b820191906000526020600020905b815481529060010190602001808311610f7b57829003601f168201915b505050505081565b610fa86116b1565b6000610fbd600a546393d0707260e01b61172f565b90506110096040518060400160405280600681526020017f6d61726b65740000000000000000000000000000000000000000000000000000815250848361175f9092919063ffffffff16565b6110656040518060400160405280600881526020017f6c65616775654964000000000000000000000000000000000000000000000000815250600c60009054906101000a900460ff1660ff168361175f9092919063ffffffff16565b6110af6040518060400160405280600481526020017f6461746500000000000000000000000000000000000000000000000000000000815250838361175f9092919063ffffffff16565b6110bb81600b54611820565b50505050565b60006110cb61191d565b905090565b600080600860006001600d546110e69190613d27565b81526020019081526020016000205490506000806000805b600e60009054906101000a900461ffff1661ffff168161ffff1610156114455761120e600960008973ffffffffffffffffffffffffffffffffffffffff1673ffffffffffffffffffffffffffffffffffffffff1681526020019081526020016000208261ffff168154811061117657611175613864565b5b906000526020600020906002020160000160049054906101000a900460ff16600960008a73ffffffffffffffffffffffffffffffffffffffff1673ffffffffffffffffffffffffffffffffffffffff1681526020019081526020016000208361ffff16815481106111ea576111e9613864565b5b906000526020600020906002020160000160059054906101000a900460ff16611947565b935060006112d6600760008881526020019081526020016000208361ffff168154811061123e5761123d613864565b5b906000526020600020018054611253906136f3565b80601f016020809104026020016040519081016040528092919081815260200182805461127f906136f3565b80156112cc5780601f106112a1576101008083540402835291602001916112cc565b820191906000526020600020905b8154815290600101906020018083116112af57829003601f168201915b5050505050611988565b90506112ea81602001518260400151611947565b93508360ff168560ff1603611431576005836113069190613d5b565b9250806020015160ff16600960008a73ffffffffffffffffffffffffffffffffffffffff1673ffffffffffffffffffffffffffffffffffffffff1681526020019081526020016000208361ffff168154811061136557611364613864565b5b906000526020600020906002020160000160049054906101000a900460ff1660ff160361139c576002836113999190613d5b565b92505b806040015160ff16600960008a73ffffffffffffffffffffffffffffffffffffffff1673ffffffffffffffffffffffffffffffffffffffff1681526020019081526020016000208361ffff16815481106113f9576113f8613864565b5b906000526020600020906002020160000160059054906101000a900460ff1660ff16036114305760028361142d9190613d5b565b92505b5b50808061143d90613b40565b9150506110fe565b5080945050505050919050565b61145a61260e565b61151a60076000858152602001908152602001600020838154811061148257611481613864565b5b906000526020600020018054611497906136f3565b80601f01602080910402602001604051908101604052809291908181526020018280546114c3906136f3565b80156115105780601f106114e557610100808354040283529160200191611510565b820191906000526020600020905b8154815290600101906020018083116114f357829003601f168201915b5050505050611988565b905092915050565b61152a612642565b6115ea60076000858152602001908152602001600020838154811061155257611551613864565b5b906000526020600020018054611567906136f3565b80601f0160208091040260200160405190810160405280929190818152602001828054611593906136f3565b80156115e05780601f106115b5576101008083540402835291602001916115e0565b820191906000526020600020905b8154815290600101906020018083116115c357829003601f168201915b5050505050611a48565b905092915050565b6115fe84848484611b25565b50505050565b61160c6116b1565b600073ffffffffffffffffffffffffffffffffffffffff168173ffffffffffffffffffffffffffffffffffffffff160361167b576040517f08c379a000000000000000000000000000000000000000000000000000000000815260040161167290613e05565b60405180910390fd5b61168481611857565b50565b6000600260009054906101000a900473ffffffffffffffffffffffffffffffffffffffff16905090565b6116b9611c38565b73ffffffffffffffffffffffffffffffffffffffff166116d7610d33565b73ffffffffffffffffffffffffffffffffffffffff161461172d576040517f08c379a000000000000000000000000000000000000000000000000000000000815260040161172490613e71565b60405180910390fd5b565b611737612677565b61173f612677565b61175684308584611c40909392919063ffffffff16565b91505092915050565b611776828460800151611cf090919063ffffffff16565b61178d818460800151611d1590919063ffffffff16565b505050565b60008390506117ae838260800151611cf090919063ffffffff16565b6117bb8160800151611d45565b60008251905060005b81811015611808576117fd8482815181106117e2576117e1613864565b5b60200260200101518460800151611d1590919063ffffffff16565b8060010190506117c4565b506118168260800151611d53565b8194505050505050565b600061184f600360009054906101000a900473ffffffffffffffffffffffffffffffffffffffff168484611d61565b905092915050565b6000600660009054906101000a900473ffffffffffffffffffffffffffffffffffffffff16905081600660006101000a81548173ffffffffffffffffffffffffffffffffffffffff021916908373ffffffffffffffffffffffffffffffffffffffff1602179055508173ffffffffffffffffffffffffffffffffffffffff168173ffffffffffffffffffffffffffffffffffffffff167f8be0079c531659141344cd1fd0a4f28419497f9722a3daafe3b4186f6b6457e060405160405180910390a35050565b6000600360009054906101000a900473ffffffffffffffffffffffffffffffffffffffff16905090565b6000808260ff168460ff161115611961576000905061197e565b8360ff168360ff161115611978576002905061197d565b600190505b5b8091505092915050565b61199061260e565b600061199f6000600485611e2b565b6119a890613eb6565b60e01c90506000836004815181106119c3576119c2613864565b5b602001015160f81c60f81b60f81c90506000846005815181106119e9576119e8613864565b5b602001015160f81c60f81b60f81c90506000611a086006875188611e2b565b9050600060405180608001604052808663ffffffff1681526020018560ff1681526020018460ff1681526020018381525090508095505050505050919050565b611a50612642565b6000611a5f6000600485611e2b565b611a6890613eb6565b60e01c90506000611a7c6004600986611e2b565b611a8590613f5e565b60d81c9050600084600981518110611aa057611a9f613864565b5b602001015160f81c60f81b60f81c9050600081600a611abf9190613fc5565b60ff1690506000611ad2600a8389611e2b565b90506000611ae28389518a611e2b565b9050600060405180608001604052808863ffffffff1681526020018764ffffffffff16815260200184815260200183815250905080975050505050505050919050565b60006005600086815260200190815260200160002060009054906101000a900473ffffffffffffffffffffffffffffffffffffffff1690506005600086815260200190815260200160002060006101000a81549073ffffffffffffffffffffffffffffffffffffffff0219169055847fe1fe3afa0f7f761ff0a8b89086790efd5140d2907ebd5b7ff6bfcb5e075fd4c560405160405180910390a28073ffffffffffffffffffffffffffffffffffffffff16636ee4d553868686866040518563ffffffff1660e01b8152600401611bff949392919061400b565b600060405180830381600087803b158015611c1957600080fd5b505af1158015611c2d573d6000803e3d6000fd5b505050505050505050565b600033905090565b611c48612677565b611c588560800151610100611f27565b508385600001818152505082856020019073ffffffffffffffffffffffffffffffffffffffff16908173ffffffffffffffffffffffffffffffffffffffff16815250508185604001907bffffffffffffffffffffffffffffffffffffffffffffffffffffffff191690817bffffffffffffffffffffffffffffffffffffffffffffffffffffffff191681525050849050949350505050565b611cfd8260038351611f91565b611d10818361211690919063ffffffff16565b505050565b67ffffffffffffffff811115611d3457611d2f8282612138565b611d41565b611d4082600083611f91565b5b5050565b611d50816004612184565b50565b611d5e816007612184565b50565b6000806004549050600181611d769190614050565b6004819055506000633c6d41b960e01b600080876000015188604001518660028b6080015160000151604051602401611db597969594939291906140a6565b604051602081830303815290604052907bffffffffffffffffffffffffffffffffffffffffffffffffffffffff19166020820180517bffffffffffffffffffffffffffffffffffffffffffffffffffffffff83818316178352505050509050611e20868386846121a6565b925050509392505050565b606060008484611e3b9190613d27565b67ffffffffffffffff811115611e5457611e53612a25565b5b6040519080825280601f01601f191660200182016040528015611e865781602001600182028036833780820191505090505b50905060005b8585611e989190613d27565b811015611f1b57838187611eac9190614050565b81518110611ebd57611ebc613864565b5b602001015160f81c60f81b828281518110611edb57611eda613864565b5b60200101907effffffffffffffffffffffffffffffffffffffffffffffffffffffffffffff1916908160001a90535080611f1490613cdf565b9050611e8c565b50809150509392505050565b611f2f6126e4565b6000602083611f3e919061414b565b14611f6a57602082611f50919061414b565b6020611f5c9190613d27565b82611f679190614050565b91505b81836020018181525050604051808452600081528281016020016040525082905092915050565b60178167ffffffffffffffff1611611fc857611fc28160058460ff16901b60ff16178461233b90919063ffffffff16565b50612111565b60ff8167ffffffffffffffff161161201e57611ff7601860058460ff16901b178461233b90919063ffffffff16565b506120188167ffffffffffffffff1660018561235b9092919063ffffffff16565b50612110565b61ffff8167ffffffffffffffff16116120755761204e601960058460ff16901b178461233b90919063ffffffff16565b5061206f8167ffffffffffffffff1660028561235b9092919063ffffffff16565b5061210f565b63ffffffff8167ffffffffffffffff16116120ce576120a7601a60058460ff16901b178461233b90919063ffffffff16565b506120c88167ffffffffffffffff1660048561235b9092919063ffffffff16565b5061210e565b6120eb601b60058460ff16901b178461233b90919063ffffffff16565b5061210c8167ffffffffffffffff1660088561235b9092919063ffffffff16565b505b5b5b5b505050565b61211e6126e4565b6121308384600001515184855161237d565b905092915050565b61215660026005600660ff16901b178361233b90919063ffffffff16565b50612180828260405160200161216c9190613341565b60405160208183030381529060405261246c565b5050565b6121a1601f60058360ff16901b178361233b90919063ffffffff16565b505050565b600030846040516020016121bb9291906141f7565b604051602081830303815290604052805190602001209050846005600083815260200190815260200160002060006101000a81548173ffffffffffffffffffffffffffffffffffffffff021916908373ffffffffffffffffffffffffffffffffffffffff160217905550807fb5e6e01e79f91267dc17b4e6314d5d4d03593d2ceee0fbb452b750bd70ea5af960405160405180910390a2600260009054906101000a900473ffffffffffffffffffffffffffffffffffffffff1673ffffffffffffffffffffffffffffffffffffffff16634000aea08685856040518463ffffffff1660e01b81526004016122b193929190614223565b6020604051808303816000875af11580156122d0573d6000803e3d6000fd5b505050506040513d601f19601f820116820180604052508101906122f49190613c20565b612333576040517f08c379a000000000000000000000000000000000000000000000000000000000815260040161232a906142d3565b60405180910390fd5b949350505050565b6123436126e4565b6123538384600001515184612491565b905092915050565b6123636126e4565b6123748485600001515185856124e7565b90509392505050565b6123856126e4565b825182111561239357600080fd5b846020015182856123a49190614050565b11156123d9576123d88560026123c9886020015188876123c49190614050565b612575565b6123d391906142f3565b612591565b5b6000808651805187602083010193508088870111156123f85787860182525b60208701925050505b6020841061243f578051825260208261241a9190614050565b91506020816124299190614050565b90506020846124389190613d27565b9350612401565b60006001856020036101000a03905080198251168184511681811785525050508692505050949350505050565b6124798260028351611f91565b61248c818361211690919063ffffffff16565b505050565b6124996126e4565b836020015183106124bf576124be84600286602001516124b991906142f3565b612591565b5b835180516020858301018481538186036124da576001820183525b5050508390509392505050565b6124ef6126e4565b846020015184836125009190614050565b11156125285761252785600286856125189190614050565b61252291906142f3565b612591565b5b600060018361010061253a9190614480565b6125449190613d27565b905085518386820101858319825116178152815185880111156125675784870182525b505085915050949350505050565b6000818311156125875782905061258b565b8190505b92915050565b6000826000015190506125a48383611f27565b506125af8382612116565b50505050565b8280548282559060005260206000209081019282156125fd579160200282015b828111156125fc5782518290816125ec9190614526565b50916020019190600101906125d5565b5b50905061260a91906126fe565b5090565b6040518060800160405280600063ffffffff168152602001600060ff168152602001600060ff168152602001606081525090565b6040518060800160405280600063ffffffff168152602001600064ffffffffff16815260200160608152602001606081525090565b6040518060a0016040528060008019168152602001600073ffffffffffffffffffffffffffffffffffffffff16815260200160007bffffffffffffffffffffffffffffffffffffffffffffffffffffffff19168152602001600081526020016126de6126e4565b81525090565b604051806040016040528060608152602001600081525090565b5b8082111561271e57600081816127159190612722565b506001016126ff565b5090565b50805461272e906136f3565b6000825580601f10612740575061275f565b601f01602090049060005260206000209081019061275e9190612762565b5b50565b5b8082111561277b576000816000905550600101612763565b5090565b6000604051905090565b600080fd5b600080fd5b6000819050919050565b6127a681612793565b81146127b157600080fd5b50565b6000813590506127c38161279d565b92915050565b6000602082840312156127df576127de612789565b5b60006127ed848285016127b4565b91505092915050565b6000819050919050565b612809816127f6565b82525050565b60006020820190506128246000830184612800565b92915050565b600073ffffffffffffffffffffffffffffffffffffffff82169050919050565b60006128558261282a565b9050919050565b6128658161284a565b811461287057600080fd5b50565b6000813590506128828161285c565b92915050565b6000806040838503121561289f5761289e612789565b5b60006128ad85828601612873565b92505060206128be858286016127b4565b9150509250929050565b600063ffffffff82169050919050565b6128e1816128c8565b82525050565b600060ff82169050919050565b6128fd816128e7565b82525050565b600081519050919050565b600082825260208201905092915050565b60005b8381101561293d578082015181840152602081019050612922565b8381111561294c576000848401525b50505050565b6000601f19601f8301169050919050565b600061296e82612903565b612978818561290e565b935061298881856020860161291f565b61299181612952565b840191505092915050565b60006080820190506129b160008301876128d8565b6129be60208301866128f4565b6129cb60408301856128f4565b81810360608301526129dd8184612963565b905095945050505050565b6129f181612793565b82525050565b6000604082019050612a0c60008301856129e8565b612a1960208301846129e8565b9392505050565b600080fd5b7f4e487b7100000000000000000000000000000000000000000000000000000000600052604160045260246000fd5b612a5d82612952565b810181811067ffffffffffffffff82111715612a7c57612a7b612a25565b5b80604052505050565b6000612a8f61277f565b9050612a9b8282612a54565b919050565b600067ffffffffffffffff821115612abb57612aba612a25565b5b602082029050602081019050919050565b600080fd5b600080fd5b600080fd5b612ae4816128c8565b8114612aef57600080fd5b50565b600081359050612b0181612adb565b92915050565b612b10816128e7565b8114612b1b57600080fd5b50565b600081359050612b2d81612b07565b92915050565b600080fd5b600067ffffffffffffffff821115612b5357612b52612a25565b5b612b5c82612952565b9050602081019050919050565b82818337600083830152505050565b6000612b8b612b8684612b38565b612a85565b905082815260208101848484011115612ba757612ba6612b33565b5b612bb2848285612b69565b509392505050565b600082601f830112612bcf57612bce612a20565b5b8135612bdf848260208601612b78565b91505092915050565b600060808284031215612bfe57612bfd612ad1565b5b612c086080612a85565b90506000612c1884828501612af2565b6000830152506020612c2c84828501612b1e565b6020830152506040612c4084828501612b1e565b604083015250606082013567ffffffffffffffff811115612c6457612c63612ad6565b5b612c7084828501612bba565b60608301525092915050565b6000612c8f612c8a84612aa0565b612a85565b90508083825260208201905060208402830185811115612cb257612cb1612acc565b5b835b81811015612cf957803567ffffffffffffffff811115612cd757612cd6612a20565b5b808601612ce48982612be8565b85526020850194505050602081019050612cb4565b5050509392505050565b600082601f830112612d1857612d17612a20565b5b8135612d28848260208601612c7c565b91505092915050565b600060208284031215612d4757612d46612789565b5b600082013567ffffffffffffffff811115612d6557612d6461278e565b5b612d7184828501612d03565b91505092915050565b600060208284031215612d9057612d8f612789565b5b6000612d9e84828501612873565b91505092915050565b600081519050919050565b600082825260208201905092915050565b6000819050602082019050919050565b612ddc816128c8565b82525050565b612deb816128e7565b82525050565b600082825260208201905092915050565b6000612e0d82612903565b612e178185612df1565b9350612e2781856020860161291f565b612e3081612952565b840191505092915050565b6000608083016000830151612e536000860182612dd3565b506020830151612e666020860182612de2565b506040830151612e796040860182612de2565b5060608301518482036060860152612e918282612e02565b9150508091505092915050565b6000612eaa8383612e3b565b905092915050565b6000602082019050919050565b6000612eca82612da7565b612ed48185612db2565b935083602082028501612ee685612dc3565b8060005b85811015612f225784840389528151612f038582612e9e565b9450612f0e83612eb2565b925060208a01995050600181019050612eea565b50829750879550505050505092915050565b60006020820190508181036000830152612f4e8184612ebf565b905092915050565b612f5f816127f6565b8114612f6a57600080fd5b50565b600081359050612f7c81612f56565b92915050565b600067ffffffffffffffff821115612f9d57612f9c612a25565b5b602082029050602081019050919050565b600067ffffffffffffffff821115612fc957612fc8612a25565b5b612fd282612952565b9050602081019050919050565b6000612ff2612fed84612fae565b612a85565b90508281526020810184848401111561300e5761300d612b33565b5b613019848285612b69565b509392505050565b600082601f83011261303657613035612a20565b5b8135613046848260208601612fdf565b91505092915050565b600061306261305d84612f82565b612a85565b9050808382526020820190506020840283018581111561308557613084612acc565b5b835b818110156130cc57803567ffffffffffffffff8111156130aa576130a9612a20565b5b8086016130b78982613021565b85526020850194505050602081019050613087565b5050509392505050565b600082601f8301126130eb576130ea612a20565b5b81356130fb84826020860161304f565b91505092915050565b6000806040838503121561311b5761311a612789565b5b600061312985828601612f6d565b925050602083013567ffffffffffffffff81111561314a5761314961278e565b5b613156858286016130d6565b9150509250929050565b600080fd5b60008083601f84011261317b5761317a612a20565b5b8235905067ffffffffffffffff81111561319857613197613160565b5b6020830191508360208202830111156131b4576131b3612acc565b5b9250929050565b600080600080606085870312156131d5576131d4612789565b5b60006131e3878288016127b4565b94505060206131f4878288016127b4565b935050604085013567ffffffffffffffff8111156132155761321461278e565b5b61322187828801613165565b925092505092959194509250565b600061ffff82169050919050565b6132468161322f565b811461325157600080fd5b50565b6000813590506132638161323d565b92915050565b60006020828403121561327f5761327e612789565b5b600061328d84828501613254565b91505092915050565b60006132a18261282a565b9050919050565b6132b181613296565b81146132bc57600080fd5b50565b6000813590506132ce816132a8565b92915050565b600080604083850312156132eb576132ea612789565b5b60006132f9858286016132bf565b925050602061330a858286016127b4565b9150509250929050565b60006020828403121561332a57613329612789565b5b600061333884828501612f6d565b91505092915050565b600060208201905061335660008301846129e8565b92915050565b6133658161284a565b82525050565b6000602082019050613380600083018461335c565b92915050565b60006020828403121561339c5761339b612789565b5b60006133aa84828501612b1e565b91505092915050565b600080604083850312156133ca576133c9612789565b5b60006133d885828601612f6d565b92505060206133e9858286016127b4565b9150509250929050565b600081519050919050565b600082825260208201905092915050565b600061341a826133f3565b61342481856133fe565b935061343481856020860161291f565b61343d81612952565b840191505092915050565b60006020820190508181036000830152613462818461340f565b905092915050565b6000806040838503121561348157613480612789565b5b600061348f858286016127b4565b92505060206134a0858286016127b4565b9150509250929050565b6134b38161322f565b82525050565b60006020820190506134ce60008301846134aa565b92915050565b60006080830160008301516134ec6000860182612dd3565b5060208301516134ff6020860182612de2565b5060408301516135126040860182612de2565b506060830151848203606086015261352a8282612e02565b9150508091505092915050565b6000602082019050818103600083015261355181846134d4565b905092915050565b600064ffffffffff82169050919050565b61357381613559565b82525050565b60006080830160008301516135916000860182612dd3565b5060208301516135a4602086018261356a565b50604083015184820360408601526135bc8282612e02565b915050606083015184820360608601526135d68282612e02565b9150508091505092915050565b600060208201905081810360008301526135fd8184613579565b905092915050565b60007fffffffff0000000000000000000000000000000000000000000000000000000082169050919050565b61363a81613605565b811461364557600080fd5b50565b60008135905061365781613631565b92915050565b6000806000806080858703121561367757613676612789565b5b600061368587828801612f6d565b9450506020613696878288016127b4565b93505060406136a787828801613648565b92505060606136b8878288016127b4565b91505092959194509250565b7f4e487b7100000000000000000000000000000000000000000000000000000000600052602260045260246000fd5b6000600282049050600182168061370b57607f821691505b60208210810361371e5761371d6136c4565b5b50919050565b6000815190506137338161279d565b92915050565b60006020828403121561374f5761374e612789565b5b600061375d84828501613724565b91505092915050565b7f546865206e756d626572206f662070726564696374696f6e7320646f65736e2760008201527f74206d6174636821000000000000000000000000000000000000000000000000602082015250565b60006137c260288361290e565b91506137cd82613766565b604082019050919050565b600060208201905081810360008301526137f1816137b5565b9050919050565b7f596f7520616c72656164792073617665642070726564696374696f6e73210000600082015250565b600061382e601e8361290e565b9150613839826137f8565b602082019050919050565b6000602082019050818103600083015261385d81613821565b9050919050565b7f4e487b7100000000000000000000000000000000000000000000000000000000600052603260045260246000fd5b60008190508160005260206000209050919050565b60006020601f8301049050919050565b600082821b905092915050565b6000600883026138f57fffffffffffffffffffffffffffffffffffffffffffffffffffffffffffffffff826138b8565b6138ff86836138b8565b95508019841693508086168417925050509392505050565b6000819050919050565b600061393c61393761393284612793565b613917565b612793565b9050919050565b6000819050919050565b61395683613921565b61396a61396282613943565b8484546138c5565b825550505050565b600090565b61397f613972565b61398a81848461394d565b505050565b5b818110156139ae576139a3600082613977565b600181019050613990565b5050565b601f8211156139f3576139c481613893565b6139cd846138a8565b810160208510156139dc578190505b6139f06139e8856138a8565b83018261398f565b50505b505050565b600082821c905092915050565b6000613a16600019846008026139f8565b1980831691505092915050565b6000613a2f8383613a05565b9150826002028217905092915050565b613a4882612903565b67ffffffffffffffff811115613a6157613a60612a25565b5b613a6b82546136f3565b613a768282856139b2565b600060209050601f831160018114613aa95760008415613a97578287015190505b613aa18582613a23565b865550613b09565b601f198416613ab786613893565b60005b82811015613adf57848901518255600182019150602085019450602081019050613aba565b86831015613afc5784890151613af8601f891682613a05565b8355505b6001600288020188555050505b505050505050565b7f4e487b7100000000000000000000000000000000000000000000000000000000600052601160045260246000fd5b6000613b4b8261322f565b915061ffff8203613b5f57613b5e613b11565b5b600182019050919050565b6000613b85613b80613b7b8461282a565b613917565b61282a565b9050919050565b6000613b9782613b6a565b9050919050565b6000613ba982613b8c565b9050919050565b613bb981613b9e565b82525050565b6000604082019050613bd46000830185613bb0565b613be160208301846129e8565b9392505050565b60008115159050919050565b613bfd81613be8565b8114613c0857600080fd5b50565b600081519050613c1a81613bf4565b92915050565b600060208284031215613c3657613c35612789565b5b6000613c4484828501613c0b565b91505092915050565b7f536f75726365206d75737420626520746865206f7261636c65206f662074686560008201527f2072657175657374000000000000000000000000000000000000000000000000602082015250565b6000613ca960288361290e565b9150613cb482613c4d565b604082019050919050565b60006020820190508181036000830152613cd881613c9c565b9050919050565b6000613cea82612793565b91507fffffffffffffffffffffffffffffffffffffffffffffffffffffffffffffffff8203613d1c57613d1b613b11565b5b600182019050919050565b6000613d3282612793565b9150613d3d83612793565b925082821015613d5057613d4f613b11565b5b828203905092915050565b6000613d668261322f565b9150613d718361322f565b92508261ffff03821115613d8857613d87613b11565b5b828201905092915050565b7f4f776e61626c653a206e6577206f776e657220697320746865207a65726f206160008201527f6464726573730000000000000000000000000000000000000000000000000000602082015250565b6000613def60268361290e565b9150613dfa82613d93565b604082019050919050565b60006020820190508181036000830152613e1e81613de2565b9050919050565b7f4f776e61626c653a2063616c6c6572206973206e6f7420746865206f776e6572600082015250565b6000613e5b60208361290e565b9150613e6682613e25565b602082019050919050565b60006020820190508181036000830152613e8a81613e4e565b9050919050565b6000819050602082019050919050565b6000613ead8251613605565b80915050919050565b6000613ec1826133f3565b82613ecb84613e91565b9050613ed681613ea1565b92506004821015613f1657613f117fffffffff00000000000000000000000000000000000000000000000000000000836004036008026138b8565b831692505b5050919050565b60007fffffffffff00000000000000000000000000000000000000000000000000000082169050919050565b6000613f558251613f1d565b80915050919050565b6000613f69826133f3565b82613f7384613e91565b9050613f7e81613f49565b92506005821015613fbe57613fb97fffffffffff000000000000000000000000000000000000000000000000000000836005036008026138b8565b831692505b5050919050565b6000613fd0826128e7565b9150613fdb836128e7565b92508260ff03821115613ff157613ff0613b11565b5b828201905092915050565b61400581613605565b82525050565b60006080820190506140206000830187612800565b61402d60208301866129e8565b61403a6040830185613ffc565b61404760608301846129e8565b95945050505050565b600061405b82612793565b915061406683612793565b9250827fffffffffffffffffffffffffffffffffffffffffffffffffffffffffffffffff0382111561409b5761409a613b11565b5b828201905092915050565b600060e0820190506140bb600083018a61335c565b6140c860208301896129e8565b6140d56040830188612800565b6140e26060830187613ffc565b6140ef60808301866129e8565b6140fc60a08301856129e8565b81810360c083015261410e818461340f565b905098975050505050505050565b7f4e487b7100000000000000000000000000000000000000000000000000000000600052601260045260246000fd5b600061415682612793565b915061416183612793565b9250826141715761417061411c565b5b828206905092915050565b600061418782613b8c565b9050919050565b60008160601b9050919050565b60006141a68261418e565b9050919050565b60006141b88261419b565b9050919050565b6141d06141cb8261417c565b6141ad565b82525050565b6000819050919050565b6141f16141ec82612793565b6141d6565b82525050565b600061420382856141bf565b60148201915061421382846141e0565b6020820191508190509392505050565b6000606082019050614238600083018661335c565b61424560208301856129e8565b8181036040830152614257818461340f565b9050949350505050565b7f756e61626c6520746f207472616e73666572416e6443616c6c20746f206f726160008201527f636c650000000000000000000000000000000000000000000000000000000000602082015250565b60006142bd60238361290e565b91506142c882614261565b604082019050919050565b600060208201905081810360008301526142ec816142b0565b9050919050565b60006142fe82612793565b915061430983612793565b9250817fffffffffffffffffffffffffffffffffffffffffffffffffffffffffffffffff048311821515161561434257614341613b11565b5b828202905092915050565b60008160011c9050919050565b6000808291508390505b60018511156143a4578086048111156143805761437f613b11565b5b600185161561438f5780820291505b808102905061439d8561434d565b9450614364565b94509492505050565b6000826143bd5760019050614479565b816143cb5760009050614479565b81600181146143e157600281146143eb5761441a565b6001915050614479565b60ff8411156143fd576143fc613b11565b5b8360020a91508482111561441457614413613b11565b5b50614479565b5060208310610133831016604e8410600b841016171561444f5782820a90508381111561444a57614449613b11565b5b614479565b61445c848484600161435a565b9250905081840481111561447357614472613b11565b5b81810290505b9392505050565b600061448b82612793565b915061449683612793565b92506144c37fffffffffffffffffffffffffffffffffffffffffffffffffffffffffffffffff84846143ad565b905092915050565b60008190508160005260206000209050919050565b601f821115614521576144f2816144cb565b6144fb846138a8565b8101602085101561450a578190505b61451e614516856138a8565b83018261398f565b50505b505050565b61452f826133f3565b67ffffffffffffffff81111561454857614547612a25565b5b61455282546136f3565b61455d8282856144e0565b600060209050601f831160018114614590576000841561457e578287015190505b6145888582613a23565b8655506145f0565b601f19841661459e866144cb565b60005b828110156145c6578489015182556001820191506020850194506020810190506145a1565b868310156145e357848901516145df601f891682613a05565b8355505b6001600288020188555050505b50505050505056fea2646970667358221220af7b10833713efee7efa01705e82b8a9619c02f3ecbea0d013336ea02a5f4f1964736f6c634300080f0033",
  "linkReferences": {},
  "deployedLinkReferences": {}
}