{
  "_format": "hh-sol-artifact-1",
  "contractName": "IpEnetScores",
  "sourceName": "contracts/IpEnetScore.sol",
  "abi": [
    {
      "inputs": [],
      "stateMutability": "nonpayable",
      "type": "constructor"
    },
    {
      "inputs": [
        {
          "internalType": "address",
          "name": "to",
          "type": "address"
        },
        {
          "internalType": "uint256",
          "name": "amount",
          "type": "uint256"
        }
      ],
      "name": "FailedTransferLINK",
      "type": "error"
    },
    {
      "anonymous": false,
      "inputs": [
        {
          "indexed": true,
          "internalType": "bytes32",
          "name": "id",
          "type": "bytes32"
        }
      ],
      "name": "ChainlinkCancelled",
      "type": "event"
    },
    {
      "anonymous": false,
      "inputs": [
        {
          "indexed": true,
          "internalType": "bytes32",
          "name": "id",
          "type": "bytes32"
        }
      ],
      "name": "ChainlinkFulfilled",
      "type": "event"
    },
    {
      "anonymous": false,
      "inputs": [
        {
          "indexed": true,
          "internalType": "bytes32",
          "name": "id",
          "type": "bytes32"
        }
      ],
      "name": "ChainlinkRequested",
      "type": "event"
    },
    {
      "inputs": [],
      "name": "_getOracleAddress",
      "outputs": [
        {
          "internalType": "address",
          "name": "",
          "type": "address"
        }
      ],
      "stateMutability": "view",
      "type": "function"
    },
    {
      "inputs": [
        {
          "internalType": "bytes32",
          "name": "_requestId",
          "type": "bytes32"
        },
        {
          "internalType": "bytes4",
          "name": "_callbackFunctionId",
          "type": "bytes4"
        },
        {
          "internalType": "uint256",
          "name": "_expiration",
          "type": "uint256"
        }
      ],
      "name": "cancelRequest",
      "outputs": [],
      "stateMutability": "nonpayable",
      "type": "function"
    },
    {
      "inputs": [
        {
          "internalType": "bytes32",
          "name": "_requestId",
          "type": "bytes32"
        },
        {
          "internalType": "bytes[]",
          "name": "_result",
          "type": "bytes[]"
        }
      ],
      "name": "fulfillSchedule",
      "outputs": [],
      "stateMutability": "nonpayable",
      "type": "function"
    },
    {
      "inputs": [
        {
          "internalType": "bytes32",
          "name": "_requestId",
          "type": "bytes32"
        },
        {
          "internalType": "uint256",
          "name": "_idx",
          "type": "uint256"
        }
      ],
      "name": "getGameCreate",
      "outputs": [
        {
          "components": [
            {
              "internalType": "uint32",
              "name": "gameId",
              "type": "uint32"
            },
            {
              "internalType": "uint40",
              "name": "startTime",
              "type": "uint40"
            },
            {
              "internalType": "string",
              "name": "homeTeam",
              "type": "string"
            },
            {
              "internalType": "string",
              "name": "awayTeam",
              "type": "string"
            }
          ],
          "internalType": "struct IpEnetScores.GameCreate",
          "name": "",
          "type": "tuple"
        }
      ],
      "stateMutability": "view",
      "type": "function"
    },
    {
      "inputs": [
        {
          "internalType": "bytes32",
          "name": "_requestId",
          "type": "bytes32"
        },
        {
          "internalType": "uint256",
          "name": "_idx",
          "type": "uint256"
        }
      ],
      "name": "getGameIdPerRequestIndex",
      "outputs": [
        {
          "internalType": "uint32",
          "name": "",
          "type": "uint32"
        }
      ],
      "stateMutability": "view",
      "type": "function"
    },
    {
      "inputs": [
        {
          "internalType": "bytes32",
          "name": "_requestId",
          "type": "bytes32"
        },
        {
          "internalType": "uint256",
          "name": "_idx",
          "type": "uint256"
        }
      ],
      "name": "getGameInfoPerRequestIdIndex",
      "outputs": [
        {
          "internalType": "uint32",
          "name": "",
          "type": "uint32"
        },
        {
          "internalType": "string",
          "name": "",
          "type": "string"
        },
        {
          "internalType": "string",
          "name": "",
          "type": "string"
        }
      ],
      "stateMutability": "view",
      "type": "function"
    },
    {
      "inputs": [
        {
          "internalType": "bytes32",
          "name": "_requestId",
          "type": "bytes32"
        },
        {
          "internalType": "uint256",
          "name": "_idx",
          "type": "uint256"
        }
      ],
      "name": "getGameResolve",
      "outputs": [
        {
          "components": [
            {
              "internalType": "uint32",
              "name": "gameId",
              "type": "uint32"
            },
            {
              "internalType": "uint8",
              "name": "homeScore",
              "type": "uint8"
            },
            {
              "internalType": "uint8",
              "name": "awayScore",
              "type": "uint8"
            },
            {
              "internalType": "string",
              "name": "status",
              "type": "string"
            }
          ],
          "internalType": "struct IpEnetScores.GameResolve",
          "name": "",
          "type": "tuple"
        }
      ],
      "stateMutability": "view",
      "type": "function"
    },
    {
      "inputs": [
        {
          "internalType": "bytes32",
          "name": "_requestId",
          "type": "bytes32"
        }
      ],
      "name": "getNumberOfGamesPerRequest",
      "outputs": [
        {
          "internalType": "uint256",
          "name": "",
          "type": "uint256"
        }
      ],
      "stateMutability": "view",
      "type": "function"
    },
    {
      "inputs": [
        {
          "internalType": "uint32",
          "name": "_gameId",
          "type": "uint32"
        }
      ],
      "name": "getScoresPerGameId",
      "outputs": [
        {
          "internalType": "uint8",
          "name": "",
          "type": "uint8"
        },
        {
          "internalType": "uint8",
          "name": "",
          "type": "uint8"
        },
        {
          "internalType": "bool",
          "name": "",
          "type": "bool"
        }
      ],
      "stateMutability": "view",
      "type": "function"
    },
    {
      "inputs": [
        {
          "internalType": "uint256",
          "name": "_market",
          "type": "uint256"
        },
        {
          "internalType": "uint256",
          "name": "_leagueId",
          "type": "uint256"
        },
        {
          "internalType": "uint256",
          "name": "_date",
          "type": "uint256"
        }
      ],
      "name": "requestSchedule",
      "outputs": [
        {
          "internalType": "bytes32",
          "name": "",
          "type": "bytes32"
        }
      ],
      "stateMutability": "nonpayable",
      "type": "function"
    },
    {
      "inputs": [
        {
          "internalType": "uint256",
          "name": "_leagueId",
          "type": "uint256"
        },
        {
          "internalType": "uint256",
          "name": "_date",
          "type": "uint256"
        }
      ],
      "name": "resolveRequestGames",
      "outputs": [],
      "stateMutability": "nonpayable",
      "type": "function"
    },
    {
      "inputs": [
        {
          "internalType": "bytes32",
          "name": "_requestId",
          "type": "bytes32"
        },
        {
          "internalType": "bytes[]",
          "name": "_games",
          "type": "bytes[]"
        }
      ],
      "name": "setRequestIdGames",
      "outputs": [],
      "stateMutability": "nonpayable",
      "type": "function"
    },
    {
      "inputs": [
        {
          "internalType": "address payable",
          "name": "_payee",
          "type": "address"
        },
        {
          "internalType": "uint256",
          "name": "_amount",
          "type": "uint256"
        }
      ],
      "name": "withdrawLink",
      "outputs": [],
      "stateMutability": "nonpayable",
      "type": "function"
    }
  ],
  "bytecode": "0x608060405260016004553480156200001657600080fd5b506200003c73326c977e6efc84e512bb9c30f76e30c160ed06fb620000a060201b60201c565b6200006173b9756312523826a566e222a34793e414a81c88e1620000e460201b60201c565b67016345785d8a00006007819055507f643131306235633462383364343264636132306534313061633533376364393460001b60088190555062000128565b80600260006101000a81548173ffffffffffffffffffffffffffffffffffffffff021916908373ffffffffffffffffffffffffffffffffffffffff16021790555050565b80600360006101000a81548173ffffffffffffffffffffffffffffffffffffffff021916908373ffffffffffffffffffffffffffffffffffffffff16021790555050565b6131ea80620001386000396000f3fe608060405234801561001057600080fd5b50600436106100cf5760003560e01c8063a38b3d0e1161008c578063ca4f2afc11610066578063ca4f2afc14610226578063de00d10714610242578063e3c046a714610272578063f02e41a3146102a2576100cf565b8063a38b3d0e146101a6578063ab2fb9a9146101d8578063b075f53214610208576100cf565b8063303a712f146100d45780633c09f3be146100f057806354b7faae14610122578063580c2f541461013e5780638f358bf81461016e57806393d070721461018a575b600080fd5b6100ee60048036038101906100e99190611e7e565b6102d2565b005b61010a60048036038101906101059190611f16565b6102fe565b60405161011993929190611f7a565b60405180910390f35b61013c60048036038101906101379190612045565b6103a2565b005b61015860048036038101906101539190612085565b610474565b60405161016591906120e7565b60405180910390f35b61018860048036038101906101839190612102565b610586565b005b6101a4600480360381019061019f9190611e7e565b61089c565b005b6101c060048036038101906101bb9190612142565b6109ce565b6040516101cf93929190612219565b60405180910390f35b6101f260048036038101906101ed9190612142565b610ab4565b6040516101ff919061225e565b60405180910390f35b610210610b87565b60405161021d919061229a565b60405180910390f35b610240600480360381019061023b919061230d565b610b96565b005b61025c60048036038101906102579190612142565b610ba9565b604051610269919061242b565b60405180910390f35b61028c60048036038101906102879190612142565b610c79565b60405161029991906124d7565b60405180910390f35b6102bc60048036038101906102b791906124f9565b610d49565b6040516102c99190612535565b60405180910390f35b806006600084815260200190815260200160002090805190602001906102f9929190611a3e565b505050565b600080600080600960008663ffffffff1663ffffffff1681526020019081526020016000206040518060600160405290816000820160009054906101000a900460ff1660ff1660ff1681526020016000820160019054906101000a900460ff1660ff1660ff1681526020016000820160029054906101000a900460ff1615151515815250509050806000015181602001518260400151935093509350509193909250565b60006103ac610d69565b90508073ffffffffffffffffffffffffffffffffffffffff1663a9059cbb84846040518363ffffffff1660e01b81526004016103e99291906125af565b6020604051808303816000875af1158015610408573d6000803e3d6000fd5b505050506040513d601f19601f8201168201806040525081019061042c9190612604565b61046f5782826040517f7ab2f9770000000000000000000000000000000000000000000000000000000081526004016104669291906125af565b60405180910390fd5b505050565b60008061048a6008546393d0707260e01b610d93565b90506104d66040518060400160405280600681526020017f6d61726b657400000000000000000000000000000000000000000000000000008152508683610dc39092919063ffffffff16565b6105206040518060400160405280600881526020017f6c656167756549640000000000000000000000000000000000000000000000008152508583610dc39092919063ffffffff16565b61056a6040518060400160405280600481526020017f64617465000000000000000000000000000000000000000000000000000000008152508483610dc39092919063ffffffff16565b600061057882600754610df6565b905080925050509392505050565b60006001905060006105a16008546393d0707260e01b610d93565b90506105ed6040518060400160405280600681526020017f6d61726b657400000000000000000000000000000000000000000000000000008152508383610dc39092919063ffffffff16565b6106376040518060400160405280600881526020017f6c656167756549640000000000000000000000000000000000000000000000008152508583610dc39092919063ffffffff16565b6106816040518060400160405280600481526020017f64617465000000000000000000000000000000000000000000000000000000008152508483610dc39092919063ffffffff16565b600061068f82600754610df6565b905060005b60066000838152602001908152602001600020805490508110156108945760006107746006600085815260200190815260200160002083815481106106dc576106db612631565b5b9060005260206000200180546106f19061268f565b80601f016020809104026020016040519081016040528092919081815260200182805461071d9061268f565b801561076a5780601f1061073f5761010080835404028352916020019161076a565b820191906000526020600020905b81548152906001019060200180831161074d57829003601f168201915b5050505050610e2d565b905060405160200161078590612717565b6040516020818303038152906040528051906020012081606001516040516020016107b0919061275d565b6040516020818303038152906040528051906020012003610880576040518060600160405280826020015160ff168152602001826040015160ff1681526020016001151581525060096000836000015163ffffffff1663ffffffff16815260200190815260200160002060008201518160000160006101000a81548160ff021916908360ff16021790555060208201518160000160016101000a81548160ff021916908360ff16021790555060408201518160000160026101000a81548160ff0219169083151502179055509050505b50808061088c906127a3565b915050610694565b505050505050565b816005600082815260200190815260200160002060009054906101000a900473ffffffffffffffffffffffffffffffffffffffff1673ffffffffffffffffffffffffffffffffffffffff163373ffffffffffffffffffffffffffffffffffffffff161461093e576040517f08c379a00000000000000000000000000000000000000000000000000000000081526004016109359061285d565b60405180910390fd5b6005600082815260200190815260200160002060006101000a81549073ffffffffffffffffffffffffffffffffffffffff0219169055807f7cc135e0cebb02c3480ae5d74d377283180a2601f8f644edf7987b009316c63a60405160405180910390a2816006600085815260200190815260200160002090805190602001906109c8929190611a3e565b50505050565b60006060806000610a956006600088815260200190815260200160002086815481106109fd576109fc612631565b5b906000526020600020018054610a129061268f565b80601f0160208091040260200160405190810160405280929190818152602001828054610a3e9061268f565b8015610a8b5780601f10610a6057610100808354040283529160200191610a8b565b820191906000526020600020905b815481529060010190602001808311610a6e57829003601f168201915b5050505050610eed565b9050806000015181604001518260600151935093509350509250925092565b600080610b77600660008681526020019081526020016000208481548110610adf57610ade612631565b5b906000526020600020018054610af49061268f565b80601f0160208091040260200160405190810160405280929190818152602001828054610b209061268f565b8015610b6d5780601f10610b4257610100808354040283529160200191610b6d565b820191906000526020600020905b815481529060010190602001808311610b5057829003601f168201915b5050505050610eed565b9050806000015191505092915050565b6000610b91610fca565b905090565b610ba4836007548484610ff4565b505050565b610bb1611a97565b610c71600660008581526020019081526020016000208381548110610bd957610bd8612631565b5b906000526020600020018054610bee9061268f565b80601f0160208091040260200160405190810160405280929190818152602001828054610c1a9061268f565b8015610c675780601f10610c3c57610100808354040283529160200191610c67565b820191906000526020600020905b815481529060010190602001808311610c4a57829003601f168201915b5050505050610e2d565b905092915050565b610c81611acb565b610d41600660008581526020019081526020016000208381548110610ca957610ca8612631565b5b906000526020600020018054610cbe9061268f565b80601f0160208091040260200160405190810160405280929190818152602001828054610cea9061268f565b8015610d375780601f10610d0c57610100808354040283529160200191610d37565b820191906000526020600020905b815481529060010190602001808311610d1a57829003601f168201915b5050505050610eed565b905092915050565b600060066000838152602001908152602001600020805490509050919050565b6000600260009054906101000a900473ffffffffffffffffffffffffffffffffffffffff16905090565b610d9b611b00565b610da3611b00565b610dba84308584611107909392919063ffffffff16565b91505092915050565b610dda8284608001516111b790919063ffffffff16565b610df18184608001516111dc90919063ffffffff16565b505050565b6000610e25600360009054906101000a900473ffffffffffffffffffffffffffffffffffffffff16848461120c565b905092915050565b610e35611a97565b6000610e4460006004856112d6565b610e4d906128ba565b60e01c9050600083600481518110610e6857610e67612631565b5b602001015160f81c60f81b60f81c9050600084600581518110610e8e57610e8d612631565b5b602001015160f81c60f81b60f81c90506000610ead60068751886112d6565b9050600060405180608001604052808663ffffffff1681526020018560ff1681526020018460ff1681526020018381525090508095505050505050919050565b610ef5611acb565b6000610f0460006004856112d6565b610f0d906128ba565b60e01c90506000610f2160046009866112d6565b610f2a90612962565b60d81c9050600084600981518110610f4557610f44612631565b5b602001015160f81c60f81b60f81c9050600081600a610f6491906129c9565b60ff1690506000610f77600a83896112d6565b90506000610f878389518a6112d6565b9050600060405180608001604052808863ffffffff1681526020018764ffffffffff16815260200184815260200183815250905080975050505050505050919050565b6000600360009054906101000a900473ffffffffffffffffffffffffffffffffffffffff16905090565b60006005600086815260200190815260200160002060009054906101000a900473ffffffffffffffffffffffffffffffffffffffff1690506005600086815260200190815260200160002060006101000a81549073ffffffffffffffffffffffffffffffffffffffff0219169055847fe1fe3afa0f7f761ff0a8b89086790efd5140d2907ebd5b7ff6bfcb5e075fd4c560405160405180910390a28073ffffffffffffffffffffffffffffffffffffffff16636ee4d553868686866040518563ffffffff1660e01b81526004016110ce9493929190612a0f565b600060405180830381600087803b1580156110e857600080fd5b505af11580156110fc573d6000803e3d6000fd5b505050505050505050565b61110f611b00565b61111f85608001516101006113d2565b508385600001818152505082856020019073ffffffffffffffffffffffffffffffffffffffff16908173ffffffffffffffffffffffffffffffffffffffff16815250508185604001907bffffffffffffffffffffffffffffffffffffffffffffffffffffffff191690817bffffffffffffffffffffffffffffffffffffffffffffffffffffffff191681525050849050949350505050565b6111c4826003835161143c565b6111d781836115c190919063ffffffff16565b505050565b67ffffffffffffffff8111156111fb576111f682826115e3565b611208565b6112078260008361143c565b5b5050565b60008060045490506001816112219190612a54565b6004819055506000633c6d41b960e01b600080876000015188604001518660028b60800151600001516040516024016112609796959493929190612af4565b604051602081830303815290604052907bffffffffffffffffffffffffffffffffffffffffffffffffffffffff19166020820180517bffffffffffffffffffffffffffffffffffffffffffffffffffffffff838183161783525050505090506112cb8683868461162f565b925050509392505050565b6060600084846112e69190612b6a565b67ffffffffffffffff8111156112ff576112fe611c68565b5b6040519080825280601f01601f1916602001820160405280156113315781602001600182028036833780820191505090505b50905060005b85856113439190612b6a565b8110156113c6578381876113579190612a54565b8151811061136857611367612631565b5b602001015160f81c60f81b82828151811061138657611385612631565b5b60200101907effffffffffffffffffffffffffffffffffffffffffffffffffffffffffffff1916908160001a905350806113bf906127a3565b9050611337565b50809150509392505050565b6113da611b6d565b60006020836113e99190612bcd565b14611415576020826113fb9190612bcd565b60206114079190612b6a565b826114129190612a54565b91505b81836020018181525050604051808452600081528281016020016040525082905092915050565b60178167ffffffffffffffff16116114735761146d8160058460ff16901b60ff1617846117c490919063ffffffff16565b506115bc565b60ff8167ffffffffffffffff16116114c9576114a2601860058460ff16901b17846117c490919063ffffffff16565b506114c38167ffffffffffffffff166001856117e49092919063ffffffff16565b506115bb565b61ffff8167ffffffffffffffff1611611520576114f9601960058460ff16901b17846117c490919063ffffffff16565b5061151a8167ffffffffffffffff166002856117e49092919063ffffffff16565b506115ba565b63ffffffff8167ffffffffffffffff161161157957611552601a60058460ff16901b17846117c490919063ffffffff16565b506115738167ffffffffffffffff166004856117e49092919063ffffffff16565b506115b9565b611596601b60058460ff16901b17846117c490919063ffffffff16565b506115b78167ffffffffffffffff166008856117e49092919063ffffffff16565b505b5b5b5b505050565b6115c9611b6d565b6115db83846000015151848551611806565b905092915050565b61160160026005600660ff16901b17836117c490919063ffffffff16565b5061162b82826040516020016116179190612535565b6040516020818303038152906040526118f5565b5050565b60003084604051602001611644929190612c79565b604051602081830303815290604052805190602001209050846005600083815260200190815260200160002060006101000a81548173ffffffffffffffffffffffffffffffffffffffff021916908373ffffffffffffffffffffffffffffffffffffffff160217905550807fb5e6e01e79f91267dc17b4e6314d5d4d03593d2ceee0fbb452b750bd70ea5af960405160405180910390a2600260009054906101000a900473ffffffffffffffffffffffffffffffffffffffff1673ffffffffffffffffffffffffffffffffffffffff16634000aea08685856040518463ffffffff1660e01b815260040161173a93929190612ca5565b6020604051808303816000875af1158015611759573d6000803e3d6000fd5b505050506040513d601f19601f8201168201806040525081019061177d9190612604565b6117bc576040517f08c379a00000000000000000000000000000000000000000000000000000000081526004016117b390612d55565b60405180910390fd5b949350505050565b6117cc611b6d565b6117dc838460000151518461191a565b905092915050565b6117ec611b6d565b6117fd848560000151518585611970565b90509392505050565b61180e611b6d565b825182111561181c57600080fd5b8460200151828561182d9190612a54565b1115611862576118618560026118528860200151888761184d9190612a54565b6119fe565b61185c9190612d75565b611a1a565b5b6000808651805187602083010193508088870111156118815787860182525b60208701925050505b602084106118c857805182526020826118a39190612a54565b91506020816118b29190612a54565b90506020846118c19190612b6a565b935061188a565b60006001856020036101000a03905080198251168184511681811785525050508692505050949350505050565b611902826002835161143c565b61191581836115c190919063ffffffff16565b505050565b611922611b6d565b836020015183106119485761194784600286602001516119429190612d75565b611a1a565b5b83518051602085830101848153818603611963576001820183525b5050508390509392505050565b611978611b6d565b846020015184836119899190612a54565b11156119b1576119b085600286856119a19190612a54565b6119ab9190612d75565b611a1a565b5b60006001836101006119c39190612f02565b6119cd9190612b6a565b905085518386820101858319825116178152815185880111156119f05784870182525b505085915050949350505050565b600081831115611a1057829050611a14565b8190505b92915050565b600082600001519050611a2d83836113d2565b50611a3883826115c1565b50505050565b828054828255906000526020600020908101928215611a86579160200282015b82811115611a85578251829081611a7591906130e2565b5091602001919060010190611a5e565b5b509050611a939190611b87565b5090565b6040518060800160405280600063ffffffff168152602001600060ff168152602001600060ff168152602001606081525090565b6040518060800160405280600063ffffffff168152602001600064ffffffffff16815260200160608152602001606081525090565b6040518060a0016040528060008019168152602001600073ffffffffffffffffffffffffffffffffffffffff16815260200160007bffffffffffffffffffffffffffffffffffffffffffffffffffffffff1916815260200160008152602001611b67611b6d565b81525090565b604051806040016040528060608152602001600081525090565b5b80821115611ba75760008181611b9e9190611bab565b50600101611b88565b5090565b508054611bb79061268f565b6000825580601f10611bc95750611be8565b601f016020900490600052602060002090810190611be79190611beb565b5b50565b5b80821115611c04576000816000905550600101611bec565b5090565b6000604051905090565b600080fd5b600080fd5b6000819050919050565b611c2f81611c1c565b8114611c3a57600080fd5b50565b600081359050611c4c81611c26565b92915050565b600080fd5b6000601f19601f8301169050919050565b7f4e487b7100000000000000000000000000000000000000000000000000000000600052604160045260246000fd5b611ca082611c57565b810181811067ffffffffffffffff82111715611cbf57611cbe611c68565b5b80604052505050565b6000611cd2611c08565b9050611cde8282611c97565b919050565b600067ffffffffffffffff821115611cfe57611cfd611c68565b5b602082029050602081019050919050565b600080fd5b600080fd5b600067ffffffffffffffff821115611d3457611d33611c68565b5b611d3d82611c57565b9050602081019050919050565b82818337600083830152505050565b6000611d6c611d6784611d19565b611cc8565b905082815260208101848484011115611d8857611d87611d14565b5b611d93848285611d4a565b509392505050565b600082601f830112611db057611daf611c52565b5b8135611dc0848260208601611d59565b91505092915050565b6000611ddc611dd784611ce3565b611cc8565b90508083825260208201905060208402830185811115611dff57611dfe611d0f565b5b835b81811015611e4657803567ffffffffffffffff811115611e2457611e23611c52565b5b808601611e318982611d9b565b85526020850194505050602081019050611e01565b5050509392505050565b600082601f830112611e6557611e64611c52565b5b8135611e75848260208601611dc9565b91505092915050565b60008060408385031215611e9557611e94611c12565b5b6000611ea385828601611c3d565b925050602083013567ffffffffffffffff811115611ec457611ec3611c17565b5b611ed085828601611e50565b9150509250929050565b600063ffffffff82169050919050565b611ef381611eda565b8114611efe57600080fd5b50565b600081359050611f1081611eea565b92915050565b600060208284031215611f2c57611f2b611c12565b5b6000611f3a84828501611f01565b91505092915050565b600060ff82169050919050565b611f5981611f43565b82525050565b60008115159050919050565b611f7481611f5f565b82525050565b6000606082019050611f8f6000830186611f50565b611f9c6020830185611f50565b611fa96040830184611f6b565b949350505050565b600073ffffffffffffffffffffffffffffffffffffffff82169050919050565b6000611fdc82611fb1565b9050919050565b611fec81611fd1565b8114611ff757600080fd5b50565b60008135905061200981611fe3565b92915050565b6000819050919050565b6120228161200f565b811461202d57600080fd5b50565b60008135905061203f81612019565b92915050565b6000806040838503121561205c5761205b611c12565b5b600061206a85828601611ffa565b925050602061207b85828601612030565b9150509250929050565b60008060006060848603121561209e5761209d611c12565b5b60006120ac86828701612030565b93505060206120bd86828701612030565b92505060406120ce86828701612030565b9150509250925092565b6120e181611c1c565b82525050565b60006020820190506120fc60008301846120d8565b92915050565b6000806040838503121561211957612118611c12565b5b600061212785828601612030565b925050602061213885828601612030565b9150509250929050565b6000806040838503121561215957612158611c12565b5b600061216785828601611c3d565b925050602061217885828601612030565b9150509250929050565b61218b81611eda565b82525050565b600081519050919050565b600082825260208201905092915050565b60005b838110156121cb5780820151818401526020810190506121b0565b838111156121da576000848401525b50505050565b60006121eb82612191565b6121f5818561219c565b93506122058185602086016121ad565b61220e81611c57565b840191505092915050565b600060608201905061222e6000830186612182565b818103602083015261224081856121e0565b9050818103604083015261225481846121e0565b9050949350505050565b60006020820190506122736000830184612182565b92915050565b600061228482611fb1565b9050919050565b61229481612279565b82525050565b60006020820190506122af600083018461228b565b92915050565b60007fffffffff0000000000000000000000000000000000000000000000000000000082169050919050565b6122ea816122b5565b81146122f557600080fd5b50565b600081359050612307816122e1565b92915050565b60008060006060848603121561232657612325611c12565b5b600061233486828701611c3d565b9350506020612345868287016122f8565b925050604061235686828701612030565b9150509250925092565b61236981611eda565b82525050565b61237881611f43565b82525050565b600082825260208201905092915050565b600061239a82612191565b6123a4818561237e565b93506123b48185602086016121ad565b6123bd81611c57565b840191505092915050565b60006080830160008301516123e06000860182612360565b5060208301516123f3602086018261236f565b506040830151612406604086018261236f565b506060830151848203606086015261241e828261238f565b9150508091505092915050565b6000602082019050818103600083015261244581846123c8565b905092915050565b600064ffffffffff82169050919050565b6124678161244d565b82525050565b60006080830160008301516124856000860182612360565b506020830151612498602086018261245e565b50604083015184820360408601526124b0828261238f565b915050606083015184820360608601526124ca828261238f565b9150508091505092915050565b600060208201905081810360008301526124f1818461246d565b905092915050565b60006020828403121561250f5761250e611c12565b5b600061251d84828501611c3d565b91505092915050565b61252f8161200f565b82525050565b600060208201905061254a6000830184612526565b92915050565b6000819050919050565b600061257561257061256b84611fb1565b612550565b611fb1565b9050919050565b60006125878261255a565b9050919050565b60006125998261257c565b9050919050565b6125a98161258e565b82525050565b60006040820190506125c460008301856125a0565b6125d16020830184612526565b9392505050565b6125e181611f5f565b81146125ec57600080fd5b50565b6000815190506125fe816125d8565b92915050565b60006020828403121561261a57612619611c12565b5b6000612628848285016125ef565b91505092915050565b7f4e487b7100000000000000000000000000000000000000000000000000000000600052603260045260246000fd5b7f4e487b7100000000000000000000000000000000000000000000000000000000600052602260045260246000fd5b600060028204905060018216806126a757607f821691505b6020821081036126ba576126b9612660565b5b50919050565b600081905092915050565b7f66696e6973686564000000000000000000000000000000000000000000000000600082015250565b60006127016008836126c0565b915061270c826126cb565b600882019050919050565b6000612722826126f4565b9150819050919050565b600061273782612191565b61274181856126c0565b93506127518185602086016121ad565b80840191505092915050565b6000612769828461272c565b915081905092915050565b7f4e487b7100000000000000000000000000000000000000000000000000000000600052601160045260246000fd5b60006127ae8261200f565b91507fffffffffffffffffffffffffffffffffffffffffffffffffffffffffffffffff82036127e0576127df612774565b5b600182019050919050565b7f536f75726365206d75737420626520746865206f7261636c65206f662074686560008201527f2072657175657374000000000000000000000000000000000000000000000000602082015250565b600061284760288361219c565b9150612852826127eb565b604082019050919050565b600060208201905081810360008301526128768161283a565b9050919050565b600081519050919050565b6000819050602082019050919050565b60006128a482516122b5565b80915050919050565b600082821b905092915050565b60006128c58261287d565b826128cf84612888565b90506128da81612898565b9250600482101561291a576129157fffffffff00000000000000000000000000000000000000000000000000000000836004036008026128ad565b831692505b5050919050565b60007fffffffffff00000000000000000000000000000000000000000000000000000082169050919050565b60006129598251612921565b80915050919050565b600061296d8261287d565b8261297784612888565b90506129828161294d565b925060058210156129c2576129bd7fffffffffff000000000000000000000000000000000000000000000000000000836005036008026128ad565b831692505b5050919050565b60006129d482611f43565b91506129df83611f43565b92508260ff038211156129f5576129f4612774565b5b828201905092915050565b612a09816122b5565b82525050565b6000608082019050612a2460008301876120d8565b612a316020830186612526565b612a3e6040830185612a00565b612a4b6060830184612526565b95945050505050565b6000612a5f8261200f565b9150612a6a8361200f565b9250827fffffffffffffffffffffffffffffffffffffffffffffffffffffffffffffffff03821115612a9f57612a9e612774565b5b828201905092915050565b600082825260208201905092915050565b6000612ac68261287d565b612ad08185612aaa565b9350612ae08185602086016121ad565b612ae981611c57565b840191505092915050565b600060e082019050612b09600083018a61228b565b612b166020830189612526565b612b2360408301886120d8565b612b306060830187612a00565b612b3d6080830186612526565b612b4a60a0830185612526565b81810360c0830152612b5c8184612abb565b905098975050505050505050565b6000612b758261200f565b9150612b808361200f565b925082821015612b9357612b92612774565b5b828203905092915050565b7f4e487b7100000000000000000000000000000000000000000000000000000000600052601260045260246000fd5b6000612bd88261200f565b9150612be38361200f565b925082612bf357612bf2612b9e565b5b828206905092915050565b6000612c098261257c565b9050919050565b60008160601b9050919050565b6000612c2882612c10565b9050919050565b6000612c3a82612c1d565b9050919050565b612c52612c4d82612bfe565b612c2f565b82525050565b6000819050919050565b612c73612c6e8261200f565b612c58565b82525050565b6000612c858285612c41565b601482019150612c958284612c62565b6020820191508190509392505050565b6000606082019050612cba600083018661228b565b612cc76020830185612526565b8181036040830152612cd98184612abb565b9050949350505050565b7f756e61626c6520746f207472616e73666572416e6443616c6c20746f206f726160008201527f636c650000000000000000000000000000000000000000000000000000000000602082015250565b6000612d3f60238361219c565b9150612d4a82612ce3565b604082019050919050565b60006020820190508181036000830152612d6e81612d32565b9050919050565b6000612d808261200f565b9150612d8b8361200f565b9250817fffffffffffffffffffffffffffffffffffffffffffffffffffffffffffffffff0483118215151615612dc457612dc3612774565b5b828202905092915050565b60008160011c9050919050565b6000808291508390505b6001851115612e2657808604811115612e0257612e01612774565b5b6001851615612e115780820291505b8081029050612e1f85612dcf565b9450612de6565b94509492505050565b600082612e3f5760019050612efb565b81612e4d5760009050612efb565b8160018114612e635760028114612e6d57612e9c565b6001915050612efb565b60ff841115612e7f57612e7e612774565b5b8360020a915084821115612e9657612e95612774565b5b50612efb565b5060208310610133831016604e8410600b8410161715612ed15782820a905083811115612ecc57612ecb612774565b5b612efb565b612ede8484846001612ddc565b92509050818404811115612ef557612ef4612774565b5b81810290505b9392505050565b6000612f0d8261200f565b9150612f188361200f565b9250612f457fffffffffffffffffffffffffffffffffffffffffffffffffffffffffffffffff8484612e2f565b905092915050565b60008190508160005260206000209050919050565b60006020601f8301049050919050565b600060088302612fa27fffffffffffffffffffffffffffffffffffffffffffffffffffffffffffffffff826128ad565b612fac86836128ad565b95508019841693508086168417925050509392505050565b6000612fdf612fda612fd58461200f565b612550565b61200f565b9050919050565b6000819050919050565b612ff983612fc4565b61300d61300582612fe6565b848454612f72565b825550505050565b600090565b613022613015565b61302d818484612ff0565b505050565b5b818110156130515761304660008261301a565b600181019050613033565b5050565b601f8211156130965761306781612f4d565b61307084612f62565b8101602085101561307f578190505b61309361308b85612f62565b830182613032565b50505b505050565b600082821c905092915050565b60006130b96000198460080261309b565b1980831691505092915050565b60006130d283836130a8565b9150826002028217905092915050565b6130eb8261287d565b67ffffffffffffffff81111561310457613103611c68565b5b61310e825461268f565b613119828285613055565b600060209050601f83116001811461314c576000841561313a578287015190505b61314485826130c6565b8655506131ac565b601f19841661315a86612f4d565b60005b828110156131825784890151825560018201915060208501945060208101905061315d565b8683101561319f578489015161319b601f8916826130a8565b8355505b6001600288020188555050505b50505050505056fea26469706673582212204685cfe9aa90b05a79cf5dc0b912787650d030c3ee235bef6bcf916459b43d5764736f6c634300080f0033",
  "linkReferences": {},
  "deployedLinkReferences": {}
}