{
  "_format": "hh-sol-artifact-1",
  "contractName": "IpEnetScore",
  "sourceName": "contracts/IpEnetScore.sol",
  "abi": [
    {
      "inputs": [],
      "stateMutability": "nonpayable",
      "type": "constructor"
    },
    {
      "inputs": [
        {
          "internalType": "address",
          "name": "to",
          "type": "address"
        },
        {
          "internalType": "uint256",
          "name": "amount",
          "type": "uint256"
        }
      ],
      "name": "FailedTransferLINK",
      "type": "error"
    },
    {
      "anonymous": false,
      "inputs": [
        {
          "indexed": true,
          "internalType": "bytes32",
          "name": "id",
          "type": "bytes32"
        }
      ],
      "name": "ChainlinkCancelled",
      "type": "event"
    },
    {
      "anonymous": false,
      "inputs": [
        {
          "indexed": true,
          "internalType": "bytes32",
          "name": "id",
          "type": "bytes32"
        }
      ],
      "name": "ChainlinkFulfilled",
      "type": "event"
    },
    {
      "anonymous": false,
      "inputs": [
        {
          "indexed": true,
          "internalType": "bytes32",
          "name": "id",
          "type": "bytes32"
        }
      ],
      "name": "ChainlinkRequested",
      "type": "event"
    },
    {
      "inputs": [],
      "name": "_getOracleAddress",
      "outputs": [
        {
          "internalType": "address",
          "name": "",
          "type": "address"
        }
      ],
      "stateMutability": "view",
      "type": "function"
    },
    {
      "inputs": [
        {
          "internalType": "bytes32",
          "name": "_requestId",
          "type": "bytes32"
        },
        {
          "internalType": "bytes4",
          "name": "_callbackFunctionId",
          "type": "bytes4"
        },
        {
          "internalType": "uint256",
          "name": "_expiration",
          "type": "uint256"
        }
      ],
      "name": "cancelRequest",
      "outputs": [],
      "stateMutability": "nonpayable",
      "type": "function"
    },
    {
      "inputs": [
        {
          "internalType": "bytes32",
          "name": "_requestId",
          "type": "bytes32"
        },
        {
          "internalType": "bytes[]",
          "name": "_result",
          "type": "bytes[]"
        }
      ],
      "name": "fulfillSchedule",
      "outputs": [],
      "stateMutability": "nonpayable",
      "type": "function"
    },
    {
      "inputs": [
        {
          "internalType": "bytes32",
          "name": "_requestId",
          "type": "bytes32"
        },
        {
          "internalType": "uint256",
          "name": "_idx",
          "type": "uint256"
        }
      ],
      "name": "getGameCreate",
      "outputs": [
        {
          "components": [
            {
              "internalType": "uint32",
              "name": "gameId",
              "type": "uint32"
            },
            {
              "internalType": "uint40",
              "name": "startTime",
              "type": "uint40"
            },
            {
              "internalType": "string",
              "name": "homeTeam",
              "type": "string"
            },
            {
              "internalType": "string",
              "name": "awayTeam",
              "type": "string"
            }
          ],
          "internalType": "struct IpEnetScore.GameCreate",
          "name": "",
          "type": "tuple"
        }
      ],
      "stateMutability": "view",
      "type": "function"
    },
    {
      "inputs": [
        {
          "internalType": "bytes32",
          "name": "_requestId",
          "type": "bytes32"
        },
        {
          "internalType": "uint256",
          "name": "_idx",
          "type": "uint256"
        }
      ],
      "name": "getGameIdPerRequestIndex",
      "outputs": [
        {
          "internalType": "uint32",
          "name": "",
          "type": "uint32"
        }
      ],
      "stateMutability": "view",
      "type": "function"
    },
    {
      "inputs": [
        {
          "internalType": "bytes32",
          "name": "_requestId",
          "type": "bytes32"
        }
      ],
      "name": "getGameInfoPerRequestId",
      "outputs": [
        {
          "components": [
            {
              "internalType": "uint32",
              "name": "gameId",
              "type": "uint32"
            },
            {
              "internalType": "uint40",
              "name": "startTime",
              "type": "uint40"
            },
            {
              "internalType": "string",
              "name": "homeTeam",
              "type": "string"
            },
            {
              "internalType": "string",
              "name": "awayTeam",
              "type": "string"
            }
          ],
          "internalType": "struct IpEnetScore.GameCreate[]",
          "name": "",
          "type": "tuple[]"
        }
      ],
      "stateMutability": "view",
      "type": "function"
    },
    {
      "inputs": [
        {
          "internalType": "bytes32",
          "name": "_requestId",
          "type": "bytes32"
        },
        {
          "internalType": "uint256",
          "name": "_idx",
          "type": "uint256"
        }
      ],
      "name": "getGameResolve",
      "outputs": [
        {
          "components": [
            {
              "internalType": "uint32",
              "name": "gameId",
              "type": "uint32"
            },
            {
              "internalType": "uint8",
              "name": "homeScore",
              "type": "uint8"
            },
            {
              "internalType": "uint8",
              "name": "awayScore",
              "type": "uint8"
            },
            {
              "internalType": "string",
              "name": "status",
              "type": "string"
            }
          ],
          "internalType": "struct IpEnetScore.GameResolve",
          "name": "",
          "type": "tuple"
        }
      ],
      "stateMutability": "view",
      "type": "function"
    },
    {
      "inputs": [
        {
          "internalType": "bytes32",
          "name": "_requestId",
          "type": "bytes32"
        }
      ],
      "name": "getNumberOfGamesPerRequest",
      "outputs": [
        {
          "internalType": "uint256",
          "name": "",
          "type": "uint256"
        }
      ],
      "stateMutability": "view",
      "type": "function"
    },
    {
      "inputs": [
        {
          "internalType": "bytes32",
          "name": "_requestId",
          "type": "bytes32"
        },
        {
          "internalType": "uint32",
          "name": "_gameId",
          "type": "uint32"
        }
      ],
      "name": "getScoresPerGameIdPerRequest",
      "outputs": [
        {
          "internalType": "uint8",
          "name": "",
          "type": "uint8"
        },
        {
          "internalType": "uint8",
          "name": "",
          "type": "uint8"
        }
      ],
      "stateMutability": "view",
      "type": "function"
    },
    {
      "inputs": [
        {
          "internalType": "uint256",
          "name": "_market",
          "type": "uint256"
        },
        {
          "internalType": "uint256",
          "name": "_leagueId",
          "type": "uint256"
        },
        {
          "internalType": "uint256",
          "name": "_date",
          "type": "uint256"
        }
      ],
      "name": "requestSchedule",
      "outputs": [
        {
          "internalType": "bytes32",
          "name": "",
          "type": "bytes32"
        }
      ],
      "stateMutability": "nonpayable",
      "type": "function"
    },
    {
      "inputs": [
        {
          "internalType": "bytes32",
          "name": "_requestId",
          "type": "bytes32"
        },
        {
          "internalType": "bytes[]",
          "name": "_games",
          "type": "bytes[]"
        }
      ],
      "name": "setRequestIdGames",
      "outputs": [],
      "stateMutability": "nonpayable",
      "type": "function"
    },
    {
      "inputs": [
        {
          "internalType": "address payable",
          "name": "_payee",
          "type": "address"
        },
        {
          "internalType": "uint256",
          "name": "_amount",
          "type": "uint256"
        }
      ],
      "name": "withdrawLink",
      "outputs": [],
      "stateMutability": "nonpayable",
      "type": "function"
    }
  ],
  "bytecode": "0x608060405260016004553480156200001657600080fd5b506200003c73326c977e6efc84e512bb9c30f76e30c160ed06fb620000a060201b60201c565b6200006173b9756312523826a566e222a34793e414a81c88e1620000e460201b60201c565b7f643131306235633462383364343264636132306534313061633533376364393460001b60088190555067016345785d8a000060078190555062000128565b80600260006101000a81548173ffffffffffffffffffffffffffffffffffffffff021916908373ffffffffffffffffffffffffffffffffffffffff16021790555050565b80600360006101000a81548173ffffffffffffffffffffffffffffffffffffffff021916908373ffffffffffffffffffffffffffffffffffffffff16021790555050565b612fd080620001386000396000f3fe608060405234801561001057600080fd5b50600436106100b45760003560e01c8063ab2fb9a911610071578063ab2fb9a91461019e578063b075f532146101ce578063ca4f2afc146101ec578063de00d10714610208578063e3c046a714610238578063f02e41a314610268576100b4565b8063303a712f146100b95780633910b2c2146100d557806354b7faae14610106578063580c2f5414610122578063828a3dc71461015257806393d0707214610182575b600080fd5b6100d360048036038101906100ce9190611c92565b610298565b005b6100ef60048036038101906100ea9190611d2a565b6102c4565b6040516100fd929190611d86565b60405180910390f35b610120600480360381019061011b9190611e43565b61040d565b005b61013c60048036038101906101379190611e83565b6104df565b6040516101499190611ee5565b60405180910390f35b61016c60048036038101906101679190611f00565b61061a565b6040516101799190612110565b60405180910390f35b61019c60048036038101906101979190611c92565b610796565b005b6101b860048036038101906101b39190612132565b6108c8565b6040516101c59190612181565b60405180910390f35b6101d661099b565b6040516101e391906121bd565b60405180910390f35b61020660048036038101906102019190612230565b6109aa565b005b610222600480360381019061021d9190612132565b6109bd565b60405161022f91906122f5565b60405180910390f35b610252600480360381019061024d9190612132565b610a8d565b60405161025f9190612381565b60405180910390f35b610282600480360381019061027d9190611f00565b610b5d565b60405161028f91906123b2565b60405180910390f35b806006600084815260200190815260200160002090805190602001906102bf929190611852565b505050565b600080600060066000868152602001908152602001600020805490509050600060ff9050600080600090505b838110156103fc5760006103bb600660008b8152602001908152602001600020600081548110610323576103226123cd565b5b9060005260206000200180546103389061242b565b80601f01602080910402602001604051908101604052809291908181526020018280546103649061242b565b80156103b15780601f10610386576101008083540402835291602001916103b1565b820191906000526020600020905b81548152906001019060200180831161039457829003601f168201915b5050505050610b7d565b9050806000015163ffffffff168863ffffffff16036103e8578060200151935080604001519250506103fc565b5080806103f49061248b565b9150506102f0565b508181945094505050509250929050565b6000610417610c3d565b90508073ffffffffffffffffffffffffffffffffffffffff1663a9059cbb84846040518363ffffffff1660e01b8152600401610454929190612532565b6020604051808303816000875af1158015610473573d6000803e3d6000fd5b505050506040513d601f19601f820116820180604052508101906104979190612593565b6104da5782826040517f7ab2f9770000000000000000000000000000000000000000000000000000000081526004016104d1929190612532565b60405180910390fd5b505050565b6000806104f56008546393d0707260e01b610c67565b90506105416040518060400160405280600681526020017f6d61726b657400000000000000000000000000000000000000000000000000008152508683610c979092919063ffffffff16565b61058b6040518060400160405280600881526020017f6c656167756549640000000000000000000000000000000000000000000000008152508583610c979092919063ffffffff16565b6105d56040518060400160405280600481526020017f64617465000000000000000000000000000000000000000000000000000000008152508483610c979092919063ffffffff16565b60006105e382600754610cca565b9050600981908060018154018082558091505060019003906000526020600020016000909190919091505580925050509392505050565b606060006006600084815260200190815260200160002080549050905060008167ffffffffffffffff81111561065357610652611a7c565b5b60405190808252806020026020018201604052801561068c57816020015b6106796118ab565b8152602001906001900390816106715790505b50905060005b8281101561078b5761075a6006600087815260200190815260200160002082815481106106c2576106c16123cd565b5b9060005260206000200180546106d79061242b565b80601f01602080910402602001604051908101604052809291908181526020018280546107039061242b565b80156107505780601f1061072557610100808354040283529160200191610750565b820191906000526020600020905b81548152906001019060200180831161073357829003601f168201915b5050505050610d01565b82828151811061076d5761076c6123cd565b5b602002602001018190525080806107839061248b565b915050610692565b508092505050919050565b816005600082815260200190815260200160002060009054906101000a900473ffffffffffffffffffffffffffffffffffffffff1673ffffffffffffffffffffffffffffffffffffffff163373ffffffffffffffffffffffffffffffffffffffff1614610838576040517f08c379a000000000000000000000000000000000000000000000000000000000815260040161082f90612643565b60405180910390fd5b6005600082815260200190815260200160002060006101000a81549073ffffffffffffffffffffffffffffffffffffffff0219169055807f7cc135e0cebb02c3480ae5d74d377283180a2601f8f644edf7987b009316c63a60405160405180910390a2816006600085815260200190815260200160002090805190602001906108c2929190611852565b50505050565b60008061098b6006600086815260200190815260200160002084815481106108f3576108f26123cd565b5b9060005260206000200180546109089061242b565b80601f01602080910402602001604051908101604052809291908181526020018280546109349061242b565b80156109815780601f1061095657610100808354040283529160200191610981565b820191906000526020600020905b81548152906001019060200180831161096457829003601f168201915b5050505050610d01565b9050806000015191505092915050565b60006109a5610dde565b905090565b6109b8836007548484610e08565b505050565b6109c56118e0565b610a856006600085815260200190815260200160002083815481106109ed576109ec6123cd565b5b906000526020600020018054610a029061242b565b80601f0160208091040260200160405190810160405280929190818152602001828054610a2e9061242b565b8015610a7b5780601f10610a5057610100808354040283529160200191610a7b565b820191906000526020600020905b815481529060010190602001808311610a5e57829003601f168201915b5050505050610b7d565b905092915050565b610a956118ab565b610b55600660008581526020019081526020016000208381548110610abd57610abc6123cd565b5b906000526020600020018054610ad29061242b565b80601f0160208091040260200160405190810160405280929190818152602001828054610afe9061242b565b8015610b4b5780601f10610b2057610100808354040283529160200191610b4b565b820191906000526020600020905b815481529060010190602001808311610b2e57829003601f168201915b5050505050610d01565b905092915050565b600060066000838152602001908152602001600020805490509050919050565b610b856118e0565b6000610b946000600485610f1b565b610b9d906126a0565b60e01c9050600083600481518110610bb857610bb76123cd565b5b602001015160f81c60f81b60f81c9050600084600581518110610bde57610bdd6123cd565b5b602001015160f81c60f81b60f81c90506000610bfd6006875188610f1b565b9050600060405180608001604052808663ffffffff1681526020018560ff1681526020018460ff1681526020018381525090508095505050505050919050565b6000600260009054906101000a900473ffffffffffffffffffffffffffffffffffffffff16905090565b610c6f611914565b610c77611914565b610c8e84308584611017909392919063ffffffff16565b91505092915050565b610cae8284608001516110c790919063ffffffff16565b610cc58184608001516110ec90919063ffffffff16565b505050565b6000610cf9600360009054906101000a900473ffffffffffffffffffffffffffffffffffffffff16848461111c565b905092915050565b610d096118ab565b6000610d186000600485610f1b565b610d21906126a0565b60e01c90506000610d356004600986610f1b565b610d3e90612748565b60d81c9050600084600981518110610d5957610d586123cd565b5b602001015160f81c60f81b60f81c9050600081600a610d7891906127af565b60ff1690506000610d8b600a8389610f1b565b90506000610d9b8389518a610f1b565b9050600060405180608001604052808863ffffffff1681526020018764ffffffffff16815260200184815260200183815250905080975050505050505050919050565b6000600360009054906101000a900473ffffffffffffffffffffffffffffffffffffffff16905090565b60006005600086815260200190815260200160002060009054906101000a900473ffffffffffffffffffffffffffffffffffffffff1690506005600086815260200190815260200160002060006101000a81549073ffffffffffffffffffffffffffffffffffffffff0219169055847fe1fe3afa0f7f761ff0a8b89086790efd5140d2907ebd5b7ff6bfcb5e075fd4c560405160405180910390a28073ffffffffffffffffffffffffffffffffffffffff16636ee4d553868686866040518563ffffffff1660e01b8152600401610ee294939291906127f5565b600060405180830381600087803b158015610efc57600080fd5b505af1158015610f10573d6000803e3d6000fd5b505050505050505050565b606060008484610f2b919061283a565b67ffffffffffffffff811115610f4457610f43611a7c565b5b6040519080825280601f01601f191660200182016040528015610f765781602001600182028036833780820191505090505b50905060005b8585610f88919061283a565b81101561100b57838187610f9c919061286e565b81518110610fad57610fac6123cd565b5b602001015160f81c60f81b828281518110610fcb57610fca6123cd565b5b60200101907effffffffffffffffffffffffffffffffffffffffffffffffffffffffffffff1916908160001a905350806110049061248b565b9050610f7c565b50809150509392505050565b61101f611914565b61102f85608001516101006111e6565b508385600001818152505082856020019073ffffffffffffffffffffffffffffffffffffffff16908173ffffffffffffffffffffffffffffffffffffffff16815250508185604001907bffffffffffffffffffffffffffffffffffffffffffffffffffffffff191690817bffffffffffffffffffffffffffffffffffffffffffffffffffffffff191681525050849050949350505050565b6110d48260038351611250565b6110e781836113d590919063ffffffff16565b505050565b67ffffffffffffffff81111561110b5761110682826113f7565b611118565b61111782600083611250565b5b5050565b6000806004549050600181611131919061286e565b6004819055506000633c6d41b960e01b600080876000015188604001518660028b6080015160000151604051602401611170979695949392919061290e565b604051602081830303815290604052907bffffffffffffffffffffffffffffffffffffffffffffffffffffffff19166020820180517bffffffffffffffffffffffffffffffffffffffffffffffffffffffff838183161783525050505090506111db86838684611443565b925050509392505050565b6111ee611981565b60006020836111fd91906129b3565b146112295760208261120f91906129b3565b602061121b919061283a565b82611226919061286e565b91505b81836020018181525050604051808452600081528281016020016040525082905092915050565b60178167ffffffffffffffff1611611287576112818160058460ff16901b60ff1617846115d890919063ffffffff16565b506113d0565b60ff8167ffffffffffffffff16116112dd576112b6601860058460ff16901b17846115d890919063ffffffff16565b506112d78167ffffffffffffffff166001856115f89092919063ffffffff16565b506113cf565b61ffff8167ffffffffffffffff16116113345761130d601960058460ff16901b17846115d890919063ffffffff16565b5061132e8167ffffffffffffffff166002856115f89092919063ffffffff16565b506113ce565b63ffffffff8167ffffffffffffffff161161138d57611366601a60058460ff16901b17846115d890919063ffffffff16565b506113878167ffffffffffffffff166004856115f89092919063ffffffff16565b506113cd565b6113aa601b60058460ff16901b17846115d890919063ffffffff16565b506113cb8167ffffffffffffffff166008856115f89092919063ffffffff16565b505b5b5b5b505050565b6113dd611981565b6113ef8384600001515184855161161a565b905092915050565b61141560026005600660ff16901b17836115d890919063ffffffff16565b5061143f828260405160200161142b91906123b2565b604051602081830303815290604052611709565b5050565b60003084604051602001611458929190612a5f565b604051602081830303815290604052805190602001209050846005600083815260200190815260200160002060006101000a81548173ffffffffffffffffffffffffffffffffffffffff021916908373ffffffffffffffffffffffffffffffffffffffff160217905550807fb5e6e01e79f91267dc17b4e6314d5d4d03593d2ceee0fbb452b750bd70ea5af960405160405180910390a2600260009054906101000a900473ffffffffffffffffffffffffffffffffffffffff1673ffffffffffffffffffffffffffffffffffffffff16634000aea08685856040518463ffffffff1660e01b815260040161154e93929190612a8b565b6020604051808303816000875af115801561156d573d6000803e3d6000fd5b505050506040513d601f19601f820116820180604052508101906115919190612593565b6115d0576040517f08c379a00000000000000000000000000000000000000000000000000000000081526004016115c790612b3b565b60405180910390fd5b949350505050565b6115e0611981565b6115f0838460000151518461172e565b905092915050565b611600611981565b611611848560000151518585611784565b90509392505050565b611622611981565b825182111561163057600080fd5b84602001518285611641919061286e565b11156116765761167585600261166688602001518887611661919061286e565b611812565b6116709190612b5b565b61182e565b5b6000808651805187602083010193508088870111156116955787860182525b60208701925050505b602084106116dc57805182526020826116b7919061286e565b91506020816116c6919061286e565b90506020846116d5919061283a565b935061169e565b60006001856020036101000a03905080198251168184511681811785525050508692505050949350505050565b6117168260028351611250565b61172981836113d590919063ffffffff16565b505050565b611736611981565b8360200151831061175c5761175b84600286602001516117569190612b5b565b61182e565b5b83518051602085830101848153818603611777576001820183525b5050508390509392505050565b61178c611981565b8460200151848361179d919061286e565b11156117c5576117c485600286856117b5919061286e565b6117bf9190612b5b565b61182e565b5b60006001836101006117d79190612ce8565b6117e1919061283a565b905085518386820101858319825116178152815185880111156118045784870182525b505085915050949350505050565b60008183111561182457829050611828565b8190505b92915050565b60008260000151905061184183836111e6565b5061184c83826113d5565b50505050565b82805482825590600052602060002090810192821561189a579160200282015b828111156118995782518290816118899190612ec8565b5091602001919060010190611872565b5b5090506118a7919061199b565b5090565b6040518060800160405280600063ffffffff168152602001600064ffffffffff16815260200160608152602001606081525090565b6040518060800160405280600063ffffffff168152602001600060ff168152602001600060ff168152602001606081525090565b6040518060a0016040528060008019168152602001600073ffffffffffffffffffffffffffffffffffffffff16815260200160007bffffffffffffffffffffffffffffffffffffffffffffffffffffffff191681526020016000815260200161197b611981565b81525090565b604051806040016040528060608152602001600081525090565b5b808211156119bb57600081816119b291906119bf565b5060010161199c565b5090565b5080546119cb9061242b565b6000825580601f106119dd57506119fc565b601f0160209004906000526020600020908101906119fb91906119ff565b5b50565b5b80821115611a18576000816000905550600101611a00565b5090565b6000604051905090565b600080fd5b600080fd5b6000819050919050565b611a4381611a30565b8114611a4e57600080fd5b50565b600081359050611a6081611a3a565b92915050565b600080fd5b6000601f19601f8301169050919050565b7f4e487b7100000000000000000000000000000000000000000000000000000000600052604160045260246000fd5b611ab482611a6b565b810181811067ffffffffffffffff82111715611ad357611ad2611a7c565b5b80604052505050565b6000611ae6611a1c565b9050611af28282611aab565b919050565b600067ffffffffffffffff821115611b1257611b11611a7c565b5b602082029050602081019050919050565b600080fd5b600080fd5b600067ffffffffffffffff821115611b4857611b47611a7c565b5b611b5182611a6b565b9050602081019050919050565b82818337600083830152505050565b6000611b80611b7b84611b2d565b611adc565b905082815260208101848484011115611b9c57611b9b611b28565b5b611ba7848285611b5e565b509392505050565b600082601f830112611bc457611bc3611a66565b5b8135611bd4848260208601611b6d565b91505092915050565b6000611bf0611beb84611af7565b611adc565b90508083825260208201905060208402830185811115611c1357611c12611b23565b5b835b81811015611c5a57803567ffffffffffffffff811115611c3857611c37611a66565b5b808601611c458982611baf565b85526020850194505050602081019050611c15565b5050509392505050565b600082601f830112611c7957611c78611a66565b5b8135611c89848260208601611bdd565b91505092915050565b60008060408385031215611ca957611ca8611a26565b5b6000611cb785828601611a51565b925050602083013567ffffffffffffffff811115611cd857611cd7611a2b565b5b611ce485828601611c64565b9150509250929050565b600063ffffffff82169050919050565b611d0781611cee565b8114611d1257600080fd5b50565b600081359050611d2481611cfe565b92915050565b60008060408385031215611d4157611d40611a26565b5b6000611d4f85828601611a51565b9250506020611d6085828601611d15565b9150509250929050565b600060ff82169050919050565b611d8081611d6a565b82525050565b6000604082019050611d9b6000830185611d77565b611da86020830184611d77565b9392505050565b600073ffffffffffffffffffffffffffffffffffffffff82169050919050565b6000611dda82611daf565b9050919050565b611dea81611dcf565b8114611df557600080fd5b50565b600081359050611e0781611de1565b92915050565b6000819050919050565b611e2081611e0d565b8114611e2b57600080fd5b50565b600081359050611e3d81611e17565b92915050565b60008060408385031215611e5a57611e59611a26565b5b6000611e6885828601611df8565b9250506020611e7985828601611e2e565b9150509250929050565b600080600060608486031215611e9c57611e9b611a26565b5b6000611eaa86828701611e2e565b9350506020611ebb86828701611e2e565b9250506040611ecc86828701611e2e565b9150509250925092565b611edf81611a30565b82525050565b6000602082019050611efa6000830184611ed6565b92915050565b600060208284031215611f1657611f15611a26565b5b6000611f2484828501611a51565b91505092915050565b600081519050919050565b600082825260208201905092915050565b6000819050602082019050919050565b611f6281611cee565b82525050565b600064ffffffffff82169050919050565b611f8281611f68565b82525050565b600081519050919050565b600082825260208201905092915050565b60005b83811015611fc2578082015181840152602081019050611fa7565b83811115611fd1576000848401525b50505050565b6000611fe282611f88565b611fec8185611f93565b9350611ffc818560208601611fa4565b61200581611a6b565b840191505092915050565b60006080830160008301516120286000860182611f59565b50602083015161203b6020860182611f79565b50604083015184820360408601526120538282611fd7565b9150506060830151848203606086015261206d8282611fd7565b9150508091505092915050565b60006120868383612010565b905092915050565b6000602082019050919050565b60006120a682611f2d565b6120b08185611f38565b9350836020820285016120c285611f49565b8060005b858110156120fe57848403895281516120df858261207a565b94506120ea8361208e565b925060208a019950506001810190506120c6565b50829750879550505050505092915050565b6000602082019050818103600083015261212a818461209b565b905092915050565b6000806040838503121561214957612148611a26565b5b600061215785828601611a51565b925050602061216885828601611e2e565b9150509250929050565b61217b81611cee565b82525050565b60006020820190506121966000830184612172565b92915050565b60006121a782611daf565b9050919050565b6121b78161219c565b82525050565b60006020820190506121d260008301846121ae565b92915050565b60007fffffffff0000000000000000000000000000000000000000000000000000000082169050919050565b61220d816121d8565b811461221857600080fd5b50565b60008135905061222a81612204565b92915050565b60008060006060848603121561224957612248611a26565b5b600061225786828701611a51565b93505060206122688682870161221b565b925050604061227986828701611e2e565b9150509250925092565b61228c81611d6a565b82525050565b60006080830160008301516122aa6000860182611f59565b5060208301516122bd6020860182612283565b5060408301516122d06040860182612283565b50606083015184820360608601526122e88282611fd7565b9150508091505092915050565b6000602082019050818103600083015261230f8184612292565b905092915050565b600060808301600083015161232f6000860182611f59565b5060208301516123426020860182611f79565b506040830151848203604086015261235a8282611fd7565b915050606083015184820360608601526123748282611fd7565b9150508091505092915050565b6000602082019050818103600083015261239b8184612317565b905092915050565b6123ac81611e0d565b82525050565b60006020820190506123c760008301846123a3565b92915050565b7f4e487b7100000000000000000000000000000000000000000000000000000000600052603260045260246000fd5b7f4e487b7100000000000000000000000000000000000000000000000000000000600052602260045260246000fd5b6000600282049050600182168061244357607f821691505b602082108103612456576124556123fc565b5b50919050565b7f4e487b7100000000000000000000000000000000000000000000000000000000600052601160045260246000fd5b600061249682611e0d565b91507fffffffffffffffffffffffffffffffffffffffffffffffffffffffffffffffff82036124c8576124c761245c565b5b600182019050919050565b6000819050919050565b60006124f86124f36124ee84611daf565b6124d3565b611daf565b9050919050565b600061250a826124dd565b9050919050565b600061251c826124ff565b9050919050565b61252c81612511565b82525050565b60006040820190506125476000830185612523565b61255460208301846123a3565b9392505050565b60008115159050919050565b6125708161255b565b811461257b57600080fd5b50565b60008151905061258d81612567565b92915050565b6000602082840312156125a9576125a8611a26565b5b60006125b78482850161257e565b91505092915050565b600082825260208201905092915050565b7f536f75726365206d75737420626520746865206f7261636c65206f662074686560008201527f2072657175657374000000000000000000000000000000000000000000000000602082015250565b600061262d6028836125c0565b9150612638826125d1565b604082019050919050565b6000602082019050818103600083015261265c81612620565b9050919050565b600081519050919050565b6000819050602082019050919050565b600061268a82516121d8565b80915050919050565b600082821b905092915050565b60006126ab82612663565b826126b58461266e565b90506126c08161267e565b92506004821015612700576126fb7fffffffff0000000000000000000000000000000000000000000000000000000083600403600802612693565b831692505b5050919050565b60007fffffffffff00000000000000000000000000000000000000000000000000000082169050919050565b600061273f8251612707565b80915050919050565b600061275382612663565b8261275d8461266e565b905061276881612733565b925060058210156127a8576127a37fffffffffff00000000000000000000000000000000000000000000000000000083600503600802612693565b831692505b5050919050565b60006127ba82611d6a565b91506127c583611d6a565b92508260ff038211156127db576127da61245c565b5b828201905092915050565b6127ef816121d8565b82525050565b600060808201905061280a6000830187611ed6565b61281760208301866123a3565b61282460408301856127e6565b61283160608301846123a3565b95945050505050565b600061284582611e0d565b915061285083611e0d565b9250828210156128635761286261245c565b5b828203905092915050565b600061287982611e0d565b915061288483611e0d565b9250827fffffffffffffffffffffffffffffffffffffffffffffffffffffffffffffffff038211156128b9576128b861245c565b5b828201905092915050565b600082825260208201905092915050565b60006128e082612663565b6128ea81856128c4565b93506128fa818560208601611fa4565b61290381611a6b565b840191505092915050565b600060e082019050612923600083018a6121ae565b61293060208301896123a3565b61293d6040830188611ed6565b61294a60608301876127e6565b61295760808301866123a3565b61296460a08301856123a3565b81810360c083015261297681846128d5565b905098975050505050505050565b7f4e487b7100000000000000000000000000000000000000000000000000000000600052601260045260246000fd5b60006129be82611e0d565b91506129c983611e0d565b9250826129d9576129d8612984565b5b828206905092915050565b60006129ef826124ff565b9050919050565b60008160601b9050919050565b6000612a0e826129f6565b9050919050565b6000612a2082612a03565b9050919050565b612a38612a33826129e4565b612a15565b82525050565b6000819050919050565b612a59612a5482611e0d565b612a3e565b82525050565b6000612a6b8285612a27565b601482019150612a7b8284612a48565b6020820191508190509392505050565b6000606082019050612aa060008301866121ae565b612aad60208301856123a3565b8181036040830152612abf81846128d5565b9050949350505050565b7f756e61626c6520746f207472616e73666572416e6443616c6c20746f206f726160008201527f636c650000000000000000000000000000000000000000000000000000000000602082015250565b6000612b256023836125c0565b9150612b3082612ac9565b604082019050919050565b60006020820190508181036000830152612b5481612b18565b9050919050565b6000612b6682611e0d565b9150612b7183611e0d565b9250817fffffffffffffffffffffffffffffffffffffffffffffffffffffffffffffffff0483118215151615612baa57612ba961245c565b5b828202905092915050565b60008160011c9050919050565b6000808291508390505b6001851115612c0c57808604811115612be857612be761245c565b5b6001851615612bf75780820291505b8081029050612c0585612bb5565b9450612bcc565b94509492505050565b600082612c255760019050612ce1565b81612c335760009050612ce1565b8160018114612c495760028114612c5357612c82565b6001915050612ce1565b60ff841115612c6557612c6461245c565b5b8360020a915084821115612c7c57612c7b61245c565b5b50612ce1565b5060208310610133831016604e8410600b8410161715612cb75782820a905083811115612cb257612cb161245c565b5b612ce1565b612cc48484846001612bc2565b92509050818404811115612cdb57612cda61245c565b5b81810290505b9392505050565b6000612cf382611e0d565b9150612cfe83611e0d565b9250612d2b7fffffffffffffffffffffffffffffffffffffffffffffffffffffffffffffffff8484612c15565b905092915050565b60008190508160005260206000209050919050565b60006020601f8301049050919050565b600060088302612d887fffffffffffffffffffffffffffffffffffffffffffffffffffffffffffffffff82612693565b612d928683612693565b95508019841693508086168417925050509392505050565b6000612dc5612dc0612dbb84611e0d565b6124d3565b611e0d565b9050919050565b6000819050919050565b612ddf83612daa565b612df3612deb82612dcc565b848454612d58565b825550505050565b600090565b612e08612dfb565b612e13818484612dd6565b505050565b5b81811015612e3757612e2c600082612e00565b600181019050612e19565b5050565b601f821115612e7c57612e4d81612d33565b612e5684612d48565b81016020851015612e65578190505b612e79612e7185612d48565b830182612e18565b50505b505050565b600082821c905092915050565b6000612e9f60001984600802612e81565b1980831691505092915050565b6000612eb88383612e8e565b9150826002028217905092915050565b612ed182612663565b67ffffffffffffffff811115612eea57612ee9611a7c565b5b612ef4825461242b565b612eff828285612e3b565b600060209050601f831160018114612f325760008415612f20578287015190505b612f2a8582612eac565b865550612f92565b601f198416612f4086612d33565b60005b82811015612f6857848901518255600182019150602085019450602081019050612f43565b86831015612f855784890151612f81601f891682612e8e565b8355505b6001600288020188555050505b50505050505056fea26469706673582212200f43de4a266df0bff73fe68dd8530850bea146a3a2821dee911ea0351293028364736f6c634300080f0033",
  "linkReferences": {},
  "deployedLinkReferences": {}
}