{
  "_format": "hh-sol-artifact-1",
  "contractName": "IpEnetScore",
  "sourceName": "contracts/IpEnetScore.sol",
  "abi": [
    {
      "inputs": [],
      "stateMutability": "nonpayable",
      "type": "constructor"
    },
    {
      "inputs": [
        {
          "internalType": "address",
          "name": "to",
          "type": "address"
        },
        {
          "internalType": "uint256",
          "name": "amount",
          "type": "uint256"
        }
      ],
      "name": "FailedTransferLINK",
      "type": "error"
    },
    {
      "anonymous": false,
      "inputs": [
        {
          "indexed": true,
          "internalType": "bytes32",
          "name": "id",
          "type": "bytes32"
        }
      ],
      "name": "ChainlinkCancelled",
      "type": "event"
    },
    {
      "anonymous": false,
      "inputs": [
        {
          "indexed": true,
          "internalType": "bytes32",
          "name": "id",
          "type": "bytes32"
        }
      ],
      "name": "ChainlinkFulfilled",
      "type": "event"
    },
    {
      "anonymous": false,
      "inputs": [
        {
          "indexed": true,
          "internalType": "bytes32",
          "name": "id",
          "type": "bytes32"
        }
      ],
      "name": "ChainlinkRequested",
      "type": "event"
    },
    {
      "inputs": [],
      "name": "_getOracleAddress",
      "outputs": [
        {
          "internalType": "address",
          "name": "",
          "type": "address"
        }
      ],
      "stateMutability": "view",
      "type": "function"
    },
    {
      "inputs": [
        {
          "internalType": "bytes32",
          "name": "_requestId",
          "type": "bytes32"
        },
        {
          "internalType": "bytes4",
          "name": "_callbackFunctionId",
          "type": "bytes4"
        },
        {
          "internalType": "uint256",
          "name": "_expiration",
          "type": "uint256"
        }
      ],
      "name": "cancelRequest",
      "outputs": [],
      "stateMutability": "nonpayable",
      "type": "function"
    },
    {
      "inputs": [
        {
          "internalType": "bytes32",
          "name": "_requestId",
          "type": "bytes32"
        },
        {
          "internalType": "bytes[]",
          "name": "_result",
          "type": "bytes[]"
        }
      ],
      "name": "fulfillSchedule",
      "outputs": [],
      "stateMutability": "nonpayable",
      "type": "function"
    },
    {
      "inputs": [
        {
          "internalType": "bytes32",
          "name": "_requestId",
          "type": "bytes32"
        },
        {
          "internalType": "uint256",
          "name": "_idx",
          "type": "uint256"
        }
      ],
      "name": "getGameCreate",
      "outputs": [
        {
          "components": [
            {
              "internalType": "uint32",
              "name": "gameId",
              "type": "uint32"
            },
            {
              "internalType": "uint40",
              "name": "startTime",
              "type": "uint40"
            },
            {
              "internalType": "string",
              "name": "homeTeam",
              "type": "string"
            },
            {
              "internalType": "string",
              "name": "awayTeam",
              "type": "string"
            }
          ],
          "internalType": "struct IpEnetScore.GameCreate",
          "name": "",
          "type": "tuple"
        }
      ],
      "stateMutability": "view",
      "type": "function"
    },
    {
      "inputs": [
        {
          "internalType": "bytes32",
          "name": "_requestId",
          "type": "bytes32"
        },
        {
          "internalType": "uint256",
          "name": "_idx",
          "type": "uint256"
        }
      ],
      "name": "getGameIdPerRequestIndex",
      "outputs": [
        {
          "internalType": "uint32",
          "name": "",
          "type": "uint32"
        }
      ],
      "stateMutability": "view",
      "type": "function"
    },
    {
      "inputs": [
        {
          "internalType": "bytes32",
          "name": "_requestId",
          "type": "bytes32"
        }
      ],
      "name": "getGameInfoPerRequestId",
      "outputs": [
        {
          "components": [
            {
              "internalType": "uint32",
              "name": "gameId",
              "type": "uint32"
            },
            {
              "internalType": "uint40",
              "name": "startTime",
              "type": "uint40"
            },
            {
              "internalType": "string",
              "name": "homeTeam",
              "type": "string"
            },
            {
              "internalType": "string",
              "name": "awayTeam",
              "type": "string"
            }
          ],
          "internalType": "struct IpEnetScore.GameCreate[]",
          "name": "",
          "type": "tuple[]"
        }
      ],
      "stateMutability": "view",
      "type": "function"
    },
    {
      "inputs": [
        {
          "internalType": "bytes32",
          "name": "_requestId",
          "type": "bytes32"
        },
        {
          "internalType": "uint256",
          "name": "_idx",
          "type": "uint256"
        }
      ],
      "name": "getGameResolve",
      "outputs": [
        {
          "components": [
            {
              "internalType": "uint32",
              "name": "gameId",
              "type": "uint32"
            },
            {
              "internalType": "uint8",
              "name": "homeScore",
              "type": "uint8"
            },
            {
              "internalType": "uint8",
              "name": "awayScore",
              "type": "uint8"
            },
            {
              "internalType": "string",
              "name": "status",
              "type": "string"
            }
          ],
          "internalType": "struct IpEnetScore.GameResolve",
          "name": "",
          "type": "tuple"
        }
      ],
      "stateMutability": "view",
      "type": "function"
    },
    {
      "inputs": [
        {
          "internalType": "bytes32",
          "name": "_requestId",
          "type": "bytes32"
        }
      ],
      "name": "getNumberOfGamesPerRequest",
      "outputs": [
        {
          "internalType": "uint256",
          "name": "",
          "type": "uint256"
        }
      ],
      "stateMutability": "view",
      "type": "function"
    },
    {
      "inputs": [
        {
          "internalType": "bytes32",
          "name": "_requestId",
          "type": "bytes32"
        },
        {
          "internalType": "uint32",
          "name": "_gameId",
          "type": "uint32"
        }
      ],
      "name": "getScoresPerGameIdPerRequest",
      "outputs": [
        {
          "internalType": "uint8",
          "name": "",
          "type": "uint8"
        },
        {
          "internalType": "uint8",
          "name": "",
          "type": "uint8"
        }
      ],
      "stateMutability": "view",
      "type": "function"
    },
    {
      "inputs": [
        {
          "internalType": "uint256",
          "name": "_market",
          "type": "uint256"
        },
        {
          "internalType": "uint256",
          "name": "_leagueId",
          "type": "uint256"
        },
        {
          "internalType": "uint256",
          "name": "_date",
          "type": "uint256"
        }
      ],
      "name": "requestSchedule",
      "outputs": [
        {
          "internalType": "bytes32",
          "name": "",
          "type": "bytes32"
        }
      ],
      "stateMutability": "nonpayable",
      "type": "function"
    },
    {
      "inputs": [
        {
          "internalType": "bytes32",
          "name": "_requestId",
          "type": "bytes32"
        },
        {
          "internalType": "bytes[]",
          "name": "_games",
          "type": "bytes[]"
        }
      ],
      "name": "setRequestIdGames",
      "outputs": [],
      "stateMutability": "nonpayable",
      "type": "function"
    },
    {
      "inputs": [
        {
          "internalType": "address payable",
          "name": "_payee",
          "type": "address"
        },
        {
          "internalType": "uint256",
          "name": "_amount",
          "type": "uint256"
        }
      ],
      "name": "withdrawLink",
      "outputs": [],
      "stateMutability": "nonpayable",
      "type": "function"
    }
  ],
  "bytecode": "0x608060405260016004553480156200001657600080fd5b506200003c73326c977e6efc84e512bb9c30f76e30c160ed06fb620000a060201b60201c565b6200006173b9756312523826a566e222a34793e414a81c88e1620000e460201b60201c565b7f643131306235633462383364343264636132306534313061633533376364393460001b60088190555067016345785d8a000060078190555062000128565b80600260006101000a81548173ffffffffffffffffffffffffffffffffffffffff021916908373ffffffffffffffffffffffffffffffffffffffff16021790555050565b80600360006101000a81548173ffffffffffffffffffffffffffffffffffffffff021916908373ffffffffffffffffffffffffffffffffffffffff16021790555050565b612fcf80620001386000396000f3fe608060405234801561001057600080fd5b50600436106100b45760003560e01c8063ab2fb9a911610071578063ab2fb9a91461019e578063b075f532146101ce578063ca4f2afc146101ec578063de00d10714610208578063e3c046a714610238578063f02e41a314610268576100b4565b8063303a712f146100b95780633910b2c2146100d557806354b7faae14610106578063580c2f5414610122578063828a3dc71461015257806393d0707214610182575b600080fd5b6100d360048036038101906100ce9190611c91565b610298565b005b6100ef60048036038101906100ea9190611d29565b6102c4565b6040516100fd929190611d85565b60405180910390f35b610120600480360381019061011b9190611e42565b61040c565b005b61013c60048036038101906101379190611e82565b6104de565b6040516101499190611ee4565b60405180910390f35b61016c60048036038101906101679190611eff565b610619565b604051610179919061210f565b60405180910390f35b61019c60048036038101906101979190611c91565b610795565b005b6101b860048036038101906101b39190612131565b6108c7565b6040516101c59190612180565b60405180910390f35b6101d661099a565b6040516101e391906121bc565b60405180910390f35b6102066004803603810190610201919061222f565b6109a9565b005b610222600480360381019061021d9190612131565b6109bc565b60405161022f91906122f4565b60405180910390f35b610252600480360381019061024d9190612131565b610a8c565b60405161025f9190612380565b60405180910390f35b610282600480360381019061027d9190611eff565b610b5c565b60405161028f91906123b1565b60405180910390f35b806006600084815260200190815260200160002090805190602001906102bf929190611851565b505050565b600080600060066000868152602001908152602001600020805490509050600060ff9050600080600090505b838110156103fb5760006103ba600660008b81526020019081526020016000208381548110610322576103216123cc565b5b9060005260206000200180546103379061242a565b80601f01602080910402602001604051908101604052809291908181526020018280546103639061242a565b80156103b05780601f10610385576101008083540402835291602001916103b0565b820191906000526020600020905b81548152906001019060200180831161039357829003601f168201915b5050505050610b7c565b9050806000015163ffffffff168863ffffffff16036103e7578060200151935080604001519250506103fb565b5080806103f39061248a565b9150506102f0565b508181945094505050509250929050565b6000610416610c3c565b90508073ffffffffffffffffffffffffffffffffffffffff1663a9059cbb84846040518363ffffffff1660e01b8152600401610453929190612531565b6020604051808303816000875af1158015610472573d6000803e3d6000fd5b505050506040513d601f19601f820116820180604052508101906104969190612592565b6104d95782826040517f7ab2f9770000000000000000000000000000000000000000000000000000000081526004016104d0929190612531565b60405180910390fd5b505050565b6000806104f46008546393d0707260e01b610c66565b90506105406040518060400160405280600681526020017f6d61726b657400000000000000000000000000000000000000000000000000008152508683610c969092919063ffffffff16565b61058a6040518060400160405280600881526020017f6c656167756549640000000000000000000000000000000000000000000000008152508583610c969092919063ffffffff16565b6105d46040518060400160405280600481526020017f64617465000000000000000000000000000000000000000000000000000000008152508483610c969092919063ffffffff16565b60006105e282600754610cc9565b9050600981908060018154018082558091505060019003906000526020600020016000909190919091505580925050509392505050565b606060006006600084815260200190815260200160002080549050905060008167ffffffffffffffff81111561065257610651611a7b565b5b60405190808252806020026020018201604052801561068b57816020015b6106786118aa565b8152602001906001900390816106705790505b50905060005b8281101561078a576107596006600087815260200190815260200160002082815481106106c1576106c06123cc565b5b9060005260206000200180546106d69061242a565b80601f01602080910402602001604051908101604052809291908181526020018280546107029061242a565b801561074f5780601f106107245761010080835404028352916020019161074f565b820191906000526020600020905b81548152906001019060200180831161073257829003601f168201915b5050505050610d00565b82828151811061076c5761076b6123cc565b5b602002602001018190525080806107829061248a565b915050610691565b508092505050919050565b816005600082815260200190815260200160002060009054906101000a900473ffffffffffffffffffffffffffffffffffffffff1673ffffffffffffffffffffffffffffffffffffffff163373ffffffffffffffffffffffffffffffffffffffff1614610837576040517f08c379a000000000000000000000000000000000000000000000000000000000815260040161082e90612642565b60405180910390fd5b6005600082815260200190815260200160002060006101000a81549073ffffffffffffffffffffffffffffffffffffffff0219169055807f7cc135e0cebb02c3480ae5d74d377283180a2601f8f644edf7987b009316c63a60405160405180910390a2816006600085815260200190815260200160002090805190602001906108c1929190611851565b50505050565b60008061098a6006600086815260200190815260200160002084815481106108f2576108f16123cc565b5b9060005260206000200180546109079061242a565b80601f01602080910402602001604051908101604052809291908181526020018280546109339061242a565b80156109805780601f1061095557610100808354040283529160200191610980565b820191906000526020600020905b81548152906001019060200180831161096357829003601f168201915b5050505050610d00565b9050806000015191505092915050565b60006109a4610ddd565b905090565b6109b7836007548484610e07565b505050565b6109c46118df565b610a846006600085815260200190815260200160002083815481106109ec576109eb6123cc565b5b906000526020600020018054610a019061242a565b80601f0160208091040260200160405190810160405280929190818152602001828054610a2d9061242a565b8015610a7a5780601f10610a4f57610100808354040283529160200191610a7a565b820191906000526020600020905b815481529060010190602001808311610a5d57829003601f168201915b5050505050610b7c565b905092915050565b610a946118aa565b610b54600660008581526020019081526020016000208381548110610abc57610abb6123cc565b5b906000526020600020018054610ad19061242a565b80601f0160208091040260200160405190810160405280929190818152602001828054610afd9061242a565b8015610b4a5780601f10610b1f57610100808354040283529160200191610b4a565b820191906000526020600020905b815481529060010190602001808311610b2d57829003601f168201915b5050505050610d00565b905092915050565b600060066000838152602001908152602001600020805490509050919050565b610b846118df565b6000610b936000600485610f1a565b610b9c9061269f565b60e01c9050600083600481518110610bb757610bb66123cc565b5b602001015160f81c60f81b60f81c9050600084600581518110610bdd57610bdc6123cc565b5b602001015160f81c60f81b60f81c90506000610bfc6006875188610f1a565b9050600060405180608001604052808663ffffffff1681526020018560ff1681526020018460ff1681526020018381525090508095505050505050919050565b6000600260009054906101000a900473ffffffffffffffffffffffffffffffffffffffff16905090565b610c6e611913565b610c76611913565b610c8d84308584611016909392919063ffffffff16565b91505092915050565b610cad8284608001516110c690919063ffffffff16565b610cc48184608001516110eb90919063ffffffff16565b505050565b6000610cf8600360009054906101000a900473ffffffffffffffffffffffffffffffffffffffff16848461111b565b905092915050565b610d086118aa565b6000610d176000600485610f1a565b610d209061269f565b60e01c90506000610d346004600986610f1a565b610d3d90612747565b60d81c9050600084600981518110610d5857610d576123cc565b5b602001015160f81c60f81b60f81c9050600081600a610d7791906127ae565b60ff1690506000610d8a600a8389610f1a565b90506000610d9a8389518a610f1a565b9050600060405180608001604052808863ffffffff1681526020018764ffffffffff16815260200184815260200183815250905080975050505050505050919050565b6000600360009054906101000a900473ffffffffffffffffffffffffffffffffffffffff16905090565b60006005600086815260200190815260200160002060009054906101000a900473ffffffffffffffffffffffffffffffffffffffff1690506005600086815260200190815260200160002060006101000a81549073ffffffffffffffffffffffffffffffffffffffff0219169055847fe1fe3afa0f7f761ff0a8b89086790efd5140d2907ebd5b7ff6bfcb5e075fd4c560405160405180910390a28073ffffffffffffffffffffffffffffffffffffffff16636ee4d553868686866040518563ffffffff1660e01b8152600401610ee194939291906127f4565b600060405180830381600087803b158015610efb57600080fd5b505af1158015610f0f573d6000803e3d6000fd5b505050505050505050565b606060008484610f2a9190612839565b67ffffffffffffffff811115610f4357610f42611a7b565b5b6040519080825280601f01601f191660200182016040528015610f755781602001600182028036833780820191505090505b50905060005b8585610f879190612839565b81101561100a57838187610f9b919061286d565b81518110610fac57610fab6123cc565b5b602001015160f81c60f81b828281518110610fca57610fc96123cc565b5b60200101907effffffffffffffffffffffffffffffffffffffffffffffffffffffffffffff1916908160001a905350806110039061248a565b9050610f7b565b50809150509392505050565b61101e611913565b61102e85608001516101006111e5565b508385600001818152505082856020019073ffffffffffffffffffffffffffffffffffffffff16908173ffffffffffffffffffffffffffffffffffffffff16815250508185604001907bffffffffffffffffffffffffffffffffffffffffffffffffffffffff191690817bffffffffffffffffffffffffffffffffffffffffffffffffffffffff191681525050849050949350505050565b6110d3826003835161124f565b6110e681836113d490919063ffffffff16565b505050565b67ffffffffffffffff81111561110a5761110582826113f6565b611117565b6111168260008361124f565b5b5050565b6000806004549050600181611130919061286d565b6004819055506000633c6d41b960e01b600080876000015188604001518660028b608001516000015160405160240161116f979695949392919061290d565b604051602081830303815290604052907bffffffffffffffffffffffffffffffffffffffffffffffffffffffff19166020820180517bffffffffffffffffffffffffffffffffffffffffffffffffffffffff838183161783525050505090506111da86838684611442565b925050509392505050565b6111ed611980565b60006020836111fc91906129b2565b146112285760208261120e91906129b2565b602061121a9190612839565b82611225919061286d565b91505b81836020018181525050604051808452600081528281016020016040525082905092915050565b60178167ffffffffffffffff1611611286576112808160058460ff16901b60ff1617846115d790919063ffffffff16565b506113cf565b60ff8167ffffffffffffffff16116112dc576112b5601860058460ff16901b17846115d790919063ffffffff16565b506112d68167ffffffffffffffff166001856115f79092919063ffffffff16565b506113ce565b61ffff8167ffffffffffffffff16116113335761130c601960058460ff16901b17846115d790919063ffffffff16565b5061132d8167ffffffffffffffff166002856115f79092919063ffffffff16565b506113cd565b63ffffffff8167ffffffffffffffff161161138c57611365601a60058460ff16901b17846115d790919063ffffffff16565b506113868167ffffffffffffffff166004856115f79092919063ffffffff16565b506113cc565b6113a9601b60058460ff16901b17846115d790919063ffffffff16565b506113ca8167ffffffffffffffff166008856115f79092919063ffffffff16565b505b5b5b5b505050565b6113dc611980565b6113ee83846000015151848551611619565b905092915050565b61141460026005600660ff16901b17836115d790919063ffffffff16565b5061143e828260405160200161142a91906123b1565b604051602081830303815290604052611708565b5050565b60003084604051602001611457929190612a5e565b604051602081830303815290604052805190602001209050846005600083815260200190815260200160002060006101000a81548173ffffffffffffffffffffffffffffffffffffffff021916908373ffffffffffffffffffffffffffffffffffffffff160217905550807fb5e6e01e79f91267dc17b4e6314d5d4d03593d2ceee0fbb452b750bd70ea5af960405160405180910390a2600260009054906101000a900473ffffffffffffffffffffffffffffffffffffffff1673ffffffffffffffffffffffffffffffffffffffff16634000aea08685856040518463ffffffff1660e01b815260040161154d93929190612a8a565b6020604051808303816000875af115801561156c573d6000803e3d6000fd5b505050506040513d601f19601f820116820180604052508101906115909190612592565b6115cf576040517f08c379a00000000000000000000000000000000000000000000000000000000081526004016115c690612b3a565b60405180910390fd5b949350505050565b6115df611980565b6115ef838460000151518461172d565b905092915050565b6115ff611980565b611610848560000151518585611783565b90509392505050565b611621611980565b825182111561162f57600080fd5b84602001518285611640919061286d565b11156116755761167485600261166588602001518887611660919061286d565b611811565b61166f9190612b5a565b61182d565b5b6000808651805187602083010193508088870111156116945787860182525b60208701925050505b602084106116db57805182526020826116b6919061286d565b91506020816116c5919061286d565b90506020846116d49190612839565b935061169d565b60006001856020036101000a03905080198251168184511681811785525050508692505050949350505050565b611715826002835161124f565b61172881836113d490919063ffffffff16565b505050565b611735611980565b8360200151831061175b5761175a84600286602001516117559190612b5a565b61182d565b5b83518051602085830101848153818603611776576001820183525b5050508390509392505050565b61178b611980565b8460200151848361179c919061286d565b11156117c4576117c385600286856117b4919061286d565b6117be9190612b5a565b61182d565b5b60006001836101006117d69190612ce7565b6117e09190612839565b905085518386820101858319825116178152815185880111156118035784870182525b505085915050949350505050565b60008183111561182357829050611827565b8190505b92915050565b60008260000151905061184083836111e5565b5061184b83826113d4565b50505050565b828054828255906000526020600020908101928215611899579160200282015b828111156118985782518290816118889190612ec7565b5091602001919060010190611871565b5b5090506118a6919061199a565b5090565b6040518060800160405280600063ffffffff168152602001600064ffffffffff16815260200160608152602001606081525090565b6040518060800160405280600063ffffffff168152602001600060ff168152602001600060ff168152602001606081525090565b6040518060a0016040528060008019168152602001600073ffffffffffffffffffffffffffffffffffffffff16815260200160007bffffffffffffffffffffffffffffffffffffffffffffffffffffffff191681526020016000815260200161197a611980565b81525090565b604051806040016040528060608152602001600081525090565b5b808211156119ba57600081816119b191906119be565b5060010161199b565b5090565b5080546119ca9061242a565b6000825580601f106119dc57506119fb565b601f0160209004906000526020600020908101906119fa91906119fe565b5b50565b5b80821115611a175760008160009055506001016119ff565b5090565b6000604051905090565b600080fd5b600080fd5b6000819050919050565b611a4281611a2f565b8114611a4d57600080fd5b50565b600081359050611a5f81611a39565b92915050565b600080fd5b6000601f19601f8301169050919050565b7f4e487b7100000000000000000000000000000000000000000000000000000000600052604160045260246000fd5b611ab382611a6a565b810181811067ffffffffffffffff82111715611ad257611ad1611a7b565b5b80604052505050565b6000611ae5611a1b565b9050611af18282611aaa565b919050565b600067ffffffffffffffff821115611b1157611b10611a7b565b5b602082029050602081019050919050565b600080fd5b600080fd5b600067ffffffffffffffff821115611b4757611b46611a7b565b5b611b5082611a6a565b9050602081019050919050565b82818337600083830152505050565b6000611b7f611b7a84611b2c565b611adb565b905082815260208101848484011115611b9b57611b9a611b27565b5b611ba6848285611b5d565b509392505050565b600082601f830112611bc357611bc2611a65565b5b8135611bd3848260208601611b6c565b91505092915050565b6000611bef611bea84611af6565b611adb565b90508083825260208201905060208402830185811115611c1257611c11611b22565b5b835b81811015611c5957803567ffffffffffffffff811115611c3757611c36611a65565b5b808601611c448982611bae565b85526020850194505050602081019050611c14565b5050509392505050565b600082601f830112611c7857611c77611a65565b5b8135611c88848260208601611bdc565b91505092915050565b60008060408385031215611ca857611ca7611a25565b5b6000611cb685828601611a50565b925050602083013567ffffffffffffffff811115611cd757611cd6611a2a565b5b611ce385828601611c63565b9150509250929050565b600063ffffffff82169050919050565b611d0681611ced565b8114611d1157600080fd5b50565b600081359050611d2381611cfd565b92915050565b60008060408385031215611d4057611d3f611a25565b5b6000611d4e85828601611a50565b9250506020611d5f85828601611d14565b9150509250929050565b600060ff82169050919050565b611d7f81611d69565b82525050565b6000604082019050611d9a6000830185611d76565b611da76020830184611d76565b9392505050565b600073ffffffffffffffffffffffffffffffffffffffff82169050919050565b6000611dd982611dae565b9050919050565b611de981611dce565b8114611df457600080fd5b50565b600081359050611e0681611de0565b92915050565b6000819050919050565b611e1f81611e0c565b8114611e2a57600080fd5b50565b600081359050611e3c81611e16565b92915050565b60008060408385031215611e5957611e58611a25565b5b6000611e6785828601611df7565b9250506020611e7885828601611e2d565b9150509250929050565b600080600060608486031215611e9b57611e9a611a25565b5b6000611ea986828701611e2d565b9350506020611eba86828701611e2d565b9250506040611ecb86828701611e2d565b9150509250925092565b611ede81611a2f565b82525050565b6000602082019050611ef96000830184611ed5565b92915050565b600060208284031215611f1557611f14611a25565b5b6000611f2384828501611a50565b91505092915050565b600081519050919050565b600082825260208201905092915050565b6000819050602082019050919050565b611f6181611ced565b82525050565b600064ffffffffff82169050919050565b611f8181611f67565b82525050565b600081519050919050565b600082825260208201905092915050565b60005b83811015611fc1578082015181840152602081019050611fa6565b83811115611fd0576000848401525b50505050565b6000611fe182611f87565b611feb8185611f92565b9350611ffb818560208601611fa3565b61200481611a6a565b840191505092915050565b60006080830160008301516120276000860182611f58565b50602083015161203a6020860182611f78565b50604083015184820360408601526120528282611fd6565b9150506060830151848203606086015261206c8282611fd6565b9150508091505092915050565b6000612085838361200f565b905092915050565b6000602082019050919050565b60006120a582611f2c565b6120af8185611f37565b9350836020820285016120c185611f48565b8060005b858110156120fd57848403895281516120de8582612079565b94506120e98361208d565b925060208a019950506001810190506120c5565b50829750879550505050505092915050565b60006020820190508181036000830152612129818461209a565b905092915050565b6000806040838503121561214857612147611a25565b5b600061215685828601611a50565b925050602061216785828601611e2d565b9150509250929050565b61217a81611ced565b82525050565b60006020820190506121956000830184612171565b92915050565b60006121a682611dae565b9050919050565b6121b68161219b565b82525050565b60006020820190506121d160008301846121ad565b92915050565b60007fffffffff0000000000000000000000000000000000000000000000000000000082169050919050565b61220c816121d7565b811461221757600080fd5b50565b60008135905061222981612203565b92915050565b60008060006060848603121561224857612247611a25565b5b600061225686828701611a50565b93505060206122678682870161221a565b925050604061227886828701611e2d565b9150509250925092565b61228b81611d69565b82525050565b60006080830160008301516122a96000860182611f58565b5060208301516122bc6020860182612282565b5060408301516122cf6040860182612282565b50606083015184820360608601526122e78282611fd6565b9150508091505092915050565b6000602082019050818103600083015261230e8184612291565b905092915050565b600060808301600083015161232e6000860182611f58565b5060208301516123416020860182611f78565b50604083015184820360408601526123598282611fd6565b915050606083015184820360608601526123738282611fd6565b9150508091505092915050565b6000602082019050818103600083015261239a8184612316565b905092915050565b6123ab81611e0c565b82525050565b60006020820190506123c660008301846123a2565b92915050565b7f4e487b7100000000000000000000000000000000000000000000000000000000600052603260045260246000fd5b7f4e487b7100000000000000000000000000000000000000000000000000000000600052602260045260246000fd5b6000600282049050600182168061244257607f821691505b602082108103612455576124546123fb565b5b50919050565b7f4e487b7100000000000000000000000000000000000000000000000000000000600052601160045260246000fd5b600061249582611e0c565b91507fffffffffffffffffffffffffffffffffffffffffffffffffffffffffffffffff82036124c7576124c661245b565b5b600182019050919050565b6000819050919050565b60006124f76124f26124ed84611dae565b6124d2565b611dae565b9050919050565b6000612509826124dc565b9050919050565b600061251b826124fe565b9050919050565b61252b81612510565b82525050565b60006040820190506125466000830185612522565b61255360208301846123a2565b9392505050565b60008115159050919050565b61256f8161255a565b811461257a57600080fd5b50565b60008151905061258c81612566565b92915050565b6000602082840312156125a8576125a7611a25565b5b60006125b68482850161257d565b91505092915050565b600082825260208201905092915050565b7f536f75726365206d75737420626520746865206f7261636c65206f662074686560008201527f2072657175657374000000000000000000000000000000000000000000000000602082015250565b600061262c6028836125bf565b9150612637826125d0565b604082019050919050565b6000602082019050818103600083015261265b8161261f565b9050919050565b600081519050919050565b6000819050602082019050919050565b600061268982516121d7565b80915050919050565b600082821b905092915050565b60006126aa82612662565b826126b48461266d565b90506126bf8161267d565b925060048210156126ff576126fa7fffffffff0000000000000000000000000000000000000000000000000000000083600403600802612692565b831692505b5050919050565b60007fffffffffff00000000000000000000000000000000000000000000000000000082169050919050565b600061273e8251612706565b80915050919050565b600061275282612662565b8261275c8461266d565b905061276781612732565b925060058210156127a7576127a27fffffffffff00000000000000000000000000000000000000000000000000000083600503600802612692565b831692505b5050919050565b60006127b982611d69565b91506127c483611d69565b92508260ff038211156127da576127d961245b565b5b828201905092915050565b6127ee816121d7565b82525050565b60006080820190506128096000830187611ed5565b61281660208301866123a2565b61282360408301856127e5565b61283060608301846123a2565b95945050505050565b600061284482611e0c565b915061284f83611e0c565b9250828210156128625761286161245b565b5b828203905092915050565b600061287882611e0c565b915061288383611e0c565b9250827fffffffffffffffffffffffffffffffffffffffffffffffffffffffffffffffff038211156128b8576128b761245b565b5b828201905092915050565b600082825260208201905092915050565b60006128df82612662565b6128e981856128c3565b93506128f9818560208601611fa3565b61290281611a6a565b840191505092915050565b600060e082019050612922600083018a6121ad565b61292f60208301896123a2565b61293c6040830188611ed5565b61294960608301876127e5565b61295660808301866123a2565b61296360a08301856123a2565b81810360c083015261297581846128d4565b905098975050505050505050565b7f4e487b7100000000000000000000000000000000000000000000000000000000600052601260045260246000fd5b60006129bd82611e0c565b91506129c883611e0c565b9250826129d8576129d7612983565b5b828206905092915050565b60006129ee826124fe565b9050919050565b60008160601b9050919050565b6000612a0d826129f5565b9050919050565b6000612a1f82612a02565b9050919050565b612a37612a32826129e3565b612a14565b82525050565b6000819050919050565b612a58612a5382611e0c565b612a3d565b82525050565b6000612a6a8285612a26565b601482019150612a7a8284612a47565b6020820191508190509392505050565b6000606082019050612a9f60008301866121ad565b612aac60208301856123a2565b8181036040830152612abe81846128d4565b9050949350505050565b7f756e61626c6520746f207472616e73666572416e6443616c6c20746f206f726160008201527f636c650000000000000000000000000000000000000000000000000000000000602082015250565b6000612b246023836125bf565b9150612b2f82612ac8565b604082019050919050565b60006020820190508181036000830152612b5381612b17565b9050919050565b6000612b6582611e0c565b9150612b7083611e0c565b9250817fffffffffffffffffffffffffffffffffffffffffffffffffffffffffffffffff0483118215151615612ba957612ba861245b565b5b828202905092915050565b60008160011c9050919050565b6000808291508390505b6001851115612c0b57808604811115612be757612be661245b565b5b6001851615612bf65780820291505b8081029050612c0485612bb4565b9450612bcb565b94509492505050565b600082612c245760019050612ce0565b81612c325760009050612ce0565b8160018114612c485760028114612c5257612c81565b6001915050612ce0565b60ff841115612c6457612c6361245b565b5b8360020a915084821115612c7b57612c7a61245b565b5b50612ce0565b5060208310610133831016604e8410600b8410161715612cb65782820a905083811115612cb157612cb061245b565b5b612ce0565b612cc38484846001612bc1565b92509050818404811115612cda57612cd961245b565b5b81810290505b9392505050565b6000612cf282611e0c565b9150612cfd83611e0c565b9250612d2a7fffffffffffffffffffffffffffffffffffffffffffffffffffffffffffffffff8484612c14565b905092915050565b60008190508160005260206000209050919050565b60006020601f8301049050919050565b600060088302612d877fffffffffffffffffffffffffffffffffffffffffffffffffffffffffffffffff82612692565b612d918683612692565b95508019841693508086168417925050509392505050565b6000612dc4612dbf612dba84611e0c565b6124d2565b611e0c565b9050919050565b6000819050919050565b612dde83612da9565b612df2612dea82612dcb565b848454612d57565b825550505050565b600090565b612e07612dfa565b612e12818484612dd5565b505050565b5b81811015612e3657612e2b600082612dff565b600181019050612e18565b5050565b601f821115612e7b57612e4c81612d32565b612e5584612d47565b81016020851015612e64578190505b612e78612e7085612d47565b830182612e17565b50505b505050565b600082821c905092915050565b6000612e9e60001984600802612e80565b1980831691505092915050565b6000612eb78383612e8d565b9150826002028217905092915050565b612ed082612662565b67ffffffffffffffff811115612ee957612ee8611a7b565b5b612ef3825461242a565b612efe828285612e3a565b600060209050601f831160018114612f315760008415612f1f578287015190505b612f298582612eab565b865550612f91565b601f198416612f3f86612d32565b60005b82811015612f6757848901518255600182019150602085019450602081019050612f42565b86831015612f845784890151612f80601f891682612e8d565b8355505b6001600288020188555050505b50505050505056fea264697066735822122084ee001b11ce8b55268d640517d478d3d96ee5656e125a68d2f92b775bfdac0d64736f6c634300080f0033",
  "linkReferences": {},
  "deployedLinkReferences": {}
}