{
  "_format": "hh-sol-artifact-1",
  "contractName": "IpPool",
  "sourceName": "contracts/IpPool.sol",
  "abi": [
    {
      "inputs": [],
      "stateMutability": "nonpayable",
      "type": "constructor"
    },
    {
      "anonymous": false,
      "inputs": [
        {
          "indexed": true,
          "internalType": "address",
          "name": "previousOwner",
          "type": "address"
        },
        {
          "indexed": true,
          "internalType": "address",
          "name": "newOwner",
          "type": "address"
        }
      ],
      "name": "OwnershipTransferred",
      "type": "event"
    },
    {
      "anonymous": false,
      "inputs": [
        {
          "indexed": false,
          "internalType": "address",
          "name": "account",
          "type": "address"
        }
      ],
      "name": "Paused",
      "type": "event"
    },
    {
      "anonymous": false,
      "inputs": [
        {
          "indexed": false,
          "internalType": "address",
          "name": "account",
          "type": "address"
        }
      ],
      "name": "Unpaused",
      "type": "event"
    },
    {
      "inputs": [
        {
          "internalType": "uint256",
          "name": "_amount",
          "type": "uint256"
        }
      ],
      "name": "depositOnAave",
      "outputs": [],
      "stateMutability": "nonpayable",
      "type": "function"
    },
    {
      "inputs": [],
      "name": "getGlobalPrizePool",
      "outputs": [
        {
          "internalType": "uint256",
          "name": "",
          "type": "uint256"
        }
      ],
      "stateMutability": "view",
      "type": "function"
    },
    {
      "inputs": [],
      "name": "owner",
      "outputs": [
        {
          "internalType": "address",
          "name": "",
          "type": "address"
        }
      ],
      "stateMutability": "view",
      "type": "function"
    },
    {
      "inputs": [],
      "name": "pause",
      "outputs": [],
      "stateMutability": "nonpayable",
      "type": "function"
    },
    {
      "inputs": [],
      "name": "paused",
      "outputs": [
        {
          "internalType": "bool",
          "name": "",
          "type": "bool"
        }
      ],
      "stateMutability": "view",
      "type": "function"
    },
    {
      "inputs": [],
      "name": "renounceOwnership",
      "outputs": [],
      "stateMutability": "nonpayable",
      "type": "function"
    },
    {
      "inputs": [
        {
          "internalType": "address",
          "name": "newOwner",
          "type": "address"
        }
      ],
      "name": "transferOwnership",
      "outputs": [],
      "stateMutability": "nonpayable",
      "type": "function"
    },
    {
      "inputs": [],
      "name": "unpause",
      "outputs": [],
      "stateMutability": "nonpayable",
      "type": "function"
    }
  ],
  "bytecode": "0x608060405234801561001057600080fd5b5061002d6100226101a060201b60201c565b6101a860201b60201c565b60008060146101000a81548160ff02191690831515021790555073a2025b15a1757311bfd68cb14eaefcc237af5b43600360006101000a81548173ffffffffffffffffffffffffffffffffffffffff021916908373ffffffffffffffffffffffffffffffffffffffff16021790555073368eedf3f56ad10b9bc57eed4dac65b26bb667f6600660006101000a81548173ffffffffffffffffffffffffffffffffffffffff021916908373ffffffffffffffffffffffffffffffffffffffff160217905550731ee669290939f8a8864497af3bc83728715265ff600460006101000a81548173ffffffffffffffffffffffffffffffffffffffff021916908373ffffffffffffffffffffffffffffffffffffffff160217905550733cb49b846f13c89dee256e90a3e8830f6a6fa9d1600560006101000a81548173ffffffffffffffffffffffffffffffffffffffff021916908373ffffffffffffffffffffffffffffffffffffffff16021790555061026c565b600033905090565b60008060009054906101000a900473ffffffffffffffffffffffffffffffffffffffff169050816000806101000a81548173ffffffffffffffffffffffffffffffffffffffff021916908373ffffffffffffffffffffffffffffffffffffffff1602179055508173ffffffffffffffffffffffffffffffffffffffff168173ffffffffffffffffffffffffffffffffffffffff167f8be0079c531659141344cd1fd0a4f28419497f9722a3daafe3b4186f6b6457e060405160405180910390a35050565b61135d8061027b6000396000f3fe608060405234801561001057600080fd5b50600436106100885760003560e01c80638da5cb5b1161005b5780638da5cb5b146100c9578063b4ace158146100e7578063f2fde38b14610105578063fd8d19091461012157610088565b80633f4ba83a1461008d5780635c975abb14610097578063715018a6146100b55780638456cb59146100bf575b600080fd5b61009561013d565b005b61009f61014f565b6040516100ac9190610b6a565b60405180910390f35b6100bd610165565b005b6100c7610179565b005b6100d161018b565b6040516100de9190610bc6565b60405180910390f35b6100ef6101b4565b6040516100fc9190610bfa565b60405180910390f35b61011f600480360381019061011a9190610c46565b610317565b005b61013b60048036038101906101369190610c9f565b61039a565b005b6101456108ad565b61014d61092b565b565b60008060149054906101000a900460ff16905090565b61016d6108ad565b610177600061098d565b565b6101816108ad565b610189610a51565b565b60008060009054906101000a900473ffffffffffffffffffffffffffffffffffffffff16905090565b600080600460009054906101000a900473ffffffffffffffffffffffffffffffffffffffff1673ffffffffffffffffffffffffffffffffffffffff166370a08231306040518263ffffffff1660e01b81526004016102129190610bc6565b602060405180830381865afa15801561022f573d6000803e3d6000fd5b505050506040513d601f19601f820116820180604052508101906102539190610ce1565b90506000620f42406032600560009054906101000a900473ffffffffffffffffffffffffffffffffffffffff1673ffffffffffffffffffffffffffffffffffffffff166318160ddd6040518163ffffffff1660e01b8152600401602060405180830381865afa1580156102ca573d6000803e3d6000fd5b505050506040513d601f19601f820116820180604052508101906102ee9190610ce1565b6102f89190610d3d565b6103029190610d3d565b905080826103109190610d97565b9250505090565b61031f6108ad565b600073ffffffffffffffffffffffffffffffffffffffff168173ffffffffffffffffffffffffffffffffffffffff160361038e576040517f08c379a000000000000000000000000000000000000000000000000000000000815260040161038590610e4e565b60405180910390fd5b6103978161098d565b50565b60006032826103a99190610e9d565b146103e9576040517f08c379a00000000000000000000000000000000000000000000000000000000081526004016103e090610f40565b60405180910390fd5b600360009054906101000a900473ffffffffffffffffffffffffffffffffffffffff1673ffffffffffffffffffffffffffffffffffffffff166370a08231336040518263ffffffff1660e01b81526004016104449190610bc6565b602060405180830381865afa158015610461573d6000803e3d6000fd5b505050506040513d601f19601f820116820180604052508101906104859190610ce1565b620f4240826104949190610d3d565b11156104d5576040517f08c379a00000000000000000000000000000000000000000000000000000000081526004016104cc90610fac565b60405180910390fd5b600360009054906101000a900473ffffffffffffffffffffffffffffffffffffffff1673ffffffffffffffffffffffffffffffffffffffff1663dd62ed3e33306040518363ffffffff1660e01b8152600401610532929190610fcc565b602060405180830381865afa15801561054f573d6000803e3d6000fd5b505050506040513d601f19601f820116820180604052508101906105739190610ce1565b620f4240826105829190610d3d565b11156105c3576040517f08c379a00000000000000000000000000000000000000000000000000000000081526004016105ba90611041565b60405180910390fd5b60006032826105d29190611061565b9050600360009054906101000a900473ffffffffffffffffffffffffffffffffffffffff1673ffffffffffffffffffffffffffffffffffffffff166323b872dd3330620f4240866106239190610d3d565b6040518463ffffffff1660e01b815260040161064193929190611092565b6020604051808303816000875af1158015610660573d6000803e3d6000fd5b505050506040513d601f19601f8201168201806040525081019061068491906110f5565b50600360009054906101000a900473ffffffffffffffffffffffffffffffffffffffff1673ffffffffffffffffffffffffffffffffffffffff1663095ea7b3600660009054906101000a900473ffffffffffffffffffffffffffffffffffffffff16620f4240856106f59190610d3d565b6040518363ffffffff1660e01b8152600401610712929190611122565b6020604051808303816000875af1158015610731573d6000803e3d6000fd5b505050506040513d601f19601f8201168201806040525081019061075591906110f5565b50600660009054906101000a900473ffffffffffffffffffffffffffffffffffffffff1673ffffffffffffffffffffffffffffffffffffffff1663617ba037600360009054906101000a900473ffffffffffffffffffffffffffffffffffffffff16620f4240856107c69190610d3d565b3060006040518563ffffffff1660e01b81526004016107e8949392919061119e565b600060405180830381600087803b15801561080257600080fd5b505af1158015610816573d6000803e3d6000fd5b50505050600560009054906101000a900473ffffffffffffffffffffffffffffffffffffffff1673ffffffffffffffffffffffffffffffffffffffff166340c10f1933836040518363ffffffff1660e01b8152600401610877929190611122565b600060405180830381600087803b15801561089157600080fd5b505af11580156108a5573d6000803e3d6000fd5b505050505050565b6108b5610ab4565b73ffffffffffffffffffffffffffffffffffffffff166108d361018b565b73ffffffffffffffffffffffffffffffffffffffff1614610929576040517f08c379a00000000000000000000000000000000000000000000000000000000081526004016109209061122f565b60405180910390fd5b565b610933610abc565b60008060146101000a81548160ff0219169083151502179055507f5db9ee0a495bf2e6ff9c91a7834c1ba4fdd244a5e8aa4e537bd38aeae4b073aa610976610ab4565b6040516109839190610bc6565b60405180910390a1565b60008060009054906101000a900473ffffffffffffffffffffffffffffffffffffffff169050816000806101000a81548173ffffffffffffffffffffffffffffffffffffffff021916908373ffffffffffffffffffffffffffffffffffffffff1602179055508173ffffffffffffffffffffffffffffffffffffffff168173ffffffffffffffffffffffffffffffffffffffff167f8be0079c531659141344cd1fd0a4f28419497f9722a3daafe3b4186f6b6457e060405160405180910390a35050565b610a59610b05565b6001600060146101000a81548160ff0219169083151502179055507f62e78cea01bee320cd4e420270b5ea74000d11b0c9f74754ebdbfc544b05a258610a9d610ab4565b604051610aaa9190610bc6565b60405180910390a1565b600033905090565b610ac461014f565b610b03576040517f08c379a0000000000000000000000000000000000000000000000000000000008152600401610afa9061129b565b60405180910390fd5b565b610b0d61014f565b15610b4d576040517f08c379a0000000000000000000000000000000000000000000000000000000008152600401610b4490611307565b60405180910390fd5b565b60008115159050919050565b610b6481610b4f565b82525050565b6000602082019050610b7f6000830184610b5b565b92915050565b600073ffffffffffffffffffffffffffffffffffffffff82169050919050565b6000610bb082610b85565b9050919050565b610bc081610ba5565b82525050565b6000602082019050610bdb6000830184610bb7565b92915050565b6000819050919050565b610bf481610be1565b82525050565b6000602082019050610c0f6000830184610beb565b92915050565b600080fd5b610c2381610ba5565b8114610c2e57600080fd5b50565b600081359050610c4081610c1a565b92915050565b600060208284031215610c5c57610c5b610c15565b5b6000610c6a84828501610c31565b91505092915050565b610c7c81610be1565b8114610c8757600080fd5b50565b600081359050610c9981610c73565b92915050565b600060208284031215610cb557610cb4610c15565b5b6000610cc384828501610c8a565b91505092915050565b600081519050610cdb81610c73565b92915050565b600060208284031215610cf757610cf6610c15565b5b6000610d0584828501610ccc565b91505092915050565b7f4e487b7100000000000000000000000000000000000000000000000000000000600052601160045260246000fd5b6000610d4882610be1565b9150610d5383610be1565b9250817fffffffffffffffffffffffffffffffffffffffffffffffffffffffffffffffff0483118215151615610d8c57610d8b610d0e565b5b828202905092915050565b6000610da282610be1565b9150610dad83610be1565b925082821015610dc057610dbf610d0e565b5b828203905092915050565b600082825260208201905092915050565b7f4f776e61626c653a206e6577206f776e657220697320746865207a65726f206160008201527f6464726573730000000000000000000000000000000000000000000000000000602082015250565b6000610e38602683610dcb565b9150610e4382610ddc565b604082019050919050565b60006020820190508181036000830152610e6781610e2b565b9050919050565b7f4e487b7100000000000000000000000000000000000000000000000000000000600052601260045260246000fd5b6000610ea882610be1565b9150610eb383610be1565b925082610ec357610ec2610e6e565b5b828206905092915050565b7f54686520616d6f756e74206d7573742062652061206d756c7469706c65206f6660008201527f2035300000000000000000000000000000000000000000000000000000000000602082015250565b6000610f2a602383610dcb565b9150610f3582610ece565b604082019050919050565b60006020820190508181036000830152610f5981610f1d565b9050919050565b7f496e737566666963656e7420616d6f756e74206f662055534443000000000000600082015250565b6000610f96601a83610dcb565b9150610fa182610f60565b602082019050919050565b60006020820190508181036000830152610fc581610f89565b9050919050565b6000604082019050610fe16000830185610bb7565b610fee6020830184610bb7565b9392505050565b7f496e73756666696369656e7420616c6c6f776564205553444300000000000000600082015250565b600061102b601983610dcb565b915061103682610ff5565b602082019050919050565b6000602082019050818103600083015261105a8161101e565b9050919050565b600061106c82610be1565b915061107783610be1565b92508261108757611086610e6e565b5b828204905092915050565b60006060820190506110a76000830186610bb7565b6110b46020830185610bb7565b6110c16040830184610beb565b949350505050565b6110d281610b4f565b81146110dd57600080fd5b50565b6000815190506110ef816110c9565b92915050565b60006020828403121561110b5761110a610c15565b5b6000611119848285016110e0565b91505092915050565b60006040820190506111376000830185610bb7565b6111446020830184610beb565b9392505050565b6000819050919050565b600061ffff82169050919050565b6000819050919050565b600061118861118361117e8461114b565b611163565b611155565b9050919050565b6111988161116d565b82525050565b60006080820190506111b36000830187610bb7565b6111c06020830186610beb565b6111cd6040830185610bb7565b6111da606083018461118f565b95945050505050565b7f4f776e61626c653a2063616c6c6572206973206e6f7420746865206f776e6572600082015250565b6000611219602083610dcb565b9150611224826111e3565b602082019050919050565b600060208201905081810360008301526112488161120c565b9050919050565b7f5061757361626c653a206e6f7420706175736564000000000000000000000000600082015250565b6000611285601483610dcb565b91506112908261124f565b602082019050919050565b600060208201905081810360008301526112b481611278565b9050919050565b7f5061757361626c653a2070617573656400000000000000000000000000000000600082015250565b60006112f1601083610dcb565b91506112fc826112bb565b602082019050919050565b60006020820190508181036000830152611320816112e4565b905091905056fea2646970667358221220012a82d165f4d0d5033ae83557d57f8972e9698485657a54bb71ca43b58b72d364736f6c634300080f0033",
  "linkReferences": {},
  "deployedLinkReferences": {}
}