{
  "_format": "hh-sol-artifact-1",
  "contractName": "IpPool",
  "sourceName": "contracts/IpPool.sol",
  "abi": [
    {
      "inputs": [],
      "stateMutability": "nonpayable",
      "type": "constructor"
    },
    {
      "anonymous": false,
      "inputs": [
        {
          "indexed": true,
          "internalType": "address",
          "name": "previousOwner",
          "type": "address"
        },
        {
          "indexed": true,
          "internalType": "address",
          "name": "newOwner",
          "type": "address"
        }
      ],
      "name": "OwnershipTransferred",
      "type": "event"
    },
    {
      "anonymous": false,
      "inputs": [
        {
          "indexed": false,
          "internalType": "address",
          "name": "account",
          "type": "address"
        }
      ],
      "name": "Paused",
      "type": "event"
    },
    {
      "anonymous": false,
      "inputs": [
        {
          "indexed": false,
          "internalType": "address",
          "name": "account",
          "type": "address"
        }
      ],
      "name": "Unpaused",
      "type": "event"
    },
    {
      "inputs": [],
      "name": "claimFromInterpool",
      "outputs": [],
      "stateMutability": "nonpayable",
      "type": "function"
    },
    {
      "inputs": [
        {
          "internalType": "uint256",
          "name": "_amount",
          "type": "uint256"
        }
      ],
      "name": "depositOnAave",
      "outputs": [],
      "stateMutability": "nonpayable",
      "type": "function"
    },
    {
      "inputs": [],
      "name": "getGlobalPrizePool",
      "outputs": [
        {
          "internalType": "uint256",
          "name": "",
          "type": "uint256"
        }
      ],
      "stateMutability": "view",
      "type": "function"
    },
    {
      "inputs": [
        {
          "internalType": "address",
          "name": "_player",
          "type": "address"
        }
      ],
      "name": "getWinningsPerPlayer",
      "outputs": [
        {
          "components": [
            {
              "internalType": "uint256",
              "name": "pendingWinnings",
              "type": "uint256"
            },
            {
              "internalType": "uint256",
              "name": "claimedWinnings",
              "type": "uint256"
            }
          ],
          "internalType": "struct IpPool.Winnings",
          "name": "",
          "type": "tuple"
        }
      ],
      "stateMutability": "view",
      "type": "function"
    },
    {
      "inputs": [],
      "name": "globalPendingWinnings",
      "outputs": [
        {
          "internalType": "uint256",
          "name": "",
          "type": "uint256"
        }
      ],
      "stateMutability": "view",
      "type": "function"
    },
    {
      "inputs": [],
      "name": "owner",
      "outputs": [
        {
          "internalType": "address",
          "name": "",
          "type": "address"
        }
      ],
      "stateMutability": "view",
      "type": "function"
    },
    {
      "inputs": [],
      "name": "pause",
      "outputs": [],
      "stateMutability": "nonpayable",
      "type": "function"
    },
    {
      "inputs": [],
      "name": "paused",
      "outputs": [
        {
          "internalType": "bool",
          "name": "",
          "type": "bool"
        }
      ],
      "stateMutability": "view",
      "type": "function"
    },
    {
      "inputs": [],
      "name": "renounceOwnership",
      "outputs": [],
      "stateMutability": "nonpayable",
      "type": "function"
    },
    {
      "inputs": [
        {
          "internalType": "address",
          "name": "newOwner",
          "type": "address"
        }
      ],
      "name": "transferOwnership",
      "outputs": [],
      "stateMutability": "nonpayable",
      "type": "function"
    },
    {
      "inputs": [],
      "name": "unpause",
      "outputs": [],
      "stateMutability": "nonpayable",
      "type": "function"
    },
    {
      "inputs": [
        {
          "internalType": "address",
          "name": "",
          "type": "address"
        }
      ],
      "name": "winningsPerPlayer",
      "outputs": [
        {
          "internalType": "uint256",
          "name": "pendingWinnings",
          "type": "uint256"
        },
        {
          "internalType": "uint256",
          "name": "claimedWinnings",
          "type": "uint256"
        }
      ],
      "stateMutability": "view",
      "type": "function"
    },
    {
      "inputs": [
        {
          "internalType": "uint256",
          "name": "_nbTickets",
          "type": "uint256"
        }
      ],
      "name": "witdrawFromInterpool",
      "outputs": [],
      "stateMutability": "nonpayable",
      "type": "function"
    }
  ],
  "bytecode": "0x608060405234801561001057600080fd5b5061002d6100226101a060201b60201c565b6101a860201b60201c565b60008060146101000a81548160ff02191690831515021790555073a2025b15a1757311bfd68cb14eaefcc237af5b43600360006101000a81548173ffffffffffffffffffffffffffffffffffffffff021916908373ffffffffffffffffffffffffffffffffffffffff16021790555073368eedf3f56ad10b9bc57eed4dac65b26bb667f6600660006101000a81548173ffffffffffffffffffffffffffffffffffffffff021916908373ffffffffffffffffffffffffffffffffffffffff160217905550731ee669290939f8a8864497af3bc83728715265ff600460006101000a81548173ffffffffffffffffffffffffffffffffffffffff021916908373ffffffffffffffffffffffffffffffffffffffff160217905550733cb49b846f13c89dee256e90a3e8830f6a6fa9d1600560006101000a81548173ffffffffffffffffffffffffffffffffffffffff021916908373ffffffffffffffffffffffffffffffffffffffff16021790555061026c565b600033905090565b60008060009054906101000a900473ffffffffffffffffffffffffffffffffffffffff169050816000806101000a81548173ffffffffffffffffffffffffffffffffffffffff021916908373ffffffffffffffffffffffffffffffffffffffff1602179055508173ffffffffffffffffffffffffffffffffffffffff168173ffffffffffffffffffffffffffffffffffffffff167f8be0079c531659141344cd1fd0a4f28419497f9722a3daafe3b4186f6b6457e060405160405180910390a35050565b611b758061027b6000396000f3fe608060405234801561001057600080fd5b50600436106100cf5760003560e01c8063715018a61161008c5780638da5cb5b116100665780638da5cb5b146101b5578063b4ace158146101d3578063f2fde38b146101f1578063fd8d19091461020d576100cf565b8063715018a6146101715780638456cb591461017b5780638ad2e86414610185576100cf565b806315ccbe53146100d457806315d9006a146101055780633f4ba83a14610121578063419441751461012b5780635c975abb146101495780636711c53014610167575b600080fd5b6100ee60048036038101906100e991906111e3565b610229565b6040516100fc929190611229565b60405180910390f35b61011f600480360381019061011a919061127e565b61024d565b005b61012961048a565b005b61013361049c565b60405161014091906112ab565b60405180910390f35b6101516104a2565b60405161015e91906112e1565b60405180910390f35b61016f6104b8565b005b610179610702565b005b610183610716565b005b61019f600480360381019061019a91906111e3565b610728565b6040516101ac919061133a565b60405180910390f35b6101bd610795565b6040516101ca9190611364565b60405180910390f35b6101db6107be565b6040516101e891906112ab565b60405180910390f35b61020b600480360381019061020691906111e3565b61092e565b005b6102276004803603810190610222919061127e565b6109b1565b005b60016020528060005260406000206000915090508060000154908060010154905082565b80600560009054906101000a900473ffffffffffffffffffffffffffffffffffffffff1673ffffffffffffffffffffffffffffffffffffffff166370a08231336040518263ffffffff1660e01b81526004016102a99190611364565b602060405180830381865afa1580156102c6573d6000803e3d6000fd5b505050506040513d601f19601f820116820180604052508101906102ea9190611394565b101561032b576040517f08c379a00000000000000000000000000000000000000000000000000000000081526004016103229061141e565b60405180910390fd5b600560009054906101000a900473ffffffffffffffffffffffffffffffffffffffff1673ffffffffffffffffffffffffffffffffffffffff16639dc29fac33836040518363ffffffff1660e01b815260040161038892919061143e565b600060405180830381600087803b1580156103a257600080fd5b505af11580156103b6573d6000803e3d6000fd5b50505050600660009054906101000a900473ffffffffffffffffffffffffffffffffffffffff1673ffffffffffffffffffffffffffffffffffffffff166369328dec600360009054906101000a900473ffffffffffffffffffffffffffffffffffffffff16620f424060328561042c9190611496565b6104369190611496565b336040518463ffffffff1660e01b8152600401610455939291906114f0565b600060405180830381600087803b15801561046f57600080fd5b505af1158015610483573d6000803e3d6000fd5b5050505050565b610492610ec4565b61049a610f42565b565b60025481565b60008060149054906101000a900460ff16905090565b6000600160003373ffffffffffffffffffffffffffffffffffffffff1673ffffffffffffffffffffffffffffffffffffffff168152602001908152602001600020600001541161053d576040517f08c379a000000000000000000000000000000000000000000000000000000000815260040161053490611573565b60405180910390fd5b6000600160003373ffffffffffffffffffffffffffffffffffffffff1673ffffffffffffffffffffffffffffffffffffffff168152602001908152602001600020600001549050600660009054906101000a900473ffffffffffffffffffffffffffffffffffffffff1673ffffffffffffffffffffffffffffffffffffffff166369328dec600360009054906101000a900473ffffffffffffffffffffffffffffffffffffffff16620f4240846105f49190611496565b336040518463ffffffff1660e01b8152600401610613939291906114f0565b600060405180830381600087803b15801561062d57600080fd5b505af1158015610641573d6000803e3d6000fd5b505050506000600160003373ffffffffffffffffffffffffffffffffffffffff1673ffffffffffffffffffffffffffffffffffffffff1681526020019081526020016000206000018190555080600160003373ffffffffffffffffffffffffffffffffffffffff1673ffffffffffffffffffffffffffffffffffffffff16815260200190815260200160002060010160008282546106df9190611593565b9250508190555080600260008282546106f891906115e9565b9250508190555050565b61070a610ec4565b6107146000610fa4565b565b61071e610ec4565b610726611068565b565b610730611166565b600160008373ffffffffffffffffffffffffffffffffffffffff1673ffffffffffffffffffffffffffffffffffffffff168152602001908152602001600020604051806040016040529081600082015481526020016001820154815250509050919050565b60008060009054906101000a900473ffffffffffffffffffffffffffffffffffffffff16905090565b600080600460009054906101000a900473ffffffffffffffffffffffffffffffffffffffff1673ffffffffffffffffffffffffffffffffffffffff166370a08231306040518263ffffffff1660e01b815260040161081c9190611364565b602060405180830381865afa158015610839573d6000803e3d6000fd5b505050506040513d601f19601f8201168201806040525081019061085d9190611394565b90506000620f42406032600560009054906101000a900473ffffffffffffffffffffffffffffffffffffffff1673ffffffffffffffffffffffffffffffffffffffff166318160ddd6040518163ffffffff1660e01b8152600401602060405180830381865afa1580156108d4573d6000803e3d6000fd5b505050506040513d601f19601f820116820180604052508101906108f89190611394565b6109029190611496565b61090c9190611496565b9050600254818361091d91906115e9565b61092791906115e9565b9250505090565b610936610ec4565b600073ffffffffffffffffffffffffffffffffffffffff168173ffffffffffffffffffffffffffffffffffffffff16036109a5576040517f08c379a000000000000000000000000000000000000000000000000000000000815260040161099c9061168f565b60405180910390fd5b6109ae81610fa4565b50565b60006032826109c091906116de565b14610a00576040517f08c379a00000000000000000000000000000000000000000000000000000000081526004016109f790611781565b60405180910390fd5b600360009054906101000a900473ffffffffffffffffffffffffffffffffffffffff1673ffffffffffffffffffffffffffffffffffffffff166370a08231336040518263ffffffff1660e01b8152600401610a5b9190611364565b602060405180830381865afa158015610a78573d6000803e3d6000fd5b505050506040513d601f19601f82011682018060405250810190610a9c9190611394565b620f424082610aab9190611496565b1115610aec576040517f08c379a0000000000000000000000000000000000000000000000000000000008152600401610ae3906117ed565b60405180910390fd5b600360009054906101000a900473ffffffffffffffffffffffffffffffffffffffff1673ffffffffffffffffffffffffffffffffffffffff1663dd62ed3e33306040518363ffffffff1660e01b8152600401610b4992919061180d565b602060405180830381865afa158015610b66573d6000803e3d6000fd5b505050506040513d601f19601f82011682018060405250810190610b8a9190611394565b620f424082610b999190611496565b1115610bda576040517f08c379a0000000000000000000000000000000000000000000000000000000008152600401610bd190611882565b60405180910390fd5b6000603282610be991906118a2565b9050600360009054906101000a900473ffffffffffffffffffffffffffffffffffffffff1673ffffffffffffffffffffffffffffffffffffffff166323b872dd3330620f424086610c3a9190611496565b6040518463ffffffff1660e01b8152600401610c58939291906118d3565b6020604051808303816000875af1158015610c77573d6000803e3d6000fd5b505050506040513d601f19601f82011682018060405250810190610c9b9190611936565b50600360009054906101000a900473ffffffffffffffffffffffffffffffffffffffff1673ffffffffffffffffffffffffffffffffffffffff1663095ea7b3600660009054906101000a900473ffffffffffffffffffffffffffffffffffffffff16620f424085610d0c9190611496565b6040518363ffffffff1660e01b8152600401610d2992919061143e565b6020604051808303816000875af1158015610d48573d6000803e3d6000fd5b505050506040513d601f19601f82011682018060405250810190610d6c9190611936565b50600660009054906101000a900473ffffffffffffffffffffffffffffffffffffffff1673ffffffffffffffffffffffffffffffffffffffff1663617ba037600360009054906101000a900473ffffffffffffffffffffffffffffffffffffffff16620f424085610ddd9190611496565b3060006040518563ffffffff1660e01b8152600401610dff94939291906119b6565b600060405180830381600087803b158015610e1957600080fd5b505af1158015610e2d573d6000803e3d6000fd5b50505050600560009054906101000a900473ffffffffffffffffffffffffffffffffffffffff1673ffffffffffffffffffffffffffffffffffffffff166340c10f1933836040518363ffffffff1660e01b8152600401610e8e92919061143e565b600060405180830381600087803b158015610ea857600080fd5b505af1158015610ebc573d6000803e3d6000fd5b505050505050565b610ecc6110cb565b73ffffffffffffffffffffffffffffffffffffffff16610eea610795565b73ffffffffffffffffffffffffffffffffffffffff1614610f40576040517f08c379a0000000000000000000000000000000000000000000000000000000008152600401610f3790611a47565b60405180910390fd5b565b610f4a6110d3565b60008060146101000a81548160ff0219169083151502179055507f5db9ee0a495bf2e6ff9c91a7834c1ba4fdd244a5e8aa4e537bd38aeae4b073aa610f8d6110cb565b604051610f9a9190611364565b60405180910390a1565b60008060009054906101000a900473ffffffffffffffffffffffffffffffffffffffff169050816000806101000a81548173ffffffffffffffffffffffffffffffffffffffff021916908373ffffffffffffffffffffffffffffffffffffffff1602179055508173ffffffffffffffffffffffffffffffffffffffff168173ffffffffffffffffffffffffffffffffffffffff167f8be0079c531659141344cd1fd0a4f28419497f9722a3daafe3b4186f6b6457e060405160405180910390a35050565b61107061111c565b6001600060146101000a81548160ff0219169083151502179055507f62e78cea01bee320cd4e420270b5ea74000d11b0c9f74754ebdbfc544b05a2586110b46110cb565b6040516110c19190611364565b60405180910390a1565b600033905090565b6110db6104a2565b61111a576040517f08c379a000000000000000000000000000000000000000000000000000000000815260040161111190611ab3565b60405180910390fd5b565b6111246104a2565b15611164576040517f08c379a000000000000000000000000000000000000000000000000000000000815260040161115b90611b1f565b60405180910390fd5b565b604051806040016040528060008152602001600081525090565b600080fd5b600073ffffffffffffffffffffffffffffffffffffffff82169050919050565b60006111b082611185565b9050919050565b6111c0816111a5565b81146111cb57600080fd5b50565b6000813590506111dd816111b7565b92915050565b6000602082840312156111f9576111f8611180565b5b6000611207848285016111ce565b91505092915050565b6000819050919050565b61122381611210565b82525050565b600060408201905061123e600083018561121a565b61124b602083018461121a565b9392505050565b61125b81611210565b811461126657600080fd5b50565b60008135905061127881611252565b92915050565b60006020828403121561129457611293611180565b5b60006112a284828501611269565b91505092915050565b60006020820190506112c0600083018461121a565b92915050565b60008115159050919050565b6112db816112c6565b82525050565b60006020820190506112f660008301846112d2565b92915050565b61130581611210565b82525050565b60408201600082015161132160008501826112fc565b50602082015161133460208501826112fc565b50505050565b600060408201905061134f600083018461130b565b92915050565b61135e816111a5565b82525050565b60006020820190506113796000830184611355565b92915050565b60008151905061138e81611252565b92915050565b6000602082840312156113aa576113a9611180565b5b60006113b88482850161137f565b91505092915050565b600082825260208201905092915050565b7f596f7520646f6e2774206861766520656e6f756768207469636b657473210000600082015250565b6000611408601e836113c1565b9150611413826113d2565b602082019050919050565b60006020820190508181036000830152611437816113fb565b9050919050565b60006040820190506114536000830185611355565b611460602083018461121a565b9392505050565b7f4e487b7100000000000000000000000000000000000000000000000000000000600052601160045260246000fd5b60006114a182611210565b91506114ac83611210565b9250817fffffffffffffffffffffffffffffffffffffffffffffffffffffffffffffffff04831182151516156114e5576114e4611467565b5b828202905092915050565b60006060820190506115056000830186611355565b611512602083018561121a565b61151f6040830184611355565b949350505050565b7f5468657265206973206e6f2070656e64696e672077696e6e696e677321000000600082015250565b600061155d601d836113c1565b915061156882611527565b602082019050919050565b6000602082019050818103600083015261158c81611550565b9050919050565b600061159e82611210565b91506115a983611210565b9250827fffffffffffffffffffffffffffffffffffffffffffffffffffffffffffffffff038211156115de576115dd611467565b5b828201905092915050565b60006115f482611210565b91506115ff83611210565b92508282101561161257611611611467565b5b828203905092915050565b7f4f776e61626c653a206e6577206f776e657220697320746865207a65726f206160008201527f6464726573730000000000000000000000000000000000000000000000000000602082015250565b60006116796026836113c1565b91506116848261161d565b604082019050919050565b600060208201905081810360008301526116a88161166c565b9050919050565b7f4e487b7100000000000000000000000000000000000000000000000000000000600052601260045260246000fd5b60006116e982611210565b91506116f483611210565b925082611704576117036116af565b5b828206905092915050565b7f54686520616d6f756e74206d7573742062652061206d756c7469706c65206f6660008201527f2035300000000000000000000000000000000000000000000000000000000000602082015250565b600061176b6023836113c1565b91506117768261170f565b604082019050919050565b6000602082019050818103600083015261179a8161175e565b9050919050565b7f496e737566666963656e7420616d6f756e74206f662055534443000000000000600082015250565b60006117d7601a836113c1565b91506117e2826117a1565b602082019050919050565b60006020820190508181036000830152611806816117ca565b9050919050565b60006040820190506118226000830185611355565b61182f6020830184611355565b9392505050565b7f496e73756666696369656e7420616c6c6f776564205553444300000000000000600082015250565b600061186c6019836113c1565b915061187782611836565b602082019050919050565b6000602082019050818103600083015261189b8161185f565b9050919050565b60006118ad82611210565b91506118b883611210565b9250826118c8576118c76116af565b5b828204905092915050565b60006060820190506118e86000830186611355565b6118f56020830185611355565b611902604083018461121a565b949350505050565b611913816112c6565b811461191e57600080fd5b50565b6000815190506119308161190a565b92915050565b60006020828403121561194c5761194b611180565b5b600061195a84828501611921565b91505092915050565b6000819050919050565b600061ffff82169050919050565b6000819050919050565b60006119a061199b61199684611963565b61197b565b61196d565b9050919050565b6119b081611985565b82525050565b60006080820190506119cb6000830187611355565b6119d8602083018661121a565b6119e56040830185611355565b6119f260608301846119a7565b95945050505050565b7f4f776e61626c653a2063616c6c6572206973206e6f7420746865206f776e6572600082015250565b6000611a316020836113c1565b9150611a3c826119fb565b602082019050919050565b60006020820190508181036000830152611a6081611a24565b9050919050565b7f5061757361626c653a206e6f7420706175736564000000000000000000000000600082015250565b6000611a9d6014836113c1565b9150611aa882611a67565b602082019050919050565b60006020820190508181036000830152611acc81611a90565b9050919050565b7f5061757361626c653a2070617573656400000000000000000000000000000000600082015250565b6000611b096010836113c1565b9150611b1482611ad3565b602082019050919050565b60006020820190508181036000830152611b3881611afc565b905091905056fea2646970667358221220983f93687d681ab06573173fbe7641e717521a9d296741f424fff02e59e78c4764736f6c634300080f0033",
  "linkReferences": {},
  "deployedLinkReferences": {}
}