{
  "_format": "hh-sol-artifact-1",
  "contractName": "IpPool",
  "sourceName": "contracts/IpPool.sol",
  "abi": [
    {
      "inputs": [],
      "stateMutability": "nonpayable",
      "type": "constructor"
    },
    {
      "anonymous": false,
      "inputs": [
        {
          "indexed": true,
          "internalType": "address",
          "name": "previousOwner",
          "type": "address"
        },
        {
          "indexed": true,
          "internalType": "address",
          "name": "newOwner",
          "type": "address"
        }
      ],
      "name": "OwnershipTransferred",
      "type": "event"
    },
    {
      "anonymous": false,
      "inputs": [
        {
          "indexed": false,
          "internalType": "address",
          "name": "account",
          "type": "address"
        }
      ],
      "name": "Paused",
      "type": "event"
    },
    {
      "anonymous": false,
      "inputs": [
        {
          "indexed": false,
          "internalType": "address",
          "name": "account",
          "type": "address"
        }
      ],
      "name": "Unpaused",
      "type": "event"
    },
    {
      "inputs": [
        {
          "internalType": "address",
          "name": "_player",
          "type": "address"
        }
      ],
      "name": "claimFromPool",
      "outputs": [],
      "stateMutability": "nonpayable",
      "type": "function"
    },
    {
      "inputs": [
        {
          "internalType": "uint256",
          "name": "_amount",
          "type": "uint256"
        },
        {
          "internalType": "address",
          "name": "_player",
          "type": "address"
        }
      ],
      "name": "depositOnAave",
      "outputs": [],
      "stateMutability": "nonpayable",
      "type": "function"
    },
    {
      "inputs": [],
      "name": "getGlobalPendingWinnings",
      "outputs": [
        {
          "internalType": "uint256",
          "name": "",
          "type": "uint256"
        }
      ],
      "stateMutability": "view",
      "type": "function"
    },
    {
      "inputs": [],
      "name": "getGlobalPrizePool",
      "outputs": [
        {
          "internalType": "uint256",
          "name": "",
          "type": "uint256"
        }
      ],
      "stateMutability": "view",
      "type": "function"
    },
    {
      "inputs": [
        {
          "internalType": "address",
          "name": "_player",
          "type": "address"
        }
      ],
      "name": "getWinningsPerPlayer",
      "outputs": [
        {
          "internalType": "uint256",
          "name": "",
          "type": "uint256"
        },
        {
          "internalType": "uint256",
          "name": "",
          "type": "uint256"
        }
      ],
      "stateMutability": "view",
      "type": "function"
    },
    {
      "inputs": [],
      "name": "owner",
      "outputs": [
        {
          "internalType": "address",
          "name": "",
          "type": "address"
        }
      ],
      "stateMutability": "view",
      "type": "function"
    },
    {
      "inputs": [],
      "name": "pause",
      "outputs": [],
      "stateMutability": "nonpayable",
      "type": "function"
    },
    {
      "inputs": [],
      "name": "paused",
      "outputs": [
        {
          "internalType": "bool",
          "name": "",
          "type": "bool"
        }
      ],
      "stateMutability": "view",
      "type": "function"
    },
    {
      "inputs": [],
      "name": "renounceOwnership",
      "outputs": [],
      "stateMutability": "nonpayable",
      "type": "function"
    },
    {
      "inputs": [
        {
          "internalType": "address",
          "name": "_interpoolContract",
          "type": "address"
        }
      ],
      "name": "setInterpoolContract",
      "outputs": [],
      "stateMutability": "nonpayable",
      "type": "function"
    },
    {
      "inputs": [
        {
          "internalType": "address",
          "name": "_player",
          "type": "address"
        },
        {
          "internalType": "uint256",
          "name": "_winnings",
          "type": "uint256"
        }
      ],
      "name": "setWinnings",
      "outputs": [],
      "stateMutability": "nonpayable",
      "type": "function"
    },
    {
      "inputs": [
        {
          "internalType": "address",
          "name": "newOwner",
          "type": "address"
        }
      ],
      "name": "transferOwnership",
      "outputs": [],
      "stateMutability": "nonpayable",
      "type": "function"
    },
    {
      "inputs": [],
      "name": "unpause",
      "outputs": [],
      "stateMutability": "nonpayable",
      "type": "function"
    },
    {
      "inputs": [
        {
          "internalType": "uint256",
          "name": "_nbTickets",
          "type": "uint256"
        },
        {
          "internalType": "address",
          "name": "_player",
          "type": "address"
        }
      ],
      "name": "withdrawFromPool",
      "outputs": [],
      "stateMutability": "nonpayable",
      "type": "function"
    }
  ],
  "bytecode": "0x60806040523480156200001157600080fd5b506200003262000026620001d360201b60201c565b620001db60201b60201c565b60008060146101000a81548160ff02191690831515021790555073a2025b15a1757311bfd68cb14eaefcc237af5b43600360006101000a81548173ffffffffffffffffffffffffffffffffffffffff021916908373ffffffffffffffffffffffffffffffffffffffff16021790555073368eedf3f56ad10b9bc57eed4dac65b26bb667f6600660006101000a81548173ffffffffffffffffffffffffffffffffffffffff021916908373ffffffffffffffffffffffffffffffffffffffff160217905550731ee669290939f8a8864497af3bc83728715265ff600460006101000a81548173ffffffffffffffffffffffffffffffffffffffff021916908373ffffffffffffffffffffffffffffffffffffffff16021790555073d81e4a61fd6bf066539df6ea48bfaeae847dcda1600560006101000a81548173ffffffffffffffffffffffffffffffffffffffff021916908373ffffffffffffffffffffffffffffffffffffffff160217905550620001c573bcdc8d3f7f20d1fb9419fb1bdbf028bb2651bef16200029f60201b60201c565b600060028190555062000430565b600033905090565b60008060009054906101000a900473ffffffffffffffffffffffffffffffffffffffff169050816000806101000a81548173ffffffffffffffffffffffffffffffffffffffff021916908373ffffffffffffffffffffffffffffffffffffffff1602179055508173ffffffffffffffffffffffffffffffffffffffff168173ffffffffffffffffffffffffffffffffffffffff167f8be0079c531659141344cd1fd0a4f28419497f9722a3daafe3b4186f6b6457e060405160405180910390a35050565b620002af620002f360201b60201c565b80600760006101000a81548173ffffffffffffffffffffffffffffffffffffffff021916908373ffffffffffffffffffffffffffffffffffffffff16021790555050565b62000303620001d360201b60201c565b73ffffffffffffffffffffffffffffffffffffffff16620003296200038460201b60201c565b73ffffffffffffffffffffffffffffffffffffffff161462000382576040517f08c379a000000000000000000000000000000000000000000000000000000000815260040162000379906200040e565b60405180910390fd5b565b60008060009054906101000a900473ffffffffffffffffffffffffffffffffffffffff16905090565b600082825260208201905092915050565b7f4f776e61626c653a2063616c6c6572206973206e6f7420746865206f776e6572600082015250565b6000620003f6602083620003ad565b91506200040382620003be565b602082019050919050565b600060208201905081810360008301526200042981620003e7565b9050919050565b61210180620004406000396000f3fe608060405234801561001057600080fd5b50600436106100ea5760003560e01c806371dd88401161008c5780638ad2e864116100665780638ad2e864146101d55780638da5cb5b14610206578063b4ace15814610224578063f2fde38b14610242576100ea565b806371dd8840146101935780637ca5251d146101af5780638456cb59146101cb576100ea565b80633b7f17fb116100c85780633b7f17fb146101435780633f4ba83a146101615780635c975abb1461016b578063715018a614610189576100ea565b8063016fc9d7146100ef5780630de6e3211461010b5780632cbcb1f214610127575b600080fd5b6101096004803603810190610104919061173f565b61025e565b005b6101256004803603810190610120919061177f565b610802565b005b610141600480360381019061013c919061173f565b610c23565b005b61014b610fac565b60405161015891906117bb565b60405180910390f35b610169610fb6565b005b610173610fc8565b60405161018091906117f1565b60405180910390f35b610191610fde565b005b6101ad60048036038101906101a8919061180c565b610ff2565b005b6101c960048036038101906101c4919061177f565b6110f8565b005b6101d3611144565b005b6101ef60048036038101906101ea919061177f565b611156565b6040516101fd92919061184c565b60405180910390f35b61020e6111e8565b60405161021b9190611884565b60405180910390f35b61022c611211565b60405161023991906117bb565b60405180910390f35b61025c6004803603810190610257919061177f565b611381565b005b600760009054906101000a900473ffffffffffffffffffffffffffffffffffffffff1673ffffffffffffffffffffffffffffffffffffffff163373ffffffffffffffffffffffffffffffffffffffff16146102ee576040517f08c379a00000000000000000000000000000000000000000000000000000000081526004016102e5906118fc565b60405180910390fd5b60006032836102fd919061194b565b1461033d576040517f08c379a0000000000000000000000000000000000000000000000000000000008152600401610334906119ee565b60405180910390fd5b600360009054906101000a900473ffffffffffffffffffffffffffffffffffffffff1673ffffffffffffffffffffffffffffffffffffffff166370a08231826040518263ffffffff1660e01b81526004016103989190611884565b602060405180830381865afa1580156103b5573d6000803e3d6000fd5b505050506040513d601f19601f820116820180604052508101906103d99190611a23565b620f4240836103e89190611a7f565b1115610429576040517f08c379a000000000000000000000000000000000000000000000000000000000815260040161042090611b25565b60405180910390fd5b600360009054906101000a900473ffffffffffffffffffffffffffffffffffffffff1673ffffffffffffffffffffffffffffffffffffffff1663dd62ed3e82306040518363ffffffff1660e01b8152600401610486929190611b45565b602060405180830381865afa1580156104a3573d6000803e3d6000fd5b505050506040513d601f19601f820116820180604052508101906104c79190611a23565b620f4240836104d69190611a7f565b1115610517576040517f08c379a000000000000000000000000000000000000000000000000000000000815260040161050e90611bba565b60405180910390fd5b60006032836105269190611bda565b9050600360009054906101000a900473ffffffffffffffffffffffffffffffffffffffff1673ffffffffffffffffffffffffffffffffffffffff166323b872dd8330620f4240876105779190611a7f565b6040518463ffffffff1660e01b815260040161059593929190611c0b565b6020604051808303816000875af11580156105b4573d6000803e3d6000fd5b505050506040513d601f19601f820116820180604052508101906105d89190611c6e565b50600360009054906101000a900473ffffffffffffffffffffffffffffffffffffffff1673ffffffffffffffffffffffffffffffffffffffff1663095ea7b3600660009054906101000a900473ffffffffffffffffffffffffffffffffffffffff16620f4240866106499190611a7f565b6040518363ffffffff1660e01b8152600401610666929190611c9b565b6020604051808303816000875af1158015610685573d6000803e3d6000fd5b505050506040513d601f19601f820116820180604052508101906106a99190611c6e565b50600660009054906101000a900473ffffffffffffffffffffffffffffffffffffffff1673ffffffffffffffffffffffffffffffffffffffff1663617ba037600360009054906101000a900473ffffffffffffffffffffffffffffffffffffffff16620f42408661071a9190611a7f565b3060006040518563ffffffff1660e01b815260040161073c9493929190611d17565b600060405180830381600087803b15801561075657600080fd5b505af115801561076a573d6000803e3d6000fd5b50505050600560009054906101000a900473ffffffffffffffffffffffffffffffffffffffff1673ffffffffffffffffffffffffffffffffffffffff166340c10f1983836040518363ffffffff1660e01b81526004016107cb929190611c9b565b600060405180830381600087803b1580156107e557600080fd5b505af11580156107f9573d6000803e3d6000fd5b50505050505050565b600760009054906101000a900473ffffffffffffffffffffffffffffffffffffffff1673ffffffffffffffffffffffffffffffffffffffff163373ffffffffffffffffffffffffffffffffffffffff1614610892576040517f08c379a0000000000000000000000000000000000000000000000000000000008152600401610889906118fc565b60405180910390fd5b6000600160008373ffffffffffffffffffffffffffffffffffffffff1673ffffffffffffffffffffffffffffffffffffffff1681526020019081526020016000206000015411610917576040517f08c379a000000000000000000000000000000000000000000000000000000000815260040161090e90611da8565b60405180910390fd5b6000600160008373ffffffffffffffffffffffffffffffffffffffff1673ffffffffffffffffffffffffffffffffffffffff168152602001908152602001600020600001549050600660009054906101000a900473ffffffffffffffffffffffffffffffffffffffff1673ffffffffffffffffffffffffffffffffffffffff166369328dec600360009054906101000a900473ffffffffffffffffffffffffffffffffffffffff1683306040518463ffffffff1660e01b81526004016109df93929190611dc8565b600060405180830381600087803b1580156109f957600080fd5b505af1158015610a0d573d6000803e3d6000fd5b50505050600360009054906101000a900473ffffffffffffffffffffffffffffffffffffffff1673ffffffffffffffffffffffffffffffffffffffff1663a9059cbb83836040518363ffffffff1660e01b8152600401610a6e929190611c9b565b6020604051808303816000875af1158015610a8d573d6000803e3d6000fd5b505050506040513d601f19601f82011682018060405250810190610ab19190611c6e565b50600660009054906101000a900473ffffffffffffffffffffffffffffffffffffffff1673ffffffffffffffffffffffffffffffffffffffff166369328dec600360009054906101000a900473ffffffffffffffffffffffffffffffffffffffff1683856040518463ffffffff1660e01b8152600401610b3393929190611dc8565b600060405180830381600087803b158015610b4d57600080fd5b505af1158015610b61573d6000803e3d6000fd5b505050506000600160008473ffffffffffffffffffffffffffffffffffffffff1673ffffffffffffffffffffffffffffffffffffffff1681526020019081526020016000206000018190555080600160008473ffffffffffffffffffffffffffffffffffffffff1673ffffffffffffffffffffffffffffffffffffffff1681526020019081526020016000206001016000828254610bff9190611dff565b925050819055508060026000828254610c189190611e55565b925050819055505050565b600760009054906101000a900473ffffffffffffffffffffffffffffffffffffffff1673ffffffffffffffffffffffffffffffffffffffff163373ffffffffffffffffffffffffffffffffffffffff1614610cb3576040517f08c379a0000000000000000000000000000000000000000000000000000000008152600401610caa906118fc565b60405180910390fd5b81600560009054906101000a900473ffffffffffffffffffffffffffffffffffffffff1673ffffffffffffffffffffffffffffffffffffffff166370a08231836040518263ffffffff1660e01b8152600401610d0f9190611884565b602060405180830381865afa158015610d2c573d6000803e3d6000fd5b505050506040513d601f19601f82011682018060405250810190610d509190611a23565b1015610d91576040517f08c379a0000000000000000000000000000000000000000000000000000000008152600401610d8890611ed5565b60405180910390fd5b600560009054906101000a900473ffffffffffffffffffffffffffffffffffffffff1673ffffffffffffffffffffffffffffffffffffffff16639dc29fac82846040518363ffffffff1660e01b8152600401610dee929190611c9b565b600060405180830381600087803b158015610e0857600080fd5b505af1158015610e1c573d6000803e3d6000fd5b50505050600660009054906101000a900473ffffffffffffffffffffffffffffffffffffffff1673ffffffffffffffffffffffffffffffffffffffff166369328dec600360009054906101000a900473ffffffffffffffffffffffffffffffffffffffff16620f4240603286610e929190611a7f565b610e9c9190611a7f565b306040518463ffffffff1660e01b8152600401610ebb93929190611dc8565b600060405180830381600087803b158015610ed557600080fd5b505af1158015610ee9573d6000803e3d6000fd5b50505050600360009054906101000a900473ffffffffffffffffffffffffffffffffffffffff1673ffffffffffffffffffffffffffffffffffffffff1663a9059cbb82620f4240603286610f3d9190611a7f565b610f479190611a7f565b6040518363ffffffff1660e01b8152600401610f64929190611c9b565b6020604051808303816000875af1158015610f83573d6000803e3d6000fd5b505050506040513d601f19601f82011682018060405250810190610fa79190611c6e565b505050565b6000600254905090565b610fbe611404565b610fc6611482565b565b60008060149054906101000a900460ff16905090565b610fe6611404565b610ff060006114e4565b565b600760009054906101000a900473ffffffffffffffffffffffffffffffffffffffff1673ffffffffffffffffffffffffffffffffffffffff163373ffffffffffffffffffffffffffffffffffffffff1614611082576040517f08c379a0000000000000000000000000000000000000000000000000000000008152600401611079906118fc565b60405180910390fd5b80600160008473ffffffffffffffffffffffffffffffffffffffff1673ffffffffffffffffffffffffffffffffffffffff16815260200190815260200160002060000160008282546110d49190611dff565b9250508190555080600260008282546110ed9190611dff565b925050819055505050565b611100611404565b80600760006101000a81548173ffffffffffffffffffffffffffffffffffffffff021916908373ffffffffffffffffffffffffffffffffffffffff16021790555050565b61114c611404565b6111546115a8565b565b600080600160008473ffffffffffffffffffffffffffffffffffffffff1673ffffffffffffffffffffffffffffffffffffffff16815260200190815260200160002060000154600160008573ffffffffffffffffffffffffffffffffffffffff1673ffffffffffffffffffffffffffffffffffffffff1681526020019081526020016000206001015491509150915091565b60008060009054906101000a900473ffffffffffffffffffffffffffffffffffffffff16905090565b600080600460009054906101000a900473ffffffffffffffffffffffffffffffffffffffff1673ffffffffffffffffffffffffffffffffffffffff166370a08231306040518263ffffffff1660e01b815260040161126f9190611884565b602060405180830381865afa15801561128c573d6000803e3d6000fd5b505050506040513d601f19601f820116820180604052508101906112b09190611a23565b90506000620f42406032600560009054906101000a900473ffffffffffffffffffffffffffffffffffffffff1673ffffffffffffffffffffffffffffffffffffffff166318160ddd6040518163ffffffff1660e01b8152600401602060405180830381865afa158015611327573d6000803e3d6000fd5b505050506040513d601f19601f8201168201806040525081019061134b9190611a23565b6113559190611a7f565b61135f9190611a7f565b905060025481836113709190611e55565b61137a9190611e55565b9250505090565b611389611404565b600073ffffffffffffffffffffffffffffffffffffffff168173ffffffffffffffffffffffffffffffffffffffff16036113f8576040517f08c379a00000000000000000000000000000000000000000000000000000000081526004016113ef90611f67565b60405180910390fd5b611401816114e4565b50565b61140c61160b565b73ffffffffffffffffffffffffffffffffffffffff1661142a6111e8565b73ffffffffffffffffffffffffffffffffffffffff1614611480576040517f08c379a000000000000000000000000000000000000000000000000000000000815260040161147790611fd3565b60405180910390fd5b565b61148a611613565b60008060146101000a81548160ff0219169083151502179055507f5db9ee0a495bf2e6ff9c91a7834c1ba4fdd244a5e8aa4e537bd38aeae4b073aa6114cd61160b565b6040516114da9190611884565b60405180910390a1565b60008060009054906101000a900473ffffffffffffffffffffffffffffffffffffffff169050816000806101000a81548173ffffffffffffffffffffffffffffffffffffffff021916908373ffffffffffffffffffffffffffffffffffffffff1602179055508173ffffffffffffffffffffffffffffffffffffffff168173ffffffffffffffffffffffffffffffffffffffff167f8be0079c531659141344cd1fd0a4f28419497f9722a3daafe3b4186f6b6457e060405160405180910390a35050565b6115b061165c565b6001600060146101000a81548160ff0219169083151502179055507f62e78cea01bee320cd4e420270b5ea74000d11b0c9f74754ebdbfc544b05a2586115f461160b565b6040516116019190611884565b60405180910390a1565b600033905090565b61161b610fc8565b61165a576040517f08c379a00000000000000000000000000000000000000000000000000000000081526004016116519061203f565b60405180910390fd5b565b611664610fc8565b156116a4576040517f08c379a000000000000000000000000000000000000000000000000000000000815260040161169b906120ab565b60405180910390fd5b565b600080fd5b6000819050919050565b6116be816116ab565b81146116c957600080fd5b50565b6000813590506116db816116b5565b92915050565b600073ffffffffffffffffffffffffffffffffffffffff82169050919050565b600061170c826116e1565b9050919050565b61171c81611701565b811461172757600080fd5b50565b60008135905061173981611713565b92915050565b60008060408385031215611756576117556116a6565b5b6000611764858286016116cc565b92505060206117758582860161172a565b9150509250929050565b600060208284031215611795576117946116a6565b5b60006117a38482850161172a565b91505092915050565b6117b5816116ab565b82525050565b60006020820190506117d060008301846117ac565b92915050565b60008115159050919050565b6117eb816117d6565b82525050565b600060208201905061180660008301846117e2565b92915050565b60008060408385031215611823576118226116a6565b5b60006118318582860161172a565b9250506020611842858286016116cc565b9150509250929050565b600060408201905061186160008301856117ac565b61186e60208301846117ac565b9392505050565b61187e81611701565b82525050565b60006020820190506118996000830184611875565b92915050565b600082825260208201905092915050565b7f4e6f7420616c6c6f776564210000000000000000000000000000000000000000600082015250565b60006118e6600c8361189f565b91506118f1826118b0565b602082019050919050565b60006020820190508181036000830152611915816118d9565b9050919050565b7f4e487b7100000000000000000000000000000000000000000000000000000000600052601260045260246000fd5b6000611956826116ab565b9150611961836116ab565b9250826119715761197061191c565b5b828206905092915050565b7f54686520616d6f756e74206d7573742062652061206d756c7469706c65206f6660008201527f2035300000000000000000000000000000000000000000000000000000000000602082015250565b60006119d860238361189f565b91506119e38261197c565b604082019050919050565b60006020820190508181036000830152611a07816119cb565b9050919050565b600081519050611a1d816116b5565b92915050565b600060208284031215611a3957611a386116a6565b5b6000611a4784828501611a0e565b91505092915050565b7f4e487b7100000000000000000000000000000000000000000000000000000000600052601160045260246000fd5b6000611a8a826116ab565b9150611a95836116ab565b9250817fffffffffffffffffffffffffffffffffffffffffffffffffffffffffffffffff0483118215151615611ace57611acd611a50565b5b828202905092915050565b7f496e737566666963656e7420616d6f756e74206f662055534443000000000000600082015250565b6000611b0f601a8361189f565b9150611b1a82611ad9565b602082019050919050565b60006020820190508181036000830152611b3e81611b02565b9050919050565b6000604082019050611b5a6000830185611875565b611b676020830184611875565b9392505050565b7f496e73756666696369656e7420616c6c6f776564205553444300000000000000600082015250565b6000611ba460198361189f565b9150611baf82611b6e565b602082019050919050565b60006020820190508181036000830152611bd381611b97565b9050919050565b6000611be5826116ab565b9150611bf0836116ab565b925082611c0057611bff61191c565b5b828204905092915050565b6000606082019050611c206000830186611875565b611c2d6020830185611875565b611c3a60408301846117ac565b949350505050565b611c4b816117d6565b8114611c5657600080fd5b50565b600081519050611c6881611c42565b92915050565b600060208284031215611c8457611c836116a6565b5b6000611c9284828501611c59565b91505092915050565b6000604082019050611cb06000830185611875565b611cbd60208301846117ac565b9392505050565b6000819050919050565b600061ffff82169050919050565b6000819050919050565b6000611d01611cfc611cf784611cc4565b611cdc565b611cce565b9050919050565b611d1181611ce6565b82525050565b6000608082019050611d2c6000830187611875565b611d3960208301866117ac565b611d466040830185611875565b611d536060830184611d08565b95945050505050565b7f5468657265206973206e6f2070656e64696e672077696e6e696e677321000000600082015250565b6000611d92601d8361189f565b9150611d9d82611d5c565b602082019050919050565b60006020820190508181036000830152611dc181611d85565b9050919050565b6000606082019050611ddd6000830186611875565b611dea60208301856117ac565b611df76040830184611875565b949350505050565b6000611e0a826116ab565b9150611e15836116ab565b9250827fffffffffffffffffffffffffffffffffffffffffffffffffffffffffffffffff03821115611e4a57611e49611a50565b5b828201905092915050565b6000611e60826116ab565b9150611e6b836116ab565b925082821015611e7e57611e7d611a50565b5b828203905092915050565b7f596f7520646f6e2774206861766520656e6f756768207469636b657473210000600082015250565b6000611ebf601e8361189f565b9150611eca82611e89565b602082019050919050565b60006020820190508181036000830152611eee81611eb2565b9050919050565b7f4f776e61626c653a206e6577206f776e657220697320746865207a65726f206160008201527f6464726573730000000000000000000000000000000000000000000000000000602082015250565b6000611f5160268361189f565b9150611f5c82611ef5565b604082019050919050565b60006020820190508181036000830152611f8081611f44565b9050919050565b7f4f776e61626c653a2063616c6c6572206973206e6f7420746865206f776e6572600082015250565b6000611fbd60208361189f565b9150611fc882611f87565b602082019050919050565b60006020820190508181036000830152611fec81611fb0565b9050919050565b7f5061757361626c653a206e6f7420706175736564000000000000000000000000600082015250565b600061202960148361189f565b915061203482611ff3565b602082019050919050565b600060208201905081810360008301526120588161201c565b9050919050565b7f5061757361626c653a2070617573656400000000000000000000000000000000600082015250565b600061209560108361189f565b91506120a08261205f565b602082019050919050565b600060208201905081810360008301526120c481612088565b905091905056fea26469706673582212207cddcc8b451164e42da780c1ad52668f8effe0a7dfb03fd880c16cb0011e26b764736f6c634300080f0033",
  "linkReferences": {},
  "deployedLinkReferences": {}
}