{
  "_format": "hh-sol-artifact-1",
  "contractName": "IpPool",
  "sourceName": "contracts/IpPool.sol",
  "abi": [
    {
      "inputs": [],
      "stateMutability": "nonpayable",
      "type": "constructor"
    },
    {
      "anonymous": false,
      "inputs": [
        {
          "indexed": true,
          "internalType": "address",
          "name": "previousOwner",
          "type": "address"
        },
        {
          "indexed": true,
          "internalType": "address",
          "name": "newOwner",
          "type": "address"
        }
      ],
      "name": "OwnershipTransferred",
      "type": "event"
    },
    {
      "anonymous": false,
      "inputs": [
        {
          "indexed": false,
          "internalType": "address",
          "name": "account",
          "type": "address"
        }
      ],
      "name": "Paused",
      "type": "event"
    },
    {
      "anonymous": false,
      "inputs": [
        {
          "indexed": false,
          "internalType": "address",
          "name": "account",
          "type": "address"
        }
      ],
      "name": "Unpaused",
      "type": "event"
    },
    {
      "inputs": [],
      "name": "claimFromPool",
      "outputs": [],
      "stateMutability": "nonpayable",
      "type": "function"
    },
    {
      "inputs": [
        {
          "internalType": "uint256",
          "name": "_amount",
          "type": "uint256"
        }
      ],
      "name": "depositOnAave",
      "outputs": [],
      "stateMutability": "nonpayable",
      "type": "function"
    },
    {
      "inputs": [],
      "name": "getGlobalPrizePool",
      "outputs": [
        {
          "internalType": "uint256",
          "name": "",
          "type": "uint256"
        }
      ],
      "stateMutability": "view",
      "type": "function"
    },
    {
      "inputs": [
        {
          "internalType": "address",
          "name": "_player",
          "type": "address"
        }
      ],
      "name": "getWinningsPerPlayer",
      "outputs": [
        {
          "components": [
            {
              "internalType": "uint256",
              "name": "pendingWinnings",
              "type": "uint256"
            },
            {
              "internalType": "uint256",
              "name": "claimedWinnings",
              "type": "uint256"
            }
          ],
          "internalType": "struct IpPool.Winnings",
          "name": "",
          "type": "tuple"
        }
      ],
      "stateMutability": "view",
      "type": "function"
    },
    {
      "inputs": [],
      "name": "globalPendingWinnings",
      "outputs": [
        {
          "internalType": "uint256",
          "name": "",
          "type": "uint256"
        }
      ],
      "stateMutability": "view",
      "type": "function"
    },
    {
      "inputs": [],
      "name": "owner",
      "outputs": [
        {
          "internalType": "address",
          "name": "",
          "type": "address"
        }
      ],
      "stateMutability": "view",
      "type": "function"
    },
    {
      "inputs": [],
      "name": "pause",
      "outputs": [],
      "stateMutability": "nonpayable",
      "type": "function"
    },
    {
      "inputs": [],
      "name": "paused",
      "outputs": [
        {
          "internalType": "bool",
          "name": "",
          "type": "bool"
        }
      ],
      "stateMutability": "view",
      "type": "function"
    },
    {
      "inputs": [],
      "name": "renounceOwnership",
      "outputs": [],
      "stateMutability": "nonpayable",
      "type": "function"
    },
    {
      "inputs": [
        {
          "internalType": "address",
          "name": "newOwner",
          "type": "address"
        }
      ],
      "name": "transferOwnership",
      "outputs": [],
      "stateMutability": "nonpayable",
      "type": "function"
    },
    {
      "inputs": [],
      "name": "unpause",
      "outputs": [],
      "stateMutability": "nonpayable",
      "type": "function"
    }
  ],
  "bytecode": "0x608060405234801561001057600080fd5b5061002d6100226101a860201b60201c565b6101b060201b60201c565b60008060146101000a81548160ff02191690831515021790555073a2025b15a1757311bfd68cb14eaefcc237af5b43600360006101000a81548173ffffffffffffffffffffffffffffffffffffffff021916908373ffffffffffffffffffffffffffffffffffffffff16021790555073368eedf3f56ad10b9bc57eed4dac65b26bb667f6600660006101000a81548173ffffffffffffffffffffffffffffffffffffffff021916908373ffffffffffffffffffffffffffffffffffffffff160217905550731ee669290939f8a8864497af3bc83728715265ff600460006101000a81548173ffffffffffffffffffffffffffffffffffffffff021916908373ffffffffffffffffffffffffffffffffffffffff16021790555073d81e4a61fd6bf066539df6ea48bfaeae847dcda1600560006101000a81548173ffffffffffffffffffffffffffffffffffffffff021916908373ffffffffffffffffffffffffffffffffffffffff1602179055506000600281905550610274565b600033905090565b60008060009054906101000a900473ffffffffffffffffffffffffffffffffffffffff169050816000806101000a81548173ffffffffffffffffffffffffffffffffffffffff021916908373ffffffffffffffffffffffffffffffffffffffff1602179055508173ffffffffffffffffffffffffffffffffffffffff168173ffffffffffffffffffffffffffffffffffffffff167f8be0079c531659141344cd1fd0a4f28419497f9722a3daafe3b4186f6b6457e060405160405180910390a35050565b6117fe806102836000396000f3fe608060405234801561001057600080fd5b50600436106100a95760003560e01c80638ad2e864116100715780638ad2e864146101085780638d44f13b146101385780638da5cb5b14610142578063b4ace15814610160578063f2fde38b1461017e578063fd8d19091461019a576100a9565b80633f4ba83a146100ae57806341944175146100b85780635c975abb146100d6578063715018a6146100f45780638456cb59146100fe575b600080fd5b6100b66101b6565b005b6100c06101c8565b6040516100cd9190610eb7565b60405180910390f35b6100de6101ce565b6040516100eb9190610eed565b60405180910390f35b6100fc6101e4565b005b6101066101f8565b005b610122600480360381019061011d9190610f6b565b61020a565b60405161012f9190610fd6565b60405180910390f35b610140610277565b005b61014a6104b3565b6040516101579190611000565b60405180910390f35b6101686104dc565b6040516101759190610eb7565b60405180910390f35b61019860048036038101906101939190610f6b565b61064c565b005b6101b460048036038101906101af9190611047565b6106cf565b005b6101be610be2565b6101c6610c60565b565b60025481565b60008060149054906101000a900460ff16905090565b6101ec610be2565b6101f66000610cc2565b565b610200610be2565b610208610d86565b565b610212610e84565b600160008373ffffffffffffffffffffffffffffffffffffffff1673ffffffffffffffffffffffffffffffffffffffff168152602001908152602001600020604051806040016040529081600082015481526020016001820154815250509050919050565b6000600160003373ffffffffffffffffffffffffffffffffffffffff1673ffffffffffffffffffffffffffffffffffffffff16815260200190815260200160002060000154116102fc576040517f08c379a00000000000000000000000000000000000000000000000000000000081526004016102f3906110d1565b60405180910390fd5b6000600160003373ffffffffffffffffffffffffffffffffffffffff1673ffffffffffffffffffffffffffffffffffffffff168152602001908152602001600020600001549050600660009054906101000a900473ffffffffffffffffffffffffffffffffffffffff1673ffffffffffffffffffffffffffffffffffffffff166369328dec600360009054906101000a900473ffffffffffffffffffffffffffffffffffffffff1683336040518463ffffffff1660e01b81526004016103c4939291906110f1565b600060405180830381600087803b1580156103de57600080fd5b505af11580156103f2573d6000803e3d6000fd5b505050506000600160003373ffffffffffffffffffffffffffffffffffffffff1673ffffffffffffffffffffffffffffffffffffffff1681526020019081526020016000206000018190555080600160003373ffffffffffffffffffffffffffffffffffffffff1673ffffffffffffffffffffffffffffffffffffffff16815260200190815260200160002060010160008282546104909190611157565b9250508190555080600260008282546104a991906111ad565b9250508190555050565b60008060009054906101000a900473ffffffffffffffffffffffffffffffffffffffff16905090565b600080600460009054906101000a900473ffffffffffffffffffffffffffffffffffffffff1673ffffffffffffffffffffffffffffffffffffffff166370a08231306040518263ffffffff1660e01b815260040161053a9190611000565b602060405180830381865afa158015610557573d6000803e3d6000fd5b505050506040513d601f19601f8201168201806040525081019061057b91906111f6565b90506000620f42406032600560009054906101000a900473ffffffffffffffffffffffffffffffffffffffff1673ffffffffffffffffffffffffffffffffffffffff166318160ddd6040518163ffffffff1660e01b8152600401602060405180830381865afa1580156105f2573d6000803e3d6000fd5b505050506040513d601f19601f8201168201806040525081019061061691906111f6565b6106209190611223565b61062a9190611223565b9050600254818361063b91906111ad565b61064591906111ad565b9250505090565b610654610be2565b600073ffffffffffffffffffffffffffffffffffffffff168173ffffffffffffffffffffffffffffffffffffffff16036106c3576040517f08c379a00000000000000000000000000000000000000000000000000000000081526004016106ba906112ef565b60405180910390fd5b6106cc81610cc2565b50565b60006032826106de919061133e565b1461071e576040517f08c379a0000000000000000000000000000000000000000000000000000000008152600401610715906113e1565b60405180910390fd5b600360009054906101000a900473ffffffffffffffffffffffffffffffffffffffff1673ffffffffffffffffffffffffffffffffffffffff166370a08231336040518263ffffffff1660e01b81526004016107799190611000565b602060405180830381865afa158015610796573d6000803e3d6000fd5b505050506040513d601f19601f820116820180604052508101906107ba91906111f6565b620f4240826107c99190611223565b111561080a576040517f08c379a00000000000000000000000000000000000000000000000000000000081526004016108019061144d565b60405180910390fd5b600360009054906101000a900473ffffffffffffffffffffffffffffffffffffffff1673ffffffffffffffffffffffffffffffffffffffff1663dd62ed3e33306040518363ffffffff1660e01b815260040161086792919061146d565b602060405180830381865afa158015610884573d6000803e3d6000fd5b505050506040513d601f19601f820116820180604052508101906108a891906111f6565b620f4240826108b79190611223565b11156108f8576040517f08c379a00000000000000000000000000000000000000000000000000000000081526004016108ef906114e2565b60405180910390fd5b60006032826109079190611502565b9050600360009054906101000a900473ffffffffffffffffffffffffffffffffffffffff1673ffffffffffffffffffffffffffffffffffffffff166323b872dd3330620f4240866109589190611223565b6040518463ffffffff1660e01b815260040161097693929190611533565b6020604051808303816000875af1158015610995573d6000803e3d6000fd5b505050506040513d601f19601f820116820180604052508101906109b99190611596565b50600360009054906101000a900473ffffffffffffffffffffffffffffffffffffffff1673ffffffffffffffffffffffffffffffffffffffff1663095ea7b3600660009054906101000a900473ffffffffffffffffffffffffffffffffffffffff16620f424085610a2a9190611223565b6040518363ffffffff1660e01b8152600401610a479291906115c3565b6020604051808303816000875af1158015610a66573d6000803e3d6000fd5b505050506040513d601f19601f82011682018060405250810190610a8a9190611596565b50600660009054906101000a900473ffffffffffffffffffffffffffffffffffffffff1673ffffffffffffffffffffffffffffffffffffffff1663617ba037600360009054906101000a900473ffffffffffffffffffffffffffffffffffffffff16620f424085610afb9190611223565b3060006040518563ffffffff1660e01b8152600401610b1d949392919061163f565b600060405180830381600087803b158015610b3757600080fd5b505af1158015610b4b573d6000803e3d6000fd5b50505050600560009054906101000a900473ffffffffffffffffffffffffffffffffffffffff1673ffffffffffffffffffffffffffffffffffffffff166340c10f1933836040518363ffffffff1660e01b8152600401610bac9291906115c3565b600060405180830381600087803b158015610bc657600080fd5b505af1158015610bda573d6000803e3d6000fd5b505050505050565b610bea610de9565b73ffffffffffffffffffffffffffffffffffffffff16610c086104b3565b73ffffffffffffffffffffffffffffffffffffffff1614610c5e576040517f08c379a0000000000000000000000000000000000000000000000000000000008152600401610c55906116d0565b60405180910390fd5b565b610c68610df1565b60008060146101000a81548160ff0219169083151502179055507f5db9ee0a495bf2e6ff9c91a7834c1ba4fdd244a5e8aa4e537bd38aeae4b073aa610cab610de9565b604051610cb89190611000565b60405180910390a1565b60008060009054906101000a900473ffffffffffffffffffffffffffffffffffffffff169050816000806101000a81548173ffffffffffffffffffffffffffffffffffffffff021916908373ffffffffffffffffffffffffffffffffffffffff1602179055508173ffffffffffffffffffffffffffffffffffffffff168173ffffffffffffffffffffffffffffffffffffffff167f8be0079c531659141344cd1fd0a4f28419497f9722a3daafe3b4186f6b6457e060405160405180910390a35050565b610d8e610e3a565b6001600060146101000a81548160ff0219169083151502179055507f62e78cea01bee320cd4e420270b5ea74000d11b0c9f74754ebdbfc544b05a258610dd2610de9565b604051610ddf9190611000565b60405180910390a1565b600033905090565b610df96101ce565b610e38576040517f08c379a0000000000000000000000000000000000000000000000000000000008152600401610e2f9061173c565b60405180910390fd5b565b610e426101ce565b15610e82576040517f08c379a0000000000000000000000000000000000000000000000000000000008152600401610e79906117a8565b60405180910390fd5b565b604051806040016040528060008152602001600081525090565b6000819050919050565b610eb181610e9e565b82525050565b6000602082019050610ecc6000830184610ea8565b92915050565b60008115159050919050565b610ee781610ed2565b82525050565b6000602082019050610f026000830184610ede565b92915050565b600080fd5b600073ffffffffffffffffffffffffffffffffffffffff82169050919050565b6000610f3882610f0d565b9050919050565b610f4881610f2d565b8114610f5357600080fd5b50565b600081359050610f6581610f3f565b92915050565b600060208284031215610f8157610f80610f08565b5b6000610f8f84828501610f56565b91505092915050565b610fa181610e9e565b82525050565b604082016000820151610fbd6000850182610f98565b506020820151610fd06020850182610f98565b50505050565b6000604082019050610feb6000830184610fa7565b92915050565b610ffa81610f2d565b82525050565b60006020820190506110156000830184610ff1565b92915050565b61102481610e9e565b811461102f57600080fd5b50565b6000813590506110418161101b565b92915050565b60006020828403121561105d5761105c610f08565b5b600061106b84828501611032565b91505092915050565b600082825260208201905092915050565b7f5468657265206973206e6f2070656e64696e672077696e6e696e677321000000600082015250565b60006110bb601d83611074565b91506110c682611085565b602082019050919050565b600060208201905081810360008301526110ea816110ae565b9050919050565b60006060820190506111066000830186610ff1565b6111136020830185610ea8565b6111206040830184610ff1565b949350505050565b7f4e487b7100000000000000000000000000000000000000000000000000000000600052601160045260246000fd5b600061116282610e9e565b915061116d83610e9e565b9250827fffffffffffffffffffffffffffffffffffffffffffffffffffffffffffffffff038211156111a2576111a1611128565b5b828201905092915050565b60006111b882610e9e565b91506111c383610e9e565b9250828210156111d6576111d5611128565b5b828203905092915050565b6000815190506111f08161101b565b92915050565b60006020828403121561120c5761120b610f08565b5b600061121a848285016111e1565b91505092915050565b600061122e82610e9e565b915061123983610e9e565b9250817fffffffffffffffffffffffffffffffffffffffffffffffffffffffffffffffff048311821515161561127257611271611128565b5b828202905092915050565b7f4f776e61626c653a206e6577206f776e657220697320746865207a65726f206160008201527f6464726573730000000000000000000000000000000000000000000000000000602082015250565b60006112d9602683611074565b91506112e48261127d565b604082019050919050565b60006020820190508181036000830152611308816112cc565b9050919050565b7f4e487b7100000000000000000000000000000000000000000000000000000000600052601260045260246000fd5b600061134982610e9e565b915061135483610e9e565b9250826113645761136361130f565b5b828206905092915050565b7f54686520616d6f756e74206d7573742062652061206d756c7469706c65206f6660008201527f2035300000000000000000000000000000000000000000000000000000000000602082015250565b60006113cb602383611074565b91506113d68261136f565b604082019050919050565b600060208201905081810360008301526113fa816113be565b9050919050565b7f496e737566666963656e7420616d6f756e74206f662055534443000000000000600082015250565b6000611437601a83611074565b915061144282611401565b602082019050919050565b600060208201905081810360008301526114668161142a565b9050919050565b60006040820190506114826000830185610ff1565b61148f6020830184610ff1565b9392505050565b7f496e73756666696369656e7420616c6c6f776564205553444300000000000000600082015250565b60006114cc601983611074565b91506114d782611496565b602082019050919050565b600060208201905081810360008301526114fb816114bf565b9050919050565b600061150d82610e9e565b915061151883610e9e565b9250826115285761152761130f565b5b828204905092915050565b60006060820190506115486000830186610ff1565b6115556020830185610ff1565b6115626040830184610ea8565b949350505050565b61157381610ed2565b811461157e57600080fd5b50565b6000815190506115908161156a565b92915050565b6000602082840312156115ac576115ab610f08565b5b60006115ba84828501611581565b91505092915050565b60006040820190506115d86000830185610ff1565b6115e56020830184610ea8565b9392505050565b6000819050919050565b600061ffff82169050919050565b6000819050919050565b600061162961162461161f846115ec565b611604565b6115f6565b9050919050565b6116398161160e565b82525050565b60006080820190506116546000830187610ff1565b6116616020830186610ea8565b61166e6040830185610ff1565b61167b6060830184611630565b95945050505050565b7f4f776e61626c653a2063616c6c6572206973206e6f7420746865206f776e6572600082015250565b60006116ba602083611074565b91506116c582611684565b602082019050919050565b600060208201905081810360008301526116e9816116ad565b9050919050565b7f5061757361626c653a206e6f7420706175736564000000000000000000000000600082015250565b6000611726601483611074565b9150611731826116f0565b602082019050919050565b6000602082019050818103600083015261175581611719565b9050919050565b7f5061757361626c653a2070617573656400000000000000000000000000000000600082015250565b6000611792601083611074565b915061179d8261175c565b602082019050919050565b600060208201905081810360008301526117c181611785565b905091905056fea264697066735822122066d1deb2ad09197515b2a97ab41b6b2fe16a0d0b0d3560f9d23bb3333d00de0864736f6c634300080f0033",
  "linkReferences": {},
  "deployedLinkReferences": {}
}