{
  "_format": "hh-sol-artifact-1",
  "contractName": "IpPool",
  "sourceName": "contracts/IpPool.sol",
  "abi": [
    {
      "inputs": [],
      "stateMutability": "nonpayable",
      "type": "constructor"
    },
    {
      "anonymous": false,
      "inputs": [
        {
          "indexed": true,
          "internalType": "address",
          "name": "previousOwner",
          "type": "address"
        },
        {
          "indexed": true,
          "internalType": "address",
          "name": "newOwner",
          "type": "address"
        }
      ],
      "name": "OwnershipTransferred",
      "type": "event"
    },
    {
      "anonymous": false,
      "inputs": [
        {
          "indexed": false,
          "internalType": "address",
          "name": "account",
          "type": "address"
        }
      ],
      "name": "Paused",
      "type": "event"
    },
    {
      "anonymous": false,
      "inputs": [
        {
          "indexed": false,
          "internalType": "address",
          "name": "account",
          "type": "address"
        }
      ],
      "name": "Unpaused",
      "type": "event"
    },
    {
      "inputs": [
        {
          "internalType": "address",
          "name": "_player",
          "type": "address"
        }
      ],
      "name": "claimFromPool",
      "outputs": [],
      "stateMutability": "nonpayable",
      "type": "function"
    },
    {
      "inputs": [
        {
          "internalType": "uint256",
          "name": "_amount",
          "type": "uint256"
        },
        {
          "internalType": "address",
          "name": "_player",
          "type": "address"
        }
      ],
      "name": "depositOnAave",
      "outputs": [],
      "stateMutability": "nonpayable",
      "type": "function"
    },
    {
      "inputs": [],
      "name": "getGlobalPendingWinnings",
      "outputs": [
        {
          "internalType": "uint256",
          "name": "",
          "type": "uint256"
        }
      ],
      "stateMutability": "view",
      "type": "function"
    },
    {
      "inputs": [],
      "name": "getGlobalPrizePool",
      "outputs": [
        {
          "internalType": "uint256",
          "name": "",
          "type": "uint256"
        }
      ],
      "stateMutability": "view",
      "type": "function"
    },
    {
      "inputs": [
        {
          "internalType": "address",
          "name": "_player",
          "type": "address"
        }
      ],
      "name": "getWinningsPerPlayer",
      "outputs": [
        {
          "internalType": "uint256",
          "name": "",
          "type": "uint256"
        },
        {
          "internalType": "uint256",
          "name": "",
          "type": "uint256"
        }
      ],
      "stateMutability": "view",
      "type": "function"
    },
    {
      "inputs": [],
      "name": "owner",
      "outputs": [
        {
          "internalType": "address",
          "name": "",
          "type": "address"
        }
      ],
      "stateMutability": "view",
      "type": "function"
    },
    {
      "inputs": [],
      "name": "pause",
      "outputs": [],
      "stateMutability": "nonpayable",
      "type": "function"
    },
    {
      "inputs": [],
      "name": "paused",
      "outputs": [
        {
          "internalType": "bool",
          "name": "",
          "type": "bool"
        }
      ],
      "stateMutability": "view",
      "type": "function"
    },
    {
      "inputs": [],
      "name": "renounceOwnership",
      "outputs": [],
      "stateMutability": "nonpayable",
      "type": "function"
    },
    {
      "inputs": [
        {
          "internalType": "address",
          "name": "_interpoolContract",
          "type": "address"
        }
      ],
      "name": "setInterpoolContract",
      "outputs": [],
      "stateMutability": "nonpayable",
      "type": "function"
    },
    {
      "inputs": [
        {
          "internalType": "address",
          "name": "_player",
          "type": "address"
        },
        {
          "internalType": "uint256",
          "name": "_winnings",
          "type": "uint256"
        }
      ],
      "name": "setWinnings",
      "outputs": [],
      "stateMutability": "nonpayable",
      "type": "function"
    },
    {
      "inputs": [
        {
          "internalType": "address",
          "name": "newOwner",
          "type": "address"
        }
      ],
      "name": "transferOwnership",
      "outputs": [],
      "stateMutability": "nonpayable",
      "type": "function"
    },
    {
      "inputs": [],
      "name": "unpause",
      "outputs": [],
      "stateMutability": "nonpayable",
      "type": "function"
    },
    {
      "inputs": [
        {
          "internalType": "uint256",
          "name": "_nbTickets",
          "type": "uint256"
        },
        {
          "internalType": "address",
          "name": "_player",
          "type": "address"
        }
      ],
      "name": "withdrawFromPool",
      "outputs": [],
      "stateMutability": "nonpayable",
      "type": "function"
    }
  ],
  "bytecode": "0x608060405234801561001057600080fd5b5061002d6100226101a860201b60201c565b6101b060201b60201c565b60008060146101000a81548160ff02191690831515021790555073a2025b15a1757311bfd68cb14eaefcc237af5b43600360006101000a81548173ffffffffffffffffffffffffffffffffffffffff021916908373ffffffffffffffffffffffffffffffffffffffff16021790555073368eedf3f56ad10b9bc57eed4dac65b26bb667f6600660006101000a81548173ffffffffffffffffffffffffffffffffffffffff021916908373ffffffffffffffffffffffffffffffffffffffff160217905550731ee669290939f8a8864497af3bc83728715265ff600460006101000a81548173ffffffffffffffffffffffffffffffffffffffff021916908373ffffffffffffffffffffffffffffffffffffffff16021790555073d81e4a61fd6bf066539df6ea48bfaeae847dcda1600560006101000a81548173ffffffffffffffffffffffffffffffffffffffff021916908373ffffffffffffffffffffffffffffffffffffffff1602179055506000600281905550610274565b600033905090565b60008060009054906101000a900473ffffffffffffffffffffffffffffffffffffffff169050816000806101000a81548173ffffffffffffffffffffffffffffffffffffffff021916908373ffffffffffffffffffffffffffffffffffffffff1602179055508173ffffffffffffffffffffffffffffffffffffffff168173ffffffffffffffffffffffffffffffffffffffff167f8be0079c531659141344cd1fd0a4f28419497f9722a3daafe3b4186f6b6457e060405160405180910390a35050565b611ef2806102836000396000f3fe608060405234801561001057600080fd5b50600436106100ea5760003560e01c806371dd88401161008c5780638ad2e864116100665780638ad2e864146101d55780638da5cb5b14610206578063b4ace15814610224578063f2fde38b14610242576100ea565b806371dd8840146101935780637ca5251d146101af5780638456cb59146101cb576100ea565b80633b7f17fb116100c85780633b7f17fb146101435780633f4ba83a146101615780635c975abb1461016b578063715018a614610189576100ea565b8063016fc9d7146100ef5780630de6e3211461010b5780632cbcb1f214610127575b600080fd5b61010960048036038101906101049190611530565b61025e565b005b61012560048036038101906101209190611570565b610802565b005b610141600480360381019061013c9190611530565b610acf565b005b61014b610d9d565b60405161015891906115ac565b60405180910390f35b610169610da7565b005b610173610db9565b60405161018091906115e2565b60405180910390f35b610191610dcf565b005b6101ad60048036038101906101a891906115fd565b610de3565b005b6101c960048036038101906101c49190611570565b610ee9565b005b6101d3610f35565b005b6101ef60048036038101906101ea9190611570565b610f47565b6040516101fd92919061163d565b60405180910390f35b61020e610fd9565b60405161021b9190611675565b60405180910390f35b61022c611002565b60405161023991906115ac565b60405180910390f35b61025c60048036038101906102579190611570565b611172565b005b600760009054906101000a900473ffffffffffffffffffffffffffffffffffffffff1673ffffffffffffffffffffffffffffffffffffffff163373ffffffffffffffffffffffffffffffffffffffff16146102ee576040517f08c379a00000000000000000000000000000000000000000000000000000000081526004016102e5906116ed565b60405180910390fd5b60006032836102fd919061173c565b1461033d576040517f08c379a0000000000000000000000000000000000000000000000000000000008152600401610334906117df565b60405180910390fd5b600360009054906101000a900473ffffffffffffffffffffffffffffffffffffffff1673ffffffffffffffffffffffffffffffffffffffff166370a08231826040518263ffffffff1660e01b81526004016103989190611675565b602060405180830381865afa1580156103b5573d6000803e3d6000fd5b505050506040513d601f19601f820116820180604052508101906103d99190611814565b620f4240836103e89190611870565b1115610429576040517f08c379a000000000000000000000000000000000000000000000000000000000815260040161042090611916565b60405180910390fd5b600360009054906101000a900473ffffffffffffffffffffffffffffffffffffffff1673ffffffffffffffffffffffffffffffffffffffff1663dd62ed3e82306040518363ffffffff1660e01b8152600401610486929190611936565b602060405180830381865afa1580156104a3573d6000803e3d6000fd5b505050506040513d601f19601f820116820180604052508101906104c79190611814565b620f4240836104d69190611870565b1115610517576040517f08c379a000000000000000000000000000000000000000000000000000000000815260040161050e906119ab565b60405180910390fd5b600060328361052691906119cb565b9050600360009054906101000a900473ffffffffffffffffffffffffffffffffffffffff1673ffffffffffffffffffffffffffffffffffffffff166323b872dd8330620f4240876105779190611870565b6040518463ffffffff1660e01b8152600401610595939291906119fc565b6020604051808303816000875af11580156105b4573d6000803e3d6000fd5b505050506040513d601f19601f820116820180604052508101906105d89190611a5f565b50600360009054906101000a900473ffffffffffffffffffffffffffffffffffffffff1673ffffffffffffffffffffffffffffffffffffffff1663095ea7b3600660009054906101000a900473ffffffffffffffffffffffffffffffffffffffff16620f4240866106499190611870565b6040518363ffffffff1660e01b8152600401610666929190611a8c565b6020604051808303816000875af1158015610685573d6000803e3d6000fd5b505050506040513d601f19601f820116820180604052508101906106a99190611a5f565b50600660009054906101000a900473ffffffffffffffffffffffffffffffffffffffff1673ffffffffffffffffffffffffffffffffffffffff1663617ba037600360009054906101000a900473ffffffffffffffffffffffffffffffffffffffff16620f42408661071a9190611870565b3060006040518563ffffffff1660e01b815260040161073c9493929190611b08565b600060405180830381600087803b15801561075657600080fd5b505af115801561076a573d6000803e3d6000fd5b50505050600560009054906101000a900473ffffffffffffffffffffffffffffffffffffffff1673ffffffffffffffffffffffffffffffffffffffff166340c10f1983836040518363ffffffff1660e01b81526004016107cb929190611a8c565b600060405180830381600087803b1580156107e557600080fd5b505af11580156107f9573d6000803e3d6000fd5b50505050505050565b600760009054906101000a900473ffffffffffffffffffffffffffffffffffffffff1673ffffffffffffffffffffffffffffffffffffffff163373ffffffffffffffffffffffffffffffffffffffff1614610892576040517f08c379a0000000000000000000000000000000000000000000000000000000008152600401610889906116ed565b60405180910390fd5b6000600160008373ffffffffffffffffffffffffffffffffffffffff1673ffffffffffffffffffffffffffffffffffffffff1681526020019081526020016000206000015411610917576040517f08c379a000000000000000000000000000000000000000000000000000000000815260040161090e90611b99565b60405180910390fd5b6000600160008373ffffffffffffffffffffffffffffffffffffffff1673ffffffffffffffffffffffffffffffffffffffff168152602001908152602001600020600001549050600660009054906101000a900473ffffffffffffffffffffffffffffffffffffffff1673ffffffffffffffffffffffffffffffffffffffff166369328dec600360009054906101000a900473ffffffffffffffffffffffffffffffffffffffff1683856040518463ffffffff1660e01b81526004016109df93929190611bb9565b600060405180830381600087803b1580156109f957600080fd5b505af1158015610a0d573d6000803e3d6000fd5b505050506000600160008473ffffffffffffffffffffffffffffffffffffffff1673ffffffffffffffffffffffffffffffffffffffff1681526020019081526020016000206000018190555080600160008473ffffffffffffffffffffffffffffffffffffffff1673ffffffffffffffffffffffffffffffffffffffff1681526020019081526020016000206001016000828254610aab9190611bf0565b925050819055508060026000828254610ac49190611c46565b925050819055505050565b600760009054906101000a900473ffffffffffffffffffffffffffffffffffffffff1673ffffffffffffffffffffffffffffffffffffffff163373ffffffffffffffffffffffffffffffffffffffff1614610b5f576040517f08c379a0000000000000000000000000000000000000000000000000000000008152600401610b56906116ed565b60405180910390fd5b81600560009054906101000a900473ffffffffffffffffffffffffffffffffffffffff1673ffffffffffffffffffffffffffffffffffffffff166370a08231836040518263ffffffff1660e01b8152600401610bbb9190611675565b602060405180830381865afa158015610bd8573d6000803e3d6000fd5b505050506040513d601f19601f82011682018060405250810190610bfc9190611814565b1015610c3d576040517f08c379a0000000000000000000000000000000000000000000000000000000008152600401610c3490611cc6565b60405180910390fd5b600560009054906101000a900473ffffffffffffffffffffffffffffffffffffffff1673ffffffffffffffffffffffffffffffffffffffff16639dc29fac82846040518363ffffffff1660e01b8152600401610c9a929190611a8c565b600060405180830381600087803b158015610cb457600080fd5b505af1158015610cc8573d6000803e3d6000fd5b50505050600660009054906101000a900473ffffffffffffffffffffffffffffffffffffffff1673ffffffffffffffffffffffffffffffffffffffff166369328dec600360009054906101000a900473ffffffffffffffffffffffffffffffffffffffff16620f4240603286610d3e9190611870565b610d489190611870565b846040518463ffffffff1660e01b8152600401610d6793929190611bb9565b600060405180830381600087803b158015610d8157600080fd5b505af1158015610d95573d6000803e3d6000fd5b505050505050565b6000600254905090565b610daf6111f5565b610db7611273565b565b60008060149054906101000a900460ff16905090565b610dd76111f5565b610de160006112d5565b565b600760009054906101000a900473ffffffffffffffffffffffffffffffffffffffff1673ffffffffffffffffffffffffffffffffffffffff163373ffffffffffffffffffffffffffffffffffffffff1614610e73576040517f08c379a0000000000000000000000000000000000000000000000000000000008152600401610e6a906116ed565b60405180910390fd5b80600160008473ffffffffffffffffffffffffffffffffffffffff1673ffffffffffffffffffffffffffffffffffffffff1681526020019081526020016000206000016000828254610ec59190611bf0565b925050819055508060026000828254610ede9190611bf0565b925050819055505050565b610ef16111f5565b80600760006101000a81548173ffffffffffffffffffffffffffffffffffffffff021916908373ffffffffffffffffffffffffffffffffffffffff16021790555050565b610f3d6111f5565b610f45611399565b565b600080600160008473ffffffffffffffffffffffffffffffffffffffff1673ffffffffffffffffffffffffffffffffffffffff16815260200190815260200160002060000154600160008573ffffffffffffffffffffffffffffffffffffffff1673ffffffffffffffffffffffffffffffffffffffff1681526020019081526020016000206001015491509150915091565b60008060009054906101000a900473ffffffffffffffffffffffffffffffffffffffff16905090565b600080600460009054906101000a900473ffffffffffffffffffffffffffffffffffffffff1673ffffffffffffffffffffffffffffffffffffffff166370a08231306040518263ffffffff1660e01b81526004016110609190611675565b602060405180830381865afa15801561107d573d6000803e3d6000fd5b505050506040513d601f19601f820116820180604052508101906110a19190611814565b90506000620f42406032600560009054906101000a900473ffffffffffffffffffffffffffffffffffffffff1673ffffffffffffffffffffffffffffffffffffffff166318160ddd6040518163ffffffff1660e01b8152600401602060405180830381865afa158015611118573d6000803e3d6000fd5b505050506040513d601f19601f8201168201806040525081019061113c9190611814565b6111469190611870565b6111509190611870565b905060025481836111619190611c46565b61116b9190611c46565b9250505090565b61117a6111f5565b600073ffffffffffffffffffffffffffffffffffffffff168173ffffffffffffffffffffffffffffffffffffffff16036111e9576040517f08c379a00000000000000000000000000000000000000000000000000000000081526004016111e090611d58565b60405180910390fd5b6111f2816112d5565b50565b6111fd6113fc565b73ffffffffffffffffffffffffffffffffffffffff1661121b610fd9565b73ffffffffffffffffffffffffffffffffffffffff1614611271576040517f08c379a000000000000000000000000000000000000000000000000000000000815260040161126890611dc4565b60405180910390fd5b565b61127b611404565b60008060146101000a81548160ff0219169083151502179055507f5db9ee0a495bf2e6ff9c91a7834c1ba4fdd244a5e8aa4e537bd38aeae4b073aa6112be6113fc565b6040516112cb9190611675565b60405180910390a1565b60008060009054906101000a900473ffffffffffffffffffffffffffffffffffffffff169050816000806101000a81548173ffffffffffffffffffffffffffffffffffffffff021916908373ffffffffffffffffffffffffffffffffffffffff1602179055508173ffffffffffffffffffffffffffffffffffffffff168173ffffffffffffffffffffffffffffffffffffffff167f8be0079c531659141344cd1fd0a4f28419497f9722a3daafe3b4186f6b6457e060405160405180910390a35050565b6113a161144d565b6001600060146101000a81548160ff0219169083151502179055507f62e78cea01bee320cd4e420270b5ea74000d11b0c9f74754ebdbfc544b05a2586113e56113fc565b6040516113f29190611675565b60405180910390a1565b600033905090565b61140c610db9565b61144b576040517f08c379a000000000000000000000000000000000000000000000000000000000815260040161144290611e30565b60405180910390fd5b565b611455610db9565b15611495576040517f08c379a000000000000000000000000000000000000000000000000000000000815260040161148c90611e9c565b60405180910390fd5b565b600080fd5b6000819050919050565b6114af8161149c565b81146114ba57600080fd5b50565b6000813590506114cc816114a6565b92915050565b600073ffffffffffffffffffffffffffffffffffffffff82169050919050565b60006114fd826114d2565b9050919050565b61150d816114f2565b811461151857600080fd5b50565b60008135905061152a81611504565b92915050565b6000806040838503121561154757611546611497565b5b6000611555858286016114bd565b92505060206115668582860161151b565b9150509250929050565b60006020828403121561158657611585611497565b5b60006115948482850161151b565b91505092915050565b6115a68161149c565b82525050565b60006020820190506115c1600083018461159d565b92915050565b60008115159050919050565b6115dc816115c7565b82525050565b60006020820190506115f760008301846115d3565b92915050565b6000806040838503121561161457611613611497565b5b60006116228582860161151b565b9250506020611633858286016114bd565b9150509250929050565b6000604082019050611652600083018561159d565b61165f602083018461159d565b9392505050565b61166f816114f2565b82525050565b600060208201905061168a6000830184611666565b92915050565b600082825260208201905092915050565b7f4e6f7420616c6c6f776564210000000000000000000000000000000000000000600082015250565b60006116d7600c83611690565b91506116e2826116a1565b602082019050919050565b60006020820190508181036000830152611706816116ca565b9050919050565b7f4e487b7100000000000000000000000000000000000000000000000000000000600052601260045260246000fd5b60006117478261149c565b91506117528361149c565b9250826117625761176161170d565b5b828206905092915050565b7f54686520616d6f756e74206d7573742062652061206d756c7469706c65206f6660008201527f2035300000000000000000000000000000000000000000000000000000000000602082015250565b60006117c9602383611690565b91506117d48261176d565b604082019050919050565b600060208201905081810360008301526117f8816117bc565b9050919050565b60008151905061180e816114a6565b92915050565b60006020828403121561182a57611829611497565b5b6000611838848285016117ff565b91505092915050565b7f4e487b7100000000000000000000000000000000000000000000000000000000600052601160045260246000fd5b600061187b8261149c565b91506118868361149c565b9250817fffffffffffffffffffffffffffffffffffffffffffffffffffffffffffffffff04831182151516156118bf576118be611841565b5b828202905092915050565b7f496e737566666963656e7420616d6f756e74206f662055534443000000000000600082015250565b6000611900601a83611690565b915061190b826118ca565b602082019050919050565b6000602082019050818103600083015261192f816118f3565b9050919050565b600060408201905061194b6000830185611666565b6119586020830184611666565b9392505050565b7f496e73756666696369656e7420616c6c6f776564205553444300000000000000600082015250565b6000611995601983611690565b91506119a08261195f565b602082019050919050565b600060208201905081810360008301526119c481611988565b9050919050565b60006119d68261149c565b91506119e18361149c565b9250826119f1576119f061170d565b5b828204905092915050565b6000606082019050611a116000830186611666565b611a1e6020830185611666565b611a2b604083018461159d565b949350505050565b611a3c816115c7565b8114611a4757600080fd5b50565b600081519050611a5981611a33565b92915050565b600060208284031215611a7557611a74611497565b5b6000611a8384828501611a4a565b91505092915050565b6000604082019050611aa16000830185611666565b611aae602083018461159d565b9392505050565b6000819050919050565b600061ffff82169050919050565b6000819050919050565b6000611af2611aed611ae884611ab5565b611acd565b611abf565b9050919050565b611b0281611ad7565b82525050565b6000608082019050611b1d6000830187611666565b611b2a602083018661159d565b611b376040830185611666565b611b446060830184611af9565b95945050505050565b7f5468657265206973206e6f2070656e64696e672077696e6e696e677321000000600082015250565b6000611b83601d83611690565b9150611b8e82611b4d565b602082019050919050565b60006020820190508181036000830152611bb281611b76565b9050919050565b6000606082019050611bce6000830186611666565b611bdb602083018561159d565b611be86040830184611666565b949350505050565b6000611bfb8261149c565b9150611c068361149c565b9250827fffffffffffffffffffffffffffffffffffffffffffffffffffffffffffffffff03821115611c3b57611c3a611841565b5b828201905092915050565b6000611c518261149c565b9150611c5c8361149c565b925082821015611c6f57611c6e611841565b5b828203905092915050565b7f596f7520646f6e2774206861766520656e6f756768207469636b657473210000600082015250565b6000611cb0601e83611690565b9150611cbb82611c7a565b602082019050919050565b60006020820190508181036000830152611cdf81611ca3565b9050919050565b7f4f776e61626c653a206e6577206f776e657220697320746865207a65726f206160008201527f6464726573730000000000000000000000000000000000000000000000000000602082015250565b6000611d42602683611690565b9150611d4d82611ce6565b604082019050919050565b60006020820190508181036000830152611d7181611d35565b9050919050565b7f4f776e61626c653a2063616c6c6572206973206e6f7420746865206f776e6572600082015250565b6000611dae602083611690565b9150611db982611d78565b602082019050919050565b60006020820190508181036000830152611ddd81611da1565b9050919050565b7f5061757361626c653a206e6f7420706175736564000000000000000000000000600082015250565b6000611e1a601483611690565b9150611e2582611de4565b602082019050919050565b60006020820190508181036000830152611e4981611e0d565b9050919050565b7f5061757361626c653a2070617573656400000000000000000000000000000000600082015250565b6000611e86601083611690565b9150611e9182611e50565b602082019050919050565b60006020820190508181036000830152611eb581611e79565b905091905056fea26469706673582212205afc5df109a98bd53e7705aca5895c56af91a6bd1432043eb7fe0c14468a2f4264736f6c634300080f0033",
  "linkReferences": {},
  "deployedLinkReferences": {}
}