{
  "_format": "hh-sol-artifact-1",
  "contractName": "IpPool",
  "sourceName": "contracts/IpPool.sol",
  "abi": [
    {
      "inputs": [],
      "stateMutability": "nonpayable",
      "type": "constructor"
    },
    {
      "anonymous": false,
      "inputs": [
        {
          "indexed": true,
          "internalType": "address",
          "name": "previousOwner",
          "type": "address"
        },
        {
          "indexed": true,
          "internalType": "address",
          "name": "newOwner",
          "type": "address"
        }
      ],
      "name": "OwnershipTransferred",
      "type": "event"
    },
    {
      "anonymous": false,
      "inputs": [
        {
          "indexed": false,
          "internalType": "address",
          "name": "account",
          "type": "address"
        }
      ],
      "name": "Paused",
      "type": "event"
    },
    {
      "anonymous": false,
      "inputs": [
        {
          "indexed": false,
          "internalType": "address",
          "name": "account",
          "type": "address"
        }
      ],
      "name": "Unpaused",
      "type": "event"
    },
    {
      "inputs": [],
      "name": "claimFromInterpool",
      "outputs": [],
      "stateMutability": "nonpayable",
      "type": "function"
    },
    {
      "inputs": [
        {
          "internalType": "uint256",
          "name": "_amount",
          "type": "uint256"
        }
      ],
      "name": "depositOnAave",
      "outputs": [],
      "stateMutability": "nonpayable",
      "type": "function"
    },
    {
      "inputs": [],
      "name": "getGlobalPrizePool",
      "outputs": [
        {
          "internalType": "uint256",
          "name": "",
          "type": "uint256"
        }
      ],
      "stateMutability": "view",
      "type": "function"
    },
    {
      "inputs": [
        {
          "internalType": "address",
          "name": "_player",
          "type": "address"
        }
      ],
      "name": "getWinningsPerPlayer",
      "outputs": [
        {
          "components": [
            {
              "internalType": "uint256",
              "name": "pendingWinnings",
              "type": "uint256"
            },
            {
              "internalType": "uint256",
              "name": "claimedWinnings",
              "type": "uint256"
            }
          ],
          "internalType": "struct IpPool.Winnings",
          "name": "",
          "type": "tuple"
        }
      ],
      "stateMutability": "view",
      "type": "function"
    },
    {
      "inputs": [],
      "name": "globalPendingWinnings",
      "outputs": [
        {
          "internalType": "uint256",
          "name": "",
          "type": "uint256"
        }
      ],
      "stateMutability": "view",
      "type": "function"
    },
    {
      "inputs": [],
      "name": "owner",
      "outputs": [
        {
          "internalType": "address",
          "name": "",
          "type": "address"
        }
      ],
      "stateMutability": "view",
      "type": "function"
    },
    {
      "inputs": [],
      "name": "pause",
      "outputs": [],
      "stateMutability": "nonpayable",
      "type": "function"
    },
    {
      "inputs": [],
      "name": "paused",
      "outputs": [
        {
          "internalType": "bool",
          "name": "",
          "type": "bool"
        }
      ],
      "stateMutability": "view",
      "type": "function"
    },
    {
      "inputs": [],
      "name": "renounceOwnership",
      "outputs": [],
      "stateMutability": "nonpayable",
      "type": "function"
    },
    {
      "inputs": [
        {
          "internalType": "address",
          "name": "newOwner",
          "type": "address"
        }
      ],
      "name": "transferOwnership",
      "outputs": [],
      "stateMutability": "nonpayable",
      "type": "function"
    },
    {
      "inputs": [],
      "name": "unpause",
      "outputs": [],
      "stateMutability": "nonpayable",
      "type": "function"
    },
    {
      "inputs": [
        {
          "internalType": "address",
          "name": "",
          "type": "address"
        }
      ],
      "name": "winningsPerPlayer",
      "outputs": [
        {
          "internalType": "uint256",
          "name": "pendingWinnings",
          "type": "uint256"
        },
        {
          "internalType": "uint256",
          "name": "claimedWinnings",
          "type": "uint256"
        }
      ],
      "stateMutability": "view",
      "type": "function"
    },
    {
      "inputs": [
        {
          "internalType": "uint256",
          "name": "_nbTickets",
          "type": "uint256"
        }
      ],
      "name": "withdrawFromInterpool",
      "outputs": [],
      "stateMutability": "nonpayable",
      "type": "function"
    }
  ],
  "bytecode": "0x608060405234801561001057600080fd5b5061002d6100226101a860201b60201c565b6101b060201b60201c565b60008060146101000a81548160ff02191690831515021790555073a2025b15a1757311bfd68cb14eaefcc237af5b43600360006101000a81548173ffffffffffffffffffffffffffffffffffffffff021916908373ffffffffffffffffffffffffffffffffffffffff16021790555073368eedf3f56ad10b9bc57eed4dac65b26bb667f6600660006101000a81548173ffffffffffffffffffffffffffffffffffffffff021916908373ffffffffffffffffffffffffffffffffffffffff160217905550731ee669290939f8a8864497af3bc83728715265ff600460006101000a81548173ffffffffffffffffffffffffffffffffffffffff021916908373ffffffffffffffffffffffffffffffffffffffff16021790555073d81e4a61fd6bf066539df6ea48bfaeae847dcda1600560006101000a81548173ffffffffffffffffffffffffffffffffffffffff021916908373ffffffffffffffffffffffffffffffffffffffff1602179055506000600281905550610274565b600033905090565b60008060009054906101000a900473ffffffffffffffffffffffffffffffffffffffff169050816000806101000a81548173ffffffffffffffffffffffffffffffffffffffff021916908373ffffffffffffffffffffffffffffffffffffffff1602179055508173ffffffffffffffffffffffffffffffffffffffff168173ffffffffffffffffffffffffffffffffffffffff167f8be0079c531659141344cd1fd0a4f28419497f9722a3daafe3b4186f6b6457e060405160405180910390a35050565b611b75806102836000396000f3fe608060405234801561001057600080fd5b50600436106100cf5760003560e01c80638456cb591161008c578063b4ace15811610066578063b4ace158146101b7578063c014cbb4146101d5578063f2fde38b146101f1578063fd8d19091461020d576100cf565b80638456cb591461015f5780638ad2e864146101695780638da5cb5b14610199576100cf565b806315ccbe53146100d45780633f4ba83a14610105578063419441751461010f5780635c975abb1461012d5780636711c5301461014b578063715018a614610155575b600080fd5b6100ee60048036038101906100e991906111e3565b610229565b6040516100fc929190611229565b60405180910390f35b61010d61024d565b005b61011761025f565b6040516101249190611252565b60405180910390f35b610135610265565b6040516101429190611288565b60405180910390f35b61015361027b565b005b61015d6104c5565b005b6101676104d9565b005b610183600480360381019061017e91906111e3565b6104eb565b60405161019091906112e1565b60405180910390f35b6101a1610558565b6040516101ae919061130b565b60405180910390f35b6101bf610581565b6040516101cc9190611252565b60405180910390f35b6101ef60048036038101906101ea9190611352565b6106f1565b005b61020b600480360381019061020691906111e3565b61092e565b005b61022760048036038101906102229190611352565b6109b1565b005b60016020528060005260406000206000915090508060000154908060010154905082565b610255610ec4565b61025d610f42565b565b60025481565b60008060149054906101000a900460ff16905090565b6000600160003373ffffffffffffffffffffffffffffffffffffffff1673ffffffffffffffffffffffffffffffffffffffff1681526020019081526020016000206000015411610300576040517f08c379a00000000000000000000000000000000000000000000000000000000081526004016102f7906113dc565b60405180910390fd5b6000600160003373ffffffffffffffffffffffffffffffffffffffff1673ffffffffffffffffffffffffffffffffffffffff168152602001908152602001600020600001549050600660009054906101000a900473ffffffffffffffffffffffffffffffffffffffff1673ffffffffffffffffffffffffffffffffffffffff166369328dec600360009054906101000a900473ffffffffffffffffffffffffffffffffffffffff16620f4240846103b7919061142b565b336040518463ffffffff1660e01b81526004016103d693929190611485565b600060405180830381600087803b1580156103f057600080fd5b505af1158015610404573d6000803e3d6000fd5b505050506000600160003373ffffffffffffffffffffffffffffffffffffffff1673ffffffffffffffffffffffffffffffffffffffff1681526020019081526020016000206000018190555080600160003373ffffffffffffffffffffffffffffffffffffffff1673ffffffffffffffffffffffffffffffffffffffff16815260200190815260200160002060010160008282546104a291906114bc565b9250508190555080600260008282546104bb9190611512565b9250508190555050565b6104cd610ec4565b6104d76000610fa4565b565b6104e1610ec4565b6104e9611068565b565b6104f3611166565b600160008373ffffffffffffffffffffffffffffffffffffffff1673ffffffffffffffffffffffffffffffffffffffff168152602001908152602001600020604051806040016040529081600082015481526020016001820154815250509050919050565b60008060009054906101000a900473ffffffffffffffffffffffffffffffffffffffff16905090565b600080600460009054906101000a900473ffffffffffffffffffffffffffffffffffffffff1673ffffffffffffffffffffffffffffffffffffffff166370a08231306040518263ffffffff1660e01b81526004016105df919061130b565b602060405180830381865afa1580156105fc573d6000803e3d6000fd5b505050506040513d601f19601f82011682018060405250810190610620919061155b565b90506000620f42406032600560009054906101000a900473ffffffffffffffffffffffffffffffffffffffff1673ffffffffffffffffffffffffffffffffffffffff166318160ddd6040518163ffffffff1660e01b8152600401602060405180830381865afa158015610697573d6000803e3d6000fd5b505050506040513d601f19601f820116820180604052508101906106bb919061155b565b6106c5919061142b565b6106cf919061142b565b905060025481836106e09190611512565b6106ea9190611512565b9250505090565b80600560009054906101000a900473ffffffffffffffffffffffffffffffffffffffff1673ffffffffffffffffffffffffffffffffffffffff166370a08231336040518263ffffffff1660e01b815260040161074d919061130b565b602060405180830381865afa15801561076a573d6000803e3d6000fd5b505050506040513d601f19601f8201168201806040525081019061078e919061155b565b10156107cf576040517f08c379a00000000000000000000000000000000000000000000000000000000081526004016107c6906115d4565b60405180910390fd5b600560009054906101000a900473ffffffffffffffffffffffffffffffffffffffff1673ffffffffffffffffffffffffffffffffffffffff16639dc29fac33836040518363ffffffff1660e01b815260040161082c9291906115f4565b600060405180830381600087803b15801561084657600080fd5b505af115801561085a573d6000803e3d6000fd5b50505050600660009054906101000a900473ffffffffffffffffffffffffffffffffffffffff1673ffffffffffffffffffffffffffffffffffffffff166369328dec600360009054906101000a900473ffffffffffffffffffffffffffffffffffffffff16620f42406032856108d0919061142b565b6108da919061142b565b336040518463ffffffff1660e01b81526004016108f993929190611485565b600060405180830381600087803b15801561091357600080fd5b505af1158015610927573d6000803e3d6000fd5b5050505050565b610936610ec4565b600073ffffffffffffffffffffffffffffffffffffffff168173ffffffffffffffffffffffffffffffffffffffff16036109a5576040517f08c379a000000000000000000000000000000000000000000000000000000000815260040161099c9061168f565b60405180910390fd5b6109ae81610fa4565b50565b60006032826109c091906116de565b14610a00576040517f08c379a00000000000000000000000000000000000000000000000000000000081526004016109f790611781565b60405180910390fd5b600360009054906101000a900473ffffffffffffffffffffffffffffffffffffffff1673ffffffffffffffffffffffffffffffffffffffff166370a08231336040518263ffffffff1660e01b8152600401610a5b919061130b565b602060405180830381865afa158015610a78573d6000803e3d6000fd5b505050506040513d601f19601f82011682018060405250810190610a9c919061155b565b620f424082610aab919061142b565b1115610aec576040517f08c379a0000000000000000000000000000000000000000000000000000000008152600401610ae3906117ed565b60405180910390fd5b600360009054906101000a900473ffffffffffffffffffffffffffffffffffffffff1673ffffffffffffffffffffffffffffffffffffffff1663dd62ed3e33306040518363ffffffff1660e01b8152600401610b4992919061180d565b602060405180830381865afa158015610b66573d6000803e3d6000fd5b505050506040513d601f19601f82011682018060405250810190610b8a919061155b565b620f424082610b99919061142b565b1115610bda576040517f08c379a0000000000000000000000000000000000000000000000000000000008152600401610bd190611882565b60405180910390fd5b6000603282610be991906118a2565b9050600360009054906101000a900473ffffffffffffffffffffffffffffffffffffffff1673ffffffffffffffffffffffffffffffffffffffff166323b872dd3330620f424086610c3a919061142b565b6040518463ffffffff1660e01b8152600401610c58939291906118d3565b6020604051808303816000875af1158015610c77573d6000803e3d6000fd5b505050506040513d601f19601f82011682018060405250810190610c9b9190611936565b50600360009054906101000a900473ffffffffffffffffffffffffffffffffffffffff1673ffffffffffffffffffffffffffffffffffffffff1663095ea7b3600660009054906101000a900473ffffffffffffffffffffffffffffffffffffffff16620f424085610d0c919061142b565b6040518363ffffffff1660e01b8152600401610d299291906115f4565b6020604051808303816000875af1158015610d48573d6000803e3d6000fd5b505050506040513d601f19601f82011682018060405250810190610d6c9190611936565b50600660009054906101000a900473ffffffffffffffffffffffffffffffffffffffff1673ffffffffffffffffffffffffffffffffffffffff1663617ba037600360009054906101000a900473ffffffffffffffffffffffffffffffffffffffff16620f424085610ddd919061142b565b3060006040518563ffffffff1660e01b8152600401610dff94939291906119b6565b600060405180830381600087803b158015610e1957600080fd5b505af1158015610e2d573d6000803e3d6000fd5b50505050600560009054906101000a900473ffffffffffffffffffffffffffffffffffffffff1673ffffffffffffffffffffffffffffffffffffffff166340c10f1933836040518363ffffffff1660e01b8152600401610e8e9291906115f4565b600060405180830381600087803b158015610ea857600080fd5b505af1158015610ebc573d6000803e3d6000fd5b505050505050565b610ecc6110cb565b73ffffffffffffffffffffffffffffffffffffffff16610eea610558565b73ffffffffffffffffffffffffffffffffffffffff1614610f40576040517f08c379a0000000000000000000000000000000000000000000000000000000008152600401610f3790611a47565b60405180910390fd5b565b610f4a6110d3565b60008060146101000a81548160ff0219169083151502179055507f5db9ee0a495bf2e6ff9c91a7834c1ba4fdd244a5e8aa4e537bd38aeae4b073aa610f8d6110cb565b604051610f9a919061130b565b60405180910390a1565b60008060009054906101000a900473ffffffffffffffffffffffffffffffffffffffff169050816000806101000a81548173ffffffffffffffffffffffffffffffffffffffff021916908373ffffffffffffffffffffffffffffffffffffffff1602179055508173ffffffffffffffffffffffffffffffffffffffff168173ffffffffffffffffffffffffffffffffffffffff167f8be0079c531659141344cd1fd0a4f28419497f9722a3daafe3b4186f6b6457e060405160405180910390a35050565b61107061111c565b6001600060146101000a81548160ff0219169083151502179055507f62e78cea01bee320cd4e420270b5ea74000d11b0c9f74754ebdbfc544b05a2586110b46110cb565b6040516110c1919061130b565b60405180910390a1565b600033905090565b6110db610265565b61111a576040517f08c379a000000000000000000000000000000000000000000000000000000000815260040161111190611ab3565b60405180910390fd5b565b611124610265565b15611164576040517f08c379a000000000000000000000000000000000000000000000000000000000815260040161115b90611b1f565b60405180910390fd5b565b604051806040016040528060008152602001600081525090565b600080fd5b600073ffffffffffffffffffffffffffffffffffffffff82169050919050565b60006111b082611185565b9050919050565b6111c0816111a5565b81146111cb57600080fd5b50565b6000813590506111dd816111b7565b92915050565b6000602082840312156111f9576111f8611180565b5b6000611207848285016111ce565b91505092915050565b6000819050919050565b61122381611210565b82525050565b600060408201905061123e600083018561121a565b61124b602083018461121a565b9392505050565b6000602082019050611267600083018461121a565b92915050565b60008115159050919050565b6112828161126d565b82525050565b600060208201905061129d6000830184611279565b92915050565b6112ac81611210565b82525050565b6040820160008201516112c860008501826112a3565b5060208201516112db60208501826112a3565b50505050565b60006040820190506112f660008301846112b2565b92915050565b611305816111a5565b82525050565b600060208201905061132060008301846112fc565b92915050565b61132f81611210565b811461133a57600080fd5b50565b60008135905061134c81611326565b92915050565b60006020828403121561136857611367611180565b5b60006113768482850161133d565b91505092915050565b600082825260208201905092915050565b7f5468657265206973206e6f2070656e64696e672077696e6e696e677321000000600082015250565b60006113c6601d8361137f565b91506113d182611390565b602082019050919050565b600060208201905081810360008301526113f5816113b9565b9050919050565b7f4e487b7100000000000000000000000000000000000000000000000000000000600052601160045260246000fd5b600061143682611210565b915061144183611210565b9250817fffffffffffffffffffffffffffffffffffffffffffffffffffffffffffffffff048311821515161561147a576114796113fc565b5b828202905092915050565b600060608201905061149a60008301866112fc565b6114a7602083018561121a565b6114b460408301846112fc565b949350505050565b60006114c782611210565b91506114d283611210565b9250827fffffffffffffffffffffffffffffffffffffffffffffffffffffffffffffffff03821115611507576115066113fc565b5b828201905092915050565b600061151d82611210565b915061152883611210565b92508282101561153b5761153a6113fc565b5b828203905092915050565b60008151905061155581611326565b92915050565b60006020828403121561157157611570611180565b5b600061157f84828501611546565b91505092915050565b7f596f7520646f6e2774206861766520656e6f756768207469636b657473210000600082015250565b60006115be601e8361137f565b91506115c982611588565b602082019050919050565b600060208201905081810360008301526115ed816115b1565b9050919050565b600060408201905061160960008301856112fc565b611616602083018461121a565b9392505050565b7f4f776e61626c653a206e6577206f776e657220697320746865207a65726f206160008201527f6464726573730000000000000000000000000000000000000000000000000000602082015250565b600061167960268361137f565b91506116848261161d565b604082019050919050565b600060208201905081810360008301526116a88161166c565b9050919050565b7f4e487b7100000000000000000000000000000000000000000000000000000000600052601260045260246000fd5b60006116e982611210565b91506116f483611210565b925082611704576117036116af565b5b828206905092915050565b7f54686520616d6f756e74206d7573742062652061206d756c7469706c65206f6660008201527f2035300000000000000000000000000000000000000000000000000000000000602082015250565b600061176b60238361137f565b91506117768261170f565b604082019050919050565b6000602082019050818103600083015261179a8161175e565b9050919050565b7f496e737566666963656e7420616d6f756e74206f662055534443000000000000600082015250565b60006117d7601a8361137f565b91506117e2826117a1565b602082019050919050565b60006020820190508181036000830152611806816117ca565b9050919050565b600060408201905061182260008301856112fc565b61182f60208301846112fc565b9392505050565b7f496e73756666696369656e7420616c6c6f776564205553444300000000000000600082015250565b600061186c60198361137f565b915061187782611836565b602082019050919050565b6000602082019050818103600083015261189b8161185f565b9050919050565b60006118ad82611210565b91506118b883611210565b9250826118c8576118c76116af565b5b828204905092915050565b60006060820190506118e860008301866112fc565b6118f560208301856112fc565b611902604083018461121a565b949350505050565b6119138161126d565b811461191e57600080fd5b50565b6000815190506119308161190a565b92915050565b60006020828403121561194c5761194b611180565b5b600061195a84828501611921565b91505092915050565b6000819050919050565b600061ffff82169050919050565b6000819050919050565b60006119a061199b61199684611963565b61197b565b61196d565b9050919050565b6119b081611985565b82525050565b60006080820190506119cb60008301876112fc565b6119d8602083018661121a565b6119e560408301856112fc565b6119f260608301846119a7565b95945050505050565b7f4f776e61626c653a2063616c6c6572206973206e6f7420746865206f776e6572600082015250565b6000611a3160208361137f565b9150611a3c826119fb565b602082019050919050565b60006020820190508181036000830152611a6081611a24565b9050919050565b7f5061757361626c653a206e6f7420706175736564000000000000000000000000600082015250565b6000611a9d60148361137f565b9150611aa882611a67565b602082019050919050565b60006020820190508181036000830152611acc81611a90565b9050919050565b7f5061757361626c653a2070617573656400000000000000000000000000000000600082015250565b6000611b0960108361137f565b9150611b1482611ad3565b602082019050919050565b60006020820190508181036000830152611b3881611afc565b905091905056fea2646970667358221220b510dcf5ea9f35979dfb719fc91d9eaaa20cf7e11fd37cf1a1dc0265a173b56a64736f6c634300080f0033",
  "linkReferences": {},
  "deployedLinkReferences": {}
}