{
  "_format": "hh-sol-artifact-1",
  "contractName": "IpFakeEnetScorev2",
  "sourceName": "contracts/IpFakeEnetScorev2.sol",
  "abi": [
    {
      "inputs": [
        {
          "internalType": "string",
          "name": "_requestId",
          "type": "string"
        },
        {
          "components": [
            {
              "internalType": "uint32",
              "name": "gameId",
              "type": "uint32"
            },
            {
              "internalType": "uint40",
              "name": "startTime",
              "type": "uint40"
            },
            {
              "internalType": "string",
              "name": "homeTeam",
              "type": "string"
            },
            {
              "internalType": "string",
              "name": "awayTeam",
              "type": "string"
            }
          ],
          "internalType": "struct IpFakeEnetScorev2.GameCreate[]",
          "name": "_fakeGameCreate",
          "type": "tuple[]"
        }
      ],
      "name": "fakeGameCreate",
      "outputs": [],
      "stateMutability": "nonpayable",
      "type": "function"
    },
    {
      "inputs": [
        {
          "internalType": "uint32",
          "name": "",
          "type": "uint32"
        }
      ],
      "name": "gamePlayed",
      "outputs": [
        {
          "internalType": "bool",
          "name": "",
          "type": "bool"
        }
      ],
      "stateMutability": "view",
      "type": "function"
    },
    {
      "inputs": [
        {
          "internalType": "string",
          "name": "_requestId",
          "type": "string"
        },
        {
          "internalType": "uint256",
          "name": "_idx",
          "type": "uint256"
        }
      ],
      "name": "getGameCreate",
      "outputs": [
        {
          "components": [
            {
              "internalType": "uint32",
              "name": "gameId",
              "type": "uint32"
            },
            {
              "internalType": "uint40",
              "name": "startTime",
              "type": "uint40"
            },
            {
              "internalType": "string",
              "name": "homeTeam",
              "type": "string"
            },
            {
              "internalType": "string",
              "name": "awayTeam",
              "type": "string"
            }
          ],
          "internalType": "struct IpFakeEnetScorev2.GameCreate",
          "name": "",
          "type": "tuple"
        }
      ],
      "stateMutability": "view",
      "type": "function"
    },
    {
      "inputs": [
        {
          "internalType": "uint32",
          "name": "_gameId",
          "type": "uint32"
        }
      ],
      "name": "getGamePlayed",
      "outputs": [
        {
          "internalType": "bool",
          "name": "",
          "type": "bool"
        }
      ],
      "stateMutability": "view",
      "type": "function"
    },
    {
      "inputs": [
        {
          "components": [
            {
              "internalType": "uint32",
              "name": "gameId",
              "type": "uint32"
            },
            {
              "internalType": "uint8",
              "name": "homeScore",
              "type": "uint8"
            },
            {
              "internalType": "uint8",
              "name": "awayScore",
              "type": "uint8"
            },
            {
              "internalType": "string",
              "name": "status",
              "type": "string"
            }
          ],
          "internalType": "struct IpFakeEnetScorev2.GameResolve[]",
          "name": "_fakeGameResolve",
          "type": "tuple[]"
        }
      ],
      "name": "getGameResolve",
      "outputs": [],
      "stateMutability": "nonpayable",
      "type": "function"
    },
    {
      "inputs": [
        {
          "internalType": "string",
          "name": "_requestId",
          "type": "string"
        }
      ],
      "name": "getNumberOfGamesPerRequest",
      "outputs": [
        {
          "internalType": "uint256",
          "name": "",
          "type": "uint256"
        }
      ],
      "stateMutability": "view",
      "type": "function"
    },
    {
      "inputs": [
        {
          "internalType": "string",
          "name": "_requestId",
          "type": "string"
        },
        {
          "internalType": "uint256",
          "name": "_index",
          "type": "uint256"
        }
      ],
      "name": "getRequestIdGames",
      "outputs": [
        {
          "internalType": "uint32",
          "name": "",
          "type": "uint32"
        },
        {
          "internalType": "uint40",
          "name": "",
          "type": "uint40"
        },
        {
          "internalType": "string",
          "name": "",
          "type": "string"
        },
        {
          "internalType": "string",
          "name": "",
          "type": "string"
        }
      ],
      "stateMutability": "view",
      "type": "function"
    },
    {
      "inputs": [
        {
          "internalType": "uint32",
          "name": "_gameId",
          "type": "uint32"
        }
      ],
      "name": "getScoresPerGameId",
      "outputs": [
        {
          "internalType": "uint8",
          "name": "",
          "type": "uint8"
        },
        {
          "internalType": "uint8",
          "name": "",
          "type": "uint8"
        }
      ],
      "stateMutability": "view",
      "type": "function"
    },
    {
      "inputs": [
        {
          "internalType": "string",
          "name": "",
          "type": "string"
        },
        {
          "internalType": "uint256",
          "name": "",
          "type": "uint256"
        }
      ],
      "name": "requestIdGames",
      "outputs": [
        {
          "internalType": "uint32",
          "name": "gameId",
          "type": "uint32"
        },
        {
          "internalType": "uint40",
          "name": "startTime",
          "type": "uint40"
        },
        {
          "internalType": "string",
          "name": "homeTeam",
          "type": "string"
        },
        {
          "internalType": "string",
          "name": "awayTeam",
          "type": "string"
        }
      ],
      "stateMutability": "view",
      "type": "function"
    }
  ],
  "bytecode": "0x608060405234801561001057600080fd5b5061195a806100206000396000f3fe608060405234801561001057600080fd5b50600436106100935760003560e01c80638b617036116100665780638b61703614610145578063a4bbcdf714610175578063cdfba66a146101a8578063ea6a0410146101db578063ffc904ec1461020b57610093565b806314ea531d146100985780631f2bf10c146100c85780633c09f3be146100e457806380b41a0914610115575b600080fd5b6100b260048036038101906100ad9190610c2e565b610227565b6040516100bf9190610c76565b60405180910390f35b6100e260048036038101906100dd9190610fb4565b61025d565b005b6100fe60048036038101906100f99190610c2e565b6103ec565b60405161010c929190611048565b60405180910390f35b61012f600480360381019061012a91906110a7565b610458565b60405161013c9190611213565b60405180910390f35b61015f600480360381019061015a9190610c2e565b610624565b60405161016c9190610c76565b60405180910390f35b61018f600480360381019061018a91906110a7565b610644565b60405161019f949392919061129d565b60405180910390f35b6101c260048036038101906101bd91906110a7565b6107d8565b6040516101d2949392919061129d565b60405180910390f35b6101f560048036038101906101f091906112f0565b610a2e565b6040516102029190611348565b60405180910390f35b61022560048036038101906102209190611504565b610a58565b005b6000600160008363ffffffff1663ffffffff16815260200190815260200160002060009054906101000a900460ff169050919050565b60005b81518110156103e7576000836040516102799190611589565b908152602001604051809103902060405180608001604052808484815181106102a5576102a46115a0565b5b60200260200101516000015163ffffffff1681526020018484815181106102cf576102ce6115a0565b5b60200260200101516020015164ffffffffff1681526020018484815181106102fa576102f96115a0565b5b602002602001015160400151815260200184848151811061031e5761031d6115a0565b5b602002602001015160600151815250908060018154018082558091505060019003906000526020600020906003020160009091909190915060008201518160000160006101000a81548163ffffffff021916908363ffffffff16021790555060208201518160000160046101000a81548164ffffffffff021916908364ffffffffff16021790555060408201518160010190816103bb91906117db565b5060608201518160020190816103d191906117db565b50505080806103df906118dc565b915050610260565b505050565b600080600260008463ffffffff1663ffffffff16815260200190815260200160002060000160009054906101000a900460ff16600260008563ffffffff1663ffffffff16815260200190815260200160002060000160019054906101000a900460ff1691509150915091565b610460610ba9565b6000836040516104709190611589565b908152602001604051809103902082815481106104905761048f6115a0565b5b90600052602060002090600302016040518060800160405290816000820160009054906101000a900463ffffffff1663ffffffff1663ffffffff1681526020016000820160049054906101000a900464ffffffffff1664ffffffffff1664ffffffffff168152602001600182018054610508906115fe565b80601f0160208091040260200160405190810160405280929190818152602001828054610534906115fe565b80156105815780601f1061055657610100808354040283529160200191610581565b820191906000526020600020905b81548152906001019060200180831161056457829003601f168201915b5050505050815260200160028201805461059a906115fe565b80601f01602080910402602001604051908101604052809291908181526020018280546105c6906115fe565b80156106135780601f106105e857610100808354040283529160200191610613565b820191906000526020600020905b8154815290600101906020018083116105f657829003601f168201915b505050505081525050905092915050565b60016020528060005260406000206000915054906101000a900460ff1681565b600082805160208101820180518482526020830160208501208183528095505050505050818154811061067657600080fd5b9060005260206000209060030201600091509150508060000160009054906101000a900463ffffffff16908060000160049054906101000a900464ffffffffff16908060010180546106c7906115fe565b80601f01602080910402602001604051908101604052809291908181526020018280546106f3906115fe565b80156107405780601f1061071557610100808354040283529160200191610740565b820191906000526020600020905b81548152906001019060200180831161072357829003601f168201915b505050505090806002018054610755906115fe565b80601f0160208091040260200160405190810160405280929190818152602001828054610781906115fe565b80156107ce5780601f106107a3576101008083540402835291602001916107ce565b820191906000526020600020905b8154815290600101906020018083116107b157829003601f168201915b5050505050905084565b6000806060806000866040516107ee9190611589565b9081526020016040518091039020858154811061080e5761080d6115a0565b5b906000526020600020906003020160000160009054906101000a900463ffffffff166000876040516108409190611589565b908152602001604051809103902086815481106108605761085f6115a0565b5b906000526020600020906003020160000160049054906101000a900464ffffffffff166000886040516108939190611589565b908152602001604051809103902087815481106108b3576108b26115a0565b5b90600052602060002090600302016001016000896040516108d49190611589565b908152602001604051809103902088815481106108f4576108f36115a0565b5b9060005260206000209060030201600201818054610911906115fe565b80601f016020809104026020016040519081016040528092919081815260200182805461093d906115fe565b801561098a5780601f1061095f5761010080835404028352916020019161098a565b820191906000526020600020905b81548152906001019060200180831161096d57829003601f168201915b5050505050915080805461099d906115fe565b80601f01602080910402602001604051908101604052809291908181526020018280546109c9906115fe565b8015610a165780601f106109eb57610100808354040283529160200191610a16565b820191906000526020600020905b8154815290600101906020018083116109f957829003601f168201915b50505050509050935093509350935092959194509250565b60008082604051610a3f9190611589565b9081526020016040518091039020805490509050919050565b60005b8151811015610ba5576040518060400160405280838381518110610a8257610a816115a0565b5b60200260200101516020015160ff168152602001838381518110610aa957610aa86115a0565b5b60200260200101516040015160ff1681525060026000848481518110610ad257610ad16115a0565b5b60200260200101516000015163ffffffff1663ffffffff16815260200190815260200160002060008201518160000160006101000a81548160ff021916908360ff16021790555060208201518160000160016101000a81548160ff021916908360ff1602179055509050506001806000848481518110610b5557610b546115a0565b5b60200260200101516000015163ffffffff1663ffffffff16815260200190815260200160002060006101000a81548160ff0219169083151502179055508080610b9d906118dc565b915050610a5b565b5050565b6040518060800160405280600063ffffffff168152602001600064ffffffffff16815260200160608152602001606081525090565b6000604051905090565b600080fd5b600080fd5b600063ffffffff82169050919050565b610c0b81610bf2565b8114610c1657600080fd5b50565b600081359050610c2881610c02565b92915050565b600060208284031215610c4457610c43610be8565b5b6000610c5284828501610c19565b91505092915050565b60008115159050919050565b610c7081610c5b565b82525050565b6000602082019050610c8b6000830184610c67565b92915050565b600080fd5b600080fd5b6000601f19601f8301169050919050565b7f4e487b7100000000000000000000000000000000000000000000000000000000600052604160045260246000fd5b610ce482610c9b565b810181811067ffffffffffffffff82111715610d0357610d02610cac565b5b80604052505050565b6000610d16610bde565b9050610d228282610cdb565b919050565b600067ffffffffffffffff821115610d4257610d41610cac565b5b610d4b82610c9b565b9050602081019050919050565b82818337600083830152505050565b6000610d7a610d7584610d27565b610d0c565b905082815260208101848484011115610d9657610d95610c96565b5b610da1848285610d58565b509392505050565b600082601f830112610dbe57610dbd610c91565b5b8135610dce848260208601610d67565b91505092915050565b600067ffffffffffffffff821115610df257610df1610cac565b5b602082029050602081019050919050565b600080fd5b600080fd5b600080fd5b600064ffffffffff82169050919050565b610e2c81610e12565b8114610e3757600080fd5b50565b600081359050610e4981610e23565b92915050565b600060808284031215610e6557610e64610e08565b5b610e6f6080610d0c565b90506000610e7f84828501610c19565b6000830152506020610e9384828501610e3a565b602083015250604082013567ffffffffffffffff811115610eb757610eb6610e0d565b5b610ec384828501610da9565b604083015250606082013567ffffffffffffffff811115610ee757610ee6610e0d565b5b610ef384828501610da9565b60608301525092915050565b6000610f12610f0d84610dd7565b610d0c565b90508083825260208201905060208402830185811115610f3557610f34610e03565b5b835b81811015610f7c57803567ffffffffffffffff811115610f5a57610f59610c91565b5b808601610f678982610e4f565b85526020850194505050602081019050610f37565b5050509392505050565b600082601f830112610f9b57610f9a610c91565b5b8135610fab848260208601610eff565b91505092915050565b60008060408385031215610fcb57610fca610be8565b5b600083013567ffffffffffffffff811115610fe957610fe8610bed565b5b610ff585828601610da9565b925050602083013567ffffffffffffffff81111561101657611015610bed565b5b61102285828601610f86565b9150509250929050565b600060ff82169050919050565b6110428161102c565b82525050565b600060408201905061105d6000830185611039565b61106a6020830184611039565b9392505050565b6000819050919050565b61108481611071565b811461108f57600080fd5b50565b6000813590506110a18161107b565b92915050565b600080604083850312156110be576110bd610be8565b5b600083013567ffffffffffffffff8111156110dc576110db610bed565b5b6110e885828601610da9565b92505060206110f985828601611092565b9150509250929050565b61110c81610bf2565b82525050565b61111b81610e12565b82525050565b600081519050919050565b600082825260208201905092915050565b60005b8381101561115b578082015181840152602081019050611140565b8381111561116a576000848401525b50505050565b600061117b82611121565b611185818561112c565b935061119581856020860161113d565b61119e81610c9b565b840191505092915050565b60006080830160008301516111c16000860182611103565b5060208301516111d46020860182611112565b50604083015184820360408601526111ec8282611170565b915050606083015184820360608601526112068282611170565b9150508091505092915050565b6000602082019050818103600083015261122d81846111a9565b905092915050565b61123e81610bf2565b82525050565b61124d81610e12565b82525050565b600082825260208201905092915050565b600061126f82611121565b6112798185611253565b935061128981856020860161113d565b61129281610c9b565b840191505092915050565b60006080820190506112b26000830187611235565b6112bf6020830186611244565b81810360408301526112d18185611264565b905081810360608301526112e58184611264565b905095945050505050565b60006020828403121561130657611305610be8565b5b600082013567ffffffffffffffff81111561132457611323610bed565b5b61133084828501610da9565b91505092915050565b61134281611071565b82525050565b600060208201905061135d6000830184611339565b92915050565b600067ffffffffffffffff82111561137e5761137d610cac565b5b602082029050602081019050919050565b6113988161102c565b81146113a357600080fd5b50565b6000813590506113b58161138f565b92915050565b6000608082840312156113d1576113d0610e08565b5b6113db6080610d0c565b905060006113eb84828501610c19565b60008301525060206113ff848285016113a6565b6020830152506040611413848285016113a6565b604083015250606082013567ffffffffffffffff81111561143757611436610e0d565b5b61144384828501610da9565b60608301525092915050565b600061146261145d84611363565b610d0c565b9050808382526020820190506020840283018581111561148557611484610e03565b5b835b818110156114cc57803567ffffffffffffffff8111156114aa576114a9610c91565b5b8086016114b789826113bb565b85526020850194505050602081019050611487565b5050509392505050565b600082601f8301126114eb576114ea610c91565b5b81356114fb84826020860161144f565b91505092915050565b60006020828403121561151a57611519610be8565b5b600082013567ffffffffffffffff81111561153857611537610bed565b5b611544848285016114d6565b91505092915050565b600081905092915050565b600061156382611121565b61156d818561154d565b935061157d81856020860161113d565b80840191505092915050565b60006115958284611558565b915081905092915050565b7f4e487b7100000000000000000000000000000000000000000000000000000000600052603260045260246000fd5b7f4e487b7100000000000000000000000000000000000000000000000000000000600052602260045260246000fd5b6000600282049050600182168061161657607f821691505b602082108103611629576116286115cf565b5b50919050565b60008190508160005260206000209050919050565b60006020601f8301049050919050565b600082821b905092915050565b6000600883026116917fffffffffffffffffffffffffffffffffffffffffffffffffffffffffffffffff82611654565b61169b8683611654565b95508019841693508086168417925050509392505050565b6000819050919050565b60006116d86116d36116ce84611071565b6116b3565b611071565b9050919050565b6000819050919050565b6116f2836116bd565b6117066116fe826116df565b848454611661565b825550505050565b600090565b61171b61170e565b6117268184846116e9565b505050565b5b8181101561174a5761173f600082611713565b60018101905061172c565b5050565b601f82111561178f576117608161162f565b61176984611644565b81016020851015611778578190505b61178c61178485611644565b83018261172b565b50505b505050565b600082821c905092915050565b60006117b260001984600802611794565b1980831691505092915050565b60006117cb83836117a1565b9150826002028217905092915050565b6117e482611121565b67ffffffffffffffff8111156117fd576117fc610cac565b5b61180782546115fe565b61181282828561174e565b600060209050601f8311600181146118455760008415611833578287015190505b61183d85826117bf565b8655506118a5565b601f1984166118538661162f565b60005b8281101561187b57848901518255600182019150602085019450602081019050611856565b868310156118985784890151611894601f8916826117a1565b8355505b6001600288020188555050505b505050505050565b7f4e487b7100000000000000000000000000000000000000000000000000000000600052601160045260246000fd5b60006118e782611071565b91507fffffffffffffffffffffffffffffffffffffffffffffffffffffffffffffffff8203611919576119186118ad565b5b60018201905091905056fea264697066735822122010669ca7e6427d2c218241238c4768e37ae777a080db88106bf82de7c4e627d164736f6c634300080f0033",
  "linkReferences": {},
  "deployedLinkReferences": {}
}