{
  "_format": "hh-sol-artifact-1",
  "contractName": "IpFakeEnetScore",
  "sourceName": "contracts/IpFakeEnetScore.sol",
  "abi": [
    {
      "inputs": [],
      "stateMutability": "nonpayable",
      "type": "constructor"
    },
    {
      "inputs": [
        {
          "internalType": "uint256",
          "name": "_contestId",
          "type": "uint256"
        },
        {
          "internalType": "address",
          "name": "_player",
          "type": "address"
        }
      ],
      "name": "checkResult",
      "outputs": [
        {
          "internalType": "uint256",
          "name": "",
          "type": "uint256"
        }
      ],
      "stateMutability": "view",
      "type": "function"
    },
    {
      "inputs": [
        {
          "internalType": "uint256",
          "name": "_leagueId",
          "type": "uint256"
        },
        {
          "internalType": "string[]",
          "name": "_listRequestId",
          "type": "string[]"
        },
        {
          "internalType": "uint256",
          "name": "_dateEndContest",
          "type": "uint256"
        }
      ],
      "name": "createContest",
      "outputs": [],
      "stateMutability": "nonpayable",
      "type": "function"
    },
    {
      "inputs": [
        {
          "internalType": "string",
          "name": "_requestId",
          "type": "string"
        },
        {
          "components": [
            {
              "internalType": "uint32",
              "name": "gameId",
              "type": "uint32"
            },
            {
              "internalType": "uint40",
              "name": "startTime",
              "type": "uint40"
            },
            {
              "internalType": "string",
              "name": "homeTeam",
              "type": "string"
            },
            {
              "internalType": "string",
              "name": "awayTeam",
              "type": "string"
            }
          ],
          "internalType": "struct IpFakeEnetScore.GameCreate[]",
          "name": "_fakeGameCreate",
          "type": "tuple[]"
        }
      ],
      "name": "fakeGameCreate",
      "outputs": [],
      "stateMutability": "nonpayable",
      "type": "function"
    },
    {
      "inputs": [
        {
          "internalType": "uint32",
          "name": "",
          "type": "uint32"
        }
      ],
      "name": "gamePlayed",
      "outputs": [
        {
          "internalType": "bool",
          "name": "",
          "type": "bool"
        }
      ],
      "stateMutability": "view",
      "type": "function"
    },
    {
      "inputs": [],
      "name": "getContestPredictionEndDate",
      "outputs": [
        {
          "internalType": "uint256",
          "name": "",
          "type": "uint256"
        }
      ],
      "stateMutability": "view",
      "type": "function"
    },
    {
      "inputs": [],
      "name": "getCurrentContestId",
      "outputs": [
        {
          "internalType": "uint256",
          "name": "",
          "type": "uint256"
        }
      ],
      "stateMutability": "view",
      "type": "function"
    },
    {
      "inputs": [
        {
          "internalType": "string",
          "name": "_requestId",
          "type": "string"
        },
        {
          "internalType": "uint256",
          "name": "_idx",
          "type": "uint256"
        }
      ],
      "name": "getGameCreate",
      "outputs": [
        {
          "components": [
            {
              "internalType": "uint32",
              "name": "gameId",
              "type": "uint32"
            },
            {
              "internalType": "uint40",
              "name": "startTime",
              "type": "uint40"
            },
            {
              "internalType": "string",
              "name": "homeTeam",
              "type": "string"
            },
            {
              "internalType": "string",
              "name": "awayTeam",
              "type": "string"
            }
          ],
          "internalType": "struct IpFakeEnetScore.GameCreate",
          "name": "",
          "type": "tuple"
        }
      ],
      "stateMutability": "view",
      "type": "function"
    },
    {
      "inputs": [
        {
          "internalType": "uint256",
          "name": "_contestId",
          "type": "uint256"
        }
      ],
      "name": "getListGamesPerContest",
      "outputs": [
        {
          "components": [
            {
              "internalType": "uint32",
              "name": "gameId",
              "type": "uint32"
            },
            {
              "internalType": "uint40",
              "name": "startTime",
              "type": "uint40"
            },
            {
              "internalType": "string",
              "name": "homeTeam",
              "type": "string"
            },
            {
              "internalType": "string",
              "name": "awayTeam",
              "type": "string"
            }
          ],
          "internalType": "struct IpFakeEnetScore.GameCreate[]",
          "name": "",
          "type": "tuple[]"
        }
      ],
      "stateMutability": "view",
      "type": "function"
    },
    {
      "inputs": [
        {
          "internalType": "uint256",
          "name": "_contestId",
          "type": "uint256"
        }
      ],
      "name": "getNumberOfGamesPerContest",
      "outputs": [
        {
          "internalType": "uint256",
          "name": "",
          "type": "uint256"
        }
      ],
      "stateMutability": "view",
      "type": "function"
    },
    {
      "inputs": [
        {
          "internalType": "string",
          "name": "_requestId",
          "type": "string"
        }
      ],
      "name": "getNumberOfGamesPerRequest",
      "outputs": [
        {
          "internalType": "uint256",
          "name": "",
          "type": "uint256"
        }
      ],
      "stateMutability": "view",
      "type": "function"
    },
    {
      "inputs": [
        {
          "internalType": "uint256",
          "name": "_contestId",
          "type": "uint256"
        }
      ],
      "name": "getNumberOfPlayers",
      "outputs": [
        {
          "internalType": "uint256",
          "name": "",
          "type": "uint256"
        }
      ],
      "stateMutability": "view",
      "type": "function"
    },
    {
      "inputs": [
        {
          "internalType": "uint256",
          "name": "_contestId",
          "type": "uint256"
        },
        {
          "internalType": "address",
          "name": "_player",
          "type": "address"
        }
      ],
      "name": "getPrevisionsPerPlayerPerContest",
      "outputs": [
        {
          "components": [
            {
              "internalType": "uint32",
              "name": "gameId",
              "type": "uint32"
            },
            {
              "internalType": "uint8",
              "name": "homeScore",
              "type": "uint8"
            },
            {
              "internalType": "uint8",
              "name": "awayScore",
              "type": "uint8"
            }
          ],
          "internalType": "struct IpFakeEnetScore.GamePredict[]",
          "name": "",
          "type": "tuple[]"
        }
      ],
      "stateMutability": "view",
      "type": "function"
    },
    {
      "inputs": [
        {
          "internalType": "uint256",
          "name": "_contestId",
          "type": "uint256"
        }
      ],
      "name": "getRequestIdPerContest",
      "outputs": [
        {
          "internalType": "string[]",
          "name": "",
          "type": "string[]"
        }
      ],
      "stateMutability": "view",
      "type": "function"
    },
    {
      "inputs": [
        {
          "internalType": "uint32",
          "name": "_gameId",
          "type": "uint32"
        }
      ],
      "name": "getScorePerGameId",
      "outputs": [
        {
          "components": [
            {
              "internalType": "uint8",
              "name": "homeScore",
              "type": "uint8"
            },
            {
              "internalType": "uint8",
              "name": "awayScore",
              "type": "uint8"
            }
          ],
          "internalType": "struct IpFakeEnetScore.Scores",
          "name": "",
          "type": "tuple"
        }
      ],
      "stateMutability": "view",
      "type": "function"
    },
    {
      "inputs": [
        {
          "components": [
            {
              "internalType": "uint32",
              "name": "gameId",
              "type": "uint32"
            },
            {
              "internalType": "uint8",
              "name": "homeScore",
              "type": "uint8"
            },
            {
              "internalType": "uint8",
              "name": "awayScore",
              "type": "uint8"
            },
            {
              "internalType": "string",
              "name": "status",
              "type": "string"
            }
          ],
          "internalType": "struct IpFakeEnetScore.GameResolve[]",
          "name": "_fakeGameResolve",
          "type": "tuple[]"
        }
      ],
      "name": "saveRequestResults",
      "outputs": [],
      "stateMutability": "nonpayable",
      "type": "function"
    }
  ],
  "bytecode": "0x608060405234801561001057600080fd5b50600060088190555061291c806100286000396000f3fe608060405234801561001057600080fd5b50600436106100f55760003560e01c80633302787d1161009757806380b41a091161006657806380b41a09146102bc5780638b617036146102ec578063ea6a04101461031c578063fb46bd221461034c576100f5565b80633302787d1461021057806362436d9d1461022c5780637e5dd9131461025c5780637fb9c45f1461028c576100f5565b806318699547116100d357806318699547146101785780631d883342146101945780631e7741f0146101c45780631f2bf10c146101f4576100f5565b806308af2d78146100fa578063117f3998146101185780631506bca614610148575b600080fd5b61010261036a565b60405161010f9190611603565b60405180910390f35b610132600480360381019061012d91906116bc565b61038a565b60405161013f9190611828565b60405180910390f35b610162600480360381019061015d919061184a565b6105e1565b60405161016f91906119d2565b60405180910390f35b610192600480360381019061018d9190611c0f565b6106cd565b005b6101ae60048036038101906101a9919061184a565b6107ad565b6040516101bb9190611603565b60405180910390f35b6101de60048036038101906101d99190611caa565b61084f565b6040516101eb9190611d06565b60405180910390f35b61020e60048036038101906102099190611ef9565b6108c2565b005b61022a60048036038101906102259190612112565b610a51565b005b6102466004803603810190610241919061184a565b610ba3565b6040516102539190611603565b60405180910390f35b6102766004803603810190610271919061184a565b610bc3565b6040516102839190612296565b60405180910390f35b6102a660048036038101906102a191906116bc565b610ef2565b6040516102b39190611603565b60405180910390f35b6102d660048036038101906102d191906122b8565b611307565b6040516102e3919061237e565b60405180910390f35b61030660048036038101906103019190611caa565b6114d3565b60405161031391906123bb565b60405180910390f35b610336600480360381019061033191906123d6565b6114f3565b6040516103439190611603565b60405180910390f35b61035461151d565b6040516103619190611603565b60405180910390f35b600060026000600854815260200190815260200160002060010154905090565b60606000610397846107ad565b90506000808267ffffffffffffffff8111156103b6576103b56119f9565b5b6040519080825280602002602001820160405280156103ef57816020015b6103dc611568565b8152602001906001900390816103d45790505b50905060008367ffffffffffffffff81111561040e5761040d6119f9565b5b60405190808252806020026020018201604052801561044757816020015b610434611595565b81526020019060019003908161042c5790505b50905061045387610bc3565b905060005b848110156105d3578181815181106104735761047261241f565b5b602002602001015160000151935060405180606001604052808563ffffffff168152602001600460008a73ffffffffffffffffffffffffffffffffffffffff1673ffffffffffffffffffffffffffffffffffffffff16815260200190815260200160002060008b815260200190815260200160002060008763ffffffff1663ffffffff16815260200190815260200160002060000160009054906101000a900460ff1660ff168152602001600460008a73ffffffffffffffffffffffffffffffffffffffff1673ffffffffffffffffffffffffffffffffffffffff16815260200190815260200160002060008b815260200190815260200160002060008763ffffffff1663ffffffff16815260200190815260200160002060000160019054906101000a900460ff1660ff168152508382815181106105b5576105b461241f565b5b602002602001018190525080806105cb9061247d565b915050610458565b508194505050505092915050565b606060016000838152602001908152602001600020805480602002602001604051908101604052809291908181526020016000905b828210156106c2578382906000526020600020018054610635906124f4565b80601f0160208091040260200160405190810160405280929190818152602001828054610661906124f4565b80156106ae5780601f10610683576101008083540402835291602001916106ae565b820191906000526020600020905b81548152906001019060200180831161069157829003601f168201915b505050505081526020019060010190610616565b505050509050919050565b600860008154809291906106e09061247d565b919050555060005b8251811015610766576001600060085481526020019081526020016000208382815181106107195761071861241f565b5b602002602001015190806001815401808255809150506001900390600052602060002001600090919091909150908161075291906126d1565b50808061075e9061247d565b9150506106e8565b506040518060400160405280848152602001828152506002600060085481526020019081526020016000206000820151816000015560208201518160010155905050505050565b6000806000905060005b60016000858152602001908152602001600020805490508110156108455760006001600086815260200190815260200160002082815481106107fc576107fb61241f565b5b906000526020600020016040516108139190612831565b908152602001604051809103902080549050826108309190612848565b9150808061083d9061247d565b9150506107b7565b5080915050919050565b6108576115ca565b600360008363ffffffff1663ffffffff1681526020019081526020016000206040518060400160405290816000820160009054906101000a900460ff1660ff1660ff1681526020016000820160019054906101000a900460ff1660ff1660ff16815250509050919050565b60005b8151811015610a4c576000836040516108de91906128cf565b9081526020016040518091039020604051806080016040528084848151811061090a5761090961241f565b5b60200260200101516000015163ffffffff1681526020018484815181106109345761093361241f565b5b60200260200101516020015164ffffffffff16815260200184848151811061095f5761095e61241f565b5b60200260200101516040015181526020018484815181106109835761098261241f565b5b602002602001015160600151815250908060018154018082558091505060019003906000526020600020906003020160009091909190915060008201518160000160006101000a81548163ffffffff021916908363ffffffff16021790555060208201518160000160046101000a81548164ffffffffff021916908364ffffffffff1602179055506040820151816001019081610a2091906126d1565b506060820151816002019081610a3691906126d1565b5050508080610a449061247d565b9150506108c5565b505050565b60005b8151811015610b9f576040518060400160405280838381518110610a7b57610a7a61241f565b5b60200260200101516020015160ff168152602001838381518110610aa257610aa161241f565b5b60200260200101516040015160ff1681525060036000848481518110610acb57610aca61241f565b5b60200260200101516000015163ffffffff1663ffffffff16815260200190815260200160002060008201518160000160006101000a81548160ff021916908360ff16021790555060208201518160000160016101000a81548160ff021916908360ff160217905550905050600160096000848481518110610b4f57610b4e61241f565b5b60200260200101516000015163ffffffff1663ffffffff16815260200190815260200160002060006101000a81548160ff0219169083151502179055508080610b979061247d565b915050610a54565b5050565b600060056000838152602001908152602001600020805490509050919050565b60606000610bd0836107ad565b90506000808267ffffffffffffffff811115610bef57610bee6119f9565b5b604051908082528060200260200182016040528015610c2857816020015b610c15611595565b815260200190600190039081610c0d5790505b50905060005b6001600087815260200190815260200160002080549050811015610ee6576000600160008881526020019081526020016000208281548110610c7357610c7261241f565b5b90600052602060002001604051610c8a9190612831565b908152602001604051809103902080549050935060005b84811015610ed2576000600160008981526020019081526020016000208381548110610cd057610ccf61241f565b5b90600052602060002001604051610ce79190612831565b90815260200160405180910390208181548110610d0757610d0661241f565b5b90600052602060002090600302016040518060800160405290816000820160009054906101000a900463ffffffff1663ffffffff1663ffffffff1681526020016000820160049054906101000a900464ffffffffff1664ffffffffff1664ffffffffff168152602001600182018054610d7f906124f4565b80601f0160208091040260200160405190810160405280929190818152602001828054610dab906124f4565b8015610df85780601f10610dcd57610100808354040283529160200191610df8565b820191906000526020600020905b815481529060010190602001808311610ddb57829003601f168201915b50505050508152602001600282018054610e11906124f4565b80601f0160208091040260200160405190810160405280929190818152602001828054610e3d906124f4565b8015610e8a5780601f10610e5f57610100808354040283529160200191610e8a565b820191906000526020600020905b815481529060010190602001808311610e6d57829003601f168201915b505050505081525050838581518110610ea657610ea561241f565b5b60200260200101819052508380610ebc9061247d565b9450508080610eca9061247d565b915050610ca1565b508080610ede9061247d565b915050610c2e565b50809350505050919050565b60008060008060009050600080610f08886107ad565b905060008167ffffffffffffffff811115610f2657610f256119f9565b5b604051908082528060200260200182016040528015610f5f57816020015b610f4c611595565b815260200190600190039081610f445790505b509050610f6b89610bc3565b905060005b828110156112f757818181518110610f8b57610f8a61241f565b5b602002602001015160000151935061109d600460008b73ffffffffffffffffffffffffffffffffffffffff1673ffffffffffffffffffffffffffffffffffffffff16815260200190815260200160002060008c815260200190815260200160002060008663ffffffff1663ffffffff16815260200190815260200160002060000160009054906101000a900460ff16600460008c73ffffffffffffffffffffffffffffffffffffffff1673ffffffffffffffffffffffffffffffffffffffff16815260200190815260200160002060008d815260200190815260200160002060008763ffffffff1663ffffffff16815260200190815260200160002060000160019054906101000a900460ff16611527565b9650611107600360008663ffffffff1663ffffffff16815260200190815260200160002060000160009054906101000a900460ff16600360008763ffffffff1663ffffffff16815260200190815260200160002060000160019054906101000a900460ff16611527565b95508587148015611148575060011515600960008663ffffffff1663ffffffff16815260200190815260200160002060009054906101000a900460ff161515145b156112e45760018561115a9190612848565b9450600360008563ffffffff1663ffffffff16815260200190815260200160002060000160009054906101000a900460ff1660ff16600460008b73ffffffffffffffffffffffffffffffffffffffff1673ffffffffffffffffffffffffffffffffffffffff16815260200190815260200160002060008c815260200190815260200160002060008663ffffffff1663ffffffff16815260200190815260200160002060000160009054906101000a900460ff1660ff161480156112ce5750600360008563ffffffff1663ffffffff16815260200190815260200160002060000160019054906101000a900460ff1660ff16600460008b73ffffffffffffffffffffffffffffffffffffffff1673ffffffffffffffffffffffffffffffffffffffff16815260200190815260200160002060008c815260200190815260200160002060008663ffffffff1663ffffffff16815260200190815260200160002060000160019054906101000a900460ff1660ff16145b156112e3576002856112e09190612848565b94505b5b80806112ef9061247d565b915050610f70565b5083965050505050505092915050565b61130f611595565b60008360405161131f91906128cf565b9081526020016040518091039020828154811061133f5761133e61241f565b5b90600052602060002090600302016040518060800160405290816000820160009054906101000a900463ffffffff1663ffffffff1663ffffffff1681526020016000820160049054906101000a900464ffffffffff1664ffffffffff1664ffffffffff1681526020016001820180546113b7906124f4565b80601f01602080910402602001604051908101604052809291908181526020018280546113e3906124f4565b80156114305780601f1061140557610100808354040283529160200191611430565b820191906000526020600020905b81548152906001019060200180831161141357829003601f168201915b50505050508152602001600282018054611449906124f4565b80601f0160208091040260200160405190810160405280929190818152602001828054611475906124f4565b80156114c25780601f10611497576101008083540402835291602001916114c2565b820191906000526020600020905b8154815290600101906020018083116114a557829003601f168201915b505050505081525050905092915050565b60096020528060005260406000206000915054906101000a900460ff1681565b6000808260405161150491906128cf565b9081526020016040518091039020805490509050919050565b6000600854905090565b6000808260ff168460ff161115611541576000905061155e565b8360ff168360ff161115611558576002905061155d565b600190505b5b8091505092915050565b6040518060600160405280600063ffffffff168152602001600060ff168152602001600060ff1681525090565b6040518060800160405280600063ffffffff168152602001600064ffffffffff16815260200160608152602001606081525090565b6040518060400160405280600060ff168152602001600060ff1681525090565b6000819050919050565b6115fd816115ea565b82525050565b600060208201905061161860008301846115f4565b92915050565b6000604051905090565b600080fd5b600080fd5b61163b816115ea565b811461164657600080fd5b50565b60008135905061165881611632565b92915050565b600073ffffffffffffffffffffffffffffffffffffffff82169050919050565b60006116898261165e565b9050919050565b6116998161167e565b81146116a457600080fd5b50565b6000813590506116b681611690565b92915050565b600080604083850312156116d3576116d2611628565b5b60006116e185828601611649565b92505060206116f2858286016116a7565b9150509250929050565b600081519050919050565b600082825260208201905092915050565b6000819050602082019050919050565b600063ffffffff82169050919050565b61174181611728565b82525050565b600060ff82169050919050565b61175d81611747565b82525050565b6060820160008201516117796000850182611738565b50602082015161178c6020850182611754565b50604082015161179f6040850182611754565b50505050565b60006117b18383611763565b60608301905092915050565b6000602082019050919050565b60006117d5826116fc565b6117df8185611707565b93506117ea83611718565b8060005b8381101561181b57815161180288826117a5565b975061180d836117bd565b9250506001810190506117ee565b5085935050505092915050565b6000602082019050818103600083015261184281846117ca565b905092915050565b6000602082840312156118605761185f611628565b5b600061186e84828501611649565b91505092915050565b600081519050919050565b600082825260208201905092915050565b6000819050602082019050919050565b600081519050919050565b600082825260208201905092915050565b60005b838110156118dd5780820151818401526020810190506118c2565b838111156118ec576000848401525b50505050565b6000601f19601f8301169050919050565b600061190e826118a3565b61191881856118ae565b93506119288185602086016118bf565b611931816118f2565b840191505092915050565b60006119488383611903565b905092915050565b6000602082019050919050565b600061196882611877565b6119728185611882565b93508360208202850161198485611893565b8060005b858110156119c057848403895281516119a1858261193c565b94506119ac83611950565b925060208a01995050600181019050611988565b50829750879550505050505092915050565b600060208201905081810360008301526119ec818461195d565b905092915050565b600080fd5b7f4e487b7100000000000000000000000000000000000000000000000000000000600052604160045260246000fd5b611a31826118f2565b810181811067ffffffffffffffff82111715611a5057611a4f6119f9565b5b80604052505050565b6000611a6361161e565b9050611a6f8282611a28565b919050565b600067ffffffffffffffff821115611a8f57611a8e6119f9565b5b602082029050602081019050919050565b600080fd5b600080fd5b600067ffffffffffffffff821115611ac557611ac46119f9565b5b611ace826118f2565b9050602081019050919050565b82818337600083830152505050565b6000611afd611af884611aaa565b611a59565b905082815260208101848484011115611b1957611b18611aa5565b5b611b24848285611adb565b509392505050565b600082601f830112611b4157611b406119f4565b5b8135611b51848260208601611aea565b91505092915050565b6000611b6d611b6884611a74565b611a59565b90508083825260208201905060208402830185811115611b9057611b8f611aa0565b5b835b81811015611bd757803567ffffffffffffffff811115611bb557611bb46119f4565b5b808601611bc28982611b2c565b85526020850194505050602081019050611b92565b5050509392505050565b600082601f830112611bf657611bf56119f4565b5b8135611c06848260208601611b5a565b91505092915050565b600080600060608486031215611c2857611c27611628565b5b6000611c3686828701611649565b935050602084013567ffffffffffffffff811115611c5757611c5661162d565b5b611c6386828701611be1565b9250506040611c7486828701611649565b9150509250925092565b611c8781611728565b8114611c9257600080fd5b50565b600081359050611ca481611c7e565b92915050565b600060208284031215611cc057611cbf611628565b5b6000611cce84828501611c95565b91505092915050565b604082016000820151611ced6000850182611754565b506020820151611d006020850182611754565b50505050565b6000604082019050611d1b6000830184611cd7565b92915050565b600067ffffffffffffffff821115611d3c57611d3b6119f9565b5b602082029050602081019050919050565b600080fd5b600080fd5b600064ffffffffff82169050919050565b611d7181611d57565b8114611d7c57600080fd5b50565b600081359050611d8e81611d68565b92915050565b600060808284031215611daa57611da9611d4d565b5b611db46080611a59565b90506000611dc484828501611c95565b6000830152506020611dd884828501611d7f565b602083015250604082013567ffffffffffffffff811115611dfc57611dfb611d52565b5b611e0884828501611b2c565b604083015250606082013567ffffffffffffffff811115611e2c57611e2b611d52565b5b611e3884828501611b2c565b60608301525092915050565b6000611e57611e5284611d21565b611a59565b90508083825260208201905060208402830185811115611e7a57611e79611aa0565b5b835b81811015611ec157803567ffffffffffffffff811115611e9f57611e9e6119f4565b5b808601611eac8982611d94565b85526020850194505050602081019050611e7c565b5050509392505050565b600082601f830112611ee057611edf6119f4565b5b8135611ef0848260208601611e44565b91505092915050565b60008060408385031215611f1057611f0f611628565b5b600083013567ffffffffffffffff811115611f2e57611f2d61162d565b5b611f3a85828601611b2c565b925050602083013567ffffffffffffffff811115611f5b57611f5a61162d565b5b611f6785828601611ecb565b9150509250929050565b600067ffffffffffffffff821115611f8c57611f8b6119f9565b5b602082029050602081019050919050565b611fa681611747565b8114611fb157600080fd5b50565b600081359050611fc381611f9d565b92915050565b600060808284031215611fdf57611fde611d4d565b5b611fe96080611a59565b90506000611ff984828501611c95565b600083015250602061200d84828501611fb4565b602083015250604061202184828501611fb4565b604083015250606082013567ffffffffffffffff81111561204557612044611d52565b5b61205184828501611b2c565b60608301525092915050565b600061207061206b84611f71565b611a59565b9050808382526020820190506020840283018581111561209357612092611aa0565b5b835b818110156120da57803567ffffffffffffffff8111156120b8576120b76119f4565b5b8086016120c58982611fc9565b85526020850194505050602081019050612095565b5050509392505050565b600082601f8301126120f9576120f86119f4565b5b813561210984826020860161205d565b91505092915050565b60006020828403121561212857612127611628565b5b600082013567ffffffffffffffff8111156121465761214561162d565b5b612152848285016120e4565b91505092915050565b600081519050919050565b600082825260208201905092915050565b6000819050602082019050919050565b61219081611d57565b82525050565b60006080830160008301516121ae6000860182611738565b5060208301516121c16020860182612187565b50604083015184820360408601526121d98282611903565b915050606083015184820360608601526121f38282611903565b9150508091505092915050565b600061220c8383612196565b905092915050565b6000602082019050919050565b600061222c8261215b565b6122368185612166565b93508360208202850161224885612177565b8060005b8581101561228457848403895281516122658582612200565b945061227083612214565b925060208a0199505060018101905061224c565b50829750879550505050505092915050565b600060208201905081810360008301526122b08184612221565b905092915050565b600080604083850312156122cf576122ce611628565b5b600083013567ffffffffffffffff8111156122ed576122ec61162d565b5b6122f985828601611b2c565b925050602061230a85828601611649565b9150509250929050565b600060808301600083015161232c6000860182611738565b50602083015161233f6020860182612187565b50604083015184820360408601526123578282611903565b915050606083015184820360608601526123718282611903565b9150508091505092915050565b600060208201905081810360008301526123988184612314565b905092915050565b60008115159050919050565b6123b5816123a0565b82525050565b60006020820190506123d060008301846123ac565b92915050565b6000602082840312156123ec576123eb611628565b5b600082013567ffffffffffffffff81111561240a5761240961162d565b5b61241684828501611b2c565b91505092915050565b7f4e487b7100000000000000000000000000000000000000000000000000000000600052603260045260246000fd5b7f4e487b7100000000000000000000000000000000000000000000000000000000600052601160045260246000fd5b6000612488826115ea565b91507fffffffffffffffffffffffffffffffffffffffffffffffffffffffffffffffff82036124ba576124b961244e565b5b600182019050919050565b7f4e487b7100000000000000000000000000000000000000000000000000000000600052602260045260246000fd5b6000600282049050600182168061250c57607f821691505b60208210810361251f5761251e6124c5565b5b50919050565b60008190508160005260206000209050919050565b60006020601f8301049050919050565b600082821b905092915050565b6000600883026125877fffffffffffffffffffffffffffffffffffffffffffffffffffffffffffffffff8261254a565b612591868361254a565b95508019841693508086168417925050509392505050565b6000819050919050565b60006125ce6125c96125c4846115ea565b6125a9565b6115ea565b9050919050565b6000819050919050565b6125e8836125b3565b6125fc6125f4826125d5565b848454612557565b825550505050565b600090565b612611612604565b61261c8184846125df565b505050565b5b8181101561264057612635600082612609565b600181019050612622565b5050565b601f8211156126855761265681612525565b61265f8461253a565b8101602085101561266e578190505b61268261267a8561253a565b830182612621565b50505b505050565b600082821c905092915050565b60006126a86000198460080261268a565b1980831691505092915050565b60006126c18383612697565b9150826002028217905092915050565b6126da826118a3565b67ffffffffffffffff8111156126f3576126f26119f9565b5b6126fd82546124f4565b612708828285612644565b600060209050601f83116001811461273b5760008415612729578287015190505b61273385826126b5565b86555061279b565b601f19841661274986612525565b60005b828110156127715784890151825560018201915060208501945060208101905061274c565b8683101561278e578489015161278a601f891682612697565b8355505b6001600288020188555050505b505050505050565b600081905092915050565b600081546127bb816124f4565b6127c581866127a3565b945060018216600081146127e057600181146127f557612828565b60ff1983168652811515820286019350612828565b6127fe85612525565b60005b8381101561282057815481890152600182019150602081019050612801565b838801955050505b50505092915050565b600061283d82846127ae565b915081905092915050565b6000612853826115ea565b915061285e836115ea565b9250827fffffffffffffffffffffffffffffffffffffffffffffffffffffffffffffffff038211156128935761289261244e565b5b828201905092915050565b60006128a9826118a3565b6128b381856127a3565b93506128c38185602086016118bf565b80840191505092915050565b60006128db828461289e565b91508190509291505056fea26469706673582212200f057100f5f60599c87cd44d7d2a0b220f87075876c6321bd04235c1d116f8f164736f6c634300080f0033",
  "linkReferences": {},
  "deployedLinkReferences": {}
}