{
  "_format": "hh-sol-artifact-1",
  "contractName": "IpPrediction",
  "sourceName": "contracts/IpPrediction.sol",
  "abi": [
    {
      "inputs": [],
      "stateMutability": "nonpayable",
      "type": "constructor"
    },
    {
      "inputs": [
        {
          "internalType": "address",
          "name": "to",
          "type": "address"
        },
        {
          "internalType": "uint256",
          "name": "amount",
          "type": "uint256"
        }
      ],
      "name": "FailedTransferLINK",
      "type": "error"
    },
    {
      "anonymous": false,
      "inputs": [
        {
          "indexed": true,
          "internalType": "bytes32",
          "name": "id",
          "type": "bytes32"
        }
      ],
      "name": "ChainlinkCancelled",
      "type": "event"
    },
    {
      "anonymous": false,
      "inputs": [
        {
          "indexed": true,
          "internalType": "bytes32",
          "name": "id",
          "type": "bytes32"
        }
      ],
      "name": "ChainlinkFulfilled",
      "type": "event"
    },
    {
      "anonymous": false,
      "inputs": [
        {
          "indexed": true,
          "internalType": "bytes32",
          "name": "id",
          "type": "bytes32"
        }
      ],
      "name": "ChainlinkRequested",
      "type": "event"
    },
    {
      "anonymous": false,
      "inputs": [
        {
          "indexed": true,
          "internalType": "address",
          "name": "previousOwner",
          "type": "address"
        },
        {
          "indexed": true,
          "internalType": "address",
          "name": "newOwner",
          "type": "address"
        }
      ],
      "name": "OwnershipTransferred",
      "type": "event"
    },
    {
      "inputs": [
        {
          "internalType": "bytes32",
          "name": "_requestId",
          "type": "bytes32"
        },
        {
          "internalType": "uint256",
          "name": "_payment",
          "type": "uint256"
        },
        {
          "internalType": "bytes4",
          "name": "_callbackFunctionId",
          "type": "bytes4"
        },
        {
          "internalType": "uint256",
          "name": "_expiration",
          "type": "uint256"
        }
      ],
      "name": "cancelRequest",
      "outputs": [],
      "stateMutability": "nonpayable",
      "type": "function"
    },
    {
      "inputs": [
        {
          "internalType": "uint256",
          "name": "_contestId",
          "type": "uint256"
        },
        {
          "internalType": "address",
          "name": "_player",
          "type": "address"
        }
      ],
      "name": "checkResult",
      "outputs": [
        {
          "internalType": "uint256",
          "name": "",
          "type": "uint256"
        }
      ],
      "stateMutability": "view",
      "type": "function"
    },
    {
      "inputs": [],
      "name": "contractBalances",
      "outputs": [
        {
          "internalType": "uint256",
          "name": "eth",
          "type": "uint256"
        },
        {
          "internalType": "uint256",
          "name": "link",
          "type": "uint256"
        }
      ],
      "stateMutability": "view",
      "type": "function"
    },
    {
      "inputs": [
        {
          "internalType": "uint256",
          "name": "_leagueId",
          "type": "uint256"
        },
        {
          "internalType": "uint256[]",
          "name": "_listDates",
          "type": "uint256[]"
        },
        {
          "internalType": "uint256",
          "name": "_dateEndContest",
          "type": "uint256"
        }
      ],
      "name": "createContest",
      "outputs": [],
      "stateMutability": "nonpayable",
      "type": "function"
    },
    {
      "inputs": [
        {
          "internalType": "bytes32",
          "name": "_requestId",
          "type": "bytes32"
        },
        {
          "internalType": "bytes[]",
          "name": "_result",
          "type": "bytes[]"
        }
      ],
      "name": "fulfillSchedule",
      "outputs": [],
      "stateMutability": "nonpayable",
      "type": "function"
    },
    {
      "inputs": [
        {
          "internalType": "bytes32",
          "name": "_requestId",
          "type": "bytes32"
        },
        {
          "internalType": "uint256",
          "name": "_idx",
          "type": "uint256"
        }
      ],
      "name": "getGameCreate",
      "outputs": [
        {
          "components": [
            {
              "internalType": "uint32",
              "name": "gameId",
              "type": "uint32"
            },
            {
              "internalType": "uint40",
              "name": "startTime",
              "type": "uint40"
            },
            {
              "internalType": "string",
              "name": "homeTeam",
              "type": "string"
            },
            {
              "internalType": "string",
              "name": "awayTeam",
              "type": "string"
            }
          ],
          "internalType": "struct IpPrediction.GameCreate",
          "name": "",
          "type": "tuple"
        }
      ],
      "stateMutability": "view",
      "type": "function"
    },
    {
      "inputs": [
        {
          "internalType": "bytes32",
          "name": "_requestId",
          "type": "bytes32"
        },
        {
          "internalType": "uint256",
          "name": "_idx",
          "type": "uint256"
        }
      ],
      "name": "getGameResolve",
      "outputs": [
        {
          "components": [
            {
              "internalType": "uint32",
              "name": "gameId",
              "type": "uint32"
            },
            {
              "internalType": "uint8",
              "name": "homeScore",
              "type": "uint8"
            },
            {
              "internalType": "uint8",
              "name": "awayScore",
              "type": "uint8"
            },
            {
              "internalType": "string",
              "name": "status",
              "type": "string"
            }
          ],
          "internalType": "struct IpPrediction.GameResolve",
          "name": "",
          "type": "tuple"
        }
      ],
      "stateMutability": "view",
      "type": "function"
    },
    {
      "inputs": [
        {
          "internalType": "uint256",
          "name": "_contestId",
          "type": "uint256"
        }
      ],
      "name": "getListGamesPerContest",
      "outputs": [
        {
          "components": [
            {
              "internalType": "uint32",
              "name": "gameId",
              "type": "uint32"
            },
            {
              "internalType": "uint40",
              "name": "startTime",
              "type": "uint40"
            },
            {
              "internalType": "string",
              "name": "homeTeam",
              "type": "string"
            },
            {
              "internalType": "string",
              "name": "awayTeam",
              "type": "string"
            }
          ],
          "internalType": "struct IpPrediction.GameCreate[]",
          "name": "",
          "type": "tuple[]"
        }
      ],
      "stateMutability": "view",
      "type": "function"
    },
    {
      "inputs": [
        {
          "internalType": "uint256",
          "name": "_contestId",
          "type": "uint256"
        }
      ],
      "name": "getNumberOfGamesPerContest",
      "outputs": [
        {
          "internalType": "uint256",
          "name": "",
          "type": "uint256"
        }
      ],
      "stateMutability": "view",
      "type": "function"
    },
    {
      "inputs": [
        {
          "internalType": "bytes32",
          "name": "_requestId",
          "type": "bytes32"
        }
      ],
      "name": "getNumberOfGamesPerRequest",
      "outputs": [
        {
          "internalType": "uint256",
          "name": "",
          "type": "uint256"
        }
      ],
      "stateMutability": "view",
      "type": "function"
    },
    {
      "inputs": [
        {
          "internalType": "uint256",
          "name": "_contestId",
          "type": "uint256"
        },
        {
          "internalType": "address",
          "name": "_player",
          "type": "address"
        }
      ],
      "name": "getPrevisionsPerPlayerPerContest",
      "outputs": [
        {
          "components": [
            {
              "internalType": "uint32",
              "name": "gameId",
              "type": "uint32"
            },
            {
              "internalType": "uint8",
              "name": "homeScore",
              "type": "uint8"
            },
            {
              "internalType": "uint8",
              "name": "awayScore",
              "type": "uint8"
            }
          ],
          "internalType": "struct IpPrediction.GamePredict[]",
          "name": "",
          "type": "tuple[]"
        }
      ],
      "stateMutability": "view",
      "type": "function"
    },
    {
      "inputs": [
        {
          "internalType": "uint256",
          "name": "_contestId",
          "type": "uint256"
        }
      ],
      "name": "getRequestIdPerContest",
      "outputs": [
        {
          "internalType": "bytes32[]",
          "name": "",
          "type": "bytes32[]"
        }
      ],
      "stateMutability": "view",
      "type": "function"
    },
    {
      "inputs": [],
      "name": "owner",
      "outputs": [
        {
          "internalType": "address",
          "name": "",
          "type": "address"
        }
      ],
      "stateMutability": "view",
      "type": "function"
    },
    {
      "inputs": [],
      "name": "renounceOwnership",
      "outputs": [],
      "stateMutability": "nonpayable",
      "type": "function"
    },
    {
      "inputs": [
        {
          "internalType": "uint256",
          "name": "_market",
          "type": "uint256"
        },
        {
          "internalType": "uint256",
          "name": "_leagueId",
          "type": "uint256"
        },
        {
          "internalType": "uint256",
          "name": "_date",
          "type": "uint256"
        }
      ],
      "name": "requestSchedule",
      "outputs": [
        {
          "internalType": "bytes32",
          "name": "",
          "type": "bytes32"
        }
      ],
      "stateMutability": "nonpayable",
      "type": "function"
    },
    {
      "inputs": [
        {
          "components": [
            {
              "internalType": "uint32",
              "name": "gameId",
              "type": "uint32"
            },
            {
              "internalType": "uint8",
              "name": "homeScore",
              "type": "uint8"
            },
            {
              "internalType": "uint8",
              "name": "awayScore",
              "type": "uint8"
            }
          ],
          "internalType": "struct IpPrediction.GamePredict[]",
          "name": "_gamePredictions",
          "type": "tuple[]"
        }
      ],
      "name": "savePrediction",
      "outputs": [],
      "stateMutability": "nonpayable",
      "type": "function"
    },
    {
      "inputs": [
        {
          "internalType": "uint256",
          "name": "_leagueId",
          "type": "uint256"
        },
        {
          "internalType": "uint256",
          "name": "_date",
          "type": "uint256"
        }
      ],
      "name": "saveRequestResults",
      "outputs": [],
      "stateMutability": "nonpayable",
      "type": "function"
    },
    {
      "inputs": [
        {
          "internalType": "address",
          "name": "newOwner",
          "type": "address"
        }
      ],
      "name": "transferOwnership",
      "outputs": [],
      "stateMutability": "nonpayable",
      "type": "function"
    },
    {
      "inputs": [
        {
          "internalType": "address payable",
          "name": "_payee",
          "type": "address"
        },
        {
          "internalType": "uint256",
          "name": "_amount",
          "type": "uint256"
        }
      ],
      "name": "withdrawLink",
      "outputs": [],
      "stateMutability": "nonpayable",
      "type": "function"
    }
  ],
  "bytecode": "0x608060405260016004553480156200001657600080fd5b50620000376200002b620000c860201b60201c565b620000d060201b60201c565b6200005c73326c977e6efc84e512bb9c30f76e30c160ed06fb6200019660201b60201c565b6200008173d5821b900e44db9490da9b09541bbd027fbecf4e620001da60201b60201c565b7f643131306235633462383364343264636132306534313061633533376364393460001b600c8190555067016345785d8a0000600d819055506000600e819055506200021e565b600033905090565b6000600660009054906101000a900473ffffffffffffffffffffffffffffffffffffffff16905081600660006101000a81548173ffffffffffffffffffffffffffffffffffffffff021916908373ffffffffffffffffffffffffffffffffffffffff1602179055508173ffffffffffffffffffffffffffffffffffffffff168173ffffffffffffffffffffffffffffffffffffffff167f8be0079c531659141344cd1fd0a4f28419497f9722a3daafe3b4186f6b6457e060405160405180910390a35050565b80600260006101000a81548173ffffffffffffffffffffffffffffffffffffffff021916908373ffffffffffffffffffffffffffffffffffffffff16021790555050565b80600360006101000a81548173ffffffffffffffffffffffffffffffffffffffff021916908373ffffffffffffffffffffffffffffffffffffffff16021790555050565b6145a1806200022e6000396000f3fe608060405234801561001057600080fd5b50600436106101215760003560e01c80637e5dd913116100ad578063de00d10711610071578063de00d10714610319578063e3c046a714610349578063ec65d0f814610379578063f02e41a314610395578063f2fde38b146103c557610121565b80637e5dd913146102635780637fb9c45f146102935780638da5cb5b146102c357806393d07072146102e15780639fa75e9a146102fd57610121565b806354b7faae116100f457806354b7faae146101d5578063580c2f54146101f15780635d65d2b614610221578063685c3e9f1461023d578063715018a61461025957610121565b8063117f3998146101265780631506bca6146101565780631d883342146101865780632163885a146101b6575b600080fd5b610140600480360381019061013b91906128f0565b6103e1565b60405161014d9190612a5c565b60405180910390f35b610170600480360381019061016b9190612a7e565b610638565b60405161017d9190612b73565b60405180910390f35b6101a0600480360381019061019b9190612a7e565b6106a3565b6040516101ad9190612ba4565b60405180910390f35b6101be61073b565b6040516101cc929190612bbf565b60405180910390f35b6101ef60048036038101906101ea9190612c26565b6107ce565b005b61020b60048036038101906102069190612c66565b6108a0565b6040516102189190612cc8565b60405180910390f35b61023b60048036038101906102369190612ce3565b6109b2565b005b61025760048036038101906102529190612e7c565b610b52565b005b610261610c3a565b005b61027d60048036038101906102789190612a7e565b610c4e565b60405161028a91906130bf565b60405180910390f35b6102ad60048036038101906102a891906128f0565b610e78565b6040516102ba9190612ba4565b60405180910390f35b6102cb611250565b6040516102d891906130f0565b60405180910390f35b6102fb60048036038101906102f691906132cd565b61127a565b005b610317600480360381019061031291906134ad565b6113ac565b005b610333600480360381019061032e91906134f6565b6115c4565b6040516103409190613599565b60405180910390f35b610363600480360381019061035e91906134f6565b611694565b6040516103709190613625565b60405180910390f35b610393600480360381019061038e919061369f565b611764565b005b6103af60048036038101906103aa9190613706565b611776565b6040516103bc9190612ba4565b60405180910390f35b6103df60048036038101906103da9190613733565b611796565b005b606060006103ee846106a3565b90506000808267ffffffffffffffff81111561040d5761040c612d39565b5b60405190808252806020026020018201604052801561044657816020015b610433612651565b81526020019060019003908161042b5790505b50905060008367ffffffffffffffff81111561046557610464612d39565b5b60405190808252806020026020018201604052801561049e57816020015b61048b61267e565b8152602001906001900390816104835790505b5090506104aa87610c4e565b905060005b8481101561062a578181815181106104ca576104c9613760565b5b602002602001015160000151935060405180606001604052808563ffffffff168152602001600b60008a73ffffffffffffffffffffffffffffffffffffffff1673ffffffffffffffffffffffffffffffffffffffff16815260200190815260200160002060008b815260200190815260200160002060008763ffffffff1663ffffffff16815260200190815260200160002060000160009054906101000a900460ff1660ff168152602001600b60008a73ffffffffffffffffffffffffffffffffffffffff1673ffffffffffffffffffffffffffffffffffffffff16815260200190815260200160002060008b815260200190815260200160002060008763ffffffff1663ffffffff16815260200190815260200160002060000160019054906101000a900460ff1660ff1681525083828151811061060c5761060b613760565b5b60200260200101819052508080610622906137be565b9150506104af565b508194505050505092915050565b60606008600083815260200190815260200160002080548060200260200160405190810160405280929190818152602001828054801561069757602002820191906000526020600020905b815481526020019060010190808311610683575b50505050509050919050565b6000806000905060005b600860008581526020019081526020016000208054905081101561073157600760006008600087815260200190815260200160002083815481106106f4576106f3613760565b5b90600052602060002001548152602001908152602001600020805490508261071c9190613806565b91508080610729906137be565b9150506106ad565b5080915050919050565b600080479150600061074b611819565b90508073ffffffffffffffffffffffffffffffffffffffff166370a08231306040518263ffffffff1660e01b815260040161078691906130f0565b602060405180830381865afa1580156107a3573d6000803e3d6000fd5b505050506040513d601f19601f820116820180604052508101906107c79190613871565b9150509091565b60006107d8611819565b90508073ffffffffffffffffffffffffffffffffffffffff1663a9059cbb84846040518363ffffffff1660e01b81526004016108159291906138fd565b6020604051808303816000875af1158015610834573d6000803e3d6000fd5b505050506040513d601f19601f82011682018060405250810190610858919061395e565b61089b5782826040517f7ab2f9770000000000000000000000000000000000000000000000000000000081526004016108929291906138fd565b60405180910390fd5b505050565b60008060006108b8600c546393d0707260e01b611843565b90506109046040518060400160405280600681526020017f6d61726b6574000000000000000000000000000000000000000000000000000081525087836118739092919063ffffffff16565b61094e6040518060400160405280600881526020017f6c6561677565496400000000000000000000000000000000000000000000000081525086836118739092919063ffffffff16565b6109986040518060400160405280600481526020017f646174650000000000000000000000000000000000000000000000000000000081525085836118739092919063ffffffff16565b6109a481600d546118a6565b915081925050509392505050565b6109ba6126b3565b60006109c8600185856108a0565b905060005b6007600083815260200190815260200160002080549050811015610b4b57610aab600760008481526020019081526020016000208281548110610a1357610a12613760565b5b906000526020600020018054610a28906139ba565b80601f0160208091040260200160405190810160405280929190818152602001828054610a54906139ba565b8015610aa15780601f10610a7657610100808354040283529160200191610aa1565b820191906000526020600020905b815481529060010190602001808311610a8457829003601f168201915b50505050506118dd565b92506040518060400160405280846020015160ff168152602001846040015160ff16815250600a6000856000015163ffffffff1663ffffffff16815260200190815260200160002060008201518160000160006101000a81548160ff021916908360ff16021790555060208201518160000160016101000a81548160ff021916908360ff1602179055509050508080610b43906137be565b9150506109cd565b5050505050565b600e6000815480929190610b65906137be565b9190505550600080600090505b8351811015610bf257610ba1600086868481518110610b9457610b93613760565b5b60200260200101516108a0565b915060086000600e5481526020019081526020016000208290806001815401808255809150506001900390600052602060002001600090919091909150558080610bea906137be565b915050610b72565b5060405180604001604052808581526020018381525060096000600e548152602001908152602001600020600082015181600001556020820151816001015590505050505050565b610c4261199d565b610c4c6000611a1b565b565b60606000610c5b836106a3565b90506000808267ffffffffffffffff811115610c7a57610c79612d39565b5b604051908082528060200260200182016040528015610cb357816020015b610ca061267e565b815260200190600190039081610c985790505b50905060005b6008600087815260200190815260200160002080549050811015610e6c5760076000600860008981526020019081526020016000208381548110610d0057610cff613760565b5b9060005260206000200154815260200190815260200160002080549050935060005b84811015610e5857610e1960076000600860008b81526020019081526020016000208581548110610d5657610d55613760565b5b906000526020600020015481526020019081526020016000208281548110610d8157610d80613760565b5b906000526020600020018054610d96906139ba565b80601f0160208091040260200160405190810160405280929190818152602001828054610dc2906139ba565b8015610e0f5780601f10610de457610100808354040283529160200191610e0f565b820191906000526020600020905b815481529060010190602001808311610df257829003601f168201915b5050505050611ae1565b838581518110610e2c57610e2b613760565b5b60200260200101819052508380610e42906137be565b9450508080610e50906137be565b915050610d22565b508080610e64906137be565b915050610cb9565b50809350505050919050565b60008060008060009050600080610e8e886106a3565b905060008167ffffffffffffffff811115610eac57610eab612d39565b5b604051908082528060200260200182016040528015610ee557816020015b610ed261267e565b815260200190600190039081610eca5790505b509050610ef189610c4e565b905060005b8281101561124057818181518110610f1157610f10613760565b5b6020026020010151600001519350611023600b60008b73ffffffffffffffffffffffffffffffffffffffff1673ffffffffffffffffffffffffffffffffffffffff16815260200190815260200160002060008c815260200190815260200160002060008663ffffffff1663ffffffff16815260200190815260200160002060000160009054906101000a900460ff16600b60008c73ffffffffffffffffffffffffffffffffffffffff1673ffffffffffffffffffffffffffffffffffffffff16815260200190815260200160002060008d815260200190815260200160002060008763ffffffff1663ffffffff16815260200190815260200160002060000160019054906101000a900460ff16611bbe565b965061108d600a60008663ffffffff1663ffffffff16815260200190815260200160002060000160009054906101000a900460ff16600a60008763ffffffff1663ffffffff16815260200190815260200160002060000160019054906101000a900460ff16611bbe565b955085870361122d576001856110a39190613806565b9450600a60008563ffffffff1663ffffffff16815260200190815260200160002060000160009054906101000a900460ff1660ff16600b60008b73ffffffffffffffffffffffffffffffffffffffff1673ffffffffffffffffffffffffffffffffffffffff16815260200190815260200160002060008c815260200190815260200160002060008663ffffffff1663ffffffff16815260200190815260200160002060000160009054906101000a900460ff1660ff161480156112175750600a60008563ffffffff1663ffffffff16815260200190815260200160002060000160019054906101000a900460ff1660ff16600b60008b73ffffffffffffffffffffffffffffffffffffffff1673ffffffffffffffffffffffffffffffffffffffff16815260200190815260200160002060008c815260200190815260200160002060008663ffffffff1663ffffffff16815260200190815260200160002060000160019054906101000a900460ff1660ff16145b1561122c576002856112299190613806565b94505b5b8080611238906137be565b915050610ef6565b5083965050505050505092915050565b6000600660009054906101000a900473ffffffffffffffffffffffffffffffffffffffff16905090565b816005600082815260200190815260200160002060009054906101000a900473ffffffffffffffffffffffffffffffffffffffff1673ffffffffffffffffffffffffffffffffffffffff163373ffffffffffffffffffffffffffffffffffffffff161461131c576040517f08c379a000000000000000000000000000000000000000000000000000000000815260040161131390613a6e565b60405180910390fd5b6005600082815260200190815260200160002060006101000a81549073ffffffffffffffffffffffffffffffffffffffff0219169055807f7cc135e0cebb02c3480ae5d74d377283180a2601f8f644edf7987b009316c63a60405160405180910390a2816007600085815260200190815260200160002090805190602001906113a69291906126e7565b50505050565b60096000600e548152602001908152602001600020600101544210611406576040517f08c379a00000000000000000000000000000000000000000000000000000000081526004016113fd90613ada565b60405180910390fd5b60086000600e54815260200190815260200160002080549050815114611461576040517f08c379a000000000000000000000000000000000000000000000000000000000815260040161145890613b6c565b60405180910390fd5b60005b60086000600e548152602001908152602001600020805490508110156115c05760405180604001604052808383815181106114a2576114a1613760565b5b60200260200101516020015160ff1681526020018383815181106114c9576114c8613760565b5b60200260200101516040015160ff16815250600b60003373ffffffffffffffffffffffffffffffffffffffff1673ffffffffffffffffffffffffffffffffffffffff1681526020019081526020016000206000600e548152602001908152602001600020600084848151811061154257611541613760565b5b60200260200101516000015163ffffffff1663ffffffff16815260200190815260200160002060008201518160000160006101000a81548160ff021916908360ff16021790555060208201518160000160016101000a81548160ff021916908360ff16021790555090505080806115b8906137be565b915050611464565b5050565b6115cc6126b3565b61168c6007600085815260200190815260200160002083815481106115f4576115f3613760565b5b906000526020600020018054611609906139ba565b80601f0160208091040260200160405190810160405280929190818152602001828054611635906139ba565b80156116825780601f1061165757610100808354040283529160200191611682565b820191906000526020600020905b81548152906001019060200180831161166557829003601f168201915b50505050506118dd565b905092915050565b61169c61267e565b61175c6007600085815260200190815260200160002083815481106116c4576116c3613760565b5b9060005260206000200180546116d9906139ba565b80601f0160208091040260200160405190810160405280929190818152602001828054611705906139ba565b80156117525780601f1061172757610100808354040283529160200191611752565b820191906000526020600020905b81548152906001019060200180831161173557829003601f168201915b5050505050611ae1565b905092915050565b61177084848484611bff565b50505050565b600060076000838152602001908152602001600020805490509050919050565b61179e61199d565b600073ffffffffffffffffffffffffffffffffffffffff168173ffffffffffffffffffffffffffffffffffffffff160361180d576040517f08c379a000000000000000000000000000000000000000000000000000000000815260040161180490613bfe565b60405180910390fd5b61181681611a1b565b50565b6000600260009054906101000a900473ffffffffffffffffffffffffffffffffffffffff16905090565b61184b612740565b611853612740565b61186a84308584611d12909392919063ffffffff16565b91505092915050565b61188a828460800151611dc290919063ffffffff16565b6118a1818460800151611de790919063ffffffff16565b505050565b60006118d5600360009054906101000a900473ffffffffffffffffffffffffffffffffffffffff168484611e17565b905092915050565b6118e56126b3565b60006118f46000600485611ee1565b6118fd90613c5b565b60e01c905060008360048151811061191857611917613760565b5b602001015160f81c60f81b60f81c905060008460058151811061193e5761193d613760565b5b602001015160f81c60f81b60f81c9050600061195d6006875188611ee1565b9050600060405180608001604052808663ffffffff1681526020018560ff1681526020018460ff1681526020018381525090508095505050505050919050565b6119a5611fdd565b73ffffffffffffffffffffffffffffffffffffffff166119c3611250565b73ffffffffffffffffffffffffffffffffffffffff1614611a19576040517f08c379a0000000000000000000000000000000000000000000000000000000008152600401611a1090613d0e565b60405180910390fd5b565b6000600660009054906101000a900473ffffffffffffffffffffffffffffffffffffffff16905081600660006101000a81548173ffffffffffffffffffffffffffffffffffffffff021916908373ffffffffffffffffffffffffffffffffffffffff1602179055508173ffffffffffffffffffffffffffffffffffffffff168173ffffffffffffffffffffffffffffffffffffffff167f8be0079c531659141344cd1fd0a4f28419497f9722a3daafe3b4186f6b6457e060405160405180910390a35050565b611ae961267e565b6000611af86000600485611ee1565b611b0190613c5b565b60e01c90506000611b156004600986611ee1565b611b1e90613d6f565b60d81c9050600084600981518110611b3957611b38613760565b5b602001015160f81c60f81b60f81c9050600081600a611b589190613dd6565b60ff1690506000611b6b600a8389611ee1565b90506000611b7b8389518a611ee1565b9050600060405180608001604052808863ffffffff1681526020018764ffffffffff16815260200184815260200183815250905080975050505050505050919050565b6000808260ff168460ff161115611bd85760009050611bf5565b8360ff168360ff161115611bef5760029050611bf4565b600190505b5b8091505092915050565b60006005600086815260200190815260200160002060009054906101000a900473ffffffffffffffffffffffffffffffffffffffff1690506005600086815260200190815260200160002060006101000a81549073ffffffffffffffffffffffffffffffffffffffff0219169055847fe1fe3afa0f7f761ff0a8b89086790efd5140d2907ebd5b7ff6bfcb5e075fd4c560405160405180910390a28073ffffffffffffffffffffffffffffffffffffffff16636ee4d553868686866040518563ffffffff1660e01b8152600401611cd99493929190613e1c565b600060405180830381600087803b158015611cf357600080fd5b505af1158015611d07573d6000803e3d6000fd5b505050505050505050565b611d1a612740565b611d2a8560800151610100611fe5565b508385600001818152505082856020019073ffffffffffffffffffffffffffffffffffffffff16908173ffffffffffffffffffffffffffffffffffffffff16815250508185604001907bffffffffffffffffffffffffffffffffffffffffffffffffffffffff191690817bffffffffffffffffffffffffffffffffffffffffffffffffffffffff191681525050849050949350505050565b611dcf826003835161204f565b611de281836121d490919063ffffffff16565b505050565b67ffffffffffffffff811115611e0657611e0182826121f6565b611e13565b611e128260008361204f565b5b5050565b6000806004549050600181611e2c9190613806565b6004819055506000633c6d41b960e01b600080876000015188604001518660028b6080015160000151604051602401611e6b9796959493929190613eab565b604051602081830303815290604052907bffffffffffffffffffffffffffffffffffffffffffffffffffffffff19166020820180517bffffffffffffffffffffffffffffffffffffffffffffffffffffffff83818316178352505050509050611ed686838684612242565b925050509392505050565b606060008484611ef19190613f21565b67ffffffffffffffff811115611f0a57611f09612d39565b5b6040519080825280601f01601f191660200182016040528015611f3c5781602001600182028036833780820191505090505b50905060005b8585611f4e9190613f21565b811015611fd157838187611f629190613806565b81518110611f7357611f72613760565b5b602001015160f81c60f81b828281518110611f9157611f90613760565b5b60200101907effffffffffffffffffffffffffffffffffffffffffffffffffffffffffffff1916908160001a90535080611fca906137be565b9050611f42565b50809150509392505050565b600033905090565b611fed6127ad565b6000602083611ffc9190613f84565b146120285760208261200e9190613f84565b602061201a9190613f21565b826120259190613806565b91505b81836020018181525050604051808452600081528281016020016040525082905092915050565b60178167ffffffffffffffff1611612086576120808160058460ff16901b60ff1617846123d790919063ffffffff16565b506121cf565b60ff8167ffffffffffffffff16116120dc576120b5601860058460ff16901b17846123d790919063ffffffff16565b506120d68167ffffffffffffffff166001856123f79092919063ffffffff16565b506121ce565b61ffff8167ffffffffffffffff16116121335761210c601960058460ff16901b17846123d790919063ffffffff16565b5061212d8167ffffffffffffffff166002856123f79092919063ffffffff16565b506121cd565b63ffffffff8167ffffffffffffffff161161218c57612165601a60058460ff16901b17846123d790919063ffffffff16565b506121868167ffffffffffffffff166004856123f79092919063ffffffff16565b506121cc565b6121a9601b60058460ff16901b17846123d790919063ffffffff16565b506121ca8167ffffffffffffffff166008856123f79092919063ffffffff16565b505b5b5b5b505050565b6121dc6127ad565b6121ee83846000015151848551612419565b905092915050565b61221460026005600660ff16901b17836123d790919063ffffffff16565b5061223e828260405160200161222a9190612ba4565b604051602081830303815290604052612508565b5050565b60003084604051602001612257929190614030565b604051602081830303815290604052805190602001209050846005600083815260200190815260200160002060006101000a81548173ffffffffffffffffffffffffffffffffffffffff021916908373ffffffffffffffffffffffffffffffffffffffff160217905550807fb5e6e01e79f91267dc17b4e6314d5d4d03593d2ceee0fbb452b750bd70ea5af960405160405180910390a2600260009054906101000a900473ffffffffffffffffffffffffffffffffffffffff1673ffffffffffffffffffffffffffffffffffffffff16634000aea08685856040518463ffffffff1660e01b815260040161234d9392919061405c565b6020604051808303816000875af115801561236c573d6000803e3d6000fd5b505050506040513d601f19601f82011682018060405250810190612390919061395e565b6123cf576040517f08c379a00000000000000000000000000000000000000000000000000000000081526004016123c69061410c565b60405180910390fd5b949350505050565b6123df6127ad565b6123ef838460000151518461252d565b905092915050565b6123ff6127ad565b612410848560000151518585612583565b90509392505050565b6124216127ad565b825182111561242f57600080fd5b846020015182856124409190613806565b111561247557612474856002612465886020015188876124609190613806565b612611565b61246f919061412c565b61262d565b5b6000808651805187602083010193508088870111156124945787860182525b60208701925050505b602084106124db57805182526020826124b69190613806565b91506020816124c59190613806565b90506020846124d49190613f21565b935061249d565b60006001856020036101000a03905080198251168184511681811785525050508692505050949350505050565b612515826002835161204f565b61252881836121d490919063ffffffff16565b505050565b6125356127ad565b8360200151831061255b5761255a8460028660200151612555919061412c565b61262d565b5b83518051602085830101848153818603612576576001820183525b5050508390509392505050565b61258b6127ad565b8460200151848361259c9190613806565b11156125c4576125c385600286856125b49190613806565b6125be919061412c565b61262d565b5b60006001836101006125d691906142b9565b6125e09190613f21565b905085518386820101858319825116178152815185880111156126035784870182525b505085915050949350505050565b60008183111561262357829050612627565b8190505b92915050565b6000826000015190506126408383611fe5565b5061264b83826121d4565b50505050565b6040518060600160405280600063ffffffff168152602001600060ff168152602001600060ff1681525090565b6040518060800160405280600063ffffffff168152602001600064ffffffffff16815260200160608152602001606081525090565b6040518060800160405280600063ffffffff168152602001600060ff168152602001600060ff168152602001606081525090565b82805482825590600052602060002090810192821561272f579160200282015b8281111561272e57825182908161271e9190614499565b5091602001919060010190612707565b5b50905061273c91906127c7565b5090565b6040518060a0016040528060008019168152602001600073ffffffffffffffffffffffffffffffffffffffff16815260200160007bffffffffffffffffffffffffffffffffffffffffffffffffffffffff19168152602001600081526020016127a76127ad565b81525090565b604051806040016040528060608152602001600081525090565b5b808211156127e757600081816127de91906127eb565b506001016127c8565b5090565b5080546127f7906139ba565b6000825580601f106128095750612828565b601f016020900490600052602060002090810190612827919061282b565b5b50565b5b8082111561284457600081600090555060010161282c565b5090565b6000604051905090565b600080fd5b600080fd5b6000819050919050565b61286f8161285c565b811461287a57600080fd5b50565b60008135905061288c81612866565b92915050565b600073ffffffffffffffffffffffffffffffffffffffff82169050919050565b60006128bd82612892565b9050919050565b6128cd816128b2565b81146128d857600080fd5b50565b6000813590506128ea816128c4565b92915050565b6000806040838503121561290757612906612852565b5b60006129158582860161287d565b9250506020612926858286016128db565b9150509250929050565b600081519050919050565b600082825260208201905092915050565b6000819050602082019050919050565b600063ffffffff82169050919050565b6129758161295c565b82525050565b600060ff82169050919050565b6129918161297b565b82525050565b6060820160008201516129ad600085018261296c565b5060208201516129c06020850182612988565b5060408201516129d36040850182612988565b50505050565b60006129e58383612997565b60608301905092915050565b6000602082019050919050565b6000612a0982612930565b612a13818561293b565b9350612a1e8361294c565b8060005b83811015612a4f578151612a3688826129d9565b9750612a41836129f1565b925050600181019050612a22565b5085935050505092915050565b60006020820190508181036000830152612a7681846129fe565b905092915050565b600060208284031215612a9457612a93612852565b5b6000612aa28482850161287d565b91505092915050565b600081519050919050565b600082825260208201905092915050565b6000819050602082019050919050565b6000819050919050565b612aea81612ad7565b82525050565b6000612afc8383612ae1565b60208301905092915050565b6000602082019050919050565b6000612b2082612aab565b612b2a8185612ab6565b9350612b3583612ac7565b8060005b83811015612b66578151612b4d8882612af0565b9750612b5883612b08565b925050600181019050612b39565b5085935050505092915050565b60006020820190508181036000830152612b8d8184612b15565b905092915050565b612b9e8161285c565b82525050565b6000602082019050612bb96000830184612b95565b92915050565b6000604082019050612bd46000830185612b95565b612be16020830184612b95565b9392505050565b6000612bf382612892565b9050919050565b612c0381612be8565b8114612c0e57600080fd5b50565b600081359050612c2081612bfa565b92915050565b60008060408385031215612c3d57612c3c612852565b5b6000612c4b85828601612c11565b9250506020612c5c8582860161287d565b9150509250929050565b600080600060608486031215612c7f57612c7e612852565b5b6000612c8d8682870161287d565b9350506020612c9e8682870161287d565b9250506040612caf8682870161287d565b9150509250925092565b612cc281612ad7565b82525050565b6000602082019050612cdd6000830184612cb9565b92915050565b60008060408385031215612cfa57612cf9612852565b5b6000612d088582860161287d565b9250506020612d198582860161287d565b9150509250929050565b600080fd5b6000601f19601f8301169050919050565b7f4e487b7100000000000000000000000000000000000000000000000000000000600052604160045260246000fd5b612d7182612d28565b810181811067ffffffffffffffff82111715612d9057612d8f612d39565b5b80604052505050565b6000612da3612848565b9050612daf8282612d68565b919050565b600067ffffffffffffffff821115612dcf57612dce612d39565b5b602082029050602081019050919050565b600080fd5b6000612df8612df384612db4565b612d99565b90508083825260208201905060208402830185811115612e1b57612e1a612de0565b5b835b81811015612e445780612e30888261287d565b845260208401935050602081019050612e1d565b5050509392505050565b600082601f830112612e6357612e62612d23565b5b8135612e73848260208601612de5565b91505092915050565b600080600060608486031215612e9557612e94612852565b5b6000612ea38682870161287d565b935050602084013567ffffffffffffffff811115612ec457612ec3612857565b5b612ed086828701612e4e565b9250506040612ee18682870161287d565b9150509250925092565b600081519050919050565b600082825260208201905092915050565b6000819050602082019050919050565b600064ffffffffff82169050919050565b612f3181612f17565b82525050565b600081519050919050565b600082825260208201905092915050565b60005b83811015612f71578082015181840152602081019050612f56565b83811115612f80576000848401525b50505050565b6000612f9182612f37565b612f9b8185612f42565b9350612fab818560208601612f53565b612fb481612d28565b840191505092915050565b6000608083016000830151612fd7600086018261296c565b506020830151612fea6020860182612f28565b50604083015184820360408601526130028282612f86565b9150506060830151848203606086015261301c8282612f86565b9150508091505092915050565b60006130358383612fbf565b905092915050565b6000602082019050919050565b600061305582612eeb565b61305f8185612ef6565b93508360208202850161307185612f07565b8060005b858110156130ad578484038952815161308e8582613029565b94506130998361303d565b925060208a01995050600181019050613075565b50829750879550505050505092915050565b600060208201905081810360008301526130d9818461304a565b905092915050565b6130ea816128b2565b82525050565b600060208201905061310560008301846130e1565b92915050565b61311481612ad7565b811461311f57600080fd5b50565b6000813590506131318161310b565b92915050565b600067ffffffffffffffff82111561315257613151612d39565b5b602082029050602081019050919050565b600080fd5b600067ffffffffffffffff82111561318357613182612d39565b5b61318c82612d28565b9050602081019050919050565b82818337600083830152505050565b60006131bb6131b684613168565b612d99565b9050828152602081018484840111156131d7576131d6613163565b5b6131e2848285613199565b509392505050565b600082601f8301126131ff576131fe612d23565b5b813561320f8482602086016131a8565b91505092915050565b600061322b61322684613137565b612d99565b9050808382526020820190506020840283018581111561324e5761324d612de0565b5b835b8181101561329557803567ffffffffffffffff81111561327357613272612d23565b5b80860161328089826131ea565b85526020850194505050602081019050613250565b5050509392505050565b600082601f8301126132b4576132b3612d23565b5b81356132c4848260208601613218565b91505092915050565b600080604083850312156132e4576132e3612852565b5b60006132f285828601613122565b925050602083013567ffffffffffffffff81111561331357613312612857565b5b61331f8582860161329f565b9150509250929050565b600067ffffffffffffffff82111561334457613343612d39565b5b602082029050602081019050919050565b600080fd5b6133638161295c565b811461336e57600080fd5b50565b6000813590506133808161335a565b92915050565b61338f8161297b565b811461339a57600080fd5b50565b6000813590506133ac81613386565b92915050565b6000606082840312156133c8576133c7613355565b5b6133d26060612d99565b905060006133e284828501613371565b60008301525060206133f68482850161339d565b602083015250604061340a8482850161339d565b60408301525092915050565b600061342961342484613329565b612d99565b9050808382526020820190506060840283018581111561344c5761344b612de0565b5b835b81811015613475578061346188826133b2565b84526020840193505060608101905061344e565b5050509392505050565b600082601f83011261349457613493612d23565b5b81356134a4848260208601613416565b91505092915050565b6000602082840312156134c3576134c2612852565b5b600082013567ffffffffffffffff8111156134e1576134e0612857565b5b6134ed8482850161347f565b91505092915050565b6000806040838503121561350d5761350c612852565b5b600061351b85828601613122565b925050602061352c8582860161287d565b9150509250929050565b600060808301600083015161354e600086018261296c565b5060208301516135616020860182612988565b5060408301516135746040860182612988565b506060830151848203606086015261358c8282612f86565b9150508091505092915050565b600060208201905081810360008301526135b38184613536565b905092915050565b60006080830160008301516135d3600086018261296c565b5060208301516135e66020860182612f28565b50604083015184820360408601526135fe8282612f86565b915050606083015184820360608601526136188282612f86565b9150508091505092915050565b6000602082019050818103600083015261363f81846135bb565b905092915050565b60007fffffffff0000000000000000000000000000000000000000000000000000000082169050919050565b61367c81613647565b811461368757600080fd5b50565b60008135905061369981613673565b92915050565b600080600080608085870312156136b9576136b8612852565b5b60006136c787828801613122565b94505060206136d88782880161287d565b93505060406136e98782880161368a565b92505060606136fa8782880161287d565b91505092959194509250565b60006020828403121561371c5761371b612852565b5b600061372a84828501613122565b91505092915050565b60006020828403121561374957613748612852565b5b6000613757848285016128db565b91505092915050565b7f4e487b7100000000000000000000000000000000000000000000000000000000600052603260045260246000fd5b7f4e487b7100000000000000000000000000000000000000000000000000000000600052601160045260246000fd5b60006137c98261285c565b91507fffffffffffffffffffffffffffffffffffffffffffffffffffffffffffffffff82036137fb576137fa61378f565b5b600182019050919050565b60006138118261285c565b915061381c8361285c565b9250827fffffffffffffffffffffffffffffffffffffffffffffffffffffffffffffffff038211156138515761385061378f565b5b828201905092915050565b60008151905061386b81612866565b92915050565b60006020828403121561388757613886612852565b5b60006138958482850161385c565b91505092915050565b6000819050919050565b60006138c36138be6138b984612892565b61389e565b612892565b9050919050565b60006138d5826138a8565b9050919050565b60006138e7826138ca565b9050919050565b6138f7816138dc565b82525050565b600060408201905061391260008301856138ee565b61391f6020830184612b95565b9392505050565b60008115159050919050565b61393b81613926565b811461394657600080fd5b50565b60008151905061395881613932565b92915050565b60006020828403121561397457613973612852565b5b600061398284828501613949565b91505092915050565b7f4e487b7100000000000000000000000000000000000000000000000000000000600052602260045260246000fd5b600060028204905060018216806139d257607f821691505b6020821081036139e5576139e461398b565b5b50919050565b600082825260208201905092915050565b7f536f75726365206d75737420626520746865206f7261636c65206f662074686560008201527f2072657175657374000000000000000000000000000000000000000000000000602082015250565b6000613a586028836139eb565b9150613a63826139fc565b604082019050919050565b60006020820190508181036000830152613a8781613a4b565b9050919050565b7f50726564696374696f6e20506572696f6420697320636c6f7365642100000000600082015250565b6000613ac4601c836139eb565b9150613acf82613a8e565b602082019050919050565b60006020820190508181036000830152613af381613ab7565b9050919050565b7f546865206e756d626572206f662070726564696374696f6e7320646f65736e2760008201527f74206d6174636821000000000000000000000000000000000000000000000000602082015250565b6000613b566028836139eb565b9150613b6182613afa565b604082019050919050565b60006020820190508181036000830152613b8581613b49565b9050919050565b7f4f776e61626c653a206e6577206f776e657220697320746865207a65726f206160008201527f6464726573730000000000000000000000000000000000000000000000000000602082015250565b6000613be86026836139eb565b9150613bf382613b8c565b604082019050919050565b60006020820190508181036000830152613c1781613bdb565b9050919050565b600081519050919050565b6000819050602082019050919050565b6000613c458251613647565b80915050919050565b600082821b905092915050565b6000613c6682613c1e565b82613c7084613c29565b9050613c7b81613c39565b92506004821015613cbb57613cb67fffffffff0000000000000000000000000000000000000000000000000000000083600403600802613c4e565b831692505b5050919050565b7f4f776e61626c653a2063616c6c6572206973206e6f7420746865206f776e6572600082015250565b6000613cf86020836139eb565b9150613d0382613cc2565b602082019050919050565b60006020820190508181036000830152613d2781613ceb565b9050919050565b60007fffffffffff00000000000000000000000000000000000000000000000000000082169050919050565b6000613d668251613d2e565b80915050919050565b6000613d7a82613c1e565b82613d8484613c29565b9050613d8f81613d5a565b92506005821015613dcf57613dca7fffffffffff00000000000000000000000000000000000000000000000000000083600503600802613c4e565b831692505b5050919050565b6000613de18261297b565b9150613dec8361297b565b92508260ff03821115613e0257613e0161378f565b5b828201905092915050565b613e1681613647565b82525050565b6000608082019050613e316000830187612cb9565b613e3e6020830186612b95565b613e4b6040830185613e0d565b613e586060830184612b95565b95945050505050565b600082825260208201905092915050565b6000613e7d82613c1e565b613e878185613e61565b9350613e97818560208601612f53565b613ea081612d28565b840191505092915050565b600060e082019050613ec0600083018a6130e1565b613ecd6020830189612b95565b613eda6040830188612cb9565b613ee76060830187613e0d565b613ef46080830186612b95565b613f0160a0830185612b95565b81810360c0830152613f138184613e72565b905098975050505050505050565b6000613f2c8261285c565b9150613f378361285c565b925082821015613f4a57613f4961378f565b5b828203905092915050565b7f4e487b7100000000000000000000000000000000000000000000000000000000600052601260045260246000fd5b6000613f8f8261285c565b9150613f9a8361285c565b925082613faa57613fa9613f55565b5b828206905092915050565b6000613fc0826138ca565b9050919050565b60008160601b9050919050565b6000613fdf82613fc7565b9050919050565b6000613ff182613fd4565b9050919050565b61400961400482613fb5565b613fe6565b82525050565b6000819050919050565b61402a6140258261285c565b61400f565b82525050565b600061403c8285613ff8565b60148201915061404c8284614019565b6020820191508190509392505050565b600060608201905061407160008301866130e1565b61407e6020830185612b95565b81810360408301526140908184613e72565b9050949350505050565b7f756e61626c6520746f207472616e73666572416e6443616c6c20746f206f726160008201527f636c650000000000000000000000000000000000000000000000000000000000602082015250565b60006140f66023836139eb565b91506141018261409a565b604082019050919050565b60006020820190508181036000830152614125816140e9565b9050919050565b60006141378261285c565b91506141428361285c565b9250817fffffffffffffffffffffffffffffffffffffffffffffffffffffffffffffffff048311821515161561417b5761417a61378f565b5b828202905092915050565b60008160011c9050919050565b6000808291508390505b60018511156141dd578086048111156141b9576141b861378f565b5b60018516156141c85780820291505b80810290506141d685614186565b945061419d565b94509492505050565b6000826141f657600190506142b2565b8161420457600090506142b2565b816001811461421a576002811461422457614253565b60019150506142b2565b60ff8411156142365761423561378f565b5b8360020a91508482111561424d5761424c61378f565b5b506142b2565b5060208310610133831016604e8410600b84101617156142885782820a9050838111156142835761428261378f565b5b6142b2565b6142958484846001614193565b925090508184048111156142ac576142ab61378f565b5b81810290505b9392505050565b60006142c48261285c565b91506142cf8361285c565b92506142fc7fffffffffffffffffffffffffffffffffffffffffffffffffffffffffffffffff84846141e6565b905092915050565b60008190508160005260206000209050919050565b60006020601f8301049050919050565b6000600883026143597fffffffffffffffffffffffffffffffffffffffffffffffffffffffffffffffff82613c4e565b6143638683613c4e565b95508019841693508086168417925050509392505050565b600061439661439161438c8461285c565b61389e565b61285c565b9050919050565b6000819050919050565b6143b08361437b565b6143c46143bc8261439d565b848454614329565b825550505050565b600090565b6143d96143cc565b6143e48184846143a7565b505050565b5b81811015614408576143fd6000826143d1565b6001810190506143ea565b5050565b601f82111561444d5761441e81614304565b61442784614319565b81016020851015614436578190505b61444a61444285614319565b8301826143e9565b50505b505050565b600082821c905092915050565b600061447060001984600802614452565b1980831691505092915050565b6000614489838361445f565b9150826002028217905092915050565b6144a282613c1e565b67ffffffffffffffff8111156144bb576144ba612d39565b5b6144c582546139ba565b6144d082828561440c565b600060209050601f83116001811461450357600084156144f1578287015190505b6144fb858261447d565b865550614563565b601f19841661451186614304565b60005b8281101561453957848901518255600182019150602085019450602081019050614514565b868310156145565784890151614552601f89168261445f565b8355505b6001600288020188555050505b50505050505056fea264697066735822122088c789a08399a9afd111ca4268a6f4f6f91eaa0b64de5880fceac153c62768a464736f6c634300080f0033",
  "linkReferences": {},
  "deployedLinkReferences": {}
}