{
  "_format": "hh-sol-artifact-1",
  "contractName": "Test",
  "sourceName": "contracts/IpPrediction.sol",
  "abi": [
    {
      "inputs": [],
      "stateMutability": "nonpayable",
      "type": "constructor"
    },
    {
      "inputs": [
        {
          "internalType": "uint256",
          "name": "",
          "type": "uint256"
        }
      ],
      "name": "gainTable",
      "outputs": [
        {
          "internalType": "string",
          "name": "player",
          "type": "string"
        },
        {
          "internalType": "uint256",
          "name": "score",
          "type": "uint256"
        },
        {
          "internalType": "uint256",
          "name": "rewardNoExAequo",
          "type": "uint256"
        },
        {
          "internalType": "uint256",
          "name": "cumulatedRewardsNoExAequo",
          "type": "uint256"
        },
        {
          "internalType": "uint256",
          "name": "rankExAequo",
          "type": "uint256"
        }
      ],
      "stateMutability": "view",
      "type": "function"
    },
    {
      "inputs": [],
      "name": "getGainTable",
      "outputs": [
        {
          "components": [
            {
              "internalType": "string",
              "name": "player",
              "type": "string"
            },
            {
              "internalType": "uint256",
              "name": "score",
              "type": "uint256"
            },
            {
              "internalType": "uint256",
              "name": "rewardNoExAequo",
              "type": "uint256"
            },
            {
              "internalType": "uint256",
              "name": "cumulatedRewardsNoExAequo",
              "type": "uint256"
            },
            {
              "internalType": "uint256",
              "name": "rankExAequo",
              "type": "uint256"
            }
          ],
          "internalType": "struct Test.GainTable[]",
          "name": "",
          "type": "tuple[]"
        }
      ],
      "stateMutability": "view",
      "type": "function"
    },
    {
      "inputs": [
        {
          "internalType": "string",
          "name": "_player",
          "type": "string"
        },
        {
          "internalType": "uint256",
          "name": "_score",
          "type": "uint256"
        }
      ],
      "name": "pushInScoreTable",
      "outputs": [],
      "stateMutability": "nonpayable",
      "type": "function"
    },
    {
      "inputs": [],
      "name": "rank",
      "outputs": [],
      "stateMutability": "nonpayable",
      "type": "function"
    },
    {
      "inputs": [
        {
          "internalType": "uint256",
          "name": "",
          "type": "uint256"
        }
      ],
      "name": "scoreTable",
      "outputs": [
        {
          "internalType": "string",
          "name": "player",
          "type": "string"
        },
        {
          "internalType": "uint256",
          "name": "score",
          "type": "uint256"
        }
      ],
      "stateMutability": "view",
      "type": "function"
    }
  ],
  "bytecode": "0x60806040523480156200001157600080fd5b506106de60008190555060056001819055506200006b6040518060400160405280600781526020017f7469636b65743100000000000000000000000000000000000000000000000000815250605a6200019160201b60201c565b620000b36040518060400160405280600781526020017f7469636b65743200000000000000000000000000000000000000000000000000815250604e6200019160201b60201c565b620000fb6040518060400160405280600781526020017f7469636b6574330000000000000000000000000000000000000000000000000081525060646200019160201b60201c565b620001436040518060400160405280600781526020017f7469636b65743400000000000000000000000000000000000000000000000000815250604e6200019160201b60201c565b6200018b6040518060400160405280600781526020017f7469636b6574350000000000000000000000000000000000000000000000000081525060646200019160201b60201c565b6200055a565b600360405180604001604052808481526020018381525090806001815401808255809150506001900390600052602060002090600202016000909190919091506000820151816000019081620001e8919062000473565b506020820151816001015550505050565b600081519050919050565b7f4e487b7100000000000000000000000000000000000000000000000000000000600052604160045260246000fd5b7f4e487b7100000000000000000000000000000000000000000000000000000000600052602260045260246000fd5b600060028204905060018216806200027b57607f821691505b60208210810362000291576200029062000233565b5b50919050565b60008190508160005260206000209050919050565b60006020601f8301049050919050565b600082821b905092915050565b600060088302620002fb7fffffffffffffffffffffffffffffffffffffffffffffffffffffffffffffffff82620002bc565b620003078683620002bc565b95508019841693508086168417925050509392505050565b6000819050919050565b6000819050919050565b6000620003546200034e62000348846200031f565b62000329565b6200031f565b9050919050565b6000819050919050565b620003708362000333565b620003886200037f826200035b565b848454620002c9565b825550505050565b600090565b6200039f62000390565b620003ac81848462000365565b505050565b5b81811015620003d457620003c860008262000395565b600181019050620003b2565b5050565b601f8211156200042357620003ed8162000297565b620003f884620002ac565b8101602085101562000408578190505b620004206200041785620002ac565b830182620003b1565b50505b505050565b600082821c905092915050565b6000620004486000198460080262000428565b1980831691505092915050565b600062000463838362000435565b9150826002028217905092915050565b6200047e82620001f9565b67ffffffffffffffff8111156200049a576200049962000204565b5b620004a6825462000262565b620004b3828285620003d8565b600060209050601f831160018114620004eb5760008415620004d6578287015190505b620004e2858262000455565b86555062000552565b601f198416620004fb8662000297565b60005b828110156200052557848901518255600182019150602085019450602081019050620004fe565b8683101562000545578489015162000541601f89168262000435565b8355505b6001600288020188555050505b505050505050565b61125f806200056a6000396000f3fe608060405234801561001057600080fd5b50600436106100575760003560e01c806344235ec21461005c5780637e3ee4161461008d5780638ffb7b51146100c1578063934209ce146100dd5780639fe6b7cd146100e7575b600080fd5b610076600480360381019061007191906108be565b610105565b604051610084929190610993565b60405180910390f35b6100a760048036038101906100a291906108be565b6101c1565b6040516100b89594939291906109c3565b60405180910390f35b6100db60048036038101906100d69190610b52565b61028f565b005b6100e56102f5565b005b6100ef61072c565b6040516100fc9190610d3f565b60405180910390f35b6003818154811061011557600080fd5b906000526020600020906002020160009150905080600001805461013890610d90565b80601f016020809104026020016040519081016040528092919081815260200182805461016490610d90565b80156101b15780601f10610186576101008083540402835291602001916101b1565b820191906000526020600020905b81548152906001019060200180831161019457829003601f168201915b5050505050908060010154905082565b600281815481106101d157600080fd5b90600052602060002090600502016000915090508060000180546101f490610d90565b80601f016020809104026020016040519081016040528092919081815260200182805461022090610d90565b801561026d5780601f106102425761010080835404028352916020019161026d565b820191906000526020600020905b81548152906001019060200180831161025057829003601f168201915b5050505050908060010154908060020154908060030154908060040154905085565b6003604051806040016040528084815260200183815250908060018154018082558091505060019003906000526020600020906002020160009091909190915060008201518160000190816102e49190610f6d565b506020820151816001015550505050565b600060038054905090506000806000808467ffffffffffffffff81111561031f5761031e610a27565b5b60405190808252806020026020018201604052801561035857816020015b610345610845565b81526020019060019003908161033d5790505b50905060005b85811015610522576001945060005b868110156103f557600381815481106103895761038861103f565b5b906000526020600020906002020160010154600383815481106103af576103ae61103f565b5b90600052602060002090600202016001015410156103e25785806103d29061109d565b965050848611156103e1578594505b5b80806103ed9061109d565b91505061036d565b506040518060a00160405280600383815481106104155761041461103f565b5b9060005260206000209060020201600001805461043190610d90565b80601f016020809104026020016040519081016040528092919081815260200182805461045d90610d90565b80156104aa5780601f1061047f576101008083540402835291602001916104aa565b820191906000526020600020905b81548152906001019060200180831161048d57829003601f168201915b50505050508152602001600383815481106104c8576104c761103f565b5b90600052602060002090600202016001015481526020016000815260200160008152602001868152508282815181106105045761050361103f565b5b6020026020010181905250808061051a9061109d565b91505061035e565b506000600190505b8381116106775760005b8681101561066357818382815181106105505761054f61103f565b5b602002602001015160800151036106505760026040518060a001604052808584815181106105815761058061103f565b5b60200260200101516000015181526020018584815181106105a5576105a461103f565b5b602002602001015160200151815260200160008152602001600081526020018584815181106105d7576105d661103f565b5b602002602001015160800151815250908060018154018082558091505060019003906000526020600020906005020160009091909190915060008201518160000190816106249190610f6d565b506020820151816001015560408201518160020155606082015181600301556080820151816004015550505b808061065b9061109d565b915050610534565b50808061066f9061109d565b91505061052a565b5060005b8581101561072457600060646001548560005461069891906110e5565b6106a29190611119565b6106ac91906111a2565b905080600283815481106106c3576106c261103f565b5b90600052602060002090600502016002018190555080846106e491906111d3565b935083600283815481106106fb576106fa61103f565b5b90600052602060002090600502016003018190555050808061071c9061109d565b91505061067b565b505050505050565b60606002805480602002602001604051908101604052809291908181526020016000905b8282101561083c57838290600052602060002090600502016040518060a001604052908160008201805461078390610d90565b80601f01602080910402602001604051908101604052809291908181526020018280546107af90610d90565b80156107fc5780601f106107d1576101008083540402835291602001916107fc565b820191906000526020600020905b8154815290600101906020018083116107df57829003601f168201915b5050505050815260200160018201548152602001600282015481526020016003820154815260200160048201548152505081526020019060010190610750565b50505050905090565b6040518060a0016040528060608152602001600081526020016000815260200160008152602001600081525090565b6000604051905090565b600080fd5b600080fd5b6000819050919050565b61089b81610888565b81146108a657600080fd5b50565b6000813590506108b881610892565b92915050565b6000602082840312156108d4576108d361087e565b5b60006108e2848285016108a9565b91505092915050565b600081519050919050565b600082825260208201905092915050565b60005b8381101561092557808201518184015260208101905061090a565b83811115610934576000848401525b50505050565b6000601f19601f8301169050919050565b6000610956826108eb565b61096081856108f6565b9350610970818560208601610907565b6109798161093a565b840191505092915050565b61098d81610888565b82525050565b600060408201905081810360008301526109ad818561094b565b90506109bc6020830184610984565b9392505050565b600060a08201905081810360008301526109dd818861094b565b90506109ec6020830187610984565b6109f96040830186610984565b610a066060830185610984565b610a136080830184610984565b9695505050505050565b600080fd5b600080fd5b7f4e487b7100000000000000000000000000000000000000000000000000000000600052604160045260246000fd5b610a5f8261093a565b810181811067ffffffffffffffff82111715610a7e57610a7d610a27565b5b80604052505050565b6000610a91610874565b9050610a9d8282610a56565b919050565b600067ffffffffffffffff821115610abd57610abc610a27565b5b610ac68261093a565b9050602081019050919050565b82818337600083830152505050565b6000610af5610af084610aa2565b610a87565b905082815260208101848484011115610b1157610b10610a22565b5b610b1c848285610ad3565b509392505050565b600082601f830112610b3957610b38610a1d565b5b8135610b49848260208601610ae2565b91505092915050565b60008060408385031215610b6957610b6861087e565b5b600083013567ffffffffffffffff811115610b8757610b86610883565b5b610b9385828601610b24565b9250506020610ba4858286016108a9565b9150509250929050565b600081519050919050565b600082825260208201905092915050565b6000819050602082019050919050565b600082825260208201905092915050565b6000610bf6826108eb565b610c008185610bda565b9350610c10818560208601610907565b610c198161093a565b840191505092915050565b610c2d81610888565b82525050565b600060a0830160008301518482036000860152610c508282610beb565b9150506020830151610c656020860182610c24565b506040830151610c786040860182610c24565b506060830151610c8b6060860182610c24565b506080830151610c9e6080860182610c24565b508091505092915050565b6000610cb58383610c33565b905092915050565b6000602082019050919050565b6000610cd582610bae565b610cdf8185610bb9565b935083602082028501610cf185610bca565b8060005b85811015610d2d5784840389528151610d0e8582610ca9565b9450610d1983610cbd565b925060208a01995050600181019050610cf5565b50829750879550505050505092915050565b60006020820190508181036000830152610d598184610cca565b905092915050565b7f4e487b7100000000000000000000000000000000000000000000000000000000600052602260045260246000fd5b60006002820490506001821680610da857607f821691505b602082108103610dbb57610dba610d61565b5b50919050565b60008190508160005260206000209050919050565b60006020601f8301049050919050565b600082821b905092915050565b600060088302610e237fffffffffffffffffffffffffffffffffffffffffffffffffffffffffffffffff82610de6565b610e2d8683610de6565b95508019841693508086168417925050509392505050565b6000819050919050565b6000610e6a610e65610e6084610888565b610e45565b610888565b9050919050565b6000819050919050565b610e8483610e4f565b610e98610e9082610e71565b848454610df3565b825550505050565b600090565b610ead610ea0565b610eb8818484610e7b565b505050565b5b81811015610edc57610ed1600082610ea5565b600181019050610ebe565b5050565b601f821115610f2157610ef281610dc1565b610efb84610dd6565b81016020851015610f0a578190505b610f1e610f1685610dd6565b830182610ebd565b50505b505050565b600082821c905092915050565b6000610f4460001984600802610f26565b1980831691505092915050565b6000610f5d8383610f33565b9150826002028217905092915050565b610f76826108eb565b67ffffffffffffffff811115610f8f57610f8e610a27565b5b610f998254610d90565b610fa4828285610ee0565b600060209050601f831160018114610fd75760008415610fc5578287015190505b610fcf8582610f51565b865550611037565b601f198416610fe586610dc1565b60005b8281101561100d57848901518255600182019150602085019450602081019050610fe8565b8683101561102a5784890151611026601f891682610f33565b8355505b6001600288020188555050505b505050505050565b7f4e487b7100000000000000000000000000000000000000000000000000000000600052603260045260246000fd5b7f4e487b7100000000000000000000000000000000000000000000000000000000600052601160045260246000fd5b60006110a882610888565b91507fffffffffffffffffffffffffffffffffffffffffffffffffffffffffffffffff82036110da576110d961106e565b5b600182019050919050565b60006110f082610888565b91506110fb83610888565b92508282101561110e5761110d61106e565b5b828203905092915050565b600061112482610888565b915061112f83610888565b9250817fffffffffffffffffffffffffffffffffffffffffffffffffffffffffffffffff04831182151516156111685761116761106e565b5b828202905092915050565b7f4e487b7100000000000000000000000000000000000000000000000000000000600052601260045260246000fd5b60006111ad82610888565b91506111b883610888565b9250826111c8576111c7611173565b5b828204905092915050565b60006111de82610888565b91506111e983610888565b9250827fffffffffffffffffffffffffffffffffffffffffffffffffffffffffffffffff0382111561121e5761121d61106e565b5b82820190509291505056fea2646970667358221220d6a04d05aff402a3742f92a08252a88d94c79c5b7a278f3bbe49a11ddb04685064736f6c634300080f0033",
  "linkReferences": {},
  "deployedLinkReferences": {}
}