{"contracts/IpPrediction.sol":{"IpPrediction":{"abi":[{"inputs":[],"stateMutability":"nonpayable","type":"constructor"},{"inputs":[{"internalType":"address","name":"to","type":"address"},{"internalType":"uint256","name":"amount","type":"uint256"}],"name":"FailedTransferLINK","type":"error"},{"anonymous":false,"inputs":[{"indexed":true,"internalType":"bytes32","name":"id","type":"bytes32"}],"name":"ChainlinkCancelled","type":"event"},{"anonymous":false,"inputs":[{"indexed":true,"internalType":"bytes32","name":"id","type":"bytes32"}],"name":"ChainlinkFulfilled","type":"event"},{"anonymous":false,"inputs":[{"indexed":true,"internalType":"bytes32","name":"id","type":"bytes32"}],"name":"ChainlinkRequested","type":"event"},{"anonymous":false,"inputs":[{"indexed":true,"internalType":"address","name":"previousOwner","type":"address"},{"indexed":true,"internalType":"address","name":"newOwner","type":"address"}],"name":"OwnershipTransferred","type":"event"},{"inputs":[],"name":"_getOracleAddress","outputs":[{"internalType":"address","name":"","type":"address"}],"stateMutability":"view","type":"function"},{"inputs":[{"internalType":"bytes32","name":"_requestId","type":"bytes32"},{"internalType":"uint256","name":"_payment","type":"uint256"},{"internalType":"bytes4","name":"_callbackFunctionId","type":"bytes4"},{"internalType":"uint256","name":"_expiration","type":"uint256"}],"name":"cancelRequest","outputs":[],"stateMutability":"nonpayable","type":"function"},{"inputs":[{"internalType":"uint8","name":"_leagueId","type":"uint8"}],"name":"changeLeagueId","outputs":[],"stateMutability":"nonpayable","type":"function"},{"inputs":[{"internalType":"uint16","name":"_nbOfPredictions","type":"uint16"}],"name":"changeNumberOfPredictions","outputs":[],"stateMutability":"nonpayable","type":"function"},{"inputs":[{"internalType":"address","name":"_player","type":"address"}],"name":"checkResult","outputs":[{"internalType":"uint16","name":"","type":"uint16"}],"stateMutability":"view","type":"function"},{"inputs":[],"name":"contractBalances","outputs":[{"internalType":"uint256","name":"eth","type":"uint256"},{"internalType":"uint256","name":"link","type":"uint256"}],"stateMutability":"view","type":"function"},{"inputs":[{"internalType":"bytes32","name":"_requestId","type":"bytes32"},{"internalType":"bytes[]","name":"_result","type":"bytes[]"}],"name":"fulfillSchedule","outputs":[],"stateMutability":"nonpayable","type":"function"},{"inputs":[{"internalType":"bytes32","name":"_requestId","type":"bytes32"},{"internalType":"uint256","name":"_idx","type":"uint256"}],"name":"getGameCreate","outputs":[{"components":[{"internalType":"uint32","name":"gameId","type":"uint32"},{"internalType":"uint40","name":"startTime","type":"uint40"},{"internalType":"string","name":"homeTeam","type":"string"},{"internalType":"string","name":"awayTeam","type":"string"}],"internalType":"struct IpPrediction.GameCreate","name":"","type":"tuple"}],"stateMutability":"view","type":"function"},{"inputs":[{"internalType":"bytes32","name":"_requestId","type":"bytes32"},{"internalType":"uint256","name":"_idx","type":"uint256"}],"name":"getGameResolve","outputs":[{"components":[{"internalType":"uint32","name":"gameId","type":"uint32"},{"internalType":"uint8","name":"homeScore","type":"uint8"},{"internalType":"uint8","name":"awayScore","type":"uint8"},{"internalType":"string","name":"status","type":"string"}],"internalType":"struct IpPrediction.GameResolve","name":"","type":"tuple"}],"stateMutability":"view","type":"function"},{"inputs":[{"internalType":"bytes32","name":"_requestId","type":"bytes32"}],"name":"getLengthResults","outputs":[{"internalType":"uint256","name":"","type":"uint256"}],"stateMutability":"view","type":"function"},{"inputs":[{"internalType":"address","name":"_player","type":"address"}],"name":"getPrevisionsPerPlayer","outputs":[{"components":[{"internalType":"uint32","name":"gameId","type":"uint32"},{"internalType":"uint8","name":"homeScore","type":"uint8"},{"internalType":"uint8","name":"awayScore","type":"uint8"},{"internalType":"string","name":"status","type":"string"}],"internalType":"struct IpPrediction.GameResolve[]","name":"","type":"tuple[]"}],"stateMutability":"view","type":"function"},{"inputs":[],"name":"owner","outputs":[{"internalType":"address","name":"","type":"address"}],"stateMutability":"view","type":"function"},{"inputs":[],"name":"renounceOwnership","outputs":[],"stateMutability":"nonpayable","type":"function"},{"inputs":[{"internalType":"bytes32","name":"","type":"bytes32"},{"internalType":"uint256","name":"","type":"uint256"}],"name":"requestIdGames","outputs":[{"internalType":"bytes","name":"","type":"bytes"}],"stateMutability":"view","type":"function"},{"inputs":[{"internalType":"uint256","name":"_market","type":"uint256"},{"internalType":"uint256","name":"_date","type":"uint256"}],"name":"requestSchedule","outputs":[],"stateMutability":"nonpayable","type":"function"},{"inputs":[{"internalType":"uint256","name":"","type":"uint256"}],"name":"requestsIdList","outputs":[{"internalType":"bytes32","name":"","type":"bytes32"}],"stateMutability":"view","type":"function"},{"inputs":[{"components":[{"internalType":"uint32","name":"gameId","type":"uint32"},{"internalType":"uint8","name":"homeScore","type":"uint8"},{"internalType":"uint8","name":"awayScore","type":"uint8"},{"internalType":"string","name":"status","type":"string"}],"internalType":"struct IpPrediction.GameResolve[]","name":"_gamePredictions","type":"tuple[]"}],"name":"savePrediction","outputs":[],"stateMutability":"nonpayable","type":"function"},{"inputs":[{"internalType":"bytes32","name":"_requestId","type":"bytes32"},{"internalType":"bytes[]","name":"_games","type":"bytes[]"}],"name":"setRequestIdGames","outputs":[],"stateMutability":"nonpayable","type":"function"},{"inputs":[{"internalType":"address","name":"newOwner","type":"address"}],"name":"transferOwnership","outputs":[],"stateMutability":"nonpayable","type":"function"},{"inputs":[{"internalType":"address payable","name":"_payee","type":"address"},{"internalType":"uint256","name":"_amount","type":"uint256"}],"name":"withdrawLink","outputs":[],"stateMutability":"nonpayable","type":"function"}],"evm":{"bytecode":{"linkReferences":{},"object":"608060405260016004553480156200001657600080fd5b50620000376200002b6200010260201b60201c565b6200010a60201b60201c565b6200005c73326c977e6efc84e512bb9c30f76e30c160ed06fb620001d060201b60201c565b6200008173d5821b900e44db9490da9b09541bbd027fbecf4e6200021460201b60201c565b7f643131306235633462383364343264636132306534313061633533376364393460001b600a8190555067016345785d8a0000600b81905550604d600c60006101000a81548160ff021916908360ff1602179055506001600d819055506002600e60006101000a81548161ffff021916908361ffff16021790555062000258565b600033905090565b6000600660009054906101000a900473ffffffffffffffffffffffffffffffffffffffff16905081600660006101000a81548173ffffffffffffffffffffffffffffffffffffffff021916908373ffffffffffffffffffffffffffffffffffffffff1602179055508173ffffffffffffffffffffffffffffffffffffffff168173ffffffffffffffffffffffffffffffffffffffff167f8be0079c531659141344cd1fd0a4f28419497f9722a3daafe3b4186f6b6457e060405160405180910390a35050565b80600260006101000a81548173ffffffffffffffffffffffffffffffffffffffff021916908373ffffffffffffffffffffffffffffffffffffffff16021790555050565b80600360006101000a81548173ffffffffffffffffffffffffffffffffffffffff021916908373ffffffffffffffffffffffffffffffffffffffff16021790555050565b6140a080620002686000396000f3fe608060405234801561001057600080fd5b506004361061012c5760003560e01c80638ecf0521116100ad578063b8033c9e11610071578063b8033c9e1461031a578063de00d1071461034a578063e3c046a71461037a578063ec65d0f8146103aa578063f2fde38b146103c65761012c565b80638ecf05211461027857806393d0707214610294578063a2943608146102b0578063ac91ab9c146102e0578063b075f532146102fc5761012c565b806331536f18116100f457806331536f18146101e857806354b7faae146102045780636eaf5a5f14610220578063715018a6146102505780638da5cb5b1461025a5761012c565b806301e31005146101315780632163885a1461016157806329d08efc146101805780632a9ec6361461019c578063303a712f146101cc575b600080fd5b61014b600480360381019061014691906123ed565b6103e2565b6040516101589190612433565b60405180910390f35b6101696103fa565b60405161017792919061245d565b60405180910390f35b61019a600480360381019061019591906127c5565b61048d565b005b6101b660048036038101906101b1919061286c565b610741565b6040516101c39190612a64565b60405180910390f35b6101e660048036038101906101e19190612c34565b6108d1565b005b61020260048036038101906101fd9190612cca565b6108fd565b005b61021e60048036038101906102199190612d35565b610925565b005b61023a60048036038101906102359190612d75565b6109f7565b6040516102479190612da2565b60405180910390f35b610258610a17565b005b610262610a2b565b60405161026f9190612dcc565b60405180910390f35b610292600480360381019061028d9190612de7565b610a55565b005b6102ae60048036038101906102a99190612c34565b610a7b565b005b6102ca60048036038101906102c59190612e14565b610bdf565b6040516102d79190612ea9565b60405180910390f35b6102fa60048036038101906102f59190612ecb565b610c98565b005b610304610db1565b6040516103119190612dcc565b60405180910390f35b610334600480360381019061032f919061286c565b610dc0565b6040516103419190612f1a565b60405180910390f35b610364600480360381019061035f9190612e14565b611142565b6040516103719190612f98565b60405180910390f35b610394600480360381019061038f9190612e14565b611212565b6040516103a19190613044565b60405180910390f35b6103c460048036038101906103bf91906130be565b6112e2565b005b6103e060048036038101906103db919061286c565b6112f4565b005b60086020528060005260406000206000915090505481565b600080479150600061040a611377565b90508073ffffffffffffffffffffffffffffffffffffffff166370a08231306040518263ffffffff1660e01b81526004016104459190612dcc565b602060405180830381865afa158015610462573d6000803e3d6000fd5b505050506040513d601f19601f82011682018060405250810190610486919061313a565b9150509091565b600e60009054906101000a900461ffff1661ffff168151146104e4576040517f08c379a00000000000000000000000000000000000000000000000000000000081526004016104db906131ea565b60405180910390fd5b6000600960003373ffffffffffffffffffffffffffffffffffffffff1673ffffffffffffffffffffffffffffffffffffffff1681526020019081526020016000208054905014610569576040517f08c379a000000000000000000000000000000000000000000000000000000000815260040161056090613256565b60405180910390fd5b60005b600e60009054906101000a900461ffff1661ffff168161ffff16101561073d57600960003373ffffffffffffffffffffffffffffffffffffffff1673ffffffffffffffffffffffffffffffffffffffff1681526020019081526020016000206040518060800160405280848461ffff16815181106105ed576105ec613276565b5b60200260200101516000015163ffffffff168152602001848461ffff168151811061061b5761061a613276565b5b60200260200101516020015160ff168152602001848461ffff168151811061064657610645613276565b5b60200260200101516040015160ff168152602001848461ffff168151811061067157610670613276565b5b602002602001015160600151815250908060018154018082558091505060019003906000526020600020906002020160009091909190915060008201518160000160006101000a81548163ffffffff021916908363ffffffff16021790555060208201518160000160046101000a81548160ff021916908360ff16021790555060408201518160000160056101000a81548160ff021916908360ff160217905550606082015181600101908161072791906134b1565b5050508080610735906135b2565b91505061056c565b5050565b6060600960008373ffffffffffffffffffffffffffffffffffffffff1673ffffffffffffffffffffffffffffffffffffffff168152602001908152602001600020805480602002602001604051908101604052809291908181526020016000905b828210156108c657838290600052602060002090600202016040518060800160405290816000820160009054906101000a900463ffffffff1663ffffffff1663ffffffff1681526020016000820160049054906101000a900460ff1660ff1660ff1681526020016000820160059054906101000a900460ff1660ff1660ff168152602001600182018054610835906132d4565b80601f0160208091040260200160405190810160405280929190818152602001828054610861906132d4565b80156108ae5780601f10610883576101008083540402835291602001916108ae565b820191906000526020600020905b81548152906001019060200180831161089157829003601f168201915b505050505081525050815260200190600101906107a2565b505050509050919050565b806007600084815260200190815260200160002090805190602001906108f89291906121d9565b505050565b6109056113a1565b80600e60006101000a81548161ffff021916908361ffff16021790555050565b600061092f611377565b90508073ffffffffffffffffffffffffffffffffffffffff1663a9059cbb84846040518363ffffffff1660e01b815260040161096c929190613631565b6020604051808303816000875af115801561098b573d6000803e3d6000fd5b505050506040513d601f19601f820116820180604052508101906109af9190613692565b6109f25782826040517f7ab2f9770000000000000000000000000000000000000000000000000000000081526004016109e9929190613631565b60405180910390fd5b505050565b600060076000838152602001908152602001600020805490509050919050565b610a1f6113a1565b610a29600061141f565b565b6000600660009054906101000a900473ffffffffffffffffffffffffffffffffffffffff16905090565b610a5d6113a1565b80600c60006101000a81548160ff021916908360ff16021790555050565b816005600082815260200190815260200160002060009054906101000a900473ffffffffffffffffffffffffffffffffffffffff1673ffffffffffffffffffffffffffffffffffffffff163373ffffffffffffffffffffffffffffffffffffffff1614610b1d576040517f08c379a0000000000000000000000000000000000000000000000000000000008152600401610b1490613731565b60405180910390fd5b6005600082815260200190815260200160002060006101000a81549073ffffffffffffffffffffffffffffffffffffffff0219169055807f7cc135e0cebb02c3480ae5d74d377283180a2601f8f644edf7987b009316c63a60405160405180910390a281600760008581526020019081526020016000209080519060200190610ba79291906121d9565b508260086000600d54815260200190815260200160002081905550600d6000815480929190610bd590613751565b9190505550505050565b60076020528160005260406000208181548110610bfb57600080fd5b90600052602060002001600091509150508054610c17906132d4565b80601f0160208091040260200160405190810160405280929190818152602001828054610c43906132d4565b8015610c905780601f10610c6557610100808354040283529160200191610c90565b820191906000526020600020905b815481529060010190602001808311610c7357829003601f168201915b505050505081565b6000610cad600a546393d0707260e01b6114e5565b9050610cf96040518060400160405280600681526020017f6d61726b6574000000000000000000000000000000000000000000000000000081525084836115159092919063ffffffff16565b610d556040518060400160405280600881526020017f6c65616775654964000000000000000000000000000000000000000000000000815250600c60009054906101000a900460ff1660ff16836115159092919063ffffffff16565b610d9f6040518060400160405280600481526020017f646174650000000000000000000000000000000000000000000000000000000081525083836115159092919063ffffffff16565b610dab81600b54611548565b50505050565b6000610dbb61157f565b905090565b600080600860006001600d54610dd69190613799565b81526020019081526020016000205490506000806000805b600e60009054906101000a900461ffff1661ffff168161ffff16101561113557610efe600960008973ffffffffffffffffffffffffffffffffffffffff1673ffffffffffffffffffffffffffffffffffffffff1681526020019081526020016000208261ffff1681548110610e6657610e65613276565b5b906000526020600020906002020160000160049054906101000a900460ff16600960008a73ffffffffffffffffffffffffffffffffffffffff1673ffffffffffffffffffffffffffffffffffffffff1681526020019081526020016000208361ffff1681548110610eda57610ed9613276565b5b906000526020600020906002020160000160059054906101000a900460ff166115a9565b93506000610fc6600760008881526020019081526020016000208361ffff1681548110610f2e57610f2d613276565b5b906000526020600020018054610f43906132d4565b80601f0160208091040260200160405190810160405280929190818152602001828054610f6f906132d4565b8015610fbc5780601f10610f9157610100808354040283529160200191610fbc565b820191906000526020600020905b815481529060010190602001808311610f9f57829003601f168201915b50505050506115ea565b9050610fda816020015182604001516115a9565b93508360ff168560ff160361112157600583610ff691906137cd565b9250806020015160ff16600960008a73ffffffffffffffffffffffffffffffffffffffff1673ffffffffffffffffffffffffffffffffffffffff1681526020019081526020016000208361ffff168154811061105557611054613276565b5b906000526020600020906002020160000160049054906101000a900460ff1660ff160361108c5760028361108991906137cd565b92505b806040015160ff16600960008a73ffffffffffffffffffffffffffffffffffffffff1673ffffffffffffffffffffffffffffffffffffffff1681526020019081526020016000208361ffff16815481106110e9576110e8613276565b5b906000526020600020906002020160000160059054906101000a900460ff1660ff16036111205760028361111d91906137cd565b92505b5b50808061112d906135b2565b915050610dee565b5080945050505050919050565b61114a612232565b61120a60076000858152602001908152602001600020838154811061117257611171613276565b5b906000526020600020018054611187906132d4565b80601f01602080910402602001604051908101604052809291908181526020018280546111b3906132d4565b80156112005780601f106111d557610100808354040283529160200191611200565b820191906000526020600020905b8154815290600101906020018083116111e357829003601f168201915b50505050506115ea565b905092915050565b61121a612266565b6112da60076000858152602001908152602001600020838154811061124257611241613276565b5b906000526020600020018054611257906132d4565b80601f0160208091040260200160405190810160405280929190818152602001828054611283906132d4565b80156112d05780601f106112a5576101008083540402835291602001916112d0565b820191906000526020600020905b8154815290600101906020018083116112b357829003601f168201915b50505050506116aa565b905092915050565b6112ee84848484611787565b50505050565b6112fc6113a1565b600073ffffffffffffffffffffffffffffffffffffffff168173ffffffffffffffffffffffffffffffffffffffff160361136b576040517f08c379a000000000000000000000000000000000000000000000000000000000815260040161136290613877565b60405180910390fd5b6113748161141f565b50565b6000600260009054906101000a900473ffffffffffffffffffffffffffffffffffffffff16905090565b6113a961189a565b73ffffffffffffffffffffffffffffffffffffffff166113c7610a2b565b73ffffffffffffffffffffffffffffffffffffffff161461141d576040517f08c379a0000000000000000000000000000000000000000000000000000000008152600401611414906138e3565b60405180910390fd5b565b6000600660009054906101000a900473ffffffffffffffffffffffffffffffffffffffff16905081600660006101000a81548173ffffffffffffffffffffffffffffffffffffffff021916908373ffffffffffffffffffffffffffffffffffffffff1602179055508173ffffffffffffffffffffffffffffffffffffffff168173ffffffffffffffffffffffffffffffffffffffff167f8be0079c531659141344cd1fd0a4f28419497f9722a3daafe3b4186f6b6457e060405160405180910390a35050565b6114ed61229b565b6114f561229b565b61150c843085846118a2909392919063ffffffff16565b91505092915050565b61152c82846080015161195290919063ffffffff16565b61154381846080015161197790919063ffffffff16565b505050565b6000611577600360009054906101000a900473ffffffffffffffffffffffffffffffffffffffff1684846119a7565b905092915050565b6000600360009054906101000a900473ffffffffffffffffffffffffffffffffffffffff16905090565b6000808260ff168460ff1611156115c357600090506115e0565b8360ff168360ff1611156115da57600290506115df565b600190505b5b8091505092915050565b6115f2612232565b60006116016000600485611a71565b61160a90613928565b60e01c905060008360048151811061162557611624613276565b5b602001015160f81c60f81b60f81c905060008460058151811061164b5761164a613276565b5b602001015160f81c60f81b60f81c9050600061166a6006875188611a71565b9050600060405180608001604052808663ffffffff1681526020018560ff1681526020018460ff1681526020018381525090508095505050505050919050565b6116b2612266565b60006116c16000600485611a71565b6116ca90613928565b60e01c905060006116de6004600986611a71565b6116e7906139d0565b60d81c905060008460098151811061170257611701613276565b5b602001015160f81c60f81b60f81c9050600081600a6117219190613a37565b60ff1690506000611734600a8389611a71565b905060006117448389518a611a71565b9050600060405180608001604052808863ffffffff1681526020018764ffffffffff16815260200184815260200183815250905080975050505050505050919050565b60006005600086815260200190815260200160002060009054906101000a900473ffffffffffffffffffffffffffffffffffffffff1690506005600086815260200190815260200160002060006101000a81549073ffffffffffffffffffffffffffffffffffffffff0219169055847fe1fe3afa0f7f761ff0a8b89086790efd5140d2907ebd5b7ff6bfcb5e075fd4c560405160405180910390a28073ffffffffffffffffffffffffffffffffffffffff16636ee4d553868686866040518563ffffffff1660e01b81526004016118619493929190613a7d565b600060405180830381600087803b15801561187b57600080fd5b505af115801561188f573d6000803e3d6000fd5b505050505050505050565b600033905090565b6118aa61229b565b6118ba8560800151610100611b6d565b508385600001818152505082856020019073ffffffffffffffffffffffffffffffffffffffff16908173ffffffffffffffffffffffffffffffffffffffff16815250508185604001907bffffffffffffffffffffffffffffffffffffffffffffffffffffffff191690817bffffffffffffffffffffffffffffffffffffffffffffffffffffffff191681525050849050949350505050565b61195f8260038351611bd7565b6119728183611d5c90919063ffffffff16565b505050565b67ffffffffffffffff811115611996576119918282611d7e565b6119a3565b6119a282600083611bd7565b5b5050565b60008060045490506001816119bc9190613ac2565b6004819055506000633c6d41b960e01b600080876000015188604001518660028b60800151600001516040516024016119fb9796959493929190613b18565b604051602081830303815290604052907bffffffffffffffffffffffffffffffffffffffffffffffffffffffff19166020820180517bffffffffffffffffffffffffffffffffffffffffffffffffffffffff83818316178352505050509050611a6686838684611dca565b925050509392505050565b606060008484611a819190613799565b67ffffffffffffffff811115611a9a57611a9961249c565b5b6040519080825280601f01601f191660200182016040528015611acc5781602001600182028036833780820191505090505b50905060005b8585611ade9190613799565b811015611b6157838187611af29190613ac2565b81518110611b0357611b02613276565b5b602001015160f81c60f81b828281518110611b2157611b20613276565b5b60200101907effffffffffffffffffffffffffffffffffffffffffffffffffffffffffffff1916908160001a90535080611b5a90613751565b9050611ad2565b50809150509392505050565b611b75612308565b6000602083611b849190613bbd565b14611bb057602082611b969190613bbd565b6020611ba29190613799565b82611bad9190613ac2565b91505b81836020018181525050604051808452600081528281016020016040525082905092915050565b60178167ffffffffffffffff1611611c0e57611c088160058460ff16901b60ff161784611f5f90919063ffffffff16565b50611d57565b60ff8167ffffffffffffffff1611611c6457611c3d601860058460ff16901b1784611f5f90919063ffffffff16565b50611c5e8167ffffffffffffffff16600185611f7f9092919063ffffffff16565b50611d56565b61ffff8167ffffffffffffffff1611611cbb57611c94601960058460ff16901b1784611f5f90919063ffffffff16565b50611cb58167ffffffffffffffff16600285611f7f9092919063ffffffff16565b50611d55565b63ffffffff8167ffffffffffffffff1611611d1457611ced601a60058460ff16901b1784611f5f90919063ffffffff16565b50611d0e8167ffffffffffffffff16600485611f7f9092919063ffffffff16565b50611d54565b611d31601b60058460ff16901b1784611f5f90919063ffffffff16565b50611d528167ffffffffffffffff16600885611f7f9092919063ffffffff16565b505b5b5b5b505050565b611d64612308565b611d7683846000015151848551611fa1565b905092915050565b611d9c60026005600660ff16901b1783611f5f90919063ffffffff16565b50611dc68282604051602001611db29190612da2565b604051602081830303815290604052612090565b5050565b60003084604051602001611ddf929190613c69565b604051602081830303815290604052805190602001209050846005600083815260200190815260200160002060006101000a81548173ffffffffffffffffffffffffffffffffffffffff021916908373ffffffffffffffffffffffffffffffffffffffff160217905550807fb5e6e01e79f91267dc17b4e6314d5d4d03593d2ceee0fbb452b750bd70ea5af960405160405180910390a2600260009054906101000a900473ffffffffffffffffffffffffffffffffffffffff1673ffffffffffffffffffffffffffffffffffffffff16634000aea08685856040518463ffffffff1660e01b8152600401611ed593929190613c95565b6020604051808303816000875af1158015611ef4573d6000803e3d6000fd5b505050506040513d601f19601f82011682018060405250810190611f189190613692565b611f57576040517f08c379a0000000000000000000000000000000000000000000000000000000008152600401611f4e90613d45565b60405180910390fd5b949350505050565b611f67612308565b611f7783846000015151846120b5565b905092915050565b611f87612308565b611f9884856000015151858561210b565b90509392505050565b611fa9612308565b8251821115611fb757600080fd5b84602001518285611fc89190613ac2565b1115611ffd57611ffc856002611fed88602001518887611fe89190613ac2565b612199565b611ff79190613d65565b6121b5565b5b60008086518051876020830101935080888701111561201c5787860182525b60208701925050505b60208410612063578051825260208261203e9190613ac2565b915060208161204d9190613ac2565b905060208461205c9190613799565b9350612025565b60006001856020036101000a03905080198251168184511681811785525050508692505050949350505050565b61209d8260028351611bd7565b6120b08183611d5c90919063ffffffff16565b505050565b6120bd612308565b836020015183106120e3576120e284600286602001516120dd9190613d65565b6121b5565b5b835180516020858301018481538186036120fe576001820183525b5050508390509392505050565b612113612308565b846020015184836121249190613ac2565b111561214c5761214b856002868561213c9190613ac2565b6121469190613d65565b6121b5565b5b600060018361010061215e9190613ef2565b6121689190613799565b9050855183868201018583198251161781528151858801111561218b5784870182525b505085915050949350505050565b6000818311156121ab578290506121af565b8190505b92915050565b6000826000015190506121c88383611b6d565b506121d38382611d5c565b50505050565b828054828255906000526020600020908101928215612221579160200282015b828111156122205782518290816122109190613f98565b50916020019190600101906121f9565b5b50905061222e9190612322565b5090565b6040518060800160405280600063ffffffff168152602001600060ff168152602001600060ff168152602001606081525090565b6040518060800160405280600063ffffffff168152602001600064ffffffffff16815260200160608152602001606081525090565b6040518060a0016040528060008019168152602001600073ffffffffffffffffffffffffffffffffffffffff16815260200160007bffffffffffffffffffffffffffffffffffffffffffffffffffffffff1916815260200160008152602001612302612308565b81525090565b604051806040016040528060608152602001600081525090565b5b8082111561234257600081816123399190612346565b50600101612323565b5090565b508054612352906132d4565b6000825580601f106123645750612383565b601f0160209004906000526020600020908101906123829190612386565b5b50565b5b8082111561239f576000816000905550600101612387565b5090565b6000604051905090565b600080fd5b600080fd5b6000819050919050565b6123ca816123b7565b81146123d557600080fd5b50565b6000813590506123e7816123c1565b92915050565b600060208284031215612403576124026123ad565b5b6000612411848285016123d8565b91505092915050565b6000819050919050565b61242d8161241a565b82525050565b60006020820190506124486000830184612424565b92915050565b612457816123b7565b82525050565b6000604082019050612472600083018561244e565b61247f602083018461244e565b9392505050565b600080fd5b6000601f19601f8301169050919050565b7f4e487b7100000000000000000000000000000000000000000000000000000000600052604160045260246000fd5b6124d48261248b565b810181811067ffffffffffffffff821117156124f3576124f261249c565b5b80604052505050565b60006125066123a3565b905061251282826124cb565b919050565b600067ffffffffffffffff8211156125325761253161249c565b5b602082029050602081019050919050565b600080fd5b600080fd5b600080fd5b600063ffffffff82169050919050565b61256b81612552565b811461257657600080fd5b50565b60008135905061258881612562565b92915050565b600060ff82169050919050565b6125a48161258e565b81146125af57600080fd5b50565b6000813590506125c18161259b565b92915050565b600080fd5b600067ffffffffffffffff8211156125e7576125e661249c565b5b6125f08261248b565b9050602081019050919050565b82818337600083830152505050565b600061261f61261a846125cc565b6124fc565b90508281526020810184848401111561263b5761263a6125c7565b5b6126468482856125fd565b509392505050565b600082601f83011261266357612662612486565b5b813561267384826020860161260c565b91505092915050565b60006080828403121561269257612691612548565b5b61269c60806124fc565b905060006126ac84828501612579565b60008301525060206126c0848285016125b2565b60208301525060406126d4848285016125b2565b604083015250606082013567ffffffffffffffff8111156126f8576126f761254d565b5b6127048482850161264e565b60608301525092915050565b600061272361271e84612517565b6124fc565b9050808382526020820190506020840283018581111561274657612745612543565b5b835b8181101561278d57803567ffffffffffffffff81111561276b5761276a612486565b5b808601612778898261267c565b85526020850194505050602081019050612748565b5050509392505050565b600082601f8301126127ac576127ab612486565b5b81356127bc848260208601612710565b91505092915050565b6000602082840312156127db576127da6123ad565b5b600082013567ffffffffffffffff8111156127f9576127f86123b2565b5b61280584828501612797565b91505092915050565b600073ffffffffffffffffffffffffffffffffffffffff82169050919050565b60006128398261280e565b9050919050565b6128498161282e565b811461285457600080fd5b50565b60008135905061286681612840565b92915050565b600060208284031215612882576128816123ad565b5b600061289084828501612857565b91505092915050565b600081519050919050565b600082825260208201905092915050565b6000819050602082019050919050565b6128ce81612552565b82525050565b6128dd8161258e565b82525050565b600081519050919050565b600082825260208201905092915050565b60005b8381101561291d578082015181840152602081019050612902565b8381111561292c576000848401525b50505050565b600061293d826128e3565b61294781856128ee565b93506129578185602086016128ff565b6129608161248b565b840191505092915050565b600060808301600083015161298360008601826128c5565b50602083015161299660208601826128d4565b5060408301516129a960408601826128d4565b50606083015184820360608601526129c18282612932565b9150508091505092915050565b60006129da838361296b565b905092915050565b6000602082019050919050565b60006129fa82612899565b612a0481856128a4565b935083602082028501612a16856128b5565b8060005b85811015612a525784840389528151612a3385826129ce565b9450612a3e836129e2565b925060208a01995050600181019050612a1a565b50829750879550505050505092915050565b60006020820190508181036000830152612a7e81846129ef565b905092915050565b612a8f8161241a565b8114612a9a57600080fd5b50565b600081359050612aac81612a86565b92915050565b600067ffffffffffffffff821115612acd57612acc61249c565b5b602082029050602081019050919050565b600067ffffffffffffffff821115612af957612af861249c565b5b612b028261248b565b9050602081019050919050565b6000612b22612b1d84612ade565b6124fc565b905082815260208101848484011115612b3e57612b3d6125c7565b5b612b498482856125fd565b509392505050565b600082601f830112612b6657612b65612486565b5b8135612b76848260208601612b0f565b91505092915050565b6000612b92612b8d84612ab2565b6124fc565b90508083825260208201905060208402830185811115612bb557612bb4612543565b5b835b81811015612bfc57803567ffffffffffffffff811115612bda57612bd9612486565b5b808601612be78982612b51565b85526020850194505050602081019050612bb7565b5050509392505050565b600082601f830112612c1b57612c1a612486565b5b8135612c2b848260208601612b7f565b91505092915050565b60008060408385031215612c4b57612c4a6123ad565b5b6000612c5985828601612a9d565b925050602083013567ffffffffffffffff811115612c7a57612c796123b2565b5b612c8685828601612c06565b9150509250929050565b600061ffff82169050919050565b612ca781612c90565b8114612cb257600080fd5b50565b600081359050612cc481612c9e565b92915050565b600060208284031215612ce057612cdf6123ad565b5b6000612cee84828501612cb5565b91505092915050565b6000612d028261280e565b9050919050565b612d1281612cf7565b8114612d1d57600080fd5b50565b600081359050612d2f81612d09565b92915050565b60008060408385031215612d4c57612d4b6123ad565b5b6000612d5a85828601612d20565b9250506020612d6b858286016123d8565b9150509250929050565b600060208284031215612d8b57612d8a6123ad565b5b6000612d9984828501612a9d565b91505092915050565b6000602082019050612db7600083018461244e565b92915050565b612dc68161282e565b82525050565b6000602082019050612de16000830184612dbd565b92915050565b600060208284031215612dfd57612dfc6123ad565b5b6000612e0b848285016125b2565b91505092915050565b60008060408385031215612e2b57612e2a6123ad565b5b6000612e3985828601612a9d565b9250506020612e4a858286016123d8565b9150509250929050565b600081519050919050565b600082825260208201905092915050565b6000612e7b82612e54565b612e858185612e5f565b9350612e958185602086016128ff565b612e9e8161248b565b840191505092915050565b60006020820190508181036000830152612ec38184612e70565b905092915050565b60008060408385031215612ee257612ee16123ad565b5b6000612ef0858286016123d8565b9250506020612f01858286016123d8565b9150509250929050565b612f1481612c90565b82525050565b6000602082019050612f2f6000830184612f0b565b92915050565b6000608083016000830151612f4d60008601826128c5565b506020830151612f6060208601826128d4565b506040830151612f7360408601826128d4565b5060608301518482036060860152612f8b8282612932565b9150508091505092915050565b60006020820190508181036000830152612fb28184612f35565b905092915050565b600064ffffffffff82169050919050565b612fd481612fba565b82525050565b6000608083016000830151612ff260008601826128c5565b5060208301516130056020860182612fcb565b506040830151848203604086015261301d8282612932565b915050606083015184820360608601526130378282612932565b9150508091505092915050565b6000602082019050818103600083015261305e8184612fda565b905092915050565b60007fffffffff0000000000000000000000000000000000000000000000000000000082169050919050565b61309b81613066565b81146130a657600080fd5b50565b6000813590506130b881613092565b92915050565b600080600080608085870312156130d8576130d76123ad565b5b60006130e687828801612a9d565b94505060206130f7878288016123d8565b9350506040613108878288016130a9565b9250506060613119878288016123d8565b91505092959194509250565b600081519050613134816123c1565b92915050565b6000602082840312156131505761314f6123ad565b5b600061315e84828501613125565b91505092915050565b600082825260208201905092915050565b7f546865206e756d626572206f662070726564696374696f6e7320646f65736e2760008201527f74206d6174636821000000000000000000000000000000000000000000000000602082015250565b60006131d4602883613167565b91506131df82613178565b604082019050919050565b60006020820190508181036000830152613203816131c7565b9050919050565b7f596f7520616c72656164792073617665642070726564696374696f6e73210000600082015250565b6000613240601e83613167565b915061324b8261320a565b602082019050919050565b6000602082019050818103600083015261326f81613233565b9050919050565b7f4e487b7100000000000000000000000000000000000000000000000000000000600052603260045260246000fd5b7f4e487b7100000000000000000000000000000000000000000000000000000000600052602260045260246000fd5b600060028204905060018216806132ec57607f821691505b6020821081036132ff576132fe6132a5565b5b50919050565b60008190508160005260206000209050919050565b60006020601f8301049050919050565b600082821b905092915050565b6000600883026133677fffffffffffffffffffffffffffffffffffffffffffffffffffffffffffffffff8261332a565b613371868361332a565b95508019841693508086168417925050509392505050565b6000819050919050565b60006133ae6133a96133a4846123b7565b613389565b6123b7565b9050919050565b6000819050919050565b6133c883613393565b6133dc6133d4826133b5565b848454613337565b825550505050565b600090565b6133f16133e4565b6133fc8184846133bf565b505050565b5b81811015613420576134156000826133e9565b600181019050613402565b5050565b601f8211156134655761343681613305565b61343f8461331a565b8101602085101561344e578190505b61346261345a8561331a565b830182613401565b50505b505050565b600082821c905092915050565b60006134886000198460080261346a565b1980831691505092915050565b60006134a18383613477565b9150826002028217905092915050565b6134ba826128e3565b67ffffffffffffffff8111156134d3576134d261249c565b5b6134dd82546132d4565b6134e8828285613424565b600060209050601f83116001811461351b5760008415613509578287015190505b6135138582613495565b86555061357b565b601f19841661352986613305565b60005b828110156135515784890151825560018201915060208501945060208101905061352c565b8683101561356e578489015161356a601f891682613477565b8355505b6001600288020188555050505b505050505050565b7f4e487b7100000000000000000000000000000000000000000000000000000000600052601160045260246000fd5b60006135bd82612c90565b915061ffff82036135d1576135d0613583565b5b600182019050919050565b60006135f76135f26135ed8461280e565b613389565b61280e565b9050919050565b6000613609826135dc565b9050919050565b600061361b826135fe565b9050919050565b61362b81613610565b82525050565b60006040820190506136466000830185613622565b613653602083018461244e565b9392505050565b60008115159050919050565b61366f8161365a565b811461367a57600080fd5b50565b60008151905061368c81613666565b92915050565b6000602082840312156136a8576136a76123ad565b5b60006136b68482850161367d565b91505092915050565b7f536f75726365206d75737420626520746865206f7261636c65206f662074686560008201527f2072657175657374000000000000000000000000000000000000000000000000602082015250565b600061371b602883613167565b9150613726826136bf565b604082019050919050565b6000602082019050818103600083015261374a8161370e565b9050919050565b600061375c826123b7565b91507fffffffffffffffffffffffffffffffffffffffffffffffffffffffffffffffff820361378e5761378d613583565b5b600182019050919050565b60006137a4826123b7565b91506137af836123b7565b9250828210156137c2576137c1613583565b5b828203905092915050565b60006137d882612c90565b91506137e383612c90565b92508261ffff038211156137fa576137f9613583565b5b828201905092915050565b7f4f776e61626c653a206e6577206f776e657220697320746865207a65726f206160008201527f6464726573730000000000000000000000000000000000000000000000000000602082015250565b6000613861602683613167565b915061386c82613805565b604082019050919050565b6000602082019050818103600083015261389081613854565b9050919050565b7f4f776e61626c653a2063616c6c6572206973206e6f7420746865206f776e6572600082015250565b60006138cd602083613167565b91506138d882613897565b602082019050919050565b600060208201905081810360008301526138fc816138c0565b9050919050565b6000819050602082019050919050565b600061391f8251613066565b80915050919050565b600061393382612e54565b8261393d84613903565b905061394881613913565b92506004821015613988576139837fffffffff000000000000000000000000000000000000000000000000000000008360040360080261332a565b831692505b5050919050565b60007fffffffffff00000000000000000000000000000000000000000000000000000082169050919050565b60006139c7825161398f565b80915050919050565b60006139db82612e54565b826139e584613903565b90506139f0816139bb565b92506005821015613a3057613a2b7fffffffffff0000000000000000000000000000000000000000000000000000008360050360080261332a565b831692505b5050919050565b6000613a428261258e565b9150613a4d8361258e565b92508260ff03821115613a6357613a62613583565b5b828201905092915050565b613a7781613066565b82525050565b6000608082019050613a926000830187612424565b613a9f602083018661244e565b613aac6040830185613a6e565b613ab9606083018461244e565b95945050505050565b6000613acd826123b7565b9150613ad8836123b7565b9250827fffffffffffffffffffffffffffffffffffffffffffffffffffffffffffffffff03821115613b0d57613b0c613583565b5b828201905092915050565b600060e082019050613b2d600083018a612dbd565b613b3a602083018961244e565b613b476040830188612424565b613b546060830187613a6e565b613b61608083018661244e565b613b6e60a083018561244e565b81810360c0830152613b808184612e70565b905098975050505050505050565b7f4e487b7100000000000000000000000000000000000000000000000000000000600052601260045260246000fd5b6000613bc8826123b7565b9150613bd3836123b7565b925082613be357613be2613b8e565b5b828206905092915050565b6000613bf9826135fe565b9050919050565b60008160601b9050919050565b6000613c1882613c00565b9050919050565b6000613c2a82613c0d565b9050919050565b613c42613c3d82613bee565b613c1f565b82525050565b6000819050919050565b613c63613c5e826123b7565b613c48565b82525050565b6000613c758285613c31565b601482019150613c858284613c52565b6020820191508190509392505050565b6000606082019050613caa6000830186612dbd565b613cb7602083018561244e565b8181036040830152613cc98184612e70565b9050949350505050565b7f756e61626c6520746f207472616e73666572416e6443616c6c20746f206f726160008201527f636c650000000000000000000000000000000000000000000000000000000000602082015250565b6000613d2f602383613167565b9150613d3a82613cd3565b604082019050919050565b60006020820190508181036000830152613d5e81613d22565b9050919050565b6000613d70826123b7565b9150613d7b836123b7565b9250817fffffffffffffffffffffffffffffffffffffffffffffffffffffffffffffffff0483118215151615613db457613db3613583565b5b828202905092915050565b60008160011c9050919050565b6000808291508390505b6001851115613e1657808604811115613df257613df1613583565b5b6001851615613e015780820291505b8081029050613e0f85613dbf565b9450613dd6565b94509492505050565b600082613e2f5760019050613eeb565b81613e3d5760009050613eeb565b8160018114613e535760028114613e5d57613e8c565b6001915050613eeb565b60ff841115613e6f57613e6e613583565b5b8360020a915084821115613e8657613e85613583565b5b50613eeb565b5060208310610133831016604e8410600b8410161715613ec15782820a905083811115613ebc57613ebb613583565b5b613eeb565b613ece8484846001613dcc565b92509050818404811115613ee557613ee4613583565b5b81810290505b9392505050565b6000613efd826123b7565b9150613f08836123b7565b9250613f357fffffffffffffffffffffffffffffffffffffffffffffffffffffffffffffffff8484613e1f565b905092915050565b60008190508160005260206000209050919050565b601f821115613f9357613f6481613f3d565b613f6d8461331a565b81016020851015613f7c578190505b613f90613f888561331a565b830182613401565b50505b505050565b613fa182612e54565b67ffffffffffffffff811115613fba57613fb961249c565b5b613fc482546132d4565b613fcf828285613f52565b600060209050601f8311600181146140025760008415613ff0578287015190505b613ffa8582613495565b865550614062565b601f19841661401086613f3d565b60005b8281101561403857848901518255600182019150602085019450602081019050614013565b868310156140555784890151614051601f891682613477565b8355505b6001600288020188555050505b50505050505056fea2646970667358221220b6a9dd89e0146d37cd5816e857111be3e05be18298bd80171b0adc3cb1d06b3f64736f6c634300080f0033","opcodes":"PUSH1 0x80 PUSH1 0x40 MSTORE PUSH1 0x1 PUSH1 0x4 SSTORE CALLVALUE DUP1 ISZERO PUSH3 0x16 JUMPI PUSH1 0x0 DUP1 REVERT JUMPDEST POP PUSH3 0x37 PUSH3 0x2B PUSH3 0x102 PUSH1 0x20 SHL PUSH1 0x20 SHR JUMP JUMPDEST PUSH3 0x10A PUSH1 0x20 SHL PUSH1 0x20 SHR JUMP JUMPDEST PUSH3 0x5C PUSH20 0x326C977E6EFC84E512BB9C30F76E30C160ED06FB PUSH3 0x1D0 PUSH1 0x20 SHL PUSH1 0x20 SHR JUMP JUMPDEST PUSH3 0x81 PUSH20 0xD5821B900E44DB9490DA9B09541BBD027FBECF4E PUSH3 0x214 PUSH1 0x20 SHL PUSH1 0x20 SHR JUMP JUMPDEST PUSH32 0x6431313062356334623833643432646361323065343130616335333763643934 PUSH1 0x0 SHL PUSH1 0xA DUP2 SWAP1 SSTORE POP PUSH8 0x16345785D8A0000 PUSH1 0xB DUP2 SWAP1 SSTORE POP PUSH1 0x4D PUSH1 0xC PUSH1 0x0 PUSH2 0x100 EXP DUP2 SLOAD DUP2 PUSH1 0xFF MUL NOT AND SWAP1 DUP4 PUSH1 0xFF AND MUL OR SWAP1 SSTORE POP PUSH1 0x1 PUSH1 0xD DUP2 SWAP1 SSTORE POP PUSH1 0x2 PUSH1 0xE PUSH1 0x0 PUSH2 0x100 EXP DUP2 SLOAD DUP2 PUSH2 0xFFFF MUL NOT AND SWAP1 DUP4 PUSH2 0xFFFF AND MUL OR SWAP1 SSTORE POP PUSH3 0x258 JUMP JUMPDEST PUSH1 0x0 CALLER SWAP1 POP SWAP1 JUMP JUMPDEST PUSH1 0x0 PUSH1 0x6 PUSH1 0x0 SWAP1 SLOAD SWAP1 PUSH2 0x100 EXP SWAP1 DIV PUSH20 0xFFFFFFFFFFFFFFFFFFFFFFFFFFFFFFFFFFFFFFFF AND SWAP1 POP DUP2 PUSH1 0x6 PUSH1 0x0 PUSH2 0x100 EXP DUP2 SLOAD DUP2 PUSH20 0xFFFFFFFFFFFFFFFFFFFFFFFFFFFFFFFFFFFFFFFF MUL NOT AND SWAP1 DUP4 PUSH20 0xFFFFFFFFFFFFFFFFFFFFFFFFFFFFFFFFFFFFFFFF AND MUL OR SWAP1 SSTORE POP DUP2 PUSH20 0xFFFFFFFFFFFFFFFFFFFFFFFFFFFFFFFFFFFFFFFF AND DUP2 PUSH20 0xFFFFFFFFFFFFFFFFFFFFFFFFFFFFFFFFFFFFFFFF AND PUSH32 0x8BE0079C531659141344CD1FD0A4F28419497F9722A3DAAFE3B4186F6B6457E0 PUSH1 0x40 MLOAD PUSH1 0x40 MLOAD DUP1 SWAP2 SUB SWAP1 LOG3 POP POP JUMP JUMPDEST DUP1 PUSH1 0x2 PUSH1 0x0 PUSH2 0x100 EXP DUP2 SLOAD DUP2 PUSH20 0xFFFFFFFFFFFFFFFFFFFFFFFFFFFFFFFFFFFFFFFF MUL NOT AND SWAP1 DUP4 PUSH20 0xFFFFFFFFFFFFFFFFFFFFFFFFFFFFFFFFFFFFFFFF AND MUL OR SWAP1 SSTORE POP POP JUMP JUMPDEST DUP1 PUSH1 0x3 PUSH1 0x0 PUSH2 0x100 EXP DUP2 SLOAD DUP2 PUSH20 0xFFFFFFFFFFFFFFFFFFFFFFFFFFFFFFFFFFFFFFFF MUL NOT AND SWAP1 DUP4 PUSH20 0xFFFFFFFFFFFFFFFFFFFFFFFFFFFFFFFFFFFFFFFF AND MUL OR SWAP1 SSTORE POP POP JUMP JUMPDEST PUSH2 0x40A0 DUP1 PUSH3 0x268 PUSH1 0x0 CODECOPY PUSH1 0x0 RETURN INVALID PUSH1 0x80 PUSH1 0x40 MSTORE CALLVALUE DUP1 ISZERO PUSH2 0x10 JUMPI PUSH1 0x0 DUP1 REVERT JUMPDEST POP PUSH1 0x4 CALLDATASIZE LT PUSH2 0x12C JUMPI PUSH1 0x0 CALLDATALOAD PUSH1 0xE0 SHR DUP1 PUSH4 0x8ECF0521 GT PUSH2 0xAD JUMPI DUP1 PUSH4 0xB8033C9E GT PUSH2 0x71 JUMPI DUP1 PUSH4 0xB8033C9E EQ PUSH2 0x31A JUMPI DUP1 PUSH4 0xDE00D107 EQ PUSH2 0x34A JUMPI DUP1 PUSH4 0xE3C046A7 EQ PUSH2 0x37A JUMPI DUP1 PUSH4 0xEC65D0F8 EQ PUSH2 0x3AA JUMPI DUP1 PUSH4 0xF2FDE38B EQ PUSH2 0x3C6 JUMPI PUSH2 0x12C JUMP JUMPDEST DUP1 PUSH4 0x8ECF0521 EQ PUSH2 0x278 JUMPI DUP1 PUSH4 0x93D07072 EQ PUSH2 0x294 JUMPI DUP1 PUSH4 0xA2943608 EQ PUSH2 0x2B0 JUMPI DUP1 PUSH4 0xAC91AB9C EQ PUSH2 0x2E0 JUMPI DUP1 PUSH4 0xB075F532 EQ PUSH2 0x2FC JUMPI PUSH2 0x12C JUMP JUMPDEST DUP1 PUSH4 0x31536F18 GT PUSH2 0xF4 JUMPI DUP1 PUSH4 0x31536F18 EQ PUSH2 0x1E8 JUMPI DUP1 PUSH4 0x54B7FAAE EQ PUSH2 0x204 JUMPI DUP1 PUSH4 0x6EAF5A5F EQ PUSH2 0x220 JUMPI DUP1 PUSH4 0x715018A6 EQ PUSH2 0x250 JUMPI DUP1 PUSH4 0x8DA5CB5B EQ PUSH2 0x25A JUMPI PUSH2 0x12C JUMP JUMPDEST DUP1 PUSH4 0x1E31005 EQ PUSH2 0x131 JUMPI DUP1 PUSH4 0x2163885A EQ PUSH2 0x161 JUMPI DUP1 PUSH4 0x29D08EFC EQ PUSH2 0x180 JUMPI DUP1 PUSH4 0x2A9EC636 EQ PUSH2 0x19C JUMPI DUP1 PUSH4 0x303A712F EQ PUSH2 0x1CC JUMPI JUMPDEST PUSH1 0x0 DUP1 REVERT JUMPDEST PUSH2 0x14B PUSH1 0x4 DUP1 CALLDATASIZE SUB DUP2 ADD SWAP1 PUSH2 0x146 SWAP2 SWAP1 PUSH2 0x23ED JUMP JUMPDEST PUSH2 0x3E2 JUMP JUMPDEST PUSH1 0x40 MLOAD PUSH2 0x158 SWAP2 SWAP1 PUSH2 0x2433 JUMP JUMPDEST PUSH1 0x40 MLOAD DUP1 SWAP2 SUB SWAP1 RETURN JUMPDEST PUSH2 0x169 PUSH2 0x3FA JUMP JUMPDEST PUSH1 0x40 MLOAD PUSH2 0x177 SWAP3 SWAP2 SWAP1 PUSH2 0x245D JUMP JUMPDEST PUSH1 0x40 MLOAD DUP1 SWAP2 SUB SWAP1 RETURN JUMPDEST PUSH2 0x19A PUSH1 0x4 DUP1 CALLDATASIZE SUB DUP2 ADD SWAP1 PUSH2 0x195 SWAP2 SWAP1 PUSH2 0x27C5 JUMP JUMPDEST PUSH2 0x48D JUMP JUMPDEST STOP JUMPDEST PUSH2 0x1B6 PUSH1 0x4 DUP1 CALLDATASIZE SUB DUP2 ADD SWAP1 PUSH2 0x1B1 SWAP2 SWAP1 PUSH2 0x286C JUMP JUMPDEST PUSH2 0x741 JUMP JUMPDEST PUSH1 0x40 MLOAD PUSH2 0x1C3 SWAP2 SWAP1 PUSH2 0x2A64 JUMP JUMPDEST PUSH1 0x40 MLOAD DUP1 SWAP2 SUB SWAP1 RETURN JUMPDEST PUSH2 0x1E6 PUSH1 0x4 DUP1 CALLDATASIZE SUB DUP2 ADD SWAP1 PUSH2 0x1E1 SWAP2 SWAP1 PUSH2 0x2C34 JUMP JUMPDEST PUSH2 0x8D1 JUMP JUMPDEST STOP JUMPDEST PUSH2 0x202 PUSH1 0x4 DUP1 CALLDATASIZE SUB DUP2 ADD SWAP1 PUSH2 0x1FD SWAP2 SWAP1 PUSH2 0x2CCA JUMP JUMPDEST PUSH2 0x8FD JUMP JUMPDEST STOP JUMPDEST PUSH2 0x21E PUSH1 0x4 DUP1 CALLDATASIZE SUB DUP2 ADD SWAP1 PUSH2 0x219 SWAP2 SWAP1 PUSH2 0x2D35 JUMP JUMPDEST PUSH2 0x925 JUMP JUMPDEST STOP JUMPDEST PUSH2 0x23A PUSH1 0x4 DUP1 CALLDATASIZE SUB DUP2 ADD SWAP1 PUSH2 0x235 SWAP2 SWAP1 PUSH2 0x2D75 JUMP JUMPDEST PUSH2 0x9F7 JUMP JUMPDEST PUSH1 0x40 MLOAD PUSH2 0x247 SWAP2 SWAP1 PUSH2 0x2DA2 JUMP JUMPDEST PUSH1 0x40 MLOAD DUP1 SWAP2 SUB SWAP1 RETURN JUMPDEST PUSH2 0x258 PUSH2 0xA17 JUMP JUMPDEST STOP JUMPDEST PUSH2 0x262 PUSH2 0xA2B JUMP JUMPDEST PUSH1 0x40 MLOAD PUSH2 0x26F SWAP2 SWAP1 PUSH2 0x2DCC JUMP JUMPDEST PUSH1 0x40 MLOAD DUP1 SWAP2 SUB SWAP1 RETURN JUMPDEST PUSH2 0x292 PUSH1 0x4 DUP1 CALLDATASIZE SUB DUP2 ADD SWAP1 PUSH2 0x28D SWAP2 SWAP1 PUSH2 0x2DE7 JUMP JUMPDEST PUSH2 0xA55 JUMP JUMPDEST STOP JUMPDEST PUSH2 0x2AE PUSH1 0x4 DUP1 CALLDATASIZE SUB DUP2 ADD SWAP1 PUSH2 0x2A9 SWAP2 SWAP1 PUSH2 0x2C34 JUMP JUMPDEST PUSH2 0xA7B JUMP JUMPDEST STOP JUMPDEST PUSH2 0x2CA PUSH1 0x4 DUP1 CALLDATASIZE SUB DUP2 ADD SWAP1 PUSH2 0x2C5 SWAP2 SWAP1 PUSH2 0x2E14 JUMP JUMPDEST PUSH2 0xBDF JUMP JUMPDEST PUSH1 0x40 MLOAD PUSH2 0x2D7 SWAP2 SWAP1 PUSH2 0x2EA9 JUMP JUMPDEST PUSH1 0x40 MLOAD DUP1 SWAP2 SUB SWAP1 RETURN JUMPDEST PUSH2 0x2FA PUSH1 0x4 DUP1 CALLDATASIZE SUB DUP2 ADD SWAP1 PUSH2 0x2F5 SWAP2 SWAP1 PUSH2 0x2ECB JUMP JUMPDEST PUSH2 0xC98 JUMP JUMPDEST STOP JUMPDEST PUSH2 0x304 PUSH2 0xDB1 JUMP JUMPDEST PUSH1 0x40 MLOAD PUSH2 0x311 SWAP2 SWAP1 PUSH2 0x2DCC JUMP JUMPDEST PUSH1 0x40 MLOAD DUP1 SWAP2 SUB SWAP1 RETURN JUMPDEST PUSH2 0x334 PUSH1 0x4 DUP1 CALLDATASIZE SUB DUP2 ADD SWAP1 PUSH2 0x32F SWAP2 SWAP1 PUSH2 0x286C JUMP JUMPDEST PUSH2 0xDC0 JUMP JUMPDEST PUSH1 0x40 MLOAD PUSH2 0x341 SWAP2 SWAP1 PUSH2 0x2F1A JUMP JUMPDEST PUSH1 0x40 MLOAD DUP1 SWAP2 SUB SWAP1 RETURN JUMPDEST PUSH2 0x364 PUSH1 0x4 DUP1 CALLDATASIZE SUB DUP2 ADD SWAP1 PUSH2 0x35F SWAP2 SWAP1 PUSH2 0x2E14 JUMP JUMPDEST PUSH2 0x1142 JUMP JUMPDEST PUSH1 0x40 MLOAD PUSH2 0x371 SWAP2 SWAP1 PUSH2 0x2F98 JUMP JUMPDEST PUSH1 0x40 MLOAD DUP1 SWAP2 SUB SWAP1 RETURN JUMPDEST PUSH2 0x394 PUSH1 0x4 DUP1 CALLDATASIZE SUB DUP2 ADD SWAP1 PUSH2 0x38F SWAP2 SWAP1 PUSH2 0x2E14 JUMP JUMPDEST PUSH2 0x1212 JUMP JUMPDEST PUSH1 0x40 MLOAD PUSH2 0x3A1 SWAP2 SWAP1 PUSH2 0x3044 JUMP JUMPDEST PUSH1 0x40 MLOAD DUP1 SWAP2 SUB SWAP1 RETURN JUMPDEST PUSH2 0x3C4 PUSH1 0x4 DUP1 CALLDATASIZE SUB DUP2 ADD SWAP1 PUSH2 0x3BF SWAP2 SWAP1 PUSH2 0x30BE JUMP JUMPDEST PUSH2 0x12E2 JUMP JUMPDEST STOP JUMPDEST PUSH2 0x3E0 PUSH1 0x4 DUP1 CALLDATASIZE SUB DUP2 ADD SWAP1 PUSH2 0x3DB SWAP2 SWAP1 PUSH2 0x286C JUMP JUMPDEST PUSH2 0x12F4 JUMP JUMPDEST STOP JUMPDEST PUSH1 0x8 PUSH1 0x20 MSTORE DUP1 PUSH1 0x0 MSTORE PUSH1 0x40 PUSH1 0x0 KECCAK256 PUSH1 0x0 SWAP2 POP SWAP1 POP SLOAD DUP2 JUMP JUMPDEST PUSH1 0x0 DUP1 SELFBALANCE SWAP2 POP PUSH1 0x0 PUSH2 0x40A PUSH2 0x1377 JUMP JUMPDEST SWAP1 POP DUP1 PUSH20 0xFFFFFFFFFFFFFFFFFFFFFFFFFFFFFFFFFFFFFFFF AND PUSH4 0x70A08231 ADDRESS PUSH1 0x40 MLOAD DUP3 PUSH4 0xFFFFFFFF AND PUSH1 0xE0 SHL DUP2 MSTORE PUSH1 0x4 ADD PUSH2 0x445 SWAP2 SWAP1 PUSH2 0x2DCC JUMP JUMPDEST PUSH1 0x20 PUSH1 0x40 MLOAD DUP1 DUP4 SUB DUP2 DUP7 GAS STATICCALL ISZERO DUP1 ISZERO PUSH2 0x462 JUMPI RETURNDATASIZE PUSH1 0x0 DUP1 RETURNDATACOPY RETURNDATASIZE PUSH1 0x0 REVERT JUMPDEST POP POP POP POP PUSH1 0x40 MLOAD RETURNDATASIZE PUSH1 0x1F NOT PUSH1 0x1F DUP3 ADD AND DUP3 ADD DUP1 PUSH1 0x40 MSTORE POP DUP2 ADD SWAP1 PUSH2 0x486 SWAP2 SWAP1 PUSH2 0x313A JUMP JUMPDEST SWAP2 POP POP SWAP1 SWAP2 JUMP JUMPDEST PUSH1 0xE PUSH1 0x0 SWAP1 SLOAD SWAP1 PUSH2 0x100 EXP SWAP1 DIV PUSH2 0xFFFF AND PUSH2 0xFFFF AND DUP2 MLOAD EQ PUSH2 0x4E4 JUMPI PUSH1 0x40 MLOAD PUSH32 0x8C379A000000000000000000000000000000000000000000000000000000000 DUP2 MSTORE PUSH1 0x4 ADD PUSH2 0x4DB SWAP1 PUSH2 0x31EA JUMP JUMPDEST PUSH1 0x40 MLOAD DUP1 SWAP2 SUB SWAP1 REVERT JUMPDEST PUSH1 0x0 PUSH1 0x9 PUSH1 0x0 CALLER PUSH20 0xFFFFFFFFFFFFFFFFFFFFFFFFFFFFFFFFFFFFFFFF AND PUSH20 0xFFFFFFFFFFFFFFFFFFFFFFFFFFFFFFFFFFFFFFFF AND DUP2 MSTORE PUSH1 0x20 ADD SWAP1 DUP2 MSTORE PUSH1 0x20 ADD PUSH1 0x0 KECCAK256 DUP1 SLOAD SWAP1 POP EQ PUSH2 0x569 JUMPI PUSH1 0x40 MLOAD PUSH32 0x8C379A000000000000000000000000000000000000000000000000000000000 DUP2 MSTORE PUSH1 0x4 ADD PUSH2 0x560 SWAP1 PUSH2 0x3256 JUMP JUMPDEST PUSH1 0x40 MLOAD DUP1 SWAP2 SUB SWAP1 REVERT JUMPDEST PUSH1 0x0 JUMPDEST PUSH1 0xE PUSH1 0x0 SWAP1 SLOAD SWAP1 PUSH2 0x100 EXP SWAP1 DIV PUSH2 0xFFFF AND PUSH2 0xFFFF AND DUP2 PUSH2 0xFFFF AND LT ISZERO PUSH2 0x73D JUMPI PUSH1 0x9 PUSH1 0x0 CALLER PUSH20 0xFFFFFFFFFFFFFFFFFFFFFFFFFFFFFFFFFFFFFFFF AND PUSH20 0xFFFFFFFFFFFFFFFFFFFFFFFFFFFFFFFFFFFFFFFF AND DUP2 MSTORE PUSH1 0x20 ADD SWAP1 DUP2 MSTORE PUSH1 0x20 ADD PUSH1 0x0 KECCAK256 PUSH1 0x40 MLOAD DUP1 PUSH1 0x80 ADD PUSH1 0x40 MSTORE DUP1 DUP5 DUP5 PUSH2 0xFFFF AND DUP2 MLOAD DUP2 LT PUSH2 0x5ED JUMPI PUSH2 0x5EC PUSH2 0x3276 JUMP JUMPDEST JUMPDEST PUSH1 0x20 MUL PUSH1 0x20 ADD ADD MLOAD PUSH1 0x0 ADD MLOAD PUSH4 0xFFFFFFFF AND DUP2 MSTORE PUSH1 0x20 ADD DUP5 DUP5 PUSH2 0xFFFF AND DUP2 MLOAD DUP2 LT PUSH2 0x61B JUMPI PUSH2 0x61A PUSH2 0x3276 JUMP JUMPDEST JUMPDEST PUSH1 0x20 MUL PUSH1 0x20 ADD ADD MLOAD PUSH1 0x20 ADD MLOAD PUSH1 0xFF AND DUP2 MSTORE PUSH1 0x20 ADD DUP5 DUP5 PUSH2 0xFFFF AND DUP2 MLOAD DUP2 LT PUSH2 0x646 JUMPI PUSH2 0x645 PUSH2 0x3276 JUMP JUMPDEST JUMPDEST PUSH1 0x20 MUL PUSH1 0x20 ADD ADD MLOAD PUSH1 0x40 ADD MLOAD PUSH1 0xFF AND DUP2 MSTORE PUSH1 0x20 ADD DUP5 DUP5 PUSH2 0xFFFF AND DUP2 MLOAD DUP2 LT PUSH2 0x671 JUMPI PUSH2 0x670 PUSH2 0x3276 JUMP JUMPDEST JUMPDEST PUSH1 0x20 MUL PUSH1 0x20 ADD ADD MLOAD PUSH1 0x60 ADD MLOAD DUP2 MSTORE POP SWAP1 DUP1 PUSH1 0x1 DUP2 SLOAD ADD DUP1 DUP3 SSTORE DUP1 SWAP2 POP POP PUSH1 0x1 SWAP1 SUB SWAP1 PUSH1 0x0 MSTORE PUSH1 0x20 PUSH1 0x0 KECCAK256 SWAP1 PUSH1 0x2 MUL ADD PUSH1 0x0 SWAP1 SWAP2 SWAP1 SWAP2 SWAP1 SWAP2 POP PUSH1 0x0 DUP3 ADD MLOAD DUP2 PUSH1 0x0 ADD PUSH1 0x0 PUSH2 0x100 EXP DUP2 SLOAD DUP2 PUSH4 0xFFFFFFFF MUL NOT AND SWAP1 DUP4 PUSH4 0xFFFFFFFF AND MUL OR SWAP1 SSTORE POP PUSH1 0x20 DUP3 ADD MLOAD DUP2 PUSH1 0x0 ADD PUSH1 0x4 PUSH2 0x100 EXP DUP2 SLOAD DUP2 PUSH1 0xFF MUL NOT AND SWAP1 DUP4 PUSH1 0xFF AND MUL OR SWAP1 SSTORE POP PUSH1 0x40 DUP3 ADD MLOAD DUP2 PUSH1 0x0 ADD PUSH1 0x5 PUSH2 0x100 EXP DUP2 SLOAD DUP2 PUSH1 0xFF MUL NOT AND SWAP1 DUP4 PUSH1 0xFF AND MUL OR SWAP1 SSTORE POP PUSH1 0x60 DUP3 ADD MLOAD DUP2 PUSH1 0x1 ADD SWAP1 DUP2 PUSH2 0x727 SWAP2 SWAP1 PUSH2 0x34B1 JUMP JUMPDEST POP POP POP DUP1 DUP1 PUSH2 0x735 SWAP1 PUSH2 0x35B2 JUMP JUMPDEST SWAP2 POP POP PUSH2 0x56C JUMP JUMPDEST POP POP JUMP JUMPDEST PUSH1 0x60 PUSH1 0x9 PUSH1 0x0 DUP4 PUSH20 0xFFFFFFFFFFFFFFFFFFFFFFFFFFFFFFFFFFFFFFFF AND PUSH20 0xFFFFFFFFFFFFFFFFFFFFFFFFFFFFFFFFFFFFFFFF AND DUP2 MSTORE PUSH1 0x20 ADD SWAP1 DUP2 MSTORE PUSH1 0x20 ADD PUSH1 0x0 KECCAK256 DUP1 SLOAD DUP1 PUSH1 0x20 MUL PUSH1 0x20 ADD PUSH1 0x40 MLOAD SWAP1 DUP2 ADD PUSH1 0x40 MSTORE DUP1 SWAP3 SWAP2 SWAP1 DUP2 DUP2 MSTORE PUSH1 0x20 ADD PUSH1 0x0 SWAP1 JUMPDEST DUP3 DUP3 LT ISZERO PUSH2 0x8C6 JUMPI DUP4 DUP3 SWAP1 PUSH1 0x0 MSTORE PUSH1 0x20 PUSH1 0x0 KECCAK256 SWAP1 PUSH1 0x2 MUL ADD PUSH1 0x40 MLOAD DUP1 PUSH1 0x80 ADD PUSH1 0x40 MSTORE SWAP1 DUP2 PUSH1 0x0 DUP3 ADD PUSH1 0x0 SWAP1 SLOAD SWAP1 PUSH2 0x100 EXP SWAP1 DIV PUSH4 0xFFFFFFFF AND PUSH4 0xFFFFFFFF AND PUSH4 0xFFFFFFFF AND DUP2 MSTORE PUSH1 0x20 ADD PUSH1 0x0 DUP3 ADD PUSH1 0x4 SWAP1 SLOAD SWAP1 PUSH2 0x100 EXP SWAP1 DIV PUSH1 0xFF AND PUSH1 0xFF AND PUSH1 0xFF AND DUP2 MSTORE PUSH1 0x20 ADD PUSH1 0x0 DUP3 ADD PUSH1 0x5 SWAP1 SLOAD SWAP1 PUSH2 0x100 EXP SWAP1 DIV PUSH1 0xFF AND PUSH1 0xFF AND PUSH1 0xFF AND DUP2 MSTORE PUSH1 0x20 ADD PUSH1 0x1 DUP3 ADD DUP1 SLOAD PUSH2 0x835 SWAP1 PUSH2 0x32D4 JUMP JUMPDEST DUP1 PUSH1 0x1F ADD PUSH1 0x20 DUP1 SWAP2 DIV MUL PUSH1 0x20 ADD PUSH1 0x40 MLOAD SWAP1 DUP2 ADD PUSH1 0x40 MSTORE DUP1 SWAP3 SWAP2 SWAP1 DUP2 DUP2 MSTORE PUSH1 0x20 ADD DUP3 DUP1 SLOAD PUSH2 0x861 SWAP1 PUSH2 0x32D4 JUMP JUMPDEST DUP1 ISZERO PUSH2 0x8AE JUMPI DUP1 PUSH1 0x1F LT PUSH2 0x883 JUMPI PUSH2 0x100 DUP1 DUP4 SLOAD DIV MUL DUP4 MSTORE SWAP2 PUSH1 0x20 ADD SWAP2 PUSH2 0x8AE JUMP JUMPDEST DUP3 ADD SWAP2 SWAP1 PUSH1 0x0 MSTORE PUSH1 0x20 PUSH1 0x0 KECCAK256 SWAP1 JUMPDEST DUP2 SLOAD DUP2 MSTORE SWAP1 PUSH1 0x1 ADD SWAP1 PUSH1 0x20 ADD DUP1 DUP4 GT PUSH2 0x891 JUMPI DUP3 SWAP1 SUB PUSH1 0x1F AND DUP3 ADD SWAP2 JUMPDEST POP POP POP POP POP DUP2 MSTORE POP POP DUP2 MSTORE PUSH1 0x20 ADD SWAP1 PUSH1 0x1 ADD SWAP1 PUSH2 0x7A2 JUMP JUMPDEST POP POP POP POP SWAP1 POP SWAP2 SWAP1 POP JUMP JUMPDEST DUP1 PUSH1 0x7 PUSH1 0x0 DUP5 DUP2 MSTORE PUSH1 0x20 ADD SWAP1 DUP2 MSTORE PUSH1 0x20 ADD PUSH1 0x0 KECCAK256 SWAP1 DUP1 MLOAD SWAP1 PUSH1 0x20 ADD SWAP1 PUSH2 0x8F8 SWAP3 SWAP2 SWAP1 PUSH2 0x21D9 JUMP JUMPDEST POP POP POP JUMP JUMPDEST PUSH2 0x905 PUSH2 0x13A1 JUMP JUMPDEST DUP1 PUSH1 0xE PUSH1 0x0 PUSH2 0x100 EXP DUP2 SLOAD DUP2 PUSH2 0xFFFF MUL NOT AND SWAP1 DUP4 PUSH2 0xFFFF AND MUL OR SWAP1 SSTORE POP POP JUMP JUMPDEST PUSH1 0x0 PUSH2 0x92F PUSH2 0x1377 JUMP JUMPDEST SWAP1 POP DUP1 PUSH20 0xFFFFFFFFFFFFFFFFFFFFFFFFFFFFFFFFFFFFFFFF AND PUSH4 0xA9059CBB DUP5 DUP5 PUSH1 0x40 MLOAD DUP4 PUSH4 0xFFFFFFFF AND PUSH1 0xE0 SHL DUP2 MSTORE PUSH1 0x4 ADD PUSH2 0x96C SWAP3 SWAP2 SWAP1 PUSH2 0x3631 JUMP JUMPDEST PUSH1 0x20 PUSH1 0x40 MLOAD DUP1 DUP4 SUB DUP2 PUSH1 0x0 DUP8 GAS CALL ISZERO DUP1 ISZERO PUSH2 0x98B JUMPI RETURNDATASIZE PUSH1 0x0 DUP1 RETURNDATACOPY RETURNDATASIZE PUSH1 0x0 REVERT JUMPDEST POP POP POP POP PUSH1 0x40 MLOAD RETURNDATASIZE PUSH1 0x1F NOT PUSH1 0x1F DUP3 ADD AND DUP3 ADD DUP1 PUSH1 0x40 MSTORE POP DUP2 ADD SWAP1 PUSH2 0x9AF SWAP2 SWAP1 PUSH2 0x3692 JUMP JUMPDEST PUSH2 0x9F2 JUMPI DUP3 DUP3 PUSH1 0x40 MLOAD PUSH32 0x7AB2F97700000000000000000000000000000000000000000000000000000000 DUP2 MSTORE PUSH1 0x4 ADD PUSH2 0x9E9 SWAP3 SWAP2 SWAP1 PUSH2 0x3631 JUMP JUMPDEST PUSH1 0x40 MLOAD DUP1 SWAP2 SUB SWAP1 REVERT JUMPDEST POP POP POP JUMP JUMPDEST PUSH1 0x0 PUSH1 0x7 PUSH1 0x0 DUP4 DUP2 MSTORE PUSH1 0x20 ADD SWAP1 DUP2 MSTORE PUSH1 0x20 ADD PUSH1 0x0 KECCAK256 DUP1 SLOAD SWAP1 POP SWAP1 POP SWAP2 SWAP1 POP JUMP JUMPDEST PUSH2 0xA1F PUSH2 0x13A1 JUMP JUMPDEST PUSH2 0xA29 PUSH1 0x0 PUSH2 0x141F JUMP JUMPDEST JUMP JUMPDEST PUSH1 0x0 PUSH1 0x6 PUSH1 0x0 SWAP1 SLOAD SWAP1 PUSH2 0x100 EXP SWAP1 DIV PUSH20 0xFFFFFFFFFFFFFFFFFFFFFFFFFFFFFFFFFFFFFFFF AND SWAP1 POP SWAP1 JUMP JUMPDEST PUSH2 0xA5D PUSH2 0x13A1 JUMP JUMPDEST DUP1 PUSH1 0xC PUSH1 0x0 PUSH2 0x100 EXP DUP2 SLOAD DUP2 PUSH1 0xFF MUL NOT AND SWAP1 DUP4 PUSH1 0xFF AND MUL OR SWAP1 SSTORE POP POP JUMP JUMPDEST DUP2 PUSH1 0x5 PUSH1 0x0 DUP3 DUP2 MSTORE PUSH1 0x20 ADD SWAP1 DUP2 MSTORE PUSH1 0x20 ADD PUSH1 0x0 KECCAK256 PUSH1 0x0 SWAP1 SLOAD SWAP1 PUSH2 0x100 EXP SWAP1 DIV PUSH20 0xFFFFFFFFFFFFFFFFFFFFFFFFFFFFFFFFFFFFFFFF AND PUSH20 0xFFFFFFFFFFFFFFFFFFFFFFFFFFFFFFFFFFFFFFFF AND CALLER PUSH20 0xFFFFFFFFFFFFFFFFFFFFFFFFFFFFFFFFFFFFFFFF AND EQ PUSH2 0xB1D JUMPI PUSH1 0x40 MLOAD PUSH32 0x8C379A000000000000000000000000000000000000000000000000000000000 DUP2 MSTORE PUSH1 0x4 ADD PUSH2 0xB14 SWAP1 PUSH2 0x3731 JUMP JUMPDEST PUSH1 0x40 MLOAD DUP1 SWAP2 SUB SWAP1 REVERT JUMPDEST PUSH1 0x5 PUSH1 0x0 DUP3 DUP2 MSTORE PUSH1 0x20 ADD SWAP1 DUP2 MSTORE PUSH1 0x20 ADD PUSH1 0x0 KECCAK256 PUSH1 0x0 PUSH2 0x100 EXP DUP2 SLOAD SWAP1 PUSH20 0xFFFFFFFFFFFFFFFFFFFFFFFFFFFFFFFFFFFFFFFF MUL NOT AND SWAP1 SSTORE DUP1 PUSH32 0x7CC135E0CEBB02C3480AE5D74D377283180A2601F8F644EDF7987B009316C63A PUSH1 0x40 MLOAD PUSH1 0x40 MLOAD DUP1 SWAP2 SUB SWAP1 LOG2 DUP2 PUSH1 0x7 PUSH1 0x0 DUP6 DUP2 MSTORE PUSH1 0x20 ADD SWAP1 DUP2 MSTORE PUSH1 0x20 ADD PUSH1 0x0 KECCAK256 SWAP1 DUP1 MLOAD SWAP1 PUSH1 0x20 ADD SWAP1 PUSH2 0xBA7 SWAP3 SWAP2 SWAP1 PUSH2 0x21D9 JUMP JUMPDEST POP DUP3 PUSH1 0x8 PUSH1 0x0 PUSH1 0xD SLOAD DUP2 MSTORE PUSH1 0x20 ADD SWAP1 DUP2 MSTORE PUSH1 0x20 ADD PUSH1 0x0 KECCAK256 DUP2 SWAP1 SSTORE POP PUSH1 0xD PUSH1 0x0 DUP2 SLOAD DUP1 SWAP3 SWAP2 SWAP1 PUSH2 0xBD5 SWAP1 PUSH2 0x3751 JUMP JUMPDEST SWAP2 SWAP1 POP SSTORE POP POP POP POP JUMP JUMPDEST PUSH1 0x7 PUSH1 0x20 MSTORE DUP2 PUSH1 0x0 MSTORE PUSH1 0x40 PUSH1 0x0 KECCAK256 DUP2 DUP2 SLOAD DUP2 LT PUSH2 0xBFB JUMPI PUSH1 0x0 DUP1 REVERT JUMPDEST SWAP1 PUSH1 0x0 MSTORE PUSH1 0x20 PUSH1 0x0 KECCAK256 ADD PUSH1 0x0 SWAP2 POP SWAP2 POP POP DUP1 SLOAD PUSH2 0xC17 SWAP1 PUSH2 0x32D4 JUMP JUMPDEST DUP1 PUSH1 0x1F ADD PUSH1 0x20 DUP1 SWAP2 DIV MUL PUSH1 0x20 ADD PUSH1 0x40 MLOAD SWAP1 DUP2 ADD PUSH1 0x40 MSTORE DUP1 SWAP3 SWAP2 SWAP1 DUP2 DUP2 MSTORE PUSH1 0x20 ADD DUP3 DUP1 SLOAD PUSH2 0xC43 SWAP1 PUSH2 0x32D4 JUMP JUMPDEST DUP1 ISZERO PUSH2 0xC90 JUMPI DUP1 PUSH1 0x1F LT PUSH2 0xC65 JUMPI PUSH2 0x100 DUP1 DUP4 SLOAD DIV MUL DUP4 MSTORE SWAP2 PUSH1 0x20 ADD SWAP2 PUSH2 0xC90 JUMP JUMPDEST DUP3 ADD SWAP2 SWAP1 PUSH1 0x0 MSTORE PUSH1 0x20 PUSH1 0x0 KECCAK256 SWAP1 JUMPDEST DUP2 SLOAD DUP2 MSTORE SWAP1 PUSH1 0x1 ADD SWAP1 PUSH1 0x20 ADD DUP1 DUP4 GT PUSH2 0xC73 JUMPI DUP3 SWAP1 SUB PUSH1 0x1F AND DUP3 ADD SWAP2 JUMPDEST POP POP POP POP POP DUP2 JUMP JUMPDEST PUSH1 0x0 PUSH2 0xCAD PUSH1 0xA SLOAD PUSH4 0x93D07072 PUSH1 0xE0 SHL PUSH2 0x14E5 JUMP JUMPDEST SWAP1 POP PUSH2 0xCF9 PUSH1 0x40 MLOAD DUP1 PUSH1 0x40 ADD PUSH1 0x40 MSTORE DUP1 PUSH1 0x6 DUP2 MSTORE PUSH1 0x20 ADD PUSH32 0x6D61726B65740000000000000000000000000000000000000000000000000000 DUP2 MSTORE POP DUP5 DUP4 PUSH2 0x1515 SWAP1 SWAP3 SWAP2 SWAP1 PUSH4 0xFFFFFFFF AND JUMP JUMPDEST PUSH2 0xD55 PUSH1 0x40 MLOAD DUP1 PUSH1 0x40 ADD PUSH1 0x40 MSTORE DUP1 PUSH1 0x8 DUP2 MSTORE PUSH1 0x20 ADD PUSH32 0x6C65616775654964000000000000000000000000000000000000000000000000 DUP2 MSTORE POP PUSH1 0xC PUSH1 0x0 SWAP1 SLOAD SWAP1 PUSH2 0x100 EXP SWAP1 DIV PUSH1 0xFF AND PUSH1 0xFF AND DUP4 PUSH2 0x1515 SWAP1 SWAP3 SWAP2 SWAP1 PUSH4 0xFFFFFFFF AND JUMP JUMPDEST PUSH2 0xD9F PUSH1 0x40 MLOAD DUP1 PUSH1 0x40 ADD PUSH1 0x40 MSTORE DUP1 PUSH1 0x4 DUP2 MSTORE PUSH1 0x20 ADD PUSH32 0x6461746500000000000000000000000000000000000000000000000000000000 DUP2 MSTORE POP DUP4 DUP4 PUSH2 0x1515 SWAP1 SWAP3 SWAP2 SWAP1 PUSH4 0xFFFFFFFF AND JUMP JUMPDEST PUSH2 0xDAB DUP2 PUSH1 0xB SLOAD PUSH2 0x1548 JUMP JUMPDEST POP POP POP POP JUMP JUMPDEST PUSH1 0x0 PUSH2 0xDBB PUSH2 0x157F JUMP JUMPDEST SWAP1 POP SWAP1 JUMP JUMPDEST PUSH1 0x0 DUP1 PUSH1 0x8 PUSH1 0x0 PUSH1 0x1 PUSH1 0xD SLOAD PUSH2 0xDD6 SWAP2 SWAP1 PUSH2 0x3799 JUMP JUMPDEST DUP2 MSTORE PUSH1 0x20 ADD SWAP1 DUP2 MSTORE PUSH1 0x20 ADD PUSH1 0x0 KECCAK256 SLOAD SWAP1 POP PUSH1 0x0 DUP1 PUSH1 0x0 DUP1 JUMPDEST PUSH1 0xE PUSH1 0x0 SWAP1 SLOAD SWAP1 PUSH2 0x100 EXP SWAP1 DIV PUSH2 0xFFFF AND PUSH2 0xFFFF AND DUP2 PUSH2 0xFFFF AND LT ISZERO PUSH2 0x1135 JUMPI PUSH2 0xEFE PUSH1 0x9 PUSH1 0x0 DUP10 PUSH20 0xFFFFFFFFFFFFFFFFFFFFFFFFFFFFFFFFFFFFFFFF AND PUSH20 0xFFFFFFFFFFFFFFFFFFFFFFFFFFFFFFFFFFFFFFFF AND DUP2 MSTORE PUSH1 0x20 ADD SWAP1 DUP2 MSTORE PUSH1 0x20 ADD PUSH1 0x0 KECCAK256 DUP3 PUSH2 0xFFFF AND DUP2 SLOAD DUP2 LT PUSH2 0xE66 JUMPI PUSH2 0xE65 PUSH2 0x3276 JUMP JUMPDEST JUMPDEST SWAP1 PUSH1 0x0 MSTORE PUSH1 0x20 PUSH1 0x0 KECCAK256 SWAP1 PUSH1 0x2 MUL ADD PUSH1 0x0 ADD PUSH1 0x4 SWAP1 SLOAD SWAP1 PUSH2 0x100 EXP SWAP1 DIV PUSH1 0xFF AND PUSH1 0x9 PUSH1 0x0 DUP11 PUSH20 0xFFFFFFFFFFFFFFFFFFFFFFFFFFFFFFFFFFFFFFFF AND PUSH20 0xFFFFFFFFFFFFFFFFFFFFFFFFFFFFFFFFFFFFFFFF AND DUP2 MSTORE PUSH1 0x20 ADD SWAP1 DUP2 MSTORE PUSH1 0x20 ADD PUSH1 0x0 KECCAK256 DUP4 PUSH2 0xFFFF AND DUP2 SLOAD DUP2 LT PUSH2 0xEDA JUMPI PUSH2 0xED9 PUSH2 0x3276 JUMP JUMPDEST JUMPDEST SWAP1 PUSH1 0x0 MSTORE PUSH1 0x20 PUSH1 0x0 KECCAK256 SWAP1 PUSH1 0x2 MUL ADD PUSH1 0x0 ADD PUSH1 0x5 SWAP1 SLOAD SWAP1 PUSH2 0x100 EXP SWAP1 DIV PUSH1 0xFF AND PUSH2 0x15A9 JUMP JUMPDEST SWAP4 POP PUSH1 0x0 PUSH2 0xFC6 PUSH1 0x7 PUSH1 0x0 DUP9 DUP2 MSTORE PUSH1 0x20 ADD SWAP1 DUP2 MSTORE PUSH1 0x20 ADD PUSH1 0x0 KECCAK256 DUP4 PUSH2 0xFFFF AND DUP2 SLOAD DUP2 LT PUSH2 0xF2E JUMPI PUSH2 0xF2D PUSH2 0x3276 JUMP JUMPDEST JUMPDEST SWAP1 PUSH1 0x0 MSTORE PUSH1 0x20 PUSH1 0x0 KECCAK256 ADD DUP1 SLOAD PUSH2 0xF43 SWAP1 PUSH2 0x32D4 JUMP JUMPDEST DUP1 PUSH1 0x1F ADD PUSH1 0x20 DUP1 SWAP2 DIV MUL PUSH1 0x20 ADD PUSH1 0x40 MLOAD SWAP1 DUP2 ADD PUSH1 0x40 MSTORE DUP1 SWAP3 SWAP2 SWAP1 DUP2 DUP2 MSTORE PUSH1 0x20 ADD DUP3 DUP1 SLOAD PUSH2 0xF6F SWAP1 PUSH2 0x32D4 JUMP JUMPDEST DUP1 ISZERO PUSH2 0xFBC JUMPI DUP1 PUSH1 0x1F LT PUSH2 0xF91 JUMPI PUSH2 0x100 DUP1 DUP4 SLOAD DIV MUL DUP4 MSTORE SWAP2 PUSH1 0x20 ADD SWAP2 PUSH2 0xFBC JUMP JUMPDEST DUP3 ADD SWAP2 SWAP1 PUSH1 0x0 MSTORE PUSH1 0x20 PUSH1 0x0 KECCAK256 SWAP1 JUMPDEST DUP2 SLOAD DUP2 MSTORE SWAP1 PUSH1 0x1 ADD SWAP1 PUSH1 0x20 ADD DUP1 DUP4 GT PUSH2 0xF9F JUMPI DUP3 SWAP1 SUB PUSH1 0x1F AND DUP3 ADD SWAP2 JUMPDEST POP POP POP POP POP PUSH2 0x15EA JUMP JUMPDEST SWAP1 POP PUSH2 0xFDA DUP2 PUSH1 0x20 ADD MLOAD DUP3 PUSH1 0x40 ADD MLOAD PUSH2 0x15A9 JUMP JUMPDEST SWAP4 POP DUP4 PUSH1 0xFF AND DUP6 PUSH1 0xFF AND SUB PUSH2 0x1121 JUMPI PUSH1 0x5 DUP4 PUSH2 0xFF6 SWAP2 SWAP1 PUSH2 0x37CD JUMP JUMPDEST SWAP3 POP DUP1 PUSH1 0x20 ADD MLOAD PUSH1 0xFF AND PUSH1 0x9 PUSH1 0x0 DUP11 PUSH20 0xFFFFFFFFFFFFFFFFFFFFFFFFFFFFFFFFFFFFFFFF AND PUSH20 0xFFFFFFFFFFFFFFFFFFFFFFFFFFFFFFFFFFFFFFFF AND DUP2 MSTORE PUSH1 0x20 ADD SWAP1 DUP2 MSTORE PUSH1 0x20 ADD PUSH1 0x0 KECCAK256 DUP4 PUSH2 0xFFFF AND DUP2 SLOAD DUP2 LT PUSH2 0x1055 JUMPI PUSH2 0x1054 PUSH2 0x3276 JUMP JUMPDEST JUMPDEST SWAP1 PUSH1 0x0 MSTORE PUSH1 0x20 PUSH1 0x0 KECCAK256 SWAP1 PUSH1 0x2 MUL ADD PUSH1 0x0 ADD PUSH1 0x4 SWAP1 SLOAD SWAP1 PUSH2 0x100 EXP SWAP1 DIV PUSH1 0xFF AND PUSH1 0xFF AND SUB PUSH2 0x108C JUMPI PUSH1 0x2 DUP4 PUSH2 0x1089 SWAP2 SWAP1 PUSH2 0x37CD JUMP JUMPDEST SWAP3 POP JUMPDEST DUP1 PUSH1 0x40 ADD MLOAD PUSH1 0xFF AND PUSH1 0x9 PUSH1 0x0 DUP11 PUSH20 0xFFFFFFFFFFFFFFFFFFFFFFFFFFFFFFFFFFFFFFFF AND PUSH20 0xFFFFFFFFFFFFFFFFFFFFFFFFFFFFFFFFFFFFFFFF AND DUP2 MSTORE PUSH1 0x20 ADD SWAP1 DUP2 MSTORE PUSH1 0x20 ADD PUSH1 0x0 KECCAK256 DUP4 PUSH2 0xFFFF AND DUP2 SLOAD DUP2 LT PUSH2 0x10E9 JUMPI PUSH2 0x10E8 PUSH2 0x3276 JUMP JUMPDEST JUMPDEST SWAP1 PUSH1 0x0 MSTORE PUSH1 0x20 PUSH1 0x0 KECCAK256 SWAP1 PUSH1 0x2 MUL ADD PUSH1 0x0 ADD PUSH1 0x5 SWAP1 SLOAD SWAP1 PUSH2 0x100 EXP SWAP1 DIV PUSH1 0xFF AND PUSH1 0xFF AND SUB PUSH2 0x1120 JUMPI PUSH1 0x2 DUP4 PUSH2 0x111D SWAP2 SWAP1 PUSH2 0x37CD JUMP JUMPDEST SWAP3 POP JUMPDEST JUMPDEST POP DUP1 DUP1 PUSH2 0x112D SWAP1 PUSH2 0x35B2 JUMP JUMPDEST SWAP2 POP POP PUSH2 0xDEE JUMP JUMPDEST POP DUP1 SWAP5 POP POP POP POP POP SWAP2 SWAP1 POP JUMP JUMPDEST PUSH2 0x114A PUSH2 0x2232 JUMP JUMPDEST PUSH2 0x120A PUSH1 0x7 PUSH1 0x0 DUP6 DUP2 MSTORE PUSH1 0x20 ADD SWAP1 DUP2 MSTORE PUSH1 0x20 ADD PUSH1 0x0 KECCAK256 DUP4 DUP2 SLOAD DUP2 LT PUSH2 0x1172 JUMPI PUSH2 0x1171 PUSH2 0x3276 JUMP JUMPDEST JUMPDEST SWAP1 PUSH1 0x0 MSTORE PUSH1 0x20 PUSH1 0x0 KECCAK256 ADD DUP1 SLOAD PUSH2 0x1187 SWAP1 PUSH2 0x32D4 JUMP JUMPDEST DUP1 PUSH1 0x1F ADD PUSH1 0x20 DUP1 SWAP2 DIV MUL PUSH1 0x20 ADD PUSH1 0x40 MLOAD SWAP1 DUP2 ADD PUSH1 0x40 MSTORE DUP1 SWAP3 SWAP2 SWAP1 DUP2 DUP2 MSTORE PUSH1 0x20 ADD DUP3 DUP1 SLOAD PUSH2 0x11B3 SWAP1 PUSH2 0x32D4 JUMP JUMPDEST DUP1 ISZERO PUSH2 0x1200 JUMPI DUP1 PUSH1 0x1F LT PUSH2 0x11D5 JUMPI PUSH2 0x100 DUP1 DUP4 SLOAD DIV MUL DUP4 MSTORE SWAP2 PUSH1 0x20 ADD SWAP2 PUSH2 0x1200 JUMP JUMPDEST DUP3 ADD SWAP2 SWAP1 PUSH1 0x0 MSTORE PUSH1 0x20 PUSH1 0x0 KECCAK256 SWAP1 JUMPDEST DUP2 SLOAD DUP2 MSTORE SWAP1 PUSH1 0x1 ADD SWAP1 PUSH1 0x20 ADD DUP1 DUP4 GT PUSH2 0x11E3 JUMPI DUP3 SWAP1 SUB PUSH1 0x1F AND DUP3 ADD SWAP2 JUMPDEST POP POP POP POP POP PUSH2 0x15EA JUMP JUMPDEST SWAP1 POP SWAP3 SWAP2 POP POP JUMP JUMPDEST PUSH2 0x121A PUSH2 0x2266 JUMP JUMPDEST PUSH2 0x12DA PUSH1 0x7 PUSH1 0x0 DUP6 DUP2 MSTORE PUSH1 0x20 ADD SWAP1 DUP2 MSTORE PUSH1 0x20 ADD PUSH1 0x0 KECCAK256 DUP4 DUP2 SLOAD DUP2 LT PUSH2 0x1242 JUMPI PUSH2 0x1241 PUSH2 0x3276 JUMP JUMPDEST JUMPDEST SWAP1 PUSH1 0x0 MSTORE PUSH1 0x20 PUSH1 0x0 KECCAK256 ADD DUP1 SLOAD PUSH2 0x1257 SWAP1 PUSH2 0x32D4 JUMP JUMPDEST DUP1 PUSH1 0x1F ADD PUSH1 0x20 DUP1 SWAP2 DIV MUL PUSH1 0x20 ADD PUSH1 0x40 MLOAD SWAP1 DUP2 ADD PUSH1 0x40 MSTORE DUP1 SWAP3 SWAP2 SWAP1 DUP2 DUP2 MSTORE PUSH1 0x20 ADD DUP3 DUP1 SLOAD PUSH2 0x1283 SWAP1 PUSH2 0x32D4 JUMP JUMPDEST DUP1 ISZERO PUSH2 0x12D0 JUMPI DUP1 PUSH1 0x1F LT PUSH2 0x12A5 JUMPI PUSH2 0x100 DUP1 DUP4 SLOAD DIV MUL DUP4 MSTORE SWAP2 PUSH1 0x20 ADD SWAP2 PUSH2 0x12D0 JUMP JUMPDEST DUP3 ADD SWAP2 SWAP1 PUSH1 0x0 MSTORE PUSH1 0x20 PUSH1 0x0 KECCAK256 SWAP1 JUMPDEST DUP2 SLOAD DUP2 MSTORE SWAP1 PUSH1 0x1 ADD SWAP1 PUSH1 0x20 ADD DUP1 DUP4 GT PUSH2 0x12B3 JUMPI DUP3 SWAP1 SUB PUSH1 0x1F AND DUP3 ADD SWAP2 JUMPDEST POP POP POP POP POP PUSH2 0x16AA JUMP JUMPDEST SWAP1 POP SWAP3 SWAP2 POP POP JUMP JUMPDEST PUSH2 0x12EE DUP5 DUP5 DUP5 DUP5 PUSH2 0x1787 JUMP JUMPDEST POP POP POP POP JUMP JUMPDEST PUSH2 0x12FC PUSH2 0x13A1 JUMP JUMPDEST PUSH1 0x0 PUSH20 0xFFFFFFFFFFFFFFFFFFFFFFFFFFFFFFFFFFFFFFFF AND DUP2 PUSH20 0xFFFFFFFFFFFFFFFFFFFFFFFFFFFFFFFFFFFFFFFF AND SUB PUSH2 0x136B JUMPI PUSH1 0x40 MLOAD PUSH32 0x8C379A000000000000000000000000000000000000000000000000000000000 DUP2 MSTORE PUSH1 0x4 ADD PUSH2 0x1362 SWAP1 PUSH2 0x3877 JUMP JUMPDEST PUSH1 0x40 MLOAD DUP1 SWAP2 SUB SWAP1 REVERT JUMPDEST PUSH2 0x1374 DUP2 PUSH2 0x141F JUMP JUMPDEST POP JUMP JUMPDEST PUSH1 0x0 PUSH1 0x2 PUSH1 0x0 SWAP1 SLOAD SWAP1 PUSH2 0x100 EXP SWAP1 DIV PUSH20 0xFFFFFFFFFFFFFFFFFFFFFFFFFFFFFFFFFFFFFFFF AND SWAP1 POP SWAP1 JUMP JUMPDEST PUSH2 0x13A9 PUSH2 0x189A JUMP JUMPDEST PUSH20 0xFFFFFFFFFFFFFFFFFFFFFFFFFFFFFFFFFFFFFFFF AND PUSH2 0x13C7 PUSH2 0xA2B JUMP JUMPDEST PUSH20 0xFFFFFFFFFFFFFFFFFFFFFFFFFFFFFFFFFFFFFFFF AND EQ PUSH2 0x141D JUMPI PUSH1 0x40 MLOAD PUSH32 0x8C379A000000000000000000000000000000000000000000000000000000000 DUP2 MSTORE PUSH1 0x4 ADD PUSH2 0x1414 SWAP1 PUSH2 0x38E3 JUMP JUMPDEST PUSH1 0x40 MLOAD DUP1 SWAP2 SUB SWAP1 REVERT JUMPDEST JUMP JUMPDEST PUSH1 0x0 PUSH1 0x6 PUSH1 0x0 SWAP1 SLOAD SWAP1 PUSH2 0x100 EXP SWAP1 DIV PUSH20 0xFFFFFFFFFFFFFFFFFFFFFFFFFFFFFFFFFFFFFFFF AND SWAP1 POP DUP2 PUSH1 0x6 PUSH1 0x0 PUSH2 0x100 EXP DUP2 SLOAD DUP2 PUSH20 0xFFFFFFFFFFFFFFFFFFFFFFFFFFFFFFFFFFFFFFFF MUL NOT AND SWAP1 DUP4 PUSH20 0xFFFFFFFFFFFFFFFFFFFFFFFFFFFFFFFFFFFFFFFF AND MUL OR SWAP1 SSTORE POP DUP2 PUSH20 0xFFFFFFFFFFFFFFFFFFFFFFFFFFFFFFFFFFFFFFFF AND DUP2 PUSH20 0xFFFFFFFFFFFFFFFFFFFFFFFFFFFFFFFFFFFFFFFF AND PUSH32 0x8BE0079C531659141344CD1FD0A4F28419497F9722A3DAAFE3B4186F6B6457E0 PUSH1 0x40 MLOAD PUSH1 0x40 MLOAD DUP1 SWAP2 SUB SWAP1 LOG3 POP POP JUMP JUMPDEST PUSH2 0x14ED PUSH2 0x229B JUMP JUMPDEST PUSH2 0x14F5 PUSH2 0x229B JUMP JUMPDEST PUSH2 0x150C DUP5 ADDRESS DUP6 DUP5 PUSH2 0x18A2 SWAP1 SWAP4 SWAP3 SWAP2 SWAP1 PUSH4 0xFFFFFFFF AND JUMP JUMPDEST SWAP2 POP POP SWAP3 SWAP2 POP POP JUMP JUMPDEST PUSH2 0x152C DUP3 DUP5 PUSH1 0x80 ADD MLOAD PUSH2 0x1952 SWAP1 SWAP2 SWAP1 PUSH4 0xFFFFFFFF AND JUMP JUMPDEST PUSH2 0x1543 DUP2 DUP5 PUSH1 0x80 ADD MLOAD PUSH2 0x1977 SWAP1 SWAP2 SWAP1 PUSH4 0xFFFFFFFF AND JUMP JUMPDEST POP POP POP JUMP JUMPDEST PUSH1 0x0 PUSH2 0x1577 PUSH1 0x3 PUSH1 0x0 SWAP1 SLOAD SWAP1 PUSH2 0x100 EXP SWAP1 DIV PUSH20 0xFFFFFFFFFFFFFFFFFFFFFFFFFFFFFFFFFFFFFFFF AND DUP5 DUP5 PUSH2 0x19A7 JUMP JUMPDEST SWAP1 POP SWAP3 SWAP2 POP POP JUMP JUMPDEST PUSH1 0x0 PUSH1 0x3 PUSH1 0x0 SWAP1 SLOAD SWAP1 PUSH2 0x100 EXP SWAP1 DIV PUSH20 0xFFFFFFFFFFFFFFFFFFFFFFFFFFFFFFFFFFFFFFFF AND SWAP1 POP SWAP1 JUMP JUMPDEST PUSH1 0x0 DUP1 DUP3 PUSH1 0xFF AND DUP5 PUSH1 0xFF AND GT ISZERO PUSH2 0x15C3 JUMPI PUSH1 0x0 SWAP1 POP PUSH2 0x15E0 JUMP JUMPDEST DUP4 PUSH1 0xFF AND DUP4 PUSH1 0xFF AND GT ISZERO PUSH2 0x15DA JUMPI PUSH1 0x2 SWAP1 POP PUSH2 0x15DF JUMP JUMPDEST PUSH1 0x1 SWAP1 POP JUMPDEST JUMPDEST DUP1 SWAP2 POP POP SWAP3 SWAP2 POP POP JUMP JUMPDEST PUSH2 0x15F2 PUSH2 0x2232 JUMP JUMPDEST PUSH1 0x0 PUSH2 0x1601 PUSH1 0x0 PUSH1 0x4 DUP6 PUSH2 0x1A71 JUMP JUMPDEST PUSH2 0x160A SWAP1 PUSH2 0x3928 JUMP JUMPDEST PUSH1 0xE0 SHR SWAP1 POP PUSH1 0x0 DUP4 PUSH1 0x4 DUP2 MLOAD DUP2 LT PUSH2 0x1625 JUMPI PUSH2 0x1624 PUSH2 0x3276 JUMP JUMPDEST JUMPDEST PUSH1 0x20 ADD ADD MLOAD PUSH1 0xF8 SHR PUSH1 0xF8 SHL PUSH1 0xF8 SHR SWAP1 POP PUSH1 0x0 DUP5 PUSH1 0x5 DUP2 MLOAD DUP2 LT PUSH2 0x164B JUMPI PUSH2 0x164A PUSH2 0x3276 JUMP JUMPDEST JUMPDEST PUSH1 0x20 ADD ADD MLOAD PUSH1 0xF8 SHR PUSH1 0xF8 SHL PUSH1 0xF8 SHR SWAP1 POP PUSH1 0x0 PUSH2 0x166A PUSH1 0x6 DUP8 MLOAD DUP9 PUSH2 0x1A71 JUMP JUMPDEST SWAP1 POP PUSH1 0x0 PUSH1 0x40 MLOAD DUP1 PUSH1 0x80 ADD PUSH1 0x40 MSTORE DUP1 DUP7 PUSH4 0xFFFFFFFF AND DUP2 MSTORE PUSH1 0x20 ADD DUP6 PUSH1 0xFF AND DUP2 MSTORE PUSH1 0x20 ADD DUP5 PUSH1 0xFF AND DUP2 MSTORE PUSH1 0x20 ADD DUP4 DUP2 MSTORE POP SWAP1 POP DUP1 SWAP6 POP POP POP POP POP POP SWAP2 SWAP1 POP JUMP JUMPDEST PUSH2 0x16B2 PUSH2 0x2266 JUMP JUMPDEST PUSH1 0x0 PUSH2 0x16C1 PUSH1 0x0 PUSH1 0x4 DUP6 PUSH2 0x1A71 JUMP JUMPDEST PUSH2 0x16CA SWAP1 PUSH2 0x3928 JUMP JUMPDEST PUSH1 0xE0 SHR SWAP1 POP PUSH1 0x0 PUSH2 0x16DE PUSH1 0x4 PUSH1 0x9 DUP7 PUSH2 0x1A71 JUMP JUMPDEST PUSH2 0x16E7 SWAP1 PUSH2 0x39D0 JUMP JUMPDEST PUSH1 0xD8 SHR SWAP1 POP PUSH1 0x0 DUP5 PUSH1 0x9 DUP2 MLOAD DUP2 LT PUSH2 0x1702 JUMPI PUSH2 0x1701 PUSH2 0x3276 JUMP JUMPDEST JUMPDEST PUSH1 0x20 ADD ADD MLOAD PUSH1 0xF8 SHR PUSH1 0xF8 SHL PUSH1 0xF8 SHR SWAP1 POP PUSH1 0x0 DUP2 PUSH1 0xA PUSH2 0x1721 SWAP2 SWAP1 PUSH2 0x3A37 JUMP JUMPDEST PUSH1 0xFF AND SWAP1 POP PUSH1 0x0 PUSH2 0x1734 PUSH1 0xA DUP4 DUP10 PUSH2 0x1A71 JUMP JUMPDEST SWAP1 POP PUSH1 0x0 PUSH2 0x1744 DUP4 DUP10 MLOAD DUP11 PUSH2 0x1A71 JUMP JUMPDEST SWAP1 POP PUSH1 0x0 PUSH1 0x40 MLOAD DUP1 PUSH1 0x80 ADD PUSH1 0x40 MSTORE DUP1 DUP9 PUSH4 0xFFFFFFFF AND DUP2 MSTORE PUSH1 0x20 ADD DUP8 PUSH5 0xFFFFFFFFFF AND DUP2 MSTORE PUSH1 0x20 ADD DUP5 DUP2 MSTORE PUSH1 0x20 ADD DUP4 DUP2 MSTORE POP SWAP1 POP DUP1 SWAP8 POP POP POP POP POP POP POP POP SWAP2 SWAP1 POP JUMP JUMPDEST PUSH1 0x0 PUSH1 0x5 PUSH1 0x0 DUP7 DUP2 MSTORE PUSH1 0x20 ADD SWAP1 DUP2 MSTORE PUSH1 0x20 ADD PUSH1 0x0 KECCAK256 PUSH1 0x0 SWAP1 SLOAD SWAP1 PUSH2 0x100 EXP SWAP1 DIV PUSH20 0xFFFFFFFFFFFFFFFFFFFFFFFFFFFFFFFFFFFFFFFF AND SWAP1 POP PUSH1 0x5 PUSH1 0x0 DUP7 DUP2 MSTORE PUSH1 0x20 ADD SWAP1 DUP2 MSTORE PUSH1 0x20 ADD PUSH1 0x0 KECCAK256 PUSH1 0x0 PUSH2 0x100 EXP DUP2 SLOAD SWAP1 PUSH20 0xFFFFFFFFFFFFFFFFFFFFFFFFFFFFFFFFFFFFFFFF MUL NOT AND SWAP1 SSTORE DUP5 PUSH32 0xE1FE3AFA0F7F761FF0A8B89086790EFD5140D2907EBD5B7FF6BFCB5E075FD4C5 PUSH1 0x40 MLOAD PUSH1 0x40 MLOAD DUP1 SWAP2 SUB SWAP1 LOG2 DUP1 PUSH20 0xFFFFFFFFFFFFFFFFFFFFFFFFFFFFFFFFFFFFFFFF AND PUSH4 0x6EE4D553 DUP7 DUP7 DUP7 DUP7 PUSH1 0x40 MLOAD DUP6 PUSH4 0xFFFFFFFF AND PUSH1 0xE0 SHL DUP2 MSTORE PUSH1 0x4 ADD PUSH2 0x1861 SWAP5 SWAP4 SWAP3 SWAP2 SWAP1 PUSH2 0x3A7D JUMP JUMPDEST PUSH1 0x0 PUSH1 0x40 MLOAD DUP1 DUP4 SUB DUP2 PUSH1 0x0 DUP8 DUP1 EXTCODESIZE ISZERO DUP1 ISZERO PUSH2 0x187B JUMPI PUSH1 0x0 DUP1 REVERT JUMPDEST POP GAS CALL ISZERO DUP1 ISZERO PUSH2 0x188F JUMPI RETURNDATASIZE PUSH1 0x0 DUP1 RETURNDATACOPY RETURNDATASIZE PUSH1 0x0 REVERT JUMPDEST POP POP POP POP POP POP POP POP POP JUMP JUMPDEST PUSH1 0x0 CALLER SWAP1 POP SWAP1 JUMP JUMPDEST PUSH2 0x18AA PUSH2 0x229B JUMP JUMPDEST PUSH2 0x18BA DUP6 PUSH1 0x80 ADD MLOAD PUSH2 0x100 PUSH2 0x1B6D JUMP JUMPDEST POP DUP4 DUP6 PUSH1 0x0 ADD DUP2 DUP2 MSTORE POP POP DUP3 DUP6 PUSH1 0x20 ADD SWAP1 PUSH20 0xFFFFFFFFFFFFFFFFFFFFFFFFFFFFFFFFFFFFFFFF AND SWAP1 DUP2 PUSH20 0xFFFFFFFFFFFFFFFFFFFFFFFFFFFFFFFFFFFFFFFF AND DUP2 MSTORE POP POP DUP2 DUP6 PUSH1 0x40 ADD SWAP1 PUSH28 0xFFFFFFFFFFFFFFFFFFFFFFFFFFFFFFFFFFFFFFFFFFFFFFFFFFFFFFFF NOT AND SWAP1 DUP2 PUSH28 0xFFFFFFFFFFFFFFFFFFFFFFFFFFFFFFFFFFFFFFFFFFFFFFFFFFFFFFFF NOT AND DUP2 MSTORE POP POP DUP5 SWAP1 POP SWAP5 SWAP4 POP POP POP POP JUMP JUMPDEST PUSH2 0x195F DUP3 PUSH1 0x3 DUP4 MLOAD PUSH2 0x1BD7 JUMP JUMPDEST PUSH2 0x1972 DUP2 DUP4 PUSH2 0x1D5C SWAP1 SWAP2 SWAP1 PUSH4 0xFFFFFFFF AND JUMP JUMPDEST POP POP POP JUMP JUMPDEST PUSH8 0xFFFFFFFFFFFFFFFF DUP2 GT ISZERO PUSH2 0x1996 JUMPI PUSH2 0x1991 DUP3 DUP3 PUSH2 0x1D7E JUMP JUMPDEST PUSH2 0x19A3 JUMP JUMPDEST PUSH2 0x19A2 DUP3 PUSH1 0x0 DUP4 PUSH2 0x1BD7 JUMP JUMPDEST JUMPDEST POP POP JUMP JUMPDEST PUSH1 0x0 DUP1 PUSH1 0x4 SLOAD SWAP1 POP PUSH1 0x1 DUP2 PUSH2 0x19BC SWAP2 SWAP1 PUSH2 0x3AC2 JUMP JUMPDEST PUSH1 0x4 DUP2 SWAP1 SSTORE POP PUSH1 0x0 PUSH4 0x3C6D41B9 PUSH1 0xE0 SHL PUSH1 0x0 DUP1 DUP8 PUSH1 0x0 ADD MLOAD DUP9 PUSH1 0x40 ADD MLOAD DUP7 PUSH1 0x2 DUP12 PUSH1 0x80 ADD MLOAD PUSH1 0x0 ADD MLOAD PUSH1 0x40 MLOAD PUSH1 0x24 ADD PUSH2 0x19FB SWAP8 SWAP7 SWAP6 SWAP5 SWAP4 SWAP3 SWAP2 SWAP1 PUSH2 0x3B18 JUMP JUMPDEST PUSH1 0x40 MLOAD PUSH1 0x20 DUP2 DUP4 SUB SUB DUP2 MSTORE SWAP1 PUSH1 0x40 MSTORE SWAP1 PUSH28 0xFFFFFFFFFFFFFFFFFFFFFFFFFFFFFFFFFFFFFFFFFFFFFFFFFFFFFFFF NOT AND PUSH1 0x20 DUP3 ADD DUP1 MLOAD PUSH28 0xFFFFFFFFFFFFFFFFFFFFFFFFFFFFFFFFFFFFFFFFFFFFFFFFFFFFFFFF DUP4 DUP2 DUP4 AND OR DUP4 MSTORE POP POP POP POP SWAP1 POP PUSH2 0x1A66 DUP7 DUP4 DUP7 DUP5 PUSH2 0x1DCA JUMP JUMPDEST SWAP3 POP POP POP SWAP4 SWAP3 POP POP POP JUMP JUMPDEST PUSH1 0x60 PUSH1 0x0 DUP5 DUP5 PUSH2 0x1A81 SWAP2 SWAP1 PUSH2 0x3799 JUMP JUMPDEST PUSH8 0xFFFFFFFFFFFFFFFF DUP2 GT ISZERO PUSH2 0x1A9A JUMPI PUSH2 0x1A99 PUSH2 0x249C JUMP JUMPDEST JUMPDEST PUSH1 0x40 MLOAD SWAP1 DUP1 DUP3 MSTORE DUP1 PUSH1 0x1F ADD PUSH1 0x1F NOT AND PUSH1 0x20 ADD DUP3 ADD PUSH1 0x40 MSTORE DUP1 ISZERO PUSH2 0x1ACC JUMPI DUP2 PUSH1 0x20 ADD PUSH1 0x1 DUP3 MUL DUP1 CALLDATASIZE DUP4 CALLDATACOPY DUP1 DUP3 ADD SWAP2 POP POP SWAP1 POP JUMPDEST POP SWAP1 POP PUSH1 0x0 JUMPDEST DUP6 DUP6 PUSH2 0x1ADE SWAP2 SWAP1 PUSH2 0x3799 JUMP JUMPDEST DUP2 LT ISZERO PUSH2 0x1B61 JUMPI DUP4 DUP2 DUP8 PUSH2 0x1AF2 SWAP2 SWAP1 PUSH2 0x3AC2 JUMP JUMPDEST DUP2 MLOAD DUP2 LT PUSH2 0x1B03 JUMPI PUSH2 0x1B02 PUSH2 0x3276 JUMP JUMPDEST JUMPDEST PUSH1 0x20 ADD ADD MLOAD PUSH1 0xF8 SHR PUSH1 0xF8 SHL DUP3 DUP3 DUP2 MLOAD DUP2 LT PUSH2 0x1B21 JUMPI PUSH2 0x1B20 PUSH2 0x3276 JUMP JUMPDEST JUMPDEST PUSH1 0x20 ADD ADD SWAP1 PUSH31 0xFFFFFFFFFFFFFFFFFFFFFFFFFFFFFFFFFFFFFFFFFFFFFFFFFFFFFFFFFFFFFF NOT AND SWAP1 DUP2 PUSH1 0x0 BYTE SWAP1 MSTORE8 POP DUP1 PUSH2 0x1B5A SWAP1 PUSH2 0x3751 JUMP JUMPDEST SWAP1 POP PUSH2 0x1AD2 JUMP JUMPDEST POP DUP1 SWAP2 POP POP SWAP4 SWAP3 POP POP POP JUMP JUMPDEST PUSH2 0x1B75 PUSH2 0x2308 JUMP JUMPDEST PUSH1 0x0 PUSH1 0x20 DUP4 PUSH2 0x1B84 SWAP2 SWAP1 PUSH2 0x3BBD JUMP JUMPDEST EQ PUSH2 0x1BB0 JUMPI PUSH1 0x20 DUP3 PUSH2 0x1B96 SWAP2 SWAP1 PUSH2 0x3BBD JUMP JUMPDEST PUSH1 0x20 PUSH2 0x1BA2 SWAP2 SWAP1 PUSH2 0x3799 JUMP JUMPDEST DUP3 PUSH2 0x1BAD SWAP2 SWAP1 PUSH2 0x3AC2 JUMP JUMPDEST SWAP2 POP JUMPDEST DUP2 DUP4 PUSH1 0x20 ADD DUP2 DUP2 MSTORE POP POP PUSH1 0x40 MLOAD DUP1 DUP5 MSTORE PUSH1 0x0 DUP2 MSTORE DUP3 DUP2 ADD PUSH1 0x20 ADD PUSH1 0x40 MSTORE POP DUP3 SWAP1 POP SWAP3 SWAP2 POP POP JUMP JUMPDEST PUSH1 0x17 DUP2 PUSH8 0xFFFFFFFFFFFFFFFF AND GT PUSH2 0x1C0E JUMPI PUSH2 0x1C08 DUP2 PUSH1 0x5 DUP5 PUSH1 0xFF AND SWAP1 SHL PUSH1 0xFF AND OR DUP5 PUSH2 0x1F5F SWAP1 SWAP2 SWAP1 PUSH4 0xFFFFFFFF AND JUMP JUMPDEST POP PUSH2 0x1D57 JUMP JUMPDEST PUSH1 0xFF DUP2 PUSH8 0xFFFFFFFFFFFFFFFF AND GT PUSH2 0x1C64 JUMPI PUSH2 0x1C3D PUSH1 0x18 PUSH1 0x5 DUP5 PUSH1 0xFF AND SWAP1 SHL OR DUP5 PUSH2 0x1F5F SWAP1 SWAP2 SWAP1 PUSH4 0xFFFFFFFF AND JUMP JUMPDEST POP PUSH2 0x1C5E DUP2 PUSH8 0xFFFFFFFFFFFFFFFF AND PUSH1 0x1 DUP6 PUSH2 0x1F7F SWAP1 SWAP3 SWAP2 SWAP1 PUSH4 0xFFFFFFFF AND JUMP JUMPDEST POP PUSH2 0x1D56 JUMP JUMPDEST PUSH2 0xFFFF DUP2 PUSH8 0xFFFFFFFFFFFFFFFF AND GT PUSH2 0x1CBB JUMPI PUSH2 0x1C94 PUSH1 0x19 PUSH1 0x5 DUP5 PUSH1 0xFF AND SWAP1 SHL OR DUP5 PUSH2 0x1F5F SWAP1 SWAP2 SWAP1 PUSH4 0xFFFFFFFF AND JUMP JUMPDEST POP PUSH2 0x1CB5 DUP2 PUSH8 0xFFFFFFFFFFFFFFFF AND PUSH1 0x2 DUP6 PUSH2 0x1F7F SWAP1 SWAP3 SWAP2 SWAP1 PUSH4 0xFFFFFFFF AND JUMP JUMPDEST POP PUSH2 0x1D55 JUMP JUMPDEST PUSH4 0xFFFFFFFF DUP2 PUSH8 0xFFFFFFFFFFFFFFFF AND GT PUSH2 0x1D14 JUMPI PUSH2 0x1CED PUSH1 0x1A PUSH1 0x5 DUP5 PUSH1 0xFF AND SWAP1 SHL OR DUP5 PUSH2 0x1F5F SWAP1 SWAP2 SWAP1 PUSH4 0xFFFFFFFF AND JUMP JUMPDEST POP PUSH2 0x1D0E DUP2 PUSH8 0xFFFFFFFFFFFFFFFF AND PUSH1 0x4 DUP6 PUSH2 0x1F7F SWAP1 SWAP3 SWAP2 SWAP1 PUSH4 0xFFFFFFFF AND JUMP JUMPDEST POP PUSH2 0x1D54 JUMP JUMPDEST PUSH2 0x1D31 PUSH1 0x1B PUSH1 0x5 DUP5 PUSH1 0xFF AND SWAP1 SHL OR DUP5 PUSH2 0x1F5F SWAP1 SWAP2 SWAP1 PUSH4 0xFFFFFFFF AND JUMP JUMPDEST POP PUSH2 0x1D52 DUP2 PUSH8 0xFFFFFFFFFFFFFFFF AND PUSH1 0x8 DUP6 PUSH2 0x1F7F SWAP1 SWAP3 SWAP2 SWAP1 PUSH4 0xFFFFFFFF AND JUMP JUMPDEST POP JUMPDEST JUMPDEST JUMPDEST JUMPDEST POP POP POP JUMP JUMPDEST PUSH2 0x1D64 PUSH2 0x2308 JUMP JUMPDEST PUSH2 0x1D76 DUP4 DUP5 PUSH1 0x0 ADD MLOAD MLOAD DUP5 DUP6 MLOAD PUSH2 0x1FA1 JUMP JUMPDEST SWAP1 POP SWAP3 SWAP2 POP POP JUMP JUMPDEST PUSH2 0x1D9C PUSH1 0x2 PUSH1 0x5 PUSH1 0x6 PUSH1 0xFF AND SWAP1 SHL OR DUP4 PUSH2 0x1F5F SWAP1 SWAP2 SWAP1 PUSH4 0xFFFFFFFF AND JUMP JUMPDEST POP PUSH2 0x1DC6 DUP3 DUP3 PUSH1 0x40 MLOAD PUSH1 0x20 ADD PUSH2 0x1DB2 SWAP2 SWAP1 PUSH2 0x2DA2 JUMP JUMPDEST PUSH1 0x40 MLOAD PUSH1 0x20 DUP2 DUP4 SUB SUB DUP2 MSTORE SWAP1 PUSH1 0x40 MSTORE PUSH2 0x2090 JUMP JUMPDEST POP POP JUMP JUMPDEST PUSH1 0x0 ADDRESS DUP5 PUSH1 0x40 MLOAD PUSH1 0x20 ADD PUSH2 0x1DDF SWAP3 SWAP2 SWAP1 PUSH2 0x3C69 JUMP JUMPDEST PUSH1 0x40 MLOAD PUSH1 0x20 DUP2 DUP4 SUB SUB DUP2 MSTORE SWAP1 PUSH1 0x40 MSTORE DUP1 MLOAD SWAP1 PUSH1 0x20 ADD KECCAK256 SWAP1 POP DUP5 PUSH1 0x5 PUSH1 0x0 DUP4 DUP2 MSTORE PUSH1 0x20 ADD SWAP1 DUP2 MSTORE PUSH1 0x20 ADD PUSH1 0x0 KECCAK256 PUSH1 0x0 PUSH2 0x100 EXP DUP2 SLOAD DUP2 PUSH20 0xFFFFFFFFFFFFFFFFFFFFFFFFFFFFFFFFFFFFFFFF MUL NOT AND SWAP1 DUP4 PUSH20 0xFFFFFFFFFFFFFFFFFFFFFFFFFFFFFFFFFFFFFFFF AND MUL OR SWAP1 SSTORE POP DUP1 PUSH32 0xB5E6E01E79F91267DC17B4E6314D5D4D03593D2CEEE0FBB452B750BD70EA5AF9 PUSH1 0x40 MLOAD PUSH1 0x40 MLOAD DUP1 SWAP2 SUB SWAP1 LOG2 PUSH1 0x2 PUSH1 0x0 SWAP1 SLOAD SWAP1 PUSH2 0x100 EXP SWAP1 DIV PUSH20 0xFFFFFFFFFFFFFFFFFFFFFFFFFFFFFFFFFFFFFFFF AND PUSH20 0xFFFFFFFFFFFFFFFFFFFFFFFFFFFFFFFFFFFFFFFF AND PUSH4 0x4000AEA0 DUP7 DUP6 DUP6 PUSH1 0x40 MLOAD DUP5 PUSH4 0xFFFFFFFF AND PUSH1 0xE0 SHL DUP2 MSTORE PUSH1 0x4 ADD PUSH2 0x1ED5 SWAP4 SWAP3 SWAP2 SWAP1 PUSH2 0x3C95 JUMP JUMPDEST PUSH1 0x20 PUSH1 0x40 MLOAD DUP1 DUP4 SUB DUP2 PUSH1 0x0 DUP8 GAS CALL ISZERO DUP1 ISZERO PUSH2 0x1EF4 JUMPI RETURNDATASIZE PUSH1 0x0 DUP1 RETURNDATACOPY RETURNDATASIZE PUSH1 0x0 REVERT JUMPDEST POP POP POP POP PUSH1 0x40 MLOAD RETURNDATASIZE PUSH1 0x1F NOT PUSH1 0x1F DUP3 ADD AND DUP3 ADD DUP1 PUSH1 0x40 MSTORE POP DUP2 ADD SWAP1 PUSH2 0x1F18 SWAP2 SWAP1 PUSH2 0x3692 JUMP JUMPDEST PUSH2 0x1F57 JUMPI PUSH1 0x40 MLOAD PUSH32 0x8C379A000000000000000000000000000000000000000000000000000000000 DUP2 MSTORE PUSH1 0x4 ADD PUSH2 0x1F4E SWAP1 PUSH2 0x3D45 JUMP JUMPDEST PUSH1 0x40 MLOAD DUP1 SWAP2 SUB SWAP1 REVERT JUMPDEST SWAP5 SWAP4 POP POP POP POP JUMP JUMPDEST PUSH2 0x1F67 PUSH2 0x2308 JUMP JUMPDEST PUSH2 0x1F77 DUP4 DUP5 PUSH1 0x0 ADD MLOAD MLOAD DUP5 PUSH2 0x20B5 JUMP JUMPDEST SWAP1 POP SWAP3 SWAP2 POP POP JUMP JUMPDEST PUSH2 0x1F87 PUSH2 0x2308 JUMP JUMPDEST PUSH2 0x1F98 DUP5 DUP6 PUSH1 0x0 ADD MLOAD MLOAD DUP6 DUP6 PUSH2 0x210B JUMP JUMPDEST SWAP1 POP SWAP4 SWAP3 POP POP POP JUMP JUMPDEST PUSH2 0x1FA9 PUSH2 0x2308 JUMP JUMPDEST DUP3 MLOAD DUP3 GT ISZERO PUSH2 0x1FB7 JUMPI PUSH1 0x0 DUP1 REVERT JUMPDEST DUP5 PUSH1 0x20 ADD MLOAD DUP3 DUP6 PUSH2 0x1FC8 SWAP2 SWAP1 PUSH2 0x3AC2 JUMP JUMPDEST GT ISZERO PUSH2 0x1FFD JUMPI PUSH2 0x1FFC DUP6 PUSH1 0x2 PUSH2 0x1FED DUP9 PUSH1 0x20 ADD MLOAD DUP9 DUP8 PUSH2 0x1FE8 SWAP2 SWAP1 PUSH2 0x3AC2 JUMP JUMPDEST PUSH2 0x2199 JUMP JUMPDEST PUSH2 0x1FF7 SWAP2 SWAP1 PUSH2 0x3D65 JUMP JUMPDEST PUSH2 0x21B5 JUMP JUMPDEST JUMPDEST PUSH1 0x0 DUP1 DUP7 MLOAD DUP1 MLOAD DUP8 PUSH1 0x20 DUP4 ADD ADD SWAP4 POP DUP1 DUP9 DUP8 ADD GT ISZERO PUSH2 0x201C JUMPI DUP8 DUP7 ADD DUP3 MSTORE JUMPDEST PUSH1 0x20 DUP8 ADD SWAP3 POP POP POP JUMPDEST PUSH1 0x20 DUP5 LT PUSH2 0x2063 JUMPI DUP1 MLOAD DUP3 MSTORE PUSH1 0x20 DUP3 PUSH2 0x203E SWAP2 SWAP1 PUSH2 0x3AC2 JUMP JUMPDEST SWAP2 POP PUSH1 0x20 DUP2 PUSH2 0x204D SWAP2 SWAP1 PUSH2 0x3AC2 JUMP JUMPDEST SWAP1 POP PUSH1 0x20 DUP5 PUSH2 0x205C SWAP2 SWAP1 PUSH2 0x3799 JUMP JUMPDEST SWAP4 POP PUSH2 0x2025 JUMP JUMPDEST PUSH1 0x0 PUSH1 0x1 DUP6 PUSH1 0x20 SUB PUSH2 0x100 EXP SUB SWAP1 POP DUP1 NOT DUP3 MLOAD AND DUP2 DUP5 MLOAD AND DUP2 DUP2 OR DUP6 MSTORE POP POP POP DUP7 SWAP3 POP POP POP SWAP5 SWAP4 POP POP POP POP JUMP JUMPDEST PUSH2 0x209D DUP3 PUSH1 0x2 DUP4 MLOAD PUSH2 0x1BD7 JUMP JUMPDEST PUSH2 0x20B0 DUP2 DUP4 PUSH2 0x1D5C SWAP1 SWAP2 SWAP1 PUSH4 0xFFFFFFFF AND JUMP JUMPDEST POP POP POP JUMP JUMPDEST PUSH2 0x20BD PUSH2 0x2308 JUMP JUMPDEST DUP4 PUSH1 0x20 ADD MLOAD DUP4 LT PUSH2 0x20E3 JUMPI PUSH2 0x20E2 DUP5 PUSH1 0x2 DUP7 PUSH1 0x20 ADD MLOAD PUSH2 0x20DD SWAP2 SWAP1 PUSH2 0x3D65 JUMP JUMPDEST PUSH2 0x21B5 JUMP JUMPDEST JUMPDEST DUP4 MLOAD DUP1 MLOAD PUSH1 0x20 DUP6 DUP4 ADD ADD DUP5 DUP2 MSTORE8 DUP2 DUP7 SUB PUSH2 0x20FE JUMPI PUSH1 0x1 DUP3 ADD DUP4 MSTORE JUMPDEST POP POP POP DUP4 SWAP1 POP SWAP4 SWAP3 POP POP POP JUMP JUMPDEST PUSH2 0x2113 PUSH2 0x2308 JUMP JUMPDEST DUP5 PUSH1 0x20 ADD MLOAD DUP5 DUP4 PUSH2 0x2124 SWAP2 SWAP1 PUSH2 0x3AC2 JUMP JUMPDEST GT ISZERO PUSH2 0x214C JUMPI PUSH2 0x214B DUP6 PUSH1 0x2 DUP7 DUP6 PUSH2 0x213C SWAP2 SWAP1 PUSH2 0x3AC2 JUMP JUMPDEST PUSH2 0x2146 SWAP2 SWAP1 PUSH2 0x3D65 JUMP JUMPDEST PUSH2 0x21B5 JUMP JUMPDEST JUMPDEST PUSH1 0x0 PUSH1 0x1 DUP4 PUSH2 0x100 PUSH2 0x215E SWAP2 SWAP1 PUSH2 0x3EF2 JUMP JUMPDEST PUSH2 0x2168 SWAP2 SWAP1 PUSH2 0x3799 JUMP JUMPDEST SWAP1 POP DUP6 MLOAD DUP4 DUP7 DUP3 ADD ADD DUP6 DUP4 NOT DUP3 MLOAD AND OR DUP2 MSTORE DUP2 MLOAD DUP6 DUP9 ADD GT ISZERO PUSH2 0x218B JUMPI DUP5 DUP8 ADD DUP3 MSTORE JUMPDEST POP POP DUP6 SWAP2 POP POP SWAP5 SWAP4 POP POP POP POP JUMP JUMPDEST PUSH1 0x0 DUP2 DUP4 GT ISZERO PUSH2 0x21AB JUMPI DUP3 SWAP1 POP PUSH2 0x21AF JUMP JUMPDEST DUP2 SWAP1 POP JUMPDEST SWAP3 SWAP2 POP POP JUMP JUMPDEST PUSH1 0x0 DUP3 PUSH1 0x0 ADD MLOAD SWAP1 POP PUSH2 0x21C8 DUP4 DUP4 PUSH2 0x1B6D JUMP JUMPDEST POP PUSH2 0x21D3 DUP4 DUP3 PUSH2 0x1D5C JUMP JUMPDEST POP POP POP POP JUMP JUMPDEST DUP3 DUP1 SLOAD DUP3 DUP3 SSTORE SWAP1 PUSH1 0x0 MSTORE PUSH1 0x20 PUSH1 0x0 KECCAK256 SWAP1 DUP2 ADD SWAP3 DUP3 ISZERO PUSH2 0x2221 JUMPI SWAP2 PUSH1 0x20 MUL DUP3 ADD JUMPDEST DUP3 DUP2 GT ISZERO PUSH2 0x2220 JUMPI DUP3 MLOAD DUP3 SWAP1 DUP2 PUSH2 0x2210 SWAP2 SWAP1 PUSH2 0x3F98 JUMP JUMPDEST POP SWAP2 PUSH1 0x20 ADD SWAP2 SWAP1 PUSH1 0x1 ADD SWAP1 PUSH2 0x21F9 JUMP JUMPDEST JUMPDEST POP SWAP1 POP PUSH2 0x222E SWAP2 SWAP1 PUSH2 0x2322 JUMP JUMPDEST POP SWAP1 JUMP JUMPDEST PUSH1 0x40 MLOAD DUP1 PUSH1 0x80 ADD PUSH1 0x40 MSTORE DUP1 PUSH1 0x0 PUSH4 0xFFFFFFFF AND DUP2 MSTORE PUSH1 0x20 ADD PUSH1 0x0 PUSH1 0xFF AND DUP2 MSTORE PUSH1 0x20 ADD PUSH1 0x0 PUSH1 0xFF AND DUP2 MSTORE PUSH1 0x20 ADD PUSH1 0x60 DUP2 MSTORE POP SWAP1 JUMP JUMPDEST PUSH1 0x40 MLOAD DUP1 PUSH1 0x80 ADD PUSH1 0x40 MSTORE DUP1 PUSH1 0x0 PUSH4 0xFFFFFFFF AND DUP2 MSTORE PUSH1 0x20 ADD PUSH1 0x0 PUSH5 0xFFFFFFFFFF AND DUP2 MSTORE PUSH1 0x20 ADD PUSH1 0x60 DUP2 MSTORE PUSH1 0x20 ADD PUSH1 0x60 DUP2 MSTORE POP SWAP1 JUMP JUMPDEST PUSH1 0x40 MLOAD DUP1 PUSH1 0xA0 ADD PUSH1 0x40 MSTORE DUP1 PUSH1 0x0 DUP1 NOT AND DUP2 MSTORE PUSH1 0x20 ADD PUSH1 0x0 PUSH20 0xFFFFFFFFFFFFFFFFFFFFFFFFFFFFFFFFFFFFFFFF AND DUP2 MSTORE PUSH1 0x20 ADD PUSH1 0x0 PUSH28 0xFFFFFFFFFFFFFFFFFFFFFFFFFFFFFFFFFFFFFFFFFFFFFFFFFFFFFFFF NOT AND DUP2 MSTORE PUSH1 0x20 ADD PUSH1 0x0 DUP2 MSTORE PUSH1 0x20 ADD PUSH2 0x2302 PUSH2 0x2308 JUMP JUMPDEST DUP2 MSTORE POP SWAP1 JUMP JUMPDEST PUSH1 0x40 MLOAD DUP1 PUSH1 0x40 ADD PUSH1 0x40 MSTORE DUP1 PUSH1 0x60 DUP2 MSTORE PUSH1 0x20 ADD PUSH1 0x0 DUP2 MSTORE POP SWAP1 JUMP JUMPDEST JUMPDEST DUP1 DUP3 GT ISZERO PUSH2 0x2342 JUMPI PUSH1 0x0 DUP2 DUP2 PUSH2 0x2339 SWAP2 SWAP1 PUSH2 0x2346 JUMP JUMPDEST POP PUSH1 0x1 ADD PUSH2 0x2323 JUMP JUMPDEST POP SWAP1 JUMP JUMPDEST POP DUP1 SLOAD PUSH2 0x2352 SWAP1 PUSH2 0x32D4 JUMP JUMPDEST PUSH1 0x0 DUP3 SSTORE DUP1 PUSH1 0x1F LT PUSH2 0x2364 JUMPI POP PUSH2 0x2383 JUMP JUMPDEST PUSH1 0x1F ADD PUSH1 0x20 SWAP1 DIV SWAP1 PUSH1 0x0 MSTORE PUSH1 0x20 PUSH1 0x0 KECCAK256 SWAP1 DUP2 ADD SWAP1 PUSH2 0x2382 SWAP2 SWAP1 PUSH2 0x2386 JUMP JUMPDEST JUMPDEST POP JUMP JUMPDEST JUMPDEST DUP1 DUP3 GT ISZERO PUSH2 0x239F JUMPI PUSH1 0x0 DUP2 PUSH1 0x0 SWAP1 SSTORE POP PUSH1 0x1 ADD PUSH2 0x2387 JUMP JUMPDEST POP SWAP1 JUMP JUMPDEST PUSH1 0x0 PUSH1 0x40 MLOAD SWAP1 POP SWAP1 JUMP JUMPDEST PUSH1 0x0 DUP1 REVERT JUMPDEST PUSH1 0x0 DUP1 REVERT JUMPDEST PUSH1 0x0 DUP2 SWAP1 POP SWAP2 SWAP1 POP JUMP JUMPDEST PUSH2 0x23CA DUP2 PUSH2 0x23B7 JUMP JUMPDEST DUP2 EQ PUSH2 0x23D5 JUMPI PUSH1 0x0 DUP1 REVERT JUMPDEST POP JUMP JUMPDEST PUSH1 0x0 DUP2 CALLDATALOAD SWAP1 POP PUSH2 0x23E7 DUP2 PUSH2 0x23C1 JUMP JUMPDEST SWAP3 SWAP2 POP POP JUMP JUMPDEST PUSH1 0x0 PUSH1 0x20 DUP3 DUP5 SUB SLT ISZERO PUSH2 0x2403 JUMPI PUSH2 0x2402 PUSH2 0x23AD JUMP JUMPDEST JUMPDEST PUSH1 0x0 PUSH2 0x2411 DUP5 DUP3 DUP6 ADD PUSH2 0x23D8 JUMP JUMPDEST SWAP2 POP POP SWAP3 SWAP2 POP POP JUMP JUMPDEST PUSH1 0x0 DUP2 SWAP1 POP SWAP2 SWAP1 POP JUMP JUMPDEST PUSH2 0x242D DUP2 PUSH2 0x241A JUMP JUMPDEST DUP3 MSTORE POP POP JUMP JUMPDEST PUSH1 0x0 PUSH1 0x20 DUP3 ADD SWAP1 POP PUSH2 0x2448 PUSH1 0x0 DUP4 ADD DUP5 PUSH2 0x2424 JUMP JUMPDEST SWAP3 SWAP2 POP POP JUMP JUMPDEST PUSH2 0x2457 DUP2 PUSH2 0x23B7 JUMP JUMPDEST DUP3 MSTORE POP POP JUMP JUMPDEST PUSH1 0x0 PUSH1 0x40 DUP3 ADD SWAP1 POP PUSH2 0x2472 PUSH1 0x0 DUP4 ADD DUP6 PUSH2 0x244E JUMP JUMPDEST PUSH2 0x247F PUSH1 0x20 DUP4 ADD DUP5 PUSH2 0x244E JUMP JUMPDEST SWAP4 SWAP3 POP POP POP JUMP JUMPDEST PUSH1 0x0 DUP1 REVERT JUMPDEST PUSH1 0x0 PUSH1 0x1F NOT PUSH1 0x1F DUP4 ADD AND SWAP1 POP SWAP2 SWAP1 POP JUMP JUMPDEST PUSH32 0x4E487B7100000000000000000000000000000000000000000000000000000000 PUSH1 0x0 MSTORE PUSH1 0x41 PUSH1 0x4 MSTORE PUSH1 0x24 PUSH1 0x0 REVERT JUMPDEST PUSH2 0x24D4 DUP3 PUSH2 0x248B JUMP JUMPDEST DUP2 ADD DUP2 DUP2 LT PUSH8 0xFFFFFFFFFFFFFFFF DUP3 GT OR ISZERO PUSH2 0x24F3 JUMPI PUSH2 0x24F2 PUSH2 0x249C JUMP JUMPDEST JUMPDEST DUP1 PUSH1 0x40 MSTORE POP POP POP JUMP JUMPDEST PUSH1 0x0 PUSH2 0x2506 PUSH2 0x23A3 JUMP JUMPDEST SWAP1 POP PUSH2 0x2512 DUP3 DUP3 PUSH2 0x24CB JUMP JUMPDEST SWAP2 SWAP1 POP JUMP JUMPDEST PUSH1 0x0 PUSH8 0xFFFFFFFFFFFFFFFF DUP3 GT ISZERO PUSH2 0x2532 JUMPI PUSH2 0x2531 PUSH2 0x249C JUMP JUMPDEST JUMPDEST PUSH1 0x20 DUP3 MUL SWAP1 POP PUSH1 0x20 DUP2 ADD SWAP1 POP SWAP2 SWAP1 POP JUMP JUMPDEST PUSH1 0x0 DUP1 REVERT JUMPDEST PUSH1 0x0 DUP1 REVERT JUMPDEST PUSH1 0x0 DUP1 REVERT JUMPDEST PUSH1 0x0 PUSH4 0xFFFFFFFF DUP3 AND SWAP1 POP SWAP2 SWAP1 POP JUMP JUMPDEST PUSH2 0x256B DUP2 PUSH2 0x2552 JUMP JUMPDEST DUP2 EQ PUSH2 0x2576 JUMPI PUSH1 0x0 DUP1 REVERT JUMPDEST POP JUMP JUMPDEST PUSH1 0x0 DUP2 CALLDATALOAD SWAP1 POP PUSH2 0x2588 DUP2 PUSH2 0x2562 JUMP JUMPDEST SWAP3 SWAP2 POP POP JUMP JUMPDEST PUSH1 0x0 PUSH1 0xFF DUP3 AND SWAP1 POP SWAP2 SWAP1 POP JUMP JUMPDEST PUSH2 0x25A4 DUP2 PUSH2 0x258E JUMP JUMPDEST DUP2 EQ PUSH2 0x25AF JUMPI PUSH1 0x0 DUP1 REVERT JUMPDEST POP JUMP JUMPDEST PUSH1 0x0 DUP2 CALLDATALOAD SWAP1 POP PUSH2 0x25C1 DUP2 PUSH2 0x259B JUMP JUMPDEST SWAP3 SWAP2 POP POP JUMP JUMPDEST PUSH1 0x0 DUP1 REVERT JUMPDEST PUSH1 0x0 PUSH8 0xFFFFFFFFFFFFFFFF DUP3 GT ISZERO PUSH2 0x25E7 JUMPI PUSH2 0x25E6 PUSH2 0x249C JUMP JUMPDEST JUMPDEST PUSH2 0x25F0 DUP3 PUSH2 0x248B JUMP JUMPDEST SWAP1 POP PUSH1 0x20 DUP2 ADD SWAP1 POP SWAP2 SWAP1 POP JUMP JUMPDEST DUP3 DUP2 DUP4 CALLDATACOPY PUSH1 0x0 DUP4 DUP4 ADD MSTORE POP POP POP JUMP JUMPDEST PUSH1 0x0 PUSH2 0x261F PUSH2 0x261A DUP5 PUSH2 0x25CC JUMP JUMPDEST PUSH2 0x24FC JUMP JUMPDEST SWAP1 POP DUP3 DUP2 MSTORE PUSH1 0x20 DUP2 ADD DUP5 DUP5 DUP5 ADD GT ISZERO PUSH2 0x263B JUMPI PUSH2 0x263A PUSH2 0x25C7 JUMP JUMPDEST JUMPDEST PUSH2 0x2646 DUP5 DUP3 DUP6 PUSH2 0x25FD JUMP JUMPDEST POP SWAP4 SWAP3 POP POP POP JUMP JUMPDEST PUSH1 0x0 DUP3 PUSH1 0x1F DUP4 ADD SLT PUSH2 0x2663 JUMPI PUSH2 0x2662 PUSH2 0x2486 JUMP JUMPDEST JUMPDEST DUP2 CALLDATALOAD PUSH2 0x2673 DUP5 DUP3 PUSH1 0x20 DUP7 ADD PUSH2 0x260C JUMP JUMPDEST SWAP2 POP POP SWAP3 SWAP2 POP POP JUMP JUMPDEST PUSH1 0x0 PUSH1 0x80 DUP3 DUP5 SUB SLT ISZERO PUSH2 0x2692 JUMPI PUSH2 0x2691 PUSH2 0x2548 JUMP JUMPDEST JUMPDEST PUSH2 0x269C PUSH1 0x80 PUSH2 0x24FC JUMP JUMPDEST SWAP1 POP PUSH1 0x0 PUSH2 0x26AC DUP5 DUP3 DUP6 ADD PUSH2 0x2579 JUMP JUMPDEST PUSH1 0x0 DUP4 ADD MSTORE POP PUSH1 0x20 PUSH2 0x26C0 DUP5 DUP3 DUP6 ADD PUSH2 0x25B2 JUMP JUMPDEST PUSH1 0x20 DUP4 ADD MSTORE POP PUSH1 0x40 PUSH2 0x26D4 DUP5 DUP3 DUP6 ADD PUSH2 0x25B2 JUMP JUMPDEST PUSH1 0x40 DUP4 ADD MSTORE POP PUSH1 0x60 DUP3 ADD CALLDATALOAD PUSH8 0xFFFFFFFFFFFFFFFF DUP2 GT ISZERO PUSH2 0x26F8 JUMPI PUSH2 0x26F7 PUSH2 0x254D JUMP JUMPDEST JUMPDEST PUSH2 0x2704 DUP5 DUP3 DUP6 ADD PUSH2 0x264E JUMP JUMPDEST PUSH1 0x60 DUP4 ADD MSTORE POP SWAP3 SWAP2 POP POP JUMP JUMPDEST PUSH1 0x0 PUSH2 0x2723 PUSH2 0x271E DUP5 PUSH2 0x2517 JUMP JUMPDEST PUSH2 0x24FC JUMP JUMPDEST SWAP1 POP DUP1 DUP4 DUP3 MSTORE PUSH1 0x20 DUP3 ADD SWAP1 POP PUSH1 0x20 DUP5 MUL DUP4 ADD DUP6 DUP2 GT ISZERO PUSH2 0x2746 JUMPI PUSH2 0x2745 PUSH2 0x2543 JUMP JUMPDEST JUMPDEST DUP4 JUMPDEST DUP2 DUP2 LT ISZERO PUSH2 0x278D JUMPI DUP1 CALLDATALOAD PUSH8 0xFFFFFFFFFFFFFFFF DUP2 GT ISZERO PUSH2 0x276B JUMPI PUSH2 0x276A PUSH2 0x2486 JUMP JUMPDEST JUMPDEST DUP1 DUP7 ADD PUSH2 0x2778 DUP10 DUP3 PUSH2 0x267C JUMP JUMPDEST DUP6 MSTORE PUSH1 0x20 DUP6 ADD SWAP5 POP POP POP PUSH1 0x20 DUP2 ADD SWAP1 POP PUSH2 0x2748 JUMP JUMPDEST POP POP POP SWAP4 SWAP3 POP POP POP JUMP JUMPDEST PUSH1 0x0 DUP3 PUSH1 0x1F DUP4 ADD SLT PUSH2 0x27AC JUMPI PUSH2 0x27AB PUSH2 0x2486 JUMP JUMPDEST JUMPDEST DUP2 CALLDATALOAD PUSH2 0x27BC DUP5 DUP3 PUSH1 0x20 DUP7 ADD PUSH2 0x2710 JUMP JUMPDEST SWAP2 POP POP SWAP3 SWAP2 POP POP JUMP JUMPDEST PUSH1 0x0 PUSH1 0x20 DUP3 DUP5 SUB SLT ISZERO PUSH2 0x27DB JUMPI PUSH2 0x27DA PUSH2 0x23AD JUMP JUMPDEST JUMPDEST PUSH1 0x0 DUP3 ADD CALLDATALOAD PUSH8 0xFFFFFFFFFFFFFFFF DUP2 GT ISZERO PUSH2 0x27F9 JUMPI PUSH2 0x27F8 PUSH2 0x23B2 JUMP JUMPDEST JUMPDEST PUSH2 0x2805 DUP5 DUP3 DUP6 ADD PUSH2 0x2797 JUMP JUMPDEST SWAP2 POP POP SWAP3 SWAP2 POP POP JUMP JUMPDEST PUSH1 0x0 PUSH20 0xFFFFFFFFFFFFFFFFFFFFFFFFFFFFFFFFFFFFFFFF DUP3 AND SWAP1 POP SWAP2 SWAP1 POP JUMP JUMPDEST PUSH1 0x0 PUSH2 0x2839 DUP3 PUSH2 0x280E JUMP JUMPDEST SWAP1 POP SWAP2 SWAP1 POP JUMP JUMPDEST PUSH2 0x2849 DUP2 PUSH2 0x282E JUMP JUMPDEST DUP2 EQ PUSH2 0x2854 JUMPI PUSH1 0x0 DUP1 REVERT JUMPDEST POP JUMP JUMPDEST PUSH1 0x0 DUP2 CALLDATALOAD SWAP1 POP PUSH2 0x2866 DUP2 PUSH2 0x2840 JUMP JUMPDEST SWAP3 SWAP2 POP POP JUMP JUMPDEST PUSH1 0x0 PUSH1 0x20 DUP3 DUP5 SUB SLT ISZERO PUSH2 0x2882 JUMPI PUSH2 0x2881 PUSH2 0x23AD JUMP JUMPDEST JUMPDEST PUSH1 0x0 PUSH2 0x2890 DUP5 DUP3 DUP6 ADD PUSH2 0x2857 JUMP JUMPDEST SWAP2 POP POP SWAP3 SWAP2 POP POP JUMP JUMPDEST PUSH1 0x0 DUP2 MLOAD SWAP1 POP SWAP2 SWAP1 POP JUMP JUMPDEST PUSH1 0x0 DUP3 DUP3 MSTORE PUSH1 0x20 DUP3 ADD SWAP1 POP SWAP3 SWAP2 POP POP JUMP JUMPDEST PUSH1 0x0 DUP2 SWAP1 POP PUSH1 0x20 DUP3 ADD SWAP1 POP SWAP2 SWAP1 POP JUMP JUMPDEST PUSH2 0x28CE DUP2 PUSH2 0x2552 JUMP JUMPDEST DUP3 MSTORE POP POP JUMP JUMPDEST PUSH2 0x28DD DUP2 PUSH2 0x258E JUMP JUMPDEST DUP3 MSTORE POP POP JUMP JUMPDEST PUSH1 0x0 DUP2 MLOAD SWAP1 POP SWAP2 SWAP1 POP JUMP JUMPDEST PUSH1 0x0 DUP3 DUP3 MSTORE PUSH1 0x20 DUP3 ADD SWAP1 POP SWAP3 SWAP2 POP POP JUMP JUMPDEST PUSH1 0x0 JUMPDEST DUP4 DUP2 LT ISZERO PUSH2 0x291D JUMPI DUP1 DUP3 ADD MLOAD DUP2 DUP5 ADD MSTORE PUSH1 0x20 DUP2 ADD SWAP1 POP PUSH2 0x2902 JUMP JUMPDEST DUP4 DUP2 GT ISZERO PUSH2 0x292C JUMPI PUSH1 0x0 DUP5 DUP5 ADD MSTORE JUMPDEST POP POP POP POP JUMP JUMPDEST PUSH1 0x0 PUSH2 0x293D DUP3 PUSH2 0x28E3 JUMP JUMPDEST PUSH2 0x2947 DUP2 DUP6 PUSH2 0x28EE JUMP JUMPDEST SWAP4 POP PUSH2 0x2957 DUP2 DUP6 PUSH1 0x20 DUP7 ADD PUSH2 0x28FF JUMP JUMPDEST PUSH2 0x2960 DUP2 PUSH2 0x248B JUMP JUMPDEST DUP5 ADD SWAP2 POP POP SWAP3 SWAP2 POP POP JUMP JUMPDEST PUSH1 0x0 PUSH1 0x80 DUP4 ADD PUSH1 0x0 DUP4 ADD MLOAD PUSH2 0x2983 PUSH1 0x0 DUP7 ADD DUP3 PUSH2 0x28C5 JUMP JUMPDEST POP PUSH1 0x20 DUP4 ADD MLOAD PUSH2 0x2996 PUSH1 0x20 DUP7 ADD DUP3 PUSH2 0x28D4 JUMP JUMPDEST POP PUSH1 0x40 DUP4 ADD MLOAD PUSH2 0x29A9 PUSH1 0x40 DUP7 ADD DUP3 PUSH2 0x28D4 JUMP JUMPDEST POP PUSH1 0x60 DUP4 ADD MLOAD DUP5 DUP3 SUB PUSH1 0x60 DUP7 ADD MSTORE PUSH2 0x29C1 DUP3 DUP3 PUSH2 0x2932 JUMP JUMPDEST SWAP2 POP POP DUP1 SWAP2 POP POP SWAP3 SWAP2 POP POP JUMP JUMPDEST PUSH1 0x0 PUSH2 0x29DA DUP4 DUP4 PUSH2 0x296B JUMP JUMPDEST SWAP1 POP SWAP3 SWAP2 POP POP JUMP JUMPDEST PUSH1 0x0 PUSH1 0x20 DUP3 ADD SWAP1 POP SWAP2 SWAP1 POP JUMP JUMPDEST PUSH1 0x0 PUSH2 0x29FA DUP3 PUSH2 0x2899 JUMP JUMPDEST PUSH2 0x2A04 DUP2 DUP6 PUSH2 0x28A4 JUMP JUMPDEST SWAP4 POP DUP4 PUSH1 0x20 DUP3 MUL DUP6 ADD PUSH2 0x2A16 DUP6 PUSH2 0x28B5 JUMP JUMPDEST DUP1 PUSH1 0x0 JUMPDEST DUP6 DUP2 LT ISZERO PUSH2 0x2A52 JUMPI DUP5 DUP5 SUB DUP10 MSTORE DUP2 MLOAD PUSH2 0x2A33 DUP6 DUP3 PUSH2 0x29CE JUMP JUMPDEST SWAP5 POP PUSH2 0x2A3E DUP4 PUSH2 0x29E2 JUMP JUMPDEST SWAP3 POP PUSH1 0x20 DUP11 ADD SWAP10 POP POP PUSH1 0x1 DUP2 ADD SWAP1 POP PUSH2 0x2A1A JUMP JUMPDEST POP DUP3 SWAP8 POP DUP8 SWAP6 POP POP POP POP POP POP SWAP3 SWAP2 POP POP JUMP JUMPDEST PUSH1 0x0 PUSH1 0x20 DUP3 ADD SWAP1 POP DUP2 DUP2 SUB PUSH1 0x0 DUP4 ADD MSTORE PUSH2 0x2A7E DUP2 DUP5 PUSH2 0x29EF JUMP JUMPDEST SWAP1 POP SWAP3 SWAP2 POP POP JUMP JUMPDEST PUSH2 0x2A8F DUP2 PUSH2 0x241A JUMP JUMPDEST DUP2 EQ PUSH2 0x2A9A JUMPI PUSH1 0x0 DUP1 REVERT JUMPDEST POP JUMP JUMPDEST PUSH1 0x0 DUP2 CALLDATALOAD SWAP1 POP PUSH2 0x2AAC DUP2 PUSH2 0x2A86 JUMP JUMPDEST SWAP3 SWAP2 POP POP JUMP JUMPDEST PUSH1 0x0 PUSH8 0xFFFFFFFFFFFFFFFF DUP3 GT ISZERO PUSH2 0x2ACD JUMPI PUSH2 0x2ACC PUSH2 0x249C JUMP JUMPDEST JUMPDEST PUSH1 0x20 DUP3 MUL SWAP1 POP PUSH1 0x20 DUP2 ADD SWAP1 POP SWAP2 SWAP1 POP JUMP JUMPDEST PUSH1 0x0 PUSH8 0xFFFFFFFFFFFFFFFF DUP3 GT ISZERO PUSH2 0x2AF9 JUMPI PUSH2 0x2AF8 PUSH2 0x249C JUMP JUMPDEST JUMPDEST PUSH2 0x2B02 DUP3 PUSH2 0x248B JUMP JUMPDEST SWAP1 POP PUSH1 0x20 DUP2 ADD SWAP1 POP SWAP2 SWAP1 POP JUMP JUMPDEST PUSH1 0x0 PUSH2 0x2B22 PUSH2 0x2B1D DUP5 PUSH2 0x2ADE JUMP JUMPDEST PUSH2 0x24FC JUMP JUMPDEST SWAP1 POP DUP3 DUP2 MSTORE PUSH1 0x20 DUP2 ADD DUP5 DUP5 DUP5 ADD GT ISZERO PUSH2 0x2B3E JUMPI PUSH2 0x2B3D PUSH2 0x25C7 JUMP JUMPDEST JUMPDEST PUSH2 0x2B49 DUP5 DUP3 DUP6 PUSH2 0x25FD JUMP JUMPDEST POP SWAP4 SWAP3 POP POP POP JUMP JUMPDEST PUSH1 0x0 DUP3 PUSH1 0x1F DUP4 ADD SLT PUSH2 0x2B66 JUMPI PUSH2 0x2B65 PUSH2 0x2486 JUMP JUMPDEST JUMPDEST DUP2 CALLDATALOAD PUSH2 0x2B76 DUP5 DUP3 PUSH1 0x20 DUP7 ADD PUSH2 0x2B0F JUMP JUMPDEST SWAP2 POP POP SWAP3 SWAP2 POP POP JUMP JUMPDEST PUSH1 0x0 PUSH2 0x2B92 PUSH2 0x2B8D DUP5 PUSH2 0x2AB2 JUMP JUMPDEST PUSH2 0x24FC JUMP JUMPDEST SWAP1 POP DUP1 DUP4 DUP3 MSTORE PUSH1 0x20 DUP3 ADD SWAP1 POP PUSH1 0x20 DUP5 MUL DUP4 ADD DUP6 DUP2 GT ISZERO PUSH2 0x2BB5 JUMPI PUSH2 0x2BB4 PUSH2 0x2543 JUMP JUMPDEST JUMPDEST DUP4 JUMPDEST DUP2 DUP2 LT ISZERO PUSH2 0x2BFC JUMPI DUP1 CALLDATALOAD PUSH8 0xFFFFFFFFFFFFFFFF DUP2 GT ISZERO PUSH2 0x2BDA JUMPI PUSH2 0x2BD9 PUSH2 0x2486 JUMP JUMPDEST JUMPDEST DUP1 DUP7 ADD PUSH2 0x2BE7 DUP10 DUP3 PUSH2 0x2B51 JUMP JUMPDEST DUP6 MSTORE PUSH1 0x20 DUP6 ADD SWAP5 POP POP POP PUSH1 0x20 DUP2 ADD SWAP1 POP PUSH2 0x2BB7 JUMP JUMPDEST POP POP POP SWAP4 SWAP3 POP POP POP JUMP JUMPDEST PUSH1 0x0 DUP3 PUSH1 0x1F DUP4 ADD SLT PUSH2 0x2C1B JUMPI PUSH2 0x2C1A PUSH2 0x2486 JUMP JUMPDEST JUMPDEST DUP2 CALLDATALOAD PUSH2 0x2C2B DUP5 DUP3 PUSH1 0x20 DUP7 ADD PUSH2 0x2B7F JUMP JUMPDEST SWAP2 POP POP SWAP3 SWAP2 POP POP JUMP JUMPDEST PUSH1 0x0 DUP1 PUSH1 0x40 DUP4 DUP6 SUB SLT ISZERO PUSH2 0x2C4B JUMPI PUSH2 0x2C4A PUSH2 0x23AD JUMP JUMPDEST JUMPDEST PUSH1 0x0 PUSH2 0x2C59 DUP6 DUP3 DUP7 ADD PUSH2 0x2A9D JUMP JUMPDEST SWAP3 POP POP PUSH1 0x20 DUP4 ADD CALLDATALOAD PUSH8 0xFFFFFFFFFFFFFFFF DUP2 GT ISZERO PUSH2 0x2C7A JUMPI PUSH2 0x2C79 PUSH2 0x23B2 JUMP JUMPDEST JUMPDEST PUSH2 0x2C86 DUP6 DUP3 DUP7 ADD PUSH2 0x2C06 JUMP JUMPDEST SWAP2 POP POP SWAP3 POP SWAP3 SWAP1 POP JUMP JUMPDEST PUSH1 0x0 PUSH2 0xFFFF DUP3 AND SWAP1 POP SWAP2 SWAP1 POP JUMP JUMPDEST PUSH2 0x2CA7 DUP2 PUSH2 0x2C90 JUMP JUMPDEST DUP2 EQ PUSH2 0x2CB2 JUMPI PUSH1 0x0 DUP1 REVERT JUMPDEST POP JUMP JUMPDEST PUSH1 0x0 DUP2 CALLDATALOAD SWAP1 POP PUSH2 0x2CC4 DUP2 PUSH2 0x2C9E JUMP JUMPDEST SWAP3 SWAP2 POP POP JUMP JUMPDEST PUSH1 0x0 PUSH1 0x20 DUP3 DUP5 SUB SLT ISZERO PUSH2 0x2CE0 JUMPI PUSH2 0x2CDF PUSH2 0x23AD JUMP JUMPDEST JUMPDEST PUSH1 0x0 PUSH2 0x2CEE DUP5 DUP3 DUP6 ADD PUSH2 0x2CB5 JUMP JUMPDEST SWAP2 POP POP SWAP3 SWAP2 POP POP JUMP JUMPDEST PUSH1 0x0 PUSH2 0x2D02 DUP3 PUSH2 0x280E JUMP JUMPDEST SWAP1 POP SWAP2 SWAP1 POP JUMP JUMPDEST PUSH2 0x2D12 DUP2 PUSH2 0x2CF7 JUMP JUMPDEST DUP2 EQ PUSH2 0x2D1D JUMPI PUSH1 0x0 DUP1 REVERT JUMPDEST POP JUMP JUMPDEST PUSH1 0x0 DUP2 CALLDATALOAD SWAP1 POP PUSH2 0x2D2F DUP2 PUSH2 0x2D09 JUMP JUMPDEST SWAP3 SWAP2 POP POP JUMP JUMPDEST PUSH1 0x0 DUP1 PUSH1 0x40 DUP4 DUP6 SUB SLT ISZERO PUSH2 0x2D4C JUMPI PUSH2 0x2D4B PUSH2 0x23AD JUMP JUMPDEST JUMPDEST PUSH1 0x0 PUSH2 0x2D5A DUP6 DUP3 DUP7 ADD PUSH2 0x2D20 JUMP JUMPDEST SWAP3 POP POP PUSH1 0x20 PUSH2 0x2D6B DUP6 DUP3 DUP7 ADD PUSH2 0x23D8 JUMP JUMPDEST SWAP2 POP POP SWAP3 POP SWAP3 SWAP1 POP JUMP JUMPDEST PUSH1 0x0 PUSH1 0x20 DUP3 DUP5 SUB SLT ISZERO PUSH2 0x2D8B JUMPI PUSH2 0x2D8A PUSH2 0x23AD JUMP JUMPDEST JUMPDEST PUSH1 0x0 PUSH2 0x2D99 DUP5 DUP3 DUP6 ADD PUSH2 0x2A9D JUMP JUMPDEST SWAP2 POP POP SWAP3 SWAP2 POP POP JUMP JUMPDEST PUSH1 0x0 PUSH1 0x20 DUP3 ADD SWAP1 POP PUSH2 0x2DB7 PUSH1 0x0 DUP4 ADD DUP5 PUSH2 0x244E JUMP JUMPDEST SWAP3 SWAP2 POP POP JUMP JUMPDEST PUSH2 0x2DC6 DUP2 PUSH2 0x282E JUMP JUMPDEST DUP3 MSTORE POP POP JUMP JUMPDEST PUSH1 0x0 PUSH1 0x20 DUP3 ADD SWAP1 POP PUSH2 0x2DE1 PUSH1 0x0 DUP4 ADD DUP5 PUSH2 0x2DBD JUMP JUMPDEST SWAP3 SWAP2 POP POP JUMP JUMPDEST PUSH1 0x0 PUSH1 0x20 DUP3 DUP5 SUB SLT ISZERO PUSH2 0x2DFD JUMPI PUSH2 0x2DFC PUSH2 0x23AD JUMP JUMPDEST JUMPDEST PUSH1 0x0 PUSH2 0x2E0B DUP5 DUP3 DUP6 ADD PUSH2 0x25B2 JUMP JUMPDEST SWAP2 POP POP SWAP3 SWAP2 POP POP JUMP JUMPDEST PUSH1 0x0 DUP1 PUSH1 0x40 DUP4 DUP6 SUB SLT ISZERO PUSH2 0x2E2B JUMPI PUSH2 0x2E2A PUSH2 0x23AD JUMP JUMPDEST JUMPDEST PUSH1 0x0 PUSH2 0x2E39 DUP6 DUP3 DUP7 ADD PUSH2 0x2A9D JUMP JUMPDEST SWAP3 POP POP PUSH1 0x20 PUSH2 0x2E4A DUP6 DUP3 DUP7 ADD PUSH2 0x23D8 JUMP JUMPDEST SWAP2 POP POP SWAP3 POP SWAP3 SWAP1 POP JUMP JUMPDEST PUSH1 0x0 DUP2 MLOAD SWAP1 POP SWAP2 SWAP1 POP JUMP JUMPDEST PUSH1 0x0 DUP3 DUP3 MSTORE PUSH1 0x20 DUP3 ADD SWAP1 POP SWAP3 SWAP2 POP POP JUMP JUMPDEST PUSH1 0x0 PUSH2 0x2E7B DUP3 PUSH2 0x2E54 JUMP JUMPDEST PUSH2 0x2E85 DUP2 DUP6 PUSH2 0x2E5F JUMP JUMPDEST SWAP4 POP PUSH2 0x2E95 DUP2 DUP6 PUSH1 0x20 DUP7 ADD PUSH2 0x28FF JUMP JUMPDEST PUSH2 0x2E9E DUP2 PUSH2 0x248B JUMP JUMPDEST DUP5 ADD SWAP2 POP POP SWAP3 SWAP2 POP POP JUMP JUMPDEST PUSH1 0x0 PUSH1 0x20 DUP3 ADD SWAP1 POP DUP2 DUP2 SUB PUSH1 0x0 DUP4 ADD MSTORE PUSH2 0x2EC3 DUP2 DUP5 PUSH2 0x2E70 JUMP JUMPDEST SWAP1 POP SWAP3 SWAP2 POP POP JUMP JUMPDEST PUSH1 0x0 DUP1 PUSH1 0x40 DUP4 DUP6 SUB SLT ISZERO PUSH2 0x2EE2 JUMPI PUSH2 0x2EE1 PUSH2 0x23AD JUMP JUMPDEST JUMPDEST PUSH1 0x0 PUSH2 0x2EF0 DUP6 DUP3 DUP7 ADD PUSH2 0x23D8 JUMP JUMPDEST SWAP3 POP POP PUSH1 0x20 PUSH2 0x2F01 DUP6 DUP3 DUP7 ADD PUSH2 0x23D8 JUMP JUMPDEST SWAP2 POP POP SWAP3 POP SWAP3 SWAP1 POP JUMP JUMPDEST PUSH2 0x2F14 DUP2 PUSH2 0x2C90 JUMP JUMPDEST DUP3 MSTORE POP POP JUMP JUMPDEST PUSH1 0x0 PUSH1 0x20 DUP3 ADD SWAP1 POP PUSH2 0x2F2F PUSH1 0x0 DUP4 ADD DUP5 PUSH2 0x2F0B JUMP JUMPDEST SWAP3 SWAP2 POP POP JUMP JUMPDEST PUSH1 0x0 PUSH1 0x80 DUP4 ADD PUSH1 0x0 DUP4 ADD MLOAD PUSH2 0x2F4D PUSH1 0x0 DUP7 ADD DUP3 PUSH2 0x28C5 JUMP JUMPDEST POP PUSH1 0x20 DUP4 ADD MLOAD PUSH2 0x2F60 PUSH1 0x20 DUP7 ADD DUP3 PUSH2 0x28D4 JUMP JUMPDEST POP PUSH1 0x40 DUP4 ADD MLOAD PUSH2 0x2F73 PUSH1 0x40 DUP7 ADD DUP3 PUSH2 0x28D4 JUMP JUMPDEST POP PUSH1 0x60 DUP4 ADD MLOAD DUP5 DUP3 SUB PUSH1 0x60 DUP7 ADD MSTORE PUSH2 0x2F8B DUP3 DUP3 PUSH2 0x2932 JUMP JUMPDEST SWAP2 POP POP DUP1 SWAP2 POP POP SWAP3 SWAP2 POP POP JUMP JUMPDEST PUSH1 0x0 PUSH1 0x20 DUP3 ADD SWAP1 POP DUP2 DUP2 SUB PUSH1 0x0 DUP4 ADD MSTORE PUSH2 0x2FB2 DUP2 DUP5 PUSH2 0x2F35 JUMP JUMPDEST SWAP1 POP SWAP3 SWAP2 POP POP JUMP JUMPDEST PUSH1 0x0 PUSH5 0xFFFFFFFFFF DUP3 AND SWAP1 POP SWAP2 SWAP1 POP JUMP JUMPDEST PUSH2 0x2FD4 DUP2 PUSH2 0x2FBA JUMP JUMPDEST DUP3 MSTORE POP POP JUMP JUMPDEST PUSH1 0x0 PUSH1 0x80 DUP4 ADD PUSH1 0x0 DUP4 ADD MLOAD PUSH2 0x2FF2 PUSH1 0x0 DUP7 ADD DUP3 PUSH2 0x28C5 JUMP JUMPDEST POP PUSH1 0x20 DUP4 ADD MLOAD PUSH2 0x3005 PUSH1 0x20 DUP7 ADD DUP3 PUSH2 0x2FCB JUMP JUMPDEST POP PUSH1 0x40 DUP4 ADD MLOAD DUP5 DUP3 SUB PUSH1 0x40 DUP7 ADD MSTORE PUSH2 0x301D DUP3 DUP3 PUSH2 0x2932 JUMP JUMPDEST SWAP2 POP POP PUSH1 0x60 DUP4 ADD MLOAD DUP5 DUP3 SUB PUSH1 0x60 DUP7 ADD MSTORE PUSH2 0x3037 DUP3 DUP3 PUSH2 0x2932 JUMP JUMPDEST SWAP2 POP POP DUP1 SWAP2 POP POP SWAP3 SWAP2 POP POP JUMP JUMPDEST PUSH1 0x0 PUSH1 0x20 DUP3 ADD SWAP1 POP DUP2 DUP2 SUB PUSH1 0x0 DUP4 ADD MSTORE PUSH2 0x305E DUP2 DUP5 PUSH2 0x2FDA JUMP JUMPDEST SWAP1 POP SWAP3 SWAP2 POP POP JUMP JUMPDEST PUSH1 0x0 PUSH32 0xFFFFFFFF00000000000000000000000000000000000000000000000000000000 DUP3 AND SWAP1 POP SWAP2 SWAP1 POP JUMP JUMPDEST PUSH2 0x309B DUP2 PUSH2 0x3066 JUMP JUMPDEST DUP2 EQ PUSH2 0x30A6 JUMPI PUSH1 0x0 DUP1 REVERT JUMPDEST POP JUMP JUMPDEST PUSH1 0x0 DUP2 CALLDATALOAD SWAP1 POP PUSH2 0x30B8 DUP2 PUSH2 0x3092 JUMP JUMPDEST SWAP3 SWAP2 POP POP JUMP JUMPDEST PUSH1 0x0 DUP1 PUSH1 0x0 DUP1 PUSH1 0x80 DUP6 DUP8 SUB SLT ISZERO PUSH2 0x30D8 JUMPI PUSH2 0x30D7 PUSH2 0x23AD JUMP JUMPDEST JUMPDEST PUSH1 0x0 PUSH2 0x30E6 DUP8 DUP3 DUP9 ADD PUSH2 0x2A9D JUMP JUMPDEST SWAP5 POP POP PUSH1 0x20 PUSH2 0x30F7 DUP8 DUP3 DUP9 ADD PUSH2 0x23D8 JUMP JUMPDEST SWAP4 POP POP PUSH1 0x40 PUSH2 0x3108 DUP8 DUP3 DUP9 ADD PUSH2 0x30A9 JUMP JUMPDEST SWAP3 POP POP PUSH1 0x60 PUSH2 0x3119 DUP8 DUP3 DUP9 ADD PUSH2 0x23D8 JUMP JUMPDEST SWAP2 POP POP SWAP3 SWAP6 SWAP2 SWAP5 POP SWAP3 POP JUMP JUMPDEST PUSH1 0x0 DUP2 MLOAD SWAP1 POP PUSH2 0x3134 DUP2 PUSH2 0x23C1 JUMP JUMPDEST SWAP3 SWAP2 POP POP JUMP JUMPDEST PUSH1 0x0 PUSH1 0x20 DUP3 DUP5 SUB SLT ISZERO PUSH2 0x3150 JUMPI PUSH2 0x314F PUSH2 0x23AD JUMP JUMPDEST JUMPDEST PUSH1 0x0 PUSH2 0x315E DUP5 DUP3 DUP6 ADD PUSH2 0x3125 JUMP JUMPDEST SWAP2 POP POP SWAP3 SWAP2 POP POP JUMP JUMPDEST PUSH1 0x0 DUP3 DUP3 MSTORE PUSH1 0x20 DUP3 ADD SWAP1 POP SWAP3 SWAP2 POP POP JUMP JUMPDEST PUSH32 0x546865206E756D626572206F662070726564696374696F6E7320646F65736E27 PUSH1 0x0 DUP3 ADD MSTORE PUSH32 0x74206D6174636821000000000000000000000000000000000000000000000000 PUSH1 0x20 DUP3 ADD MSTORE POP JUMP JUMPDEST PUSH1 0x0 PUSH2 0x31D4 PUSH1 0x28 DUP4 PUSH2 0x3167 JUMP JUMPDEST SWAP2 POP PUSH2 0x31DF DUP3 PUSH2 0x3178 JUMP JUMPDEST PUSH1 0x40 DUP3 ADD SWAP1 POP SWAP2 SWAP1 POP JUMP JUMPDEST PUSH1 0x0 PUSH1 0x20 DUP3 ADD SWAP1 POP DUP2 DUP2 SUB PUSH1 0x0 DUP4 ADD MSTORE PUSH2 0x3203 DUP2 PUSH2 0x31C7 JUMP JUMPDEST SWAP1 POP SWAP2 SWAP1 POP JUMP JUMPDEST PUSH32 0x596F7520616C72656164792073617665642070726564696374696F6E73210000 PUSH1 0x0 DUP3 ADD MSTORE POP JUMP JUMPDEST PUSH1 0x0 PUSH2 0x3240 PUSH1 0x1E DUP4 PUSH2 0x3167 JUMP JUMPDEST SWAP2 POP PUSH2 0x324B DUP3 PUSH2 0x320A JUMP JUMPDEST PUSH1 0x20 DUP3 ADD SWAP1 POP SWAP2 SWAP1 POP JUMP JUMPDEST PUSH1 0x0 PUSH1 0x20 DUP3 ADD SWAP1 POP DUP2 DUP2 SUB PUSH1 0x0 DUP4 ADD MSTORE PUSH2 0x326F DUP2 PUSH2 0x3233 JUMP JUMPDEST SWAP1 POP SWAP2 SWAP1 POP JUMP JUMPDEST PUSH32 0x4E487B7100000000000000000000000000000000000000000000000000000000 PUSH1 0x0 MSTORE PUSH1 0x32 PUSH1 0x4 MSTORE PUSH1 0x24 PUSH1 0x0 REVERT JUMPDEST PUSH32 0x4E487B7100000000000000000000000000000000000000000000000000000000 PUSH1 0x0 MSTORE PUSH1 0x22 PUSH1 0x4 MSTORE PUSH1 0x24 PUSH1 0x0 REVERT JUMPDEST PUSH1 0x0 PUSH1 0x2 DUP3 DIV SWAP1 POP PUSH1 0x1 DUP3 AND DUP1 PUSH2 0x32EC JUMPI PUSH1 0x7F DUP3 AND SWAP2 POP JUMPDEST PUSH1 0x20 DUP3 LT DUP2 SUB PUSH2 0x32FF JUMPI PUSH2 0x32FE PUSH2 0x32A5 JUMP JUMPDEST JUMPDEST POP SWAP2 SWAP1 POP JUMP JUMPDEST PUSH1 0x0 DUP2 SWAP1 POP DUP2 PUSH1 0x0 MSTORE PUSH1 0x20 PUSH1 0x0 KECCAK256 SWAP1 POP SWAP2 SWAP1 POP JUMP JUMPDEST PUSH1 0x0 PUSH1 0x20 PUSH1 0x1F DUP4 ADD DIV SWAP1 POP SWAP2 SWAP1 POP JUMP JUMPDEST PUSH1 0x0 DUP3 DUP3 SHL SWAP1 POP SWAP3 SWAP2 POP POP JUMP JUMPDEST PUSH1 0x0 PUSH1 0x8 DUP4 MUL PUSH2 0x3367 PUSH32 0xFFFFFFFFFFFFFFFFFFFFFFFFFFFFFFFFFFFFFFFFFFFFFFFFFFFFFFFFFFFFFFFF DUP3 PUSH2 0x332A JUMP JUMPDEST PUSH2 0x3371 DUP7 DUP4 PUSH2 0x332A JUMP JUMPDEST SWAP6 POP DUP1 NOT DUP5 AND SWAP4 POP DUP1 DUP7 AND DUP5 OR SWAP3 POP POP POP SWAP4 SWAP3 POP POP POP JUMP JUMPDEST PUSH1 0x0 DUP2 SWAP1 POP SWAP2 SWAP1 POP JUMP JUMPDEST PUSH1 0x0 PUSH2 0x33AE PUSH2 0x33A9 PUSH2 0x33A4 DUP5 PUSH2 0x23B7 JUMP JUMPDEST PUSH2 0x3389 JUMP JUMPDEST PUSH2 0x23B7 JUMP JUMPDEST SWAP1 POP SWAP2 SWAP1 POP JUMP JUMPDEST PUSH1 0x0 DUP2 SWAP1 POP SWAP2 SWAP1 POP JUMP JUMPDEST PUSH2 0x33C8 DUP4 PUSH2 0x3393 JUMP JUMPDEST PUSH2 0x33DC PUSH2 0x33D4 DUP3 PUSH2 0x33B5 JUMP JUMPDEST DUP5 DUP5 SLOAD PUSH2 0x3337 JUMP JUMPDEST DUP3 SSTORE POP POP POP POP JUMP JUMPDEST PUSH1 0x0 SWAP1 JUMP JUMPDEST PUSH2 0x33F1 PUSH2 0x33E4 JUMP JUMPDEST PUSH2 0x33FC DUP2 DUP5 DUP5 PUSH2 0x33BF JUMP JUMPDEST POP POP POP JUMP JUMPDEST JUMPDEST DUP2 DUP2 LT ISZERO PUSH2 0x3420 JUMPI PUSH2 0x3415 PUSH1 0x0 DUP3 PUSH2 0x33E9 JUMP JUMPDEST PUSH1 0x1 DUP2 ADD SWAP1 POP PUSH2 0x3402 JUMP JUMPDEST POP POP JUMP JUMPDEST PUSH1 0x1F DUP3 GT ISZERO PUSH2 0x3465 JUMPI PUSH2 0x3436 DUP2 PUSH2 0x3305 JUMP JUMPDEST PUSH2 0x343F DUP5 PUSH2 0x331A JUMP JUMPDEST DUP2 ADD PUSH1 0x20 DUP6 LT ISZERO PUSH2 0x344E JUMPI DUP2 SWAP1 POP JUMPDEST PUSH2 0x3462 PUSH2 0x345A DUP6 PUSH2 0x331A JUMP JUMPDEST DUP4 ADD DUP3 PUSH2 0x3401 JUMP JUMPDEST POP POP JUMPDEST POP POP POP JUMP JUMPDEST PUSH1 0x0 DUP3 DUP3 SHR SWAP1 POP SWAP3 SWAP2 POP POP JUMP JUMPDEST PUSH1 0x0 PUSH2 0x3488 PUSH1 0x0 NOT DUP5 PUSH1 0x8 MUL PUSH2 0x346A JUMP JUMPDEST NOT DUP1 DUP4 AND SWAP2 POP POP SWAP3 SWAP2 POP POP JUMP JUMPDEST PUSH1 0x0 PUSH2 0x34A1 DUP4 DUP4 PUSH2 0x3477 JUMP JUMPDEST SWAP2 POP DUP3 PUSH1 0x2 MUL DUP3 OR SWAP1 POP SWAP3 SWAP2 POP POP JUMP JUMPDEST PUSH2 0x34BA DUP3 PUSH2 0x28E3 JUMP JUMPDEST PUSH8 0xFFFFFFFFFFFFFFFF DUP2 GT ISZERO PUSH2 0x34D3 JUMPI PUSH2 0x34D2 PUSH2 0x249C JUMP JUMPDEST JUMPDEST PUSH2 0x34DD DUP3 SLOAD PUSH2 0x32D4 JUMP JUMPDEST PUSH2 0x34E8 DUP3 DUP3 DUP6 PUSH2 0x3424 JUMP JUMPDEST PUSH1 0x0 PUSH1 0x20 SWAP1 POP PUSH1 0x1F DUP4 GT PUSH1 0x1 DUP2 EQ PUSH2 0x351B JUMPI PUSH1 0x0 DUP5 ISZERO PUSH2 0x3509 JUMPI DUP3 DUP8 ADD MLOAD SWAP1 POP JUMPDEST PUSH2 0x3513 DUP6 DUP3 PUSH2 0x3495 JUMP JUMPDEST DUP7 SSTORE POP PUSH2 0x357B JUMP JUMPDEST PUSH1 0x1F NOT DUP5 AND PUSH2 0x3529 DUP7 PUSH2 0x3305 JUMP JUMPDEST PUSH1 0x0 JUMPDEST DUP3 DUP2 LT ISZERO PUSH2 0x3551 JUMPI DUP5 DUP10 ADD MLOAD DUP3 SSTORE PUSH1 0x1 DUP3 ADD SWAP2 POP PUSH1 0x20 DUP6 ADD SWAP5 POP PUSH1 0x20 DUP2 ADD SWAP1 POP PUSH2 0x352C JUMP JUMPDEST DUP7 DUP4 LT ISZERO PUSH2 0x356E JUMPI DUP5 DUP10 ADD MLOAD PUSH2 0x356A PUSH1 0x1F DUP10 AND DUP3 PUSH2 0x3477 JUMP JUMPDEST DUP4 SSTORE POP JUMPDEST PUSH1 0x1 PUSH1 0x2 DUP9 MUL ADD DUP9 SSTORE POP POP POP JUMPDEST POP POP POP POP POP POP JUMP JUMPDEST PUSH32 0x4E487B7100000000000000000000000000000000000000000000000000000000 PUSH1 0x0 MSTORE PUSH1 0x11 PUSH1 0x4 MSTORE PUSH1 0x24 PUSH1 0x0 REVERT JUMPDEST PUSH1 0x0 PUSH2 0x35BD DUP3 PUSH2 0x2C90 JUMP JUMPDEST SWAP2 POP PUSH2 0xFFFF DUP3 SUB PUSH2 0x35D1 JUMPI PUSH2 0x35D0 PUSH2 0x3583 JUMP JUMPDEST JUMPDEST PUSH1 0x1 DUP3 ADD SWAP1 POP SWAP2 SWAP1 POP JUMP JUMPDEST PUSH1 0x0 PUSH2 0x35F7 PUSH2 0x35F2 PUSH2 0x35ED DUP5 PUSH2 0x280E JUMP JUMPDEST PUSH2 0x3389 JUMP JUMPDEST PUSH2 0x280E JUMP JUMPDEST SWAP1 POP SWAP2 SWAP1 POP JUMP JUMPDEST PUSH1 0x0 PUSH2 0x3609 DUP3 PUSH2 0x35DC JUMP JUMPDEST SWAP1 POP SWAP2 SWAP1 POP JUMP JUMPDEST PUSH1 0x0 PUSH2 0x361B DUP3 PUSH2 0x35FE JUMP JUMPDEST SWAP1 POP SWAP2 SWAP1 POP JUMP JUMPDEST PUSH2 0x362B DUP2 PUSH2 0x3610 JUMP JUMPDEST DUP3 MSTORE POP POP JUMP JUMPDEST PUSH1 0x0 PUSH1 0x40 DUP3 ADD SWAP1 POP PUSH2 0x3646 PUSH1 0x0 DUP4 ADD DUP6 PUSH2 0x3622 JUMP JUMPDEST PUSH2 0x3653 PUSH1 0x20 DUP4 ADD DUP5 PUSH2 0x244E JUMP JUMPDEST SWAP4 SWAP3 POP POP POP JUMP JUMPDEST PUSH1 0x0 DUP2 ISZERO ISZERO SWAP1 POP SWAP2 SWAP1 POP JUMP JUMPDEST PUSH2 0x366F DUP2 PUSH2 0x365A JUMP JUMPDEST DUP2 EQ PUSH2 0x367A JUMPI PUSH1 0x0 DUP1 REVERT JUMPDEST POP JUMP JUMPDEST PUSH1 0x0 DUP2 MLOAD SWAP1 POP PUSH2 0x368C DUP2 PUSH2 0x3666 JUMP JUMPDEST SWAP3 SWAP2 POP POP JUMP JUMPDEST PUSH1 0x0 PUSH1 0x20 DUP3 DUP5 SUB SLT ISZERO PUSH2 0x36A8 JUMPI PUSH2 0x36A7 PUSH2 0x23AD JUMP JUMPDEST JUMPDEST PUSH1 0x0 PUSH2 0x36B6 DUP5 DUP3 DUP6 ADD PUSH2 0x367D JUMP JUMPDEST SWAP2 POP POP SWAP3 SWAP2 POP POP JUMP JUMPDEST PUSH32 0x536F75726365206D75737420626520746865206F7261636C65206F6620746865 PUSH1 0x0 DUP3 ADD MSTORE PUSH32 0x2072657175657374000000000000000000000000000000000000000000000000 PUSH1 0x20 DUP3 ADD MSTORE POP JUMP JUMPDEST PUSH1 0x0 PUSH2 0x371B PUSH1 0x28 DUP4 PUSH2 0x3167 JUMP JUMPDEST SWAP2 POP PUSH2 0x3726 DUP3 PUSH2 0x36BF JUMP JUMPDEST PUSH1 0x40 DUP3 ADD SWAP1 POP SWAP2 SWAP1 POP JUMP JUMPDEST PUSH1 0x0 PUSH1 0x20 DUP3 ADD SWAP1 POP DUP2 DUP2 SUB PUSH1 0x0 DUP4 ADD MSTORE PUSH2 0x374A DUP2 PUSH2 0x370E JUMP JUMPDEST SWAP1 POP SWAP2 SWAP1 POP JUMP JUMPDEST PUSH1 0x0 PUSH2 0x375C DUP3 PUSH2 0x23B7 JUMP JUMPDEST SWAP2 POP PUSH32 0xFFFFFFFFFFFFFFFFFFFFFFFFFFFFFFFFFFFFFFFFFFFFFFFFFFFFFFFFFFFFFFFF DUP3 SUB PUSH2 0x378E JUMPI PUSH2 0x378D PUSH2 0x3583 JUMP JUMPDEST JUMPDEST PUSH1 0x1 DUP3 ADD SWAP1 POP SWAP2 SWAP1 POP JUMP JUMPDEST PUSH1 0x0 PUSH2 0x37A4 DUP3 PUSH2 0x23B7 JUMP JUMPDEST SWAP2 POP PUSH2 0x37AF DUP4 PUSH2 0x23B7 JUMP JUMPDEST SWAP3 POP DUP3 DUP3 LT ISZERO PUSH2 0x37C2 JUMPI PUSH2 0x37C1 PUSH2 0x3583 JUMP JUMPDEST JUMPDEST DUP3 DUP3 SUB SWAP1 POP SWAP3 SWAP2 POP POP JUMP JUMPDEST PUSH1 0x0 PUSH2 0x37D8 DUP3 PUSH2 0x2C90 JUMP JUMPDEST SWAP2 POP PUSH2 0x37E3 DUP4 PUSH2 0x2C90 JUMP JUMPDEST SWAP3 POP DUP3 PUSH2 0xFFFF SUB DUP3 GT ISZERO PUSH2 0x37FA JUMPI PUSH2 0x37F9 PUSH2 0x3583 JUMP JUMPDEST JUMPDEST DUP3 DUP3 ADD SWAP1 POP SWAP3 SWAP2 POP POP JUMP JUMPDEST PUSH32 0x4F776E61626C653A206E6577206F776E657220697320746865207A65726F2061 PUSH1 0x0 DUP3 ADD MSTORE PUSH32 0x6464726573730000000000000000000000000000000000000000000000000000 PUSH1 0x20 DUP3 ADD MSTORE POP JUMP JUMPDEST PUSH1 0x0 PUSH2 0x3861 PUSH1 0x26 DUP4 PUSH2 0x3167 JUMP JUMPDEST SWAP2 POP PUSH2 0x386C DUP3 PUSH2 0x3805 JUMP JUMPDEST PUSH1 0x40 DUP3 ADD SWAP1 POP SWAP2 SWAP1 POP JUMP JUMPDEST PUSH1 0x0 PUSH1 0x20 DUP3 ADD SWAP1 POP DUP2 DUP2 SUB PUSH1 0x0 DUP4 ADD MSTORE PUSH2 0x3890 DUP2 PUSH2 0x3854 JUMP JUMPDEST SWAP1 POP SWAP2 SWAP1 POP JUMP JUMPDEST PUSH32 0x4F776E61626C653A2063616C6C6572206973206E6F7420746865206F776E6572 PUSH1 0x0 DUP3 ADD MSTORE POP JUMP JUMPDEST PUSH1 0x0 PUSH2 0x38CD PUSH1 0x20 DUP4 PUSH2 0x3167 JUMP JUMPDEST SWAP2 POP PUSH2 0x38D8 DUP3 PUSH2 0x3897 JUMP JUMPDEST PUSH1 0x20 DUP3 ADD SWAP1 POP SWAP2 SWAP1 POP JUMP JUMPDEST PUSH1 0x0 PUSH1 0x20 DUP3 ADD SWAP1 POP DUP2 DUP2 SUB PUSH1 0x0 DUP4 ADD MSTORE PUSH2 0x38FC DUP2 PUSH2 0x38C0 JUMP JUMPDEST SWAP1 POP SWAP2 SWAP1 POP JUMP JUMPDEST PUSH1 0x0 DUP2 SWAP1 POP PUSH1 0x20 DUP3 ADD SWAP1 POP SWAP2 SWAP1 POP JUMP JUMPDEST PUSH1 0x0 PUSH2 0x391F DUP3 MLOAD PUSH2 0x3066 JUMP JUMPDEST DUP1 SWAP2 POP POP SWAP2 SWAP1 POP JUMP JUMPDEST PUSH1 0x0 PUSH2 0x3933 DUP3 PUSH2 0x2E54 JUMP JUMPDEST DUP3 PUSH2 0x393D DUP5 PUSH2 0x3903 JUMP JUMPDEST SWAP1 POP PUSH2 0x3948 DUP2 PUSH2 0x3913 JUMP JUMPDEST SWAP3 POP PUSH1 0x4 DUP3 LT ISZERO PUSH2 0x3988 JUMPI PUSH2 0x3983 PUSH32 0xFFFFFFFF00000000000000000000000000000000000000000000000000000000 DUP4 PUSH1 0x4 SUB PUSH1 0x8 MUL PUSH2 0x332A JUMP JUMPDEST DUP4 AND SWAP3 POP JUMPDEST POP POP SWAP2 SWAP1 POP JUMP JUMPDEST PUSH1 0x0 PUSH32 0xFFFFFFFFFF000000000000000000000000000000000000000000000000000000 DUP3 AND SWAP1 POP SWAP2 SWAP1 POP JUMP JUMPDEST PUSH1 0x0 PUSH2 0x39C7 DUP3 MLOAD PUSH2 0x398F JUMP JUMPDEST DUP1 SWAP2 POP POP SWAP2 SWAP1 POP JUMP JUMPDEST PUSH1 0x0 PUSH2 0x39DB DUP3 PUSH2 0x2E54 JUMP JUMPDEST DUP3 PUSH2 0x39E5 DUP5 PUSH2 0x3903 JUMP JUMPDEST SWAP1 POP PUSH2 0x39F0 DUP2 PUSH2 0x39BB JUMP JUMPDEST SWAP3 POP PUSH1 0x5 DUP3 LT ISZERO PUSH2 0x3A30 JUMPI PUSH2 0x3A2B PUSH32 0xFFFFFFFFFF000000000000000000000000000000000000000000000000000000 DUP4 PUSH1 0x5 SUB PUSH1 0x8 MUL PUSH2 0x332A JUMP JUMPDEST DUP4 AND SWAP3 POP JUMPDEST POP POP SWAP2 SWAP1 POP JUMP JUMPDEST PUSH1 0x0 PUSH2 0x3A42 DUP3 PUSH2 0x258E JUMP JUMPDEST SWAP2 POP PUSH2 0x3A4D DUP4 PUSH2 0x258E JUMP JUMPDEST SWAP3 POP DUP3 PUSH1 0xFF SUB DUP3 GT ISZERO PUSH2 0x3A63 JUMPI PUSH2 0x3A62 PUSH2 0x3583 JUMP JUMPDEST JUMPDEST DUP3 DUP3 ADD SWAP1 POP SWAP3 SWAP2 POP POP JUMP JUMPDEST PUSH2 0x3A77 DUP2 PUSH2 0x3066 JUMP JUMPDEST DUP3 MSTORE POP POP JUMP JUMPDEST PUSH1 0x0 PUSH1 0x80 DUP3 ADD SWAP1 POP PUSH2 0x3A92 PUSH1 0x0 DUP4 ADD DUP8 PUSH2 0x2424 JUMP JUMPDEST PUSH2 0x3A9F PUSH1 0x20 DUP4 ADD DUP7 PUSH2 0x244E JUMP JUMPDEST PUSH2 0x3AAC PUSH1 0x40 DUP4 ADD DUP6 PUSH2 0x3A6E JUMP JUMPDEST PUSH2 0x3AB9 PUSH1 0x60 DUP4 ADD DUP5 PUSH2 0x244E JUMP JUMPDEST SWAP6 SWAP5 POP POP POP POP POP JUMP JUMPDEST PUSH1 0x0 PUSH2 0x3ACD DUP3 PUSH2 0x23B7 JUMP JUMPDEST SWAP2 POP PUSH2 0x3AD8 DUP4 PUSH2 0x23B7 JUMP JUMPDEST SWAP3 POP DUP3 PUSH32 0xFFFFFFFFFFFFFFFFFFFFFFFFFFFFFFFFFFFFFFFFFFFFFFFFFFFFFFFFFFFFFFFF SUB DUP3 GT ISZERO PUSH2 0x3B0D JUMPI PUSH2 0x3B0C PUSH2 0x3583 JUMP JUMPDEST JUMPDEST DUP3 DUP3 ADD SWAP1 POP SWAP3 SWAP2 POP POP JUMP JUMPDEST PUSH1 0x0 PUSH1 0xE0 DUP3 ADD SWAP1 POP PUSH2 0x3B2D PUSH1 0x0 DUP4 ADD DUP11 PUSH2 0x2DBD JUMP JUMPDEST PUSH2 0x3B3A PUSH1 0x20 DUP4 ADD DUP10 PUSH2 0x244E JUMP JUMPDEST PUSH2 0x3B47 PUSH1 0x40 DUP4 ADD DUP9 PUSH2 0x2424 JUMP JUMPDEST PUSH2 0x3B54 PUSH1 0x60 DUP4 ADD DUP8 PUSH2 0x3A6E JUMP JUMPDEST PUSH2 0x3B61 PUSH1 0x80 DUP4 ADD DUP7 PUSH2 0x244E JUMP JUMPDEST PUSH2 0x3B6E PUSH1 0xA0 DUP4 ADD DUP6 PUSH2 0x244E JUMP JUMPDEST DUP2 DUP2 SUB PUSH1 0xC0 DUP4 ADD MSTORE PUSH2 0x3B80 DUP2 DUP5 PUSH2 0x2E70 JUMP JUMPDEST SWAP1 POP SWAP9 SWAP8 POP POP POP POP POP POP POP POP JUMP JUMPDEST PUSH32 0x4E487B7100000000000000000000000000000000000000000000000000000000 PUSH1 0x0 MSTORE PUSH1 0x12 PUSH1 0x4 MSTORE PUSH1 0x24 PUSH1 0x0 REVERT JUMPDEST PUSH1 0x0 PUSH2 0x3BC8 DUP3 PUSH2 0x23B7 JUMP JUMPDEST SWAP2 POP PUSH2 0x3BD3 DUP4 PUSH2 0x23B7 JUMP JUMPDEST SWAP3 POP DUP3 PUSH2 0x3BE3 JUMPI PUSH2 0x3BE2 PUSH2 0x3B8E JUMP JUMPDEST JUMPDEST DUP3 DUP3 MOD SWAP1 POP SWAP3 SWAP2 POP POP JUMP JUMPDEST PUSH1 0x0 PUSH2 0x3BF9 DUP3 PUSH2 0x35FE JUMP JUMPDEST SWAP1 POP SWAP2 SWAP1 POP JUMP JUMPDEST PUSH1 0x0 DUP2 PUSH1 0x60 SHL SWAP1 POP SWAP2 SWAP1 POP JUMP JUMPDEST PUSH1 0x0 PUSH2 0x3C18 DUP3 PUSH2 0x3C00 JUMP JUMPDEST SWAP1 POP SWAP2 SWAP1 POP JUMP JUMPDEST PUSH1 0x0 PUSH2 0x3C2A DUP3 PUSH2 0x3C0D JUMP JUMPDEST SWAP1 POP SWAP2 SWAP1 POP JUMP JUMPDEST PUSH2 0x3C42 PUSH2 0x3C3D DUP3 PUSH2 0x3BEE JUMP JUMPDEST PUSH2 0x3C1F JUMP JUMPDEST DUP3 MSTORE POP POP JUMP JUMPDEST PUSH1 0x0 DUP2 SWAP1 POP SWAP2 SWAP1 POP JUMP JUMPDEST PUSH2 0x3C63 PUSH2 0x3C5E DUP3 PUSH2 0x23B7 JUMP JUMPDEST PUSH2 0x3C48 JUMP JUMPDEST DUP3 MSTORE POP POP JUMP JUMPDEST PUSH1 0x0 PUSH2 0x3C75 DUP3 DUP6 PUSH2 0x3C31 JUMP JUMPDEST PUSH1 0x14 DUP3 ADD SWAP2 POP PUSH2 0x3C85 DUP3 DUP5 PUSH2 0x3C52 JUMP JUMPDEST PUSH1 0x20 DUP3 ADD SWAP2 POP DUP2 SWAP1 POP SWAP4 SWAP3 POP POP POP JUMP JUMPDEST PUSH1 0x0 PUSH1 0x60 DUP3 ADD SWAP1 POP PUSH2 0x3CAA PUSH1 0x0 DUP4 ADD DUP7 PUSH2 0x2DBD JUMP JUMPDEST PUSH2 0x3CB7 PUSH1 0x20 DUP4 ADD DUP6 PUSH2 0x244E JUMP JUMPDEST DUP2 DUP2 SUB PUSH1 0x40 DUP4 ADD MSTORE PUSH2 0x3CC9 DUP2 DUP5 PUSH2 0x2E70 JUMP JUMPDEST SWAP1 POP SWAP5 SWAP4 POP POP POP POP JUMP JUMPDEST PUSH32 0x756E61626C6520746F207472616E73666572416E6443616C6C20746F206F7261 PUSH1 0x0 DUP3 ADD MSTORE PUSH32 0x636C650000000000000000000000000000000000000000000000000000000000 PUSH1 0x20 DUP3 ADD MSTORE POP JUMP JUMPDEST PUSH1 0x0 PUSH2 0x3D2F PUSH1 0x23 DUP4 PUSH2 0x3167 JUMP JUMPDEST SWAP2 POP PUSH2 0x3D3A DUP3 PUSH2 0x3CD3 JUMP JUMPDEST PUSH1 0x40 DUP3 ADD SWAP1 POP SWAP2 SWAP1 POP JUMP JUMPDEST PUSH1 0x0 PUSH1 0x20 DUP3 ADD SWAP1 POP DUP2 DUP2 SUB PUSH1 0x0 DUP4 ADD MSTORE PUSH2 0x3D5E DUP2 PUSH2 0x3D22 JUMP JUMPDEST SWAP1 POP SWAP2 SWAP1 POP JUMP JUMPDEST PUSH1 0x0 PUSH2 0x3D70 DUP3 PUSH2 0x23B7 JUMP JUMPDEST SWAP2 POP PUSH2 0x3D7B DUP4 PUSH2 0x23B7 JUMP JUMPDEST SWAP3 POP DUP2 PUSH32 0xFFFFFFFFFFFFFFFFFFFFFFFFFFFFFFFFFFFFFFFFFFFFFFFFFFFFFFFFFFFFFFFF DIV DUP4 GT DUP3 ISZERO ISZERO AND ISZERO PUSH2 0x3DB4 JUMPI PUSH2 0x3DB3 PUSH2 0x3583 JUMP JUMPDEST JUMPDEST DUP3 DUP3 MUL SWAP1 POP SWAP3 SWAP2 POP POP JUMP JUMPDEST PUSH1 0x0 DUP2 PUSH1 0x1 SHR SWAP1 POP SWAP2 SWAP1 POP JUMP JUMPDEST PUSH1 0x0 DUP1 DUP3 SWAP2 POP DUP4 SWAP1 POP JUMPDEST PUSH1 0x1 DUP6 GT ISZERO PUSH2 0x3E16 JUMPI DUP1 DUP7 DIV DUP2 GT ISZERO PUSH2 0x3DF2 JUMPI PUSH2 0x3DF1 PUSH2 0x3583 JUMP JUMPDEST JUMPDEST PUSH1 0x1 DUP6 AND ISZERO PUSH2 0x3E01 JUMPI DUP1 DUP3 MUL SWAP2 POP JUMPDEST DUP1 DUP2 MUL SWAP1 POP PUSH2 0x3E0F DUP6 PUSH2 0x3DBF JUMP JUMPDEST SWAP5 POP PUSH2 0x3DD6 JUMP JUMPDEST SWAP5 POP SWAP5 SWAP3 POP POP POP JUMP JUMPDEST PUSH1 0x0 DUP3 PUSH2 0x3E2F JUMPI PUSH1 0x1 SWAP1 POP PUSH2 0x3EEB JUMP JUMPDEST DUP2 PUSH2 0x3E3D JUMPI PUSH1 0x0 SWAP1 POP PUSH2 0x3EEB JUMP JUMPDEST DUP2 PUSH1 0x1 DUP2 EQ PUSH2 0x3E53 JUMPI PUSH1 0x2 DUP2 EQ PUSH2 0x3E5D JUMPI PUSH2 0x3E8C JUMP JUMPDEST PUSH1 0x1 SWAP2 POP POP PUSH2 0x3EEB JUMP JUMPDEST PUSH1 0xFF DUP5 GT ISZERO PUSH2 0x3E6F JUMPI PUSH2 0x3E6E PUSH2 0x3583 JUMP JUMPDEST JUMPDEST DUP4 PUSH1 0x2 EXP SWAP2 POP DUP5 DUP3 GT ISZERO PUSH2 0x3E86 JUMPI PUSH2 0x3E85 PUSH2 0x3583 JUMP JUMPDEST JUMPDEST POP PUSH2 0x3EEB JUMP JUMPDEST POP PUSH1 0x20 DUP4 LT PUSH2 0x133 DUP4 LT AND PUSH1 0x4E DUP5 LT PUSH1 0xB DUP5 LT AND OR ISZERO PUSH2 0x3EC1 JUMPI DUP3 DUP3 EXP SWAP1 POP DUP4 DUP2 GT ISZERO PUSH2 0x3EBC JUMPI PUSH2 0x3EBB PUSH2 0x3583 JUMP JUMPDEST JUMPDEST PUSH2 0x3EEB JUMP JUMPDEST PUSH2 0x3ECE DUP5 DUP5 DUP5 PUSH1 0x1 PUSH2 0x3DCC JUMP JUMPDEST SWAP3 POP SWAP1 POP DUP2 DUP5 DIV DUP2 GT ISZERO PUSH2 0x3EE5 JUMPI PUSH2 0x3EE4 PUSH2 0x3583 JUMP JUMPDEST JUMPDEST DUP2 DUP2 MUL SWAP1 POP JUMPDEST SWAP4 SWAP3 POP POP POP JUMP JUMPDEST PUSH1 0x0 PUSH2 0x3EFD DUP3 PUSH2 0x23B7 JUMP JUMPDEST SWAP2 POP PUSH2 0x3F08 DUP4 PUSH2 0x23B7 JUMP JUMPDEST SWAP3 POP PUSH2 0x3F35 PUSH32 0xFFFFFFFFFFFFFFFFFFFFFFFFFFFFFFFFFFFFFFFFFFFFFFFFFFFFFFFFFFFFFFFF DUP5 DUP5 PUSH2 0x3E1F JUMP JUMPDEST SWAP1 POP SWAP3 SWAP2 POP POP JUMP JUMPDEST PUSH1 0x0 DUP2 SWAP1 POP DUP2 PUSH1 0x0 MSTORE PUSH1 0x20 PUSH1 0x0 KECCAK256 SWAP1 POP SWAP2 SWAP1 POP JUMP JUMPDEST PUSH1 0x1F DUP3 GT ISZERO PUSH2 0x3F93 JUMPI PUSH2 0x3F64 DUP2 PUSH2 0x3F3D JUMP JUMPDEST PUSH2 0x3F6D DUP5 PUSH2 0x331A JUMP JUMPDEST DUP2 ADD PUSH1 0x20 DUP6 LT ISZERO PUSH2 0x3F7C JUMPI DUP2 SWAP1 POP JUMPDEST PUSH2 0x3F90 PUSH2 0x3F88 DUP6 PUSH2 0x331A JUMP JUMPDEST DUP4 ADD DUP3 PUSH2 0x3401 JUMP JUMPDEST POP POP JUMPDEST POP POP POP JUMP JUMPDEST PUSH2 0x3FA1 DUP3 PUSH2 0x2E54 JUMP JUMPDEST PUSH8 0xFFFFFFFFFFFFFFFF DUP2 GT ISZERO PUSH2 0x3FBA JUMPI PUSH2 0x3FB9 PUSH2 0x249C JUMP JUMPDEST JUMPDEST PUSH2 0x3FC4 DUP3 SLOAD PUSH2 0x32D4 JUMP JUMPDEST PUSH2 0x3FCF DUP3 DUP3 DUP6 PUSH2 0x3F52 JUMP JUMPDEST PUSH1 0x0 PUSH1 0x20 SWAP1 POP PUSH1 0x1F DUP4 GT PUSH1 0x1 DUP2 EQ PUSH2 0x4002 JUMPI PUSH1 0x0 DUP5 ISZERO PUSH2 0x3FF0 JUMPI DUP3 DUP8 ADD MLOAD SWAP1 POP JUMPDEST PUSH2 0x3FFA DUP6 DUP3 PUSH2 0x3495 JUMP JUMPDEST DUP7 SSTORE POP PUSH2 0x4062 JUMP JUMPDEST PUSH1 0x1F NOT DUP5 AND PUSH2 0x4010 DUP7 PUSH2 0x3F3D JUMP JUMPDEST PUSH1 0x0 JUMPDEST DUP3 DUP2 LT ISZERO PUSH2 0x4038 JUMPI DUP5 DUP10 ADD MLOAD DUP3 SSTORE PUSH1 0x1 DUP3 ADD SWAP2 POP PUSH1 0x20 DUP6 ADD SWAP5 POP PUSH1 0x20 DUP2 ADD SWAP1 POP PUSH2 0x4013 JUMP JUMPDEST DUP7 DUP4 LT ISZERO PUSH2 0x4055 JUMPI DUP5 DUP10 ADD MLOAD PUSH2 0x4051 PUSH1 0x1F DUP10 AND DUP3 PUSH2 0x3477 JUMP JUMPDEST DUP4 SSTORE POP JUMPDEST PUSH1 0x1 PUSH1 0x2 DUP9 MUL ADD DUP9 SSTORE POP POP POP JUMPDEST POP POP POP POP POP POP JUMP INVALID LOG2 PUSH5 0x6970667358 0x22 SLT KECCAK256 0xB6 0xA9 0xDD DUP10 0xE0 EQ PUSH14 0x37CD5816E857111BE3E05BE18298 0xBD DUP1 OR SHL EXP 0xDC EXTCODECOPY 0xB1 0xD0 PUSH12 0x3F64736F6C634300080F0033 "},"methodIdentifiers":{"_getOracleAddress()":"b075f532","cancelRequest(bytes32,uint256,bytes4,uint256)":"ec65d0f8","changeLeagueId(uint8)":"8ecf0521","changeNumberOfPredictions(uint16)":"31536f18","checkResult(address)":"b8033c9e","contractBalances()":"2163885a","fulfillSchedule(bytes32,bytes[])":"93d07072","getGameCreate(bytes32,uint256)":"e3c046a7","getGameResolve(bytes32,uint256)":"de00d107","getLengthResults(bytes32)":"6eaf5a5f","getPrevisionsPerPlayer(address)":"2a9ec636","owner()":"8da5cb5b","renounceOwnership()":"715018a6","requestIdGames(bytes32,uint256)":"a2943608","requestSchedule(uint256,uint256)":"ac91ab9c","requestsIdList(uint256)":"01e31005","savePrediction((uint32,uint8,uint8,string)[])":"29d08efc","setRequestIdGames(bytes32,bytes[])":"303a712f","transferOwnership(address)":"f2fde38b","withdrawLink(address,uint256)":"54b7faae"}}}}}