{"contracts/IpPool.sol":{"IpPool":{"abi":[{"inputs":[],"stateMutability":"nonpayable","type":"constructor"},{"anonymous":false,"inputs":[{"indexed":true,"internalType":"address","name":"previousOwner","type":"address"},{"indexed":true,"internalType":"address","name":"newOwner","type":"address"}],"name":"OwnershipTransferred","type":"event"},{"anonymous":false,"inputs":[{"indexed":false,"internalType":"address","name":"account","type":"address"}],"name":"Paused","type":"event"},{"anonymous":false,"inputs":[{"indexed":false,"internalType":"address","name":"account","type":"address"}],"name":"Unpaused","type":"event"},{"inputs":[],"name":"claimFromPool","outputs":[],"stateMutability":"nonpayable","type":"function"},{"inputs":[{"internalType":"uint256","name":"_amount","type":"uint256"}],"name":"depositOnAave","outputs":[],"stateMutability":"nonpayable","type":"function"},{"inputs":[],"name":"getGlobalPrizePool","outputs":[{"internalType":"uint256","name":"","type":"uint256"}],"stateMutability":"view","type":"function"},{"inputs":[{"internalType":"address","name":"_player","type":"address"}],"name":"getWinningsPerPlayer","outputs":[{"components":[{"internalType":"uint256","name":"pendingWinnings","type":"uint256"},{"internalType":"uint256","name":"claimedWinnings","type":"uint256"}],"internalType":"struct IpPool.Winnings","name":"","type":"tuple"}],"stateMutability":"view","type":"function"},{"inputs":[],"name":"globalPendingWinnings","outputs":[{"internalType":"uint256","name":"","type":"uint256"}],"stateMutability":"view","type":"function"},{"inputs":[],"name":"owner","outputs":[{"internalType":"address","name":"","type":"address"}],"stateMutability":"view","type":"function"},{"inputs":[],"name":"pause","outputs":[],"stateMutability":"nonpayable","type":"function"},{"inputs":[],"name":"paused","outputs":[{"internalType":"bool","name":"","type":"bool"}],"stateMutability":"view","type":"function"},{"inputs":[],"name":"renounceOwnership","outputs":[],"stateMutability":"nonpayable","type":"function"},{"inputs":[{"internalType":"address","name":"newOwner","type":"address"}],"name":"transferOwnership","outputs":[],"stateMutability":"nonpayable","type":"function"},{"inputs":[],"name":"unpause","outputs":[],"stateMutability":"nonpayable","type":"function"}],"evm":{"bytecode":{"linkReferences":{},"object":"608060405234801561001057600080fd5b5061002d6100226101a860201b60201c565b6101b060201b60201c565b60008060146101000a81548160ff02191690831515021790555073a2025b15a1757311bfd68cb14eaefcc237af5b43600360006101000a81548173ffffffffffffffffffffffffffffffffffffffff021916908373ffffffffffffffffffffffffffffffffffffffff16021790555073368eedf3f56ad10b9bc57eed4dac65b26bb667f6600660006101000a81548173ffffffffffffffffffffffffffffffffffffffff021916908373ffffffffffffffffffffffffffffffffffffffff160217905550731ee669290939f8a8864497af3bc83728715265ff600460006101000a81548173ffffffffffffffffffffffffffffffffffffffff021916908373ffffffffffffffffffffffffffffffffffffffff16021790555073d81e4a61fd6bf066539df6ea48bfaeae847dcda1600560006101000a81548173ffffffffffffffffffffffffffffffffffffffff021916908373ffffffffffffffffffffffffffffffffffffffff1602179055506000600281905550610274565b600033905090565b60008060009054906101000a900473ffffffffffffffffffffffffffffffffffffffff169050816000806101000a81548173ffffffffffffffffffffffffffffffffffffffff021916908373ffffffffffffffffffffffffffffffffffffffff1602179055508173ffffffffffffffffffffffffffffffffffffffff168173ffffffffffffffffffffffffffffffffffffffff167f8be0079c531659141344cd1fd0a4f28419497f9722a3daafe3b4186f6b6457e060405160405180910390a35050565b6117fe806102836000396000f3fe608060405234801561001057600080fd5b50600436106100a95760003560e01c80638ad2e864116100715780638ad2e864146101085780638d44f13b146101385780638da5cb5b14610142578063b4ace15814610160578063f2fde38b1461017e578063fd8d19091461019a576100a9565b80633f4ba83a146100ae57806341944175146100b85780635c975abb146100d6578063715018a6146100f45780638456cb59146100fe575b600080fd5b6100b66101b6565b005b6100c06101c8565b6040516100cd9190610eb7565b60405180910390f35b6100de6101ce565b6040516100eb9190610eed565b60405180910390f35b6100fc6101e4565b005b6101066101f8565b005b610122600480360381019061011d9190610f6b565b61020a565b60405161012f9190610fd6565b60405180910390f35b610140610277565b005b61014a6104b3565b6040516101579190611000565b60405180910390f35b6101686104dc565b6040516101759190610eb7565b60405180910390f35b61019860048036038101906101939190610f6b565b61064c565b005b6101b460048036038101906101af9190611047565b6106cf565b005b6101be610be2565b6101c6610c60565b565b60025481565b60008060149054906101000a900460ff16905090565b6101ec610be2565b6101f66000610cc2565b565b610200610be2565b610208610d86565b565b610212610e84565b600160008373ffffffffffffffffffffffffffffffffffffffff1673ffffffffffffffffffffffffffffffffffffffff168152602001908152602001600020604051806040016040529081600082015481526020016001820154815250509050919050565b6000600160003373ffffffffffffffffffffffffffffffffffffffff1673ffffffffffffffffffffffffffffffffffffffff16815260200190815260200160002060000154116102fc576040517f08c379a00000000000000000000000000000000000000000000000000000000081526004016102f3906110d1565b60405180910390fd5b6000600160003373ffffffffffffffffffffffffffffffffffffffff1673ffffffffffffffffffffffffffffffffffffffff168152602001908152602001600020600001549050600660009054906101000a900473ffffffffffffffffffffffffffffffffffffffff1673ffffffffffffffffffffffffffffffffffffffff166369328dec600360009054906101000a900473ffffffffffffffffffffffffffffffffffffffff1683336040518463ffffffff1660e01b81526004016103c4939291906110f1565b600060405180830381600087803b1580156103de57600080fd5b505af11580156103f2573d6000803e3d6000fd5b505050506000600160003373ffffffffffffffffffffffffffffffffffffffff1673ffffffffffffffffffffffffffffffffffffffff1681526020019081526020016000206000018190555080600160003373ffffffffffffffffffffffffffffffffffffffff1673ffffffffffffffffffffffffffffffffffffffff16815260200190815260200160002060010160008282546104909190611157565b9250508190555080600260008282546104a991906111ad565b9250508190555050565b60008060009054906101000a900473ffffffffffffffffffffffffffffffffffffffff16905090565b600080600460009054906101000a900473ffffffffffffffffffffffffffffffffffffffff1673ffffffffffffffffffffffffffffffffffffffff166370a08231306040518263ffffffff1660e01b815260040161053a9190611000565b602060405180830381865afa158015610557573d6000803e3d6000fd5b505050506040513d601f19601f8201168201806040525081019061057b91906111f6565b90506000620f42406032600560009054906101000a900473ffffffffffffffffffffffffffffffffffffffff1673ffffffffffffffffffffffffffffffffffffffff166318160ddd6040518163ffffffff1660e01b8152600401602060405180830381865afa1580156105f2573d6000803e3d6000fd5b505050506040513d601f19601f8201168201806040525081019061061691906111f6565b6106209190611223565b61062a9190611223565b9050600254818361063b91906111ad565b61064591906111ad565b9250505090565b610654610be2565b600073ffffffffffffffffffffffffffffffffffffffff168173ffffffffffffffffffffffffffffffffffffffff16036106c3576040517f08c379a00000000000000000000000000000000000000000000000000000000081526004016106ba906112ef565b60405180910390fd5b6106cc81610cc2565b50565b60006032826106de919061133e565b1461071e576040517f08c379a0000000000000000000000000000000000000000000000000000000008152600401610715906113e1565b60405180910390fd5b600360009054906101000a900473ffffffffffffffffffffffffffffffffffffffff1673ffffffffffffffffffffffffffffffffffffffff166370a08231336040518263ffffffff1660e01b81526004016107799190611000565b602060405180830381865afa158015610796573d6000803e3d6000fd5b505050506040513d601f19601f820116820180604052508101906107ba91906111f6565b620f4240826107c99190611223565b111561080a576040517f08c379a00000000000000000000000000000000000000000000000000000000081526004016108019061144d565b60405180910390fd5b600360009054906101000a900473ffffffffffffffffffffffffffffffffffffffff1673ffffffffffffffffffffffffffffffffffffffff1663dd62ed3e33306040518363ffffffff1660e01b815260040161086792919061146d565b602060405180830381865afa158015610884573d6000803e3d6000fd5b505050506040513d601f19601f820116820180604052508101906108a891906111f6565b620f4240826108b79190611223565b11156108f8576040517f08c379a00000000000000000000000000000000000000000000000000000000081526004016108ef906114e2565b60405180910390fd5b60006032826109079190611502565b9050600360009054906101000a900473ffffffffffffffffffffffffffffffffffffffff1673ffffffffffffffffffffffffffffffffffffffff166323b872dd3330620f4240866109589190611223565b6040518463ffffffff1660e01b815260040161097693929190611533565b6020604051808303816000875af1158015610995573d6000803e3d6000fd5b505050506040513d601f19601f820116820180604052508101906109b99190611596565b50600360009054906101000a900473ffffffffffffffffffffffffffffffffffffffff1673ffffffffffffffffffffffffffffffffffffffff1663095ea7b3600660009054906101000a900473ffffffffffffffffffffffffffffffffffffffff16620f424085610a2a9190611223565b6040518363ffffffff1660e01b8152600401610a479291906115c3565b6020604051808303816000875af1158015610a66573d6000803e3d6000fd5b505050506040513d601f19601f82011682018060405250810190610a8a9190611596565b50600660009054906101000a900473ffffffffffffffffffffffffffffffffffffffff1673ffffffffffffffffffffffffffffffffffffffff1663617ba037600360009054906101000a900473ffffffffffffffffffffffffffffffffffffffff16620f424085610afb9190611223565b3060006040518563ffffffff1660e01b8152600401610b1d949392919061163f565b600060405180830381600087803b158015610b3757600080fd5b505af1158015610b4b573d6000803e3d6000fd5b50505050600560009054906101000a900473ffffffffffffffffffffffffffffffffffffffff1673ffffffffffffffffffffffffffffffffffffffff166340c10f1933836040518363ffffffff1660e01b8152600401610bac9291906115c3565b600060405180830381600087803b158015610bc657600080fd5b505af1158015610bda573d6000803e3d6000fd5b505050505050565b610bea610de9565b73ffffffffffffffffffffffffffffffffffffffff16610c086104b3565b73ffffffffffffffffffffffffffffffffffffffff1614610c5e576040517f08c379a0000000000000000000000000000000000000000000000000000000008152600401610c55906116d0565b60405180910390fd5b565b610c68610df1565b60008060146101000a81548160ff0219169083151502179055507f5db9ee0a495bf2e6ff9c91a7834c1ba4fdd244a5e8aa4e537bd38aeae4b073aa610cab610de9565b604051610cb89190611000565b60405180910390a1565b60008060009054906101000a900473ffffffffffffffffffffffffffffffffffffffff169050816000806101000a81548173ffffffffffffffffffffffffffffffffffffffff021916908373ffffffffffffffffffffffffffffffffffffffff1602179055508173ffffffffffffffffffffffffffffffffffffffff168173ffffffffffffffffffffffffffffffffffffffff167f8be0079c531659141344cd1fd0a4f28419497f9722a3daafe3b4186f6b6457e060405160405180910390a35050565b610d8e610e3a565b6001600060146101000a81548160ff0219169083151502179055507f62e78cea01bee320cd4e420270b5ea74000d11b0c9f74754ebdbfc544b05a258610dd2610de9565b604051610ddf9190611000565b60405180910390a1565b600033905090565b610df96101ce565b610e38576040517f08c379a0000000000000000000000000000000000000000000000000000000008152600401610e2f9061173c565b60405180910390fd5b565b610e426101ce565b15610e82576040517f08c379a0000000000000000000000000000000000000000000000000000000008152600401610e79906117a8565b60405180910390fd5b565b604051806040016040528060008152602001600081525090565b6000819050919050565b610eb181610e9e565b82525050565b6000602082019050610ecc6000830184610ea8565b92915050565b60008115159050919050565b610ee781610ed2565b82525050565b6000602082019050610f026000830184610ede565b92915050565b600080fd5b600073ffffffffffffffffffffffffffffffffffffffff82169050919050565b6000610f3882610f0d565b9050919050565b610f4881610f2d565b8114610f5357600080fd5b50565b600081359050610f6581610f3f565b92915050565b600060208284031215610f8157610f80610f08565b5b6000610f8f84828501610f56565b91505092915050565b610fa181610e9e565b82525050565b604082016000820151610fbd6000850182610f98565b506020820151610fd06020850182610f98565b50505050565b6000604082019050610feb6000830184610fa7565b92915050565b610ffa81610f2d565b82525050565b60006020820190506110156000830184610ff1565b92915050565b61102481610e9e565b811461102f57600080fd5b50565b6000813590506110418161101b565b92915050565b60006020828403121561105d5761105c610f08565b5b600061106b84828501611032565b91505092915050565b600082825260208201905092915050565b7f5468657265206973206e6f2070656e64696e672077696e6e696e677321000000600082015250565b60006110bb601d83611074565b91506110c682611085565b602082019050919050565b600060208201905081810360008301526110ea816110ae565b9050919050565b60006060820190506111066000830186610ff1565b6111136020830185610ea8565b6111206040830184610ff1565b949350505050565b7f4e487b7100000000000000000000000000000000000000000000000000000000600052601160045260246000fd5b600061116282610e9e565b915061116d83610e9e565b9250827fffffffffffffffffffffffffffffffffffffffffffffffffffffffffffffffff038211156111a2576111a1611128565b5b828201905092915050565b60006111b882610e9e565b91506111c383610e9e565b9250828210156111d6576111d5611128565b5b828203905092915050565b6000815190506111f08161101b565b92915050565b60006020828403121561120c5761120b610f08565b5b600061121a848285016111e1565b91505092915050565b600061122e82610e9e565b915061123983610e9e565b9250817fffffffffffffffffffffffffffffffffffffffffffffffffffffffffffffffff048311821515161561127257611271611128565b5b828202905092915050565b7f4f776e61626c653a206e6577206f776e657220697320746865207a65726f206160008201527f6464726573730000000000000000000000000000000000000000000000000000602082015250565b60006112d9602683611074565b91506112e48261127d565b604082019050919050565b60006020820190508181036000830152611308816112cc565b9050919050565b7f4e487b7100000000000000000000000000000000000000000000000000000000600052601260045260246000fd5b600061134982610e9e565b915061135483610e9e565b9250826113645761136361130f565b5b828206905092915050565b7f54686520616d6f756e74206d7573742062652061206d756c7469706c65206f6660008201527f2035300000000000000000000000000000000000000000000000000000000000602082015250565b60006113cb602383611074565b91506113d68261136f565b604082019050919050565b600060208201905081810360008301526113fa816113be565b9050919050565b7f496e737566666963656e7420616d6f756e74206f662055534443000000000000600082015250565b6000611437601a83611074565b915061144282611401565b602082019050919050565b600060208201905081810360008301526114668161142a565b9050919050565b60006040820190506114826000830185610ff1565b61148f6020830184610ff1565b9392505050565b7f496e73756666696369656e7420616c6c6f776564205553444300000000000000600082015250565b60006114cc601983611074565b91506114d782611496565b602082019050919050565b600060208201905081810360008301526114fb816114bf565b9050919050565b600061150d82610e9e565b915061151883610e9e565b9250826115285761152761130f565b5b828204905092915050565b60006060820190506115486000830186610ff1565b6115556020830185610ff1565b6115626040830184610ea8565b949350505050565b61157381610ed2565b811461157e57600080fd5b50565b6000815190506115908161156a565b92915050565b6000602082840312156115ac576115ab610f08565b5b60006115ba84828501611581565b91505092915050565b60006040820190506115d86000830185610ff1565b6115e56020830184610ea8565b9392505050565b6000819050919050565b600061ffff82169050919050565b6000819050919050565b600061162961162461161f846115ec565b611604565b6115f6565b9050919050565b6116398161160e565b82525050565b60006080820190506116546000830187610ff1565b6116616020830186610ea8565b61166e6040830185610ff1565b61167b6060830184611630565b95945050505050565b7f4f776e61626c653a2063616c6c6572206973206e6f7420746865206f776e6572600082015250565b60006116ba602083611074565b91506116c582611684565b602082019050919050565b600060208201905081810360008301526116e9816116ad565b9050919050565b7f5061757361626c653a206e6f7420706175736564000000000000000000000000600082015250565b6000611726601483611074565b9150611731826116f0565b602082019050919050565b6000602082019050818103600083015261175581611719565b9050919050565b7f5061757361626c653a2070617573656400000000000000000000000000000000600082015250565b6000611792601083611074565b915061179d8261175c565b602082019050919050565b600060208201905081810360008301526117c181611785565b905091905056fea264697066735822122066d1deb2ad09197515b2a97ab41b6b2fe16a0d0b0d3560f9d23bb3333d00de0864736f6c634300080f0033","opcodes":"PUSH1 0x80 PUSH1 0x40 MSTORE CALLVALUE DUP1 ISZERO PUSH2 0x10 JUMPI PUSH1 0x0 DUP1 REVERT JUMPDEST POP PUSH2 0x2D PUSH2 0x22 PUSH2 0x1A8 PUSH1 0x20 SHL PUSH1 0x20 SHR JUMP JUMPDEST PUSH2 0x1B0 PUSH1 0x20 SHL PUSH1 0x20 SHR JUMP JUMPDEST PUSH1 0x0 DUP1 PUSH1 0x14 PUSH2 0x100 EXP DUP2 SLOAD DUP2 PUSH1 0xFF MUL NOT AND SWAP1 DUP4 ISZERO ISZERO MUL OR SWAP1 SSTORE POP PUSH20 0xA2025B15A1757311BFD68CB14EAEFCC237AF5B43 PUSH1 0x3 PUSH1 0x0 PUSH2 0x100 EXP DUP2 SLOAD DUP2 PUSH20 0xFFFFFFFFFFFFFFFFFFFFFFFFFFFFFFFFFFFFFFFF MUL NOT AND SWAP1 DUP4 PUSH20 0xFFFFFFFFFFFFFFFFFFFFFFFFFFFFFFFFFFFFFFFF AND MUL OR SWAP1 SSTORE POP PUSH20 0x368EEDF3F56AD10B9BC57EED4DAC65B26BB667F6 PUSH1 0x6 PUSH1 0x0 PUSH2 0x100 EXP DUP2 SLOAD DUP2 PUSH20 0xFFFFFFFFFFFFFFFFFFFFFFFFFFFFFFFFFFFFFFFF MUL NOT AND SWAP1 DUP4 PUSH20 0xFFFFFFFFFFFFFFFFFFFFFFFFFFFFFFFFFFFFFFFF AND MUL OR SWAP1 SSTORE POP PUSH20 0x1EE669290939F8A8864497AF3BC83728715265FF PUSH1 0x4 PUSH1 0x0 PUSH2 0x100 EXP DUP2 SLOAD DUP2 PUSH20 0xFFFFFFFFFFFFFFFFFFFFFFFFFFFFFFFFFFFFFFFF MUL NOT AND SWAP1 DUP4 PUSH20 0xFFFFFFFFFFFFFFFFFFFFFFFFFFFFFFFFFFFFFFFF AND MUL OR SWAP1 SSTORE POP PUSH20 0xD81E4A61FD6BF066539DF6EA48BFAEAE847DCDA1 PUSH1 0x5 PUSH1 0x0 PUSH2 0x100 EXP DUP2 SLOAD DUP2 PUSH20 0xFFFFFFFFFFFFFFFFFFFFFFFFFFFFFFFFFFFFFFFF MUL NOT AND SWAP1 DUP4 PUSH20 0xFFFFFFFFFFFFFFFFFFFFFFFFFFFFFFFFFFFFFFFF AND MUL OR SWAP1 SSTORE POP PUSH1 0x0 PUSH1 0x2 DUP2 SWAP1 SSTORE POP PUSH2 0x274 JUMP JUMPDEST PUSH1 0x0 CALLER SWAP1 POP SWAP1 JUMP JUMPDEST PUSH1 0x0 DUP1 PUSH1 0x0 SWAP1 SLOAD SWAP1 PUSH2 0x100 EXP SWAP1 DIV PUSH20 0xFFFFFFFFFFFFFFFFFFFFFFFFFFFFFFFFFFFFFFFF AND SWAP1 POP DUP2 PUSH1 0x0 DUP1 PUSH2 0x100 EXP DUP2 SLOAD DUP2 PUSH20 0xFFFFFFFFFFFFFFFFFFFFFFFFFFFFFFFFFFFFFFFF MUL NOT AND SWAP1 DUP4 PUSH20 0xFFFFFFFFFFFFFFFFFFFFFFFFFFFFFFFFFFFFFFFF AND MUL OR SWAP1 SSTORE POP DUP2 PUSH20 0xFFFFFFFFFFFFFFFFFFFFFFFFFFFFFFFFFFFFFFFF AND DUP2 PUSH20 0xFFFFFFFFFFFFFFFFFFFFFFFFFFFFFFFFFFFFFFFF AND PUSH32 0x8BE0079C531659141344CD1FD0A4F28419497F9722A3DAAFE3B4186F6B6457E0 PUSH1 0x40 MLOAD PUSH1 0x40 MLOAD DUP1 SWAP2 SUB SWAP1 LOG3 POP POP JUMP JUMPDEST PUSH2 0x17FE DUP1 PUSH2 0x283 PUSH1 0x0 CODECOPY PUSH1 0x0 RETURN INVALID PUSH1 0x80 PUSH1 0x40 MSTORE CALLVALUE DUP1 ISZERO PUSH2 0x10 JUMPI PUSH1 0x0 DUP1 REVERT JUMPDEST POP PUSH1 0x4 CALLDATASIZE LT PUSH2 0xA9 JUMPI PUSH1 0x0 CALLDATALOAD PUSH1 0xE0 SHR DUP1 PUSH4 0x8AD2E864 GT PUSH2 0x71 JUMPI DUP1 PUSH4 0x8AD2E864 EQ PUSH2 0x108 JUMPI DUP1 PUSH4 0x8D44F13B EQ PUSH2 0x138 JUMPI DUP1 PUSH4 0x8DA5CB5B EQ PUSH2 0x142 JUMPI DUP1 PUSH4 0xB4ACE158 EQ PUSH2 0x160 JUMPI DUP1 PUSH4 0xF2FDE38B EQ PUSH2 0x17E JUMPI DUP1 PUSH4 0xFD8D1909 EQ PUSH2 0x19A JUMPI PUSH2 0xA9 JUMP JUMPDEST DUP1 PUSH4 0x3F4BA83A EQ PUSH2 0xAE JUMPI DUP1 PUSH4 0x41944175 EQ PUSH2 0xB8 JUMPI DUP1 PUSH4 0x5C975ABB EQ PUSH2 0xD6 JUMPI DUP1 PUSH4 0x715018A6 EQ PUSH2 0xF4 JUMPI DUP1 PUSH4 0x8456CB59 EQ PUSH2 0xFE JUMPI JUMPDEST PUSH1 0x0 DUP1 REVERT JUMPDEST PUSH2 0xB6 PUSH2 0x1B6 JUMP JUMPDEST STOP JUMPDEST PUSH2 0xC0 PUSH2 0x1C8 JUMP JUMPDEST PUSH1 0x40 MLOAD PUSH2 0xCD SWAP2 SWAP1 PUSH2 0xEB7 JUMP JUMPDEST PUSH1 0x40 MLOAD DUP1 SWAP2 SUB SWAP1 RETURN JUMPDEST PUSH2 0xDE PUSH2 0x1CE JUMP JUMPDEST PUSH1 0x40 MLOAD PUSH2 0xEB SWAP2 SWAP1 PUSH2 0xEED JUMP JUMPDEST PUSH1 0x40 MLOAD DUP1 SWAP2 SUB SWAP1 RETURN JUMPDEST PUSH2 0xFC PUSH2 0x1E4 JUMP JUMPDEST STOP JUMPDEST PUSH2 0x106 PUSH2 0x1F8 JUMP JUMPDEST STOP JUMPDEST PUSH2 0x122 PUSH1 0x4 DUP1 CALLDATASIZE SUB DUP2 ADD SWAP1 PUSH2 0x11D SWAP2 SWAP1 PUSH2 0xF6B JUMP JUMPDEST PUSH2 0x20A JUMP JUMPDEST PUSH1 0x40 MLOAD PUSH2 0x12F SWAP2 SWAP1 PUSH2 0xFD6 JUMP JUMPDEST PUSH1 0x40 MLOAD DUP1 SWAP2 SUB SWAP1 RETURN JUMPDEST PUSH2 0x140 PUSH2 0x277 JUMP JUMPDEST STOP JUMPDEST PUSH2 0x14A PUSH2 0x4B3 JUMP JUMPDEST PUSH1 0x40 MLOAD PUSH2 0x157 SWAP2 SWAP1 PUSH2 0x1000 JUMP JUMPDEST PUSH1 0x40 MLOAD DUP1 SWAP2 SUB SWAP1 RETURN JUMPDEST PUSH2 0x168 PUSH2 0x4DC JUMP JUMPDEST PUSH1 0x40 MLOAD PUSH2 0x175 SWAP2 SWAP1 PUSH2 0xEB7 JUMP JUMPDEST PUSH1 0x40 MLOAD DUP1 SWAP2 SUB SWAP1 RETURN JUMPDEST PUSH2 0x198 PUSH1 0x4 DUP1 CALLDATASIZE SUB DUP2 ADD SWAP1 PUSH2 0x193 SWAP2 SWAP1 PUSH2 0xF6B JUMP JUMPDEST PUSH2 0x64C JUMP JUMPDEST STOP JUMPDEST PUSH2 0x1B4 PUSH1 0x4 DUP1 CALLDATASIZE SUB DUP2 ADD SWAP1 PUSH2 0x1AF SWAP2 SWAP1 PUSH2 0x1047 JUMP JUMPDEST PUSH2 0x6CF JUMP JUMPDEST STOP JUMPDEST PUSH2 0x1BE PUSH2 0xBE2 JUMP JUMPDEST PUSH2 0x1C6 PUSH2 0xC60 JUMP JUMPDEST JUMP JUMPDEST PUSH1 0x2 SLOAD DUP2 JUMP JUMPDEST PUSH1 0x0 DUP1 PUSH1 0x14 SWAP1 SLOAD SWAP1 PUSH2 0x100 EXP SWAP1 DIV PUSH1 0xFF AND SWAP1 POP SWAP1 JUMP JUMPDEST PUSH2 0x1EC PUSH2 0xBE2 JUMP JUMPDEST PUSH2 0x1F6 PUSH1 0x0 PUSH2 0xCC2 JUMP JUMPDEST JUMP JUMPDEST PUSH2 0x200 PUSH2 0xBE2 JUMP JUMPDEST PUSH2 0x208 PUSH2 0xD86 JUMP JUMPDEST JUMP JUMPDEST PUSH2 0x212 PUSH2 0xE84 JUMP JUMPDEST PUSH1 0x1 PUSH1 0x0 DUP4 PUSH20 0xFFFFFFFFFFFFFFFFFFFFFFFFFFFFFFFFFFFFFFFF AND PUSH20 0xFFFFFFFFFFFFFFFFFFFFFFFFFFFFFFFFFFFFFFFF AND DUP2 MSTORE PUSH1 0x20 ADD SWAP1 DUP2 MSTORE PUSH1 0x20 ADD PUSH1 0x0 KECCAK256 PUSH1 0x40 MLOAD DUP1 PUSH1 0x40 ADD PUSH1 0x40 MSTORE SWAP1 DUP2 PUSH1 0x0 DUP3 ADD SLOAD DUP2 MSTORE PUSH1 0x20 ADD PUSH1 0x1 DUP3 ADD SLOAD DUP2 MSTORE POP POP SWAP1 POP SWAP2 SWAP1 POP JUMP JUMPDEST PUSH1 0x0 PUSH1 0x1 PUSH1 0x0 CALLER PUSH20 0xFFFFFFFFFFFFFFFFFFFFFFFFFFFFFFFFFFFFFFFF AND PUSH20 0xFFFFFFFFFFFFFFFFFFFFFFFFFFFFFFFFFFFFFFFF AND DUP2 MSTORE PUSH1 0x20 ADD SWAP1 DUP2 MSTORE PUSH1 0x20 ADD PUSH1 0x0 KECCAK256 PUSH1 0x0 ADD SLOAD GT PUSH2 0x2FC JUMPI PUSH1 0x40 MLOAD PUSH32 0x8C379A000000000000000000000000000000000000000000000000000000000 DUP2 MSTORE PUSH1 0x4 ADD PUSH2 0x2F3 SWAP1 PUSH2 0x10D1 JUMP JUMPDEST PUSH1 0x40 MLOAD DUP1 SWAP2 SUB SWAP1 REVERT JUMPDEST PUSH1 0x0 PUSH1 0x1 PUSH1 0x0 CALLER PUSH20 0xFFFFFFFFFFFFFFFFFFFFFFFFFFFFFFFFFFFFFFFF AND PUSH20 0xFFFFFFFFFFFFFFFFFFFFFFFFFFFFFFFFFFFFFFFF AND DUP2 MSTORE PUSH1 0x20 ADD SWAP1 DUP2 MSTORE PUSH1 0x20 ADD PUSH1 0x0 KECCAK256 PUSH1 0x0 ADD SLOAD SWAP1 POP PUSH1 0x6 PUSH1 0x0 SWAP1 SLOAD SWAP1 PUSH2 0x100 EXP SWAP1 DIV PUSH20 0xFFFFFFFFFFFFFFFFFFFFFFFFFFFFFFFFFFFFFFFF AND PUSH20 0xFFFFFFFFFFFFFFFFFFFFFFFFFFFFFFFFFFFFFFFF AND PUSH4 0x69328DEC PUSH1 0x3 PUSH1 0x0 SWAP1 SLOAD SWAP1 PUSH2 0x100 EXP SWAP1 DIV PUSH20 0xFFFFFFFFFFFFFFFFFFFFFFFFFFFFFFFFFFFFFFFF AND DUP4 CALLER PUSH1 0x40 MLOAD DUP5 PUSH4 0xFFFFFFFF AND PUSH1 0xE0 SHL DUP2 MSTORE PUSH1 0x4 ADD PUSH2 0x3C4 SWAP4 SWAP3 SWAP2 SWAP1 PUSH2 0x10F1 JUMP JUMPDEST PUSH1 0x0 PUSH1 0x40 MLOAD DUP1 DUP4 SUB DUP2 PUSH1 0x0 DUP8 DUP1 EXTCODESIZE ISZERO DUP1 ISZERO PUSH2 0x3DE JUMPI PUSH1 0x0 DUP1 REVERT JUMPDEST POP GAS CALL ISZERO DUP1 ISZERO PUSH2 0x3F2 JUMPI RETURNDATASIZE PUSH1 0x0 DUP1 RETURNDATACOPY RETURNDATASIZE PUSH1 0x0 REVERT JUMPDEST POP POP POP POP PUSH1 0x0 PUSH1 0x1 PUSH1 0x0 CALLER PUSH20 0xFFFFFFFFFFFFFFFFFFFFFFFFFFFFFFFFFFFFFFFF AND PUSH20 0xFFFFFFFFFFFFFFFFFFFFFFFFFFFFFFFFFFFFFFFF AND DUP2 MSTORE PUSH1 0x20 ADD SWAP1 DUP2 MSTORE PUSH1 0x20 ADD PUSH1 0x0 KECCAK256 PUSH1 0x0 ADD DUP2 SWAP1 SSTORE POP DUP1 PUSH1 0x1 PUSH1 0x0 CALLER PUSH20 0xFFFFFFFFFFFFFFFFFFFFFFFFFFFFFFFFFFFFFFFF AND PUSH20 0xFFFFFFFFFFFFFFFFFFFFFFFFFFFFFFFFFFFFFFFF AND DUP2 MSTORE PUSH1 0x20 ADD SWAP1 DUP2 MSTORE PUSH1 0x20 ADD PUSH1 0x0 KECCAK256 PUSH1 0x1 ADD PUSH1 0x0 DUP3 DUP3 SLOAD PUSH2 0x490 SWAP2 SWAP1 PUSH2 0x1157 JUMP JUMPDEST SWAP3 POP POP DUP2 SWAP1 SSTORE POP DUP1 PUSH1 0x2 PUSH1 0x0 DUP3 DUP3 SLOAD PUSH2 0x4A9 SWAP2 SWAP1 PUSH2 0x11AD JUMP JUMPDEST SWAP3 POP POP DUP2 SWAP1 SSTORE POP POP JUMP JUMPDEST PUSH1 0x0 DUP1 PUSH1 0x0 SWAP1 SLOAD SWAP1 PUSH2 0x100 EXP SWAP1 DIV PUSH20 0xFFFFFFFFFFFFFFFFFFFFFFFFFFFFFFFFFFFFFFFF AND SWAP1 POP SWAP1 JUMP JUMPDEST PUSH1 0x0 DUP1 PUSH1 0x4 PUSH1 0x0 SWAP1 SLOAD SWAP1 PUSH2 0x100 EXP SWAP1 DIV PUSH20 0xFFFFFFFFFFFFFFFFFFFFFFFFFFFFFFFFFFFFFFFF AND PUSH20 0xFFFFFFFFFFFFFFFFFFFFFFFFFFFFFFFFFFFFFFFF AND PUSH4 0x70A08231 ADDRESS PUSH1 0x40 MLOAD DUP3 PUSH4 0xFFFFFFFF AND PUSH1 0xE0 SHL DUP2 MSTORE PUSH1 0x4 ADD PUSH2 0x53A SWAP2 SWAP1 PUSH2 0x1000 JUMP JUMPDEST PUSH1 0x20 PUSH1 0x40 MLOAD DUP1 DUP4 SUB DUP2 DUP7 GAS STATICCALL ISZERO DUP1 ISZERO PUSH2 0x557 JUMPI RETURNDATASIZE PUSH1 0x0 DUP1 RETURNDATACOPY RETURNDATASIZE PUSH1 0x0 REVERT JUMPDEST POP POP POP POP PUSH1 0x40 MLOAD RETURNDATASIZE PUSH1 0x1F NOT PUSH1 0x1F DUP3 ADD AND DUP3 ADD DUP1 PUSH1 0x40 MSTORE POP DUP2 ADD SWAP1 PUSH2 0x57B SWAP2 SWAP1 PUSH2 0x11F6 JUMP JUMPDEST SWAP1 POP PUSH1 0x0 PUSH3 0xF4240 PUSH1 0x32 PUSH1 0x5 PUSH1 0x0 SWAP1 SLOAD SWAP1 PUSH2 0x100 EXP SWAP1 DIV PUSH20 0xFFFFFFFFFFFFFFFFFFFFFFFFFFFFFFFFFFFFFFFF AND PUSH20 0xFFFFFFFFFFFFFFFFFFFFFFFFFFFFFFFFFFFFFFFF AND PUSH4 0x18160DDD PUSH1 0x40 MLOAD DUP2 PUSH4 0xFFFFFFFF AND PUSH1 0xE0 SHL DUP2 MSTORE PUSH1 0x4 ADD PUSH1 0x20 PUSH1 0x40 MLOAD DUP1 DUP4 SUB DUP2 DUP7 GAS STATICCALL ISZERO DUP1 ISZERO PUSH2 0x5F2 JUMPI RETURNDATASIZE PUSH1 0x0 DUP1 RETURNDATACOPY RETURNDATASIZE PUSH1 0x0 REVERT JUMPDEST POP POP POP POP PUSH1 0x40 MLOAD RETURNDATASIZE PUSH1 0x1F NOT PUSH1 0x1F DUP3 ADD AND DUP3 ADD DUP1 PUSH1 0x40 MSTORE POP DUP2 ADD SWAP1 PUSH2 0x616 SWAP2 SWAP1 PUSH2 0x11F6 JUMP JUMPDEST PUSH2 0x620 SWAP2 SWAP1 PUSH2 0x1223 JUMP JUMPDEST PUSH2 0x62A SWAP2 SWAP1 PUSH2 0x1223 JUMP JUMPDEST SWAP1 POP PUSH1 0x2 SLOAD DUP2 DUP4 PUSH2 0x63B SWAP2 SWAP1 PUSH2 0x11AD JUMP JUMPDEST PUSH2 0x645 SWAP2 SWAP1 PUSH2 0x11AD JUMP JUMPDEST SWAP3 POP POP POP SWAP1 JUMP JUMPDEST PUSH2 0x654 PUSH2 0xBE2 JUMP JUMPDEST PUSH1 0x0 PUSH20 0xFFFFFFFFFFFFFFFFFFFFFFFFFFFFFFFFFFFFFFFF AND DUP2 PUSH20 0xFFFFFFFFFFFFFFFFFFFFFFFFFFFFFFFFFFFFFFFF AND SUB PUSH2 0x6C3 JUMPI PUSH1 0x40 MLOAD PUSH32 0x8C379A000000000000000000000000000000000000000000000000000000000 DUP2 MSTORE PUSH1 0x4 ADD PUSH2 0x6BA SWAP1 PUSH2 0x12EF JUMP JUMPDEST PUSH1 0x40 MLOAD DUP1 SWAP2 SUB SWAP1 REVERT JUMPDEST PUSH2 0x6CC DUP2 PUSH2 0xCC2 JUMP JUMPDEST POP JUMP JUMPDEST PUSH1 0x0 PUSH1 0x32 DUP3 PUSH2 0x6DE SWAP2 SWAP1 PUSH2 0x133E JUMP JUMPDEST EQ PUSH2 0x71E JUMPI PUSH1 0x40 MLOAD PUSH32 0x8C379A000000000000000000000000000000000000000000000000000000000 DUP2 MSTORE PUSH1 0x4 ADD PUSH2 0x715 SWAP1 PUSH2 0x13E1 JUMP JUMPDEST PUSH1 0x40 MLOAD DUP1 SWAP2 SUB SWAP1 REVERT JUMPDEST PUSH1 0x3 PUSH1 0x0 SWAP1 SLOAD SWAP1 PUSH2 0x100 EXP SWAP1 DIV PUSH20 0xFFFFFFFFFFFFFFFFFFFFFFFFFFFFFFFFFFFFFFFF AND PUSH20 0xFFFFFFFFFFFFFFFFFFFFFFFFFFFFFFFFFFFFFFFF AND PUSH4 0x70A08231 CALLER PUSH1 0x40 MLOAD DUP3 PUSH4 0xFFFFFFFF AND PUSH1 0xE0 SHL DUP2 MSTORE PUSH1 0x4 ADD PUSH2 0x779 SWAP2 SWAP1 PUSH2 0x1000 JUMP JUMPDEST PUSH1 0x20 PUSH1 0x40 MLOAD DUP1 DUP4 SUB DUP2 DUP7 GAS STATICCALL ISZERO DUP1 ISZERO PUSH2 0x796 JUMPI RETURNDATASIZE PUSH1 0x0 DUP1 RETURNDATACOPY RETURNDATASIZE PUSH1 0x0 REVERT JUMPDEST POP POP POP POP PUSH1 0x40 MLOAD RETURNDATASIZE PUSH1 0x1F NOT PUSH1 0x1F DUP3 ADD AND DUP3 ADD DUP1 PUSH1 0x40 MSTORE POP DUP2 ADD SWAP1 PUSH2 0x7BA SWAP2 SWAP1 PUSH2 0x11F6 JUMP JUMPDEST PUSH3 0xF4240 DUP3 PUSH2 0x7C9 SWAP2 SWAP1 PUSH2 0x1223 JUMP JUMPDEST GT ISZERO PUSH2 0x80A JUMPI PUSH1 0x40 MLOAD PUSH32 0x8C379A000000000000000000000000000000000000000000000000000000000 DUP2 MSTORE PUSH1 0x4 ADD PUSH2 0x801 SWAP1 PUSH2 0x144D JUMP JUMPDEST PUSH1 0x40 MLOAD DUP1 SWAP2 SUB SWAP1 REVERT JUMPDEST PUSH1 0x3 PUSH1 0x0 SWAP1 SLOAD SWAP1 PUSH2 0x100 EXP SWAP1 DIV PUSH20 0xFFFFFFFFFFFFFFFFFFFFFFFFFFFFFFFFFFFFFFFF AND PUSH20 0xFFFFFFFFFFFFFFFFFFFFFFFFFFFFFFFFFFFFFFFF AND PUSH4 0xDD62ED3E CALLER ADDRESS PUSH1 0x40 MLOAD DUP4 PUSH4 0xFFFFFFFF AND PUSH1 0xE0 SHL DUP2 MSTORE PUSH1 0x4 ADD PUSH2 0x867 SWAP3 SWAP2 SWAP1 PUSH2 0x146D JUMP JUMPDEST PUSH1 0x20 PUSH1 0x40 MLOAD DUP1 DUP4 SUB DUP2 DUP7 GAS STATICCALL ISZERO DUP1 ISZERO PUSH2 0x884 JUMPI RETURNDATASIZE PUSH1 0x0 DUP1 RETURNDATACOPY RETURNDATASIZE PUSH1 0x0 REVERT JUMPDEST POP POP POP POP PUSH1 0x40 MLOAD RETURNDATASIZE PUSH1 0x1F NOT PUSH1 0x1F DUP3 ADD AND DUP3 ADD DUP1 PUSH1 0x40 MSTORE POP DUP2 ADD SWAP1 PUSH2 0x8A8 SWAP2 SWAP1 PUSH2 0x11F6 JUMP JUMPDEST PUSH3 0xF4240 DUP3 PUSH2 0x8B7 SWAP2 SWAP1 PUSH2 0x1223 JUMP JUMPDEST GT ISZERO PUSH2 0x8F8 JUMPI PUSH1 0x40 MLOAD PUSH32 0x8C379A000000000000000000000000000000000000000000000000000000000 DUP2 MSTORE PUSH1 0x4 ADD PUSH2 0x8EF SWAP1 PUSH2 0x14E2 JUMP JUMPDEST PUSH1 0x40 MLOAD DUP1 SWAP2 SUB SWAP1 REVERT JUMPDEST PUSH1 0x0 PUSH1 0x32 DUP3 PUSH2 0x907 SWAP2 SWAP1 PUSH2 0x1502 JUMP JUMPDEST SWAP1 POP PUSH1 0x3 PUSH1 0x0 SWAP1 SLOAD SWAP1 PUSH2 0x100 EXP SWAP1 DIV PUSH20 0xFFFFFFFFFFFFFFFFFFFFFFFFFFFFFFFFFFFFFFFF AND PUSH20 0xFFFFFFFFFFFFFFFFFFFFFFFFFFFFFFFFFFFFFFFF AND PUSH4 0x23B872DD CALLER ADDRESS PUSH3 0xF4240 DUP7 PUSH2 0x958 SWAP2 SWAP1 PUSH2 0x1223 JUMP JUMPDEST PUSH1 0x40 MLOAD DUP5 PUSH4 0xFFFFFFFF AND PUSH1 0xE0 SHL DUP2 MSTORE PUSH1 0x4 ADD PUSH2 0x976 SWAP4 SWAP3 SWAP2 SWAP1 PUSH2 0x1533 JUMP JUMPDEST PUSH1 0x20 PUSH1 0x40 MLOAD DUP1 DUP4 SUB DUP2 PUSH1 0x0 DUP8 GAS CALL ISZERO DUP1 ISZERO PUSH2 0x995 JUMPI RETURNDATASIZE PUSH1 0x0 DUP1 RETURNDATACOPY RETURNDATASIZE PUSH1 0x0 REVERT JUMPDEST POP POP POP POP PUSH1 0x40 MLOAD RETURNDATASIZE PUSH1 0x1F NOT PUSH1 0x1F DUP3 ADD AND DUP3 ADD DUP1 PUSH1 0x40 MSTORE POP DUP2 ADD SWAP1 PUSH2 0x9B9 SWAP2 SWAP1 PUSH2 0x1596 JUMP JUMPDEST POP PUSH1 0x3 PUSH1 0x0 SWAP1 SLOAD SWAP1 PUSH2 0x100 EXP SWAP1 DIV PUSH20 0xFFFFFFFFFFFFFFFFFFFFFFFFFFFFFFFFFFFFFFFF AND PUSH20 0xFFFFFFFFFFFFFFFFFFFFFFFFFFFFFFFFFFFFFFFF AND PUSH4 0x95EA7B3 PUSH1 0x6 PUSH1 0x0 SWAP1 SLOAD SWAP1 PUSH2 0x100 EXP SWAP1 DIV PUSH20 0xFFFFFFFFFFFFFFFFFFFFFFFFFFFFFFFFFFFFFFFF AND PUSH3 0xF4240 DUP6 PUSH2 0xA2A SWAP2 SWAP1 PUSH2 0x1223 JUMP JUMPDEST PUSH1 0x40 MLOAD DUP4 PUSH4 0xFFFFFFFF AND PUSH1 0xE0 SHL DUP2 MSTORE PUSH1 0x4 ADD PUSH2 0xA47 SWAP3 SWAP2 SWAP1 PUSH2 0x15C3 JUMP JUMPDEST PUSH1 0x20 PUSH1 0x40 MLOAD DUP1 DUP4 SUB DUP2 PUSH1 0x0 DUP8 GAS CALL ISZERO DUP1 ISZERO PUSH2 0xA66 JUMPI RETURNDATASIZE PUSH1 0x0 DUP1 RETURNDATACOPY RETURNDATASIZE PUSH1 0x0 REVERT JUMPDEST POP POP POP POP PUSH1 0x40 MLOAD RETURNDATASIZE PUSH1 0x1F NOT PUSH1 0x1F DUP3 ADD AND DUP3 ADD DUP1 PUSH1 0x40 MSTORE POP DUP2 ADD SWAP1 PUSH2 0xA8A SWAP2 SWAP1 PUSH2 0x1596 JUMP JUMPDEST POP PUSH1 0x6 PUSH1 0x0 SWAP1 SLOAD SWAP1 PUSH2 0x100 EXP SWAP1 DIV PUSH20 0xFFFFFFFFFFFFFFFFFFFFFFFFFFFFFFFFFFFFFFFF AND PUSH20 0xFFFFFFFFFFFFFFFFFFFFFFFFFFFFFFFFFFFFFFFF AND PUSH4 0x617BA037 PUSH1 0x3 PUSH1 0x0 SWAP1 SLOAD SWAP1 PUSH2 0x100 EXP SWAP1 DIV PUSH20 0xFFFFFFFFFFFFFFFFFFFFFFFFFFFFFFFFFFFFFFFF AND PUSH3 0xF4240 DUP6 PUSH2 0xAFB SWAP2 SWAP1 PUSH2 0x1223 JUMP JUMPDEST ADDRESS PUSH1 0x0 PUSH1 0x40 MLOAD DUP6 PUSH4 0xFFFFFFFF AND PUSH1 0xE0 SHL DUP2 MSTORE PUSH1 0x4 ADD PUSH2 0xB1D SWAP5 SWAP4 SWAP3 SWAP2 SWAP1 PUSH2 0x163F JUMP JUMPDEST PUSH1 0x0 PUSH1 0x40 MLOAD DUP1 DUP4 SUB DUP2 PUSH1 0x0 DUP8 DUP1 EXTCODESIZE ISZERO DUP1 ISZERO PUSH2 0xB37 JUMPI PUSH1 0x0 DUP1 REVERT JUMPDEST POP GAS CALL ISZERO DUP1 ISZERO PUSH2 0xB4B JUMPI RETURNDATASIZE PUSH1 0x0 DUP1 RETURNDATACOPY RETURNDATASIZE PUSH1 0x0 REVERT JUMPDEST POP POP POP POP PUSH1 0x5 PUSH1 0x0 SWAP1 SLOAD SWAP1 PUSH2 0x100 EXP SWAP1 DIV PUSH20 0xFFFFFFFFFFFFFFFFFFFFFFFFFFFFFFFFFFFFFFFF AND PUSH20 0xFFFFFFFFFFFFFFFFFFFFFFFFFFFFFFFFFFFFFFFF AND PUSH4 0x40C10F19 CALLER DUP4 PUSH1 0x40 MLOAD DUP4 PUSH4 0xFFFFFFFF AND PUSH1 0xE0 SHL DUP2 MSTORE PUSH1 0x4 ADD PUSH2 0xBAC SWAP3 SWAP2 SWAP1 PUSH2 0x15C3 JUMP JUMPDEST PUSH1 0x0 PUSH1 0x40 MLOAD DUP1 DUP4 SUB DUP2 PUSH1 0x0 DUP8 DUP1 EXTCODESIZE ISZERO DUP1 ISZERO PUSH2 0xBC6 JUMPI PUSH1 0x0 DUP1 REVERT JUMPDEST POP GAS CALL ISZERO DUP1 ISZERO PUSH2 0xBDA JUMPI RETURNDATASIZE PUSH1 0x0 DUP1 RETURNDATACOPY RETURNDATASIZE PUSH1 0x0 REVERT JUMPDEST POP POP POP POP POP POP JUMP JUMPDEST PUSH2 0xBEA PUSH2 0xDE9 JUMP JUMPDEST PUSH20 0xFFFFFFFFFFFFFFFFFFFFFFFFFFFFFFFFFFFFFFFF AND PUSH2 0xC08 PUSH2 0x4B3 JUMP JUMPDEST PUSH20 0xFFFFFFFFFFFFFFFFFFFFFFFFFFFFFFFFFFFFFFFF AND EQ PUSH2 0xC5E JUMPI PUSH1 0x40 MLOAD PUSH32 0x8C379A000000000000000000000000000000000000000000000000000000000 DUP2 MSTORE PUSH1 0x4 ADD PUSH2 0xC55 SWAP1 PUSH2 0x16D0 JUMP JUMPDEST PUSH1 0x40 MLOAD DUP1 SWAP2 SUB SWAP1 REVERT JUMPDEST JUMP JUMPDEST PUSH2 0xC68 PUSH2 0xDF1 JUMP JUMPDEST PUSH1 0x0 DUP1 PUSH1 0x14 PUSH2 0x100 EXP DUP2 SLOAD DUP2 PUSH1 0xFF MUL NOT AND SWAP1 DUP4 ISZERO ISZERO MUL OR SWAP1 SSTORE POP PUSH32 0x5DB9EE0A495BF2E6FF9C91A7834C1BA4FDD244A5E8AA4E537BD38AEAE4B073AA PUSH2 0xCAB PUSH2 0xDE9 JUMP JUMPDEST PUSH1 0x40 MLOAD PUSH2 0xCB8 SWAP2 SWAP1 PUSH2 0x1000 JUMP JUMPDEST PUSH1 0x40 MLOAD DUP1 SWAP2 SUB SWAP1 LOG1 JUMP JUMPDEST PUSH1 0x0 DUP1 PUSH1 0x0 SWAP1 SLOAD SWAP1 PUSH2 0x100 EXP SWAP1 DIV PUSH20 0xFFFFFFFFFFFFFFFFFFFFFFFFFFFFFFFFFFFFFFFF AND SWAP1 POP DUP2 PUSH1 0x0 DUP1 PUSH2 0x100 EXP DUP2 SLOAD DUP2 PUSH20 0xFFFFFFFFFFFFFFFFFFFFFFFFFFFFFFFFFFFFFFFF MUL NOT AND SWAP1 DUP4 PUSH20 0xFFFFFFFFFFFFFFFFFFFFFFFFFFFFFFFFFFFFFFFF AND MUL OR SWAP1 SSTORE POP DUP2 PUSH20 0xFFFFFFFFFFFFFFFFFFFFFFFFFFFFFFFFFFFFFFFF AND DUP2 PUSH20 0xFFFFFFFFFFFFFFFFFFFFFFFFFFFFFFFFFFFFFFFF AND PUSH32 0x8BE0079C531659141344CD1FD0A4F28419497F9722A3DAAFE3B4186F6B6457E0 PUSH1 0x40 MLOAD PUSH1 0x40 MLOAD DUP1 SWAP2 SUB SWAP1 LOG3 POP POP JUMP JUMPDEST PUSH2 0xD8E PUSH2 0xE3A JUMP JUMPDEST PUSH1 0x1 PUSH1 0x0 PUSH1 0x14 PUSH2 0x100 EXP DUP2 SLOAD DUP2 PUSH1 0xFF MUL NOT AND SWAP1 DUP4 ISZERO ISZERO MUL OR SWAP1 SSTORE POP PUSH32 0x62E78CEA01BEE320CD4E420270B5EA74000D11B0C9F74754EBDBFC544B05A258 PUSH2 0xDD2 PUSH2 0xDE9 JUMP JUMPDEST PUSH1 0x40 MLOAD PUSH2 0xDDF SWAP2 SWAP1 PUSH2 0x1000 JUMP JUMPDEST PUSH1 0x40 MLOAD DUP1 SWAP2 SUB SWAP1 LOG1 JUMP JUMPDEST PUSH1 0x0 CALLER SWAP1 POP SWAP1 JUMP JUMPDEST PUSH2 0xDF9 PUSH2 0x1CE JUMP JUMPDEST PUSH2 0xE38 JUMPI PUSH1 0x40 MLOAD PUSH32 0x8C379A000000000000000000000000000000000000000000000000000000000 DUP2 MSTORE PUSH1 0x4 ADD PUSH2 0xE2F SWAP1 PUSH2 0x173C JUMP JUMPDEST PUSH1 0x40 MLOAD DUP1 SWAP2 SUB SWAP1 REVERT JUMPDEST JUMP JUMPDEST PUSH2 0xE42 PUSH2 0x1CE JUMP JUMPDEST ISZERO PUSH2 0xE82 JUMPI PUSH1 0x40 MLOAD PUSH32 0x8C379A000000000000000000000000000000000000000000000000000000000 DUP2 MSTORE PUSH1 0x4 ADD PUSH2 0xE79 SWAP1 PUSH2 0x17A8 JUMP JUMPDEST PUSH1 0x40 MLOAD DUP1 SWAP2 SUB SWAP1 REVERT JUMPDEST JUMP JUMPDEST PUSH1 0x40 MLOAD DUP1 PUSH1 0x40 ADD PUSH1 0x40 MSTORE DUP1 PUSH1 0x0 DUP2 MSTORE PUSH1 0x20 ADD PUSH1 0x0 DUP2 MSTORE POP SWAP1 JUMP JUMPDEST PUSH1 0x0 DUP2 SWAP1 POP SWAP2 SWAP1 POP JUMP JUMPDEST PUSH2 0xEB1 DUP2 PUSH2 0xE9E JUMP JUMPDEST DUP3 MSTORE POP POP JUMP JUMPDEST PUSH1 0x0 PUSH1 0x20 DUP3 ADD SWAP1 POP PUSH2 0xECC PUSH1 0x0 DUP4 ADD DUP5 PUSH2 0xEA8 JUMP JUMPDEST SWAP3 SWAP2 POP POP JUMP JUMPDEST PUSH1 0x0 DUP2 ISZERO ISZERO SWAP1 POP SWAP2 SWAP1 POP JUMP JUMPDEST PUSH2 0xEE7 DUP2 PUSH2 0xED2 JUMP JUMPDEST DUP3 MSTORE POP POP JUMP JUMPDEST PUSH1 0x0 PUSH1 0x20 DUP3 ADD SWAP1 POP PUSH2 0xF02 PUSH1 0x0 DUP4 ADD DUP5 PUSH2 0xEDE JUMP JUMPDEST SWAP3 SWAP2 POP POP JUMP JUMPDEST PUSH1 0x0 DUP1 REVERT JUMPDEST PUSH1 0x0 PUSH20 0xFFFFFFFFFFFFFFFFFFFFFFFFFFFFFFFFFFFFFFFF DUP3 AND SWAP1 POP SWAP2 SWAP1 POP JUMP JUMPDEST PUSH1 0x0 PUSH2 0xF38 DUP3 PUSH2 0xF0D JUMP JUMPDEST SWAP1 POP SWAP2 SWAP1 POP JUMP JUMPDEST PUSH2 0xF48 DUP2 PUSH2 0xF2D JUMP JUMPDEST DUP2 EQ PUSH2 0xF53 JUMPI PUSH1 0x0 DUP1 REVERT JUMPDEST POP JUMP JUMPDEST PUSH1 0x0 DUP2 CALLDATALOAD SWAP1 POP PUSH2 0xF65 DUP2 PUSH2 0xF3F JUMP JUMPDEST SWAP3 SWAP2 POP POP JUMP JUMPDEST PUSH1 0x0 PUSH1 0x20 DUP3 DUP5 SUB SLT ISZERO PUSH2 0xF81 JUMPI PUSH2 0xF80 PUSH2 0xF08 JUMP JUMPDEST JUMPDEST PUSH1 0x0 PUSH2 0xF8F DUP5 DUP3 DUP6 ADD PUSH2 0xF56 JUMP JUMPDEST SWAP2 POP POP SWAP3 SWAP2 POP POP JUMP JUMPDEST PUSH2 0xFA1 DUP2 PUSH2 0xE9E JUMP JUMPDEST DUP3 MSTORE POP POP JUMP JUMPDEST PUSH1 0x40 DUP3 ADD PUSH1 0x0 DUP3 ADD MLOAD PUSH2 0xFBD PUSH1 0x0 DUP6 ADD DUP3 PUSH2 0xF98 JUMP JUMPDEST POP PUSH1 0x20 DUP3 ADD MLOAD PUSH2 0xFD0 PUSH1 0x20 DUP6 ADD DUP3 PUSH2 0xF98 JUMP JUMPDEST POP POP POP POP JUMP JUMPDEST PUSH1 0x0 PUSH1 0x40 DUP3 ADD SWAP1 POP PUSH2 0xFEB PUSH1 0x0 DUP4 ADD DUP5 PUSH2 0xFA7 JUMP JUMPDEST SWAP3 SWAP2 POP POP JUMP JUMPDEST PUSH2 0xFFA DUP2 PUSH2 0xF2D JUMP JUMPDEST DUP3 MSTORE POP POP JUMP JUMPDEST PUSH1 0x0 PUSH1 0x20 DUP3 ADD SWAP1 POP PUSH2 0x1015 PUSH1 0x0 DUP4 ADD DUP5 PUSH2 0xFF1 JUMP JUMPDEST SWAP3 SWAP2 POP POP JUMP JUMPDEST PUSH2 0x1024 DUP2 PUSH2 0xE9E JUMP JUMPDEST DUP2 EQ PUSH2 0x102F JUMPI PUSH1 0x0 DUP1 REVERT JUMPDEST POP JUMP JUMPDEST PUSH1 0x0 DUP2 CALLDATALOAD SWAP1 POP PUSH2 0x1041 DUP2 PUSH2 0x101B JUMP JUMPDEST SWAP3 SWAP2 POP POP JUMP JUMPDEST PUSH1 0x0 PUSH1 0x20 DUP3 DUP5 SUB SLT ISZERO PUSH2 0x105D JUMPI PUSH2 0x105C PUSH2 0xF08 JUMP JUMPDEST JUMPDEST PUSH1 0x0 PUSH2 0x106B DUP5 DUP3 DUP6 ADD PUSH2 0x1032 JUMP JUMPDEST SWAP2 POP POP SWAP3 SWAP2 POP POP JUMP JUMPDEST PUSH1 0x0 DUP3 DUP3 MSTORE PUSH1 0x20 DUP3 ADD SWAP1 POP SWAP3 SWAP2 POP POP JUMP JUMPDEST PUSH32 0x5468657265206973206E6F2070656E64696E672077696E6E696E677321000000 PUSH1 0x0 DUP3 ADD MSTORE POP JUMP JUMPDEST PUSH1 0x0 PUSH2 0x10BB PUSH1 0x1D DUP4 PUSH2 0x1074 JUMP JUMPDEST SWAP2 POP PUSH2 0x10C6 DUP3 PUSH2 0x1085 JUMP JUMPDEST PUSH1 0x20 DUP3 ADD SWAP1 POP SWAP2 SWAP1 POP JUMP JUMPDEST PUSH1 0x0 PUSH1 0x20 DUP3 ADD SWAP1 POP DUP2 DUP2 SUB PUSH1 0x0 DUP4 ADD MSTORE PUSH2 0x10EA DUP2 PUSH2 0x10AE JUMP JUMPDEST SWAP1 POP SWAP2 SWAP1 POP JUMP JUMPDEST PUSH1 0x0 PUSH1 0x60 DUP3 ADD SWAP1 POP PUSH2 0x1106 PUSH1 0x0 DUP4 ADD DUP7 PUSH2 0xFF1 JUMP JUMPDEST PUSH2 0x1113 PUSH1 0x20 DUP4 ADD DUP6 PUSH2 0xEA8 JUMP JUMPDEST PUSH2 0x1120 PUSH1 0x40 DUP4 ADD DUP5 PUSH2 0xFF1 JUMP JUMPDEST SWAP5 SWAP4 POP POP POP POP JUMP JUMPDEST PUSH32 0x4E487B7100000000000000000000000000000000000000000000000000000000 PUSH1 0x0 MSTORE PUSH1 0x11 PUSH1 0x4 MSTORE PUSH1 0x24 PUSH1 0x0 REVERT JUMPDEST PUSH1 0x0 PUSH2 0x1162 DUP3 PUSH2 0xE9E JUMP JUMPDEST SWAP2 POP PUSH2 0x116D DUP4 PUSH2 0xE9E JUMP JUMPDEST SWAP3 POP DUP3 PUSH32 0xFFFFFFFFFFFFFFFFFFFFFFFFFFFFFFFFFFFFFFFFFFFFFFFFFFFFFFFFFFFFFFFF SUB DUP3 GT ISZERO PUSH2 0x11A2 JUMPI PUSH2 0x11A1 PUSH2 0x1128 JUMP JUMPDEST JUMPDEST DUP3 DUP3 ADD SWAP1 POP SWAP3 SWAP2 POP POP JUMP JUMPDEST PUSH1 0x0 PUSH2 0x11B8 DUP3 PUSH2 0xE9E JUMP JUMPDEST SWAP2 POP PUSH2 0x11C3 DUP4 PUSH2 0xE9E JUMP JUMPDEST SWAP3 POP DUP3 DUP3 LT ISZERO PUSH2 0x11D6 JUMPI PUSH2 0x11D5 PUSH2 0x1128 JUMP JUMPDEST JUMPDEST DUP3 DUP3 SUB SWAP1 POP SWAP3 SWAP2 POP POP JUMP JUMPDEST PUSH1 0x0 DUP2 MLOAD SWAP1 POP PUSH2 0x11F0 DUP2 PUSH2 0x101B JUMP JUMPDEST SWAP3 SWAP2 POP POP JUMP JUMPDEST PUSH1 0x0 PUSH1 0x20 DUP3 DUP5 SUB SLT ISZERO PUSH2 0x120C JUMPI PUSH2 0x120B PUSH2 0xF08 JUMP JUMPDEST JUMPDEST PUSH1 0x0 PUSH2 0x121A DUP5 DUP3 DUP6 ADD PUSH2 0x11E1 JUMP JUMPDEST SWAP2 POP POP SWAP3 SWAP2 POP POP JUMP JUMPDEST PUSH1 0x0 PUSH2 0x122E DUP3 PUSH2 0xE9E JUMP JUMPDEST SWAP2 POP PUSH2 0x1239 DUP4 PUSH2 0xE9E JUMP JUMPDEST SWAP3 POP DUP2 PUSH32 0xFFFFFFFFFFFFFFFFFFFFFFFFFFFFFFFFFFFFFFFFFFFFFFFFFFFFFFFFFFFFFFFF DIV DUP4 GT DUP3 ISZERO ISZERO AND ISZERO PUSH2 0x1272 JUMPI PUSH2 0x1271 PUSH2 0x1128 JUMP JUMPDEST JUMPDEST DUP3 DUP3 MUL SWAP1 POP SWAP3 SWAP2 POP POP JUMP JUMPDEST PUSH32 0x4F776E61626C653A206E6577206F776E657220697320746865207A65726F2061 PUSH1 0x0 DUP3 ADD MSTORE PUSH32 0x6464726573730000000000000000000000000000000000000000000000000000 PUSH1 0x20 DUP3 ADD MSTORE POP JUMP JUMPDEST PUSH1 0x0 PUSH2 0x12D9 PUSH1 0x26 DUP4 PUSH2 0x1074 JUMP JUMPDEST SWAP2 POP PUSH2 0x12E4 DUP3 PUSH2 0x127D JUMP JUMPDEST PUSH1 0x40 DUP3 ADD SWAP1 POP SWAP2 SWAP1 POP JUMP JUMPDEST PUSH1 0x0 PUSH1 0x20 DUP3 ADD SWAP1 POP DUP2 DUP2 SUB PUSH1 0x0 DUP4 ADD MSTORE PUSH2 0x1308 DUP2 PUSH2 0x12CC JUMP JUMPDEST SWAP1 POP SWAP2 SWAP1 POP JUMP JUMPDEST PUSH32 0x4E487B7100000000000000000000000000000000000000000000000000000000 PUSH1 0x0 MSTORE PUSH1 0x12 PUSH1 0x4 MSTORE PUSH1 0x24 PUSH1 0x0 REVERT JUMPDEST PUSH1 0x0 PUSH2 0x1349 DUP3 PUSH2 0xE9E JUMP JUMPDEST SWAP2 POP PUSH2 0x1354 DUP4 PUSH2 0xE9E JUMP JUMPDEST SWAP3 POP DUP3 PUSH2 0x1364 JUMPI PUSH2 0x1363 PUSH2 0x130F JUMP JUMPDEST JUMPDEST DUP3 DUP3 MOD SWAP1 POP SWAP3 SWAP2 POP POP JUMP JUMPDEST PUSH32 0x54686520616D6F756E74206D7573742062652061206D756C7469706C65206F66 PUSH1 0x0 DUP3 ADD MSTORE PUSH32 0x2035300000000000000000000000000000000000000000000000000000000000 PUSH1 0x20 DUP3 ADD MSTORE POP JUMP JUMPDEST PUSH1 0x0 PUSH2 0x13CB PUSH1 0x23 DUP4 PUSH2 0x1074 JUMP JUMPDEST SWAP2 POP PUSH2 0x13D6 DUP3 PUSH2 0x136F JUMP JUMPDEST PUSH1 0x40 DUP3 ADD SWAP1 POP SWAP2 SWAP1 POP JUMP JUMPDEST PUSH1 0x0 PUSH1 0x20 DUP3 ADD SWAP1 POP DUP2 DUP2 SUB PUSH1 0x0 DUP4 ADD MSTORE PUSH2 0x13FA DUP2 PUSH2 0x13BE JUMP JUMPDEST SWAP1 POP SWAP2 SWAP1 POP JUMP JUMPDEST PUSH32 0x496E737566666963656E7420616D6F756E74206F662055534443000000000000 PUSH1 0x0 DUP3 ADD MSTORE POP JUMP JUMPDEST PUSH1 0x0 PUSH2 0x1437 PUSH1 0x1A DUP4 PUSH2 0x1074 JUMP JUMPDEST SWAP2 POP PUSH2 0x1442 DUP3 PUSH2 0x1401 JUMP JUMPDEST PUSH1 0x20 DUP3 ADD SWAP1 POP SWAP2 SWAP1 POP JUMP JUMPDEST PUSH1 0x0 PUSH1 0x20 DUP3 ADD SWAP1 POP DUP2 DUP2 SUB PUSH1 0x0 DUP4 ADD MSTORE PUSH2 0x1466 DUP2 PUSH2 0x142A JUMP JUMPDEST SWAP1 POP SWAP2 SWAP1 POP JUMP JUMPDEST PUSH1 0x0 PUSH1 0x40 DUP3 ADD SWAP1 POP PUSH2 0x1482 PUSH1 0x0 DUP4 ADD DUP6 PUSH2 0xFF1 JUMP JUMPDEST PUSH2 0x148F PUSH1 0x20 DUP4 ADD DUP5 PUSH2 0xFF1 JUMP JUMPDEST SWAP4 SWAP3 POP POP POP JUMP JUMPDEST PUSH32 0x496E73756666696369656E7420616C6C6F776564205553444300000000000000 PUSH1 0x0 DUP3 ADD MSTORE POP JUMP JUMPDEST PUSH1 0x0 PUSH2 0x14CC PUSH1 0x19 DUP4 PUSH2 0x1074 JUMP JUMPDEST SWAP2 POP PUSH2 0x14D7 DUP3 PUSH2 0x1496 JUMP JUMPDEST PUSH1 0x20 DUP3 ADD SWAP1 POP SWAP2 SWAP1 POP JUMP JUMPDEST PUSH1 0x0 PUSH1 0x20 DUP3 ADD SWAP1 POP DUP2 DUP2 SUB PUSH1 0x0 DUP4 ADD MSTORE PUSH2 0x14FB DUP2 PUSH2 0x14BF JUMP JUMPDEST SWAP1 POP SWAP2 SWAP1 POP JUMP JUMPDEST PUSH1 0x0 PUSH2 0x150D DUP3 PUSH2 0xE9E JUMP JUMPDEST SWAP2 POP PUSH2 0x1518 DUP4 PUSH2 0xE9E JUMP JUMPDEST SWAP3 POP DUP3 PUSH2 0x1528 JUMPI PUSH2 0x1527 PUSH2 0x130F JUMP JUMPDEST JUMPDEST DUP3 DUP3 DIV SWAP1 POP SWAP3 SWAP2 POP POP JUMP JUMPDEST PUSH1 0x0 PUSH1 0x60 DUP3 ADD SWAP1 POP PUSH2 0x1548 PUSH1 0x0 DUP4 ADD DUP7 PUSH2 0xFF1 JUMP JUMPDEST PUSH2 0x1555 PUSH1 0x20 DUP4 ADD DUP6 PUSH2 0xFF1 JUMP JUMPDEST PUSH2 0x1562 PUSH1 0x40 DUP4 ADD DUP5 PUSH2 0xEA8 JUMP JUMPDEST SWAP5 SWAP4 POP POP POP POP JUMP JUMPDEST PUSH2 0x1573 DUP2 PUSH2 0xED2 JUMP JUMPDEST DUP2 EQ PUSH2 0x157E JUMPI PUSH1 0x0 DUP1 REVERT JUMPDEST POP JUMP JUMPDEST PUSH1 0x0 DUP2 MLOAD SWAP1 POP PUSH2 0x1590 DUP2 PUSH2 0x156A JUMP JUMPDEST SWAP3 SWAP2 POP POP JUMP JUMPDEST PUSH1 0x0 PUSH1 0x20 DUP3 DUP5 SUB SLT ISZERO PUSH2 0x15AC JUMPI PUSH2 0x15AB PUSH2 0xF08 JUMP JUMPDEST JUMPDEST PUSH1 0x0 PUSH2 0x15BA DUP5 DUP3 DUP6 ADD PUSH2 0x1581 JUMP JUMPDEST SWAP2 POP POP SWAP3 SWAP2 POP POP JUMP JUMPDEST PUSH1 0x0 PUSH1 0x40 DUP3 ADD SWAP1 POP PUSH2 0x15D8 PUSH1 0x0 DUP4 ADD DUP6 PUSH2 0xFF1 JUMP JUMPDEST PUSH2 0x15E5 PUSH1 0x20 DUP4 ADD DUP5 PUSH2 0xEA8 JUMP JUMPDEST SWAP4 SWAP3 POP POP POP JUMP JUMPDEST PUSH1 0x0 DUP2 SWAP1 POP SWAP2 SWAP1 POP JUMP JUMPDEST PUSH1 0x0 PUSH2 0xFFFF DUP3 AND SWAP1 POP SWAP2 SWAP1 POP JUMP JUMPDEST PUSH1 0x0 DUP2 SWAP1 POP SWAP2 SWAP1 POP JUMP JUMPDEST PUSH1 0x0 PUSH2 0x1629 PUSH2 0x1624 PUSH2 0x161F DUP5 PUSH2 0x15EC JUMP JUMPDEST PUSH2 0x1604 JUMP JUMPDEST PUSH2 0x15F6 JUMP JUMPDEST SWAP1 POP SWAP2 SWAP1 POP JUMP JUMPDEST PUSH2 0x1639 DUP2 PUSH2 0x160E JUMP JUMPDEST DUP3 MSTORE POP POP JUMP JUMPDEST PUSH1 0x0 PUSH1 0x80 DUP3 ADD SWAP1 POP PUSH2 0x1654 PUSH1 0x0 DUP4 ADD DUP8 PUSH2 0xFF1 JUMP JUMPDEST PUSH2 0x1661 PUSH1 0x20 DUP4 ADD DUP7 PUSH2 0xEA8 JUMP JUMPDEST PUSH2 0x166E PUSH1 0x40 DUP4 ADD DUP6 PUSH2 0xFF1 JUMP JUMPDEST PUSH2 0x167B PUSH1 0x60 DUP4 ADD DUP5 PUSH2 0x1630 JUMP JUMPDEST SWAP6 SWAP5 POP POP POP POP POP JUMP JUMPDEST PUSH32 0x4F776E61626C653A2063616C6C6572206973206E6F7420746865206F776E6572 PUSH1 0x0 DUP3 ADD MSTORE POP JUMP JUMPDEST PUSH1 0x0 PUSH2 0x16BA PUSH1 0x20 DUP4 PUSH2 0x1074 JUMP JUMPDEST SWAP2 POP PUSH2 0x16C5 DUP3 PUSH2 0x1684 JUMP JUMPDEST PUSH1 0x20 DUP3 ADD SWAP1 POP SWAP2 SWAP1 POP JUMP JUMPDEST PUSH1 0x0 PUSH1 0x20 DUP3 ADD SWAP1 POP DUP2 DUP2 SUB PUSH1 0x0 DUP4 ADD MSTORE PUSH2 0x16E9 DUP2 PUSH2 0x16AD JUMP JUMPDEST SWAP1 POP SWAP2 SWAP1 POP JUMP JUMPDEST PUSH32 0x5061757361626C653A206E6F7420706175736564000000000000000000000000 PUSH1 0x0 DUP3 ADD MSTORE POP JUMP JUMPDEST PUSH1 0x0 PUSH2 0x1726 PUSH1 0x14 DUP4 PUSH2 0x1074 JUMP JUMPDEST SWAP2 POP PUSH2 0x1731 DUP3 PUSH2 0x16F0 JUMP JUMPDEST PUSH1 0x20 DUP3 ADD SWAP1 POP SWAP2 SWAP1 POP JUMP JUMPDEST PUSH1 0x0 PUSH1 0x20 DUP3 ADD SWAP1 POP DUP2 DUP2 SUB PUSH1 0x0 DUP4 ADD MSTORE PUSH2 0x1755 DUP2 PUSH2 0x1719 JUMP JUMPDEST SWAP1 POP SWAP2 SWAP1 POP JUMP JUMPDEST PUSH32 0x5061757361626C653A2070617573656400000000000000000000000000000000 PUSH1 0x0 DUP3 ADD MSTORE POP JUMP JUMPDEST PUSH1 0x0 PUSH2 0x1792 PUSH1 0x10 DUP4 PUSH2 0x1074 JUMP JUMPDEST SWAP2 POP PUSH2 0x179D DUP3 PUSH2 0x175C JUMP JUMPDEST PUSH1 0x20 DUP3 ADD SWAP1 POP SWAP2 SWAP1 POP JUMP JUMPDEST PUSH1 0x0 PUSH1 0x20 DUP3 ADD SWAP1 POP DUP2 DUP2 SUB PUSH1 0x0 DUP4 ADD MSTORE PUSH2 0x17C1 DUP2 PUSH2 0x1785 JUMP JUMPDEST SWAP1 POP SWAP2 SWAP1 POP JUMP INVALID LOG2 PUSH5 0x6970667358 0x22 SLT KECCAK256 PUSH7 0xD1DEB2AD091975 ISZERO 0xB2 0xA9 PUSH27 0xB41B6B2FE16A0D0B0D3560F9D23BB3333D00DE0864736F6C634300 ADDMOD 0xF STOP CALLER "},"methodIdentifiers":{"claimFromPool()":"8d44f13b","depositOnAave(uint256)":"fd8d1909","getGlobalPrizePool()":"b4ace158","getWinningsPerPlayer(address)":"8ad2e864","globalPendingWinnings()":"41944175","owner()":"8da5cb5b","pause()":"8456cb59","paused()":"5c975abb","renounceOwnership()":"715018a6","transferOwnership(address)":"f2fde38b","unpause()":"3f4ba83a"}}}}}