{"contracts/InterpoolContract.sol":{"InterpoolContract":{"abi":[{"inputs":[],"stateMutability":"nonpayable","type":"constructor"},{"anonymous":false,"inputs":[{"indexed":true,"internalType":"address","name":"previousOwner","type":"address"},{"indexed":true,"internalType":"address","name":"newOwner","type":"address"}],"name":"OwnershipTransferred","type":"event"},{"anonymous":false,"inputs":[{"indexed":false,"internalType":"address","name":"account","type":"address"}],"name":"Paused","type":"event"},{"anonymous":false,"inputs":[{"indexed":false,"internalType":"address","name":"account","type":"address"}],"name":"Unpaused","type":"event"},{"inputs":[],"name":"claimFromPool","outputs":[],"stateMutability":"nonpayable","type":"function"},{"inputs":[{"internalType":"uint256","name":"_leagueId","type":"uint256"},{"internalType":"string[]","name":"_listRequestId","type":"string[]"},{"internalType":"uint256","name":"_dateEndContest","type":"uint256"}],"name":"createContest","outputs":[],"stateMutability":"nonpayable","type":"function"},{"inputs":[{"internalType":"uint256","name":"_amount","type":"uint256"}],"name":"depositOnAave","outputs":[],"stateMutability":"nonpayable","type":"function"},{"inputs":[],"name":"getContestPredictionEndDate","outputs":[{"internalType":"uint256","name":"","type":"uint256"}],"stateMutability":"view","type":"function"},{"inputs":[{"internalType":"uint256","name":"_contestId","type":"uint256"}],"name":"getContestTable","outputs":[{"components":[{"internalType":"address","name":"player","type":"address"},{"internalType":"uint256","name":"nbTickets","type":"uint256"},{"internalType":"uint256","name":"score","type":"uint256"},{"internalType":"uint256","name":"rankExAequo","type":"uint256"},{"internalType":"uint256","name":"rewardPerRankPerPlayer","type":"uint256"}],"internalType":"struct InterpoolContract.ContestResult[]","name":"","type":"tuple[]"}],"stateMutability":"view","type":"function"},{"inputs":[],"name":"getCurrentContestId","outputs":[{"internalType":"uint256","name":"","type":"uint256"}],"stateMutability":"view","type":"function"},{"inputs":[],"name":"getGlobalPrizePool","outputs":[{"internalType":"uint256","name":"","type":"uint256"}],"stateMutability":"view","type":"function"},{"inputs":[{"internalType":"uint256","name":"_contestId","type":"uint256"}],"name":"getListGamesPerContest","outputs":[{"components":[{"internalType":"uint32","name":"gameId","type":"uint32"},{"internalType":"string","name":"homeTeam","type":"string"},{"internalType":"string","name":"awayTeam","type":"string"}],"internalType":"struct InterpoolContract.GameInfo[]","name":"","type":"tuple[]"}],"stateMutability":"view","type":"function"},{"inputs":[{"internalType":"uint256","name":"_contestId","type":"uint256"}],"name":"getNumberOfPlayers","outputs":[{"internalType":"uint256","name":"","type":"uint256"}],"stateMutability":"view","type":"function"},{"inputs":[{"internalType":"uint256","name":"_contestId","type":"uint256"},{"internalType":"address","name":"_player","type":"address"}],"name":"getPlayerRank","outputs":[{"internalType":"uint256","name":"","type":"uint256"}],"stateMutability":"view","type":"function"},{"inputs":[{"internalType":"uint256","name":"_contestId","type":"uint256"},{"internalType":"address","name":"_player","type":"address"}],"name":"getPrevisionsPerPlayerPerContest","outputs":[{"components":[{"internalType":"uint32","name":"gameId","type":"uint32"},{"internalType":"uint8","name":"homeScore","type":"uint8"},{"internalType":"uint8","name":"awayScore","type":"uint8"}],"internalType":"struct InterpoolContract.GamePredict[]","name":"","type":"tuple[]"}],"stateMutability":"view","type":"function"},{"inputs":[{"internalType":"uint256","name":"_contestId","type":"uint256"}],"name":"getScoreTable","outputs":[{"components":[{"internalType":"address","name":"player","type":"address"},{"internalType":"uint256","name":"nbTickets","type":"uint256"},{"internalType":"uint256","name":"score","type":"uint256"}],"internalType":"struct InterpoolContract.PlayerScoreTicket[]","name":"","type":"tuple[]"}],"stateMutability":"view","type":"function"},{"inputs":[{"internalType":"address","name":"_player","type":"address"}],"name":"getWinningsPerPlayer","outputs":[{"components":[{"internalType":"uint256","name":"pendingWinnings","type":"uint256"},{"internalType":"uint256","name":"claimedWinnings","type":"uint256"}],"internalType":"struct IpPool.Winnings","name":"","type":"tuple"}],"stateMutability":"view","type":"function"},{"inputs":[],"name":"globalPendingWinnings","outputs":[{"internalType":"uint256","name":"","type":"uint256"}],"stateMutability":"view","type":"function"},{"inputs":[],"name":"owner","outputs":[{"internalType":"address","name":"","type":"address"}],"stateMutability":"view","type":"function"},{"inputs":[],"name":"pause","outputs":[],"stateMutability":"nonpayable","type":"function"},{"inputs":[],"name":"paused","outputs":[{"internalType":"bool","name":"","type":"bool"}],"stateMutability":"view","type":"function"},{"inputs":[],"name":"renounceOwnership","outputs":[],"stateMutability":"nonpayable","type":"function"},{"inputs":[{"components":[{"internalType":"uint32","name":"gameId","type":"uint32"},{"internalType":"uint8","name":"homeScore","type":"uint8"},{"internalType":"uint8","name":"awayScore","type":"uint8"}],"internalType":"struct InterpoolContract.GamePredict[]","name":"_gamePredictions","type":"tuple[]"}],"name":"savePrediction","outputs":[],"stateMutability":"nonpayable","type":"function"},{"inputs":[{"internalType":"address","name":"newOwner","type":"address"}],"name":"transferOwnership","outputs":[],"stateMutability":"nonpayable","type":"function"},{"inputs":[],"name":"unpause","outputs":[],"stateMutability":"nonpayable","type":"function"},{"inputs":[{"internalType":"uint256","name":"_contestId","type":"uint256"}],"name":"updateContestTable","outputs":[],"stateMutability":"nonpayable","type":"function"},{"inputs":[{"internalType":"uint256","name":"_nbTickets","type":"uint256"}],"name":"withdraw","outputs":[],"stateMutability":"nonpayable","type":"function"}],"evm":{"bytecode":{"linkReferences":{},"object":"60806040523480156200001157600080fd5b5062000032620000266200021360201b60201c565b6200021b60201b60201c565b60008060146101000a81548160ff02191690831515021790555073a2025b15a1757311bfd68cb14eaefcc237af5b43600360006101000a81548173ffffffffffffffffffffffffffffffffffffffff021916908373ffffffffffffffffffffffffffffffffffffffff16021790555073368eedf3f56ad10b9bc57eed4dac65b26bb667f6600660006101000a81548173ffffffffffffffffffffffffffffffffffffffff021916908373ffffffffffffffffffffffffffffffffffffffff160217905550731ee669290939f8a8864497af3bc83728715265ff600460006101000a81548173ffffffffffffffffffffffffffffffffffffffff021916908373ffffffffffffffffffffffffffffffffffffffff16021790555073d81e4a61fd6bf066539df6ea48bfaeae847dcda1600560006101000a81548173ffffffffffffffffffffffffffffffffffffffff021916908373ffffffffffffffffffffffffffffffffffffffff160217905550600060028190555073973680af677b40128b8c4015e2ef4c0d889ed7b0601060006101000a81548173ffffffffffffffffffffffffffffffffffffffff021916908373ffffffffffffffffffffffffffffffffffffffff1602179055506005600f819055506000600e81905550620002df565b600033905090565b60008060009054906101000a900473ffffffffffffffffffffffffffffffffffffffff169050816000806101000a81548173ffffffffffffffffffffffffffffffffffffffff021916908373ffffffffffffffffffffffffffffffffffffffff1602179055508173ffffffffffffffffffffffffffffffffffffffff168173ffffffffffffffffffffffffffffffffffffffff167f8be0079c531659141344cd1fd0a4f28419497f9722a3daafe3b4186f6b6457e060405160405180910390a35050565b61576880620002ef6000396000f3fe608060405234801561001057600080fd5b506004361061014d5760003560e01c80637e5dd913116100c3578063b4ace1581161007c578063b4ace15814610366578063b66195b814610384578063d6221518146103b4578063f2fde38b146103d0578063fb46bd22146103ec578063fd8d19091461040a5761014d565b80637e5dd913146102b85780638456cb59146102e85780638ad2e864146102f25780638d44f13b146103225780638da5cb5b1461032c5780639fa75e9a1461034a5761014d565b80633f4ba83a116101155780633f4ba83a1461020857806341944175146102125780634fda591e146102305780635c975abb1461026057806362436d9d1461027e578063715018a6146102ae5761014d565b806308af2d7814610152578063117f39981461017057806318699547146101a05780632452a7e3146101bc5780632e1a7d4d146101ec575b600080fd5b61015a610426565b6040516101679190613bc0565b60405180910390f35b61018a60048036038101906101859190613c79565b610446565b6040516101979190613de5565b60405180910390f35b6101ba60048036038101906101b59190614033565b61069d565b005b6101d660048036038101906101d191906140a2565b610785565b6040516101e39190614204565b60405180910390f35b610206600480360381019061020191906140a2565b610875565b005b610210610949565b005b61021a61095b565b6040516102279190613bc0565b60405180910390f35b61024a60048036038101906102459190613c79565b610961565b6040516102579190613bc0565b60405180910390f35b610268610b93565b6040516102759190614241565b60405180910390f35b610298600480360381019061029391906140a2565b610ba9565b6040516102a59190613bc0565b60405180910390f35b6102b6610bc9565b005b6102d260048036038101906102cd91906140a2565b610bdd565b6040516102df91906143fd565b60405180910390f35b6102f0610ec2565b005b61030c6004803603810190610307919061441f565b610ed4565b604051610319919061447b565b60405180910390f35b61032a610f41565b005b61033461117d565b60405161034191906144a5565b60405180910390f35b610364600480360381019061035f9190614644565b6111a6565b005b61036e6116fa565b60405161037b9190613bc0565b60405180910390f35b61039e600480360381019061039991906140a2565b61186a565b6040516103ab919061477e565b60405180910390f35b6103ce60048036038101906103c991906140a2565b611a00565b005b6103ea60048036038101906103e5919061441f565b612088565b005b6103f461210b565b6040516104019190613bc0565b60405180910390f35b610424600480360381019061041f91906140a2565b612115565b005b600060076000600e54815260200190815260200160002060010154905090565b6060600061045384612628565b90506000808267ffffffffffffffff81111561047257610471613e1d565b5b6040519080825280602002602001820160405280156104ab57816020015b610498613a48565b8152602001906001900390816104905790505b50905060008367ffffffffffffffff8111156104ca576104c9613e1d565b5b60405190808252806020026020018201604052801561050357816020015b6104f0613a75565b8152602001906001900390816104e85790505b50905061050f87610bdd565b905060005b8481101561068f5781818151811061052f5761052e6147a0565b5b602002602001015160000151935060405180606001604052808563ffffffff168152602001600a60008a73ffffffffffffffffffffffffffffffffffffffff1673ffffffffffffffffffffffffffffffffffffffff16815260200190815260200160002060008b815260200190815260200160002060008763ffffffff1663ffffffff16815260200190815260200160002060000160009054906101000a900460ff1660ff168152602001600a60008a73ffffffffffffffffffffffffffffffffffffffff1673ffffffffffffffffffffffffffffffffffffffff16815260200190815260200160002060008b815260200190815260200160002060008763ffffffff1663ffffffff16815260200190815260200160002060000160019054906101000a900460ff1660ff16815250838281518110610671576106706147a0565b5b60200260200101819052508080610687906147fe565b915050610514565b508194505050505092915050565b6106a5612744565b600e60008154809291906106b8906147fe565b919050555060005b825181101561073e57600b6000600e5481526020019081526020016000208382815181106106f1576106f06147a0565b5b602002602001015190806001815401808255809150506001900390600052602060002001600090919091909150908161072a9190614a52565b508080610736906147fe565b9150506106c0565b5060405180604001604052808481526020018281525060076000600e5481526020019081526020016000206000820151816000015560208201518160010155905050505050565b6060600c6000838152602001908152602001600020805480602002602001604051908101604052809291908181526020016000905b8282101561086a57838290600052602060002090600502016040518060a00160405290816000820160009054906101000a900473ffffffffffffffffffffffffffffffffffffffff1673ffffffffffffffffffffffffffffffffffffffff1673ffffffffffffffffffffffffffffffffffffffff168152602001600182015481526020016002820154815260200160038201548152602001600482015481525050815260200190600101906107ba565b505050509050919050565b60001515600d6000600e54815260200190815260200160002060003373ffffffffffffffffffffffffffffffffffffffff1673ffffffffffffffffffffffffffffffffffffffff16815260200190815260200160002060009054906101000a900460ff16151514806108fe575060076000600e5481526020019081526020016000206001015442115b61093d576040517f08c379a000000000000000000000000000000000000000000000000000000000815260040161093490614ba7565b60405180910390fd5b610946816127c2565b50565b610951612744565b6109596129ff565b565b60025481565b60008061096d8461186a565b9050600080825190506000808267ffffffffffffffff81111561099357610992613e1d565b5b6040519080825280602002602001820160405280156109cc57816020015b6109b9613a9c565b8152602001906001900390816109b15790505b50905060005b83811015610aee576001945060005b84811015610a4f578681815181106109fc576109fb6147a0565b5b602002602001015160400151878381518110610a1b57610a1a6147a0565b5b6020026020010151604001511015610a3c578580610a38906147fe565b9650505b8080610a47906147fe565b9150506109e1565b506040518060600160405280878381518110610a6e57610a6d6147a0565b5b60200260200101516000015173ffffffffffffffffffffffffffffffffffffffff168152602001878381518110610aa857610aa76147a0565b5b602002602001015160400151815260200186815250828281518110610ad057610acf6147a0565b5b60200260200101819052508080610ae6906147fe565b9150506109d2565b5060005b83811015610b8457818181518110610b0d57610b0c6147a0565b5b60200260200101516000015173ffffffffffffffffffffffffffffffffffffffff168873ffffffffffffffffffffffffffffffffffffffff1603610b7157818181518110610b5e57610b5d6147a0565b5b6020026020010151604001519250610b84565b8080610b7c906147fe565b915050610af2565b50819550505050505092915050565b60008060149054906101000a900460ff16905090565b600060086000838152602001908152602001600020805490509050919050565b610bd1612744565b610bdb6000612a61565b565b60606000610bea83612628565b90506000808267ffffffffffffffff811115610c0957610c08613e1d565b5b604051908082528060200260200182016040528015610c4257816020015b610c2f613a75565b815260200190600190039081610c275790505b50905060005b600b600087815260200190815260200160002080549050811015610eb657601060009054906101000a900473ffffffffffffffffffffffffffffffffffffffff1673ffffffffffffffffffffffffffffffffffffffff1663ea6a0410600b60008981526020019081526020016000208381548110610cc957610cc86147a0565b5b906000526020600020016040518263ffffffff1660e01b8152600401610cef9190614c4b565b602060405180830381865afa158015610d0c573d6000803e3d6000fd5b505050506040513d601f19601f82011682018060405250810190610d309190614c82565b935060005b84811015610ea257601060009054906101000a900473ffffffffffffffffffffffffffffffffffffffff1673ffffffffffffffffffffffffffffffffffffffff1663cdfba66a600b60008a81526020019081526020016000208481548110610da057610d9f6147a0565b5b90600052602060002001836040518363ffffffff1660e01b8152600401610dc8929190614caf565b600060405180830381865afa158015610de5573d6000803e3d6000fd5b505050506040513d6000823e3d601f19601f82011682018060405250810190610e0e9190614d64565b858781518110610e2157610e206147a0565b5b6020026020010151600001868881518110610e3f57610e3e6147a0565b5b6020026020010151602001878981518110610e5d57610e5c6147a0565b5b60200260200101516040018390528390528363ffffffff1663ffffffff168152505050508380610e8c906147fe565b9450508080610e9a906147fe565b915050610d35565b508080610eae906147fe565b915050610c48565b50809350505050919050565b610eca612744565b610ed2612b25565b565b610edc613ad3565b600160008373ffffffffffffffffffffffffffffffffffffffff1673ffffffffffffffffffffffffffffffffffffffff168152602001908152602001600020604051806040016040529081600082015481526020016001820154815250509050919050565b6000600160003373ffffffffffffffffffffffffffffffffffffffff1673ffffffffffffffffffffffffffffffffffffffff1681526020019081526020016000206000015411610fc6576040517f08c379a0000000000000000000000000000000000000000000000000000000008152600401610fbd90614e3b565b60405180910390fd5b6000600160003373ffffffffffffffffffffffffffffffffffffffff1673ffffffffffffffffffffffffffffffffffffffff168152602001908152602001600020600001549050600660009054906101000a900473ffffffffffffffffffffffffffffffffffffffff1673ffffffffffffffffffffffffffffffffffffffff166369328dec600360009054906101000a900473ffffffffffffffffffffffffffffffffffffffff1683336040518463ffffffff1660e01b815260040161108e93929190614e5b565b600060405180830381600087803b1580156110a857600080fd5b505af11580156110bc573d6000803e3d6000fd5b505050506000600160003373ffffffffffffffffffffffffffffffffffffffff1673ffffffffffffffffffffffffffffffffffffffff1681526020019081526020016000206000018190555080600160003373ffffffffffffffffffffffffffffffffffffffff1673ffffffffffffffffffffffffffffffffffffffff168152602001908152602001600020600101600082825461115a9190614e92565b9250508190555080600260008282546111739190614ee8565b9250508190555050565b60008060009054906101000a900473ffffffffffffffffffffffffffffffffffffffff16905090565b6000600560009054906101000a900473ffffffffffffffffffffffffffffffffffffffff1673ffffffffffffffffffffffffffffffffffffffff166370a08231336040518263ffffffff1660e01b815260040161120391906144a5565b602060405180830381865afa158015611220573d6000803e3d6000fd5b505050506040513d601f19601f820116820180604052508101906112449190614c82565b11611284576040517f08c379a000000000000000000000000000000000000000000000000000000000815260040161127b90614f8e565b60405180910390fd5b60076000600e5481526020019081526020016000206001015442106112de576040517f08c379a00000000000000000000000000000000000000000000000000000000081526004016112d590614ffa565b60405180910390fd5b6112e9600e54612628565b81511461132b576040517f08c379a00000000000000000000000000000000000000000000000000000000081526004016113229061508c565b60405180910390fd5b6000611338600e54612628565b90506000600560009054906101000a900473ffffffffffffffffffffffffffffffffffffffff1673ffffffffffffffffffffffffffffffffffffffff166370a08231336040518263ffffffff1660e01b815260040161139791906144a5565b602060405180830381865afa1580156113b4573d6000803e3d6000fd5b505050506040513d601f19601f820116820180604052508101906113d89190614c82565b905060005b82811015611521576040518060400160405280858381518110611403576114026147a0565b5b60200260200101516020015160ff16815260200185838151811061142a576114296147a0565b5b60200260200101516040015160ff16815250600a60003373ffffffffffffffffffffffffffffffffffffffff1673ffffffffffffffffffffffffffffffffffffffff1681526020019081526020016000206000600e54815260200190815260200160002060008684815181106114a3576114a26147a0565b5b60200260200101516000015163ffffffff1663ffffffff16815260200190815260200160002060008201518160000160006101000a81548160ff021916908360ff16021790555060208201518160000160016101000a81548160ff021916908360ff1602179055509050508080611519906147fe565b9150506113dd565b50600080600090505b60086000600e5481526020019081526020016000208054905081101561162a5760086000600e5481526020019081526020016000208181548110611571576115706147a0565b5b906000526020600020906002020160000160009054906101000a900473ffffffffffffffffffffffffffffffffffffffff1673ffffffffffffffffffffffffffffffffffffffff163373ffffffffffffffffffffffffffffffffffffffff1603611613578260086000600e54815260200190815260200160002082815481106115fd576115fc6147a0565b5b9060005260206000209060020201600101819055505b600191508080611622906147fe565b91505061152a565b5060001515811515036116f45760086000600e54815260200190815260200160002060405180604001604052803373ffffffffffffffffffffffffffffffffffffffff16815260200184815250908060018154018082558091505060019003906000526020600020906002020160009091909190915060008201518160000160006101000a81548173ffffffffffffffffffffffffffffffffffffffff021916908373ffffffffffffffffffffffffffffffffffffffff1602179055506020820151816001015550505b50505050565b600080600460009054906101000a900473ffffffffffffffffffffffffffffffffffffffff1673ffffffffffffffffffffffffffffffffffffffff166370a08231306040518263ffffffff1660e01b815260040161175891906144a5565b602060405180830381865afa158015611775573d6000803e3d6000fd5b505050506040513d601f19601f820116820180604052508101906117999190614c82565b90506000620f42406032600560009054906101000a900473ffffffffffffffffffffffffffffffffffffffff1673ffffffffffffffffffffffffffffffffffffffff166318160ddd6040518163ffffffff1660e01b8152600401602060405180830381865afa158015611810573d6000803e3d6000fd5b505050506040513d601f19601f820116820180604052508101906118349190614c82565b61183e91906150ac565b61184891906150ac565b905060025481836118599190614ee8565b6118639190614ee8565b9250505090565b606060006008600084815260200190815260200160002080549050905060008060008367ffffffffffffffff8111156118a6576118a5613e1d565b5b6040519080825280602002602001820160405280156118df57816020015b6118cc613aed565b8152602001906001900390816118c45790505b509050600080600090505b858110156119f257600860008981526020019081526020016000208181548110611917576119166147a0565b5b906000526020600020906002020160000160009054906101000a900473ffffffffffffffffffffffffffffffffffffffff1694506008600089815260200190815260200160002081815481106119705761196f6147a0565b5b906000526020600020906002020160010154935061198e8886612b88565b915060405180606001604052808673ffffffffffffffffffffffffffffffffffffffff168152602001858152602001838152508382815181106119d4576119d36147a0565b5b602002602001018190525080806119ea906147fe565b9150506118ea565b508195505050505050919050565b611a08612744565b600560009054906101000a900473ffffffffffffffffffffffffffffffffffffffff1673ffffffffffffffffffffffffffffffffffffffff166318160ddd6040518163ffffffff1660e01b8152600401602060405180830381865afa158015611a75573d6000803e3d6000fd5b505050506040513d601f19601f82011682018060405250810190611a999190614c82565b60096000838152602001908152602001600020819055506000611abb8261186a565b90506000611ac98383612ff4565b90506000600c60008581526020019081526020016000206040518060a0016040528084600081518110611aff57611afe6147a0565b5b60200260200101516000015173ffffffffffffffffffffffffffffffffffffffff1681526020016001815260200184600081518110611b4157611b406147a0565b5b602002602001015160200151815260200184600081518110611b6657611b656147a0565b5b602002602001015160400151815260200184600081518110611b8b57611b8a6147a0565b5b602002602001015160c00151815250908060018154018082558091505060019003906000526020600020906005020160009091909190915060008201518160000160006101000a81548173ffffffffffffffffffffffffffffffffffffffff021916908373ffffffffffffffffffffffffffffffffffffffff1602179055506020820151816001015560408201518160020155606082015181600301556080820151816004015550506000600190505b6009600086815260200190815260200160002054811015611f125782600182611c649190614ee8565b81518110611c7557611c746147a0565b5b60200260200101516000015173ffffffffffffffffffffffffffffffffffffffff16838281518110611caa57611ca96147a0565b5b60200260200101516000015173ffffffffffffffffffffffffffffffffffffffff1603611d8d57600c60008681526020019081526020016000208281548110611cf657611cf56147a0565b5b90600052602060002090600502016001016000815480929190611d18906147fe565b9190505550828181518110611d3057611d2f6147a0565b5b602002602001015160c00151600c60008781526020019081526020016000208381548110611d6157611d606147a0565b5b90600052602060002090600502016004016000828254611d819190614e92565b92505081905550611eff565b600c60008681526020019081526020016000206040518060a00160405280858481518110611dbe57611dbd6147a0565b5b60200260200101516000015173ffffffffffffffffffffffffffffffffffffffff16815260200160018152602001858481518110611dff57611dfe6147a0565b5b6020026020010151602001518152602001858481518110611e2357611e226147a0565b5b6020026020010151604001518152602001858481518110611e4757611e466147a0565b5b602002602001015160c00151815250908060018154018082558091505060019003906000526020600020906005020160009091909190915060008201518160000160006101000a81548173ffffffffffffffffffffffffffffffffffffffff021916908373ffffffffffffffffffffffffffffffffffffffff1602179055506020820151816001015560408201518160020155606082015181600301556080820151816004015550508180611efb906147fe565b9250505b8080611f0a906147fe565b915050611c3b565b5060005b600c600086815260200190815260200160002080549050811015612081576000600c60008781526020019081526020016000208281548110611f5b57611f5a6147a0565b5b906000526020600020906005020160000160009054906101000a900473ffffffffffffffffffffffffffffffffffffffff169050600c60008781526020019081526020016000208281548110611fb457611fb36147a0565b5b906000526020600020906005020160040154600160008373ffffffffffffffffffffffffffffffffffffffff1673ffffffffffffffffffffffffffffffffffffffff16815260200190815260200160002060000160008282546120179190614e92565b92505081905550600c60008781526020019081526020016000208281548110612043576120426147a0565b5b906000526020600020906005020160040154600260008282546120669190614e92565b92505081905550508080612079906147fe565b915050611f16565b5050505050565b612090612744565b600073ffffffffffffffffffffffffffffffffffffffff168173ffffffffffffffffffffffffffffffffffffffff16036120ff576040517f08c379a00000000000000000000000000000000000000000000000000000000081526004016120f690615178565b60405180910390fd5b61210881612a61565b50565b6000600e54905090565b600060328261212491906151c7565b14612164576040517f08c379a000000000000000000000000000000000000000000000000000000000815260040161215b9061526a565b60405180910390fd5b600360009054906101000a900473ffffffffffffffffffffffffffffffffffffffff1673ffffffffffffffffffffffffffffffffffffffff166370a08231336040518263ffffffff1660e01b81526004016121bf91906144a5565b602060405180830381865afa1580156121dc573d6000803e3d6000fd5b505050506040513d601f19601f820116820180604052508101906122009190614c82565b620f42408261220f91906150ac565b1115612250576040517f08c379a0000000000000000000000000000000000000000000000000000000008152600401612247906152d6565b60405180910390fd5b600360009054906101000a900473ffffffffffffffffffffffffffffffffffffffff1673ffffffffffffffffffffffffffffffffffffffff1663dd62ed3e33306040518363ffffffff1660e01b81526004016122ad9291906152f6565b602060405180830381865afa1580156122ca573d6000803e3d6000fd5b505050506040513d601f19601f820116820180604052508101906122ee9190614c82565b620f4240826122fd91906150ac565b111561233e576040517f08c379a00000000000000000000000000000000000000000000000000000000081526004016123359061536b565b60405180910390fd5b600060328261234d919061538b565b9050600360009054906101000a900473ffffffffffffffffffffffffffffffffffffffff1673ffffffffffffffffffffffffffffffffffffffff166323b872dd3330620f42408661239e91906150ac565b6040518463ffffffff1660e01b81526004016123bc939291906153bc565b6020604051808303816000875af11580156123db573d6000803e3d6000fd5b505050506040513d601f19601f820116820180604052508101906123ff919061541f565b50600360009054906101000a900473ffffffffffffffffffffffffffffffffffffffff1673ffffffffffffffffffffffffffffffffffffffff1663095ea7b3600660009054906101000a900473ffffffffffffffffffffffffffffffffffffffff16620f42408561247091906150ac565b6040518363ffffffff1660e01b815260040161248d92919061544c565b6020604051808303816000875af11580156124ac573d6000803e3d6000fd5b505050506040513d601f19601f820116820180604052508101906124d0919061541f565b50600660009054906101000a900473ffffffffffffffffffffffffffffffffffffffff1673ffffffffffffffffffffffffffffffffffffffff1663617ba037600360009054906101000a900473ffffffffffffffffffffffffffffffffffffffff16620f42408561254191906150ac565b3060006040518563ffffffff1660e01b815260040161256394939291906154be565b600060405180830381600087803b15801561257d57600080fd5b505af1158015612591573d6000803e3d6000fd5b50505050600560009054906101000a900473ffffffffffffffffffffffffffffffffffffffff1673ffffffffffffffffffffffffffffffffffffffff166340c10f1933836040518363ffffffff1660e01b81526004016125f292919061544c565b600060405180830381600087803b15801561260c57600080fd5b505af1158015612620573d6000803e3d6000fd5b505050505050565b6000806000905060005b600b60008581526020019081526020016000208054905081101561273a57601060009054906101000a900473ffffffffffffffffffffffffffffffffffffffff1673ffffffffffffffffffffffffffffffffffffffff1663ea6a0410600b600087815260200190815260200160002083815481106126b3576126b26147a0565b5b906000526020600020016040518263ffffffff1660e01b81526004016126d99190614c4b565b602060405180830381865afa1580156126f6573d6000803e3d6000fd5b505050506040513d601f19601f8201168201806040525081019061271a9190614c82565b826127259190614e92565b91508080612732906147fe565b915050612632565b5080915050919050565b61274c61396c565b73ffffffffffffffffffffffffffffffffffffffff1661276a61117d565b73ffffffffffffffffffffffffffffffffffffffff16146127c0576040517f08c379a00000000000000000000000000000000000000000000000000000000081526004016127b79061554f565b60405180910390fd5b565b80600560009054906101000a900473ffffffffffffffffffffffffffffffffffffffff1673ffffffffffffffffffffffffffffffffffffffff166370a08231336040518263ffffffff1660e01b815260040161281e91906144a5565b602060405180830381865afa15801561283b573d6000803e3d6000fd5b505050506040513d601f19601f8201168201806040525081019061285f9190614c82565b10156128a0576040517f08c379a0000000000000000000000000000000000000000000000000000000008152600401612897906155bb565b60405180910390fd5b600560009054906101000a900473ffffffffffffffffffffffffffffffffffffffff1673ffffffffffffffffffffffffffffffffffffffff16639dc29fac33836040518363ffffffff1660e01b81526004016128fd92919061544c565b600060405180830381600087803b15801561291757600080fd5b505af115801561292b573d6000803e3d6000fd5b50505050600660009054906101000a900473ffffffffffffffffffffffffffffffffffffffff1673ffffffffffffffffffffffffffffffffffffffff166369328dec600360009054906101000a900473ffffffffffffffffffffffffffffffffffffffff16620f42406032856129a191906150ac565b6129ab91906150ac565b336040518463ffffffff1660e01b81526004016129ca93929190614e5b565b600060405180830381600087803b1580156129e457600080fd5b505af11580156129f8573d6000803e3d6000fd5b5050505050565b612a07613974565b60008060146101000a81548160ff0219169083151502179055507f5db9ee0a495bf2e6ff9c91a7834c1ba4fdd244a5e8aa4e537bd38aeae4b073aa612a4a61396c565b604051612a5791906144a5565b60405180910390a1565b60008060009054906101000a900473ffffffffffffffffffffffffffffffffffffffff169050816000806101000a81548173ffffffffffffffffffffffffffffffffffffffff021916908373ffffffffffffffffffffffffffffffffffffffff1602179055508173ffffffffffffffffffffffffffffffffffffffff168173ffffffffffffffffffffffffffffffffffffffff167f8be0079c531659141344cd1fd0a4f28419497f9722a3daafe3b4186f6b6457e060405160405180910390a35050565b612b2d6139bd565b6001600060146101000a81548160ff0219169083151502179055507f62e78cea01bee320cd4e420270b5ea74000d11b0c9f74754ebdbfc544b05a258612b7161396c565b604051612b7e91906144a5565b60405180910390a1565b60008060008060009050600080612b9e88612628565b905060008167ffffffffffffffff811115612bbc57612bbb613e1d565b5b604051908082528060200260200182016040528015612bf557816020015b612be2613a75565b815260200190600190039081612bda5790505b509050612c0189610bdd565b905060005b82811015612fe457818181518110612c2157612c206147a0565b5b6020026020010151600001519350612d33600a60008b73ffffffffffffffffffffffffffffffffffffffff1673ffffffffffffffffffffffffffffffffffffffff16815260200190815260200160002060008c815260200190815260200160002060008663ffffffff1663ffffffff16815260200190815260200160002060000160009054906101000a900460ff16600a60008c73ffffffffffffffffffffffffffffffffffffffff1673ffffffffffffffffffffffffffffffffffffffff16815260200190815260200160002060008d815260200190815260200160002060008763ffffffff1663ffffffff16815260200190815260200160002060000160019054906101000a900460ff16613a07565b9650600080601060009054906101000a900473ffffffffffffffffffffffffffffffffffffffff1673ffffffffffffffffffffffffffffffffffffffff16633c09f3be876040518263ffffffff1660e01b8152600401612d9391906155ea565b6040805180830381865afa158015612daf573d6000803e3d6000fd5b505050506040513d601f19601f82011682018060405250810190612dd3919061561a565b91509150612de18282613a07565b97508789148015612e91575060011515601060009054906101000a900473ffffffffffffffffffffffffffffffffffffffff1673ffffffffffffffffffffffffffffffffffffffff166314ea531d886040518263ffffffff1660e01b8152600401612e4c91906155ea565b602060405180830381865afa158015612e69573d6000803e3d6000fd5b505050506040513d601f19601f82011682018060405250810190612e8d919061541f565b1515145b15612fcf57600187612ea39190614e92565b96508160ff16600a60008d73ffffffffffffffffffffffffffffffffffffffff1673ffffffffffffffffffffffffffffffffffffffff16815260200190815260200160002060008e815260200190815260200160002060008863ffffffff1663ffffffff16815260200190815260200160002060000160009054906101000a900460ff1660ff16148015612fb957508060ff16600a60008d73ffffffffffffffffffffffffffffffffffffffff1673ffffffffffffffffffffffffffffffffffffffff16815260200190815260200160002060008e815260200190815260200160002060008863ffffffff1663ffffffff16815260200190815260200160002060000160019054906101000a900460ff1660ff16145b15612fce57600287612fcb9190614e92565b96505b5b50508080612fdc906147fe565b915050612c06565b5083965050505050505092915050565b6060600080600080806000806130086116fa565b90506000600960008c815260200190815260200160002054905060008167ffffffffffffffff81111561303e5761303d613e1d565b5b60405190808252806020026020018201604052801561307757816020015b613064613b24565b81526020019060019003908161305c5790505b50905060008267ffffffffffffffff81111561309657613095613e1d565b5b6040519080825280602002602001820160405280156130cf57816020015b6130bc613a9c565b8152602001906001900390816130b45790505b50905060008367ffffffffffffffff8111156130ee576130ed613e1d565b5b60405190808252806020026020018201604052801561312757816020015b613114613b54565b81526020019060019003908161310c5790505b50905060005b8d518110156131eb5760008e828151811061314b5761314a6147a0565b5b6020026020010151905060005b81602001518110156131d6576040518060400160405280836000015173ffffffffffffffffffffffffffffffffffffffff1681526020018360400151815250868a815181106131aa576131a96147a0565b5b602002602001018190525088806131c0906147fe565b99505080806131ce906147fe565b915050613158565b505080806131e3906147fe565b91505061312d565b5060005b848110156133175760019b5060005b8581101561327857848181518110613219576132186147a0565b5b602002602001015160200151858381518110613238576132376147a0565b5b6020026020010151602001511015613265578c80613255906147fe565b9d50508b8d1115613264578c9b505b5b8080613270906147fe565b9150506131fe565b506040518060600160405280858381518110613297576132966147a0565b5b60200260200101516000015173ffffffffffffffffffffffffffffffffffffffff1681526020018583815181106132d1576132d06147a0565b5b60200260200101516020015181526020018d8152508382815181106132f9576132f86147a0565b5b6020026020010181905250808061330f906147fe565b9150506131ef565b50600095506000600190505b8a81116134555760005b858110156134415781848281518110613349576133486147a0565b5b6020026020010151604001510361342e576040518060e00160405280858381518110613378576133776147a0565b5b60200260200101516000015173ffffffffffffffffffffffffffffffffffffffff1681526020018583815181106133b2576133b16147a0565b5b60200260200101516020015181526020018583815181106133d6576133d56147a0565b5b60200260200101516040015181526020016000815260200160008152602001600081526020016000815250838981518110613414576134136147a0565b5b6020026020010181905250878061342a906147fe565b9850505b8080613439906147fe565b91505061332d565b50808061344d906147fe565b915050613323565b506064600f548a876134679190614ee8565b61347191906150ac565b61347b919061538b565b965086896134899190614e92565b985086816000815181106134a05761349f6147a0565b5b6020026020010151606001818152505086816000815181106134c5576134c46147a0565b5b6020026020010151608001818152505086816000815181106134ea576134e96147a0565b5b602002602001015160a0018181525050868160008151811061350f5761350e6147a0565b5b602002602001015160c00181815250506000600190505b84811015613957576064600f548b8861353f9190614ee8565b61354991906150ac565b613553919061538b565b975087828281518110613569576135686147a0565b5b60200260200101516060018181525050878a6135859190614e92565b99508982828151811061359b5761359a6147a0565b5b602002602001015160800181815250506001856135b89190614ee8565b811461379e57816001826135cc9190614ee8565b815181106135dd576135dc6147a0565b5b6020026020010151604001518282815181106135fc576135fb6147a0565b5b6020026020010151604001510361366b57878260018361361c9190614ee8565b8151811061362d5761362c6147a0565b5b602002602001015160a001516136439190614e92565b828281518110613656576136556147a0565b5b602002602001015160a0018181525050613799565b8782828151811061367f5761367e6147a0565b5b602002602001015160a0018181525050878282815181106136a3576136a26147a0565b5b602002602001015160c0018181525050816001826136c19190614ee8565b815181106136d2576136d16147a0565b5b6020026020010151604001518282815181106136f1576136f06147a0565b5b6020026020010151604001516137079190614ee8565b985060005b898110156137975789836001846137239190614ee8565b81518110613734576137336147a0565b5b602002602001015160a0015161374a919061538b565b836001836137589190614e92565b846137639190614ee8565b81518110613774576137736147a0565b5b602002602001015160c0018181525050808061378f906147fe565b91505061370c565b505b613944565b816001826137ac9190614ee8565b815181106137bd576137bc6147a0565b5b6020026020010151604001518282815181106137dc576137db6147a0565b5b602002602001015160400151036138fa5787826001836137fc9190614ee8565b8151811061380d5761380c6147a0565b5b602002602001015160a001516138239190614e92565b828281518110613836576138356147a0565b5b602002602001015160a0018181525050818181518110613859576138586147a0565b5b6020026020010151604001516001866138729190614e92565b61387c9190614ee8565b985060005b898110156138f4578983838151811061389d5761389c6147a0565b5b602002602001015160a001516138b3919061538b565b8382846138c09190614ee8565b815181106138d1576138d06147a0565b5b602002602001015160c001818152505080806138ec906147fe565b915050613881565b50613943565b8782828151811061390e5761390d6147a0565b5b602002602001015160a001818152505087828281518110613932576139316147a0565b5b602002602001015160c00181815250505b5b808061394f906147fe565b915050613526565b50809b50505050505050505050505092915050565b600033905090565b61397c610b93565b6139bb576040517f08c379a00000000000000000000000000000000000000000000000000000000081526004016139b2906156a6565b60405180910390fd5b565b6139c5610b93565b15613a05576040517f08c379a00000000000000000000000000000000000000000000000000000000081526004016139fc90615712565b60405180910390fd5b565b6000808260ff168460ff161115613a215760009050613a3e565b8360ff168360ff161115613a385760029050613a3d565b600190505b5b8091505092915050565b6040518060600160405280600063ffffffff168152602001600060ff168152602001600060ff1681525090565b6040518060600160405280600063ffffffff16815260200160608152602001606081525090565b6040518060600160405280600073ffffffffffffffffffffffffffffffffffffffff16815260200160008152602001600081525090565b604051806040016040528060008152602001600081525090565b6040518060600160405280600073ffffffffffffffffffffffffffffffffffffffff16815260200160008152602001600081525090565b6040518060400160405280600073ffffffffffffffffffffffffffffffffffffffff168152602001600081525090565b6040518060e00160405280600073ffffffffffffffffffffffffffffffffffffffff1681526020016000815260200160008152602001600081526020016000815260200160008152602001600081525090565b6000819050919050565b613bba81613ba7565b82525050565b6000602082019050613bd56000830184613bb1565b92915050565b6000604051905090565b600080fd5b600080fd5b613bf881613ba7565b8114613c0357600080fd5b50565b600081359050613c1581613bef565b92915050565b600073ffffffffffffffffffffffffffffffffffffffff82169050919050565b6000613c4682613c1b565b9050919050565b613c5681613c3b565b8114613c6157600080fd5b50565b600081359050613c7381613c4d565b92915050565b60008060408385031215613c9057613c8f613be5565b5b6000613c9e85828601613c06565b9250506020613caf85828601613c64565b9150509250929050565b600081519050919050565b600082825260208201905092915050565b6000819050602082019050919050565b600063ffffffff82169050919050565b613cfe81613ce5565b82525050565b600060ff82169050919050565b613d1a81613d04565b82525050565b606082016000820151613d366000850182613cf5565b506020820151613d496020850182613d11565b506040820151613d5c6040850182613d11565b50505050565b6000613d6e8383613d20565b60608301905092915050565b6000602082019050919050565b6000613d9282613cb9565b613d9c8185613cc4565b9350613da783613cd5565b8060005b83811015613dd8578151613dbf8882613d62565b9750613dca83613d7a565b925050600181019050613dab565b5085935050505092915050565b60006020820190508181036000830152613dff8184613d87565b905092915050565b600080fd5b6000601f19601f8301169050919050565b7f4e487b7100000000000000000000000000000000000000000000000000000000600052604160045260246000fd5b613e5582613e0c565b810181811067ffffffffffffffff82111715613e7457613e73613e1d565b5b80604052505050565b6000613e87613bdb565b9050613e938282613e4c565b919050565b600067ffffffffffffffff821115613eb357613eb2613e1d565b5b602082029050602081019050919050565b600080fd5b600080fd5b600067ffffffffffffffff821115613ee957613ee8613e1d565b5b613ef282613e0c565b9050602081019050919050565b82818337600083830152505050565b6000613f21613f1c84613ece565b613e7d565b905082815260208101848484011115613f3d57613f3c613ec9565b5b613f48848285613eff565b509392505050565b600082601f830112613f6557613f64613e07565b5b8135613f75848260208601613f0e565b91505092915050565b6000613f91613f8c84613e98565b613e7d565b90508083825260208201905060208402830185811115613fb457613fb3613ec4565b5b835b81811015613ffb57803567ffffffffffffffff811115613fd957613fd8613e07565b5b808601613fe68982613f50565b85526020850194505050602081019050613fb6565b5050509392505050565b600082601f83011261401a57614019613e07565b5b813561402a848260208601613f7e565b91505092915050565b60008060006060848603121561404c5761404b613be5565b5b600061405a86828701613c06565b935050602084013567ffffffffffffffff81111561407b5761407a613bea565b5b61408786828701614005565b925050604061409886828701613c06565b9150509250925092565b6000602082840312156140b8576140b7613be5565b5b60006140c684828501613c06565b91505092915050565b600081519050919050565b600082825260208201905092915050565b6000819050602082019050919050565b61410481613c3b565b82525050565b61411381613ba7565b82525050565b60a08201600082015161412f60008501826140fb565b506020820151614142602085018261410a565b506040820151614155604085018261410a565b506060820151614168606085018261410a565b50608082015161417b608085018261410a565b50505050565b600061418d8383614119565b60a08301905092915050565b6000602082019050919050565b60006141b1826140cf565b6141bb81856140da565b93506141c6836140eb565b8060005b838110156141f75781516141de8882614181565b97506141e983614199565b9250506001810190506141ca565b5085935050505092915050565b6000602082019050818103600083015261421e81846141a6565b905092915050565b60008115159050919050565b61423b81614226565b82525050565b60006020820190506142566000830184614232565b92915050565b600081519050919050565b600082825260208201905092915050565b6000819050602082019050919050565b600081519050919050565b600082825260208201905092915050565b60005b838110156142c25780820151818401526020810190506142a7565b838111156142d1576000848401525b50505050565b60006142e282614288565b6142ec8185614293565b93506142fc8185602086016142a4565b61430581613e0c565b840191505092915050565b60006060830160008301516143286000860182613cf5565b506020830151848203602086015261434082826142d7565b9150506040830151848203604086015261435a82826142d7565b9150508091505092915050565b60006143738383614310565b905092915050565b6000602082019050919050565b60006143938261425c565b61439d8185614267565b9350836020820285016143af85614278565b8060005b858110156143eb57848403895281516143cc8582614367565b94506143d78361437b565b925060208a019950506001810190506143b3565b50829750879550505050505092915050565b600060208201905081810360008301526144178184614388565b905092915050565b60006020828403121561443557614434613be5565b5b600061444384828501613c64565b91505092915050565b604082016000820151614462600085018261410a565b506020820151614475602085018261410a565b50505050565b6000604082019050614490600083018461444c565b92915050565b61449f81613c3b565b82525050565b60006020820190506144ba6000830184614496565b92915050565b600067ffffffffffffffff8211156144db576144da613e1d565b5b602082029050602081019050919050565b600080fd5b6144fa81613ce5565b811461450557600080fd5b50565b600081359050614517816144f1565b92915050565b61452681613d04565b811461453157600080fd5b50565b6000813590506145438161451d565b92915050565b60006060828403121561455f5761455e6144ec565b5b6145696060613e7d565b9050600061457984828501614508565b600083015250602061458d84828501614534565b60208301525060406145a184828501614534565b60408301525092915050565b60006145c06145bb846144c0565b613e7d565b905080838252602082019050606084028301858111156145e3576145e2613ec4565b5b835b8181101561460c57806145f88882614549565b8452602084019350506060810190506145e5565b5050509392505050565b600082601f83011261462b5761462a613e07565b5b813561463b8482602086016145ad565b91505092915050565b60006020828403121561465a57614659613be5565b5b600082013567ffffffffffffffff81111561467857614677613bea565b5b61468484828501614616565b91505092915050565b600081519050919050565b600082825260208201905092915050565b6000819050602082019050919050565b6060820160008201516146cf60008501826140fb565b5060208201516146e2602085018261410a565b5060408201516146f5604085018261410a565b50505050565b600061470783836146b9565b60608301905092915050565b6000602082019050919050565b600061472b8261468d565b6147358185614698565b9350614740836146a9565b8060005b8381101561477157815161475888826146fb565b975061476383614713565b925050600181019050614744565b5085935050505092915050565b600060208201905081810360008301526147988184614720565b905092915050565b7f4e487b7100000000000000000000000000000000000000000000000000000000600052603260045260246000fd5b7f4e487b7100000000000000000000000000000000000000000000000000000000600052601160045260246000fd5b600061480982613ba7565b91507fffffffffffffffffffffffffffffffffffffffffffffffffffffffffffffffff820361483b5761483a6147cf565b5b600182019050919050565b7f4e487b7100000000000000000000000000000000000000000000000000000000600052602260045260246000fd5b6000600282049050600182168061488d57607f821691505b6020821081036148a05761489f614846565b5b50919050565b60008190508160005260206000209050919050565b60006020601f8301049050919050565b600082821b905092915050565b6000600883026149087fffffffffffffffffffffffffffffffffffffffffffffffffffffffffffffffff826148cb565b61491286836148cb565b95508019841693508086168417925050509392505050565b6000819050919050565b600061494f61494a61494584613ba7565b61492a565b613ba7565b9050919050565b6000819050919050565b61496983614934565b61497d61497582614956565b8484546148d8565b825550505050565b600090565b614992614985565b61499d818484614960565b505050565b5b818110156149c1576149b660008261498a565b6001810190506149a3565b5050565b601f821115614a06576149d7816148a6565b6149e0846148bb565b810160208510156149ef578190505b614a036149fb856148bb565b8301826149a2565b50505b505050565b600082821c905092915050565b6000614a2960001984600802614a0b565b1980831691505092915050565b6000614a428383614a18565b9150826002028217905092915050565b614a5b82614288565b67ffffffffffffffff811115614a7457614a73613e1d565b5b614a7e8254614875565b614a898282856149c5565b600060209050601f831160018114614abc5760008415614aaa578287015190505b614ab48582614a36565b865550614b1c565b601f198416614aca866148a6565b60005b82811015614af257848901518255600182019150602085019450602081019050614acd565b86831015614b0f5784890151614b0b601f891682614a18565b8355505b6001600288020188555050505b505050505050565b600082825260208201905092915050565b7f596f752063616e6e6f7420776974686472617720756e74696c2074686520656e60008201527f64206f662074686520636f6e7465737421000000000000000000000000000000602082015250565b6000614b91603183614b24565b9150614b9c82614b35565b604082019050919050565b60006020820190508181036000830152614bc081614b84565b9050919050565b60008154614bd481614875565b614bde8186614b24565b94506001821660008114614bf95760018114614c0f57614c42565b60ff198316865281151560200286019350614c42565b614c18856148a6565b60005b83811015614c3a57815481890152600182019150602081019050614c1b565b808801955050505b50505092915050565b60006020820190508181036000830152614c658184614bc7565b905092915050565b600081519050614c7c81613bef565b92915050565b600060208284031215614c9857614c97613be5565b5b6000614ca684828501614c6d565b91505092915050565b60006040820190508181036000830152614cc98185614bc7565b9050614cd86020830184613bb1565b9392505050565b600081519050614cee816144f1565b92915050565b6000614d07614d0284613ece565b613e7d565b905082815260208101848484011115614d2357614d22613ec9565b5b614d2e8482856142a4565b509392505050565b600082601f830112614d4b57614d4a613e07565b5b8151614d5b848260208601614cf4565b91505092915050565b600080600060608486031215614d7d57614d7c613be5565b5b6000614d8b86828701614cdf565b935050602084015167ffffffffffffffff811115614dac57614dab613bea565b5b614db886828701614d36565b925050604084015167ffffffffffffffff811115614dd957614dd8613bea565b5b614de586828701614d36565b9150509250925092565b7f5468657265206973206e6f2070656e64696e672077696e6e696e677321000000600082015250565b6000614e25601d83614b24565b9150614e3082614def565b602082019050919050565b60006020820190508181036000830152614e5481614e18565b9050919050565b6000606082019050614e706000830186614496565b614e7d6020830185613bb1565b614e8a6040830184614496565b949350505050565b6000614e9d82613ba7565b9150614ea883613ba7565b9250827fffffffffffffffffffffffffffffffffffffffffffffffffffffffffffffffff03821115614edd57614edc6147cf565b5b828201905092915050565b6000614ef382613ba7565b9150614efe83613ba7565b925082821015614f1157614f106147cf565b5b828203905092915050565b7f596f75206e6565642061207469636b657420666f7220736176696e672070726560008201527f64696374696f6e73210000000000000000000000000000000000000000000000602082015250565b6000614f78602983614b24565b9150614f8382614f1c565b604082019050919050565b60006020820190508181036000830152614fa781614f6b565b9050919050565b7f50726564696374696f6e20506572696f6420697320636c6f7365642100000000600082015250565b6000614fe4601c83614b24565b9150614fef82614fae565b602082019050919050565b6000602082019050818103600083015261501381614fd7565b9050919050565b7f546865206e756d626572206f662070726564696374696f6e7320646f65736e2760008201527f74206d6174636821000000000000000000000000000000000000000000000000602082015250565b6000615076602883614b24565b91506150818261501a565b604082019050919050565b600060208201905081810360008301526150a581615069565b9050919050565b60006150b782613ba7565b91506150c283613ba7565b9250817fffffffffffffffffffffffffffffffffffffffffffffffffffffffffffffffff04831182151516156150fb576150fa6147cf565b5b828202905092915050565b7f4f776e61626c653a206e6577206f776e657220697320746865207a65726f206160008201527f6464726573730000000000000000000000000000000000000000000000000000602082015250565b6000615162602683614b24565b915061516d82615106565b604082019050919050565b6000602082019050818103600083015261519181615155565b9050919050565b7f4e487b7100000000000000000000000000000000000000000000000000000000600052601260045260246000fd5b60006151d282613ba7565b91506151dd83613ba7565b9250826151ed576151ec615198565b5b828206905092915050565b7f54686520616d6f756e74206d7573742062652061206d756c7469706c65206f6660008201527f2035300000000000000000000000000000000000000000000000000000000000602082015250565b6000615254602383614b24565b915061525f826151f8565b604082019050919050565b6000602082019050818103600083015261528381615247565b9050919050565b7f496e737566666963656e7420616d6f756e74206f662055534443000000000000600082015250565b60006152c0601a83614b24565b91506152cb8261528a565b602082019050919050565b600060208201905081810360008301526152ef816152b3565b9050919050565b600060408201905061530b6000830185614496565b6153186020830184614496565b9392505050565b7f496e73756666696369656e7420616c6c6f776564205553444300000000000000600082015250565b6000615355601983614b24565b91506153608261531f565b602082019050919050565b6000602082019050818103600083015261538481615348565b9050919050565b600061539682613ba7565b91506153a183613ba7565b9250826153b1576153b0615198565b5b828204905092915050565b60006060820190506153d16000830186614496565b6153de6020830185614496565b6153eb6040830184613bb1565b949350505050565b6153fc81614226565b811461540757600080fd5b50565b600081519050615419816153f3565b92915050565b60006020828403121561543557615434613be5565b5b60006154438482850161540a565b91505092915050565b60006040820190506154616000830185614496565b61546e6020830184613bb1565b9392505050565b6000819050919050565b600061ffff82169050919050565b60006154a86154a361549e84615475565b61492a565b61547f565b9050919050565b6154b88161548d565b82525050565b60006080820190506154d36000830187614496565b6154e06020830186613bb1565b6154ed6040830185614496565b6154fa60608301846154af565b95945050505050565b7f4f776e61626c653a2063616c6c6572206973206e6f7420746865206f776e6572600082015250565b6000615539602083614b24565b915061554482615503565b602082019050919050565b600060208201905081810360008301526155688161552c565b9050919050565b7f596f7520646f6e2774206861766520656e6f756768207469636b657473210000600082015250565b60006155a5601e83614b24565b91506155b08261556f565b602082019050919050565b600060208201905081810360008301526155d481615598565b9050919050565b6155e481613ce5565b82525050565b60006020820190506155ff60008301846155db565b92915050565b6000815190506156148161451d565b92915050565b6000806040838503121561563157615630613be5565b5b600061563f85828601615605565b925050602061565085828601615605565b9150509250929050565b7f5061757361626c653a206e6f7420706175736564000000000000000000000000600082015250565b6000615690601483614b24565b915061569b8261565a565b602082019050919050565b600060208201905081810360008301526156bf81615683565b9050919050565b7f5061757361626c653a2070617573656400000000000000000000000000000000600082015250565b60006156fc601083614b24565b9150615707826156c6565b602082019050919050565b6000602082019050818103600083015261572b816156ef565b905091905056fea2646970667358221220a84a2e115cf329103912f2066904fa8a1016ec254e87da53187213f2df95ecfe64736f6c634300080f0033","opcodes":"PUSH1 0x80 PUSH1 0x40 MSTORE CALLVALUE DUP1 ISZERO PUSH3 0x11 JUMPI PUSH1 0x0 DUP1 REVERT JUMPDEST POP PUSH3 0x32 PUSH3 0x26 PUSH3 0x213 PUSH1 0x20 SHL PUSH1 0x20 SHR JUMP JUMPDEST PUSH3 0x21B PUSH1 0x20 SHL PUSH1 0x20 SHR JUMP JUMPDEST PUSH1 0x0 DUP1 PUSH1 0x14 PUSH2 0x100 EXP DUP2 SLOAD DUP2 PUSH1 0xFF MUL NOT AND SWAP1 DUP4 ISZERO ISZERO MUL OR SWAP1 SSTORE POP PUSH20 0xA2025B15A1757311BFD68CB14EAEFCC237AF5B43 PUSH1 0x3 PUSH1 0x0 PUSH2 0x100 EXP DUP2 SLOAD DUP2 PUSH20 0xFFFFFFFFFFFFFFFFFFFFFFFFFFFFFFFFFFFFFFFF MUL NOT AND SWAP1 DUP4 PUSH20 0xFFFFFFFFFFFFFFFFFFFFFFFFFFFFFFFFFFFFFFFF AND MUL OR SWAP1 SSTORE POP PUSH20 0x368EEDF3F56AD10B9BC57EED4DAC65B26BB667F6 PUSH1 0x6 PUSH1 0x0 PUSH2 0x100 EXP DUP2 SLOAD DUP2 PUSH20 0xFFFFFFFFFFFFFFFFFFFFFFFFFFFFFFFFFFFFFFFF MUL NOT AND SWAP1 DUP4 PUSH20 0xFFFFFFFFFFFFFFFFFFFFFFFFFFFFFFFFFFFFFFFF AND MUL OR SWAP1 SSTORE POP PUSH20 0x1EE669290939F8A8864497AF3BC83728715265FF PUSH1 0x4 PUSH1 0x0 PUSH2 0x100 EXP DUP2 SLOAD DUP2 PUSH20 0xFFFFFFFFFFFFFFFFFFFFFFFFFFFFFFFFFFFFFFFF MUL NOT AND SWAP1 DUP4 PUSH20 0xFFFFFFFFFFFFFFFFFFFFFFFFFFFFFFFFFFFFFFFF AND MUL OR SWAP1 SSTORE POP PUSH20 0xD81E4A61FD6BF066539DF6EA48BFAEAE847DCDA1 PUSH1 0x5 PUSH1 0x0 PUSH2 0x100 EXP DUP2 SLOAD DUP2 PUSH20 0xFFFFFFFFFFFFFFFFFFFFFFFFFFFFFFFFFFFFFFFF MUL NOT AND SWAP1 DUP4 PUSH20 0xFFFFFFFFFFFFFFFFFFFFFFFFFFFFFFFFFFFFFFFF AND MUL OR SWAP1 SSTORE POP PUSH1 0x0 PUSH1 0x2 DUP2 SWAP1 SSTORE POP PUSH20 0x973680AF677B40128B8C4015E2EF4C0D889ED7B0 PUSH1 0x10 PUSH1 0x0 PUSH2 0x100 EXP DUP2 SLOAD DUP2 PUSH20 0xFFFFFFFFFFFFFFFFFFFFFFFFFFFFFFFFFFFFFFFF MUL NOT AND SWAP1 DUP4 PUSH20 0xFFFFFFFFFFFFFFFFFFFFFFFFFFFFFFFFFFFFFFFF AND MUL OR SWAP1 SSTORE POP PUSH1 0x5 PUSH1 0xF DUP2 SWAP1 SSTORE POP PUSH1 0x0 PUSH1 0xE DUP2 SWAP1 SSTORE POP PUSH3 0x2DF JUMP JUMPDEST PUSH1 0x0 CALLER SWAP1 POP SWAP1 JUMP JUMPDEST PUSH1 0x0 DUP1 PUSH1 0x0 SWAP1 SLOAD SWAP1 PUSH2 0x100 EXP SWAP1 DIV PUSH20 0xFFFFFFFFFFFFFFFFFFFFFFFFFFFFFFFFFFFFFFFF AND SWAP1 POP DUP2 PUSH1 0x0 DUP1 PUSH2 0x100 EXP DUP2 SLOAD DUP2 PUSH20 0xFFFFFFFFFFFFFFFFFFFFFFFFFFFFFFFFFFFFFFFF MUL NOT AND SWAP1 DUP4 PUSH20 0xFFFFFFFFFFFFFFFFFFFFFFFFFFFFFFFFFFFFFFFF AND MUL OR SWAP1 SSTORE POP DUP2 PUSH20 0xFFFFFFFFFFFFFFFFFFFFFFFFFFFFFFFFFFFFFFFF AND DUP2 PUSH20 0xFFFFFFFFFFFFFFFFFFFFFFFFFFFFFFFFFFFFFFFF AND PUSH32 0x8BE0079C531659141344CD1FD0A4F28419497F9722A3DAAFE3B4186F6B6457E0 PUSH1 0x40 MLOAD PUSH1 0x40 MLOAD DUP1 SWAP2 SUB SWAP1 LOG3 POP POP JUMP JUMPDEST PUSH2 0x5768 DUP1 PUSH3 0x2EF PUSH1 0x0 CODECOPY PUSH1 0x0 RETURN INVALID PUSH1 0x80 PUSH1 0x40 MSTORE CALLVALUE DUP1 ISZERO PUSH2 0x10 JUMPI PUSH1 0x0 DUP1 REVERT JUMPDEST POP PUSH1 0x4 CALLDATASIZE LT PUSH2 0x14D JUMPI PUSH1 0x0 CALLDATALOAD PUSH1 0xE0 SHR DUP1 PUSH4 0x7E5DD913 GT PUSH2 0xC3 JUMPI DUP1 PUSH4 0xB4ACE158 GT PUSH2 0x7C JUMPI DUP1 PUSH4 0xB4ACE158 EQ PUSH2 0x366 JUMPI DUP1 PUSH4 0xB66195B8 EQ PUSH2 0x384 JUMPI DUP1 PUSH4 0xD6221518 EQ PUSH2 0x3B4 JUMPI DUP1 PUSH4 0xF2FDE38B EQ PUSH2 0x3D0 JUMPI DUP1 PUSH4 0xFB46BD22 EQ PUSH2 0x3EC JUMPI DUP1 PUSH4 0xFD8D1909 EQ PUSH2 0x40A JUMPI PUSH2 0x14D JUMP JUMPDEST DUP1 PUSH4 0x7E5DD913 EQ PUSH2 0x2B8 JUMPI DUP1 PUSH4 0x8456CB59 EQ PUSH2 0x2E8 JUMPI DUP1 PUSH4 0x8AD2E864 EQ PUSH2 0x2F2 JUMPI DUP1 PUSH4 0x8D44F13B EQ PUSH2 0x322 JUMPI DUP1 PUSH4 0x8DA5CB5B EQ PUSH2 0x32C JUMPI DUP1 PUSH4 0x9FA75E9A EQ PUSH2 0x34A JUMPI PUSH2 0x14D JUMP JUMPDEST DUP1 PUSH4 0x3F4BA83A GT PUSH2 0x115 JUMPI DUP1 PUSH4 0x3F4BA83A EQ PUSH2 0x208 JUMPI DUP1 PUSH4 0x41944175 EQ PUSH2 0x212 JUMPI DUP1 PUSH4 0x4FDA591E EQ PUSH2 0x230 JUMPI DUP1 PUSH4 0x5C975ABB EQ PUSH2 0x260 JUMPI DUP1 PUSH4 0x62436D9D EQ PUSH2 0x27E JUMPI DUP1 PUSH4 0x715018A6 EQ PUSH2 0x2AE JUMPI PUSH2 0x14D JUMP JUMPDEST DUP1 PUSH4 0x8AF2D78 EQ PUSH2 0x152 JUMPI DUP1 PUSH4 0x117F3998 EQ PUSH2 0x170 JUMPI DUP1 PUSH4 0x18699547 EQ PUSH2 0x1A0 JUMPI DUP1 PUSH4 0x2452A7E3 EQ PUSH2 0x1BC JUMPI DUP1 PUSH4 0x2E1A7D4D EQ PUSH2 0x1EC JUMPI JUMPDEST PUSH1 0x0 DUP1 REVERT JUMPDEST PUSH2 0x15A PUSH2 0x426 JUMP JUMPDEST PUSH1 0x40 MLOAD PUSH2 0x167 SWAP2 SWAP1 PUSH2 0x3BC0 JUMP JUMPDEST PUSH1 0x40 MLOAD DUP1 SWAP2 SUB SWAP1 RETURN JUMPDEST PUSH2 0x18A PUSH1 0x4 DUP1 CALLDATASIZE SUB DUP2 ADD SWAP1 PUSH2 0x185 SWAP2 SWAP1 PUSH2 0x3C79 JUMP JUMPDEST PUSH2 0x446 JUMP JUMPDEST PUSH1 0x40 MLOAD PUSH2 0x197 SWAP2 SWAP1 PUSH2 0x3DE5 JUMP JUMPDEST PUSH1 0x40 MLOAD DUP1 SWAP2 SUB SWAP1 RETURN JUMPDEST PUSH2 0x1BA PUSH1 0x4 DUP1 CALLDATASIZE SUB DUP2 ADD SWAP1 PUSH2 0x1B5 SWAP2 SWAP1 PUSH2 0x4033 JUMP JUMPDEST PUSH2 0x69D JUMP JUMPDEST STOP JUMPDEST PUSH2 0x1D6 PUSH1 0x4 DUP1 CALLDATASIZE SUB DUP2 ADD SWAP1 PUSH2 0x1D1 SWAP2 SWAP1 PUSH2 0x40A2 JUMP JUMPDEST PUSH2 0x785 JUMP JUMPDEST PUSH1 0x40 MLOAD PUSH2 0x1E3 SWAP2 SWAP1 PUSH2 0x4204 JUMP JUMPDEST PUSH1 0x40 MLOAD DUP1 SWAP2 SUB SWAP1 RETURN JUMPDEST PUSH2 0x206 PUSH1 0x4 DUP1 CALLDATASIZE SUB DUP2 ADD SWAP1 PUSH2 0x201 SWAP2 SWAP1 PUSH2 0x40A2 JUMP JUMPDEST PUSH2 0x875 JUMP JUMPDEST STOP JUMPDEST PUSH2 0x210 PUSH2 0x949 JUMP JUMPDEST STOP JUMPDEST PUSH2 0x21A PUSH2 0x95B JUMP JUMPDEST PUSH1 0x40 MLOAD PUSH2 0x227 SWAP2 SWAP1 PUSH2 0x3BC0 JUMP JUMPDEST PUSH1 0x40 MLOAD DUP1 SWAP2 SUB SWAP1 RETURN JUMPDEST PUSH2 0x24A PUSH1 0x4 DUP1 CALLDATASIZE SUB DUP2 ADD SWAP1 PUSH2 0x245 SWAP2 SWAP1 PUSH2 0x3C79 JUMP JUMPDEST PUSH2 0x961 JUMP JUMPDEST PUSH1 0x40 MLOAD PUSH2 0x257 SWAP2 SWAP1 PUSH2 0x3BC0 JUMP JUMPDEST PUSH1 0x40 MLOAD DUP1 SWAP2 SUB SWAP1 RETURN JUMPDEST PUSH2 0x268 PUSH2 0xB93 JUMP JUMPDEST PUSH1 0x40 MLOAD PUSH2 0x275 SWAP2 SWAP1 PUSH2 0x4241 JUMP JUMPDEST PUSH1 0x40 MLOAD DUP1 SWAP2 SUB SWAP1 RETURN JUMPDEST PUSH2 0x298 PUSH1 0x4 DUP1 CALLDATASIZE SUB DUP2 ADD SWAP1 PUSH2 0x293 SWAP2 SWAP1 PUSH2 0x40A2 JUMP JUMPDEST PUSH2 0xBA9 JUMP JUMPDEST PUSH1 0x40 MLOAD PUSH2 0x2A5 SWAP2 SWAP1 PUSH2 0x3BC0 JUMP JUMPDEST PUSH1 0x40 MLOAD DUP1 SWAP2 SUB SWAP1 RETURN JUMPDEST PUSH2 0x2B6 PUSH2 0xBC9 JUMP JUMPDEST STOP JUMPDEST PUSH2 0x2D2 PUSH1 0x4 DUP1 CALLDATASIZE SUB DUP2 ADD SWAP1 PUSH2 0x2CD SWAP2 SWAP1 PUSH2 0x40A2 JUMP JUMPDEST PUSH2 0xBDD JUMP JUMPDEST PUSH1 0x40 MLOAD PUSH2 0x2DF SWAP2 SWAP1 PUSH2 0x43FD JUMP JUMPDEST PUSH1 0x40 MLOAD DUP1 SWAP2 SUB SWAP1 RETURN JUMPDEST PUSH2 0x2F0 PUSH2 0xEC2 JUMP JUMPDEST STOP JUMPDEST PUSH2 0x30C PUSH1 0x4 DUP1 CALLDATASIZE SUB DUP2 ADD SWAP1 PUSH2 0x307 SWAP2 SWAP1 PUSH2 0x441F JUMP JUMPDEST PUSH2 0xED4 JUMP JUMPDEST PUSH1 0x40 MLOAD PUSH2 0x319 SWAP2 SWAP1 PUSH2 0x447B JUMP JUMPDEST PUSH1 0x40 MLOAD DUP1 SWAP2 SUB SWAP1 RETURN JUMPDEST PUSH2 0x32A PUSH2 0xF41 JUMP JUMPDEST STOP JUMPDEST PUSH2 0x334 PUSH2 0x117D JUMP JUMPDEST PUSH1 0x40 MLOAD PUSH2 0x341 SWAP2 SWAP1 PUSH2 0x44A5 JUMP JUMPDEST PUSH1 0x40 MLOAD DUP1 SWAP2 SUB SWAP1 RETURN JUMPDEST PUSH2 0x364 PUSH1 0x4 DUP1 CALLDATASIZE SUB DUP2 ADD SWAP1 PUSH2 0x35F SWAP2 SWAP1 PUSH2 0x4644 JUMP JUMPDEST PUSH2 0x11A6 JUMP JUMPDEST STOP JUMPDEST PUSH2 0x36E PUSH2 0x16FA JUMP JUMPDEST PUSH1 0x40 MLOAD PUSH2 0x37B SWAP2 SWAP1 PUSH2 0x3BC0 JUMP JUMPDEST PUSH1 0x40 MLOAD DUP1 SWAP2 SUB SWAP1 RETURN JUMPDEST PUSH2 0x39E PUSH1 0x4 DUP1 CALLDATASIZE SUB DUP2 ADD SWAP1 PUSH2 0x399 SWAP2 SWAP1 PUSH2 0x40A2 JUMP JUMPDEST PUSH2 0x186A JUMP JUMPDEST PUSH1 0x40 MLOAD PUSH2 0x3AB SWAP2 SWAP1 PUSH2 0x477E JUMP JUMPDEST PUSH1 0x40 MLOAD DUP1 SWAP2 SUB SWAP1 RETURN JUMPDEST PUSH2 0x3CE PUSH1 0x4 DUP1 CALLDATASIZE SUB DUP2 ADD SWAP1 PUSH2 0x3C9 SWAP2 SWAP1 PUSH2 0x40A2 JUMP JUMPDEST PUSH2 0x1A00 JUMP JUMPDEST STOP JUMPDEST PUSH2 0x3EA PUSH1 0x4 DUP1 CALLDATASIZE SUB DUP2 ADD SWAP1 PUSH2 0x3E5 SWAP2 SWAP1 PUSH2 0x441F JUMP JUMPDEST PUSH2 0x2088 JUMP JUMPDEST STOP JUMPDEST PUSH2 0x3F4 PUSH2 0x210B JUMP JUMPDEST PUSH1 0x40 MLOAD PUSH2 0x401 SWAP2 SWAP1 PUSH2 0x3BC0 JUMP JUMPDEST PUSH1 0x40 MLOAD DUP1 SWAP2 SUB SWAP1 RETURN JUMPDEST PUSH2 0x424 PUSH1 0x4 DUP1 CALLDATASIZE SUB DUP2 ADD SWAP1 PUSH2 0x41F SWAP2 SWAP1 PUSH2 0x40A2 JUMP JUMPDEST PUSH2 0x2115 JUMP JUMPDEST STOP JUMPDEST PUSH1 0x0 PUSH1 0x7 PUSH1 0x0 PUSH1 0xE SLOAD DUP2 MSTORE PUSH1 0x20 ADD SWAP1 DUP2 MSTORE PUSH1 0x20 ADD PUSH1 0x0 KECCAK256 PUSH1 0x1 ADD SLOAD SWAP1 POP SWAP1 JUMP JUMPDEST PUSH1 0x60 PUSH1 0x0 PUSH2 0x453 DUP5 PUSH2 0x2628 JUMP JUMPDEST SWAP1 POP PUSH1 0x0 DUP1 DUP3 PUSH8 0xFFFFFFFFFFFFFFFF DUP2 GT ISZERO PUSH2 0x472 JUMPI PUSH2 0x471 PUSH2 0x3E1D JUMP JUMPDEST JUMPDEST PUSH1 0x40 MLOAD SWAP1 DUP1 DUP3 MSTORE DUP1 PUSH1 0x20 MUL PUSH1 0x20 ADD DUP3 ADD PUSH1 0x40 MSTORE DUP1 ISZERO PUSH2 0x4AB JUMPI DUP2 PUSH1 0x20 ADD JUMPDEST PUSH2 0x498 PUSH2 0x3A48 JUMP JUMPDEST DUP2 MSTORE PUSH1 0x20 ADD SWAP1 PUSH1 0x1 SWAP1 SUB SWAP1 DUP2 PUSH2 0x490 JUMPI SWAP1 POP JUMPDEST POP SWAP1 POP PUSH1 0x0 DUP4 PUSH8 0xFFFFFFFFFFFFFFFF DUP2 GT ISZERO PUSH2 0x4CA JUMPI PUSH2 0x4C9 PUSH2 0x3E1D JUMP JUMPDEST JUMPDEST PUSH1 0x40 MLOAD SWAP1 DUP1 DUP3 MSTORE DUP1 PUSH1 0x20 MUL PUSH1 0x20 ADD DUP3 ADD PUSH1 0x40 MSTORE DUP1 ISZERO PUSH2 0x503 JUMPI DUP2 PUSH1 0x20 ADD JUMPDEST PUSH2 0x4F0 PUSH2 0x3A75 JUMP JUMPDEST DUP2 MSTORE PUSH1 0x20 ADD SWAP1 PUSH1 0x1 SWAP1 SUB SWAP1 DUP2 PUSH2 0x4E8 JUMPI SWAP1 POP JUMPDEST POP SWAP1 POP PUSH2 0x50F DUP8 PUSH2 0xBDD JUMP JUMPDEST SWAP1 POP PUSH1 0x0 JUMPDEST DUP5 DUP2 LT ISZERO PUSH2 0x68F JUMPI DUP2 DUP2 DUP2 MLOAD DUP2 LT PUSH2 0x52F JUMPI PUSH2 0x52E PUSH2 0x47A0 JUMP JUMPDEST JUMPDEST PUSH1 0x20 MUL PUSH1 0x20 ADD ADD MLOAD PUSH1 0x0 ADD MLOAD SWAP4 POP PUSH1 0x40 MLOAD DUP1 PUSH1 0x60 ADD PUSH1 0x40 MSTORE DUP1 DUP6 PUSH4 0xFFFFFFFF AND DUP2 MSTORE PUSH1 0x20 ADD PUSH1 0xA PUSH1 0x0 DUP11 PUSH20 0xFFFFFFFFFFFFFFFFFFFFFFFFFFFFFFFFFFFFFFFF AND PUSH20 0xFFFFFFFFFFFFFFFFFFFFFFFFFFFFFFFFFFFFFFFF AND DUP2 MSTORE PUSH1 0x20 ADD SWAP1 DUP2 MSTORE PUSH1 0x20 ADD PUSH1 0x0 KECCAK256 PUSH1 0x0 DUP12 DUP2 MSTORE PUSH1 0x20 ADD SWAP1 DUP2 MSTORE PUSH1 0x20 ADD PUSH1 0x0 KECCAK256 PUSH1 0x0 DUP8 PUSH4 0xFFFFFFFF AND PUSH4 0xFFFFFFFF AND DUP2 MSTORE PUSH1 0x20 ADD SWAP1 DUP2 MSTORE PUSH1 0x20 ADD PUSH1 0x0 KECCAK256 PUSH1 0x0 ADD PUSH1 0x0 SWAP1 SLOAD SWAP1 PUSH2 0x100 EXP SWAP1 DIV PUSH1 0xFF AND PUSH1 0xFF AND DUP2 MSTORE PUSH1 0x20 ADD PUSH1 0xA PUSH1 0x0 DUP11 PUSH20 0xFFFFFFFFFFFFFFFFFFFFFFFFFFFFFFFFFFFFFFFF AND PUSH20 0xFFFFFFFFFFFFFFFFFFFFFFFFFFFFFFFFFFFFFFFF AND DUP2 MSTORE PUSH1 0x20 ADD SWAP1 DUP2 MSTORE PUSH1 0x20 ADD PUSH1 0x0 KECCAK256 PUSH1 0x0 DUP12 DUP2 MSTORE PUSH1 0x20 ADD SWAP1 DUP2 MSTORE PUSH1 0x20 ADD PUSH1 0x0 KECCAK256 PUSH1 0x0 DUP8 PUSH4 0xFFFFFFFF AND PUSH4 0xFFFFFFFF AND DUP2 MSTORE PUSH1 0x20 ADD SWAP1 DUP2 MSTORE PUSH1 0x20 ADD PUSH1 0x0 KECCAK256 PUSH1 0x0 ADD PUSH1 0x1 SWAP1 SLOAD SWAP1 PUSH2 0x100 EXP SWAP1 DIV PUSH1 0xFF AND PUSH1 0xFF AND DUP2 MSTORE POP DUP4 DUP3 DUP2 MLOAD DUP2 LT PUSH2 0x671 JUMPI PUSH2 0x670 PUSH2 0x47A0 JUMP JUMPDEST JUMPDEST PUSH1 0x20 MUL PUSH1 0x20 ADD ADD DUP2 SWAP1 MSTORE POP DUP1 DUP1 PUSH2 0x687 SWAP1 PUSH2 0x47FE JUMP JUMPDEST SWAP2 POP POP PUSH2 0x514 JUMP JUMPDEST POP DUP2 SWAP5 POP POP POP POP POP SWAP3 SWAP2 POP POP JUMP JUMPDEST PUSH2 0x6A5 PUSH2 0x2744 JUMP JUMPDEST PUSH1 0xE PUSH1 0x0 DUP2 SLOAD DUP1 SWAP3 SWAP2 SWAP1 PUSH2 0x6B8 SWAP1 PUSH2 0x47FE JUMP JUMPDEST SWAP2 SWAP1 POP SSTORE POP PUSH1 0x0 JUMPDEST DUP3 MLOAD DUP2 LT ISZERO PUSH2 0x73E JUMPI PUSH1 0xB PUSH1 0x0 PUSH1 0xE SLOAD DUP2 MSTORE PUSH1 0x20 ADD SWAP1 DUP2 MSTORE PUSH1 0x20 ADD PUSH1 0x0 KECCAK256 DUP4 DUP3 DUP2 MLOAD DUP2 LT PUSH2 0x6F1 JUMPI PUSH2 0x6F0 PUSH2 0x47A0 JUMP JUMPDEST JUMPDEST PUSH1 0x20 MUL PUSH1 0x20 ADD ADD MLOAD SWAP1 DUP1 PUSH1 0x1 DUP2 SLOAD ADD DUP1 DUP3 SSTORE DUP1 SWAP2 POP POP PUSH1 0x1 SWAP1 SUB SWAP1 PUSH1 0x0 MSTORE PUSH1 0x20 PUSH1 0x0 KECCAK256 ADD PUSH1 0x0 SWAP1 SWAP2 SWAP1 SWAP2 SWAP1 SWAP2 POP SWAP1 DUP2 PUSH2 0x72A SWAP2 SWAP1 PUSH2 0x4A52 JUMP JUMPDEST POP DUP1 DUP1 PUSH2 0x736 SWAP1 PUSH2 0x47FE JUMP JUMPDEST SWAP2 POP POP PUSH2 0x6C0 JUMP JUMPDEST POP PUSH1 0x40 MLOAD DUP1 PUSH1 0x40 ADD PUSH1 0x40 MSTORE DUP1 DUP5 DUP2 MSTORE PUSH1 0x20 ADD DUP3 DUP2 MSTORE POP PUSH1 0x7 PUSH1 0x0 PUSH1 0xE SLOAD DUP2 MSTORE PUSH1 0x20 ADD SWAP1 DUP2 MSTORE PUSH1 0x20 ADD PUSH1 0x0 KECCAK256 PUSH1 0x0 DUP3 ADD MLOAD DUP2 PUSH1 0x0 ADD SSTORE PUSH1 0x20 DUP3 ADD MLOAD DUP2 PUSH1 0x1 ADD SSTORE SWAP1 POP POP POP POP POP JUMP JUMPDEST PUSH1 0x60 PUSH1 0xC PUSH1 0x0 DUP4 DUP2 MSTORE PUSH1 0x20 ADD SWAP1 DUP2 MSTORE PUSH1 0x20 ADD PUSH1 0x0 KECCAK256 DUP1 SLOAD DUP1 PUSH1 0x20 MUL PUSH1 0x20 ADD PUSH1 0x40 MLOAD SWAP1 DUP2 ADD PUSH1 0x40 MSTORE DUP1 SWAP3 SWAP2 SWAP1 DUP2 DUP2 MSTORE PUSH1 0x20 ADD PUSH1 0x0 SWAP1 JUMPDEST DUP3 DUP3 LT ISZERO PUSH2 0x86A JUMPI DUP4 DUP3 SWAP1 PUSH1 0x0 MSTORE PUSH1 0x20 PUSH1 0x0 KECCAK256 SWAP1 PUSH1 0x5 MUL ADD PUSH1 0x40 MLOAD DUP1 PUSH1 0xA0 ADD PUSH1 0x40 MSTORE SWAP1 DUP2 PUSH1 0x0 DUP3 ADD PUSH1 0x0 SWAP1 SLOAD SWAP1 PUSH2 0x100 EXP SWAP1 DIV PUSH20 0xFFFFFFFFFFFFFFFFFFFFFFFFFFFFFFFFFFFFFFFF AND PUSH20 0xFFFFFFFFFFFFFFFFFFFFFFFFFFFFFFFFFFFFFFFF AND PUSH20 0xFFFFFFFFFFFFFFFFFFFFFFFFFFFFFFFFFFFFFFFF AND DUP2 MSTORE PUSH1 0x20 ADD PUSH1 0x1 DUP3 ADD SLOAD DUP2 MSTORE PUSH1 0x20 ADD PUSH1 0x2 DUP3 ADD SLOAD DUP2 MSTORE PUSH1 0x20 ADD PUSH1 0x3 DUP3 ADD SLOAD DUP2 MSTORE PUSH1 0x20 ADD PUSH1 0x4 DUP3 ADD SLOAD DUP2 MSTORE POP POP DUP2 MSTORE PUSH1 0x20 ADD SWAP1 PUSH1 0x1 ADD SWAP1 PUSH2 0x7BA JUMP JUMPDEST POP POP POP POP SWAP1 POP SWAP2 SWAP1 POP JUMP JUMPDEST PUSH1 0x0 ISZERO ISZERO PUSH1 0xD PUSH1 0x0 PUSH1 0xE SLOAD DUP2 MSTORE PUSH1 0x20 ADD SWAP1 DUP2 MSTORE PUSH1 0x20 ADD PUSH1 0x0 KECCAK256 PUSH1 0x0 CALLER PUSH20 0xFFFFFFFFFFFFFFFFFFFFFFFFFFFFFFFFFFFFFFFF AND PUSH20 0xFFFFFFFFFFFFFFFFFFFFFFFFFFFFFFFFFFFFFFFF AND DUP2 MSTORE PUSH1 0x20 ADD SWAP1 DUP2 MSTORE PUSH1 0x20 ADD PUSH1 0x0 KECCAK256 PUSH1 0x0 SWAP1 SLOAD SWAP1 PUSH2 0x100 EXP SWAP1 DIV PUSH1 0xFF AND ISZERO ISZERO EQ DUP1 PUSH2 0x8FE JUMPI POP PUSH1 0x7 PUSH1 0x0 PUSH1 0xE SLOAD DUP2 MSTORE PUSH1 0x20 ADD SWAP1 DUP2 MSTORE PUSH1 0x20 ADD PUSH1 0x0 KECCAK256 PUSH1 0x1 ADD SLOAD TIMESTAMP GT JUMPDEST PUSH2 0x93D JUMPI PUSH1 0x40 MLOAD PUSH32 0x8C379A000000000000000000000000000000000000000000000000000000000 DUP2 MSTORE PUSH1 0x4 ADD PUSH2 0x934 SWAP1 PUSH2 0x4BA7 JUMP JUMPDEST PUSH1 0x40 MLOAD DUP1 SWAP2 SUB SWAP1 REVERT JUMPDEST PUSH2 0x946 DUP2 PUSH2 0x27C2 JUMP JUMPDEST POP JUMP JUMPDEST PUSH2 0x951 PUSH2 0x2744 JUMP JUMPDEST PUSH2 0x959 PUSH2 0x29FF JUMP JUMPDEST JUMP JUMPDEST PUSH1 0x2 SLOAD DUP2 JUMP JUMPDEST PUSH1 0x0 DUP1 PUSH2 0x96D DUP5 PUSH2 0x186A JUMP JUMPDEST SWAP1 POP PUSH1 0x0 DUP1 DUP3 MLOAD SWAP1 POP PUSH1 0x0 DUP1 DUP3 PUSH8 0xFFFFFFFFFFFFFFFF DUP2 GT ISZERO PUSH2 0x993 JUMPI PUSH2 0x992 PUSH2 0x3E1D JUMP JUMPDEST JUMPDEST PUSH1 0x40 MLOAD SWAP1 DUP1 DUP3 MSTORE DUP1 PUSH1 0x20 MUL PUSH1 0x20 ADD DUP3 ADD PUSH1 0x40 MSTORE DUP1 ISZERO PUSH2 0x9CC JUMPI DUP2 PUSH1 0x20 ADD JUMPDEST PUSH2 0x9B9 PUSH2 0x3A9C JUMP JUMPDEST DUP2 MSTORE PUSH1 0x20 ADD SWAP1 PUSH1 0x1 SWAP1 SUB SWAP1 DUP2 PUSH2 0x9B1 JUMPI SWAP1 POP JUMPDEST POP SWAP1 POP PUSH1 0x0 JUMPDEST DUP4 DUP2 LT ISZERO PUSH2 0xAEE JUMPI PUSH1 0x1 SWAP5 POP PUSH1 0x0 JUMPDEST DUP5 DUP2 LT ISZERO PUSH2 0xA4F JUMPI DUP7 DUP2 DUP2 MLOAD DUP2 LT PUSH2 0x9FC JUMPI PUSH2 0x9FB PUSH2 0x47A0 JUMP JUMPDEST JUMPDEST PUSH1 0x20 MUL PUSH1 0x20 ADD ADD MLOAD PUSH1 0x40 ADD MLOAD DUP8 DUP4 DUP2 MLOAD DUP2 LT PUSH2 0xA1B JUMPI PUSH2 0xA1A PUSH2 0x47A0 JUMP JUMPDEST JUMPDEST PUSH1 0x20 MUL PUSH1 0x20 ADD ADD MLOAD PUSH1 0x40 ADD MLOAD LT ISZERO PUSH2 0xA3C JUMPI DUP6 DUP1 PUSH2 0xA38 SWAP1 PUSH2 0x47FE JUMP JUMPDEST SWAP7 POP POP JUMPDEST DUP1 DUP1 PUSH2 0xA47 SWAP1 PUSH2 0x47FE JUMP JUMPDEST SWAP2 POP POP PUSH2 0x9E1 JUMP JUMPDEST POP PUSH1 0x40 MLOAD DUP1 PUSH1 0x60 ADD PUSH1 0x40 MSTORE DUP1 DUP8 DUP4 DUP2 MLOAD DUP2 LT PUSH2 0xA6E JUMPI PUSH2 0xA6D PUSH2 0x47A0 JUMP JUMPDEST JUMPDEST PUSH1 0x20 MUL PUSH1 0x20 ADD ADD MLOAD PUSH1 0x0 ADD MLOAD PUSH20 0xFFFFFFFFFFFFFFFFFFFFFFFFFFFFFFFFFFFFFFFF AND DUP2 MSTORE PUSH1 0x20 ADD DUP8 DUP4 DUP2 MLOAD DUP2 LT PUSH2 0xAA8 JUMPI PUSH2 0xAA7 PUSH2 0x47A0 JUMP JUMPDEST JUMPDEST PUSH1 0x20 MUL PUSH1 0x20 ADD ADD MLOAD PUSH1 0x40 ADD MLOAD DUP2 MSTORE PUSH1 0x20 ADD DUP7 DUP2 MSTORE POP DUP3 DUP3 DUP2 MLOAD DUP2 LT PUSH2 0xAD0 JUMPI PUSH2 0xACF PUSH2 0x47A0 JUMP JUMPDEST JUMPDEST PUSH1 0x20 MUL PUSH1 0x20 ADD ADD DUP2 SWAP1 MSTORE POP DUP1 DUP1 PUSH2 0xAE6 SWAP1 PUSH2 0x47FE JUMP JUMPDEST SWAP2 POP POP PUSH2 0x9D2 JUMP JUMPDEST POP PUSH1 0x0 JUMPDEST DUP4 DUP2 LT ISZERO PUSH2 0xB84 JUMPI DUP2 DUP2 DUP2 MLOAD DUP2 LT PUSH2 0xB0D JUMPI PUSH2 0xB0C PUSH2 0x47A0 JUMP JUMPDEST JUMPDEST PUSH1 0x20 MUL PUSH1 0x20 ADD ADD MLOAD PUSH1 0x0 ADD MLOAD PUSH20 0xFFFFFFFFFFFFFFFFFFFFFFFFFFFFFFFFFFFFFFFF AND DUP9 PUSH20 0xFFFFFFFFFFFFFFFFFFFFFFFFFFFFFFFFFFFFFFFF AND SUB PUSH2 0xB71 JUMPI DUP2 DUP2 DUP2 MLOAD DUP2 LT PUSH2 0xB5E JUMPI PUSH2 0xB5D PUSH2 0x47A0 JUMP JUMPDEST JUMPDEST PUSH1 0x20 MUL PUSH1 0x20 ADD ADD MLOAD PUSH1 0x40 ADD MLOAD SWAP3 POP PUSH2 0xB84 JUMP JUMPDEST DUP1 DUP1 PUSH2 0xB7C SWAP1 PUSH2 0x47FE JUMP JUMPDEST SWAP2 POP POP PUSH2 0xAF2 JUMP JUMPDEST POP DUP2 SWAP6 POP POP POP POP POP POP SWAP3 SWAP2 POP POP JUMP JUMPDEST PUSH1 0x0 DUP1 PUSH1 0x14 SWAP1 SLOAD SWAP1 PUSH2 0x100 EXP SWAP1 DIV PUSH1 0xFF AND SWAP1 POP SWAP1 JUMP JUMPDEST PUSH1 0x0 PUSH1 0x8 PUSH1 0x0 DUP4 DUP2 MSTORE PUSH1 0x20 ADD SWAP1 DUP2 MSTORE PUSH1 0x20 ADD PUSH1 0x0 KECCAK256 DUP1 SLOAD SWAP1 POP SWAP1 POP SWAP2 SWAP1 POP JUMP JUMPDEST PUSH2 0xBD1 PUSH2 0x2744 JUMP JUMPDEST PUSH2 0xBDB PUSH1 0x0 PUSH2 0x2A61 JUMP JUMPDEST JUMP JUMPDEST PUSH1 0x60 PUSH1 0x0 PUSH2 0xBEA DUP4 PUSH2 0x2628 JUMP JUMPDEST SWAP1 POP PUSH1 0x0 DUP1 DUP3 PUSH8 0xFFFFFFFFFFFFFFFF DUP2 GT ISZERO PUSH2 0xC09 JUMPI PUSH2 0xC08 PUSH2 0x3E1D JUMP JUMPDEST JUMPDEST PUSH1 0x40 MLOAD SWAP1 DUP1 DUP3 MSTORE DUP1 PUSH1 0x20 MUL PUSH1 0x20 ADD DUP3 ADD PUSH1 0x40 MSTORE DUP1 ISZERO PUSH2 0xC42 JUMPI DUP2 PUSH1 0x20 ADD JUMPDEST PUSH2 0xC2F PUSH2 0x3A75 JUMP JUMPDEST DUP2 MSTORE PUSH1 0x20 ADD SWAP1 PUSH1 0x1 SWAP1 SUB SWAP1 DUP2 PUSH2 0xC27 JUMPI SWAP1 POP JUMPDEST POP SWAP1 POP PUSH1 0x0 JUMPDEST PUSH1 0xB PUSH1 0x0 DUP8 DUP2 MSTORE PUSH1 0x20 ADD SWAP1 DUP2 MSTORE PUSH1 0x20 ADD PUSH1 0x0 KECCAK256 DUP1 SLOAD SWAP1 POP DUP2 LT ISZERO PUSH2 0xEB6 JUMPI PUSH1 0x10 PUSH1 0x0 SWAP1 SLOAD SWAP1 PUSH2 0x100 EXP SWAP1 DIV PUSH20 0xFFFFFFFFFFFFFFFFFFFFFFFFFFFFFFFFFFFFFFFF AND PUSH20 0xFFFFFFFFFFFFFFFFFFFFFFFFFFFFFFFFFFFFFFFF AND PUSH4 0xEA6A0410 PUSH1 0xB PUSH1 0x0 DUP10 DUP2 MSTORE PUSH1 0x20 ADD SWAP1 DUP2 MSTORE PUSH1 0x20 ADD PUSH1 0x0 KECCAK256 DUP4 DUP2 SLOAD DUP2 LT PUSH2 0xCC9 JUMPI PUSH2 0xCC8 PUSH2 0x47A0 JUMP JUMPDEST JUMPDEST SWAP1 PUSH1 0x0 MSTORE PUSH1 0x20 PUSH1 0x0 KECCAK256 ADD PUSH1 0x40 MLOAD DUP3 PUSH4 0xFFFFFFFF AND PUSH1 0xE0 SHL DUP2 MSTORE PUSH1 0x4 ADD PUSH2 0xCEF SWAP2 SWAP1 PUSH2 0x4C4B JUMP JUMPDEST PUSH1 0x20 PUSH1 0x40 MLOAD DUP1 DUP4 SUB DUP2 DUP7 GAS STATICCALL ISZERO DUP1 ISZERO PUSH2 0xD0C JUMPI RETURNDATASIZE PUSH1 0x0 DUP1 RETURNDATACOPY RETURNDATASIZE PUSH1 0x0 REVERT JUMPDEST POP POP POP POP PUSH1 0x40 MLOAD RETURNDATASIZE PUSH1 0x1F NOT PUSH1 0x1F DUP3 ADD AND DUP3 ADD DUP1 PUSH1 0x40 MSTORE POP DUP2 ADD SWAP1 PUSH2 0xD30 SWAP2 SWAP1 PUSH2 0x4C82 JUMP JUMPDEST SWAP4 POP PUSH1 0x0 JUMPDEST DUP5 DUP2 LT ISZERO PUSH2 0xEA2 JUMPI PUSH1 0x10 PUSH1 0x0 SWAP1 SLOAD SWAP1 PUSH2 0x100 EXP SWAP1 DIV PUSH20 0xFFFFFFFFFFFFFFFFFFFFFFFFFFFFFFFFFFFFFFFF AND PUSH20 0xFFFFFFFFFFFFFFFFFFFFFFFFFFFFFFFFFFFFFFFF AND PUSH4 0xCDFBA66A PUSH1 0xB PUSH1 0x0 DUP11 DUP2 MSTORE PUSH1 0x20 ADD SWAP1 DUP2 MSTORE PUSH1 0x20 ADD PUSH1 0x0 KECCAK256 DUP5 DUP2 SLOAD DUP2 LT PUSH2 0xDA0 JUMPI PUSH2 0xD9F PUSH2 0x47A0 JUMP JUMPDEST JUMPDEST SWAP1 PUSH1 0x0 MSTORE PUSH1 0x20 PUSH1 0x0 KECCAK256 ADD DUP4 PUSH1 0x40 MLOAD DUP4 PUSH4 0xFFFFFFFF AND PUSH1 0xE0 SHL DUP2 MSTORE PUSH1 0x4 ADD PUSH2 0xDC8 SWAP3 SWAP2 SWAP1 PUSH2 0x4CAF JUMP JUMPDEST PUSH1 0x0 PUSH1 0x40 MLOAD DUP1 DUP4 SUB DUP2 DUP7 GAS STATICCALL ISZERO DUP1 ISZERO PUSH2 0xDE5 JUMPI RETURNDATASIZE PUSH1 0x0 DUP1 RETURNDATACOPY RETURNDATASIZE PUSH1 0x0 REVERT JUMPDEST POP POP POP POP PUSH1 0x40 MLOAD RETURNDATASIZE PUSH1 0x0 DUP3 RETURNDATACOPY RETURNDATASIZE PUSH1 0x1F NOT PUSH1 0x1F DUP3 ADD AND DUP3 ADD DUP1 PUSH1 0x40 MSTORE POP DUP2 ADD SWAP1 PUSH2 0xE0E SWAP2 SWAP1 PUSH2 0x4D64 JUMP JUMPDEST DUP6 DUP8 DUP2 MLOAD DUP2 LT PUSH2 0xE21 JUMPI PUSH2 0xE20 PUSH2 0x47A0 JUMP JUMPDEST JUMPDEST PUSH1 0x20 MUL PUSH1 0x20 ADD ADD MLOAD PUSH1 0x0 ADD DUP7 DUP9 DUP2 MLOAD DUP2 LT PUSH2 0xE3F JUMPI PUSH2 0xE3E PUSH2 0x47A0 JUMP JUMPDEST JUMPDEST PUSH1 0x20 MUL PUSH1 0x20 ADD ADD MLOAD PUSH1 0x20 ADD DUP8 DUP10 DUP2 MLOAD DUP2 LT PUSH2 0xE5D JUMPI PUSH2 0xE5C PUSH2 0x47A0 JUMP JUMPDEST JUMPDEST PUSH1 0x20 MUL PUSH1 0x20 ADD ADD MLOAD PUSH1 0x40 ADD DUP4 SWAP1 MSTORE DUP4 SWAP1 MSTORE DUP4 PUSH4 0xFFFFFFFF AND PUSH4 0xFFFFFFFF AND DUP2 MSTORE POP POP POP POP DUP4 DUP1 PUSH2 0xE8C SWAP1 PUSH2 0x47FE JUMP JUMPDEST SWAP5 POP POP DUP1 DUP1 PUSH2 0xE9A SWAP1 PUSH2 0x47FE JUMP JUMPDEST SWAP2 POP POP PUSH2 0xD35 JUMP JUMPDEST POP DUP1 DUP1 PUSH2 0xEAE SWAP1 PUSH2 0x47FE JUMP JUMPDEST SWAP2 POP POP PUSH2 0xC48 JUMP JUMPDEST POP DUP1 SWAP4 POP POP POP POP SWAP2 SWAP1 POP JUMP JUMPDEST PUSH2 0xECA PUSH2 0x2744 JUMP JUMPDEST PUSH2 0xED2 PUSH2 0x2B25 JUMP JUMPDEST JUMP JUMPDEST PUSH2 0xEDC PUSH2 0x3AD3 JUMP JUMPDEST PUSH1 0x1 PUSH1 0x0 DUP4 PUSH20 0xFFFFFFFFFFFFFFFFFFFFFFFFFFFFFFFFFFFFFFFF AND PUSH20 0xFFFFFFFFFFFFFFFFFFFFFFFFFFFFFFFFFFFFFFFF AND DUP2 MSTORE PUSH1 0x20 ADD SWAP1 DUP2 MSTORE PUSH1 0x20 ADD PUSH1 0x0 KECCAK256 PUSH1 0x40 MLOAD DUP1 PUSH1 0x40 ADD PUSH1 0x40 MSTORE SWAP1 DUP2 PUSH1 0x0 DUP3 ADD SLOAD DUP2 MSTORE PUSH1 0x20 ADD PUSH1 0x1 DUP3 ADD SLOAD DUP2 MSTORE POP POP SWAP1 POP SWAP2 SWAP1 POP JUMP JUMPDEST PUSH1 0x0 PUSH1 0x1 PUSH1 0x0 CALLER PUSH20 0xFFFFFFFFFFFFFFFFFFFFFFFFFFFFFFFFFFFFFFFF AND PUSH20 0xFFFFFFFFFFFFFFFFFFFFFFFFFFFFFFFFFFFFFFFF AND DUP2 MSTORE PUSH1 0x20 ADD SWAP1 DUP2 MSTORE PUSH1 0x20 ADD PUSH1 0x0 KECCAK256 PUSH1 0x0 ADD SLOAD GT PUSH2 0xFC6 JUMPI PUSH1 0x40 MLOAD PUSH32 0x8C379A000000000000000000000000000000000000000000000000000000000 DUP2 MSTORE PUSH1 0x4 ADD PUSH2 0xFBD SWAP1 PUSH2 0x4E3B JUMP JUMPDEST PUSH1 0x40 MLOAD DUP1 SWAP2 SUB SWAP1 REVERT JUMPDEST PUSH1 0x0 PUSH1 0x1 PUSH1 0x0 CALLER PUSH20 0xFFFFFFFFFFFFFFFFFFFFFFFFFFFFFFFFFFFFFFFF AND PUSH20 0xFFFFFFFFFFFFFFFFFFFFFFFFFFFFFFFFFFFFFFFF AND DUP2 MSTORE PUSH1 0x20 ADD SWAP1 DUP2 MSTORE PUSH1 0x20 ADD PUSH1 0x0 KECCAK256 PUSH1 0x0 ADD SLOAD SWAP1 POP PUSH1 0x6 PUSH1 0x0 SWAP1 SLOAD SWAP1 PUSH2 0x100 EXP SWAP1 DIV PUSH20 0xFFFFFFFFFFFFFFFFFFFFFFFFFFFFFFFFFFFFFFFF AND PUSH20 0xFFFFFFFFFFFFFFFFFFFFFFFFFFFFFFFFFFFFFFFF AND PUSH4 0x69328DEC PUSH1 0x3 PUSH1 0x0 SWAP1 SLOAD SWAP1 PUSH2 0x100 EXP SWAP1 DIV PUSH20 0xFFFFFFFFFFFFFFFFFFFFFFFFFFFFFFFFFFFFFFFF AND DUP4 CALLER PUSH1 0x40 MLOAD DUP5 PUSH4 0xFFFFFFFF AND PUSH1 0xE0 SHL DUP2 MSTORE PUSH1 0x4 ADD PUSH2 0x108E SWAP4 SWAP3 SWAP2 SWAP1 PUSH2 0x4E5B JUMP JUMPDEST PUSH1 0x0 PUSH1 0x40 MLOAD DUP1 DUP4 SUB DUP2 PUSH1 0x0 DUP8 DUP1 EXTCODESIZE ISZERO DUP1 ISZERO PUSH2 0x10A8 JUMPI PUSH1 0x0 DUP1 REVERT JUMPDEST POP GAS CALL ISZERO DUP1 ISZERO PUSH2 0x10BC JUMPI RETURNDATASIZE PUSH1 0x0 DUP1 RETURNDATACOPY RETURNDATASIZE PUSH1 0x0 REVERT JUMPDEST POP POP POP POP PUSH1 0x0 PUSH1 0x1 PUSH1 0x0 CALLER PUSH20 0xFFFFFFFFFFFFFFFFFFFFFFFFFFFFFFFFFFFFFFFF AND PUSH20 0xFFFFFFFFFFFFFFFFFFFFFFFFFFFFFFFFFFFFFFFF AND DUP2 MSTORE PUSH1 0x20 ADD SWAP1 DUP2 MSTORE PUSH1 0x20 ADD PUSH1 0x0 KECCAK256 PUSH1 0x0 ADD DUP2 SWAP1 SSTORE POP DUP1 PUSH1 0x1 PUSH1 0x0 CALLER PUSH20 0xFFFFFFFFFFFFFFFFFFFFFFFFFFFFFFFFFFFFFFFF AND PUSH20 0xFFFFFFFFFFFFFFFFFFFFFFFFFFFFFFFFFFFFFFFF AND DUP2 MSTORE PUSH1 0x20 ADD SWAP1 DUP2 MSTORE PUSH1 0x20 ADD PUSH1 0x0 KECCAK256 PUSH1 0x1 ADD PUSH1 0x0 DUP3 DUP3 SLOAD PUSH2 0x115A SWAP2 SWAP1 PUSH2 0x4E92 JUMP JUMPDEST SWAP3 POP POP DUP2 SWAP1 SSTORE POP DUP1 PUSH1 0x2 PUSH1 0x0 DUP3 DUP3 SLOAD PUSH2 0x1173 SWAP2 SWAP1 PUSH2 0x4EE8 JUMP JUMPDEST SWAP3 POP POP DUP2 SWAP1 SSTORE POP POP JUMP JUMPDEST PUSH1 0x0 DUP1 PUSH1 0x0 SWAP1 SLOAD SWAP1 PUSH2 0x100 EXP SWAP1 DIV PUSH20 0xFFFFFFFFFFFFFFFFFFFFFFFFFFFFFFFFFFFFFFFF AND SWAP1 POP SWAP1 JUMP JUMPDEST PUSH1 0x0 PUSH1 0x5 PUSH1 0x0 SWAP1 SLOAD SWAP1 PUSH2 0x100 EXP SWAP1 DIV PUSH20 0xFFFFFFFFFFFFFFFFFFFFFFFFFFFFFFFFFFFFFFFF AND PUSH20 0xFFFFFFFFFFFFFFFFFFFFFFFFFFFFFFFFFFFFFFFF AND PUSH4 0x70A08231 CALLER PUSH1 0x40 MLOAD DUP3 PUSH4 0xFFFFFFFF AND PUSH1 0xE0 SHL DUP2 MSTORE PUSH1 0x4 ADD PUSH2 0x1203 SWAP2 SWAP1 PUSH2 0x44A5 JUMP JUMPDEST PUSH1 0x20 PUSH1 0x40 MLOAD DUP1 DUP4 SUB DUP2 DUP7 GAS STATICCALL ISZERO DUP1 ISZERO PUSH2 0x1220 JUMPI RETURNDATASIZE PUSH1 0x0 DUP1 RETURNDATACOPY RETURNDATASIZE PUSH1 0x0 REVERT JUMPDEST POP POP POP POP PUSH1 0x40 MLOAD RETURNDATASIZE PUSH1 0x1F NOT PUSH1 0x1F DUP3 ADD AND DUP3 ADD DUP1 PUSH1 0x40 MSTORE POP DUP2 ADD SWAP1 PUSH2 0x1244 SWAP2 SWAP1 PUSH2 0x4C82 JUMP JUMPDEST GT PUSH2 0x1284 JUMPI PUSH1 0x40 MLOAD PUSH32 0x8C379A000000000000000000000000000000000000000000000000000000000 DUP2 MSTORE PUSH1 0x4 ADD PUSH2 0x127B SWAP1 PUSH2 0x4F8E JUMP JUMPDEST PUSH1 0x40 MLOAD DUP1 SWAP2 SUB SWAP1 REVERT JUMPDEST PUSH1 0x7 PUSH1 0x0 PUSH1 0xE SLOAD DUP2 MSTORE PUSH1 0x20 ADD SWAP1 DUP2 MSTORE PUSH1 0x20 ADD PUSH1 0x0 KECCAK256 PUSH1 0x1 ADD SLOAD TIMESTAMP LT PUSH2 0x12DE JUMPI PUSH1 0x40 MLOAD PUSH32 0x8C379A000000000000000000000000000000000000000000000000000000000 DUP2 MSTORE PUSH1 0x4 ADD PUSH2 0x12D5 SWAP1 PUSH2 0x4FFA JUMP JUMPDEST PUSH1 0x40 MLOAD DUP1 SWAP2 SUB SWAP1 REVERT JUMPDEST PUSH2 0x12E9 PUSH1 0xE SLOAD PUSH2 0x2628 JUMP JUMPDEST DUP2 MLOAD EQ PUSH2 0x132B JUMPI PUSH1 0x40 MLOAD PUSH32 0x8C379A000000000000000000000000000000000000000000000000000000000 DUP2 MSTORE PUSH1 0x4 ADD PUSH2 0x1322 SWAP1 PUSH2 0x508C JUMP JUMPDEST PUSH1 0x40 MLOAD DUP1 SWAP2 SUB SWAP1 REVERT JUMPDEST PUSH1 0x0 PUSH2 0x1338 PUSH1 0xE SLOAD PUSH2 0x2628 JUMP JUMPDEST SWAP1 POP PUSH1 0x0 PUSH1 0x5 PUSH1 0x0 SWAP1 SLOAD SWAP1 PUSH2 0x100 EXP SWAP1 DIV PUSH20 0xFFFFFFFFFFFFFFFFFFFFFFFFFFFFFFFFFFFFFFFF AND PUSH20 0xFFFFFFFFFFFFFFFFFFFFFFFFFFFFFFFFFFFFFFFF AND PUSH4 0x70A08231 CALLER PUSH1 0x40 MLOAD DUP3 PUSH4 0xFFFFFFFF AND PUSH1 0xE0 SHL DUP2 MSTORE PUSH1 0x4 ADD PUSH2 0x1397 SWAP2 SWAP1 PUSH2 0x44A5 JUMP JUMPDEST PUSH1 0x20 PUSH1 0x40 MLOAD DUP1 DUP4 SUB DUP2 DUP7 GAS STATICCALL ISZERO DUP1 ISZERO PUSH2 0x13B4 JUMPI RETURNDATASIZE PUSH1 0x0 DUP1 RETURNDATACOPY RETURNDATASIZE PUSH1 0x0 REVERT JUMPDEST POP POP POP POP PUSH1 0x40 MLOAD RETURNDATASIZE PUSH1 0x1F NOT PUSH1 0x1F DUP3 ADD AND DUP3 ADD DUP1 PUSH1 0x40 MSTORE POP DUP2 ADD SWAP1 PUSH2 0x13D8 SWAP2 SWAP1 PUSH2 0x4C82 JUMP JUMPDEST SWAP1 POP PUSH1 0x0 JUMPDEST DUP3 DUP2 LT ISZERO PUSH2 0x1521 JUMPI PUSH1 0x40 MLOAD DUP1 PUSH1 0x40 ADD PUSH1 0x40 MSTORE DUP1 DUP6 DUP4 DUP2 MLOAD DUP2 LT PUSH2 0x1403 JUMPI PUSH2 0x1402 PUSH2 0x47A0 JUMP JUMPDEST JUMPDEST PUSH1 0x20 MUL PUSH1 0x20 ADD ADD MLOAD PUSH1 0x20 ADD MLOAD PUSH1 0xFF AND DUP2 MSTORE PUSH1 0x20 ADD DUP6 DUP4 DUP2 MLOAD DUP2 LT PUSH2 0x142A JUMPI PUSH2 0x1429 PUSH2 0x47A0 JUMP JUMPDEST JUMPDEST PUSH1 0x20 MUL PUSH1 0x20 ADD ADD MLOAD PUSH1 0x40 ADD MLOAD PUSH1 0xFF AND DUP2 MSTORE POP PUSH1 0xA PUSH1 0x0 CALLER PUSH20 0xFFFFFFFFFFFFFFFFFFFFFFFFFFFFFFFFFFFFFFFF AND PUSH20 0xFFFFFFFFFFFFFFFFFFFFFFFFFFFFFFFFFFFFFFFF AND DUP2 MSTORE PUSH1 0x20 ADD SWAP1 DUP2 MSTORE PUSH1 0x20 ADD PUSH1 0x0 KECCAK256 PUSH1 0x0 PUSH1 0xE SLOAD DUP2 MSTORE PUSH1 0x20 ADD SWAP1 DUP2 MSTORE PUSH1 0x20 ADD PUSH1 0x0 KECCAK256 PUSH1 0x0 DUP7 DUP5 DUP2 MLOAD DUP2 LT PUSH2 0x14A3 JUMPI PUSH2 0x14A2 PUSH2 0x47A0 JUMP JUMPDEST JUMPDEST PUSH1 0x20 MUL PUSH1 0x20 ADD ADD MLOAD PUSH1 0x0 ADD MLOAD PUSH4 0xFFFFFFFF AND PUSH4 0xFFFFFFFF AND DUP2 MSTORE PUSH1 0x20 ADD SWAP1 DUP2 MSTORE PUSH1 0x20 ADD PUSH1 0x0 KECCAK256 PUSH1 0x0 DUP3 ADD MLOAD DUP2 PUSH1 0x0 ADD PUSH1 0x0 PUSH2 0x100 EXP DUP2 SLOAD DUP2 PUSH1 0xFF MUL NOT AND SWAP1 DUP4 PUSH1 0xFF AND MUL OR SWAP1 SSTORE POP PUSH1 0x20 DUP3 ADD MLOAD DUP2 PUSH1 0x0 ADD PUSH1 0x1 PUSH2 0x100 EXP DUP2 SLOAD DUP2 PUSH1 0xFF MUL NOT AND SWAP1 DUP4 PUSH1 0xFF AND MUL OR SWAP1 SSTORE POP SWAP1 POP POP DUP1 DUP1 PUSH2 0x1519 SWAP1 PUSH2 0x47FE JUMP JUMPDEST SWAP2 POP POP PUSH2 0x13DD JUMP JUMPDEST POP PUSH1 0x0 DUP1 PUSH1 0x0 SWAP1 POP JUMPDEST PUSH1 0x8 PUSH1 0x0 PUSH1 0xE SLOAD DUP2 MSTORE PUSH1 0x20 ADD SWAP1 DUP2 MSTORE PUSH1 0x20 ADD PUSH1 0x0 KECCAK256 DUP1 SLOAD SWAP1 POP DUP2 LT ISZERO PUSH2 0x162A JUMPI PUSH1 0x8 PUSH1 0x0 PUSH1 0xE SLOAD DUP2 MSTORE PUSH1 0x20 ADD SWAP1 DUP2 MSTORE PUSH1 0x20 ADD PUSH1 0x0 KECCAK256 DUP2 DUP2 SLOAD DUP2 LT PUSH2 0x1571 JUMPI PUSH2 0x1570 PUSH2 0x47A0 JUMP JUMPDEST JUMPDEST SWAP1 PUSH1 0x0 MSTORE PUSH1 0x20 PUSH1 0x0 KECCAK256 SWAP1 PUSH1 0x2 MUL ADD PUSH1 0x0 ADD PUSH1 0x0 SWAP1 SLOAD SWAP1 PUSH2 0x100 EXP SWAP1 DIV PUSH20 0xFFFFFFFFFFFFFFFFFFFFFFFFFFFFFFFFFFFFFFFF AND PUSH20 0xFFFFFFFFFFFFFFFFFFFFFFFFFFFFFFFFFFFFFFFF AND CALLER PUSH20 0xFFFFFFFFFFFFFFFFFFFFFFFFFFFFFFFFFFFFFFFF AND SUB PUSH2 0x1613 JUMPI DUP3 PUSH1 0x8 PUSH1 0x0 PUSH1 0xE SLOAD DUP2 MSTORE PUSH1 0x20 ADD SWAP1 DUP2 MSTORE PUSH1 0x20 ADD PUSH1 0x0 KECCAK256 DUP3 DUP2 SLOAD DUP2 LT PUSH2 0x15FD JUMPI PUSH2 0x15FC PUSH2 0x47A0 JUMP JUMPDEST JUMPDEST SWAP1 PUSH1 0x0 MSTORE PUSH1 0x20 PUSH1 0x0 KECCAK256 SWAP1 PUSH1 0x2 MUL ADD PUSH1 0x1 ADD DUP2 SWAP1 SSTORE POP JUMPDEST PUSH1 0x1 SWAP2 POP DUP1 DUP1 PUSH2 0x1622 SWAP1 PUSH2 0x47FE JUMP JUMPDEST SWAP2 POP POP PUSH2 0x152A JUMP JUMPDEST POP PUSH1 0x0 ISZERO ISZERO DUP2 ISZERO ISZERO SUB PUSH2 0x16F4 JUMPI PUSH1 0x8 PUSH1 0x0 PUSH1 0xE SLOAD DUP2 MSTORE PUSH1 0x20 ADD SWAP1 DUP2 MSTORE PUSH1 0x20 ADD PUSH1 0x0 KECCAK256 PUSH1 0x40 MLOAD DUP1 PUSH1 0x40 ADD PUSH1 0x40 MSTORE DUP1 CALLER PUSH20 0xFFFFFFFFFFFFFFFFFFFFFFFFFFFFFFFFFFFFFFFF AND DUP2 MSTORE PUSH1 0x20 ADD DUP5 DUP2 MSTORE POP SWAP1 DUP1 PUSH1 0x1 DUP2 SLOAD ADD DUP1 DUP3 SSTORE DUP1 SWAP2 POP POP PUSH1 0x1 SWAP1 SUB SWAP1 PUSH1 0x0 MSTORE PUSH1 0x20 PUSH1 0x0 KECCAK256 SWAP1 PUSH1 0x2 MUL ADD PUSH1 0x0 SWAP1 SWAP2 SWAP1 SWAP2 SWAP1 SWAP2 POP PUSH1 0x0 DUP3 ADD MLOAD DUP2 PUSH1 0x0 ADD PUSH1 0x0 PUSH2 0x100 EXP DUP2 SLOAD DUP2 PUSH20 0xFFFFFFFFFFFFFFFFFFFFFFFFFFFFFFFFFFFFFFFF MUL NOT AND SWAP1 DUP4 PUSH20 0xFFFFFFFFFFFFFFFFFFFFFFFFFFFFFFFFFFFFFFFF AND MUL OR SWAP1 SSTORE POP PUSH1 0x20 DUP3 ADD MLOAD DUP2 PUSH1 0x1 ADD SSTORE POP POP JUMPDEST POP POP POP POP JUMP JUMPDEST PUSH1 0x0 DUP1 PUSH1 0x4 PUSH1 0x0 SWAP1 SLOAD SWAP1 PUSH2 0x100 EXP SWAP1 DIV PUSH20 0xFFFFFFFFFFFFFFFFFFFFFFFFFFFFFFFFFFFFFFFF AND PUSH20 0xFFFFFFFFFFFFFFFFFFFFFFFFFFFFFFFFFFFFFFFF AND PUSH4 0x70A08231 ADDRESS PUSH1 0x40 MLOAD DUP3 PUSH4 0xFFFFFFFF AND PUSH1 0xE0 SHL DUP2 MSTORE PUSH1 0x4 ADD PUSH2 0x1758 SWAP2 SWAP1 PUSH2 0x44A5 JUMP JUMPDEST PUSH1 0x20 PUSH1 0x40 MLOAD DUP1 DUP4 SUB DUP2 DUP7 GAS STATICCALL ISZERO DUP1 ISZERO PUSH2 0x1775 JUMPI RETURNDATASIZE PUSH1 0x0 DUP1 RETURNDATACOPY RETURNDATASIZE PUSH1 0x0 REVERT JUMPDEST POP POP POP POP PUSH1 0x40 MLOAD RETURNDATASIZE PUSH1 0x1F NOT PUSH1 0x1F DUP3 ADD AND DUP3 ADD DUP1 PUSH1 0x40 MSTORE POP DUP2 ADD SWAP1 PUSH2 0x1799 SWAP2 SWAP1 PUSH2 0x4C82 JUMP JUMPDEST SWAP1 POP PUSH1 0x0 PUSH3 0xF4240 PUSH1 0x32 PUSH1 0x5 PUSH1 0x0 SWAP1 SLOAD SWAP1 PUSH2 0x100 EXP SWAP1 DIV PUSH20 0xFFFFFFFFFFFFFFFFFFFFFFFFFFFFFFFFFFFFFFFF AND PUSH20 0xFFFFFFFFFFFFFFFFFFFFFFFFFFFFFFFFFFFFFFFF AND PUSH4 0x18160DDD PUSH1 0x40 MLOAD DUP2 PUSH4 0xFFFFFFFF AND PUSH1 0xE0 SHL DUP2 MSTORE PUSH1 0x4 ADD PUSH1 0x20 PUSH1 0x40 MLOAD DUP1 DUP4 SUB DUP2 DUP7 GAS STATICCALL ISZERO DUP1 ISZERO PUSH2 0x1810 JUMPI RETURNDATASIZE PUSH1 0x0 DUP1 RETURNDATACOPY RETURNDATASIZE PUSH1 0x0 REVERT JUMPDEST POP POP POP POP PUSH1 0x40 MLOAD RETURNDATASIZE PUSH1 0x1F NOT PUSH1 0x1F DUP3 ADD AND DUP3 ADD DUP1 PUSH1 0x40 MSTORE POP DUP2 ADD SWAP1 PUSH2 0x1834 SWAP2 SWAP1 PUSH2 0x4C82 JUMP JUMPDEST PUSH2 0x183E SWAP2 SWAP1 PUSH2 0x50AC JUMP JUMPDEST PUSH2 0x1848 SWAP2 SWAP1 PUSH2 0x50AC JUMP JUMPDEST SWAP1 POP PUSH1 0x2 SLOAD DUP2 DUP4 PUSH2 0x1859 SWAP2 SWAP1 PUSH2 0x4EE8 JUMP JUMPDEST PUSH2 0x1863 SWAP2 SWAP1 PUSH2 0x4EE8 JUMP JUMPDEST SWAP3 POP POP POP SWAP1 JUMP JUMPDEST PUSH1 0x60 PUSH1 0x0 PUSH1 0x8 PUSH1 0x0 DUP5 DUP2 MSTORE PUSH1 0x20 ADD SWAP1 DUP2 MSTORE PUSH1 0x20 ADD PUSH1 0x0 KECCAK256 DUP1 SLOAD SWAP1 POP SWAP1 POP PUSH1 0x0 DUP1 PUSH1 0x0 DUP4 PUSH8 0xFFFFFFFFFFFFFFFF DUP2 GT ISZERO PUSH2 0x18A6 JUMPI PUSH2 0x18A5 PUSH2 0x3E1D JUMP JUMPDEST JUMPDEST PUSH1 0x40 MLOAD SWAP1 DUP1 DUP3 MSTORE DUP1 PUSH1 0x20 MUL PUSH1 0x20 ADD DUP3 ADD PUSH1 0x40 MSTORE DUP1 ISZERO PUSH2 0x18DF JUMPI DUP2 PUSH1 0x20 ADD JUMPDEST PUSH2 0x18CC PUSH2 0x3AED JUMP JUMPDEST DUP2 MSTORE PUSH1 0x20 ADD SWAP1 PUSH1 0x1 SWAP1 SUB SWAP1 DUP2 PUSH2 0x18C4 JUMPI SWAP1 POP JUMPDEST POP SWAP1 POP PUSH1 0x0 DUP1 PUSH1 0x0 SWAP1 POP JUMPDEST DUP6 DUP2 LT ISZERO PUSH2 0x19F2 JUMPI PUSH1 0x8 PUSH1 0x0 DUP10 DUP2 MSTORE PUSH1 0x20 ADD SWAP1 DUP2 MSTORE PUSH1 0x20 ADD PUSH1 0x0 KECCAK256 DUP2 DUP2 SLOAD DUP2 LT PUSH2 0x1917 JUMPI PUSH2 0x1916 PUSH2 0x47A0 JUMP JUMPDEST JUMPDEST SWAP1 PUSH1 0x0 MSTORE PUSH1 0x20 PUSH1 0x0 KECCAK256 SWAP1 PUSH1 0x2 MUL ADD PUSH1 0x0 ADD PUSH1 0x0 SWAP1 SLOAD SWAP1 PUSH2 0x100 EXP SWAP1 DIV PUSH20 0xFFFFFFFFFFFFFFFFFFFFFFFFFFFFFFFFFFFFFFFF AND SWAP5 POP PUSH1 0x8 PUSH1 0x0 DUP10 DUP2 MSTORE PUSH1 0x20 ADD SWAP1 DUP2 MSTORE PUSH1 0x20 ADD PUSH1 0x0 KECCAK256 DUP2 DUP2 SLOAD DUP2 LT PUSH2 0x1970 JUMPI PUSH2 0x196F PUSH2 0x47A0 JUMP JUMPDEST JUMPDEST SWAP1 PUSH1 0x0 MSTORE PUSH1 0x20 PUSH1 0x0 KECCAK256 SWAP1 PUSH1 0x2 MUL ADD PUSH1 0x1 ADD SLOAD SWAP4 POP PUSH2 0x198E DUP9 DUP7 PUSH2 0x2B88 JUMP JUMPDEST SWAP2 POP PUSH1 0x40 MLOAD DUP1 PUSH1 0x60 ADD PUSH1 0x40 MSTORE DUP1 DUP7 PUSH20 0xFFFFFFFFFFFFFFFFFFFFFFFFFFFFFFFFFFFFFFFF AND DUP2 MSTORE PUSH1 0x20 ADD DUP6 DUP2 MSTORE PUSH1 0x20 ADD DUP4 DUP2 MSTORE POP DUP4 DUP3 DUP2 MLOAD DUP2 LT PUSH2 0x19D4 JUMPI PUSH2 0x19D3 PUSH2 0x47A0 JUMP JUMPDEST JUMPDEST PUSH1 0x20 MUL PUSH1 0x20 ADD ADD DUP2 SWAP1 MSTORE POP DUP1 DUP1 PUSH2 0x19EA SWAP1 PUSH2 0x47FE JUMP JUMPDEST SWAP2 POP POP PUSH2 0x18EA JUMP JUMPDEST POP DUP2 SWAP6 POP POP POP POP POP POP SWAP2 SWAP1 POP JUMP JUMPDEST PUSH2 0x1A08 PUSH2 0x2744 JUMP JUMPDEST PUSH1 0x5 PUSH1 0x0 SWAP1 SLOAD SWAP1 PUSH2 0x100 EXP SWAP1 DIV PUSH20 0xFFFFFFFFFFFFFFFFFFFFFFFFFFFFFFFFFFFFFFFF AND PUSH20 0xFFFFFFFFFFFFFFFFFFFFFFFFFFFFFFFFFFFFFFFF AND PUSH4 0x18160DDD PUSH1 0x40 MLOAD DUP2 PUSH4 0xFFFFFFFF AND PUSH1 0xE0 SHL DUP2 MSTORE PUSH1 0x4 ADD PUSH1 0x20 PUSH1 0x40 MLOAD DUP1 DUP4 SUB DUP2 DUP7 GAS STATICCALL ISZERO DUP1 ISZERO PUSH2 0x1A75 JUMPI RETURNDATASIZE PUSH1 0x0 DUP1 RETURNDATACOPY RETURNDATASIZE PUSH1 0x0 REVERT JUMPDEST POP POP POP POP PUSH1 0x40 MLOAD RETURNDATASIZE PUSH1 0x1F NOT PUSH1 0x1F DUP3 ADD AND DUP3 ADD DUP1 PUSH1 0x40 MSTORE POP DUP2 ADD SWAP1 PUSH2 0x1A99 SWAP2 SWAP1 PUSH2 0x4C82 JUMP JUMPDEST PUSH1 0x9 PUSH1 0x0 DUP4 DUP2 MSTORE PUSH1 0x20 ADD SWAP1 DUP2 MSTORE PUSH1 0x20 ADD PUSH1 0x0 KECCAK256 DUP2 SWAP1 SSTORE POP PUSH1 0x0 PUSH2 0x1ABB DUP3 PUSH2 0x186A JUMP JUMPDEST SWAP1 POP PUSH1 0x0 PUSH2 0x1AC9 DUP4 DUP4 PUSH2 0x2FF4 JUMP JUMPDEST SWAP1 POP PUSH1 0x0 PUSH1 0xC PUSH1 0x0 DUP6 DUP2 MSTORE PUSH1 0x20 ADD SWAP1 DUP2 MSTORE PUSH1 0x20 ADD PUSH1 0x0 KECCAK256 PUSH1 0x40 MLOAD DUP1 PUSH1 0xA0 ADD PUSH1 0x40 MSTORE DUP1 DUP5 PUSH1 0x0 DUP2 MLOAD DUP2 LT PUSH2 0x1AFF JUMPI PUSH2 0x1AFE PUSH2 0x47A0 JUMP JUMPDEST JUMPDEST PUSH1 0x20 MUL PUSH1 0x20 ADD ADD MLOAD PUSH1 0x0 ADD MLOAD PUSH20 0xFFFFFFFFFFFFFFFFFFFFFFFFFFFFFFFFFFFFFFFF AND DUP2 MSTORE PUSH1 0x20 ADD PUSH1 0x1 DUP2 MSTORE PUSH1 0x20 ADD DUP5 PUSH1 0x0 DUP2 MLOAD DUP2 LT PUSH2 0x1B41 JUMPI PUSH2 0x1B40 PUSH2 0x47A0 JUMP JUMPDEST JUMPDEST PUSH1 0x20 MUL PUSH1 0x20 ADD ADD MLOAD PUSH1 0x20 ADD MLOAD DUP2 MSTORE PUSH1 0x20 ADD DUP5 PUSH1 0x0 DUP2 MLOAD DUP2 LT PUSH2 0x1B66 JUMPI PUSH2 0x1B65 PUSH2 0x47A0 JUMP JUMPDEST JUMPDEST PUSH1 0x20 MUL PUSH1 0x20 ADD ADD MLOAD PUSH1 0x40 ADD MLOAD DUP2 MSTORE PUSH1 0x20 ADD DUP5 PUSH1 0x0 DUP2 MLOAD DUP2 LT PUSH2 0x1B8B JUMPI PUSH2 0x1B8A PUSH2 0x47A0 JUMP JUMPDEST JUMPDEST PUSH1 0x20 MUL PUSH1 0x20 ADD ADD MLOAD PUSH1 0xC0 ADD MLOAD DUP2 MSTORE POP SWAP1 DUP1 PUSH1 0x1 DUP2 SLOAD ADD DUP1 DUP3 SSTORE DUP1 SWAP2 POP POP PUSH1 0x1 SWAP1 SUB SWAP1 PUSH1 0x0 MSTORE PUSH1 0x20 PUSH1 0x0 KECCAK256 SWAP1 PUSH1 0x5 MUL ADD PUSH1 0x0 SWAP1 SWAP2 SWAP1 SWAP2 SWAP1 SWAP2 POP PUSH1 0x0 DUP3 ADD MLOAD DUP2 PUSH1 0x0 ADD PUSH1 0x0 PUSH2 0x100 EXP DUP2 SLOAD DUP2 PUSH20 0xFFFFFFFFFFFFFFFFFFFFFFFFFFFFFFFFFFFFFFFF MUL NOT AND SWAP1 DUP4 PUSH20 0xFFFFFFFFFFFFFFFFFFFFFFFFFFFFFFFFFFFFFFFF AND MUL OR SWAP1 SSTORE POP PUSH1 0x20 DUP3 ADD MLOAD DUP2 PUSH1 0x1 ADD SSTORE PUSH1 0x40 DUP3 ADD MLOAD DUP2 PUSH1 0x2 ADD SSTORE PUSH1 0x60 DUP3 ADD MLOAD DUP2 PUSH1 0x3 ADD SSTORE PUSH1 0x80 DUP3 ADD MLOAD DUP2 PUSH1 0x4 ADD SSTORE POP POP PUSH1 0x0 PUSH1 0x1 SWAP1 POP JUMPDEST PUSH1 0x9 PUSH1 0x0 DUP7 DUP2 MSTORE PUSH1 0x20 ADD SWAP1 DUP2 MSTORE PUSH1 0x20 ADD PUSH1 0x0 KECCAK256 SLOAD DUP2 LT ISZERO PUSH2 0x1F12 JUMPI DUP3 PUSH1 0x1 DUP3 PUSH2 0x1C64 SWAP2 SWAP1 PUSH2 0x4EE8 JUMP JUMPDEST DUP2 MLOAD DUP2 LT PUSH2 0x1C75 JUMPI PUSH2 0x1C74 PUSH2 0x47A0 JUMP JUMPDEST JUMPDEST PUSH1 0x20 MUL PUSH1 0x20 ADD ADD MLOAD PUSH1 0x0 ADD MLOAD PUSH20 0xFFFFFFFFFFFFFFFFFFFFFFFFFFFFFFFFFFFFFFFF AND DUP4 DUP3 DUP2 MLOAD DUP2 LT PUSH2 0x1CAA JUMPI PUSH2 0x1CA9 PUSH2 0x47A0 JUMP JUMPDEST JUMPDEST PUSH1 0x20 MUL PUSH1 0x20 ADD ADD MLOAD PUSH1 0x0 ADD MLOAD PUSH20 0xFFFFFFFFFFFFFFFFFFFFFFFFFFFFFFFFFFFFFFFF AND SUB PUSH2 0x1D8D JUMPI PUSH1 0xC PUSH1 0x0 DUP7 DUP2 MSTORE PUSH1 0x20 ADD SWAP1 DUP2 MSTORE PUSH1 0x20 ADD PUSH1 0x0 KECCAK256 DUP3 DUP2 SLOAD DUP2 LT PUSH2 0x1CF6 JUMPI PUSH2 0x1CF5 PUSH2 0x47A0 JUMP JUMPDEST JUMPDEST SWAP1 PUSH1 0x0 MSTORE PUSH1 0x20 PUSH1 0x0 KECCAK256 SWAP1 PUSH1 0x5 MUL ADD PUSH1 0x1 ADD PUSH1 0x0 DUP2 SLOAD DUP1 SWAP3 SWAP2 SWAP1 PUSH2 0x1D18 SWAP1 PUSH2 0x47FE JUMP JUMPDEST SWAP2 SWAP1 POP SSTORE POP DUP3 DUP2 DUP2 MLOAD DUP2 LT PUSH2 0x1D30 JUMPI PUSH2 0x1D2F PUSH2 0x47A0 JUMP JUMPDEST JUMPDEST PUSH1 0x20 MUL PUSH1 0x20 ADD ADD MLOAD PUSH1 0xC0 ADD MLOAD PUSH1 0xC PUSH1 0x0 DUP8 DUP2 MSTORE PUSH1 0x20 ADD SWAP1 DUP2 MSTORE PUSH1 0x20 ADD PUSH1 0x0 KECCAK256 DUP4 DUP2 SLOAD DUP2 LT PUSH2 0x1D61 JUMPI PUSH2 0x1D60 PUSH2 0x47A0 JUMP JUMPDEST JUMPDEST SWAP1 PUSH1 0x0 MSTORE PUSH1 0x20 PUSH1 0x0 KECCAK256 SWAP1 PUSH1 0x5 MUL ADD PUSH1 0x4 ADD PUSH1 0x0 DUP3 DUP3 SLOAD PUSH2 0x1D81 SWAP2 SWAP1 PUSH2 0x4E92 JUMP JUMPDEST SWAP3 POP POP DUP2 SWAP1 SSTORE POP PUSH2 0x1EFF JUMP JUMPDEST PUSH1 0xC PUSH1 0x0 DUP7 DUP2 MSTORE PUSH1 0x20 ADD SWAP1 DUP2 MSTORE PUSH1 0x20 ADD PUSH1 0x0 KECCAK256 PUSH1 0x40 MLOAD DUP1 PUSH1 0xA0 ADD PUSH1 0x40 MSTORE DUP1 DUP6 DUP5 DUP2 MLOAD DUP2 LT PUSH2 0x1DBE JUMPI PUSH2 0x1DBD PUSH2 0x47A0 JUMP JUMPDEST JUMPDEST PUSH1 0x20 MUL PUSH1 0x20 ADD ADD MLOAD PUSH1 0x0 ADD MLOAD PUSH20 0xFFFFFFFFFFFFFFFFFFFFFFFFFFFFFFFFFFFFFFFF AND DUP2 MSTORE PUSH1 0x20 ADD PUSH1 0x1 DUP2 MSTORE PUSH1 0x20 ADD DUP6 DUP5 DUP2 MLOAD DUP2 LT PUSH2 0x1DFF JUMPI PUSH2 0x1DFE PUSH2 0x47A0 JUMP JUMPDEST JUMPDEST PUSH1 0x20 MUL PUSH1 0x20 ADD ADD MLOAD PUSH1 0x20 ADD MLOAD DUP2 MSTORE PUSH1 0x20 ADD DUP6 DUP5 DUP2 MLOAD DUP2 LT PUSH2 0x1E23 JUMPI PUSH2 0x1E22 PUSH2 0x47A0 JUMP JUMPDEST JUMPDEST PUSH1 0x20 MUL PUSH1 0x20 ADD ADD MLOAD PUSH1 0x40 ADD MLOAD DUP2 MSTORE PUSH1 0x20 ADD DUP6 DUP5 DUP2 MLOAD DUP2 LT PUSH2 0x1E47 JUMPI PUSH2 0x1E46 PUSH2 0x47A0 JUMP JUMPDEST JUMPDEST PUSH1 0x20 MUL PUSH1 0x20 ADD ADD MLOAD PUSH1 0xC0 ADD MLOAD DUP2 MSTORE POP SWAP1 DUP1 PUSH1 0x1 DUP2 SLOAD ADD DUP1 DUP3 SSTORE DUP1 SWAP2 POP POP PUSH1 0x1 SWAP1 SUB SWAP1 PUSH1 0x0 MSTORE PUSH1 0x20 PUSH1 0x0 KECCAK256 SWAP1 PUSH1 0x5 MUL ADD PUSH1 0x0 SWAP1 SWAP2 SWAP1 SWAP2 SWAP1 SWAP2 POP PUSH1 0x0 DUP3 ADD MLOAD DUP2 PUSH1 0x0 ADD PUSH1 0x0 PUSH2 0x100 EXP DUP2 SLOAD DUP2 PUSH20 0xFFFFFFFFFFFFFFFFFFFFFFFFFFFFFFFFFFFFFFFF MUL NOT AND SWAP1 DUP4 PUSH20 0xFFFFFFFFFFFFFFFFFFFFFFFFFFFFFFFFFFFFFFFF AND MUL OR SWAP1 SSTORE POP PUSH1 0x20 DUP3 ADD MLOAD DUP2 PUSH1 0x1 ADD SSTORE PUSH1 0x40 DUP3 ADD MLOAD DUP2 PUSH1 0x2 ADD SSTORE PUSH1 0x60 DUP3 ADD MLOAD DUP2 PUSH1 0x3 ADD SSTORE PUSH1 0x80 DUP3 ADD MLOAD DUP2 PUSH1 0x4 ADD SSTORE POP POP DUP2 DUP1 PUSH2 0x1EFB SWAP1 PUSH2 0x47FE JUMP JUMPDEST SWAP3 POP POP JUMPDEST DUP1 DUP1 PUSH2 0x1F0A SWAP1 PUSH2 0x47FE JUMP JUMPDEST SWAP2 POP POP PUSH2 0x1C3B JUMP JUMPDEST POP PUSH1 0x0 JUMPDEST PUSH1 0xC PUSH1 0x0 DUP7 DUP2 MSTORE PUSH1 0x20 ADD SWAP1 DUP2 MSTORE PUSH1 0x20 ADD PUSH1 0x0 KECCAK256 DUP1 SLOAD SWAP1 POP DUP2 LT ISZERO PUSH2 0x2081 JUMPI PUSH1 0x0 PUSH1 0xC PUSH1 0x0 DUP8 DUP2 MSTORE PUSH1 0x20 ADD SWAP1 DUP2 MSTORE PUSH1 0x20 ADD PUSH1 0x0 KECCAK256 DUP3 DUP2 SLOAD DUP2 LT PUSH2 0x1F5B JUMPI PUSH2 0x1F5A PUSH2 0x47A0 JUMP JUMPDEST JUMPDEST SWAP1 PUSH1 0x0 MSTORE PUSH1 0x20 PUSH1 0x0 KECCAK256 SWAP1 PUSH1 0x5 MUL ADD PUSH1 0x0 ADD PUSH1 0x0 SWAP1 SLOAD SWAP1 PUSH2 0x100 EXP SWAP1 DIV PUSH20 0xFFFFFFFFFFFFFFFFFFFFFFFFFFFFFFFFFFFFFFFF AND SWAP1 POP PUSH1 0xC PUSH1 0x0 DUP8 DUP2 MSTORE PUSH1 0x20 ADD SWAP1 DUP2 MSTORE PUSH1 0x20 ADD PUSH1 0x0 KECCAK256 DUP3 DUP2 SLOAD DUP2 LT PUSH2 0x1FB4 JUMPI PUSH2 0x1FB3 PUSH2 0x47A0 JUMP JUMPDEST JUMPDEST SWAP1 PUSH1 0x0 MSTORE PUSH1 0x20 PUSH1 0x0 KECCAK256 SWAP1 PUSH1 0x5 MUL ADD PUSH1 0x4 ADD SLOAD PUSH1 0x1 PUSH1 0x0 DUP4 PUSH20 0xFFFFFFFFFFFFFFFFFFFFFFFFFFFFFFFFFFFFFFFF AND PUSH20 0xFFFFFFFFFFFFFFFFFFFFFFFFFFFFFFFFFFFFFFFF AND DUP2 MSTORE PUSH1 0x20 ADD SWAP1 DUP2 MSTORE PUSH1 0x20 ADD PUSH1 0x0 KECCAK256 PUSH1 0x0 ADD PUSH1 0x0 DUP3 DUP3 SLOAD PUSH2 0x2017 SWAP2 SWAP1 PUSH2 0x4E92 JUMP JUMPDEST SWAP3 POP POP DUP2 SWAP1 SSTORE POP PUSH1 0xC PUSH1 0x0 DUP8 DUP2 MSTORE PUSH1 0x20 ADD SWAP1 DUP2 MSTORE PUSH1 0x20 ADD PUSH1 0x0 KECCAK256 DUP3 DUP2 SLOAD DUP2 LT PUSH2 0x2043 JUMPI PUSH2 0x2042 PUSH2 0x47A0 JUMP JUMPDEST JUMPDEST SWAP1 PUSH1 0x0 MSTORE PUSH1 0x20 PUSH1 0x0 KECCAK256 SWAP1 PUSH1 0x5 MUL ADD PUSH1 0x4 ADD SLOAD PUSH1 0x2 PUSH1 0x0 DUP3 DUP3 SLOAD PUSH2 0x2066 SWAP2 SWAP1 PUSH2 0x4E92 JUMP JUMPDEST SWAP3 POP POP DUP2 SWAP1 SSTORE POP POP DUP1 DUP1 PUSH2 0x2079 SWAP1 PUSH2 0x47FE JUMP JUMPDEST SWAP2 POP POP PUSH2 0x1F16 JUMP JUMPDEST POP POP POP POP POP JUMP JUMPDEST PUSH2 0x2090 PUSH2 0x2744 JUMP JUMPDEST PUSH1 0x0 PUSH20 0xFFFFFFFFFFFFFFFFFFFFFFFFFFFFFFFFFFFFFFFF AND DUP2 PUSH20 0xFFFFFFFFFFFFFFFFFFFFFFFFFFFFFFFFFFFFFFFF AND SUB PUSH2 0x20FF JUMPI PUSH1 0x40 MLOAD PUSH32 0x8C379A000000000000000000000000000000000000000000000000000000000 DUP2 MSTORE PUSH1 0x4 ADD PUSH2 0x20F6 SWAP1 PUSH2 0x5178 JUMP JUMPDEST PUSH1 0x40 MLOAD DUP1 SWAP2 SUB SWAP1 REVERT JUMPDEST PUSH2 0x2108 DUP2 PUSH2 0x2A61 JUMP JUMPDEST POP JUMP JUMPDEST PUSH1 0x0 PUSH1 0xE SLOAD SWAP1 POP SWAP1 JUMP JUMPDEST PUSH1 0x0 PUSH1 0x32 DUP3 PUSH2 0x2124 SWAP2 SWAP1 PUSH2 0x51C7 JUMP JUMPDEST EQ PUSH2 0x2164 JUMPI PUSH1 0x40 MLOAD PUSH32 0x8C379A000000000000000000000000000000000000000000000000000000000 DUP2 MSTORE PUSH1 0x4 ADD PUSH2 0x215B SWAP1 PUSH2 0x526A JUMP JUMPDEST PUSH1 0x40 MLOAD DUP1 SWAP2 SUB SWAP1 REVERT JUMPDEST PUSH1 0x3 PUSH1 0x0 SWAP1 SLOAD SWAP1 PUSH2 0x100 EXP SWAP1 DIV PUSH20 0xFFFFFFFFFFFFFFFFFFFFFFFFFFFFFFFFFFFFFFFF AND PUSH20 0xFFFFFFFFFFFFFFFFFFFFFFFFFFFFFFFFFFFFFFFF AND PUSH4 0x70A08231 CALLER PUSH1 0x40 MLOAD DUP3 PUSH4 0xFFFFFFFF AND PUSH1 0xE0 SHL DUP2 MSTORE PUSH1 0x4 ADD PUSH2 0x21BF SWAP2 SWAP1 PUSH2 0x44A5 JUMP JUMPDEST PUSH1 0x20 PUSH1 0x40 MLOAD DUP1 DUP4 SUB DUP2 DUP7 GAS STATICCALL ISZERO DUP1 ISZERO PUSH2 0x21DC JUMPI RETURNDATASIZE PUSH1 0x0 DUP1 RETURNDATACOPY RETURNDATASIZE PUSH1 0x0 REVERT JUMPDEST POP POP POP POP PUSH1 0x40 MLOAD RETURNDATASIZE PUSH1 0x1F NOT PUSH1 0x1F DUP3 ADD AND DUP3 ADD DUP1 PUSH1 0x40 MSTORE POP DUP2 ADD SWAP1 PUSH2 0x2200 SWAP2 SWAP1 PUSH2 0x4C82 JUMP JUMPDEST PUSH3 0xF4240 DUP3 PUSH2 0x220F SWAP2 SWAP1 PUSH2 0x50AC JUMP JUMPDEST GT ISZERO PUSH2 0x2250 JUMPI PUSH1 0x40 MLOAD PUSH32 0x8C379A000000000000000000000000000000000000000000000000000000000 DUP2 MSTORE PUSH1 0x4 ADD PUSH2 0x2247 SWAP1 PUSH2 0x52D6 JUMP JUMPDEST PUSH1 0x40 MLOAD DUP1 SWAP2 SUB SWAP1 REVERT JUMPDEST PUSH1 0x3 PUSH1 0x0 SWAP1 SLOAD SWAP1 PUSH2 0x100 EXP SWAP1 DIV PUSH20 0xFFFFFFFFFFFFFFFFFFFFFFFFFFFFFFFFFFFFFFFF AND PUSH20 0xFFFFFFFFFFFFFFFFFFFFFFFFFFFFFFFFFFFFFFFF AND PUSH4 0xDD62ED3E CALLER ADDRESS PUSH1 0x40 MLOAD DUP4 PUSH4 0xFFFFFFFF AND PUSH1 0xE0 SHL DUP2 MSTORE PUSH1 0x4 ADD PUSH2 0x22AD SWAP3 SWAP2 SWAP1 PUSH2 0x52F6 JUMP JUMPDEST PUSH1 0x20 PUSH1 0x40 MLOAD DUP1 DUP4 SUB DUP2 DUP7 GAS STATICCALL ISZERO DUP1 ISZERO PUSH2 0x22CA JUMPI RETURNDATASIZE PUSH1 0x0 DUP1 RETURNDATACOPY RETURNDATASIZE PUSH1 0x0 REVERT JUMPDEST POP POP POP POP PUSH1 0x40 MLOAD RETURNDATASIZE PUSH1 0x1F NOT PUSH1 0x1F DUP3 ADD AND DUP3 ADD DUP1 PUSH1 0x40 MSTORE POP DUP2 ADD SWAP1 PUSH2 0x22EE SWAP2 SWAP1 PUSH2 0x4C82 JUMP JUMPDEST PUSH3 0xF4240 DUP3 PUSH2 0x22FD SWAP2 SWAP1 PUSH2 0x50AC JUMP JUMPDEST GT ISZERO PUSH2 0x233E JUMPI PUSH1 0x40 MLOAD PUSH32 0x8C379A000000000000000000000000000000000000000000000000000000000 DUP2 MSTORE PUSH1 0x4 ADD PUSH2 0x2335 SWAP1 PUSH2 0x536B JUMP JUMPDEST PUSH1 0x40 MLOAD DUP1 SWAP2 SUB SWAP1 REVERT JUMPDEST PUSH1 0x0 PUSH1 0x32 DUP3 PUSH2 0x234D SWAP2 SWAP1 PUSH2 0x538B JUMP JUMPDEST SWAP1 POP PUSH1 0x3 PUSH1 0x0 SWAP1 SLOAD SWAP1 PUSH2 0x100 EXP SWAP1 DIV PUSH20 0xFFFFFFFFFFFFFFFFFFFFFFFFFFFFFFFFFFFFFFFF AND PUSH20 0xFFFFFFFFFFFFFFFFFFFFFFFFFFFFFFFFFFFFFFFF AND PUSH4 0x23B872DD CALLER ADDRESS PUSH3 0xF4240 DUP7 PUSH2 0x239E SWAP2 SWAP1 PUSH2 0x50AC JUMP JUMPDEST PUSH1 0x40 MLOAD DUP5 PUSH4 0xFFFFFFFF AND PUSH1 0xE0 SHL DUP2 MSTORE PUSH1 0x4 ADD PUSH2 0x23BC SWAP4 SWAP3 SWAP2 SWAP1 PUSH2 0x53BC JUMP JUMPDEST PUSH1 0x20 PUSH1 0x40 MLOAD DUP1 DUP4 SUB DUP2 PUSH1 0x0 DUP8 GAS CALL ISZERO DUP1 ISZERO PUSH2 0x23DB JUMPI RETURNDATASIZE PUSH1 0x0 DUP1 RETURNDATACOPY RETURNDATASIZE PUSH1 0x0 REVERT JUMPDEST POP POP POP POP PUSH1 0x40 MLOAD RETURNDATASIZE PUSH1 0x1F NOT PUSH1 0x1F DUP3 ADD AND DUP3 ADD DUP1 PUSH1 0x40 MSTORE POP DUP2 ADD SWAP1 PUSH2 0x23FF SWAP2 SWAP1 PUSH2 0x541F JUMP JUMPDEST POP PUSH1 0x3 PUSH1 0x0 SWAP1 SLOAD SWAP1 PUSH2 0x100 EXP SWAP1 DIV PUSH20 0xFFFFFFFFFFFFFFFFFFFFFFFFFFFFFFFFFFFFFFFF AND PUSH20 0xFFFFFFFFFFFFFFFFFFFFFFFFFFFFFFFFFFFFFFFF AND PUSH4 0x95EA7B3 PUSH1 0x6 PUSH1 0x0 SWAP1 SLOAD SWAP1 PUSH2 0x100 EXP SWAP1 DIV PUSH20 0xFFFFFFFFFFFFFFFFFFFFFFFFFFFFFFFFFFFFFFFF AND PUSH3 0xF4240 DUP6 PUSH2 0x2470 SWAP2 SWAP1 PUSH2 0x50AC JUMP JUMPDEST PUSH1 0x40 MLOAD DUP4 PUSH4 0xFFFFFFFF AND PUSH1 0xE0 SHL DUP2 MSTORE PUSH1 0x4 ADD PUSH2 0x248D SWAP3 SWAP2 SWAP1 PUSH2 0x544C JUMP JUMPDEST PUSH1 0x20 PUSH1 0x40 MLOAD DUP1 DUP4 SUB DUP2 PUSH1 0x0 DUP8 GAS CALL ISZERO DUP1 ISZERO PUSH2 0x24AC JUMPI RETURNDATASIZE PUSH1 0x0 DUP1 RETURNDATACOPY RETURNDATASIZE PUSH1 0x0 REVERT JUMPDEST POP POP POP POP PUSH1 0x40 MLOAD RETURNDATASIZE PUSH1 0x1F NOT PUSH1 0x1F DUP3 ADD AND DUP3 ADD DUP1 PUSH1 0x40 MSTORE POP DUP2 ADD SWAP1 PUSH2 0x24D0 SWAP2 SWAP1 PUSH2 0x541F JUMP JUMPDEST POP PUSH1 0x6 PUSH1 0x0 SWAP1 SLOAD SWAP1 PUSH2 0x100 EXP SWAP1 DIV PUSH20 0xFFFFFFFFFFFFFFFFFFFFFFFFFFFFFFFFFFFFFFFF AND PUSH20 0xFFFFFFFFFFFFFFFFFFFFFFFFFFFFFFFFFFFFFFFF AND PUSH4 0x617BA037 PUSH1 0x3 PUSH1 0x0 SWAP1 SLOAD SWAP1 PUSH2 0x100 EXP SWAP1 DIV PUSH20 0xFFFFFFFFFFFFFFFFFFFFFFFFFFFFFFFFFFFFFFFF AND PUSH3 0xF4240 DUP6 PUSH2 0x2541 SWAP2 SWAP1 PUSH2 0x50AC JUMP JUMPDEST ADDRESS PUSH1 0x0 PUSH1 0x40 MLOAD DUP6 PUSH4 0xFFFFFFFF AND PUSH1 0xE0 SHL DUP2 MSTORE PUSH1 0x4 ADD PUSH2 0x2563 SWAP5 SWAP4 SWAP3 SWAP2 SWAP1 PUSH2 0x54BE JUMP JUMPDEST PUSH1 0x0 PUSH1 0x40 MLOAD DUP1 DUP4 SUB DUP2 PUSH1 0x0 DUP8 DUP1 EXTCODESIZE ISZERO DUP1 ISZERO PUSH2 0x257D JUMPI PUSH1 0x0 DUP1 REVERT JUMPDEST POP GAS CALL ISZERO DUP1 ISZERO PUSH2 0x2591 JUMPI RETURNDATASIZE PUSH1 0x0 DUP1 RETURNDATACOPY RETURNDATASIZE PUSH1 0x0 REVERT JUMPDEST POP POP POP POP PUSH1 0x5 PUSH1 0x0 SWAP1 SLOAD SWAP1 PUSH2 0x100 EXP SWAP1 DIV PUSH20 0xFFFFFFFFFFFFFFFFFFFFFFFFFFFFFFFFFFFFFFFF AND PUSH20 0xFFFFFFFFFFFFFFFFFFFFFFFFFFFFFFFFFFFFFFFF AND PUSH4 0x40C10F19 CALLER DUP4 PUSH1 0x40 MLOAD DUP4 PUSH4 0xFFFFFFFF AND PUSH1 0xE0 SHL DUP2 MSTORE PUSH1 0x4 ADD PUSH2 0x25F2 SWAP3 SWAP2 SWAP1 PUSH2 0x544C JUMP JUMPDEST PUSH1 0x0 PUSH1 0x40 MLOAD DUP1 DUP4 SUB DUP2 PUSH1 0x0 DUP8 DUP1 EXTCODESIZE ISZERO DUP1 ISZERO PUSH2 0x260C JUMPI PUSH1 0x0 DUP1 REVERT JUMPDEST POP GAS CALL ISZERO DUP1 ISZERO PUSH2 0x2620 JUMPI RETURNDATASIZE PUSH1 0x0 DUP1 RETURNDATACOPY RETURNDATASIZE PUSH1 0x0 REVERT JUMPDEST POP POP POP POP POP POP JUMP JUMPDEST PUSH1 0x0 DUP1 PUSH1 0x0 SWAP1 POP PUSH1 0x0 JUMPDEST PUSH1 0xB PUSH1 0x0 DUP6 DUP2 MSTORE PUSH1 0x20 ADD SWAP1 DUP2 MSTORE PUSH1 0x20 ADD PUSH1 0x0 KECCAK256 DUP1 SLOAD SWAP1 POP DUP2 LT ISZERO PUSH2 0x273A JUMPI PUSH1 0x10 PUSH1 0x0 SWAP1 SLOAD SWAP1 PUSH2 0x100 EXP SWAP1 DIV PUSH20 0xFFFFFFFFFFFFFFFFFFFFFFFFFFFFFFFFFFFFFFFF AND PUSH20 0xFFFFFFFFFFFFFFFFFFFFFFFFFFFFFFFFFFFFFFFF AND PUSH4 0xEA6A0410 PUSH1 0xB PUSH1 0x0 DUP8 DUP2 MSTORE PUSH1 0x20 ADD SWAP1 DUP2 MSTORE PUSH1 0x20 ADD PUSH1 0x0 KECCAK256 DUP4 DUP2 SLOAD DUP2 LT PUSH2 0x26B3 JUMPI PUSH2 0x26B2 PUSH2 0x47A0 JUMP JUMPDEST JUMPDEST SWAP1 PUSH1 0x0 MSTORE PUSH1 0x20 PUSH1 0x0 KECCAK256 ADD PUSH1 0x40 MLOAD DUP3 PUSH4 0xFFFFFFFF AND PUSH1 0xE0 SHL DUP2 MSTORE PUSH1 0x4 ADD PUSH2 0x26D9 SWAP2 SWAP1 PUSH2 0x4C4B JUMP JUMPDEST PUSH1 0x20 PUSH1 0x40 MLOAD DUP1 DUP4 SUB DUP2 DUP7 GAS STATICCALL ISZERO DUP1 ISZERO PUSH2 0x26F6 JUMPI RETURNDATASIZE PUSH1 0x0 DUP1 RETURNDATACOPY RETURNDATASIZE PUSH1 0x0 REVERT JUMPDEST POP POP POP POP PUSH1 0x40 MLOAD RETURNDATASIZE PUSH1 0x1F NOT PUSH1 0x1F DUP3 ADD AND DUP3 ADD DUP1 PUSH1 0x40 MSTORE POP DUP2 ADD SWAP1 PUSH2 0x271A SWAP2 SWAP1 PUSH2 0x4C82 JUMP JUMPDEST DUP3 PUSH2 0x2725 SWAP2 SWAP1 PUSH2 0x4E92 JUMP JUMPDEST SWAP2 POP DUP1 DUP1 PUSH2 0x2732 SWAP1 PUSH2 0x47FE JUMP JUMPDEST SWAP2 POP POP PUSH2 0x2632 JUMP JUMPDEST POP DUP1 SWAP2 POP POP SWAP2 SWAP1 POP JUMP JUMPDEST PUSH2 0x274C PUSH2 0x396C JUMP JUMPDEST PUSH20 0xFFFFFFFFFFFFFFFFFFFFFFFFFFFFFFFFFFFFFFFF AND PUSH2 0x276A PUSH2 0x117D JUMP JUMPDEST PUSH20 0xFFFFFFFFFFFFFFFFFFFFFFFFFFFFFFFFFFFFFFFF AND EQ PUSH2 0x27C0 JUMPI PUSH1 0x40 MLOAD PUSH32 0x8C379A000000000000000000000000000000000000000000000000000000000 DUP2 MSTORE PUSH1 0x4 ADD PUSH2 0x27B7 SWAP1 PUSH2 0x554F JUMP JUMPDEST PUSH1 0x40 MLOAD DUP1 SWAP2 SUB SWAP1 REVERT JUMPDEST JUMP JUMPDEST DUP1 PUSH1 0x5 PUSH1 0x0 SWAP1 SLOAD SWAP1 PUSH2 0x100 EXP SWAP1 DIV PUSH20 0xFFFFFFFFFFFFFFFFFFFFFFFFFFFFFFFFFFFFFFFF AND PUSH20 0xFFFFFFFFFFFFFFFFFFFFFFFFFFFFFFFFFFFFFFFF AND PUSH4 0x70A08231 CALLER PUSH1 0x40 MLOAD DUP3 PUSH4 0xFFFFFFFF AND PUSH1 0xE0 SHL DUP2 MSTORE PUSH1 0x4 ADD PUSH2 0x281E SWAP2 SWAP1 PUSH2 0x44A5 JUMP JUMPDEST PUSH1 0x20 PUSH1 0x40 MLOAD DUP1 DUP4 SUB DUP2 DUP7 GAS STATICCALL ISZERO DUP1 ISZERO PUSH2 0x283B JUMPI RETURNDATASIZE PUSH1 0x0 DUP1 RETURNDATACOPY RETURNDATASIZE PUSH1 0x0 REVERT JUMPDEST POP POP POP POP PUSH1 0x40 MLOAD RETURNDATASIZE PUSH1 0x1F NOT PUSH1 0x1F DUP3 ADD AND DUP3 ADD DUP1 PUSH1 0x40 MSTORE POP DUP2 ADD SWAP1 PUSH2 0x285F SWAP2 SWAP1 PUSH2 0x4C82 JUMP JUMPDEST LT ISZERO PUSH2 0x28A0 JUMPI PUSH1 0x40 MLOAD PUSH32 0x8C379A000000000000000000000000000000000000000000000000000000000 DUP2 MSTORE PUSH1 0x4 ADD PUSH2 0x2897 SWAP1 PUSH2 0x55BB JUMP JUMPDEST PUSH1 0x40 MLOAD DUP1 SWAP2 SUB SWAP1 REVERT JUMPDEST PUSH1 0x5 PUSH1 0x0 SWAP1 SLOAD SWAP1 PUSH2 0x100 EXP SWAP1 DIV PUSH20 0xFFFFFFFFFFFFFFFFFFFFFFFFFFFFFFFFFFFFFFFF AND PUSH20 0xFFFFFFFFFFFFFFFFFFFFFFFFFFFFFFFFFFFFFFFF AND PUSH4 0x9DC29FAC CALLER DUP4 PUSH1 0x40 MLOAD DUP4 PUSH4 0xFFFFFFFF AND PUSH1 0xE0 SHL DUP2 MSTORE PUSH1 0x4 ADD PUSH2 0x28FD SWAP3 SWAP2 SWAP1 PUSH2 0x544C JUMP JUMPDEST PUSH1 0x0 PUSH1 0x40 MLOAD DUP1 DUP4 SUB DUP2 PUSH1 0x0 DUP8 DUP1 EXTCODESIZE ISZERO DUP1 ISZERO PUSH2 0x2917 JUMPI PUSH1 0x0 DUP1 REVERT JUMPDEST POP GAS CALL ISZERO DUP1 ISZERO PUSH2 0x292B JUMPI RETURNDATASIZE PUSH1 0x0 DUP1 RETURNDATACOPY RETURNDATASIZE PUSH1 0x0 REVERT JUMPDEST POP POP POP POP PUSH1 0x6 PUSH1 0x0 SWAP1 SLOAD SWAP1 PUSH2 0x100 EXP SWAP1 DIV PUSH20 0xFFFFFFFFFFFFFFFFFFFFFFFFFFFFFFFFFFFFFFFF AND PUSH20 0xFFFFFFFFFFFFFFFFFFFFFFFFFFFFFFFFFFFFFFFF AND PUSH4 0x69328DEC PUSH1 0x3 PUSH1 0x0 SWAP1 SLOAD SWAP1 PUSH2 0x100 EXP SWAP1 DIV PUSH20 0xFFFFFFFFFFFFFFFFFFFFFFFFFFFFFFFFFFFFFFFF AND PUSH3 0xF4240 PUSH1 0x32 DUP6 PUSH2 0x29A1 SWAP2 SWAP1 PUSH2 0x50AC JUMP JUMPDEST PUSH2 0x29AB SWAP2 SWAP1 PUSH2 0x50AC JUMP JUMPDEST CALLER PUSH1 0x40 MLOAD DUP5 PUSH4 0xFFFFFFFF AND PUSH1 0xE0 SHL DUP2 MSTORE PUSH1 0x4 ADD PUSH2 0x29CA SWAP4 SWAP3 SWAP2 SWAP1 PUSH2 0x4E5B JUMP JUMPDEST PUSH1 0x0 PUSH1 0x40 MLOAD DUP1 DUP4 SUB DUP2 PUSH1 0x0 DUP8 DUP1 EXTCODESIZE ISZERO DUP1 ISZERO PUSH2 0x29E4 JUMPI PUSH1 0x0 DUP1 REVERT JUMPDEST POP GAS CALL ISZERO DUP1 ISZERO PUSH2 0x29F8 JUMPI RETURNDATASIZE PUSH1 0x0 DUP1 RETURNDATACOPY RETURNDATASIZE PUSH1 0x0 REVERT JUMPDEST POP POP POP POP POP JUMP JUMPDEST PUSH2 0x2A07 PUSH2 0x3974 JUMP JUMPDEST PUSH1 0x0 DUP1 PUSH1 0x14 PUSH2 0x100 EXP DUP2 SLOAD DUP2 PUSH1 0xFF MUL NOT AND SWAP1 DUP4 ISZERO ISZERO MUL OR SWAP1 SSTORE POP PUSH32 0x5DB9EE0A495BF2E6FF9C91A7834C1BA4FDD244A5E8AA4E537BD38AEAE4B073AA PUSH2 0x2A4A PUSH2 0x396C JUMP JUMPDEST PUSH1 0x40 MLOAD PUSH2 0x2A57 SWAP2 SWAP1 PUSH2 0x44A5 JUMP JUMPDEST PUSH1 0x40 MLOAD DUP1 SWAP2 SUB SWAP1 LOG1 JUMP JUMPDEST PUSH1 0x0 DUP1 PUSH1 0x0 SWAP1 SLOAD SWAP1 PUSH2 0x100 EXP SWAP1 DIV PUSH20 0xFFFFFFFFFFFFFFFFFFFFFFFFFFFFFFFFFFFFFFFF AND SWAP1 POP DUP2 PUSH1 0x0 DUP1 PUSH2 0x100 EXP DUP2 SLOAD DUP2 PUSH20 0xFFFFFFFFFFFFFFFFFFFFFFFFFFFFFFFFFFFFFFFF MUL NOT AND SWAP1 DUP4 PUSH20 0xFFFFFFFFFFFFFFFFFFFFFFFFFFFFFFFFFFFFFFFF AND MUL OR SWAP1 SSTORE POP DUP2 PUSH20 0xFFFFFFFFFFFFFFFFFFFFFFFFFFFFFFFFFFFFFFFF AND DUP2 PUSH20 0xFFFFFFFFFFFFFFFFFFFFFFFFFFFFFFFFFFFFFFFF AND PUSH32 0x8BE0079C531659141344CD1FD0A4F28419497F9722A3DAAFE3B4186F6B6457E0 PUSH1 0x40 MLOAD PUSH1 0x40 MLOAD DUP1 SWAP2 SUB SWAP1 LOG3 POP POP JUMP JUMPDEST PUSH2 0x2B2D PUSH2 0x39BD JUMP JUMPDEST PUSH1 0x1 PUSH1 0x0 PUSH1 0x14 PUSH2 0x100 EXP DUP2 SLOAD DUP2 PUSH1 0xFF MUL NOT AND SWAP1 DUP4 ISZERO ISZERO MUL OR SWAP1 SSTORE POP PUSH32 0x62E78CEA01BEE320CD4E420270B5EA74000D11B0C9F74754EBDBFC544B05A258 PUSH2 0x2B71 PUSH2 0x396C JUMP JUMPDEST PUSH1 0x40 MLOAD PUSH2 0x2B7E SWAP2 SWAP1 PUSH2 0x44A5 JUMP JUMPDEST PUSH1 0x40 MLOAD DUP1 SWAP2 SUB SWAP1 LOG1 JUMP JUMPDEST PUSH1 0x0 DUP1 PUSH1 0x0 DUP1 PUSH1 0x0 SWAP1 POP PUSH1 0x0 DUP1 PUSH2 0x2B9E DUP9 PUSH2 0x2628 JUMP JUMPDEST SWAP1 POP PUSH1 0x0 DUP2 PUSH8 0xFFFFFFFFFFFFFFFF DUP2 GT ISZERO PUSH2 0x2BBC JUMPI PUSH2 0x2BBB PUSH2 0x3E1D JUMP JUMPDEST JUMPDEST PUSH1 0x40 MLOAD SWAP1 DUP1 DUP3 MSTORE DUP1 PUSH1 0x20 MUL PUSH1 0x20 ADD DUP3 ADD PUSH1 0x40 MSTORE DUP1 ISZERO PUSH2 0x2BF5 JUMPI DUP2 PUSH1 0x20 ADD JUMPDEST PUSH2 0x2BE2 PUSH2 0x3A75 JUMP JUMPDEST DUP2 MSTORE PUSH1 0x20 ADD SWAP1 PUSH1 0x1 SWAP1 SUB SWAP1 DUP2 PUSH2 0x2BDA JUMPI SWAP1 POP JUMPDEST POP SWAP1 POP PUSH2 0x2C01 DUP10 PUSH2 0xBDD JUMP JUMPDEST SWAP1 POP PUSH1 0x0 JUMPDEST DUP3 DUP2 LT ISZERO PUSH2 0x2FE4 JUMPI DUP2 DUP2 DUP2 MLOAD DUP2 LT PUSH2 0x2C21 JUMPI PUSH2 0x2C20 PUSH2 0x47A0 JUMP JUMPDEST JUMPDEST PUSH1 0x20 MUL PUSH1 0x20 ADD ADD MLOAD PUSH1 0x0 ADD MLOAD SWAP4 POP PUSH2 0x2D33 PUSH1 0xA PUSH1 0x0 DUP12 PUSH20 0xFFFFFFFFFFFFFFFFFFFFFFFFFFFFFFFFFFFFFFFF AND PUSH20 0xFFFFFFFFFFFFFFFFFFFFFFFFFFFFFFFFFFFFFFFF AND DUP2 MSTORE PUSH1 0x20 ADD SWAP1 DUP2 MSTORE PUSH1 0x20 ADD PUSH1 0x0 KECCAK256 PUSH1 0x0 DUP13 DUP2 MSTORE PUSH1 0x20 ADD SWAP1 DUP2 MSTORE PUSH1 0x20 ADD PUSH1 0x0 KECCAK256 PUSH1 0x0 DUP7 PUSH4 0xFFFFFFFF AND PUSH4 0xFFFFFFFF AND DUP2 MSTORE PUSH1 0x20 ADD SWAP1 DUP2 MSTORE PUSH1 0x20 ADD PUSH1 0x0 KECCAK256 PUSH1 0x0 ADD PUSH1 0x0 SWAP1 SLOAD SWAP1 PUSH2 0x100 EXP SWAP1 DIV PUSH1 0xFF AND PUSH1 0xA PUSH1 0x0 DUP13 PUSH20 0xFFFFFFFFFFFFFFFFFFFFFFFFFFFFFFFFFFFFFFFF AND PUSH20 0xFFFFFFFFFFFFFFFFFFFFFFFFFFFFFFFFFFFFFFFF AND DUP2 MSTORE PUSH1 0x20 ADD SWAP1 DUP2 MSTORE PUSH1 0x20 ADD PUSH1 0x0 KECCAK256 PUSH1 0x0 DUP14 DUP2 MSTORE PUSH1 0x20 ADD SWAP1 DUP2 MSTORE PUSH1 0x20 ADD PUSH1 0x0 KECCAK256 PUSH1 0x0 DUP8 PUSH4 0xFFFFFFFF AND PUSH4 0xFFFFFFFF AND DUP2 MSTORE PUSH1 0x20 ADD SWAP1 DUP2 MSTORE PUSH1 0x20 ADD PUSH1 0x0 KECCAK256 PUSH1 0x0 ADD PUSH1 0x1 SWAP1 SLOAD SWAP1 PUSH2 0x100 EXP SWAP1 DIV PUSH1 0xFF AND PUSH2 0x3A07 JUMP JUMPDEST SWAP7 POP PUSH1 0x0 DUP1 PUSH1 0x10 PUSH1 0x0 SWAP1 SLOAD SWAP1 PUSH2 0x100 EXP SWAP1 DIV PUSH20 0xFFFFFFFFFFFFFFFFFFFFFFFFFFFFFFFFFFFFFFFF AND PUSH20 0xFFFFFFFFFFFFFFFFFFFFFFFFFFFFFFFFFFFFFFFF AND PUSH4 0x3C09F3BE DUP8 PUSH1 0x40 MLOAD DUP3 PUSH4 0xFFFFFFFF AND PUSH1 0xE0 SHL DUP2 MSTORE PUSH1 0x4 ADD PUSH2 0x2D93 SWAP2 SWAP1 PUSH2 0x55EA JUMP JUMPDEST PUSH1 0x40 DUP1 MLOAD DUP1 DUP4 SUB DUP2 DUP7 GAS STATICCALL ISZERO DUP1 ISZERO PUSH2 0x2DAF JUMPI RETURNDATASIZE PUSH1 0x0 DUP1 RETURNDATACOPY RETURNDATASIZE PUSH1 0x0 REVERT JUMPDEST POP POP POP POP PUSH1 0x40 MLOAD RETURNDATASIZE PUSH1 0x1F NOT PUSH1 0x1F DUP3 ADD AND DUP3 ADD DUP1 PUSH1 0x40 MSTORE POP DUP2 ADD SWAP1 PUSH2 0x2DD3 SWAP2 SWAP1 PUSH2 0x561A JUMP JUMPDEST SWAP2 POP SWAP2 POP PUSH2 0x2DE1 DUP3 DUP3 PUSH2 0x3A07 JUMP JUMPDEST SWAP8 POP DUP8 DUP10 EQ DUP1 ISZERO PUSH2 0x2E91 JUMPI POP PUSH1 0x1 ISZERO ISZERO PUSH1 0x10 PUSH1 0x0 SWAP1 SLOAD SWAP1 PUSH2 0x100 EXP SWAP1 DIV PUSH20 0xFFFFFFFFFFFFFFFFFFFFFFFFFFFFFFFFFFFFFFFF AND PUSH20 0xFFFFFFFFFFFFFFFFFFFFFFFFFFFFFFFFFFFFFFFF AND PUSH4 0x14EA531D DUP9 PUSH1 0x40 MLOAD DUP3 PUSH4 0xFFFFFFFF AND PUSH1 0xE0 SHL DUP2 MSTORE PUSH1 0x4 ADD PUSH2 0x2E4C SWAP2 SWAP1 PUSH2 0x55EA JUMP JUMPDEST PUSH1 0x20 PUSH1 0x40 MLOAD DUP1 DUP4 SUB DUP2 DUP7 GAS STATICCALL ISZERO DUP1 ISZERO PUSH2 0x2E69 JUMPI RETURNDATASIZE PUSH1 0x0 DUP1 RETURNDATACOPY RETURNDATASIZE PUSH1 0x0 REVERT JUMPDEST POP POP POP POP PUSH1 0x40 MLOAD RETURNDATASIZE PUSH1 0x1F NOT PUSH1 0x1F DUP3 ADD AND DUP3 ADD DUP1 PUSH1 0x40 MSTORE POP DUP2 ADD SWAP1 PUSH2 0x2E8D SWAP2 SWAP1 PUSH2 0x541F JUMP JUMPDEST ISZERO ISZERO EQ JUMPDEST ISZERO PUSH2 0x2FCF JUMPI PUSH1 0x1 DUP8 PUSH2 0x2EA3 SWAP2 SWAP1 PUSH2 0x4E92 JUMP JUMPDEST SWAP7 POP DUP2 PUSH1 0xFF AND PUSH1 0xA PUSH1 0x0 DUP14 PUSH20 0xFFFFFFFFFFFFFFFFFFFFFFFFFFFFFFFFFFFFFFFF AND PUSH20 0xFFFFFFFFFFFFFFFFFFFFFFFFFFFFFFFFFFFFFFFF AND DUP2 MSTORE PUSH1 0x20 ADD SWAP1 DUP2 MSTORE PUSH1 0x20 ADD PUSH1 0x0 KECCAK256 PUSH1 0x0 DUP15 DUP2 MSTORE PUSH1 0x20 ADD SWAP1 DUP2 MSTORE PUSH1 0x20 ADD PUSH1 0x0 KECCAK256 PUSH1 0x0 DUP9 PUSH4 0xFFFFFFFF AND PUSH4 0xFFFFFFFF AND DUP2 MSTORE PUSH1 0x20 ADD SWAP1 DUP2 MSTORE PUSH1 0x20 ADD PUSH1 0x0 KECCAK256 PUSH1 0x0 ADD PUSH1 0x0 SWAP1 SLOAD SWAP1 PUSH2 0x100 EXP SWAP1 DIV PUSH1 0xFF AND PUSH1 0xFF AND EQ DUP1 ISZERO PUSH2 0x2FB9 JUMPI POP DUP1 PUSH1 0xFF AND PUSH1 0xA PUSH1 0x0 DUP14 PUSH20 0xFFFFFFFFFFFFFFFFFFFFFFFFFFFFFFFFFFFFFFFF AND PUSH20 0xFFFFFFFFFFFFFFFFFFFFFFFFFFFFFFFFFFFFFFFF AND DUP2 MSTORE PUSH1 0x20 ADD SWAP1 DUP2 MSTORE PUSH1 0x20 ADD PUSH1 0x0 KECCAK256 PUSH1 0x0 DUP15 DUP2 MSTORE PUSH1 0x20 ADD SWAP1 DUP2 MSTORE PUSH1 0x20 ADD PUSH1 0x0 KECCAK256 PUSH1 0x0 DUP9 PUSH4 0xFFFFFFFF AND PUSH4 0xFFFFFFFF AND DUP2 MSTORE PUSH1 0x20 ADD SWAP1 DUP2 MSTORE PUSH1 0x20 ADD PUSH1 0x0 KECCAK256 PUSH1 0x0 ADD PUSH1 0x1 SWAP1 SLOAD SWAP1 PUSH2 0x100 EXP SWAP1 DIV PUSH1 0xFF AND PUSH1 0xFF AND EQ JUMPDEST ISZERO PUSH2 0x2FCE JUMPI PUSH1 0x2 DUP8 PUSH2 0x2FCB SWAP2 SWAP1 PUSH2 0x4E92 JUMP JUMPDEST SWAP7 POP JUMPDEST JUMPDEST POP POP DUP1 DUP1 PUSH2 0x2FDC SWAP1 PUSH2 0x47FE JUMP JUMPDEST SWAP2 POP POP PUSH2 0x2C06 JUMP JUMPDEST POP DUP4 SWAP7 POP POP POP POP POP POP POP SWAP3 SWAP2 POP POP JUMP JUMPDEST PUSH1 0x60 PUSH1 0x0 DUP1 PUSH1 0x0 DUP1 DUP1 PUSH1 0x0 DUP1 PUSH2 0x3008 PUSH2 0x16FA JUMP JUMPDEST SWAP1 POP PUSH1 0x0 PUSH1 0x9 PUSH1 0x0 DUP13 DUP2 MSTORE PUSH1 0x20 ADD SWAP1 DUP2 MSTORE PUSH1 0x20 ADD PUSH1 0x0 KECCAK256 SLOAD SWAP1 POP PUSH1 0x0 DUP2 PUSH8 0xFFFFFFFFFFFFFFFF DUP2 GT ISZERO PUSH2 0x303E JUMPI PUSH2 0x303D PUSH2 0x3E1D JUMP JUMPDEST JUMPDEST PUSH1 0x40 MLOAD SWAP1 DUP1 DUP3 MSTORE DUP1 PUSH1 0x20 MUL PUSH1 0x20 ADD DUP3 ADD PUSH1 0x40 MSTORE DUP1 ISZERO PUSH2 0x3077 JUMPI DUP2 PUSH1 0x20 ADD JUMPDEST PUSH2 0x3064 PUSH2 0x3B24 JUMP JUMPDEST DUP2 MSTORE PUSH1 0x20 ADD SWAP1 PUSH1 0x1 SWAP1 SUB SWAP1 DUP2 PUSH2 0x305C JUMPI SWAP1 POP JUMPDEST POP SWAP1 POP PUSH1 0x0 DUP3 PUSH8 0xFFFFFFFFFFFFFFFF DUP2 GT ISZERO PUSH2 0x3096 JUMPI PUSH2 0x3095 PUSH2 0x3E1D JUMP JUMPDEST JUMPDEST PUSH1 0x40 MLOAD SWAP1 DUP1 DUP3 MSTORE DUP1 PUSH1 0x20 MUL PUSH1 0x20 ADD DUP3 ADD PUSH1 0x40 MSTORE DUP1 ISZERO PUSH2 0x30CF JUMPI DUP2 PUSH1 0x20 ADD JUMPDEST PUSH2 0x30BC PUSH2 0x3A9C JUMP JUMPDEST DUP2 MSTORE PUSH1 0x20 ADD SWAP1 PUSH1 0x1 SWAP1 SUB SWAP1 DUP2 PUSH2 0x30B4 JUMPI SWAP1 POP JUMPDEST POP SWAP1 POP PUSH1 0x0 DUP4 PUSH8 0xFFFFFFFFFFFFFFFF DUP2 GT ISZERO PUSH2 0x30EE JUMPI PUSH2 0x30ED PUSH2 0x3E1D JUMP JUMPDEST JUMPDEST PUSH1 0x40 MLOAD SWAP1 DUP1 DUP3 MSTORE DUP1 PUSH1 0x20 MUL PUSH1 0x20 ADD DUP3 ADD PUSH1 0x40 MSTORE DUP1 ISZERO PUSH2 0x3127 JUMPI DUP2 PUSH1 0x20 ADD JUMPDEST PUSH2 0x3114 PUSH2 0x3B54 JUMP JUMPDEST DUP2 MSTORE PUSH1 0x20 ADD SWAP1 PUSH1 0x1 SWAP1 SUB SWAP1 DUP2 PUSH2 0x310C JUMPI SWAP1 POP JUMPDEST POP SWAP1 POP PUSH1 0x0 JUMPDEST DUP14 MLOAD DUP2 LT ISZERO PUSH2 0x31EB JUMPI PUSH1 0x0 DUP15 DUP3 DUP2 MLOAD DUP2 LT PUSH2 0x314B JUMPI PUSH2 0x314A PUSH2 0x47A0 JUMP JUMPDEST JUMPDEST PUSH1 0x20 MUL PUSH1 0x20 ADD ADD MLOAD SWAP1 POP PUSH1 0x0 JUMPDEST DUP2 PUSH1 0x20 ADD MLOAD DUP2 LT ISZERO PUSH2 0x31D6 JUMPI PUSH1 0x40 MLOAD DUP1 PUSH1 0x40 ADD PUSH1 0x40 MSTORE DUP1 DUP4 PUSH1 0x0 ADD MLOAD PUSH20 0xFFFFFFFFFFFFFFFFFFFFFFFFFFFFFFFFFFFFFFFF AND DUP2 MSTORE PUSH1 0x20 ADD DUP4 PUSH1 0x40 ADD MLOAD DUP2 MSTORE POP DUP7 DUP11 DUP2 MLOAD DUP2 LT PUSH2 0x31AA JUMPI PUSH2 0x31A9 PUSH2 0x47A0 JUMP JUMPDEST JUMPDEST PUSH1 0x20 MUL PUSH1 0x20 ADD ADD DUP2 SWAP1 MSTORE POP DUP9 DUP1 PUSH2 0x31C0 SWAP1 PUSH2 0x47FE JUMP JUMPDEST SWAP10 POP POP DUP1 DUP1 PUSH2 0x31CE SWAP1 PUSH2 0x47FE JUMP JUMPDEST SWAP2 POP POP PUSH2 0x3158 JUMP JUMPDEST POP POP DUP1 DUP1 PUSH2 0x31E3 SWAP1 PUSH2 0x47FE JUMP JUMPDEST SWAP2 POP POP PUSH2 0x312D JUMP JUMPDEST POP PUSH1 0x0 JUMPDEST DUP5 DUP2 LT ISZERO PUSH2 0x3317 JUMPI PUSH1 0x1 SWAP12 POP PUSH1 0x0 JUMPDEST DUP6 DUP2 LT ISZERO PUSH2 0x3278 JUMPI DUP5 DUP2 DUP2 MLOAD DUP2 LT PUSH2 0x3219 JUMPI PUSH2 0x3218 PUSH2 0x47A0 JUMP JUMPDEST JUMPDEST PUSH1 0x20 MUL PUSH1 0x20 ADD ADD MLOAD PUSH1 0x20 ADD MLOAD DUP6 DUP4 DUP2 MLOAD DUP2 LT PUSH2 0x3238 JUMPI PUSH2 0x3237 PUSH2 0x47A0 JUMP JUMPDEST JUMPDEST PUSH1 0x20 MUL PUSH1 0x20 ADD ADD MLOAD PUSH1 0x20 ADD MLOAD LT ISZERO PUSH2 0x3265 JUMPI DUP13 DUP1 PUSH2 0x3255 SWAP1 PUSH2 0x47FE JUMP JUMPDEST SWAP14 POP POP DUP12 DUP14 GT ISZERO PUSH2 0x3264 JUMPI DUP13 SWAP12 POP JUMPDEST JUMPDEST DUP1 DUP1 PUSH2 0x3270 SWAP1 PUSH2 0x47FE JUMP JUMPDEST SWAP2 POP POP PUSH2 0x31FE JUMP JUMPDEST POP PUSH1 0x40 MLOAD DUP1 PUSH1 0x60 ADD PUSH1 0x40 MSTORE DUP1 DUP6 DUP4 DUP2 MLOAD DUP2 LT PUSH2 0x3297 JUMPI PUSH2 0x3296 PUSH2 0x47A0 JUMP JUMPDEST JUMPDEST PUSH1 0x20 MUL PUSH1 0x20 ADD ADD MLOAD PUSH1 0x0 ADD MLOAD PUSH20 0xFFFFFFFFFFFFFFFFFFFFFFFFFFFFFFFFFFFFFFFF AND DUP2 MSTORE PUSH1 0x20 ADD DUP6 DUP4 DUP2 MLOAD DUP2 LT PUSH2 0x32D1 JUMPI PUSH2 0x32D0 PUSH2 0x47A0 JUMP JUMPDEST JUMPDEST PUSH1 0x20 MUL PUSH1 0x20 ADD ADD MLOAD PUSH1 0x20 ADD MLOAD DUP2 MSTORE PUSH1 0x20 ADD DUP14 DUP2 MSTORE POP DUP4 DUP3 DUP2 MLOAD DUP2 LT PUSH2 0x32F9 JUMPI PUSH2 0x32F8 PUSH2 0x47A0 JUMP JUMPDEST JUMPDEST PUSH1 0x20 MUL PUSH1 0x20 ADD ADD DUP2 SWAP1 MSTORE POP DUP1 DUP1 PUSH2 0x330F SWAP1 PUSH2 0x47FE JUMP JUMPDEST SWAP2 POP POP PUSH2 0x31EF JUMP JUMPDEST POP PUSH1 0x0 SWAP6 POP PUSH1 0x0 PUSH1 0x1 SWAP1 POP JUMPDEST DUP11 DUP2 GT PUSH2 0x3455 JUMPI PUSH1 0x0 JUMPDEST DUP6 DUP2 LT ISZERO PUSH2 0x3441 JUMPI DUP2 DUP5 DUP3 DUP2 MLOAD DUP2 LT PUSH2 0x3349 JUMPI PUSH2 0x3348 PUSH2 0x47A0 JUMP JUMPDEST JUMPDEST PUSH1 0x20 MUL PUSH1 0x20 ADD ADD MLOAD PUSH1 0x40 ADD MLOAD SUB PUSH2 0x342E JUMPI PUSH1 0x40 MLOAD DUP1 PUSH1 0xE0 ADD PUSH1 0x40 MSTORE DUP1 DUP6 DUP4 DUP2 MLOAD DUP2 LT PUSH2 0x3378 JUMPI PUSH2 0x3377 PUSH2 0x47A0 JUMP JUMPDEST JUMPDEST PUSH1 0x20 MUL PUSH1 0x20 ADD ADD MLOAD PUSH1 0x0 ADD MLOAD PUSH20 0xFFFFFFFFFFFFFFFFFFFFFFFFFFFFFFFFFFFFFFFF AND DUP2 MSTORE PUSH1 0x20 ADD DUP6 DUP4 DUP2 MLOAD DUP2 LT PUSH2 0x33B2 JUMPI PUSH2 0x33B1 PUSH2 0x47A0 JUMP JUMPDEST JUMPDEST PUSH1 0x20 MUL PUSH1 0x20 ADD ADD MLOAD PUSH1 0x20 ADD MLOAD DUP2 MSTORE PUSH1 0x20 ADD DUP6 DUP4 DUP2 MLOAD DUP2 LT PUSH2 0x33D6 JUMPI PUSH2 0x33D5 PUSH2 0x47A0 JUMP JUMPDEST JUMPDEST PUSH1 0x20 MUL PUSH1 0x20 ADD ADD MLOAD PUSH1 0x40 ADD MLOAD DUP2 MSTORE PUSH1 0x20 ADD PUSH1 0x0 DUP2 MSTORE PUSH1 0x20 ADD PUSH1 0x0 DUP2 MSTORE PUSH1 0x20 ADD PUSH1 0x0 DUP2 MSTORE PUSH1 0x20 ADD PUSH1 0x0 DUP2 MSTORE POP DUP4 DUP10 DUP2 MLOAD DUP2 LT PUSH2 0x3414 JUMPI PUSH2 0x3413 PUSH2 0x47A0 JUMP JUMPDEST JUMPDEST PUSH1 0x20 MUL PUSH1 0x20 ADD ADD DUP2 SWAP1 MSTORE POP DUP8 DUP1 PUSH2 0x342A SWAP1 PUSH2 0x47FE JUMP JUMPDEST SWAP9 POP POP JUMPDEST DUP1 DUP1 PUSH2 0x3439 SWAP1 PUSH2 0x47FE JUMP JUMPDEST SWAP2 POP POP PUSH2 0x332D JUMP JUMPDEST POP DUP1 DUP1 PUSH2 0x344D SWAP1 PUSH2 0x47FE JUMP JUMPDEST SWAP2 POP POP PUSH2 0x3323 JUMP JUMPDEST POP PUSH1 0x64 PUSH1 0xF SLOAD DUP11 DUP8 PUSH2 0x3467 SWAP2 SWAP1 PUSH2 0x4EE8 JUMP JUMPDEST PUSH2 0x3471 SWAP2 SWAP1 PUSH2 0x50AC JUMP JUMPDEST PUSH2 0x347B SWAP2 SWAP1 PUSH2 0x538B JUMP JUMPDEST SWAP7 POP DUP7 DUP10 PUSH2 0x3489 SWAP2 SWAP1 PUSH2 0x4E92 JUMP JUMPDEST SWAP9 POP DUP7 DUP2 PUSH1 0x0 DUP2 MLOAD DUP2 LT PUSH2 0x34A0 JUMPI PUSH2 0x349F PUSH2 0x47A0 JUMP JUMPDEST JUMPDEST PUSH1 0x20 MUL PUSH1 0x20 ADD ADD MLOAD PUSH1 0x60 ADD DUP2 DUP2 MSTORE POP POP DUP7 DUP2 PUSH1 0x0 DUP2 MLOAD DUP2 LT PUSH2 0x34C5 JUMPI PUSH2 0x34C4 PUSH2 0x47A0 JUMP JUMPDEST JUMPDEST PUSH1 0x20 MUL PUSH1 0x20 ADD ADD MLOAD PUSH1 0x80 ADD DUP2 DUP2 MSTORE POP POP DUP7 DUP2 PUSH1 0x0 DUP2 MLOAD DUP2 LT PUSH2 0x34EA JUMPI PUSH2 0x34E9 PUSH2 0x47A0 JUMP JUMPDEST JUMPDEST PUSH1 0x20 MUL PUSH1 0x20 ADD ADD MLOAD PUSH1 0xA0 ADD DUP2 DUP2 MSTORE POP POP DUP7 DUP2 PUSH1 0x0 DUP2 MLOAD DUP2 LT PUSH2 0x350F JUMPI PUSH2 0x350E PUSH2 0x47A0 JUMP JUMPDEST JUMPDEST PUSH1 0x20 MUL PUSH1 0x20 ADD ADD MLOAD PUSH1 0xC0 ADD DUP2 DUP2 MSTORE POP POP PUSH1 0x0 PUSH1 0x1 SWAP1 POP JUMPDEST DUP5 DUP2 LT ISZERO PUSH2 0x3957 JUMPI PUSH1 0x64 PUSH1 0xF SLOAD DUP12 DUP9 PUSH2 0x353F SWAP2 SWAP1 PUSH2 0x4EE8 JUMP JUMPDEST PUSH2 0x3549 SWAP2 SWAP1 PUSH2 0x50AC JUMP JUMPDEST PUSH2 0x3553 SWAP2 SWAP1 PUSH2 0x538B JUMP JUMPDEST SWAP8 POP DUP8 DUP3 DUP3 DUP2 MLOAD DUP2 LT PUSH2 0x3569 JUMPI PUSH2 0x3568 PUSH2 0x47A0 JUMP JUMPDEST JUMPDEST PUSH1 0x20 MUL PUSH1 0x20 ADD ADD MLOAD PUSH1 0x60 ADD DUP2 DUP2 MSTORE POP POP DUP8 DUP11 PUSH2 0x3585 SWAP2 SWAP1 PUSH2 0x4E92 JUMP JUMPDEST SWAP10 POP DUP10 DUP3 DUP3 DUP2 MLOAD DUP2 LT PUSH2 0x359B JUMPI PUSH2 0x359A PUSH2 0x47A0 JUMP JUMPDEST JUMPDEST PUSH1 0x20 MUL PUSH1 0x20 ADD ADD MLOAD PUSH1 0x80 ADD DUP2 DUP2 MSTORE POP POP PUSH1 0x1 DUP6 PUSH2 0x35B8 SWAP2 SWAP1 PUSH2 0x4EE8 JUMP JUMPDEST DUP2 EQ PUSH2 0x379E JUMPI DUP2 PUSH1 0x1 DUP3 PUSH2 0x35CC SWAP2 SWAP1 PUSH2 0x4EE8 JUMP JUMPDEST DUP2 MLOAD DUP2 LT PUSH2 0x35DD JUMPI PUSH2 0x35DC PUSH2 0x47A0 JUMP JUMPDEST JUMPDEST PUSH1 0x20 MUL PUSH1 0x20 ADD ADD MLOAD PUSH1 0x40 ADD MLOAD DUP3 DUP3 DUP2 MLOAD DUP2 LT PUSH2 0x35FC JUMPI PUSH2 0x35FB PUSH2 0x47A0 JUMP JUMPDEST JUMPDEST PUSH1 0x20 MUL PUSH1 0x20 ADD ADD MLOAD PUSH1 0x40 ADD MLOAD SUB PUSH2 0x366B JUMPI DUP8 DUP3 PUSH1 0x1 DUP4 PUSH2 0x361C SWAP2 SWAP1 PUSH2 0x4EE8 JUMP JUMPDEST DUP2 MLOAD DUP2 LT PUSH2 0x362D JUMPI PUSH2 0x362C PUSH2 0x47A0 JUMP JUMPDEST JUMPDEST PUSH1 0x20 MUL PUSH1 0x20 ADD ADD MLOAD PUSH1 0xA0 ADD MLOAD PUSH2 0x3643 SWAP2 SWAP1 PUSH2 0x4E92 JUMP JUMPDEST DUP3 DUP3 DUP2 MLOAD DUP2 LT PUSH2 0x3656 JUMPI PUSH2 0x3655 PUSH2 0x47A0 JUMP JUMPDEST JUMPDEST PUSH1 0x20 MUL PUSH1 0x20 ADD ADD MLOAD PUSH1 0xA0 ADD DUP2 DUP2 MSTORE POP POP PUSH2 0x3799 JUMP JUMPDEST DUP8 DUP3 DUP3 DUP2 MLOAD DUP2 LT PUSH2 0x367F JUMPI PUSH2 0x367E PUSH2 0x47A0 JUMP JUMPDEST JUMPDEST PUSH1 0x20 MUL PUSH1 0x20 ADD ADD MLOAD PUSH1 0xA0 ADD DUP2 DUP2 MSTORE POP POP DUP8 DUP3 DUP3 DUP2 MLOAD DUP2 LT PUSH2 0x36A3 JUMPI PUSH2 0x36A2 PUSH2 0x47A0 JUMP JUMPDEST JUMPDEST PUSH1 0x20 MUL PUSH1 0x20 ADD ADD MLOAD PUSH1 0xC0 ADD DUP2 DUP2 MSTORE POP POP DUP2 PUSH1 0x1 DUP3 PUSH2 0x36C1 SWAP2 SWAP1 PUSH2 0x4EE8 JUMP JUMPDEST DUP2 MLOAD DUP2 LT PUSH2 0x36D2 JUMPI PUSH2 0x36D1 PUSH2 0x47A0 JUMP JUMPDEST JUMPDEST PUSH1 0x20 MUL PUSH1 0x20 ADD ADD MLOAD PUSH1 0x40 ADD MLOAD DUP3 DUP3 DUP2 MLOAD DUP2 LT PUSH2 0x36F1 JUMPI PUSH2 0x36F0 PUSH2 0x47A0 JUMP JUMPDEST JUMPDEST PUSH1 0x20 MUL PUSH1 0x20 ADD ADD MLOAD PUSH1 0x40 ADD MLOAD PUSH2 0x3707 SWAP2 SWAP1 PUSH2 0x4EE8 JUMP JUMPDEST SWAP9 POP PUSH1 0x0 JUMPDEST DUP10 DUP2 LT ISZERO PUSH2 0x3797 JUMPI DUP10 DUP4 PUSH1 0x1 DUP5 PUSH2 0x3723 SWAP2 SWAP1 PUSH2 0x4EE8 JUMP JUMPDEST DUP2 MLOAD DUP2 LT PUSH2 0x3734 JUMPI PUSH2 0x3733 PUSH2 0x47A0 JUMP JUMPDEST JUMPDEST PUSH1 0x20 MUL PUSH1 0x20 ADD ADD MLOAD PUSH1 0xA0 ADD MLOAD PUSH2 0x374A SWAP2 SWAP1 PUSH2 0x538B JUMP JUMPDEST DUP4 PUSH1 0x1 DUP4 PUSH2 0x3758 SWAP2 SWAP1 PUSH2 0x4E92 JUMP JUMPDEST DUP5 PUSH2 0x3763 SWAP2 SWAP1 PUSH2 0x4EE8 JUMP JUMPDEST DUP2 MLOAD DUP2 LT PUSH2 0x3774 JUMPI PUSH2 0x3773 PUSH2 0x47A0 JUMP JUMPDEST JUMPDEST PUSH1 0x20 MUL PUSH1 0x20 ADD ADD MLOAD PUSH1 0xC0 ADD DUP2 DUP2 MSTORE POP POP DUP1 DUP1 PUSH2 0x378F SWAP1 PUSH2 0x47FE JUMP JUMPDEST SWAP2 POP POP PUSH2 0x370C JUMP JUMPDEST POP JUMPDEST PUSH2 0x3944 JUMP JUMPDEST DUP2 PUSH1 0x1 DUP3 PUSH2 0x37AC SWAP2 SWAP1 PUSH2 0x4EE8 JUMP JUMPDEST DUP2 MLOAD DUP2 LT PUSH2 0x37BD JUMPI PUSH2 0x37BC PUSH2 0x47A0 JUMP JUMPDEST JUMPDEST PUSH1 0x20 MUL PUSH1 0x20 ADD ADD MLOAD PUSH1 0x40 ADD MLOAD DUP3 DUP3 DUP2 MLOAD DUP2 LT PUSH2 0x37DC JUMPI PUSH2 0x37DB PUSH2 0x47A0 JUMP JUMPDEST JUMPDEST PUSH1 0x20 MUL PUSH1 0x20 ADD ADD MLOAD PUSH1 0x40 ADD MLOAD SUB PUSH2 0x38FA JUMPI DUP8 DUP3 PUSH1 0x1 DUP4 PUSH2 0x37FC SWAP2 SWAP1 PUSH2 0x4EE8 JUMP JUMPDEST DUP2 MLOAD DUP2 LT PUSH2 0x380D JUMPI PUSH2 0x380C PUSH2 0x47A0 JUMP JUMPDEST JUMPDEST PUSH1 0x20 MUL PUSH1 0x20 ADD ADD MLOAD PUSH1 0xA0 ADD MLOAD PUSH2 0x3823 SWAP2 SWAP1 PUSH2 0x4E92 JUMP JUMPDEST DUP3 DUP3 DUP2 MLOAD DUP2 LT PUSH2 0x3836 JUMPI PUSH2 0x3835 PUSH2 0x47A0 JUMP JUMPDEST JUMPDEST PUSH1 0x20 MUL PUSH1 0x20 ADD ADD MLOAD PUSH1 0xA0 ADD DUP2 DUP2 MSTORE POP POP DUP2 DUP2 DUP2 MLOAD DUP2 LT PUSH2 0x3859 JUMPI PUSH2 0x3858 PUSH2 0x47A0 JUMP JUMPDEST JUMPDEST PUSH1 0x20 MUL PUSH1 0x20 ADD ADD MLOAD PUSH1 0x40 ADD MLOAD PUSH1 0x1 DUP7 PUSH2 0x3872 SWAP2 SWAP1 PUSH2 0x4E92 JUMP JUMPDEST PUSH2 0x387C SWAP2 SWAP1 PUSH2 0x4EE8 JUMP JUMPDEST SWAP9 POP PUSH1 0x0 JUMPDEST DUP10 DUP2 LT ISZERO PUSH2 0x38F4 JUMPI DUP10 DUP4 DUP4 DUP2 MLOAD DUP2 LT PUSH2 0x389D JUMPI PUSH2 0x389C PUSH2 0x47A0 JUMP JUMPDEST JUMPDEST PUSH1 0x20 MUL PUSH1 0x20 ADD ADD MLOAD PUSH1 0xA0 ADD MLOAD PUSH2 0x38B3 SWAP2 SWAP1 PUSH2 0x538B JUMP JUMPDEST DUP4 DUP3 DUP5 PUSH2 0x38C0 SWAP2 SWAP1 PUSH2 0x4EE8 JUMP JUMPDEST DUP2 MLOAD DUP2 LT PUSH2 0x38D1 JUMPI PUSH2 0x38D0 PUSH2 0x47A0 JUMP JUMPDEST JUMPDEST PUSH1 0x20 MUL PUSH1 0x20 ADD ADD MLOAD PUSH1 0xC0 ADD DUP2 DUP2 MSTORE POP POP DUP1 DUP1 PUSH2 0x38EC SWAP1 PUSH2 0x47FE JUMP JUMPDEST SWAP2 POP POP PUSH2 0x3881 JUMP JUMPDEST POP PUSH2 0x3943 JUMP JUMPDEST DUP8 DUP3 DUP3 DUP2 MLOAD DUP2 LT PUSH2 0x390E JUMPI PUSH2 0x390D PUSH2 0x47A0 JUMP JUMPDEST JUMPDEST PUSH1 0x20 MUL PUSH1 0x20 ADD ADD MLOAD PUSH1 0xA0 ADD DUP2 DUP2 MSTORE POP POP DUP8 DUP3 DUP3 DUP2 MLOAD DUP2 LT PUSH2 0x3932 JUMPI PUSH2 0x3931 PUSH2 0x47A0 JUMP JUMPDEST JUMPDEST PUSH1 0x20 MUL PUSH1 0x20 ADD ADD MLOAD PUSH1 0xC0 ADD DUP2 DUP2 MSTORE POP POP JUMPDEST JUMPDEST DUP1 DUP1 PUSH2 0x394F SWAP1 PUSH2 0x47FE JUMP JUMPDEST SWAP2 POP POP PUSH2 0x3526 JUMP JUMPDEST POP DUP1 SWAP12 POP POP POP POP POP POP POP POP POP POP POP POP SWAP3 SWAP2 POP POP JUMP JUMPDEST PUSH1 0x0 CALLER SWAP1 POP SWAP1 JUMP JUMPDEST PUSH2 0x397C PUSH2 0xB93 JUMP JUMPDEST PUSH2 0x39BB JUMPI PUSH1 0x40 MLOAD PUSH32 0x8C379A000000000000000000000000000000000000000000000000000000000 DUP2 MSTORE PUSH1 0x4 ADD PUSH2 0x39B2 SWAP1 PUSH2 0x56A6 JUMP JUMPDEST PUSH1 0x40 MLOAD DUP1 SWAP2 SUB SWAP1 REVERT JUMPDEST JUMP JUMPDEST PUSH2 0x39C5 PUSH2 0xB93 JUMP JUMPDEST ISZERO PUSH2 0x3A05 JUMPI PUSH1 0x40 MLOAD PUSH32 0x8C379A000000000000000000000000000000000000000000000000000000000 DUP2 MSTORE PUSH1 0x4 ADD PUSH2 0x39FC SWAP1 PUSH2 0x5712 JUMP JUMPDEST PUSH1 0x40 MLOAD DUP1 SWAP2 SUB SWAP1 REVERT JUMPDEST JUMP JUMPDEST PUSH1 0x0 DUP1 DUP3 PUSH1 0xFF AND DUP5 PUSH1 0xFF AND GT ISZERO PUSH2 0x3A21 JUMPI PUSH1 0x0 SWAP1 POP PUSH2 0x3A3E JUMP JUMPDEST DUP4 PUSH1 0xFF AND DUP4 PUSH1 0xFF AND GT ISZERO PUSH2 0x3A38 JUMPI PUSH1 0x2 SWAP1 POP PUSH2 0x3A3D JUMP JUMPDEST PUSH1 0x1 SWAP1 POP JUMPDEST JUMPDEST DUP1 SWAP2 POP POP SWAP3 SWAP2 POP POP JUMP JUMPDEST PUSH1 0x40 MLOAD DUP1 PUSH1 0x60 ADD PUSH1 0x40 MSTORE DUP1 PUSH1 0x0 PUSH4 0xFFFFFFFF AND DUP2 MSTORE PUSH1 0x20 ADD PUSH1 0x0 PUSH1 0xFF AND DUP2 MSTORE PUSH1 0x20 ADD PUSH1 0x0 PUSH1 0xFF AND DUP2 MSTORE POP SWAP1 JUMP JUMPDEST PUSH1 0x40 MLOAD DUP1 PUSH1 0x60 ADD PUSH1 0x40 MSTORE DUP1 PUSH1 0x0 PUSH4 0xFFFFFFFF AND DUP2 MSTORE PUSH1 0x20 ADD PUSH1 0x60 DUP2 MSTORE PUSH1 0x20 ADD PUSH1 0x60 DUP2 MSTORE POP SWAP1 JUMP JUMPDEST PUSH1 0x40 MLOAD DUP1 PUSH1 0x60 ADD PUSH1 0x40 MSTORE DUP1 PUSH1 0x0 PUSH20 0xFFFFFFFFFFFFFFFFFFFFFFFFFFFFFFFFFFFFFFFF AND DUP2 MSTORE PUSH1 0x20 ADD PUSH1 0x0 DUP2 MSTORE PUSH1 0x20 ADD PUSH1 0x0 DUP2 MSTORE POP SWAP1 JUMP JUMPDEST PUSH1 0x40 MLOAD DUP1 PUSH1 0x40 ADD PUSH1 0x40 MSTORE DUP1 PUSH1 0x0 DUP2 MSTORE PUSH1 0x20 ADD PUSH1 0x0 DUP2 MSTORE POP SWAP1 JUMP JUMPDEST PUSH1 0x40 MLOAD DUP1 PUSH1 0x60 ADD PUSH1 0x40 MSTORE DUP1 PUSH1 0x0 PUSH20 0xFFFFFFFFFFFFFFFFFFFFFFFFFFFFFFFFFFFFFFFF AND DUP2 MSTORE PUSH1 0x20 ADD PUSH1 0x0 DUP2 MSTORE PUSH1 0x20 ADD PUSH1 0x0 DUP2 MSTORE POP SWAP1 JUMP JUMPDEST PUSH1 0x40 MLOAD DUP1 PUSH1 0x40 ADD PUSH1 0x40 MSTORE DUP1 PUSH1 0x0 PUSH20 0xFFFFFFFFFFFFFFFFFFFFFFFFFFFFFFFFFFFFFFFF AND DUP2 MSTORE PUSH1 0x20 ADD PUSH1 0x0 DUP2 MSTORE POP SWAP1 JUMP JUMPDEST PUSH1 0x40 MLOAD DUP1 PUSH1 0xE0 ADD PUSH1 0x40 MSTORE DUP1 PUSH1 0x0 PUSH20 0xFFFFFFFFFFFFFFFFFFFFFFFFFFFFFFFFFFFFFFFF AND DUP2 MSTORE PUSH1 0x20 ADD PUSH1 0x0 DUP2 MSTORE PUSH1 0x20 ADD PUSH1 0x0 DUP2 MSTORE PUSH1 0x20 ADD PUSH1 0x0 DUP2 MSTORE PUSH1 0x20 ADD PUSH1 0x0 DUP2 MSTORE PUSH1 0x20 ADD PUSH1 0x0 DUP2 MSTORE PUSH1 0x20 ADD PUSH1 0x0 DUP2 MSTORE POP SWAP1 JUMP JUMPDEST PUSH1 0x0 DUP2 SWAP1 POP SWAP2 SWAP1 POP JUMP JUMPDEST PUSH2 0x3BBA DUP2 PUSH2 0x3BA7 JUMP JUMPDEST DUP3 MSTORE POP POP JUMP JUMPDEST PUSH1 0x0 PUSH1 0x20 DUP3 ADD SWAP1 POP PUSH2 0x3BD5 PUSH1 0x0 DUP4 ADD DUP5 PUSH2 0x3BB1 JUMP JUMPDEST SWAP3 SWAP2 POP POP JUMP JUMPDEST PUSH1 0x0 PUSH1 0x40 MLOAD SWAP1 POP SWAP1 JUMP JUMPDEST PUSH1 0x0 DUP1 REVERT JUMPDEST PUSH1 0x0 DUP1 REVERT JUMPDEST PUSH2 0x3BF8 DUP2 PUSH2 0x3BA7 JUMP JUMPDEST DUP2 EQ PUSH2 0x3C03 JUMPI PUSH1 0x0 DUP1 REVERT JUMPDEST POP JUMP JUMPDEST PUSH1 0x0 DUP2 CALLDATALOAD SWAP1 POP PUSH2 0x3C15 DUP2 PUSH2 0x3BEF JUMP JUMPDEST SWAP3 SWAP2 POP POP JUMP JUMPDEST PUSH1 0x0 PUSH20 0xFFFFFFFFFFFFFFFFFFFFFFFFFFFFFFFFFFFFFFFF DUP3 AND SWAP1 POP SWAP2 SWAP1 POP JUMP JUMPDEST PUSH1 0x0 PUSH2 0x3C46 DUP3 PUSH2 0x3C1B JUMP JUMPDEST SWAP1 POP SWAP2 SWAP1 POP JUMP JUMPDEST PUSH2 0x3C56 DUP2 PUSH2 0x3C3B JUMP JUMPDEST DUP2 EQ PUSH2 0x3C61 JUMPI PUSH1 0x0 DUP1 REVERT JUMPDEST POP JUMP JUMPDEST PUSH1 0x0 DUP2 CALLDATALOAD SWAP1 POP PUSH2 0x3C73 DUP2 PUSH2 0x3C4D JUMP JUMPDEST SWAP3 SWAP2 POP POP JUMP JUMPDEST PUSH1 0x0 DUP1 PUSH1 0x40 DUP4 DUP6 SUB SLT ISZERO PUSH2 0x3C90 JUMPI PUSH2 0x3C8F PUSH2 0x3BE5 JUMP JUMPDEST JUMPDEST PUSH1 0x0 PUSH2 0x3C9E DUP6 DUP3 DUP7 ADD PUSH2 0x3C06 JUMP JUMPDEST SWAP3 POP POP PUSH1 0x20 PUSH2 0x3CAF DUP6 DUP3 DUP7 ADD PUSH2 0x3C64 JUMP JUMPDEST SWAP2 POP POP SWAP3 POP SWAP3 SWAP1 POP JUMP JUMPDEST PUSH1 0x0 DUP2 MLOAD SWAP1 POP SWAP2 SWAP1 POP JUMP JUMPDEST PUSH1 0x0 DUP3 DUP3 MSTORE PUSH1 0x20 DUP3 ADD SWAP1 POP SWAP3 SWAP2 POP POP JUMP JUMPDEST PUSH1 0x0 DUP2 SWAP1 POP PUSH1 0x20 DUP3 ADD SWAP1 POP SWAP2 SWAP1 POP JUMP JUMPDEST PUSH1 0x0 PUSH4 0xFFFFFFFF DUP3 AND SWAP1 POP SWAP2 SWAP1 POP JUMP JUMPDEST PUSH2 0x3CFE DUP2 PUSH2 0x3CE5 JUMP JUMPDEST DUP3 MSTORE POP POP JUMP JUMPDEST PUSH1 0x0 PUSH1 0xFF DUP3 AND SWAP1 POP SWAP2 SWAP1 POP JUMP JUMPDEST PUSH2 0x3D1A DUP2 PUSH2 0x3D04 JUMP JUMPDEST DUP3 MSTORE POP POP JUMP JUMPDEST PUSH1 0x60 DUP3 ADD PUSH1 0x0 DUP3 ADD MLOAD PUSH2 0x3D36 PUSH1 0x0 DUP6 ADD DUP3 PUSH2 0x3CF5 JUMP JUMPDEST POP PUSH1 0x20 DUP3 ADD MLOAD PUSH2 0x3D49 PUSH1 0x20 DUP6 ADD DUP3 PUSH2 0x3D11 JUMP JUMPDEST POP PUSH1 0x40 DUP3 ADD MLOAD PUSH2 0x3D5C PUSH1 0x40 DUP6 ADD DUP3 PUSH2 0x3D11 JUMP JUMPDEST POP POP POP POP JUMP JUMPDEST PUSH1 0x0 PUSH2 0x3D6E DUP4 DUP4 PUSH2 0x3D20 JUMP JUMPDEST PUSH1 0x60 DUP4 ADD SWAP1 POP SWAP3 SWAP2 POP POP JUMP JUMPDEST PUSH1 0x0 PUSH1 0x20 DUP3 ADD SWAP1 POP SWAP2 SWAP1 POP JUMP JUMPDEST PUSH1 0x0 PUSH2 0x3D92 DUP3 PUSH2 0x3CB9 JUMP JUMPDEST PUSH2 0x3D9C DUP2 DUP6 PUSH2 0x3CC4 JUMP JUMPDEST SWAP4 POP PUSH2 0x3DA7 DUP4 PUSH2 0x3CD5 JUMP JUMPDEST DUP1 PUSH1 0x0 JUMPDEST DUP4 DUP2 LT ISZERO PUSH2 0x3DD8 JUMPI DUP2 MLOAD PUSH2 0x3DBF DUP9 DUP3 PUSH2 0x3D62 JUMP JUMPDEST SWAP8 POP PUSH2 0x3DCA DUP4 PUSH2 0x3D7A JUMP JUMPDEST SWAP3 POP POP PUSH1 0x1 DUP2 ADD SWAP1 POP PUSH2 0x3DAB JUMP JUMPDEST POP DUP6 SWAP4 POP POP POP POP SWAP3 SWAP2 POP POP JUMP JUMPDEST PUSH1 0x0 PUSH1 0x20 DUP3 ADD SWAP1 POP DUP2 DUP2 SUB PUSH1 0x0 DUP4 ADD MSTORE PUSH2 0x3DFF DUP2 DUP5 PUSH2 0x3D87 JUMP JUMPDEST SWAP1 POP SWAP3 SWAP2 POP POP JUMP JUMPDEST PUSH1 0x0 DUP1 REVERT JUMPDEST PUSH1 0x0 PUSH1 0x1F NOT PUSH1 0x1F DUP4 ADD AND SWAP1 POP SWAP2 SWAP1 POP JUMP JUMPDEST PUSH32 0x4E487B7100000000000000000000000000000000000000000000000000000000 PUSH1 0x0 MSTORE PUSH1 0x41 PUSH1 0x4 MSTORE PUSH1 0x24 PUSH1 0x0 REVERT JUMPDEST PUSH2 0x3E55 DUP3 PUSH2 0x3E0C JUMP JUMPDEST DUP2 ADD DUP2 DUP2 LT PUSH8 0xFFFFFFFFFFFFFFFF DUP3 GT OR ISZERO PUSH2 0x3E74 JUMPI PUSH2 0x3E73 PUSH2 0x3E1D JUMP JUMPDEST JUMPDEST DUP1 PUSH1 0x40 MSTORE POP POP POP JUMP JUMPDEST PUSH1 0x0 PUSH2 0x3E87 PUSH2 0x3BDB JUMP JUMPDEST SWAP1 POP PUSH2 0x3E93 DUP3 DUP3 PUSH2 0x3E4C JUMP JUMPDEST SWAP2 SWAP1 POP JUMP JUMPDEST PUSH1 0x0 PUSH8 0xFFFFFFFFFFFFFFFF DUP3 GT ISZERO PUSH2 0x3EB3 JUMPI PUSH2 0x3EB2 PUSH2 0x3E1D JUMP JUMPDEST JUMPDEST PUSH1 0x20 DUP3 MUL SWAP1 POP PUSH1 0x20 DUP2 ADD SWAP1 POP SWAP2 SWAP1 POP JUMP JUMPDEST PUSH1 0x0 DUP1 REVERT JUMPDEST PUSH1 0x0 DUP1 REVERT JUMPDEST PUSH1 0x0 PUSH8 0xFFFFFFFFFFFFFFFF DUP3 GT ISZERO PUSH2 0x3EE9 JUMPI PUSH2 0x3EE8 PUSH2 0x3E1D JUMP JUMPDEST JUMPDEST PUSH2 0x3EF2 DUP3 PUSH2 0x3E0C JUMP JUMPDEST SWAP1 POP PUSH1 0x20 DUP2 ADD SWAP1 POP SWAP2 SWAP1 POP JUMP JUMPDEST DUP3 DUP2 DUP4 CALLDATACOPY PUSH1 0x0 DUP4 DUP4 ADD MSTORE POP POP POP JUMP JUMPDEST PUSH1 0x0 PUSH2 0x3F21 PUSH2 0x3F1C DUP5 PUSH2 0x3ECE JUMP JUMPDEST PUSH2 0x3E7D JUMP JUMPDEST SWAP1 POP DUP3 DUP2 MSTORE PUSH1 0x20 DUP2 ADD DUP5 DUP5 DUP5 ADD GT ISZERO PUSH2 0x3F3D JUMPI PUSH2 0x3F3C PUSH2 0x3EC9 JUMP JUMPDEST JUMPDEST PUSH2 0x3F48 DUP5 DUP3 DUP6 PUSH2 0x3EFF JUMP JUMPDEST POP SWAP4 SWAP3 POP POP POP JUMP JUMPDEST PUSH1 0x0 DUP3 PUSH1 0x1F DUP4 ADD SLT PUSH2 0x3F65 JUMPI PUSH2 0x3F64 PUSH2 0x3E07 JUMP JUMPDEST JUMPDEST DUP2 CALLDATALOAD PUSH2 0x3F75 DUP5 DUP3 PUSH1 0x20 DUP7 ADD PUSH2 0x3F0E JUMP JUMPDEST SWAP2 POP POP SWAP3 SWAP2 POP POP JUMP JUMPDEST PUSH1 0x0 PUSH2 0x3F91 PUSH2 0x3F8C DUP5 PUSH2 0x3E98 JUMP JUMPDEST PUSH2 0x3E7D JUMP JUMPDEST SWAP1 POP DUP1 DUP4 DUP3 MSTORE PUSH1 0x20 DUP3 ADD SWAP1 POP PUSH1 0x20 DUP5 MUL DUP4 ADD DUP6 DUP2 GT ISZERO PUSH2 0x3FB4 JUMPI PUSH2 0x3FB3 PUSH2 0x3EC4 JUMP JUMPDEST JUMPDEST DUP4 JUMPDEST DUP2 DUP2 LT ISZERO PUSH2 0x3FFB JUMPI DUP1 CALLDATALOAD PUSH8 0xFFFFFFFFFFFFFFFF DUP2 GT ISZERO PUSH2 0x3FD9 JUMPI PUSH2 0x3FD8 PUSH2 0x3E07 JUMP JUMPDEST JUMPDEST DUP1 DUP7 ADD PUSH2 0x3FE6 DUP10 DUP3 PUSH2 0x3F50 JUMP JUMPDEST DUP6 MSTORE PUSH1 0x20 DUP6 ADD SWAP5 POP POP POP PUSH1 0x20 DUP2 ADD SWAP1 POP PUSH2 0x3FB6 JUMP JUMPDEST POP POP POP SWAP4 SWAP3 POP POP POP JUMP JUMPDEST PUSH1 0x0 DUP3 PUSH1 0x1F DUP4 ADD SLT PUSH2 0x401A JUMPI PUSH2 0x4019 PUSH2 0x3E07 JUMP JUMPDEST JUMPDEST DUP2 CALLDATALOAD PUSH2 0x402A DUP5 DUP3 PUSH1 0x20 DUP7 ADD PUSH2 0x3F7E JUMP JUMPDEST SWAP2 POP POP SWAP3 SWAP2 POP POP JUMP JUMPDEST PUSH1 0x0 DUP1 PUSH1 0x0 PUSH1 0x60 DUP5 DUP7 SUB SLT ISZERO PUSH2 0x404C JUMPI PUSH2 0x404B PUSH2 0x3BE5 JUMP JUMPDEST JUMPDEST PUSH1 0x0 PUSH2 0x405A DUP7 DUP3 DUP8 ADD PUSH2 0x3C06 JUMP JUMPDEST SWAP4 POP POP PUSH1 0x20 DUP5 ADD CALLDATALOAD PUSH8 0xFFFFFFFFFFFFFFFF DUP2 GT ISZERO PUSH2 0x407B JUMPI PUSH2 0x407A PUSH2 0x3BEA JUMP JUMPDEST JUMPDEST PUSH2 0x4087 DUP7 DUP3 DUP8 ADD PUSH2 0x4005 JUMP JUMPDEST SWAP3 POP POP PUSH1 0x40 PUSH2 0x4098 DUP7 DUP3 DUP8 ADD PUSH2 0x3C06 JUMP JUMPDEST SWAP2 POP POP SWAP3 POP SWAP3 POP SWAP3 JUMP JUMPDEST PUSH1 0x0 PUSH1 0x20 DUP3 DUP5 SUB SLT ISZERO PUSH2 0x40B8 JUMPI PUSH2 0x40B7 PUSH2 0x3BE5 JUMP JUMPDEST JUMPDEST PUSH1 0x0 PUSH2 0x40C6 DUP5 DUP3 DUP6 ADD PUSH2 0x3C06 JUMP JUMPDEST SWAP2 POP POP SWAP3 SWAP2 POP POP JUMP JUMPDEST PUSH1 0x0 DUP2 MLOAD SWAP1 POP SWAP2 SWAP1 POP JUMP JUMPDEST PUSH1 0x0 DUP3 DUP3 MSTORE PUSH1 0x20 DUP3 ADD SWAP1 POP SWAP3 SWAP2 POP POP JUMP JUMPDEST PUSH1 0x0 DUP2 SWAP1 POP PUSH1 0x20 DUP3 ADD SWAP1 POP SWAP2 SWAP1 POP JUMP JUMPDEST PUSH2 0x4104 DUP2 PUSH2 0x3C3B JUMP JUMPDEST DUP3 MSTORE POP POP JUMP JUMPDEST PUSH2 0x4113 DUP2 PUSH2 0x3BA7 JUMP JUMPDEST DUP3 MSTORE POP POP JUMP JUMPDEST PUSH1 0xA0 DUP3 ADD PUSH1 0x0 DUP3 ADD MLOAD PUSH2 0x412F PUSH1 0x0 DUP6 ADD DUP3 PUSH2 0x40FB JUMP JUMPDEST POP PUSH1 0x20 DUP3 ADD MLOAD PUSH2 0x4142 PUSH1 0x20 DUP6 ADD DUP3 PUSH2 0x410A JUMP JUMPDEST POP PUSH1 0x40 DUP3 ADD MLOAD PUSH2 0x4155 PUSH1 0x40 DUP6 ADD DUP3 PUSH2 0x410A JUMP JUMPDEST POP PUSH1 0x60 DUP3 ADD MLOAD PUSH2 0x4168 PUSH1 0x60 DUP6 ADD DUP3 PUSH2 0x410A JUMP JUMPDEST POP PUSH1 0x80 DUP3 ADD MLOAD PUSH2 0x417B PUSH1 0x80 DUP6 ADD DUP3 PUSH2 0x410A JUMP JUMPDEST POP POP POP POP JUMP JUMPDEST PUSH1 0x0 PUSH2 0x418D DUP4 DUP4 PUSH2 0x4119 JUMP JUMPDEST PUSH1 0xA0 DUP4 ADD SWAP1 POP SWAP3 SWAP2 POP POP JUMP JUMPDEST PUSH1 0x0 PUSH1 0x20 DUP3 ADD SWAP1 POP SWAP2 SWAP1 POP JUMP JUMPDEST PUSH1 0x0 PUSH2 0x41B1 DUP3 PUSH2 0x40CF JUMP JUMPDEST PUSH2 0x41BB DUP2 DUP6 PUSH2 0x40DA JUMP JUMPDEST SWAP4 POP PUSH2 0x41C6 DUP4 PUSH2 0x40EB JUMP JUMPDEST DUP1 PUSH1 0x0 JUMPDEST DUP4 DUP2 LT ISZERO PUSH2 0x41F7 JUMPI DUP2 MLOAD PUSH2 0x41DE DUP9 DUP3 PUSH2 0x4181 JUMP JUMPDEST SWAP8 POP PUSH2 0x41E9 DUP4 PUSH2 0x4199 JUMP JUMPDEST SWAP3 POP POP PUSH1 0x1 DUP2 ADD SWAP1 POP PUSH2 0x41CA JUMP JUMPDEST POP DUP6 SWAP4 POP POP POP POP SWAP3 SWAP2 POP POP JUMP JUMPDEST PUSH1 0x0 PUSH1 0x20 DUP3 ADD SWAP1 POP DUP2 DUP2 SUB PUSH1 0x0 DUP4 ADD MSTORE PUSH2 0x421E DUP2 DUP5 PUSH2 0x41A6 JUMP JUMPDEST SWAP1 POP SWAP3 SWAP2 POP POP JUMP JUMPDEST PUSH1 0x0 DUP2 ISZERO ISZERO SWAP1 POP SWAP2 SWAP1 POP JUMP JUMPDEST PUSH2 0x423B DUP2 PUSH2 0x4226 JUMP JUMPDEST DUP3 MSTORE POP POP JUMP JUMPDEST PUSH1 0x0 PUSH1 0x20 DUP3 ADD SWAP1 POP PUSH2 0x4256 PUSH1 0x0 DUP4 ADD DUP5 PUSH2 0x4232 JUMP JUMPDEST SWAP3 SWAP2 POP POP JUMP JUMPDEST PUSH1 0x0 DUP2 MLOAD SWAP1 POP SWAP2 SWAP1 POP JUMP JUMPDEST PUSH1 0x0 DUP3 DUP3 MSTORE PUSH1 0x20 DUP3 ADD SWAP1 POP SWAP3 SWAP2 POP POP JUMP JUMPDEST PUSH1 0x0 DUP2 SWAP1 POP PUSH1 0x20 DUP3 ADD SWAP1 POP SWAP2 SWAP1 POP JUMP JUMPDEST PUSH1 0x0 DUP2 MLOAD SWAP1 POP SWAP2 SWAP1 POP JUMP JUMPDEST PUSH1 0x0 DUP3 DUP3 MSTORE PUSH1 0x20 DUP3 ADD SWAP1 POP SWAP3 SWAP2 POP POP JUMP JUMPDEST PUSH1 0x0 JUMPDEST DUP4 DUP2 LT ISZERO PUSH2 0x42C2 JUMPI DUP1 DUP3 ADD MLOAD DUP2 DUP5 ADD MSTORE PUSH1 0x20 DUP2 ADD SWAP1 POP PUSH2 0x42A7 JUMP JUMPDEST DUP4 DUP2 GT ISZERO PUSH2 0x42D1 JUMPI PUSH1 0x0 DUP5 DUP5 ADD MSTORE JUMPDEST POP POP POP POP JUMP JUMPDEST PUSH1 0x0 PUSH2 0x42E2 DUP3 PUSH2 0x4288 JUMP JUMPDEST PUSH2 0x42EC DUP2 DUP6 PUSH2 0x4293 JUMP JUMPDEST SWAP4 POP PUSH2 0x42FC DUP2 DUP6 PUSH1 0x20 DUP7 ADD PUSH2 0x42A4 JUMP JUMPDEST PUSH2 0x4305 DUP2 PUSH2 0x3E0C JUMP JUMPDEST DUP5 ADD SWAP2 POP POP SWAP3 SWAP2 POP POP JUMP JUMPDEST PUSH1 0x0 PUSH1 0x60 DUP4 ADD PUSH1 0x0 DUP4 ADD MLOAD PUSH2 0x4328 PUSH1 0x0 DUP7 ADD DUP3 PUSH2 0x3CF5 JUMP JUMPDEST POP PUSH1 0x20 DUP4 ADD MLOAD DUP5 DUP3 SUB PUSH1 0x20 DUP7 ADD MSTORE PUSH2 0x4340 DUP3 DUP3 PUSH2 0x42D7 JUMP JUMPDEST SWAP2 POP POP PUSH1 0x40 DUP4 ADD MLOAD DUP5 DUP3 SUB PUSH1 0x40 DUP7 ADD MSTORE PUSH2 0x435A DUP3 DUP3 PUSH2 0x42D7 JUMP JUMPDEST SWAP2 POP POP DUP1 SWAP2 POP POP SWAP3 SWAP2 POP POP JUMP JUMPDEST PUSH1 0x0 PUSH2 0x4373 DUP4 DUP4 PUSH2 0x4310 JUMP JUMPDEST SWAP1 POP SWAP3 SWAP2 POP POP JUMP JUMPDEST PUSH1 0x0 PUSH1 0x20 DUP3 ADD SWAP1 POP SWAP2 SWAP1 POP JUMP JUMPDEST PUSH1 0x0 PUSH2 0x4393 DUP3 PUSH2 0x425C JUMP JUMPDEST PUSH2 0x439D DUP2 DUP6 PUSH2 0x4267 JUMP JUMPDEST SWAP4 POP DUP4 PUSH1 0x20 DUP3 MUL DUP6 ADD PUSH2 0x43AF DUP6 PUSH2 0x4278 JUMP JUMPDEST DUP1 PUSH1 0x0 JUMPDEST DUP6 DUP2 LT ISZERO PUSH2 0x43EB JUMPI DUP5 DUP5 SUB DUP10 MSTORE DUP2 MLOAD PUSH2 0x43CC DUP6 DUP3 PUSH2 0x4367 JUMP JUMPDEST SWAP5 POP PUSH2 0x43D7 DUP4 PUSH2 0x437B JUMP JUMPDEST SWAP3 POP PUSH1 0x20 DUP11 ADD SWAP10 POP POP PUSH1 0x1 DUP2 ADD SWAP1 POP PUSH2 0x43B3 JUMP JUMPDEST POP DUP3 SWAP8 POP DUP8 SWAP6 POP POP POP POP POP POP SWAP3 SWAP2 POP POP JUMP JUMPDEST PUSH1 0x0 PUSH1 0x20 DUP3 ADD SWAP1 POP DUP2 DUP2 SUB PUSH1 0x0 DUP4 ADD MSTORE PUSH2 0x4417 DUP2 DUP5 PUSH2 0x4388 JUMP JUMPDEST SWAP1 POP SWAP3 SWAP2 POP POP JUMP JUMPDEST PUSH1 0x0 PUSH1 0x20 DUP3 DUP5 SUB SLT ISZERO PUSH2 0x4435 JUMPI PUSH2 0x4434 PUSH2 0x3BE5 JUMP JUMPDEST JUMPDEST PUSH1 0x0 PUSH2 0x4443 DUP5 DUP3 DUP6 ADD PUSH2 0x3C64 JUMP JUMPDEST SWAP2 POP POP SWAP3 SWAP2 POP POP JUMP JUMPDEST PUSH1 0x40 DUP3 ADD PUSH1 0x0 DUP3 ADD MLOAD PUSH2 0x4462 PUSH1 0x0 DUP6 ADD DUP3 PUSH2 0x410A JUMP JUMPDEST POP PUSH1 0x20 DUP3 ADD MLOAD PUSH2 0x4475 PUSH1 0x20 DUP6 ADD DUP3 PUSH2 0x410A JUMP JUMPDEST POP POP POP POP JUMP JUMPDEST PUSH1 0x0 PUSH1 0x40 DUP3 ADD SWAP1 POP PUSH2 0x4490 PUSH1 0x0 DUP4 ADD DUP5 PUSH2 0x444C JUMP JUMPDEST SWAP3 SWAP2 POP POP JUMP JUMPDEST PUSH2 0x449F DUP2 PUSH2 0x3C3B JUMP JUMPDEST DUP3 MSTORE POP POP JUMP JUMPDEST PUSH1 0x0 PUSH1 0x20 DUP3 ADD SWAP1 POP PUSH2 0x44BA PUSH1 0x0 DUP4 ADD DUP5 PUSH2 0x4496 JUMP JUMPDEST SWAP3 SWAP2 POP POP JUMP JUMPDEST PUSH1 0x0 PUSH8 0xFFFFFFFFFFFFFFFF DUP3 GT ISZERO PUSH2 0x44DB JUMPI PUSH2 0x44DA PUSH2 0x3E1D JUMP JUMPDEST JUMPDEST PUSH1 0x20 DUP3 MUL SWAP1 POP PUSH1 0x20 DUP2 ADD SWAP1 POP SWAP2 SWAP1 POP JUMP JUMPDEST PUSH1 0x0 DUP1 REVERT JUMPDEST PUSH2 0x44FA DUP2 PUSH2 0x3CE5 JUMP JUMPDEST DUP2 EQ PUSH2 0x4505 JUMPI PUSH1 0x0 DUP1 REVERT JUMPDEST POP JUMP JUMPDEST PUSH1 0x0 DUP2 CALLDATALOAD SWAP1 POP PUSH2 0x4517 DUP2 PUSH2 0x44F1 JUMP JUMPDEST SWAP3 SWAP2 POP POP JUMP JUMPDEST PUSH2 0x4526 DUP2 PUSH2 0x3D04 JUMP JUMPDEST DUP2 EQ PUSH2 0x4531 JUMPI PUSH1 0x0 DUP1 REVERT JUMPDEST POP JUMP JUMPDEST PUSH1 0x0 DUP2 CALLDATALOAD SWAP1 POP PUSH2 0x4543 DUP2 PUSH2 0x451D JUMP JUMPDEST SWAP3 SWAP2 POP POP JUMP JUMPDEST PUSH1 0x0 PUSH1 0x60 DUP3 DUP5 SUB SLT ISZERO PUSH2 0x455F JUMPI PUSH2 0x455E PUSH2 0x44EC JUMP JUMPDEST JUMPDEST PUSH2 0x4569 PUSH1 0x60 PUSH2 0x3E7D JUMP JUMPDEST SWAP1 POP PUSH1 0x0 PUSH2 0x4579 DUP5 DUP3 DUP6 ADD PUSH2 0x4508 JUMP JUMPDEST PUSH1 0x0 DUP4 ADD MSTORE POP PUSH1 0x20 PUSH2 0x458D DUP5 DUP3 DUP6 ADD PUSH2 0x4534 JUMP JUMPDEST PUSH1 0x20 DUP4 ADD MSTORE POP PUSH1 0x40 PUSH2 0x45A1 DUP5 DUP3 DUP6 ADD PUSH2 0x4534 JUMP JUMPDEST PUSH1 0x40 DUP4 ADD MSTORE POP SWAP3 SWAP2 POP POP JUMP JUMPDEST PUSH1 0x0 PUSH2 0x45C0 PUSH2 0x45BB DUP5 PUSH2 0x44C0 JUMP JUMPDEST PUSH2 0x3E7D JUMP JUMPDEST SWAP1 POP DUP1 DUP4 DUP3 MSTORE PUSH1 0x20 DUP3 ADD SWAP1 POP PUSH1 0x60 DUP5 MUL DUP4 ADD DUP6 DUP2 GT ISZERO PUSH2 0x45E3 JUMPI PUSH2 0x45E2 PUSH2 0x3EC4 JUMP JUMPDEST JUMPDEST DUP4 JUMPDEST DUP2 DUP2 LT ISZERO PUSH2 0x460C JUMPI DUP1 PUSH2 0x45F8 DUP9 DUP3 PUSH2 0x4549 JUMP JUMPDEST DUP5 MSTORE PUSH1 0x20 DUP5 ADD SWAP4 POP POP PUSH1 0x60 DUP2 ADD SWAP1 POP PUSH2 0x45E5 JUMP JUMPDEST POP POP POP SWAP4 SWAP3 POP POP POP JUMP JUMPDEST PUSH1 0x0 DUP3 PUSH1 0x1F DUP4 ADD SLT PUSH2 0x462B JUMPI PUSH2 0x462A PUSH2 0x3E07 JUMP JUMPDEST JUMPDEST DUP2 CALLDATALOAD PUSH2 0x463B DUP5 DUP3 PUSH1 0x20 DUP7 ADD PUSH2 0x45AD JUMP JUMPDEST SWAP2 POP POP SWAP3 SWAP2 POP POP JUMP JUMPDEST PUSH1 0x0 PUSH1 0x20 DUP3 DUP5 SUB SLT ISZERO PUSH2 0x465A JUMPI PUSH2 0x4659 PUSH2 0x3BE5 JUMP JUMPDEST JUMPDEST PUSH1 0x0 DUP3 ADD CALLDATALOAD PUSH8 0xFFFFFFFFFFFFFFFF DUP2 GT ISZERO PUSH2 0x4678 JUMPI PUSH2 0x4677 PUSH2 0x3BEA JUMP JUMPDEST JUMPDEST PUSH2 0x4684 DUP5 DUP3 DUP6 ADD PUSH2 0x4616 JUMP JUMPDEST SWAP2 POP POP SWAP3 SWAP2 POP POP JUMP JUMPDEST PUSH1 0x0 DUP2 MLOAD SWAP1 POP SWAP2 SWAP1 POP JUMP JUMPDEST PUSH1 0x0 DUP3 DUP3 MSTORE PUSH1 0x20 DUP3 ADD SWAP1 POP SWAP3 SWAP2 POP POP JUMP JUMPDEST PUSH1 0x0 DUP2 SWAP1 POP PUSH1 0x20 DUP3 ADD SWAP1 POP SWAP2 SWAP1 POP JUMP JUMPDEST PUSH1 0x60 DUP3 ADD PUSH1 0x0 DUP3 ADD MLOAD PUSH2 0x46CF PUSH1 0x0 DUP6 ADD DUP3 PUSH2 0x40FB JUMP JUMPDEST POP PUSH1 0x20 DUP3 ADD MLOAD PUSH2 0x46E2 PUSH1 0x20 DUP6 ADD DUP3 PUSH2 0x410A JUMP JUMPDEST POP PUSH1 0x40 DUP3 ADD MLOAD PUSH2 0x46F5 PUSH1 0x40 DUP6 ADD DUP3 PUSH2 0x410A JUMP JUMPDEST POP POP POP POP JUMP JUMPDEST PUSH1 0x0 PUSH2 0x4707 DUP4 DUP4 PUSH2 0x46B9 JUMP JUMPDEST PUSH1 0x60 DUP4 ADD SWAP1 POP SWAP3 SWAP2 POP POP JUMP JUMPDEST PUSH1 0x0 PUSH1 0x20 DUP3 ADD SWAP1 POP SWAP2 SWAP1 POP JUMP JUMPDEST PUSH1 0x0 PUSH2 0x472B DUP3 PUSH2 0x468D JUMP JUMPDEST PUSH2 0x4735 DUP2 DUP6 PUSH2 0x4698 JUMP JUMPDEST SWAP4 POP PUSH2 0x4740 DUP4 PUSH2 0x46A9 JUMP JUMPDEST DUP1 PUSH1 0x0 JUMPDEST DUP4 DUP2 LT ISZERO PUSH2 0x4771 JUMPI DUP2 MLOAD PUSH2 0x4758 DUP9 DUP3 PUSH2 0x46FB JUMP JUMPDEST SWAP8 POP PUSH2 0x4763 DUP4 PUSH2 0x4713 JUMP JUMPDEST SWAP3 POP POP PUSH1 0x1 DUP2 ADD SWAP1 POP PUSH2 0x4744 JUMP JUMPDEST POP DUP6 SWAP4 POP POP POP POP SWAP3 SWAP2 POP POP JUMP JUMPDEST PUSH1 0x0 PUSH1 0x20 DUP3 ADD SWAP1 POP DUP2 DUP2 SUB PUSH1 0x0 DUP4 ADD MSTORE PUSH2 0x4798 DUP2 DUP5 PUSH2 0x4720 JUMP JUMPDEST SWAP1 POP SWAP3 SWAP2 POP POP JUMP JUMPDEST PUSH32 0x4E487B7100000000000000000000000000000000000000000000000000000000 PUSH1 0x0 MSTORE PUSH1 0x32 PUSH1 0x4 MSTORE PUSH1 0x24 PUSH1 0x0 REVERT JUMPDEST PUSH32 0x4E487B7100000000000000000000000000000000000000000000000000000000 PUSH1 0x0 MSTORE PUSH1 0x11 PUSH1 0x4 MSTORE PUSH1 0x24 PUSH1 0x0 REVERT JUMPDEST PUSH1 0x0 PUSH2 0x4809 DUP3 PUSH2 0x3BA7 JUMP JUMPDEST SWAP2 POP PUSH32 0xFFFFFFFFFFFFFFFFFFFFFFFFFFFFFFFFFFFFFFFFFFFFFFFFFFFFFFFFFFFFFFFF DUP3 SUB PUSH2 0x483B JUMPI PUSH2 0x483A PUSH2 0x47CF JUMP JUMPDEST JUMPDEST PUSH1 0x1 DUP3 ADD SWAP1 POP SWAP2 SWAP1 POP JUMP JUMPDEST PUSH32 0x4E487B7100000000000000000000000000000000000000000000000000000000 PUSH1 0x0 MSTORE PUSH1 0x22 PUSH1 0x4 MSTORE PUSH1 0x24 PUSH1 0x0 REVERT JUMPDEST PUSH1 0x0 PUSH1 0x2 DUP3 DIV SWAP1 POP PUSH1 0x1 DUP3 AND DUP1 PUSH2 0x488D JUMPI PUSH1 0x7F DUP3 AND SWAP2 POP JUMPDEST PUSH1 0x20 DUP3 LT DUP2 SUB PUSH2 0x48A0 JUMPI PUSH2 0x489F PUSH2 0x4846 JUMP JUMPDEST JUMPDEST POP SWAP2 SWAP1 POP JUMP JUMPDEST PUSH1 0x0 DUP2 SWAP1 POP DUP2 PUSH1 0x0 MSTORE PUSH1 0x20 PUSH1 0x0 KECCAK256 SWAP1 POP SWAP2 SWAP1 POP JUMP JUMPDEST PUSH1 0x0 PUSH1 0x20 PUSH1 0x1F DUP4 ADD DIV SWAP1 POP SWAP2 SWAP1 POP JUMP JUMPDEST PUSH1 0x0 DUP3 DUP3 SHL SWAP1 POP SWAP3 SWAP2 POP POP JUMP JUMPDEST PUSH1 0x0 PUSH1 0x8 DUP4 MUL PUSH2 0x4908 PUSH32 0xFFFFFFFFFFFFFFFFFFFFFFFFFFFFFFFFFFFFFFFFFFFFFFFFFFFFFFFFFFFFFFFF DUP3 PUSH2 0x48CB JUMP JUMPDEST PUSH2 0x4912 DUP7 DUP4 PUSH2 0x48CB JUMP JUMPDEST SWAP6 POP DUP1 NOT DUP5 AND SWAP4 POP DUP1 DUP7 AND DUP5 OR SWAP3 POP POP POP SWAP4 SWAP3 POP POP POP JUMP JUMPDEST PUSH1 0x0 DUP2 SWAP1 POP SWAP2 SWAP1 POP JUMP JUMPDEST PUSH1 0x0 PUSH2 0x494F PUSH2 0x494A PUSH2 0x4945 DUP5 PUSH2 0x3BA7 JUMP JUMPDEST PUSH2 0x492A JUMP JUMPDEST PUSH2 0x3BA7 JUMP JUMPDEST SWAP1 POP SWAP2 SWAP1 POP JUMP JUMPDEST PUSH1 0x0 DUP2 SWAP1 POP SWAP2 SWAP1 POP JUMP JUMPDEST PUSH2 0x4969 DUP4 PUSH2 0x4934 JUMP JUMPDEST PUSH2 0x497D PUSH2 0x4975 DUP3 PUSH2 0x4956 JUMP JUMPDEST DUP5 DUP5 SLOAD PUSH2 0x48D8 JUMP JUMPDEST DUP3 SSTORE POP POP POP POP JUMP JUMPDEST PUSH1 0x0 SWAP1 JUMP JUMPDEST PUSH2 0x4992 PUSH2 0x4985 JUMP JUMPDEST PUSH2 0x499D DUP2 DUP5 DUP5 PUSH2 0x4960 JUMP JUMPDEST POP POP POP JUMP JUMPDEST JUMPDEST DUP2 DUP2 LT ISZERO PUSH2 0x49C1 JUMPI PUSH2 0x49B6 PUSH1 0x0 DUP3 PUSH2 0x498A JUMP JUMPDEST PUSH1 0x1 DUP2 ADD SWAP1 POP PUSH2 0x49A3 JUMP JUMPDEST POP POP JUMP JUMPDEST PUSH1 0x1F DUP3 GT ISZERO PUSH2 0x4A06 JUMPI PUSH2 0x49D7 DUP2 PUSH2 0x48A6 JUMP JUMPDEST PUSH2 0x49E0 DUP5 PUSH2 0x48BB JUMP JUMPDEST DUP2 ADD PUSH1 0x20 DUP6 LT ISZERO PUSH2 0x49EF JUMPI DUP2 SWAP1 POP JUMPDEST PUSH2 0x4A03 PUSH2 0x49FB DUP6 PUSH2 0x48BB JUMP JUMPDEST DUP4 ADD DUP3 PUSH2 0x49A2 JUMP JUMPDEST POP POP JUMPDEST POP POP POP JUMP JUMPDEST PUSH1 0x0 DUP3 DUP3 SHR SWAP1 POP SWAP3 SWAP2 POP POP JUMP JUMPDEST PUSH1 0x0 PUSH2 0x4A29 PUSH1 0x0 NOT DUP5 PUSH1 0x8 MUL PUSH2 0x4A0B JUMP JUMPDEST NOT DUP1 DUP4 AND SWAP2 POP POP SWAP3 SWAP2 POP POP JUMP JUMPDEST PUSH1 0x0 PUSH2 0x4A42 DUP4 DUP4 PUSH2 0x4A18 JUMP JUMPDEST SWAP2 POP DUP3 PUSH1 0x2 MUL DUP3 OR SWAP1 POP SWAP3 SWAP2 POP POP JUMP JUMPDEST PUSH2 0x4A5B DUP3 PUSH2 0x4288 JUMP JUMPDEST PUSH8 0xFFFFFFFFFFFFFFFF DUP2 GT ISZERO PUSH2 0x4A74 JUMPI PUSH2 0x4A73 PUSH2 0x3E1D JUMP JUMPDEST JUMPDEST PUSH2 0x4A7E DUP3 SLOAD PUSH2 0x4875 JUMP JUMPDEST PUSH2 0x4A89 DUP3 DUP3 DUP6 PUSH2 0x49C5 JUMP JUMPDEST PUSH1 0x0 PUSH1 0x20 SWAP1 POP PUSH1 0x1F DUP4 GT PUSH1 0x1 DUP2 EQ PUSH2 0x4ABC JUMPI PUSH1 0x0 DUP5 ISZERO PUSH2 0x4AAA JUMPI DUP3 DUP8 ADD MLOAD SWAP1 POP JUMPDEST PUSH2 0x4AB4 DUP6 DUP3 PUSH2 0x4A36 JUMP JUMPDEST DUP7 SSTORE POP PUSH2 0x4B1C JUMP JUMPDEST PUSH1 0x1F NOT DUP5 AND PUSH2 0x4ACA DUP7 PUSH2 0x48A6 JUMP JUMPDEST PUSH1 0x0 JUMPDEST DUP3 DUP2 LT ISZERO PUSH2 0x4AF2 JUMPI DUP5 DUP10 ADD MLOAD DUP3 SSTORE PUSH1 0x1 DUP3 ADD SWAP2 POP PUSH1 0x20 DUP6 ADD SWAP5 POP PUSH1 0x20 DUP2 ADD SWAP1 POP PUSH2 0x4ACD JUMP JUMPDEST DUP7 DUP4 LT ISZERO PUSH2 0x4B0F JUMPI DUP5 DUP10 ADD MLOAD PUSH2 0x4B0B PUSH1 0x1F DUP10 AND DUP3 PUSH2 0x4A18 JUMP JUMPDEST DUP4 SSTORE POP JUMPDEST PUSH1 0x1 PUSH1 0x2 DUP9 MUL ADD DUP9 SSTORE POP POP POP JUMPDEST POP POP POP POP POP POP JUMP JUMPDEST PUSH1 0x0 DUP3 DUP3 MSTORE PUSH1 0x20 DUP3 ADD SWAP1 POP SWAP3 SWAP2 POP POP JUMP JUMPDEST PUSH32 0x596F752063616E6E6F7420776974686472617720756E74696C2074686520656E PUSH1 0x0 DUP3 ADD MSTORE PUSH32 0x64206F662074686520636F6E7465737421000000000000000000000000000000 PUSH1 0x20 DUP3 ADD MSTORE POP JUMP JUMPDEST PUSH1 0x0 PUSH2 0x4B91 PUSH1 0x31 DUP4 PUSH2 0x4B24 JUMP JUMPDEST SWAP2 POP PUSH2 0x4B9C DUP3 PUSH2 0x4B35 JUMP JUMPDEST PUSH1 0x40 DUP3 ADD SWAP1 POP SWAP2 SWAP1 POP JUMP JUMPDEST PUSH1 0x0 PUSH1 0x20 DUP3 ADD SWAP1 POP DUP2 DUP2 SUB PUSH1 0x0 DUP4 ADD MSTORE PUSH2 0x4BC0 DUP2 PUSH2 0x4B84 JUMP JUMPDEST SWAP1 POP SWAP2 SWAP1 POP JUMP JUMPDEST PUSH1 0x0 DUP2 SLOAD PUSH2 0x4BD4 DUP2 PUSH2 0x4875 JUMP JUMPDEST PUSH2 0x4BDE DUP2 DUP7 PUSH2 0x4B24 JUMP JUMPDEST SWAP5 POP PUSH1 0x1 DUP3 AND PUSH1 0x0 DUP2 EQ PUSH2 0x4BF9 JUMPI PUSH1 0x1 DUP2 EQ PUSH2 0x4C0F JUMPI PUSH2 0x4C42 JUMP JUMPDEST PUSH1 0xFF NOT DUP4 AND DUP7 MSTORE DUP2 ISZERO ISZERO PUSH1 0x20 MUL DUP7 ADD SWAP4 POP PUSH2 0x4C42 JUMP JUMPDEST PUSH2 0x4C18 DUP6 PUSH2 0x48A6 JUMP JUMPDEST PUSH1 0x0 JUMPDEST DUP4 DUP2 LT ISZERO PUSH2 0x4C3A JUMPI DUP2 SLOAD DUP2 DUP10 ADD MSTORE PUSH1 0x1 DUP3 ADD SWAP2 POP PUSH1 0x20 DUP2 ADD SWAP1 POP PUSH2 0x4C1B JUMP JUMPDEST DUP1 DUP9 ADD SWAP6 POP POP POP JUMPDEST POP POP POP SWAP3 SWAP2 POP POP JUMP JUMPDEST PUSH1 0x0 PUSH1 0x20 DUP3 ADD SWAP1 POP DUP2 DUP2 SUB PUSH1 0x0 DUP4 ADD MSTORE PUSH2 0x4C65 DUP2 DUP5 PUSH2 0x4BC7 JUMP JUMPDEST SWAP1 POP SWAP3 SWAP2 POP POP JUMP JUMPDEST PUSH1 0x0 DUP2 MLOAD SWAP1 POP PUSH2 0x4C7C DUP2 PUSH2 0x3BEF JUMP JUMPDEST SWAP3 SWAP2 POP POP JUMP JUMPDEST PUSH1 0x0 PUSH1 0x20 DUP3 DUP5 SUB SLT ISZERO PUSH2 0x4C98 JUMPI PUSH2 0x4C97 PUSH2 0x3BE5 JUMP JUMPDEST JUMPDEST PUSH1 0x0 PUSH2 0x4CA6 DUP5 DUP3 DUP6 ADD PUSH2 0x4C6D JUMP JUMPDEST SWAP2 POP POP SWAP3 SWAP2 POP POP JUMP JUMPDEST PUSH1 0x0 PUSH1 0x40 DUP3 ADD SWAP1 POP DUP2 DUP2 SUB PUSH1 0x0 DUP4 ADD MSTORE PUSH2 0x4CC9 DUP2 DUP6 PUSH2 0x4BC7 JUMP JUMPDEST SWAP1 POP PUSH2 0x4CD8 PUSH1 0x20 DUP4 ADD DUP5 PUSH2 0x3BB1 JUMP JUMPDEST SWAP4 SWAP3 POP POP POP JUMP JUMPDEST PUSH1 0x0 DUP2 MLOAD SWAP1 POP PUSH2 0x4CEE DUP2 PUSH2 0x44F1 JUMP JUMPDEST SWAP3 SWAP2 POP POP JUMP JUMPDEST PUSH1 0x0 PUSH2 0x4D07 PUSH2 0x4D02 DUP5 PUSH2 0x3ECE JUMP JUMPDEST PUSH2 0x3E7D JUMP JUMPDEST SWAP1 POP DUP3 DUP2 MSTORE PUSH1 0x20 DUP2 ADD DUP5 DUP5 DUP5 ADD GT ISZERO PUSH2 0x4D23 JUMPI PUSH2 0x4D22 PUSH2 0x3EC9 JUMP JUMPDEST JUMPDEST PUSH2 0x4D2E DUP5 DUP3 DUP6 PUSH2 0x42A4 JUMP JUMPDEST POP SWAP4 SWAP3 POP POP POP JUMP JUMPDEST PUSH1 0x0 DUP3 PUSH1 0x1F DUP4 ADD SLT PUSH2 0x4D4B JUMPI PUSH2 0x4D4A PUSH2 0x3E07 JUMP JUMPDEST JUMPDEST DUP2 MLOAD PUSH2 0x4D5B DUP5 DUP3 PUSH1 0x20 DUP7 ADD PUSH2 0x4CF4 JUMP JUMPDEST SWAP2 POP POP SWAP3 SWAP2 POP POP JUMP JUMPDEST PUSH1 0x0 DUP1 PUSH1 0x0 PUSH1 0x60 DUP5 DUP7 SUB SLT ISZERO PUSH2 0x4D7D JUMPI PUSH2 0x4D7C PUSH2 0x3BE5 JUMP JUMPDEST JUMPDEST PUSH1 0x0 PUSH2 0x4D8B DUP7 DUP3 DUP8 ADD PUSH2 0x4CDF JUMP JUMPDEST SWAP4 POP POP PUSH1 0x20 DUP5 ADD MLOAD PUSH8 0xFFFFFFFFFFFFFFFF DUP2 GT ISZERO PUSH2 0x4DAC JUMPI PUSH2 0x4DAB PUSH2 0x3BEA JUMP JUMPDEST JUMPDEST PUSH2 0x4DB8 DUP7 DUP3 DUP8 ADD PUSH2 0x4D36 JUMP JUMPDEST SWAP3 POP POP PUSH1 0x40 DUP5 ADD MLOAD PUSH8 0xFFFFFFFFFFFFFFFF DUP2 GT ISZERO PUSH2 0x4DD9 JUMPI PUSH2 0x4DD8 PUSH2 0x3BEA JUMP JUMPDEST JUMPDEST PUSH2 0x4DE5 DUP7 DUP3 DUP8 ADD PUSH2 0x4D36 JUMP JUMPDEST SWAP2 POP POP SWAP3 POP SWAP3 POP SWAP3 JUMP JUMPDEST PUSH32 0x5468657265206973206E6F2070656E64696E672077696E6E696E677321000000 PUSH1 0x0 DUP3 ADD MSTORE POP JUMP JUMPDEST PUSH1 0x0 PUSH2 0x4E25 PUSH1 0x1D DUP4 PUSH2 0x4B24 JUMP JUMPDEST SWAP2 POP PUSH2 0x4E30 DUP3 PUSH2 0x4DEF JUMP JUMPDEST PUSH1 0x20 DUP3 ADD SWAP1 POP SWAP2 SWAP1 POP JUMP JUMPDEST PUSH1 0x0 PUSH1 0x20 DUP3 ADD SWAP1 POP DUP2 DUP2 SUB PUSH1 0x0 DUP4 ADD MSTORE PUSH2 0x4E54 DUP2 PUSH2 0x4E18 JUMP JUMPDEST SWAP1 POP SWAP2 SWAP1 POP JUMP JUMPDEST PUSH1 0x0 PUSH1 0x60 DUP3 ADD SWAP1 POP PUSH2 0x4E70 PUSH1 0x0 DUP4 ADD DUP7 PUSH2 0x4496 JUMP JUMPDEST PUSH2 0x4E7D PUSH1 0x20 DUP4 ADD DUP6 PUSH2 0x3BB1 JUMP JUMPDEST PUSH2 0x4E8A PUSH1 0x40 DUP4 ADD DUP5 PUSH2 0x4496 JUMP JUMPDEST SWAP5 SWAP4 POP POP POP POP JUMP JUMPDEST PUSH1 0x0 PUSH2 0x4E9D DUP3 PUSH2 0x3BA7 JUMP JUMPDEST SWAP2 POP PUSH2 0x4EA8 DUP4 PUSH2 0x3BA7 JUMP JUMPDEST SWAP3 POP DUP3 PUSH32 0xFFFFFFFFFFFFFFFFFFFFFFFFFFFFFFFFFFFFFFFFFFFFFFFFFFFFFFFFFFFFFFFF SUB DUP3 GT ISZERO PUSH2 0x4EDD JUMPI PUSH2 0x4EDC PUSH2 0x47CF JUMP JUMPDEST JUMPDEST DUP3 DUP3 ADD SWAP1 POP SWAP3 SWAP2 POP POP JUMP JUMPDEST PUSH1 0x0 PUSH2 0x4EF3 DUP3 PUSH2 0x3BA7 JUMP JUMPDEST SWAP2 POP PUSH2 0x4EFE DUP4 PUSH2 0x3BA7 JUMP JUMPDEST SWAP3 POP DUP3 DUP3 LT ISZERO PUSH2 0x4F11 JUMPI PUSH2 0x4F10 PUSH2 0x47CF JUMP JUMPDEST JUMPDEST DUP3 DUP3 SUB SWAP1 POP SWAP3 SWAP2 POP POP JUMP JUMPDEST PUSH32 0x596F75206E6565642061207469636B657420666F7220736176696E6720707265 PUSH1 0x0 DUP3 ADD MSTORE PUSH32 0x64696374696F6E73210000000000000000000000000000000000000000000000 PUSH1 0x20 DUP3 ADD MSTORE POP JUMP JUMPDEST PUSH1 0x0 PUSH2 0x4F78 PUSH1 0x29 DUP4 PUSH2 0x4B24 JUMP JUMPDEST SWAP2 POP PUSH2 0x4F83 DUP3 PUSH2 0x4F1C JUMP JUMPDEST PUSH1 0x40 DUP3 ADD SWAP1 POP SWAP2 SWAP1 POP JUMP JUMPDEST PUSH1 0x0 PUSH1 0x20 DUP3 ADD SWAP1 POP DUP2 DUP2 SUB PUSH1 0x0 DUP4 ADD MSTORE PUSH2 0x4FA7 DUP2 PUSH2 0x4F6B JUMP JUMPDEST SWAP1 POP SWAP2 SWAP1 POP JUMP JUMPDEST PUSH32 0x50726564696374696F6E20506572696F6420697320636C6F7365642100000000 PUSH1 0x0 DUP3 ADD MSTORE POP JUMP JUMPDEST PUSH1 0x0 PUSH2 0x4FE4 PUSH1 0x1C DUP4 PUSH2 0x4B24 JUMP JUMPDEST SWAP2 POP PUSH2 0x4FEF DUP3 PUSH2 0x4FAE JUMP JUMPDEST PUSH1 0x20 DUP3 ADD SWAP1 POP SWAP2 SWAP1 POP JUMP JUMPDEST PUSH1 0x0 PUSH1 0x20 DUP3 ADD SWAP1 POP DUP2 DUP2 SUB PUSH1 0x0 DUP4 ADD MSTORE PUSH2 0x5013 DUP2 PUSH2 0x4FD7 JUMP JUMPDEST SWAP1 POP SWAP2 SWAP1 POP JUMP JUMPDEST PUSH32 0x546865206E756D626572206F662070726564696374696F6E7320646F65736E27 PUSH1 0x0 DUP3 ADD MSTORE PUSH32 0x74206D6174636821000000000000000000000000000000000000000000000000 PUSH1 0x20 DUP3 ADD MSTORE POP JUMP JUMPDEST PUSH1 0x0 PUSH2 0x5076 PUSH1 0x28 DUP4 PUSH2 0x4B24 JUMP JUMPDEST SWAP2 POP PUSH2 0x5081 DUP3 PUSH2 0x501A JUMP JUMPDEST PUSH1 0x40 DUP3 ADD SWAP1 POP SWAP2 SWAP1 POP JUMP JUMPDEST PUSH1 0x0 PUSH1 0x20 DUP3 ADD SWAP1 POP DUP2 DUP2 SUB PUSH1 0x0 DUP4 ADD MSTORE PUSH2 0x50A5 DUP2 PUSH2 0x5069 JUMP JUMPDEST SWAP1 POP SWAP2 SWAP1 POP JUMP JUMPDEST PUSH1 0x0 PUSH2 0x50B7 DUP3 PUSH2 0x3BA7 JUMP JUMPDEST SWAP2 POP PUSH2 0x50C2 DUP4 PUSH2 0x3BA7 JUMP JUMPDEST SWAP3 POP DUP2 PUSH32 0xFFFFFFFFFFFFFFFFFFFFFFFFFFFFFFFFFFFFFFFFFFFFFFFFFFFFFFFFFFFFFFFF DIV DUP4 GT DUP3 ISZERO ISZERO AND ISZERO PUSH2 0x50FB JUMPI PUSH2 0x50FA PUSH2 0x47CF JUMP JUMPDEST JUMPDEST DUP3 DUP3 MUL SWAP1 POP SWAP3 SWAP2 POP POP JUMP JUMPDEST PUSH32 0x4F776E61626C653A206E6577206F776E657220697320746865207A65726F2061 PUSH1 0x0 DUP3 ADD MSTORE PUSH32 0x6464726573730000000000000000000000000000000000000000000000000000 PUSH1 0x20 DUP3 ADD MSTORE POP JUMP JUMPDEST PUSH1 0x0 PUSH2 0x5162 PUSH1 0x26 DUP4 PUSH2 0x4B24 JUMP JUMPDEST SWAP2 POP PUSH2 0x516D DUP3 PUSH2 0x5106 JUMP JUMPDEST PUSH1 0x40 DUP3 ADD SWAP1 POP SWAP2 SWAP1 POP JUMP JUMPDEST PUSH1 0x0 PUSH1 0x20 DUP3 ADD SWAP1 POP DUP2 DUP2 SUB PUSH1 0x0 DUP4 ADD MSTORE PUSH2 0x5191 DUP2 PUSH2 0x5155 JUMP JUMPDEST SWAP1 POP SWAP2 SWAP1 POP JUMP JUMPDEST PUSH32 0x4E487B7100000000000000000000000000000000000000000000000000000000 PUSH1 0x0 MSTORE PUSH1 0x12 PUSH1 0x4 MSTORE PUSH1 0x24 PUSH1 0x0 REVERT JUMPDEST PUSH1 0x0 PUSH2 0x51D2 DUP3 PUSH2 0x3BA7 JUMP JUMPDEST SWAP2 POP PUSH2 0x51DD DUP4 PUSH2 0x3BA7 JUMP JUMPDEST SWAP3 POP DUP3 PUSH2 0x51ED JUMPI PUSH2 0x51EC PUSH2 0x5198 JUMP JUMPDEST JUMPDEST DUP3 DUP3 MOD SWAP1 POP SWAP3 SWAP2 POP POP JUMP JUMPDEST PUSH32 0x54686520616D6F756E74206D7573742062652061206D756C7469706C65206F66 PUSH1 0x0 DUP3 ADD MSTORE PUSH32 0x2035300000000000000000000000000000000000000000000000000000000000 PUSH1 0x20 DUP3 ADD MSTORE POP JUMP JUMPDEST PUSH1 0x0 PUSH2 0x5254 PUSH1 0x23 DUP4 PUSH2 0x4B24 JUMP JUMPDEST SWAP2 POP PUSH2 0x525F DUP3 PUSH2 0x51F8 JUMP JUMPDEST PUSH1 0x40 DUP3 ADD SWAP1 POP SWAP2 SWAP1 POP JUMP JUMPDEST PUSH1 0x0 PUSH1 0x20 DUP3 ADD SWAP1 POP DUP2 DUP2 SUB PUSH1 0x0 DUP4 ADD MSTORE PUSH2 0x5283 DUP2 PUSH2 0x5247 JUMP JUMPDEST SWAP1 POP SWAP2 SWAP1 POP JUMP JUMPDEST PUSH32 0x496E737566666963656E7420616D6F756E74206F662055534443000000000000 PUSH1 0x0 DUP3 ADD MSTORE POP JUMP JUMPDEST PUSH1 0x0 PUSH2 0x52C0 PUSH1 0x1A DUP4 PUSH2 0x4B24 JUMP JUMPDEST SWAP2 POP PUSH2 0x52CB DUP3 PUSH2 0x528A JUMP JUMPDEST PUSH1 0x20 DUP3 ADD SWAP1 POP SWAP2 SWAP1 POP JUMP JUMPDEST PUSH1 0x0 PUSH1 0x20 DUP3 ADD SWAP1 POP DUP2 DUP2 SUB PUSH1 0x0 DUP4 ADD MSTORE PUSH2 0x52EF DUP2 PUSH2 0x52B3 JUMP JUMPDEST SWAP1 POP SWAP2 SWAP1 POP JUMP JUMPDEST PUSH1 0x0 PUSH1 0x40 DUP3 ADD SWAP1 POP PUSH2 0x530B PUSH1 0x0 DUP4 ADD DUP6 PUSH2 0x4496 JUMP JUMPDEST PUSH2 0x5318 PUSH1 0x20 DUP4 ADD DUP5 PUSH2 0x4496 JUMP JUMPDEST SWAP4 SWAP3 POP POP POP JUMP JUMPDEST PUSH32 0x496E73756666696369656E7420616C6C6F776564205553444300000000000000 PUSH1 0x0 DUP3 ADD MSTORE POP JUMP JUMPDEST PUSH1 0x0 PUSH2 0x5355 PUSH1 0x19 DUP4 PUSH2 0x4B24 JUMP JUMPDEST SWAP2 POP PUSH2 0x5360 DUP3 PUSH2 0x531F JUMP JUMPDEST PUSH1 0x20 DUP3 ADD SWAP1 POP SWAP2 SWAP1 POP JUMP JUMPDEST PUSH1 0x0 PUSH1 0x20 DUP3 ADD SWAP1 POP DUP2 DUP2 SUB PUSH1 0x0 DUP4 ADD MSTORE PUSH2 0x5384 DUP2 PUSH2 0x5348 JUMP JUMPDEST SWAP1 POP SWAP2 SWAP1 POP JUMP JUMPDEST PUSH1 0x0 PUSH2 0x5396 DUP3 PUSH2 0x3BA7 JUMP JUMPDEST SWAP2 POP PUSH2 0x53A1 DUP4 PUSH2 0x3BA7 JUMP JUMPDEST SWAP3 POP DUP3 PUSH2 0x53B1 JUMPI PUSH2 0x53B0 PUSH2 0x5198 JUMP JUMPDEST JUMPDEST DUP3 DUP3 DIV SWAP1 POP SWAP3 SWAP2 POP POP JUMP JUMPDEST PUSH1 0x0 PUSH1 0x60 DUP3 ADD SWAP1 POP PUSH2 0x53D1 PUSH1 0x0 DUP4 ADD DUP7 PUSH2 0x4496 JUMP JUMPDEST PUSH2 0x53DE PUSH1 0x20 DUP4 ADD DUP6 PUSH2 0x4496 JUMP JUMPDEST PUSH2 0x53EB PUSH1 0x40 DUP4 ADD DUP5 PUSH2 0x3BB1 JUMP JUMPDEST SWAP5 SWAP4 POP POP POP POP JUMP JUMPDEST PUSH2 0x53FC DUP2 PUSH2 0x4226 JUMP JUMPDEST DUP2 EQ PUSH2 0x5407 JUMPI PUSH1 0x0 DUP1 REVERT JUMPDEST POP JUMP JUMPDEST PUSH1 0x0 DUP2 MLOAD SWAP1 POP PUSH2 0x5419 DUP2 PUSH2 0x53F3 JUMP JUMPDEST SWAP3 SWAP2 POP POP JUMP JUMPDEST PUSH1 0x0 PUSH1 0x20 DUP3 DUP5 SUB SLT ISZERO PUSH2 0x5435 JUMPI PUSH2 0x5434 PUSH2 0x3BE5 JUMP JUMPDEST JUMPDEST PUSH1 0x0 PUSH2 0x5443 DUP5 DUP3 DUP6 ADD PUSH2 0x540A JUMP JUMPDEST SWAP2 POP POP SWAP3 SWAP2 POP POP JUMP JUMPDEST PUSH1 0x0 PUSH1 0x40 DUP3 ADD SWAP1 POP PUSH2 0x5461 PUSH1 0x0 DUP4 ADD DUP6 PUSH2 0x4496 JUMP JUMPDEST PUSH2 0x546E PUSH1 0x20 DUP4 ADD DUP5 PUSH2 0x3BB1 JUMP JUMPDEST SWAP4 SWAP3 POP POP POP JUMP JUMPDEST PUSH1 0x0 DUP2 SWAP1 POP SWAP2 SWAP1 POP JUMP JUMPDEST PUSH1 0x0 PUSH2 0xFFFF DUP3 AND SWAP1 POP SWAP2 SWAP1 POP JUMP JUMPDEST PUSH1 0x0 PUSH2 0x54A8 PUSH2 0x54A3 PUSH2 0x549E DUP5 PUSH2 0x5475 JUMP JUMPDEST PUSH2 0x492A JUMP JUMPDEST PUSH2 0x547F JUMP JUMPDEST SWAP1 POP SWAP2 SWAP1 POP JUMP JUMPDEST PUSH2 0x54B8 DUP2 PUSH2 0x548D JUMP JUMPDEST DUP3 MSTORE POP POP JUMP JUMPDEST PUSH1 0x0 PUSH1 0x80 DUP3 ADD SWAP1 POP PUSH2 0x54D3 PUSH1 0x0 DUP4 ADD DUP8 PUSH2 0x4496 JUMP JUMPDEST PUSH2 0x54E0 PUSH1 0x20 DUP4 ADD DUP7 PUSH2 0x3BB1 JUMP JUMPDEST PUSH2 0x54ED PUSH1 0x40 DUP4 ADD DUP6 PUSH2 0x4496 JUMP JUMPDEST PUSH2 0x54FA PUSH1 0x60 DUP4 ADD DUP5 PUSH2 0x54AF JUMP JUMPDEST SWAP6 SWAP5 POP POP POP POP POP JUMP JUMPDEST PUSH32 0x4F776E61626C653A2063616C6C6572206973206E6F7420746865206F776E6572 PUSH1 0x0 DUP3 ADD MSTORE POP JUMP JUMPDEST PUSH1 0x0 PUSH2 0x5539 PUSH1 0x20 DUP4 PUSH2 0x4B24 JUMP JUMPDEST SWAP2 POP PUSH2 0x5544 DUP3 PUSH2 0x5503 JUMP JUMPDEST PUSH1 0x20 DUP3 ADD SWAP1 POP SWAP2 SWAP1 POP JUMP JUMPDEST PUSH1 0x0 PUSH1 0x20 DUP3 ADD SWAP1 POP DUP2 DUP2 SUB PUSH1 0x0 DUP4 ADD MSTORE PUSH2 0x5568 DUP2 PUSH2 0x552C JUMP JUMPDEST SWAP1 POP SWAP2 SWAP1 POP JUMP JUMPDEST PUSH32 0x596F7520646F6E2774206861766520656E6F756768207469636B657473210000 PUSH1 0x0 DUP3 ADD MSTORE POP JUMP JUMPDEST PUSH1 0x0 PUSH2 0x55A5 PUSH1 0x1E DUP4 PUSH2 0x4B24 JUMP JUMPDEST SWAP2 POP PUSH2 0x55B0 DUP3 PUSH2 0x556F JUMP JUMPDEST PUSH1 0x20 DUP3 ADD SWAP1 POP SWAP2 SWAP1 POP JUMP JUMPDEST PUSH1 0x0 PUSH1 0x20 DUP3 ADD SWAP1 POP DUP2 DUP2 SUB PUSH1 0x0 DUP4 ADD MSTORE PUSH2 0x55D4 DUP2 PUSH2 0x5598 JUMP JUMPDEST SWAP1 POP SWAP2 SWAP1 POP JUMP JUMPDEST PUSH2 0x55E4 DUP2 PUSH2 0x3CE5 JUMP JUMPDEST DUP3 MSTORE POP POP JUMP JUMPDEST PUSH1 0x0 PUSH1 0x20 DUP3 ADD SWAP1 POP PUSH2 0x55FF PUSH1 0x0 DUP4 ADD DUP5 PUSH2 0x55DB JUMP JUMPDEST SWAP3 SWAP2 POP POP JUMP JUMPDEST PUSH1 0x0 DUP2 MLOAD SWAP1 POP PUSH2 0x5614 DUP2 PUSH2 0x451D JUMP JUMPDEST SWAP3 SWAP2 POP POP JUMP JUMPDEST PUSH1 0x0 DUP1 PUSH1 0x40 DUP4 DUP6 SUB SLT ISZERO PUSH2 0x5631 JUMPI PUSH2 0x5630 PUSH2 0x3BE5 JUMP JUMPDEST JUMPDEST PUSH1 0x0 PUSH2 0x563F DUP6 DUP3 DUP7 ADD PUSH2 0x5605 JUMP JUMPDEST SWAP3 POP POP PUSH1 0x20 PUSH2 0x5650 DUP6 DUP3 DUP7 ADD PUSH2 0x5605 JUMP JUMPDEST SWAP2 POP POP SWAP3 POP SWAP3 SWAP1 POP JUMP JUMPDEST PUSH32 0x5061757361626C653A206E6F7420706175736564000000000000000000000000 PUSH1 0x0 DUP3 ADD MSTORE POP JUMP JUMPDEST PUSH1 0x0 PUSH2 0x5690 PUSH1 0x14 DUP4 PUSH2 0x4B24 JUMP JUMPDEST SWAP2 POP PUSH2 0x569B DUP3 PUSH2 0x565A JUMP JUMPDEST PUSH1 0x20 DUP3 ADD SWAP1 POP SWAP2 SWAP1 POP JUMP JUMPDEST PUSH1 0x0 PUSH1 0x20 DUP3 ADD SWAP1 POP DUP2 DUP2 SUB PUSH1 0x0 DUP4 ADD MSTORE PUSH2 0x56BF DUP2 PUSH2 0x5683 JUMP JUMPDEST SWAP1 POP SWAP2 SWAP1 POP JUMP JUMPDEST PUSH32 0x5061757361626C653A2070617573656400000000000000000000000000000000 PUSH1 0x0 DUP3 ADD MSTORE POP JUMP JUMPDEST PUSH1 0x0 PUSH2 0x56FC PUSH1 0x10 DUP4 PUSH2 0x4B24 JUMP JUMPDEST SWAP2 POP PUSH2 0x5707 DUP3 PUSH2 0x56C6 JUMP JUMPDEST PUSH1 0x20 DUP3 ADD SWAP1 POP SWAP2 SWAP1 POP JUMP JUMPDEST PUSH1 0x0 PUSH1 0x20 DUP3 ADD SWAP1 POP DUP2 DUP2 SUB PUSH1 0x0 DUP4 ADD MSTORE PUSH2 0x572B DUP2 PUSH2 0x56EF JUMP JUMPDEST SWAP1 POP SWAP2 SWAP1 POP JUMP INVALID LOG2 PUSH5 0x6970667358 0x22 SLT KECCAK256 0xA8 0x4A 0x2E GT 0x5C RETURN 0x29 LT CODECOPY SLT CALLCODE MOD PUSH10 0x4FA8A1016EC254E87DA MSTORE8 XOR PUSH19 0x13F2DF95ECFE64736F6C634300080F00330000 "},"methodIdentifiers":{"claimFromPool()":"8d44f13b","createContest(uint256,string[],uint256)":"18699547","depositOnAave(uint256)":"fd8d1909","getContestPredictionEndDate()":"08af2d78","getContestTable(uint256)":"2452a7e3","getCurrentContestId()":"fb46bd22","getGlobalPrizePool()":"b4ace158","getListGamesPerContest(uint256)":"7e5dd913","getNumberOfPlayers(uint256)":"62436d9d","getPlayerRank(uint256,address)":"4fda591e","getPrevisionsPerPlayerPerContest(uint256,address)":"117f3998","getScoreTable(uint256)":"b66195b8","getWinningsPerPlayer(address)":"8ad2e864","globalPendingWinnings()":"41944175","owner()":"8da5cb5b","pause()":"8456cb59","paused()":"5c975abb","renounceOwnership()":"715018a6","savePrediction((uint32,uint8,uint8)[])":"9fa75e9a","transferOwnership(address)":"f2fde38b","unpause()":"3f4ba83a","updateContestTable(uint256)":"d6221518","withdraw(uint256)":"2e1a7d4d"}}}}}