{"contracts/InterpoolContract.sol":{"InterpoolContract":{"abi":[{"inputs":[],"stateMutability":"nonpayable","type":"constructor"},{"anonymous":false,"inputs":[{"indexed":true,"internalType":"address","name":"previousOwner","type":"address"},{"indexed":true,"internalType":"address","name":"newOwner","type":"address"}],"name":"OwnershipTransferred","type":"event"},{"anonymous":false,"inputs":[{"indexed":false,"internalType":"address","name":"account","type":"address"}],"name":"Paused","type":"event"},{"anonymous":false,"inputs":[{"indexed":false,"internalType":"address","name":"account","type":"address"}],"name":"Unpaused","type":"event"},{"inputs":[{"internalType":"uint256","name":"_contestId","type":"uint256"},{"components":[{"internalType":"address","name":"player","type":"address"},{"internalType":"uint256","name":"nbTickets","type":"uint256"},{"internalType":"uint256","name":"nbPoints","type":"uint256"}],"internalType":"struct InterpoolContract.PlayerPointsAndTickets[]","name":"_pointsTable","type":"tuple[]"}],"name":"calculateGain","outputs":[{"components":[{"internalType":"address","name":"player","type":"address"},{"internalType":"uint256","name":"nbPoints","type":"uint256"},{"internalType":"uint256","name":"rankExAequo","type":"uint256"},{"internalType":"uint256","name":"rewardNoExAequo","type":"uint256"},{"internalType":"uint256","name":"cumulatedRewardsNoExAequo","type":"uint256"},{"internalType":"uint256","name":"cumulatedRewardsPerRank","type":"uint256"},{"internalType":"uint256","name":"rewardPerRankPerPlayer","type":"uint256"}],"internalType":"struct InterpoolContract.Gain[]","name":"","type":"tuple[]"}],"stateMutability":"view","type":"function"},{"inputs":[{"internalType":"uint8","name":"_homeScore","type":"uint8"},{"internalType":"uint8","name":"_awayScore","type":"uint8"}],"name":"calculateMatchResult","outputs":[{"internalType":"uint256","name":"","type":"uint256"}],"stateMutability":"pure","type":"function"},{"inputs":[],"name":"claim","outputs":[],"stateMutability":"nonpayable","type":"function"},{"inputs":[{"internalType":"uint256","name":"_leagueId","type":"uint256"},{"internalType":"uint256","name":"_dateEndContestPredictions","type":"uint256"},{"internalType":"uint32[]","name":"_listGameIds","type":"uint32[]"}],"name":"createContest","outputs":[],"stateMutability":"nonpayable","type":"function"},{"inputs":[{"internalType":"uint256","name":"_amount","type":"uint256"}],"name":"deposit","outputs":[],"stateMutability":"nonpayable","type":"function"},{"inputs":[],"name":"getContestPredictionEndDate","outputs":[{"internalType":"uint256","name":"","type":"uint256"}],"stateMutability":"view","type":"function"},{"inputs":[{"internalType":"uint256","name":"_contestId","type":"uint256"}],"name":"getContestTable","outputs":[{"components":[{"internalType":"address","name":"player","type":"address"},{"internalType":"uint256","name":"nbTickets","type":"uint256"},{"internalType":"uint256","name":"nbPoints","type":"uint256"},{"internalType":"uint256","name":"rankExAequo","type":"uint256"},{"internalType":"uint256","name":"rewardPerRankPerPlayer","type":"uint256"}],"internalType":"struct InterpoolContract.ContestResult[]","name":"","type":"tuple[]"}],"stateMutability":"view","type":"function"},{"inputs":[],"name":"getCurrentContestId","outputs":[{"internalType":"uint256","name":"","type":"uint256"}],"stateMutability":"view","type":"function"},{"inputs":[],"name":"getGlobalPrizePool","outputs":[{"internalType":"uint256","name":"","type":"uint256"}],"stateMutability":"view","type":"function"},{"inputs":[{"internalType":"uint256","name":"_contestId","type":"uint256"}],"name":"getListRequestIdPerContest","outputs":[{"internalType":"bytes32[]","name":"","type":"bytes32[]"}],"stateMutability":"view","type":"function"},{"inputs":[{"internalType":"uint256","name":"_contestId","type":"uint256"}],"name":"getNumberOfGamesPerContest","outputs":[{"internalType":"uint256","name":"","type":"uint256"}],"stateMutability":"view","type":"function"},{"inputs":[{"internalType":"uint256","name":"_contestId","type":"uint256"}],"name":"getNumberOfPlayers","outputs":[{"internalType":"uint256","name":"","type":"uint256"}],"stateMutability":"view","type":"function"},{"inputs":[{"internalType":"uint256","name":"_contestId","type":"uint256"},{"internalType":"address","name":"_player","type":"address"}],"name":"getPlayerRank","outputs":[{"internalType":"uint256","name":"","type":"uint256"}],"stateMutability":"view","type":"function"},{"inputs":[{"internalType":"uint256","name":"_contestId","type":"uint256"},{"internalType":"address","name":"_player","type":"address"}],"name":"getPointsOfPlayerForContest","outputs":[{"internalType":"uint256","name":"","type":"uint256"}],"stateMutability":"view","type":"function"},{"inputs":[{"internalType":"uint256","name":"_contestId","type":"uint256"}],"name":"getPointsTable","outputs":[{"components":[{"internalType":"address","name":"player","type":"address"},{"internalType":"uint256","name":"nbTickets","type":"uint256"},{"internalType":"uint256","name":"nbPoints","type":"uint256"}],"internalType":"struct InterpoolContract.PlayerPointsAndTickets[]","name":"","type":"tuple[]"}],"stateMutability":"view","type":"function"},{"inputs":[{"internalType":"uint256","name":"_contestId","type":"uint256"},{"internalType":"address","name":"_player","type":"address"}],"name":"getPrevisionsPerPlayerPerContest","outputs":[{"components":[{"internalType":"uint32","name":"gameId","type":"uint32"},{"internalType":"uint8","name":"homeScore","type":"uint8"},{"internalType":"uint8","name":"awayScore","type":"uint8"}],"internalType":"struct InterpoolContract.GamePredict[]","name":"","type":"tuple[]"}],"stateMutability":"view","type":"function"},{"inputs":[{"internalType":"address","name":"_player","type":"address"},{"internalType":"uint32","name":"_gameId","type":"uint32"}],"name":"getPrevisionsPerPlayerPerGame","outputs":[{"internalType":"uint8","name":"","type":"uint8"},{"internalType":"uint8","name":"","type":"uint8"}],"stateMutability":"view","type":"function"},{"inputs":[{"internalType":"uint256","name":"_contestId","type":"uint256"},{"internalType":"uint32","name":"_gameId","type":"uint32"}],"name":"getScoresPerGameId","outputs":[{"internalType":"uint8","name":"","type":"uint8"},{"internalType":"uint8","name":"","type":"uint8"}],"stateMutability":"view","type":"function"},{"inputs":[{"internalType":"address","name":"_player","type":"address"}],"name":"getVerifPlayerPlayedPerContest","outputs":[{"internalType":"bool","name":"","type":"bool"}],"stateMutability":"view","type":"function"},{"inputs":[{"internalType":"address","name":"_player","type":"address"}],"name":"getWinningsPerPlayer","outputs":[{"internalType":"uint256","name":"","type":"uint256"},{"internalType":"uint256","name":"","type":"uint256"}],"stateMutability":"view","type":"function"},{"inputs":[],"name":"owner","outputs":[{"internalType":"address","name":"","type":"address"}],"stateMutability":"view","type":"function"},{"inputs":[],"name":"pause","outputs":[],"stateMutability":"nonpayable","type":"function"},{"inputs":[],"name":"paused","outputs":[{"internalType":"bool","name":"","type":"bool"}],"stateMutability":"view","type":"function"},{"inputs":[],"name":"renounceOwnership","outputs":[],"stateMutability":"nonpayable","type":"function"},{"inputs":[{"internalType":"uint256","name":"_leagueId","type":"uint256"},{"internalType":"uint256[]","name":"_requestDates","type":"uint256[]"}],"name":"resolveGames","outputs":[],"stateMutability":"nonpayable","type":"function"},{"inputs":[{"internalType":"uint256","name":"_contestId","type":"uint256"},{"internalType":"uint32[]","name":"_listGameIds","type":"uint32[]"}],"name":"saveGameResult","outputs":[],"stateMutability":"nonpayable","type":"function"},{"inputs":[{"components":[{"internalType":"uint32","name":"gameId","type":"uint32"},{"internalType":"uint8","name":"homeScore","type":"uint8"},{"internalType":"uint8","name":"awayScore","type":"uint8"}],"internalType":"struct InterpoolContract.GamePredict[]","name":"_gamePredictions","type":"tuple[]"}],"name":"savePrediction","outputs":[],"stateMutability":"nonpayable","type":"function"},{"inputs":[{"internalType":"address","name":"_player","type":"address"},{"components":[{"internalType":"uint32","name":"gameId","type":"uint32"},{"internalType":"uint8","name":"homeScore","type":"uint8"},{"internalType":"uint8","name":"awayScore","type":"uint8"}],"internalType":"struct InterpoolContract.GamePredict[]","name":"_gamePredictions","type":"tuple[]"}],"name":"savePredictionPerOwner","outputs":[],"stateMutability":"nonpayable","type":"function"},{"inputs":[{"internalType":"uint256","name":"_contestId","type":"uint256"}],"name":"setContestTable","outputs":[],"stateMutability":"nonpayable","type":"function"},{"inputs":[{"internalType":"address","name":"_enetContract","type":"address"}],"name":"setEnetContract","outputs":[],"stateMutability":"nonpayable","type":"function"},{"inputs":[{"internalType":"address","name":"_poolContract","type":"address"}],"name":"setPoolContract","outputs":[],"stateMutability":"nonpayable","type":"function"},{"inputs":[{"internalType":"address","name":"newOwner","type":"address"}],"name":"transferOwnership","outputs":[],"stateMutability":"nonpayable","type":"function"},{"inputs":[],"name":"unpause","outputs":[],"stateMutability":"nonpayable","type":"function"},{"inputs":[{"internalType":"uint256","name":"_nbTickets","type":"uint256"}],"name":"withdraw","outputs":[],"stateMutability":"nonpayable","type":"function"}],"evm":{"bytecode":{"linkReferences":{},"object":"60806040523480156200001157600080fd5b5062000032620000266200010160201b60201c565b6200010960201b60201c565b60008060146101000a81548160ff02191690831515021790555073d81e4a61fd6bf066539df6ea48bfaeae847dcda1600c60006101000a81548173ffffffffffffffffffffffffffffffffffffffff021916908373ffffffffffffffffffffffffffffffffffffffff160217905550620000c673376d4a2cb540e01a7e233c9b721c04087511ef3a620001cd60201b60201c565b620000eb7380a9c7c5f5bfd765a2dc3773dff00d02db8b34ae6200022160201b60201c565b6005600b819055506000600a81905550620003b2565b600033905090565b60008060009054906101000a900473ffffffffffffffffffffffffffffffffffffffff169050816000806101000a81548173ffffffffffffffffffffffffffffffffffffffff021916908373ffffffffffffffffffffffffffffffffffffffff1602179055508173ffffffffffffffffffffffffffffffffffffffff168173ffffffffffffffffffffffffffffffffffffffff167f8be0079c531659141344cd1fd0a4f28419497f9722a3daafe3b4186f6b6457e060405160405180910390a35050565b620001dd6200027560201b60201c565b80600d60006101000a81548173ffffffffffffffffffffffffffffffffffffffff021916908373ffffffffffffffffffffffffffffffffffffffff16021790555050565b620002316200027560201b60201c565b80600e60006101000a81548173ffffffffffffffffffffffffffffffffffffffff021916908373ffffffffffffffffffffffffffffffffffffffff16021790555050565b620002856200010160201b60201c565b73ffffffffffffffffffffffffffffffffffffffff16620002ab6200030660201b60201c565b73ffffffffffffffffffffffffffffffffffffffff161462000304576040517f08c379a0000000000000000000000000000000000000000000000000000000008152600401620002fb9062000390565b60405180910390fd5b565b60008060009054906101000a900473ffffffffffffffffffffffffffffffffffffffff16905090565b600082825260208201905092915050565b7f4f776e61626c653a2063616c6c6572206973206e6f7420746865206f776e6572600082015250565b6000620003786020836200032f565b9150620003858262000340565b602082019050919050565b60006020820190508181036000830152620003ab8162000369565b9050919050565b61523e80620003c26000396000f3fe608060405234801561001057600080fd5b50600436106102065760003560e01c80638456cb591161011a578063bd874a1d116100ad578063f0fad4aa1161007c578063f0fad4aa146105d6578063f2fde38b14610606578063f49a20bd14610622578063fb46bd2214610652578063fee901601461067057610206565b8063bd874a1d1461053d578063d69d40771461056e578063d97a55d61461059e578063e3a5215d146105ba57610206565b80639fa75e9a116100e95780639fa75e9a146104b7578063b4ace158146104d3578063b6b55f25146104f1578063baf637831461050d57610206565b80638456cb59146104425780638ad2e8641461044c5780638da5cb5b1461047d578063942350c21461049b57610206565b80634e71d92d1161019d57806362436d9d1161016c57806362436d9d1461039f5780636851e9a9146103cf578063715018a6146104005780637158f6101461040a57806371ce137e1461042657610206565b80634e71d92d1461032b5780634fda591e1461033557806359c3f3e0146103655780635c975abb1461038157610206565b806327ca8b98116101d957806327ca8b98146102b95780632e1a7d4d146102e95780633f4ba83a14610305578063413dc26d1461030f57610206565b806308af2d781461020b578063117f3998146102295780631d883342146102595780632452a7e314610289575b600080fd5b6102136106a0565b6040516102209190613a0c565b60405180910390f35b610243600480360381019061023e9190613ac5565b6106c0565b6040516102509190613c31565b60405180910390f35b610273600480360381019061026e9190613c53565b6108ed565b6040516102809190613a0c565b60405180910390f35b6102a3600480360381019061029e9190613c53565b61090d565b6040516102b09190613db5565b60405180910390f35b6102d360048036038101906102ce9190613c53565b6109fd565b6040516102e09190613ec8565b60405180910390f35b61030360048036038101906102fe9190613c53565b610b8f565b005b61030d610ce9565b005b6103296004803603810190610324919061406f565b610cfb565b005b610333610da2565b005b61034f600480360381019061034a9190613ac5565b610e31565b60405161035c9190613a0c565b60405180910390f35b61037f600480360381019061037a91906140de565b611063565b005b6103896110af565b6040516103969190614126565b60405180910390f35b6103b960048036038101906103b49190613c53565b6110c5565b6040516103c69190613a0c565b60405180910390f35b6103e960048036038101906103e49190614141565b6110e5565b6040516103f7929190614190565b60405180910390f35b610408611228565b005b610424600480360381019061041f919061427c565b61123c565b005b610440600480360381019061043b91906140de565b611366565b005b61044a6113b2565b005b610466600480360381019061046191906140de565b6113c4565b6040516104749291906142d8565b60405180910390f35b61048561146b565b6040516104929190614310565b60405180910390f35b6104b560048036038101906104b0919061432b565b611494565b005b6104d160048036038101906104cc91906144df565b611641565b005b6104db611bbd565b6040516104e89190613a0c565b60405180910390f35b61050b60048036038101906105069190613c53565b611c55565b005b6105276004803603810190610522919061464f565b611ce7565b60405161053491906147e8565b60405180910390f35b6105576004803603810190610552919061480a565b6126e8565b604051610565929190614190565b60405180910390f35b610588600480360381019061058391906140de565b6127eb565b6040516105959190614126565b60405180910390f35b6105b860048036038101906105b39190613c53565b612854565b005b6105d460048036038101906105cf919061484a565b612ec3565b005b6105f060048036038101906105eb9190613c53565b6131a3565b6040516105fd919061496e565b60405180910390f35b610620600480360381019061061b91906140de565b61320e565b005b61063c60048036038101906106379190614990565b613291565b6040516106499190613a0c565b60405180910390f35b61065a6132d2565b6040516106679190613a0c565b60405180910390f35b61068a60048036038101906106859190613ac5565b6132dc565b6040516106979190613a0c565b60405180910390f35b600060016000600a54815260200190815260200160002060010154905090565b606060006106cd846108ed565b90506000808267ffffffffffffffff8111156106ec576106eb613f00565b5b60405190808252806020026020018201604052801561072557816020015b61071261376e565b81526020019060019003908161070a5790505b50905060005b838110156108e057600660008881526020019081526020016000208181548110610758576107576149d0565b5b90600052602060002090600891828204019190066004029054906101000a900463ffffffff16925060405180606001604052808463ffffffff168152602001600460008973ffffffffffffffffffffffffffffffffffffffff1673ffffffffffffffffffffffffffffffffffffffff16815260200190815260200160002060008663ffffffff1663ffffffff168152602001908152602001600020600060028110610806576108056149d0565b5b602091828204019190069054906101000a900460ff1660ff168152602001600460008973ffffffffffffffffffffffffffffffffffffffff1673ffffffffffffffffffffffffffffffffffffffff16815260200190815260200160002060008663ffffffff1663ffffffff168152602001908152602001600020600160028110610893576108926149d0565b5b602091828204019190069054906101000a900460ff1660ff168152508282815181106108c2576108c16149d0565b5b602002602001018190525080806108d890614a2e565b91505061072b565b5080935050505092915050565b600060066000838152602001908152602001600020805490509050919050565b606060086000838152602001908152602001600020805480602002602001604051908101604052809291908181526020016000905b828210156109f257838290600052602060002090600502016040518060a00160405290816000820160009054906101000a900473ffffffffffffffffffffffffffffffffffffffff1673ffffffffffffffffffffffffffffffffffffffff1673ffffffffffffffffffffffffffffffffffffffff16815260200160018201548152602001600282015481526020016003820154815260200160048201548152505081526020019060010190610942565b505050509050919050565b60606000600260008481526020019081526020016000208054905090506000806000808467ffffffffffffffff811115610a3a57610a39613f00565b5b604051908082528060200260200182016040528015610a7357816020015b610a6061379b565b815260200190600190039081610a585790505b50905060005b85811015610b8157600260008981526020019081526020016000208181548110610aa657610aa56149d0565b5b906000526020600020906002020160000160009054906101000a900473ffffffffffffffffffffffffffffffffffffffff169450600260008981526020019081526020016000208181548110610aff57610afe6149d0565b5b9060005260206000209060020201600101549350610b1d88866132dc565b925060405180606001604052808673ffffffffffffffffffffffffffffffffffffffff16815260200185815260200184815250828281518110610b6357610b626149d0565b5b60200260200101819052508080610b7990614a2e565b915050610a79565b508095505050505050919050565b6000151560096000600a54815260200190815260200160002060003373ffffffffffffffffffffffffffffffffffffffff1673ffffffffffffffffffffffffffffffffffffffff16815260200190815260200160002060009054906101000a900460ff1615151480610c18575060016000600a5481526020019081526020016000206001015442115b610c57576040517f08c379a0000000000000000000000000000000000000000000000000000000008152600401610c4e90614af9565b60405180910390fd5b600e60009054906101000a900473ffffffffffffffffffffffffffffffffffffffff1673ffffffffffffffffffffffffffffffffffffffff16632cbcb1f282336040518363ffffffff1660e01b8152600401610cb4929190614b19565b600060405180830381600087803b158015610cce57600080fd5b505af1158015610ce2573d6000803e3d6000fd5b5050505050565b610cf16134cc565b610cf961354a565b565b610d036134cc565b600a6000815480929190610d1690614a2e565b91905055506000815190508160066000600a5481526020019081526020016000209080519060200190610d4a9291906137d2565b5060405180606001604052808581526020018481526020018281525060016000600a54815260200190815260200160002060008201518160000155602082015181600101556040820151816002015590505050505050565b600e60009054906101000a900473ffffffffffffffffffffffffffffffffffffffff1673ffffffffffffffffffffffffffffffffffffffff16630de6e321336040518263ffffffff1660e01b8152600401610dfd9190614310565b600060405180830381600087803b158015610e1757600080fd5b505af1158015610e2b573d6000803e3d6000fd5b50505050565b600080610e3d846109fd565b9050600080825190506000808267ffffffffffffffff811115610e6357610e62613f00565b5b604051908082528060200260200182016040528015610e9c57816020015b610e89613882565b815260200190600190039081610e815790505b50905060005b83811015610fbe576001945060005b84811015610f1f57868181518110610ecc57610ecb6149d0565b5b602002602001015160400151878381518110610eeb57610eea6149d0565b5b6020026020010151604001511015610f0c578580610f0890614a2e565b9650505b8080610f1790614a2e565b915050610eb1565b506040518060600160405280878381518110610f3e57610f3d6149d0565b5b60200260200101516000015173ffffffffffffffffffffffffffffffffffffffff168152602001878381518110610f7857610f776149d0565b5b602002602001015160400151815260200186815250828281518110610fa057610f9f6149d0565b5b60200260200101819052508080610fb690614a2e565b915050610ea2565b5060005b8381101561105457818181518110610fdd57610fdc6149d0565b5b60200260200101516000015173ffffffffffffffffffffffffffffffffffffffff168873ffffffffffffffffffffffffffffffffffffffff16036110415781818151811061102e5761102d6149d0565b5b6020026020010151604001519250611054565b808061104c90614a2e565b915050610fc2565b50819550505050505092915050565b61106b6134cc565b80600e60006101000a81548173ffffffffffffffffffffffffffffffffffffffff021916908373ffffffffffffffffffffffffffffffffffffffff16021790555050565b60008060149054906101000a900460ff16905090565b600060026000838152602001908152602001600020805490509050919050565b600080600060076000868152602001908152602001600020805490509050600060ff9050600080600090505b83811015611217576000600760008a815260200190815260200160002082815481106111405761113f6149d0565b5b90600052602060002001549050600d60009054906101000a900473ffffffffffffffffffffffffffffffffffffffff1673ffffffffffffffffffffffffffffffffffffffff16633910b2c2828a6040518363ffffffff1660e01b81526004016111aa929190614b60565b6040805180830381865afa1580156111c6573d6000803e3d6000fd5b505050506040513d601f19601f820116820180604052508101906111ea9190614b9e565b809450819550505060ff8460ff16146112035750611217565b50808061120f90614a2e565b915050611111565b508181945094505050509250929050565b6112306134cc565b61123a60006135ac565b565b6112446134cc565b60008151905060005b818110156113605760076000600a548152602001908152602001600020600d60009054906101000a900473ffffffffffffffffffffffffffffffffffffffff1673ffffffffffffffffffffffffffffffffffffffff1663580c2f546001878786815181106112be576112bd6149d0565b5b60200260200101516040518463ffffffff1660e01b81526004016112e493929190614c23565b6020604051808303816000875af1158015611303573d6000803e3d6000fd5b505050506040513d601f19601f820116820180604052508101906113279190614c86565b9080600181540180825580915050600190039060005260206000200160009091909190915055808061135890614a2e565b91505061124d565b50505050565b61136e6134cc565b80600d60006101000a81548173ffffffffffffffffffffffffffffffffffffffff021916908373ffffffffffffffffffffffffffffffffffffffff16021790555050565b6113ba6134cc565b6113c2613670565b565b600080600e60009054906101000a900473ffffffffffffffffffffffffffffffffffffffff1673ffffffffffffffffffffffffffffffffffffffff16638ad2e864846040518263ffffffff1660e01b81526004016114229190614310565b6040805180830381865afa15801561143e573d6000803e3d6000fd5b505050506040513d601f19601f820116820180604052508101906114629190614cc8565b91509150915091565b60008060009054906101000a900473ffffffffffffffffffffffffffffffffffffffff16905090565b61149c6134cc565b60005b815181101561163c576000806114cf858585815181106114c2576114c16149d0565b5b60200260200101516110e5565b9150915060ff8260ff16146116275781600560008686815181106114f6576114f56149d0565b5b602002602001015163ffffffff1663ffffffff16815260200190815260200160002060006003811061152b5761152a6149d0565b5b602091828204019190066101000a81548160ff021916908360ff1602179055508060056000868681518110611563576115626149d0565b5b602002602001015163ffffffff1663ffffffff168152602001908152602001600020600160038110611598576115976149d0565b5b602091828204019190066101000a81548160ff021916908360ff1602179055506001600560008686815181106115d1576115d06149d0565b5b602002602001015163ffffffff1663ffffffff168152602001908152602001600020600260038110611606576116056149d0565b5b602091828204019190066101000a81548160ff021916908360ff1602179055505b5050808061163490614a2e565b91505061149f565b505050565b6000600c60009054906101000a900473ffffffffffffffffffffffffffffffffffffffff1673ffffffffffffffffffffffffffffffffffffffff166370a08231336040518263ffffffff1660e01b815260040161169e9190614310565b602060405180830381865afa1580156116bb573d6000803e3d6000fd5b505050506040513d601f19601f820116820180604052508101906116df9190614d08565b1161171f576040517f08c379a000000000000000000000000000000000000000000000000000000000815260040161171690614da7565b60405180910390fd5b60016000600a548152602001908152602001600020600101544210611779576040517f08c379a000000000000000000000000000000000000000000000000000000000815260040161177090614e13565b60405180910390fd5b611784600a546108ed565b8151146117c6576040517f08c379a00000000000000000000000000000000000000000000000000000000081526004016117bd90614ea5565b60405180910390fd5b60006117d3600a546108ed565b90506000600c60009054906101000a900473ffffffffffffffffffffffffffffffffffffffff1673ffffffffffffffffffffffffffffffffffffffff166370a08231336040518263ffffffff1660e01b81526004016118329190614310565b602060405180830381865afa15801561184f573d6000803e3d6000fd5b505050506040513d601f19601f820116820180604052508101906118739190614d08565b905060005b8281101561197957604051806040016040528085838151811061189e5761189d6149d0565b5b60200260200101516020015160ff1660ff1681526020018583815181106118c8576118c76149d0565b5b60200260200101516040015160ff1660ff16815250600460003373ffffffffffffffffffffffffffffffffffffffff1673ffffffffffffffffffffffffffffffffffffffff1681526020019081526020016000206000868481518110611931576119306149d0565b5b60200260200101516000015163ffffffff1663ffffffff1681526020019081526020016000209060026119659291906138b9565b50808061197190614a2e565b915050611878565b50600080600090505b60026000600a54815260200190815260200160002080549050811015611a825760026000600a54815260200190815260200160002081815481106119c9576119c86149d0565b5b906000526020600020906002020160000160009054906101000a900473ffffffffffffffffffffffffffffffffffffffff1673ffffffffffffffffffffffffffffffffffffffff163373ffffffffffffffffffffffffffffffffffffffff1603611a6f578260026000600a5481526020019081526020016000208281548110611a5557611a546149d0565b5b906000526020600020906002020160010181905550600191505b8080611a7a90614a2e565b915050611982565b506000151581151503611bb75760026000600a54815260200190815260200160002060405180604001604052803373ffffffffffffffffffffffffffffffffffffffff16815260200184815250908060018154018082558091505060019003906000526020600020906002020160009091909190915060008201518160000160006101000a81548173ffffffffffffffffffffffffffffffffffffffff021916908373ffffffffffffffffffffffffffffffffffffffff160217905550602082015181600101555050600160096000600a54815260200190815260200160002060003373ffffffffffffffffffffffffffffffffffffffff1673ffffffffffffffffffffffffffffffffffffffff16815260200190815260200160002060006101000a81548160ff0219169083151502179055505b50505050565b6000600e60009054906101000a900473ffffffffffffffffffffffffffffffffffffffff1673ffffffffffffffffffffffffffffffffffffffff1663b4ace1586040518163ffffffff1660e01b8152600401602060405180830381865afa158015611c2c573d6000803e3d6000fd5b505050506040513d601f19601f82011682018060405250810190611c509190614d08565b905090565b600e60009054906101000a900473ffffffffffffffffffffffffffffffffffffffff1673ffffffffffffffffffffffffffffffffffffffff1663016fc9d782336040518363ffffffff1660e01b8152600401611cb2929190614b19565b600060405180830381600087803b158015611ccc57600080fd5b505af1158015611ce0573d6000803e3d6000fd5b5050505050565b606060008060008080600080600e60009054906101000a900473ffffffffffffffffffffffffffffffffffffffff1673ffffffffffffffffffffffffffffffffffffffff1663b4ace1586040518163ffffffff1660e01b8152600401602060405180830381865afa158015611d60573d6000803e3d6000fd5b505050506040513d601f19601f82011682018060405250810190611d849190614d08565b90506000600360008c815260200190815260200160002054905060008167ffffffffffffffff811115611dba57611db9613f00565b5b604051908082528060200260200182016040528015611df357816020015b611de0613953565b815260200190600190039081611dd85790505b50905060008267ffffffffffffffff811115611e1257611e11613f00565b5b604051908082528060200260200182016040528015611e4b57816020015b611e38613882565b815260200190600190039081611e305790505b50905060008367ffffffffffffffff811115611e6a57611e69613f00565b5b604051908082528060200260200182016040528015611ea357816020015b611e90613983565b815260200190600190039081611e885790505b50905060005b8d51811015611f675760008e8281518110611ec757611ec66149d0565b5b6020026020010151905060005b8160200151811015611f52576040518060400160405280836000015173ffffffffffffffffffffffffffffffffffffffff1681526020018360400151815250868a81518110611f2657611f256149d0565b5b60200260200101819052508880611f3c90614a2e565b9950508080611f4a90614a2e565b915050611ed4565b50508080611f5f90614a2e565b915050611ea9565b5060005b848110156120935760019b5060005b85811015611ff457848181518110611f9557611f946149d0565b5b602002602001015160200151858381518110611fb457611fb36149d0565b5b6020026020010151602001511015611fe1578c80611fd190614a2e565b9d50508b8d1115611fe0578c9b505b5b8080611fec90614a2e565b915050611f7a565b506040518060600160405280858381518110612013576120126149d0565b5b60200260200101516000015173ffffffffffffffffffffffffffffffffffffffff16815260200185838151811061204d5761204c6149d0565b5b60200260200101516020015181526020018d815250838281518110612075576120746149d0565b5b6020026020010181905250808061208b90614a2e565b915050611f6b565b50600095506000600190505b8a81116121d15760005b858110156121bd57818482815181106120c5576120c46149d0565b5b602002602001015160400151036121aa576040518060e001604052808583815181106120f4576120f36149d0565b5b60200260200101516000015173ffffffffffffffffffffffffffffffffffffffff16815260200185838151811061212e5761212d6149d0565b5b6020026020010151602001518152602001858381518110612152576121516149d0565b5b602002602001015160400151815260200160008152602001600081526020016000815260200160008152508389815181106121905761218f6149d0565b5b602002602001018190525087806121a690614a2e565b9850505b80806121b590614a2e565b9150506120a9565b5080806121c990614a2e565b91505061209f565b506064600b548a876121e39190614ec5565b6121ed9190614ef9565b6121f79190614f82565b965086896122059190614fb3565b9850868160008151811061221c5761221b6149d0565b5b602002602001015160600181815250508681600081518110612241576122406149d0565b5b602002602001015160800181815250508681600081518110612266576122656149d0565b5b602002602001015160a0018181525050868160008151811061228b5761228a6149d0565b5b602002602001015160c00181815250506000600190505b848110156126d3576064600b548b886122bb9190614ec5565b6122c59190614ef9565b6122cf9190614f82565b9750878282815181106122e5576122e46149d0565b5b60200260200101516060018181525050878a6123019190614fb3565b995089828281518110612317576123166149d0565b5b602002602001015160800181815250506001856123349190614ec5565b811461251a57816001826123489190614ec5565b81518110612359576123586149d0565b5b602002602001015160400151828281518110612378576123776149d0565b5b602002602001015160400151036123e75787826001836123989190614ec5565b815181106123a9576123a86149d0565b5b602002602001015160a001516123bf9190614fb3565b8282815181106123d2576123d16149d0565b5b602002602001015160a0018181525050612515565b878282815181106123fb576123fa6149d0565b5b602002602001015160a00181815250508782828151811061241f5761241e6149d0565b5b602002602001015160c00181815250508160018261243d9190614ec5565b8151811061244e5761244d6149d0565b5b60200260200101516040015182828151811061246d5761246c6149d0565b5b6020026020010151604001516124839190614ec5565b985060005b8981101561251357898360018461249f9190614ec5565b815181106124b0576124af6149d0565b5b602002602001015160a001516124c69190614f82565b836001836124d49190614fb3565b846124df9190614ec5565b815181106124f0576124ef6149d0565b5b602002602001015160c0018181525050808061250b90614a2e565b915050612488565b505b6126c0565b816001826125289190614ec5565b81518110612539576125386149d0565b5b602002602001015160400151828281518110612558576125576149d0565b5b602002602001015160400151036126765787826001836125789190614ec5565b81518110612589576125886149d0565b5b602002602001015160a0015161259f9190614fb3565b8282815181106125b2576125b16149d0565b5b602002602001015160a00181815250508181815181106125d5576125d46149d0565b5b6020026020010151604001516001866125ee9190614fb3565b6125f89190614ec5565b985060005b898110156126705789838381518110612619576126186149d0565b5b602002602001015160a0015161262f9190614f82565b83828461263c9190614ec5565b8151811061264d5761264c6149d0565b5b602002602001015160c0018181525050808061266890614a2e565b9150506125fd565b506126bf565b8782828151811061268a576126896149d0565b5b602002602001015160a0018181525050878282815181106126ae576126ad6149d0565b5b602002602001015160c00181815250505b5b80806126cb90614a2e565b9150506122a2565b50809b50505050505050505050505092915050565b6000806000600460008673ffffffffffffffffffffffffffffffffffffffff1673ffffffffffffffffffffffffffffffffffffffff16815260200190815260200160002060008563ffffffff1663ffffffff1681526020019081526020016000206002806020026040519081016040528092919082600280156127a6576020028201916000905b82829054906101000a900460ff1660ff168152602001906001019060208260000104928301926001038202915080841161276f5790505b50505050509050806000600281106127c1576127c06149d0565b5b6020020151816001600281106127da576127d96149d0565b5b602002015192509250509250929050565b600060096000600a54815260200190815260200160002060008373ffffffffffffffffffffffffffffffffffffffff1673ffffffffffffffffffffffffffffffffffffffff16815260200190815260200160002060009054906101000a900460ff169050919050565b61285c6134cc565b600c60009054906101000a900473ffffffffffffffffffffffffffffffffffffffff1673ffffffffffffffffffffffffffffffffffffffff166318160ddd6040518163ffffffff1660e01b8152600401602060405180830381865afa1580156128c9573d6000803e3d6000fd5b505050506040513d601f19601f820116820180604052508101906128ed9190614d08565b6003600083815260200190815260200160002081905550600061290f826109fd565b9050600061291d8383611ce7565b90506000600860008581526020019081526020016000206040518060a0016040528084600081518110612953576129526149d0565b5b60200260200101516000015173ffffffffffffffffffffffffffffffffffffffff1681526020016001815260200184600081518110612995576129946149d0565b5b6020026020010151602001518152602001846000815181106129ba576129b96149d0565b5b6020026020010151604001518152602001846000815181106129df576129de6149d0565b5b602002602001015160c00151815250908060018154018082558091505060019003906000526020600020906005020160009091909190915060008201518160000160006101000a81548173ffffffffffffffffffffffffffffffffffffffff021916908373ffffffffffffffffffffffffffffffffffffffff1602179055506020820151816001015560408201518160020155606082015181600301556080820151816004015550506000600190505b6003600086815260200190815260200160002054811015612d665782600182612ab89190614ec5565b81518110612ac957612ac86149d0565b5b60200260200101516000015173ffffffffffffffffffffffffffffffffffffffff16838281518110612afe57612afd6149d0565b5b60200260200101516000015173ffffffffffffffffffffffffffffffffffffffff1603612be157600860008681526020019081526020016000208281548110612b4a57612b496149d0565b5b90600052602060002090600502016001016000815480929190612b6c90614a2e565b9190505550828181518110612b8457612b836149d0565b5b602002602001015160c00151600860008781526020019081526020016000208381548110612bb557612bb46149d0565b5b90600052602060002090600502016004016000828254612bd59190614fb3565b92505081905550612d53565b600860008681526020019081526020016000206040518060a00160405280858481518110612c1257612c116149d0565b5b60200260200101516000015173ffffffffffffffffffffffffffffffffffffffff16815260200160018152602001858481518110612c5357612c526149d0565b5b6020026020010151602001518152602001858481518110612c7757612c766149d0565b5b6020026020010151604001518152602001858481518110612c9b57612c9a6149d0565b5b602002602001015160c00151815250908060018154018082558091505060019003906000526020600020906005020160009091909190915060008201518160000160006101000a81548173ffffffffffffffffffffffffffffffffffffffff021916908373ffffffffffffffffffffffffffffffffffffffff1602179055506020820151816001015560408201518160020155606082015181600301556080820151816004015550508180612d4f90614a2e565b9250505b8080612d5e90614a2e565b915050612a8f565b5060005b6008600086815260200190815260200160002080549050811015612ebc576000600860008781526020019081526020016000208281548110612daf57612dae6149d0565b5b906000526020600020906005020160000160009054906101000a900473ffffffffffffffffffffffffffffffffffffffff169050600e60009054906101000a900473ffffffffffffffffffffffffffffffffffffffff1673ffffffffffffffffffffffffffffffffffffffff166371dd884082600860008a81526020019081526020016000208581548110612e4757612e466149d0565b5b9060005260206000209060050201600401546040518363ffffffff1660e01b8152600401612e76929190615009565b600060405180830381600087803b158015612e9057600080fd5b505af1158015612ea4573d6000803e3d6000fd5b50505050508080612eb490614a2e565b915050612d6a565b5050505050565b612ecb6134cc565b6000603090506000600c60009054906101000a900473ffffffffffffffffffffffffffffffffffffffff1673ffffffffffffffffffffffffffffffffffffffff166370a08231856040518263ffffffff1660e01b8152600401612f2e9190614310565b602060405180830381865afa158015612f4b573d6000803e3d6000fd5b505050506040513d601f19601f82011682018060405250810190612f6f9190614d08565b905060005b82811015613075576040518060400160405280858381518110612f9a57612f996149d0565b5b60200260200101516020015160ff1660ff168152602001858381518110612fc457612fc36149d0565b5b60200260200101516040015160ff1660ff16815250600460008773ffffffffffffffffffffffffffffffffffffffff1673ffffffffffffffffffffffffffffffffffffffff168152602001908152602001600020600086848151811061302d5761302c6149d0565b5b60200260200101516000015163ffffffff1663ffffffff1681526020019081526020016000209060026130619291906138b9565b50808061306d90614a2e565b915050612f74565b5060026000600a54815260200190815260200160002060405180604001604052808673ffffffffffffffffffffffffffffffffffffffff16815260200183815250908060018154018082558091505060019003906000526020600020906002020160009091909190915060008201518160000160006101000a81548173ffffffffffffffffffffffffffffffffffffffff021916908373ffffffffffffffffffffffffffffffffffffffff160217905550602082015181600101555050600160096000600a54815260200190815260200160002060008673ffffffffffffffffffffffffffffffffffffffff1673ffffffffffffffffffffffffffffffffffffffff16815260200190815260200160002060006101000a81548160ff02191690831515021790555050505050565b60606007600083815260200190815260200160002080548060200260200160405190810160405280929190818152602001828054801561320257602002820191906000526020600020905b8154815260200190600101908083116131ee575b50505050509050919050565b6132166134cc565b600073ffffffffffffffffffffffffffffffffffffffff168173ffffffffffffffffffffffffffffffffffffffff1603613285576040517f08c379a000000000000000000000000000000000000000000000000000000000815260040161327c906150a4565b60405180910390fd5b61328e816135ac565b50565b6000808260ff168460ff1611156132ab57600090506132c8565b8360ff168360ff1611156132c257600290506132c7565b600190505b5b8091505092915050565b6000600a54905090565b600080600080600090506000806132f2886108ed565b905060005b818110156134bd57600660008a81526020019081526020016000208181548110613324576133236149d0565b5b90600052602060002090600891828204019190066004029054906101000a900463ffffffff1692506001600560008563ffffffff1663ffffffff1681526020019081526020016000206002600381106133805761337f6149d0565b5b602091828204019190069054906101000a900460ff1660ff16036134aa576000600560008563ffffffff1663ffffffff1681526020019081526020016000206000600381106133d2576133d16149d0565b5b602091828204019190069054906101000a900460ff1690506000600560008663ffffffff1663ffffffff16815260200190815260200160002060016003811061341e5761341d6149d0565b5b602091828204019190069054906101000a900460ff1690506000806134438c886126e8565b915091506134518282613291565b995061345d8484613291565b9850888a036134a5576001886134739190614fb3565b97508360ff168260ff1614801561348f57508260ff168160ff16145b156134a4576002886134a19190614fb3565b97505b5b505050505b80806134b590614a2e565b9150506132f7565b50829550505050505092915050565b6134d46136d3565b73ffffffffffffffffffffffffffffffffffffffff166134f261146b565b73ffffffffffffffffffffffffffffffffffffffff1614613548576040517f08c379a000000000000000000000000000000000000000000000000000000000815260040161353f90615110565b60405180910390fd5b565b6135526136db565b60008060146101000a81548160ff0219169083151502179055507f5db9ee0a495bf2e6ff9c91a7834c1ba4fdd244a5e8aa4e537bd38aeae4b073aa6135956136d3565b6040516135a29190614310565b60405180910390a1565b60008060009054906101000a900473ffffffffffffffffffffffffffffffffffffffff169050816000806101000a81548173ffffffffffffffffffffffffffffffffffffffff021916908373ffffffffffffffffffffffffffffffffffffffff1602179055508173ffffffffffffffffffffffffffffffffffffffff168173ffffffffffffffffffffffffffffffffffffffff167f8be0079c531659141344cd1fd0a4f28419497f9722a3daafe3b4186f6b6457e060405160405180910390a35050565b613678613724565b6001600060146101000a81548160ff0219169083151502179055507f62e78cea01bee320cd4e420270b5ea74000d11b0c9f74754ebdbfc544b05a2586136bc6136d3565b6040516136c99190614310565b60405180910390a1565b600033905090565b6136e36110af565b613722576040517f08c379a00000000000000000000000000000000000000000000000000000000081526004016137199061517c565b60405180910390fd5b565b61372c6110af565b1561376c576040517f08c379a0000000000000000000000000000000000000000000000000000000008152600401613763906151e8565b60405180910390fd5b565b6040518060600160405280600063ffffffff168152602001600060ff168152602001600060ff1681525090565b6040518060600160405280600073ffffffffffffffffffffffffffffffffffffffff16815260200160008152602001600081525090565b828054828255906000526020600020906007016008900481019282156138715791602002820160005b8382111561383f57835183826101000a81548163ffffffff021916908363ffffffff16021790555092602001926004016020816003010492830192600103026137fb565b801561386f5782816101000a81549063ffffffff021916905560040160208160030104928301926001030261383f565b505b50905061387e91906139d6565b5090565b6040518060600160405280600073ffffffffffffffffffffffffffffffffffffffff16815260200160008152602001600081525090565b826002601f016020900481019282156139425791602002820160005b8382111561391357835183826101000a81548160ff021916908360ff16021790555092602001926001016020816000010492830192600103026138d5565b80156139405782816101000a81549060ff0219169055600101602081600001049283019260010302613913565b505b50905061394f91906139d6565b5090565b6040518060400160405280600073ffffffffffffffffffffffffffffffffffffffff168152602001600081525090565b6040518060e00160405280600073ffffffffffffffffffffffffffffffffffffffff1681526020016000815260200160008152602001600081526020016000815260200160008152602001600081525090565b5b808211156139ef5760008160009055506001016139d7565b5090565b6000819050919050565b613a06816139f3565b82525050565b6000602082019050613a2160008301846139fd565b92915050565b6000604051905090565b600080fd5b600080fd5b613a44816139f3565b8114613a4f57600080fd5b50565b600081359050613a6181613a3b565b92915050565b600073ffffffffffffffffffffffffffffffffffffffff82169050919050565b6000613a9282613a67565b9050919050565b613aa281613a87565b8114613aad57600080fd5b50565b600081359050613abf81613a99565b92915050565b60008060408385031215613adc57613adb613a31565b5b6000613aea85828601613a52565b9250506020613afb85828601613ab0565b9150509250929050565b600081519050919050565b600082825260208201905092915050565b6000819050602082019050919050565b600063ffffffff82169050919050565b613b4a81613b31565b82525050565b600060ff82169050919050565b613b6681613b50565b82525050565b606082016000820151613b826000850182613b41565b506020820151613b956020850182613b5d565b506040820151613ba86040850182613b5d565b50505050565b6000613bba8383613b6c565b60608301905092915050565b6000602082019050919050565b6000613bde82613b05565b613be88185613b10565b9350613bf383613b21565b8060005b83811015613c24578151613c0b8882613bae565b9750613c1683613bc6565b925050600181019050613bf7565b5085935050505092915050565b60006020820190508181036000830152613c4b8184613bd3565b905092915050565b600060208284031215613c6957613c68613a31565b5b6000613c7784828501613a52565b91505092915050565b600081519050919050565b600082825260208201905092915050565b6000819050602082019050919050565b613cb581613a87565b82525050565b613cc4816139f3565b82525050565b60a082016000820151613ce06000850182613cac565b506020820151613cf36020850182613cbb565b506040820151613d066040850182613cbb565b506060820151613d196060850182613cbb565b506080820151613d2c6080850182613cbb565b50505050565b6000613d3e8383613cca565b60a08301905092915050565b6000602082019050919050565b6000613d6282613c80565b613d6c8185613c8b565b9350613d7783613c9c565b8060005b83811015613da8578151613d8f8882613d32565b9750613d9a83613d4a565b925050600181019050613d7b565b5085935050505092915050565b60006020820190508181036000830152613dcf8184613d57565b905092915050565b600081519050919050565b600082825260208201905092915050565b6000819050602082019050919050565b606082016000820151613e196000850182613cac565b506020820151613e2c6020850182613cbb565b506040820151613e3f6040850182613cbb565b50505050565b6000613e518383613e03565b60608301905092915050565b6000602082019050919050565b6000613e7582613dd7565b613e7f8185613de2565b9350613e8a83613df3565b8060005b83811015613ebb578151613ea28882613e45565b9750613ead83613e5d565b925050600181019050613e8e565b5085935050505092915050565b60006020820190508181036000830152613ee28184613e6a565b905092915050565b600080fd5b6000601f19601f8301169050919050565b7f4e487b7100000000000000000000000000000000000000000000000000000000600052604160045260246000fd5b613f3882613eef565b810181811067ffffffffffffffff82111715613f5757613f56613f00565b5b80604052505050565b6000613f6a613a27565b9050613f768282613f2f565b919050565b600067ffffffffffffffff821115613f9657613f95613f00565b5b602082029050602081019050919050565b600080fd5b613fb581613b31565b8114613fc057600080fd5b50565b600081359050613fd281613fac565b92915050565b6000613feb613fe684613f7b565b613f60565b9050808382526020820190506020840283018581111561400e5761400d613fa7565b5b835b8181101561403757806140238882613fc3565b845260208401935050602081019050614010565b5050509392505050565b600082601f83011261405657614055613eea565b5b8135614066848260208601613fd8565b91505092915050565b60008060006060848603121561408857614087613a31565b5b600061409686828701613a52565b93505060206140a786828701613a52565b925050604084013567ffffffffffffffff8111156140c8576140c7613a36565b5b6140d486828701614041565b9150509250925092565b6000602082840312156140f4576140f3613a31565b5b600061410284828501613ab0565b91505092915050565b60008115159050919050565b6141208161410b565b82525050565b600060208201905061413b6000830184614117565b92915050565b6000806040838503121561415857614157613a31565b5b600061416685828601613a52565b925050602061417785828601613fc3565b9150509250929050565b61418a81613b50565b82525050565b60006040820190506141a56000830185614181565b6141b26020830184614181565b9392505050565b600067ffffffffffffffff8211156141d4576141d3613f00565b5b602082029050602081019050919050565b60006141f86141f3846141b9565b613f60565b9050808382526020820190506020840283018581111561421b5761421a613fa7565b5b835b8181101561424457806142308882613a52565b84526020840193505060208101905061421d565b5050509392505050565b600082601f83011261426357614262613eea565b5b81356142738482602086016141e5565b91505092915050565b6000806040838503121561429357614292613a31565b5b60006142a185828601613a52565b925050602083013567ffffffffffffffff8111156142c2576142c1613a36565b5b6142ce8582860161424e565b9150509250929050565b60006040820190506142ed60008301856139fd565b6142fa60208301846139fd565b9392505050565b61430a81613a87565b82525050565b60006020820190506143256000830184614301565b92915050565b6000806040838503121561434257614341613a31565b5b600061435085828601613a52565b925050602083013567ffffffffffffffff81111561437157614370613a36565b5b61437d85828601614041565b9150509250929050565b600067ffffffffffffffff8211156143a2576143a1613f00565b5b602082029050602081019050919050565b600080fd5b6143c181613b50565b81146143cc57600080fd5b50565b6000813590506143de816143b8565b92915050565b6000606082840312156143fa576143f96143b3565b5b6144046060613f60565b9050600061441484828501613fc3565b6000830152506020614428848285016143cf565b602083015250604061443c848285016143cf565b60408301525092915050565b600061445b61445684614387565b613f60565b9050808382526020820190506060840283018581111561447e5761447d613fa7565b5b835b818110156144a7578061449388826143e4565b845260208401935050606081019050614480565b5050509392505050565b600082601f8301126144c6576144c5613eea565b5b81356144d6848260208601614448565b91505092915050565b6000602082840312156144f5576144f4613a31565b5b600082013567ffffffffffffffff81111561451357614512613a36565b5b61451f848285016144b1565b91505092915050565b600067ffffffffffffffff82111561454357614542613f00565b5b602082029050602081019050919050565b60006060828403121561456a576145696143b3565b5b6145746060613f60565b9050600061458484828501613ab0565b600083015250602061459884828501613a52565b60208301525060406145ac84828501613a52565b60408301525092915050565b60006145cb6145c684614528565b613f60565b905080838252602082019050606084028301858111156145ee576145ed613fa7565b5b835b8181101561461757806146038882614554565b8452602084019350506060810190506145f0565b5050509392505050565b600082601f83011261463657614635613eea565b5b81356146468482602086016145b8565b91505092915050565b6000806040838503121561466657614665613a31565b5b600061467485828601613a52565b925050602083013567ffffffffffffffff81111561469557614694613a36565b5b6146a185828601614621565b9150509250929050565b600081519050919050565b600082825260208201905092915050565b6000819050602082019050919050565b60e0820160008201516146ed6000850182613cac565b5060208201516147006020850182613cbb565b5060408201516147136040850182613cbb565b5060608201516147266060850182613cbb565b5060808201516147396080850182613cbb565b5060a082015161474c60a0850182613cbb565b5060c082015161475f60c0850182613cbb565b50505050565b600061477183836146d7565b60e08301905092915050565b6000602082019050919050565b6000614795826146ab565b61479f81856146b6565b93506147aa836146c7565b8060005b838110156147db5781516147c28882614765565b97506147cd8361477d565b9250506001810190506147ae565b5085935050505092915050565b60006020820190508181036000830152614802818461478a565b905092915050565b6000806040838503121561482157614820613a31565b5b600061482f85828601613ab0565b925050602061484085828601613fc3565b9150509250929050565b6000806040838503121561486157614860613a31565b5b600061486f85828601613ab0565b925050602083013567ffffffffffffffff8111156148905761488f613a36565b5b61489c858286016144b1565b9150509250929050565b600081519050919050565b600082825260208201905092915050565b6000819050602082019050919050565b6000819050919050565b6148e5816148d2565b82525050565b60006148f783836148dc565b60208301905092915050565b6000602082019050919050565b600061491b826148a6565b61492581856148b1565b9350614930836148c2565b8060005b8381101561496157815161494888826148eb565b975061495383614903565b925050600181019050614934565b5085935050505092915050565b600060208201905081810360008301526149888184614910565b905092915050565b600080604083850312156149a7576149a6613a31565b5b60006149b5858286016143cf565b92505060206149c6858286016143cf565b9150509250929050565b7f4e487b7100000000000000000000000000000000000000000000000000000000600052603260045260246000fd5b7f4e487b7100000000000000000000000000000000000000000000000000000000600052601160045260246000fd5b6000614a39826139f3565b91507fffffffffffffffffffffffffffffffffffffffffffffffffffffffffffffffff8203614a6b57614a6a6149ff565b5b600182019050919050565b600082825260208201905092915050565b7f596f752063616e6e6f7420776974686472617720756e74696c2074686520656e60008201527f64206f662074686520636f6e7465737421000000000000000000000000000000602082015250565b6000614ae3603183614a76565b9150614aee82614a87565b604082019050919050565b60006020820190508181036000830152614b1281614ad6565b9050919050565b6000604082019050614b2e60008301856139fd565b614b3b6020830184614301565b9392505050565b614b4b816148d2565b82525050565b614b5a81613b31565b82525050565b6000604082019050614b756000830185614b42565b614b826020830184614b51565b9392505050565b600081519050614b98816143b8565b92915050565b60008060408385031215614bb557614bb4613a31565b5b6000614bc385828601614b89565b9250506020614bd485828601614b89565b9150509250929050565b6000819050919050565b6000819050919050565b6000614c0d614c08614c0384614bde565b614be8565b6139f3565b9050919050565b614c1d81614bf2565b82525050565b6000606082019050614c386000830186614c14565b614c4560208301856139fd565b614c5260408301846139fd565b949350505050565b614c63816148d2565b8114614c6e57600080fd5b50565b600081519050614c8081614c5a565b92915050565b600060208284031215614c9c57614c9b613a31565b5b6000614caa84828501614c71565b91505092915050565b600081519050614cc281613a3b565b92915050565b60008060408385031215614cdf57614cde613a31565b5b6000614ced85828601614cb3565b9250506020614cfe85828601614cb3565b9150509250929050565b600060208284031215614d1e57614d1d613a31565b5b6000614d2c84828501614cb3565b91505092915050565b7f596f75206e6565642061207469636b657420666f7220736176696e672070726560008201527f64696374696f6e73210000000000000000000000000000000000000000000000602082015250565b6000614d91602983614a76565b9150614d9c82614d35565b604082019050919050565b60006020820190508181036000830152614dc081614d84565b9050919050565b7f50726564696374696f6e20506572696f6420697320636c6f7365642100000000600082015250565b6000614dfd601c83614a76565b9150614e0882614dc7565b602082019050919050565b60006020820190508181036000830152614e2c81614df0565b9050919050565b7f546865206e756d626572206f662070726564696374696f6e7320646f65736e2760008201527f74206d6174636821000000000000000000000000000000000000000000000000602082015250565b6000614e8f602883614a76565b9150614e9a82614e33565b604082019050919050565b60006020820190508181036000830152614ebe81614e82565b9050919050565b6000614ed0826139f3565b9150614edb836139f3565b925082821015614eee57614eed6149ff565b5b828203905092915050565b6000614f04826139f3565b9150614f0f836139f3565b9250817fffffffffffffffffffffffffffffffffffffffffffffffffffffffffffffffff0483118215151615614f4857614f476149ff565b5b828202905092915050565b7f4e487b7100000000000000000000000000000000000000000000000000000000600052601260045260246000fd5b6000614f8d826139f3565b9150614f98836139f3565b925082614fa857614fa7614f53565b5b828204905092915050565b6000614fbe826139f3565b9150614fc9836139f3565b9250827fffffffffffffffffffffffffffffffffffffffffffffffffffffffffffffffff03821115614ffe57614ffd6149ff565b5b828201905092915050565b600060408201905061501e6000830185614301565b61502b60208301846139fd565b9392505050565b7f4f776e61626c653a206e6577206f776e657220697320746865207a65726f206160008201527f6464726573730000000000000000000000000000000000000000000000000000602082015250565b600061508e602683614a76565b915061509982615032565b604082019050919050565b600060208201905081810360008301526150bd81615081565b9050919050565b7f4f776e61626c653a2063616c6c6572206973206e6f7420746865206f776e6572600082015250565b60006150fa602083614a76565b9150615105826150c4565b602082019050919050565b60006020820190508181036000830152615129816150ed565b9050919050565b7f5061757361626c653a206e6f7420706175736564000000000000000000000000600082015250565b6000615166601483614a76565b915061517182615130565b602082019050919050565b6000602082019050818103600083015261519581615159565b9050919050565b7f5061757361626c653a2070617573656400000000000000000000000000000000600082015250565b60006151d2601083614a76565b91506151dd8261519c565b602082019050919050565b60006020820190508181036000830152615201816151c5565b905091905056fea264697066735822122080a278c9b85a523efbfce0c53031a271758b8a2d2fb22db6a1a25d2118e6e41b64736f6c634300080f0033","opcodes":"PUSH1 0x80 PUSH1 0x40 MSTORE CALLVALUE DUP1 ISZERO PUSH3 0x11 JUMPI PUSH1 0x0 DUP1 REVERT JUMPDEST POP PUSH3 0x32 PUSH3 0x26 PUSH3 0x101 PUSH1 0x20 SHL PUSH1 0x20 SHR JUMP JUMPDEST PUSH3 0x109 PUSH1 0x20 SHL PUSH1 0x20 SHR JUMP JUMPDEST PUSH1 0x0 DUP1 PUSH1 0x14 PUSH2 0x100 EXP DUP2 SLOAD DUP2 PUSH1 0xFF MUL NOT AND SWAP1 DUP4 ISZERO ISZERO MUL OR SWAP1 SSTORE POP PUSH20 0xD81E4A61FD6BF066539DF6EA48BFAEAE847DCDA1 PUSH1 0xC PUSH1 0x0 PUSH2 0x100 EXP DUP2 SLOAD DUP2 PUSH20 0xFFFFFFFFFFFFFFFFFFFFFFFFFFFFFFFFFFFFFFFF MUL NOT AND SWAP1 DUP4 PUSH20 0xFFFFFFFFFFFFFFFFFFFFFFFFFFFFFFFFFFFFFFFF AND MUL OR SWAP1 SSTORE POP PUSH3 0xC6 PUSH20 0x376D4A2CB540E01A7E233C9B721C04087511EF3A PUSH3 0x1CD PUSH1 0x20 SHL PUSH1 0x20 SHR JUMP JUMPDEST PUSH3 0xEB PUSH20 0x80A9C7C5F5BFD765A2DC3773DFF00D02DB8B34AE PUSH3 0x221 PUSH1 0x20 SHL PUSH1 0x20 SHR JUMP JUMPDEST PUSH1 0x5 PUSH1 0xB DUP2 SWAP1 SSTORE POP PUSH1 0x0 PUSH1 0xA DUP2 SWAP1 SSTORE POP PUSH3 0x3B2 JUMP JUMPDEST PUSH1 0x0 CALLER SWAP1 POP SWAP1 JUMP JUMPDEST PUSH1 0x0 DUP1 PUSH1 0x0 SWAP1 SLOAD SWAP1 PUSH2 0x100 EXP SWAP1 DIV PUSH20 0xFFFFFFFFFFFFFFFFFFFFFFFFFFFFFFFFFFFFFFFF AND SWAP1 POP DUP2 PUSH1 0x0 DUP1 PUSH2 0x100 EXP DUP2 SLOAD DUP2 PUSH20 0xFFFFFFFFFFFFFFFFFFFFFFFFFFFFFFFFFFFFFFFF MUL NOT AND SWAP1 DUP4 PUSH20 0xFFFFFFFFFFFFFFFFFFFFFFFFFFFFFFFFFFFFFFFF AND MUL OR SWAP1 SSTORE POP DUP2 PUSH20 0xFFFFFFFFFFFFFFFFFFFFFFFFFFFFFFFFFFFFFFFF AND DUP2 PUSH20 0xFFFFFFFFFFFFFFFFFFFFFFFFFFFFFFFFFFFFFFFF AND PUSH32 0x8BE0079C531659141344CD1FD0A4F28419497F9722A3DAAFE3B4186F6B6457E0 PUSH1 0x40 MLOAD PUSH1 0x40 MLOAD DUP1 SWAP2 SUB SWAP1 LOG3 POP POP JUMP JUMPDEST PUSH3 0x1DD PUSH3 0x275 PUSH1 0x20 SHL PUSH1 0x20 SHR JUMP JUMPDEST DUP1 PUSH1 0xD PUSH1 0x0 PUSH2 0x100 EXP DUP2 SLOAD DUP2 PUSH20 0xFFFFFFFFFFFFFFFFFFFFFFFFFFFFFFFFFFFFFFFF MUL NOT AND SWAP1 DUP4 PUSH20 0xFFFFFFFFFFFFFFFFFFFFFFFFFFFFFFFFFFFFFFFF AND MUL OR SWAP1 SSTORE POP POP JUMP JUMPDEST PUSH3 0x231 PUSH3 0x275 PUSH1 0x20 SHL PUSH1 0x20 SHR JUMP JUMPDEST DUP1 PUSH1 0xE PUSH1 0x0 PUSH2 0x100 EXP DUP2 SLOAD DUP2 PUSH20 0xFFFFFFFFFFFFFFFFFFFFFFFFFFFFFFFFFFFFFFFF MUL NOT AND SWAP1 DUP4 PUSH20 0xFFFFFFFFFFFFFFFFFFFFFFFFFFFFFFFFFFFFFFFF AND MUL OR SWAP1 SSTORE POP POP JUMP JUMPDEST PUSH3 0x285 PUSH3 0x101 PUSH1 0x20 SHL PUSH1 0x20 SHR JUMP JUMPDEST PUSH20 0xFFFFFFFFFFFFFFFFFFFFFFFFFFFFFFFFFFFFFFFF AND PUSH3 0x2AB PUSH3 0x306 PUSH1 0x20 SHL PUSH1 0x20 SHR JUMP JUMPDEST PUSH20 0xFFFFFFFFFFFFFFFFFFFFFFFFFFFFFFFFFFFFFFFF AND EQ PUSH3 0x304 JUMPI PUSH1 0x40 MLOAD PUSH32 0x8C379A000000000000000000000000000000000000000000000000000000000 DUP2 MSTORE PUSH1 0x4 ADD PUSH3 0x2FB SWAP1 PUSH3 0x390 JUMP JUMPDEST PUSH1 0x40 MLOAD DUP1 SWAP2 SUB SWAP1 REVERT JUMPDEST JUMP JUMPDEST PUSH1 0x0 DUP1 PUSH1 0x0 SWAP1 SLOAD SWAP1 PUSH2 0x100 EXP SWAP1 DIV PUSH20 0xFFFFFFFFFFFFFFFFFFFFFFFFFFFFFFFFFFFFFFFF AND SWAP1 POP SWAP1 JUMP JUMPDEST PUSH1 0x0 DUP3 DUP3 MSTORE PUSH1 0x20 DUP3 ADD SWAP1 POP SWAP3 SWAP2 POP POP JUMP JUMPDEST PUSH32 0x4F776E61626C653A2063616C6C6572206973206E6F7420746865206F776E6572 PUSH1 0x0 DUP3 ADD MSTORE POP JUMP JUMPDEST PUSH1 0x0 PUSH3 0x378 PUSH1 0x20 DUP4 PUSH3 0x32F JUMP JUMPDEST SWAP2 POP PUSH3 0x385 DUP3 PUSH3 0x340 JUMP JUMPDEST PUSH1 0x20 DUP3 ADD SWAP1 POP SWAP2 SWAP1 POP JUMP JUMPDEST PUSH1 0x0 PUSH1 0x20 DUP3 ADD SWAP1 POP DUP2 DUP2 SUB PUSH1 0x0 DUP4 ADD MSTORE PUSH3 0x3AB DUP2 PUSH3 0x369 JUMP JUMPDEST SWAP1 POP SWAP2 SWAP1 POP JUMP JUMPDEST PUSH2 0x523E DUP1 PUSH3 0x3C2 PUSH1 0x0 CODECOPY PUSH1 0x0 RETURN INVALID PUSH1 0x80 PUSH1 0x40 MSTORE CALLVALUE DUP1 ISZERO PUSH2 0x10 JUMPI PUSH1 0x0 DUP1 REVERT JUMPDEST POP PUSH1 0x4 CALLDATASIZE LT PUSH2 0x206 JUMPI PUSH1 0x0 CALLDATALOAD PUSH1 0xE0 SHR DUP1 PUSH4 0x8456CB59 GT PUSH2 0x11A JUMPI DUP1 PUSH4 0xBD874A1D GT PUSH2 0xAD JUMPI DUP1 PUSH4 0xF0FAD4AA GT PUSH2 0x7C JUMPI DUP1 PUSH4 0xF0FAD4AA EQ PUSH2 0x5D6 JUMPI DUP1 PUSH4 0xF2FDE38B EQ PUSH2 0x606 JUMPI DUP1 PUSH4 0xF49A20BD EQ PUSH2 0x622 JUMPI DUP1 PUSH4 0xFB46BD22 EQ PUSH2 0x652 JUMPI DUP1 PUSH4 0xFEE90160 EQ PUSH2 0x670 JUMPI PUSH2 0x206 JUMP JUMPDEST DUP1 PUSH4 0xBD874A1D EQ PUSH2 0x53D JUMPI DUP1 PUSH4 0xD69D4077 EQ PUSH2 0x56E JUMPI DUP1 PUSH4 0xD97A55D6 EQ PUSH2 0x59E JUMPI DUP1 PUSH4 0xE3A5215D EQ PUSH2 0x5BA JUMPI PUSH2 0x206 JUMP JUMPDEST DUP1 PUSH4 0x9FA75E9A GT PUSH2 0xE9 JUMPI DUP1 PUSH4 0x9FA75E9A EQ PUSH2 0x4B7 JUMPI DUP1 PUSH4 0xB4ACE158 EQ PUSH2 0x4D3 JUMPI DUP1 PUSH4 0xB6B55F25 EQ PUSH2 0x4F1 JUMPI DUP1 PUSH4 0xBAF63783 EQ PUSH2 0x50D JUMPI PUSH2 0x206 JUMP JUMPDEST DUP1 PUSH4 0x8456CB59 EQ PUSH2 0x442 JUMPI DUP1 PUSH4 0x8AD2E864 EQ PUSH2 0x44C JUMPI DUP1 PUSH4 0x8DA5CB5B EQ PUSH2 0x47D JUMPI DUP1 PUSH4 0x942350C2 EQ PUSH2 0x49B JUMPI PUSH2 0x206 JUMP JUMPDEST DUP1 PUSH4 0x4E71D92D GT PUSH2 0x19D JUMPI DUP1 PUSH4 0x62436D9D GT PUSH2 0x16C JUMPI DUP1 PUSH4 0x62436D9D EQ PUSH2 0x39F JUMPI DUP1 PUSH4 0x6851E9A9 EQ PUSH2 0x3CF JUMPI DUP1 PUSH4 0x715018A6 EQ PUSH2 0x400 JUMPI DUP1 PUSH4 0x7158F610 EQ PUSH2 0x40A JUMPI DUP1 PUSH4 0x71CE137E EQ PUSH2 0x426 JUMPI PUSH2 0x206 JUMP JUMPDEST DUP1 PUSH4 0x4E71D92D EQ PUSH2 0x32B JUMPI DUP1 PUSH4 0x4FDA591E EQ PUSH2 0x335 JUMPI DUP1 PUSH4 0x59C3F3E0 EQ PUSH2 0x365 JUMPI DUP1 PUSH4 0x5C975ABB EQ PUSH2 0x381 JUMPI PUSH2 0x206 JUMP JUMPDEST DUP1 PUSH4 0x27CA8B98 GT PUSH2 0x1D9 JUMPI DUP1 PUSH4 0x27CA8B98 EQ PUSH2 0x2B9 JUMPI DUP1 PUSH4 0x2E1A7D4D EQ PUSH2 0x2E9 JUMPI DUP1 PUSH4 0x3F4BA83A EQ PUSH2 0x305 JUMPI DUP1 PUSH4 0x413DC26D EQ PUSH2 0x30F JUMPI PUSH2 0x206 JUMP JUMPDEST DUP1 PUSH4 0x8AF2D78 EQ PUSH2 0x20B JUMPI DUP1 PUSH4 0x117F3998 EQ PUSH2 0x229 JUMPI DUP1 PUSH4 0x1D883342 EQ PUSH2 0x259 JUMPI DUP1 PUSH4 0x2452A7E3 EQ PUSH2 0x289 JUMPI JUMPDEST PUSH1 0x0 DUP1 REVERT JUMPDEST PUSH2 0x213 PUSH2 0x6A0 JUMP JUMPDEST PUSH1 0x40 MLOAD PUSH2 0x220 SWAP2 SWAP1 PUSH2 0x3A0C JUMP JUMPDEST PUSH1 0x40 MLOAD DUP1 SWAP2 SUB SWAP1 RETURN JUMPDEST PUSH2 0x243 PUSH1 0x4 DUP1 CALLDATASIZE SUB DUP2 ADD SWAP1 PUSH2 0x23E SWAP2 SWAP1 PUSH2 0x3AC5 JUMP JUMPDEST PUSH2 0x6C0 JUMP JUMPDEST PUSH1 0x40 MLOAD PUSH2 0x250 SWAP2 SWAP1 PUSH2 0x3C31 JUMP JUMPDEST PUSH1 0x40 MLOAD DUP1 SWAP2 SUB SWAP1 RETURN JUMPDEST PUSH2 0x273 PUSH1 0x4 DUP1 CALLDATASIZE SUB DUP2 ADD SWAP1 PUSH2 0x26E SWAP2 SWAP1 PUSH2 0x3C53 JUMP JUMPDEST PUSH2 0x8ED JUMP JUMPDEST PUSH1 0x40 MLOAD PUSH2 0x280 SWAP2 SWAP1 PUSH2 0x3A0C JUMP JUMPDEST PUSH1 0x40 MLOAD DUP1 SWAP2 SUB SWAP1 RETURN JUMPDEST PUSH2 0x2A3 PUSH1 0x4 DUP1 CALLDATASIZE SUB DUP2 ADD SWAP1 PUSH2 0x29E SWAP2 SWAP1 PUSH2 0x3C53 JUMP JUMPDEST PUSH2 0x90D JUMP JUMPDEST PUSH1 0x40 MLOAD PUSH2 0x2B0 SWAP2 SWAP1 PUSH2 0x3DB5 JUMP JUMPDEST PUSH1 0x40 MLOAD DUP1 SWAP2 SUB SWAP1 RETURN JUMPDEST PUSH2 0x2D3 PUSH1 0x4 DUP1 CALLDATASIZE SUB DUP2 ADD SWAP1 PUSH2 0x2CE SWAP2 SWAP1 PUSH2 0x3C53 JUMP JUMPDEST PUSH2 0x9FD JUMP JUMPDEST PUSH1 0x40 MLOAD PUSH2 0x2E0 SWAP2 SWAP1 PUSH2 0x3EC8 JUMP JUMPDEST PUSH1 0x40 MLOAD DUP1 SWAP2 SUB SWAP1 RETURN JUMPDEST PUSH2 0x303 PUSH1 0x4 DUP1 CALLDATASIZE SUB DUP2 ADD SWAP1 PUSH2 0x2FE SWAP2 SWAP1 PUSH2 0x3C53 JUMP JUMPDEST PUSH2 0xB8F JUMP JUMPDEST STOP JUMPDEST PUSH2 0x30D PUSH2 0xCE9 JUMP JUMPDEST STOP JUMPDEST PUSH2 0x329 PUSH1 0x4 DUP1 CALLDATASIZE SUB DUP2 ADD SWAP1 PUSH2 0x324 SWAP2 SWAP1 PUSH2 0x406F JUMP JUMPDEST PUSH2 0xCFB JUMP JUMPDEST STOP JUMPDEST PUSH2 0x333 PUSH2 0xDA2 JUMP JUMPDEST STOP JUMPDEST PUSH2 0x34F PUSH1 0x4 DUP1 CALLDATASIZE SUB DUP2 ADD SWAP1 PUSH2 0x34A SWAP2 SWAP1 PUSH2 0x3AC5 JUMP JUMPDEST PUSH2 0xE31 JUMP JUMPDEST PUSH1 0x40 MLOAD PUSH2 0x35C SWAP2 SWAP1 PUSH2 0x3A0C JUMP JUMPDEST PUSH1 0x40 MLOAD DUP1 SWAP2 SUB SWAP1 RETURN JUMPDEST PUSH2 0x37F PUSH1 0x4 DUP1 CALLDATASIZE SUB DUP2 ADD SWAP1 PUSH2 0x37A SWAP2 SWAP1 PUSH2 0x40DE JUMP JUMPDEST PUSH2 0x1063 JUMP JUMPDEST STOP JUMPDEST PUSH2 0x389 PUSH2 0x10AF JUMP JUMPDEST PUSH1 0x40 MLOAD PUSH2 0x396 SWAP2 SWAP1 PUSH2 0x4126 JUMP JUMPDEST PUSH1 0x40 MLOAD DUP1 SWAP2 SUB SWAP1 RETURN JUMPDEST PUSH2 0x3B9 PUSH1 0x4 DUP1 CALLDATASIZE SUB DUP2 ADD SWAP1 PUSH2 0x3B4 SWAP2 SWAP1 PUSH2 0x3C53 JUMP JUMPDEST PUSH2 0x10C5 JUMP JUMPDEST PUSH1 0x40 MLOAD PUSH2 0x3C6 SWAP2 SWAP1 PUSH2 0x3A0C JUMP JUMPDEST PUSH1 0x40 MLOAD DUP1 SWAP2 SUB SWAP1 RETURN JUMPDEST PUSH2 0x3E9 PUSH1 0x4 DUP1 CALLDATASIZE SUB DUP2 ADD SWAP1 PUSH2 0x3E4 SWAP2 SWAP1 PUSH2 0x4141 JUMP JUMPDEST PUSH2 0x10E5 JUMP JUMPDEST PUSH1 0x40 MLOAD PUSH2 0x3F7 SWAP3 SWAP2 SWAP1 PUSH2 0x4190 JUMP JUMPDEST PUSH1 0x40 MLOAD DUP1 SWAP2 SUB SWAP1 RETURN JUMPDEST PUSH2 0x408 PUSH2 0x1228 JUMP JUMPDEST STOP JUMPDEST PUSH2 0x424 PUSH1 0x4 DUP1 CALLDATASIZE SUB DUP2 ADD SWAP1 PUSH2 0x41F SWAP2 SWAP1 PUSH2 0x427C JUMP JUMPDEST PUSH2 0x123C JUMP JUMPDEST STOP JUMPDEST PUSH2 0x440 PUSH1 0x4 DUP1 CALLDATASIZE SUB DUP2 ADD SWAP1 PUSH2 0x43B SWAP2 SWAP1 PUSH2 0x40DE JUMP JUMPDEST PUSH2 0x1366 JUMP JUMPDEST STOP JUMPDEST PUSH2 0x44A PUSH2 0x13B2 JUMP JUMPDEST STOP JUMPDEST PUSH2 0x466 PUSH1 0x4 DUP1 CALLDATASIZE SUB DUP2 ADD SWAP1 PUSH2 0x461 SWAP2 SWAP1 PUSH2 0x40DE JUMP JUMPDEST PUSH2 0x13C4 JUMP JUMPDEST PUSH1 0x40 MLOAD PUSH2 0x474 SWAP3 SWAP2 SWAP1 PUSH2 0x42D8 JUMP JUMPDEST PUSH1 0x40 MLOAD DUP1 SWAP2 SUB SWAP1 RETURN JUMPDEST PUSH2 0x485 PUSH2 0x146B JUMP JUMPDEST PUSH1 0x40 MLOAD PUSH2 0x492 SWAP2 SWAP1 PUSH2 0x4310 JUMP JUMPDEST PUSH1 0x40 MLOAD DUP1 SWAP2 SUB SWAP1 RETURN JUMPDEST PUSH2 0x4B5 PUSH1 0x4 DUP1 CALLDATASIZE SUB DUP2 ADD SWAP1 PUSH2 0x4B0 SWAP2 SWAP1 PUSH2 0x432B JUMP JUMPDEST PUSH2 0x1494 JUMP JUMPDEST STOP JUMPDEST PUSH2 0x4D1 PUSH1 0x4 DUP1 CALLDATASIZE SUB DUP2 ADD SWAP1 PUSH2 0x4CC SWAP2 SWAP1 PUSH2 0x44DF JUMP JUMPDEST PUSH2 0x1641 JUMP JUMPDEST STOP JUMPDEST PUSH2 0x4DB PUSH2 0x1BBD JUMP JUMPDEST PUSH1 0x40 MLOAD PUSH2 0x4E8 SWAP2 SWAP1 PUSH2 0x3A0C JUMP JUMPDEST PUSH1 0x40 MLOAD DUP1 SWAP2 SUB SWAP1 RETURN JUMPDEST PUSH2 0x50B PUSH1 0x4 DUP1 CALLDATASIZE SUB DUP2 ADD SWAP1 PUSH2 0x506 SWAP2 SWAP1 PUSH2 0x3C53 JUMP JUMPDEST PUSH2 0x1C55 JUMP JUMPDEST STOP JUMPDEST PUSH2 0x527 PUSH1 0x4 DUP1 CALLDATASIZE SUB DUP2 ADD SWAP1 PUSH2 0x522 SWAP2 SWAP1 PUSH2 0x464F JUMP JUMPDEST PUSH2 0x1CE7 JUMP JUMPDEST PUSH1 0x40 MLOAD PUSH2 0x534 SWAP2 SWAP1 PUSH2 0x47E8 JUMP JUMPDEST PUSH1 0x40 MLOAD DUP1 SWAP2 SUB SWAP1 RETURN JUMPDEST PUSH2 0x557 PUSH1 0x4 DUP1 CALLDATASIZE SUB DUP2 ADD SWAP1 PUSH2 0x552 SWAP2 SWAP1 PUSH2 0x480A JUMP JUMPDEST PUSH2 0x26E8 JUMP JUMPDEST PUSH1 0x40 MLOAD PUSH2 0x565 SWAP3 SWAP2 SWAP1 PUSH2 0x4190 JUMP JUMPDEST PUSH1 0x40 MLOAD DUP1 SWAP2 SUB SWAP1 RETURN JUMPDEST PUSH2 0x588 PUSH1 0x4 DUP1 CALLDATASIZE SUB DUP2 ADD SWAP1 PUSH2 0x583 SWAP2 SWAP1 PUSH2 0x40DE JUMP JUMPDEST PUSH2 0x27EB JUMP JUMPDEST PUSH1 0x40 MLOAD PUSH2 0x595 SWAP2 SWAP1 PUSH2 0x4126 JUMP JUMPDEST PUSH1 0x40 MLOAD DUP1 SWAP2 SUB SWAP1 RETURN JUMPDEST PUSH2 0x5B8 PUSH1 0x4 DUP1 CALLDATASIZE SUB DUP2 ADD SWAP1 PUSH2 0x5B3 SWAP2 SWAP1 PUSH2 0x3C53 JUMP JUMPDEST PUSH2 0x2854 JUMP JUMPDEST STOP JUMPDEST PUSH2 0x5D4 PUSH1 0x4 DUP1 CALLDATASIZE SUB DUP2 ADD SWAP1 PUSH2 0x5CF SWAP2 SWAP1 PUSH2 0x484A JUMP JUMPDEST PUSH2 0x2EC3 JUMP JUMPDEST STOP JUMPDEST PUSH2 0x5F0 PUSH1 0x4 DUP1 CALLDATASIZE SUB DUP2 ADD SWAP1 PUSH2 0x5EB SWAP2 SWAP1 PUSH2 0x3C53 JUMP JUMPDEST PUSH2 0x31A3 JUMP JUMPDEST PUSH1 0x40 MLOAD PUSH2 0x5FD SWAP2 SWAP1 PUSH2 0x496E JUMP JUMPDEST PUSH1 0x40 MLOAD DUP1 SWAP2 SUB SWAP1 RETURN JUMPDEST PUSH2 0x620 PUSH1 0x4 DUP1 CALLDATASIZE SUB DUP2 ADD SWAP1 PUSH2 0x61B SWAP2 SWAP1 PUSH2 0x40DE JUMP JUMPDEST PUSH2 0x320E JUMP JUMPDEST STOP JUMPDEST PUSH2 0x63C PUSH1 0x4 DUP1 CALLDATASIZE SUB DUP2 ADD SWAP1 PUSH2 0x637 SWAP2 SWAP1 PUSH2 0x4990 JUMP JUMPDEST PUSH2 0x3291 JUMP JUMPDEST PUSH1 0x40 MLOAD PUSH2 0x649 SWAP2 SWAP1 PUSH2 0x3A0C JUMP JUMPDEST PUSH1 0x40 MLOAD DUP1 SWAP2 SUB SWAP1 RETURN JUMPDEST PUSH2 0x65A PUSH2 0x32D2 JUMP JUMPDEST PUSH1 0x40 MLOAD PUSH2 0x667 SWAP2 SWAP1 PUSH2 0x3A0C JUMP JUMPDEST PUSH1 0x40 MLOAD DUP1 SWAP2 SUB SWAP1 RETURN JUMPDEST PUSH2 0x68A PUSH1 0x4 DUP1 CALLDATASIZE SUB DUP2 ADD SWAP1 PUSH2 0x685 SWAP2 SWAP1 PUSH2 0x3AC5 JUMP JUMPDEST PUSH2 0x32DC JUMP JUMPDEST PUSH1 0x40 MLOAD PUSH2 0x697 SWAP2 SWAP1 PUSH2 0x3A0C JUMP JUMPDEST PUSH1 0x40 MLOAD DUP1 SWAP2 SUB SWAP1 RETURN JUMPDEST PUSH1 0x0 PUSH1 0x1 PUSH1 0x0 PUSH1 0xA SLOAD DUP2 MSTORE PUSH1 0x20 ADD SWAP1 DUP2 MSTORE PUSH1 0x20 ADD PUSH1 0x0 KECCAK256 PUSH1 0x1 ADD SLOAD SWAP1 POP SWAP1 JUMP JUMPDEST PUSH1 0x60 PUSH1 0x0 PUSH2 0x6CD DUP5 PUSH2 0x8ED JUMP JUMPDEST SWAP1 POP PUSH1 0x0 DUP1 DUP3 PUSH8 0xFFFFFFFFFFFFFFFF DUP2 GT ISZERO PUSH2 0x6EC JUMPI PUSH2 0x6EB PUSH2 0x3F00 JUMP JUMPDEST JUMPDEST PUSH1 0x40 MLOAD SWAP1 DUP1 DUP3 MSTORE DUP1 PUSH1 0x20 MUL PUSH1 0x20 ADD DUP3 ADD PUSH1 0x40 MSTORE DUP1 ISZERO PUSH2 0x725 JUMPI DUP2 PUSH1 0x20 ADD JUMPDEST PUSH2 0x712 PUSH2 0x376E JUMP JUMPDEST DUP2 MSTORE PUSH1 0x20 ADD SWAP1 PUSH1 0x1 SWAP1 SUB SWAP1 DUP2 PUSH2 0x70A JUMPI SWAP1 POP JUMPDEST POP SWAP1 POP PUSH1 0x0 JUMPDEST DUP4 DUP2 LT ISZERO PUSH2 0x8E0 JUMPI PUSH1 0x6 PUSH1 0x0 DUP9 DUP2 MSTORE PUSH1 0x20 ADD SWAP1 DUP2 MSTORE PUSH1 0x20 ADD PUSH1 0x0 KECCAK256 DUP2 DUP2 SLOAD DUP2 LT PUSH2 0x758 JUMPI PUSH2 0x757 PUSH2 0x49D0 JUMP JUMPDEST JUMPDEST SWAP1 PUSH1 0x0 MSTORE PUSH1 0x20 PUSH1 0x0 KECCAK256 SWAP1 PUSH1 0x8 SWAP2 DUP3 DUP3 DIV ADD SWAP2 SWAP1 MOD PUSH1 0x4 MUL SWAP1 SLOAD SWAP1 PUSH2 0x100 EXP SWAP1 DIV PUSH4 0xFFFFFFFF AND SWAP3 POP PUSH1 0x40 MLOAD DUP1 PUSH1 0x60 ADD PUSH1 0x40 MSTORE DUP1 DUP5 PUSH4 0xFFFFFFFF AND DUP2 MSTORE PUSH1 0x20 ADD PUSH1 0x4 PUSH1 0x0 DUP10 PUSH20 0xFFFFFFFFFFFFFFFFFFFFFFFFFFFFFFFFFFFFFFFF AND PUSH20 0xFFFFFFFFFFFFFFFFFFFFFFFFFFFFFFFFFFFFFFFF AND DUP2 MSTORE PUSH1 0x20 ADD SWAP1 DUP2 MSTORE PUSH1 0x20 ADD PUSH1 0x0 KECCAK256 PUSH1 0x0 DUP7 PUSH4 0xFFFFFFFF AND PUSH4 0xFFFFFFFF AND DUP2 MSTORE PUSH1 0x20 ADD SWAP1 DUP2 MSTORE PUSH1 0x20 ADD PUSH1 0x0 KECCAK256 PUSH1 0x0 PUSH1 0x2 DUP2 LT PUSH2 0x806 JUMPI PUSH2 0x805 PUSH2 0x49D0 JUMP JUMPDEST JUMPDEST PUSH1 0x20 SWAP2 DUP3 DUP3 DIV ADD SWAP2 SWAP1 MOD SWAP1 SLOAD SWAP1 PUSH2 0x100 EXP SWAP1 DIV PUSH1 0xFF AND PUSH1 0xFF AND DUP2 MSTORE PUSH1 0x20 ADD PUSH1 0x4 PUSH1 0x0 DUP10 PUSH20 0xFFFFFFFFFFFFFFFFFFFFFFFFFFFFFFFFFFFFFFFF AND PUSH20 0xFFFFFFFFFFFFFFFFFFFFFFFFFFFFFFFFFFFFFFFF AND DUP2 MSTORE PUSH1 0x20 ADD SWAP1 DUP2 MSTORE PUSH1 0x20 ADD PUSH1 0x0 KECCAK256 PUSH1 0x0 DUP7 PUSH4 0xFFFFFFFF AND PUSH4 0xFFFFFFFF AND DUP2 MSTORE PUSH1 0x20 ADD SWAP1 DUP2 MSTORE PUSH1 0x20 ADD PUSH1 0x0 KECCAK256 PUSH1 0x1 PUSH1 0x2 DUP2 LT PUSH2 0x893 JUMPI PUSH2 0x892 PUSH2 0x49D0 JUMP JUMPDEST JUMPDEST PUSH1 0x20 SWAP2 DUP3 DUP3 DIV ADD SWAP2 SWAP1 MOD SWAP1 SLOAD SWAP1 PUSH2 0x100 EXP SWAP1 DIV PUSH1 0xFF AND PUSH1 0xFF AND DUP2 MSTORE POP DUP3 DUP3 DUP2 MLOAD DUP2 LT PUSH2 0x8C2 JUMPI PUSH2 0x8C1 PUSH2 0x49D0 JUMP JUMPDEST JUMPDEST PUSH1 0x20 MUL PUSH1 0x20 ADD ADD DUP2 SWAP1 MSTORE POP DUP1 DUP1 PUSH2 0x8D8 SWAP1 PUSH2 0x4A2E JUMP JUMPDEST SWAP2 POP POP PUSH2 0x72B JUMP JUMPDEST POP DUP1 SWAP4 POP POP POP POP SWAP3 SWAP2 POP POP JUMP JUMPDEST PUSH1 0x0 PUSH1 0x6 PUSH1 0x0 DUP4 DUP2 MSTORE PUSH1 0x20 ADD SWAP1 DUP2 MSTORE PUSH1 0x20 ADD PUSH1 0x0 KECCAK256 DUP1 SLOAD SWAP1 POP SWAP1 POP SWAP2 SWAP1 POP JUMP JUMPDEST PUSH1 0x60 PUSH1 0x8 PUSH1 0x0 DUP4 DUP2 MSTORE PUSH1 0x20 ADD SWAP1 DUP2 MSTORE PUSH1 0x20 ADD PUSH1 0x0 KECCAK256 DUP1 SLOAD DUP1 PUSH1 0x20 MUL PUSH1 0x20 ADD PUSH1 0x40 MLOAD SWAP1 DUP2 ADD PUSH1 0x40 MSTORE DUP1 SWAP3 SWAP2 SWAP1 DUP2 DUP2 MSTORE PUSH1 0x20 ADD PUSH1 0x0 SWAP1 JUMPDEST DUP3 DUP3 LT ISZERO PUSH2 0x9F2 JUMPI DUP4 DUP3 SWAP1 PUSH1 0x0 MSTORE PUSH1 0x20 PUSH1 0x0 KECCAK256 SWAP1 PUSH1 0x5 MUL ADD PUSH1 0x40 MLOAD DUP1 PUSH1 0xA0 ADD PUSH1 0x40 MSTORE SWAP1 DUP2 PUSH1 0x0 DUP3 ADD PUSH1 0x0 SWAP1 SLOAD SWAP1 PUSH2 0x100 EXP SWAP1 DIV PUSH20 0xFFFFFFFFFFFFFFFFFFFFFFFFFFFFFFFFFFFFFFFF AND PUSH20 0xFFFFFFFFFFFFFFFFFFFFFFFFFFFFFFFFFFFFFFFF AND PUSH20 0xFFFFFFFFFFFFFFFFFFFFFFFFFFFFFFFFFFFFFFFF AND DUP2 MSTORE PUSH1 0x20 ADD PUSH1 0x1 DUP3 ADD SLOAD DUP2 MSTORE PUSH1 0x20 ADD PUSH1 0x2 DUP3 ADD SLOAD DUP2 MSTORE PUSH1 0x20 ADD PUSH1 0x3 DUP3 ADD SLOAD DUP2 MSTORE PUSH1 0x20 ADD PUSH1 0x4 DUP3 ADD SLOAD DUP2 MSTORE POP POP DUP2 MSTORE PUSH1 0x20 ADD SWAP1 PUSH1 0x1 ADD SWAP1 PUSH2 0x942 JUMP JUMPDEST POP POP POP POP SWAP1 POP SWAP2 SWAP1 POP JUMP JUMPDEST PUSH1 0x60 PUSH1 0x0 PUSH1 0x2 PUSH1 0x0 DUP5 DUP2 MSTORE PUSH1 0x20 ADD SWAP1 DUP2 MSTORE PUSH1 0x20 ADD PUSH1 0x0 KECCAK256 DUP1 SLOAD SWAP1 POP SWAP1 POP PUSH1 0x0 DUP1 PUSH1 0x0 DUP1 DUP5 PUSH8 0xFFFFFFFFFFFFFFFF DUP2 GT ISZERO PUSH2 0xA3A JUMPI PUSH2 0xA39 PUSH2 0x3F00 JUMP JUMPDEST JUMPDEST PUSH1 0x40 MLOAD SWAP1 DUP1 DUP3 MSTORE DUP1 PUSH1 0x20 MUL PUSH1 0x20 ADD DUP3 ADD PUSH1 0x40 MSTORE DUP1 ISZERO PUSH2 0xA73 JUMPI DUP2 PUSH1 0x20 ADD JUMPDEST PUSH2 0xA60 PUSH2 0x379B JUMP JUMPDEST DUP2 MSTORE PUSH1 0x20 ADD SWAP1 PUSH1 0x1 SWAP1 SUB SWAP1 DUP2 PUSH2 0xA58 JUMPI SWAP1 POP JUMPDEST POP SWAP1 POP PUSH1 0x0 JUMPDEST DUP6 DUP2 LT ISZERO PUSH2 0xB81 JUMPI PUSH1 0x2 PUSH1 0x0 DUP10 DUP2 MSTORE PUSH1 0x20 ADD SWAP1 DUP2 MSTORE PUSH1 0x20 ADD PUSH1 0x0 KECCAK256 DUP2 DUP2 SLOAD DUP2 LT PUSH2 0xAA6 JUMPI PUSH2 0xAA5 PUSH2 0x49D0 JUMP JUMPDEST JUMPDEST SWAP1 PUSH1 0x0 MSTORE PUSH1 0x20 PUSH1 0x0 KECCAK256 SWAP1 PUSH1 0x2 MUL ADD PUSH1 0x0 ADD PUSH1 0x0 SWAP1 SLOAD SWAP1 PUSH2 0x100 EXP SWAP1 DIV PUSH20 0xFFFFFFFFFFFFFFFFFFFFFFFFFFFFFFFFFFFFFFFF AND SWAP5 POP PUSH1 0x2 PUSH1 0x0 DUP10 DUP2 MSTORE PUSH1 0x20 ADD SWAP1 DUP2 MSTORE PUSH1 0x20 ADD PUSH1 0x0 KECCAK256 DUP2 DUP2 SLOAD DUP2 LT PUSH2 0xAFF JUMPI PUSH2 0xAFE PUSH2 0x49D0 JUMP JUMPDEST JUMPDEST SWAP1 PUSH1 0x0 MSTORE PUSH1 0x20 PUSH1 0x0 KECCAK256 SWAP1 PUSH1 0x2 MUL ADD PUSH1 0x1 ADD SLOAD SWAP4 POP PUSH2 0xB1D DUP9 DUP7 PUSH2 0x32DC JUMP JUMPDEST SWAP3 POP PUSH1 0x40 MLOAD DUP1 PUSH1 0x60 ADD PUSH1 0x40 MSTORE DUP1 DUP7 PUSH20 0xFFFFFFFFFFFFFFFFFFFFFFFFFFFFFFFFFFFFFFFF AND DUP2 MSTORE PUSH1 0x20 ADD DUP6 DUP2 MSTORE PUSH1 0x20 ADD DUP5 DUP2 MSTORE POP DUP3 DUP3 DUP2 MLOAD DUP2 LT PUSH2 0xB63 JUMPI PUSH2 0xB62 PUSH2 0x49D0 JUMP JUMPDEST JUMPDEST PUSH1 0x20 MUL PUSH1 0x20 ADD ADD DUP2 SWAP1 MSTORE POP DUP1 DUP1 PUSH2 0xB79 SWAP1 PUSH2 0x4A2E JUMP JUMPDEST SWAP2 POP POP PUSH2 0xA79 JUMP JUMPDEST POP DUP1 SWAP6 POP POP POP POP POP POP SWAP2 SWAP1 POP JUMP JUMPDEST PUSH1 0x0 ISZERO ISZERO PUSH1 0x9 PUSH1 0x0 PUSH1 0xA SLOAD DUP2 MSTORE PUSH1 0x20 ADD SWAP1 DUP2 MSTORE PUSH1 0x20 ADD PUSH1 0x0 KECCAK256 PUSH1 0x0 CALLER PUSH20 0xFFFFFFFFFFFFFFFFFFFFFFFFFFFFFFFFFFFFFFFF AND PUSH20 0xFFFFFFFFFFFFFFFFFFFFFFFFFFFFFFFFFFFFFFFF AND DUP2 MSTORE PUSH1 0x20 ADD SWAP1 DUP2 MSTORE PUSH1 0x20 ADD PUSH1 0x0 KECCAK256 PUSH1 0x0 SWAP1 SLOAD SWAP1 PUSH2 0x100 EXP SWAP1 DIV PUSH1 0xFF AND ISZERO ISZERO EQ DUP1 PUSH2 0xC18 JUMPI POP PUSH1 0x1 PUSH1 0x0 PUSH1 0xA SLOAD DUP2 MSTORE PUSH1 0x20 ADD SWAP1 DUP2 MSTORE PUSH1 0x20 ADD PUSH1 0x0 KECCAK256 PUSH1 0x1 ADD SLOAD TIMESTAMP GT JUMPDEST PUSH2 0xC57 JUMPI PUSH1 0x40 MLOAD PUSH32 0x8C379A000000000000000000000000000000000000000000000000000000000 DUP2 MSTORE PUSH1 0x4 ADD PUSH2 0xC4E SWAP1 PUSH2 0x4AF9 JUMP JUMPDEST PUSH1 0x40 MLOAD DUP1 SWAP2 SUB SWAP1 REVERT JUMPDEST PUSH1 0xE PUSH1 0x0 SWAP1 SLOAD SWAP1 PUSH2 0x100 EXP SWAP1 DIV PUSH20 0xFFFFFFFFFFFFFFFFFFFFFFFFFFFFFFFFFFFFFFFF AND PUSH20 0xFFFFFFFFFFFFFFFFFFFFFFFFFFFFFFFFFFFFFFFF AND PUSH4 0x2CBCB1F2 DUP3 CALLER PUSH1 0x40 MLOAD DUP4 PUSH4 0xFFFFFFFF AND PUSH1 0xE0 SHL DUP2 MSTORE PUSH1 0x4 ADD PUSH2 0xCB4 SWAP3 SWAP2 SWAP1 PUSH2 0x4B19 JUMP JUMPDEST PUSH1 0x0 PUSH1 0x40 MLOAD DUP1 DUP4 SUB DUP2 PUSH1 0x0 DUP8 DUP1 EXTCODESIZE ISZERO DUP1 ISZERO PUSH2 0xCCE JUMPI PUSH1 0x0 DUP1 REVERT JUMPDEST POP GAS CALL ISZERO DUP1 ISZERO PUSH2 0xCE2 JUMPI RETURNDATASIZE PUSH1 0x0 DUP1 RETURNDATACOPY RETURNDATASIZE PUSH1 0x0 REVERT JUMPDEST POP POP POP POP POP JUMP JUMPDEST PUSH2 0xCF1 PUSH2 0x34CC JUMP JUMPDEST PUSH2 0xCF9 PUSH2 0x354A JUMP JUMPDEST JUMP JUMPDEST PUSH2 0xD03 PUSH2 0x34CC JUMP JUMPDEST PUSH1 0xA PUSH1 0x0 DUP2 SLOAD DUP1 SWAP3 SWAP2 SWAP1 PUSH2 0xD16 SWAP1 PUSH2 0x4A2E JUMP JUMPDEST SWAP2 SWAP1 POP SSTORE POP PUSH1 0x0 DUP2 MLOAD SWAP1 POP DUP2 PUSH1 0x6 PUSH1 0x0 PUSH1 0xA SLOAD DUP2 MSTORE PUSH1 0x20 ADD SWAP1 DUP2 MSTORE PUSH1 0x20 ADD PUSH1 0x0 KECCAK256 SWAP1 DUP1 MLOAD SWAP1 PUSH1 0x20 ADD SWAP1 PUSH2 0xD4A SWAP3 SWAP2 SWAP1 PUSH2 0x37D2 JUMP JUMPDEST POP PUSH1 0x40 MLOAD DUP1 PUSH1 0x60 ADD PUSH1 0x40 MSTORE DUP1 DUP6 DUP2 MSTORE PUSH1 0x20 ADD DUP5 DUP2 MSTORE PUSH1 0x20 ADD DUP3 DUP2 MSTORE POP PUSH1 0x1 PUSH1 0x0 PUSH1 0xA SLOAD DUP2 MSTORE PUSH1 0x20 ADD SWAP1 DUP2 MSTORE PUSH1 0x20 ADD PUSH1 0x0 KECCAK256 PUSH1 0x0 DUP3 ADD MLOAD DUP2 PUSH1 0x0 ADD SSTORE PUSH1 0x20 DUP3 ADD MLOAD DUP2 PUSH1 0x1 ADD SSTORE PUSH1 0x40 DUP3 ADD MLOAD DUP2 PUSH1 0x2 ADD SSTORE SWAP1 POP POP POP POP POP POP JUMP JUMPDEST PUSH1 0xE PUSH1 0x0 SWAP1 SLOAD SWAP1 PUSH2 0x100 EXP SWAP1 DIV PUSH20 0xFFFFFFFFFFFFFFFFFFFFFFFFFFFFFFFFFFFFFFFF AND PUSH20 0xFFFFFFFFFFFFFFFFFFFFFFFFFFFFFFFFFFFFFFFF AND PUSH4 0xDE6E321 CALLER PUSH1 0x40 MLOAD DUP3 PUSH4 0xFFFFFFFF AND PUSH1 0xE0 SHL DUP2 MSTORE PUSH1 0x4 ADD PUSH2 0xDFD SWAP2 SWAP1 PUSH2 0x4310 JUMP JUMPDEST PUSH1 0x0 PUSH1 0x40 MLOAD DUP1 DUP4 SUB DUP2 PUSH1 0x0 DUP8 DUP1 EXTCODESIZE ISZERO DUP1 ISZERO PUSH2 0xE17 JUMPI PUSH1 0x0 DUP1 REVERT JUMPDEST POP GAS CALL ISZERO DUP1 ISZERO PUSH2 0xE2B JUMPI RETURNDATASIZE PUSH1 0x0 DUP1 RETURNDATACOPY RETURNDATASIZE PUSH1 0x0 REVERT JUMPDEST POP POP POP POP JUMP JUMPDEST PUSH1 0x0 DUP1 PUSH2 0xE3D DUP5 PUSH2 0x9FD JUMP JUMPDEST SWAP1 POP PUSH1 0x0 DUP1 DUP3 MLOAD SWAP1 POP PUSH1 0x0 DUP1 DUP3 PUSH8 0xFFFFFFFFFFFFFFFF DUP2 GT ISZERO PUSH2 0xE63 JUMPI PUSH2 0xE62 PUSH2 0x3F00 JUMP JUMPDEST JUMPDEST PUSH1 0x40 MLOAD SWAP1 DUP1 DUP3 MSTORE DUP1 PUSH1 0x20 MUL PUSH1 0x20 ADD DUP3 ADD PUSH1 0x40 MSTORE DUP1 ISZERO PUSH2 0xE9C JUMPI DUP2 PUSH1 0x20 ADD JUMPDEST PUSH2 0xE89 PUSH2 0x3882 JUMP JUMPDEST DUP2 MSTORE PUSH1 0x20 ADD SWAP1 PUSH1 0x1 SWAP1 SUB SWAP1 DUP2 PUSH2 0xE81 JUMPI SWAP1 POP JUMPDEST POP SWAP1 POP PUSH1 0x0 JUMPDEST DUP4 DUP2 LT ISZERO PUSH2 0xFBE JUMPI PUSH1 0x1 SWAP5 POP PUSH1 0x0 JUMPDEST DUP5 DUP2 LT ISZERO PUSH2 0xF1F JUMPI DUP7 DUP2 DUP2 MLOAD DUP2 LT PUSH2 0xECC JUMPI PUSH2 0xECB PUSH2 0x49D0 JUMP JUMPDEST JUMPDEST PUSH1 0x20 MUL PUSH1 0x20 ADD ADD MLOAD PUSH1 0x40 ADD MLOAD DUP8 DUP4 DUP2 MLOAD DUP2 LT PUSH2 0xEEB JUMPI PUSH2 0xEEA PUSH2 0x49D0 JUMP JUMPDEST JUMPDEST PUSH1 0x20 MUL PUSH1 0x20 ADD ADD MLOAD PUSH1 0x40 ADD MLOAD LT ISZERO PUSH2 0xF0C JUMPI DUP6 DUP1 PUSH2 0xF08 SWAP1 PUSH2 0x4A2E JUMP JUMPDEST SWAP7 POP POP JUMPDEST DUP1 DUP1 PUSH2 0xF17 SWAP1 PUSH2 0x4A2E JUMP JUMPDEST SWAP2 POP POP PUSH2 0xEB1 JUMP JUMPDEST POP PUSH1 0x40 MLOAD DUP1 PUSH1 0x60 ADD PUSH1 0x40 MSTORE DUP1 DUP8 DUP4 DUP2 MLOAD DUP2 LT PUSH2 0xF3E JUMPI PUSH2 0xF3D PUSH2 0x49D0 JUMP JUMPDEST JUMPDEST PUSH1 0x20 MUL PUSH1 0x20 ADD ADD MLOAD PUSH1 0x0 ADD MLOAD PUSH20 0xFFFFFFFFFFFFFFFFFFFFFFFFFFFFFFFFFFFFFFFF AND DUP2 MSTORE PUSH1 0x20 ADD DUP8 DUP4 DUP2 MLOAD DUP2 LT PUSH2 0xF78 JUMPI PUSH2 0xF77 PUSH2 0x49D0 JUMP JUMPDEST JUMPDEST PUSH1 0x20 MUL PUSH1 0x20 ADD ADD MLOAD PUSH1 0x40 ADD MLOAD DUP2 MSTORE PUSH1 0x20 ADD DUP7 DUP2 MSTORE POP DUP3 DUP3 DUP2 MLOAD DUP2 LT PUSH2 0xFA0 JUMPI PUSH2 0xF9F PUSH2 0x49D0 JUMP JUMPDEST JUMPDEST PUSH1 0x20 MUL PUSH1 0x20 ADD ADD DUP2 SWAP1 MSTORE POP DUP1 DUP1 PUSH2 0xFB6 SWAP1 PUSH2 0x4A2E JUMP JUMPDEST SWAP2 POP POP PUSH2 0xEA2 JUMP JUMPDEST POP PUSH1 0x0 JUMPDEST DUP4 DUP2 LT ISZERO PUSH2 0x1054 JUMPI DUP2 DUP2 DUP2 MLOAD DUP2 LT PUSH2 0xFDD JUMPI PUSH2 0xFDC PUSH2 0x49D0 JUMP JUMPDEST JUMPDEST PUSH1 0x20 MUL PUSH1 0x20 ADD ADD MLOAD PUSH1 0x0 ADD MLOAD PUSH20 0xFFFFFFFFFFFFFFFFFFFFFFFFFFFFFFFFFFFFFFFF AND DUP9 PUSH20 0xFFFFFFFFFFFFFFFFFFFFFFFFFFFFFFFFFFFFFFFF AND SUB PUSH2 0x1041 JUMPI DUP2 DUP2 DUP2 MLOAD DUP2 LT PUSH2 0x102E JUMPI PUSH2 0x102D PUSH2 0x49D0 JUMP JUMPDEST JUMPDEST PUSH1 0x20 MUL PUSH1 0x20 ADD ADD MLOAD PUSH1 0x40 ADD MLOAD SWAP3 POP PUSH2 0x1054 JUMP JUMPDEST DUP1 DUP1 PUSH2 0x104C SWAP1 PUSH2 0x4A2E JUMP JUMPDEST SWAP2 POP POP PUSH2 0xFC2 JUMP JUMPDEST POP DUP2 SWAP6 POP POP POP POP POP POP SWAP3 SWAP2 POP POP JUMP JUMPDEST PUSH2 0x106B PUSH2 0x34CC JUMP JUMPDEST DUP1 PUSH1 0xE PUSH1 0x0 PUSH2 0x100 EXP DUP2 SLOAD DUP2 PUSH20 0xFFFFFFFFFFFFFFFFFFFFFFFFFFFFFFFFFFFFFFFF MUL NOT AND SWAP1 DUP4 PUSH20 0xFFFFFFFFFFFFFFFFFFFFFFFFFFFFFFFFFFFFFFFF AND MUL OR SWAP1 SSTORE POP POP JUMP JUMPDEST PUSH1 0x0 DUP1 PUSH1 0x14 SWAP1 SLOAD SWAP1 PUSH2 0x100 EXP SWAP1 DIV PUSH1 0xFF AND SWAP1 POP SWAP1 JUMP JUMPDEST PUSH1 0x0 PUSH1 0x2 PUSH1 0x0 DUP4 DUP2 MSTORE PUSH1 0x20 ADD SWAP1 DUP2 MSTORE PUSH1 0x20 ADD PUSH1 0x0 KECCAK256 DUP1 SLOAD SWAP1 POP SWAP1 POP SWAP2 SWAP1 POP JUMP JUMPDEST PUSH1 0x0 DUP1 PUSH1 0x0 PUSH1 0x7 PUSH1 0x0 DUP7 DUP2 MSTORE PUSH1 0x20 ADD SWAP1 DUP2 MSTORE PUSH1 0x20 ADD PUSH1 0x0 KECCAK256 DUP1 SLOAD SWAP1 POP SWAP1 POP PUSH1 0x0 PUSH1 0xFF SWAP1 POP PUSH1 0x0 DUP1 PUSH1 0x0 SWAP1 POP JUMPDEST DUP4 DUP2 LT ISZERO PUSH2 0x1217 JUMPI PUSH1 0x0 PUSH1 0x7 PUSH1 0x0 DUP11 DUP2 MSTORE PUSH1 0x20 ADD SWAP1 DUP2 MSTORE PUSH1 0x20 ADD PUSH1 0x0 KECCAK256 DUP3 DUP2 SLOAD DUP2 LT PUSH2 0x1140 JUMPI PUSH2 0x113F PUSH2 0x49D0 JUMP JUMPDEST JUMPDEST SWAP1 PUSH1 0x0 MSTORE PUSH1 0x20 PUSH1 0x0 KECCAK256 ADD SLOAD SWAP1 POP PUSH1 0xD PUSH1 0x0 SWAP1 SLOAD SWAP1 PUSH2 0x100 EXP SWAP1 DIV PUSH20 0xFFFFFFFFFFFFFFFFFFFFFFFFFFFFFFFFFFFFFFFF AND PUSH20 0xFFFFFFFFFFFFFFFFFFFFFFFFFFFFFFFFFFFFFFFF AND PUSH4 0x3910B2C2 DUP3 DUP11 PUSH1 0x40 MLOAD DUP4 PUSH4 0xFFFFFFFF AND PUSH1 0xE0 SHL DUP2 MSTORE PUSH1 0x4 ADD PUSH2 0x11AA SWAP3 SWAP2 SWAP1 PUSH2 0x4B60 JUMP JUMPDEST PUSH1 0x40 DUP1 MLOAD DUP1 DUP4 SUB DUP2 DUP7 GAS STATICCALL ISZERO DUP1 ISZERO PUSH2 0x11C6 JUMPI RETURNDATASIZE PUSH1 0x0 DUP1 RETURNDATACOPY RETURNDATASIZE PUSH1 0x0 REVERT JUMPDEST POP POP POP POP PUSH1 0x40 MLOAD RETURNDATASIZE PUSH1 0x1F NOT PUSH1 0x1F DUP3 ADD AND DUP3 ADD DUP1 PUSH1 0x40 MSTORE POP DUP2 ADD SWAP1 PUSH2 0x11EA SWAP2 SWAP1 PUSH2 0x4B9E JUMP JUMPDEST DUP1 SWAP5 POP DUP2 SWAP6 POP POP POP PUSH1 0xFF DUP5 PUSH1 0xFF AND EQ PUSH2 0x1203 JUMPI POP PUSH2 0x1217 JUMP JUMPDEST POP DUP1 DUP1 PUSH2 0x120F SWAP1 PUSH2 0x4A2E JUMP JUMPDEST SWAP2 POP POP PUSH2 0x1111 JUMP JUMPDEST POP DUP2 DUP2 SWAP5 POP SWAP5 POP POP POP POP SWAP3 POP SWAP3 SWAP1 POP JUMP JUMPDEST PUSH2 0x1230 PUSH2 0x34CC JUMP JUMPDEST PUSH2 0x123A PUSH1 0x0 PUSH2 0x35AC JUMP JUMPDEST JUMP JUMPDEST PUSH2 0x1244 PUSH2 0x34CC JUMP JUMPDEST PUSH1 0x0 DUP2 MLOAD SWAP1 POP PUSH1 0x0 JUMPDEST DUP2 DUP2 LT ISZERO PUSH2 0x1360 JUMPI PUSH1 0x7 PUSH1 0x0 PUSH1 0xA SLOAD DUP2 MSTORE PUSH1 0x20 ADD SWAP1 DUP2 MSTORE PUSH1 0x20 ADD PUSH1 0x0 KECCAK256 PUSH1 0xD PUSH1 0x0 SWAP1 SLOAD SWAP1 PUSH2 0x100 EXP SWAP1 DIV PUSH20 0xFFFFFFFFFFFFFFFFFFFFFFFFFFFFFFFFFFFFFFFF AND PUSH20 0xFFFFFFFFFFFFFFFFFFFFFFFFFFFFFFFFFFFFFFFF AND PUSH4 0x580C2F54 PUSH1 0x1 DUP8 DUP8 DUP7 DUP2 MLOAD DUP2 LT PUSH2 0x12BE JUMPI PUSH2 0x12BD PUSH2 0x49D0 JUMP JUMPDEST JUMPDEST PUSH1 0x20 MUL PUSH1 0x20 ADD ADD MLOAD PUSH1 0x40 MLOAD DUP5 PUSH4 0xFFFFFFFF AND PUSH1 0xE0 SHL DUP2 MSTORE PUSH1 0x4 ADD PUSH2 0x12E4 SWAP4 SWAP3 SWAP2 SWAP1 PUSH2 0x4C23 JUMP JUMPDEST PUSH1 0x20 PUSH1 0x40 MLOAD DUP1 DUP4 SUB DUP2 PUSH1 0x0 DUP8 GAS CALL ISZERO DUP1 ISZERO PUSH2 0x1303 JUMPI RETURNDATASIZE PUSH1 0x0 DUP1 RETURNDATACOPY RETURNDATASIZE PUSH1 0x0 REVERT JUMPDEST POP POP POP POP PUSH1 0x40 MLOAD RETURNDATASIZE PUSH1 0x1F NOT PUSH1 0x1F DUP3 ADD AND DUP3 ADD DUP1 PUSH1 0x40 MSTORE POP DUP2 ADD SWAP1 PUSH2 0x1327 SWAP2 SWAP1 PUSH2 0x4C86 JUMP JUMPDEST SWAP1 DUP1 PUSH1 0x1 DUP2 SLOAD ADD DUP1 DUP3 SSTORE DUP1 SWAP2 POP POP PUSH1 0x1 SWAP1 SUB SWAP1 PUSH1 0x0 MSTORE PUSH1 0x20 PUSH1 0x0 KECCAK256 ADD PUSH1 0x0 SWAP1 SWAP2 SWAP1 SWAP2 SWAP1 SWAP2 POP SSTORE DUP1 DUP1 PUSH2 0x1358 SWAP1 PUSH2 0x4A2E JUMP JUMPDEST SWAP2 POP POP PUSH2 0x124D JUMP JUMPDEST POP POP POP POP JUMP JUMPDEST PUSH2 0x136E PUSH2 0x34CC JUMP JUMPDEST DUP1 PUSH1 0xD PUSH1 0x0 PUSH2 0x100 EXP DUP2 SLOAD DUP2 PUSH20 0xFFFFFFFFFFFFFFFFFFFFFFFFFFFFFFFFFFFFFFFF MUL NOT AND SWAP1 DUP4 PUSH20 0xFFFFFFFFFFFFFFFFFFFFFFFFFFFFFFFFFFFFFFFF AND MUL OR SWAP1 SSTORE POP POP JUMP JUMPDEST PUSH2 0x13BA PUSH2 0x34CC JUMP JUMPDEST PUSH2 0x13C2 PUSH2 0x3670 JUMP JUMPDEST JUMP JUMPDEST PUSH1 0x0 DUP1 PUSH1 0xE PUSH1 0x0 SWAP1 SLOAD SWAP1 PUSH2 0x100 EXP SWAP1 DIV PUSH20 0xFFFFFFFFFFFFFFFFFFFFFFFFFFFFFFFFFFFFFFFF AND PUSH20 0xFFFFFFFFFFFFFFFFFFFFFFFFFFFFFFFFFFFFFFFF AND PUSH4 0x8AD2E864 DUP5 PUSH1 0x40 MLOAD DUP3 PUSH4 0xFFFFFFFF AND PUSH1 0xE0 SHL DUP2 MSTORE PUSH1 0x4 ADD PUSH2 0x1422 SWAP2 SWAP1 PUSH2 0x4310 JUMP JUMPDEST PUSH1 0x40 DUP1 MLOAD DUP1 DUP4 SUB DUP2 DUP7 GAS STATICCALL ISZERO DUP1 ISZERO PUSH2 0x143E JUMPI RETURNDATASIZE PUSH1 0x0 DUP1 RETURNDATACOPY RETURNDATASIZE PUSH1 0x0 REVERT JUMPDEST POP POP POP POP PUSH1 0x40 MLOAD RETURNDATASIZE PUSH1 0x1F NOT PUSH1 0x1F DUP3 ADD AND DUP3 ADD DUP1 PUSH1 0x40 MSTORE POP DUP2 ADD SWAP1 PUSH2 0x1462 SWAP2 SWAP1 PUSH2 0x4CC8 JUMP JUMPDEST SWAP2 POP SWAP2 POP SWAP2 POP SWAP2 JUMP JUMPDEST PUSH1 0x0 DUP1 PUSH1 0x0 SWAP1 SLOAD SWAP1 PUSH2 0x100 EXP SWAP1 DIV PUSH20 0xFFFFFFFFFFFFFFFFFFFFFFFFFFFFFFFFFFFFFFFF AND SWAP1 POP SWAP1 JUMP JUMPDEST PUSH2 0x149C PUSH2 0x34CC JUMP JUMPDEST PUSH1 0x0 JUMPDEST DUP2 MLOAD DUP2 LT ISZERO PUSH2 0x163C JUMPI PUSH1 0x0 DUP1 PUSH2 0x14CF DUP6 DUP6 DUP6 DUP2 MLOAD DUP2 LT PUSH2 0x14C2 JUMPI PUSH2 0x14C1 PUSH2 0x49D0 JUMP JUMPDEST JUMPDEST PUSH1 0x20 MUL PUSH1 0x20 ADD ADD MLOAD PUSH2 0x10E5 JUMP JUMPDEST SWAP2 POP SWAP2 POP PUSH1 0xFF DUP3 PUSH1 0xFF AND EQ PUSH2 0x1627 JUMPI DUP2 PUSH1 0x5 PUSH1 0x0 DUP7 DUP7 DUP2 MLOAD DUP2 LT PUSH2 0x14F6 JUMPI PUSH2 0x14F5 PUSH2 0x49D0 JUMP JUMPDEST JUMPDEST PUSH1 0x20 MUL PUSH1 0x20 ADD ADD MLOAD PUSH4 0xFFFFFFFF AND PUSH4 0xFFFFFFFF AND DUP2 MSTORE PUSH1 0x20 ADD SWAP1 DUP2 MSTORE PUSH1 0x20 ADD PUSH1 0x0 KECCAK256 PUSH1 0x0 PUSH1 0x3 DUP2 LT PUSH2 0x152B JUMPI PUSH2 0x152A PUSH2 0x49D0 JUMP JUMPDEST JUMPDEST PUSH1 0x20 SWAP2 DUP3 DUP3 DIV ADD SWAP2 SWAP1 MOD PUSH2 0x100 EXP DUP2 SLOAD DUP2 PUSH1 0xFF MUL NOT AND SWAP1 DUP4 PUSH1 0xFF AND MUL OR SWAP1 SSTORE POP DUP1 PUSH1 0x5 PUSH1 0x0 DUP7 DUP7 DUP2 MLOAD DUP2 LT PUSH2 0x1563 JUMPI PUSH2 0x1562 PUSH2 0x49D0 JUMP JUMPDEST JUMPDEST PUSH1 0x20 MUL PUSH1 0x20 ADD ADD MLOAD PUSH4 0xFFFFFFFF AND PUSH4 0xFFFFFFFF AND DUP2 MSTORE PUSH1 0x20 ADD SWAP1 DUP2 MSTORE PUSH1 0x20 ADD PUSH1 0x0 KECCAK256 PUSH1 0x1 PUSH1 0x3 DUP2 LT PUSH2 0x1598 JUMPI PUSH2 0x1597 PUSH2 0x49D0 JUMP JUMPDEST JUMPDEST PUSH1 0x20 SWAP2 DUP3 DUP3 DIV ADD SWAP2 SWAP1 MOD PUSH2 0x100 EXP DUP2 SLOAD DUP2 PUSH1 0xFF MUL NOT AND SWAP1 DUP4 PUSH1 0xFF AND MUL OR SWAP1 SSTORE POP PUSH1 0x1 PUSH1 0x5 PUSH1 0x0 DUP7 DUP7 DUP2 MLOAD DUP2 LT PUSH2 0x15D1 JUMPI PUSH2 0x15D0 PUSH2 0x49D0 JUMP JUMPDEST JUMPDEST PUSH1 0x20 MUL PUSH1 0x20 ADD ADD MLOAD PUSH4 0xFFFFFFFF AND PUSH4 0xFFFFFFFF AND DUP2 MSTORE PUSH1 0x20 ADD SWAP1 DUP2 MSTORE PUSH1 0x20 ADD PUSH1 0x0 KECCAK256 PUSH1 0x2 PUSH1 0x3 DUP2 LT PUSH2 0x1606 JUMPI PUSH2 0x1605 PUSH2 0x49D0 JUMP JUMPDEST JUMPDEST PUSH1 0x20 SWAP2 DUP3 DUP3 DIV ADD SWAP2 SWAP1 MOD PUSH2 0x100 EXP DUP2 SLOAD DUP2 PUSH1 0xFF MUL NOT AND SWAP1 DUP4 PUSH1 0xFF AND MUL OR SWAP1 SSTORE POP JUMPDEST POP POP DUP1 DUP1 PUSH2 0x1634 SWAP1 PUSH2 0x4A2E JUMP JUMPDEST SWAP2 POP POP PUSH2 0x149F JUMP JUMPDEST POP POP POP JUMP JUMPDEST PUSH1 0x0 PUSH1 0xC PUSH1 0x0 SWAP1 SLOAD SWAP1 PUSH2 0x100 EXP SWAP1 DIV PUSH20 0xFFFFFFFFFFFFFFFFFFFFFFFFFFFFFFFFFFFFFFFF AND PUSH20 0xFFFFFFFFFFFFFFFFFFFFFFFFFFFFFFFFFFFFFFFF AND PUSH4 0x70A08231 CALLER PUSH1 0x40 MLOAD DUP3 PUSH4 0xFFFFFFFF AND PUSH1 0xE0 SHL DUP2 MSTORE PUSH1 0x4 ADD PUSH2 0x169E SWAP2 SWAP1 PUSH2 0x4310 JUMP JUMPDEST PUSH1 0x20 PUSH1 0x40 MLOAD DUP1 DUP4 SUB DUP2 DUP7 GAS STATICCALL ISZERO DUP1 ISZERO PUSH2 0x16BB JUMPI RETURNDATASIZE PUSH1 0x0 DUP1 RETURNDATACOPY RETURNDATASIZE PUSH1 0x0 REVERT JUMPDEST POP POP POP POP PUSH1 0x40 MLOAD RETURNDATASIZE PUSH1 0x1F NOT PUSH1 0x1F DUP3 ADD AND DUP3 ADD DUP1 PUSH1 0x40 MSTORE POP DUP2 ADD SWAP1 PUSH2 0x16DF SWAP2 SWAP1 PUSH2 0x4D08 JUMP JUMPDEST GT PUSH2 0x171F JUMPI PUSH1 0x40 MLOAD PUSH32 0x8C379A000000000000000000000000000000000000000000000000000000000 DUP2 MSTORE PUSH1 0x4 ADD PUSH2 0x1716 SWAP1 PUSH2 0x4DA7 JUMP JUMPDEST PUSH1 0x40 MLOAD DUP1 SWAP2 SUB SWAP1 REVERT JUMPDEST PUSH1 0x1 PUSH1 0x0 PUSH1 0xA SLOAD DUP2 MSTORE PUSH1 0x20 ADD SWAP1 DUP2 MSTORE PUSH1 0x20 ADD PUSH1 0x0 KECCAK256 PUSH1 0x1 ADD SLOAD TIMESTAMP LT PUSH2 0x1779 JUMPI PUSH1 0x40 MLOAD PUSH32 0x8C379A000000000000000000000000000000000000000000000000000000000 DUP2 MSTORE PUSH1 0x4 ADD PUSH2 0x1770 SWAP1 PUSH2 0x4E13 JUMP JUMPDEST PUSH1 0x40 MLOAD DUP1 SWAP2 SUB SWAP1 REVERT JUMPDEST PUSH2 0x1784 PUSH1 0xA SLOAD PUSH2 0x8ED JUMP JUMPDEST DUP2 MLOAD EQ PUSH2 0x17C6 JUMPI PUSH1 0x40 MLOAD PUSH32 0x8C379A000000000000000000000000000000000000000000000000000000000 DUP2 MSTORE PUSH1 0x4 ADD PUSH2 0x17BD SWAP1 PUSH2 0x4EA5 JUMP JUMPDEST PUSH1 0x40 MLOAD DUP1 SWAP2 SUB SWAP1 REVERT JUMPDEST PUSH1 0x0 PUSH2 0x17D3 PUSH1 0xA SLOAD PUSH2 0x8ED JUMP JUMPDEST SWAP1 POP PUSH1 0x0 PUSH1 0xC PUSH1 0x0 SWAP1 SLOAD SWAP1 PUSH2 0x100 EXP SWAP1 DIV PUSH20 0xFFFFFFFFFFFFFFFFFFFFFFFFFFFFFFFFFFFFFFFF AND PUSH20 0xFFFFFFFFFFFFFFFFFFFFFFFFFFFFFFFFFFFFFFFF AND PUSH4 0x70A08231 CALLER PUSH1 0x40 MLOAD DUP3 PUSH4 0xFFFFFFFF AND PUSH1 0xE0 SHL DUP2 MSTORE PUSH1 0x4 ADD PUSH2 0x1832 SWAP2 SWAP1 PUSH2 0x4310 JUMP JUMPDEST PUSH1 0x20 PUSH1 0x40 MLOAD DUP1 DUP4 SUB DUP2 DUP7 GAS STATICCALL ISZERO DUP1 ISZERO PUSH2 0x184F JUMPI RETURNDATASIZE PUSH1 0x0 DUP1 RETURNDATACOPY RETURNDATASIZE PUSH1 0x0 REVERT JUMPDEST POP POP POP POP PUSH1 0x40 MLOAD RETURNDATASIZE PUSH1 0x1F NOT PUSH1 0x1F DUP3 ADD AND DUP3 ADD DUP1 PUSH1 0x40 MSTORE POP DUP2 ADD SWAP1 PUSH2 0x1873 SWAP2 SWAP1 PUSH2 0x4D08 JUMP JUMPDEST SWAP1 POP PUSH1 0x0 JUMPDEST DUP3 DUP2 LT ISZERO PUSH2 0x1979 JUMPI PUSH1 0x40 MLOAD DUP1 PUSH1 0x40 ADD PUSH1 0x40 MSTORE DUP1 DUP6 DUP4 DUP2 MLOAD DUP2 LT PUSH2 0x189E JUMPI PUSH2 0x189D PUSH2 0x49D0 JUMP JUMPDEST JUMPDEST PUSH1 0x20 MUL PUSH1 0x20 ADD ADD MLOAD PUSH1 0x20 ADD MLOAD PUSH1 0xFF AND PUSH1 0xFF AND DUP2 MSTORE PUSH1 0x20 ADD DUP6 DUP4 DUP2 MLOAD DUP2 LT PUSH2 0x18C8 JUMPI PUSH2 0x18C7 PUSH2 0x49D0 JUMP JUMPDEST JUMPDEST PUSH1 0x20 MUL PUSH1 0x20 ADD ADD MLOAD PUSH1 0x40 ADD MLOAD PUSH1 0xFF AND PUSH1 0xFF AND DUP2 MSTORE POP PUSH1 0x4 PUSH1 0x0 CALLER PUSH20 0xFFFFFFFFFFFFFFFFFFFFFFFFFFFFFFFFFFFFFFFF AND PUSH20 0xFFFFFFFFFFFFFFFFFFFFFFFFFFFFFFFFFFFFFFFF AND DUP2 MSTORE PUSH1 0x20 ADD SWAP1 DUP2 MSTORE PUSH1 0x20 ADD PUSH1 0x0 KECCAK256 PUSH1 0x0 DUP7 DUP5 DUP2 MLOAD DUP2 LT PUSH2 0x1931 JUMPI PUSH2 0x1930 PUSH2 0x49D0 JUMP JUMPDEST JUMPDEST PUSH1 0x20 MUL PUSH1 0x20 ADD ADD MLOAD PUSH1 0x0 ADD MLOAD PUSH4 0xFFFFFFFF AND PUSH4 0xFFFFFFFF AND DUP2 MSTORE PUSH1 0x20 ADD SWAP1 DUP2 MSTORE PUSH1 0x20 ADD PUSH1 0x0 KECCAK256 SWAP1 PUSH1 0x2 PUSH2 0x1965 SWAP3 SWAP2 SWAP1 PUSH2 0x38B9 JUMP JUMPDEST POP DUP1 DUP1 PUSH2 0x1971 SWAP1 PUSH2 0x4A2E JUMP JUMPDEST SWAP2 POP POP PUSH2 0x1878 JUMP JUMPDEST POP PUSH1 0x0 DUP1 PUSH1 0x0 SWAP1 POP JUMPDEST PUSH1 0x2 PUSH1 0x0 PUSH1 0xA SLOAD DUP2 MSTORE PUSH1 0x20 ADD SWAP1 DUP2 MSTORE PUSH1 0x20 ADD PUSH1 0x0 KECCAK256 DUP1 SLOAD SWAP1 POP DUP2 LT ISZERO PUSH2 0x1A82 JUMPI PUSH1 0x2 PUSH1 0x0 PUSH1 0xA SLOAD DUP2 MSTORE PUSH1 0x20 ADD SWAP1 DUP2 MSTORE PUSH1 0x20 ADD PUSH1 0x0 KECCAK256 DUP2 DUP2 SLOAD DUP2 LT PUSH2 0x19C9 JUMPI PUSH2 0x19C8 PUSH2 0x49D0 JUMP JUMPDEST JUMPDEST SWAP1 PUSH1 0x0 MSTORE PUSH1 0x20 PUSH1 0x0 KECCAK256 SWAP1 PUSH1 0x2 MUL ADD PUSH1 0x0 ADD PUSH1 0x0 SWAP1 SLOAD SWAP1 PUSH2 0x100 EXP SWAP1 DIV PUSH20 0xFFFFFFFFFFFFFFFFFFFFFFFFFFFFFFFFFFFFFFFF AND PUSH20 0xFFFFFFFFFFFFFFFFFFFFFFFFFFFFFFFFFFFFFFFF AND CALLER PUSH20 0xFFFFFFFFFFFFFFFFFFFFFFFFFFFFFFFFFFFFFFFF AND SUB PUSH2 0x1A6F JUMPI DUP3 PUSH1 0x2 PUSH1 0x0 PUSH1 0xA SLOAD DUP2 MSTORE PUSH1 0x20 ADD SWAP1 DUP2 MSTORE PUSH1 0x20 ADD PUSH1 0x0 KECCAK256 DUP3 DUP2 SLOAD DUP2 LT PUSH2 0x1A55 JUMPI PUSH2 0x1A54 PUSH2 0x49D0 JUMP JUMPDEST JUMPDEST SWAP1 PUSH1 0x0 MSTORE PUSH1 0x20 PUSH1 0x0 KECCAK256 SWAP1 PUSH1 0x2 MUL ADD PUSH1 0x1 ADD DUP2 SWAP1 SSTORE POP PUSH1 0x1 SWAP2 POP JUMPDEST DUP1 DUP1 PUSH2 0x1A7A SWAP1 PUSH2 0x4A2E JUMP JUMPDEST SWAP2 POP POP PUSH2 0x1982 JUMP JUMPDEST POP PUSH1 0x0 ISZERO ISZERO DUP2 ISZERO ISZERO SUB PUSH2 0x1BB7 JUMPI PUSH1 0x2 PUSH1 0x0 PUSH1 0xA SLOAD DUP2 MSTORE PUSH1 0x20 ADD SWAP1 DUP2 MSTORE PUSH1 0x20 ADD PUSH1 0x0 KECCAK256 PUSH1 0x40 MLOAD DUP1 PUSH1 0x40 ADD PUSH1 0x40 MSTORE DUP1 CALLER PUSH20 0xFFFFFFFFFFFFFFFFFFFFFFFFFFFFFFFFFFFFFFFF AND DUP2 MSTORE PUSH1 0x20 ADD DUP5 DUP2 MSTORE POP SWAP1 DUP1 PUSH1 0x1 DUP2 SLOAD ADD DUP1 DUP3 SSTORE DUP1 SWAP2 POP POP PUSH1 0x1 SWAP1 SUB SWAP1 PUSH1 0x0 MSTORE PUSH1 0x20 PUSH1 0x0 KECCAK256 SWAP1 PUSH1 0x2 MUL ADD PUSH1 0x0 SWAP1 SWAP2 SWAP1 SWAP2 SWAP1 SWAP2 POP PUSH1 0x0 DUP3 ADD MLOAD DUP2 PUSH1 0x0 ADD PUSH1 0x0 PUSH2 0x100 EXP DUP2 SLOAD DUP2 PUSH20 0xFFFFFFFFFFFFFFFFFFFFFFFFFFFFFFFFFFFFFFFF MUL NOT AND SWAP1 DUP4 PUSH20 0xFFFFFFFFFFFFFFFFFFFFFFFFFFFFFFFFFFFFFFFF AND MUL OR SWAP1 SSTORE POP PUSH1 0x20 DUP3 ADD MLOAD DUP2 PUSH1 0x1 ADD SSTORE POP POP PUSH1 0x1 PUSH1 0x9 PUSH1 0x0 PUSH1 0xA SLOAD DUP2 MSTORE PUSH1 0x20 ADD SWAP1 DUP2 MSTORE PUSH1 0x20 ADD PUSH1 0x0 KECCAK256 PUSH1 0x0 CALLER PUSH20 0xFFFFFFFFFFFFFFFFFFFFFFFFFFFFFFFFFFFFFFFF AND PUSH20 0xFFFFFFFFFFFFFFFFFFFFFFFFFFFFFFFFFFFFFFFF AND DUP2 MSTORE PUSH1 0x20 ADD SWAP1 DUP2 MSTORE PUSH1 0x20 ADD PUSH1 0x0 KECCAK256 PUSH1 0x0 PUSH2 0x100 EXP DUP2 SLOAD DUP2 PUSH1 0xFF MUL NOT AND SWAP1 DUP4 ISZERO ISZERO MUL OR SWAP1 SSTORE POP JUMPDEST POP POP POP POP JUMP JUMPDEST PUSH1 0x0 PUSH1 0xE PUSH1 0x0 SWAP1 SLOAD SWAP1 PUSH2 0x100 EXP SWAP1 DIV PUSH20 0xFFFFFFFFFFFFFFFFFFFFFFFFFFFFFFFFFFFFFFFF AND PUSH20 0xFFFFFFFFFFFFFFFFFFFFFFFFFFFFFFFFFFFFFFFF AND PUSH4 0xB4ACE158 PUSH1 0x40 MLOAD DUP2 PUSH4 0xFFFFFFFF AND PUSH1 0xE0 SHL DUP2 MSTORE PUSH1 0x4 ADD PUSH1 0x20 PUSH1 0x40 MLOAD DUP1 DUP4 SUB DUP2 DUP7 GAS STATICCALL ISZERO DUP1 ISZERO PUSH2 0x1C2C JUMPI RETURNDATASIZE PUSH1 0x0 DUP1 RETURNDATACOPY RETURNDATASIZE PUSH1 0x0 REVERT JUMPDEST POP POP POP POP PUSH1 0x40 MLOAD RETURNDATASIZE PUSH1 0x1F NOT PUSH1 0x1F DUP3 ADD AND DUP3 ADD DUP1 PUSH1 0x40 MSTORE POP DUP2 ADD SWAP1 PUSH2 0x1C50 SWAP2 SWAP1 PUSH2 0x4D08 JUMP JUMPDEST SWAP1 POP SWAP1 JUMP JUMPDEST PUSH1 0xE PUSH1 0x0 SWAP1 SLOAD SWAP1 PUSH2 0x100 EXP SWAP1 DIV PUSH20 0xFFFFFFFFFFFFFFFFFFFFFFFFFFFFFFFFFFFFFFFF AND PUSH20 0xFFFFFFFFFFFFFFFFFFFFFFFFFFFFFFFFFFFFFFFF AND PUSH4 0x16FC9D7 DUP3 CALLER PUSH1 0x40 MLOAD DUP4 PUSH4 0xFFFFFFFF AND PUSH1 0xE0 SHL DUP2 MSTORE PUSH1 0x4 ADD PUSH2 0x1CB2 SWAP3 SWAP2 SWAP1 PUSH2 0x4B19 JUMP JUMPDEST PUSH1 0x0 PUSH1 0x40 MLOAD DUP1 DUP4 SUB DUP2 PUSH1 0x0 DUP8 DUP1 EXTCODESIZE ISZERO DUP1 ISZERO PUSH2 0x1CCC JUMPI PUSH1 0x0 DUP1 REVERT JUMPDEST POP GAS CALL ISZERO DUP1 ISZERO PUSH2 0x1CE0 JUMPI RETURNDATASIZE PUSH1 0x0 DUP1 RETURNDATACOPY RETURNDATASIZE PUSH1 0x0 REVERT JUMPDEST POP POP POP POP POP JUMP JUMPDEST PUSH1 0x60 PUSH1 0x0 DUP1 PUSH1 0x0 DUP1 DUP1 PUSH1 0x0 DUP1 PUSH1 0xE PUSH1 0x0 SWAP1 SLOAD SWAP1 PUSH2 0x100 EXP SWAP1 DIV PUSH20 0xFFFFFFFFFFFFFFFFFFFFFFFFFFFFFFFFFFFFFFFF AND PUSH20 0xFFFFFFFFFFFFFFFFFFFFFFFFFFFFFFFFFFFFFFFF AND PUSH4 0xB4ACE158 PUSH1 0x40 MLOAD DUP2 PUSH4 0xFFFFFFFF AND PUSH1 0xE0 SHL DUP2 MSTORE PUSH1 0x4 ADD PUSH1 0x20 PUSH1 0x40 MLOAD DUP1 DUP4 SUB DUP2 DUP7 GAS STATICCALL ISZERO DUP1 ISZERO PUSH2 0x1D60 JUMPI RETURNDATASIZE PUSH1 0x0 DUP1 RETURNDATACOPY RETURNDATASIZE PUSH1 0x0 REVERT JUMPDEST POP POP POP POP PUSH1 0x40 MLOAD RETURNDATASIZE PUSH1 0x1F NOT PUSH1 0x1F DUP3 ADD AND DUP3 ADD DUP1 PUSH1 0x40 MSTORE POP DUP2 ADD SWAP1 PUSH2 0x1D84 SWAP2 SWAP1 PUSH2 0x4D08 JUMP JUMPDEST SWAP1 POP PUSH1 0x0 PUSH1 0x3 PUSH1 0x0 DUP13 DUP2 MSTORE PUSH1 0x20 ADD SWAP1 DUP2 MSTORE PUSH1 0x20 ADD PUSH1 0x0 KECCAK256 SLOAD SWAP1 POP PUSH1 0x0 DUP2 PUSH8 0xFFFFFFFFFFFFFFFF DUP2 GT ISZERO PUSH2 0x1DBA JUMPI PUSH2 0x1DB9 PUSH2 0x3F00 JUMP JUMPDEST JUMPDEST PUSH1 0x40 MLOAD SWAP1 DUP1 DUP3 MSTORE DUP1 PUSH1 0x20 MUL PUSH1 0x20 ADD DUP3 ADD PUSH1 0x40 MSTORE DUP1 ISZERO PUSH2 0x1DF3 JUMPI DUP2 PUSH1 0x20 ADD JUMPDEST PUSH2 0x1DE0 PUSH2 0x3953 JUMP JUMPDEST DUP2 MSTORE PUSH1 0x20 ADD SWAP1 PUSH1 0x1 SWAP1 SUB SWAP1 DUP2 PUSH2 0x1DD8 JUMPI SWAP1 POP JUMPDEST POP SWAP1 POP PUSH1 0x0 DUP3 PUSH8 0xFFFFFFFFFFFFFFFF DUP2 GT ISZERO PUSH2 0x1E12 JUMPI PUSH2 0x1E11 PUSH2 0x3F00 JUMP JUMPDEST JUMPDEST PUSH1 0x40 MLOAD SWAP1 DUP1 DUP3 MSTORE DUP1 PUSH1 0x20 MUL PUSH1 0x20 ADD DUP3 ADD PUSH1 0x40 MSTORE DUP1 ISZERO PUSH2 0x1E4B JUMPI DUP2 PUSH1 0x20 ADD JUMPDEST PUSH2 0x1E38 PUSH2 0x3882 JUMP JUMPDEST DUP2 MSTORE PUSH1 0x20 ADD SWAP1 PUSH1 0x1 SWAP1 SUB SWAP1 DUP2 PUSH2 0x1E30 JUMPI SWAP1 POP JUMPDEST POP SWAP1 POP PUSH1 0x0 DUP4 PUSH8 0xFFFFFFFFFFFFFFFF DUP2 GT ISZERO PUSH2 0x1E6A JUMPI PUSH2 0x1E69 PUSH2 0x3F00 JUMP JUMPDEST JUMPDEST PUSH1 0x40 MLOAD SWAP1 DUP1 DUP3 MSTORE DUP1 PUSH1 0x20 MUL PUSH1 0x20 ADD DUP3 ADD PUSH1 0x40 MSTORE DUP1 ISZERO PUSH2 0x1EA3 JUMPI DUP2 PUSH1 0x20 ADD JUMPDEST PUSH2 0x1E90 PUSH2 0x3983 JUMP JUMPDEST DUP2 MSTORE PUSH1 0x20 ADD SWAP1 PUSH1 0x1 SWAP1 SUB SWAP1 DUP2 PUSH2 0x1E88 JUMPI SWAP1 POP JUMPDEST POP SWAP1 POP PUSH1 0x0 JUMPDEST DUP14 MLOAD DUP2 LT ISZERO PUSH2 0x1F67 JUMPI PUSH1 0x0 DUP15 DUP3 DUP2 MLOAD DUP2 LT PUSH2 0x1EC7 JUMPI PUSH2 0x1EC6 PUSH2 0x49D0 JUMP JUMPDEST JUMPDEST PUSH1 0x20 MUL PUSH1 0x20 ADD ADD MLOAD SWAP1 POP PUSH1 0x0 JUMPDEST DUP2 PUSH1 0x20 ADD MLOAD DUP2 LT ISZERO PUSH2 0x1F52 JUMPI PUSH1 0x40 MLOAD DUP1 PUSH1 0x40 ADD PUSH1 0x40 MSTORE DUP1 DUP4 PUSH1 0x0 ADD MLOAD PUSH20 0xFFFFFFFFFFFFFFFFFFFFFFFFFFFFFFFFFFFFFFFF AND DUP2 MSTORE PUSH1 0x20 ADD DUP4 PUSH1 0x40 ADD MLOAD DUP2 MSTORE POP DUP7 DUP11 DUP2 MLOAD DUP2 LT PUSH2 0x1F26 JUMPI PUSH2 0x1F25 PUSH2 0x49D0 JUMP JUMPDEST JUMPDEST PUSH1 0x20 MUL PUSH1 0x20 ADD ADD DUP2 SWAP1 MSTORE POP DUP9 DUP1 PUSH2 0x1F3C SWAP1 PUSH2 0x4A2E JUMP JUMPDEST SWAP10 POP POP DUP1 DUP1 PUSH2 0x1F4A SWAP1 PUSH2 0x4A2E JUMP JUMPDEST SWAP2 POP POP PUSH2 0x1ED4 JUMP JUMPDEST POP POP DUP1 DUP1 PUSH2 0x1F5F SWAP1 PUSH2 0x4A2E JUMP JUMPDEST SWAP2 POP POP PUSH2 0x1EA9 JUMP JUMPDEST POP PUSH1 0x0 JUMPDEST DUP5 DUP2 LT ISZERO PUSH2 0x2093 JUMPI PUSH1 0x1 SWAP12 POP PUSH1 0x0 JUMPDEST DUP6 DUP2 LT ISZERO PUSH2 0x1FF4 JUMPI DUP5 DUP2 DUP2 MLOAD DUP2 LT PUSH2 0x1F95 JUMPI PUSH2 0x1F94 PUSH2 0x49D0 JUMP JUMPDEST JUMPDEST PUSH1 0x20 MUL PUSH1 0x20 ADD ADD MLOAD PUSH1 0x20 ADD MLOAD DUP6 DUP4 DUP2 MLOAD DUP2 LT PUSH2 0x1FB4 JUMPI PUSH2 0x1FB3 PUSH2 0x49D0 JUMP JUMPDEST JUMPDEST PUSH1 0x20 MUL PUSH1 0x20 ADD ADD MLOAD PUSH1 0x20 ADD MLOAD LT ISZERO PUSH2 0x1FE1 JUMPI DUP13 DUP1 PUSH2 0x1FD1 SWAP1 PUSH2 0x4A2E JUMP JUMPDEST SWAP14 POP POP DUP12 DUP14 GT ISZERO PUSH2 0x1FE0 JUMPI DUP13 SWAP12 POP JUMPDEST JUMPDEST DUP1 DUP1 PUSH2 0x1FEC SWAP1 PUSH2 0x4A2E JUMP JUMPDEST SWAP2 POP POP PUSH2 0x1F7A JUMP JUMPDEST POP PUSH1 0x40 MLOAD DUP1 PUSH1 0x60 ADD PUSH1 0x40 MSTORE DUP1 DUP6 DUP4 DUP2 MLOAD DUP2 LT PUSH2 0x2013 JUMPI PUSH2 0x2012 PUSH2 0x49D0 JUMP JUMPDEST JUMPDEST PUSH1 0x20 MUL PUSH1 0x20 ADD ADD MLOAD PUSH1 0x0 ADD MLOAD PUSH20 0xFFFFFFFFFFFFFFFFFFFFFFFFFFFFFFFFFFFFFFFF AND DUP2 MSTORE PUSH1 0x20 ADD DUP6 DUP4 DUP2 MLOAD DUP2 LT PUSH2 0x204D JUMPI PUSH2 0x204C PUSH2 0x49D0 JUMP JUMPDEST JUMPDEST PUSH1 0x20 MUL PUSH1 0x20 ADD ADD MLOAD PUSH1 0x20 ADD MLOAD DUP2 MSTORE PUSH1 0x20 ADD DUP14 DUP2 MSTORE POP DUP4 DUP3 DUP2 MLOAD DUP2 LT PUSH2 0x2075 JUMPI PUSH2 0x2074 PUSH2 0x49D0 JUMP JUMPDEST JUMPDEST PUSH1 0x20 MUL PUSH1 0x20 ADD ADD DUP2 SWAP1 MSTORE POP DUP1 DUP1 PUSH2 0x208B SWAP1 PUSH2 0x4A2E JUMP JUMPDEST SWAP2 POP POP PUSH2 0x1F6B JUMP JUMPDEST POP PUSH1 0x0 SWAP6 POP PUSH1 0x0 PUSH1 0x1 SWAP1 POP JUMPDEST DUP11 DUP2 GT PUSH2 0x21D1 JUMPI PUSH1 0x0 JUMPDEST DUP6 DUP2 LT ISZERO PUSH2 0x21BD JUMPI DUP2 DUP5 DUP3 DUP2 MLOAD DUP2 LT PUSH2 0x20C5 JUMPI PUSH2 0x20C4 PUSH2 0x49D0 JUMP JUMPDEST JUMPDEST PUSH1 0x20 MUL PUSH1 0x20 ADD ADD MLOAD PUSH1 0x40 ADD MLOAD SUB PUSH2 0x21AA JUMPI PUSH1 0x40 MLOAD DUP1 PUSH1 0xE0 ADD PUSH1 0x40 MSTORE DUP1 DUP6 DUP4 DUP2 MLOAD DUP2 LT PUSH2 0x20F4 JUMPI PUSH2 0x20F3 PUSH2 0x49D0 JUMP JUMPDEST JUMPDEST PUSH1 0x20 MUL PUSH1 0x20 ADD ADD MLOAD PUSH1 0x0 ADD MLOAD PUSH20 0xFFFFFFFFFFFFFFFFFFFFFFFFFFFFFFFFFFFFFFFF AND DUP2 MSTORE PUSH1 0x20 ADD DUP6 DUP4 DUP2 MLOAD DUP2 LT PUSH2 0x212E JUMPI PUSH2 0x212D PUSH2 0x49D0 JUMP JUMPDEST JUMPDEST PUSH1 0x20 MUL PUSH1 0x20 ADD ADD MLOAD PUSH1 0x20 ADD MLOAD DUP2 MSTORE PUSH1 0x20 ADD DUP6 DUP4 DUP2 MLOAD DUP2 LT PUSH2 0x2152 JUMPI PUSH2 0x2151 PUSH2 0x49D0 JUMP JUMPDEST JUMPDEST PUSH1 0x20 MUL PUSH1 0x20 ADD ADD MLOAD PUSH1 0x40 ADD MLOAD DUP2 MSTORE PUSH1 0x20 ADD PUSH1 0x0 DUP2 MSTORE PUSH1 0x20 ADD PUSH1 0x0 DUP2 MSTORE PUSH1 0x20 ADD PUSH1 0x0 DUP2 MSTORE PUSH1 0x20 ADD PUSH1 0x0 DUP2 MSTORE POP DUP4 DUP10 DUP2 MLOAD DUP2 LT PUSH2 0x2190 JUMPI PUSH2 0x218F PUSH2 0x49D0 JUMP JUMPDEST JUMPDEST PUSH1 0x20 MUL PUSH1 0x20 ADD ADD DUP2 SWAP1 MSTORE POP DUP8 DUP1 PUSH2 0x21A6 SWAP1 PUSH2 0x4A2E JUMP JUMPDEST SWAP9 POP POP JUMPDEST DUP1 DUP1 PUSH2 0x21B5 SWAP1 PUSH2 0x4A2E JUMP JUMPDEST SWAP2 POP POP PUSH2 0x20A9 JUMP JUMPDEST POP DUP1 DUP1 PUSH2 0x21C9 SWAP1 PUSH2 0x4A2E JUMP JUMPDEST SWAP2 POP POP PUSH2 0x209F JUMP JUMPDEST POP PUSH1 0x64 PUSH1 0xB SLOAD DUP11 DUP8 PUSH2 0x21E3 SWAP2 SWAP1 PUSH2 0x4EC5 JUMP JUMPDEST PUSH2 0x21ED SWAP2 SWAP1 PUSH2 0x4EF9 JUMP JUMPDEST PUSH2 0x21F7 SWAP2 SWAP1 PUSH2 0x4F82 JUMP JUMPDEST SWAP7 POP DUP7 DUP10 PUSH2 0x2205 SWAP2 SWAP1 PUSH2 0x4FB3 JUMP JUMPDEST SWAP9 POP DUP7 DUP2 PUSH1 0x0 DUP2 MLOAD DUP2 LT PUSH2 0x221C JUMPI PUSH2 0x221B PUSH2 0x49D0 JUMP JUMPDEST JUMPDEST PUSH1 0x20 MUL PUSH1 0x20 ADD ADD MLOAD PUSH1 0x60 ADD DUP2 DUP2 MSTORE POP POP DUP7 DUP2 PUSH1 0x0 DUP2 MLOAD DUP2 LT PUSH2 0x2241 JUMPI PUSH2 0x2240 PUSH2 0x49D0 JUMP JUMPDEST JUMPDEST PUSH1 0x20 MUL PUSH1 0x20 ADD ADD MLOAD PUSH1 0x80 ADD DUP2 DUP2 MSTORE POP POP DUP7 DUP2 PUSH1 0x0 DUP2 MLOAD DUP2 LT PUSH2 0x2266 JUMPI PUSH2 0x2265 PUSH2 0x49D0 JUMP JUMPDEST JUMPDEST PUSH1 0x20 MUL PUSH1 0x20 ADD ADD MLOAD PUSH1 0xA0 ADD DUP2 DUP2 MSTORE POP POP DUP7 DUP2 PUSH1 0x0 DUP2 MLOAD DUP2 LT PUSH2 0x228B JUMPI PUSH2 0x228A PUSH2 0x49D0 JUMP JUMPDEST JUMPDEST PUSH1 0x20 MUL PUSH1 0x20 ADD ADD MLOAD PUSH1 0xC0 ADD DUP2 DUP2 MSTORE POP POP PUSH1 0x0 PUSH1 0x1 SWAP1 POP JUMPDEST DUP5 DUP2 LT ISZERO PUSH2 0x26D3 JUMPI PUSH1 0x64 PUSH1 0xB SLOAD DUP12 DUP9 PUSH2 0x22BB SWAP2 SWAP1 PUSH2 0x4EC5 JUMP JUMPDEST PUSH2 0x22C5 SWAP2 SWAP1 PUSH2 0x4EF9 JUMP JUMPDEST PUSH2 0x22CF SWAP2 SWAP1 PUSH2 0x4F82 JUMP JUMPDEST SWAP8 POP DUP8 DUP3 DUP3 DUP2 MLOAD DUP2 LT PUSH2 0x22E5 JUMPI PUSH2 0x22E4 PUSH2 0x49D0 JUMP JUMPDEST JUMPDEST PUSH1 0x20 MUL PUSH1 0x20 ADD ADD MLOAD PUSH1 0x60 ADD DUP2 DUP2 MSTORE POP POP DUP8 DUP11 PUSH2 0x2301 SWAP2 SWAP1 PUSH2 0x4FB3 JUMP JUMPDEST SWAP10 POP DUP10 DUP3 DUP3 DUP2 MLOAD DUP2 LT PUSH2 0x2317 JUMPI PUSH2 0x2316 PUSH2 0x49D0 JUMP JUMPDEST JUMPDEST PUSH1 0x20 MUL PUSH1 0x20 ADD ADD MLOAD PUSH1 0x80 ADD DUP2 DUP2 MSTORE POP POP PUSH1 0x1 DUP6 PUSH2 0x2334 SWAP2 SWAP1 PUSH2 0x4EC5 JUMP JUMPDEST DUP2 EQ PUSH2 0x251A JUMPI DUP2 PUSH1 0x1 DUP3 PUSH2 0x2348 SWAP2 SWAP1 PUSH2 0x4EC5 JUMP JUMPDEST DUP2 MLOAD DUP2 LT PUSH2 0x2359 JUMPI PUSH2 0x2358 PUSH2 0x49D0 JUMP JUMPDEST JUMPDEST PUSH1 0x20 MUL PUSH1 0x20 ADD ADD MLOAD PUSH1 0x40 ADD MLOAD DUP3 DUP3 DUP2 MLOAD DUP2 LT PUSH2 0x2378 JUMPI PUSH2 0x2377 PUSH2 0x49D0 JUMP JUMPDEST JUMPDEST PUSH1 0x20 MUL PUSH1 0x20 ADD ADD MLOAD PUSH1 0x40 ADD MLOAD SUB PUSH2 0x23E7 JUMPI DUP8 DUP3 PUSH1 0x1 DUP4 PUSH2 0x2398 SWAP2 SWAP1 PUSH2 0x4EC5 JUMP JUMPDEST DUP2 MLOAD DUP2 LT PUSH2 0x23A9 JUMPI PUSH2 0x23A8 PUSH2 0x49D0 JUMP JUMPDEST JUMPDEST PUSH1 0x20 MUL PUSH1 0x20 ADD ADD MLOAD PUSH1 0xA0 ADD MLOAD PUSH2 0x23BF SWAP2 SWAP1 PUSH2 0x4FB3 JUMP JUMPDEST DUP3 DUP3 DUP2 MLOAD DUP2 LT PUSH2 0x23D2 JUMPI PUSH2 0x23D1 PUSH2 0x49D0 JUMP JUMPDEST JUMPDEST PUSH1 0x20 MUL PUSH1 0x20 ADD ADD MLOAD PUSH1 0xA0 ADD DUP2 DUP2 MSTORE POP POP PUSH2 0x2515 JUMP JUMPDEST DUP8 DUP3 DUP3 DUP2 MLOAD DUP2 LT PUSH2 0x23FB JUMPI PUSH2 0x23FA PUSH2 0x49D0 JUMP JUMPDEST JUMPDEST PUSH1 0x20 MUL PUSH1 0x20 ADD ADD MLOAD PUSH1 0xA0 ADD DUP2 DUP2 MSTORE POP POP DUP8 DUP3 DUP3 DUP2 MLOAD DUP2 LT PUSH2 0x241F JUMPI PUSH2 0x241E PUSH2 0x49D0 JUMP JUMPDEST JUMPDEST PUSH1 0x20 MUL PUSH1 0x20 ADD ADD MLOAD PUSH1 0xC0 ADD DUP2 DUP2 MSTORE POP POP DUP2 PUSH1 0x1 DUP3 PUSH2 0x243D SWAP2 SWAP1 PUSH2 0x4EC5 JUMP JUMPDEST DUP2 MLOAD DUP2 LT PUSH2 0x244E JUMPI PUSH2 0x244D PUSH2 0x49D0 JUMP JUMPDEST JUMPDEST PUSH1 0x20 MUL PUSH1 0x20 ADD ADD MLOAD PUSH1 0x40 ADD MLOAD DUP3 DUP3 DUP2 MLOAD DUP2 LT PUSH2 0x246D JUMPI PUSH2 0x246C PUSH2 0x49D0 JUMP JUMPDEST JUMPDEST PUSH1 0x20 MUL PUSH1 0x20 ADD ADD MLOAD PUSH1 0x40 ADD MLOAD PUSH2 0x2483 SWAP2 SWAP1 PUSH2 0x4EC5 JUMP JUMPDEST SWAP9 POP PUSH1 0x0 JUMPDEST DUP10 DUP2 LT ISZERO PUSH2 0x2513 JUMPI DUP10 DUP4 PUSH1 0x1 DUP5 PUSH2 0x249F SWAP2 SWAP1 PUSH2 0x4EC5 JUMP JUMPDEST DUP2 MLOAD DUP2 LT PUSH2 0x24B0 JUMPI PUSH2 0x24AF PUSH2 0x49D0 JUMP JUMPDEST JUMPDEST PUSH1 0x20 MUL PUSH1 0x20 ADD ADD MLOAD PUSH1 0xA0 ADD MLOAD PUSH2 0x24C6 SWAP2 SWAP1 PUSH2 0x4F82 JUMP JUMPDEST DUP4 PUSH1 0x1 DUP4 PUSH2 0x24D4 SWAP2 SWAP1 PUSH2 0x4FB3 JUMP JUMPDEST DUP5 PUSH2 0x24DF SWAP2 SWAP1 PUSH2 0x4EC5 JUMP JUMPDEST DUP2 MLOAD DUP2 LT PUSH2 0x24F0 JUMPI PUSH2 0x24EF PUSH2 0x49D0 JUMP JUMPDEST JUMPDEST PUSH1 0x20 MUL PUSH1 0x20 ADD ADD MLOAD PUSH1 0xC0 ADD DUP2 DUP2 MSTORE POP POP DUP1 DUP1 PUSH2 0x250B SWAP1 PUSH2 0x4A2E JUMP JUMPDEST SWAP2 POP POP PUSH2 0x2488 JUMP JUMPDEST POP JUMPDEST PUSH2 0x26C0 JUMP JUMPDEST DUP2 PUSH1 0x1 DUP3 PUSH2 0x2528 SWAP2 SWAP1 PUSH2 0x4EC5 JUMP JUMPDEST DUP2 MLOAD DUP2 LT PUSH2 0x2539 JUMPI PUSH2 0x2538 PUSH2 0x49D0 JUMP JUMPDEST JUMPDEST PUSH1 0x20 MUL PUSH1 0x20 ADD ADD MLOAD PUSH1 0x40 ADD MLOAD DUP3 DUP3 DUP2 MLOAD DUP2 LT PUSH2 0x2558 JUMPI PUSH2 0x2557 PUSH2 0x49D0 JUMP JUMPDEST JUMPDEST PUSH1 0x20 MUL PUSH1 0x20 ADD ADD MLOAD PUSH1 0x40 ADD MLOAD SUB PUSH2 0x2676 JUMPI DUP8 DUP3 PUSH1 0x1 DUP4 PUSH2 0x2578 SWAP2 SWAP1 PUSH2 0x4EC5 JUMP JUMPDEST DUP2 MLOAD DUP2 LT PUSH2 0x2589 JUMPI PUSH2 0x2588 PUSH2 0x49D0 JUMP JUMPDEST JUMPDEST PUSH1 0x20 MUL PUSH1 0x20 ADD ADD MLOAD PUSH1 0xA0 ADD MLOAD PUSH2 0x259F SWAP2 SWAP1 PUSH2 0x4FB3 JUMP JUMPDEST DUP3 DUP3 DUP2 MLOAD DUP2 LT PUSH2 0x25B2 JUMPI PUSH2 0x25B1 PUSH2 0x49D0 JUMP JUMPDEST JUMPDEST PUSH1 0x20 MUL PUSH1 0x20 ADD ADD MLOAD PUSH1 0xA0 ADD DUP2 DUP2 MSTORE POP POP DUP2 DUP2 DUP2 MLOAD DUP2 LT PUSH2 0x25D5 JUMPI PUSH2 0x25D4 PUSH2 0x49D0 JUMP JUMPDEST JUMPDEST PUSH1 0x20 MUL PUSH1 0x20 ADD ADD MLOAD PUSH1 0x40 ADD MLOAD PUSH1 0x1 DUP7 PUSH2 0x25EE SWAP2 SWAP1 PUSH2 0x4FB3 JUMP JUMPDEST PUSH2 0x25F8 SWAP2 SWAP1 PUSH2 0x4EC5 JUMP JUMPDEST SWAP9 POP PUSH1 0x0 JUMPDEST DUP10 DUP2 LT ISZERO PUSH2 0x2670 JUMPI DUP10 DUP4 DUP4 DUP2 MLOAD DUP2 LT PUSH2 0x2619 JUMPI PUSH2 0x2618 PUSH2 0x49D0 JUMP JUMPDEST JUMPDEST PUSH1 0x20 MUL PUSH1 0x20 ADD ADD MLOAD PUSH1 0xA0 ADD MLOAD PUSH2 0x262F SWAP2 SWAP1 PUSH2 0x4F82 JUMP JUMPDEST DUP4 DUP3 DUP5 PUSH2 0x263C SWAP2 SWAP1 PUSH2 0x4EC5 JUMP JUMPDEST DUP2 MLOAD DUP2 LT PUSH2 0x264D JUMPI PUSH2 0x264C PUSH2 0x49D0 JUMP JUMPDEST JUMPDEST PUSH1 0x20 MUL PUSH1 0x20 ADD ADD MLOAD PUSH1 0xC0 ADD DUP2 DUP2 MSTORE POP POP DUP1 DUP1 PUSH2 0x2668 SWAP1 PUSH2 0x4A2E JUMP JUMPDEST SWAP2 POP POP PUSH2 0x25FD JUMP JUMPDEST POP PUSH2 0x26BF JUMP JUMPDEST DUP8 DUP3 DUP3 DUP2 MLOAD DUP2 LT PUSH2 0x268A JUMPI PUSH2 0x2689 PUSH2 0x49D0 JUMP JUMPDEST JUMPDEST PUSH1 0x20 MUL PUSH1 0x20 ADD ADD MLOAD PUSH1 0xA0 ADD DUP2 DUP2 MSTORE POP POP DUP8 DUP3 DUP3 DUP2 MLOAD DUP2 LT PUSH2 0x26AE JUMPI PUSH2 0x26AD PUSH2 0x49D0 JUMP JUMPDEST JUMPDEST PUSH1 0x20 MUL PUSH1 0x20 ADD ADD MLOAD PUSH1 0xC0 ADD DUP2 DUP2 MSTORE POP POP JUMPDEST JUMPDEST DUP1 DUP1 PUSH2 0x26CB SWAP1 PUSH2 0x4A2E JUMP JUMPDEST SWAP2 POP POP PUSH2 0x22A2 JUMP JUMPDEST POP DUP1 SWAP12 POP POP POP POP POP POP POP POP POP POP POP POP SWAP3 SWAP2 POP POP JUMP JUMPDEST PUSH1 0x0 DUP1 PUSH1 0x0 PUSH1 0x4 PUSH1 0x0 DUP7 PUSH20 0xFFFFFFFFFFFFFFFFFFFFFFFFFFFFFFFFFFFFFFFF AND PUSH20 0xFFFFFFFFFFFFFFFFFFFFFFFFFFFFFFFFFFFFFFFF AND DUP2 MSTORE PUSH1 0x20 ADD SWAP1 DUP2 MSTORE PUSH1 0x20 ADD PUSH1 0x0 KECCAK256 PUSH1 0x0 DUP6 PUSH4 0xFFFFFFFF AND PUSH4 0xFFFFFFFF AND DUP2 MSTORE PUSH1 0x20 ADD SWAP1 DUP2 MSTORE PUSH1 0x20 ADD PUSH1 0x0 KECCAK256 PUSH1 0x2 DUP1 PUSH1 0x20 MUL PUSH1 0x40 MLOAD SWAP1 DUP2 ADD PUSH1 0x40 MSTORE DUP1 SWAP3 SWAP2 SWAP1 DUP3 PUSH1 0x2 DUP1 ISZERO PUSH2 0x27A6 JUMPI PUSH1 0x20 MUL DUP3 ADD SWAP2 PUSH1 0x0 SWAP1 JUMPDEST DUP3 DUP3 SWAP1 SLOAD SWAP1 PUSH2 0x100 EXP SWAP1 DIV PUSH1 0xFF AND PUSH1 0xFF AND DUP2 MSTORE PUSH1 0x20 ADD SWAP1 PUSH1 0x1 ADD SWAP1 PUSH1 0x20 DUP3 PUSH1 0x0 ADD DIV SWAP3 DUP4 ADD SWAP3 PUSH1 0x1 SUB DUP3 MUL SWAP2 POP DUP1 DUP5 GT PUSH2 0x276F JUMPI SWAP1 POP JUMPDEST POP POP POP POP POP SWAP1 POP DUP1 PUSH1 0x0 PUSH1 0x2 DUP2 LT PUSH2 0x27C1 JUMPI PUSH2 0x27C0 PUSH2 0x49D0 JUMP JUMPDEST JUMPDEST PUSH1 0x20 MUL ADD MLOAD DUP2 PUSH1 0x1 PUSH1 0x2 DUP2 LT PUSH2 0x27DA JUMPI PUSH2 0x27D9 PUSH2 0x49D0 JUMP JUMPDEST JUMPDEST PUSH1 0x20 MUL ADD MLOAD SWAP3 POP SWAP3 POP POP SWAP3 POP SWAP3 SWAP1 POP JUMP JUMPDEST PUSH1 0x0 PUSH1 0x9 PUSH1 0x0 PUSH1 0xA SLOAD DUP2 MSTORE PUSH1 0x20 ADD SWAP1 DUP2 MSTORE PUSH1 0x20 ADD PUSH1 0x0 KECCAK256 PUSH1 0x0 DUP4 PUSH20 0xFFFFFFFFFFFFFFFFFFFFFFFFFFFFFFFFFFFFFFFF AND PUSH20 0xFFFFFFFFFFFFFFFFFFFFFFFFFFFFFFFFFFFFFFFF AND DUP2 MSTORE PUSH1 0x20 ADD SWAP1 DUP2 MSTORE PUSH1 0x20 ADD PUSH1 0x0 KECCAK256 PUSH1 0x0 SWAP1 SLOAD SWAP1 PUSH2 0x100 EXP SWAP1 DIV PUSH1 0xFF AND SWAP1 POP SWAP2 SWAP1 POP JUMP JUMPDEST PUSH2 0x285C PUSH2 0x34CC JUMP JUMPDEST PUSH1 0xC PUSH1 0x0 SWAP1 SLOAD SWAP1 PUSH2 0x100 EXP SWAP1 DIV PUSH20 0xFFFFFFFFFFFFFFFFFFFFFFFFFFFFFFFFFFFFFFFF AND PUSH20 0xFFFFFFFFFFFFFFFFFFFFFFFFFFFFFFFFFFFFFFFF AND PUSH4 0x18160DDD PUSH1 0x40 MLOAD DUP2 PUSH4 0xFFFFFFFF AND PUSH1 0xE0 SHL DUP2 MSTORE PUSH1 0x4 ADD PUSH1 0x20 PUSH1 0x40 MLOAD DUP1 DUP4 SUB DUP2 DUP7 GAS STATICCALL ISZERO DUP1 ISZERO PUSH2 0x28C9 JUMPI RETURNDATASIZE PUSH1 0x0 DUP1 RETURNDATACOPY RETURNDATASIZE PUSH1 0x0 REVERT JUMPDEST POP POP POP POP PUSH1 0x40 MLOAD RETURNDATASIZE PUSH1 0x1F NOT PUSH1 0x1F DUP3 ADD AND DUP3 ADD DUP1 PUSH1 0x40 MSTORE POP DUP2 ADD SWAP1 PUSH2 0x28ED SWAP2 SWAP1 PUSH2 0x4D08 JUMP JUMPDEST PUSH1 0x3 PUSH1 0x0 DUP4 DUP2 MSTORE PUSH1 0x20 ADD SWAP1 DUP2 MSTORE PUSH1 0x20 ADD PUSH1 0x0 KECCAK256 DUP2 SWAP1 SSTORE POP PUSH1 0x0 PUSH2 0x290F DUP3 PUSH2 0x9FD JUMP JUMPDEST SWAP1 POP PUSH1 0x0 PUSH2 0x291D DUP4 DUP4 PUSH2 0x1CE7 JUMP JUMPDEST SWAP1 POP PUSH1 0x0 PUSH1 0x8 PUSH1 0x0 DUP6 DUP2 MSTORE PUSH1 0x20 ADD SWAP1 DUP2 MSTORE PUSH1 0x20 ADD PUSH1 0x0 KECCAK256 PUSH1 0x40 MLOAD DUP1 PUSH1 0xA0 ADD PUSH1 0x40 MSTORE DUP1 DUP5 PUSH1 0x0 DUP2 MLOAD DUP2 LT PUSH2 0x2953 JUMPI PUSH2 0x2952 PUSH2 0x49D0 JUMP JUMPDEST JUMPDEST PUSH1 0x20 MUL PUSH1 0x20 ADD ADD MLOAD PUSH1 0x0 ADD MLOAD PUSH20 0xFFFFFFFFFFFFFFFFFFFFFFFFFFFFFFFFFFFFFFFF AND DUP2 MSTORE PUSH1 0x20 ADD PUSH1 0x1 DUP2 MSTORE PUSH1 0x20 ADD DUP5 PUSH1 0x0 DUP2 MLOAD DUP2 LT PUSH2 0x2995 JUMPI PUSH2 0x2994 PUSH2 0x49D0 JUMP JUMPDEST JUMPDEST PUSH1 0x20 MUL PUSH1 0x20 ADD ADD MLOAD PUSH1 0x20 ADD MLOAD DUP2 MSTORE PUSH1 0x20 ADD DUP5 PUSH1 0x0 DUP2 MLOAD DUP2 LT PUSH2 0x29BA JUMPI PUSH2 0x29B9 PUSH2 0x49D0 JUMP JUMPDEST JUMPDEST PUSH1 0x20 MUL PUSH1 0x20 ADD ADD MLOAD PUSH1 0x40 ADD MLOAD DUP2 MSTORE PUSH1 0x20 ADD DUP5 PUSH1 0x0 DUP2 MLOAD DUP2 LT PUSH2 0x29DF JUMPI PUSH2 0x29DE PUSH2 0x49D0 JUMP JUMPDEST JUMPDEST PUSH1 0x20 MUL PUSH1 0x20 ADD ADD MLOAD PUSH1 0xC0 ADD MLOAD DUP2 MSTORE POP SWAP1 DUP1 PUSH1 0x1 DUP2 SLOAD ADD DUP1 DUP3 SSTORE DUP1 SWAP2 POP POP PUSH1 0x1 SWAP1 SUB SWAP1 PUSH1 0x0 MSTORE PUSH1 0x20 PUSH1 0x0 KECCAK256 SWAP1 PUSH1 0x5 MUL ADD PUSH1 0x0 SWAP1 SWAP2 SWAP1 SWAP2 SWAP1 SWAP2 POP PUSH1 0x0 DUP3 ADD MLOAD DUP2 PUSH1 0x0 ADD PUSH1 0x0 PUSH2 0x100 EXP DUP2 SLOAD DUP2 PUSH20 0xFFFFFFFFFFFFFFFFFFFFFFFFFFFFFFFFFFFFFFFF MUL NOT AND SWAP1 DUP4 PUSH20 0xFFFFFFFFFFFFFFFFFFFFFFFFFFFFFFFFFFFFFFFF AND MUL OR SWAP1 SSTORE POP PUSH1 0x20 DUP3 ADD MLOAD DUP2 PUSH1 0x1 ADD SSTORE PUSH1 0x40 DUP3 ADD MLOAD DUP2 PUSH1 0x2 ADD SSTORE PUSH1 0x60 DUP3 ADD MLOAD DUP2 PUSH1 0x3 ADD SSTORE PUSH1 0x80 DUP3 ADD MLOAD DUP2 PUSH1 0x4 ADD SSTORE POP POP PUSH1 0x0 PUSH1 0x1 SWAP1 POP JUMPDEST PUSH1 0x3 PUSH1 0x0 DUP7 DUP2 MSTORE PUSH1 0x20 ADD SWAP1 DUP2 MSTORE PUSH1 0x20 ADD PUSH1 0x0 KECCAK256 SLOAD DUP2 LT ISZERO PUSH2 0x2D66 JUMPI DUP3 PUSH1 0x1 DUP3 PUSH2 0x2AB8 SWAP2 SWAP1 PUSH2 0x4EC5 JUMP JUMPDEST DUP2 MLOAD DUP2 LT PUSH2 0x2AC9 JUMPI PUSH2 0x2AC8 PUSH2 0x49D0 JUMP JUMPDEST JUMPDEST PUSH1 0x20 MUL PUSH1 0x20 ADD ADD MLOAD PUSH1 0x0 ADD MLOAD PUSH20 0xFFFFFFFFFFFFFFFFFFFFFFFFFFFFFFFFFFFFFFFF AND DUP4 DUP3 DUP2 MLOAD DUP2 LT PUSH2 0x2AFE JUMPI PUSH2 0x2AFD PUSH2 0x49D0 JUMP JUMPDEST JUMPDEST PUSH1 0x20 MUL PUSH1 0x20 ADD ADD MLOAD PUSH1 0x0 ADD MLOAD PUSH20 0xFFFFFFFFFFFFFFFFFFFFFFFFFFFFFFFFFFFFFFFF AND SUB PUSH2 0x2BE1 JUMPI PUSH1 0x8 PUSH1 0x0 DUP7 DUP2 MSTORE PUSH1 0x20 ADD SWAP1 DUP2 MSTORE PUSH1 0x20 ADD PUSH1 0x0 KECCAK256 DUP3 DUP2 SLOAD DUP2 LT PUSH2 0x2B4A JUMPI PUSH2 0x2B49 PUSH2 0x49D0 JUMP JUMPDEST JUMPDEST SWAP1 PUSH1 0x0 MSTORE PUSH1 0x20 PUSH1 0x0 KECCAK256 SWAP1 PUSH1 0x5 MUL ADD PUSH1 0x1 ADD PUSH1 0x0 DUP2 SLOAD DUP1 SWAP3 SWAP2 SWAP1 PUSH2 0x2B6C SWAP1 PUSH2 0x4A2E JUMP JUMPDEST SWAP2 SWAP1 POP SSTORE POP DUP3 DUP2 DUP2 MLOAD DUP2 LT PUSH2 0x2B84 JUMPI PUSH2 0x2B83 PUSH2 0x49D0 JUMP JUMPDEST JUMPDEST PUSH1 0x20 MUL PUSH1 0x20 ADD ADD MLOAD PUSH1 0xC0 ADD MLOAD PUSH1 0x8 PUSH1 0x0 DUP8 DUP2 MSTORE PUSH1 0x20 ADD SWAP1 DUP2 MSTORE PUSH1 0x20 ADD PUSH1 0x0 KECCAK256 DUP4 DUP2 SLOAD DUP2 LT PUSH2 0x2BB5 JUMPI PUSH2 0x2BB4 PUSH2 0x49D0 JUMP JUMPDEST JUMPDEST SWAP1 PUSH1 0x0 MSTORE PUSH1 0x20 PUSH1 0x0 KECCAK256 SWAP1 PUSH1 0x5 MUL ADD PUSH1 0x4 ADD PUSH1 0x0 DUP3 DUP3 SLOAD PUSH2 0x2BD5 SWAP2 SWAP1 PUSH2 0x4FB3 JUMP JUMPDEST SWAP3 POP POP DUP2 SWAP1 SSTORE POP PUSH2 0x2D53 JUMP JUMPDEST PUSH1 0x8 PUSH1 0x0 DUP7 DUP2 MSTORE PUSH1 0x20 ADD SWAP1 DUP2 MSTORE PUSH1 0x20 ADD PUSH1 0x0 KECCAK256 PUSH1 0x40 MLOAD DUP1 PUSH1 0xA0 ADD PUSH1 0x40 MSTORE DUP1 DUP6 DUP5 DUP2 MLOAD DUP2 LT PUSH2 0x2C12 JUMPI PUSH2 0x2C11 PUSH2 0x49D0 JUMP JUMPDEST JUMPDEST PUSH1 0x20 MUL PUSH1 0x20 ADD ADD MLOAD PUSH1 0x0 ADD MLOAD PUSH20 0xFFFFFFFFFFFFFFFFFFFFFFFFFFFFFFFFFFFFFFFF AND DUP2 MSTORE PUSH1 0x20 ADD PUSH1 0x1 DUP2 MSTORE PUSH1 0x20 ADD DUP6 DUP5 DUP2 MLOAD DUP2 LT PUSH2 0x2C53 JUMPI PUSH2 0x2C52 PUSH2 0x49D0 JUMP JUMPDEST JUMPDEST PUSH1 0x20 MUL PUSH1 0x20 ADD ADD MLOAD PUSH1 0x20 ADD MLOAD DUP2 MSTORE PUSH1 0x20 ADD DUP6 DUP5 DUP2 MLOAD DUP2 LT PUSH2 0x2C77 JUMPI PUSH2 0x2C76 PUSH2 0x49D0 JUMP JUMPDEST JUMPDEST PUSH1 0x20 MUL PUSH1 0x20 ADD ADD MLOAD PUSH1 0x40 ADD MLOAD DUP2 MSTORE PUSH1 0x20 ADD DUP6 DUP5 DUP2 MLOAD DUP2 LT PUSH2 0x2C9B JUMPI PUSH2 0x2C9A PUSH2 0x49D0 JUMP JUMPDEST JUMPDEST PUSH1 0x20 MUL PUSH1 0x20 ADD ADD MLOAD PUSH1 0xC0 ADD MLOAD DUP2 MSTORE POP SWAP1 DUP1 PUSH1 0x1 DUP2 SLOAD ADD DUP1 DUP3 SSTORE DUP1 SWAP2 POP POP PUSH1 0x1 SWAP1 SUB SWAP1 PUSH1 0x0 MSTORE PUSH1 0x20 PUSH1 0x0 KECCAK256 SWAP1 PUSH1 0x5 MUL ADD PUSH1 0x0 SWAP1 SWAP2 SWAP1 SWAP2 SWAP1 SWAP2 POP PUSH1 0x0 DUP3 ADD MLOAD DUP2 PUSH1 0x0 ADD PUSH1 0x0 PUSH2 0x100 EXP DUP2 SLOAD DUP2 PUSH20 0xFFFFFFFFFFFFFFFFFFFFFFFFFFFFFFFFFFFFFFFF MUL NOT AND SWAP1 DUP4 PUSH20 0xFFFFFFFFFFFFFFFFFFFFFFFFFFFFFFFFFFFFFFFF AND MUL OR SWAP1 SSTORE POP PUSH1 0x20 DUP3 ADD MLOAD DUP2 PUSH1 0x1 ADD SSTORE PUSH1 0x40 DUP3 ADD MLOAD DUP2 PUSH1 0x2 ADD SSTORE PUSH1 0x60 DUP3 ADD MLOAD DUP2 PUSH1 0x3 ADD SSTORE PUSH1 0x80 DUP3 ADD MLOAD DUP2 PUSH1 0x4 ADD SSTORE POP POP DUP2 DUP1 PUSH2 0x2D4F SWAP1 PUSH2 0x4A2E JUMP JUMPDEST SWAP3 POP POP JUMPDEST DUP1 DUP1 PUSH2 0x2D5E SWAP1 PUSH2 0x4A2E JUMP JUMPDEST SWAP2 POP POP PUSH2 0x2A8F JUMP JUMPDEST POP PUSH1 0x0 JUMPDEST PUSH1 0x8 PUSH1 0x0 DUP7 DUP2 MSTORE PUSH1 0x20 ADD SWAP1 DUP2 MSTORE PUSH1 0x20 ADD PUSH1 0x0 KECCAK256 DUP1 SLOAD SWAP1 POP DUP2 LT ISZERO PUSH2 0x2EBC JUMPI PUSH1 0x0 PUSH1 0x8 PUSH1 0x0 DUP8 DUP2 MSTORE PUSH1 0x20 ADD SWAP1 DUP2 MSTORE PUSH1 0x20 ADD PUSH1 0x0 KECCAK256 DUP3 DUP2 SLOAD DUP2 LT PUSH2 0x2DAF JUMPI PUSH2 0x2DAE PUSH2 0x49D0 JUMP JUMPDEST JUMPDEST SWAP1 PUSH1 0x0 MSTORE PUSH1 0x20 PUSH1 0x0 KECCAK256 SWAP1 PUSH1 0x5 MUL ADD PUSH1 0x0 ADD PUSH1 0x0 SWAP1 SLOAD SWAP1 PUSH2 0x100 EXP SWAP1 DIV PUSH20 0xFFFFFFFFFFFFFFFFFFFFFFFFFFFFFFFFFFFFFFFF AND SWAP1 POP PUSH1 0xE PUSH1 0x0 SWAP1 SLOAD SWAP1 PUSH2 0x100 EXP SWAP1 DIV PUSH20 0xFFFFFFFFFFFFFFFFFFFFFFFFFFFFFFFFFFFFFFFF AND PUSH20 0xFFFFFFFFFFFFFFFFFFFFFFFFFFFFFFFFFFFFFFFF AND PUSH4 0x71DD8840 DUP3 PUSH1 0x8 PUSH1 0x0 DUP11 DUP2 MSTORE PUSH1 0x20 ADD SWAP1 DUP2 MSTORE PUSH1 0x20 ADD PUSH1 0x0 KECCAK256 DUP6 DUP2 SLOAD DUP2 LT PUSH2 0x2E47 JUMPI PUSH2 0x2E46 PUSH2 0x49D0 JUMP JUMPDEST JUMPDEST SWAP1 PUSH1 0x0 MSTORE PUSH1 0x20 PUSH1 0x0 KECCAK256 SWAP1 PUSH1 0x5 MUL ADD PUSH1 0x4 ADD SLOAD PUSH1 0x40 MLOAD DUP4 PUSH4 0xFFFFFFFF AND PUSH1 0xE0 SHL DUP2 MSTORE PUSH1 0x4 ADD PUSH2 0x2E76 SWAP3 SWAP2 SWAP1 PUSH2 0x5009 JUMP JUMPDEST PUSH1 0x0 PUSH1 0x40 MLOAD DUP1 DUP4 SUB DUP2 PUSH1 0x0 DUP8 DUP1 EXTCODESIZE ISZERO DUP1 ISZERO PUSH2 0x2E90 JUMPI PUSH1 0x0 DUP1 REVERT JUMPDEST POP GAS CALL ISZERO DUP1 ISZERO PUSH2 0x2EA4 JUMPI RETURNDATASIZE PUSH1 0x0 DUP1 RETURNDATACOPY RETURNDATASIZE PUSH1 0x0 REVERT JUMPDEST POP POP POP POP POP DUP1 DUP1 PUSH2 0x2EB4 SWAP1 PUSH2 0x4A2E JUMP JUMPDEST SWAP2 POP POP PUSH2 0x2D6A JUMP JUMPDEST POP POP POP POP POP JUMP JUMPDEST PUSH2 0x2ECB PUSH2 0x34CC JUMP JUMPDEST PUSH1 0x0 PUSH1 0x30 SWAP1 POP PUSH1 0x0 PUSH1 0xC PUSH1 0x0 SWAP1 SLOAD SWAP1 PUSH2 0x100 EXP SWAP1 DIV PUSH20 0xFFFFFFFFFFFFFFFFFFFFFFFFFFFFFFFFFFFFFFFF AND PUSH20 0xFFFFFFFFFFFFFFFFFFFFFFFFFFFFFFFFFFFFFFFF AND PUSH4 0x70A08231 DUP6 PUSH1 0x40 MLOAD DUP3 PUSH4 0xFFFFFFFF AND PUSH1 0xE0 SHL DUP2 MSTORE PUSH1 0x4 ADD PUSH2 0x2F2E SWAP2 SWAP1 PUSH2 0x4310 JUMP JUMPDEST PUSH1 0x20 PUSH1 0x40 MLOAD DUP1 DUP4 SUB DUP2 DUP7 GAS STATICCALL ISZERO DUP1 ISZERO PUSH2 0x2F4B JUMPI RETURNDATASIZE PUSH1 0x0 DUP1 RETURNDATACOPY RETURNDATASIZE PUSH1 0x0 REVERT JUMPDEST POP POP POP POP PUSH1 0x40 MLOAD RETURNDATASIZE PUSH1 0x1F NOT PUSH1 0x1F DUP3 ADD AND DUP3 ADD DUP1 PUSH1 0x40 MSTORE POP DUP2 ADD SWAP1 PUSH2 0x2F6F SWAP2 SWAP1 PUSH2 0x4D08 JUMP JUMPDEST SWAP1 POP PUSH1 0x0 JUMPDEST DUP3 DUP2 LT ISZERO PUSH2 0x3075 JUMPI PUSH1 0x40 MLOAD DUP1 PUSH1 0x40 ADD PUSH1 0x40 MSTORE DUP1 DUP6 DUP4 DUP2 MLOAD DUP2 LT PUSH2 0x2F9A JUMPI PUSH2 0x2F99 PUSH2 0x49D0 JUMP JUMPDEST JUMPDEST PUSH1 0x20 MUL PUSH1 0x20 ADD ADD MLOAD PUSH1 0x20 ADD MLOAD PUSH1 0xFF AND PUSH1 0xFF AND DUP2 MSTORE PUSH1 0x20 ADD DUP6 DUP4 DUP2 MLOAD DUP2 LT PUSH2 0x2FC4 JUMPI PUSH2 0x2FC3 PUSH2 0x49D0 JUMP JUMPDEST JUMPDEST PUSH1 0x20 MUL PUSH1 0x20 ADD ADD MLOAD PUSH1 0x40 ADD MLOAD PUSH1 0xFF AND PUSH1 0xFF AND DUP2 MSTORE POP PUSH1 0x4 PUSH1 0x0 DUP8 PUSH20 0xFFFFFFFFFFFFFFFFFFFFFFFFFFFFFFFFFFFFFFFF AND PUSH20 0xFFFFFFFFFFFFFFFFFFFFFFFFFFFFFFFFFFFFFFFF AND DUP2 MSTORE PUSH1 0x20 ADD SWAP1 DUP2 MSTORE PUSH1 0x20 ADD PUSH1 0x0 KECCAK256 PUSH1 0x0 DUP7 DUP5 DUP2 MLOAD DUP2 LT PUSH2 0x302D JUMPI PUSH2 0x302C PUSH2 0x49D0 JUMP JUMPDEST JUMPDEST PUSH1 0x20 MUL PUSH1 0x20 ADD ADD MLOAD PUSH1 0x0 ADD MLOAD PUSH4 0xFFFFFFFF AND PUSH4 0xFFFFFFFF AND DUP2 MSTORE PUSH1 0x20 ADD SWAP1 DUP2 MSTORE PUSH1 0x20 ADD PUSH1 0x0 KECCAK256 SWAP1 PUSH1 0x2 PUSH2 0x3061 SWAP3 SWAP2 SWAP1 PUSH2 0x38B9 JUMP JUMPDEST POP DUP1 DUP1 PUSH2 0x306D SWAP1 PUSH2 0x4A2E JUMP JUMPDEST SWAP2 POP POP PUSH2 0x2F74 JUMP JUMPDEST POP PUSH1 0x2 PUSH1 0x0 PUSH1 0xA SLOAD DUP2 MSTORE PUSH1 0x20 ADD SWAP1 DUP2 MSTORE PUSH1 0x20 ADD PUSH1 0x0 KECCAK256 PUSH1 0x40 MLOAD DUP1 PUSH1 0x40 ADD PUSH1 0x40 MSTORE DUP1 DUP7 PUSH20 0xFFFFFFFFFFFFFFFFFFFFFFFFFFFFFFFFFFFFFFFF AND DUP2 MSTORE PUSH1 0x20 ADD DUP4 DUP2 MSTORE POP SWAP1 DUP1 PUSH1 0x1 DUP2 SLOAD ADD DUP1 DUP3 SSTORE DUP1 SWAP2 POP POP PUSH1 0x1 SWAP1 SUB SWAP1 PUSH1 0x0 MSTORE PUSH1 0x20 PUSH1 0x0 KECCAK256 SWAP1 PUSH1 0x2 MUL ADD PUSH1 0x0 SWAP1 SWAP2 SWAP1 SWAP2 SWAP1 SWAP2 POP PUSH1 0x0 DUP3 ADD MLOAD DUP2 PUSH1 0x0 ADD PUSH1 0x0 PUSH2 0x100 EXP DUP2 SLOAD DUP2 PUSH20 0xFFFFFFFFFFFFFFFFFFFFFFFFFFFFFFFFFFFFFFFF MUL NOT AND SWAP1 DUP4 PUSH20 0xFFFFFFFFFFFFFFFFFFFFFFFFFFFFFFFFFFFFFFFF AND MUL OR SWAP1 SSTORE POP PUSH1 0x20 DUP3 ADD MLOAD DUP2 PUSH1 0x1 ADD SSTORE POP POP PUSH1 0x1 PUSH1 0x9 PUSH1 0x0 PUSH1 0xA SLOAD DUP2 MSTORE PUSH1 0x20 ADD SWAP1 DUP2 MSTORE PUSH1 0x20 ADD PUSH1 0x0 KECCAK256 PUSH1 0x0 DUP7 PUSH20 0xFFFFFFFFFFFFFFFFFFFFFFFFFFFFFFFFFFFFFFFF AND PUSH20 0xFFFFFFFFFFFFFFFFFFFFFFFFFFFFFFFFFFFFFFFF AND DUP2 MSTORE PUSH1 0x20 ADD SWAP1 DUP2 MSTORE PUSH1 0x20 ADD PUSH1 0x0 KECCAK256 PUSH1 0x0 PUSH2 0x100 EXP DUP2 SLOAD DUP2 PUSH1 0xFF MUL NOT AND SWAP1 DUP4 ISZERO ISZERO MUL OR SWAP1 SSTORE POP POP POP POP POP JUMP JUMPDEST PUSH1 0x60 PUSH1 0x7 PUSH1 0x0 DUP4 DUP2 MSTORE PUSH1 0x20 ADD SWAP1 DUP2 MSTORE PUSH1 0x20 ADD PUSH1 0x0 KECCAK256 DUP1 SLOAD DUP1 PUSH1 0x20 MUL PUSH1 0x20 ADD PUSH1 0x40 MLOAD SWAP1 DUP2 ADD PUSH1 0x40 MSTORE DUP1 SWAP3 SWAP2 SWAP1 DUP2 DUP2 MSTORE PUSH1 0x20 ADD DUP3 DUP1 SLOAD DUP1 ISZERO PUSH2 0x3202 JUMPI PUSH1 0x20 MUL DUP3 ADD SWAP2 SWAP1 PUSH1 0x0 MSTORE PUSH1 0x20 PUSH1 0x0 KECCAK256 SWAP1 JUMPDEST DUP2 SLOAD DUP2 MSTORE PUSH1 0x20 ADD SWAP1 PUSH1 0x1 ADD SWAP1 DUP1 DUP4 GT PUSH2 0x31EE JUMPI JUMPDEST POP POP POP POP POP SWAP1 POP SWAP2 SWAP1 POP JUMP JUMPDEST PUSH2 0x3216 PUSH2 0x34CC JUMP JUMPDEST PUSH1 0x0 PUSH20 0xFFFFFFFFFFFFFFFFFFFFFFFFFFFFFFFFFFFFFFFF AND DUP2 PUSH20 0xFFFFFFFFFFFFFFFFFFFFFFFFFFFFFFFFFFFFFFFF AND SUB PUSH2 0x3285 JUMPI PUSH1 0x40 MLOAD PUSH32 0x8C379A000000000000000000000000000000000000000000000000000000000 DUP2 MSTORE PUSH1 0x4 ADD PUSH2 0x327C SWAP1 PUSH2 0x50A4 JUMP JUMPDEST PUSH1 0x40 MLOAD DUP1 SWAP2 SUB SWAP1 REVERT JUMPDEST PUSH2 0x328E DUP2 PUSH2 0x35AC JUMP JUMPDEST POP JUMP JUMPDEST PUSH1 0x0 DUP1 DUP3 PUSH1 0xFF AND DUP5 PUSH1 0xFF AND GT ISZERO PUSH2 0x32AB JUMPI PUSH1 0x0 SWAP1 POP PUSH2 0x32C8 JUMP JUMPDEST DUP4 PUSH1 0xFF AND DUP4 PUSH1 0xFF AND GT ISZERO PUSH2 0x32C2 JUMPI PUSH1 0x2 SWAP1 POP PUSH2 0x32C7 JUMP JUMPDEST PUSH1 0x1 SWAP1 POP JUMPDEST JUMPDEST DUP1 SWAP2 POP POP SWAP3 SWAP2 POP POP JUMP JUMPDEST PUSH1 0x0 PUSH1 0xA SLOAD SWAP1 POP SWAP1 JUMP JUMPDEST PUSH1 0x0 DUP1 PUSH1 0x0 DUP1 PUSH1 0x0 SWAP1 POP PUSH1 0x0 DUP1 PUSH2 0x32F2 DUP9 PUSH2 0x8ED JUMP JUMPDEST SWAP1 POP PUSH1 0x0 JUMPDEST DUP2 DUP2 LT ISZERO PUSH2 0x34BD JUMPI PUSH1 0x6 PUSH1 0x0 DUP11 DUP2 MSTORE PUSH1 0x20 ADD SWAP1 DUP2 MSTORE PUSH1 0x20 ADD PUSH1 0x0 KECCAK256 DUP2 DUP2 SLOAD DUP2 LT PUSH2 0x3324 JUMPI PUSH2 0x3323 PUSH2 0x49D0 JUMP JUMPDEST JUMPDEST SWAP1 PUSH1 0x0 MSTORE PUSH1 0x20 PUSH1 0x0 KECCAK256 SWAP1 PUSH1 0x8 SWAP2 DUP3 DUP3 DIV ADD SWAP2 SWAP1 MOD PUSH1 0x4 MUL SWAP1 SLOAD SWAP1 PUSH2 0x100 EXP SWAP1 DIV PUSH4 0xFFFFFFFF AND SWAP3 POP PUSH1 0x1 PUSH1 0x5 PUSH1 0x0 DUP6 PUSH4 0xFFFFFFFF AND PUSH4 0xFFFFFFFF AND DUP2 MSTORE PUSH1 0x20 ADD SWAP1 DUP2 MSTORE PUSH1 0x20 ADD PUSH1 0x0 KECCAK256 PUSH1 0x2 PUSH1 0x3 DUP2 LT PUSH2 0x3380 JUMPI PUSH2 0x337F PUSH2 0x49D0 JUMP JUMPDEST JUMPDEST PUSH1 0x20 SWAP2 DUP3 DUP3 DIV ADD SWAP2 SWAP1 MOD SWAP1 SLOAD SWAP1 PUSH2 0x100 EXP SWAP1 DIV PUSH1 0xFF AND PUSH1 0xFF AND SUB PUSH2 0x34AA JUMPI PUSH1 0x0 PUSH1 0x5 PUSH1 0x0 DUP6 PUSH4 0xFFFFFFFF AND PUSH4 0xFFFFFFFF AND DUP2 MSTORE PUSH1 0x20 ADD SWAP1 DUP2 MSTORE PUSH1 0x20 ADD PUSH1 0x0 KECCAK256 PUSH1 0x0 PUSH1 0x3 DUP2 LT PUSH2 0x33D2 JUMPI PUSH2 0x33D1 PUSH2 0x49D0 JUMP JUMPDEST JUMPDEST PUSH1 0x20 SWAP2 DUP3 DUP3 DIV ADD SWAP2 SWAP1 MOD SWAP1 SLOAD SWAP1 PUSH2 0x100 EXP SWAP1 DIV PUSH1 0xFF AND SWAP1 POP PUSH1 0x0 PUSH1 0x5 PUSH1 0x0 DUP7 PUSH4 0xFFFFFFFF AND PUSH4 0xFFFFFFFF AND DUP2 MSTORE PUSH1 0x20 ADD SWAP1 DUP2 MSTORE PUSH1 0x20 ADD PUSH1 0x0 KECCAK256 PUSH1 0x1 PUSH1 0x3 DUP2 LT PUSH2 0x341E JUMPI PUSH2 0x341D PUSH2 0x49D0 JUMP JUMPDEST JUMPDEST PUSH1 0x20 SWAP2 DUP3 DUP3 DIV ADD SWAP2 SWAP1 MOD SWAP1 SLOAD SWAP1 PUSH2 0x100 EXP SWAP1 DIV PUSH1 0xFF AND SWAP1 POP PUSH1 0x0 DUP1 PUSH2 0x3443 DUP13 DUP9 PUSH2 0x26E8 JUMP JUMPDEST SWAP2 POP SWAP2 POP PUSH2 0x3451 DUP3 DUP3 PUSH2 0x3291 JUMP JUMPDEST SWAP10 POP PUSH2 0x345D DUP5 DUP5 PUSH2 0x3291 JUMP JUMPDEST SWAP9 POP DUP9 DUP11 SUB PUSH2 0x34A5 JUMPI PUSH1 0x1 DUP9 PUSH2 0x3473 SWAP2 SWAP1 PUSH2 0x4FB3 JUMP JUMPDEST SWAP8 POP DUP4 PUSH1 0xFF AND DUP3 PUSH1 0xFF AND EQ DUP1 ISZERO PUSH2 0x348F JUMPI POP DUP3 PUSH1 0xFF AND DUP2 PUSH1 0xFF AND EQ JUMPDEST ISZERO PUSH2 0x34A4 JUMPI PUSH1 0x2 DUP9 PUSH2 0x34A1 SWAP2 SWAP1 PUSH2 0x4FB3 JUMP JUMPDEST SWAP8 POP JUMPDEST JUMPDEST POP POP POP POP JUMPDEST DUP1 DUP1 PUSH2 0x34B5 SWAP1 PUSH2 0x4A2E JUMP JUMPDEST SWAP2 POP POP PUSH2 0x32F7 JUMP JUMPDEST POP DUP3 SWAP6 POP POP POP POP POP POP SWAP3 SWAP2 POP POP JUMP JUMPDEST PUSH2 0x34D4 PUSH2 0x36D3 JUMP JUMPDEST PUSH20 0xFFFFFFFFFFFFFFFFFFFFFFFFFFFFFFFFFFFFFFFF AND PUSH2 0x34F2 PUSH2 0x146B JUMP JUMPDEST PUSH20 0xFFFFFFFFFFFFFFFFFFFFFFFFFFFFFFFFFFFFFFFF AND EQ PUSH2 0x3548 JUMPI PUSH1 0x40 MLOAD PUSH32 0x8C379A000000000000000000000000000000000000000000000000000000000 DUP2 MSTORE PUSH1 0x4 ADD PUSH2 0x353F SWAP1 PUSH2 0x5110 JUMP JUMPDEST PUSH1 0x40 MLOAD DUP1 SWAP2 SUB SWAP1 REVERT JUMPDEST JUMP JUMPDEST PUSH2 0x3552 PUSH2 0x36DB JUMP JUMPDEST PUSH1 0x0 DUP1 PUSH1 0x14 PUSH2 0x100 EXP DUP2 SLOAD DUP2 PUSH1 0xFF MUL NOT AND SWAP1 DUP4 ISZERO ISZERO MUL OR SWAP1 SSTORE POP PUSH32 0x5DB9EE0A495BF2E6FF9C91A7834C1BA4FDD244A5E8AA4E537BD38AEAE4B073AA PUSH2 0x3595 PUSH2 0x36D3 JUMP JUMPDEST PUSH1 0x40 MLOAD PUSH2 0x35A2 SWAP2 SWAP1 PUSH2 0x4310 JUMP JUMPDEST PUSH1 0x40 MLOAD DUP1 SWAP2 SUB SWAP1 LOG1 JUMP JUMPDEST PUSH1 0x0 DUP1 PUSH1 0x0 SWAP1 SLOAD SWAP1 PUSH2 0x100 EXP SWAP1 DIV PUSH20 0xFFFFFFFFFFFFFFFFFFFFFFFFFFFFFFFFFFFFFFFF AND SWAP1 POP DUP2 PUSH1 0x0 DUP1 PUSH2 0x100 EXP DUP2 SLOAD DUP2 PUSH20 0xFFFFFFFFFFFFFFFFFFFFFFFFFFFFFFFFFFFFFFFF MUL NOT AND SWAP1 DUP4 PUSH20 0xFFFFFFFFFFFFFFFFFFFFFFFFFFFFFFFFFFFFFFFF AND MUL OR SWAP1 SSTORE POP DUP2 PUSH20 0xFFFFFFFFFFFFFFFFFFFFFFFFFFFFFFFFFFFFFFFF AND DUP2 PUSH20 0xFFFFFFFFFFFFFFFFFFFFFFFFFFFFFFFFFFFFFFFF AND PUSH32 0x8BE0079C531659141344CD1FD0A4F28419497F9722A3DAAFE3B4186F6B6457E0 PUSH1 0x40 MLOAD PUSH1 0x40 MLOAD DUP1 SWAP2 SUB SWAP1 LOG3 POP POP JUMP JUMPDEST PUSH2 0x3678 PUSH2 0x3724 JUMP JUMPDEST PUSH1 0x1 PUSH1 0x0 PUSH1 0x14 PUSH2 0x100 EXP DUP2 SLOAD DUP2 PUSH1 0xFF MUL NOT AND SWAP1 DUP4 ISZERO ISZERO MUL OR SWAP1 SSTORE POP PUSH32 0x62E78CEA01BEE320CD4E420270B5EA74000D11B0C9F74754EBDBFC544B05A258 PUSH2 0x36BC PUSH2 0x36D3 JUMP JUMPDEST PUSH1 0x40 MLOAD PUSH2 0x36C9 SWAP2 SWAP1 PUSH2 0x4310 JUMP JUMPDEST PUSH1 0x40 MLOAD DUP1 SWAP2 SUB SWAP1 LOG1 JUMP JUMPDEST PUSH1 0x0 CALLER SWAP1 POP SWAP1 JUMP JUMPDEST PUSH2 0x36E3 PUSH2 0x10AF JUMP JUMPDEST PUSH2 0x3722 JUMPI PUSH1 0x40 MLOAD PUSH32 0x8C379A000000000000000000000000000000000000000000000000000000000 DUP2 MSTORE PUSH1 0x4 ADD PUSH2 0x3719 SWAP1 PUSH2 0x517C JUMP JUMPDEST PUSH1 0x40 MLOAD DUP1 SWAP2 SUB SWAP1 REVERT JUMPDEST JUMP JUMPDEST PUSH2 0x372C PUSH2 0x10AF JUMP JUMPDEST ISZERO PUSH2 0x376C JUMPI PUSH1 0x40 MLOAD PUSH32 0x8C379A000000000000000000000000000000000000000000000000000000000 DUP2 MSTORE PUSH1 0x4 ADD PUSH2 0x3763 SWAP1 PUSH2 0x51E8 JUMP JUMPDEST PUSH1 0x40 MLOAD DUP1 SWAP2 SUB SWAP1 REVERT JUMPDEST JUMP JUMPDEST PUSH1 0x40 MLOAD DUP1 PUSH1 0x60 ADD PUSH1 0x40 MSTORE DUP1 PUSH1 0x0 PUSH4 0xFFFFFFFF AND DUP2 MSTORE PUSH1 0x20 ADD PUSH1 0x0 PUSH1 0xFF AND DUP2 MSTORE PUSH1 0x20 ADD PUSH1 0x0 PUSH1 0xFF AND DUP2 MSTORE POP SWAP1 JUMP JUMPDEST PUSH1 0x40 MLOAD DUP1 PUSH1 0x60 ADD PUSH1 0x40 MSTORE DUP1 PUSH1 0x0 PUSH20 0xFFFFFFFFFFFFFFFFFFFFFFFFFFFFFFFFFFFFFFFF AND DUP2 MSTORE PUSH1 0x20 ADD PUSH1 0x0 DUP2 MSTORE PUSH1 0x20 ADD PUSH1 0x0 DUP2 MSTORE POP SWAP1 JUMP JUMPDEST DUP3 DUP1 SLOAD DUP3 DUP3 SSTORE SWAP1 PUSH1 0x0 MSTORE PUSH1 0x20 PUSH1 0x0 KECCAK256 SWAP1 PUSH1 0x7 ADD PUSH1 0x8 SWAP1 DIV DUP2 ADD SWAP3 DUP3 ISZERO PUSH2 0x3871 JUMPI SWAP2 PUSH1 0x20 MUL DUP3 ADD PUSH1 0x0 JUMPDEST DUP4 DUP3 GT ISZERO PUSH2 0x383F JUMPI DUP4 MLOAD DUP4 DUP3 PUSH2 0x100 EXP DUP2 SLOAD DUP2 PUSH4 0xFFFFFFFF MUL NOT AND SWAP1 DUP4 PUSH4 0xFFFFFFFF AND MUL OR SWAP1 SSTORE POP SWAP3 PUSH1 0x20 ADD SWAP3 PUSH1 0x4 ADD PUSH1 0x20 DUP2 PUSH1 0x3 ADD DIV SWAP3 DUP4 ADD SWAP3 PUSH1 0x1 SUB MUL PUSH2 0x37FB JUMP JUMPDEST DUP1 ISZERO PUSH2 0x386F JUMPI DUP3 DUP2 PUSH2 0x100 EXP DUP2 SLOAD SWAP1 PUSH4 0xFFFFFFFF MUL NOT AND SWAP1 SSTORE PUSH1 0x4 ADD PUSH1 0x20 DUP2 PUSH1 0x3 ADD DIV SWAP3 DUP4 ADD SWAP3 PUSH1 0x1 SUB MUL PUSH2 0x383F JUMP JUMPDEST POP JUMPDEST POP SWAP1 POP PUSH2 0x387E SWAP2 SWAP1 PUSH2 0x39D6 JUMP JUMPDEST POP SWAP1 JUMP JUMPDEST PUSH1 0x40 MLOAD DUP1 PUSH1 0x60 ADD PUSH1 0x40 MSTORE DUP1 PUSH1 0x0 PUSH20 0xFFFFFFFFFFFFFFFFFFFFFFFFFFFFFFFFFFFFFFFF AND DUP2 MSTORE PUSH1 0x20 ADD PUSH1 0x0 DUP2 MSTORE PUSH1 0x20 ADD PUSH1 0x0 DUP2 MSTORE POP SWAP1 JUMP JUMPDEST DUP3 PUSH1 0x2 PUSH1 0x1F ADD PUSH1 0x20 SWAP1 DIV DUP2 ADD SWAP3 DUP3 ISZERO PUSH2 0x3942 JUMPI SWAP2 PUSH1 0x20 MUL DUP3 ADD PUSH1 0x0 JUMPDEST DUP4 DUP3 GT ISZERO PUSH2 0x3913 JUMPI DUP4 MLOAD DUP4 DUP3 PUSH2 0x100 EXP DUP2 SLOAD DUP2 PUSH1 0xFF MUL NOT AND SWAP1 DUP4 PUSH1 0xFF AND MUL OR SWAP1 SSTORE POP SWAP3 PUSH1 0x20 ADD SWAP3 PUSH1 0x1 ADD PUSH1 0x20 DUP2 PUSH1 0x0 ADD DIV SWAP3 DUP4 ADD SWAP3 PUSH1 0x1 SUB MUL PUSH2 0x38D5 JUMP JUMPDEST DUP1 ISZERO PUSH2 0x3940 JUMPI DUP3 DUP2 PUSH2 0x100 EXP DUP2 SLOAD SWAP1 PUSH1 0xFF MUL NOT AND SWAP1 SSTORE PUSH1 0x1 ADD PUSH1 0x20 DUP2 PUSH1 0x0 ADD DIV SWAP3 DUP4 ADD SWAP3 PUSH1 0x1 SUB MUL PUSH2 0x3913 JUMP JUMPDEST POP JUMPDEST POP SWAP1 POP PUSH2 0x394F SWAP2 SWAP1 PUSH2 0x39D6 JUMP JUMPDEST POP SWAP1 JUMP JUMPDEST PUSH1 0x40 MLOAD DUP1 PUSH1 0x40 ADD PUSH1 0x40 MSTORE DUP1 PUSH1 0x0 PUSH20 0xFFFFFFFFFFFFFFFFFFFFFFFFFFFFFFFFFFFFFFFF AND DUP2 MSTORE PUSH1 0x20 ADD PUSH1 0x0 DUP2 MSTORE POP SWAP1 JUMP JUMPDEST PUSH1 0x40 MLOAD DUP1 PUSH1 0xE0 ADD PUSH1 0x40 MSTORE DUP1 PUSH1 0x0 PUSH20 0xFFFFFFFFFFFFFFFFFFFFFFFFFFFFFFFFFFFFFFFF AND DUP2 MSTORE PUSH1 0x20 ADD PUSH1 0x0 DUP2 MSTORE PUSH1 0x20 ADD PUSH1 0x0 DUP2 MSTORE PUSH1 0x20 ADD PUSH1 0x0 DUP2 MSTORE PUSH1 0x20 ADD PUSH1 0x0 DUP2 MSTORE PUSH1 0x20 ADD PUSH1 0x0 DUP2 MSTORE PUSH1 0x20 ADD PUSH1 0x0 DUP2 MSTORE POP SWAP1 JUMP JUMPDEST JUMPDEST DUP1 DUP3 GT ISZERO PUSH2 0x39EF JUMPI PUSH1 0x0 DUP2 PUSH1 0x0 SWAP1 SSTORE POP PUSH1 0x1 ADD PUSH2 0x39D7 JUMP JUMPDEST POP SWAP1 JUMP JUMPDEST PUSH1 0x0 DUP2 SWAP1 POP SWAP2 SWAP1 POP JUMP JUMPDEST PUSH2 0x3A06 DUP2 PUSH2 0x39F3 JUMP JUMPDEST DUP3 MSTORE POP POP JUMP JUMPDEST PUSH1 0x0 PUSH1 0x20 DUP3 ADD SWAP1 POP PUSH2 0x3A21 PUSH1 0x0 DUP4 ADD DUP5 PUSH2 0x39FD JUMP JUMPDEST SWAP3 SWAP2 POP POP JUMP JUMPDEST PUSH1 0x0 PUSH1 0x40 MLOAD SWAP1 POP SWAP1 JUMP JUMPDEST PUSH1 0x0 DUP1 REVERT JUMPDEST PUSH1 0x0 DUP1 REVERT JUMPDEST PUSH2 0x3A44 DUP2 PUSH2 0x39F3 JUMP JUMPDEST DUP2 EQ PUSH2 0x3A4F JUMPI PUSH1 0x0 DUP1 REVERT JUMPDEST POP JUMP JUMPDEST PUSH1 0x0 DUP2 CALLDATALOAD SWAP1 POP PUSH2 0x3A61 DUP2 PUSH2 0x3A3B JUMP JUMPDEST SWAP3 SWAP2 POP POP JUMP JUMPDEST PUSH1 0x0 PUSH20 0xFFFFFFFFFFFFFFFFFFFFFFFFFFFFFFFFFFFFFFFF DUP3 AND SWAP1 POP SWAP2 SWAP1 POP JUMP JUMPDEST PUSH1 0x0 PUSH2 0x3A92 DUP3 PUSH2 0x3A67 JUMP JUMPDEST SWAP1 POP SWAP2 SWAP1 POP JUMP JUMPDEST PUSH2 0x3AA2 DUP2 PUSH2 0x3A87 JUMP JUMPDEST DUP2 EQ PUSH2 0x3AAD JUMPI PUSH1 0x0 DUP1 REVERT JUMPDEST POP JUMP JUMPDEST PUSH1 0x0 DUP2 CALLDATALOAD SWAP1 POP PUSH2 0x3ABF DUP2 PUSH2 0x3A99 JUMP JUMPDEST SWAP3 SWAP2 POP POP JUMP JUMPDEST PUSH1 0x0 DUP1 PUSH1 0x40 DUP4 DUP6 SUB SLT ISZERO PUSH2 0x3ADC JUMPI PUSH2 0x3ADB PUSH2 0x3A31 JUMP JUMPDEST JUMPDEST PUSH1 0x0 PUSH2 0x3AEA DUP6 DUP3 DUP7 ADD PUSH2 0x3A52 JUMP JUMPDEST SWAP3 POP POP PUSH1 0x20 PUSH2 0x3AFB DUP6 DUP3 DUP7 ADD PUSH2 0x3AB0 JUMP JUMPDEST SWAP2 POP POP SWAP3 POP SWAP3 SWAP1 POP JUMP JUMPDEST PUSH1 0x0 DUP2 MLOAD SWAP1 POP SWAP2 SWAP1 POP JUMP JUMPDEST PUSH1 0x0 DUP3 DUP3 MSTORE PUSH1 0x20 DUP3 ADD SWAP1 POP SWAP3 SWAP2 POP POP JUMP JUMPDEST PUSH1 0x0 DUP2 SWAP1 POP PUSH1 0x20 DUP3 ADD SWAP1 POP SWAP2 SWAP1 POP JUMP JUMPDEST PUSH1 0x0 PUSH4 0xFFFFFFFF DUP3 AND SWAP1 POP SWAP2 SWAP1 POP JUMP JUMPDEST PUSH2 0x3B4A DUP2 PUSH2 0x3B31 JUMP JUMPDEST DUP3 MSTORE POP POP JUMP JUMPDEST PUSH1 0x0 PUSH1 0xFF DUP3 AND SWAP1 POP SWAP2 SWAP1 POP JUMP JUMPDEST PUSH2 0x3B66 DUP2 PUSH2 0x3B50 JUMP JUMPDEST DUP3 MSTORE POP POP JUMP JUMPDEST PUSH1 0x60 DUP3 ADD PUSH1 0x0 DUP3 ADD MLOAD PUSH2 0x3B82 PUSH1 0x0 DUP6 ADD DUP3 PUSH2 0x3B41 JUMP JUMPDEST POP PUSH1 0x20 DUP3 ADD MLOAD PUSH2 0x3B95 PUSH1 0x20 DUP6 ADD DUP3 PUSH2 0x3B5D JUMP JUMPDEST POP PUSH1 0x40 DUP3 ADD MLOAD PUSH2 0x3BA8 PUSH1 0x40 DUP6 ADD DUP3 PUSH2 0x3B5D JUMP JUMPDEST POP POP POP POP JUMP JUMPDEST PUSH1 0x0 PUSH2 0x3BBA DUP4 DUP4 PUSH2 0x3B6C JUMP JUMPDEST PUSH1 0x60 DUP4 ADD SWAP1 POP SWAP3 SWAP2 POP POP JUMP JUMPDEST PUSH1 0x0 PUSH1 0x20 DUP3 ADD SWAP1 POP SWAP2 SWAP1 POP JUMP JUMPDEST PUSH1 0x0 PUSH2 0x3BDE DUP3 PUSH2 0x3B05 JUMP JUMPDEST PUSH2 0x3BE8 DUP2 DUP6 PUSH2 0x3B10 JUMP JUMPDEST SWAP4 POP PUSH2 0x3BF3 DUP4 PUSH2 0x3B21 JUMP JUMPDEST DUP1 PUSH1 0x0 JUMPDEST DUP4 DUP2 LT ISZERO PUSH2 0x3C24 JUMPI DUP2 MLOAD PUSH2 0x3C0B DUP9 DUP3 PUSH2 0x3BAE JUMP JUMPDEST SWAP8 POP PUSH2 0x3C16 DUP4 PUSH2 0x3BC6 JUMP JUMPDEST SWAP3 POP POP PUSH1 0x1 DUP2 ADD SWAP1 POP PUSH2 0x3BF7 JUMP JUMPDEST POP DUP6 SWAP4 POP POP POP POP SWAP3 SWAP2 POP POP JUMP JUMPDEST PUSH1 0x0 PUSH1 0x20 DUP3 ADD SWAP1 POP DUP2 DUP2 SUB PUSH1 0x0 DUP4 ADD MSTORE PUSH2 0x3C4B DUP2 DUP5 PUSH2 0x3BD3 JUMP JUMPDEST SWAP1 POP SWAP3 SWAP2 POP POP JUMP JUMPDEST PUSH1 0x0 PUSH1 0x20 DUP3 DUP5 SUB SLT ISZERO PUSH2 0x3C69 JUMPI PUSH2 0x3C68 PUSH2 0x3A31 JUMP JUMPDEST JUMPDEST PUSH1 0x0 PUSH2 0x3C77 DUP5 DUP3 DUP6 ADD PUSH2 0x3A52 JUMP JUMPDEST SWAP2 POP POP SWAP3 SWAP2 POP POP JUMP JUMPDEST PUSH1 0x0 DUP2 MLOAD SWAP1 POP SWAP2 SWAP1 POP JUMP JUMPDEST PUSH1 0x0 DUP3 DUP3 MSTORE PUSH1 0x20 DUP3 ADD SWAP1 POP SWAP3 SWAP2 POP POP JUMP JUMPDEST PUSH1 0x0 DUP2 SWAP1 POP PUSH1 0x20 DUP3 ADD SWAP1 POP SWAP2 SWAP1 POP JUMP JUMPDEST PUSH2 0x3CB5 DUP2 PUSH2 0x3A87 JUMP JUMPDEST DUP3 MSTORE POP POP JUMP JUMPDEST PUSH2 0x3CC4 DUP2 PUSH2 0x39F3 JUMP JUMPDEST DUP3 MSTORE POP POP JUMP JUMPDEST PUSH1 0xA0 DUP3 ADD PUSH1 0x0 DUP3 ADD MLOAD PUSH2 0x3CE0 PUSH1 0x0 DUP6 ADD DUP3 PUSH2 0x3CAC JUMP JUMPDEST POP PUSH1 0x20 DUP3 ADD MLOAD PUSH2 0x3CF3 PUSH1 0x20 DUP6 ADD DUP3 PUSH2 0x3CBB JUMP JUMPDEST POP PUSH1 0x40 DUP3 ADD MLOAD PUSH2 0x3D06 PUSH1 0x40 DUP6 ADD DUP3 PUSH2 0x3CBB JUMP JUMPDEST POP PUSH1 0x60 DUP3 ADD MLOAD PUSH2 0x3D19 PUSH1 0x60 DUP6 ADD DUP3 PUSH2 0x3CBB JUMP JUMPDEST POP PUSH1 0x80 DUP3 ADD MLOAD PUSH2 0x3D2C PUSH1 0x80 DUP6 ADD DUP3 PUSH2 0x3CBB JUMP JUMPDEST POP POP POP POP JUMP JUMPDEST PUSH1 0x0 PUSH2 0x3D3E DUP4 DUP4 PUSH2 0x3CCA JUMP JUMPDEST PUSH1 0xA0 DUP4 ADD SWAP1 POP SWAP3 SWAP2 POP POP JUMP JUMPDEST PUSH1 0x0 PUSH1 0x20 DUP3 ADD SWAP1 POP SWAP2 SWAP1 POP JUMP JUMPDEST PUSH1 0x0 PUSH2 0x3D62 DUP3 PUSH2 0x3C80 JUMP JUMPDEST PUSH2 0x3D6C DUP2 DUP6 PUSH2 0x3C8B JUMP JUMPDEST SWAP4 POP PUSH2 0x3D77 DUP4 PUSH2 0x3C9C JUMP JUMPDEST DUP1 PUSH1 0x0 JUMPDEST DUP4 DUP2 LT ISZERO PUSH2 0x3DA8 JUMPI DUP2 MLOAD PUSH2 0x3D8F DUP9 DUP3 PUSH2 0x3D32 JUMP JUMPDEST SWAP8 POP PUSH2 0x3D9A DUP4 PUSH2 0x3D4A JUMP JUMPDEST SWAP3 POP POP PUSH1 0x1 DUP2 ADD SWAP1 POP PUSH2 0x3D7B JUMP JUMPDEST POP DUP6 SWAP4 POP POP POP POP SWAP3 SWAP2 POP POP JUMP JUMPDEST PUSH1 0x0 PUSH1 0x20 DUP3 ADD SWAP1 POP DUP2 DUP2 SUB PUSH1 0x0 DUP4 ADD MSTORE PUSH2 0x3DCF DUP2 DUP5 PUSH2 0x3D57 JUMP JUMPDEST SWAP1 POP SWAP3 SWAP2 POP POP JUMP JUMPDEST PUSH1 0x0 DUP2 MLOAD SWAP1 POP SWAP2 SWAP1 POP JUMP JUMPDEST PUSH1 0x0 DUP3 DUP3 MSTORE PUSH1 0x20 DUP3 ADD SWAP1 POP SWAP3 SWAP2 POP POP JUMP JUMPDEST PUSH1 0x0 DUP2 SWAP1 POP PUSH1 0x20 DUP3 ADD SWAP1 POP SWAP2 SWAP1 POP JUMP JUMPDEST PUSH1 0x60 DUP3 ADD PUSH1 0x0 DUP3 ADD MLOAD PUSH2 0x3E19 PUSH1 0x0 DUP6 ADD DUP3 PUSH2 0x3CAC JUMP JUMPDEST POP PUSH1 0x20 DUP3 ADD MLOAD PUSH2 0x3E2C PUSH1 0x20 DUP6 ADD DUP3 PUSH2 0x3CBB JUMP JUMPDEST POP PUSH1 0x40 DUP3 ADD MLOAD PUSH2 0x3E3F PUSH1 0x40 DUP6 ADD DUP3 PUSH2 0x3CBB JUMP JUMPDEST POP POP POP POP JUMP JUMPDEST PUSH1 0x0 PUSH2 0x3E51 DUP4 DUP4 PUSH2 0x3E03 JUMP JUMPDEST PUSH1 0x60 DUP4 ADD SWAP1 POP SWAP3 SWAP2 POP POP JUMP JUMPDEST PUSH1 0x0 PUSH1 0x20 DUP3 ADD SWAP1 POP SWAP2 SWAP1 POP JUMP JUMPDEST PUSH1 0x0 PUSH2 0x3E75 DUP3 PUSH2 0x3DD7 JUMP JUMPDEST PUSH2 0x3E7F DUP2 DUP6 PUSH2 0x3DE2 JUMP JUMPDEST SWAP4 POP PUSH2 0x3E8A DUP4 PUSH2 0x3DF3 JUMP JUMPDEST DUP1 PUSH1 0x0 JUMPDEST DUP4 DUP2 LT ISZERO PUSH2 0x3EBB JUMPI DUP2 MLOAD PUSH2 0x3EA2 DUP9 DUP3 PUSH2 0x3E45 JUMP JUMPDEST SWAP8 POP PUSH2 0x3EAD DUP4 PUSH2 0x3E5D JUMP JUMPDEST SWAP3 POP POP PUSH1 0x1 DUP2 ADD SWAP1 POP PUSH2 0x3E8E JUMP JUMPDEST POP DUP6 SWAP4 POP POP POP POP SWAP3 SWAP2 POP POP JUMP JUMPDEST PUSH1 0x0 PUSH1 0x20 DUP3 ADD SWAP1 POP DUP2 DUP2 SUB PUSH1 0x0 DUP4 ADD MSTORE PUSH2 0x3EE2 DUP2 DUP5 PUSH2 0x3E6A JUMP JUMPDEST SWAP1 POP SWAP3 SWAP2 POP POP JUMP JUMPDEST PUSH1 0x0 DUP1 REVERT JUMPDEST PUSH1 0x0 PUSH1 0x1F NOT PUSH1 0x1F DUP4 ADD AND SWAP1 POP SWAP2 SWAP1 POP JUMP JUMPDEST PUSH32 0x4E487B7100000000000000000000000000000000000000000000000000000000 PUSH1 0x0 MSTORE PUSH1 0x41 PUSH1 0x4 MSTORE PUSH1 0x24 PUSH1 0x0 REVERT JUMPDEST PUSH2 0x3F38 DUP3 PUSH2 0x3EEF JUMP JUMPDEST DUP2 ADD DUP2 DUP2 LT PUSH8 0xFFFFFFFFFFFFFFFF DUP3 GT OR ISZERO PUSH2 0x3F57 JUMPI PUSH2 0x3F56 PUSH2 0x3F00 JUMP JUMPDEST JUMPDEST DUP1 PUSH1 0x40 MSTORE POP POP POP JUMP JUMPDEST PUSH1 0x0 PUSH2 0x3F6A PUSH2 0x3A27 JUMP JUMPDEST SWAP1 POP PUSH2 0x3F76 DUP3 DUP3 PUSH2 0x3F2F JUMP JUMPDEST SWAP2 SWAP1 POP JUMP JUMPDEST PUSH1 0x0 PUSH8 0xFFFFFFFFFFFFFFFF DUP3 GT ISZERO PUSH2 0x3F96 JUMPI PUSH2 0x3F95 PUSH2 0x3F00 JUMP JUMPDEST JUMPDEST PUSH1 0x20 DUP3 MUL SWAP1 POP PUSH1 0x20 DUP2 ADD SWAP1 POP SWAP2 SWAP1 POP JUMP JUMPDEST PUSH1 0x0 DUP1 REVERT JUMPDEST PUSH2 0x3FB5 DUP2 PUSH2 0x3B31 JUMP JUMPDEST DUP2 EQ PUSH2 0x3FC0 JUMPI PUSH1 0x0 DUP1 REVERT JUMPDEST POP JUMP JUMPDEST PUSH1 0x0 DUP2 CALLDATALOAD SWAP1 POP PUSH2 0x3FD2 DUP2 PUSH2 0x3FAC JUMP JUMPDEST SWAP3 SWAP2 POP POP JUMP JUMPDEST PUSH1 0x0 PUSH2 0x3FEB PUSH2 0x3FE6 DUP5 PUSH2 0x3F7B JUMP JUMPDEST PUSH2 0x3F60 JUMP JUMPDEST SWAP1 POP DUP1 DUP4 DUP3 MSTORE PUSH1 0x20 DUP3 ADD SWAP1 POP PUSH1 0x20 DUP5 MUL DUP4 ADD DUP6 DUP2 GT ISZERO PUSH2 0x400E JUMPI PUSH2 0x400D PUSH2 0x3FA7 JUMP JUMPDEST JUMPDEST DUP4 JUMPDEST DUP2 DUP2 LT ISZERO PUSH2 0x4037 JUMPI DUP1 PUSH2 0x4023 DUP9 DUP3 PUSH2 0x3FC3 JUMP JUMPDEST DUP5 MSTORE PUSH1 0x20 DUP5 ADD SWAP4 POP POP PUSH1 0x20 DUP2 ADD SWAP1 POP PUSH2 0x4010 JUMP JUMPDEST POP POP POP SWAP4 SWAP3 POP POP POP JUMP JUMPDEST PUSH1 0x0 DUP3 PUSH1 0x1F DUP4 ADD SLT PUSH2 0x4056 JUMPI PUSH2 0x4055 PUSH2 0x3EEA JUMP JUMPDEST JUMPDEST DUP2 CALLDATALOAD PUSH2 0x4066 DUP5 DUP3 PUSH1 0x20 DUP7 ADD PUSH2 0x3FD8 JUMP JUMPDEST SWAP2 POP POP SWAP3 SWAP2 POP POP JUMP JUMPDEST PUSH1 0x0 DUP1 PUSH1 0x0 PUSH1 0x60 DUP5 DUP7 SUB SLT ISZERO PUSH2 0x4088 JUMPI PUSH2 0x4087 PUSH2 0x3A31 JUMP JUMPDEST JUMPDEST PUSH1 0x0 PUSH2 0x4096 DUP7 DUP3 DUP8 ADD PUSH2 0x3A52 JUMP JUMPDEST SWAP4 POP POP PUSH1 0x20 PUSH2 0x40A7 DUP7 DUP3 DUP8 ADD PUSH2 0x3A52 JUMP JUMPDEST SWAP3 POP POP PUSH1 0x40 DUP5 ADD CALLDATALOAD PUSH8 0xFFFFFFFFFFFFFFFF DUP2 GT ISZERO PUSH2 0x40C8 JUMPI PUSH2 0x40C7 PUSH2 0x3A36 JUMP JUMPDEST JUMPDEST PUSH2 0x40D4 DUP7 DUP3 DUP8 ADD PUSH2 0x4041 JUMP JUMPDEST SWAP2 POP POP SWAP3 POP SWAP3 POP SWAP3 JUMP JUMPDEST PUSH1 0x0 PUSH1 0x20 DUP3 DUP5 SUB SLT ISZERO PUSH2 0x40F4 JUMPI PUSH2 0x40F3 PUSH2 0x3A31 JUMP JUMPDEST JUMPDEST PUSH1 0x0 PUSH2 0x4102 DUP5 DUP3 DUP6 ADD PUSH2 0x3AB0 JUMP JUMPDEST SWAP2 POP POP SWAP3 SWAP2 POP POP JUMP JUMPDEST PUSH1 0x0 DUP2 ISZERO ISZERO SWAP1 POP SWAP2 SWAP1 POP JUMP JUMPDEST PUSH2 0x4120 DUP2 PUSH2 0x410B JUMP JUMPDEST DUP3 MSTORE POP POP JUMP JUMPDEST PUSH1 0x0 PUSH1 0x20 DUP3 ADD SWAP1 POP PUSH2 0x413B PUSH1 0x0 DUP4 ADD DUP5 PUSH2 0x4117 JUMP JUMPDEST SWAP3 SWAP2 POP POP JUMP JUMPDEST PUSH1 0x0 DUP1 PUSH1 0x40 DUP4 DUP6 SUB SLT ISZERO PUSH2 0x4158 JUMPI PUSH2 0x4157 PUSH2 0x3A31 JUMP JUMPDEST JUMPDEST PUSH1 0x0 PUSH2 0x4166 DUP6 DUP3 DUP7 ADD PUSH2 0x3A52 JUMP JUMPDEST SWAP3 POP POP PUSH1 0x20 PUSH2 0x4177 DUP6 DUP3 DUP7 ADD PUSH2 0x3FC3 JUMP JUMPDEST SWAP2 POP POP SWAP3 POP SWAP3 SWAP1 POP JUMP JUMPDEST PUSH2 0x418A DUP2 PUSH2 0x3B50 JUMP JUMPDEST DUP3 MSTORE POP POP JUMP JUMPDEST PUSH1 0x0 PUSH1 0x40 DUP3 ADD SWAP1 POP PUSH2 0x41A5 PUSH1 0x0 DUP4 ADD DUP6 PUSH2 0x4181 JUMP JUMPDEST PUSH2 0x41B2 PUSH1 0x20 DUP4 ADD DUP5 PUSH2 0x4181 JUMP JUMPDEST SWAP4 SWAP3 POP POP POP JUMP JUMPDEST PUSH1 0x0 PUSH8 0xFFFFFFFFFFFFFFFF DUP3 GT ISZERO PUSH2 0x41D4 JUMPI PUSH2 0x41D3 PUSH2 0x3F00 JUMP JUMPDEST JUMPDEST PUSH1 0x20 DUP3 MUL SWAP1 POP PUSH1 0x20 DUP2 ADD SWAP1 POP SWAP2 SWAP1 POP JUMP JUMPDEST PUSH1 0x0 PUSH2 0x41F8 PUSH2 0x41F3 DUP5 PUSH2 0x41B9 JUMP JUMPDEST PUSH2 0x3F60 JUMP JUMPDEST SWAP1 POP DUP1 DUP4 DUP3 MSTORE PUSH1 0x20 DUP3 ADD SWAP1 POP PUSH1 0x20 DUP5 MUL DUP4 ADD DUP6 DUP2 GT ISZERO PUSH2 0x421B JUMPI PUSH2 0x421A PUSH2 0x3FA7 JUMP JUMPDEST JUMPDEST DUP4 JUMPDEST DUP2 DUP2 LT ISZERO PUSH2 0x4244 JUMPI DUP1 PUSH2 0x4230 DUP9 DUP3 PUSH2 0x3A52 JUMP JUMPDEST DUP5 MSTORE PUSH1 0x20 DUP5 ADD SWAP4 POP POP PUSH1 0x20 DUP2 ADD SWAP1 POP PUSH2 0x421D JUMP JUMPDEST POP POP POP SWAP4 SWAP3 POP POP POP JUMP JUMPDEST PUSH1 0x0 DUP3 PUSH1 0x1F DUP4 ADD SLT PUSH2 0x4263 JUMPI PUSH2 0x4262 PUSH2 0x3EEA JUMP JUMPDEST JUMPDEST DUP2 CALLDATALOAD PUSH2 0x4273 DUP5 DUP3 PUSH1 0x20 DUP7 ADD PUSH2 0x41E5 JUMP JUMPDEST SWAP2 POP POP SWAP3 SWAP2 POP POP JUMP JUMPDEST PUSH1 0x0 DUP1 PUSH1 0x40 DUP4 DUP6 SUB SLT ISZERO PUSH2 0x4293 JUMPI PUSH2 0x4292 PUSH2 0x3A31 JUMP JUMPDEST JUMPDEST PUSH1 0x0 PUSH2 0x42A1 DUP6 DUP3 DUP7 ADD PUSH2 0x3A52 JUMP JUMPDEST SWAP3 POP POP PUSH1 0x20 DUP4 ADD CALLDATALOAD PUSH8 0xFFFFFFFFFFFFFFFF DUP2 GT ISZERO PUSH2 0x42C2 JUMPI PUSH2 0x42C1 PUSH2 0x3A36 JUMP JUMPDEST JUMPDEST PUSH2 0x42CE DUP6 DUP3 DUP7 ADD PUSH2 0x424E JUMP JUMPDEST SWAP2 POP POP SWAP3 POP SWAP3 SWAP1 POP JUMP JUMPDEST PUSH1 0x0 PUSH1 0x40 DUP3 ADD SWAP1 POP PUSH2 0x42ED PUSH1 0x0 DUP4 ADD DUP6 PUSH2 0x39FD JUMP JUMPDEST PUSH2 0x42FA PUSH1 0x20 DUP4 ADD DUP5 PUSH2 0x39FD JUMP JUMPDEST SWAP4 SWAP3 POP POP POP JUMP JUMPDEST PUSH2 0x430A DUP2 PUSH2 0x3A87 JUMP JUMPDEST DUP3 MSTORE POP POP JUMP JUMPDEST PUSH1 0x0 PUSH1 0x20 DUP3 ADD SWAP1 POP PUSH2 0x4325 PUSH1 0x0 DUP4 ADD DUP5 PUSH2 0x4301 JUMP JUMPDEST SWAP3 SWAP2 POP POP JUMP JUMPDEST PUSH1 0x0 DUP1 PUSH1 0x40 DUP4 DUP6 SUB SLT ISZERO PUSH2 0x4342 JUMPI PUSH2 0x4341 PUSH2 0x3A31 JUMP JUMPDEST JUMPDEST PUSH1 0x0 PUSH2 0x4350 DUP6 DUP3 DUP7 ADD PUSH2 0x3A52 JUMP JUMPDEST SWAP3 POP POP PUSH1 0x20 DUP4 ADD CALLDATALOAD PUSH8 0xFFFFFFFFFFFFFFFF DUP2 GT ISZERO PUSH2 0x4371 JUMPI PUSH2 0x4370 PUSH2 0x3A36 JUMP JUMPDEST JUMPDEST PUSH2 0x437D DUP6 DUP3 DUP7 ADD PUSH2 0x4041 JUMP JUMPDEST SWAP2 POP POP SWAP3 POP SWAP3 SWAP1 POP JUMP JUMPDEST PUSH1 0x0 PUSH8 0xFFFFFFFFFFFFFFFF DUP3 GT ISZERO PUSH2 0x43A2 JUMPI PUSH2 0x43A1 PUSH2 0x3F00 JUMP JUMPDEST JUMPDEST PUSH1 0x20 DUP3 MUL SWAP1 POP PUSH1 0x20 DUP2 ADD SWAP1 POP SWAP2 SWAP1 POP JUMP JUMPDEST PUSH1 0x0 DUP1 REVERT JUMPDEST PUSH2 0x43C1 DUP2 PUSH2 0x3B50 JUMP JUMPDEST DUP2 EQ PUSH2 0x43CC JUMPI PUSH1 0x0 DUP1 REVERT JUMPDEST POP JUMP JUMPDEST PUSH1 0x0 DUP2 CALLDATALOAD SWAP1 POP PUSH2 0x43DE DUP2 PUSH2 0x43B8 JUMP JUMPDEST SWAP3 SWAP2 POP POP JUMP JUMPDEST PUSH1 0x0 PUSH1 0x60 DUP3 DUP5 SUB SLT ISZERO PUSH2 0x43FA JUMPI PUSH2 0x43F9 PUSH2 0x43B3 JUMP JUMPDEST JUMPDEST PUSH2 0x4404 PUSH1 0x60 PUSH2 0x3F60 JUMP JUMPDEST SWAP1 POP PUSH1 0x0 PUSH2 0x4414 DUP5 DUP3 DUP6 ADD PUSH2 0x3FC3 JUMP JUMPDEST PUSH1 0x0 DUP4 ADD MSTORE POP PUSH1 0x20 PUSH2 0x4428 DUP5 DUP3 DUP6 ADD PUSH2 0x43CF JUMP JUMPDEST PUSH1 0x20 DUP4 ADD MSTORE POP PUSH1 0x40 PUSH2 0x443C DUP5 DUP3 DUP6 ADD PUSH2 0x43CF JUMP JUMPDEST PUSH1 0x40 DUP4 ADD MSTORE POP SWAP3 SWAP2 POP POP JUMP JUMPDEST PUSH1 0x0 PUSH2 0x445B PUSH2 0x4456 DUP5 PUSH2 0x4387 JUMP JUMPDEST PUSH2 0x3F60 JUMP JUMPDEST SWAP1 POP DUP1 DUP4 DUP3 MSTORE PUSH1 0x20 DUP3 ADD SWAP1 POP PUSH1 0x60 DUP5 MUL DUP4 ADD DUP6 DUP2 GT ISZERO PUSH2 0x447E JUMPI PUSH2 0x447D PUSH2 0x3FA7 JUMP JUMPDEST JUMPDEST DUP4 JUMPDEST DUP2 DUP2 LT ISZERO PUSH2 0x44A7 JUMPI DUP1 PUSH2 0x4493 DUP9 DUP3 PUSH2 0x43E4 JUMP JUMPDEST DUP5 MSTORE PUSH1 0x20 DUP5 ADD SWAP4 POP POP PUSH1 0x60 DUP2 ADD SWAP1 POP PUSH2 0x4480 JUMP JUMPDEST POP POP POP SWAP4 SWAP3 POP POP POP JUMP JUMPDEST PUSH1 0x0 DUP3 PUSH1 0x1F DUP4 ADD SLT PUSH2 0x44C6 JUMPI PUSH2 0x44C5 PUSH2 0x3EEA JUMP JUMPDEST JUMPDEST DUP2 CALLDATALOAD PUSH2 0x44D6 DUP5 DUP3 PUSH1 0x20 DUP7 ADD PUSH2 0x4448 JUMP JUMPDEST SWAP2 POP POP SWAP3 SWAP2 POP POP JUMP JUMPDEST PUSH1 0x0 PUSH1 0x20 DUP3 DUP5 SUB SLT ISZERO PUSH2 0x44F5 JUMPI PUSH2 0x44F4 PUSH2 0x3A31 JUMP JUMPDEST JUMPDEST PUSH1 0x0 DUP3 ADD CALLDATALOAD PUSH8 0xFFFFFFFFFFFFFFFF DUP2 GT ISZERO PUSH2 0x4513 JUMPI PUSH2 0x4512 PUSH2 0x3A36 JUMP JUMPDEST JUMPDEST PUSH2 0x451F DUP5 DUP3 DUP6 ADD PUSH2 0x44B1 JUMP JUMPDEST SWAP2 POP POP SWAP3 SWAP2 POP POP JUMP JUMPDEST PUSH1 0x0 PUSH8 0xFFFFFFFFFFFFFFFF DUP3 GT ISZERO PUSH2 0x4543 JUMPI PUSH2 0x4542 PUSH2 0x3F00 JUMP JUMPDEST JUMPDEST PUSH1 0x20 DUP3 MUL SWAP1 POP PUSH1 0x20 DUP2 ADD SWAP1 POP SWAP2 SWAP1 POP JUMP JUMPDEST PUSH1 0x0 PUSH1 0x60 DUP3 DUP5 SUB SLT ISZERO PUSH2 0x456A JUMPI PUSH2 0x4569 PUSH2 0x43B3 JUMP JUMPDEST JUMPDEST PUSH2 0x4574 PUSH1 0x60 PUSH2 0x3F60 JUMP JUMPDEST SWAP1 POP PUSH1 0x0 PUSH2 0x4584 DUP5 DUP3 DUP6 ADD PUSH2 0x3AB0 JUMP JUMPDEST PUSH1 0x0 DUP4 ADD MSTORE POP PUSH1 0x20 PUSH2 0x4598 DUP5 DUP3 DUP6 ADD PUSH2 0x3A52 JUMP JUMPDEST PUSH1 0x20 DUP4 ADD MSTORE POP PUSH1 0x40 PUSH2 0x45AC DUP5 DUP3 DUP6 ADD PUSH2 0x3A52 JUMP JUMPDEST PUSH1 0x40 DUP4 ADD MSTORE POP SWAP3 SWAP2 POP POP JUMP JUMPDEST PUSH1 0x0 PUSH2 0x45CB PUSH2 0x45C6 DUP5 PUSH2 0x4528 JUMP JUMPDEST PUSH2 0x3F60 JUMP JUMPDEST SWAP1 POP DUP1 DUP4 DUP3 MSTORE PUSH1 0x20 DUP3 ADD SWAP1 POP PUSH1 0x60 DUP5 MUL DUP4 ADD DUP6 DUP2 GT ISZERO PUSH2 0x45EE JUMPI PUSH2 0x45ED PUSH2 0x3FA7 JUMP JUMPDEST JUMPDEST DUP4 JUMPDEST DUP2 DUP2 LT ISZERO PUSH2 0x4617 JUMPI DUP1 PUSH2 0x4603 DUP9 DUP3 PUSH2 0x4554 JUMP JUMPDEST DUP5 MSTORE PUSH1 0x20 DUP5 ADD SWAP4 POP POP PUSH1 0x60 DUP2 ADD SWAP1 POP PUSH2 0x45F0 JUMP JUMPDEST POP POP POP SWAP4 SWAP3 POP POP POP JUMP JUMPDEST PUSH1 0x0 DUP3 PUSH1 0x1F DUP4 ADD SLT PUSH2 0x4636 JUMPI PUSH2 0x4635 PUSH2 0x3EEA JUMP JUMPDEST JUMPDEST DUP2 CALLDATALOAD PUSH2 0x4646 DUP5 DUP3 PUSH1 0x20 DUP7 ADD PUSH2 0x45B8 JUMP JUMPDEST SWAP2 POP POP SWAP3 SWAP2 POP POP JUMP JUMPDEST PUSH1 0x0 DUP1 PUSH1 0x40 DUP4 DUP6 SUB SLT ISZERO PUSH2 0x4666 JUMPI PUSH2 0x4665 PUSH2 0x3A31 JUMP JUMPDEST JUMPDEST PUSH1 0x0 PUSH2 0x4674 DUP6 DUP3 DUP7 ADD PUSH2 0x3A52 JUMP JUMPDEST SWAP3 POP POP PUSH1 0x20 DUP4 ADD CALLDATALOAD PUSH8 0xFFFFFFFFFFFFFFFF DUP2 GT ISZERO PUSH2 0x4695 JUMPI PUSH2 0x4694 PUSH2 0x3A36 JUMP JUMPDEST JUMPDEST PUSH2 0x46A1 DUP6 DUP3 DUP7 ADD PUSH2 0x4621 JUMP JUMPDEST SWAP2 POP POP SWAP3 POP SWAP3 SWAP1 POP JUMP JUMPDEST PUSH1 0x0 DUP2 MLOAD SWAP1 POP SWAP2 SWAP1 POP JUMP JUMPDEST PUSH1 0x0 DUP3 DUP3 MSTORE PUSH1 0x20 DUP3 ADD SWAP1 POP SWAP3 SWAP2 POP POP JUMP JUMPDEST PUSH1 0x0 DUP2 SWAP1 POP PUSH1 0x20 DUP3 ADD SWAP1 POP SWAP2 SWAP1 POP JUMP JUMPDEST PUSH1 0xE0 DUP3 ADD PUSH1 0x0 DUP3 ADD MLOAD PUSH2 0x46ED PUSH1 0x0 DUP6 ADD DUP3 PUSH2 0x3CAC JUMP JUMPDEST POP PUSH1 0x20 DUP3 ADD MLOAD PUSH2 0x4700 PUSH1 0x20 DUP6 ADD DUP3 PUSH2 0x3CBB JUMP JUMPDEST POP PUSH1 0x40 DUP3 ADD MLOAD PUSH2 0x4713 PUSH1 0x40 DUP6 ADD DUP3 PUSH2 0x3CBB JUMP JUMPDEST POP PUSH1 0x60 DUP3 ADD MLOAD PUSH2 0x4726 PUSH1 0x60 DUP6 ADD DUP3 PUSH2 0x3CBB JUMP JUMPDEST POP PUSH1 0x80 DUP3 ADD MLOAD PUSH2 0x4739 PUSH1 0x80 DUP6 ADD DUP3 PUSH2 0x3CBB JUMP JUMPDEST POP PUSH1 0xA0 DUP3 ADD MLOAD PUSH2 0x474C PUSH1 0xA0 DUP6 ADD DUP3 PUSH2 0x3CBB JUMP JUMPDEST POP PUSH1 0xC0 DUP3 ADD MLOAD PUSH2 0x475F PUSH1 0xC0 DUP6 ADD DUP3 PUSH2 0x3CBB JUMP JUMPDEST POP POP POP POP JUMP JUMPDEST PUSH1 0x0 PUSH2 0x4771 DUP4 DUP4 PUSH2 0x46D7 JUMP JUMPDEST PUSH1 0xE0 DUP4 ADD SWAP1 POP SWAP3 SWAP2 POP POP JUMP JUMPDEST PUSH1 0x0 PUSH1 0x20 DUP3 ADD SWAP1 POP SWAP2 SWAP1 POP JUMP JUMPDEST PUSH1 0x0 PUSH2 0x4795 DUP3 PUSH2 0x46AB JUMP JUMPDEST PUSH2 0x479F DUP2 DUP6 PUSH2 0x46B6 JUMP JUMPDEST SWAP4 POP PUSH2 0x47AA DUP4 PUSH2 0x46C7 JUMP JUMPDEST DUP1 PUSH1 0x0 JUMPDEST DUP4 DUP2 LT ISZERO PUSH2 0x47DB JUMPI DUP2 MLOAD PUSH2 0x47C2 DUP9 DUP3 PUSH2 0x4765 JUMP JUMPDEST SWAP8 POP PUSH2 0x47CD DUP4 PUSH2 0x477D JUMP JUMPDEST SWAP3 POP POP PUSH1 0x1 DUP2 ADD SWAP1 POP PUSH2 0x47AE JUMP JUMPDEST POP DUP6 SWAP4 POP POP POP POP SWAP3 SWAP2 POP POP JUMP JUMPDEST PUSH1 0x0 PUSH1 0x20 DUP3 ADD SWAP1 POP DUP2 DUP2 SUB PUSH1 0x0 DUP4 ADD MSTORE PUSH2 0x4802 DUP2 DUP5 PUSH2 0x478A JUMP JUMPDEST SWAP1 POP SWAP3 SWAP2 POP POP JUMP JUMPDEST PUSH1 0x0 DUP1 PUSH1 0x40 DUP4 DUP6 SUB SLT ISZERO PUSH2 0x4821 JUMPI PUSH2 0x4820 PUSH2 0x3A31 JUMP JUMPDEST JUMPDEST PUSH1 0x0 PUSH2 0x482F DUP6 DUP3 DUP7 ADD PUSH2 0x3AB0 JUMP JUMPDEST SWAP3 POP POP PUSH1 0x20 PUSH2 0x4840 DUP6 DUP3 DUP7 ADD PUSH2 0x3FC3 JUMP JUMPDEST SWAP2 POP POP SWAP3 POP SWAP3 SWAP1 POP JUMP JUMPDEST PUSH1 0x0 DUP1 PUSH1 0x40 DUP4 DUP6 SUB SLT ISZERO PUSH2 0x4861 JUMPI PUSH2 0x4860 PUSH2 0x3A31 JUMP JUMPDEST JUMPDEST PUSH1 0x0 PUSH2 0x486F DUP6 DUP3 DUP7 ADD PUSH2 0x3AB0 JUMP JUMPDEST SWAP3 POP POP PUSH1 0x20 DUP4 ADD CALLDATALOAD PUSH8 0xFFFFFFFFFFFFFFFF DUP2 GT ISZERO PUSH2 0x4890 JUMPI PUSH2 0x488F PUSH2 0x3A36 JUMP JUMPDEST JUMPDEST PUSH2 0x489C DUP6 DUP3 DUP7 ADD PUSH2 0x44B1 JUMP JUMPDEST SWAP2 POP POP SWAP3 POP SWAP3 SWAP1 POP JUMP JUMPDEST PUSH1 0x0 DUP2 MLOAD SWAP1 POP SWAP2 SWAP1 POP JUMP JUMPDEST PUSH1 0x0 DUP3 DUP3 MSTORE PUSH1 0x20 DUP3 ADD SWAP1 POP SWAP3 SWAP2 POP POP JUMP JUMPDEST PUSH1 0x0 DUP2 SWAP1 POP PUSH1 0x20 DUP3 ADD SWAP1 POP SWAP2 SWAP1 POP JUMP JUMPDEST PUSH1 0x0 DUP2 SWAP1 POP SWAP2 SWAP1 POP JUMP JUMPDEST PUSH2 0x48E5 DUP2 PUSH2 0x48D2 JUMP JUMPDEST DUP3 MSTORE POP POP JUMP JUMPDEST PUSH1 0x0 PUSH2 0x48F7 DUP4 DUP4 PUSH2 0x48DC JUMP JUMPDEST PUSH1 0x20 DUP4 ADD SWAP1 POP SWAP3 SWAP2 POP POP JUMP JUMPDEST PUSH1 0x0 PUSH1 0x20 DUP3 ADD SWAP1 POP SWAP2 SWAP1 POP JUMP JUMPDEST PUSH1 0x0 PUSH2 0x491B DUP3 PUSH2 0x48A6 JUMP JUMPDEST PUSH2 0x4925 DUP2 DUP6 PUSH2 0x48B1 JUMP JUMPDEST SWAP4 POP PUSH2 0x4930 DUP4 PUSH2 0x48C2 JUMP JUMPDEST DUP1 PUSH1 0x0 JUMPDEST DUP4 DUP2 LT ISZERO PUSH2 0x4961 JUMPI DUP2 MLOAD PUSH2 0x4948 DUP9 DUP3 PUSH2 0x48EB JUMP JUMPDEST SWAP8 POP PUSH2 0x4953 DUP4 PUSH2 0x4903 JUMP JUMPDEST SWAP3 POP POP PUSH1 0x1 DUP2 ADD SWAP1 POP PUSH2 0x4934 JUMP JUMPDEST POP DUP6 SWAP4 POP POP POP POP SWAP3 SWAP2 POP POP JUMP JUMPDEST PUSH1 0x0 PUSH1 0x20 DUP3 ADD SWAP1 POP DUP2 DUP2 SUB PUSH1 0x0 DUP4 ADD MSTORE PUSH2 0x4988 DUP2 DUP5 PUSH2 0x4910 JUMP JUMPDEST SWAP1 POP SWAP3 SWAP2 POP POP JUMP JUMPDEST PUSH1 0x0 DUP1 PUSH1 0x40 DUP4 DUP6 SUB SLT ISZERO PUSH2 0x49A7 JUMPI PUSH2 0x49A6 PUSH2 0x3A31 JUMP JUMPDEST JUMPDEST PUSH1 0x0 PUSH2 0x49B5 DUP6 DUP3 DUP7 ADD PUSH2 0x43CF JUMP JUMPDEST SWAP3 POP POP PUSH1 0x20 PUSH2 0x49C6 DUP6 DUP3 DUP7 ADD PUSH2 0x43CF JUMP JUMPDEST SWAP2 POP POP SWAP3 POP SWAP3 SWAP1 POP JUMP JUMPDEST PUSH32 0x4E487B7100000000000000000000000000000000000000000000000000000000 PUSH1 0x0 MSTORE PUSH1 0x32 PUSH1 0x4 MSTORE PUSH1 0x24 PUSH1 0x0 REVERT JUMPDEST PUSH32 0x4E487B7100000000000000000000000000000000000000000000000000000000 PUSH1 0x0 MSTORE PUSH1 0x11 PUSH1 0x4 MSTORE PUSH1 0x24 PUSH1 0x0 REVERT JUMPDEST PUSH1 0x0 PUSH2 0x4A39 DUP3 PUSH2 0x39F3 JUMP JUMPDEST SWAP2 POP PUSH32 0xFFFFFFFFFFFFFFFFFFFFFFFFFFFFFFFFFFFFFFFFFFFFFFFFFFFFFFFFFFFFFFFF DUP3 SUB PUSH2 0x4A6B JUMPI PUSH2 0x4A6A PUSH2 0x49FF JUMP JUMPDEST JUMPDEST PUSH1 0x1 DUP3 ADD SWAP1 POP SWAP2 SWAP1 POP JUMP JUMPDEST PUSH1 0x0 DUP3 DUP3 MSTORE PUSH1 0x20 DUP3 ADD SWAP1 POP SWAP3 SWAP2 POP POP JUMP JUMPDEST PUSH32 0x596F752063616E6E6F7420776974686472617720756E74696C2074686520656E PUSH1 0x0 DUP3 ADD MSTORE PUSH32 0x64206F662074686520636F6E7465737421000000000000000000000000000000 PUSH1 0x20 DUP3 ADD MSTORE POP JUMP JUMPDEST PUSH1 0x0 PUSH2 0x4AE3 PUSH1 0x31 DUP4 PUSH2 0x4A76 JUMP JUMPDEST SWAP2 POP PUSH2 0x4AEE DUP3 PUSH2 0x4A87 JUMP JUMPDEST PUSH1 0x40 DUP3 ADD SWAP1 POP SWAP2 SWAP1 POP JUMP JUMPDEST PUSH1 0x0 PUSH1 0x20 DUP3 ADD SWAP1 POP DUP2 DUP2 SUB PUSH1 0x0 DUP4 ADD MSTORE PUSH2 0x4B12 DUP2 PUSH2 0x4AD6 JUMP JUMPDEST SWAP1 POP SWAP2 SWAP1 POP JUMP JUMPDEST PUSH1 0x0 PUSH1 0x40 DUP3 ADD SWAP1 POP PUSH2 0x4B2E PUSH1 0x0 DUP4 ADD DUP6 PUSH2 0x39FD JUMP JUMPDEST PUSH2 0x4B3B PUSH1 0x20 DUP4 ADD DUP5 PUSH2 0x4301 JUMP JUMPDEST SWAP4 SWAP3 POP POP POP JUMP JUMPDEST PUSH2 0x4B4B DUP2 PUSH2 0x48D2 JUMP JUMPDEST DUP3 MSTORE POP POP JUMP JUMPDEST PUSH2 0x4B5A DUP2 PUSH2 0x3B31 JUMP JUMPDEST DUP3 MSTORE POP POP JUMP JUMPDEST PUSH1 0x0 PUSH1 0x40 DUP3 ADD SWAP1 POP PUSH2 0x4B75 PUSH1 0x0 DUP4 ADD DUP6 PUSH2 0x4B42 JUMP JUMPDEST PUSH2 0x4B82 PUSH1 0x20 DUP4 ADD DUP5 PUSH2 0x4B51 JUMP JUMPDEST SWAP4 SWAP3 POP POP POP JUMP JUMPDEST PUSH1 0x0 DUP2 MLOAD SWAP1 POP PUSH2 0x4B98 DUP2 PUSH2 0x43B8 JUMP JUMPDEST SWAP3 SWAP2 POP POP JUMP JUMPDEST PUSH1 0x0 DUP1 PUSH1 0x40 DUP4 DUP6 SUB SLT ISZERO PUSH2 0x4BB5 JUMPI PUSH2 0x4BB4 PUSH2 0x3A31 JUMP JUMPDEST JUMPDEST PUSH1 0x0 PUSH2 0x4BC3 DUP6 DUP3 DUP7 ADD PUSH2 0x4B89 JUMP JUMPDEST SWAP3 POP POP PUSH1 0x20 PUSH2 0x4BD4 DUP6 DUP3 DUP7 ADD PUSH2 0x4B89 JUMP JUMPDEST SWAP2 POP POP SWAP3 POP SWAP3 SWAP1 POP JUMP JUMPDEST PUSH1 0x0 DUP2 SWAP1 POP SWAP2 SWAP1 POP JUMP JUMPDEST PUSH1 0x0 DUP2 SWAP1 POP SWAP2 SWAP1 POP JUMP JUMPDEST PUSH1 0x0 PUSH2 0x4C0D PUSH2 0x4C08 PUSH2 0x4C03 DUP5 PUSH2 0x4BDE JUMP JUMPDEST PUSH2 0x4BE8 JUMP JUMPDEST PUSH2 0x39F3 JUMP JUMPDEST SWAP1 POP SWAP2 SWAP1 POP JUMP JUMPDEST PUSH2 0x4C1D DUP2 PUSH2 0x4BF2 JUMP JUMPDEST DUP3 MSTORE POP POP JUMP JUMPDEST PUSH1 0x0 PUSH1 0x60 DUP3 ADD SWAP1 POP PUSH2 0x4C38 PUSH1 0x0 DUP4 ADD DUP7 PUSH2 0x4C14 JUMP JUMPDEST PUSH2 0x4C45 PUSH1 0x20 DUP4 ADD DUP6 PUSH2 0x39FD JUMP JUMPDEST PUSH2 0x4C52 PUSH1 0x40 DUP4 ADD DUP5 PUSH2 0x39FD JUMP JUMPDEST SWAP5 SWAP4 POP POP POP POP JUMP JUMPDEST PUSH2 0x4C63 DUP2 PUSH2 0x48D2 JUMP JUMPDEST DUP2 EQ PUSH2 0x4C6E JUMPI PUSH1 0x0 DUP1 REVERT JUMPDEST POP JUMP JUMPDEST PUSH1 0x0 DUP2 MLOAD SWAP1 POP PUSH2 0x4C80 DUP2 PUSH2 0x4C5A JUMP JUMPDEST SWAP3 SWAP2 POP POP JUMP JUMPDEST PUSH1 0x0 PUSH1 0x20 DUP3 DUP5 SUB SLT ISZERO PUSH2 0x4C9C JUMPI PUSH2 0x4C9B PUSH2 0x3A31 JUMP JUMPDEST JUMPDEST PUSH1 0x0 PUSH2 0x4CAA DUP5 DUP3 DUP6 ADD PUSH2 0x4C71 JUMP JUMPDEST SWAP2 POP POP SWAP3 SWAP2 POP POP JUMP JUMPDEST PUSH1 0x0 DUP2 MLOAD SWAP1 POP PUSH2 0x4CC2 DUP2 PUSH2 0x3A3B JUMP JUMPDEST SWAP3 SWAP2 POP POP JUMP JUMPDEST PUSH1 0x0 DUP1 PUSH1 0x40 DUP4 DUP6 SUB SLT ISZERO PUSH2 0x4CDF JUMPI PUSH2 0x4CDE PUSH2 0x3A31 JUMP JUMPDEST JUMPDEST PUSH1 0x0 PUSH2 0x4CED DUP6 DUP3 DUP7 ADD PUSH2 0x4CB3 JUMP JUMPDEST SWAP3 POP POP PUSH1 0x20 PUSH2 0x4CFE DUP6 DUP3 DUP7 ADD PUSH2 0x4CB3 JUMP JUMPDEST SWAP2 POP POP SWAP3 POP SWAP3 SWAP1 POP JUMP JUMPDEST PUSH1 0x0 PUSH1 0x20 DUP3 DUP5 SUB SLT ISZERO PUSH2 0x4D1E JUMPI PUSH2 0x4D1D PUSH2 0x3A31 JUMP JUMPDEST JUMPDEST PUSH1 0x0 PUSH2 0x4D2C DUP5 DUP3 DUP6 ADD PUSH2 0x4CB3 JUMP JUMPDEST SWAP2 POP POP SWAP3 SWAP2 POP POP JUMP JUMPDEST PUSH32 0x596F75206E6565642061207469636B657420666F7220736176696E6720707265 PUSH1 0x0 DUP3 ADD MSTORE PUSH32 0x64696374696F6E73210000000000000000000000000000000000000000000000 PUSH1 0x20 DUP3 ADD MSTORE POP JUMP JUMPDEST PUSH1 0x0 PUSH2 0x4D91 PUSH1 0x29 DUP4 PUSH2 0x4A76 JUMP JUMPDEST SWAP2 POP PUSH2 0x4D9C DUP3 PUSH2 0x4D35 JUMP JUMPDEST PUSH1 0x40 DUP3 ADD SWAP1 POP SWAP2 SWAP1 POP JUMP JUMPDEST PUSH1 0x0 PUSH1 0x20 DUP3 ADD SWAP1 POP DUP2 DUP2 SUB PUSH1 0x0 DUP4 ADD MSTORE PUSH2 0x4DC0 DUP2 PUSH2 0x4D84 JUMP JUMPDEST SWAP1 POP SWAP2 SWAP1 POP JUMP JUMPDEST PUSH32 0x50726564696374696F6E20506572696F6420697320636C6F7365642100000000 PUSH1 0x0 DUP3 ADD MSTORE POP JUMP JUMPDEST PUSH1 0x0 PUSH2 0x4DFD PUSH1 0x1C DUP4 PUSH2 0x4A76 JUMP JUMPDEST SWAP2 POP PUSH2 0x4E08 DUP3 PUSH2 0x4DC7 JUMP JUMPDEST PUSH1 0x20 DUP3 ADD SWAP1 POP SWAP2 SWAP1 POP JUMP JUMPDEST PUSH1 0x0 PUSH1 0x20 DUP3 ADD SWAP1 POP DUP2 DUP2 SUB PUSH1 0x0 DUP4 ADD MSTORE PUSH2 0x4E2C DUP2 PUSH2 0x4DF0 JUMP JUMPDEST SWAP1 POP SWAP2 SWAP1 POP JUMP JUMPDEST PUSH32 0x546865206E756D626572206F662070726564696374696F6E7320646F65736E27 PUSH1 0x0 DUP3 ADD MSTORE PUSH32 0x74206D6174636821000000000000000000000000000000000000000000000000 PUSH1 0x20 DUP3 ADD MSTORE POP JUMP JUMPDEST PUSH1 0x0 PUSH2 0x4E8F PUSH1 0x28 DUP4 PUSH2 0x4A76 JUMP JUMPDEST SWAP2 POP PUSH2 0x4E9A DUP3 PUSH2 0x4E33 JUMP JUMPDEST PUSH1 0x40 DUP3 ADD SWAP1 POP SWAP2 SWAP1 POP JUMP JUMPDEST PUSH1 0x0 PUSH1 0x20 DUP3 ADD SWAP1 POP DUP2 DUP2 SUB PUSH1 0x0 DUP4 ADD MSTORE PUSH2 0x4EBE DUP2 PUSH2 0x4E82 JUMP JUMPDEST SWAP1 POP SWAP2 SWAP1 POP JUMP JUMPDEST PUSH1 0x0 PUSH2 0x4ED0 DUP3 PUSH2 0x39F3 JUMP JUMPDEST SWAP2 POP PUSH2 0x4EDB DUP4 PUSH2 0x39F3 JUMP JUMPDEST SWAP3 POP DUP3 DUP3 LT ISZERO PUSH2 0x4EEE JUMPI PUSH2 0x4EED PUSH2 0x49FF JUMP JUMPDEST JUMPDEST DUP3 DUP3 SUB SWAP1 POP SWAP3 SWAP2 POP POP JUMP JUMPDEST PUSH1 0x0 PUSH2 0x4F04 DUP3 PUSH2 0x39F3 JUMP JUMPDEST SWAP2 POP PUSH2 0x4F0F DUP4 PUSH2 0x39F3 JUMP JUMPDEST SWAP3 POP DUP2 PUSH32 0xFFFFFFFFFFFFFFFFFFFFFFFFFFFFFFFFFFFFFFFFFFFFFFFFFFFFFFFFFFFFFFFF DIV DUP4 GT DUP3 ISZERO ISZERO AND ISZERO PUSH2 0x4F48 JUMPI PUSH2 0x4F47 PUSH2 0x49FF JUMP JUMPDEST JUMPDEST DUP3 DUP3 MUL SWAP1 POP SWAP3 SWAP2 POP POP JUMP JUMPDEST PUSH32 0x4E487B7100000000000000000000000000000000000000000000000000000000 PUSH1 0x0 MSTORE PUSH1 0x12 PUSH1 0x4 MSTORE PUSH1 0x24 PUSH1 0x0 REVERT JUMPDEST PUSH1 0x0 PUSH2 0x4F8D DUP3 PUSH2 0x39F3 JUMP JUMPDEST SWAP2 POP PUSH2 0x4F98 DUP4 PUSH2 0x39F3 JUMP JUMPDEST SWAP3 POP DUP3 PUSH2 0x4FA8 JUMPI PUSH2 0x4FA7 PUSH2 0x4F53 JUMP JUMPDEST JUMPDEST DUP3 DUP3 DIV SWAP1 POP SWAP3 SWAP2 POP POP JUMP JUMPDEST PUSH1 0x0 PUSH2 0x4FBE DUP3 PUSH2 0x39F3 JUMP JUMPDEST SWAP2 POP PUSH2 0x4FC9 DUP4 PUSH2 0x39F3 JUMP JUMPDEST SWAP3 POP DUP3 PUSH32 0xFFFFFFFFFFFFFFFFFFFFFFFFFFFFFFFFFFFFFFFFFFFFFFFFFFFFFFFFFFFFFFFF SUB DUP3 GT ISZERO PUSH2 0x4FFE JUMPI PUSH2 0x4FFD PUSH2 0x49FF JUMP JUMPDEST JUMPDEST DUP3 DUP3 ADD SWAP1 POP SWAP3 SWAP2 POP POP JUMP JUMPDEST PUSH1 0x0 PUSH1 0x40 DUP3 ADD SWAP1 POP PUSH2 0x501E PUSH1 0x0 DUP4 ADD DUP6 PUSH2 0x4301 JUMP JUMPDEST PUSH2 0x502B PUSH1 0x20 DUP4 ADD DUP5 PUSH2 0x39FD JUMP JUMPDEST SWAP4 SWAP3 POP POP POP JUMP JUMPDEST PUSH32 0x4F776E61626C653A206E6577206F776E657220697320746865207A65726F2061 PUSH1 0x0 DUP3 ADD MSTORE PUSH32 0x6464726573730000000000000000000000000000000000000000000000000000 PUSH1 0x20 DUP3 ADD MSTORE POP JUMP JUMPDEST PUSH1 0x0 PUSH2 0x508E PUSH1 0x26 DUP4 PUSH2 0x4A76 JUMP JUMPDEST SWAP2 POP PUSH2 0x5099 DUP3 PUSH2 0x5032 JUMP JUMPDEST PUSH1 0x40 DUP3 ADD SWAP1 POP SWAP2 SWAP1 POP JUMP JUMPDEST PUSH1 0x0 PUSH1 0x20 DUP3 ADD SWAP1 POP DUP2 DUP2 SUB PUSH1 0x0 DUP4 ADD MSTORE PUSH2 0x50BD DUP2 PUSH2 0x5081 JUMP JUMPDEST SWAP1 POP SWAP2 SWAP1 POP JUMP JUMPDEST PUSH32 0x4F776E61626C653A2063616C6C6572206973206E6F7420746865206F776E6572 PUSH1 0x0 DUP3 ADD MSTORE POP JUMP JUMPDEST PUSH1 0x0 PUSH2 0x50FA PUSH1 0x20 DUP4 PUSH2 0x4A76 JUMP JUMPDEST SWAP2 POP PUSH2 0x5105 DUP3 PUSH2 0x50C4 JUMP JUMPDEST PUSH1 0x20 DUP3 ADD SWAP1 POP SWAP2 SWAP1 POP JUMP JUMPDEST PUSH1 0x0 PUSH1 0x20 DUP3 ADD SWAP1 POP DUP2 DUP2 SUB PUSH1 0x0 DUP4 ADD MSTORE PUSH2 0x5129 DUP2 PUSH2 0x50ED JUMP JUMPDEST SWAP1 POP SWAP2 SWAP1 POP JUMP JUMPDEST PUSH32 0x5061757361626C653A206E6F7420706175736564000000000000000000000000 PUSH1 0x0 DUP3 ADD MSTORE POP JUMP JUMPDEST PUSH1 0x0 PUSH2 0x5166 PUSH1 0x14 DUP4 PUSH2 0x4A76 JUMP JUMPDEST SWAP2 POP PUSH2 0x5171 DUP3 PUSH2 0x5130 JUMP JUMPDEST PUSH1 0x20 DUP3 ADD SWAP1 POP SWAP2 SWAP1 POP JUMP JUMPDEST PUSH1 0x0 PUSH1 0x20 DUP3 ADD SWAP1 POP DUP2 DUP2 SUB PUSH1 0x0 DUP4 ADD MSTORE PUSH2 0x5195 DUP2 PUSH2 0x5159 JUMP JUMPDEST SWAP1 POP SWAP2 SWAP1 POP JUMP JUMPDEST PUSH32 0x5061757361626C653A2070617573656400000000000000000000000000000000 PUSH1 0x0 DUP3 ADD MSTORE POP JUMP JUMPDEST PUSH1 0x0 PUSH2 0x51D2 PUSH1 0x10 DUP4 PUSH2 0x4A76 JUMP JUMPDEST SWAP2 POP PUSH2 0x51DD DUP3 PUSH2 0x519C JUMP JUMPDEST PUSH1 0x20 DUP3 ADD SWAP1 POP SWAP2 SWAP1 POP JUMP JUMPDEST PUSH1 0x0 PUSH1 0x20 DUP3 ADD SWAP1 POP DUP2 DUP2 SUB PUSH1 0x0 DUP4 ADD MSTORE PUSH2 0x5201 DUP2 PUSH2 0x51C5 JUMP JUMPDEST SWAP1 POP SWAP2 SWAP1 POP JUMP INVALID LOG2 PUSH5 0x6970667358 0x22 SLT KECCAK256 DUP1 LOG2 PUSH25 0xC9B85A523EFBFCE0C53031A271758B8A2D2FB22DB6A1A25D21 XOR 0xE6 0xE4 SHL PUSH5 0x736F6C6343 STOP ADDMOD 0xF STOP CALLER "},"methodIdentifiers":{"calculateGain(uint256,(address,uint256,uint256)[])":"baf63783","calculateMatchResult(uint8,uint8)":"f49a20bd","claim()":"4e71d92d","createContest(uint256,uint256,uint32[])":"413dc26d","deposit(uint256)":"b6b55f25","getContestPredictionEndDate()":"08af2d78","getContestTable(uint256)":"2452a7e3","getCurrentContestId()":"fb46bd22","getGlobalPrizePool()":"b4ace158","getListRequestIdPerContest(uint256)":"f0fad4aa","getNumberOfGamesPerContest(uint256)":"1d883342","getNumberOfPlayers(uint256)":"62436d9d","getPlayerRank(uint256,address)":"4fda591e","getPointsOfPlayerForContest(uint256,address)":"fee90160","getPointsTable(uint256)":"27ca8b98","getPrevisionsPerPlayerPerContest(uint256,address)":"117f3998","getPrevisionsPerPlayerPerGame(address,uint32)":"bd874a1d","getScoresPerGameId(uint256,uint32)":"6851e9a9","getVerifPlayerPlayedPerContest(address)":"d69d4077","getWinningsPerPlayer(address)":"8ad2e864","owner()":"8da5cb5b","pause()":"8456cb59","paused()":"5c975abb","renounceOwnership()":"715018a6","resolveGames(uint256,uint256[])":"7158f610","saveGameResult(uint256,uint32[])":"942350c2","savePrediction((uint32,uint8,uint8)[])":"9fa75e9a","savePredictionPerOwner(address,(uint32,uint8,uint8)[])":"e3a5215d","setContestTable(uint256)":"d97a55d6","setEnetContract(address)":"71ce137e","setPoolContract(address)":"59c3f3e0","transferOwnership(address)":"f2fde38b","unpause()":"3f4ba83a","withdraw(uint256)":"2e1a7d4d"}}}}}