{"contracts/IpPrediction.sol":{"IpPrediction":{"abi":[{"inputs":[],"stateMutability":"nonpayable","type":"constructor"},{"inputs":[{"internalType":"address","name":"to","type":"address"},{"internalType":"uint256","name":"amount","type":"uint256"}],"name":"FailedTransferLINK","type":"error"},{"anonymous":false,"inputs":[{"indexed":true,"internalType":"bytes32","name":"id","type":"bytes32"}],"name":"ChainlinkCancelled","type":"event"},{"anonymous":false,"inputs":[{"indexed":true,"internalType":"bytes32","name":"id","type":"bytes32"}],"name":"ChainlinkFulfilled","type":"event"},{"anonymous":false,"inputs":[{"indexed":true,"internalType":"bytes32","name":"id","type":"bytes32"}],"name":"ChainlinkRequested","type":"event"},{"anonymous":false,"inputs":[{"indexed":true,"internalType":"address","name":"previousOwner","type":"address"},{"indexed":true,"internalType":"address","name":"newOwner","type":"address"}],"name":"OwnershipTransferred","type":"event"},{"inputs":[{"internalType":"bytes32","name":"_requestId","type":"bytes32"},{"internalType":"uint256","name":"_payment","type":"uint256"},{"internalType":"bytes4","name":"_callbackFunctionId","type":"bytes4"},{"internalType":"uint256","name":"_expiration","type":"uint256"}],"name":"cancelRequest","outputs":[],"stateMutability":"nonpayable","type":"function"},{"inputs":[{"internalType":"uint256","name":"_contestId","type":"uint256"},{"internalType":"address","name":"_player","type":"address"}],"name":"checkResult","outputs":[{"internalType":"uint256","name":"","type":"uint256"}],"stateMutability":"view","type":"function"},{"inputs":[],"name":"contractBalances","outputs":[{"internalType":"uint256","name":"eth","type":"uint256"},{"internalType":"uint256","name":"link","type":"uint256"}],"stateMutability":"view","type":"function"},{"inputs":[{"internalType":"uint256","name":"_leagueId","type":"uint256"},{"internalType":"uint256[]","name":"_listDates","type":"uint256[]"},{"internalType":"uint256","name":"_dateEndContest","type":"uint256"}],"name":"createContest","outputs":[],"stateMutability":"nonpayable","type":"function"},{"inputs":[{"internalType":"bytes32","name":"_requestId","type":"bytes32"},{"internalType":"bytes[]","name":"_result","type":"bytes[]"}],"name":"fulfillSchedule","outputs":[],"stateMutability":"nonpayable","type":"function"},{"inputs":[{"internalType":"bytes32","name":"_requestId","type":"bytes32"},{"internalType":"uint256","name":"_idx","type":"uint256"}],"name":"getGameCreate","outputs":[{"components":[{"internalType":"uint32","name":"gameId","type":"uint32"},{"internalType":"uint40","name":"startTime","type":"uint40"},{"internalType":"string","name":"homeTeam","type":"string"},{"internalType":"string","name":"awayTeam","type":"string"}],"internalType":"struct IpPrediction.GameCreate","name":"","type":"tuple"}],"stateMutability":"view","type":"function"},{"inputs":[{"internalType":"bytes32","name":"_requestId","type":"bytes32"},{"internalType":"uint256","name":"_idx","type":"uint256"}],"name":"getGameResolve","outputs":[{"components":[{"internalType":"uint32","name":"gameId","type":"uint32"},{"internalType":"uint8","name":"homeScore","type":"uint8"},{"internalType":"uint8","name":"awayScore","type":"uint8"},{"internalType":"string","name":"status","type":"string"}],"internalType":"struct IpPrediction.GameResolve","name":"","type":"tuple"}],"stateMutability":"view","type":"function"},{"inputs":[{"internalType":"uint256","name":"_contestId","type":"uint256"}],"name":"getListGamesPerContest","outputs":[{"components":[{"internalType":"uint32","name":"gameId","type":"uint32"},{"internalType":"uint40","name":"startTime","type":"uint40"},{"internalType":"string","name":"homeTeam","type":"string"},{"internalType":"string","name":"awayTeam","type":"string"}],"internalType":"struct IpPrediction.GameCreate[]","name":"","type":"tuple[]"}],"stateMutability":"view","type":"function"},{"inputs":[{"internalType":"uint256","name":"_contestId","type":"uint256"}],"name":"getNumberOfGamesPerContest","outputs":[{"internalType":"uint256","name":"","type":"uint256"}],"stateMutability":"view","type":"function"},{"inputs":[{"internalType":"bytes32","name":"_requestId","type":"bytes32"}],"name":"getNumberOfGamesPerRequest","outputs":[{"internalType":"uint256","name":"","type":"uint256"}],"stateMutability":"view","type":"function"},{"inputs":[{"internalType":"uint256","name":"_contestId","type":"uint256"},{"internalType":"address","name":"_player","type":"address"}],"name":"getPrevisionsPerPlayerPerContest","outputs":[{"components":[{"internalType":"uint32","name":"gameId","type":"uint32"},{"internalType":"uint8","name":"homeScore","type":"uint8"},{"internalType":"uint8","name":"awayScore","type":"uint8"}],"internalType":"struct IpPrediction.GamePredict[]","name":"","type":"tuple[]"}],"stateMutability":"view","type":"function"},{"inputs":[{"internalType":"uint256","name":"_contestId","type":"uint256"}],"name":"getRequestIdPerContest","outputs":[{"internalType":"bytes32[]","name":"","type":"bytes32[]"}],"stateMutability":"view","type":"function"},{"inputs":[],"name":"owner","outputs":[{"internalType":"address","name":"","type":"address"}],"stateMutability":"view","type":"function"},{"inputs":[],"name":"renounceOwnership","outputs":[],"stateMutability":"nonpayable","type":"function"},{"inputs":[{"internalType":"uint256","name":"_market","type":"uint256"},{"internalType":"uint256","name":"_leagueId","type":"uint256"},{"internalType":"uint256","name":"_date","type":"uint256"}],"name":"requestSchedule","outputs":[{"internalType":"bytes32","name":"","type":"bytes32"}],"stateMutability":"nonpayable","type":"function"},{"inputs":[{"components":[{"internalType":"uint32","name":"gameId","type":"uint32"},{"internalType":"uint8","name":"homeScore","type":"uint8"},{"internalType":"uint8","name":"awayScore","type":"uint8"}],"internalType":"struct IpPrediction.GamePredict[]","name":"_gamePredictions","type":"tuple[]"}],"name":"savePrediction","outputs":[],"stateMutability":"nonpayable","type":"function"},{"inputs":[{"internalType":"uint256","name":"_leagueId","type":"uint256"},{"internalType":"uint256","name":"_date","type":"uint256"}],"name":"saveRequestResults","outputs":[],"stateMutability":"nonpayable","type":"function"},{"inputs":[{"internalType":"address","name":"newOwner","type":"address"}],"name":"transferOwnership","outputs":[],"stateMutability":"nonpayable","type":"function"},{"inputs":[{"internalType":"address payable","name":"_payee","type":"address"},{"internalType":"uint256","name":"_amount","type":"uint256"}],"name":"withdrawLink","outputs":[],"stateMutability":"nonpayable","type":"function"}],"evm":{"bytecode":{"linkReferences":{},"object":"608060405260016004553480156200001657600080fd5b50620000376200002b620000c860201b60201c565b620000d060201b60201c565b6200005c73326c977e6efc84e512bb9c30f76e30c160ed06fb6200019660201b60201c565b6200008173d5821b900e44db9490da9b09541bbd027fbecf4e620001da60201b60201c565b7f643131306235633462383364343264636132306534313061633533376364393460001b600c8190555067016345785d8a0000600d819055506000600e819055506200021e565b600033905090565b6000600660009054906101000a900473ffffffffffffffffffffffffffffffffffffffff16905081600660006101000a81548173ffffffffffffffffffffffffffffffffffffffff021916908373ffffffffffffffffffffffffffffffffffffffff1602179055508173ffffffffffffffffffffffffffffffffffffffff168173ffffffffffffffffffffffffffffffffffffffff167f8be0079c531659141344cd1fd0a4f28419497f9722a3daafe3b4186f6b6457e060405160405180910390a35050565b80600260006101000a81548173ffffffffffffffffffffffffffffffffffffffff021916908373ffffffffffffffffffffffffffffffffffffffff16021790555050565b80600360006101000a81548173ffffffffffffffffffffffffffffffffffffffff021916908373ffffffffffffffffffffffffffffffffffffffff16021790555050565b6145a1806200022e6000396000f3fe608060405234801561001057600080fd5b50600436106101215760003560e01c80637e5dd913116100ad578063de00d10711610071578063de00d10714610319578063e3c046a714610349578063ec65d0f814610379578063f02e41a314610395578063f2fde38b146103c557610121565b80637e5dd913146102635780637fb9c45f146102935780638da5cb5b146102c357806393d07072146102e15780639fa75e9a146102fd57610121565b806354b7faae116100f457806354b7faae146101d5578063580c2f54146101f15780635d65d2b614610221578063685c3e9f1461023d578063715018a61461025957610121565b8063117f3998146101265780631506bca6146101565780631d883342146101865780632163885a146101b6575b600080fd5b610140600480360381019061013b91906128f0565b6103e1565b60405161014d9190612a5c565b60405180910390f35b610170600480360381019061016b9190612a7e565b610638565b60405161017d9190612b73565b60405180910390f35b6101a0600480360381019061019b9190612a7e565b6106a3565b6040516101ad9190612ba4565b60405180910390f35b6101be61073b565b6040516101cc929190612bbf565b60405180910390f35b6101ef60048036038101906101ea9190612c26565b6107ce565b005b61020b60048036038101906102069190612c66565b6108a0565b6040516102189190612cc8565b60405180910390f35b61023b60048036038101906102369190612ce3565b6109b2565b005b61025760048036038101906102529190612e7c565b610b52565b005b610261610c3a565b005b61027d60048036038101906102789190612a7e565b610c4e565b60405161028a91906130bf565b60405180910390f35b6102ad60048036038101906102a891906128f0565b610e78565b6040516102ba9190612ba4565b60405180910390f35b6102cb611250565b6040516102d891906130f0565b60405180910390f35b6102fb60048036038101906102f691906132cd565b61127a565b005b610317600480360381019061031291906134ad565b6113ac565b005b610333600480360381019061032e91906134f6565b6115c4565b6040516103409190613599565b60405180910390f35b610363600480360381019061035e91906134f6565b611694565b6040516103709190613625565b60405180910390f35b610393600480360381019061038e919061369f565b611764565b005b6103af60048036038101906103aa9190613706565b611776565b6040516103bc9190612ba4565b60405180910390f35b6103df60048036038101906103da9190613733565b611796565b005b606060006103ee846106a3565b90506000808267ffffffffffffffff81111561040d5761040c612d39565b5b60405190808252806020026020018201604052801561044657816020015b610433612651565b81526020019060019003908161042b5790505b50905060008367ffffffffffffffff81111561046557610464612d39565b5b60405190808252806020026020018201604052801561049e57816020015b61048b61267e565b8152602001906001900390816104835790505b5090506104aa87610c4e565b905060005b8481101561062a578181815181106104ca576104c9613760565b5b602002602001015160000151935060405180606001604052808563ffffffff168152602001600b60008a73ffffffffffffffffffffffffffffffffffffffff1673ffffffffffffffffffffffffffffffffffffffff16815260200190815260200160002060008b815260200190815260200160002060008763ffffffff1663ffffffff16815260200190815260200160002060000160009054906101000a900460ff1660ff168152602001600b60008a73ffffffffffffffffffffffffffffffffffffffff1673ffffffffffffffffffffffffffffffffffffffff16815260200190815260200160002060008b815260200190815260200160002060008763ffffffff1663ffffffff16815260200190815260200160002060000160019054906101000a900460ff1660ff1681525083828151811061060c5761060b613760565b5b60200260200101819052508080610622906137be565b9150506104af565b508194505050505092915050565b60606008600083815260200190815260200160002080548060200260200160405190810160405280929190818152602001828054801561069757602002820191906000526020600020905b815481526020019060010190808311610683575b50505050509050919050565b6000806000905060005b600860008581526020019081526020016000208054905081101561073157600760006008600087815260200190815260200160002083815481106106f4576106f3613760565b5b90600052602060002001548152602001908152602001600020805490508261071c9190613806565b91508080610729906137be565b9150506106ad565b5080915050919050565b600080479150600061074b611819565b90508073ffffffffffffffffffffffffffffffffffffffff166370a08231306040518263ffffffff1660e01b815260040161078691906130f0565b602060405180830381865afa1580156107a3573d6000803e3d6000fd5b505050506040513d601f19601f820116820180604052508101906107c79190613871565b9150509091565b60006107d8611819565b90508073ffffffffffffffffffffffffffffffffffffffff1663a9059cbb84846040518363ffffffff1660e01b81526004016108159291906138fd565b6020604051808303816000875af1158015610834573d6000803e3d6000fd5b505050506040513d601f19601f82011682018060405250810190610858919061395e565b61089b5782826040517f7ab2f9770000000000000000000000000000000000000000000000000000000081526004016108929291906138fd565b60405180910390fd5b505050565b60008060006108b8600c546393d0707260e01b611843565b90506109046040518060400160405280600681526020017f6d61726b6574000000000000000000000000000000000000000000000000000081525087836118739092919063ffffffff16565b61094e6040518060400160405280600881526020017f6c6561677565496400000000000000000000000000000000000000000000000081525086836118739092919063ffffffff16565b6109986040518060400160405280600481526020017f646174650000000000000000000000000000000000000000000000000000000081525085836118739092919063ffffffff16565b6109a481600d546118a6565b915081925050509392505050565b6109ba6126b3565b60006109c8600185856108a0565b905060005b6007600083815260200190815260200160002080549050811015610b4b57610aab600760008481526020019081526020016000208281548110610a1357610a12613760565b5b906000526020600020018054610a28906139ba565b80601f0160208091040260200160405190810160405280929190818152602001828054610a54906139ba565b8015610aa15780601f10610a7657610100808354040283529160200191610aa1565b820191906000526020600020905b815481529060010190602001808311610a8457829003601f168201915b50505050506118dd565b92506040518060400160405280846020015160ff168152602001846040015160ff16815250600a6000856000015163ffffffff1663ffffffff16815260200190815260200160002060008201518160000160006101000a81548160ff021916908360ff16021790555060208201518160000160016101000a81548160ff021916908360ff1602179055509050508080610b43906137be565b9150506109cd565b5050505050565b600e6000815480929190610b65906137be565b9190505550600080600090505b8351811015610bf257610ba1600086868481518110610b9457610b93613760565b5b60200260200101516108a0565b915060086000600e5481526020019081526020016000208290806001815401808255809150506001900390600052602060002001600090919091909150558080610bea906137be565b915050610b72565b5060405180604001604052808581526020018381525060096000600e548152602001908152602001600020600082015181600001556020820151816001015590505050505050565b610c4261199d565b610c4c6000611a1b565b565b60606000610c5b836106a3565b90506000808267ffffffffffffffff811115610c7a57610c79612d39565b5b604051908082528060200260200182016040528015610cb357816020015b610ca061267e565b815260200190600190039081610c985790505b50905060005b6008600087815260200190815260200160002080549050811015610e6c5760076000600860008981526020019081526020016000208381548110610d0057610cff613760565b5b9060005260206000200154815260200190815260200160002080549050935060005b84811015610e5857610e1960076000600860008b81526020019081526020016000208581548110610d5657610d55613760565b5b906000526020600020015481526020019081526020016000208281548110610d8157610d80613760565b5b906000526020600020018054610d96906139ba565b80601f0160208091040260200160405190810160405280929190818152602001828054610dc2906139ba565b8015610e0f5780601f10610de457610100808354040283529160200191610e0f565b820191906000526020600020905b815481529060010190602001808311610df257829003601f168201915b5050505050611ae1565b838581518110610e2c57610e2b613760565b5b60200260200101819052508380610e42906137be565b9450508080610e50906137be565b915050610d22565b508080610e64906137be565b915050610cb9565b50809350505050919050565b60008060008060009050600080610e8e886106a3565b905060008167ffffffffffffffff811115610eac57610eab612d39565b5b604051908082528060200260200182016040528015610ee557816020015b610ed261267e565b815260200190600190039081610eca5790505b509050610ef189610c4e565b905060005b8281101561124057818181518110610f1157610f10613760565b5b6020026020010151600001519350611023600b60008b73ffffffffffffffffffffffffffffffffffffffff1673ffffffffffffffffffffffffffffffffffffffff16815260200190815260200160002060008c815260200190815260200160002060008663ffffffff1663ffffffff16815260200190815260200160002060000160009054906101000a900460ff16600b60008c73ffffffffffffffffffffffffffffffffffffffff1673ffffffffffffffffffffffffffffffffffffffff16815260200190815260200160002060008d815260200190815260200160002060008763ffffffff1663ffffffff16815260200190815260200160002060000160019054906101000a900460ff16611bbe565b965061108d600a60008663ffffffff1663ffffffff16815260200190815260200160002060000160009054906101000a900460ff16600a60008763ffffffff1663ffffffff16815260200190815260200160002060000160019054906101000a900460ff16611bbe565b955085870361122d576001856110a39190613806565b9450600a60008563ffffffff1663ffffffff16815260200190815260200160002060000160009054906101000a900460ff1660ff16600b60008b73ffffffffffffffffffffffffffffffffffffffff1673ffffffffffffffffffffffffffffffffffffffff16815260200190815260200160002060008c815260200190815260200160002060008663ffffffff1663ffffffff16815260200190815260200160002060000160009054906101000a900460ff1660ff161480156112175750600a60008563ffffffff1663ffffffff16815260200190815260200160002060000160019054906101000a900460ff1660ff16600b60008b73ffffffffffffffffffffffffffffffffffffffff1673ffffffffffffffffffffffffffffffffffffffff16815260200190815260200160002060008c815260200190815260200160002060008663ffffffff1663ffffffff16815260200190815260200160002060000160019054906101000a900460ff1660ff16145b1561122c576002856112299190613806565b94505b5b8080611238906137be565b915050610ef6565b5083965050505050505092915050565b6000600660009054906101000a900473ffffffffffffffffffffffffffffffffffffffff16905090565b816005600082815260200190815260200160002060009054906101000a900473ffffffffffffffffffffffffffffffffffffffff1673ffffffffffffffffffffffffffffffffffffffff163373ffffffffffffffffffffffffffffffffffffffff161461131c576040517f08c379a000000000000000000000000000000000000000000000000000000000815260040161131390613a6e565b60405180910390fd5b6005600082815260200190815260200160002060006101000a81549073ffffffffffffffffffffffffffffffffffffffff0219169055807f7cc135e0cebb02c3480ae5d74d377283180a2601f8f644edf7987b009316c63a60405160405180910390a2816007600085815260200190815260200160002090805190602001906113a69291906126e7565b50505050565b60096000600e548152602001908152602001600020600101544210611406576040517f08c379a00000000000000000000000000000000000000000000000000000000081526004016113fd90613ada565b60405180910390fd5b60086000600e54815260200190815260200160002080549050815114611461576040517f08c379a000000000000000000000000000000000000000000000000000000000815260040161145890613b6c565b60405180910390fd5b60005b60086000600e548152602001908152602001600020805490508110156115c05760405180604001604052808383815181106114a2576114a1613760565b5b60200260200101516020015160ff1681526020018383815181106114c9576114c8613760565b5b60200260200101516040015160ff16815250600b60003373ffffffffffffffffffffffffffffffffffffffff1673ffffffffffffffffffffffffffffffffffffffff1681526020019081526020016000206000600e548152602001908152602001600020600084848151811061154257611541613760565b5b60200260200101516000015163ffffffff1663ffffffff16815260200190815260200160002060008201518160000160006101000a81548160ff021916908360ff16021790555060208201518160000160016101000a81548160ff021916908360ff16021790555090505080806115b8906137be565b915050611464565b5050565b6115cc6126b3565b61168c6007600085815260200190815260200160002083815481106115f4576115f3613760565b5b906000526020600020018054611609906139ba565b80601f0160208091040260200160405190810160405280929190818152602001828054611635906139ba565b80156116825780601f1061165757610100808354040283529160200191611682565b820191906000526020600020905b81548152906001019060200180831161166557829003601f168201915b50505050506118dd565b905092915050565b61169c61267e565b61175c6007600085815260200190815260200160002083815481106116c4576116c3613760565b5b9060005260206000200180546116d9906139ba565b80601f0160208091040260200160405190810160405280929190818152602001828054611705906139ba565b80156117525780601f1061172757610100808354040283529160200191611752565b820191906000526020600020905b81548152906001019060200180831161173557829003601f168201915b5050505050611ae1565b905092915050565b61177084848484611bff565b50505050565b600060076000838152602001908152602001600020805490509050919050565b61179e61199d565b600073ffffffffffffffffffffffffffffffffffffffff168173ffffffffffffffffffffffffffffffffffffffff160361180d576040517f08c379a000000000000000000000000000000000000000000000000000000000815260040161180490613bfe565b60405180910390fd5b61181681611a1b565b50565b6000600260009054906101000a900473ffffffffffffffffffffffffffffffffffffffff16905090565b61184b612740565b611853612740565b61186a84308584611d12909392919063ffffffff16565b91505092915050565b61188a828460800151611dc290919063ffffffff16565b6118a1818460800151611de790919063ffffffff16565b505050565b60006118d5600360009054906101000a900473ffffffffffffffffffffffffffffffffffffffff168484611e17565b905092915050565b6118e56126b3565b60006118f46000600485611ee1565b6118fd90613c5b565b60e01c905060008360048151811061191857611917613760565b5b602001015160f81c60f81b60f81c905060008460058151811061193e5761193d613760565b5b602001015160f81c60f81b60f81c9050600061195d6006875188611ee1565b9050600060405180608001604052808663ffffffff1681526020018560ff1681526020018460ff1681526020018381525090508095505050505050919050565b6119a5611fdd565b73ffffffffffffffffffffffffffffffffffffffff166119c3611250565b73ffffffffffffffffffffffffffffffffffffffff1614611a19576040517f08c379a0000000000000000000000000000000000000000000000000000000008152600401611a1090613d0e565b60405180910390fd5b565b6000600660009054906101000a900473ffffffffffffffffffffffffffffffffffffffff16905081600660006101000a81548173ffffffffffffffffffffffffffffffffffffffff021916908373ffffffffffffffffffffffffffffffffffffffff1602179055508173ffffffffffffffffffffffffffffffffffffffff168173ffffffffffffffffffffffffffffffffffffffff167f8be0079c531659141344cd1fd0a4f28419497f9722a3daafe3b4186f6b6457e060405160405180910390a35050565b611ae961267e565b6000611af86000600485611ee1565b611b0190613c5b565b60e01c90506000611b156004600986611ee1565b611b1e90613d6f565b60d81c9050600084600981518110611b3957611b38613760565b5b602001015160f81c60f81b60f81c9050600081600a611b589190613dd6565b60ff1690506000611b6b600a8389611ee1565b90506000611b7b8389518a611ee1565b9050600060405180608001604052808863ffffffff1681526020018764ffffffffff16815260200184815260200183815250905080975050505050505050919050565b6000808260ff168460ff161115611bd85760009050611bf5565b8360ff168360ff161115611bef5760029050611bf4565b600190505b5b8091505092915050565b60006005600086815260200190815260200160002060009054906101000a900473ffffffffffffffffffffffffffffffffffffffff1690506005600086815260200190815260200160002060006101000a81549073ffffffffffffffffffffffffffffffffffffffff0219169055847fe1fe3afa0f7f761ff0a8b89086790efd5140d2907ebd5b7ff6bfcb5e075fd4c560405160405180910390a28073ffffffffffffffffffffffffffffffffffffffff16636ee4d553868686866040518563ffffffff1660e01b8152600401611cd99493929190613e1c565b600060405180830381600087803b158015611cf357600080fd5b505af1158015611d07573d6000803e3d6000fd5b505050505050505050565b611d1a612740565b611d2a8560800151610100611fe5565b508385600001818152505082856020019073ffffffffffffffffffffffffffffffffffffffff16908173ffffffffffffffffffffffffffffffffffffffff16815250508185604001907bffffffffffffffffffffffffffffffffffffffffffffffffffffffff191690817bffffffffffffffffffffffffffffffffffffffffffffffffffffffff191681525050849050949350505050565b611dcf826003835161204f565b611de281836121d490919063ffffffff16565b505050565b67ffffffffffffffff811115611e0657611e0182826121f6565b611e13565b611e128260008361204f565b5b5050565b6000806004549050600181611e2c9190613806565b6004819055506000633c6d41b960e01b600080876000015188604001518660028b6080015160000151604051602401611e6b9796959493929190613eab565b604051602081830303815290604052907bffffffffffffffffffffffffffffffffffffffffffffffffffffffff19166020820180517bffffffffffffffffffffffffffffffffffffffffffffffffffffffff83818316178352505050509050611ed686838684612242565b925050509392505050565b606060008484611ef19190613f21565b67ffffffffffffffff811115611f0a57611f09612d39565b5b6040519080825280601f01601f191660200182016040528015611f3c5781602001600182028036833780820191505090505b50905060005b8585611f4e9190613f21565b811015611fd157838187611f629190613806565b81518110611f7357611f72613760565b5b602001015160f81c60f81b828281518110611f9157611f90613760565b5b60200101907effffffffffffffffffffffffffffffffffffffffffffffffffffffffffffff1916908160001a90535080611fca906137be565b9050611f42565b50809150509392505050565b600033905090565b611fed6127ad565b6000602083611ffc9190613f84565b146120285760208261200e9190613f84565b602061201a9190613f21565b826120259190613806565b91505b81836020018181525050604051808452600081528281016020016040525082905092915050565b60178167ffffffffffffffff1611612086576120808160058460ff16901b60ff1617846123d790919063ffffffff16565b506121cf565b60ff8167ffffffffffffffff16116120dc576120b5601860058460ff16901b17846123d790919063ffffffff16565b506120d68167ffffffffffffffff166001856123f79092919063ffffffff16565b506121ce565b61ffff8167ffffffffffffffff16116121335761210c601960058460ff16901b17846123d790919063ffffffff16565b5061212d8167ffffffffffffffff166002856123f79092919063ffffffff16565b506121cd565b63ffffffff8167ffffffffffffffff161161218c57612165601a60058460ff16901b17846123d790919063ffffffff16565b506121868167ffffffffffffffff166004856123f79092919063ffffffff16565b506121cc565b6121a9601b60058460ff16901b17846123d790919063ffffffff16565b506121ca8167ffffffffffffffff166008856123f79092919063ffffffff16565b505b5b5b5b505050565b6121dc6127ad565b6121ee83846000015151848551612419565b905092915050565b61221460026005600660ff16901b17836123d790919063ffffffff16565b5061223e828260405160200161222a9190612ba4565b604051602081830303815290604052612508565b5050565b60003084604051602001612257929190614030565b604051602081830303815290604052805190602001209050846005600083815260200190815260200160002060006101000a81548173ffffffffffffffffffffffffffffffffffffffff021916908373ffffffffffffffffffffffffffffffffffffffff160217905550807fb5e6e01e79f91267dc17b4e6314d5d4d03593d2ceee0fbb452b750bd70ea5af960405160405180910390a2600260009054906101000a900473ffffffffffffffffffffffffffffffffffffffff1673ffffffffffffffffffffffffffffffffffffffff16634000aea08685856040518463ffffffff1660e01b815260040161234d9392919061405c565b6020604051808303816000875af115801561236c573d6000803e3d6000fd5b505050506040513d601f19601f82011682018060405250810190612390919061395e565b6123cf576040517f08c379a00000000000000000000000000000000000000000000000000000000081526004016123c69061410c565b60405180910390fd5b949350505050565b6123df6127ad565b6123ef838460000151518461252d565b905092915050565b6123ff6127ad565b612410848560000151518585612583565b90509392505050565b6124216127ad565b825182111561242f57600080fd5b846020015182856124409190613806565b111561247557612474856002612465886020015188876124609190613806565b612611565b61246f919061412c565b61262d565b5b6000808651805187602083010193508088870111156124945787860182525b60208701925050505b602084106124db57805182526020826124b69190613806565b91506020816124c59190613806565b90506020846124d49190613f21565b935061249d565b60006001856020036101000a03905080198251168184511681811785525050508692505050949350505050565b612515826002835161204f565b61252881836121d490919063ffffffff16565b505050565b6125356127ad565b8360200151831061255b5761255a8460028660200151612555919061412c565b61262d565b5b83518051602085830101848153818603612576576001820183525b5050508390509392505050565b61258b6127ad565b8460200151848361259c9190613806565b11156125c4576125c385600286856125b49190613806565b6125be919061412c565b61262d565b5b60006001836101006125d691906142b9565b6125e09190613f21565b905085518386820101858319825116178152815185880111156126035784870182525b505085915050949350505050565b60008183111561262357829050612627565b8190505b92915050565b6000826000015190506126408383611fe5565b5061264b83826121d4565b50505050565b6040518060600160405280600063ffffffff168152602001600060ff168152602001600060ff1681525090565b6040518060800160405280600063ffffffff168152602001600064ffffffffff16815260200160608152602001606081525090565b6040518060800160405280600063ffffffff168152602001600060ff168152602001600060ff168152602001606081525090565b82805482825590600052602060002090810192821561272f579160200282015b8281111561272e57825182908161271e9190614499565b5091602001919060010190612707565b5b50905061273c91906127c7565b5090565b6040518060a0016040528060008019168152602001600073ffffffffffffffffffffffffffffffffffffffff16815260200160007bffffffffffffffffffffffffffffffffffffffffffffffffffffffff19168152602001600081526020016127a76127ad565b81525090565b604051806040016040528060608152602001600081525090565b5b808211156127e757600081816127de91906127eb565b506001016127c8565b5090565b5080546127f7906139ba565b6000825580601f106128095750612828565b601f016020900490600052602060002090810190612827919061282b565b5b50565b5b8082111561284457600081600090555060010161282c565b5090565b6000604051905090565b600080fd5b600080fd5b6000819050919050565b61286f8161285c565b811461287a57600080fd5b50565b60008135905061288c81612866565b92915050565b600073ffffffffffffffffffffffffffffffffffffffff82169050919050565b60006128bd82612892565b9050919050565b6128cd816128b2565b81146128d857600080fd5b50565b6000813590506128ea816128c4565b92915050565b6000806040838503121561290757612906612852565b5b60006129158582860161287d565b9250506020612926858286016128db565b9150509250929050565b600081519050919050565b600082825260208201905092915050565b6000819050602082019050919050565b600063ffffffff82169050919050565b6129758161295c565b82525050565b600060ff82169050919050565b6129918161297b565b82525050565b6060820160008201516129ad600085018261296c565b5060208201516129c06020850182612988565b5060408201516129d36040850182612988565b50505050565b60006129e58383612997565b60608301905092915050565b6000602082019050919050565b6000612a0982612930565b612a13818561293b565b9350612a1e8361294c565b8060005b83811015612a4f578151612a3688826129d9565b9750612a41836129f1565b925050600181019050612a22565b5085935050505092915050565b60006020820190508181036000830152612a7681846129fe565b905092915050565b600060208284031215612a9457612a93612852565b5b6000612aa28482850161287d565b91505092915050565b600081519050919050565b600082825260208201905092915050565b6000819050602082019050919050565b6000819050919050565b612aea81612ad7565b82525050565b6000612afc8383612ae1565b60208301905092915050565b6000602082019050919050565b6000612b2082612aab565b612b2a8185612ab6565b9350612b3583612ac7565b8060005b83811015612b66578151612b4d8882612af0565b9750612b5883612b08565b925050600181019050612b39565b5085935050505092915050565b60006020820190508181036000830152612b8d8184612b15565b905092915050565b612b9e8161285c565b82525050565b6000602082019050612bb96000830184612b95565b92915050565b6000604082019050612bd46000830185612b95565b612be16020830184612b95565b9392505050565b6000612bf382612892565b9050919050565b612c0381612be8565b8114612c0e57600080fd5b50565b600081359050612c2081612bfa565b92915050565b60008060408385031215612c3d57612c3c612852565b5b6000612c4b85828601612c11565b9250506020612c5c8582860161287d565b9150509250929050565b600080600060608486031215612c7f57612c7e612852565b5b6000612c8d8682870161287d565b9350506020612c9e8682870161287d565b9250506040612caf8682870161287d565b9150509250925092565b612cc281612ad7565b82525050565b6000602082019050612cdd6000830184612cb9565b92915050565b60008060408385031215612cfa57612cf9612852565b5b6000612d088582860161287d565b9250506020612d198582860161287d565b9150509250929050565b600080fd5b6000601f19601f8301169050919050565b7f4e487b7100000000000000000000000000000000000000000000000000000000600052604160045260246000fd5b612d7182612d28565b810181811067ffffffffffffffff82111715612d9057612d8f612d39565b5b80604052505050565b6000612da3612848565b9050612daf8282612d68565b919050565b600067ffffffffffffffff821115612dcf57612dce612d39565b5b602082029050602081019050919050565b600080fd5b6000612df8612df384612db4565b612d99565b90508083825260208201905060208402830185811115612e1b57612e1a612de0565b5b835b81811015612e445780612e30888261287d565b845260208401935050602081019050612e1d565b5050509392505050565b600082601f830112612e6357612e62612d23565b5b8135612e73848260208601612de5565b91505092915050565b600080600060608486031215612e9557612e94612852565b5b6000612ea38682870161287d565b935050602084013567ffffffffffffffff811115612ec457612ec3612857565b5b612ed086828701612e4e565b9250506040612ee18682870161287d565b9150509250925092565b600081519050919050565b600082825260208201905092915050565b6000819050602082019050919050565b600064ffffffffff82169050919050565b612f3181612f17565b82525050565b600081519050919050565b600082825260208201905092915050565b60005b83811015612f71578082015181840152602081019050612f56565b83811115612f80576000848401525b50505050565b6000612f9182612f37565b612f9b8185612f42565b9350612fab818560208601612f53565b612fb481612d28565b840191505092915050565b6000608083016000830151612fd7600086018261296c565b506020830151612fea6020860182612f28565b50604083015184820360408601526130028282612f86565b9150506060830151848203606086015261301c8282612f86565b9150508091505092915050565b60006130358383612fbf565b905092915050565b6000602082019050919050565b600061305582612eeb565b61305f8185612ef6565b93508360208202850161307185612f07565b8060005b858110156130ad578484038952815161308e8582613029565b94506130998361303d565b925060208a01995050600181019050613075565b50829750879550505050505092915050565b600060208201905081810360008301526130d9818461304a565b905092915050565b6130ea816128b2565b82525050565b600060208201905061310560008301846130e1565b92915050565b61311481612ad7565b811461311f57600080fd5b50565b6000813590506131318161310b565b92915050565b600067ffffffffffffffff82111561315257613151612d39565b5b602082029050602081019050919050565b600080fd5b600067ffffffffffffffff82111561318357613182612d39565b5b61318c82612d28565b9050602081019050919050565b82818337600083830152505050565b60006131bb6131b684613168565b612d99565b9050828152602081018484840111156131d7576131d6613163565b5b6131e2848285613199565b509392505050565b600082601f8301126131ff576131fe612d23565b5b813561320f8482602086016131a8565b91505092915050565b600061322b61322684613137565b612d99565b9050808382526020820190506020840283018581111561324e5761324d612de0565b5b835b8181101561329557803567ffffffffffffffff81111561327357613272612d23565b5b80860161328089826131ea565b85526020850194505050602081019050613250565b5050509392505050565b600082601f8301126132b4576132b3612d23565b5b81356132c4848260208601613218565b91505092915050565b600080604083850312156132e4576132e3612852565b5b60006132f285828601613122565b925050602083013567ffffffffffffffff81111561331357613312612857565b5b61331f8582860161329f565b9150509250929050565b600067ffffffffffffffff82111561334457613343612d39565b5b602082029050602081019050919050565b600080fd5b6133638161295c565b811461336e57600080fd5b50565b6000813590506133808161335a565b92915050565b61338f8161297b565b811461339a57600080fd5b50565b6000813590506133ac81613386565b92915050565b6000606082840312156133c8576133c7613355565b5b6133d26060612d99565b905060006133e284828501613371565b60008301525060206133f68482850161339d565b602083015250604061340a8482850161339d565b60408301525092915050565b600061342961342484613329565b612d99565b9050808382526020820190506060840283018581111561344c5761344b612de0565b5b835b81811015613475578061346188826133b2565b84526020840193505060608101905061344e565b5050509392505050565b600082601f83011261349457613493612d23565b5b81356134a4848260208601613416565b91505092915050565b6000602082840312156134c3576134c2612852565b5b600082013567ffffffffffffffff8111156134e1576134e0612857565b5b6134ed8482850161347f565b91505092915050565b6000806040838503121561350d5761350c612852565b5b600061351b85828601613122565b925050602061352c8582860161287d565b9150509250929050565b600060808301600083015161354e600086018261296c565b5060208301516135616020860182612988565b5060408301516135746040860182612988565b506060830151848203606086015261358c8282612f86565b9150508091505092915050565b600060208201905081810360008301526135b38184613536565b905092915050565b60006080830160008301516135d3600086018261296c565b5060208301516135e66020860182612f28565b50604083015184820360408601526135fe8282612f86565b915050606083015184820360608601526136188282612f86565b9150508091505092915050565b6000602082019050818103600083015261363f81846135bb565b905092915050565b60007fffffffff0000000000000000000000000000000000000000000000000000000082169050919050565b61367c81613647565b811461368757600080fd5b50565b60008135905061369981613673565b92915050565b600080600080608085870312156136b9576136b8612852565b5b60006136c787828801613122565b94505060206136d88782880161287d565b93505060406136e98782880161368a565b92505060606136fa8782880161287d565b91505092959194509250565b60006020828403121561371c5761371b612852565b5b600061372a84828501613122565b91505092915050565b60006020828403121561374957613748612852565b5b6000613757848285016128db565b91505092915050565b7f4e487b7100000000000000000000000000000000000000000000000000000000600052603260045260246000fd5b7f4e487b7100000000000000000000000000000000000000000000000000000000600052601160045260246000fd5b60006137c98261285c565b91507fffffffffffffffffffffffffffffffffffffffffffffffffffffffffffffffff82036137fb576137fa61378f565b5b600182019050919050565b60006138118261285c565b915061381c8361285c565b9250827fffffffffffffffffffffffffffffffffffffffffffffffffffffffffffffffff038211156138515761385061378f565b5b828201905092915050565b60008151905061386b81612866565b92915050565b60006020828403121561388757613886612852565b5b60006138958482850161385c565b91505092915050565b6000819050919050565b60006138c36138be6138b984612892565b61389e565b612892565b9050919050565b60006138d5826138a8565b9050919050565b60006138e7826138ca565b9050919050565b6138f7816138dc565b82525050565b600060408201905061391260008301856138ee565b61391f6020830184612b95565b9392505050565b60008115159050919050565b61393b81613926565b811461394657600080fd5b50565b60008151905061395881613932565b92915050565b60006020828403121561397457613973612852565b5b600061398284828501613949565b91505092915050565b7f4e487b7100000000000000000000000000000000000000000000000000000000600052602260045260246000fd5b600060028204905060018216806139d257607f821691505b6020821081036139e5576139e461398b565b5b50919050565b600082825260208201905092915050565b7f536f75726365206d75737420626520746865206f7261636c65206f662074686560008201527f2072657175657374000000000000000000000000000000000000000000000000602082015250565b6000613a586028836139eb565b9150613a63826139fc565b604082019050919050565b60006020820190508181036000830152613a8781613a4b565b9050919050565b7f50726564696374696f6e20506572696f6420697320636c6f7365642100000000600082015250565b6000613ac4601c836139eb565b9150613acf82613a8e565b602082019050919050565b60006020820190508181036000830152613af381613ab7565b9050919050565b7f546865206e756d626572206f662070726564696374696f6e7320646f65736e2760008201527f74206d6174636821000000000000000000000000000000000000000000000000602082015250565b6000613b566028836139eb565b9150613b6182613afa565b604082019050919050565b60006020820190508181036000830152613b8581613b49565b9050919050565b7f4f776e61626c653a206e6577206f776e657220697320746865207a65726f206160008201527f6464726573730000000000000000000000000000000000000000000000000000602082015250565b6000613be86026836139eb565b9150613bf382613b8c565b604082019050919050565b60006020820190508181036000830152613c1781613bdb565b9050919050565b600081519050919050565b6000819050602082019050919050565b6000613c458251613647565b80915050919050565b600082821b905092915050565b6000613c6682613c1e565b82613c7084613c29565b9050613c7b81613c39565b92506004821015613cbb57613cb67fffffffff0000000000000000000000000000000000000000000000000000000083600403600802613c4e565b831692505b5050919050565b7f4f776e61626c653a2063616c6c6572206973206e6f7420746865206f776e6572600082015250565b6000613cf86020836139eb565b9150613d0382613cc2565b602082019050919050565b60006020820190508181036000830152613d2781613ceb565b9050919050565b60007fffffffffff00000000000000000000000000000000000000000000000000000082169050919050565b6000613d668251613d2e565b80915050919050565b6000613d7a82613c1e565b82613d8484613c29565b9050613d8f81613d5a565b92506005821015613dcf57613dca7fffffffffff00000000000000000000000000000000000000000000000000000083600503600802613c4e565b831692505b5050919050565b6000613de18261297b565b9150613dec8361297b565b92508260ff03821115613e0257613e0161378f565b5b828201905092915050565b613e1681613647565b82525050565b6000608082019050613e316000830187612cb9565b613e3e6020830186612b95565b613e4b6040830185613e0d565b613e586060830184612b95565b95945050505050565b600082825260208201905092915050565b6000613e7d82613c1e565b613e878185613e61565b9350613e97818560208601612f53565b613ea081612d28565b840191505092915050565b600060e082019050613ec0600083018a6130e1565b613ecd6020830189612b95565b613eda6040830188612cb9565b613ee76060830187613e0d565b613ef46080830186612b95565b613f0160a0830185612b95565b81810360c0830152613f138184613e72565b905098975050505050505050565b6000613f2c8261285c565b9150613f378361285c565b925082821015613f4a57613f4961378f565b5b828203905092915050565b7f4e487b7100000000000000000000000000000000000000000000000000000000600052601260045260246000fd5b6000613f8f8261285c565b9150613f9a8361285c565b925082613faa57613fa9613f55565b5b828206905092915050565b6000613fc0826138ca565b9050919050565b60008160601b9050919050565b6000613fdf82613fc7565b9050919050565b6000613ff182613fd4565b9050919050565b61400961400482613fb5565b613fe6565b82525050565b6000819050919050565b61402a6140258261285c565b61400f565b82525050565b600061403c8285613ff8565b60148201915061404c8284614019565b6020820191508190509392505050565b600060608201905061407160008301866130e1565b61407e6020830185612b95565b81810360408301526140908184613e72565b9050949350505050565b7f756e61626c6520746f207472616e73666572416e6443616c6c20746f206f726160008201527f636c650000000000000000000000000000000000000000000000000000000000602082015250565b60006140f66023836139eb565b91506141018261409a565b604082019050919050565b60006020820190508181036000830152614125816140e9565b9050919050565b60006141378261285c565b91506141428361285c565b9250817fffffffffffffffffffffffffffffffffffffffffffffffffffffffffffffffff048311821515161561417b5761417a61378f565b5b828202905092915050565b60008160011c9050919050565b6000808291508390505b60018511156141dd578086048111156141b9576141b861378f565b5b60018516156141c85780820291505b80810290506141d685614186565b945061419d565b94509492505050565b6000826141f657600190506142b2565b8161420457600090506142b2565b816001811461421a576002811461422457614253565b60019150506142b2565b60ff8411156142365761423561378f565b5b8360020a91508482111561424d5761424c61378f565b5b506142b2565b5060208310610133831016604e8410600b84101617156142885782820a9050838111156142835761428261378f565b5b6142b2565b6142958484846001614193565b925090508184048111156142ac576142ab61378f565b5b81810290505b9392505050565b60006142c48261285c565b91506142cf8361285c565b92506142fc7fffffffffffffffffffffffffffffffffffffffffffffffffffffffffffffffff84846141e6565b905092915050565b60008190508160005260206000209050919050565b60006020601f8301049050919050565b6000600883026143597fffffffffffffffffffffffffffffffffffffffffffffffffffffffffffffffff82613c4e565b6143638683613c4e565b95508019841693508086168417925050509392505050565b600061439661439161438c8461285c565b61389e565b61285c565b9050919050565b6000819050919050565b6143b08361437b565b6143c46143bc8261439d565b848454614329565b825550505050565b600090565b6143d96143cc565b6143e48184846143a7565b505050565b5b81811015614408576143fd6000826143d1565b6001810190506143ea565b5050565b601f82111561444d5761441e81614304565b61442784614319565b81016020851015614436578190505b61444a61444285614319565b8301826143e9565b50505b505050565b600082821c905092915050565b600061447060001984600802614452565b1980831691505092915050565b6000614489838361445f565b9150826002028217905092915050565b6144a282613c1e565b67ffffffffffffffff8111156144bb576144ba612d39565b5b6144c582546139ba565b6144d082828561440c565b600060209050601f83116001811461450357600084156144f1578287015190505b6144fb858261447d565b865550614563565b601f19841661451186614304565b60005b8281101561453957848901518255600182019150602085019450602081019050614514565b868310156145565784890151614552601f89168261445f565b8355505b6001600288020188555050505b50505050505056fea264697066735822122088c789a08399a9afd111ca4268a6f4f6f91eaa0b64de5880fceac153c62768a464736f6c634300080f0033","opcodes":"PUSH1 0x80 PUSH1 0x40 MSTORE PUSH1 0x1 PUSH1 0x4 SSTORE CALLVALUE DUP1 ISZERO PUSH3 0x16 JUMPI PUSH1 0x0 DUP1 REVERT JUMPDEST POP PUSH3 0x37 PUSH3 0x2B PUSH3 0xC8 PUSH1 0x20 SHL PUSH1 0x20 SHR JUMP JUMPDEST PUSH3 0xD0 PUSH1 0x20 SHL PUSH1 0x20 SHR JUMP JUMPDEST PUSH3 0x5C PUSH20 0x326C977E6EFC84E512BB9C30F76E30C160ED06FB PUSH3 0x196 PUSH1 0x20 SHL PUSH1 0x20 SHR JUMP JUMPDEST PUSH3 0x81 PUSH20 0xD5821B900E44DB9490DA9B09541BBD027FBECF4E PUSH3 0x1DA PUSH1 0x20 SHL PUSH1 0x20 SHR JUMP JUMPDEST PUSH32 0x6431313062356334623833643432646361323065343130616335333763643934 PUSH1 0x0 SHL PUSH1 0xC DUP2 SWAP1 SSTORE POP PUSH8 0x16345785D8A0000 PUSH1 0xD DUP2 SWAP1 SSTORE POP PUSH1 0x0 PUSH1 0xE DUP2 SWAP1 SSTORE POP PUSH3 0x21E JUMP JUMPDEST PUSH1 0x0 CALLER SWAP1 POP SWAP1 JUMP JUMPDEST PUSH1 0x0 PUSH1 0x6 PUSH1 0x0 SWAP1 SLOAD SWAP1 PUSH2 0x100 EXP SWAP1 DIV PUSH20 0xFFFFFFFFFFFFFFFFFFFFFFFFFFFFFFFFFFFFFFFF AND SWAP1 POP DUP2 PUSH1 0x6 PUSH1 0x0 PUSH2 0x100 EXP DUP2 SLOAD DUP2 PUSH20 0xFFFFFFFFFFFFFFFFFFFFFFFFFFFFFFFFFFFFFFFF MUL NOT AND SWAP1 DUP4 PUSH20 0xFFFFFFFFFFFFFFFFFFFFFFFFFFFFFFFFFFFFFFFF AND MUL OR SWAP1 SSTORE POP DUP2 PUSH20 0xFFFFFFFFFFFFFFFFFFFFFFFFFFFFFFFFFFFFFFFF AND DUP2 PUSH20 0xFFFFFFFFFFFFFFFFFFFFFFFFFFFFFFFFFFFFFFFF AND PUSH32 0x8BE0079C531659141344CD1FD0A4F28419497F9722A3DAAFE3B4186F6B6457E0 PUSH1 0x40 MLOAD PUSH1 0x40 MLOAD DUP1 SWAP2 SUB SWAP1 LOG3 POP POP JUMP JUMPDEST DUP1 PUSH1 0x2 PUSH1 0x0 PUSH2 0x100 EXP DUP2 SLOAD DUP2 PUSH20 0xFFFFFFFFFFFFFFFFFFFFFFFFFFFFFFFFFFFFFFFF MUL NOT AND SWAP1 DUP4 PUSH20 0xFFFFFFFFFFFFFFFFFFFFFFFFFFFFFFFFFFFFFFFF AND MUL OR SWAP1 SSTORE POP POP JUMP JUMPDEST DUP1 PUSH1 0x3 PUSH1 0x0 PUSH2 0x100 EXP DUP2 SLOAD DUP2 PUSH20 0xFFFFFFFFFFFFFFFFFFFFFFFFFFFFFFFFFFFFFFFF MUL NOT AND SWAP1 DUP4 PUSH20 0xFFFFFFFFFFFFFFFFFFFFFFFFFFFFFFFFFFFFFFFF AND MUL OR SWAP1 SSTORE POP POP JUMP JUMPDEST PUSH2 0x45A1 DUP1 PUSH3 0x22E PUSH1 0x0 CODECOPY PUSH1 0x0 RETURN INVALID PUSH1 0x80 PUSH1 0x40 MSTORE CALLVALUE DUP1 ISZERO PUSH2 0x10 JUMPI PUSH1 0x0 DUP1 REVERT JUMPDEST POP PUSH1 0x4 CALLDATASIZE LT PUSH2 0x121 JUMPI PUSH1 0x0 CALLDATALOAD PUSH1 0xE0 SHR DUP1 PUSH4 0x7E5DD913 GT PUSH2 0xAD JUMPI DUP1 PUSH4 0xDE00D107 GT PUSH2 0x71 JUMPI DUP1 PUSH4 0xDE00D107 EQ PUSH2 0x319 JUMPI DUP1 PUSH4 0xE3C046A7 EQ PUSH2 0x349 JUMPI DUP1 PUSH4 0xEC65D0F8 EQ PUSH2 0x379 JUMPI DUP1 PUSH4 0xF02E41A3 EQ PUSH2 0x395 JUMPI DUP1 PUSH4 0xF2FDE38B EQ PUSH2 0x3C5 JUMPI PUSH2 0x121 JUMP JUMPDEST DUP1 PUSH4 0x7E5DD913 EQ PUSH2 0x263 JUMPI DUP1 PUSH4 0x7FB9C45F EQ PUSH2 0x293 JUMPI DUP1 PUSH4 0x8DA5CB5B EQ PUSH2 0x2C3 JUMPI DUP1 PUSH4 0x93D07072 EQ PUSH2 0x2E1 JUMPI DUP1 PUSH4 0x9FA75E9A EQ PUSH2 0x2FD JUMPI PUSH2 0x121 JUMP JUMPDEST DUP1 PUSH4 0x54B7FAAE GT PUSH2 0xF4 JUMPI DUP1 PUSH4 0x54B7FAAE EQ PUSH2 0x1D5 JUMPI DUP1 PUSH4 0x580C2F54 EQ PUSH2 0x1F1 JUMPI DUP1 PUSH4 0x5D65D2B6 EQ PUSH2 0x221 JUMPI DUP1 PUSH4 0x685C3E9F EQ PUSH2 0x23D JUMPI DUP1 PUSH4 0x715018A6 EQ PUSH2 0x259 JUMPI PUSH2 0x121 JUMP JUMPDEST DUP1 PUSH4 0x117F3998 EQ PUSH2 0x126 JUMPI DUP1 PUSH4 0x1506BCA6 EQ PUSH2 0x156 JUMPI DUP1 PUSH4 0x1D883342 EQ PUSH2 0x186 JUMPI DUP1 PUSH4 0x2163885A EQ PUSH2 0x1B6 JUMPI JUMPDEST PUSH1 0x0 DUP1 REVERT JUMPDEST PUSH2 0x140 PUSH1 0x4 DUP1 CALLDATASIZE SUB DUP2 ADD SWAP1 PUSH2 0x13B SWAP2 SWAP1 PUSH2 0x28F0 JUMP JUMPDEST PUSH2 0x3E1 JUMP JUMPDEST PUSH1 0x40 MLOAD PUSH2 0x14D SWAP2 SWAP1 PUSH2 0x2A5C JUMP JUMPDEST PUSH1 0x40 MLOAD DUP1 SWAP2 SUB SWAP1 RETURN JUMPDEST PUSH2 0x170 PUSH1 0x4 DUP1 CALLDATASIZE SUB DUP2 ADD SWAP1 PUSH2 0x16B SWAP2 SWAP1 PUSH2 0x2A7E JUMP JUMPDEST PUSH2 0x638 JUMP JUMPDEST PUSH1 0x40 MLOAD PUSH2 0x17D SWAP2 SWAP1 PUSH2 0x2B73 JUMP JUMPDEST PUSH1 0x40 MLOAD DUP1 SWAP2 SUB SWAP1 RETURN JUMPDEST PUSH2 0x1A0 PUSH1 0x4 DUP1 CALLDATASIZE SUB DUP2 ADD SWAP1 PUSH2 0x19B SWAP2 SWAP1 PUSH2 0x2A7E JUMP JUMPDEST PUSH2 0x6A3 JUMP JUMPDEST PUSH1 0x40 MLOAD PUSH2 0x1AD SWAP2 SWAP1 PUSH2 0x2BA4 JUMP JUMPDEST PUSH1 0x40 MLOAD DUP1 SWAP2 SUB SWAP1 RETURN JUMPDEST PUSH2 0x1BE PUSH2 0x73B JUMP JUMPDEST PUSH1 0x40 MLOAD PUSH2 0x1CC SWAP3 SWAP2 SWAP1 PUSH2 0x2BBF JUMP JUMPDEST PUSH1 0x40 MLOAD DUP1 SWAP2 SUB SWAP1 RETURN JUMPDEST PUSH2 0x1EF PUSH1 0x4 DUP1 CALLDATASIZE SUB DUP2 ADD SWAP1 PUSH2 0x1EA SWAP2 SWAP1 PUSH2 0x2C26 JUMP JUMPDEST PUSH2 0x7CE JUMP JUMPDEST STOP JUMPDEST PUSH2 0x20B PUSH1 0x4 DUP1 CALLDATASIZE SUB DUP2 ADD SWAP1 PUSH2 0x206 SWAP2 SWAP1 PUSH2 0x2C66 JUMP JUMPDEST PUSH2 0x8A0 JUMP JUMPDEST PUSH1 0x40 MLOAD PUSH2 0x218 SWAP2 SWAP1 PUSH2 0x2CC8 JUMP JUMPDEST PUSH1 0x40 MLOAD DUP1 SWAP2 SUB SWAP1 RETURN JUMPDEST PUSH2 0x23B PUSH1 0x4 DUP1 CALLDATASIZE SUB DUP2 ADD SWAP1 PUSH2 0x236 SWAP2 SWAP1 PUSH2 0x2CE3 JUMP JUMPDEST PUSH2 0x9B2 JUMP JUMPDEST STOP JUMPDEST PUSH2 0x257 PUSH1 0x4 DUP1 CALLDATASIZE SUB DUP2 ADD SWAP1 PUSH2 0x252 SWAP2 SWAP1 PUSH2 0x2E7C JUMP JUMPDEST PUSH2 0xB52 JUMP JUMPDEST STOP JUMPDEST PUSH2 0x261 PUSH2 0xC3A JUMP JUMPDEST STOP JUMPDEST PUSH2 0x27D PUSH1 0x4 DUP1 CALLDATASIZE SUB DUP2 ADD SWAP1 PUSH2 0x278 SWAP2 SWAP1 PUSH2 0x2A7E JUMP JUMPDEST PUSH2 0xC4E JUMP JUMPDEST PUSH1 0x40 MLOAD PUSH2 0x28A SWAP2 SWAP1 PUSH2 0x30BF JUMP JUMPDEST PUSH1 0x40 MLOAD DUP1 SWAP2 SUB SWAP1 RETURN JUMPDEST PUSH2 0x2AD PUSH1 0x4 DUP1 CALLDATASIZE SUB DUP2 ADD SWAP1 PUSH2 0x2A8 SWAP2 SWAP1 PUSH2 0x28F0 JUMP JUMPDEST PUSH2 0xE78 JUMP JUMPDEST PUSH1 0x40 MLOAD PUSH2 0x2BA SWAP2 SWAP1 PUSH2 0x2BA4 JUMP JUMPDEST PUSH1 0x40 MLOAD DUP1 SWAP2 SUB SWAP1 RETURN JUMPDEST PUSH2 0x2CB PUSH2 0x1250 JUMP JUMPDEST PUSH1 0x40 MLOAD PUSH2 0x2D8 SWAP2 SWAP1 PUSH2 0x30F0 JUMP JUMPDEST PUSH1 0x40 MLOAD DUP1 SWAP2 SUB SWAP1 RETURN JUMPDEST PUSH2 0x2FB PUSH1 0x4 DUP1 CALLDATASIZE SUB DUP2 ADD SWAP1 PUSH2 0x2F6 SWAP2 SWAP1 PUSH2 0x32CD JUMP JUMPDEST PUSH2 0x127A JUMP JUMPDEST STOP JUMPDEST PUSH2 0x317 PUSH1 0x4 DUP1 CALLDATASIZE SUB DUP2 ADD SWAP1 PUSH2 0x312 SWAP2 SWAP1 PUSH2 0x34AD JUMP JUMPDEST PUSH2 0x13AC JUMP JUMPDEST STOP JUMPDEST PUSH2 0x333 PUSH1 0x4 DUP1 CALLDATASIZE SUB DUP2 ADD SWAP1 PUSH2 0x32E SWAP2 SWAP1 PUSH2 0x34F6 JUMP JUMPDEST PUSH2 0x15C4 JUMP JUMPDEST PUSH1 0x40 MLOAD PUSH2 0x340 SWAP2 SWAP1 PUSH2 0x3599 JUMP JUMPDEST PUSH1 0x40 MLOAD DUP1 SWAP2 SUB SWAP1 RETURN JUMPDEST PUSH2 0x363 PUSH1 0x4 DUP1 CALLDATASIZE SUB DUP2 ADD SWAP1 PUSH2 0x35E SWAP2 SWAP1 PUSH2 0x34F6 JUMP JUMPDEST PUSH2 0x1694 JUMP JUMPDEST PUSH1 0x40 MLOAD PUSH2 0x370 SWAP2 SWAP1 PUSH2 0x3625 JUMP JUMPDEST PUSH1 0x40 MLOAD DUP1 SWAP2 SUB SWAP1 RETURN JUMPDEST PUSH2 0x393 PUSH1 0x4 DUP1 CALLDATASIZE SUB DUP2 ADD SWAP1 PUSH2 0x38E SWAP2 SWAP1 PUSH2 0x369F JUMP JUMPDEST PUSH2 0x1764 JUMP JUMPDEST STOP JUMPDEST PUSH2 0x3AF PUSH1 0x4 DUP1 CALLDATASIZE SUB DUP2 ADD SWAP1 PUSH2 0x3AA SWAP2 SWAP1 PUSH2 0x3706 JUMP JUMPDEST PUSH2 0x1776 JUMP JUMPDEST PUSH1 0x40 MLOAD PUSH2 0x3BC SWAP2 SWAP1 PUSH2 0x2BA4 JUMP JUMPDEST PUSH1 0x40 MLOAD DUP1 SWAP2 SUB SWAP1 RETURN JUMPDEST PUSH2 0x3DF PUSH1 0x4 DUP1 CALLDATASIZE SUB DUP2 ADD SWAP1 PUSH2 0x3DA SWAP2 SWAP1 PUSH2 0x3733 JUMP JUMPDEST PUSH2 0x1796 JUMP JUMPDEST STOP JUMPDEST PUSH1 0x60 PUSH1 0x0 PUSH2 0x3EE DUP5 PUSH2 0x6A3 JUMP JUMPDEST SWAP1 POP PUSH1 0x0 DUP1 DUP3 PUSH8 0xFFFFFFFFFFFFFFFF DUP2 GT ISZERO PUSH2 0x40D JUMPI PUSH2 0x40C PUSH2 0x2D39 JUMP JUMPDEST JUMPDEST PUSH1 0x40 MLOAD SWAP1 DUP1 DUP3 MSTORE DUP1 PUSH1 0x20 MUL PUSH1 0x20 ADD DUP3 ADD PUSH1 0x40 MSTORE DUP1 ISZERO PUSH2 0x446 JUMPI DUP2 PUSH1 0x20 ADD JUMPDEST PUSH2 0x433 PUSH2 0x2651 JUMP JUMPDEST DUP2 MSTORE PUSH1 0x20 ADD SWAP1 PUSH1 0x1 SWAP1 SUB SWAP1 DUP2 PUSH2 0x42B JUMPI SWAP1 POP JUMPDEST POP SWAP1 POP PUSH1 0x0 DUP4 PUSH8 0xFFFFFFFFFFFFFFFF DUP2 GT ISZERO PUSH2 0x465 JUMPI PUSH2 0x464 PUSH2 0x2D39 JUMP JUMPDEST JUMPDEST PUSH1 0x40 MLOAD SWAP1 DUP1 DUP3 MSTORE DUP1 PUSH1 0x20 MUL PUSH1 0x20 ADD DUP3 ADD PUSH1 0x40 MSTORE DUP1 ISZERO PUSH2 0x49E JUMPI DUP2 PUSH1 0x20 ADD JUMPDEST PUSH2 0x48B PUSH2 0x267E JUMP JUMPDEST DUP2 MSTORE PUSH1 0x20 ADD SWAP1 PUSH1 0x1 SWAP1 SUB SWAP1 DUP2 PUSH2 0x483 JUMPI SWAP1 POP JUMPDEST POP SWAP1 POP PUSH2 0x4AA DUP8 PUSH2 0xC4E JUMP JUMPDEST SWAP1 POP PUSH1 0x0 JUMPDEST DUP5 DUP2 LT ISZERO PUSH2 0x62A JUMPI DUP2 DUP2 DUP2 MLOAD DUP2 LT PUSH2 0x4CA JUMPI PUSH2 0x4C9 PUSH2 0x3760 JUMP JUMPDEST JUMPDEST PUSH1 0x20 MUL PUSH1 0x20 ADD ADD MLOAD PUSH1 0x0 ADD MLOAD SWAP4 POP PUSH1 0x40 MLOAD DUP1 PUSH1 0x60 ADD PUSH1 0x40 MSTORE DUP1 DUP6 PUSH4 0xFFFFFFFF AND DUP2 MSTORE PUSH1 0x20 ADD PUSH1 0xB PUSH1 0x0 DUP11 PUSH20 0xFFFFFFFFFFFFFFFFFFFFFFFFFFFFFFFFFFFFFFFF AND PUSH20 0xFFFFFFFFFFFFFFFFFFFFFFFFFFFFFFFFFFFFFFFF AND DUP2 MSTORE PUSH1 0x20 ADD SWAP1 DUP2 MSTORE PUSH1 0x20 ADD PUSH1 0x0 KECCAK256 PUSH1 0x0 DUP12 DUP2 MSTORE PUSH1 0x20 ADD SWAP1 DUP2 MSTORE PUSH1 0x20 ADD PUSH1 0x0 KECCAK256 PUSH1 0x0 DUP8 PUSH4 0xFFFFFFFF AND PUSH4 0xFFFFFFFF AND DUP2 MSTORE PUSH1 0x20 ADD SWAP1 DUP2 MSTORE PUSH1 0x20 ADD PUSH1 0x0 KECCAK256 PUSH1 0x0 ADD PUSH1 0x0 SWAP1 SLOAD SWAP1 PUSH2 0x100 EXP SWAP1 DIV PUSH1 0xFF AND PUSH1 0xFF AND DUP2 MSTORE PUSH1 0x20 ADD PUSH1 0xB PUSH1 0x0 DUP11 PUSH20 0xFFFFFFFFFFFFFFFFFFFFFFFFFFFFFFFFFFFFFFFF AND PUSH20 0xFFFFFFFFFFFFFFFFFFFFFFFFFFFFFFFFFFFFFFFF AND DUP2 MSTORE PUSH1 0x20 ADD SWAP1 DUP2 MSTORE PUSH1 0x20 ADD PUSH1 0x0 KECCAK256 PUSH1 0x0 DUP12 DUP2 MSTORE PUSH1 0x20 ADD SWAP1 DUP2 MSTORE PUSH1 0x20 ADD PUSH1 0x0 KECCAK256 PUSH1 0x0 DUP8 PUSH4 0xFFFFFFFF AND PUSH4 0xFFFFFFFF AND DUP2 MSTORE PUSH1 0x20 ADD SWAP1 DUP2 MSTORE PUSH1 0x20 ADD PUSH1 0x0 KECCAK256 PUSH1 0x0 ADD PUSH1 0x1 SWAP1 SLOAD SWAP1 PUSH2 0x100 EXP SWAP1 DIV PUSH1 0xFF AND PUSH1 0xFF AND DUP2 MSTORE POP DUP4 DUP3 DUP2 MLOAD DUP2 LT PUSH2 0x60C JUMPI PUSH2 0x60B PUSH2 0x3760 JUMP JUMPDEST JUMPDEST PUSH1 0x20 MUL PUSH1 0x20 ADD ADD DUP2 SWAP1 MSTORE POP DUP1 DUP1 PUSH2 0x622 SWAP1 PUSH2 0x37BE JUMP JUMPDEST SWAP2 POP POP PUSH2 0x4AF JUMP JUMPDEST POP DUP2 SWAP5 POP POP POP POP POP SWAP3 SWAP2 POP POP JUMP JUMPDEST PUSH1 0x60 PUSH1 0x8 PUSH1 0x0 DUP4 DUP2 MSTORE PUSH1 0x20 ADD SWAP1 DUP2 MSTORE PUSH1 0x20 ADD PUSH1 0x0 KECCAK256 DUP1 SLOAD DUP1 PUSH1 0x20 MUL PUSH1 0x20 ADD PUSH1 0x40 MLOAD SWAP1 DUP2 ADD PUSH1 0x40 MSTORE DUP1 SWAP3 SWAP2 SWAP1 DUP2 DUP2 MSTORE PUSH1 0x20 ADD DUP3 DUP1 SLOAD DUP1 ISZERO PUSH2 0x697 JUMPI PUSH1 0x20 MUL DUP3 ADD SWAP2 SWAP1 PUSH1 0x0 MSTORE PUSH1 0x20 PUSH1 0x0 KECCAK256 SWAP1 JUMPDEST DUP2 SLOAD DUP2 MSTORE PUSH1 0x20 ADD SWAP1 PUSH1 0x1 ADD SWAP1 DUP1 DUP4 GT PUSH2 0x683 JUMPI JUMPDEST POP POP POP POP POP SWAP1 POP SWAP2 SWAP1 POP JUMP JUMPDEST PUSH1 0x0 DUP1 PUSH1 0x0 SWAP1 POP PUSH1 0x0 JUMPDEST PUSH1 0x8 PUSH1 0x0 DUP6 DUP2 MSTORE PUSH1 0x20 ADD SWAP1 DUP2 MSTORE PUSH1 0x20 ADD PUSH1 0x0 KECCAK256 DUP1 SLOAD SWAP1 POP DUP2 LT ISZERO PUSH2 0x731 JUMPI PUSH1 0x7 PUSH1 0x0 PUSH1 0x8 PUSH1 0x0 DUP8 DUP2 MSTORE PUSH1 0x20 ADD SWAP1 DUP2 MSTORE PUSH1 0x20 ADD PUSH1 0x0 KECCAK256 DUP4 DUP2 SLOAD DUP2 LT PUSH2 0x6F4 JUMPI PUSH2 0x6F3 PUSH2 0x3760 JUMP JUMPDEST JUMPDEST SWAP1 PUSH1 0x0 MSTORE PUSH1 0x20 PUSH1 0x0 KECCAK256 ADD SLOAD DUP2 MSTORE PUSH1 0x20 ADD SWAP1 DUP2 MSTORE PUSH1 0x20 ADD PUSH1 0x0 KECCAK256 DUP1 SLOAD SWAP1 POP DUP3 PUSH2 0x71C SWAP2 SWAP1 PUSH2 0x3806 JUMP JUMPDEST SWAP2 POP DUP1 DUP1 PUSH2 0x729 SWAP1 PUSH2 0x37BE JUMP JUMPDEST SWAP2 POP POP PUSH2 0x6AD JUMP JUMPDEST POP DUP1 SWAP2 POP POP SWAP2 SWAP1 POP JUMP JUMPDEST PUSH1 0x0 DUP1 SELFBALANCE SWAP2 POP PUSH1 0x0 PUSH2 0x74B PUSH2 0x1819 JUMP JUMPDEST SWAP1 POP DUP1 PUSH20 0xFFFFFFFFFFFFFFFFFFFFFFFFFFFFFFFFFFFFFFFF AND PUSH4 0x70A08231 ADDRESS PUSH1 0x40 MLOAD DUP3 PUSH4 0xFFFFFFFF AND PUSH1 0xE0 SHL DUP2 MSTORE PUSH1 0x4 ADD PUSH2 0x786 SWAP2 SWAP1 PUSH2 0x30F0 JUMP JUMPDEST PUSH1 0x20 PUSH1 0x40 MLOAD DUP1 DUP4 SUB DUP2 DUP7 GAS STATICCALL ISZERO DUP1 ISZERO PUSH2 0x7A3 JUMPI RETURNDATASIZE PUSH1 0x0 DUP1 RETURNDATACOPY RETURNDATASIZE PUSH1 0x0 REVERT JUMPDEST POP POP POP POP PUSH1 0x40 MLOAD RETURNDATASIZE PUSH1 0x1F NOT PUSH1 0x1F DUP3 ADD AND DUP3 ADD DUP1 PUSH1 0x40 MSTORE POP DUP2 ADD SWAP1 PUSH2 0x7C7 SWAP2 SWAP1 PUSH2 0x3871 JUMP JUMPDEST SWAP2 POP POP SWAP1 SWAP2 JUMP JUMPDEST PUSH1 0x0 PUSH2 0x7D8 PUSH2 0x1819 JUMP JUMPDEST SWAP1 POP DUP1 PUSH20 0xFFFFFFFFFFFFFFFFFFFFFFFFFFFFFFFFFFFFFFFF AND PUSH4 0xA9059CBB DUP5 DUP5 PUSH1 0x40 MLOAD DUP4 PUSH4 0xFFFFFFFF AND PUSH1 0xE0 SHL DUP2 MSTORE PUSH1 0x4 ADD PUSH2 0x815 SWAP3 SWAP2 SWAP1 PUSH2 0x38FD JUMP JUMPDEST PUSH1 0x20 PUSH1 0x40 MLOAD DUP1 DUP4 SUB DUP2 PUSH1 0x0 DUP8 GAS CALL ISZERO DUP1 ISZERO PUSH2 0x834 JUMPI RETURNDATASIZE PUSH1 0x0 DUP1 RETURNDATACOPY RETURNDATASIZE PUSH1 0x0 REVERT JUMPDEST POP POP POP POP PUSH1 0x40 MLOAD RETURNDATASIZE PUSH1 0x1F NOT PUSH1 0x1F DUP3 ADD AND DUP3 ADD DUP1 PUSH1 0x40 MSTORE POP DUP2 ADD SWAP1 PUSH2 0x858 SWAP2 SWAP1 PUSH2 0x395E JUMP JUMPDEST PUSH2 0x89B JUMPI DUP3 DUP3 PUSH1 0x40 MLOAD PUSH32 0x7AB2F97700000000000000000000000000000000000000000000000000000000 DUP2 MSTORE PUSH1 0x4 ADD PUSH2 0x892 SWAP3 SWAP2 SWAP1 PUSH2 0x38FD JUMP JUMPDEST PUSH1 0x40 MLOAD DUP1 SWAP2 SUB SWAP1 REVERT JUMPDEST POP POP POP JUMP JUMPDEST PUSH1 0x0 DUP1 PUSH1 0x0 PUSH2 0x8B8 PUSH1 0xC SLOAD PUSH4 0x93D07072 PUSH1 0xE0 SHL PUSH2 0x1843 JUMP JUMPDEST SWAP1 POP PUSH2 0x904 PUSH1 0x40 MLOAD DUP1 PUSH1 0x40 ADD PUSH1 0x40 MSTORE DUP1 PUSH1 0x6 DUP2 MSTORE PUSH1 0x20 ADD PUSH32 0x6D61726B65740000000000000000000000000000000000000000000000000000 DUP2 MSTORE POP DUP8 DUP4 PUSH2 0x1873 SWAP1 SWAP3 SWAP2 SWAP1 PUSH4 0xFFFFFFFF AND JUMP JUMPDEST PUSH2 0x94E PUSH1 0x40 MLOAD DUP1 PUSH1 0x40 ADD PUSH1 0x40 MSTORE DUP1 PUSH1 0x8 DUP2 MSTORE PUSH1 0x20 ADD PUSH32 0x6C65616775654964000000000000000000000000000000000000000000000000 DUP2 MSTORE POP DUP7 DUP4 PUSH2 0x1873 SWAP1 SWAP3 SWAP2 SWAP1 PUSH4 0xFFFFFFFF AND JUMP JUMPDEST PUSH2 0x998 PUSH1 0x40 MLOAD DUP1 PUSH1 0x40 ADD PUSH1 0x40 MSTORE DUP1 PUSH1 0x4 DUP2 MSTORE PUSH1 0x20 ADD PUSH32 0x6461746500000000000000000000000000000000000000000000000000000000 DUP2 MSTORE POP DUP6 DUP4 PUSH2 0x1873 SWAP1 SWAP3 SWAP2 SWAP1 PUSH4 0xFFFFFFFF AND JUMP JUMPDEST PUSH2 0x9A4 DUP2 PUSH1 0xD SLOAD PUSH2 0x18A6 JUMP JUMPDEST SWAP2 POP DUP2 SWAP3 POP POP POP SWAP4 SWAP3 POP POP POP JUMP JUMPDEST PUSH2 0x9BA PUSH2 0x26B3 JUMP JUMPDEST PUSH1 0x0 PUSH2 0x9C8 PUSH1 0x1 DUP6 DUP6 PUSH2 0x8A0 JUMP JUMPDEST SWAP1 POP PUSH1 0x0 JUMPDEST PUSH1 0x7 PUSH1 0x0 DUP4 DUP2 MSTORE PUSH1 0x20 ADD SWAP1 DUP2 MSTORE PUSH1 0x20 ADD PUSH1 0x0 KECCAK256 DUP1 SLOAD SWAP1 POP DUP2 LT ISZERO PUSH2 0xB4B JUMPI PUSH2 0xAAB PUSH1 0x7 PUSH1 0x0 DUP5 DUP2 MSTORE PUSH1 0x20 ADD SWAP1 DUP2 MSTORE PUSH1 0x20 ADD PUSH1 0x0 KECCAK256 DUP3 DUP2 SLOAD DUP2 LT PUSH2 0xA13 JUMPI PUSH2 0xA12 PUSH2 0x3760 JUMP JUMPDEST JUMPDEST SWAP1 PUSH1 0x0 MSTORE PUSH1 0x20 PUSH1 0x0 KECCAK256 ADD DUP1 SLOAD PUSH2 0xA28 SWAP1 PUSH2 0x39BA JUMP JUMPDEST DUP1 PUSH1 0x1F ADD PUSH1 0x20 DUP1 SWAP2 DIV MUL PUSH1 0x20 ADD PUSH1 0x40 MLOAD SWAP1 DUP2 ADD PUSH1 0x40 MSTORE DUP1 SWAP3 SWAP2 SWAP1 DUP2 DUP2 MSTORE PUSH1 0x20 ADD DUP3 DUP1 SLOAD PUSH2 0xA54 SWAP1 PUSH2 0x39BA JUMP JUMPDEST DUP1 ISZERO PUSH2 0xAA1 JUMPI DUP1 PUSH1 0x1F LT PUSH2 0xA76 JUMPI PUSH2 0x100 DUP1 DUP4 SLOAD DIV MUL DUP4 MSTORE SWAP2 PUSH1 0x20 ADD SWAP2 PUSH2 0xAA1 JUMP JUMPDEST DUP3 ADD SWAP2 SWAP1 PUSH1 0x0 MSTORE PUSH1 0x20 PUSH1 0x0 KECCAK256 SWAP1 JUMPDEST DUP2 SLOAD DUP2 MSTORE SWAP1 PUSH1 0x1 ADD SWAP1 PUSH1 0x20 ADD DUP1 DUP4 GT PUSH2 0xA84 JUMPI DUP3 SWAP1 SUB PUSH1 0x1F AND DUP3 ADD SWAP2 JUMPDEST POP POP POP POP POP PUSH2 0x18DD JUMP JUMPDEST SWAP3 POP PUSH1 0x40 MLOAD DUP1 PUSH1 0x40 ADD PUSH1 0x40 MSTORE DUP1 DUP5 PUSH1 0x20 ADD MLOAD PUSH1 0xFF AND DUP2 MSTORE PUSH1 0x20 ADD DUP5 PUSH1 0x40 ADD MLOAD PUSH1 0xFF AND DUP2 MSTORE POP PUSH1 0xA PUSH1 0x0 DUP6 PUSH1 0x0 ADD MLOAD PUSH4 0xFFFFFFFF AND PUSH4 0xFFFFFFFF AND DUP2 MSTORE PUSH1 0x20 ADD SWAP1 DUP2 MSTORE PUSH1 0x20 ADD PUSH1 0x0 KECCAK256 PUSH1 0x0 DUP3 ADD MLOAD DUP2 PUSH1 0x0 ADD PUSH1 0x0 PUSH2 0x100 EXP DUP2 SLOAD DUP2 PUSH1 0xFF MUL NOT AND SWAP1 DUP4 PUSH1 0xFF AND MUL OR SWAP1 SSTORE POP PUSH1 0x20 DUP3 ADD MLOAD DUP2 PUSH1 0x0 ADD PUSH1 0x1 PUSH2 0x100 EXP DUP2 SLOAD DUP2 PUSH1 0xFF MUL NOT AND SWAP1 DUP4 PUSH1 0xFF AND MUL OR SWAP1 SSTORE POP SWAP1 POP POP DUP1 DUP1 PUSH2 0xB43 SWAP1 PUSH2 0x37BE JUMP JUMPDEST SWAP2 POP POP PUSH2 0x9CD JUMP JUMPDEST POP POP POP POP POP JUMP JUMPDEST PUSH1 0xE PUSH1 0x0 DUP2 SLOAD DUP1 SWAP3 SWAP2 SWAP1 PUSH2 0xB65 SWAP1 PUSH2 0x37BE JUMP JUMPDEST SWAP2 SWAP1 POP SSTORE POP PUSH1 0x0 DUP1 PUSH1 0x0 SWAP1 POP JUMPDEST DUP4 MLOAD DUP2 LT ISZERO PUSH2 0xBF2 JUMPI PUSH2 0xBA1 PUSH1 0x0 DUP7 DUP7 DUP5 DUP2 MLOAD DUP2 LT PUSH2 0xB94 JUMPI PUSH2 0xB93 PUSH2 0x3760 JUMP JUMPDEST JUMPDEST PUSH1 0x20 MUL PUSH1 0x20 ADD ADD MLOAD PUSH2 0x8A0 JUMP JUMPDEST SWAP2 POP PUSH1 0x8 PUSH1 0x0 PUSH1 0xE SLOAD DUP2 MSTORE PUSH1 0x20 ADD SWAP1 DUP2 MSTORE PUSH1 0x20 ADD PUSH1 0x0 KECCAK256 DUP3 SWAP1 DUP1 PUSH1 0x1 DUP2 SLOAD ADD DUP1 DUP3 SSTORE DUP1 SWAP2 POP POP PUSH1 0x1 SWAP1 SUB SWAP1 PUSH1 0x0 MSTORE PUSH1 0x20 PUSH1 0x0 KECCAK256 ADD PUSH1 0x0 SWAP1 SWAP2 SWAP1 SWAP2 SWAP1 SWAP2 POP SSTORE DUP1 DUP1 PUSH2 0xBEA SWAP1 PUSH2 0x37BE JUMP JUMPDEST SWAP2 POP POP PUSH2 0xB72 JUMP JUMPDEST POP PUSH1 0x40 MLOAD DUP1 PUSH1 0x40 ADD PUSH1 0x40 MSTORE DUP1 DUP6 DUP2 MSTORE PUSH1 0x20 ADD DUP4 DUP2 MSTORE POP PUSH1 0x9 PUSH1 0x0 PUSH1 0xE SLOAD DUP2 MSTORE PUSH1 0x20 ADD SWAP1 DUP2 MSTORE PUSH1 0x20 ADD PUSH1 0x0 KECCAK256 PUSH1 0x0 DUP3 ADD MLOAD DUP2 PUSH1 0x0 ADD SSTORE PUSH1 0x20 DUP3 ADD MLOAD DUP2 PUSH1 0x1 ADD SSTORE SWAP1 POP POP POP POP POP POP JUMP JUMPDEST PUSH2 0xC42 PUSH2 0x199D JUMP JUMPDEST PUSH2 0xC4C PUSH1 0x0 PUSH2 0x1A1B JUMP JUMPDEST JUMP JUMPDEST PUSH1 0x60 PUSH1 0x0 PUSH2 0xC5B DUP4 PUSH2 0x6A3 JUMP JUMPDEST SWAP1 POP PUSH1 0x0 DUP1 DUP3 PUSH8 0xFFFFFFFFFFFFFFFF DUP2 GT ISZERO PUSH2 0xC7A JUMPI PUSH2 0xC79 PUSH2 0x2D39 JUMP JUMPDEST JUMPDEST PUSH1 0x40 MLOAD SWAP1 DUP1 DUP3 MSTORE DUP1 PUSH1 0x20 MUL PUSH1 0x20 ADD DUP3 ADD PUSH1 0x40 MSTORE DUP1 ISZERO PUSH2 0xCB3 JUMPI DUP2 PUSH1 0x20 ADD JUMPDEST PUSH2 0xCA0 PUSH2 0x267E JUMP JUMPDEST DUP2 MSTORE PUSH1 0x20 ADD SWAP1 PUSH1 0x1 SWAP1 SUB SWAP1 DUP2 PUSH2 0xC98 JUMPI SWAP1 POP JUMPDEST POP SWAP1 POP PUSH1 0x0 JUMPDEST PUSH1 0x8 PUSH1 0x0 DUP8 DUP2 MSTORE PUSH1 0x20 ADD SWAP1 DUP2 MSTORE PUSH1 0x20 ADD PUSH1 0x0 KECCAK256 DUP1 SLOAD SWAP1 POP DUP2 LT ISZERO PUSH2 0xE6C JUMPI PUSH1 0x7 PUSH1 0x0 PUSH1 0x8 PUSH1 0x0 DUP10 DUP2 MSTORE PUSH1 0x20 ADD SWAP1 DUP2 MSTORE PUSH1 0x20 ADD PUSH1 0x0 KECCAK256 DUP4 DUP2 SLOAD DUP2 LT PUSH2 0xD00 JUMPI PUSH2 0xCFF PUSH2 0x3760 JUMP JUMPDEST JUMPDEST SWAP1 PUSH1 0x0 MSTORE PUSH1 0x20 PUSH1 0x0 KECCAK256 ADD SLOAD DUP2 MSTORE PUSH1 0x20 ADD SWAP1 DUP2 MSTORE PUSH1 0x20 ADD PUSH1 0x0 KECCAK256 DUP1 SLOAD SWAP1 POP SWAP4 POP PUSH1 0x0 JUMPDEST DUP5 DUP2 LT ISZERO PUSH2 0xE58 JUMPI PUSH2 0xE19 PUSH1 0x7 PUSH1 0x0 PUSH1 0x8 PUSH1 0x0 DUP12 DUP2 MSTORE PUSH1 0x20 ADD SWAP1 DUP2 MSTORE PUSH1 0x20 ADD PUSH1 0x0 KECCAK256 DUP6 DUP2 SLOAD DUP2 LT PUSH2 0xD56 JUMPI PUSH2 0xD55 PUSH2 0x3760 JUMP JUMPDEST JUMPDEST SWAP1 PUSH1 0x0 MSTORE PUSH1 0x20 PUSH1 0x0 KECCAK256 ADD SLOAD DUP2 MSTORE PUSH1 0x20 ADD SWAP1 DUP2 MSTORE PUSH1 0x20 ADD PUSH1 0x0 KECCAK256 DUP3 DUP2 SLOAD DUP2 LT PUSH2 0xD81 JUMPI PUSH2 0xD80 PUSH2 0x3760 JUMP JUMPDEST JUMPDEST SWAP1 PUSH1 0x0 MSTORE PUSH1 0x20 PUSH1 0x0 KECCAK256 ADD DUP1 SLOAD PUSH2 0xD96 SWAP1 PUSH2 0x39BA JUMP JUMPDEST DUP1 PUSH1 0x1F ADD PUSH1 0x20 DUP1 SWAP2 DIV MUL PUSH1 0x20 ADD PUSH1 0x40 MLOAD SWAP1 DUP2 ADD PUSH1 0x40 MSTORE DUP1 SWAP3 SWAP2 SWAP1 DUP2 DUP2 MSTORE PUSH1 0x20 ADD DUP3 DUP1 SLOAD PUSH2 0xDC2 SWAP1 PUSH2 0x39BA JUMP JUMPDEST DUP1 ISZERO PUSH2 0xE0F JUMPI DUP1 PUSH1 0x1F LT PUSH2 0xDE4 JUMPI PUSH2 0x100 DUP1 DUP4 SLOAD DIV MUL DUP4 MSTORE SWAP2 PUSH1 0x20 ADD SWAP2 PUSH2 0xE0F JUMP JUMPDEST DUP3 ADD SWAP2 SWAP1 PUSH1 0x0 MSTORE PUSH1 0x20 PUSH1 0x0 KECCAK256 SWAP1 JUMPDEST DUP2 SLOAD DUP2 MSTORE SWAP1 PUSH1 0x1 ADD SWAP1 PUSH1 0x20 ADD DUP1 DUP4 GT PUSH2 0xDF2 JUMPI DUP3 SWAP1 SUB PUSH1 0x1F AND DUP3 ADD SWAP2 JUMPDEST POP POP POP POP POP PUSH2 0x1AE1 JUMP JUMPDEST DUP4 DUP6 DUP2 MLOAD DUP2 LT PUSH2 0xE2C JUMPI PUSH2 0xE2B PUSH2 0x3760 JUMP JUMPDEST JUMPDEST PUSH1 0x20 MUL PUSH1 0x20 ADD ADD DUP2 SWAP1 MSTORE POP DUP4 DUP1 PUSH2 0xE42 SWAP1 PUSH2 0x37BE JUMP JUMPDEST SWAP5 POP POP DUP1 DUP1 PUSH2 0xE50 SWAP1 PUSH2 0x37BE JUMP JUMPDEST SWAP2 POP POP PUSH2 0xD22 JUMP JUMPDEST POP DUP1 DUP1 PUSH2 0xE64 SWAP1 PUSH2 0x37BE JUMP JUMPDEST SWAP2 POP POP PUSH2 0xCB9 JUMP JUMPDEST POP DUP1 SWAP4 POP POP POP POP SWAP2 SWAP1 POP JUMP JUMPDEST PUSH1 0x0 DUP1 PUSH1 0x0 DUP1 PUSH1 0x0 SWAP1 POP PUSH1 0x0 DUP1 PUSH2 0xE8E DUP9 PUSH2 0x6A3 JUMP JUMPDEST SWAP1 POP PUSH1 0x0 DUP2 PUSH8 0xFFFFFFFFFFFFFFFF DUP2 GT ISZERO PUSH2 0xEAC JUMPI PUSH2 0xEAB PUSH2 0x2D39 JUMP JUMPDEST JUMPDEST PUSH1 0x40 MLOAD SWAP1 DUP1 DUP3 MSTORE DUP1 PUSH1 0x20 MUL PUSH1 0x20 ADD DUP3 ADD PUSH1 0x40 MSTORE DUP1 ISZERO PUSH2 0xEE5 JUMPI DUP2 PUSH1 0x20 ADD JUMPDEST PUSH2 0xED2 PUSH2 0x267E JUMP JUMPDEST DUP2 MSTORE PUSH1 0x20 ADD SWAP1 PUSH1 0x1 SWAP1 SUB SWAP1 DUP2 PUSH2 0xECA JUMPI SWAP1 POP JUMPDEST POP SWAP1 POP PUSH2 0xEF1 DUP10 PUSH2 0xC4E JUMP JUMPDEST SWAP1 POP PUSH1 0x0 JUMPDEST DUP3 DUP2 LT ISZERO PUSH2 0x1240 JUMPI DUP2 DUP2 DUP2 MLOAD DUP2 LT PUSH2 0xF11 JUMPI PUSH2 0xF10 PUSH2 0x3760 JUMP JUMPDEST JUMPDEST PUSH1 0x20 MUL PUSH1 0x20 ADD ADD MLOAD PUSH1 0x0 ADD MLOAD SWAP4 POP PUSH2 0x1023 PUSH1 0xB PUSH1 0x0 DUP12 PUSH20 0xFFFFFFFFFFFFFFFFFFFFFFFFFFFFFFFFFFFFFFFF AND PUSH20 0xFFFFFFFFFFFFFFFFFFFFFFFFFFFFFFFFFFFFFFFF AND DUP2 MSTORE PUSH1 0x20 ADD SWAP1 DUP2 MSTORE PUSH1 0x20 ADD PUSH1 0x0 KECCAK256 PUSH1 0x0 DUP13 DUP2 MSTORE PUSH1 0x20 ADD SWAP1 DUP2 MSTORE PUSH1 0x20 ADD PUSH1 0x0 KECCAK256 PUSH1 0x0 DUP7 PUSH4 0xFFFFFFFF AND PUSH4 0xFFFFFFFF AND DUP2 MSTORE PUSH1 0x20 ADD SWAP1 DUP2 MSTORE PUSH1 0x20 ADD PUSH1 0x0 KECCAK256 PUSH1 0x0 ADD PUSH1 0x0 SWAP1 SLOAD SWAP1 PUSH2 0x100 EXP SWAP1 DIV PUSH1 0xFF AND PUSH1 0xB PUSH1 0x0 DUP13 PUSH20 0xFFFFFFFFFFFFFFFFFFFFFFFFFFFFFFFFFFFFFFFF AND PUSH20 0xFFFFFFFFFFFFFFFFFFFFFFFFFFFFFFFFFFFFFFFF AND DUP2 MSTORE PUSH1 0x20 ADD SWAP1 DUP2 MSTORE PUSH1 0x20 ADD PUSH1 0x0 KECCAK256 PUSH1 0x0 DUP14 DUP2 MSTORE PUSH1 0x20 ADD SWAP1 DUP2 MSTORE PUSH1 0x20 ADD PUSH1 0x0 KECCAK256 PUSH1 0x0 DUP8 PUSH4 0xFFFFFFFF AND PUSH4 0xFFFFFFFF AND DUP2 MSTORE PUSH1 0x20 ADD SWAP1 DUP2 MSTORE PUSH1 0x20 ADD PUSH1 0x0 KECCAK256 PUSH1 0x0 ADD PUSH1 0x1 SWAP1 SLOAD SWAP1 PUSH2 0x100 EXP SWAP1 DIV PUSH1 0xFF AND PUSH2 0x1BBE JUMP JUMPDEST SWAP7 POP PUSH2 0x108D PUSH1 0xA PUSH1 0x0 DUP7 PUSH4 0xFFFFFFFF AND PUSH4 0xFFFFFFFF AND DUP2 MSTORE PUSH1 0x20 ADD SWAP1 DUP2 MSTORE PUSH1 0x20 ADD PUSH1 0x0 KECCAK256 PUSH1 0x0 ADD PUSH1 0x0 SWAP1 SLOAD SWAP1 PUSH2 0x100 EXP SWAP1 DIV PUSH1 0xFF AND PUSH1 0xA PUSH1 0x0 DUP8 PUSH4 0xFFFFFFFF AND PUSH4 0xFFFFFFFF AND DUP2 MSTORE PUSH1 0x20 ADD SWAP1 DUP2 MSTORE PUSH1 0x20 ADD PUSH1 0x0 KECCAK256 PUSH1 0x0 ADD PUSH1 0x1 SWAP1 SLOAD SWAP1 PUSH2 0x100 EXP SWAP1 DIV PUSH1 0xFF AND PUSH2 0x1BBE JUMP JUMPDEST SWAP6 POP DUP6 DUP8 SUB PUSH2 0x122D JUMPI PUSH1 0x1 DUP6 PUSH2 0x10A3 SWAP2 SWAP1 PUSH2 0x3806 JUMP JUMPDEST SWAP5 POP PUSH1 0xA PUSH1 0x0 DUP6 PUSH4 0xFFFFFFFF AND PUSH4 0xFFFFFFFF AND DUP2 MSTORE PUSH1 0x20 ADD SWAP1 DUP2 MSTORE PUSH1 0x20 ADD PUSH1 0x0 KECCAK256 PUSH1 0x0 ADD PUSH1 0x0 SWAP1 SLOAD SWAP1 PUSH2 0x100 EXP SWAP1 DIV PUSH1 0xFF AND PUSH1 0xFF AND PUSH1 0xB PUSH1 0x0 DUP12 PUSH20 0xFFFFFFFFFFFFFFFFFFFFFFFFFFFFFFFFFFFFFFFF AND PUSH20 0xFFFFFFFFFFFFFFFFFFFFFFFFFFFFFFFFFFFFFFFF AND DUP2 MSTORE PUSH1 0x20 ADD SWAP1 DUP2 MSTORE PUSH1 0x20 ADD PUSH1 0x0 KECCAK256 PUSH1 0x0 DUP13 DUP2 MSTORE PUSH1 0x20 ADD SWAP1 DUP2 MSTORE PUSH1 0x20 ADD PUSH1 0x0 KECCAK256 PUSH1 0x0 DUP7 PUSH4 0xFFFFFFFF AND PUSH4 0xFFFFFFFF AND DUP2 MSTORE PUSH1 0x20 ADD SWAP1 DUP2 MSTORE PUSH1 0x20 ADD PUSH1 0x0 KECCAK256 PUSH1 0x0 ADD PUSH1 0x0 SWAP1 SLOAD SWAP1 PUSH2 0x100 EXP SWAP1 DIV PUSH1 0xFF AND PUSH1 0xFF AND EQ DUP1 ISZERO PUSH2 0x1217 JUMPI POP PUSH1 0xA PUSH1 0x0 DUP6 PUSH4 0xFFFFFFFF AND PUSH4 0xFFFFFFFF AND DUP2 MSTORE PUSH1 0x20 ADD SWAP1 DUP2 MSTORE PUSH1 0x20 ADD PUSH1 0x0 KECCAK256 PUSH1 0x0 ADD PUSH1 0x1 SWAP1 SLOAD SWAP1 PUSH2 0x100 EXP SWAP1 DIV PUSH1 0xFF AND PUSH1 0xFF AND PUSH1 0xB PUSH1 0x0 DUP12 PUSH20 0xFFFFFFFFFFFFFFFFFFFFFFFFFFFFFFFFFFFFFFFF AND PUSH20 0xFFFFFFFFFFFFFFFFFFFFFFFFFFFFFFFFFFFFFFFF AND DUP2 MSTORE PUSH1 0x20 ADD SWAP1 DUP2 MSTORE PUSH1 0x20 ADD PUSH1 0x0 KECCAK256 PUSH1 0x0 DUP13 DUP2 MSTORE PUSH1 0x20 ADD SWAP1 DUP2 MSTORE PUSH1 0x20 ADD PUSH1 0x0 KECCAK256 PUSH1 0x0 DUP7 PUSH4 0xFFFFFFFF AND PUSH4 0xFFFFFFFF AND DUP2 MSTORE PUSH1 0x20 ADD SWAP1 DUP2 MSTORE PUSH1 0x20 ADD PUSH1 0x0 KECCAK256 PUSH1 0x0 ADD PUSH1 0x1 SWAP1 SLOAD SWAP1 PUSH2 0x100 EXP SWAP1 DIV PUSH1 0xFF AND PUSH1 0xFF AND EQ JUMPDEST ISZERO PUSH2 0x122C JUMPI PUSH1 0x2 DUP6 PUSH2 0x1229 SWAP2 SWAP1 PUSH2 0x3806 JUMP JUMPDEST SWAP5 POP JUMPDEST JUMPDEST DUP1 DUP1 PUSH2 0x1238 SWAP1 PUSH2 0x37BE JUMP JUMPDEST SWAP2 POP POP PUSH2 0xEF6 JUMP JUMPDEST POP DUP4 SWAP7 POP POP POP POP POP POP POP SWAP3 SWAP2 POP POP JUMP JUMPDEST PUSH1 0x0 PUSH1 0x6 PUSH1 0x0 SWAP1 SLOAD SWAP1 PUSH2 0x100 EXP SWAP1 DIV PUSH20 0xFFFFFFFFFFFFFFFFFFFFFFFFFFFFFFFFFFFFFFFF AND SWAP1 POP SWAP1 JUMP JUMPDEST DUP2 PUSH1 0x5 PUSH1 0x0 DUP3 DUP2 MSTORE PUSH1 0x20 ADD SWAP1 DUP2 MSTORE PUSH1 0x20 ADD PUSH1 0x0 KECCAK256 PUSH1 0x0 SWAP1 SLOAD SWAP1 PUSH2 0x100 EXP SWAP1 DIV PUSH20 0xFFFFFFFFFFFFFFFFFFFFFFFFFFFFFFFFFFFFFFFF AND PUSH20 0xFFFFFFFFFFFFFFFFFFFFFFFFFFFFFFFFFFFFFFFF AND CALLER PUSH20 0xFFFFFFFFFFFFFFFFFFFFFFFFFFFFFFFFFFFFFFFF AND EQ PUSH2 0x131C JUMPI PUSH1 0x40 MLOAD PUSH32 0x8C379A000000000000000000000000000000000000000000000000000000000 DUP2 MSTORE PUSH1 0x4 ADD PUSH2 0x1313 SWAP1 PUSH2 0x3A6E JUMP JUMPDEST PUSH1 0x40 MLOAD DUP1 SWAP2 SUB SWAP1 REVERT JUMPDEST PUSH1 0x5 PUSH1 0x0 DUP3 DUP2 MSTORE PUSH1 0x20 ADD SWAP1 DUP2 MSTORE PUSH1 0x20 ADD PUSH1 0x0 KECCAK256 PUSH1 0x0 PUSH2 0x100 EXP DUP2 SLOAD SWAP1 PUSH20 0xFFFFFFFFFFFFFFFFFFFFFFFFFFFFFFFFFFFFFFFF MUL NOT AND SWAP1 SSTORE DUP1 PUSH32 0x7CC135E0CEBB02C3480AE5D74D377283180A2601F8F644EDF7987B009316C63A PUSH1 0x40 MLOAD PUSH1 0x40 MLOAD DUP1 SWAP2 SUB SWAP1 LOG2 DUP2 PUSH1 0x7 PUSH1 0x0 DUP6 DUP2 MSTORE PUSH1 0x20 ADD SWAP1 DUP2 MSTORE PUSH1 0x20 ADD PUSH1 0x0 KECCAK256 SWAP1 DUP1 MLOAD SWAP1 PUSH1 0x20 ADD SWAP1 PUSH2 0x13A6 SWAP3 SWAP2 SWAP1 PUSH2 0x26E7 JUMP JUMPDEST POP POP POP POP JUMP JUMPDEST PUSH1 0x9 PUSH1 0x0 PUSH1 0xE SLOAD DUP2 MSTORE PUSH1 0x20 ADD SWAP1 DUP2 MSTORE PUSH1 0x20 ADD PUSH1 0x0 KECCAK256 PUSH1 0x1 ADD SLOAD TIMESTAMP LT PUSH2 0x1406 JUMPI PUSH1 0x40 MLOAD PUSH32 0x8C379A000000000000000000000000000000000000000000000000000000000 DUP2 MSTORE PUSH1 0x4 ADD PUSH2 0x13FD SWAP1 PUSH2 0x3ADA JUMP JUMPDEST PUSH1 0x40 MLOAD DUP1 SWAP2 SUB SWAP1 REVERT JUMPDEST PUSH1 0x8 PUSH1 0x0 PUSH1 0xE SLOAD DUP2 MSTORE PUSH1 0x20 ADD SWAP1 DUP2 MSTORE PUSH1 0x20 ADD PUSH1 0x0 KECCAK256 DUP1 SLOAD SWAP1 POP DUP2 MLOAD EQ PUSH2 0x1461 JUMPI PUSH1 0x40 MLOAD PUSH32 0x8C379A000000000000000000000000000000000000000000000000000000000 DUP2 MSTORE PUSH1 0x4 ADD PUSH2 0x1458 SWAP1 PUSH2 0x3B6C JUMP JUMPDEST PUSH1 0x40 MLOAD DUP1 SWAP2 SUB SWAP1 REVERT JUMPDEST PUSH1 0x0 JUMPDEST PUSH1 0x8 PUSH1 0x0 PUSH1 0xE SLOAD DUP2 MSTORE PUSH1 0x20 ADD SWAP1 DUP2 MSTORE PUSH1 0x20 ADD PUSH1 0x0 KECCAK256 DUP1 SLOAD SWAP1 POP DUP2 LT ISZERO PUSH2 0x15C0 JUMPI PUSH1 0x40 MLOAD DUP1 PUSH1 0x40 ADD PUSH1 0x40 MSTORE DUP1 DUP4 DUP4 DUP2 MLOAD DUP2 LT PUSH2 0x14A2 JUMPI PUSH2 0x14A1 PUSH2 0x3760 JUMP JUMPDEST JUMPDEST PUSH1 0x20 MUL PUSH1 0x20 ADD ADD MLOAD PUSH1 0x20 ADD MLOAD PUSH1 0xFF AND DUP2 MSTORE PUSH1 0x20 ADD DUP4 DUP4 DUP2 MLOAD DUP2 LT PUSH2 0x14C9 JUMPI PUSH2 0x14C8 PUSH2 0x3760 JUMP JUMPDEST JUMPDEST PUSH1 0x20 MUL PUSH1 0x20 ADD ADD MLOAD PUSH1 0x40 ADD MLOAD PUSH1 0xFF AND DUP2 MSTORE POP PUSH1 0xB PUSH1 0x0 CALLER PUSH20 0xFFFFFFFFFFFFFFFFFFFFFFFFFFFFFFFFFFFFFFFF AND PUSH20 0xFFFFFFFFFFFFFFFFFFFFFFFFFFFFFFFFFFFFFFFF AND DUP2 MSTORE PUSH1 0x20 ADD SWAP1 DUP2 MSTORE PUSH1 0x20 ADD PUSH1 0x0 KECCAK256 PUSH1 0x0 PUSH1 0xE SLOAD DUP2 MSTORE PUSH1 0x20 ADD SWAP1 DUP2 MSTORE PUSH1 0x20 ADD PUSH1 0x0 KECCAK256 PUSH1 0x0 DUP5 DUP5 DUP2 MLOAD DUP2 LT PUSH2 0x1542 JUMPI PUSH2 0x1541 PUSH2 0x3760 JUMP JUMPDEST JUMPDEST PUSH1 0x20 MUL PUSH1 0x20 ADD ADD MLOAD PUSH1 0x0 ADD MLOAD PUSH4 0xFFFFFFFF AND PUSH4 0xFFFFFFFF AND DUP2 MSTORE PUSH1 0x20 ADD SWAP1 DUP2 MSTORE PUSH1 0x20 ADD PUSH1 0x0 KECCAK256 PUSH1 0x0 DUP3 ADD MLOAD DUP2 PUSH1 0x0 ADD PUSH1 0x0 PUSH2 0x100 EXP DUP2 SLOAD DUP2 PUSH1 0xFF MUL NOT AND SWAP1 DUP4 PUSH1 0xFF AND MUL OR SWAP1 SSTORE POP PUSH1 0x20 DUP3 ADD MLOAD DUP2 PUSH1 0x0 ADD PUSH1 0x1 PUSH2 0x100 EXP DUP2 SLOAD DUP2 PUSH1 0xFF MUL NOT AND SWAP1 DUP4 PUSH1 0xFF AND MUL OR SWAP1 SSTORE POP SWAP1 POP POP DUP1 DUP1 PUSH2 0x15B8 SWAP1 PUSH2 0x37BE JUMP JUMPDEST SWAP2 POP POP PUSH2 0x1464 JUMP JUMPDEST POP POP JUMP JUMPDEST PUSH2 0x15CC PUSH2 0x26B3 JUMP JUMPDEST PUSH2 0x168C PUSH1 0x7 PUSH1 0x0 DUP6 DUP2 MSTORE PUSH1 0x20 ADD SWAP1 DUP2 MSTORE PUSH1 0x20 ADD PUSH1 0x0 KECCAK256 DUP4 DUP2 SLOAD DUP2 LT PUSH2 0x15F4 JUMPI PUSH2 0x15F3 PUSH2 0x3760 JUMP JUMPDEST JUMPDEST SWAP1 PUSH1 0x0 MSTORE PUSH1 0x20 PUSH1 0x0 KECCAK256 ADD DUP1 SLOAD PUSH2 0x1609 SWAP1 PUSH2 0x39BA JUMP JUMPDEST DUP1 PUSH1 0x1F ADD PUSH1 0x20 DUP1 SWAP2 DIV MUL PUSH1 0x20 ADD PUSH1 0x40 MLOAD SWAP1 DUP2 ADD PUSH1 0x40 MSTORE DUP1 SWAP3 SWAP2 SWAP1 DUP2 DUP2 MSTORE PUSH1 0x20 ADD DUP3 DUP1 SLOAD PUSH2 0x1635 SWAP1 PUSH2 0x39BA JUMP JUMPDEST DUP1 ISZERO PUSH2 0x1682 JUMPI DUP1 PUSH1 0x1F LT PUSH2 0x1657 JUMPI PUSH2 0x100 DUP1 DUP4 SLOAD DIV MUL DUP4 MSTORE SWAP2 PUSH1 0x20 ADD SWAP2 PUSH2 0x1682 JUMP JUMPDEST DUP3 ADD SWAP2 SWAP1 PUSH1 0x0 MSTORE PUSH1 0x20 PUSH1 0x0 KECCAK256 SWAP1 JUMPDEST DUP2 SLOAD DUP2 MSTORE SWAP1 PUSH1 0x1 ADD SWAP1 PUSH1 0x20 ADD DUP1 DUP4 GT PUSH2 0x1665 JUMPI DUP3 SWAP1 SUB PUSH1 0x1F AND DUP3 ADD SWAP2 JUMPDEST POP POP POP POP POP PUSH2 0x18DD JUMP JUMPDEST SWAP1 POP SWAP3 SWAP2 POP POP JUMP JUMPDEST PUSH2 0x169C PUSH2 0x267E JUMP JUMPDEST PUSH2 0x175C PUSH1 0x7 PUSH1 0x0 DUP6 DUP2 MSTORE PUSH1 0x20 ADD SWAP1 DUP2 MSTORE PUSH1 0x20 ADD PUSH1 0x0 KECCAK256 DUP4 DUP2 SLOAD DUP2 LT PUSH2 0x16C4 JUMPI PUSH2 0x16C3 PUSH2 0x3760 JUMP JUMPDEST JUMPDEST SWAP1 PUSH1 0x0 MSTORE PUSH1 0x20 PUSH1 0x0 KECCAK256 ADD DUP1 SLOAD PUSH2 0x16D9 SWAP1 PUSH2 0x39BA JUMP JUMPDEST DUP1 PUSH1 0x1F ADD PUSH1 0x20 DUP1 SWAP2 DIV MUL PUSH1 0x20 ADD PUSH1 0x40 MLOAD SWAP1 DUP2 ADD PUSH1 0x40 MSTORE DUP1 SWAP3 SWAP2 SWAP1 DUP2 DUP2 MSTORE PUSH1 0x20 ADD DUP3 DUP1 SLOAD PUSH2 0x1705 SWAP1 PUSH2 0x39BA JUMP JUMPDEST DUP1 ISZERO PUSH2 0x1752 JUMPI DUP1 PUSH1 0x1F LT PUSH2 0x1727 JUMPI PUSH2 0x100 DUP1 DUP4 SLOAD DIV MUL DUP4 MSTORE SWAP2 PUSH1 0x20 ADD SWAP2 PUSH2 0x1752 JUMP JUMPDEST DUP3 ADD SWAP2 SWAP1 PUSH1 0x0 MSTORE PUSH1 0x20 PUSH1 0x0 KECCAK256 SWAP1 JUMPDEST DUP2 SLOAD DUP2 MSTORE SWAP1 PUSH1 0x1 ADD SWAP1 PUSH1 0x20 ADD DUP1 DUP4 GT PUSH2 0x1735 JUMPI DUP3 SWAP1 SUB PUSH1 0x1F AND DUP3 ADD SWAP2 JUMPDEST POP POP POP POP POP PUSH2 0x1AE1 JUMP JUMPDEST SWAP1 POP SWAP3 SWAP2 POP POP JUMP JUMPDEST PUSH2 0x1770 DUP5 DUP5 DUP5 DUP5 PUSH2 0x1BFF JUMP JUMPDEST POP POP POP POP JUMP JUMPDEST PUSH1 0x0 PUSH1 0x7 PUSH1 0x0 DUP4 DUP2 MSTORE PUSH1 0x20 ADD SWAP1 DUP2 MSTORE PUSH1 0x20 ADD PUSH1 0x0 KECCAK256 DUP1 SLOAD SWAP1 POP SWAP1 POP SWAP2 SWAP1 POP JUMP JUMPDEST PUSH2 0x179E PUSH2 0x199D JUMP JUMPDEST PUSH1 0x0 PUSH20 0xFFFFFFFFFFFFFFFFFFFFFFFFFFFFFFFFFFFFFFFF AND DUP2 PUSH20 0xFFFFFFFFFFFFFFFFFFFFFFFFFFFFFFFFFFFFFFFF AND SUB PUSH2 0x180D JUMPI PUSH1 0x40 MLOAD PUSH32 0x8C379A000000000000000000000000000000000000000000000000000000000 DUP2 MSTORE PUSH1 0x4 ADD PUSH2 0x1804 SWAP1 PUSH2 0x3BFE JUMP JUMPDEST PUSH1 0x40 MLOAD DUP1 SWAP2 SUB SWAP1 REVERT JUMPDEST PUSH2 0x1816 DUP2 PUSH2 0x1A1B JUMP JUMPDEST POP JUMP JUMPDEST PUSH1 0x0 PUSH1 0x2 PUSH1 0x0 SWAP1 SLOAD SWAP1 PUSH2 0x100 EXP SWAP1 DIV PUSH20 0xFFFFFFFFFFFFFFFFFFFFFFFFFFFFFFFFFFFFFFFF AND SWAP1 POP SWAP1 JUMP JUMPDEST PUSH2 0x184B PUSH2 0x2740 JUMP JUMPDEST PUSH2 0x1853 PUSH2 0x2740 JUMP JUMPDEST PUSH2 0x186A DUP5 ADDRESS DUP6 DUP5 PUSH2 0x1D12 SWAP1 SWAP4 SWAP3 SWAP2 SWAP1 PUSH4 0xFFFFFFFF AND JUMP JUMPDEST SWAP2 POP POP SWAP3 SWAP2 POP POP JUMP JUMPDEST PUSH2 0x188A DUP3 DUP5 PUSH1 0x80 ADD MLOAD PUSH2 0x1DC2 SWAP1 SWAP2 SWAP1 PUSH4 0xFFFFFFFF AND JUMP JUMPDEST PUSH2 0x18A1 DUP2 DUP5 PUSH1 0x80 ADD MLOAD PUSH2 0x1DE7 SWAP1 SWAP2 SWAP1 PUSH4 0xFFFFFFFF AND JUMP JUMPDEST POP POP POP JUMP JUMPDEST PUSH1 0x0 PUSH2 0x18D5 PUSH1 0x3 PUSH1 0x0 SWAP1 SLOAD SWAP1 PUSH2 0x100 EXP SWAP1 DIV PUSH20 0xFFFFFFFFFFFFFFFFFFFFFFFFFFFFFFFFFFFFFFFF AND DUP5 DUP5 PUSH2 0x1E17 JUMP JUMPDEST SWAP1 POP SWAP3 SWAP2 POP POP JUMP JUMPDEST PUSH2 0x18E5 PUSH2 0x26B3 JUMP JUMPDEST PUSH1 0x0 PUSH2 0x18F4 PUSH1 0x0 PUSH1 0x4 DUP6 PUSH2 0x1EE1 JUMP JUMPDEST PUSH2 0x18FD SWAP1 PUSH2 0x3C5B JUMP JUMPDEST PUSH1 0xE0 SHR SWAP1 POP PUSH1 0x0 DUP4 PUSH1 0x4 DUP2 MLOAD DUP2 LT PUSH2 0x1918 JUMPI PUSH2 0x1917 PUSH2 0x3760 JUMP JUMPDEST JUMPDEST PUSH1 0x20 ADD ADD MLOAD PUSH1 0xF8 SHR PUSH1 0xF8 SHL PUSH1 0xF8 SHR SWAP1 POP PUSH1 0x0 DUP5 PUSH1 0x5 DUP2 MLOAD DUP2 LT PUSH2 0x193E JUMPI PUSH2 0x193D PUSH2 0x3760 JUMP JUMPDEST JUMPDEST PUSH1 0x20 ADD ADD MLOAD PUSH1 0xF8 SHR PUSH1 0xF8 SHL PUSH1 0xF8 SHR SWAP1 POP PUSH1 0x0 PUSH2 0x195D PUSH1 0x6 DUP8 MLOAD DUP9 PUSH2 0x1EE1 JUMP JUMPDEST SWAP1 POP PUSH1 0x0 PUSH1 0x40 MLOAD DUP1 PUSH1 0x80 ADD PUSH1 0x40 MSTORE DUP1 DUP7 PUSH4 0xFFFFFFFF AND DUP2 MSTORE PUSH1 0x20 ADD DUP6 PUSH1 0xFF AND DUP2 MSTORE PUSH1 0x20 ADD DUP5 PUSH1 0xFF AND DUP2 MSTORE PUSH1 0x20 ADD DUP4 DUP2 MSTORE POP SWAP1 POP DUP1 SWAP6 POP POP POP POP POP POP SWAP2 SWAP1 POP JUMP JUMPDEST PUSH2 0x19A5 PUSH2 0x1FDD JUMP JUMPDEST PUSH20 0xFFFFFFFFFFFFFFFFFFFFFFFFFFFFFFFFFFFFFFFF AND PUSH2 0x19C3 PUSH2 0x1250 JUMP JUMPDEST PUSH20 0xFFFFFFFFFFFFFFFFFFFFFFFFFFFFFFFFFFFFFFFF AND EQ PUSH2 0x1A19 JUMPI PUSH1 0x40 MLOAD PUSH32 0x8C379A000000000000000000000000000000000000000000000000000000000 DUP2 MSTORE PUSH1 0x4 ADD PUSH2 0x1A10 SWAP1 PUSH2 0x3D0E JUMP JUMPDEST PUSH1 0x40 MLOAD DUP1 SWAP2 SUB SWAP1 REVERT JUMPDEST JUMP JUMPDEST PUSH1 0x0 PUSH1 0x6 PUSH1 0x0 SWAP1 SLOAD SWAP1 PUSH2 0x100 EXP SWAP1 DIV PUSH20 0xFFFFFFFFFFFFFFFFFFFFFFFFFFFFFFFFFFFFFFFF AND SWAP1 POP DUP2 PUSH1 0x6 PUSH1 0x0 PUSH2 0x100 EXP DUP2 SLOAD DUP2 PUSH20 0xFFFFFFFFFFFFFFFFFFFFFFFFFFFFFFFFFFFFFFFF MUL NOT AND SWAP1 DUP4 PUSH20 0xFFFFFFFFFFFFFFFFFFFFFFFFFFFFFFFFFFFFFFFF AND MUL OR SWAP1 SSTORE POP DUP2 PUSH20 0xFFFFFFFFFFFFFFFFFFFFFFFFFFFFFFFFFFFFFFFF AND DUP2 PUSH20 0xFFFFFFFFFFFFFFFFFFFFFFFFFFFFFFFFFFFFFFFF AND PUSH32 0x8BE0079C531659141344CD1FD0A4F28419497F9722A3DAAFE3B4186F6B6457E0 PUSH1 0x40 MLOAD PUSH1 0x40 MLOAD DUP1 SWAP2 SUB SWAP1 LOG3 POP POP JUMP JUMPDEST PUSH2 0x1AE9 PUSH2 0x267E JUMP JUMPDEST PUSH1 0x0 PUSH2 0x1AF8 PUSH1 0x0 PUSH1 0x4 DUP6 PUSH2 0x1EE1 JUMP JUMPDEST PUSH2 0x1B01 SWAP1 PUSH2 0x3C5B JUMP JUMPDEST PUSH1 0xE0 SHR SWAP1 POP PUSH1 0x0 PUSH2 0x1B15 PUSH1 0x4 PUSH1 0x9 DUP7 PUSH2 0x1EE1 JUMP JUMPDEST PUSH2 0x1B1E SWAP1 PUSH2 0x3D6F JUMP JUMPDEST PUSH1 0xD8 SHR SWAP1 POP PUSH1 0x0 DUP5 PUSH1 0x9 DUP2 MLOAD DUP2 LT PUSH2 0x1B39 JUMPI PUSH2 0x1B38 PUSH2 0x3760 JUMP JUMPDEST JUMPDEST PUSH1 0x20 ADD ADD MLOAD PUSH1 0xF8 SHR PUSH1 0xF8 SHL PUSH1 0xF8 SHR SWAP1 POP PUSH1 0x0 DUP2 PUSH1 0xA PUSH2 0x1B58 SWAP2 SWAP1 PUSH2 0x3DD6 JUMP JUMPDEST PUSH1 0xFF AND SWAP1 POP PUSH1 0x0 PUSH2 0x1B6B PUSH1 0xA DUP4 DUP10 PUSH2 0x1EE1 JUMP JUMPDEST SWAP1 POP PUSH1 0x0 PUSH2 0x1B7B DUP4 DUP10 MLOAD DUP11 PUSH2 0x1EE1 JUMP JUMPDEST SWAP1 POP PUSH1 0x0 PUSH1 0x40 MLOAD DUP1 PUSH1 0x80 ADD PUSH1 0x40 MSTORE DUP1 DUP9 PUSH4 0xFFFFFFFF AND DUP2 MSTORE PUSH1 0x20 ADD DUP8 PUSH5 0xFFFFFFFFFF AND DUP2 MSTORE PUSH1 0x20 ADD DUP5 DUP2 MSTORE PUSH1 0x20 ADD DUP4 DUP2 MSTORE POP SWAP1 POP DUP1 SWAP8 POP POP POP POP POP POP POP POP SWAP2 SWAP1 POP JUMP JUMPDEST PUSH1 0x0 DUP1 DUP3 PUSH1 0xFF AND DUP5 PUSH1 0xFF AND GT ISZERO PUSH2 0x1BD8 JUMPI PUSH1 0x0 SWAP1 POP PUSH2 0x1BF5 JUMP JUMPDEST DUP4 PUSH1 0xFF AND DUP4 PUSH1 0xFF AND GT ISZERO PUSH2 0x1BEF JUMPI PUSH1 0x2 SWAP1 POP PUSH2 0x1BF4 JUMP JUMPDEST PUSH1 0x1 SWAP1 POP JUMPDEST JUMPDEST DUP1 SWAP2 POP POP SWAP3 SWAP2 POP POP JUMP JUMPDEST PUSH1 0x0 PUSH1 0x5 PUSH1 0x0 DUP7 DUP2 MSTORE PUSH1 0x20 ADD SWAP1 DUP2 MSTORE PUSH1 0x20 ADD PUSH1 0x0 KECCAK256 PUSH1 0x0 SWAP1 SLOAD SWAP1 PUSH2 0x100 EXP SWAP1 DIV PUSH20 0xFFFFFFFFFFFFFFFFFFFFFFFFFFFFFFFFFFFFFFFF AND SWAP1 POP PUSH1 0x5 PUSH1 0x0 DUP7 DUP2 MSTORE PUSH1 0x20 ADD SWAP1 DUP2 MSTORE PUSH1 0x20 ADD PUSH1 0x0 KECCAK256 PUSH1 0x0 PUSH2 0x100 EXP DUP2 SLOAD SWAP1 PUSH20 0xFFFFFFFFFFFFFFFFFFFFFFFFFFFFFFFFFFFFFFFF MUL NOT AND SWAP1 SSTORE DUP5 PUSH32 0xE1FE3AFA0F7F761FF0A8B89086790EFD5140D2907EBD5B7FF6BFCB5E075FD4C5 PUSH1 0x40 MLOAD PUSH1 0x40 MLOAD DUP1 SWAP2 SUB SWAP1 LOG2 DUP1 PUSH20 0xFFFFFFFFFFFFFFFFFFFFFFFFFFFFFFFFFFFFFFFF AND PUSH4 0x6EE4D553 DUP7 DUP7 DUP7 DUP7 PUSH1 0x40 MLOAD DUP6 PUSH4 0xFFFFFFFF AND PUSH1 0xE0 SHL DUP2 MSTORE PUSH1 0x4 ADD PUSH2 0x1CD9 SWAP5 SWAP4 SWAP3 SWAP2 SWAP1 PUSH2 0x3E1C JUMP JUMPDEST PUSH1 0x0 PUSH1 0x40 MLOAD DUP1 DUP4 SUB DUP2 PUSH1 0x0 DUP8 DUP1 EXTCODESIZE ISZERO DUP1 ISZERO PUSH2 0x1CF3 JUMPI PUSH1 0x0 DUP1 REVERT JUMPDEST POP GAS CALL ISZERO DUP1 ISZERO PUSH2 0x1D07 JUMPI RETURNDATASIZE PUSH1 0x0 DUP1 RETURNDATACOPY RETURNDATASIZE PUSH1 0x0 REVERT JUMPDEST POP POP POP POP POP POP POP POP POP JUMP JUMPDEST PUSH2 0x1D1A PUSH2 0x2740 JUMP JUMPDEST PUSH2 0x1D2A DUP6 PUSH1 0x80 ADD MLOAD PUSH2 0x100 PUSH2 0x1FE5 JUMP JUMPDEST POP DUP4 DUP6 PUSH1 0x0 ADD DUP2 DUP2 MSTORE POP POP DUP3 DUP6 PUSH1 0x20 ADD SWAP1 PUSH20 0xFFFFFFFFFFFFFFFFFFFFFFFFFFFFFFFFFFFFFFFF AND SWAP1 DUP2 PUSH20 0xFFFFFFFFFFFFFFFFFFFFFFFFFFFFFFFFFFFFFFFF AND DUP2 MSTORE POP POP DUP2 DUP6 PUSH1 0x40 ADD SWAP1 PUSH28 0xFFFFFFFFFFFFFFFFFFFFFFFFFFFFFFFFFFFFFFFFFFFFFFFFFFFFFFFF NOT AND SWAP1 DUP2 PUSH28 0xFFFFFFFFFFFFFFFFFFFFFFFFFFFFFFFFFFFFFFFFFFFFFFFFFFFFFFFF NOT AND DUP2 MSTORE POP POP DUP5 SWAP1 POP SWAP5 SWAP4 POP POP POP POP JUMP JUMPDEST PUSH2 0x1DCF DUP3 PUSH1 0x3 DUP4 MLOAD PUSH2 0x204F JUMP JUMPDEST PUSH2 0x1DE2 DUP2 DUP4 PUSH2 0x21D4 SWAP1 SWAP2 SWAP1 PUSH4 0xFFFFFFFF AND JUMP JUMPDEST POP POP POP JUMP JUMPDEST PUSH8 0xFFFFFFFFFFFFFFFF DUP2 GT ISZERO PUSH2 0x1E06 JUMPI PUSH2 0x1E01 DUP3 DUP3 PUSH2 0x21F6 JUMP JUMPDEST PUSH2 0x1E13 JUMP JUMPDEST PUSH2 0x1E12 DUP3 PUSH1 0x0 DUP4 PUSH2 0x204F JUMP JUMPDEST JUMPDEST POP POP JUMP JUMPDEST PUSH1 0x0 DUP1 PUSH1 0x4 SLOAD SWAP1 POP PUSH1 0x1 DUP2 PUSH2 0x1E2C SWAP2 SWAP1 PUSH2 0x3806 JUMP JUMPDEST PUSH1 0x4 DUP2 SWAP1 SSTORE POP PUSH1 0x0 PUSH4 0x3C6D41B9 PUSH1 0xE0 SHL PUSH1 0x0 DUP1 DUP8 PUSH1 0x0 ADD MLOAD DUP9 PUSH1 0x40 ADD MLOAD DUP7 PUSH1 0x2 DUP12 PUSH1 0x80 ADD MLOAD PUSH1 0x0 ADD MLOAD PUSH1 0x40 MLOAD PUSH1 0x24 ADD PUSH2 0x1E6B SWAP8 SWAP7 SWAP6 SWAP5 SWAP4 SWAP3 SWAP2 SWAP1 PUSH2 0x3EAB JUMP JUMPDEST PUSH1 0x40 MLOAD PUSH1 0x20 DUP2 DUP4 SUB SUB DUP2 MSTORE SWAP1 PUSH1 0x40 MSTORE SWAP1 PUSH28 0xFFFFFFFFFFFFFFFFFFFFFFFFFFFFFFFFFFFFFFFFFFFFFFFFFFFFFFFF NOT AND PUSH1 0x20 DUP3 ADD DUP1 MLOAD PUSH28 0xFFFFFFFFFFFFFFFFFFFFFFFFFFFFFFFFFFFFFFFFFFFFFFFFFFFFFFFF DUP4 DUP2 DUP4 AND OR DUP4 MSTORE POP POP POP POP SWAP1 POP PUSH2 0x1ED6 DUP7 DUP4 DUP7 DUP5 PUSH2 0x2242 JUMP JUMPDEST SWAP3 POP POP POP SWAP4 SWAP3 POP POP POP JUMP JUMPDEST PUSH1 0x60 PUSH1 0x0 DUP5 DUP5 PUSH2 0x1EF1 SWAP2 SWAP1 PUSH2 0x3F21 JUMP JUMPDEST PUSH8 0xFFFFFFFFFFFFFFFF DUP2 GT ISZERO PUSH2 0x1F0A JUMPI PUSH2 0x1F09 PUSH2 0x2D39 JUMP JUMPDEST JUMPDEST PUSH1 0x40 MLOAD SWAP1 DUP1 DUP3 MSTORE DUP1 PUSH1 0x1F ADD PUSH1 0x1F NOT AND PUSH1 0x20 ADD DUP3 ADD PUSH1 0x40 MSTORE DUP1 ISZERO PUSH2 0x1F3C JUMPI DUP2 PUSH1 0x20 ADD PUSH1 0x1 DUP3 MUL DUP1 CALLDATASIZE DUP4 CALLDATACOPY DUP1 DUP3 ADD SWAP2 POP POP SWAP1 POP JUMPDEST POP SWAP1 POP PUSH1 0x0 JUMPDEST DUP6 DUP6 PUSH2 0x1F4E SWAP2 SWAP1 PUSH2 0x3F21 JUMP JUMPDEST DUP2 LT ISZERO PUSH2 0x1FD1 JUMPI DUP4 DUP2 DUP8 PUSH2 0x1F62 SWAP2 SWAP1 PUSH2 0x3806 JUMP JUMPDEST DUP2 MLOAD DUP2 LT PUSH2 0x1F73 JUMPI PUSH2 0x1F72 PUSH2 0x3760 JUMP JUMPDEST JUMPDEST PUSH1 0x20 ADD ADD MLOAD PUSH1 0xF8 SHR PUSH1 0xF8 SHL DUP3 DUP3 DUP2 MLOAD DUP2 LT PUSH2 0x1F91 JUMPI PUSH2 0x1F90 PUSH2 0x3760 JUMP JUMPDEST JUMPDEST PUSH1 0x20 ADD ADD SWAP1 PUSH31 0xFFFFFFFFFFFFFFFFFFFFFFFFFFFFFFFFFFFFFFFFFFFFFFFFFFFFFFFFFFFFFF NOT AND SWAP1 DUP2 PUSH1 0x0 BYTE SWAP1 MSTORE8 POP DUP1 PUSH2 0x1FCA SWAP1 PUSH2 0x37BE JUMP JUMPDEST SWAP1 POP PUSH2 0x1F42 JUMP JUMPDEST POP DUP1 SWAP2 POP POP SWAP4 SWAP3 POP POP POP JUMP JUMPDEST PUSH1 0x0 CALLER SWAP1 POP SWAP1 JUMP JUMPDEST PUSH2 0x1FED PUSH2 0x27AD JUMP JUMPDEST PUSH1 0x0 PUSH1 0x20 DUP4 PUSH2 0x1FFC SWAP2 SWAP1 PUSH2 0x3F84 JUMP JUMPDEST EQ PUSH2 0x2028 JUMPI PUSH1 0x20 DUP3 PUSH2 0x200E SWAP2 SWAP1 PUSH2 0x3F84 JUMP JUMPDEST PUSH1 0x20 PUSH2 0x201A SWAP2 SWAP1 PUSH2 0x3F21 JUMP JUMPDEST DUP3 PUSH2 0x2025 SWAP2 SWAP1 PUSH2 0x3806 JUMP JUMPDEST SWAP2 POP JUMPDEST DUP2 DUP4 PUSH1 0x20 ADD DUP2 DUP2 MSTORE POP POP PUSH1 0x40 MLOAD DUP1 DUP5 MSTORE PUSH1 0x0 DUP2 MSTORE DUP3 DUP2 ADD PUSH1 0x20 ADD PUSH1 0x40 MSTORE POP DUP3 SWAP1 POP SWAP3 SWAP2 POP POP JUMP JUMPDEST PUSH1 0x17 DUP2 PUSH8 0xFFFFFFFFFFFFFFFF AND GT PUSH2 0x2086 JUMPI PUSH2 0x2080 DUP2 PUSH1 0x5 DUP5 PUSH1 0xFF AND SWAP1 SHL PUSH1 0xFF AND OR DUP5 PUSH2 0x23D7 SWAP1 SWAP2 SWAP1 PUSH4 0xFFFFFFFF AND JUMP JUMPDEST POP PUSH2 0x21CF JUMP JUMPDEST PUSH1 0xFF DUP2 PUSH8 0xFFFFFFFFFFFFFFFF AND GT PUSH2 0x20DC JUMPI PUSH2 0x20B5 PUSH1 0x18 PUSH1 0x5 DUP5 PUSH1 0xFF AND SWAP1 SHL OR DUP5 PUSH2 0x23D7 SWAP1 SWAP2 SWAP1 PUSH4 0xFFFFFFFF AND JUMP JUMPDEST POP PUSH2 0x20D6 DUP2 PUSH8 0xFFFFFFFFFFFFFFFF AND PUSH1 0x1 DUP6 PUSH2 0x23F7 SWAP1 SWAP3 SWAP2 SWAP1 PUSH4 0xFFFFFFFF AND JUMP JUMPDEST POP PUSH2 0x21CE JUMP JUMPDEST PUSH2 0xFFFF DUP2 PUSH8 0xFFFFFFFFFFFFFFFF AND GT PUSH2 0x2133 JUMPI PUSH2 0x210C PUSH1 0x19 PUSH1 0x5 DUP5 PUSH1 0xFF AND SWAP1 SHL OR DUP5 PUSH2 0x23D7 SWAP1 SWAP2 SWAP1 PUSH4 0xFFFFFFFF AND JUMP JUMPDEST POP PUSH2 0x212D DUP2 PUSH8 0xFFFFFFFFFFFFFFFF AND PUSH1 0x2 DUP6 PUSH2 0x23F7 SWAP1 SWAP3 SWAP2 SWAP1 PUSH4 0xFFFFFFFF AND JUMP JUMPDEST POP PUSH2 0x21CD JUMP JUMPDEST PUSH4 0xFFFFFFFF DUP2 PUSH8 0xFFFFFFFFFFFFFFFF AND GT PUSH2 0x218C JUMPI PUSH2 0x2165 PUSH1 0x1A PUSH1 0x5 DUP5 PUSH1 0xFF AND SWAP1 SHL OR DUP5 PUSH2 0x23D7 SWAP1 SWAP2 SWAP1 PUSH4 0xFFFFFFFF AND JUMP JUMPDEST POP PUSH2 0x2186 DUP2 PUSH8 0xFFFFFFFFFFFFFFFF AND PUSH1 0x4 DUP6 PUSH2 0x23F7 SWAP1 SWAP3 SWAP2 SWAP1 PUSH4 0xFFFFFFFF AND JUMP JUMPDEST POP PUSH2 0x21CC JUMP JUMPDEST PUSH2 0x21A9 PUSH1 0x1B PUSH1 0x5 DUP5 PUSH1 0xFF AND SWAP1 SHL OR DUP5 PUSH2 0x23D7 SWAP1 SWAP2 SWAP1 PUSH4 0xFFFFFFFF AND JUMP JUMPDEST POP PUSH2 0x21CA DUP2 PUSH8 0xFFFFFFFFFFFFFFFF AND PUSH1 0x8 DUP6 PUSH2 0x23F7 SWAP1 SWAP3 SWAP2 SWAP1 PUSH4 0xFFFFFFFF AND JUMP JUMPDEST POP JUMPDEST JUMPDEST JUMPDEST JUMPDEST POP POP POP JUMP JUMPDEST PUSH2 0x21DC PUSH2 0x27AD JUMP JUMPDEST PUSH2 0x21EE DUP4 DUP5 PUSH1 0x0 ADD MLOAD MLOAD DUP5 DUP6 MLOAD PUSH2 0x2419 JUMP JUMPDEST SWAP1 POP SWAP3 SWAP2 POP POP JUMP JUMPDEST PUSH2 0x2214 PUSH1 0x2 PUSH1 0x5 PUSH1 0x6 PUSH1 0xFF AND SWAP1 SHL OR DUP4 PUSH2 0x23D7 SWAP1 SWAP2 SWAP1 PUSH4 0xFFFFFFFF AND JUMP JUMPDEST POP PUSH2 0x223E DUP3 DUP3 PUSH1 0x40 MLOAD PUSH1 0x20 ADD PUSH2 0x222A SWAP2 SWAP1 PUSH2 0x2BA4 JUMP JUMPDEST PUSH1 0x40 MLOAD PUSH1 0x20 DUP2 DUP4 SUB SUB DUP2 MSTORE SWAP1 PUSH1 0x40 MSTORE PUSH2 0x2508 JUMP JUMPDEST POP POP JUMP JUMPDEST PUSH1 0x0 ADDRESS DUP5 PUSH1 0x40 MLOAD PUSH1 0x20 ADD PUSH2 0x2257 SWAP3 SWAP2 SWAP1 PUSH2 0x4030 JUMP JUMPDEST PUSH1 0x40 MLOAD PUSH1 0x20 DUP2 DUP4 SUB SUB DUP2 MSTORE SWAP1 PUSH1 0x40 MSTORE DUP1 MLOAD SWAP1 PUSH1 0x20 ADD KECCAK256 SWAP1 POP DUP5 PUSH1 0x5 PUSH1 0x0 DUP4 DUP2 MSTORE PUSH1 0x20 ADD SWAP1 DUP2 MSTORE PUSH1 0x20 ADD PUSH1 0x0 KECCAK256 PUSH1 0x0 PUSH2 0x100 EXP DUP2 SLOAD DUP2 PUSH20 0xFFFFFFFFFFFFFFFFFFFFFFFFFFFFFFFFFFFFFFFF MUL NOT AND SWAP1 DUP4 PUSH20 0xFFFFFFFFFFFFFFFFFFFFFFFFFFFFFFFFFFFFFFFF AND MUL OR SWAP1 SSTORE POP DUP1 PUSH32 0xB5E6E01E79F91267DC17B4E6314D5D4D03593D2CEEE0FBB452B750BD70EA5AF9 PUSH1 0x40 MLOAD PUSH1 0x40 MLOAD DUP1 SWAP2 SUB SWAP1 LOG2 PUSH1 0x2 PUSH1 0x0 SWAP1 SLOAD SWAP1 PUSH2 0x100 EXP SWAP1 DIV PUSH20 0xFFFFFFFFFFFFFFFFFFFFFFFFFFFFFFFFFFFFFFFF AND PUSH20 0xFFFFFFFFFFFFFFFFFFFFFFFFFFFFFFFFFFFFFFFF AND PUSH4 0x4000AEA0 DUP7 DUP6 DUP6 PUSH1 0x40 MLOAD DUP5 PUSH4 0xFFFFFFFF AND PUSH1 0xE0 SHL DUP2 MSTORE PUSH1 0x4 ADD PUSH2 0x234D SWAP4 SWAP3 SWAP2 SWAP1 PUSH2 0x405C JUMP JUMPDEST PUSH1 0x20 PUSH1 0x40 MLOAD DUP1 DUP4 SUB DUP2 PUSH1 0x0 DUP8 GAS CALL ISZERO DUP1 ISZERO PUSH2 0x236C JUMPI RETURNDATASIZE PUSH1 0x0 DUP1 RETURNDATACOPY RETURNDATASIZE PUSH1 0x0 REVERT JUMPDEST POP POP POP POP PUSH1 0x40 MLOAD RETURNDATASIZE PUSH1 0x1F NOT PUSH1 0x1F DUP3 ADD AND DUP3 ADD DUP1 PUSH1 0x40 MSTORE POP DUP2 ADD SWAP1 PUSH2 0x2390 SWAP2 SWAP1 PUSH2 0x395E JUMP JUMPDEST PUSH2 0x23CF JUMPI PUSH1 0x40 MLOAD PUSH32 0x8C379A000000000000000000000000000000000000000000000000000000000 DUP2 MSTORE PUSH1 0x4 ADD PUSH2 0x23C6 SWAP1 PUSH2 0x410C JUMP JUMPDEST PUSH1 0x40 MLOAD DUP1 SWAP2 SUB SWAP1 REVERT JUMPDEST SWAP5 SWAP4 POP POP POP POP JUMP JUMPDEST PUSH2 0x23DF PUSH2 0x27AD JUMP JUMPDEST PUSH2 0x23EF DUP4 DUP5 PUSH1 0x0 ADD MLOAD MLOAD DUP5 PUSH2 0x252D JUMP JUMPDEST SWAP1 POP SWAP3 SWAP2 POP POP JUMP JUMPDEST PUSH2 0x23FF PUSH2 0x27AD JUMP JUMPDEST PUSH2 0x2410 DUP5 DUP6 PUSH1 0x0 ADD MLOAD MLOAD DUP6 DUP6 PUSH2 0x2583 JUMP JUMPDEST SWAP1 POP SWAP4 SWAP3 POP POP POP JUMP JUMPDEST PUSH2 0x2421 PUSH2 0x27AD JUMP JUMPDEST DUP3 MLOAD DUP3 GT ISZERO PUSH2 0x242F JUMPI PUSH1 0x0 DUP1 REVERT JUMPDEST DUP5 PUSH1 0x20 ADD MLOAD DUP3 DUP6 PUSH2 0x2440 SWAP2 SWAP1 PUSH2 0x3806 JUMP JUMPDEST GT ISZERO PUSH2 0x2475 JUMPI PUSH2 0x2474 DUP6 PUSH1 0x2 PUSH2 0x2465 DUP9 PUSH1 0x20 ADD MLOAD DUP9 DUP8 PUSH2 0x2460 SWAP2 SWAP1 PUSH2 0x3806 JUMP JUMPDEST PUSH2 0x2611 JUMP JUMPDEST PUSH2 0x246F SWAP2 SWAP1 PUSH2 0x412C JUMP JUMPDEST PUSH2 0x262D JUMP JUMPDEST JUMPDEST PUSH1 0x0 DUP1 DUP7 MLOAD DUP1 MLOAD DUP8 PUSH1 0x20 DUP4 ADD ADD SWAP4 POP DUP1 DUP9 DUP8 ADD GT ISZERO PUSH2 0x2494 JUMPI DUP8 DUP7 ADD DUP3 MSTORE JUMPDEST PUSH1 0x20 DUP8 ADD SWAP3 POP POP POP JUMPDEST PUSH1 0x20 DUP5 LT PUSH2 0x24DB JUMPI DUP1 MLOAD DUP3 MSTORE PUSH1 0x20 DUP3 PUSH2 0x24B6 SWAP2 SWAP1 PUSH2 0x3806 JUMP JUMPDEST SWAP2 POP PUSH1 0x20 DUP2 PUSH2 0x24C5 SWAP2 SWAP1 PUSH2 0x3806 JUMP JUMPDEST SWAP1 POP PUSH1 0x20 DUP5 PUSH2 0x24D4 SWAP2 SWAP1 PUSH2 0x3F21 JUMP JUMPDEST SWAP4 POP PUSH2 0x249D JUMP JUMPDEST PUSH1 0x0 PUSH1 0x1 DUP6 PUSH1 0x20 SUB PUSH2 0x100 EXP SUB SWAP1 POP DUP1 NOT DUP3 MLOAD AND DUP2 DUP5 MLOAD AND DUP2 DUP2 OR DUP6 MSTORE POP POP POP DUP7 SWAP3 POP POP POP SWAP5 SWAP4 POP POP POP POP JUMP JUMPDEST PUSH2 0x2515 DUP3 PUSH1 0x2 DUP4 MLOAD PUSH2 0x204F JUMP JUMPDEST PUSH2 0x2528 DUP2 DUP4 PUSH2 0x21D4 SWAP1 SWAP2 SWAP1 PUSH4 0xFFFFFFFF AND JUMP JUMPDEST POP POP POP JUMP JUMPDEST PUSH2 0x2535 PUSH2 0x27AD JUMP JUMPDEST DUP4 PUSH1 0x20 ADD MLOAD DUP4 LT PUSH2 0x255B JUMPI PUSH2 0x255A DUP5 PUSH1 0x2 DUP7 PUSH1 0x20 ADD MLOAD PUSH2 0x2555 SWAP2 SWAP1 PUSH2 0x412C JUMP JUMPDEST PUSH2 0x262D JUMP JUMPDEST JUMPDEST DUP4 MLOAD DUP1 MLOAD PUSH1 0x20 DUP6 DUP4 ADD ADD DUP5 DUP2 MSTORE8 DUP2 DUP7 SUB PUSH2 0x2576 JUMPI PUSH1 0x1 DUP3 ADD DUP4 MSTORE JUMPDEST POP POP POP DUP4 SWAP1 POP SWAP4 SWAP3 POP POP POP JUMP JUMPDEST PUSH2 0x258B PUSH2 0x27AD JUMP JUMPDEST DUP5 PUSH1 0x20 ADD MLOAD DUP5 DUP4 PUSH2 0x259C SWAP2 SWAP1 PUSH2 0x3806 JUMP JUMPDEST GT ISZERO PUSH2 0x25C4 JUMPI PUSH2 0x25C3 DUP6 PUSH1 0x2 DUP7 DUP6 PUSH2 0x25B4 SWAP2 SWAP1 PUSH2 0x3806 JUMP JUMPDEST PUSH2 0x25BE SWAP2 SWAP1 PUSH2 0x412C JUMP JUMPDEST PUSH2 0x262D JUMP JUMPDEST JUMPDEST PUSH1 0x0 PUSH1 0x1 DUP4 PUSH2 0x100 PUSH2 0x25D6 SWAP2 SWAP1 PUSH2 0x42B9 JUMP JUMPDEST PUSH2 0x25E0 SWAP2 SWAP1 PUSH2 0x3F21 JUMP JUMPDEST SWAP1 POP DUP6 MLOAD DUP4 DUP7 DUP3 ADD ADD DUP6 DUP4 NOT DUP3 MLOAD AND OR DUP2 MSTORE DUP2 MLOAD DUP6 DUP9 ADD GT ISZERO PUSH2 0x2603 JUMPI DUP5 DUP8 ADD DUP3 MSTORE JUMPDEST POP POP DUP6 SWAP2 POP POP SWAP5 SWAP4 POP POP POP POP JUMP JUMPDEST PUSH1 0x0 DUP2 DUP4 GT ISZERO PUSH2 0x2623 JUMPI DUP3 SWAP1 POP PUSH2 0x2627 JUMP JUMPDEST DUP2 SWAP1 POP JUMPDEST SWAP3 SWAP2 POP POP JUMP JUMPDEST PUSH1 0x0 DUP3 PUSH1 0x0 ADD MLOAD SWAP1 POP PUSH2 0x2640 DUP4 DUP4 PUSH2 0x1FE5 JUMP JUMPDEST POP PUSH2 0x264B DUP4 DUP3 PUSH2 0x21D4 JUMP JUMPDEST POP POP POP POP JUMP JUMPDEST PUSH1 0x40 MLOAD DUP1 PUSH1 0x60 ADD PUSH1 0x40 MSTORE DUP1 PUSH1 0x0 PUSH4 0xFFFFFFFF AND DUP2 MSTORE PUSH1 0x20 ADD PUSH1 0x0 PUSH1 0xFF AND DUP2 MSTORE PUSH1 0x20 ADD PUSH1 0x0 PUSH1 0xFF AND DUP2 MSTORE POP SWAP1 JUMP JUMPDEST PUSH1 0x40 MLOAD DUP1 PUSH1 0x80 ADD PUSH1 0x40 MSTORE DUP1 PUSH1 0x0 PUSH4 0xFFFFFFFF AND DUP2 MSTORE PUSH1 0x20 ADD PUSH1 0x0 PUSH5 0xFFFFFFFFFF AND DUP2 MSTORE PUSH1 0x20 ADD PUSH1 0x60 DUP2 MSTORE PUSH1 0x20 ADD PUSH1 0x60 DUP2 MSTORE POP SWAP1 JUMP JUMPDEST PUSH1 0x40 MLOAD DUP1 PUSH1 0x80 ADD PUSH1 0x40 MSTORE DUP1 PUSH1 0x0 PUSH4 0xFFFFFFFF AND DUP2 MSTORE PUSH1 0x20 ADD PUSH1 0x0 PUSH1 0xFF AND DUP2 MSTORE PUSH1 0x20 ADD PUSH1 0x0 PUSH1 0xFF AND DUP2 MSTORE PUSH1 0x20 ADD PUSH1 0x60 DUP2 MSTORE POP SWAP1 JUMP JUMPDEST DUP3 DUP1 SLOAD DUP3 DUP3 SSTORE SWAP1 PUSH1 0x0 MSTORE PUSH1 0x20 PUSH1 0x0 KECCAK256 SWAP1 DUP2 ADD SWAP3 DUP3 ISZERO PUSH2 0x272F JUMPI SWAP2 PUSH1 0x20 MUL DUP3 ADD JUMPDEST DUP3 DUP2 GT ISZERO PUSH2 0x272E JUMPI DUP3 MLOAD DUP3 SWAP1 DUP2 PUSH2 0x271E SWAP2 SWAP1 PUSH2 0x4499 JUMP JUMPDEST POP SWAP2 PUSH1 0x20 ADD SWAP2 SWAP1 PUSH1 0x1 ADD SWAP1 PUSH2 0x2707 JUMP JUMPDEST JUMPDEST POP SWAP1 POP PUSH2 0x273C SWAP2 SWAP1 PUSH2 0x27C7 JUMP JUMPDEST POP SWAP1 JUMP JUMPDEST PUSH1 0x40 MLOAD DUP1 PUSH1 0xA0 ADD PUSH1 0x40 MSTORE DUP1 PUSH1 0x0 DUP1 NOT AND DUP2 MSTORE PUSH1 0x20 ADD PUSH1 0x0 PUSH20 0xFFFFFFFFFFFFFFFFFFFFFFFFFFFFFFFFFFFFFFFF AND DUP2 MSTORE PUSH1 0x20 ADD PUSH1 0x0 PUSH28 0xFFFFFFFFFFFFFFFFFFFFFFFFFFFFFFFFFFFFFFFFFFFFFFFFFFFFFFFF NOT AND DUP2 MSTORE PUSH1 0x20 ADD PUSH1 0x0 DUP2 MSTORE PUSH1 0x20 ADD PUSH2 0x27A7 PUSH2 0x27AD JUMP JUMPDEST DUP2 MSTORE POP SWAP1 JUMP JUMPDEST PUSH1 0x40 MLOAD DUP1 PUSH1 0x40 ADD PUSH1 0x40 MSTORE DUP1 PUSH1 0x60 DUP2 MSTORE PUSH1 0x20 ADD PUSH1 0x0 DUP2 MSTORE POP SWAP1 JUMP JUMPDEST JUMPDEST DUP1 DUP3 GT ISZERO PUSH2 0x27E7 JUMPI PUSH1 0x0 DUP2 DUP2 PUSH2 0x27DE SWAP2 SWAP1 PUSH2 0x27EB JUMP JUMPDEST POP PUSH1 0x1 ADD PUSH2 0x27C8 JUMP JUMPDEST POP SWAP1 JUMP JUMPDEST POP DUP1 SLOAD PUSH2 0x27F7 SWAP1 PUSH2 0x39BA JUMP JUMPDEST PUSH1 0x0 DUP3 SSTORE DUP1 PUSH1 0x1F LT PUSH2 0x2809 JUMPI POP PUSH2 0x2828 JUMP JUMPDEST PUSH1 0x1F ADD PUSH1 0x20 SWAP1 DIV SWAP1 PUSH1 0x0 MSTORE PUSH1 0x20 PUSH1 0x0 KECCAK256 SWAP1 DUP2 ADD SWAP1 PUSH2 0x2827 SWAP2 SWAP1 PUSH2 0x282B JUMP JUMPDEST JUMPDEST POP JUMP JUMPDEST JUMPDEST DUP1 DUP3 GT ISZERO PUSH2 0x2844 JUMPI PUSH1 0x0 DUP2 PUSH1 0x0 SWAP1 SSTORE POP PUSH1 0x1 ADD PUSH2 0x282C JUMP JUMPDEST POP SWAP1 JUMP JUMPDEST PUSH1 0x0 PUSH1 0x40 MLOAD SWAP1 POP SWAP1 JUMP JUMPDEST PUSH1 0x0 DUP1 REVERT JUMPDEST PUSH1 0x0 DUP1 REVERT JUMPDEST PUSH1 0x0 DUP2 SWAP1 POP SWAP2 SWAP1 POP JUMP JUMPDEST PUSH2 0x286F DUP2 PUSH2 0x285C JUMP JUMPDEST DUP2 EQ PUSH2 0x287A JUMPI PUSH1 0x0 DUP1 REVERT JUMPDEST POP JUMP JUMPDEST PUSH1 0x0 DUP2 CALLDATALOAD SWAP1 POP PUSH2 0x288C DUP2 PUSH2 0x2866 JUMP JUMPDEST SWAP3 SWAP2 POP POP JUMP JUMPDEST PUSH1 0x0 PUSH20 0xFFFFFFFFFFFFFFFFFFFFFFFFFFFFFFFFFFFFFFFF DUP3 AND SWAP1 POP SWAP2 SWAP1 POP JUMP JUMPDEST PUSH1 0x0 PUSH2 0x28BD DUP3 PUSH2 0x2892 JUMP JUMPDEST SWAP1 POP SWAP2 SWAP1 POP JUMP JUMPDEST PUSH2 0x28CD DUP2 PUSH2 0x28B2 JUMP JUMPDEST DUP2 EQ PUSH2 0x28D8 JUMPI PUSH1 0x0 DUP1 REVERT JUMPDEST POP JUMP JUMPDEST PUSH1 0x0 DUP2 CALLDATALOAD SWAP1 POP PUSH2 0x28EA DUP2 PUSH2 0x28C4 JUMP JUMPDEST SWAP3 SWAP2 POP POP JUMP JUMPDEST PUSH1 0x0 DUP1 PUSH1 0x40 DUP4 DUP6 SUB SLT ISZERO PUSH2 0x2907 JUMPI PUSH2 0x2906 PUSH2 0x2852 JUMP JUMPDEST JUMPDEST PUSH1 0x0 PUSH2 0x2915 DUP6 DUP3 DUP7 ADD PUSH2 0x287D JUMP JUMPDEST SWAP3 POP POP PUSH1 0x20 PUSH2 0x2926 DUP6 DUP3 DUP7 ADD PUSH2 0x28DB JUMP JUMPDEST SWAP2 POP POP SWAP3 POP SWAP3 SWAP1 POP JUMP JUMPDEST PUSH1 0x0 DUP2 MLOAD SWAP1 POP SWAP2 SWAP1 POP JUMP JUMPDEST PUSH1 0x0 DUP3 DUP3 MSTORE PUSH1 0x20 DUP3 ADD SWAP1 POP SWAP3 SWAP2 POP POP JUMP JUMPDEST PUSH1 0x0 DUP2 SWAP1 POP PUSH1 0x20 DUP3 ADD SWAP1 POP SWAP2 SWAP1 POP JUMP JUMPDEST PUSH1 0x0 PUSH4 0xFFFFFFFF DUP3 AND SWAP1 POP SWAP2 SWAP1 POP JUMP JUMPDEST PUSH2 0x2975 DUP2 PUSH2 0x295C JUMP JUMPDEST DUP3 MSTORE POP POP JUMP JUMPDEST PUSH1 0x0 PUSH1 0xFF DUP3 AND SWAP1 POP SWAP2 SWAP1 POP JUMP JUMPDEST PUSH2 0x2991 DUP2 PUSH2 0x297B JUMP JUMPDEST DUP3 MSTORE POP POP JUMP JUMPDEST PUSH1 0x60 DUP3 ADD PUSH1 0x0 DUP3 ADD MLOAD PUSH2 0x29AD PUSH1 0x0 DUP6 ADD DUP3 PUSH2 0x296C JUMP JUMPDEST POP PUSH1 0x20 DUP3 ADD MLOAD PUSH2 0x29C0 PUSH1 0x20 DUP6 ADD DUP3 PUSH2 0x2988 JUMP JUMPDEST POP PUSH1 0x40 DUP3 ADD MLOAD PUSH2 0x29D3 PUSH1 0x40 DUP6 ADD DUP3 PUSH2 0x2988 JUMP JUMPDEST POP POP POP POP JUMP JUMPDEST PUSH1 0x0 PUSH2 0x29E5 DUP4 DUP4 PUSH2 0x2997 JUMP JUMPDEST PUSH1 0x60 DUP4 ADD SWAP1 POP SWAP3 SWAP2 POP POP JUMP JUMPDEST PUSH1 0x0 PUSH1 0x20 DUP3 ADD SWAP1 POP SWAP2 SWAP1 POP JUMP JUMPDEST PUSH1 0x0 PUSH2 0x2A09 DUP3 PUSH2 0x2930 JUMP JUMPDEST PUSH2 0x2A13 DUP2 DUP6 PUSH2 0x293B JUMP JUMPDEST SWAP4 POP PUSH2 0x2A1E DUP4 PUSH2 0x294C JUMP JUMPDEST DUP1 PUSH1 0x0 JUMPDEST DUP4 DUP2 LT ISZERO PUSH2 0x2A4F JUMPI DUP2 MLOAD PUSH2 0x2A36 DUP9 DUP3 PUSH2 0x29D9 JUMP JUMPDEST SWAP8 POP PUSH2 0x2A41 DUP4 PUSH2 0x29F1 JUMP JUMPDEST SWAP3 POP POP PUSH1 0x1 DUP2 ADD SWAP1 POP PUSH2 0x2A22 JUMP JUMPDEST POP DUP6 SWAP4 POP POP POP POP SWAP3 SWAP2 POP POP JUMP JUMPDEST PUSH1 0x0 PUSH1 0x20 DUP3 ADD SWAP1 POP DUP2 DUP2 SUB PUSH1 0x0 DUP4 ADD MSTORE PUSH2 0x2A76 DUP2 DUP5 PUSH2 0x29FE JUMP JUMPDEST SWAP1 POP SWAP3 SWAP2 POP POP JUMP JUMPDEST PUSH1 0x0 PUSH1 0x20 DUP3 DUP5 SUB SLT ISZERO PUSH2 0x2A94 JUMPI PUSH2 0x2A93 PUSH2 0x2852 JUMP JUMPDEST JUMPDEST PUSH1 0x0 PUSH2 0x2AA2 DUP5 DUP3 DUP6 ADD PUSH2 0x287D JUMP JUMPDEST SWAP2 POP POP SWAP3 SWAP2 POP POP JUMP JUMPDEST PUSH1 0x0 DUP2 MLOAD SWAP1 POP SWAP2 SWAP1 POP JUMP JUMPDEST PUSH1 0x0 DUP3 DUP3 MSTORE PUSH1 0x20 DUP3 ADD SWAP1 POP SWAP3 SWAP2 POP POP JUMP JUMPDEST PUSH1 0x0 DUP2 SWAP1 POP PUSH1 0x20 DUP3 ADD SWAP1 POP SWAP2 SWAP1 POP JUMP JUMPDEST PUSH1 0x0 DUP2 SWAP1 POP SWAP2 SWAP1 POP JUMP JUMPDEST PUSH2 0x2AEA DUP2 PUSH2 0x2AD7 JUMP JUMPDEST DUP3 MSTORE POP POP JUMP JUMPDEST PUSH1 0x0 PUSH2 0x2AFC DUP4 DUP4 PUSH2 0x2AE1 JUMP JUMPDEST PUSH1 0x20 DUP4 ADD SWAP1 POP SWAP3 SWAP2 POP POP JUMP JUMPDEST PUSH1 0x0 PUSH1 0x20 DUP3 ADD SWAP1 POP SWAP2 SWAP1 POP JUMP JUMPDEST PUSH1 0x0 PUSH2 0x2B20 DUP3 PUSH2 0x2AAB JUMP JUMPDEST PUSH2 0x2B2A DUP2 DUP6 PUSH2 0x2AB6 JUMP JUMPDEST SWAP4 POP PUSH2 0x2B35 DUP4 PUSH2 0x2AC7 JUMP JUMPDEST DUP1 PUSH1 0x0 JUMPDEST DUP4 DUP2 LT ISZERO PUSH2 0x2B66 JUMPI DUP2 MLOAD PUSH2 0x2B4D DUP9 DUP3 PUSH2 0x2AF0 JUMP JUMPDEST SWAP8 POP PUSH2 0x2B58 DUP4 PUSH2 0x2B08 JUMP JUMPDEST SWAP3 POP POP PUSH1 0x1 DUP2 ADD SWAP1 POP PUSH2 0x2B39 JUMP JUMPDEST POP DUP6 SWAP4 POP POP POP POP SWAP3 SWAP2 POP POP JUMP JUMPDEST PUSH1 0x0 PUSH1 0x20 DUP3 ADD SWAP1 POP DUP2 DUP2 SUB PUSH1 0x0 DUP4 ADD MSTORE PUSH2 0x2B8D DUP2 DUP5 PUSH2 0x2B15 JUMP JUMPDEST SWAP1 POP SWAP3 SWAP2 POP POP JUMP JUMPDEST PUSH2 0x2B9E DUP2 PUSH2 0x285C JUMP JUMPDEST DUP3 MSTORE POP POP JUMP JUMPDEST PUSH1 0x0 PUSH1 0x20 DUP3 ADD SWAP1 POP PUSH2 0x2BB9 PUSH1 0x0 DUP4 ADD DUP5 PUSH2 0x2B95 JUMP JUMPDEST SWAP3 SWAP2 POP POP JUMP JUMPDEST PUSH1 0x0 PUSH1 0x40 DUP3 ADD SWAP1 POP PUSH2 0x2BD4 PUSH1 0x0 DUP4 ADD DUP6 PUSH2 0x2B95 JUMP JUMPDEST PUSH2 0x2BE1 PUSH1 0x20 DUP4 ADD DUP5 PUSH2 0x2B95 JUMP JUMPDEST SWAP4 SWAP3 POP POP POP JUMP JUMPDEST PUSH1 0x0 PUSH2 0x2BF3 DUP3 PUSH2 0x2892 JUMP JUMPDEST SWAP1 POP SWAP2 SWAP1 POP JUMP JUMPDEST PUSH2 0x2C03 DUP2 PUSH2 0x2BE8 JUMP JUMPDEST DUP2 EQ PUSH2 0x2C0E JUMPI PUSH1 0x0 DUP1 REVERT JUMPDEST POP JUMP JUMPDEST PUSH1 0x0 DUP2 CALLDATALOAD SWAP1 POP PUSH2 0x2C20 DUP2 PUSH2 0x2BFA JUMP JUMPDEST SWAP3 SWAP2 POP POP JUMP JUMPDEST PUSH1 0x0 DUP1 PUSH1 0x40 DUP4 DUP6 SUB SLT ISZERO PUSH2 0x2C3D JUMPI PUSH2 0x2C3C PUSH2 0x2852 JUMP JUMPDEST JUMPDEST PUSH1 0x0 PUSH2 0x2C4B DUP6 DUP3 DUP7 ADD PUSH2 0x2C11 JUMP JUMPDEST SWAP3 POP POP PUSH1 0x20 PUSH2 0x2C5C DUP6 DUP3 DUP7 ADD PUSH2 0x287D JUMP JUMPDEST SWAP2 POP POP SWAP3 POP SWAP3 SWAP1 POP JUMP JUMPDEST PUSH1 0x0 DUP1 PUSH1 0x0 PUSH1 0x60 DUP5 DUP7 SUB SLT ISZERO PUSH2 0x2C7F JUMPI PUSH2 0x2C7E PUSH2 0x2852 JUMP JUMPDEST JUMPDEST PUSH1 0x0 PUSH2 0x2C8D DUP7 DUP3 DUP8 ADD PUSH2 0x287D JUMP JUMPDEST SWAP4 POP POP PUSH1 0x20 PUSH2 0x2C9E DUP7 DUP3 DUP8 ADD PUSH2 0x287D JUMP JUMPDEST SWAP3 POP POP PUSH1 0x40 PUSH2 0x2CAF DUP7 DUP3 DUP8 ADD PUSH2 0x287D JUMP JUMPDEST SWAP2 POP POP SWAP3 POP SWAP3 POP SWAP3 JUMP JUMPDEST PUSH2 0x2CC2 DUP2 PUSH2 0x2AD7 JUMP JUMPDEST DUP3 MSTORE POP POP JUMP JUMPDEST PUSH1 0x0 PUSH1 0x20 DUP3 ADD SWAP1 POP PUSH2 0x2CDD PUSH1 0x0 DUP4 ADD DUP5 PUSH2 0x2CB9 JUMP JUMPDEST SWAP3 SWAP2 POP POP JUMP JUMPDEST PUSH1 0x0 DUP1 PUSH1 0x40 DUP4 DUP6 SUB SLT ISZERO PUSH2 0x2CFA JUMPI PUSH2 0x2CF9 PUSH2 0x2852 JUMP JUMPDEST JUMPDEST PUSH1 0x0 PUSH2 0x2D08 DUP6 DUP3 DUP7 ADD PUSH2 0x287D JUMP JUMPDEST SWAP3 POP POP PUSH1 0x20 PUSH2 0x2D19 DUP6 DUP3 DUP7 ADD PUSH2 0x287D JUMP JUMPDEST SWAP2 POP POP SWAP3 POP SWAP3 SWAP1 POP JUMP JUMPDEST PUSH1 0x0 DUP1 REVERT JUMPDEST PUSH1 0x0 PUSH1 0x1F NOT PUSH1 0x1F DUP4 ADD AND SWAP1 POP SWAP2 SWAP1 POP JUMP JUMPDEST PUSH32 0x4E487B7100000000000000000000000000000000000000000000000000000000 PUSH1 0x0 MSTORE PUSH1 0x41 PUSH1 0x4 MSTORE PUSH1 0x24 PUSH1 0x0 REVERT JUMPDEST PUSH2 0x2D71 DUP3 PUSH2 0x2D28 JUMP JUMPDEST DUP2 ADD DUP2 DUP2 LT PUSH8 0xFFFFFFFFFFFFFFFF DUP3 GT OR ISZERO PUSH2 0x2D90 JUMPI PUSH2 0x2D8F PUSH2 0x2D39 JUMP JUMPDEST JUMPDEST DUP1 PUSH1 0x40 MSTORE POP POP POP JUMP JUMPDEST PUSH1 0x0 PUSH2 0x2DA3 PUSH2 0x2848 JUMP JUMPDEST SWAP1 POP PUSH2 0x2DAF DUP3 DUP3 PUSH2 0x2D68 JUMP JUMPDEST SWAP2 SWAP1 POP JUMP JUMPDEST PUSH1 0x0 PUSH8 0xFFFFFFFFFFFFFFFF DUP3 GT ISZERO PUSH2 0x2DCF JUMPI PUSH2 0x2DCE PUSH2 0x2D39 JUMP JUMPDEST JUMPDEST PUSH1 0x20 DUP3 MUL SWAP1 POP PUSH1 0x20 DUP2 ADD SWAP1 POP SWAP2 SWAP1 POP JUMP JUMPDEST PUSH1 0x0 DUP1 REVERT JUMPDEST PUSH1 0x0 PUSH2 0x2DF8 PUSH2 0x2DF3 DUP5 PUSH2 0x2DB4 JUMP JUMPDEST PUSH2 0x2D99 JUMP JUMPDEST SWAP1 POP DUP1 DUP4 DUP3 MSTORE PUSH1 0x20 DUP3 ADD SWAP1 POP PUSH1 0x20 DUP5 MUL DUP4 ADD DUP6 DUP2 GT ISZERO PUSH2 0x2E1B JUMPI PUSH2 0x2E1A PUSH2 0x2DE0 JUMP JUMPDEST JUMPDEST DUP4 JUMPDEST DUP2 DUP2 LT ISZERO PUSH2 0x2E44 JUMPI DUP1 PUSH2 0x2E30 DUP9 DUP3 PUSH2 0x287D JUMP JUMPDEST DUP5 MSTORE PUSH1 0x20 DUP5 ADD SWAP4 POP POP PUSH1 0x20 DUP2 ADD SWAP1 POP PUSH2 0x2E1D JUMP JUMPDEST POP POP POP SWAP4 SWAP3 POP POP POP JUMP JUMPDEST PUSH1 0x0 DUP3 PUSH1 0x1F DUP4 ADD SLT PUSH2 0x2E63 JUMPI PUSH2 0x2E62 PUSH2 0x2D23 JUMP JUMPDEST JUMPDEST DUP2 CALLDATALOAD PUSH2 0x2E73 DUP5 DUP3 PUSH1 0x20 DUP7 ADD PUSH2 0x2DE5 JUMP JUMPDEST SWAP2 POP POP SWAP3 SWAP2 POP POP JUMP JUMPDEST PUSH1 0x0 DUP1 PUSH1 0x0 PUSH1 0x60 DUP5 DUP7 SUB SLT ISZERO PUSH2 0x2E95 JUMPI PUSH2 0x2E94 PUSH2 0x2852 JUMP JUMPDEST JUMPDEST PUSH1 0x0 PUSH2 0x2EA3 DUP7 DUP3 DUP8 ADD PUSH2 0x287D JUMP JUMPDEST SWAP4 POP POP PUSH1 0x20 DUP5 ADD CALLDATALOAD PUSH8 0xFFFFFFFFFFFFFFFF DUP2 GT ISZERO PUSH2 0x2EC4 JUMPI PUSH2 0x2EC3 PUSH2 0x2857 JUMP JUMPDEST JUMPDEST PUSH2 0x2ED0 DUP7 DUP3 DUP8 ADD PUSH2 0x2E4E JUMP JUMPDEST SWAP3 POP POP PUSH1 0x40 PUSH2 0x2EE1 DUP7 DUP3 DUP8 ADD PUSH2 0x287D JUMP JUMPDEST SWAP2 POP POP SWAP3 POP SWAP3 POP SWAP3 JUMP JUMPDEST PUSH1 0x0 DUP2 MLOAD SWAP1 POP SWAP2 SWAP1 POP JUMP JUMPDEST PUSH1 0x0 DUP3 DUP3 MSTORE PUSH1 0x20 DUP3 ADD SWAP1 POP SWAP3 SWAP2 POP POP JUMP JUMPDEST PUSH1 0x0 DUP2 SWAP1 POP PUSH1 0x20 DUP3 ADD SWAP1 POP SWAP2 SWAP1 POP JUMP JUMPDEST PUSH1 0x0 PUSH5 0xFFFFFFFFFF DUP3 AND SWAP1 POP SWAP2 SWAP1 POP JUMP JUMPDEST PUSH2 0x2F31 DUP2 PUSH2 0x2F17 JUMP JUMPDEST DUP3 MSTORE POP POP JUMP JUMPDEST PUSH1 0x0 DUP2 MLOAD SWAP1 POP SWAP2 SWAP1 POP JUMP JUMPDEST PUSH1 0x0 DUP3 DUP3 MSTORE PUSH1 0x20 DUP3 ADD SWAP1 POP SWAP3 SWAP2 POP POP JUMP JUMPDEST PUSH1 0x0 JUMPDEST DUP4 DUP2 LT ISZERO PUSH2 0x2F71 JUMPI DUP1 DUP3 ADD MLOAD DUP2 DUP5 ADD MSTORE PUSH1 0x20 DUP2 ADD SWAP1 POP PUSH2 0x2F56 JUMP JUMPDEST DUP4 DUP2 GT ISZERO PUSH2 0x2F80 JUMPI PUSH1 0x0 DUP5 DUP5 ADD MSTORE JUMPDEST POP POP POP POP JUMP JUMPDEST PUSH1 0x0 PUSH2 0x2F91 DUP3 PUSH2 0x2F37 JUMP JUMPDEST PUSH2 0x2F9B DUP2 DUP6 PUSH2 0x2F42 JUMP JUMPDEST SWAP4 POP PUSH2 0x2FAB DUP2 DUP6 PUSH1 0x20 DUP7 ADD PUSH2 0x2F53 JUMP JUMPDEST PUSH2 0x2FB4 DUP2 PUSH2 0x2D28 JUMP JUMPDEST DUP5 ADD SWAP2 POP POP SWAP3 SWAP2 POP POP JUMP JUMPDEST PUSH1 0x0 PUSH1 0x80 DUP4 ADD PUSH1 0x0 DUP4 ADD MLOAD PUSH2 0x2FD7 PUSH1 0x0 DUP7 ADD DUP3 PUSH2 0x296C JUMP JUMPDEST POP PUSH1 0x20 DUP4 ADD MLOAD PUSH2 0x2FEA PUSH1 0x20 DUP7 ADD DUP3 PUSH2 0x2F28 JUMP JUMPDEST POP PUSH1 0x40 DUP4 ADD MLOAD DUP5 DUP3 SUB PUSH1 0x40 DUP7 ADD MSTORE PUSH2 0x3002 DUP3 DUP3 PUSH2 0x2F86 JUMP JUMPDEST SWAP2 POP POP PUSH1 0x60 DUP4 ADD MLOAD DUP5 DUP3 SUB PUSH1 0x60 DUP7 ADD MSTORE PUSH2 0x301C DUP3 DUP3 PUSH2 0x2F86 JUMP JUMPDEST SWAP2 POP POP DUP1 SWAP2 POP POP SWAP3 SWAP2 POP POP JUMP JUMPDEST PUSH1 0x0 PUSH2 0x3035 DUP4 DUP4 PUSH2 0x2FBF JUMP JUMPDEST SWAP1 POP SWAP3 SWAP2 POP POP JUMP JUMPDEST PUSH1 0x0 PUSH1 0x20 DUP3 ADD SWAP1 POP SWAP2 SWAP1 POP JUMP JUMPDEST PUSH1 0x0 PUSH2 0x3055 DUP3 PUSH2 0x2EEB JUMP JUMPDEST PUSH2 0x305F DUP2 DUP6 PUSH2 0x2EF6 JUMP JUMPDEST SWAP4 POP DUP4 PUSH1 0x20 DUP3 MUL DUP6 ADD PUSH2 0x3071 DUP6 PUSH2 0x2F07 JUMP JUMPDEST DUP1 PUSH1 0x0 JUMPDEST DUP6 DUP2 LT ISZERO PUSH2 0x30AD JUMPI DUP5 DUP5 SUB DUP10 MSTORE DUP2 MLOAD PUSH2 0x308E DUP6 DUP3 PUSH2 0x3029 JUMP JUMPDEST SWAP5 POP PUSH2 0x3099 DUP4 PUSH2 0x303D JUMP JUMPDEST SWAP3 POP PUSH1 0x20 DUP11 ADD SWAP10 POP POP PUSH1 0x1 DUP2 ADD SWAP1 POP PUSH2 0x3075 JUMP JUMPDEST POP DUP3 SWAP8 POP DUP8 SWAP6 POP POP POP POP POP POP SWAP3 SWAP2 POP POP JUMP JUMPDEST PUSH1 0x0 PUSH1 0x20 DUP3 ADD SWAP1 POP DUP2 DUP2 SUB PUSH1 0x0 DUP4 ADD MSTORE PUSH2 0x30D9 DUP2 DUP5 PUSH2 0x304A JUMP JUMPDEST SWAP1 POP SWAP3 SWAP2 POP POP JUMP JUMPDEST PUSH2 0x30EA DUP2 PUSH2 0x28B2 JUMP JUMPDEST DUP3 MSTORE POP POP JUMP JUMPDEST PUSH1 0x0 PUSH1 0x20 DUP3 ADD SWAP1 POP PUSH2 0x3105 PUSH1 0x0 DUP4 ADD DUP5 PUSH2 0x30E1 JUMP JUMPDEST SWAP3 SWAP2 POP POP JUMP JUMPDEST PUSH2 0x3114 DUP2 PUSH2 0x2AD7 JUMP JUMPDEST DUP2 EQ PUSH2 0x311F JUMPI PUSH1 0x0 DUP1 REVERT JUMPDEST POP JUMP JUMPDEST PUSH1 0x0 DUP2 CALLDATALOAD SWAP1 POP PUSH2 0x3131 DUP2 PUSH2 0x310B JUMP JUMPDEST SWAP3 SWAP2 POP POP JUMP JUMPDEST PUSH1 0x0 PUSH8 0xFFFFFFFFFFFFFFFF DUP3 GT ISZERO PUSH2 0x3152 JUMPI PUSH2 0x3151 PUSH2 0x2D39 JUMP JUMPDEST JUMPDEST PUSH1 0x20 DUP3 MUL SWAP1 POP PUSH1 0x20 DUP2 ADD SWAP1 POP SWAP2 SWAP1 POP JUMP JUMPDEST PUSH1 0x0 DUP1 REVERT JUMPDEST PUSH1 0x0 PUSH8 0xFFFFFFFFFFFFFFFF DUP3 GT ISZERO PUSH2 0x3183 JUMPI PUSH2 0x3182 PUSH2 0x2D39 JUMP JUMPDEST JUMPDEST PUSH2 0x318C DUP3 PUSH2 0x2D28 JUMP JUMPDEST SWAP1 POP PUSH1 0x20 DUP2 ADD SWAP1 POP SWAP2 SWAP1 POP JUMP JUMPDEST DUP3 DUP2 DUP4 CALLDATACOPY PUSH1 0x0 DUP4 DUP4 ADD MSTORE POP POP POP JUMP JUMPDEST PUSH1 0x0 PUSH2 0x31BB PUSH2 0x31B6 DUP5 PUSH2 0x3168 JUMP JUMPDEST PUSH2 0x2D99 JUMP JUMPDEST SWAP1 POP DUP3 DUP2 MSTORE PUSH1 0x20 DUP2 ADD DUP5 DUP5 DUP5 ADD GT ISZERO PUSH2 0x31D7 JUMPI PUSH2 0x31D6 PUSH2 0x3163 JUMP JUMPDEST JUMPDEST PUSH2 0x31E2 DUP5 DUP3 DUP6 PUSH2 0x3199 JUMP JUMPDEST POP SWAP4 SWAP3 POP POP POP JUMP JUMPDEST PUSH1 0x0 DUP3 PUSH1 0x1F DUP4 ADD SLT PUSH2 0x31FF JUMPI PUSH2 0x31FE PUSH2 0x2D23 JUMP JUMPDEST JUMPDEST DUP2 CALLDATALOAD PUSH2 0x320F DUP5 DUP3 PUSH1 0x20 DUP7 ADD PUSH2 0x31A8 JUMP JUMPDEST SWAP2 POP POP SWAP3 SWAP2 POP POP JUMP JUMPDEST PUSH1 0x0 PUSH2 0x322B PUSH2 0x3226 DUP5 PUSH2 0x3137 JUMP JUMPDEST PUSH2 0x2D99 JUMP JUMPDEST SWAP1 POP DUP1 DUP4 DUP3 MSTORE PUSH1 0x20 DUP3 ADD SWAP1 POP PUSH1 0x20 DUP5 MUL DUP4 ADD DUP6 DUP2 GT ISZERO PUSH2 0x324E JUMPI PUSH2 0x324D PUSH2 0x2DE0 JUMP JUMPDEST JUMPDEST DUP4 JUMPDEST DUP2 DUP2 LT ISZERO PUSH2 0x3295 JUMPI DUP1 CALLDATALOAD PUSH8 0xFFFFFFFFFFFFFFFF DUP2 GT ISZERO PUSH2 0x3273 JUMPI PUSH2 0x3272 PUSH2 0x2D23 JUMP JUMPDEST JUMPDEST DUP1 DUP7 ADD PUSH2 0x3280 DUP10 DUP3 PUSH2 0x31EA JUMP JUMPDEST DUP6 MSTORE PUSH1 0x20 DUP6 ADD SWAP5 POP POP POP PUSH1 0x20 DUP2 ADD SWAP1 POP PUSH2 0x3250 JUMP JUMPDEST POP POP POP SWAP4 SWAP3 POP POP POP JUMP JUMPDEST PUSH1 0x0 DUP3 PUSH1 0x1F DUP4 ADD SLT PUSH2 0x32B4 JUMPI PUSH2 0x32B3 PUSH2 0x2D23 JUMP JUMPDEST JUMPDEST DUP2 CALLDATALOAD PUSH2 0x32C4 DUP5 DUP3 PUSH1 0x20 DUP7 ADD PUSH2 0x3218 JUMP JUMPDEST SWAP2 POP POP SWAP3 SWAP2 POP POP JUMP JUMPDEST PUSH1 0x0 DUP1 PUSH1 0x40 DUP4 DUP6 SUB SLT ISZERO PUSH2 0x32E4 JUMPI PUSH2 0x32E3 PUSH2 0x2852 JUMP JUMPDEST JUMPDEST PUSH1 0x0 PUSH2 0x32F2 DUP6 DUP3 DUP7 ADD PUSH2 0x3122 JUMP JUMPDEST SWAP3 POP POP PUSH1 0x20 DUP4 ADD CALLDATALOAD PUSH8 0xFFFFFFFFFFFFFFFF DUP2 GT ISZERO PUSH2 0x3313 JUMPI PUSH2 0x3312 PUSH2 0x2857 JUMP JUMPDEST JUMPDEST PUSH2 0x331F DUP6 DUP3 DUP7 ADD PUSH2 0x329F JUMP JUMPDEST SWAP2 POP POP SWAP3 POP SWAP3 SWAP1 POP JUMP JUMPDEST PUSH1 0x0 PUSH8 0xFFFFFFFFFFFFFFFF DUP3 GT ISZERO PUSH2 0x3344 JUMPI PUSH2 0x3343 PUSH2 0x2D39 JUMP JUMPDEST JUMPDEST PUSH1 0x20 DUP3 MUL SWAP1 POP PUSH1 0x20 DUP2 ADD SWAP1 POP SWAP2 SWAP1 POP JUMP JUMPDEST PUSH1 0x0 DUP1 REVERT JUMPDEST PUSH2 0x3363 DUP2 PUSH2 0x295C JUMP JUMPDEST DUP2 EQ PUSH2 0x336E JUMPI PUSH1 0x0 DUP1 REVERT JUMPDEST POP JUMP JUMPDEST PUSH1 0x0 DUP2 CALLDATALOAD SWAP1 POP PUSH2 0x3380 DUP2 PUSH2 0x335A JUMP JUMPDEST SWAP3 SWAP2 POP POP JUMP JUMPDEST PUSH2 0x338F DUP2 PUSH2 0x297B JUMP JUMPDEST DUP2 EQ PUSH2 0x339A JUMPI PUSH1 0x0 DUP1 REVERT JUMPDEST POP JUMP JUMPDEST PUSH1 0x0 DUP2 CALLDATALOAD SWAP1 POP PUSH2 0x33AC DUP2 PUSH2 0x3386 JUMP JUMPDEST SWAP3 SWAP2 POP POP JUMP JUMPDEST PUSH1 0x0 PUSH1 0x60 DUP3 DUP5 SUB SLT ISZERO PUSH2 0x33C8 JUMPI PUSH2 0x33C7 PUSH2 0x3355 JUMP JUMPDEST JUMPDEST PUSH2 0x33D2 PUSH1 0x60 PUSH2 0x2D99 JUMP JUMPDEST SWAP1 POP PUSH1 0x0 PUSH2 0x33E2 DUP5 DUP3 DUP6 ADD PUSH2 0x3371 JUMP JUMPDEST PUSH1 0x0 DUP4 ADD MSTORE POP PUSH1 0x20 PUSH2 0x33F6 DUP5 DUP3 DUP6 ADD PUSH2 0x339D JUMP JUMPDEST PUSH1 0x20 DUP4 ADD MSTORE POP PUSH1 0x40 PUSH2 0x340A DUP5 DUP3 DUP6 ADD PUSH2 0x339D JUMP JUMPDEST PUSH1 0x40 DUP4 ADD MSTORE POP SWAP3 SWAP2 POP POP JUMP JUMPDEST PUSH1 0x0 PUSH2 0x3429 PUSH2 0x3424 DUP5 PUSH2 0x3329 JUMP JUMPDEST PUSH2 0x2D99 JUMP JUMPDEST SWAP1 POP DUP1 DUP4 DUP3 MSTORE PUSH1 0x20 DUP3 ADD SWAP1 POP PUSH1 0x60 DUP5 MUL DUP4 ADD DUP6 DUP2 GT ISZERO PUSH2 0x344C JUMPI PUSH2 0x344B PUSH2 0x2DE0 JUMP JUMPDEST JUMPDEST DUP4 JUMPDEST DUP2 DUP2 LT ISZERO PUSH2 0x3475 JUMPI DUP1 PUSH2 0x3461 DUP9 DUP3 PUSH2 0x33B2 JUMP JUMPDEST DUP5 MSTORE PUSH1 0x20 DUP5 ADD SWAP4 POP POP PUSH1 0x60 DUP2 ADD SWAP1 POP PUSH2 0x344E JUMP JUMPDEST POP POP POP SWAP4 SWAP3 POP POP POP JUMP JUMPDEST PUSH1 0x0 DUP3 PUSH1 0x1F DUP4 ADD SLT PUSH2 0x3494 JUMPI PUSH2 0x3493 PUSH2 0x2D23 JUMP JUMPDEST JUMPDEST DUP2 CALLDATALOAD PUSH2 0x34A4 DUP5 DUP3 PUSH1 0x20 DUP7 ADD PUSH2 0x3416 JUMP JUMPDEST SWAP2 POP POP SWAP3 SWAP2 POP POP JUMP JUMPDEST PUSH1 0x0 PUSH1 0x20 DUP3 DUP5 SUB SLT ISZERO PUSH2 0x34C3 JUMPI PUSH2 0x34C2 PUSH2 0x2852 JUMP JUMPDEST JUMPDEST PUSH1 0x0 DUP3 ADD CALLDATALOAD PUSH8 0xFFFFFFFFFFFFFFFF DUP2 GT ISZERO PUSH2 0x34E1 JUMPI PUSH2 0x34E0 PUSH2 0x2857 JUMP JUMPDEST JUMPDEST PUSH2 0x34ED DUP5 DUP3 DUP6 ADD PUSH2 0x347F JUMP JUMPDEST SWAP2 POP POP SWAP3 SWAP2 POP POP JUMP JUMPDEST PUSH1 0x0 DUP1 PUSH1 0x40 DUP4 DUP6 SUB SLT ISZERO PUSH2 0x350D JUMPI PUSH2 0x350C PUSH2 0x2852 JUMP JUMPDEST JUMPDEST PUSH1 0x0 PUSH2 0x351B DUP6 DUP3 DUP7 ADD PUSH2 0x3122 JUMP JUMPDEST SWAP3 POP POP PUSH1 0x20 PUSH2 0x352C DUP6 DUP3 DUP7 ADD PUSH2 0x287D JUMP JUMPDEST SWAP2 POP POP SWAP3 POP SWAP3 SWAP1 POP JUMP JUMPDEST PUSH1 0x0 PUSH1 0x80 DUP4 ADD PUSH1 0x0 DUP4 ADD MLOAD PUSH2 0x354E PUSH1 0x0 DUP7 ADD DUP3 PUSH2 0x296C JUMP JUMPDEST POP PUSH1 0x20 DUP4 ADD MLOAD PUSH2 0x3561 PUSH1 0x20 DUP7 ADD DUP3 PUSH2 0x2988 JUMP JUMPDEST POP PUSH1 0x40 DUP4 ADD MLOAD PUSH2 0x3574 PUSH1 0x40 DUP7 ADD DUP3 PUSH2 0x2988 JUMP JUMPDEST POP PUSH1 0x60 DUP4 ADD MLOAD DUP5 DUP3 SUB PUSH1 0x60 DUP7 ADD MSTORE PUSH2 0x358C DUP3 DUP3 PUSH2 0x2F86 JUMP JUMPDEST SWAP2 POP POP DUP1 SWAP2 POP POP SWAP3 SWAP2 POP POP JUMP JUMPDEST PUSH1 0x0 PUSH1 0x20 DUP3 ADD SWAP1 POP DUP2 DUP2 SUB PUSH1 0x0 DUP4 ADD MSTORE PUSH2 0x35B3 DUP2 DUP5 PUSH2 0x3536 JUMP JUMPDEST SWAP1 POP SWAP3 SWAP2 POP POP JUMP JUMPDEST PUSH1 0x0 PUSH1 0x80 DUP4 ADD PUSH1 0x0 DUP4 ADD MLOAD PUSH2 0x35D3 PUSH1 0x0 DUP7 ADD DUP3 PUSH2 0x296C JUMP JUMPDEST POP PUSH1 0x20 DUP4 ADD MLOAD PUSH2 0x35E6 PUSH1 0x20 DUP7 ADD DUP3 PUSH2 0x2F28 JUMP JUMPDEST POP PUSH1 0x40 DUP4 ADD MLOAD DUP5 DUP3 SUB PUSH1 0x40 DUP7 ADD MSTORE PUSH2 0x35FE DUP3 DUP3 PUSH2 0x2F86 JUMP JUMPDEST SWAP2 POP POP PUSH1 0x60 DUP4 ADD MLOAD DUP5 DUP3 SUB PUSH1 0x60 DUP7 ADD MSTORE PUSH2 0x3618 DUP3 DUP3 PUSH2 0x2F86 JUMP JUMPDEST SWAP2 POP POP DUP1 SWAP2 POP POP SWAP3 SWAP2 POP POP JUMP JUMPDEST PUSH1 0x0 PUSH1 0x20 DUP3 ADD SWAP1 POP DUP2 DUP2 SUB PUSH1 0x0 DUP4 ADD MSTORE PUSH2 0x363F DUP2 DUP5 PUSH2 0x35BB JUMP JUMPDEST SWAP1 POP SWAP3 SWAP2 POP POP JUMP JUMPDEST PUSH1 0x0 PUSH32 0xFFFFFFFF00000000000000000000000000000000000000000000000000000000 DUP3 AND SWAP1 POP SWAP2 SWAP1 POP JUMP JUMPDEST PUSH2 0x367C DUP2 PUSH2 0x3647 JUMP JUMPDEST DUP2 EQ PUSH2 0x3687 JUMPI PUSH1 0x0 DUP1 REVERT JUMPDEST POP JUMP JUMPDEST PUSH1 0x0 DUP2 CALLDATALOAD SWAP1 POP PUSH2 0x3699 DUP2 PUSH2 0x3673 JUMP JUMPDEST SWAP3 SWAP2 POP POP JUMP JUMPDEST PUSH1 0x0 DUP1 PUSH1 0x0 DUP1 PUSH1 0x80 DUP6 DUP8 SUB SLT ISZERO PUSH2 0x36B9 JUMPI PUSH2 0x36B8 PUSH2 0x2852 JUMP JUMPDEST JUMPDEST PUSH1 0x0 PUSH2 0x36C7 DUP8 DUP3 DUP9 ADD PUSH2 0x3122 JUMP JUMPDEST SWAP5 POP POP PUSH1 0x20 PUSH2 0x36D8 DUP8 DUP3 DUP9 ADD PUSH2 0x287D JUMP JUMPDEST SWAP4 POP POP PUSH1 0x40 PUSH2 0x36E9 DUP8 DUP3 DUP9 ADD PUSH2 0x368A JUMP JUMPDEST SWAP3 POP POP PUSH1 0x60 PUSH2 0x36FA DUP8 DUP3 DUP9 ADD PUSH2 0x287D JUMP JUMPDEST SWAP2 POP POP SWAP3 SWAP6 SWAP2 SWAP5 POP SWAP3 POP JUMP JUMPDEST PUSH1 0x0 PUSH1 0x20 DUP3 DUP5 SUB SLT ISZERO PUSH2 0x371C JUMPI PUSH2 0x371B PUSH2 0x2852 JUMP JUMPDEST JUMPDEST PUSH1 0x0 PUSH2 0x372A DUP5 DUP3 DUP6 ADD PUSH2 0x3122 JUMP JUMPDEST SWAP2 POP POP SWAP3 SWAP2 POP POP JUMP JUMPDEST PUSH1 0x0 PUSH1 0x20 DUP3 DUP5 SUB SLT ISZERO PUSH2 0x3749 JUMPI PUSH2 0x3748 PUSH2 0x2852 JUMP JUMPDEST JUMPDEST PUSH1 0x0 PUSH2 0x3757 DUP5 DUP3 DUP6 ADD PUSH2 0x28DB JUMP JUMPDEST SWAP2 POP POP SWAP3 SWAP2 POP POP JUMP JUMPDEST PUSH32 0x4E487B7100000000000000000000000000000000000000000000000000000000 PUSH1 0x0 MSTORE PUSH1 0x32 PUSH1 0x4 MSTORE PUSH1 0x24 PUSH1 0x0 REVERT JUMPDEST PUSH32 0x4E487B7100000000000000000000000000000000000000000000000000000000 PUSH1 0x0 MSTORE PUSH1 0x11 PUSH1 0x4 MSTORE PUSH1 0x24 PUSH1 0x0 REVERT JUMPDEST PUSH1 0x0 PUSH2 0x37C9 DUP3 PUSH2 0x285C JUMP JUMPDEST SWAP2 POP PUSH32 0xFFFFFFFFFFFFFFFFFFFFFFFFFFFFFFFFFFFFFFFFFFFFFFFFFFFFFFFFFFFFFFFF DUP3 SUB PUSH2 0x37FB JUMPI PUSH2 0x37FA PUSH2 0x378F JUMP JUMPDEST JUMPDEST PUSH1 0x1 DUP3 ADD SWAP1 POP SWAP2 SWAP1 POP JUMP JUMPDEST PUSH1 0x0 PUSH2 0x3811 DUP3 PUSH2 0x285C JUMP JUMPDEST SWAP2 POP PUSH2 0x381C DUP4 PUSH2 0x285C JUMP JUMPDEST SWAP3 POP DUP3 PUSH32 0xFFFFFFFFFFFFFFFFFFFFFFFFFFFFFFFFFFFFFFFFFFFFFFFFFFFFFFFFFFFFFFFF SUB DUP3 GT ISZERO PUSH2 0x3851 JUMPI PUSH2 0x3850 PUSH2 0x378F JUMP JUMPDEST JUMPDEST DUP3 DUP3 ADD SWAP1 POP SWAP3 SWAP2 POP POP JUMP JUMPDEST PUSH1 0x0 DUP2 MLOAD SWAP1 POP PUSH2 0x386B DUP2 PUSH2 0x2866 JUMP JUMPDEST SWAP3 SWAP2 POP POP JUMP JUMPDEST PUSH1 0x0 PUSH1 0x20 DUP3 DUP5 SUB SLT ISZERO PUSH2 0x3887 JUMPI PUSH2 0x3886 PUSH2 0x2852 JUMP JUMPDEST JUMPDEST PUSH1 0x0 PUSH2 0x3895 DUP5 DUP3 DUP6 ADD PUSH2 0x385C JUMP JUMPDEST SWAP2 POP POP SWAP3 SWAP2 POP POP JUMP JUMPDEST PUSH1 0x0 DUP2 SWAP1 POP SWAP2 SWAP1 POP JUMP JUMPDEST PUSH1 0x0 PUSH2 0x38C3 PUSH2 0x38BE PUSH2 0x38B9 DUP5 PUSH2 0x2892 JUMP JUMPDEST PUSH2 0x389E JUMP JUMPDEST PUSH2 0x2892 JUMP JUMPDEST SWAP1 POP SWAP2 SWAP1 POP JUMP JUMPDEST PUSH1 0x0 PUSH2 0x38D5 DUP3 PUSH2 0x38A8 JUMP JUMPDEST SWAP1 POP SWAP2 SWAP1 POP JUMP JUMPDEST PUSH1 0x0 PUSH2 0x38E7 DUP3 PUSH2 0x38CA JUMP JUMPDEST SWAP1 POP SWAP2 SWAP1 POP JUMP JUMPDEST PUSH2 0x38F7 DUP2 PUSH2 0x38DC JUMP JUMPDEST DUP3 MSTORE POP POP JUMP JUMPDEST PUSH1 0x0 PUSH1 0x40 DUP3 ADD SWAP1 POP PUSH2 0x3912 PUSH1 0x0 DUP4 ADD DUP6 PUSH2 0x38EE JUMP JUMPDEST PUSH2 0x391F PUSH1 0x20 DUP4 ADD DUP5 PUSH2 0x2B95 JUMP JUMPDEST SWAP4 SWAP3 POP POP POP JUMP JUMPDEST PUSH1 0x0 DUP2 ISZERO ISZERO SWAP1 POP SWAP2 SWAP1 POP JUMP JUMPDEST PUSH2 0x393B DUP2 PUSH2 0x3926 JUMP JUMPDEST DUP2 EQ PUSH2 0x3946 JUMPI PUSH1 0x0 DUP1 REVERT JUMPDEST POP JUMP JUMPDEST PUSH1 0x0 DUP2 MLOAD SWAP1 POP PUSH2 0x3958 DUP2 PUSH2 0x3932 JUMP JUMPDEST SWAP3 SWAP2 POP POP JUMP JUMPDEST PUSH1 0x0 PUSH1 0x20 DUP3 DUP5 SUB SLT ISZERO PUSH2 0x3974 JUMPI PUSH2 0x3973 PUSH2 0x2852 JUMP JUMPDEST JUMPDEST PUSH1 0x0 PUSH2 0x3982 DUP5 DUP3 DUP6 ADD PUSH2 0x3949 JUMP JUMPDEST SWAP2 POP POP SWAP3 SWAP2 POP POP JUMP JUMPDEST PUSH32 0x4E487B7100000000000000000000000000000000000000000000000000000000 PUSH1 0x0 MSTORE PUSH1 0x22 PUSH1 0x4 MSTORE PUSH1 0x24 PUSH1 0x0 REVERT JUMPDEST PUSH1 0x0 PUSH1 0x2 DUP3 DIV SWAP1 POP PUSH1 0x1 DUP3 AND DUP1 PUSH2 0x39D2 JUMPI PUSH1 0x7F DUP3 AND SWAP2 POP JUMPDEST PUSH1 0x20 DUP3 LT DUP2 SUB PUSH2 0x39E5 JUMPI PUSH2 0x39E4 PUSH2 0x398B JUMP JUMPDEST JUMPDEST POP SWAP2 SWAP1 POP JUMP JUMPDEST PUSH1 0x0 DUP3 DUP3 MSTORE PUSH1 0x20 DUP3 ADD SWAP1 POP SWAP3 SWAP2 POP POP JUMP JUMPDEST PUSH32 0x536F75726365206D75737420626520746865206F7261636C65206F6620746865 PUSH1 0x0 DUP3 ADD MSTORE PUSH32 0x2072657175657374000000000000000000000000000000000000000000000000 PUSH1 0x20 DUP3 ADD MSTORE POP JUMP JUMPDEST PUSH1 0x0 PUSH2 0x3A58 PUSH1 0x28 DUP4 PUSH2 0x39EB JUMP JUMPDEST SWAP2 POP PUSH2 0x3A63 DUP3 PUSH2 0x39FC JUMP JUMPDEST PUSH1 0x40 DUP3 ADD SWAP1 POP SWAP2 SWAP1 POP JUMP JUMPDEST PUSH1 0x0 PUSH1 0x20 DUP3 ADD SWAP1 POP DUP2 DUP2 SUB PUSH1 0x0 DUP4 ADD MSTORE PUSH2 0x3A87 DUP2 PUSH2 0x3A4B JUMP JUMPDEST SWAP1 POP SWAP2 SWAP1 POP JUMP JUMPDEST PUSH32 0x50726564696374696F6E20506572696F6420697320636C6F7365642100000000 PUSH1 0x0 DUP3 ADD MSTORE POP JUMP JUMPDEST PUSH1 0x0 PUSH2 0x3AC4 PUSH1 0x1C DUP4 PUSH2 0x39EB JUMP JUMPDEST SWAP2 POP PUSH2 0x3ACF DUP3 PUSH2 0x3A8E JUMP JUMPDEST PUSH1 0x20 DUP3 ADD SWAP1 POP SWAP2 SWAP1 POP JUMP JUMPDEST PUSH1 0x0 PUSH1 0x20 DUP3 ADD SWAP1 POP DUP2 DUP2 SUB PUSH1 0x0 DUP4 ADD MSTORE PUSH2 0x3AF3 DUP2 PUSH2 0x3AB7 JUMP JUMPDEST SWAP1 POP SWAP2 SWAP1 POP JUMP JUMPDEST PUSH32 0x546865206E756D626572206F662070726564696374696F6E7320646F65736E27 PUSH1 0x0 DUP3 ADD MSTORE PUSH32 0x74206D6174636821000000000000000000000000000000000000000000000000 PUSH1 0x20 DUP3 ADD MSTORE POP JUMP JUMPDEST PUSH1 0x0 PUSH2 0x3B56 PUSH1 0x28 DUP4 PUSH2 0x39EB JUMP JUMPDEST SWAP2 POP PUSH2 0x3B61 DUP3 PUSH2 0x3AFA JUMP JUMPDEST PUSH1 0x40 DUP3 ADD SWAP1 POP SWAP2 SWAP1 POP JUMP JUMPDEST PUSH1 0x0 PUSH1 0x20 DUP3 ADD SWAP1 POP DUP2 DUP2 SUB PUSH1 0x0 DUP4 ADD MSTORE PUSH2 0x3B85 DUP2 PUSH2 0x3B49 JUMP JUMPDEST SWAP1 POP SWAP2 SWAP1 POP JUMP JUMPDEST PUSH32 0x4F776E61626C653A206E6577206F776E657220697320746865207A65726F2061 PUSH1 0x0 DUP3 ADD MSTORE PUSH32 0x6464726573730000000000000000000000000000000000000000000000000000 PUSH1 0x20 DUP3 ADD MSTORE POP JUMP JUMPDEST PUSH1 0x0 PUSH2 0x3BE8 PUSH1 0x26 DUP4 PUSH2 0x39EB JUMP JUMPDEST SWAP2 POP PUSH2 0x3BF3 DUP3 PUSH2 0x3B8C JUMP JUMPDEST PUSH1 0x40 DUP3 ADD SWAP1 POP SWAP2 SWAP1 POP JUMP JUMPDEST PUSH1 0x0 PUSH1 0x20 DUP3 ADD SWAP1 POP DUP2 DUP2 SUB PUSH1 0x0 DUP4 ADD MSTORE PUSH2 0x3C17 DUP2 PUSH2 0x3BDB JUMP JUMPDEST SWAP1 POP SWAP2 SWAP1 POP JUMP JUMPDEST PUSH1 0x0 DUP2 MLOAD SWAP1 POP SWAP2 SWAP1 POP JUMP JUMPDEST PUSH1 0x0 DUP2 SWAP1 POP PUSH1 0x20 DUP3 ADD SWAP1 POP SWAP2 SWAP1 POP JUMP JUMPDEST PUSH1 0x0 PUSH2 0x3C45 DUP3 MLOAD PUSH2 0x3647 JUMP JUMPDEST DUP1 SWAP2 POP POP SWAP2 SWAP1 POP JUMP JUMPDEST PUSH1 0x0 DUP3 DUP3 SHL SWAP1 POP SWAP3 SWAP2 POP POP JUMP JUMPDEST PUSH1 0x0 PUSH2 0x3C66 DUP3 PUSH2 0x3C1E JUMP JUMPDEST DUP3 PUSH2 0x3C70 DUP5 PUSH2 0x3C29 JUMP JUMPDEST SWAP1 POP PUSH2 0x3C7B DUP2 PUSH2 0x3C39 JUMP JUMPDEST SWAP3 POP PUSH1 0x4 DUP3 LT ISZERO PUSH2 0x3CBB JUMPI PUSH2 0x3CB6 PUSH32 0xFFFFFFFF00000000000000000000000000000000000000000000000000000000 DUP4 PUSH1 0x4 SUB PUSH1 0x8 MUL PUSH2 0x3C4E JUMP JUMPDEST DUP4 AND SWAP3 POP JUMPDEST POP POP SWAP2 SWAP1 POP JUMP JUMPDEST PUSH32 0x4F776E61626C653A2063616C6C6572206973206E6F7420746865206F776E6572 PUSH1 0x0 DUP3 ADD MSTORE POP JUMP JUMPDEST PUSH1 0x0 PUSH2 0x3CF8 PUSH1 0x20 DUP4 PUSH2 0x39EB JUMP JUMPDEST SWAP2 POP PUSH2 0x3D03 DUP3 PUSH2 0x3CC2 JUMP JUMPDEST PUSH1 0x20 DUP3 ADD SWAP1 POP SWAP2 SWAP1 POP JUMP JUMPDEST PUSH1 0x0 PUSH1 0x20 DUP3 ADD SWAP1 POP DUP2 DUP2 SUB PUSH1 0x0 DUP4 ADD MSTORE PUSH2 0x3D27 DUP2 PUSH2 0x3CEB JUMP JUMPDEST SWAP1 POP SWAP2 SWAP1 POP JUMP JUMPDEST PUSH1 0x0 PUSH32 0xFFFFFFFFFF000000000000000000000000000000000000000000000000000000 DUP3 AND SWAP1 POP SWAP2 SWAP1 POP JUMP JUMPDEST PUSH1 0x0 PUSH2 0x3D66 DUP3 MLOAD PUSH2 0x3D2E JUMP JUMPDEST DUP1 SWAP2 POP POP SWAP2 SWAP1 POP JUMP JUMPDEST PUSH1 0x0 PUSH2 0x3D7A DUP3 PUSH2 0x3C1E JUMP JUMPDEST DUP3 PUSH2 0x3D84 DUP5 PUSH2 0x3C29 JUMP JUMPDEST SWAP1 POP PUSH2 0x3D8F DUP2 PUSH2 0x3D5A JUMP JUMPDEST SWAP3 POP PUSH1 0x5 DUP3 LT ISZERO PUSH2 0x3DCF JUMPI PUSH2 0x3DCA PUSH32 0xFFFFFFFFFF000000000000000000000000000000000000000000000000000000 DUP4 PUSH1 0x5 SUB PUSH1 0x8 MUL PUSH2 0x3C4E JUMP JUMPDEST DUP4 AND SWAP3 POP JUMPDEST POP POP SWAP2 SWAP1 POP JUMP JUMPDEST PUSH1 0x0 PUSH2 0x3DE1 DUP3 PUSH2 0x297B JUMP JUMPDEST SWAP2 POP PUSH2 0x3DEC DUP4 PUSH2 0x297B JUMP JUMPDEST SWAP3 POP DUP3 PUSH1 0xFF SUB DUP3 GT ISZERO PUSH2 0x3E02 JUMPI PUSH2 0x3E01 PUSH2 0x378F JUMP JUMPDEST JUMPDEST DUP3 DUP3 ADD SWAP1 POP SWAP3 SWAP2 POP POP JUMP JUMPDEST PUSH2 0x3E16 DUP2 PUSH2 0x3647 JUMP JUMPDEST DUP3 MSTORE POP POP JUMP JUMPDEST PUSH1 0x0 PUSH1 0x80 DUP3 ADD SWAP1 POP PUSH2 0x3E31 PUSH1 0x0 DUP4 ADD DUP8 PUSH2 0x2CB9 JUMP JUMPDEST PUSH2 0x3E3E PUSH1 0x20 DUP4 ADD DUP7 PUSH2 0x2B95 JUMP JUMPDEST PUSH2 0x3E4B PUSH1 0x40 DUP4 ADD DUP6 PUSH2 0x3E0D JUMP JUMPDEST PUSH2 0x3E58 PUSH1 0x60 DUP4 ADD DUP5 PUSH2 0x2B95 JUMP JUMPDEST SWAP6 SWAP5 POP POP POP POP POP JUMP JUMPDEST PUSH1 0x0 DUP3 DUP3 MSTORE PUSH1 0x20 DUP3 ADD SWAP1 POP SWAP3 SWAP2 POP POP JUMP JUMPDEST PUSH1 0x0 PUSH2 0x3E7D DUP3 PUSH2 0x3C1E JUMP JUMPDEST PUSH2 0x3E87 DUP2 DUP6 PUSH2 0x3E61 JUMP JUMPDEST SWAP4 POP PUSH2 0x3E97 DUP2 DUP6 PUSH1 0x20 DUP7 ADD PUSH2 0x2F53 JUMP JUMPDEST PUSH2 0x3EA0 DUP2 PUSH2 0x2D28 JUMP JUMPDEST DUP5 ADD SWAP2 POP POP SWAP3 SWAP2 POP POP JUMP JUMPDEST PUSH1 0x0 PUSH1 0xE0 DUP3 ADD SWAP1 POP PUSH2 0x3EC0 PUSH1 0x0 DUP4 ADD DUP11 PUSH2 0x30E1 JUMP JUMPDEST PUSH2 0x3ECD PUSH1 0x20 DUP4 ADD DUP10 PUSH2 0x2B95 JUMP JUMPDEST PUSH2 0x3EDA PUSH1 0x40 DUP4 ADD DUP9 PUSH2 0x2CB9 JUMP JUMPDEST PUSH2 0x3EE7 PUSH1 0x60 DUP4 ADD DUP8 PUSH2 0x3E0D JUMP JUMPDEST PUSH2 0x3EF4 PUSH1 0x80 DUP4 ADD DUP7 PUSH2 0x2B95 JUMP JUMPDEST PUSH2 0x3F01 PUSH1 0xA0 DUP4 ADD DUP6 PUSH2 0x2B95 JUMP JUMPDEST DUP2 DUP2 SUB PUSH1 0xC0 DUP4 ADD MSTORE PUSH2 0x3F13 DUP2 DUP5 PUSH2 0x3E72 JUMP JUMPDEST SWAP1 POP SWAP9 SWAP8 POP POP POP POP POP POP POP POP JUMP JUMPDEST PUSH1 0x0 PUSH2 0x3F2C DUP3 PUSH2 0x285C JUMP JUMPDEST SWAP2 POP PUSH2 0x3F37 DUP4 PUSH2 0x285C JUMP JUMPDEST SWAP3 POP DUP3 DUP3 LT ISZERO PUSH2 0x3F4A JUMPI PUSH2 0x3F49 PUSH2 0x378F JUMP JUMPDEST JUMPDEST DUP3 DUP3 SUB SWAP1 POP SWAP3 SWAP2 POP POP JUMP JUMPDEST PUSH32 0x4E487B7100000000000000000000000000000000000000000000000000000000 PUSH1 0x0 MSTORE PUSH1 0x12 PUSH1 0x4 MSTORE PUSH1 0x24 PUSH1 0x0 REVERT JUMPDEST PUSH1 0x0 PUSH2 0x3F8F DUP3 PUSH2 0x285C JUMP JUMPDEST SWAP2 POP PUSH2 0x3F9A DUP4 PUSH2 0x285C JUMP JUMPDEST SWAP3 POP DUP3 PUSH2 0x3FAA JUMPI PUSH2 0x3FA9 PUSH2 0x3F55 JUMP JUMPDEST JUMPDEST DUP3 DUP3 MOD SWAP1 POP SWAP3 SWAP2 POP POP JUMP JUMPDEST PUSH1 0x0 PUSH2 0x3FC0 DUP3 PUSH2 0x38CA JUMP JUMPDEST SWAP1 POP SWAP2 SWAP1 POP JUMP JUMPDEST PUSH1 0x0 DUP2 PUSH1 0x60 SHL SWAP1 POP SWAP2 SWAP1 POP JUMP JUMPDEST PUSH1 0x0 PUSH2 0x3FDF DUP3 PUSH2 0x3FC7 JUMP JUMPDEST SWAP1 POP SWAP2 SWAP1 POP JUMP JUMPDEST PUSH1 0x0 PUSH2 0x3FF1 DUP3 PUSH2 0x3FD4 JUMP JUMPDEST SWAP1 POP SWAP2 SWAP1 POP JUMP JUMPDEST PUSH2 0x4009 PUSH2 0x4004 DUP3 PUSH2 0x3FB5 JUMP JUMPDEST PUSH2 0x3FE6 JUMP JUMPDEST DUP3 MSTORE POP POP JUMP JUMPDEST PUSH1 0x0 DUP2 SWAP1 POP SWAP2 SWAP1 POP JUMP JUMPDEST PUSH2 0x402A PUSH2 0x4025 DUP3 PUSH2 0x285C JUMP JUMPDEST PUSH2 0x400F JUMP JUMPDEST DUP3 MSTORE POP POP JUMP JUMPDEST PUSH1 0x0 PUSH2 0x403C DUP3 DUP6 PUSH2 0x3FF8 JUMP JUMPDEST PUSH1 0x14 DUP3 ADD SWAP2 POP PUSH2 0x404C DUP3 DUP5 PUSH2 0x4019 JUMP JUMPDEST PUSH1 0x20 DUP3 ADD SWAP2 POP DUP2 SWAP1 POP SWAP4 SWAP3 POP POP POP JUMP JUMPDEST PUSH1 0x0 PUSH1 0x60 DUP3 ADD SWAP1 POP PUSH2 0x4071 PUSH1 0x0 DUP4 ADD DUP7 PUSH2 0x30E1 JUMP JUMPDEST PUSH2 0x407E PUSH1 0x20 DUP4 ADD DUP6 PUSH2 0x2B95 JUMP JUMPDEST DUP2 DUP2 SUB PUSH1 0x40 DUP4 ADD MSTORE PUSH2 0x4090 DUP2 DUP5 PUSH2 0x3E72 JUMP JUMPDEST SWAP1 POP SWAP5 SWAP4 POP POP POP POP JUMP JUMPDEST PUSH32 0x756E61626C6520746F207472616E73666572416E6443616C6C20746F206F7261 PUSH1 0x0 DUP3 ADD MSTORE PUSH32 0x636C650000000000000000000000000000000000000000000000000000000000 PUSH1 0x20 DUP3 ADD MSTORE POP JUMP JUMPDEST PUSH1 0x0 PUSH2 0x40F6 PUSH1 0x23 DUP4 PUSH2 0x39EB JUMP JUMPDEST SWAP2 POP PUSH2 0x4101 DUP3 PUSH2 0x409A JUMP JUMPDEST PUSH1 0x40 DUP3 ADD SWAP1 POP SWAP2 SWAP1 POP JUMP JUMPDEST PUSH1 0x0 PUSH1 0x20 DUP3 ADD SWAP1 POP DUP2 DUP2 SUB PUSH1 0x0 DUP4 ADD MSTORE PUSH2 0x4125 DUP2 PUSH2 0x40E9 JUMP JUMPDEST SWAP1 POP SWAP2 SWAP1 POP JUMP JUMPDEST PUSH1 0x0 PUSH2 0x4137 DUP3 PUSH2 0x285C JUMP JUMPDEST SWAP2 POP PUSH2 0x4142 DUP4 PUSH2 0x285C JUMP JUMPDEST SWAP3 POP DUP2 PUSH32 0xFFFFFFFFFFFFFFFFFFFFFFFFFFFFFFFFFFFFFFFFFFFFFFFFFFFFFFFFFFFFFFFF DIV DUP4 GT DUP3 ISZERO ISZERO AND ISZERO PUSH2 0x417B JUMPI PUSH2 0x417A PUSH2 0x378F JUMP JUMPDEST JUMPDEST DUP3 DUP3 MUL SWAP1 POP SWAP3 SWAP2 POP POP JUMP JUMPDEST PUSH1 0x0 DUP2 PUSH1 0x1 SHR SWAP1 POP SWAP2 SWAP1 POP JUMP JUMPDEST PUSH1 0x0 DUP1 DUP3 SWAP2 POP DUP4 SWAP1 POP JUMPDEST PUSH1 0x1 DUP6 GT ISZERO PUSH2 0x41DD JUMPI DUP1 DUP7 DIV DUP2 GT ISZERO PUSH2 0x41B9 JUMPI PUSH2 0x41B8 PUSH2 0x378F JUMP JUMPDEST JUMPDEST PUSH1 0x1 DUP6 AND ISZERO PUSH2 0x41C8 JUMPI DUP1 DUP3 MUL SWAP2 POP JUMPDEST DUP1 DUP2 MUL SWAP1 POP PUSH2 0x41D6 DUP6 PUSH2 0x4186 JUMP JUMPDEST SWAP5 POP PUSH2 0x419D JUMP JUMPDEST SWAP5 POP SWAP5 SWAP3 POP POP POP JUMP JUMPDEST PUSH1 0x0 DUP3 PUSH2 0x41F6 JUMPI PUSH1 0x1 SWAP1 POP PUSH2 0x42B2 JUMP JUMPDEST DUP2 PUSH2 0x4204 JUMPI PUSH1 0x0 SWAP1 POP PUSH2 0x42B2 JUMP JUMPDEST DUP2 PUSH1 0x1 DUP2 EQ PUSH2 0x421A JUMPI PUSH1 0x2 DUP2 EQ PUSH2 0x4224 JUMPI PUSH2 0x4253 JUMP JUMPDEST PUSH1 0x1 SWAP2 POP POP PUSH2 0x42B2 JUMP JUMPDEST PUSH1 0xFF DUP5 GT ISZERO PUSH2 0x4236 JUMPI PUSH2 0x4235 PUSH2 0x378F JUMP JUMPDEST JUMPDEST DUP4 PUSH1 0x2 EXP SWAP2 POP DUP5 DUP3 GT ISZERO PUSH2 0x424D JUMPI PUSH2 0x424C PUSH2 0x378F JUMP JUMPDEST JUMPDEST POP PUSH2 0x42B2 JUMP JUMPDEST POP PUSH1 0x20 DUP4 LT PUSH2 0x133 DUP4 LT AND PUSH1 0x4E DUP5 LT PUSH1 0xB DUP5 LT AND OR ISZERO PUSH2 0x4288 JUMPI DUP3 DUP3 EXP SWAP1 POP DUP4 DUP2 GT ISZERO PUSH2 0x4283 JUMPI PUSH2 0x4282 PUSH2 0x378F JUMP JUMPDEST JUMPDEST PUSH2 0x42B2 JUMP JUMPDEST PUSH2 0x4295 DUP5 DUP5 DUP5 PUSH1 0x1 PUSH2 0x4193 JUMP JUMPDEST SWAP3 POP SWAP1 POP DUP2 DUP5 DIV DUP2 GT ISZERO PUSH2 0x42AC JUMPI PUSH2 0x42AB PUSH2 0x378F JUMP JUMPDEST JUMPDEST DUP2 DUP2 MUL SWAP1 POP JUMPDEST SWAP4 SWAP3 POP POP POP JUMP JUMPDEST PUSH1 0x0 PUSH2 0x42C4 DUP3 PUSH2 0x285C JUMP JUMPDEST SWAP2 POP PUSH2 0x42CF DUP4 PUSH2 0x285C JUMP JUMPDEST SWAP3 POP PUSH2 0x42FC PUSH32 0xFFFFFFFFFFFFFFFFFFFFFFFFFFFFFFFFFFFFFFFFFFFFFFFFFFFFFFFFFFFFFFFF DUP5 DUP5 PUSH2 0x41E6 JUMP JUMPDEST SWAP1 POP SWAP3 SWAP2 POP POP JUMP JUMPDEST PUSH1 0x0 DUP2 SWAP1 POP DUP2 PUSH1 0x0 MSTORE PUSH1 0x20 PUSH1 0x0 KECCAK256 SWAP1 POP SWAP2 SWAP1 POP JUMP JUMPDEST PUSH1 0x0 PUSH1 0x20 PUSH1 0x1F DUP4 ADD DIV SWAP1 POP SWAP2 SWAP1 POP JUMP JUMPDEST PUSH1 0x0 PUSH1 0x8 DUP4 MUL PUSH2 0x4359 PUSH32 0xFFFFFFFFFFFFFFFFFFFFFFFFFFFFFFFFFFFFFFFFFFFFFFFFFFFFFFFFFFFFFFFF DUP3 PUSH2 0x3C4E JUMP JUMPDEST PUSH2 0x4363 DUP7 DUP4 PUSH2 0x3C4E JUMP JUMPDEST SWAP6 POP DUP1 NOT DUP5 AND SWAP4 POP DUP1 DUP7 AND DUP5 OR SWAP3 POP POP POP SWAP4 SWAP3 POP POP POP JUMP JUMPDEST PUSH1 0x0 PUSH2 0x4396 PUSH2 0x4391 PUSH2 0x438C DUP5 PUSH2 0x285C JUMP JUMPDEST PUSH2 0x389E JUMP JUMPDEST PUSH2 0x285C JUMP JUMPDEST SWAP1 POP SWAP2 SWAP1 POP JUMP JUMPDEST PUSH1 0x0 DUP2 SWAP1 POP SWAP2 SWAP1 POP JUMP JUMPDEST PUSH2 0x43B0 DUP4 PUSH2 0x437B JUMP JUMPDEST PUSH2 0x43C4 PUSH2 0x43BC DUP3 PUSH2 0x439D JUMP JUMPDEST DUP5 DUP5 SLOAD PUSH2 0x4329 JUMP JUMPDEST DUP3 SSTORE POP POP POP POP JUMP JUMPDEST PUSH1 0x0 SWAP1 JUMP JUMPDEST PUSH2 0x43D9 PUSH2 0x43CC JUMP JUMPDEST PUSH2 0x43E4 DUP2 DUP5 DUP5 PUSH2 0x43A7 JUMP JUMPDEST POP POP POP JUMP JUMPDEST JUMPDEST DUP2 DUP2 LT ISZERO PUSH2 0x4408 JUMPI PUSH2 0x43FD PUSH1 0x0 DUP3 PUSH2 0x43D1 JUMP JUMPDEST PUSH1 0x1 DUP2 ADD SWAP1 POP PUSH2 0x43EA JUMP JUMPDEST POP POP JUMP JUMPDEST PUSH1 0x1F DUP3 GT ISZERO PUSH2 0x444D JUMPI PUSH2 0x441E DUP2 PUSH2 0x4304 JUMP JUMPDEST PUSH2 0x4427 DUP5 PUSH2 0x4319 JUMP JUMPDEST DUP2 ADD PUSH1 0x20 DUP6 LT ISZERO PUSH2 0x4436 JUMPI DUP2 SWAP1 POP JUMPDEST PUSH2 0x444A PUSH2 0x4442 DUP6 PUSH2 0x4319 JUMP JUMPDEST DUP4 ADD DUP3 PUSH2 0x43E9 JUMP JUMPDEST POP POP JUMPDEST POP POP POP JUMP JUMPDEST PUSH1 0x0 DUP3 DUP3 SHR SWAP1 POP SWAP3 SWAP2 POP POP JUMP JUMPDEST PUSH1 0x0 PUSH2 0x4470 PUSH1 0x0 NOT DUP5 PUSH1 0x8 MUL PUSH2 0x4452 JUMP JUMPDEST NOT DUP1 DUP4 AND SWAP2 POP POP SWAP3 SWAP2 POP POP JUMP JUMPDEST PUSH1 0x0 PUSH2 0x4489 DUP4 DUP4 PUSH2 0x445F JUMP JUMPDEST SWAP2 POP DUP3 PUSH1 0x2 MUL DUP3 OR SWAP1 POP SWAP3 SWAP2 POP POP JUMP JUMPDEST PUSH2 0x44A2 DUP3 PUSH2 0x3C1E JUMP JUMPDEST PUSH8 0xFFFFFFFFFFFFFFFF DUP2 GT ISZERO PUSH2 0x44BB JUMPI PUSH2 0x44BA PUSH2 0x2D39 JUMP JUMPDEST JUMPDEST PUSH2 0x44C5 DUP3 SLOAD PUSH2 0x39BA JUMP JUMPDEST PUSH2 0x44D0 DUP3 DUP3 DUP6 PUSH2 0x440C JUMP JUMPDEST PUSH1 0x0 PUSH1 0x20 SWAP1 POP PUSH1 0x1F DUP4 GT PUSH1 0x1 DUP2 EQ PUSH2 0x4503 JUMPI PUSH1 0x0 DUP5 ISZERO PUSH2 0x44F1 JUMPI DUP3 DUP8 ADD MLOAD SWAP1 POP JUMPDEST PUSH2 0x44FB DUP6 DUP3 PUSH2 0x447D JUMP JUMPDEST DUP7 SSTORE POP PUSH2 0x4563 JUMP JUMPDEST PUSH1 0x1F NOT DUP5 AND PUSH2 0x4511 DUP7 PUSH2 0x4304 JUMP JUMPDEST PUSH1 0x0 JUMPDEST DUP3 DUP2 LT ISZERO PUSH2 0x4539 JUMPI DUP5 DUP10 ADD MLOAD DUP3 SSTORE PUSH1 0x1 DUP3 ADD SWAP2 POP PUSH1 0x20 DUP6 ADD SWAP5 POP PUSH1 0x20 DUP2 ADD SWAP1 POP PUSH2 0x4514 JUMP JUMPDEST DUP7 DUP4 LT ISZERO PUSH2 0x4556 JUMPI DUP5 DUP10 ADD MLOAD PUSH2 0x4552 PUSH1 0x1F DUP10 AND DUP3 PUSH2 0x445F JUMP JUMPDEST DUP4 SSTORE POP JUMPDEST PUSH1 0x1 PUSH1 0x2 DUP9 MUL ADD DUP9 SSTORE POP POP POP JUMPDEST POP POP POP POP POP POP JUMP INVALID LOG2 PUSH5 0x6970667358 0x22 SLT KECCAK256 DUP9 0xC7 DUP10 LOG0 DUP4 SWAP10 0xA9 0xAF 0xD1 GT 0xCA TIMESTAMP PUSH9 0xA6F4F6F91EAA0B64DE PC DUP1 0xFC 0xEA 0xC1 MSTORE8 0xC6 0x27 PUSH9 0xA464736F6C63430008 0xF STOP CALLER "},"methodIdentifiers":{"cancelRequest(bytes32,uint256,bytes4,uint256)":"ec65d0f8","checkResult(uint256,address)":"7fb9c45f","contractBalances()":"2163885a","createContest(uint256,uint256[],uint256)":"685c3e9f","fulfillSchedule(bytes32,bytes[])":"93d07072","getGameCreate(bytes32,uint256)":"e3c046a7","getGameResolve(bytes32,uint256)":"de00d107","getListGamesPerContest(uint256)":"7e5dd913","getNumberOfGamesPerContest(uint256)":"1d883342","getNumberOfGamesPerRequest(bytes32)":"f02e41a3","getPrevisionsPerPlayerPerContest(uint256,address)":"117f3998","getRequestIdPerContest(uint256)":"1506bca6","owner()":"8da5cb5b","renounceOwnership()":"715018a6","requestSchedule(uint256,uint256,uint256)":"580c2f54","savePrediction((uint32,uint8,uint8)[])":"9fa75e9a","saveRequestResults(uint256,uint256)":"5d65d2b6","transferOwnership(address)":"f2fde38b","withdrawLink(address,uint256)":"54b7faae"}}}}}