{"contracts/IpFakeEnetScore.sol":{"IpFakeEnetScore":{"abi":[{"inputs":[],"stateMutability":"nonpayable","type":"constructor"},{"inputs":[{"internalType":"uint256","name":"_contestId","type":"uint256"},{"internalType":"address","name":"_player","type":"address"}],"name":"checkResult","outputs":[{"internalType":"uint256","name":"","type":"uint256"}],"stateMutability":"view","type":"function"},{"inputs":[{"internalType":"uint256","name":"_leagueId","type":"uint256"},{"internalType":"string[]","name":"_listRequestId","type":"string[]"},{"internalType":"uint256","name":"_dateEndContest","type":"uint256"}],"name":"createContest","outputs":[],"stateMutability":"nonpayable","type":"function"},{"inputs":[{"internalType":"string","name":"_requestId","type":"string"},{"components":[{"internalType":"uint32","name":"gameId","type":"uint32"},{"internalType":"uint40","name":"startTime","type":"uint40"},{"internalType":"string","name":"homeTeam","type":"string"},{"internalType":"string","name":"awayTeam","type":"string"}],"internalType":"struct IpFakeEnetScore.GameCreate[]","name":"_fakeGameCreate","type":"tuple[]"}],"name":"fakeGameCreate","outputs":[],"stateMutability":"nonpayable","type":"function"},{"inputs":[],"name":"getCurrentContestId","outputs":[{"internalType":"uint256","name":"","type":"uint256"}],"stateMutability":"view","type":"function"},{"inputs":[{"internalType":"string","name":"_requestId","type":"string"},{"internalType":"uint256","name":"_idx","type":"uint256"}],"name":"getGameCreate","outputs":[{"components":[{"internalType":"uint32","name":"gameId","type":"uint32"},{"internalType":"uint40","name":"startTime","type":"uint40"},{"internalType":"string","name":"homeTeam","type":"string"},{"internalType":"string","name":"awayTeam","type":"string"}],"internalType":"struct IpFakeEnetScore.GameCreate","name":"","type":"tuple"}],"stateMutability":"view","type":"function"},{"inputs":[{"internalType":"uint256","name":"_contestId","type":"uint256"}],"name":"getListGamesPerContest","outputs":[{"components":[{"internalType":"uint32","name":"gameId","type":"uint32"},{"internalType":"uint40","name":"startTime","type":"uint40"},{"internalType":"string","name":"homeTeam","type":"string"},{"internalType":"string","name":"awayTeam","type":"string"}],"internalType":"struct IpFakeEnetScore.GameCreate[]","name":"","type":"tuple[]"}],"stateMutability":"view","type":"function"},{"inputs":[{"internalType":"uint256","name":"_contestId","type":"uint256"}],"name":"getNumberOfGamesPerContest","outputs":[{"internalType":"uint256","name":"","type":"uint256"}],"stateMutability":"view","type":"function"},{"inputs":[{"internalType":"string","name":"_requestId","type":"string"}],"name":"getNumberOfGamesPerRequest","outputs":[{"internalType":"uint256","name":"","type":"uint256"}],"stateMutability":"view","type":"function"},{"inputs":[{"internalType":"uint256","name":"_contestId","type":"uint256"}],"name":"getNumberOfPlayers","outputs":[{"internalType":"uint256","name":"","type":"uint256"}],"stateMutability":"view","type":"function"},{"inputs":[{"internalType":"uint256","name":"_contestId","type":"uint256"},{"internalType":"address","name":"_player","type":"address"}],"name":"getPrevisionsPerPlayerPerContest","outputs":[{"components":[{"internalType":"uint32","name":"gameId","type":"uint32"},{"internalType":"uint8","name":"homeScore","type":"uint8"},{"internalType":"uint8","name":"awayScore","type":"uint8"}],"internalType":"struct IpFakeEnetScore.GamePredict[]","name":"","type":"tuple[]"}],"stateMutability":"view","type":"function"},{"inputs":[{"internalType":"uint256","name":"_contestId","type":"uint256"}],"name":"getRequestIdPerContest","outputs":[{"internalType":"string[]","name":"","type":"string[]"}],"stateMutability":"view","type":"function"},{"inputs":[{"internalType":"uint32","name":"_gameId","type":"uint32"}],"name":"getScorePerGameId","outputs":[{"components":[{"internalType":"uint8","name":"homeScore","type":"uint8"},{"internalType":"uint8","name":"awayScore","type":"uint8"}],"internalType":"struct IpFakeEnetScore.Scores","name":"","type":"tuple"}],"stateMutability":"view","type":"function"},{"inputs":[{"components":[{"internalType":"uint32","name":"gameId","type":"uint32"},{"internalType":"uint8","name":"homeScore","type":"uint8"},{"internalType":"uint8","name":"awayScore","type":"uint8"}],"internalType":"struct IpFakeEnetScore.GamePredict[]","name":"_gamePredictions","type":"tuple[]"}],"name":"savePrediction","outputs":[],"stateMutability":"nonpayable","type":"function"},{"inputs":[{"components":[{"internalType":"uint32","name":"gameId","type":"uint32"},{"internalType":"uint8","name":"homeScore","type":"uint8"},{"internalType":"uint8","name":"awayScore","type":"uint8"},{"internalType":"string","name":"status","type":"string"}],"internalType":"struct IpFakeEnetScore.GameResolve[]","name":"_fakeGameResolve","type":"tuple[]"}],"name":"saveRequestResults","outputs":[],"stateMutability":"nonpayable","type":"function"}],"evm":{"bytecode":{"linkReferences":{},"object":"608060405234801561001057600080fd5b506000600881905550612d60806100286000396000f3fe608060405234801561001057600080fd5b50600436106100ea5760003560e01c806362436d9d1161008c57806380b41a091161006657806380b41a09146102935780639fa75e9a146102c3578063ea6a0410146102df578063fb46bd221461030f576100ea565b806362436d9d146102035780637e5dd913146102335780637fb9c45f14610263576100ea565b80631d883342116100c85780631d8833421461016b5780631e7741f01461019b5780631f2bf10c146101cb5780633302787d146101e7576100ea565b8063117f3998146100ef5780631506bca61461011f578063186995471461014f575b600080fd5b6101096004803603810190610104919061188d565b61032d565b60405161011691906119f9565b60405180910390f35b61013960048036038101906101349190611a1b565b610584565b6040516101469190611ba3565b60405180910390f35b61016960048036038101906101649190611de0565b610670565b005b61018560048036038101906101809190611a1b565b610750565b6040516101929190611e5e565b60405180910390f35b6101b560048036038101906101b09190611ea5565b6107f2565b6040516101c29190611f01565b60405180910390f35b6101e560048036038101906101e091906120f4565b610865565b005b61020160048036038101906101fc919061230d565b6109f4565b005b61021d60048036038101906102189190611a1b565b610b46565b60405161022a9190611e5e565b60405180910390f35b61024d60048036038101906102489190611a1b565b610b66565b60405161025a9190612491565b60405180910390f35b61027d6004803603810190610278919061188d565b610e95565b60405161028a9190611e5e565b60405180910390f35b6102ad60048036038101906102a891906124b3565b6112aa565b6040516102ba9190612579565b60405180910390f35b6102dd60048036038101906102d891906126c2565b611476565b005b6102f960048036038101906102f4919061270b565b6116ee565b6040516103069190611e5e565b60405180910390f35b610317611718565b6040516103249190611e5e565b60405180910390f35b6060600061033a84610750565b90506000808267ffffffffffffffff81111561035957610358611bca565b5b60405190808252806020026020018201604052801561039257816020015b61037f611763565b8152602001906001900390816103775790505b50905060008367ffffffffffffffff8111156103b1576103b0611bca565b5b6040519080825280602002602001820160405280156103ea57816020015b6103d7611790565b8152602001906001900390816103cf5790505b5090506103f687610b66565b905060005b848110156105765781818151811061041657610415612754565b5b602002602001015160000151935060405180606001604052808563ffffffff168152602001600460008a73ffffffffffffffffffffffffffffffffffffffff1673ffffffffffffffffffffffffffffffffffffffff16815260200190815260200160002060008b815260200190815260200160002060008763ffffffff1663ffffffff16815260200190815260200160002060000160009054906101000a900460ff1660ff168152602001600460008a73ffffffffffffffffffffffffffffffffffffffff1673ffffffffffffffffffffffffffffffffffffffff16815260200190815260200160002060008b815260200190815260200160002060008763ffffffff1663ffffffff16815260200190815260200160002060000160019054906101000a900460ff1660ff1681525083828151811061055857610557612754565b5b6020026020010181905250808061056e906127b2565b9150506103fb565b508194505050505092915050565b606060016000838152602001908152602001600020805480602002602001604051908101604052809291908181526020016000905b828210156106655783829060005260206000200180546105d890612829565b80601f016020809104026020016040519081016040528092919081815260200182805461060490612829565b80156106515780601f1061062657610100808354040283529160200191610651565b820191906000526020600020905b81548152906001019060200180831161063457829003601f168201915b5050505050815260200190600101906105b9565b505050509050919050565b60086000815480929190610683906127b2565b919050555060005b8251811015610709576001600060085481526020019081526020016000208382815181106106bc576106bb612754565b5b60200260200101519080600181540180825580915050600190039060005260206000200160009091909190915090816106f59190612a06565b508080610701906127b2565b91505061068b565b506040518060400160405280848152602001828152506002600060085481526020019081526020016000206000820151816000015560208201518160010155905050505050565b6000806000905060005b60016000858152602001908152602001600020805490508110156107e857600060016000868152602001908152602001600020828154811061079f5761079e612754565b5b906000526020600020016040516107b69190612b66565b908152602001604051809103902080549050826107d39190612b7d565b915080806107e0906127b2565b91505061075a565b5080915050919050565b6107fa6117c5565b600360008363ffffffff1663ffffffff1681526020019081526020016000206040518060400160405290816000820160009054906101000a900460ff1660ff1660ff1681526020016000820160019054906101000a900460ff1660ff1660ff16815250509050919050565b60005b81518110156109ef576000836040516108819190612c04565b908152602001604051809103902060405180608001604052808484815181106108ad576108ac612754565b5b60200260200101516000015163ffffffff1681526020018484815181106108d7576108d6612754565b5b60200260200101516020015164ffffffffff16815260200184848151811061090257610901612754565b5b602002602001015160400151815260200184848151811061092657610925612754565b5b602002602001015160600151815250908060018154018082558091505060019003906000526020600020906003020160009091909190915060008201518160000160006101000a81548163ffffffff021916908363ffffffff16021790555060208201518160000160046101000a81548164ffffffffff021916908364ffffffffff16021790555060408201518160010190816109c39190612a06565b5060608201518160020190816109d99190612a06565b50505080806109e7906127b2565b915050610868565b505050565b60005b8151811015610b42576040518060400160405280838381518110610a1e57610a1d612754565b5b60200260200101516020015160ff168152602001838381518110610a4557610a44612754565b5b60200260200101516040015160ff1681525060036000848481518110610a6e57610a6d612754565b5b60200260200101516000015163ffffffff1663ffffffff16815260200190815260200160002060008201518160000160006101000a81548160ff021916908360ff16021790555060208201518160000160016101000a81548160ff021916908360ff160217905550905050600160096000848481518110610af257610af1612754565b5b60200260200101516000015163ffffffff1663ffffffff16815260200190815260200160002060006101000a81548160ff0219169083151502179055508080610b3a906127b2565b9150506109f7565b5050565b600060056000838152602001908152602001600020805490509050919050565b60606000610b7383610750565b90506000808267ffffffffffffffff811115610b9257610b91611bca565b5b604051908082528060200260200182016040528015610bcb57816020015b610bb8611790565b815260200190600190039081610bb05790505b50905060005b6001600087815260200190815260200160002080549050811015610e89576000600160008881526020019081526020016000208281548110610c1657610c15612754565b5b90600052602060002001604051610c2d9190612b66565b908152602001604051809103902080549050935060005b84811015610e75576000600160008981526020019081526020016000208381548110610c7357610c72612754565b5b90600052602060002001604051610c8a9190612b66565b90815260200160405180910390208181548110610caa57610ca9612754565b5b90600052602060002090600302016040518060800160405290816000820160009054906101000a900463ffffffff1663ffffffff1663ffffffff1681526020016000820160049054906101000a900464ffffffffff1664ffffffffff1664ffffffffff168152602001600182018054610d2290612829565b80601f0160208091040260200160405190810160405280929190818152602001828054610d4e90612829565b8015610d9b5780601f10610d7057610100808354040283529160200191610d9b565b820191906000526020600020905b815481529060010190602001808311610d7e57829003601f168201915b50505050508152602001600282018054610db490612829565b80601f0160208091040260200160405190810160405280929190818152602001828054610de090612829565b8015610e2d5780601f10610e0257610100808354040283529160200191610e2d565b820191906000526020600020905b815481529060010190602001808311610e1057829003601f168201915b505050505081525050838581518110610e4957610e48612754565b5b60200260200101819052508380610e5f906127b2565b9450508080610e6d906127b2565b915050610c44565b508080610e81906127b2565b915050610bd1565b50809350505050919050565b60008060008060009050600080610eab88610750565b905060008167ffffffffffffffff811115610ec957610ec8611bca565b5b604051908082528060200260200182016040528015610f0257816020015b610eef611790565b815260200190600190039081610ee75790505b509050610f0e89610b66565b905060005b8281101561129a57818181518110610f2e57610f2d612754565b5b6020026020010151600001519350611040600460008b73ffffffffffffffffffffffffffffffffffffffff1673ffffffffffffffffffffffffffffffffffffffff16815260200190815260200160002060008c815260200190815260200160002060008663ffffffff1663ffffffff16815260200190815260200160002060000160009054906101000a900460ff16600460008c73ffffffffffffffffffffffffffffffffffffffff1673ffffffffffffffffffffffffffffffffffffffff16815260200190815260200160002060008d815260200190815260200160002060008763ffffffff1663ffffffff16815260200190815260200160002060000160019054906101000a900460ff16611722565b96506110aa600360008663ffffffff1663ffffffff16815260200190815260200160002060000160009054906101000a900460ff16600360008763ffffffff1663ffffffff16815260200190815260200160002060000160019054906101000a900460ff16611722565b955085871480156110eb575060011515600960008663ffffffff1663ffffffff16815260200190815260200160002060009054906101000a900460ff161515145b15611287576001856110fd9190612b7d565b9450600360008563ffffffff1663ffffffff16815260200190815260200160002060000160009054906101000a900460ff1660ff16600460008b73ffffffffffffffffffffffffffffffffffffffff1673ffffffffffffffffffffffffffffffffffffffff16815260200190815260200160002060008c815260200190815260200160002060008663ffffffff1663ffffffff16815260200190815260200160002060000160009054906101000a900460ff1660ff161480156112715750600360008563ffffffff1663ffffffff16815260200190815260200160002060000160019054906101000a900460ff1660ff16600460008b73ffffffffffffffffffffffffffffffffffffffff1673ffffffffffffffffffffffffffffffffffffffff16815260200190815260200160002060008c815260200190815260200160002060008663ffffffff1663ffffffff16815260200190815260200160002060000160019054906101000a900460ff1660ff16145b15611286576002856112839190612b7d565b94505b5b8080611292906127b2565b915050610f13565b5083965050505050505092915050565b6112b2611790565b6000836040516112c29190612c04565b908152602001604051809103902082815481106112e2576112e1612754565b5b90600052602060002090600302016040518060800160405290816000820160009054906101000a900463ffffffff1663ffffffff1663ffffffff1681526020016000820160049054906101000a900464ffffffffff1664ffffffffff1664ffffffffff16815260200160018201805461135a90612829565b80601f016020809104026020016040519081016040528092919081815260200182805461138690612829565b80156113d35780601f106113a8576101008083540402835291602001916113d3565b820191906000526020600020905b8154815290600101906020018083116113b657829003601f168201915b505050505081526020016002820180546113ec90612829565b80601f016020809104026020016040519081016040528092919081815260200182805461141890612829565b80156114655780601f1061143a57610100808354040283529160200191611465565b820191906000526020600020905b81548152906001019060200180831161144857829003601f168201915b505050505081525050905092915050565b6002600060085481526020019081526020016000206001015442106114d0576040517f08c379a00000000000000000000000000000000000000000000000000000000081526004016114c790612c78565b60405180910390fd5b6114db600854610750565b81511461151d576040517f08c379a000000000000000000000000000000000000000000000000000000000815260040161151490612d0a565b60405180910390fd5b600061152a600854610750565b905060005b8181101561167357604051806040016040528084838151811061155557611554612754565b5b60200260200101516020015160ff16815260200184838151811061157c5761157b612754565b5b60200260200101516040015160ff16815250600460003373ffffffffffffffffffffffffffffffffffffffff1673ffffffffffffffffffffffffffffffffffffffff1681526020019081526020016000206000600854815260200190815260200160002060008584815181106115f5576115f4612754565b5b60200260200101516000015163ffffffff1663ffffffff16815260200190815260200160002060008201518160000160006101000a81548160ff021916908360ff16021790555060208201518160000160016101000a81548160ff021916908360ff160217905550905050808061166b906127b2565b91505061152f565b50600560006008548152602001908152602001600020339080600181540180825580915050600190039060005260206000200160009091909190916101000a81548173ffffffffffffffffffffffffffffffffffffffff021916908373ffffffffffffffffffffffffffffffffffffffff1602179055505050565b600080826040516116ff9190612c04565b9081526020016040518091039020805490509050919050565b6000600854905090565b6000808260ff168460ff16111561173c5760009050611759565b8360ff168360ff1611156117535760029050611758565b600190505b5b8091505092915050565b6040518060600160405280600063ffffffff168152602001600060ff168152602001600060ff1681525090565b6040518060800160405280600063ffffffff168152602001600064ffffffffff16815260200160608152602001606081525090565b6040518060400160405280600060ff168152602001600060ff1681525090565b6000604051905090565b600080fd5b600080fd5b6000819050919050565b61180c816117f9565b811461181757600080fd5b50565b60008135905061182981611803565b92915050565b600073ffffffffffffffffffffffffffffffffffffffff82169050919050565b600061185a8261182f565b9050919050565b61186a8161184f565b811461187557600080fd5b50565b60008135905061188781611861565b92915050565b600080604083850312156118a4576118a36117ef565b5b60006118b28582860161181a565b92505060206118c385828601611878565b9150509250929050565b600081519050919050565b600082825260208201905092915050565b6000819050602082019050919050565b600063ffffffff82169050919050565b611912816118f9565b82525050565b600060ff82169050919050565b61192e81611918565b82525050565b60608201600082015161194a6000850182611909565b50602082015161195d6020850182611925565b5060408201516119706040850182611925565b50505050565b60006119828383611934565b60608301905092915050565b6000602082019050919050565b60006119a6826118cd565b6119b081856118d8565b93506119bb836118e9565b8060005b838110156119ec5781516119d38882611976565b97506119de8361198e565b9250506001810190506119bf565b5085935050505092915050565b60006020820190508181036000830152611a13818461199b565b905092915050565b600060208284031215611a3157611a306117ef565b5b6000611a3f8482850161181a565b91505092915050565b600081519050919050565b600082825260208201905092915050565b6000819050602082019050919050565b600081519050919050565b600082825260208201905092915050565b60005b83811015611aae578082015181840152602081019050611a93565b83811115611abd576000848401525b50505050565b6000601f19601f8301169050919050565b6000611adf82611a74565b611ae98185611a7f565b9350611af9818560208601611a90565b611b0281611ac3565b840191505092915050565b6000611b198383611ad4565b905092915050565b6000602082019050919050565b6000611b3982611a48565b611b438185611a53565b935083602082028501611b5585611a64565b8060005b85811015611b915784840389528151611b728582611b0d565b9450611b7d83611b21565b925060208a01995050600181019050611b59565b50829750879550505050505092915050565b60006020820190508181036000830152611bbd8184611b2e565b905092915050565b600080fd5b7f4e487b7100000000000000000000000000000000000000000000000000000000600052604160045260246000fd5b611c0282611ac3565b810181811067ffffffffffffffff82111715611c2157611c20611bca565b5b80604052505050565b6000611c346117e5565b9050611c408282611bf9565b919050565b600067ffffffffffffffff821115611c6057611c5f611bca565b5b602082029050602081019050919050565b600080fd5b600080fd5b600067ffffffffffffffff821115611c9657611c95611bca565b5b611c9f82611ac3565b9050602081019050919050565b82818337600083830152505050565b6000611cce611cc984611c7b565b611c2a565b905082815260208101848484011115611cea57611ce9611c76565b5b611cf5848285611cac565b509392505050565b600082601f830112611d1257611d11611bc5565b5b8135611d22848260208601611cbb565b91505092915050565b6000611d3e611d3984611c45565b611c2a565b90508083825260208201905060208402830185811115611d6157611d60611c71565b5b835b81811015611da857803567ffffffffffffffff811115611d8657611d85611bc5565b5b808601611d938982611cfd565b85526020850194505050602081019050611d63565b5050509392505050565b600082601f830112611dc757611dc6611bc5565b5b8135611dd7848260208601611d2b565b91505092915050565b600080600060608486031215611df957611df86117ef565b5b6000611e078682870161181a565b935050602084013567ffffffffffffffff811115611e2857611e276117f4565b5b611e3486828701611db2565b9250506040611e458682870161181a565b9150509250925092565b611e58816117f9565b82525050565b6000602082019050611e736000830184611e4f565b92915050565b611e82816118f9565b8114611e8d57600080fd5b50565b600081359050611e9f81611e79565b92915050565b600060208284031215611ebb57611eba6117ef565b5b6000611ec984828501611e90565b91505092915050565b604082016000820151611ee86000850182611925565b506020820151611efb6020850182611925565b50505050565b6000604082019050611f166000830184611ed2565b92915050565b600067ffffffffffffffff821115611f3757611f36611bca565b5b602082029050602081019050919050565b600080fd5b600080fd5b600064ffffffffff82169050919050565b611f6c81611f52565b8114611f7757600080fd5b50565b600081359050611f8981611f63565b92915050565b600060808284031215611fa557611fa4611f48565b5b611faf6080611c2a565b90506000611fbf84828501611e90565b6000830152506020611fd384828501611f7a565b602083015250604082013567ffffffffffffffff811115611ff757611ff6611f4d565b5b61200384828501611cfd565b604083015250606082013567ffffffffffffffff81111561202757612026611f4d565b5b61203384828501611cfd565b60608301525092915050565b600061205261204d84611f1c565b611c2a565b9050808382526020820190506020840283018581111561207557612074611c71565b5b835b818110156120bc57803567ffffffffffffffff81111561209a57612099611bc5565b5b8086016120a78982611f8f565b85526020850194505050602081019050612077565b5050509392505050565b600082601f8301126120db576120da611bc5565b5b81356120eb84826020860161203f565b91505092915050565b6000806040838503121561210b5761210a6117ef565b5b600083013567ffffffffffffffff811115612129576121286117f4565b5b61213585828601611cfd565b925050602083013567ffffffffffffffff811115612156576121556117f4565b5b612162858286016120c6565b9150509250929050565b600067ffffffffffffffff82111561218757612186611bca565b5b602082029050602081019050919050565b6121a181611918565b81146121ac57600080fd5b50565b6000813590506121be81612198565b92915050565b6000608082840312156121da576121d9611f48565b5b6121e46080611c2a565b905060006121f484828501611e90565b6000830152506020612208848285016121af565b602083015250604061221c848285016121af565b604083015250606082013567ffffffffffffffff8111156122405761223f611f4d565b5b61224c84828501611cfd565b60608301525092915050565b600061226b6122668461216c565b611c2a565b9050808382526020820190506020840283018581111561228e5761228d611c71565b5b835b818110156122d557803567ffffffffffffffff8111156122b3576122b2611bc5565b5b8086016122c089826121c4565b85526020850194505050602081019050612290565b5050509392505050565b600082601f8301126122f4576122f3611bc5565b5b8135612304848260208601612258565b91505092915050565b600060208284031215612323576123226117ef565b5b600082013567ffffffffffffffff811115612341576123406117f4565b5b61234d848285016122df565b91505092915050565b600081519050919050565b600082825260208201905092915050565b6000819050602082019050919050565b61238b81611f52565b82525050565b60006080830160008301516123a96000860182611909565b5060208301516123bc6020860182612382565b50604083015184820360408601526123d48282611ad4565b915050606083015184820360608601526123ee8282611ad4565b9150508091505092915050565b60006124078383612391565b905092915050565b6000602082019050919050565b600061242782612356565b6124318185612361565b93508360208202850161244385612372565b8060005b8581101561247f578484038952815161246085826123fb565b945061246b8361240f565b925060208a01995050600181019050612447565b50829750879550505050505092915050565b600060208201905081810360008301526124ab818461241c565b905092915050565b600080604083850312156124ca576124c96117ef565b5b600083013567ffffffffffffffff8111156124e8576124e76117f4565b5b6124f485828601611cfd565b92505060206125058582860161181a565b9150509250929050565b60006080830160008301516125276000860182611909565b50602083015161253a6020860182612382565b50604083015184820360408601526125528282611ad4565b9150506060830151848203606086015261256c8282611ad4565b9150508091505092915050565b60006020820190508181036000830152612593818461250f565b905092915050565b600067ffffffffffffffff8211156125b6576125b5611bca565b5b602082029050602081019050919050565b6000606082840312156125dd576125dc611f48565b5b6125e76060611c2a565b905060006125f784828501611e90565b600083015250602061260b848285016121af565b602083015250604061261f848285016121af565b60408301525092915050565b600061263e6126398461259b565b611c2a565b9050808382526020820190506060840283018581111561266157612660611c71565b5b835b8181101561268a578061267688826125c7565b845260208401935050606081019050612663565b5050509392505050565b600082601f8301126126a9576126a8611bc5565b5b81356126b984826020860161262b565b91505092915050565b6000602082840312156126d8576126d76117ef565b5b600082013567ffffffffffffffff8111156126f6576126f56117f4565b5b61270284828501612694565b91505092915050565b600060208284031215612721576127206117ef565b5b600082013567ffffffffffffffff81111561273f5761273e6117f4565b5b61274b84828501611cfd565b91505092915050565b7f4e487b7100000000000000000000000000000000000000000000000000000000600052603260045260246000fd5b7f4e487b7100000000000000000000000000000000000000000000000000000000600052601160045260246000fd5b60006127bd826117f9565b91507fffffffffffffffffffffffffffffffffffffffffffffffffffffffffffffffff82036127ef576127ee612783565b5b600182019050919050565b7f4e487b7100000000000000000000000000000000000000000000000000000000600052602260045260246000fd5b6000600282049050600182168061284157607f821691505b602082108103612854576128536127fa565b5b50919050565b60008190508160005260206000209050919050565b60006020601f8301049050919050565b600082821b905092915050565b6000600883026128bc7fffffffffffffffffffffffffffffffffffffffffffffffffffffffffffffffff8261287f565b6128c6868361287f565b95508019841693508086168417925050509392505050565b6000819050919050565b60006129036128fe6128f9846117f9565b6128de565b6117f9565b9050919050565b6000819050919050565b61291d836128e8565b6129316129298261290a565b84845461288c565b825550505050565b600090565b612946612939565b612951818484612914565b505050565b5b818110156129755761296a60008261293e565b600181019050612957565b5050565b601f8211156129ba5761298b8161285a565b6129948461286f565b810160208510156129a3578190505b6129b76129af8561286f565b830182612956565b50505b505050565b600082821c905092915050565b60006129dd600019846008026129bf565b1980831691505092915050565b60006129f683836129cc565b9150826002028217905092915050565b612a0f82611a74565b67ffffffffffffffff811115612a2857612a27611bca565b5b612a328254612829565b612a3d828285612979565b600060209050601f831160018114612a705760008415612a5e578287015190505b612a6885826129ea565b865550612ad0565b601f198416612a7e8661285a565b60005b82811015612aa657848901518255600182019150602085019450602081019050612a81565b86831015612ac35784890151612abf601f8916826129cc565b8355505b6001600288020188555050505b505050505050565b600081905092915050565b60008154612af081612829565b612afa8186612ad8565b94506001821660008114612b155760018114612b2a57612b5d565b60ff1983168652811515820286019350612b5d565b612b338561285a565b60005b83811015612b5557815481890152600182019150602081019050612b36565b838801955050505b50505092915050565b6000612b728284612ae3565b915081905092915050565b6000612b88826117f9565b9150612b93836117f9565b9250827fffffffffffffffffffffffffffffffffffffffffffffffffffffffffffffffff03821115612bc857612bc7612783565b5b828201905092915050565b6000612bde82611a74565b612be88185612ad8565b9350612bf8818560208601611a90565b80840191505092915050565b6000612c108284612bd3565b915081905092915050565b600082825260208201905092915050565b7f50726564696374696f6e20506572696f6420697320636c6f7365642100000000600082015250565b6000612c62601c83612c1b565b9150612c6d82612c2c565b602082019050919050565b60006020820190508181036000830152612c9181612c55565b9050919050565b7f546865206e756d626572206f662070726564696374696f6e7320646f65736e2760008201527f74206d6174636821000000000000000000000000000000000000000000000000602082015250565b6000612cf4602883612c1b565b9150612cff82612c98565b604082019050919050565b60006020820190508181036000830152612d2381612ce7565b905091905056fea26469706673582212202037bd0a7da804ccd8cac04b7a249f5ff8037b7872d740e53562859242409c9964736f6c634300080f0033","opcodes":"PUSH1 0x80 PUSH1 0x40 MSTORE CALLVALUE DUP1 ISZERO PUSH2 0x10 JUMPI PUSH1 0x0 DUP1 REVERT JUMPDEST POP PUSH1 0x0 PUSH1 0x8 DUP2 SWAP1 SSTORE POP PUSH2 0x2D60 DUP1 PUSH2 0x28 PUSH1 0x0 CODECOPY PUSH1 0x0 RETURN INVALID PUSH1 0x80 PUSH1 0x40 MSTORE CALLVALUE DUP1 ISZERO PUSH2 0x10 JUMPI PUSH1 0x0 DUP1 REVERT JUMPDEST POP PUSH1 0x4 CALLDATASIZE LT PUSH2 0xEA JUMPI PUSH1 0x0 CALLDATALOAD PUSH1 0xE0 SHR DUP1 PUSH4 0x62436D9D GT PUSH2 0x8C JUMPI DUP1 PUSH4 0x80B41A09 GT PUSH2 0x66 JUMPI DUP1 PUSH4 0x80B41A09 EQ PUSH2 0x293 JUMPI DUP1 PUSH4 0x9FA75E9A EQ PUSH2 0x2C3 JUMPI DUP1 PUSH4 0xEA6A0410 EQ PUSH2 0x2DF JUMPI DUP1 PUSH4 0xFB46BD22 EQ PUSH2 0x30F JUMPI PUSH2 0xEA JUMP JUMPDEST DUP1 PUSH4 0x62436D9D EQ PUSH2 0x203 JUMPI DUP1 PUSH4 0x7E5DD913 EQ PUSH2 0x233 JUMPI DUP1 PUSH4 0x7FB9C45F EQ PUSH2 0x263 JUMPI PUSH2 0xEA JUMP JUMPDEST DUP1 PUSH4 0x1D883342 GT PUSH2 0xC8 JUMPI DUP1 PUSH4 0x1D883342 EQ PUSH2 0x16B JUMPI DUP1 PUSH4 0x1E7741F0 EQ PUSH2 0x19B JUMPI DUP1 PUSH4 0x1F2BF10C EQ PUSH2 0x1CB JUMPI DUP1 PUSH4 0x3302787D EQ PUSH2 0x1E7 JUMPI PUSH2 0xEA JUMP JUMPDEST DUP1 PUSH4 0x117F3998 EQ PUSH2 0xEF JUMPI DUP1 PUSH4 0x1506BCA6 EQ PUSH2 0x11F JUMPI DUP1 PUSH4 0x18699547 EQ PUSH2 0x14F JUMPI JUMPDEST PUSH1 0x0 DUP1 REVERT JUMPDEST PUSH2 0x109 PUSH1 0x4 DUP1 CALLDATASIZE SUB DUP2 ADD SWAP1 PUSH2 0x104 SWAP2 SWAP1 PUSH2 0x188D JUMP JUMPDEST PUSH2 0x32D JUMP JUMPDEST PUSH1 0x40 MLOAD PUSH2 0x116 SWAP2 SWAP1 PUSH2 0x19F9 JUMP JUMPDEST PUSH1 0x40 MLOAD DUP1 SWAP2 SUB SWAP1 RETURN JUMPDEST PUSH2 0x139 PUSH1 0x4 DUP1 CALLDATASIZE SUB DUP2 ADD SWAP1 PUSH2 0x134 SWAP2 SWAP1 PUSH2 0x1A1B JUMP JUMPDEST PUSH2 0x584 JUMP JUMPDEST PUSH1 0x40 MLOAD PUSH2 0x146 SWAP2 SWAP1 PUSH2 0x1BA3 JUMP JUMPDEST PUSH1 0x40 MLOAD DUP1 SWAP2 SUB SWAP1 RETURN JUMPDEST PUSH2 0x169 PUSH1 0x4 DUP1 CALLDATASIZE SUB DUP2 ADD SWAP1 PUSH2 0x164 SWAP2 SWAP1 PUSH2 0x1DE0 JUMP JUMPDEST PUSH2 0x670 JUMP JUMPDEST STOP JUMPDEST PUSH2 0x185 PUSH1 0x4 DUP1 CALLDATASIZE SUB DUP2 ADD SWAP1 PUSH2 0x180 SWAP2 SWAP1 PUSH2 0x1A1B JUMP JUMPDEST PUSH2 0x750 JUMP JUMPDEST PUSH1 0x40 MLOAD PUSH2 0x192 SWAP2 SWAP1 PUSH2 0x1E5E JUMP JUMPDEST PUSH1 0x40 MLOAD DUP1 SWAP2 SUB SWAP1 RETURN JUMPDEST PUSH2 0x1B5 PUSH1 0x4 DUP1 CALLDATASIZE SUB DUP2 ADD SWAP1 PUSH2 0x1B0 SWAP2 SWAP1 PUSH2 0x1EA5 JUMP JUMPDEST PUSH2 0x7F2 JUMP JUMPDEST PUSH1 0x40 MLOAD PUSH2 0x1C2 SWAP2 SWAP1 PUSH2 0x1F01 JUMP JUMPDEST PUSH1 0x40 MLOAD DUP1 SWAP2 SUB SWAP1 RETURN JUMPDEST PUSH2 0x1E5 PUSH1 0x4 DUP1 CALLDATASIZE SUB DUP2 ADD SWAP1 PUSH2 0x1E0 SWAP2 SWAP1 PUSH2 0x20F4 JUMP JUMPDEST PUSH2 0x865 JUMP JUMPDEST STOP JUMPDEST PUSH2 0x201 PUSH1 0x4 DUP1 CALLDATASIZE SUB DUP2 ADD SWAP1 PUSH2 0x1FC SWAP2 SWAP1 PUSH2 0x230D JUMP JUMPDEST PUSH2 0x9F4 JUMP JUMPDEST STOP JUMPDEST PUSH2 0x21D PUSH1 0x4 DUP1 CALLDATASIZE SUB DUP2 ADD SWAP1 PUSH2 0x218 SWAP2 SWAP1 PUSH2 0x1A1B JUMP JUMPDEST PUSH2 0xB46 JUMP JUMPDEST PUSH1 0x40 MLOAD PUSH2 0x22A SWAP2 SWAP1 PUSH2 0x1E5E JUMP JUMPDEST PUSH1 0x40 MLOAD DUP1 SWAP2 SUB SWAP1 RETURN JUMPDEST PUSH2 0x24D PUSH1 0x4 DUP1 CALLDATASIZE SUB DUP2 ADD SWAP1 PUSH2 0x248 SWAP2 SWAP1 PUSH2 0x1A1B JUMP JUMPDEST PUSH2 0xB66 JUMP JUMPDEST PUSH1 0x40 MLOAD PUSH2 0x25A SWAP2 SWAP1 PUSH2 0x2491 JUMP JUMPDEST PUSH1 0x40 MLOAD DUP1 SWAP2 SUB SWAP1 RETURN JUMPDEST PUSH2 0x27D PUSH1 0x4 DUP1 CALLDATASIZE SUB DUP2 ADD SWAP1 PUSH2 0x278 SWAP2 SWAP1 PUSH2 0x188D JUMP JUMPDEST PUSH2 0xE95 JUMP JUMPDEST PUSH1 0x40 MLOAD PUSH2 0x28A SWAP2 SWAP1 PUSH2 0x1E5E JUMP JUMPDEST PUSH1 0x40 MLOAD DUP1 SWAP2 SUB SWAP1 RETURN JUMPDEST PUSH2 0x2AD PUSH1 0x4 DUP1 CALLDATASIZE SUB DUP2 ADD SWAP1 PUSH2 0x2A8 SWAP2 SWAP1 PUSH2 0x24B3 JUMP JUMPDEST PUSH2 0x12AA JUMP JUMPDEST PUSH1 0x40 MLOAD PUSH2 0x2BA SWAP2 SWAP1 PUSH2 0x2579 JUMP JUMPDEST PUSH1 0x40 MLOAD DUP1 SWAP2 SUB SWAP1 RETURN JUMPDEST PUSH2 0x2DD PUSH1 0x4 DUP1 CALLDATASIZE SUB DUP2 ADD SWAP1 PUSH2 0x2D8 SWAP2 SWAP1 PUSH2 0x26C2 JUMP JUMPDEST PUSH2 0x1476 JUMP JUMPDEST STOP JUMPDEST PUSH2 0x2F9 PUSH1 0x4 DUP1 CALLDATASIZE SUB DUP2 ADD SWAP1 PUSH2 0x2F4 SWAP2 SWAP1 PUSH2 0x270B JUMP JUMPDEST PUSH2 0x16EE JUMP JUMPDEST PUSH1 0x40 MLOAD PUSH2 0x306 SWAP2 SWAP1 PUSH2 0x1E5E JUMP JUMPDEST PUSH1 0x40 MLOAD DUP1 SWAP2 SUB SWAP1 RETURN JUMPDEST PUSH2 0x317 PUSH2 0x1718 JUMP JUMPDEST PUSH1 0x40 MLOAD PUSH2 0x324 SWAP2 SWAP1 PUSH2 0x1E5E JUMP JUMPDEST PUSH1 0x40 MLOAD DUP1 SWAP2 SUB SWAP1 RETURN JUMPDEST PUSH1 0x60 PUSH1 0x0 PUSH2 0x33A DUP5 PUSH2 0x750 JUMP JUMPDEST SWAP1 POP PUSH1 0x0 DUP1 DUP3 PUSH8 0xFFFFFFFFFFFFFFFF DUP2 GT ISZERO PUSH2 0x359 JUMPI PUSH2 0x358 PUSH2 0x1BCA JUMP JUMPDEST JUMPDEST PUSH1 0x40 MLOAD SWAP1 DUP1 DUP3 MSTORE DUP1 PUSH1 0x20 MUL PUSH1 0x20 ADD DUP3 ADD PUSH1 0x40 MSTORE DUP1 ISZERO PUSH2 0x392 JUMPI DUP2 PUSH1 0x20 ADD JUMPDEST PUSH2 0x37F PUSH2 0x1763 JUMP JUMPDEST DUP2 MSTORE PUSH1 0x20 ADD SWAP1 PUSH1 0x1 SWAP1 SUB SWAP1 DUP2 PUSH2 0x377 JUMPI SWAP1 POP JUMPDEST POP SWAP1 POP PUSH1 0x0 DUP4 PUSH8 0xFFFFFFFFFFFFFFFF DUP2 GT ISZERO PUSH2 0x3B1 JUMPI PUSH2 0x3B0 PUSH2 0x1BCA JUMP JUMPDEST JUMPDEST PUSH1 0x40 MLOAD SWAP1 DUP1 DUP3 MSTORE DUP1 PUSH1 0x20 MUL PUSH1 0x20 ADD DUP3 ADD PUSH1 0x40 MSTORE DUP1 ISZERO PUSH2 0x3EA JUMPI DUP2 PUSH1 0x20 ADD JUMPDEST PUSH2 0x3D7 PUSH2 0x1790 JUMP JUMPDEST DUP2 MSTORE PUSH1 0x20 ADD SWAP1 PUSH1 0x1 SWAP1 SUB SWAP1 DUP2 PUSH2 0x3CF JUMPI SWAP1 POP JUMPDEST POP SWAP1 POP PUSH2 0x3F6 DUP8 PUSH2 0xB66 JUMP JUMPDEST SWAP1 POP PUSH1 0x0 JUMPDEST DUP5 DUP2 LT ISZERO PUSH2 0x576 JUMPI DUP2 DUP2 DUP2 MLOAD DUP2 LT PUSH2 0x416 JUMPI PUSH2 0x415 PUSH2 0x2754 JUMP JUMPDEST JUMPDEST PUSH1 0x20 MUL PUSH1 0x20 ADD ADD MLOAD PUSH1 0x0 ADD MLOAD SWAP4 POP PUSH1 0x40 MLOAD DUP1 PUSH1 0x60 ADD PUSH1 0x40 MSTORE DUP1 DUP6 PUSH4 0xFFFFFFFF AND DUP2 MSTORE PUSH1 0x20 ADD PUSH1 0x4 PUSH1 0x0 DUP11 PUSH20 0xFFFFFFFFFFFFFFFFFFFFFFFFFFFFFFFFFFFFFFFF AND PUSH20 0xFFFFFFFFFFFFFFFFFFFFFFFFFFFFFFFFFFFFFFFF AND DUP2 MSTORE PUSH1 0x20 ADD SWAP1 DUP2 MSTORE PUSH1 0x20 ADD PUSH1 0x0 KECCAK256 PUSH1 0x0 DUP12 DUP2 MSTORE PUSH1 0x20 ADD SWAP1 DUP2 MSTORE PUSH1 0x20 ADD PUSH1 0x0 KECCAK256 PUSH1 0x0 DUP8 PUSH4 0xFFFFFFFF AND PUSH4 0xFFFFFFFF AND DUP2 MSTORE PUSH1 0x20 ADD SWAP1 DUP2 MSTORE PUSH1 0x20 ADD PUSH1 0x0 KECCAK256 PUSH1 0x0 ADD PUSH1 0x0 SWAP1 SLOAD SWAP1 PUSH2 0x100 EXP SWAP1 DIV PUSH1 0xFF AND PUSH1 0xFF AND DUP2 MSTORE PUSH1 0x20 ADD PUSH1 0x4 PUSH1 0x0 DUP11 PUSH20 0xFFFFFFFFFFFFFFFFFFFFFFFFFFFFFFFFFFFFFFFF AND PUSH20 0xFFFFFFFFFFFFFFFFFFFFFFFFFFFFFFFFFFFFFFFF AND DUP2 MSTORE PUSH1 0x20 ADD SWAP1 DUP2 MSTORE PUSH1 0x20 ADD PUSH1 0x0 KECCAK256 PUSH1 0x0 DUP12 DUP2 MSTORE PUSH1 0x20 ADD SWAP1 DUP2 MSTORE PUSH1 0x20 ADD PUSH1 0x0 KECCAK256 PUSH1 0x0 DUP8 PUSH4 0xFFFFFFFF AND PUSH4 0xFFFFFFFF AND DUP2 MSTORE PUSH1 0x20 ADD SWAP1 DUP2 MSTORE PUSH1 0x20 ADD PUSH1 0x0 KECCAK256 PUSH1 0x0 ADD PUSH1 0x1 SWAP1 SLOAD SWAP1 PUSH2 0x100 EXP SWAP1 DIV PUSH1 0xFF AND PUSH1 0xFF AND DUP2 MSTORE POP DUP4 DUP3 DUP2 MLOAD DUP2 LT PUSH2 0x558 JUMPI PUSH2 0x557 PUSH2 0x2754 JUMP JUMPDEST JUMPDEST PUSH1 0x20 MUL PUSH1 0x20 ADD ADD DUP2 SWAP1 MSTORE POP DUP1 DUP1 PUSH2 0x56E SWAP1 PUSH2 0x27B2 JUMP JUMPDEST SWAP2 POP POP PUSH2 0x3FB JUMP JUMPDEST POP DUP2 SWAP5 POP POP POP POP POP SWAP3 SWAP2 POP POP JUMP JUMPDEST PUSH1 0x60 PUSH1 0x1 PUSH1 0x0 DUP4 DUP2 MSTORE PUSH1 0x20 ADD SWAP1 DUP2 MSTORE PUSH1 0x20 ADD PUSH1 0x0 KECCAK256 DUP1 SLOAD DUP1 PUSH1 0x20 MUL PUSH1 0x20 ADD PUSH1 0x40 MLOAD SWAP1 DUP2 ADD PUSH1 0x40 MSTORE DUP1 SWAP3 SWAP2 SWAP1 DUP2 DUP2 MSTORE PUSH1 0x20 ADD PUSH1 0x0 SWAP1 JUMPDEST DUP3 DUP3 LT ISZERO PUSH2 0x665 JUMPI DUP4 DUP3 SWAP1 PUSH1 0x0 MSTORE PUSH1 0x20 PUSH1 0x0 KECCAK256 ADD DUP1 SLOAD PUSH2 0x5D8 SWAP1 PUSH2 0x2829 JUMP JUMPDEST DUP1 PUSH1 0x1F ADD PUSH1 0x20 DUP1 SWAP2 DIV MUL PUSH1 0x20 ADD PUSH1 0x40 MLOAD SWAP1 DUP2 ADD PUSH1 0x40 MSTORE DUP1 SWAP3 SWAP2 SWAP1 DUP2 DUP2 MSTORE PUSH1 0x20 ADD DUP3 DUP1 SLOAD PUSH2 0x604 SWAP1 PUSH2 0x2829 JUMP JUMPDEST DUP1 ISZERO PUSH2 0x651 JUMPI DUP1 PUSH1 0x1F LT PUSH2 0x626 JUMPI PUSH2 0x100 DUP1 DUP4 SLOAD DIV MUL DUP4 MSTORE SWAP2 PUSH1 0x20 ADD SWAP2 PUSH2 0x651 JUMP JUMPDEST DUP3 ADD SWAP2 SWAP1 PUSH1 0x0 MSTORE PUSH1 0x20 PUSH1 0x0 KECCAK256 SWAP1 JUMPDEST DUP2 SLOAD DUP2 MSTORE SWAP1 PUSH1 0x1 ADD SWAP1 PUSH1 0x20 ADD DUP1 DUP4 GT PUSH2 0x634 JUMPI DUP3 SWAP1 SUB PUSH1 0x1F AND DUP3 ADD SWAP2 JUMPDEST POP POP POP POP POP DUP2 MSTORE PUSH1 0x20 ADD SWAP1 PUSH1 0x1 ADD SWAP1 PUSH2 0x5B9 JUMP JUMPDEST POP POP POP POP SWAP1 POP SWAP2 SWAP1 POP JUMP JUMPDEST PUSH1 0x8 PUSH1 0x0 DUP2 SLOAD DUP1 SWAP3 SWAP2 SWAP1 PUSH2 0x683 SWAP1 PUSH2 0x27B2 JUMP JUMPDEST SWAP2 SWAP1 POP SSTORE POP PUSH1 0x0 JUMPDEST DUP3 MLOAD DUP2 LT ISZERO PUSH2 0x709 JUMPI PUSH1 0x1 PUSH1 0x0 PUSH1 0x8 SLOAD DUP2 MSTORE PUSH1 0x20 ADD SWAP1 DUP2 MSTORE PUSH1 0x20 ADD PUSH1 0x0 KECCAK256 DUP4 DUP3 DUP2 MLOAD DUP2 LT PUSH2 0x6BC JUMPI PUSH2 0x6BB PUSH2 0x2754 JUMP JUMPDEST JUMPDEST PUSH1 0x20 MUL PUSH1 0x20 ADD ADD MLOAD SWAP1 DUP1 PUSH1 0x1 DUP2 SLOAD ADD DUP1 DUP3 SSTORE DUP1 SWAP2 POP POP PUSH1 0x1 SWAP1 SUB SWAP1 PUSH1 0x0 MSTORE PUSH1 0x20 PUSH1 0x0 KECCAK256 ADD PUSH1 0x0 SWAP1 SWAP2 SWAP1 SWAP2 SWAP1 SWAP2 POP SWAP1 DUP2 PUSH2 0x6F5 SWAP2 SWAP1 PUSH2 0x2A06 JUMP JUMPDEST POP DUP1 DUP1 PUSH2 0x701 SWAP1 PUSH2 0x27B2 JUMP JUMPDEST SWAP2 POP POP PUSH2 0x68B JUMP JUMPDEST POP PUSH1 0x40 MLOAD DUP1 PUSH1 0x40 ADD PUSH1 0x40 MSTORE DUP1 DUP5 DUP2 MSTORE PUSH1 0x20 ADD DUP3 DUP2 MSTORE POP PUSH1 0x2 PUSH1 0x0 PUSH1 0x8 SLOAD DUP2 MSTORE PUSH1 0x20 ADD SWAP1 DUP2 MSTORE PUSH1 0x20 ADD PUSH1 0x0 KECCAK256 PUSH1 0x0 DUP3 ADD MLOAD DUP2 PUSH1 0x0 ADD SSTORE PUSH1 0x20 DUP3 ADD MLOAD DUP2 PUSH1 0x1 ADD SSTORE SWAP1 POP POP POP POP POP JUMP JUMPDEST PUSH1 0x0 DUP1 PUSH1 0x0 SWAP1 POP PUSH1 0x0 JUMPDEST PUSH1 0x1 PUSH1 0x0 DUP6 DUP2 MSTORE PUSH1 0x20 ADD SWAP1 DUP2 MSTORE PUSH1 0x20 ADD PUSH1 0x0 KECCAK256 DUP1 SLOAD SWAP1 POP DUP2 LT ISZERO PUSH2 0x7E8 JUMPI PUSH1 0x0 PUSH1 0x1 PUSH1 0x0 DUP7 DUP2 MSTORE PUSH1 0x20 ADD SWAP1 DUP2 MSTORE PUSH1 0x20 ADD PUSH1 0x0 KECCAK256 DUP3 DUP2 SLOAD DUP2 LT PUSH2 0x79F JUMPI PUSH2 0x79E PUSH2 0x2754 JUMP JUMPDEST JUMPDEST SWAP1 PUSH1 0x0 MSTORE PUSH1 0x20 PUSH1 0x0 KECCAK256 ADD PUSH1 0x40 MLOAD PUSH2 0x7B6 SWAP2 SWAP1 PUSH2 0x2B66 JUMP JUMPDEST SWAP1 DUP2 MSTORE PUSH1 0x20 ADD PUSH1 0x40 MLOAD DUP1 SWAP2 SUB SWAP1 KECCAK256 DUP1 SLOAD SWAP1 POP DUP3 PUSH2 0x7D3 SWAP2 SWAP1 PUSH2 0x2B7D JUMP JUMPDEST SWAP2 POP DUP1 DUP1 PUSH2 0x7E0 SWAP1 PUSH2 0x27B2 JUMP JUMPDEST SWAP2 POP POP PUSH2 0x75A JUMP JUMPDEST POP DUP1 SWAP2 POP POP SWAP2 SWAP1 POP JUMP JUMPDEST PUSH2 0x7FA PUSH2 0x17C5 JUMP JUMPDEST PUSH1 0x3 PUSH1 0x0 DUP4 PUSH4 0xFFFFFFFF AND PUSH4 0xFFFFFFFF AND DUP2 MSTORE PUSH1 0x20 ADD SWAP1 DUP2 MSTORE PUSH1 0x20 ADD PUSH1 0x0 KECCAK256 PUSH1 0x40 MLOAD DUP1 PUSH1 0x40 ADD PUSH1 0x40 MSTORE SWAP1 DUP2 PUSH1 0x0 DUP3 ADD PUSH1 0x0 SWAP1 SLOAD SWAP1 PUSH2 0x100 EXP SWAP1 DIV PUSH1 0xFF AND PUSH1 0xFF AND PUSH1 0xFF AND DUP2 MSTORE PUSH1 0x20 ADD PUSH1 0x0 DUP3 ADD PUSH1 0x1 SWAP1 SLOAD SWAP1 PUSH2 0x100 EXP SWAP1 DIV PUSH1 0xFF AND PUSH1 0xFF AND PUSH1 0xFF AND DUP2 MSTORE POP POP SWAP1 POP SWAP2 SWAP1 POP JUMP JUMPDEST PUSH1 0x0 JUMPDEST DUP2 MLOAD DUP2 LT ISZERO PUSH2 0x9EF JUMPI PUSH1 0x0 DUP4 PUSH1 0x40 MLOAD PUSH2 0x881 SWAP2 SWAP1 PUSH2 0x2C04 JUMP JUMPDEST SWAP1 DUP2 MSTORE PUSH1 0x20 ADD PUSH1 0x40 MLOAD DUP1 SWAP2 SUB SWAP1 KECCAK256 PUSH1 0x40 MLOAD DUP1 PUSH1 0x80 ADD PUSH1 0x40 MSTORE DUP1 DUP5 DUP5 DUP2 MLOAD DUP2 LT PUSH2 0x8AD JUMPI PUSH2 0x8AC PUSH2 0x2754 JUMP JUMPDEST JUMPDEST PUSH1 0x20 MUL PUSH1 0x20 ADD ADD MLOAD PUSH1 0x0 ADD MLOAD PUSH4 0xFFFFFFFF AND DUP2 MSTORE PUSH1 0x20 ADD DUP5 DUP5 DUP2 MLOAD DUP2 LT PUSH2 0x8D7 JUMPI PUSH2 0x8D6 PUSH2 0x2754 JUMP JUMPDEST JUMPDEST PUSH1 0x20 MUL PUSH1 0x20 ADD ADD MLOAD PUSH1 0x20 ADD MLOAD PUSH5 0xFFFFFFFFFF AND DUP2 MSTORE PUSH1 0x20 ADD DUP5 DUP5 DUP2 MLOAD DUP2 LT PUSH2 0x902 JUMPI PUSH2 0x901 PUSH2 0x2754 JUMP JUMPDEST JUMPDEST PUSH1 0x20 MUL PUSH1 0x20 ADD ADD MLOAD PUSH1 0x40 ADD MLOAD DUP2 MSTORE PUSH1 0x20 ADD DUP5 DUP5 DUP2 MLOAD DUP2 LT PUSH2 0x926 JUMPI PUSH2 0x925 PUSH2 0x2754 JUMP JUMPDEST JUMPDEST PUSH1 0x20 MUL PUSH1 0x20 ADD ADD MLOAD PUSH1 0x60 ADD MLOAD DUP2 MSTORE POP SWAP1 DUP1 PUSH1 0x1 DUP2 SLOAD ADD DUP1 DUP3 SSTORE DUP1 SWAP2 POP POP PUSH1 0x1 SWAP1 SUB SWAP1 PUSH1 0x0 MSTORE PUSH1 0x20 PUSH1 0x0 KECCAK256 SWAP1 PUSH1 0x3 MUL ADD PUSH1 0x0 SWAP1 SWAP2 SWAP1 SWAP2 SWAP1 SWAP2 POP PUSH1 0x0 DUP3 ADD MLOAD DUP2 PUSH1 0x0 ADD PUSH1 0x0 PUSH2 0x100 EXP DUP2 SLOAD DUP2 PUSH4 0xFFFFFFFF MUL NOT AND SWAP1 DUP4 PUSH4 0xFFFFFFFF AND MUL OR SWAP1 SSTORE POP PUSH1 0x20 DUP3 ADD MLOAD DUP2 PUSH1 0x0 ADD PUSH1 0x4 PUSH2 0x100 EXP DUP2 SLOAD DUP2 PUSH5 0xFFFFFFFFFF MUL NOT AND SWAP1 DUP4 PUSH5 0xFFFFFFFFFF AND MUL OR SWAP1 SSTORE POP PUSH1 0x40 DUP3 ADD MLOAD DUP2 PUSH1 0x1 ADD SWAP1 DUP2 PUSH2 0x9C3 SWAP2 SWAP1 PUSH2 0x2A06 JUMP JUMPDEST POP PUSH1 0x60 DUP3 ADD MLOAD DUP2 PUSH1 0x2 ADD SWAP1 DUP2 PUSH2 0x9D9 SWAP2 SWAP1 PUSH2 0x2A06 JUMP JUMPDEST POP POP POP DUP1 DUP1 PUSH2 0x9E7 SWAP1 PUSH2 0x27B2 JUMP JUMPDEST SWAP2 POP POP PUSH2 0x868 JUMP JUMPDEST POP POP POP JUMP JUMPDEST PUSH1 0x0 JUMPDEST DUP2 MLOAD DUP2 LT ISZERO PUSH2 0xB42 JUMPI PUSH1 0x40 MLOAD DUP1 PUSH1 0x40 ADD PUSH1 0x40 MSTORE DUP1 DUP4 DUP4 DUP2 MLOAD DUP2 LT PUSH2 0xA1E JUMPI PUSH2 0xA1D PUSH2 0x2754 JUMP JUMPDEST JUMPDEST PUSH1 0x20 MUL PUSH1 0x20 ADD ADD MLOAD PUSH1 0x20 ADD MLOAD PUSH1 0xFF AND DUP2 MSTORE PUSH1 0x20 ADD DUP4 DUP4 DUP2 MLOAD DUP2 LT PUSH2 0xA45 JUMPI PUSH2 0xA44 PUSH2 0x2754 JUMP JUMPDEST JUMPDEST PUSH1 0x20 MUL PUSH1 0x20 ADD ADD MLOAD PUSH1 0x40 ADD MLOAD PUSH1 0xFF AND DUP2 MSTORE POP PUSH1 0x3 PUSH1 0x0 DUP5 DUP5 DUP2 MLOAD DUP2 LT PUSH2 0xA6E JUMPI PUSH2 0xA6D PUSH2 0x2754 JUMP JUMPDEST JUMPDEST PUSH1 0x20 MUL PUSH1 0x20 ADD ADD MLOAD PUSH1 0x0 ADD MLOAD PUSH4 0xFFFFFFFF AND PUSH4 0xFFFFFFFF AND DUP2 MSTORE PUSH1 0x20 ADD SWAP1 DUP2 MSTORE PUSH1 0x20 ADD PUSH1 0x0 KECCAK256 PUSH1 0x0 DUP3 ADD MLOAD DUP2 PUSH1 0x0 ADD PUSH1 0x0 PUSH2 0x100 EXP DUP2 SLOAD DUP2 PUSH1 0xFF MUL NOT AND SWAP1 DUP4 PUSH1 0xFF AND MUL OR SWAP1 SSTORE POP PUSH1 0x20 DUP3 ADD MLOAD DUP2 PUSH1 0x0 ADD PUSH1 0x1 PUSH2 0x100 EXP DUP2 SLOAD DUP2 PUSH1 0xFF MUL NOT AND SWAP1 DUP4 PUSH1 0xFF AND MUL OR SWAP1 SSTORE POP SWAP1 POP POP PUSH1 0x1 PUSH1 0x9 PUSH1 0x0 DUP5 DUP5 DUP2 MLOAD DUP2 LT PUSH2 0xAF2 JUMPI PUSH2 0xAF1 PUSH2 0x2754 JUMP JUMPDEST JUMPDEST PUSH1 0x20 MUL PUSH1 0x20 ADD ADD MLOAD PUSH1 0x0 ADD MLOAD PUSH4 0xFFFFFFFF AND PUSH4 0xFFFFFFFF AND DUP2 MSTORE PUSH1 0x20 ADD SWAP1 DUP2 MSTORE PUSH1 0x20 ADD PUSH1 0x0 KECCAK256 PUSH1 0x0 PUSH2 0x100 EXP DUP2 SLOAD DUP2 PUSH1 0xFF MUL NOT AND SWAP1 DUP4 ISZERO ISZERO MUL OR SWAP1 SSTORE POP DUP1 DUP1 PUSH2 0xB3A SWAP1 PUSH2 0x27B2 JUMP JUMPDEST SWAP2 POP POP PUSH2 0x9F7 JUMP JUMPDEST POP POP JUMP JUMPDEST PUSH1 0x0 PUSH1 0x5 PUSH1 0x0 DUP4 DUP2 MSTORE PUSH1 0x20 ADD SWAP1 DUP2 MSTORE PUSH1 0x20 ADD PUSH1 0x0 KECCAK256 DUP1 SLOAD SWAP1 POP SWAP1 POP SWAP2 SWAP1 POP JUMP JUMPDEST PUSH1 0x60 PUSH1 0x0 PUSH2 0xB73 DUP4 PUSH2 0x750 JUMP JUMPDEST SWAP1 POP PUSH1 0x0 DUP1 DUP3 PUSH8 0xFFFFFFFFFFFFFFFF DUP2 GT ISZERO PUSH2 0xB92 JUMPI PUSH2 0xB91 PUSH2 0x1BCA JUMP JUMPDEST JUMPDEST PUSH1 0x40 MLOAD SWAP1 DUP1 DUP3 MSTORE DUP1 PUSH1 0x20 MUL PUSH1 0x20 ADD DUP3 ADD PUSH1 0x40 MSTORE DUP1 ISZERO PUSH2 0xBCB JUMPI DUP2 PUSH1 0x20 ADD JUMPDEST PUSH2 0xBB8 PUSH2 0x1790 JUMP JUMPDEST DUP2 MSTORE PUSH1 0x20 ADD SWAP1 PUSH1 0x1 SWAP1 SUB SWAP1 DUP2 PUSH2 0xBB0 JUMPI SWAP1 POP JUMPDEST POP SWAP1 POP PUSH1 0x0 JUMPDEST PUSH1 0x1 PUSH1 0x0 DUP8 DUP2 MSTORE PUSH1 0x20 ADD SWAP1 DUP2 MSTORE PUSH1 0x20 ADD PUSH1 0x0 KECCAK256 DUP1 SLOAD SWAP1 POP DUP2 LT ISZERO PUSH2 0xE89 JUMPI PUSH1 0x0 PUSH1 0x1 PUSH1 0x0 DUP9 DUP2 MSTORE PUSH1 0x20 ADD SWAP1 DUP2 MSTORE PUSH1 0x20 ADD PUSH1 0x0 KECCAK256 DUP3 DUP2 SLOAD DUP2 LT PUSH2 0xC16 JUMPI PUSH2 0xC15 PUSH2 0x2754 JUMP JUMPDEST JUMPDEST SWAP1 PUSH1 0x0 MSTORE PUSH1 0x20 PUSH1 0x0 KECCAK256 ADD PUSH1 0x40 MLOAD PUSH2 0xC2D SWAP2 SWAP1 PUSH2 0x2B66 JUMP JUMPDEST SWAP1 DUP2 MSTORE PUSH1 0x20 ADD PUSH1 0x40 MLOAD DUP1 SWAP2 SUB SWAP1 KECCAK256 DUP1 SLOAD SWAP1 POP SWAP4 POP PUSH1 0x0 JUMPDEST DUP5 DUP2 LT ISZERO PUSH2 0xE75 JUMPI PUSH1 0x0 PUSH1 0x1 PUSH1 0x0 DUP10 DUP2 MSTORE PUSH1 0x20 ADD SWAP1 DUP2 MSTORE PUSH1 0x20 ADD PUSH1 0x0 KECCAK256 DUP4 DUP2 SLOAD DUP2 LT PUSH2 0xC73 JUMPI PUSH2 0xC72 PUSH2 0x2754 JUMP JUMPDEST JUMPDEST SWAP1 PUSH1 0x0 MSTORE PUSH1 0x20 PUSH1 0x0 KECCAK256 ADD PUSH1 0x40 MLOAD PUSH2 0xC8A SWAP2 SWAP1 PUSH2 0x2B66 JUMP JUMPDEST SWAP1 DUP2 MSTORE PUSH1 0x20 ADD PUSH1 0x40 MLOAD DUP1 SWAP2 SUB SWAP1 KECCAK256 DUP2 DUP2 SLOAD DUP2 LT PUSH2 0xCAA JUMPI PUSH2 0xCA9 PUSH2 0x2754 JUMP JUMPDEST JUMPDEST SWAP1 PUSH1 0x0 MSTORE PUSH1 0x20 PUSH1 0x0 KECCAK256 SWAP1 PUSH1 0x3 MUL ADD PUSH1 0x40 MLOAD DUP1 PUSH1 0x80 ADD PUSH1 0x40 MSTORE SWAP1 DUP2 PUSH1 0x0 DUP3 ADD PUSH1 0x0 SWAP1 SLOAD SWAP1 PUSH2 0x100 EXP SWAP1 DIV PUSH4 0xFFFFFFFF AND PUSH4 0xFFFFFFFF AND PUSH4 0xFFFFFFFF AND DUP2 MSTORE PUSH1 0x20 ADD PUSH1 0x0 DUP3 ADD PUSH1 0x4 SWAP1 SLOAD SWAP1 PUSH2 0x100 EXP SWAP1 DIV PUSH5 0xFFFFFFFFFF AND PUSH5 0xFFFFFFFFFF AND PUSH5 0xFFFFFFFFFF AND DUP2 MSTORE PUSH1 0x20 ADD PUSH1 0x1 DUP3 ADD DUP1 SLOAD PUSH2 0xD22 SWAP1 PUSH2 0x2829 JUMP JUMPDEST DUP1 PUSH1 0x1F ADD PUSH1 0x20 DUP1 SWAP2 DIV MUL PUSH1 0x20 ADD PUSH1 0x40 MLOAD SWAP1 DUP2 ADD PUSH1 0x40 MSTORE DUP1 SWAP3 SWAP2 SWAP1 DUP2 DUP2 MSTORE PUSH1 0x20 ADD DUP3 DUP1 SLOAD PUSH2 0xD4E SWAP1 PUSH2 0x2829 JUMP JUMPDEST DUP1 ISZERO PUSH2 0xD9B JUMPI DUP1 PUSH1 0x1F LT PUSH2 0xD70 JUMPI PUSH2 0x100 DUP1 DUP4 SLOAD DIV MUL DUP4 MSTORE SWAP2 PUSH1 0x20 ADD SWAP2 PUSH2 0xD9B JUMP JUMPDEST DUP3 ADD SWAP2 SWAP1 PUSH1 0x0 MSTORE PUSH1 0x20 PUSH1 0x0 KECCAK256 SWAP1 JUMPDEST DUP2 SLOAD DUP2 MSTORE SWAP1 PUSH1 0x1 ADD SWAP1 PUSH1 0x20 ADD DUP1 DUP4 GT PUSH2 0xD7E JUMPI DUP3 SWAP1 SUB PUSH1 0x1F AND DUP3 ADD SWAP2 JUMPDEST POP POP POP POP POP DUP2 MSTORE PUSH1 0x20 ADD PUSH1 0x2 DUP3 ADD DUP1 SLOAD PUSH2 0xDB4 SWAP1 PUSH2 0x2829 JUMP JUMPDEST DUP1 PUSH1 0x1F ADD PUSH1 0x20 DUP1 SWAP2 DIV MUL PUSH1 0x20 ADD PUSH1 0x40 MLOAD SWAP1 DUP2 ADD PUSH1 0x40 MSTORE DUP1 SWAP3 SWAP2 SWAP1 DUP2 DUP2 MSTORE PUSH1 0x20 ADD DUP3 DUP1 SLOAD PUSH2 0xDE0 SWAP1 PUSH2 0x2829 JUMP JUMPDEST DUP1 ISZERO PUSH2 0xE2D JUMPI DUP1 PUSH1 0x1F LT PUSH2 0xE02 JUMPI PUSH2 0x100 DUP1 DUP4 SLOAD DIV MUL DUP4 MSTORE SWAP2 PUSH1 0x20 ADD SWAP2 PUSH2 0xE2D JUMP JUMPDEST DUP3 ADD SWAP2 SWAP1 PUSH1 0x0 MSTORE PUSH1 0x20 PUSH1 0x0 KECCAK256 SWAP1 JUMPDEST DUP2 SLOAD DUP2 MSTORE SWAP1 PUSH1 0x1 ADD SWAP1 PUSH1 0x20 ADD DUP1 DUP4 GT PUSH2 0xE10 JUMPI DUP3 SWAP1 SUB PUSH1 0x1F AND DUP3 ADD SWAP2 JUMPDEST POP POP POP POP POP DUP2 MSTORE POP POP DUP4 DUP6 DUP2 MLOAD DUP2 LT PUSH2 0xE49 JUMPI PUSH2 0xE48 PUSH2 0x2754 JUMP JUMPDEST JUMPDEST PUSH1 0x20 MUL PUSH1 0x20 ADD ADD DUP2 SWAP1 MSTORE POP DUP4 DUP1 PUSH2 0xE5F SWAP1 PUSH2 0x27B2 JUMP JUMPDEST SWAP5 POP POP DUP1 DUP1 PUSH2 0xE6D SWAP1 PUSH2 0x27B2 JUMP JUMPDEST SWAP2 POP POP PUSH2 0xC44 JUMP JUMPDEST POP DUP1 DUP1 PUSH2 0xE81 SWAP1 PUSH2 0x27B2 JUMP JUMPDEST SWAP2 POP POP PUSH2 0xBD1 JUMP JUMPDEST POP DUP1 SWAP4 POP POP POP POP SWAP2 SWAP1 POP JUMP JUMPDEST PUSH1 0x0 DUP1 PUSH1 0x0 DUP1 PUSH1 0x0 SWAP1 POP PUSH1 0x0 DUP1 PUSH2 0xEAB DUP9 PUSH2 0x750 JUMP JUMPDEST SWAP1 POP PUSH1 0x0 DUP2 PUSH8 0xFFFFFFFFFFFFFFFF DUP2 GT ISZERO PUSH2 0xEC9 JUMPI PUSH2 0xEC8 PUSH2 0x1BCA JUMP JUMPDEST JUMPDEST PUSH1 0x40 MLOAD SWAP1 DUP1 DUP3 MSTORE DUP1 PUSH1 0x20 MUL PUSH1 0x20 ADD DUP3 ADD PUSH1 0x40 MSTORE DUP1 ISZERO PUSH2 0xF02 JUMPI DUP2 PUSH1 0x20 ADD JUMPDEST PUSH2 0xEEF PUSH2 0x1790 JUMP JUMPDEST DUP2 MSTORE PUSH1 0x20 ADD SWAP1 PUSH1 0x1 SWAP1 SUB SWAP1 DUP2 PUSH2 0xEE7 JUMPI SWAP1 POP JUMPDEST POP SWAP1 POP PUSH2 0xF0E DUP10 PUSH2 0xB66 JUMP JUMPDEST SWAP1 POP PUSH1 0x0 JUMPDEST DUP3 DUP2 LT ISZERO PUSH2 0x129A JUMPI DUP2 DUP2 DUP2 MLOAD DUP2 LT PUSH2 0xF2E JUMPI PUSH2 0xF2D PUSH2 0x2754 JUMP JUMPDEST JUMPDEST PUSH1 0x20 MUL PUSH1 0x20 ADD ADD MLOAD PUSH1 0x0 ADD MLOAD SWAP4 POP PUSH2 0x1040 PUSH1 0x4 PUSH1 0x0 DUP12 PUSH20 0xFFFFFFFFFFFFFFFFFFFFFFFFFFFFFFFFFFFFFFFF AND PUSH20 0xFFFFFFFFFFFFFFFFFFFFFFFFFFFFFFFFFFFFFFFF AND DUP2 MSTORE PUSH1 0x20 ADD SWAP1 DUP2 MSTORE PUSH1 0x20 ADD PUSH1 0x0 KECCAK256 PUSH1 0x0 DUP13 DUP2 MSTORE PUSH1 0x20 ADD SWAP1 DUP2 MSTORE PUSH1 0x20 ADD PUSH1 0x0 KECCAK256 PUSH1 0x0 DUP7 PUSH4 0xFFFFFFFF AND PUSH4 0xFFFFFFFF AND DUP2 MSTORE PUSH1 0x20 ADD SWAP1 DUP2 MSTORE PUSH1 0x20 ADD PUSH1 0x0 KECCAK256 PUSH1 0x0 ADD PUSH1 0x0 SWAP1 SLOAD SWAP1 PUSH2 0x100 EXP SWAP1 DIV PUSH1 0xFF AND PUSH1 0x4 PUSH1 0x0 DUP13 PUSH20 0xFFFFFFFFFFFFFFFFFFFFFFFFFFFFFFFFFFFFFFFF AND PUSH20 0xFFFFFFFFFFFFFFFFFFFFFFFFFFFFFFFFFFFFFFFF AND DUP2 MSTORE PUSH1 0x20 ADD SWAP1 DUP2 MSTORE PUSH1 0x20 ADD PUSH1 0x0 KECCAK256 PUSH1 0x0 DUP14 DUP2 MSTORE PUSH1 0x20 ADD SWAP1 DUP2 MSTORE PUSH1 0x20 ADD PUSH1 0x0 KECCAK256 PUSH1 0x0 DUP8 PUSH4 0xFFFFFFFF AND PUSH4 0xFFFFFFFF AND DUP2 MSTORE PUSH1 0x20 ADD SWAP1 DUP2 MSTORE PUSH1 0x20 ADD PUSH1 0x0 KECCAK256 PUSH1 0x0 ADD PUSH1 0x1 SWAP1 SLOAD SWAP1 PUSH2 0x100 EXP SWAP1 DIV PUSH1 0xFF AND PUSH2 0x1722 JUMP JUMPDEST SWAP7 POP PUSH2 0x10AA PUSH1 0x3 PUSH1 0x0 DUP7 PUSH4 0xFFFFFFFF AND PUSH4 0xFFFFFFFF AND DUP2 MSTORE PUSH1 0x20 ADD SWAP1 DUP2 MSTORE PUSH1 0x20 ADD PUSH1 0x0 KECCAK256 PUSH1 0x0 ADD PUSH1 0x0 SWAP1 SLOAD SWAP1 PUSH2 0x100 EXP SWAP1 DIV PUSH1 0xFF AND PUSH1 0x3 PUSH1 0x0 DUP8 PUSH4 0xFFFFFFFF AND PUSH4 0xFFFFFFFF AND DUP2 MSTORE PUSH1 0x20 ADD SWAP1 DUP2 MSTORE PUSH1 0x20 ADD PUSH1 0x0 KECCAK256 PUSH1 0x0 ADD PUSH1 0x1 SWAP1 SLOAD SWAP1 PUSH2 0x100 EXP SWAP1 DIV PUSH1 0xFF AND PUSH2 0x1722 JUMP JUMPDEST SWAP6 POP DUP6 DUP8 EQ DUP1 ISZERO PUSH2 0x10EB JUMPI POP PUSH1 0x1 ISZERO ISZERO PUSH1 0x9 PUSH1 0x0 DUP7 PUSH4 0xFFFFFFFF AND PUSH4 0xFFFFFFFF AND DUP2 MSTORE PUSH1 0x20 ADD SWAP1 DUP2 MSTORE PUSH1 0x20 ADD PUSH1 0x0 KECCAK256 PUSH1 0x0 SWAP1 SLOAD SWAP1 PUSH2 0x100 EXP SWAP1 DIV PUSH1 0xFF AND ISZERO ISZERO EQ JUMPDEST ISZERO PUSH2 0x1287 JUMPI PUSH1 0x1 DUP6 PUSH2 0x10FD SWAP2 SWAP1 PUSH2 0x2B7D JUMP JUMPDEST SWAP5 POP PUSH1 0x3 PUSH1 0x0 DUP6 PUSH4 0xFFFFFFFF AND PUSH4 0xFFFFFFFF AND DUP2 MSTORE PUSH1 0x20 ADD SWAP1 DUP2 MSTORE PUSH1 0x20 ADD PUSH1 0x0 KECCAK256 PUSH1 0x0 ADD PUSH1 0x0 SWAP1 SLOAD SWAP1 PUSH2 0x100 EXP SWAP1 DIV PUSH1 0xFF AND PUSH1 0xFF AND PUSH1 0x4 PUSH1 0x0 DUP12 PUSH20 0xFFFFFFFFFFFFFFFFFFFFFFFFFFFFFFFFFFFFFFFF AND PUSH20 0xFFFFFFFFFFFFFFFFFFFFFFFFFFFFFFFFFFFFFFFF AND DUP2 MSTORE PUSH1 0x20 ADD SWAP1 DUP2 MSTORE PUSH1 0x20 ADD PUSH1 0x0 KECCAK256 PUSH1 0x0 DUP13 DUP2 MSTORE PUSH1 0x20 ADD SWAP1 DUP2 MSTORE PUSH1 0x20 ADD PUSH1 0x0 KECCAK256 PUSH1 0x0 DUP7 PUSH4 0xFFFFFFFF AND PUSH4 0xFFFFFFFF AND DUP2 MSTORE PUSH1 0x20 ADD SWAP1 DUP2 MSTORE PUSH1 0x20 ADD PUSH1 0x0 KECCAK256 PUSH1 0x0 ADD PUSH1 0x0 SWAP1 SLOAD SWAP1 PUSH2 0x100 EXP SWAP1 DIV PUSH1 0xFF AND PUSH1 0xFF AND EQ DUP1 ISZERO PUSH2 0x1271 JUMPI POP PUSH1 0x3 PUSH1 0x0 DUP6 PUSH4 0xFFFFFFFF AND PUSH4 0xFFFFFFFF AND DUP2 MSTORE PUSH1 0x20 ADD SWAP1 DUP2 MSTORE PUSH1 0x20 ADD PUSH1 0x0 KECCAK256 PUSH1 0x0 ADD PUSH1 0x1 SWAP1 SLOAD SWAP1 PUSH2 0x100 EXP SWAP1 DIV PUSH1 0xFF AND PUSH1 0xFF AND PUSH1 0x4 PUSH1 0x0 DUP12 PUSH20 0xFFFFFFFFFFFFFFFFFFFFFFFFFFFFFFFFFFFFFFFF AND PUSH20 0xFFFFFFFFFFFFFFFFFFFFFFFFFFFFFFFFFFFFFFFF AND DUP2 MSTORE PUSH1 0x20 ADD SWAP1 DUP2 MSTORE PUSH1 0x20 ADD PUSH1 0x0 KECCAK256 PUSH1 0x0 DUP13 DUP2 MSTORE PUSH1 0x20 ADD SWAP1 DUP2 MSTORE PUSH1 0x20 ADD PUSH1 0x0 KECCAK256 PUSH1 0x0 DUP7 PUSH4 0xFFFFFFFF AND PUSH4 0xFFFFFFFF AND DUP2 MSTORE PUSH1 0x20 ADD SWAP1 DUP2 MSTORE PUSH1 0x20 ADD PUSH1 0x0 KECCAK256 PUSH1 0x0 ADD PUSH1 0x1 SWAP1 SLOAD SWAP1 PUSH2 0x100 EXP SWAP1 DIV PUSH1 0xFF AND PUSH1 0xFF AND EQ JUMPDEST ISZERO PUSH2 0x1286 JUMPI PUSH1 0x2 DUP6 PUSH2 0x1283 SWAP2 SWAP1 PUSH2 0x2B7D JUMP JUMPDEST SWAP5 POP JUMPDEST JUMPDEST DUP1 DUP1 PUSH2 0x1292 SWAP1 PUSH2 0x27B2 JUMP JUMPDEST SWAP2 POP POP PUSH2 0xF13 JUMP JUMPDEST POP DUP4 SWAP7 POP POP POP POP POP POP POP SWAP3 SWAP2 POP POP JUMP JUMPDEST PUSH2 0x12B2 PUSH2 0x1790 JUMP JUMPDEST PUSH1 0x0 DUP4 PUSH1 0x40 MLOAD PUSH2 0x12C2 SWAP2 SWAP1 PUSH2 0x2C04 JUMP JUMPDEST SWAP1 DUP2 MSTORE PUSH1 0x20 ADD PUSH1 0x40 MLOAD DUP1 SWAP2 SUB SWAP1 KECCAK256 DUP3 DUP2 SLOAD DUP2 LT PUSH2 0x12E2 JUMPI PUSH2 0x12E1 PUSH2 0x2754 JUMP JUMPDEST JUMPDEST SWAP1 PUSH1 0x0 MSTORE PUSH1 0x20 PUSH1 0x0 KECCAK256 SWAP1 PUSH1 0x3 MUL ADD PUSH1 0x40 MLOAD DUP1 PUSH1 0x80 ADD PUSH1 0x40 MSTORE SWAP1 DUP2 PUSH1 0x0 DUP3 ADD PUSH1 0x0 SWAP1 SLOAD SWAP1 PUSH2 0x100 EXP SWAP1 DIV PUSH4 0xFFFFFFFF AND PUSH4 0xFFFFFFFF AND PUSH4 0xFFFFFFFF AND DUP2 MSTORE PUSH1 0x20 ADD PUSH1 0x0 DUP3 ADD PUSH1 0x4 SWAP1 SLOAD SWAP1 PUSH2 0x100 EXP SWAP1 DIV PUSH5 0xFFFFFFFFFF AND PUSH5 0xFFFFFFFFFF AND PUSH5 0xFFFFFFFFFF AND DUP2 MSTORE PUSH1 0x20 ADD PUSH1 0x1 DUP3 ADD DUP1 SLOAD PUSH2 0x135A SWAP1 PUSH2 0x2829 JUMP JUMPDEST DUP1 PUSH1 0x1F ADD PUSH1 0x20 DUP1 SWAP2 DIV MUL PUSH1 0x20 ADD PUSH1 0x40 MLOAD SWAP1 DUP2 ADD PUSH1 0x40 MSTORE DUP1 SWAP3 SWAP2 SWAP1 DUP2 DUP2 MSTORE PUSH1 0x20 ADD DUP3 DUP1 SLOAD PUSH2 0x1386 SWAP1 PUSH2 0x2829 JUMP JUMPDEST DUP1 ISZERO PUSH2 0x13D3 JUMPI DUP1 PUSH1 0x1F LT PUSH2 0x13A8 JUMPI PUSH2 0x100 DUP1 DUP4 SLOAD DIV MUL DUP4 MSTORE SWAP2 PUSH1 0x20 ADD SWAP2 PUSH2 0x13D3 JUMP JUMPDEST DUP3 ADD SWAP2 SWAP1 PUSH1 0x0 MSTORE PUSH1 0x20 PUSH1 0x0 KECCAK256 SWAP1 JUMPDEST DUP2 SLOAD DUP2 MSTORE SWAP1 PUSH1 0x1 ADD SWAP1 PUSH1 0x20 ADD DUP1 DUP4 GT PUSH2 0x13B6 JUMPI DUP3 SWAP1 SUB PUSH1 0x1F AND DUP3 ADD SWAP2 JUMPDEST POP POP POP POP POP DUP2 MSTORE PUSH1 0x20 ADD PUSH1 0x2 DUP3 ADD DUP1 SLOAD PUSH2 0x13EC SWAP1 PUSH2 0x2829 JUMP JUMPDEST DUP1 PUSH1 0x1F ADD PUSH1 0x20 DUP1 SWAP2 DIV MUL PUSH1 0x20 ADD PUSH1 0x40 MLOAD SWAP1 DUP2 ADD PUSH1 0x40 MSTORE DUP1 SWAP3 SWAP2 SWAP1 DUP2 DUP2 MSTORE PUSH1 0x20 ADD DUP3 DUP1 SLOAD PUSH2 0x1418 SWAP1 PUSH2 0x2829 JUMP JUMPDEST DUP1 ISZERO PUSH2 0x1465 JUMPI DUP1 PUSH1 0x1F LT PUSH2 0x143A JUMPI PUSH2 0x100 DUP1 DUP4 SLOAD DIV MUL DUP4 MSTORE SWAP2 PUSH1 0x20 ADD SWAP2 PUSH2 0x1465 JUMP JUMPDEST DUP3 ADD SWAP2 SWAP1 PUSH1 0x0 MSTORE PUSH1 0x20 PUSH1 0x0 KECCAK256 SWAP1 JUMPDEST DUP2 SLOAD DUP2 MSTORE SWAP1 PUSH1 0x1 ADD SWAP1 PUSH1 0x20 ADD DUP1 DUP4 GT PUSH2 0x1448 JUMPI DUP3 SWAP1 SUB PUSH1 0x1F AND DUP3 ADD SWAP2 JUMPDEST POP POP POP POP POP DUP2 MSTORE POP POP SWAP1 POP SWAP3 SWAP2 POP POP JUMP JUMPDEST PUSH1 0x2 PUSH1 0x0 PUSH1 0x8 SLOAD DUP2 MSTORE PUSH1 0x20 ADD SWAP1 DUP2 MSTORE PUSH1 0x20 ADD PUSH1 0x0 KECCAK256 PUSH1 0x1 ADD SLOAD TIMESTAMP LT PUSH2 0x14D0 JUMPI PUSH1 0x40 MLOAD PUSH32 0x8C379A000000000000000000000000000000000000000000000000000000000 DUP2 MSTORE PUSH1 0x4 ADD PUSH2 0x14C7 SWAP1 PUSH2 0x2C78 JUMP JUMPDEST PUSH1 0x40 MLOAD DUP1 SWAP2 SUB SWAP1 REVERT JUMPDEST PUSH2 0x14DB PUSH1 0x8 SLOAD PUSH2 0x750 JUMP JUMPDEST DUP2 MLOAD EQ PUSH2 0x151D JUMPI PUSH1 0x40 MLOAD PUSH32 0x8C379A000000000000000000000000000000000000000000000000000000000 DUP2 MSTORE PUSH1 0x4 ADD PUSH2 0x1514 SWAP1 PUSH2 0x2D0A JUMP JUMPDEST PUSH1 0x40 MLOAD DUP1 SWAP2 SUB SWAP1 REVERT JUMPDEST PUSH1 0x0 PUSH2 0x152A PUSH1 0x8 SLOAD PUSH2 0x750 JUMP JUMPDEST SWAP1 POP PUSH1 0x0 JUMPDEST DUP2 DUP2 LT ISZERO PUSH2 0x1673 JUMPI PUSH1 0x40 MLOAD DUP1 PUSH1 0x40 ADD PUSH1 0x40 MSTORE DUP1 DUP5 DUP4 DUP2 MLOAD DUP2 LT PUSH2 0x1555 JUMPI PUSH2 0x1554 PUSH2 0x2754 JUMP JUMPDEST JUMPDEST PUSH1 0x20 MUL PUSH1 0x20 ADD ADD MLOAD PUSH1 0x20 ADD MLOAD PUSH1 0xFF AND DUP2 MSTORE PUSH1 0x20 ADD DUP5 DUP4 DUP2 MLOAD DUP2 LT PUSH2 0x157C JUMPI PUSH2 0x157B PUSH2 0x2754 JUMP JUMPDEST JUMPDEST PUSH1 0x20 MUL PUSH1 0x20 ADD ADD MLOAD PUSH1 0x40 ADD MLOAD PUSH1 0xFF AND DUP2 MSTORE POP PUSH1 0x4 PUSH1 0x0 CALLER PUSH20 0xFFFFFFFFFFFFFFFFFFFFFFFFFFFFFFFFFFFFFFFF AND PUSH20 0xFFFFFFFFFFFFFFFFFFFFFFFFFFFFFFFFFFFFFFFF AND DUP2 MSTORE PUSH1 0x20 ADD SWAP1 DUP2 MSTORE PUSH1 0x20 ADD PUSH1 0x0 KECCAK256 PUSH1 0x0 PUSH1 0x8 SLOAD DUP2 MSTORE PUSH1 0x20 ADD SWAP1 DUP2 MSTORE PUSH1 0x20 ADD PUSH1 0x0 KECCAK256 PUSH1 0x0 DUP6 DUP5 DUP2 MLOAD DUP2 LT PUSH2 0x15F5 JUMPI PUSH2 0x15F4 PUSH2 0x2754 JUMP JUMPDEST JUMPDEST PUSH1 0x20 MUL PUSH1 0x20 ADD ADD MLOAD PUSH1 0x0 ADD MLOAD PUSH4 0xFFFFFFFF AND PUSH4 0xFFFFFFFF AND DUP2 MSTORE PUSH1 0x20 ADD SWAP1 DUP2 MSTORE PUSH1 0x20 ADD PUSH1 0x0 KECCAK256 PUSH1 0x0 DUP3 ADD MLOAD DUP2 PUSH1 0x0 ADD PUSH1 0x0 PUSH2 0x100 EXP DUP2 SLOAD DUP2 PUSH1 0xFF MUL NOT AND SWAP1 DUP4 PUSH1 0xFF AND MUL OR SWAP1 SSTORE POP PUSH1 0x20 DUP3 ADD MLOAD DUP2 PUSH1 0x0 ADD PUSH1 0x1 PUSH2 0x100 EXP DUP2 SLOAD DUP2 PUSH1 0xFF MUL NOT AND SWAP1 DUP4 PUSH1 0xFF AND MUL OR SWAP1 SSTORE POP SWAP1 POP POP DUP1 DUP1 PUSH2 0x166B SWAP1 PUSH2 0x27B2 JUMP JUMPDEST SWAP2 POP POP PUSH2 0x152F JUMP JUMPDEST POP PUSH1 0x5 PUSH1 0x0 PUSH1 0x8 SLOAD DUP2 MSTORE PUSH1 0x20 ADD SWAP1 DUP2 MSTORE PUSH1 0x20 ADD PUSH1 0x0 KECCAK256 CALLER SWAP1 DUP1 PUSH1 0x1 DUP2 SLOAD ADD DUP1 DUP3 SSTORE DUP1 SWAP2 POP POP PUSH1 0x1 SWAP1 SUB SWAP1 PUSH1 0x0 MSTORE PUSH1 0x20 PUSH1 0x0 KECCAK256 ADD PUSH1 0x0 SWAP1 SWAP2 SWAP1 SWAP2 SWAP1 SWAP2 PUSH2 0x100 EXP DUP2 SLOAD DUP2 PUSH20 0xFFFFFFFFFFFFFFFFFFFFFFFFFFFFFFFFFFFFFFFF MUL NOT AND SWAP1 DUP4 PUSH20 0xFFFFFFFFFFFFFFFFFFFFFFFFFFFFFFFFFFFFFFFF AND MUL OR SWAP1 SSTORE POP POP POP JUMP JUMPDEST PUSH1 0x0 DUP1 DUP3 PUSH1 0x40 MLOAD PUSH2 0x16FF SWAP2 SWAP1 PUSH2 0x2C04 JUMP JUMPDEST SWAP1 DUP2 MSTORE PUSH1 0x20 ADD PUSH1 0x40 MLOAD DUP1 SWAP2 SUB SWAP1 KECCAK256 DUP1 SLOAD SWAP1 POP SWAP1 POP SWAP2 SWAP1 POP JUMP JUMPDEST PUSH1 0x0 PUSH1 0x8 SLOAD SWAP1 POP SWAP1 JUMP JUMPDEST PUSH1 0x0 DUP1 DUP3 PUSH1 0xFF AND DUP5 PUSH1 0xFF AND GT ISZERO PUSH2 0x173C JUMPI PUSH1 0x0 SWAP1 POP PUSH2 0x1759 JUMP JUMPDEST DUP4 PUSH1 0xFF AND DUP4 PUSH1 0xFF AND GT ISZERO PUSH2 0x1753 JUMPI PUSH1 0x2 SWAP1 POP PUSH2 0x1758 JUMP JUMPDEST PUSH1 0x1 SWAP1 POP JUMPDEST JUMPDEST DUP1 SWAP2 POP POP SWAP3 SWAP2 POP POP JUMP JUMPDEST PUSH1 0x40 MLOAD DUP1 PUSH1 0x60 ADD PUSH1 0x40 MSTORE DUP1 PUSH1 0x0 PUSH4 0xFFFFFFFF AND DUP2 MSTORE PUSH1 0x20 ADD PUSH1 0x0 PUSH1 0xFF AND DUP2 MSTORE PUSH1 0x20 ADD PUSH1 0x0 PUSH1 0xFF AND DUP2 MSTORE POP SWAP1 JUMP JUMPDEST PUSH1 0x40 MLOAD DUP1 PUSH1 0x80 ADD PUSH1 0x40 MSTORE DUP1 PUSH1 0x0 PUSH4 0xFFFFFFFF AND DUP2 MSTORE PUSH1 0x20 ADD PUSH1 0x0 PUSH5 0xFFFFFFFFFF AND DUP2 MSTORE PUSH1 0x20 ADD PUSH1 0x60 DUP2 MSTORE PUSH1 0x20 ADD PUSH1 0x60 DUP2 MSTORE POP SWAP1 JUMP JUMPDEST PUSH1 0x40 MLOAD DUP1 PUSH1 0x40 ADD PUSH1 0x40 MSTORE DUP1 PUSH1 0x0 PUSH1 0xFF AND DUP2 MSTORE PUSH1 0x20 ADD PUSH1 0x0 PUSH1 0xFF AND DUP2 MSTORE POP SWAP1 JUMP JUMPDEST PUSH1 0x0 PUSH1 0x40 MLOAD SWAP1 POP SWAP1 JUMP JUMPDEST PUSH1 0x0 DUP1 REVERT JUMPDEST PUSH1 0x0 DUP1 REVERT JUMPDEST PUSH1 0x0 DUP2 SWAP1 POP SWAP2 SWAP1 POP JUMP JUMPDEST PUSH2 0x180C DUP2 PUSH2 0x17F9 JUMP JUMPDEST DUP2 EQ PUSH2 0x1817 JUMPI PUSH1 0x0 DUP1 REVERT JUMPDEST POP JUMP JUMPDEST PUSH1 0x0 DUP2 CALLDATALOAD SWAP1 POP PUSH2 0x1829 DUP2 PUSH2 0x1803 JUMP JUMPDEST SWAP3 SWAP2 POP POP JUMP JUMPDEST PUSH1 0x0 PUSH20 0xFFFFFFFFFFFFFFFFFFFFFFFFFFFFFFFFFFFFFFFF DUP3 AND SWAP1 POP SWAP2 SWAP1 POP JUMP JUMPDEST PUSH1 0x0 PUSH2 0x185A DUP3 PUSH2 0x182F JUMP JUMPDEST SWAP1 POP SWAP2 SWAP1 POP JUMP JUMPDEST PUSH2 0x186A DUP2 PUSH2 0x184F JUMP JUMPDEST DUP2 EQ PUSH2 0x1875 JUMPI PUSH1 0x0 DUP1 REVERT JUMPDEST POP JUMP JUMPDEST PUSH1 0x0 DUP2 CALLDATALOAD SWAP1 POP PUSH2 0x1887 DUP2 PUSH2 0x1861 JUMP JUMPDEST SWAP3 SWAP2 POP POP JUMP JUMPDEST PUSH1 0x0 DUP1 PUSH1 0x40 DUP4 DUP6 SUB SLT ISZERO PUSH2 0x18A4 JUMPI PUSH2 0x18A3 PUSH2 0x17EF JUMP JUMPDEST JUMPDEST PUSH1 0x0 PUSH2 0x18B2 DUP6 DUP3 DUP7 ADD PUSH2 0x181A JUMP JUMPDEST SWAP3 POP POP PUSH1 0x20 PUSH2 0x18C3 DUP6 DUP3 DUP7 ADD PUSH2 0x1878 JUMP JUMPDEST SWAP2 POP POP SWAP3 POP SWAP3 SWAP1 POP JUMP JUMPDEST PUSH1 0x0 DUP2 MLOAD SWAP1 POP SWAP2 SWAP1 POP JUMP JUMPDEST PUSH1 0x0 DUP3 DUP3 MSTORE PUSH1 0x20 DUP3 ADD SWAP1 POP SWAP3 SWAP2 POP POP JUMP JUMPDEST PUSH1 0x0 DUP2 SWAP1 POP PUSH1 0x20 DUP3 ADD SWAP1 POP SWAP2 SWAP1 POP JUMP JUMPDEST PUSH1 0x0 PUSH4 0xFFFFFFFF DUP3 AND SWAP1 POP SWAP2 SWAP1 POP JUMP JUMPDEST PUSH2 0x1912 DUP2 PUSH2 0x18F9 JUMP JUMPDEST DUP3 MSTORE POP POP JUMP JUMPDEST PUSH1 0x0 PUSH1 0xFF DUP3 AND SWAP1 POP SWAP2 SWAP1 POP JUMP JUMPDEST PUSH2 0x192E DUP2 PUSH2 0x1918 JUMP JUMPDEST DUP3 MSTORE POP POP JUMP JUMPDEST PUSH1 0x60 DUP3 ADD PUSH1 0x0 DUP3 ADD MLOAD PUSH2 0x194A PUSH1 0x0 DUP6 ADD DUP3 PUSH2 0x1909 JUMP JUMPDEST POP PUSH1 0x20 DUP3 ADD MLOAD PUSH2 0x195D PUSH1 0x20 DUP6 ADD DUP3 PUSH2 0x1925 JUMP JUMPDEST POP PUSH1 0x40 DUP3 ADD MLOAD PUSH2 0x1970 PUSH1 0x40 DUP6 ADD DUP3 PUSH2 0x1925 JUMP JUMPDEST POP POP POP POP JUMP JUMPDEST PUSH1 0x0 PUSH2 0x1982 DUP4 DUP4 PUSH2 0x1934 JUMP JUMPDEST PUSH1 0x60 DUP4 ADD SWAP1 POP SWAP3 SWAP2 POP POP JUMP JUMPDEST PUSH1 0x0 PUSH1 0x20 DUP3 ADD SWAP1 POP SWAP2 SWAP1 POP JUMP JUMPDEST PUSH1 0x0 PUSH2 0x19A6 DUP3 PUSH2 0x18CD JUMP JUMPDEST PUSH2 0x19B0 DUP2 DUP6 PUSH2 0x18D8 JUMP JUMPDEST SWAP4 POP PUSH2 0x19BB DUP4 PUSH2 0x18E9 JUMP JUMPDEST DUP1 PUSH1 0x0 JUMPDEST DUP4 DUP2 LT ISZERO PUSH2 0x19EC JUMPI DUP2 MLOAD PUSH2 0x19D3 DUP9 DUP3 PUSH2 0x1976 JUMP JUMPDEST SWAP8 POP PUSH2 0x19DE DUP4 PUSH2 0x198E JUMP JUMPDEST SWAP3 POP POP PUSH1 0x1 DUP2 ADD SWAP1 POP PUSH2 0x19BF JUMP JUMPDEST POP DUP6 SWAP4 POP POP POP POP SWAP3 SWAP2 POP POP JUMP JUMPDEST PUSH1 0x0 PUSH1 0x20 DUP3 ADD SWAP1 POP DUP2 DUP2 SUB PUSH1 0x0 DUP4 ADD MSTORE PUSH2 0x1A13 DUP2 DUP5 PUSH2 0x199B JUMP JUMPDEST SWAP1 POP SWAP3 SWAP2 POP POP JUMP JUMPDEST PUSH1 0x0 PUSH1 0x20 DUP3 DUP5 SUB SLT ISZERO PUSH2 0x1A31 JUMPI PUSH2 0x1A30 PUSH2 0x17EF JUMP JUMPDEST JUMPDEST PUSH1 0x0 PUSH2 0x1A3F DUP5 DUP3 DUP6 ADD PUSH2 0x181A JUMP JUMPDEST SWAP2 POP POP SWAP3 SWAP2 POP POP JUMP JUMPDEST PUSH1 0x0 DUP2 MLOAD SWAP1 POP SWAP2 SWAP1 POP JUMP JUMPDEST PUSH1 0x0 DUP3 DUP3 MSTORE PUSH1 0x20 DUP3 ADD SWAP1 POP SWAP3 SWAP2 POP POP JUMP JUMPDEST PUSH1 0x0 DUP2 SWAP1 POP PUSH1 0x20 DUP3 ADD SWAP1 POP SWAP2 SWAP1 POP JUMP JUMPDEST PUSH1 0x0 DUP2 MLOAD SWAP1 POP SWAP2 SWAP1 POP JUMP JUMPDEST PUSH1 0x0 DUP3 DUP3 MSTORE PUSH1 0x20 DUP3 ADD SWAP1 POP SWAP3 SWAP2 POP POP JUMP JUMPDEST PUSH1 0x0 JUMPDEST DUP4 DUP2 LT ISZERO PUSH2 0x1AAE JUMPI DUP1 DUP3 ADD MLOAD DUP2 DUP5 ADD MSTORE PUSH1 0x20 DUP2 ADD SWAP1 POP PUSH2 0x1A93 JUMP JUMPDEST DUP4 DUP2 GT ISZERO PUSH2 0x1ABD JUMPI PUSH1 0x0 DUP5 DUP5 ADD MSTORE JUMPDEST POP POP POP POP JUMP JUMPDEST PUSH1 0x0 PUSH1 0x1F NOT PUSH1 0x1F DUP4 ADD AND SWAP1 POP SWAP2 SWAP1 POP JUMP JUMPDEST PUSH1 0x0 PUSH2 0x1ADF DUP3 PUSH2 0x1A74 JUMP JUMPDEST PUSH2 0x1AE9 DUP2 DUP6 PUSH2 0x1A7F JUMP JUMPDEST SWAP4 POP PUSH2 0x1AF9 DUP2 DUP6 PUSH1 0x20 DUP7 ADD PUSH2 0x1A90 JUMP JUMPDEST PUSH2 0x1B02 DUP2 PUSH2 0x1AC3 JUMP JUMPDEST DUP5 ADD SWAP2 POP POP SWAP3 SWAP2 POP POP JUMP JUMPDEST PUSH1 0x0 PUSH2 0x1B19 DUP4 DUP4 PUSH2 0x1AD4 JUMP JUMPDEST SWAP1 POP SWAP3 SWAP2 POP POP JUMP JUMPDEST PUSH1 0x0 PUSH1 0x20 DUP3 ADD SWAP1 POP SWAP2 SWAP1 POP JUMP JUMPDEST PUSH1 0x0 PUSH2 0x1B39 DUP3 PUSH2 0x1A48 JUMP JUMPDEST PUSH2 0x1B43 DUP2 DUP6 PUSH2 0x1A53 JUMP JUMPDEST SWAP4 POP DUP4 PUSH1 0x20 DUP3 MUL DUP6 ADD PUSH2 0x1B55 DUP6 PUSH2 0x1A64 JUMP JUMPDEST DUP1 PUSH1 0x0 JUMPDEST DUP6 DUP2 LT ISZERO PUSH2 0x1B91 JUMPI DUP5 DUP5 SUB DUP10 MSTORE DUP2 MLOAD PUSH2 0x1B72 DUP6 DUP3 PUSH2 0x1B0D JUMP JUMPDEST SWAP5 POP PUSH2 0x1B7D DUP4 PUSH2 0x1B21 JUMP JUMPDEST SWAP3 POP PUSH1 0x20 DUP11 ADD SWAP10 POP POP PUSH1 0x1 DUP2 ADD SWAP1 POP PUSH2 0x1B59 JUMP JUMPDEST POP DUP3 SWAP8 POP DUP8 SWAP6 POP POP POP POP POP POP SWAP3 SWAP2 POP POP JUMP JUMPDEST PUSH1 0x0 PUSH1 0x20 DUP3 ADD SWAP1 POP DUP2 DUP2 SUB PUSH1 0x0 DUP4 ADD MSTORE PUSH2 0x1BBD DUP2 DUP5 PUSH2 0x1B2E JUMP JUMPDEST SWAP1 POP SWAP3 SWAP2 POP POP JUMP JUMPDEST PUSH1 0x0 DUP1 REVERT JUMPDEST PUSH32 0x4E487B7100000000000000000000000000000000000000000000000000000000 PUSH1 0x0 MSTORE PUSH1 0x41 PUSH1 0x4 MSTORE PUSH1 0x24 PUSH1 0x0 REVERT JUMPDEST PUSH2 0x1C02 DUP3 PUSH2 0x1AC3 JUMP JUMPDEST DUP2 ADD DUP2 DUP2 LT PUSH8 0xFFFFFFFFFFFFFFFF DUP3 GT OR ISZERO PUSH2 0x1C21 JUMPI PUSH2 0x1C20 PUSH2 0x1BCA JUMP JUMPDEST JUMPDEST DUP1 PUSH1 0x40 MSTORE POP POP POP JUMP JUMPDEST PUSH1 0x0 PUSH2 0x1C34 PUSH2 0x17E5 JUMP JUMPDEST SWAP1 POP PUSH2 0x1C40 DUP3 DUP3 PUSH2 0x1BF9 JUMP JUMPDEST SWAP2 SWAP1 POP JUMP JUMPDEST PUSH1 0x0 PUSH8 0xFFFFFFFFFFFFFFFF DUP3 GT ISZERO PUSH2 0x1C60 JUMPI PUSH2 0x1C5F PUSH2 0x1BCA JUMP JUMPDEST JUMPDEST PUSH1 0x20 DUP3 MUL SWAP1 POP PUSH1 0x20 DUP2 ADD SWAP1 POP SWAP2 SWAP1 POP JUMP JUMPDEST PUSH1 0x0 DUP1 REVERT JUMPDEST PUSH1 0x0 DUP1 REVERT JUMPDEST PUSH1 0x0 PUSH8 0xFFFFFFFFFFFFFFFF DUP3 GT ISZERO PUSH2 0x1C96 JUMPI PUSH2 0x1C95 PUSH2 0x1BCA JUMP JUMPDEST JUMPDEST PUSH2 0x1C9F DUP3 PUSH2 0x1AC3 JUMP JUMPDEST SWAP1 POP PUSH1 0x20 DUP2 ADD SWAP1 POP SWAP2 SWAP1 POP JUMP JUMPDEST DUP3 DUP2 DUP4 CALLDATACOPY PUSH1 0x0 DUP4 DUP4 ADD MSTORE POP POP POP JUMP JUMPDEST PUSH1 0x0 PUSH2 0x1CCE PUSH2 0x1CC9 DUP5 PUSH2 0x1C7B JUMP JUMPDEST PUSH2 0x1C2A JUMP JUMPDEST SWAP1 POP DUP3 DUP2 MSTORE PUSH1 0x20 DUP2 ADD DUP5 DUP5 DUP5 ADD GT ISZERO PUSH2 0x1CEA JUMPI PUSH2 0x1CE9 PUSH2 0x1C76 JUMP JUMPDEST JUMPDEST PUSH2 0x1CF5 DUP5 DUP3 DUP6 PUSH2 0x1CAC JUMP JUMPDEST POP SWAP4 SWAP3 POP POP POP JUMP JUMPDEST PUSH1 0x0 DUP3 PUSH1 0x1F DUP4 ADD SLT PUSH2 0x1D12 JUMPI PUSH2 0x1D11 PUSH2 0x1BC5 JUMP JUMPDEST JUMPDEST DUP2 CALLDATALOAD PUSH2 0x1D22 DUP5 DUP3 PUSH1 0x20 DUP7 ADD PUSH2 0x1CBB JUMP JUMPDEST SWAP2 POP POP SWAP3 SWAP2 POP POP JUMP JUMPDEST PUSH1 0x0 PUSH2 0x1D3E PUSH2 0x1D39 DUP5 PUSH2 0x1C45 JUMP JUMPDEST PUSH2 0x1C2A JUMP JUMPDEST SWAP1 POP DUP1 DUP4 DUP3 MSTORE PUSH1 0x20 DUP3 ADD SWAP1 POP PUSH1 0x20 DUP5 MUL DUP4 ADD DUP6 DUP2 GT ISZERO PUSH2 0x1D61 JUMPI PUSH2 0x1D60 PUSH2 0x1C71 JUMP JUMPDEST JUMPDEST DUP4 JUMPDEST DUP2 DUP2 LT ISZERO PUSH2 0x1DA8 JUMPI DUP1 CALLDATALOAD PUSH8 0xFFFFFFFFFFFFFFFF DUP2 GT ISZERO PUSH2 0x1D86 JUMPI PUSH2 0x1D85 PUSH2 0x1BC5 JUMP JUMPDEST JUMPDEST DUP1 DUP7 ADD PUSH2 0x1D93 DUP10 DUP3 PUSH2 0x1CFD JUMP JUMPDEST DUP6 MSTORE PUSH1 0x20 DUP6 ADD SWAP5 POP POP POP PUSH1 0x20 DUP2 ADD SWAP1 POP PUSH2 0x1D63 JUMP JUMPDEST POP POP POP SWAP4 SWAP3 POP POP POP JUMP JUMPDEST PUSH1 0x0 DUP3 PUSH1 0x1F DUP4 ADD SLT PUSH2 0x1DC7 JUMPI PUSH2 0x1DC6 PUSH2 0x1BC5 JUMP JUMPDEST JUMPDEST DUP2 CALLDATALOAD PUSH2 0x1DD7 DUP5 DUP3 PUSH1 0x20 DUP7 ADD PUSH2 0x1D2B JUMP JUMPDEST SWAP2 POP POP SWAP3 SWAP2 POP POP JUMP JUMPDEST PUSH1 0x0 DUP1 PUSH1 0x0 PUSH1 0x60 DUP5 DUP7 SUB SLT ISZERO PUSH2 0x1DF9 JUMPI PUSH2 0x1DF8 PUSH2 0x17EF JUMP JUMPDEST JUMPDEST PUSH1 0x0 PUSH2 0x1E07 DUP7 DUP3 DUP8 ADD PUSH2 0x181A JUMP JUMPDEST SWAP4 POP POP PUSH1 0x20 DUP5 ADD CALLDATALOAD PUSH8 0xFFFFFFFFFFFFFFFF DUP2 GT ISZERO PUSH2 0x1E28 JUMPI PUSH2 0x1E27 PUSH2 0x17F4 JUMP JUMPDEST JUMPDEST PUSH2 0x1E34 DUP7 DUP3 DUP8 ADD PUSH2 0x1DB2 JUMP JUMPDEST SWAP3 POP POP PUSH1 0x40 PUSH2 0x1E45 DUP7 DUP3 DUP8 ADD PUSH2 0x181A JUMP JUMPDEST SWAP2 POP POP SWAP3 POP SWAP3 POP SWAP3 JUMP JUMPDEST PUSH2 0x1E58 DUP2 PUSH2 0x17F9 JUMP JUMPDEST DUP3 MSTORE POP POP JUMP JUMPDEST PUSH1 0x0 PUSH1 0x20 DUP3 ADD SWAP1 POP PUSH2 0x1E73 PUSH1 0x0 DUP4 ADD DUP5 PUSH2 0x1E4F JUMP JUMPDEST SWAP3 SWAP2 POP POP JUMP JUMPDEST PUSH2 0x1E82 DUP2 PUSH2 0x18F9 JUMP JUMPDEST DUP2 EQ PUSH2 0x1E8D JUMPI PUSH1 0x0 DUP1 REVERT JUMPDEST POP JUMP JUMPDEST PUSH1 0x0 DUP2 CALLDATALOAD SWAP1 POP PUSH2 0x1E9F DUP2 PUSH2 0x1E79 JUMP JUMPDEST SWAP3 SWAP2 POP POP JUMP JUMPDEST PUSH1 0x0 PUSH1 0x20 DUP3 DUP5 SUB SLT ISZERO PUSH2 0x1EBB JUMPI PUSH2 0x1EBA PUSH2 0x17EF JUMP JUMPDEST JUMPDEST PUSH1 0x0 PUSH2 0x1EC9 DUP5 DUP3 DUP6 ADD PUSH2 0x1E90 JUMP JUMPDEST SWAP2 POP POP SWAP3 SWAP2 POP POP JUMP JUMPDEST PUSH1 0x40 DUP3 ADD PUSH1 0x0 DUP3 ADD MLOAD PUSH2 0x1EE8 PUSH1 0x0 DUP6 ADD DUP3 PUSH2 0x1925 JUMP JUMPDEST POP PUSH1 0x20 DUP3 ADD MLOAD PUSH2 0x1EFB PUSH1 0x20 DUP6 ADD DUP3 PUSH2 0x1925 JUMP JUMPDEST POP POP POP POP JUMP JUMPDEST PUSH1 0x0 PUSH1 0x40 DUP3 ADD SWAP1 POP PUSH2 0x1F16 PUSH1 0x0 DUP4 ADD DUP5 PUSH2 0x1ED2 JUMP JUMPDEST SWAP3 SWAP2 POP POP JUMP JUMPDEST PUSH1 0x0 PUSH8 0xFFFFFFFFFFFFFFFF DUP3 GT ISZERO PUSH2 0x1F37 JUMPI PUSH2 0x1F36 PUSH2 0x1BCA JUMP JUMPDEST JUMPDEST PUSH1 0x20 DUP3 MUL SWAP1 POP PUSH1 0x20 DUP2 ADD SWAP1 POP SWAP2 SWAP1 POP JUMP JUMPDEST PUSH1 0x0 DUP1 REVERT JUMPDEST PUSH1 0x0 DUP1 REVERT JUMPDEST PUSH1 0x0 PUSH5 0xFFFFFFFFFF DUP3 AND SWAP1 POP SWAP2 SWAP1 POP JUMP JUMPDEST PUSH2 0x1F6C DUP2 PUSH2 0x1F52 JUMP JUMPDEST DUP2 EQ PUSH2 0x1F77 JUMPI PUSH1 0x0 DUP1 REVERT JUMPDEST POP JUMP JUMPDEST PUSH1 0x0 DUP2 CALLDATALOAD SWAP1 POP PUSH2 0x1F89 DUP2 PUSH2 0x1F63 JUMP JUMPDEST SWAP3 SWAP2 POP POP JUMP JUMPDEST PUSH1 0x0 PUSH1 0x80 DUP3 DUP5 SUB SLT ISZERO PUSH2 0x1FA5 JUMPI PUSH2 0x1FA4 PUSH2 0x1F48 JUMP JUMPDEST JUMPDEST PUSH2 0x1FAF PUSH1 0x80 PUSH2 0x1C2A JUMP JUMPDEST SWAP1 POP PUSH1 0x0 PUSH2 0x1FBF DUP5 DUP3 DUP6 ADD PUSH2 0x1E90 JUMP JUMPDEST PUSH1 0x0 DUP4 ADD MSTORE POP PUSH1 0x20 PUSH2 0x1FD3 DUP5 DUP3 DUP6 ADD PUSH2 0x1F7A JUMP JUMPDEST PUSH1 0x20 DUP4 ADD MSTORE POP PUSH1 0x40 DUP3 ADD CALLDATALOAD PUSH8 0xFFFFFFFFFFFFFFFF DUP2 GT ISZERO PUSH2 0x1FF7 JUMPI PUSH2 0x1FF6 PUSH2 0x1F4D JUMP JUMPDEST JUMPDEST PUSH2 0x2003 DUP5 DUP3 DUP6 ADD PUSH2 0x1CFD JUMP JUMPDEST PUSH1 0x40 DUP4 ADD MSTORE POP PUSH1 0x60 DUP3 ADD CALLDATALOAD PUSH8 0xFFFFFFFFFFFFFFFF DUP2 GT ISZERO PUSH2 0x2027 JUMPI PUSH2 0x2026 PUSH2 0x1F4D JUMP JUMPDEST JUMPDEST PUSH2 0x2033 DUP5 DUP3 DUP6 ADD PUSH2 0x1CFD JUMP JUMPDEST PUSH1 0x60 DUP4 ADD MSTORE POP SWAP3 SWAP2 POP POP JUMP JUMPDEST PUSH1 0x0 PUSH2 0x2052 PUSH2 0x204D DUP5 PUSH2 0x1F1C JUMP JUMPDEST PUSH2 0x1C2A JUMP JUMPDEST SWAP1 POP DUP1 DUP4 DUP3 MSTORE PUSH1 0x20 DUP3 ADD SWAP1 POP PUSH1 0x20 DUP5 MUL DUP4 ADD DUP6 DUP2 GT ISZERO PUSH2 0x2075 JUMPI PUSH2 0x2074 PUSH2 0x1C71 JUMP JUMPDEST JUMPDEST DUP4 JUMPDEST DUP2 DUP2 LT ISZERO PUSH2 0x20BC JUMPI DUP1 CALLDATALOAD PUSH8 0xFFFFFFFFFFFFFFFF DUP2 GT ISZERO PUSH2 0x209A JUMPI PUSH2 0x2099 PUSH2 0x1BC5 JUMP JUMPDEST JUMPDEST DUP1 DUP7 ADD PUSH2 0x20A7 DUP10 DUP3 PUSH2 0x1F8F JUMP JUMPDEST DUP6 MSTORE PUSH1 0x20 DUP6 ADD SWAP5 POP POP POP PUSH1 0x20 DUP2 ADD SWAP1 POP PUSH2 0x2077 JUMP JUMPDEST POP POP POP SWAP4 SWAP3 POP POP POP JUMP JUMPDEST PUSH1 0x0 DUP3 PUSH1 0x1F DUP4 ADD SLT PUSH2 0x20DB JUMPI PUSH2 0x20DA PUSH2 0x1BC5 JUMP JUMPDEST JUMPDEST DUP2 CALLDATALOAD PUSH2 0x20EB DUP5 DUP3 PUSH1 0x20 DUP7 ADD PUSH2 0x203F JUMP JUMPDEST SWAP2 POP POP SWAP3 SWAP2 POP POP JUMP JUMPDEST PUSH1 0x0 DUP1 PUSH1 0x40 DUP4 DUP6 SUB SLT ISZERO PUSH2 0x210B JUMPI PUSH2 0x210A PUSH2 0x17EF JUMP JUMPDEST JUMPDEST PUSH1 0x0 DUP4 ADD CALLDATALOAD PUSH8 0xFFFFFFFFFFFFFFFF DUP2 GT ISZERO PUSH2 0x2129 JUMPI PUSH2 0x2128 PUSH2 0x17F4 JUMP JUMPDEST JUMPDEST PUSH2 0x2135 DUP6 DUP3 DUP7 ADD PUSH2 0x1CFD JUMP JUMPDEST SWAP3 POP POP PUSH1 0x20 DUP4 ADD CALLDATALOAD PUSH8 0xFFFFFFFFFFFFFFFF DUP2 GT ISZERO PUSH2 0x2156 JUMPI PUSH2 0x2155 PUSH2 0x17F4 JUMP JUMPDEST JUMPDEST PUSH2 0x2162 DUP6 DUP3 DUP7 ADD PUSH2 0x20C6 JUMP JUMPDEST SWAP2 POP POP SWAP3 POP SWAP3 SWAP1 POP JUMP JUMPDEST PUSH1 0x0 PUSH8 0xFFFFFFFFFFFFFFFF DUP3 GT ISZERO PUSH2 0x2187 JUMPI PUSH2 0x2186 PUSH2 0x1BCA JUMP JUMPDEST JUMPDEST PUSH1 0x20 DUP3 MUL SWAP1 POP PUSH1 0x20 DUP2 ADD SWAP1 POP SWAP2 SWAP1 POP JUMP JUMPDEST PUSH2 0x21A1 DUP2 PUSH2 0x1918 JUMP JUMPDEST DUP2 EQ PUSH2 0x21AC JUMPI PUSH1 0x0 DUP1 REVERT JUMPDEST POP JUMP JUMPDEST PUSH1 0x0 DUP2 CALLDATALOAD SWAP1 POP PUSH2 0x21BE DUP2 PUSH2 0x2198 JUMP JUMPDEST SWAP3 SWAP2 POP POP JUMP JUMPDEST PUSH1 0x0 PUSH1 0x80 DUP3 DUP5 SUB SLT ISZERO PUSH2 0x21DA JUMPI PUSH2 0x21D9 PUSH2 0x1F48 JUMP JUMPDEST JUMPDEST PUSH2 0x21E4 PUSH1 0x80 PUSH2 0x1C2A JUMP JUMPDEST SWAP1 POP PUSH1 0x0 PUSH2 0x21F4 DUP5 DUP3 DUP6 ADD PUSH2 0x1E90 JUMP JUMPDEST PUSH1 0x0 DUP4 ADD MSTORE POP PUSH1 0x20 PUSH2 0x2208 DUP5 DUP3 DUP6 ADD PUSH2 0x21AF JUMP JUMPDEST PUSH1 0x20 DUP4 ADD MSTORE POP PUSH1 0x40 PUSH2 0x221C DUP5 DUP3 DUP6 ADD PUSH2 0x21AF JUMP JUMPDEST PUSH1 0x40 DUP4 ADD MSTORE POP PUSH1 0x60 DUP3 ADD CALLDATALOAD PUSH8 0xFFFFFFFFFFFFFFFF DUP2 GT ISZERO PUSH2 0x2240 JUMPI PUSH2 0x223F PUSH2 0x1F4D JUMP JUMPDEST JUMPDEST PUSH2 0x224C DUP5 DUP3 DUP6 ADD PUSH2 0x1CFD JUMP JUMPDEST PUSH1 0x60 DUP4 ADD MSTORE POP SWAP3 SWAP2 POP POP JUMP JUMPDEST PUSH1 0x0 PUSH2 0x226B PUSH2 0x2266 DUP5 PUSH2 0x216C JUMP JUMPDEST PUSH2 0x1C2A JUMP JUMPDEST SWAP1 POP DUP1 DUP4 DUP3 MSTORE PUSH1 0x20 DUP3 ADD SWAP1 POP PUSH1 0x20 DUP5 MUL DUP4 ADD DUP6 DUP2 GT ISZERO PUSH2 0x228E JUMPI PUSH2 0x228D PUSH2 0x1C71 JUMP JUMPDEST JUMPDEST DUP4 JUMPDEST DUP2 DUP2 LT ISZERO PUSH2 0x22D5 JUMPI DUP1 CALLDATALOAD PUSH8 0xFFFFFFFFFFFFFFFF DUP2 GT ISZERO PUSH2 0x22B3 JUMPI PUSH2 0x22B2 PUSH2 0x1BC5 JUMP JUMPDEST JUMPDEST DUP1 DUP7 ADD PUSH2 0x22C0 DUP10 DUP3 PUSH2 0x21C4 JUMP JUMPDEST DUP6 MSTORE PUSH1 0x20 DUP6 ADD SWAP5 POP POP POP PUSH1 0x20 DUP2 ADD SWAP1 POP PUSH2 0x2290 JUMP JUMPDEST POP POP POP SWAP4 SWAP3 POP POP POP JUMP JUMPDEST PUSH1 0x0 DUP3 PUSH1 0x1F DUP4 ADD SLT PUSH2 0x22F4 JUMPI PUSH2 0x22F3 PUSH2 0x1BC5 JUMP JUMPDEST JUMPDEST DUP2 CALLDATALOAD PUSH2 0x2304 DUP5 DUP3 PUSH1 0x20 DUP7 ADD PUSH2 0x2258 JUMP JUMPDEST SWAP2 POP POP SWAP3 SWAP2 POP POP JUMP JUMPDEST PUSH1 0x0 PUSH1 0x20 DUP3 DUP5 SUB SLT ISZERO PUSH2 0x2323 JUMPI PUSH2 0x2322 PUSH2 0x17EF JUMP JUMPDEST JUMPDEST PUSH1 0x0 DUP3 ADD CALLDATALOAD PUSH8 0xFFFFFFFFFFFFFFFF DUP2 GT ISZERO PUSH2 0x2341 JUMPI PUSH2 0x2340 PUSH2 0x17F4 JUMP JUMPDEST JUMPDEST PUSH2 0x234D DUP5 DUP3 DUP6 ADD PUSH2 0x22DF JUMP JUMPDEST SWAP2 POP POP SWAP3 SWAP2 POP POP JUMP JUMPDEST PUSH1 0x0 DUP2 MLOAD SWAP1 POP SWAP2 SWAP1 POP JUMP JUMPDEST PUSH1 0x0 DUP3 DUP3 MSTORE PUSH1 0x20 DUP3 ADD SWAP1 POP SWAP3 SWAP2 POP POP JUMP JUMPDEST PUSH1 0x0 DUP2 SWAP1 POP PUSH1 0x20 DUP3 ADD SWAP1 POP SWAP2 SWAP1 POP JUMP JUMPDEST PUSH2 0x238B DUP2 PUSH2 0x1F52 JUMP JUMPDEST DUP3 MSTORE POP POP JUMP JUMPDEST PUSH1 0x0 PUSH1 0x80 DUP4 ADD PUSH1 0x0 DUP4 ADD MLOAD PUSH2 0x23A9 PUSH1 0x0 DUP7 ADD DUP3 PUSH2 0x1909 JUMP JUMPDEST POP PUSH1 0x20 DUP4 ADD MLOAD PUSH2 0x23BC PUSH1 0x20 DUP7 ADD DUP3 PUSH2 0x2382 JUMP JUMPDEST POP PUSH1 0x40 DUP4 ADD MLOAD DUP5 DUP3 SUB PUSH1 0x40 DUP7 ADD MSTORE PUSH2 0x23D4 DUP3 DUP3 PUSH2 0x1AD4 JUMP JUMPDEST SWAP2 POP POP PUSH1 0x60 DUP4 ADD MLOAD DUP5 DUP3 SUB PUSH1 0x60 DUP7 ADD MSTORE PUSH2 0x23EE DUP3 DUP3 PUSH2 0x1AD4 JUMP JUMPDEST SWAP2 POP POP DUP1 SWAP2 POP POP SWAP3 SWAP2 POP POP JUMP JUMPDEST PUSH1 0x0 PUSH2 0x2407 DUP4 DUP4 PUSH2 0x2391 JUMP JUMPDEST SWAP1 POP SWAP3 SWAP2 POP POP JUMP JUMPDEST PUSH1 0x0 PUSH1 0x20 DUP3 ADD SWAP1 POP SWAP2 SWAP1 POP JUMP JUMPDEST PUSH1 0x0 PUSH2 0x2427 DUP3 PUSH2 0x2356 JUMP JUMPDEST PUSH2 0x2431 DUP2 DUP6 PUSH2 0x2361 JUMP JUMPDEST SWAP4 POP DUP4 PUSH1 0x20 DUP3 MUL DUP6 ADD PUSH2 0x2443 DUP6 PUSH2 0x2372 JUMP JUMPDEST DUP1 PUSH1 0x0 JUMPDEST DUP6 DUP2 LT ISZERO PUSH2 0x247F JUMPI DUP5 DUP5 SUB DUP10 MSTORE DUP2 MLOAD PUSH2 0x2460 DUP6 DUP3 PUSH2 0x23FB JUMP JUMPDEST SWAP5 POP PUSH2 0x246B DUP4 PUSH2 0x240F JUMP JUMPDEST SWAP3 POP PUSH1 0x20 DUP11 ADD SWAP10 POP POP PUSH1 0x1 DUP2 ADD SWAP1 POP PUSH2 0x2447 JUMP JUMPDEST POP DUP3 SWAP8 POP DUP8 SWAP6 POP POP POP POP POP POP SWAP3 SWAP2 POP POP JUMP JUMPDEST PUSH1 0x0 PUSH1 0x20 DUP3 ADD SWAP1 POP DUP2 DUP2 SUB PUSH1 0x0 DUP4 ADD MSTORE PUSH2 0x24AB DUP2 DUP5 PUSH2 0x241C JUMP JUMPDEST SWAP1 POP SWAP3 SWAP2 POP POP JUMP JUMPDEST PUSH1 0x0 DUP1 PUSH1 0x40 DUP4 DUP6 SUB SLT ISZERO PUSH2 0x24CA JUMPI PUSH2 0x24C9 PUSH2 0x17EF JUMP JUMPDEST JUMPDEST PUSH1 0x0 DUP4 ADD CALLDATALOAD PUSH8 0xFFFFFFFFFFFFFFFF DUP2 GT ISZERO PUSH2 0x24E8 JUMPI PUSH2 0x24E7 PUSH2 0x17F4 JUMP JUMPDEST JUMPDEST PUSH2 0x24F4 DUP6 DUP3 DUP7 ADD PUSH2 0x1CFD JUMP JUMPDEST SWAP3 POP POP PUSH1 0x20 PUSH2 0x2505 DUP6 DUP3 DUP7 ADD PUSH2 0x181A JUMP JUMPDEST SWAP2 POP POP SWAP3 POP SWAP3 SWAP1 POP JUMP JUMPDEST PUSH1 0x0 PUSH1 0x80 DUP4 ADD PUSH1 0x0 DUP4 ADD MLOAD PUSH2 0x2527 PUSH1 0x0 DUP7 ADD DUP3 PUSH2 0x1909 JUMP JUMPDEST POP PUSH1 0x20 DUP4 ADD MLOAD PUSH2 0x253A PUSH1 0x20 DUP7 ADD DUP3 PUSH2 0x2382 JUMP JUMPDEST POP PUSH1 0x40 DUP4 ADD MLOAD DUP5 DUP3 SUB PUSH1 0x40 DUP7 ADD MSTORE PUSH2 0x2552 DUP3 DUP3 PUSH2 0x1AD4 JUMP JUMPDEST SWAP2 POP POP PUSH1 0x60 DUP4 ADD MLOAD DUP5 DUP3 SUB PUSH1 0x60 DUP7 ADD MSTORE PUSH2 0x256C DUP3 DUP3 PUSH2 0x1AD4 JUMP JUMPDEST SWAP2 POP POP DUP1 SWAP2 POP POP SWAP3 SWAP2 POP POP JUMP JUMPDEST PUSH1 0x0 PUSH1 0x20 DUP3 ADD SWAP1 POP DUP2 DUP2 SUB PUSH1 0x0 DUP4 ADD MSTORE PUSH2 0x2593 DUP2 DUP5 PUSH2 0x250F JUMP JUMPDEST SWAP1 POP SWAP3 SWAP2 POP POP JUMP JUMPDEST PUSH1 0x0 PUSH8 0xFFFFFFFFFFFFFFFF DUP3 GT ISZERO PUSH2 0x25B6 JUMPI PUSH2 0x25B5 PUSH2 0x1BCA JUMP JUMPDEST JUMPDEST PUSH1 0x20 DUP3 MUL SWAP1 POP PUSH1 0x20 DUP2 ADD SWAP1 POP SWAP2 SWAP1 POP JUMP JUMPDEST PUSH1 0x0 PUSH1 0x60 DUP3 DUP5 SUB SLT ISZERO PUSH2 0x25DD JUMPI PUSH2 0x25DC PUSH2 0x1F48 JUMP JUMPDEST JUMPDEST PUSH2 0x25E7 PUSH1 0x60 PUSH2 0x1C2A JUMP JUMPDEST SWAP1 POP PUSH1 0x0 PUSH2 0x25F7 DUP5 DUP3 DUP6 ADD PUSH2 0x1E90 JUMP JUMPDEST PUSH1 0x0 DUP4 ADD MSTORE POP PUSH1 0x20 PUSH2 0x260B DUP5 DUP3 DUP6 ADD PUSH2 0x21AF JUMP JUMPDEST PUSH1 0x20 DUP4 ADD MSTORE POP PUSH1 0x40 PUSH2 0x261F DUP5 DUP3 DUP6 ADD PUSH2 0x21AF JUMP JUMPDEST PUSH1 0x40 DUP4 ADD MSTORE POP SWAP3 SWAP2 POP POP JUMP JUMPDEST PUSH1 0x0 PUSH2 0x263E PUSH2 0x2639 DUP5 PUSH2 0x259B JUMP JUMPDEST PUSH2 0x1C2A JUMP JUMPDEST SWAP1 POP DUP1 DUP4 DUP3 MSTORE PUSH1 0x20 DUP3 ADD SWAP1 POP PUSH1 0x60 DUP5 MUL DUP4 ADD DUP6 DUP2 GT ISZERO PUSH2 0x2661 JUMPI PUSH2 0x2660 PUSH2 0x1C71 JUMP JUMPDEST JUMPDEST DUP4 JUMPDEST DUP2 DUP2 LT ISZERO PUSH2 0x268A JUMPI DUP1 PUSH2 0x2676 DUP9 DUP3 PUSH2 0x25C7 JUMP JUMPDEST DUP5 MSTORE PUSH1 0x20 DUP5 ADD SWAP4 POP POP PUSH1 0x60 DUP2 ADD SWAP1 POP PUSH2 0x2663 JUMP JUMPDEST POP POP POP SWAP4 SWAP3 POP POP POP JUMP JUMPDEST PUSH1 0x0 DUP3 PUSH1 0x1F DUP4 ADD SLT PUSH2 0x26A9 JUMPI PUSH2 0x26A8 PUSH2 0x1BC5 JUMP JUMPDEST JUMPDEST DUP2 CALLDATALOAD PUSH2 0x26B9 DUP5 DUP3 PUSH1 0x20 DUP7 ADD PUSH2 0x262B JUMP JUMPDEST SWAP2 POP POP SWAP3 SWAP2 POP POP JUMP JUMPDEST PUSH1 0x0 PUSH1 0x20 DUP3 DUP5 SUB SLT ISZERO PUSH2 0x26D8 JUMPI PUSH2 0x26D7 PUSH2 0x17EF JUMP JUMPDEST JUMPDEST PUSH1 0x0 DUP3 ADD CALLDATALOAD PUSH8 0xFFFFFFFFFFFFFFFF DUP2 GT ISZERO PUSH2 0x26F6 JUMPI PUSH2 0x26F5 PUSH2 0x17F4 JUMP JUMPDEST JUMPDEST PUSH2 0x2702 DUP5 DUP3 DUP6 ADD PUSH2 0x2694 JUMP JUMPDEST SWAP2 POP POP SWAP3 SWAP2 POP POP JUMP JUMPDEST PUSH1 0x0 PUSH1 0x20 DUP3 DUP5 SUB SLT ISZERO PUSH2 0x2721 JUMPI PUSH2 0x2720 PUSH2 0x17EF JUMP JUMPDEST JUMPDEST PUSH1 0x0 DUP3 ADD CALLDATALOAD PUSH8 0xFFFFFFFFFFFFFFFF DUP2 GT ISZERO PUSH2 0x273F JUMPI PUSH2 0x273E PUSH2 0x17F4 JUMP JUMPDEST JUMPDEST PUSH2 0x274B DUP5 DUP3 DUP6 ADD PUSH2 0x1CFD JUMP JUMPDEST SWAP2 POP POP SWAP3 SWAP2 POP POP JUMP JUMPDEST PUSH32 0x4E487B7100000000000000000000000000000000000000000000000000000000 PUSH1 0x0 MSTORE PUSH1 0x32 PUSH1 0x4 MSTORE PUSH1 0x24 PUSH1 0x0 REVERT JUMPDEST PUSH32 0x4E487B7100000000000000000000000000000000000000000000000000000000 PUSH1 0x0 MSTORE PUSH1 0x11 PUSH1 0x4 MSTORE PUSH1 0x24 PUSH1 0x0 REVERT JUMPDEST PUSH1 0x0 PUSH2 0x27BD DUP3 PUSH2 0x17F9 JUMP JUMPDEST SWAP2 POP PUSH32 0xFFFFFFFFFFFFFFFFFFFFFFFFFFFFFFFFFFFFFFFFFFFFFFFFFFFFFFFFFFFFFFFF DUP3 SUB PUSH2 0x27EF JUMPI PUSH2 0x27EE PUSH2 0x2783 JUMP JUMPDEST JUMPDEST PUSH1 0x1 DUP3 ADD SWAP1 POP SWAP2 SWAP1 POP JUMP JUMPDEST PUSH32 0x4E487B7100000000000000000000000000000000000000000000000000000000 PUSH1 0x0 MSTORE PUSH1 0x22 PUSH1 0x4 MSTORE PUSH1 0x24 PUSH1 0x0 REVERT JUMPDEST PUSH1 0x0 PUSH1 0x2 DUP3 DIV SWAP1 POP PUSH1 0x1 DUP3 AND DUP1 PUSH2 0x2841 JUMPI PUSH1 0x7F DUP3 AND SWAP2 POP JUMPDEST PUSH1 0x20 DUP3 LT DUP2 SUB PUSH2 0x2854 JUMPI PUSH2 0x2853 PUSH2 0x27FA JUMP JUMPDEST JUMPDEST POP SWAP2 SWAP1 POP JUMP JUMPDEST PUSH1 0x0 DUP2 SWAP1 POP DUP2 PUSH1 0x0 MSTORE PUSH1 0x20 PUSH1 0x0 KECCAK256 SWAP1 POP SWAP2 SWAP1 POP JUMP JUMPDEST PUSH1 0x0 PUSH1 0x20 PUSH1 0x1F DUP4 ADD DIV SWAP1 POP SWAP2 SWAP1 POP JUMP JUMPDEST PUSH1 0x0 DUP3 DUP3 SHL SWAP1 POP SWAP3 SWAP2 POP POP JUMP JUMPDEST PUSH1 0x0 PUSH1 0x8 DUP4 MUL PUSH2 0x28BC PUSH32 0xFFFFFFFFFFFFFFFFFFFFFFFFFFFFFFFFFFFFFFFFFFFFFFFFFFFFFFFFFFFFFFFF DUP3 PUSH2 0x287F JUMP JUMPDEST PUSH2 0x28C6 DUP7 DUP4 PUSH2 0x287F JUMP JUMPDEST SWAP6 POP DUP1 NOT DUP5 AND SWAP4 POP DUP1 DUP7 AND DUP5 OR SWAP3 POP POP POP SWAP4 SWAP3 POP POP POP JUMP JUMPDEST PUSH1 0x0 DUP2 SWAP1 POP SWAP2 SWAP1 POP JUMP JUMPDEST PUSH1 0x0 PUSH2 0x2903 PUSH2 0x28FE PUSH2 0x28F9 DUP5 PUSH2 0x17F9 JUMP JUMPDEST PUSH2 0x28DE JUMP JUMPDEST PUSH2 0x17F9 JUMP JUMPDEST SWAP1 POP SWAP2 SWAP1 POP JUMP JUMPDEST PUSH1 0x0 DUP2 SWAP1 POP SWAP2 SWAP1 POP JUMP JUMPDEST PUSH2 0x291D DUP4 PUSH2 0x28E8 JUMP JUMPDEST PUSH2 0x2931 PUSH2 0x2929 DUP3 PUSH2 0x290A JUMP JUMPDEST DUP5 DUP5 SLOAD PUSH2 0x288C JUMP JUMPDEST DUP3 SSTORE POP POP POP POP JUMP JUMPDEST PUSH1 0x0 SWAP1 JUMP JUMPDEST PUSH2 0x2946 PUSH2 0x2939 JUMP JUMPDEST PUSH2 0x2951 DUP2 DUP5 DUP5 PUSH2 0x2914 JUMP JUMPDEST POP POP POP JUMP JUMPDEST JUMPDEST DUP2 DUP2 LT ISZERO PUSH2 0x2975 JUMPI PUSH2 0x296A PUSH1 0x0 DUP3 PUSH2 0x293E JUMP JUMPDEST PUSH1 0x1 DUP2 ADD SWAP1 POP PUSH2 0x2957 JUMP JUMPDEST POP POP JUMP JUMPDEST PUSH1 0x1F DUP3 GT ISZERO PUSH2 0x29BA JUMPI PUSH2 0x298B DUP2 PUSH2 0x285A JUMP JUMPDEST PUSH2 0x2994 DUP5 PUSH2 0x286F JUMP JUMPDEST DUP2 ADD PUSH1 0x20 DUP6 LT ISZERO PUSH2 0x29A3 JUMPI DUP2 SWAP1 POP JUMPDEST PUSH2 0x29B7 PUSH2 0x29AF DUP6 PUSH2 0x286F JUMP JUMPDEST DUP4 ADD DUP3 PUSH2 0x2956 JUMP JUMPDEST POP POP JUMPDEST POP POP POP JUMP JUMPDEST PUSH1 0x0 DUP3 DUP3 SHR SWAP1 POP SWAP3 SWAP2 POP POP JUMP JUMPDEST PUSH1 0x0 PUSH2 0x29DD PUSH1 0x0 NOT DUP5 PUSH1 0x8 MUL PUSH2 0x29BF JUMP JUMPDEST NOT DUP1 DUP4 AND SWAP2 POP POP SWAP3 SWAP2 POP POP JUMP JUMPDEST PUSH1 0x0 PUSH2 0x29F6 DUP4 DUP4 PUSH2 0x29CC JUMP JUMPDEST SWAP2 POP DUP3 PUSH1 0x2 MUL DUP3 OR SWAP1 POP SWAP3 SWAP2 POP POP JUMP JUMPDEST PUSH2 0x2A0F DUP3 PUSH2 0x1A74 JUMP JUMPDEST PUSH8 0xFFFFFFFFFFFFFFFF DUP2 GT ISZERO PUSH2 0x2A28 JUMPI PUSH2 0x2A27 PUSH2 0x1BCA JUMP JUMPDEST JUMPDEST PUSH2 0x2A32 DUP3 SLOAD PUSH2 0x2829 JUMP JUMPDEST PUSH2 0x2A3D DUP3 DUP3 DUP6 PUSH2 0x2979 JUMP JUMPDEST PUSH1 0x0 PUSH1 0x20 SWAP1 POP PUSH1 0x1F DUP4 GT PUSH1 0x1 DUP2 EQ PUSH2 0x2A70 JUMPI PUSH1 0x0 DUP5 ISZERO PUSH2 0x2A5E JUMPI DUP3 DUP8 ADD MLOAD SWAP1 POP JUMPDEST PUSH2 0x2A68 DUP6 DUP3 PUSH2 0x29EA JUMP JUMPDEST DUP7 SSTORE POP PUSH2 0x2AD0 JUMP JUMPDEST PUSH1 0x1F NOT DUP5 AND PUSH2 0x2A7E DUP7 PUSH2 0x285A JUMP JUMPDEST PUSH1 0x0 JUMPDEST DUP3 DUP2 LT ISZERO PUSH2 0x2AA6 JUMPI DUP5 DUP10 ADD MLOAD DUP3 SSTORE PUSH1 0x1 DUP3 ADD SWAP2 POP PUSH1 0x20 DUP6 ADD SWAP5 POP PUSH1 0x20 DUP2 ADD SWAP1 POP PUSH2 0x2A81 JUMP JUMPDEST DUP7 DUP4 LT ISZERO PUSH2 0x2AC3 JUMPI DUP5 DUP10 ADD MLOAD PUSH2 0x2ABF PUSH1 0x1F DUP10 AND DUP3 PUSH2 0x29CC JUMP JUMPDEST DUP4 SSTORE POP JUMPDEST PUSH1 0x1 PUSH1 0x2 DUP9 MUL ADD DUP9 SSTORE POP POP POP JUMPDEST POP POP POP POP POP POP JUMP JUMPDEST PUSH1 0x0 DUP2 SWAP1 POP SWAP3 SWAP2 POP POP JUMP JUMPDEST PUSH1 0x0 DUP2 SLOAD PUSH2 0x2AF0 DUP2 PUSH2 0x2829 JUMP JUMPDEST PUSH2 0x2AFA DUP2 DUP7 PUSH2 0x2AD8 JUMP JUMPDEST SWAP5 POP PUSH1 0x1 DUP3 AND PUSH1 0x0 DUP2 EQ PUSH2 0x2B15 JUMPI PUSH1 0x1 DUP2 EQ PUSH2 0x2B2A JUMPI PUSH2 0x2B5D JUMP JUMPDEST PUSH1 0xFF NOT DUP4 AND DUP7 MSTORE DUP2 ISZERO ISZERO DUP3 MUL DUP7 ADD SWAP4 POP PUSH2 0x2B5D JUMP JUMPDEST PUSH2 0x2B33 DUP6 PUSH2 0x285A JUMP JUMPDEST PUSH1 0x0 JUMPDEST DUP4 DUP2 LT ISZERO PUSH2 0x2B55 JUMPI DUP2 SLOAD DUP2 DUP10 ADD MSTORE PUSH1 0x1 DUP3 ADD SWAP2 POP PUSH1 0x20 DUP2 ADD SWAP1 POP PUSH2 0x2B36 JUMP JUMPDEST DUP4 DUP9 ADD SWAP6 POP POP POP JUMPDEST POP POP POP SWAP3 SWAP2 POP POP JUMP JUMPDEST PUSH1 0x0 PUSH2 0x2B72 DUP3 DUP5 PUSH2 0x2AE3 JUMP JUMPDEST SWAP2 POP DUP2 SWAP1 POP SWAP3 SWAP2 POP POP JUMP JUMPDEST PUSH1 0x0 PUSH2 0x2B88 DUP3 PUSH2 0x17F9 JUMP JUMPDEST SWAP2 POP PUSH2 0x2B93 DUP4 PUSH2 0x17F9 JUMP JUMPDEST SWAP3 POP DUP3 PUSH32 0xFFFFFFFFFFFFFFFFFFFFFFFFFFFFFFFFFFFFFFFFFFFFFFFFFFFFFFFFFFFFFFFF SUB DUP3 GT ISZERO PUSH2 0x2BC8 JUMPI PUSH2 0x2BC7 PUSH2 0x2783 JUMP JUMPDEST JUMPDEST DUP3 DUP3 ADD SWAP1 POP SWAP3 SWAP2 POP POP JUMP JUMPDEST PUSH1 0x0 PUSH2 0x2BDE DUP3 PUSH2 0x1A74 JUMP JUMPDEST PUSH2 0x2BE8 DUP2 DUP6 PUSH2 0x2AD8 JUMP JUMPDEST SWAP4 POP PUSH2 0x2BF8 DUP2 DUP6 PUSH1 0x20 DUP7 ADD PUSH2 0x1A90 JUMP JUMPDEST DUP1 DUP5 ADD SWAP2 POP POP SWAP3 SWAP2 POP POP JUMP JUMPDEST PUSH1 0x0 PUSH2 0x2C10 DUP3 DUP5 PUSH2 0x2BD3 JUMP JUMPDEST SWAP2 POP DUP2 SWAP1 POP SWAP3 SWAP2 POP POP JUMP JUMPDEST PUSH1 0x0 DUP3 DUP3 MSTORE PUSH1 0x20 DUP3 ADD SWAP1 POP SWAP3 SWAP2 POP POP JUMP JUMPDEST PUSH32 0x50726564696374696F6E20506572696F6420697320636C6F7365642100000000 PUSH1 0x0 DUP3 ADD MSTORE POP JUMP JUMPDEST PUSH1 0x0 PUSH2 0x2C62 PUSH1 0x1C DUP4 PUSH2 0x2C1B JUMP JUMPDEST SWAP2 POP PUSH2 0x2C6D DUP3 PUSH2 0x2C2C JUMP JUMPDEST PUSH1 0x20 DUP3 ADD SWAP1 POP SWAP2 SWAP1 POP JUMP JUMPDEST PUSH1 0x0 PUSH1 0x20 DUP3 ADD SWAP1 POP DUP2 DUP2 SUB PUSH1 0x0 DUP4 ADD MSTORE PUSH2 0x2C91 DUP2 PUSH2 0x2C55 JUMP JUMPDEST SWAP1 POP SWAP2 SWAP1 POP JUMP JUMPDEST PUSH32 0x546865206E756D626572206F662070726564696374696F6E7320646F65736E27 PUSH1 0x0 DUP3 ADD MSTORE PUSH32 0x74206D6174636821000000000000000000000000000000000000000000000000 PUSH1 0x20 DUP3 ADD MSTORE POP JUMP JUMPDEST PUSH1 0x0 PUSH2 0x2CF4 PUSH1 0x28 DUP4 PUSH2 0x2C1B JUMP JUMPDEST SWAP2 POP PUSH2 0x2CFF DUP3 PUSH2 0x2C98 JUMP JUMPDEST PUSH1 0x40 DUP3 ADD SWAP1 POP SWAP2 SWAP1 POP JUMP JUMPDEST PUSH1 0x0 PUSH1 0x20 DUP3 ADD SWAP1 POP DUP2 DUP2 SUB PUSH1 0x0 DUP4 ADD MSTORE PUSH2 0x2D23 DUP2 PUSH2 0x2CE7 JUMP JUMPDEST SWAP1 POP SWAP2 SWAP1 POP JUMP INVALID LOG2 PUSH5 0x6970667358 0x22 SLT KECCAK256 KECCAK256 CALLDATACOPY 0xBD EXP PUSH30 0xA804CCD8CAC04B7A249F5FF8037B7872D740E53562859242409C9964736F PUSH13 0x634300080F0033000000000000 "},"methodIdentifiers":{"checkResult(uint256,address)":"7fb9c45f","createContest(uint256,string[],uint256)":"18699547","fakeGameCreate(string,(uint32,uint40,string,string)[])":"1f2bf10c","getCurrentContestId()":"fb46bd22","getGameCreate(string,uint256)":"80b41a09","getListGamesPerContest(uint256)":"7e5dd913","getNumberOfGamesPerContest(uint256)":"1d883342","getNumberOfGamesPerRequest(string)":"ea6a0410","getNumberOfPlayers(uint256)":"62436d9d","getPrevisionsPerPlayerPerContest(uint256,address)":"117f3998","getRequestIdPerContest(uint256)":"1506bca6","getScorePerGameId(uint32)":"1e7741f0","savePrediction((uint32,uint8,uint8)[])":"9fa75e9a","saveRequestResults((uint32,uint8,uint8,string)[])":"3302787d"}}}}}