{"contracts/IpPrediction.sol":{"Test":{"abi":[{"inputs":[],"stateMutability":"nonpayable","type":"constructor"},{"inputs":[{"internalType":"uint256","name":"","type":"uint256"}],"name":"gainTable","outputs":[{"internalType":"string","name":"player","type":"string"},{"internalType":"uint256","name":"score","type":"uint256"},{"internalType":"uint256","name":"rewardNoExAequo","type":"uint256"},{"internalType":"uint256","name":"cumulatedRewardsNoExAequo","type":"uint256"},{"internalType":"uint256","name":"rankExAequo","type":"uint256"}],"stateMutability":"view","type":"function"},{"inputs":[],"name":"getGainTable","outputs":[{"components":[{"internalType":"string","name":"player","type":"string"},{"internalType":"uint256","name":"score","type":"uint256"},{"internalType":"uint256","name":"rewardNoExAequo","type":"uint256"},{"internalType":"uint256","name":"cumulatedRewardsNoExAequo","type":"uint256"},{"internalType":"uint256","name":"rankExAequo","type":"uint256"}],"internalType":"struct Test.GainTable[]","name":"","type":"tuple[]"}],"stateMutability":"view","type":"function"},{"inputs":[{"internalType":"string","name":"_player","type":"string"},{"internalType":"uint256","name":"_score","type":"uint256"}],"name":"pushInScoreTable","outputs":[],"stateMutability":"nonpayable","type":"function"},{"inputs":[],"name":"rank","outputs":[],"stateMutability":"nonpayable","type":"function"},{"inputs":[{"internalType":"uint256","name":"","type":"uint256"}],"name":"scoreTable","outputs":[{"internalType":"string","name":"player","type":"string"},{"internalType":"uint256","name":"score","type":"uint256"}],"stateMutability":"view","type":"function"}],"evm":{"bytecode":{"linkReferences":{},"object":"60806040523480156200001157600080fd5b506106de60008190555060056001819055506200006b6040518060400160405280600781526020017f7469636b65743100000000000000000000000000000000000000000000000000815250605a6200019160201b60201c565b620000b36040518060400160405280600781526020017f7469636b65743200000000000000000000000000000000000000000000000000815250604e6200019160201b60201c565b620000fb6040518060400160405280600781526020017f7469636b6574330000000000000000000000000000000000000000000000000081525060646200019160201b60201c565b620001436040518060400160405280600781526020017f7469636b65743400000000000000000000000000000000000000000000000000815250604e6200019160201b60201c565b6200018b6040518060400160405280600781526020017f7469636b6574350000000000000000000000000000000000000000000000000081525060646200019160201b60201c565b6200055a565b600360405180604001604052808481526020018381525090806001815401808255809150506001900390600052602060002090600202016000909190919091506000820151816000019081620001e8919062000473565b506020820151816001015550505050565b600081519050919050565b7f4e487b7100000000000000000000000000000000000000000000000000000000600052604160045260246000fd5b7f4e487b7100000000000000000000000000000000000000000000000000000000600052602260045260246000fd5b600060028204905060018216806200027b57607f821691505b60208210810362000291576200029062000233565b5b50919050565b60008190508160005260206000209050919050565b60006020601f8301049050919050565b600082821b905092915050565b600060088302620002fb7fffffffffffffffffffffffffffffffffffffffffffffffffffffffffffffffff82620002bc565b620003078683620002bc565b95508019841693508086168417925050509392505050565b6000819050919050565b6000819050919050565b6000620003546200034e62000348846200031f565b62000329565b6200031f565b9050919050565b6000819050919050565b620003708362000333565b620003886200037f826200035b565b848454620002c9565b825550505050565b600090565b6200039f62000390565b620003ac81848462000365565b505050565b5b81811015620003d457620003c860008262000395565b600181019050620003b2565b5050565b601f8211156200042357620003ed8162000297565b620003f884620002ac565b8101602085101562000408578190505b620004206200041785620002ac565b830182620003b1565b50505b505050565b600082821c905092915050565b6000620004486000198460080262000428565b1980831691505092915050565b600062000463838362000435565b9150826002028217905092915050565b6200047e82620001f9565b67ffffffffffffffff8111156200049a576200049962000204565b5b620004a6825462000262565b620004b3828285620003d8565b600060209050601f831160018114620004eb5760008415620004d6578287015190505b620004e2858262000455565b86555062000552565b601f198416620004fb8662000297565b60005b828110156200052557848901518255600182019150602085019450602081019050620004fe565b8683101562000545578489015162000541601f89168262000435565b8355505b6001600288020188555050505b505050505050565b61125f806200056a6000396000f3fe608060405234801561001057600080fd5b50600436106100575760003560e01c806344235ec21461005c5780637e3ee4161461008d5780638ffb7b51146100c1578063934209ce146100dd5780639fe6b7cd146100e7575b600080fd5b610076600480360381019061007191906108be565b610105565b604051610084929190610993565b60405180910390f35b6100a760048036038101906100a291906108be565b6101c1565b6040516100b89594939291906109c3565b60405180910390f35b6100db60048036038101906100d69190610b52565b61028f565b005b6100e56102f5565b005b6100ef61072c565b6040516100fc9190610d3f565b60405180910390f35b6003818154811061011557600080fd5b906000526020600020906002020160009150905080600001805461013890610d90565b80601f016020809104026020016040519081016040528092919081815260200182805461016490610d90565b80156101b15780601f10610186576101008083540402835291602001916101b1565b820191906000526020600020905b81548152906001019060200180831161019457829003601f168201915b5050505050908060010154905082565b600281815481106101d157600080fd5b90600052602060002090600502016000915090508060000180546101f490610d90565b80601f016020809104026020016040519081016040528092919081815260200182805461022090610d90565b801561026d5780601f106102425761010080835404028352916020019161026d565b820191906000526020600020905b81548152906001019060200180831161025057829003601f168201915b5050505050908060010154908060020154908060030154908060040154905085565b6003604051806040016040528084815260200183815250908060018154018082558091505060019003906000526020600020906002020160009091909190915060008201518160000190816102e49190610f6d565b506020820151816001015550505050565b600060038054905090506000806000808467ffffffffffffffff81111561031f5761031e610a27565b5b60405190808252806020026020018201604052801561035857816020015b610345610845565b81526020019060019003908161033d5790505b50905060005b85811015610522576001945060005b868110156103f557600381815481106103895761038861103f565b5b906000526020600020906002020160010154600383815481106103af576103ae61103f565b5b90600052602060002090600202016001015410156103e25785806103d29061109d565b965050848611156103e1578594505b5b80806103ed9061109d565b91505061036d565b506040518060a00160405280600383815481106104155761041461103f565b5b9060005260206000209060020201600001805461043190610d90565b80601f016020809104026020016040519081016040528092919081815260200182805461045d90610d90565b80156104aa5780601f1061047f576101008083540402835291602001916104aa565b820191906000526020600020905b81548152906001019060200180831161048d57829003601f168201915b50505050508152602001600383815481106104c8576104c761103f565b5b90600052602060002090600202016001015481526020016000815260200160008152602001868152508282815181106105045761050361103f565b5b6020026020010181905250808061051a9061109d565b91505061035e565b506000600190505b8381116106775760005b8681101561066357818382815181106105505761054f61103f565b5b602002602001015160800151036106505760026040518060a001604052808584815181106105815761058061103f565b5b60200260200101516000015181526020018584815181106105a5576105a461103f565b5b602002602001015160200151815260200160008152602001600081526020018584815181106105d7576105d661103f565b5b602002602001015160800151815250908060018154018082558091505060019003906000526020600020906005020160009091909190915060008201518160000190816106249190610f6d565b506020820151816001015560408201518160020155606082015181600301556080820151816004015550505b808061065b9061109d565b915050610534565b50808061066f9061109d565b91505061052a565b5060005b8581101561072457600060646001548560005461069891906110e5565b6106a29190611119565b6106ac91906111a2565b905080600283815481106106c3576106c261103f565b5b90600052602060002090600502016002018190555080846106e491906111d3565b935083600283815481106106fb576106fa61103f565b5b90600052602060002090600502016003018190555050808061071c9061109d565b91505061067b565b505050505050565b60606002805480602002602001604051908101604052809291908181526020016000905b8282101561083c57838290600052602060002090600502016040518060a001604052908160008201805461078390610d90565b80601f01602080910402602001604051908101604052809291908181526020018280546107af90610d90565b80156107fc5780601f106107d1576101008083540402835291602001916107fc565b820191906000526020600020905b8154815290600101906020018083116107df57829003601f168201915b5050505050815260200160018201548152602001600282015481526020016003820154815260200160048201548152505081526020019060010190610750565b50505050905090565b6040518060a0016040528060608152602001600081526020016000815260200160008152602001600081525090565b6000604051905090565b600080fd5b600080fd5b6000819050919050565b61089b81610888565b81146108a657600080fd5b50565b6000813590506108b881610892565b92915050565b6000602082840312156108d4576108d361087e565b5b60006108e2848285016108a9565b91505092915050565b600081519050919050565b600082825260208201905092915050565b60005b8381101561092557808201518184015260208101905061090a565b83811115610934576000848401525b50505050565b6000601f19601f8301169050919050565b6000610956826108eb565b61096081856108f6565b9350610970818560208601610907565b6109798161093a565b840191505092915050565b61098d81610888565b82525050565b600060408201905081810360008301526109ad818561094b565b90506109bc6020830184610984565b9392505050565b600060a08201905081810360008301526109dd818861094b565b90506109ec6020830187610984565b6109f96040830186610984565b610a066060830185610984565b610a136080830184610984565b9695505050505050565b600080fd5b600080fd5b7f4e487b7100000000000000000000000000000000000000000000000000000000600052604160045260246000fd5b610a5f8261093a565b810181811067ffffffffffffffff82111715610a7e57610a7d610a27565b5b80604052505050565b6000610a91610874565b9050610a9d8282610a56565b919050565b600067ffffffffffffffff821115610abd57610abc610a27565b5b610ac68261093a565b9050602081019050919050565b82818337600083830152505050565b6000610af5610af084610aa2565b610a87565b905082815260208101848484011115610b1157610b10610a22565b5b610b1c848285610ad3565b509392505050565b600082601f830112610b3957610b38610a1d565b5b8135610b49848260208601610ae2565b91505092915050565b60008060408385031215610b6957610b6861087e565b5b600083013567ffffffffffffffff811115610b8757610b86610883565b5b610b9385828601610b24565b9250506020610ba4858286016108a9565b9150509250929050565b600081519050919050565b600082825260208201905092915050565b6000819050602082019050919050565b600082825260208201905092915050565b6000610bf6826108eb565b610c008185610bda565b9350610c10818560208601610907565b610c198161093a565b840191505092915050565b610c2d81610888565b82525050565b600060a0830160008301518482036000860152610c508282610beb565b9150506020830151610c656020860182610c24565b506040830151610c786040860182610c24565b506060830151610c8b6060860182610c24565b506080830151610c9e6080860182610c24565b508091505092915050565b6000610cb58383610c33565b905092915050565b6000602082019050919050565b6000610cd582610bae565b610cdf8185610bb9565b935083602082028501610cf185610bca565b8060005b85811015610d2d5784840389528151610d0e8582610ca9565b9450610d1983610cbd565b925060208a01995050600181019050610cf5565b50829750879550505050505092915050565b60006020820190508181036000830152610d598184610cca565b905092915050565b7f4e487b7100000000000000000000000000000000000000000000000000000000600052602260045260246000fd5b60006002820490506001821680610da857607f821691505b602082108103610dbb57610dba610d61565b5b50919050565b60008190508160005260206000209050919050565b60006020601f8301049050919050565b600082821b905092915050565b600060088302610e237fffffffffffffffffffffffffffffffffffffffffffffffffffffffffffffffff82610de6565b610e2d8683610de6565b95508019841693508086168417925050509392505050565b6000819050919050565b6000610e6a610e65610e6084610888565b610e45565b610888565b9050919050565b6000819050919050565b610e8483610e4f565b610e98610e9082610e71565b848454610df3565b825550505050565b600090565b610ead610ea0565b610eb8818484610e7b565b505050565b5b81811015610edc57610ed1600082610ea5565b600181019050610ebe565b5050565b601f821115610f2157610ef281610dc1565b610efb84610dd6565b81016020851015610f0a578190505b610f1e610f1685610dd6565b830182610ebd565b50505b505050565b600082821c905092915050565b6000610f4460001984600802610f26565b1980831691505092915050565b6000610f5d8383610f33565b9150826002028217905092915050565b610f76826108eb565b67ffffffffffffffff811115610f8f57610f8e610a27565b5b610f998254610d90565b610fa4828285610ee0565b600060209050601f831160018114610fd75760008415610fc5578287015190505b610fcf8582610f51565b865550611037565b601f198416610fe586610dc1565b60005b8281101561100d57848901518255600182019150602085019450602081019050610fe8565b8683101561102a5784890151611026601f891682610f33565b8355505b6001600288020188555050505b505050505050565b7f4e487b7100000000000000000000000000000000000000000000000000000000600052603260045260246000fd5b7f4e487b7100000000000000000000000000000000000000000000000000000000600052601160045260246000fd5b60006110a882610888565b91507fffffffffffffffffffffffffffffffffffffffffffffffffffffffffffffffff82036110da576110d961106e565b5b600182019050919050565b60006110f082610888565b91506110fb83610888565b92508282101561110e5761110d61106e565b5b828203905092915050565b600061112482610888565b915061112f83610888565b9250817fffffffffffffffffffffffffffffffffffffffffffffffffffffffffffffffff04831182151516156111685761116761106e565b5b828202905092915050565b7f4e487b7100000000000000000000000000000000000000000000000000000000600052601260045260246000fd5b60006111ad82610888565b91506111b883610888565b9250826111c8576111c7611173565b5b828204905092915050565b60006111de82610888565b91506111e983610888565b9250827fffffffffffffffffffffffffffffffffffffffffffffffffffffffffffffffff0382111561121e5761121d61106e565b5b82820190509291505056fea2646970667358221220d6a04d05aff402a3742f92a08252a88d94c79c5b7a278f3bbe49a11ddb04685064736f6c634300080f0033","opcodes":"PUSH1 0x80 PUSH1 0x40 MSTORE CALLVALUE DUP1 ISZERO PUSH3 0x11 JUMPI PUSH1 0x0 DUP1 REVERT JUMPDEST POP PUSH2 0x6DE PUSH1 0x0 DUP2 SWAP1 SSTORE POP PUSH1 0x5 PUSH1 0x1 DUP2 SWAP1 SSTORE POP PUSH3 0x6B PUSH1 0x40 MLOAD DUP1 PUSH1 0x40 ADD PUSH1 0x40 MSTORE DUP1 PUSH1 0x7 DUP2 MSTORE PUSH1 0x20 ADD PUSH32 0x7469636B65743100000000000000000000000000000000000000000000000000 DUP2 MSTORE POP PUSH1 0x5A PUSH3 0x191 PUSH1 0x20 SHL PUSH1 0x20 SHR JUMP JUMPDEST PUSH3 0xB3 PUSH1 0x40 MLOAD DUP1 PUSH1 0x40 ADD PUSH1 0x40 MSTORE DUP1 PUSH1 0x7 DUP2 MSTORE PUSH1 0x20 ADD PUSH32 0x7469636B65743200000000000000000000000000000000000000000000000000 DUP2 MSTORE POP PUSH1 0x4E PUSH3 0x191 PUSH1 0x20 SHL PUSH1 0x20 SHR JUMP JUMPDEST PUSH3 0xFB PUSH1 0x40 MLOAD DUP1 PUSH1 0x40 ADD PUSH1 0x40 MSTORE DUP1 PUSH1 0x7 DUP2 MSTORE PUSH1 0x20 ADD PUSH32 0x7469636B65743300000000000000000000000000000000000000000000000000 DUP2 MSTORE POP PUSH1 0x64 PUSH3 0x191 PUSH1 0x20 SHL PUSH1 0x20 SHR JUMP JUMPDEST PUSH3 0x143 PUSH1 0x40 MLOAD DUP1 PUSH1 0x40 ADD PUSH1 0x40 MSTORE DUP1 PUSH1 0x7 DUP2 MSTORE PUSH1 0x20 ADD PUSH32 0x7469636B65743400000000000000000000000000000000000000000000000000 DUP2 MSTORE POP PUSH1 0x4E PUSH3 0x191 PUSH1 0x20 SHL PUSH1 0x20 SHR JUMP JUMPDEST PUSH3 0x18B PUSH1 0x40 MLOAD DUP1 PUSH1 0x40 ADD PUSH1 0x40 MSTORE DUP1 PUSH1 0x7 DUP2 MSTORE PUSH1 0x20 ADD PUSH32 0x7469636B65743500000000000000000000000000000000000000000000000000 DUP2 MSTORE POP PUSH1 0x64 PUSH3 0x191 PUSH1 0x20 SHL PUSH1 0x20 SHR JUMP JUMPDEST PUSH3 0x55A JUMP JUMPDEST PUSH1 0x3 PUSH1 0x40 MLOAD DUP1 PUSH1 0x40 ADD PUSH1 0x40 MSTORE DUP1 DUP5 DUP2 MSTORE PUSH1 0x20 ADD DUP4 DUP2 MSTORE POP SWAP1 DUP1 PUSH1 0x1 DUP2 SLOAD ADD DUP1 DUP3 SSTORE DUP1 SWAP2 POP POP PUSH1 0x1 SWAP1 SUB SWAP1 PUSH1 0x0 MSTORE PUSH1 0x20 PUSH1 0x0 KECCAK256 SWAP1 PUSH1 0x2 MUL ADD PUSH1 0x0 SWAP1 SWAP2 SWAP1 SWAP2 SWAP1 SWAP2 POP PUSH1 0x0 DUP3 ADD MLOAD DUP2 PUSH1 0x0 ADD SWAP1 DUP2 PUSH3 0x1E8 SWAP2 SWAP1 PUSH3 0x473 JUMP JUMPDEST POP PUSH1 0x20 DUP3 ADD MLOAD DUP2 PUSH1 0x1 ADD SSTORE POP POP POP POP JUMP JUMPDEST PUSH1 0x0 DUP2 MLOAD SWAP1 POP SWAP2 SWAP1 POP JUMP JUMPDEST PUSH32 0x4E487B7100000000000000000000000000000000000000000000000000000000 PUSH1 0x0 MSTORE PUSH1 0x41 PUSH1 0x4 MSTORE PUSH1 0x24 PUSH1 0x0 REVERT JUMPDEST PUSH32 0x4E487B7100000000000000000000000000000000000000000000000000000000 PUSH1 0x0 MSTORE PUSH1 0x22 PUSH1 0x4 MSTORE PUSH1 0x24 PUSH1 0x0 REVERT JUMPDEST PUSH1 0x0 PUSH1 0x2 DUP3 DIV SWAP1 POP PUSH1 0x1 DUP3 AND DUP1 PUSH3 0x27B JUMPI PUSH1 0x7F DUP3 AND SWAP2 POP JUMPDEST PUSH1 0x20 DUP3 LT DUP2 SUB PUSH3 0x291 JUMPI PUSH3 0x290 PUSH3 0x233 JUMP JUMPDEST JUMPDEST POP SWAP2 SWAP1 POP JUMP JUMPDEST PUSH1 0x0 DUP2 SWAP1 POP DUP2 PUSH1 0x0 MSTORE PUSH1 0x20 PUSH1 0x0 KECCAK256 SWAP1 POP SWAP2 SWAP1 POP JUMP JUMPDEST PUSH1 0x0 PUSH1 0x20 PUSH1 0x1F DUP4 ADD DIV SWAP1 POP SWAP2 SWAP1 POP JUMP JUMPDEST PUSH1 0x0 DUP3 DUP3 SHL SWAP1 POP SWAP3 SWAP2 POP POP JUMP JUMPDEST PUSH1 0x0 PUSH1 0x8 DUP4 MUL PUSH3 0x2FB PUSH32 0xFFFFFFFFFFFFFFFFFFFFFFFFFFFFFFFFFFFFFFFFFFFFFFFFFFFFFFFFFFFFFFFF DUP3 PUSH3 0x2BC JUMP JUMPDEST PUSH3 0x307 DUP7 DUP4 PUSH3 0x2BC JUMP JUMPDEST SWAP6 POP DUP1 NOT DUP5 AND SWAP4 POP DUP1 DUP7 AND DUP5 OR SWAP3 POP POP POP SWAP4 SWAP3 POP POP POP JUMP JUMPDEST PUSH1 0x0 DUP2 SWAP1 POP SWAP2 SWAP1 POP JUMP JUMPDEST PUSH1 0x0 DUP2 SWAP1 POP SWAP2 SWAP1 POP JUMP JUMPDEST PUSH1 0x0 PUSH3 0x354 PUSH3 0x34E PUSH3 0x348 DUP5 PUSH3 0x31F JUMP JUMPDEST PUSH3 0x329 JUMP JUMPDEST PUSH3 0x31F JUMP JUMPDEST SWAP1 POP SWAP2 SWAP1 POP JUMP JUMPDEST PUSH1 0x0 DUP2 SWAP1 POP SWAP2 SWAP1 POP JUMP JUMPDEST PUSH3 0x370 DUP4 PUSH3 0x333 JUMP JUMPDEST PUSH3 0x388 PUSH3 0x37F DUP3 PUSH3 0x35B JUMP JUMPDEST DUP5 DUP5 SLOAD PUSH3 0x2C9 JUMP JUMPDEST DUP3 SSTORE POP POP POP POP JUMP JUMPDEST PUSH1 0x0 SWAP1 JUMP JUMPDEST PUSH3 0x39F PUSH3 0x390 JUMP JUMPDEST PUSH3 0x3AC DUP2 DUP5 DUP5 PUSH3 0x365 JUMP JUMPDEST POP POP POP JUMP JUMPDEST JUMPDEST DUP2 DUP2 LT ISZERO PUSH3 0x3D4 JUMPI PUSH3 0x3C8 PUSH1 0x0 DUP3 PUSH3 0x395 JUMP JUMPDEST PUSH1 0x1 DUP2 ADD SWAP1 POP PUSH3 0x3B2 JUMP JUMPDEST POP POP JUMP JUMPDEST PUSH1 0x1F DUP3 GT ISZERO PUSH3 0x423 JUMPI PUSH3 0x3ED DUP2 PUSH3 0x297 JUMP JUMPDEST PUSH3 0x3F8 DUP5 PUSH3 0x2AC JUMP JUMPDEST DUP2 ADD PUSH1 0x20 DUP6 LT ISZERO PUSH3 0x408 JUMPI DUP2 SWAP1 POP JUMPDEST PUSH3 0x420 PUSH3 0x417 DUP6 PUSH3 0x2AC JUMP JUMPDEST DUP4 ADD DUP3 PUSH3 0x3B1 JUMP JUMPDEST POP POP JUMPDEST POP POP POP JUMP JUMPDEST PUSH1 0x0 DUP3 DUP3 SHR SWAP1 POP SWAP3 SWAP2 POP POP JUMP JUMPDEST PUSH1 0x0 PUSH3 0x448 PUSH1 0x0 NOT DUP5 PUSH1 0x8 MUL PUSH3 0x428 JUMP JUMPDEST NOT DUP1 DUP4 AND SWAP2 POP POP SWAP3 SWAP2 POP POP JUMP JUMPDEST PUSH1 0x0 PUSH3 0x463 DUP4 DUP4 PUSH3 0x435 JUMP JUMPDEST SWAP2 POP DUP3 PUSH1 0x2 MUL DUP3 OR SWAP1 POP SWAP3 SWAP2 POP POP JUMP JUMPDEST PUSH3 0x47E DUP3 PUSH3 0x1F9 JUMP JUMPDEST PUSH8 0xFFFFFFFFFFFFFFFF DUP2 GT ISZERO PUSH3 0x49A JUMPI PUSH3 0x499 PUSH3 0x204 JUMP JUMPDEST JUMPDEST PUSH3 0x4A6 DUP3 SLOAD PUSH3 0x262 JUMP JUMPDEST PUSH3 0x4B3 DUP3 DUP3 DUP6 PUSH3 0x3D8 JUMP JUMPDEST PUSH1 0x0 PUSH1 0x20 SWAP1 POP PUSH1 0x1F DUP4 GT PUSH1 0x1 DUP2 EQ PUSH3 0x4EB JUMPI PUSH1 0x0 DUP5 ISZERO PUSH3 0x4D6 JUMPI DUP3 DUP8 ADD MLOAD SWAP1 POP JUMPDEST PUSH3 0x4E2 DUP6 DUP3 PUSH3 0x455 JUMP JUMPDEST DUP7 SSTORE POP PUSH3 0x552 JUMP JUMPDEST PUSH1 0x1F NOT DUP5 AND PUSH3 0x4FB DUP7 PUSH3 0x297 JUMP JUMPDEST PUSH1 0x0 JUMPDEST DUP3 DUP2 LT ISZERO PUSH3 0x525 JUMPI DUP5 DUP10 ADD MLOAD DUP3 SSTORE PUSH1 0x1 DUP3 ADD SWAP2 POP PUSH1 0x20 DUP6 ADD SWAP5 POP PUSH1 0x20 DUP2 ADD SWAP1 POP PUSH3 0x4FE JUMP JUMPDEST DUP7 DUP4 LT ISZERO PUSH3 0x545 JUMPI DUP5 DUP10 ADD MLOAD PUSH3 0x541 PUSH1 0x1F DUP10 AND DUP3 PUSH3 0x435 JUMP JUMPDEST DUP4 SSTORE POP JUMPDEST PUSH1 0x1 PUSH1 0x2 DUP9 MUL ADD DUP9 SSTORE POP POP POP JUMPDEST POP POP POP POP POP POP JUMP JUMPDEST PUSH2 0x125F DUP1 PUSH3 0x56A PUSH1 0x0 CODECOPY PUSH1 0x0 RETURN INVALID PUSH1 0x80 PUSH1 0x40 MSTORE CALLVALUE DUP1 ISZERO PUSH2 0x10 JUMPI PUSH1 0x0 DUP1 REVERT JUMPDEST POP PUSH1 0x4 CALLDATASIZE LT PUSH2 0x57 JUMPI PUSH1 0x0 CALLDATALOAD PUSH1 0xE0 SHR DUP1 PUSH4 0x44235EC2 EQ PUSH2 0x5C JUMPI DUP1 PUSH4 0x7E3EE416 EQ PUSH2 0x8D JUMPI DUP1 PUSH4 0x8FFB7B51 EQ PUSH2 0xC1 JUMPI DUP1 PUSH4 0x934209CE EQ PUSH2 0xDD JUMPI DUP1 PUSH4 0x9FE6B7CD EQ PUSH2 0xE7 JUMPI JUMPDEST PUSH1 0x0 DUP1 REVERT JUMPDEST PUSH2 0x76 PUSH1 0x4 DUP1 CALLDATASIZE SUB DUP2 ADD SWAP1 PUSH2 0x71 SWAP2 SWAP1 PUSH2 0x8BE JUMP JUMPDEST PUSH2 0x105 JUMP JUMPDEST PUSH1 0x40 MLOAD PUSH2 0x84 SWAP3 SWAP2 SWAP1 PUSH2 0x993 JUMP JUMPDEST PUSH1 0x40 MLOAD DUP1 SWAP2 SUB SWAP1 RETURN JUMPDEST PUSH2 0xA7 PUSH1 0x4 DUP1 CALLDATASIZE SUB DUP2 ADD SWAP1 PUSH2 0xA2 SWAP2 SWAP1 PUSH2 0x8BE JUMP JUMPDEST PUSH2 0x1C1 JUMP JUMPDEST PUSH1 0x40 MLOAD PUSH2 0xB8 SWAP6 SWAP5 SWAP4 SWAP3 SWAP2 SWAP1 PUSH2 0x9C3 JUMP JUMPDEST PUSH1 0x40 MLOAD DUP1 SWAP2 SUB SWAP1 RETURN JUMPDEST PUSH2 0xDB PUSH1 0x4 DUP1 CALLDATASIZE SUB DUP2 ADD SWAP1 PUSH2 0xD6 SWAP2 SWAP1 PUSH2 0xB52 JUMP JUMPDEST PUSH2 0x28F JUMP JUMPDEST STOP JUMPDEST PUSH2 0xE5 PUSH2 0x2F5 JUMP JUMPDEST STOP JUMPDEST PUSH2 0xEF PUSH2 0x72C JUMP JUMPDEST PUSH1 0x40 MLOAD PUSH2 0xFC SWAP2 SWAP1 PUSH2 0xD3F JUMP JUMPDEST PUSH1 0x40 MLOAD DUP1 SWAP2 SUB SWAP1 RETURN JUMPDEST PUSH1 0x3 DUP2 DUP2 SLOAD DUP2 LT PUSH2 0x115 JUMPI PUSH1 0x0 DUP1 REVERT JUMPDEST SWAP1 PUSH1 0x0 MSTORE PUSH1 0x20 PUSH1 0x0 KECCAK256 SWAP1 PUSH1 0x2 MUL ADD PUSH1 0x0 SWAP2 POP SWAP1 POP DUP1 PUSH1 0x0 ADD DUP1 SLOAD PUSH2 0x138 SWAP1 PUSH2 0xD90 JUMP JUMPDEST DUP1 PUSH1 0x1F ADD PUSH1 0x20 DUP1 SWAP2 DIV MUL PUSH1 0x20 ADD PUSH1 0x40 MLOAD SWAP1 DUP2 ADD PUSH1 0x40 MSTORE DUP1 SWAP3 SWAP2 SWAP1 DUP2 DUP2 MSTORE PUSH1 0x20 ADD DUP3 DUP1 SLOAD PUSH2 0x164 SWAP1 PUSH2 0xD90 JUMP JUMPDEST DUP1 ISZERO PUSH2 0x1B1 JUMPI DUP1 PUSH1 0x1F LT PUSH2 0x186 JUMPI PUSH2 0x100 DUP1 DUP4 SLOAD DIV MUL DUP4 MSTORE SWAP2 PUSH1 0x20 ADD SWAP2 PUSH2 0x1B1 JUMP JUMPDEST DUP3 ADD SWAP2 SWAP1 PUSH1 0x0 MSTORE PUSH1 0x20 PUSH1 0x0 KECCAK256 SWAP1 JUMPDEST DUP2 SLOAD DUP2 MSTORE SWAP1 PUSH1 0x1 ADD SWAP1 PUSH1 0x20 ADD DUP1 DUP4 GT PUSH2 0x194 JUMPI DUP3 SWAP1 SUB PUSH1 0x1F AND DUP3 ADD SWAP2 JUMPDEST POP POP POP POP POP SWAP1 DUP1 PUSH1 0x1 ADD SLOAD SWAP1 POP DUP3 JUMP JUMPDEST PUSH1 0x2 DUP2 DUP2 SLOAD DUP2 LT PUSH2 0x1D1 JUMPI PUSH1 0x0 DUP1 REVERT JUMPDEST SWAP1 PUSH1 0x0 MSTORE PUSH1 0x20 PUSH1 0x0 KECCAK256 SWAP1 PUSH1 0x5 MUL ADD PUSH1 0x0 SWAP2 POP SWAP1 POP DUP1 PUSH1 0x0 ADD DUP1 SLOAD PUSH2 0x1F4 SWAP1 PUSH2 0xD90 JUMP JUMPDEST DUP1 PUSH1 0x1F ADD PUSH1 0x20 DUP1 SWAP2 DIV MUL PUSH1 0x20 ADD PUSH1 0x40 MLOAD SWAP1 DUP2 ADD PUSH1 0x40 MSTORE DUP1 SWAP3 SWAP2 SWAP1 DUP2 DUP2 MSTORE PUSH1 0x20 ADD DUP3 DUP1 SLOAD PUSH2 0x220 SWAP1 PUSH2 0xD90 JUMP JUMPDEST DUP1 ISZERO PUSH2 0x26D JUMPI DUP1 PUSH1 0x1F LT PUSH2 0x242 JUMPI PUSH2 0x100 DUP1 DUP4 SLOAD DIV MUL DUP4 MSTORE SWAP2 PUSH1 0x20 ADD SWAP2 PUSH2 0x26D JUMP JUMPDEST DUP3 ADD SWAP2 SWAP1 PUSH1 0x0 MSTORE PUSH1 0x20 PUSH1 0x0 KECCAK256 SWAP1 JUMPDEST DUP2 SLOAD DUP2 MSTORE SWAP1 PUSH1 0x1 ADD SWAP1 PUSH1 0x20 ADD DUP1 DUP4 GT PUSH2 0x250 JUMPI DUP3 SWAP1 SUB PUSH1 0x1F AND DUP3 ADD SWAP2 JUMPDEST POP POP POP POP POP SWAP1 DUP1 PUSH1 0x1 ADD SLOAD SWAP1 DUP1 PUSH1 0x2 ADD SLOAD SWAP1 DUP1 PUSH1 0x3 ADD SLOAD SWAP1 DUP1 PUSH1 0x4 ADD SLOAD SWAP1 POP DUP6 JUMP JUMPDEST PUSH1 0x3 PUSH1 0x40 MLOAD DUP1 PUSH1 0x40 ADD PUSH1 0x40 MSTORE DUP1 DUP5 DUP2 MSTORE PUSH1 0x20 ADD DUP4 DUP2 MSTORE POP SWAP1 DUP1 PUSH1 0x1 DUP2 SLOAD ADD DUP1 DUP3 SSTORE DUP1 SWAP2 POP POP PUSH1 0x1 SWAP1 SUB SWAP1 PUSH1 0x0 MSTORE PUSH1 0x20 PUSH1 0x0 KECCAK256 SWAP1 PUSH1 0x2 MUL ADD PUSH1 0x0 SWAP1 SWAP2 SWAP1 SWAP2 SWAP1 SWAP2 POP PUSH1 0x0 DUP3 ADD MLOAD DUP2 PUSH1 0x0 ADD SWAP1 DUP2 PUSH2 0x2E4 SWAP2 SWAP1 PUSH2 0xF6D JUMP JUMPDEST POP PUSH1 0x20 DUP3 ADD MLOAD DUP2 PUSH1 0x1 ADD SSTORE POP POP POP POP JUMP JUMPDEST PUSH1 0x0 PUSH1 0x3 DUP1 SLOAD SWAP1 POP SWAP1 POP PUSH1 0x0 DUP1 PUSH1 0x0 DUP1 DUP5 PUSH8 0xFFFFFFFFFFFFFFFF DUP2 GT ISZERO PUSH2 0x31F JUMPI PUSH2 0x31E PUSH2 0xA27 JUMP JUMPDEST JUMPDEST PUSH1 0x40 MLOAD SWAP1 DUP1 DUP3 MSTORE DUP1 PUSH1 0x20 MUL PUSH1 0x20 ADD DUP3 ADD PUSH1 0x40 MSTORE DUP1 ISZERO PUSH2 0x358 JUMPI DUP2 PUSH1 0x20 ADD JUMPDEST PUSH2 0x345 PUSH2 0x845 JUMP JUMPDEST DUP2 MSTORE PUSH1 0x20 ADD SWAP1 PUSH1 0x1 SWAP1 SUB SWAP1 DUP2 PUSH2 0x33D JUMPI SWAP1 POP JUMPDEST POP SWAP1 POP PUSH1 0x0 JUMPDEST DUP6 DUP2 LT ISZERO PUSH2 0x522 JUMPI PUSH1 0x1 SWAP5 POP PUSH1 0x0 JUMPDEST DUP7 DUP2 LT ISZERO PUSH2 0x3F5 JUMPI PUSH1 0x3 DUP2 DUP2 SLOAD DUP2 LT PUSH2 0x389 JUMPI PUSH2 0x388 PUSH2 0x103F JUMP JUMPDEST JUMPDEST SWAP1 PUSH1 0x0 MSTORE PUSH1 0x20 PUSH1 0x0 KECCAK256 SWAP1 PUSH1 0x2 MUL ADD PUSH1 0x1 ADD SLOAD PUSH1 0x3 DUP4 DUP2 SLOAD DUP2 LT PUSH2 0x3AF JUMPI PUSH2 0x3AE PUSH2 0x103F JUMP JUMPDEST JUMPDEST SWAP1 PUSH1 0x0 MSTORE PUSH1 0x20 PUSH1 0x0 KECCAK256 SWAP1 PUSH1 0x2 MUL ADD PUSH1 0x1 ADD SLOAD LT ISZERO PUSH2 0x3E2 JUMPI DUP6 DUP1 PUSH2 0x3D2 SWAP1 PUSH2 0x109D JUMP JUMPDEST SWAP7 POP POP DUP5 DUP7 GT ISZERO PUSH2 0x3E1 JUMPI DUP6 SWAP5 POP JUMPDEST JUMPDEST DUP1 DUP1 PUSH2 0x3ED SWAP1 PUSH2 0x109D JUMP JUMPDEST SWAP2 POP POP PUSH2 0x36D JUMP JUMPDEST POP PUSH1 0x40 MLOAD DUP1 PUSH1 0xA0 ADD PUSH1 0x40 MSTORE DUP1 PUSH1 0x3 DUP4 DUP2 SLOAD DUP2 LT PUSH2 0x415 JUMPI PUSH2 0x414 PUSH2 0x103F JUMP JUMPDEST JUMPDEST SWAP1 PUSH1 0x0 MSTORE PUSH1 0x20 PUSH1 0x0 KECCAK256 SWAP1 PUSH1 0x2 MUL ADD PUSH1 0x0 ADD DUP1 SLOAD PUSH2 0x431 SWAP1 PUSH2 0xD90 JUMP JUMPDEST DUP1 PUSH1 0x1F ADD PUSH1 0x20 DUP1 SWAP2 DIV MUL PUSH1 0x20 ADD PUSH1 0x40 MLOAD SWAP1 DUP2 ADD PUSH1 0x40 MSTORE DUP1 SWAP3 SWAP2 SWAP1 DUP2 DUP2 MSTORE PUSH1 0x20 ADD DUP3 DUP1 SLOAD PUSH2 0x45D SWAP1 PUSH2 0xD90 JUMP JUMPDEST DUP1 ISZERO PUSH2 0x4AA JUMPI DUP1 PUSH1 0x1F LT PUSH2 0x47F JUMPI PUSH2 0x100 DUP1 DUP4 SLOAD DIV MUL DUP4 MSTORE SWAP2 PUSH1 0x20 ADD SWAP2 PUSH2 0x4AA JUMP JUMPDEST DUP3 ADD SWAP2 SWAP1 PUSH1 0x0 MSTORE PUSH1 0x20 PUSH1 0x0 KECCAK256 SWAP1 JUMPDEST DUP2 SLOAD DUP2 MSTORE SWAP1 PUSH1 0x1 ADD SWAP1 PUSH1 0x20 ADD DUP1 DUP4 GT PUSH2 0x48D JUMPI DUP3 SWAP1 SUB PUSH1 0x1F AND DUP3 ADD SWAP2 JUMPDEST POP POP POP POP POP DUP2 MSTORE PUSH1 0x20 ADD PUSH1 0x3 DUP4 DUP2 SLOAD DUP2 LT PUSH2 0x4C8 JUMPI PUSH2 0x4C7 PUSH2 0x103F JUMP JUMPDEST JUMPDEST SWAP1 PUSH1 0x0 MSTORE PUSH1 0x20 PUSH1 0x0 KECCAK256 SWAP1 PUSH1 0x2 MUL ADD PUSH1 0x1 ADD SLOAD DUP2 MSTORE PUSH1 0x20 ADD PUSH1 0x0 DUP2 MSTORE PUSH1 0x20 ADD PUSH1 0x0 DUP2 MSTORE PUSH1 0x20 ADD DUP7 DUP2 MSTORE POP DUP3 DUP3 DUP2 MLOAD DUP2 LT PUSH2 0x504 JUMPI PUSH2 0x503 PUSH2 0x103F JUMP JUMPDEST JUMPDEST PUSH1 0x20 MUL PUSH1 0x20 ADD ADD DUP2 SWAP1 MSTORE POP DUP1 DUP1 PUSH2 0x51A SWAP1 PUSH2 0x109D JUMP JUMPDEST SWAP2 POP POP PUSH2 0x35E JUMP JUMPDEST POP PUSH1 0x0 PUSH1 0x1 SWAP1 POP JUMPDEST DUP4 DUP2 GT PUSH2 0x677 JUMPI PUSH1 0x0 JUMPDEST DUP7 DUP2 LT ISZERO PUSH2 0x663 JUMPI DUP2 DUP4 DUP3 DUP2 MLOAD DUP2 LT PUSH2 0x550 JUMPI PUSH2 0x54F PUSH2 0x103F JUMP JUMPDEST JUMPDEST PUSH1 0x20 MUL PUSH1 0x20 ADD ADD MLOAD PUSH1 0x80 ADD MLOAD SUB PUSH2 0x650 JUMPI PUSH1 0x2 PUSH1 0x40 MLOAD DUP1 PUSH1 0xA0 ADD PUSH1 0x40 MSTORE DUP1 DUP6 DUP5 DUP2 MLOAD DUP2 LT PUSH2 0x581 JUMPI PUSH2 0x580 PUSH2 0x103F JUMP JUMPDEST JUMPDEST PUSH1 0x20 MUL PUSH1 0x20 ADD ADD MLOAD PUSH1 0x0 ADD MLOAD DUP2 MSTORE PUSH1 0x20 ADD DUP6 DUP5 DUP2 MLOAD DUP2 LT PUSH2 0x5A5 JUMPI PUSH2 0x5A4 PUSH2 0x103F JUMP JUMPDEST JUMPDEST PUSH1 0x20 MUL PUSH1 0x20 ADD ADD MLOAD PUSH1 0x20 ADD MLOAD DUP2 MSTORE PUSH1 0x20 ADD PUSH1 0x0 DUP2 MSTORE PUSH1 0x20 ADD PUSH1 0x0 DUP2 MSTORE PUSH1 0x20 ADD DUP6 DUP5 DUP2 MLOAD DUP2 LT PUSH2 0x5D7 JUMPI PUSH2 0x5D6 PUSH2 0x103F JUMP JUMPDEST JUMPDEST PUSH1 0x20 MUL PUSH1 0x20 ADD ADD MLOAD PUSH1 0x80 ADD MLOAD DUP2 MSTORE POP SWAP1 DUP1 PUSH1 0x1 DUP2 SLOAD ADD DUP1 DUP3 SSTORE DUP1 SWAP2 POP POP PUSH1 0x1 SWAP1 SUB SWAP1 PUSH1 0x0 MSTORE PUSH1 0x20 PUSH1 0x0 KECCAK256 SWAP1 PUSH1 0x5 MUL ADD PUSH1 0x0 SWAP1 SWAP2 SWAP1 SWAP2 SWAP1 SWAP2 POP PUSH1 0x0 DUP3 ADD MLOAD DUP2 PUSH1 0x0 ADD SWAP1 DUP2 PUSH2 0x624 SWAP2 SWAP1 PUSH2 0xF6D JUMP JUMPDEST POP PUSH1 0x20 DUP3 ADD MLOAD DUP2 PUSH1 0x1 ADD SSTORE PUSH1 0x40 DUP3 ADD MLOAD DUP2 PUSH1 0x2 ADD SSTORE PUSH1 0x60 DUP3 ADD MLOAD DUP2 PUSH1 0x3 ADD SSTORE PUSH1 0x80 DUP3 ADD MLOAD DUP2 PUSH1 0x4 ADD SSTORE POP POP JUMPDEST DUP1 DUP1 PUSH2 0x65B SWAP1 PUSH2 0x109D JUMP JUMPDEST SWAP2 POP POP PUSH2 0x534 JUMP JUMPDEST POP DUP1 DUP1 PUSH2 0x66F SWAP1 PUSH2 0x109D JUMP JUMPDEST SWAP2 POP POP PUSH2 0x52A JUMP JUMPDEST POP PUSH1 0x0 JUMPDEST DUP6 DUP2 LT ISZERO PUSH2 0x724 JUMPI PUSH1 0x0 PUSH1 0x64 PUSH1 0x1 SLOAD DUP6 PUSH1 0x0 SLOAD PUSH2 0x698 SWAP2 SWAP1 PUSH2 0x10E5 JUMP JUMPDEST PUSH2 0x6A2 SWAP2 SWAP1 PUSH2 0x1119 JUMP JUMPDEST PUSH2 0x6AC SWAP2 SWAP1 PUSH2 0x11A2 JUMP JUMPDEST SWAP1 POP DUP1 PUSH1 0x2 DUP4 DUP2 SLOAD DUP2 LT PUSH2 0x6C3 JUMPI PUSH2 0x6C2 PUSH2 0x103F JUMP JUMPDEST JUMPDEST SWAP1 PUSH1 0x0 MSTORE PUSH1 0x20 PUSH1 0x0 KECCAK256 SWAP1 PUSH1 0x5 MUL ADD PUSH1 0x2 ADD DUP2 SWAP1 SSTORE POP DUP1 DUP5 PUSH2 0x6E4 SWAP2 SWAP1 PUSH2 0x11D3 JUMP JUMPDEST SWAP4 POP DUP4 PUSH1 0x2 DUP4 DUP2 SLOAD DUP2 LT PUSH2 0x6FB JUMPI PUSH2 0x6FA PUSH2 0x103F JUMP JUMPDEST JUMPDEST SWAP1 PUSH1 0x0 MSTORE PUSH1 0x20 PUSH1 0x0 KECCAK256 SWAP1 PUSH1 0x5 MUL ADD PUSH1 0x3 ADD DUP2 SWAP1 SSTORE POP POP DUP1 DUP1 PUSH2 0x71C SWAP1 PUSH2 0x109D JUMP JUMPDEST SWAP2 POP POP PUSH2 0x67B JUMP JUMPDEST POP POP POP POP POP POP JUMP JUMPDEST PUSH1 0x60 PUSH1 0x2 DUP1 SLOAD DUP1 PUSH1 0x20 MUL PUSH1 0x20 ADD PUSH1 0x40 MLOAD SWAP1 DUP2 ADD PUSH1 0x40 MSTORE DUP1 SWAP3 SWAP2 SWAP1 DUP2 DUP2 MSTORE PUSH1 0x20 ADD PUSH1 0x0 SWAP1 JUMPDEST DUP3 DUP3 LT ISZERO PUSH2 0x83C JUMPI DUP4 DUP3 SWAP1 PUSH1 0x0 MSTORE PUSH1 0x20 PUSH1 0x0 KECCAK256 SWAP1 PUSH1 0x5 MUL ADD PUSH1 0x40 MLOAD DUP1 PUSH1 0xA0 ADD PUSH1 0x40 MSTORE SWAP1 DUP2 PUSH1 0x0 DUP3 ADD DUP1 SLOAD PUSH2 0x783 SWAP1 PUSH2 0xD90 JUMP JUMPDEST DUP1 PUSH1 0x1F ADD PUSH1 0x20 DUP1 SWAP2 DIV MUL PUSH1 0x20 ADD PUSH1 0x40 MLOAD SWAP1 DUP2 ADD PUSH1 0x40 MSTORE DUP1 SWAP3 SWAP2 SWAP1 DUP2 DUP2 MSTORE PUSH1 0x20 ADD DUP3 DUP1 SLOAD PUSH2 0x7AF SWAP1 PUSH2 0xD90 JUMP JUMPDEST DUP1 ISZERO PUSH2 0x7FC JUMPI DUP1 PUSH1 0x1F LT PUSH2 0x7D1 JUMPI PUSH2 0x100 DUP1 DUP4 SLOAD DIV MUL DUP4 MSTORE SWAP2 PUSH1 0x20 ADD SWAP2 PUSH2 0x7FC JUMP JUMPDEST DUP3 ADD SWAP2 SWAP1 PUSH1 0x0 MSTORE PUSH1 0x20 PUSH1 0x0 KECCAK256 SWAP1 JUMPDEST DUP2 SLOAD DUP2 MSTORE SWAP1 PUSH1 0x1 ADD SWAP1 PUSH1 0x20 ADD DUP1 DUP4 GT PUSH2 0x7DF JUMPI DUP3 SWAP1 SUB PUSH1 0x1F AND DUP3 ADD SWAP2 JUMPDEST POP POP POP POP POP DUP2 MSTORE PUSH1 0x20 ADD PUSH1 0x1 DUP3 ADD SLOAD DUP2 MSTORE PUSH1 0x20 ADD PUSH1 0x2 DUP3 ADD SLOAD DUP2 MSTORE PUSH1 0x20 ADD PUSH1 0x3 DUP3 ADD SLOAD DUP2 MSTORE PUSH1 0x20 ADD PUSH1 0x4 DUP3 ADD SLOAD DUP2 MSTORE POP POP DUP2 MSTORE PUSH1 0x20 ADD SWAP1 PUSH1 0x1 ADD SWAP1 PUSH2 0x750 JUMP JUMPDEST POP POP POP POP SWAP1 POP SWAP1 JUMP JUMPDEST PUSH1 0x40 MLOAD DUP1 PUSH1 0xA0 ADD PUSH1 0x40 MSTORE DUP1 PUSH1 0x60 DUP2 MSTORE PUSH1 0x20 ADD PUSH1 0x0 DUP2 MSTORE PUSH1 0x20 ADD PUSH1 0x0 DUP2 MSTORE PUSH1 0x20 ADD PUSH1 0x0 DUP2 MSTORE PUSH1 0x20 ADD PUSH1 0x0 DUP2 MSTORE POP SWAP1 JUMP JUMPDEST PUSH1 0x0 PUSH1 0x40 MLOAD SWAP1 POP SWAP1 JUMP JUMPDEST PUSH1 0x0 DUP1 REVERT JUMPDEST PUSH1 0x0 DUP1 REVERT JUMPDEST PUSH1 0x0 DUP2 SWAP1 POP SWAP2 SWAP1 POP JUMP JUMPDEST PUSH2 0x89B DUP2 PUSH2 0x888 JUMP JUMPDEST DUP2 EQ PUSH2 0x8A6 JUMPI PUSH1 0x0 DUP1 REVERT JUMPDEST POP JUMP JUMPDEST PUSH1 0x0 DUP2 CALLDATALOAD SWAP1 POP PUSH2 0x8B8 DUP2 PUSH2 0x892 JUMP JUMPDEST SWAP3 SWAP2 POP POP JUMP JUMPDEST PUSH1 0x0 PUSH1 0x20 DUP3 DUP5 SUB SLT ISZERO PUSH2 0x8D4 JUMPI PUSH2 0x8D3 PUSH2 0x87E JUMP JUMPDEST JUMPDEST PUSH1 0x0 PUSH2 0x8E2 DUP5 DUP3 DUP6 ADD PUSH2 0x8A9 JUMP JUMPDEST SWAP2 POP POP SWAP3 SWAP2 POP POP JUMP JUMPDEST PUSH1 0x0 DUP2 MLOAD SWAP1 POP SWAP2 SWAP1 POP JUMP JUMPDEST PUSH1 0x0 DUP3 DUP3 MSTORE PUSH1 0x20 DUP3 ADD SWAP1 POP SWAP3 SWAP2 POP POP JUMP JUMPDEST PUSH1 0x0 JUMPDEST DUP4 DUP2 LT ISZERO PUSH2 0x925 JUMPI DUP1 DUP3 ADD MLOAD DUP2 DUP5 ADD MSTORE PUSH1 0x20 DUP2 ADD SWAP1 POP PUSH2 0x90A JUMP JUMPDEST DUP4 DUP2 GT ISZERO PUSH2 0x934 JUMPI PUSH1 0x0 DUP5 DUP5 ADD MSTORE JUMPDEST POP POP POP POP JUMP JUMPDEST PUSH1 0x0 PUSH1 0x1F NOT PUSH1 0x1F DUP4 ADD AND SWAP1 POP SWAP2 SWAP1 POP JUMP JUMPDEST PUSH1 0x0 PUSH2 0x956 DUP3 PUSH2 0x8EB JUMP JUMPDEST PUSH2 0x960 DUP2 DUP6 PUSH2 0x8F6 JUMP JUMPDEST SWAP4 POP PUSH2 0x970 DUP2 DUP6 PUSH1 0x20 DUP7 ADD PUSH2 0x907 JUMP JUMPDEST PUSH2 0x979 DUP2 PUSH2 0x93A JUMP JUMPDEST DUP5 ADD SWAP2 POP POP SWAP3 SWAP2 POP POP JUMP JUMPDEST PUSH2 0x98D DUP2 PUSH2 0x888 JUMP JUMPDEST DUP3 MSTORE POP POP JUMP JUMPDEST PUSH1 0x0 PUSH1 0x40 DUP3 ADD SWAP1 POP DUP2 DUP2 SUB PUSH1 0x0 DUP4 ADD MSTORE PUSH2 0x9AD DUP2 DUP6 PUSH2 0x94B JUMP JUMPDEST SWAP1 POP PUSH2 0x9BC PUSH1 0x20 DUP4 ADD DUP5 PUSH2 0x984 JUMP JUMPDEST SWAP4 SWAP3 POP POP POP JUMP JUMPDEST PUSH1 0x0 PUSH1 0xA0 DUP3 ADD SWAP1 POP DUP2 DUP2 SUB PUSH1 0x0 DUP4 ADD MSTORE PUSH2 0x9DD DUP2 DUP9 PUSH2 0x94B JUMP JUMPDEST SWAP1 POP PUSH2 0x9EC PUSH1 0x20 DUP4 ADD DUP8 PUSH2 0x984 JUMP JUMPDEST PUSH2 0x9F9 PUSH1 0x40 DUP4 ADD DUP7 PUSH2 0x984 JUMP JUMPDEST PUSH2 0xA06 PUSH1 0x60 DUP4 ADD DUP6 PUSH2 0x984 JUMP JUMPDEST PUSH2 0xA13 PUSH1 0x80 DUP4 ADD DUP5 PUSH2 0x984 JUMP JUMPDEST SWAP7 SWAP6 POP POP POP POP POP POP JUMP JUMPDEST PUSH1 0x0 DUP1 REVERT JUMPDEST PUSH1 0x0 DUP1 REVERT JUMPDEST PUSH32 0x4E487B7100000000000000000000000000000000000000000000000000000000 PUSH1 0x0 MSTORE PUSH1 0x41 PUSH1 0x4 MSTORE PUSH1 0x24 PUSH1 0x0 REVERT JUMPDEST PUSH2 0xA5F DUP3 PUSH2 0x93A JUMP JUMPDEST DUP2 ADD DUP2 DUP2 LT PUSH8 0xFFFFFFFFFFFFFFFF DUP3 GT OR ISZERO PUSH2 0xA7E JUMPI PUSH2 0xA7D PUSH2 0xA27 JUMP JUMPDEST JUMPDEST DUP1 PUSH1 0x40 MSTORE POP POP POP JUMP JUMPDEST PUSH1 0x0 PUSH2 0xA91 PUSH2 0x874 JUMP JUMPDEST SWAP1 POP PUSH2 0xA9D DUP3 DUP3 PUSH2 0xA56 JUMP JUMPDEST SWAP2 SWAP1 POP JUMP JUMPDEST PUSH1 0x0 PUSH8 0xFFFFFFFFFFFFFFFF DUP3 GT ISZERO PUSH2 0xABD JUMPI PUSH2 0xABC PUSH2 0xA27 JUMP JUMPDEST JUMPDEST PUSH2 0xAC6 DUP3 PUSH2 0x93A JUMP JUMPDEST SWAP1 POP PUSH1 0x20 DUP2 ADD SWAP1 POP SWAP2 SWAP1 POP JUMP JUMPDEST DUP3 DUP2 DUP4 CALLDATACOPY PUSH1 0x0 DUP4 DUP4 ADD MSTORE POP POP POP JUMP JUMPDEST PUSH1 0x0 PUSH2 0xAF5 PUSH2 0xAF0 DUP5 PUSH2 0xAA2 JUMP JUMPDEST PUSH2 0xA87 JUMP JUMPDEST SWAP1 POP DUP3 DUP2 MSTORE PUSH1 0x20 DUP2 ADD DUP5 DUP5 DUP5 ADD GT ISZERO PUSH2 0xB11 JUMPI PUSH2 0xB10 PUSH2 0xA22 JUMP JUMPDEST JUMPDEST PUSH2 0xB1C DUP5 DUP3 DUP6 PUSH2 0xAD3 JUMP JUMPDEST POP SWAP4 SWAP3 POP POP POP JUMP JUMPDEST PUSH1 0x0 DUP3 PUSH1 0x1F DUP4 ADD SLT PUSH2 0xB39 JUMPI PUSH2 0xB38 PUSH2 0xA1D JUMP JUMPDEST JUMPDEST DUP2 CALLDATALOAD PUSH2 0xB49 DUP5 DUP3 PUSH1 0x20 DUP7 ADD PUSH2 0xAE2 JUMP JUMPDEST SWAP2 POP POP SWAP3 SWAP2 POP POP JUMP JUMPDEST PUSH1 0x0 DUP1 PUSH1 0x40 DUP4 DUP6 SUB SLT ISZERO PUSH2 0xB69 JUMPI PUSH2 0xB68 PUSH2 0x87E JUMP JUMPDEST JUMPDEST PUSH1 0x0 DUP4 ADD CALLDATALOAD PUSH8 0xFFFFFFFFFFFFFFFF DUP2 GT ISZERO PUSH2 0xB87 JUMPI PUSH2 0xB86 PUSH2 0x883 JUMP JUMPDEST JUMPDEST PUSH2 0xB93 DUP6 DUP3 DUP7 ADD PUSH2 0xB24 JUMP JUMPDEST SWAP3 POP POP PUSH1 0x20 PUSH2 0xBA4 DUP6 DUP3 DUP7 ADD PUSH2 0x8A9 JUMP JUMPDEST SWAP2 POP POP SWAP3 POP SWAP3 SWAP1 POP JUMP JUMPDEST PUSH1 0x0 DUP2 MLOAD SWAP1 POP SWAP2 SWAP1 POP JUMP JUMPDEST PUSH1 0x0 DUP3 DUP3 MSTORE PUSH1 0x20 DUP3 ADD SWAP1 POP SWAP3 SWAP2 POP POP JUMP JUMPDEST PUSH1 0x0 DUP2 SWAP1 POP PUSH1 0x20 DUP3 ADD SWAP1 POP SWAP2 SWAP1 POP JUMP JUMPDEST PUSH1 0x0 DUP3 DUP3 MSTORE PUSH1 0x20 DUP3 ADD SWAP1 POP SWAP3 SWAP2 POP POP JUMP JUMPDEST PUSH1 0x0 PUSH2 0xBF6 DUP3 PUSH2 0x8EB JUMP JUMPDEST PUSH2 0xC00 DUP2 DUP6 PUSH2 0xBDA JUMP JUMPDEST SWAP4 POP PUSH2 0xC10 DUP2 DUP6 PUSH1 0x20 DUP7 ADD PUSH2 0x907 JUMP JUMPDEST PUSH2 0xC19 DUP2 PUSH2 0x93A JUMP JUMPDEST DUP5 ADD SWAP2 POP POP SWAP3 SWAP2 POP POP JUMP JUMPDEST PUSH2 0xC2D DUP2 PUSH2 0x888 JUMP JUMPDEST DUP3 MSTORE POP POP JUMP JUMPDEST PUSH1 0x0 PUSH1 0xA0 DUP4 ADD PUSH1 0x0 DUP4 ADD MLOAD DUP5 DUP3 SUB PUSH1 0x0 DUP7 ADD MSTORE PUSH2 0xC50 DUP3 DUP3 PUSH2 0xBEB JUMP JUMPDEST SWAP2 POP POP PUSH1 0x20 DUP4 ADD MLOAD PUSH2 0xC65 PUSH1 0x20 DUP7 ADD DUP3 PUSH2 0xC24 JUMP JUMPDEST POP PUSH1 0x40 DUP4 ADD MLOAD PUSH2 0xC78 PUSH1 0x40 DUP7 ADD DUP3 PUSH2 0xC24 JUMP JUMPDEST POP PUSH1 0x60 DUP4 ADD MLOAD PUSH2 0xC8B PUSH1 0x60 DUP7 ADD DUP3 PUSH2 0xC24 JUMP JUMPDEST POP PUSH1 0x80 DUP4 ADD MLOAD PUSH2 0xC9E PUSH1 0x80 DUP7 ADD DUP3 PUSH2 0xC24 JUMP JUMPDEST POP DUP1 SWAP2 POP POP SWAP3 SWAP2 POP POP JUMP JUMPDEST PUSH1 0x0 PUSH2 0xCB5 DUP4 DUP4 PUSH2 0xC33 JUMP JUMPDEST SWAP1 POP SWAP3 SWAP2 POP POP JUMP JUMPDEST PUSH1 0x0 PUSH1 0x20 DUP3 ADD SWAP1 POP SWAP2 SWAP1 POP JUMP JUMPDEST PUSH1 0x0 PUSH2 0xCD5 DUP3 PUSH2 0xBAE JUMP JUMPDEST PUSH2 0xCDF DUP2 DUP6 PUSH2 0xBB9 JUMP JUMPDEST SWAP4 POP DUP4 PUSH1 0x20 DUP3 MUL DUP6 ADD PUSH2 0xCF1 DUP6 PUSH2 0xBCA JUMP JUMPDEST DUP1 PUSH1 0x0 JUMPDEST DUP6 DUP2 LT ISZERO PUSH2 0xD2D JUMPI DUP5 DUP5 SUB DUP10 MSTORE DUP2 MLOAD PUSH2 0xD0E DUP6 DUP3 PUSH2 0xCA9 JUMP JUMPDEST SWAP5 POP PUSH2 0xD19 DUP4 PUSH2 0xCBD JUMP JUMPDEST SWAP3 POP PUSH1 0x20 DUP11 ADD SWAP10 POP POP PUSH1 0x1 DUP2 ADD SWAP1 POP PUSH2 0xCF5 JUMP JUMPDEST POP DUP3 SWAP8 POP DUP8 SWAP6 POP POP POP POP POP POP SWAP3 SWAP2 POP POP JUMP JUMPDEST PUSH1 0x0 PUSH1 0x20 DUP3 ADD SWAP1 POP DUP2 DUP2 SUB PUSH1 0x0 DUP4 ADD MSTORE PUSH2 0xD59 DUP2 DUP5 PUSH2 0xCCA JUMP JUMPDEST SWAP1 POP SWAP3 SWAP2 POP POP JUMP JUMPDEST PUSH32 0x4E487B7100000000000000000000000000000000000000000000000000000000 PUSH1 0x0 MSTORE PUSH1 0x22 PUSH1 0x4 MSTORE PUSH1 0x24 PUSH1 0x0 REVERT JUMPDEST PUSH1 0x0 PUSH1 0x2 DUP3 DIV SWAP1 POP PUSH1 0x1 DUP3 AND DUP1 PUSH2 0xDA8 JUMPI PUSH1 0x7F DUP3 AND SWAP2 POP JUMPDEST PUSH1 0x20 DUP3 LT DUP2 SUB PUSH2 0xDBB JUMPI PUSH2 0xDBA PUSH2 0xD61 JUMP JUMPDEST JUMPDEST POP SWAP2 SWAP1 POP JUMP JUMPDEST PUSH1 0x0 DUP2 SWAP1 POP DUP2 PUSH1 0x0 MSTORE PUSH1 0x20 PUSH1 0x0 KECCAK256 SWAP1 POP SWAP2 SWAP1 POP JUMP JUMPDEST PUSH1 0x0 PUSH1 0x20 PUSH1 0x1F DUP4 ADD DIV SWAP1 POP SWAP2 SWAP1 POP JUMP JUMPDEST PUSH1 0x0 DUP3 DUP3 SHL SWAP1 POP SWAP3 SWAP2 POP POP JUMP JUMPDEST PUSH1 0x0 PUSH1 0x8 DUP4 MUL PUSH2 0xE23 PUSH32 0xFFFFFFFFFFFFFFFFFFFFFFFFFFFFFFFFFFFFFFFFFFFFFFFFFFFFFFFFFFFFFFFF DUP3 PUSH2 0xDE6 JUMP JUMPDEST PUSH2 0xE2D DUP7 DUP4 PUSH2 0xDE6 JUMP JUMPDEST SWAP6 POP DUP1 NOT DUP5 AND SWAP4 POP DUP1 DUP7 AND DUP5 OR SWAP3 POP POP POP SWAP4 SWAP3 POP POP POP JUMP JUMPDEST PUSH1 0x0 DUP2 SWAP1 POP SWAP2 SWAP1 POP JUMP JUMPDEST PUSH1 0x0 PUSH2 0xE6A PUSH2 0xE65 PUSH2 0xE60 DUP5 PUSH2 0x888 JUMP JUMPDEST PUSH2 0xE45 JUMP JUMPDEST PUSH2 0x888 JUMP JUMPDEST SWAP1 POP SWAP2 SWAP1 POP JUMP JUMPDEST PUSH1 0x0 DUP2 SWAP1 POP SWAP2 SWAP1 POP JUMP JUMPDEST PUSH2 0xE84 DUP4 PUSH2 0xE4F JUMP JUMPDEST PUSH2 0xE98 PUSH2 0xE90 DUP3 PUSH2 0xE71 JUMP JUMPDEST DUP5 DUP5 SLOAD PUSH2 0xDF3 JUMP JUMPDEST DUP3 SSTORE POP POP POP POP JUMP JUMPDEST PUSH1 0x0 SWAP1 JUMP JUMPDEST PUSH2 0xEAD PUSH2 0xEA0 JUMP JUMPDEST PUSH2 0xEB8 DUP2 DUP5 DUP5 PUSH2 0xE7B JUMP JUMPDEST POP POP POP JUMP JUMPDEST JUMPDEST DUP2 DUP2 LT ISZERO PUSH2 0xEDC JUMPI PUSH2 0xED1 PUSH1 0x0 DUP3 PUSH2 0xEA5 JUMP JUMPDEST PUSH1 0x1 DUP2 ADD SWAP1 POP PUSH2 0xEBE JUMP JUMPDEST POP POP JUMP JUMPDEST PUSH1 0x1F DUP3 GT ISZERO PUSH2 0xF21 JUMPI PUSH2 0xEF2 DUP2 PUSH2 0xDC1 JUMP JUMPDEST PUSH2 0xEFB DUP5 PUSH2 0xDD6 JUMP JUMPDEST DUP2 ADD PUSH1 0x20 DUP6 LT ISZERO PUSH2 0xF0A JUMPI DUP2 SWAP1 POP JUMPDEST PUSH2 0xF1E PUSH2 0xF16 DUP6 PUSH2 0xDD6 JUMP JUMPDEST DUP4 ADD DUP3 PUSH2 0xEBD JUMP JUMPDEST POP POP JUMPDEST POP POP POP JUMP JUMPDEST PUSH1 0x0 DUP3 DUP3 SHR SWAP1 POP SWAP3 SWAP2 POP POP JUMP JUMPDEST PUSH1 0x0 PUSH2 0xF44 PUSH1 0x0 NOT DUP5 PUSH1 0x8 MUL PUSH2 0xF26 JUMP JUMPDEST NOT DUP1 DUP4 AND SWAP2 POP POP SWAP3 SWAP2 POP POP JUMP JUMPDEST PUSH1 0x0 PUSH2 0xF5D DUP4 DUP4 PUSH2 0xF33 JUMP JUMPDEST SWAP2 POP DUP3 PUSH1 0x2 MUL DUP3 OR SWAP1 POP SWAP3 SWAP2 POP POP JUMP JUMPDEST PUSH2 0xF76 DUP3 PUSH2 0x8EB JUMP JUMPDEST PUSH8 0xFFFFFFFFFFFFFFFF DUP2 GT ISZERO PUSH2 0xF8F JUMPI PUSH2 0xF8E PUSH2 0xA27 JUMP JUMPDEST JUMPDEST PUSH2 0xF99 DUP3 SLOAD PUSH2 0xD90 JUMP JUMPDEST PUSH2 0xFA4 DUP3 DUP3 DUP6 PUSH2 0xEE0 JUMP JUMPDEST PUSH1 0x0 PUSH1 0x20 SWAP1 POP PUSH1 0x1F DUP4 GT PUSH1 0x1 DUP2 EQ PUSH2 0xFD7 JUMPI PUSH1 0x0 DUP5 ISZERO PUSH2 0xFC5 JUMPI DUP3 DUP8 ADD MLOAD SWAP1 POP JUMPDEST PUSH2 0xFCF DUP6 DUP3 PUSH2 0xF51 JUMP JUMPDEST DUP7 SSTORE POP PUSH2 0x1037 JUMP JUMPDEST PUSH1 0x1F NOT DUP5 AND PUSH2 0xFE5 DUP7 PUSH2 0xDC1 JUMP JUMPDEST PUSH1 0x0 JUMPDEST DUP3 DUP2 LT ISZERO PUSH2 0x100D JUMPI DUP5 DUP10 ADD MLOAD DUP3 SSTORE PUSH1 0x1 DUP3 ADD SWAP2 POP PUSH1 0x20 DUP6 ADD SWAP5 POP PUSH1 0x20 DUP2 ADD SWAP1 POP PUSH2 0xFE8 JUMP JUMPDEST DUP7 DUP4 LT ISZERO PUSH2 0x102A JUMPI DUP5 DUP10 ADD MLOAD PUSH2 0x1026 PUSH1 0x1F DUP10 AND DUP3 PUSH2 0xF33 JUMP JUMPDEST DUP4 SSTORE POP JUMPDEST PUSH1 0x1 PUSH1 0x2 DUP9 MUL ADD DUP9 SSTORE POP POP POP JUMPDEST POP POP POP POP POP POP JUMP JUMPDEST PUSH32 0x4E487B7100000000000000000000000000000000000000000000000000000000 PUSH1 0x0 MSTORE PUSH1 0x32 PUSH1 0x4 MSTORE PUSH1 0x24 PUSH1 0x0 REVERT JUMPDEST PUSH32 0x4E487B7100000000000000000000000000000000000000000000000000000000 PUSH1 0x0 MSTORE PUSH1 0x11 PUSH1 0x4 MSTORE PUSH1 0x24 PUSH1 0x0 REVERT JUMPDEST PUSH1 0x0 PUSH2 0x10A8 DUP3 PUSH2 0x888 JUMP JUMPDEST SWAP2 POP PUSH32 0xFFFFFFFFFFFFFFFFFFFFFFFFFFFFFFFFFFFFFFFFFFFFFFFFFFFFFFFFFFFFFFFF DUP3 SUB PUSH2 0x10DA JUMPI PUSH2 0x10D9 PUSH2 0x106E JUMP JUMPDEST JUMPDEST PUSH1 0x1 DUP3 ADD SWAP1 POP SWAP2 SWAP1 POP JUMP JUMPDEST PUSH1 0x0 PUSH2 0x10F0 DUP3 PUSH2 0x888 JUMP JUMPDEST SWAP2 POP PUSH2 0x10FB DUP4 PUSH2 0x888 JUMP JUMPDEST SWAP3 POP DUP3 DUP3 LT ISZERO PUSH2 0x110E JUMPI PUSH2 0x110D PUSH2 0x106E JUMP JUMPDEST JUMPDEST DUP3 DUP3 SUB SWAP1 POP SWAP3 SWAP2 POP POP JUMP JUMPDEST PUSH1 0x0 PUSH2 0x1124 DUP3 PUSH2 0x888 JUMP JUMPDEST SWAP2 POP PUSH2 0x112F DUP4 PUSH2 0x888 JUMP JUMPDEST SWAP3 POP DUP2 PUSH32 0xFFFFFFFFFFFFFFFFFFFFFFFFFFFFFFFFFFFFFFFFFFFFFFFFFFFFFFFFFFFFFFFF DIV DUP4 GT DUP3 ISZERO ISZERO AND ISZERO PUSH2 0x1168 JUMPI PUSH2 0x1167 PUSH2 0x106E JUMP JUMPDEST JUMPDEST DUP3 DUP3 MUL SWAP1 POP SWAP3 SWAP2 POP POP JUMP JUMPDEST PUSH32 0x4E487B7100000000000000000000000000000000000000000000000000000000 PUSH1 0x0 MSTORE PUSH1 0x12 PUSH1 0x4 MSTORE PUSH1 0x24 PUSH1 0x0 REVERT JUMPDEST PUSH1 0x0 PUSH2 0x11AD DUP3 PUSH2 0x888 JUMP JUMPDEST SWAP2 POP PUSH2 0x11B8 DUP4 PUSH2 0x888 JUMP JUMPDEST SWAP3 POP DUP3 PUSH2 0x11C8 JUMPI PUSH2 0x11C7 PUSH2 0x1173 JUMP JUMPDEST JUMPDEST DUP3 DUP3 DIV SWAP1 POP SWAP3 SWAP2 POP POP JUMP JUMPDEST PUSH1 0x0 PUSH2 0x11DE DUP3 PUSH2 0x888 JUMP JUMPDEST SWAP2 POP PUSH2 0x11E9 DUP4 PUSH2 0x888 JUMP JUMPDEST SWAP3 POP DUP3 PUSH32 0xFFFFFFFFFFFFFFFFFFFFFFFFFFFFFFFFFFFFFFFFFFFFFFFFFFFFFFFFFFFFFFFF SUB DUP3 GT ISZERO PUSH2 0x121E JUMPI PUSH2 0x121D PUSH2 0x106E JUMP JUMPDEST JUMPDEST DUP3 DUP3 ADD SWAP1 POP SWAP3 SWAP2 POP POP JUMP INVALID LOG2 PUSH5 0x6970667358 0x22 SLT KECCAK256 0xD6 LOG0 0x4D SDIV 0xAF DELEGATECALL MUL LOG3 PUSH21 0x2F92A08252A88D94C79C5B7A278F3BBE49A11DDB04 PUSH9 0x5064736F6C63430008 0xF STOP CALLER "},"methodIdentifiers":{"gainTable(uint256)":"7e3ee416","getGainTable()":"9fe6b7cd","pushInScoreTable(string,uint256)":"8ffb7b51","rank()":"934209ce","scoreTable(uint256)":"44235ec2"}}}}}