{"contracts/Test.sol":{"Test":{"abi":[{"inputs":[],"stateMutability":"nonpayable","type":"constructor"},{"inputs":[{"internalType":"uint256","name":"_contestId","type":"uint256"}],"name":"calculateGain","outputs":[{"components":[{"internalType":"address","name":"player","type":"address"},{"internalType":"uint256","name":"score","type":"uint256"},{"internalType":"uint256","name":"rankExAequo","type":"uint256"},{"internalType":"uint256","name":"rewardNoExAequo","type":"uint256"},{"internalType":"uint256","name":"cumulatedRewardsNoExAequo","type":"uint256"},{"internalType":"uint256","name":"cumulatedRewardsPerRank","type":"uint256"},{"internalType":"uint256","name":"rewardPerRankPerPlayer","type":"uint256"}],"internalType":"struct Test.Gain[]","name":"","type":"tuple[]"}],"stateMutability":"view","type":"function"},{"inputs":[{"internalType":"uint256","name":"","type":"uint256"},{"internalType":"uint256","name":"","type":"uint256"}],"name":"contestTable","outputs":[{"internalType":"address","name":"player","type":"address"},{"internalType":"uint256","name":"nbTickets","type":"uint256"},{"internalType":"uint256","name":"score","type":"uint256"},{"internalType":"uint256","name":"rankExAequo","type":"uint256"},{"internalType":"uint256","name":"rewardPerRankPerPlayer","type":"uint256"}],"stateMutability":"view","type":"function"},{"inputs":[{"internalType":"uint256","name":"_contestId","type":"uint256"}],"name":"getContestTable","outputs":[{"components":[{"internalType":"address","name":"player","type":"address"},{"internalType":"uint256","name":"nbTickets","type":"uint256"},{"internalType":"uint256","name":"score","type":"uint256"},{"internalType":"uint256","name":"rankExAequo","type":"uint256"},{"internalType":"uint256","name":"rewardPerRankPerPlayer","type":"uint256"}],"internalType":"struct Test.ContestResult[]","name":"","type":"tuple[]"}],"stateMutability":"view","type":"function"},{"inputs":[{"internalType":"uint256","name":"_contestId","type":"uint256"}],"name":"getScoreTable","outputs":[{"components":[{"internalType":"address","name":"player","type":"address"},{"internalType":"uint256","name":"nbTickets","type":"uint256"},{"internalType":"uint256","name":"score","type":"uint256"}],"internalType":"struct Test.PlayerScoreTicket[]","name":"","type":"tuple[]"}],"stateMutability":"view","type":"function"},{"inputs":[{"internalType":"uint256","name":"_contestId","type":"uint256"},{"internalType":"address","name":"_player","type":"address"},{"internalType":"uint256","name":"_nbTickets","type":"uint256"},{"internalType":"uint256","name":"_score","type":"uint256"}],"name":"pushInScoreTable","outputs":[],"stateMutability":"nonpayable","type":"function"},{"inputs":[{"internalType":"uint256","name":"","type":"uint256"},{"internalType":"uint256","name":"","type":"uint256"}],"name":"scoreTable","outputs":[{"internalType":"address","name":"player","type":"address"},{"internalType":"uint256","name":"nbTickets","type":"uint256"},{"internalType":"uint256","name":"score","type":"uint256"}],"stateMutability":"view","type":"function"},{"inputs":[{"internalType":"uint256","name":"_contestId","type":"uint256"}],"name":"updateContestTable","outputs":[],"stateMutability":"nonpayable","type":"function"}],"evm":{"bytecode":{"linkReferences":{},"object":"60806040523480156200001157600080fd5b506106de60008190555060056001819055506200004e60017394b9420f65fb3ec966d96bb034b35af86487d929600160646200019b60201b60201c565b62000079600173d9464d0f4bd1da4dda0dd998bc73ae2ec42418de600260496200019b60201b60201c565b620000a4600173823dcde7d906cf8bf1bb4208238ebb015fe5bd0a600a60636200019b60201b60201c565b620000cf600173ab8483f64d9c6d1ecf9b849ae677dd3315835cb2600160496200019b60201b60201c565b620000fa6001735b38da6a701c568545dcfcb03fcb875f56beddc4600160646200019b60201b60201c565b620001256001734b20993bc481177ec7e8f571cecae8a9e22c02db600560496200019b60201b60201c565b6200015060017378731d3ca6b7e34ac0f824c42a7cc18a495cabab6003605a6200019b60201b60201c565b6200017b6001732f9691dd9e3fdb64daf2dc36a3b8d4f67a7646546002605c6200019b60201b60201c565b60196004600060018152602001908152602001600020819055506200026b565b6002600085815260200190815260200160002060405180606001604052808573ffffffffffffffffffffffffffffffffffffffff16815260200184815260200183815250908060018154018082558091505060019003906000526020600020906003020160009091909190915060008201518160000160006101000a81548173ffffffffffffffffffffffffffffffffffffffff021916908373ffffffffffffffffffffffffffffffffffffffff1602179055506020820151816001015560408201518160020155505050505050565b611c77806200027b6000396000f3fe608060405234801561001057600080fd5b506004361061007d5760003560e01c806385ed8ca01161005b57806385ed8ca014610102578063b66195b814610134578063bfb1d55c14610164578063d6221518146101945761007d565b80632452a7e31461008257806345b39137146100b257806357d088ff146100ce575b600080fd5b61009c60048036038101906100979190611485565b6101b0565b6040516100a99190611619565b60405180910390f35b6100cc60048036038101906100c79190611667565b6102a0565b005b6100e860048036038101906100e391906116ce565b610370565b6040516100f995949392919061172c565b60405180910390f35b61011c600480360381019061011791906116ce565b6103e3565b60405161012b9392919061177f565b60405180910390f35b61014e60048036038101906101499190611485565b61044a565b60405161015b91906118a7565b60405180910390f35b61017e60048036038101906101799190611485565b610526565b60405161018b9190611a06565b60405180910390f35b6101ae60048036038101906101a99190611485565b610f36565b005b606060036000838152602001908152602001600020805480602002602001604051908101604052809291908181526020016000905b8282101561029557838290600052602060002090600502016040518060a00160405290816000820160009054906101000a900473ffffffffffffffffffffffffffffffffffffffff1673ffffffffffffffffffffffffffffffffffffffff1673ffffffffffffffffffffffffffffffffffffffff168152602001600182015481526020016002820154815260200160038201548152602001600482015481525050815260200190600101906101e5565b505050509050919050565b6002600085815260200190815260200160002060405180606001604052808573ffffffffffffffffffffffffffffffffffffffff16815260200184815260200183815250908060018154018082558091505060019003906000526020600020906003020160009091909190915060008201518160000160006101000a81548173ffffffffffffffffffffffffffffffffffffffff021916908373ffffffffffffffffffffffffffffffffffffffff1602179055506020820151816001015560408201518160020155505050505050565b6003602052816000526040600020818154811061038c57600080fd5b9060005260206000209060050201600091509150508060000160009054906101000a900473ffffffffffffffffffffffffffffffffffffffff16908060010154908060020154908060030154908060040154905085565b600260205281600052604060002081815481106103ff57600080fd5b9060005260206000209060030201600091509150508060000160009054906101000a900473ffffffffffffffffffffffffffffffffffffffff16908060010154908060020154905083565b606060026000838152602001908152602001600020805480602002602001604051908101604052809291908181526020016000905b8282101561051b57838290600052602060002090600302016040518060600160405290816000820160009054906101000a900473ffffffffffffffffffffffffffffffffffffffff1673ffffffffffffffffffffffffffffffffffffffff1673ffffffffffffffffffffffffffffffffffffffff168152602001600182015481526020016002820154815250508152602001906001019061047f565b505050509050919050565b606060008060008080600080600460008a815260200190815260200160002054905060008167ffffffffffffffff81111561056457610563611a28565b5b60405190808252806020026020018201604052801561059d57816020015b61058a611390565b8152602001906001900390816105825790505b50905060008267ffffffffffffffff8111156105bc576105bb611a28565b5b6040519080825280602002602001820160405280156105f557816020015b6105e26113c0565b8152602001906001900390816105da5790505b50905060008367ffffffffffffffff81111561061457610613611a28565b5b60405190808252806020026020018201604052801561064d57816020015b61063a6113f7565b8152602001906001900390816106325790505b50905060005b600260008e8152602001908152602001600020805490508110156107b3576000600260008f8152602001908152602001600020828154811061069857610697611a57565b5b90600052602060002090600302016040518060600160405290816000820160009054906101000a900473ffffffffffffffffffffffffffffffffffffffff1673ffffffffffffffffffffffffffffffffffffffff1673ffffffffffffffffffffffffffffffffffffffff16815260200160018201548152602001600282015481525050905060005b816020015181101561079e576040518060400160405280836000015173ffffffffffffffffffffffffffffffffffffffff168152602001836040015181525086898151811061077257610771611a57565b5b6020026020010181905250878061078890611ab5565b985050808061079690611ab5565b915050610720565b505080806107ab90611ab5565b915050610653565b5060005b848110156108df5760019a5060005b85811015610840578481815181106107e1576107e0611a57565b5b602002602001015160200151858381518110610800576107ff611a57565b5b602002602001015160200151101561082d578b8061081d90611ab5565b9c50508a8c111561082c578b9a505b5b808061083890611ab5565b9150506107c6565b50604051806060016040528085838151811061085f5761085e611a57565b5b60200260200101516000015173ffffffffffffffffffffffffffffffffffffffff16815260200185838151811061089957610898611a57565b5b60200260200101516020015181526020018c8152508382815181106108c1576108c0611a57565b5b602002602001018190525080806108d790611ab5565b9150506107b7565b50600094506000600190505b898111610a1d5760005b85811015610a09578184828151811061091157610910611a57565b5b602002602001015160400151036109f6576040518060e001604052808583815181106109405761093f611a57565b5b60200260200101516000015173ffffffffffffffffffffffffffffffffffffffff16815260200185838151811061097a57610979611a57565b5b602002602001015160200151815260200185838151811061099e5761099d611a57565b5b602002602001015160400151815260200160008152602001600081526020016000815260200160008152508388815181106109dc576109db611a57565b5b602002602001018190525086806109f290611ab5565b9750505b8080610a0190611ab5565b9150506108f5565b508080610a1590611ab5565b9150506108eb565b50606460015489600054610a319190611afd565b610a3b9190611b31565b610a459190611bba565b95508588610a539190611beb565b97508581600081518110610a6a57610a69611a57565b5b602002602001015160600181815250508581600081518110610a8f57610a8e611a57565b5b602002602001015160800181815250508581600081518110610ab457610ab3611a57565b5b602002602001015160a00181815250508581600081518110610ad957610ad8611a57565b5b602002602001015160c00181815250506000600190505b84811015610f235760646001548a600054610b0b9190611afd565b610b159190611b31565b610b1f9190611bba565b965086828281518110610b3557610b34611a57565b5b602002602001015160600181815250508689610b519190611beb565b985088828281518110610b6757610b66611a57565b5b60200260200101516080018181525050600185610b849190611afd565b8114610d6a5781600182610b989190611afd565b81518110610ba957610ba8611a57565b5b602002602001015160400151828281518110610bc857610bc7611a57565b5b60200260200101516040015103610c37578682600183610be89190611afd565b81518110610bf957610bf8611a57565b5b602002602001015160a00151610c0f9190611beb565b828281518110610c2257610c21611a57565b5b602002602001015160a0018181525050610d65565b86828281518110610c4b57610c4a611a57565b5b602002602001015160a001818152505086828281518110610c6f57610c6e611a57565b5b602002602001015160c001818152505081600182610c8d9190611afd565b81518110610c9e57610c9d611a57565b5b602002602001015160400151828281518110610cbd57610cbc611a57565b5b602002602001015160400151610cd39190611afd565b975060005b88811015610d63578883600184610cef9190611afd565b81518110610d0057610cff611a57565b5b602002602001015160a00151610d169190611bba565b83600183610d249190611beb565b84610d2f9190611afd565b81518110610d4057610d3f611a57565b5b602002602001015160c00181815250508080610d5b90611ab5565b915050610cd8565b505b610f10565b81600182610d789190611afd565b81518110610d8957610d88611a57565b5b602002602001015160400151828281518110610da857610da7611a57565b5b60200260200101516040015103610ec6578682600183610dc89190611afd565b81518110610dd957610dd8611a57565b5b602002602001015160a00151610def9190611beb565b828281518110610e0257610e01611a57565b5b602002602001015160a0018181525050818181518110610e2557610e24611a57565b5b602002602001015160400151600186610e3e9190611beb565b610e489190611afd565b975060005b88811015610ec05788838381518110610e6957610e68611a57565b5b602002602001015160a00151610e7f9190611bba565b838284610e8c9190611afd565b81518110610e9d57610e9c611a57565b5b602002602001015160c00181815250508080610eb890611ab5565b915050610e4d565b50610f0f565b86828281518110610eda57610ed9611a57565b5b602002602001015160a001818152505086828281518110610efe57610efd611a57565b5b602002602001015160c00181815250505b5b8080610f1b90611ab5565b915050610af0565b50809a5050505050505050505050919050565b6000610f4182610526565b90506000600360008481526020019081526020016000206040518060a0016040528084600081518110610f7757610f76611a57565b5b60200260200101516000015173ffffffffffffffffffffffffffffffffffffffff1681526020016001815260200184600081518110610fb957610fb8611a57565b5b602002602001015160200151815260200184600081518110610fde57610fdd611a57565b5b60200260200101516040015181526020018460008151811061100357611002611a57565b5b602002602001015160c00151815250908060018154018082558091505060019003906000526020600020906005020160009091909190915060008201518160000160006101000a81548173ffffffffffffffffffffffffffffffffffffffff021916908373ffffffffffffffffffffffffffffffffffffffff1602179055506020820151816001015560408201518160020155606082015181600301556080820151816004015550506000600190505b600460008581526020019081526020016000205481101561138a57826001826110dc9190611afd565b815181106110ed576110ec611a57565b5b60200260200101516000015173ffffffffffffffffffffffffffffffffffffffff1683828151811061112257611121611a57565b5b60200260200101516000015173ffffffffffffffffffffffffffffffffffffffff16036112055760036000858152602001908152602001600020828154811061116e5761116d611a57565b5b9060005260206000209060050201600101600081548092919061119090611ab5565b91905055508281815181106111a8576111a7611a57565b5b602002602001015160c001516003600086815260200190815260200160002083815481106111d9576111d8611a57565b5b906000526020600020906005020160040160008282546111f99190611beb565b92505081905550611377565b600360008581526020019081526020016000206040518060a0016040528085848151811061123657611235611a57565b5b60200260200101516000015173ffffffffffffffffffffffffffffffffffffffff1681526020016001815260200185848151811061127757611276611a57565b5b602002602001015160200151815260200185848151811061129b5761129a611a57565b5b60200260200101516040015181526020018584815181106112bf576112be611a57565b5b602002602001015160c00151815250908060018154018082558091505060019003906000526020600020906005020160009091909190915060008201518160000160006101000a81548173ffffffffffffffffffffffffffffffffffffffff021916908373ffffffffffffffffffffffffffffffffffffffff160217905550602082015181600101556040820151816002015560608201518160030155608082015181600401555050818061137390611ab5565b9250505b808061138290611ab5565b9150506110b3565b50505050565b6040518060400160405280600073ffffffffffffffffffffffffffffffffffffffff168152602001600081525090565b6040518060600160405280600073ffffffffffffffffffffffffffffffffffffffff16815260200160008152602001600081525090565b6040518060e00160405280600073ffffffffffffffffffffffffffffffffffffffff1681526020016000815260200160008152602001600081526020016000815260200160008152602001600081525090565b600080fd5b6000819050919050565b6114628161144f565b811461146d57600080fd5b50565b60008135905061147f81611459565b92915050565b60006020828403121561149b5761149a61144a565b5b60006114a984828501611470565b91505092915050565b600081519050919050565b600082825260208201905092915050565b6000819050602082019050919050565b600073ffffffffffffffffffffffffffffffffffffffff82169050919050565b6000611509826114de565b9050919050565b611519816114fe565b82525050565b6115288161144f565b82525050565b60a0820160008201516115446000850182611510565b506020820151611557602085018261151f565b50604082015161156a604085018261151f565b50606082015161157d606085018261151f565b506080820151611590608085018261151f565b50505050565b60006115a2838361152e565b60a08301905092915050565b6000602082019050919050565b60006115c6826114b2565b6115d081856114bd565b93506115db836114ce565b8060005b8381101561160c5781516115f38882611596565b97506115fe836115ae565b9250506001810190506115df565b5085935050505092915050565b6000602082019050818103600083015261163381846115bb565b905092915050565b611644816114fe565b811461164f57600080fd5b50565b6000813590506116618161163b565b92915050565b600080600080608085870312156116815761168061144a565b5b600061168f87828801611470565b94505060206116a087828801611652565b93505060406116b187828801611470565b92505060606116c287828801611470565b91505092959194509250565b600080604083850312156116e5576116e461144a565b5b60006116f385828601611470565b925050602061170485828601611470565b9150509250929050565b611717816114fe565b82525050565b6117268161144f565b82525050565b600060a082019050611741600083018861170e565b61174e602083018761171d565b61175b604083018661171d565b611768606083018561171d565b611775608083018461171d565b9695505050505050565b6000606082019050611794600083018661170e565b6117a1602083018561171d565b6117ae604083018461171d565b949350505050565b600081519050919050565b600082825260208201905092915050565b6000819050602082019050919050565b6060820160008201516117f86000850182611510565b50602082015161180b602085018261151f565b50604082015161181e604085018261151f565b50505050565b600061183083836117e2565b60608301905092915050565b6000602082019050919050565b6000611854826117b6565b61185e81856117c1565b9350611869836117d2565b8060005b8381101561189a5781516118818882611824565b975061188c8361183c565b92505060018101905061186d565b5085935050505092915050565b600060208201905081810360008301526118c18184611849565b905092915050565b600081519050919050565b600082825260208201905092915050565b6000819050602082019050919050565b60e08201600082015161190b6000850182611510565b50602082015161191e602085018261151f565b506040820151611931604085018261151f565b506060820151611944606085018261151f565b506080820151611957608085018261151f565b5060a082015161196a60a085018261151f565b5060c082015161197d60c085018261151f565b50505050565b600061198f83836118f5565b60e08301905092915050565b6000602082019050919050565b60006119b3826118c9565b6119bd81856118d4565b93506119c8836118e5565b8060005b838110156119f95781516119e08882611983565b97506119eb8361199b565b9250506001810190506119cc565b5085935050505092915050565b60006020820190508181036000830152611a2081846119a8565b905092915050565b7f4e487b7100000000000000000000000000000000000000000000000000000000600052604160045260246000fd5b7f4e487b7100000000000000000000000000000000000000000000000000000000600052603260045260246000fd5b7f4e487b7100000000000000000000000000000000000000000000000000000000600052601160045260246000fd5b6000611ac08261144f565b91507fffffffffffffffffffffffffffffffffffffffffffffffffffffffffffffffff8203611af257611af1611a86565b5b600182019050919050565b6000611b088261144f565b9150611b138361144f565b925082821015611b2657611b25611a86565b5b828203905092915050565b6000611b3c8261144f565b9150611b478361144f565b9250817fffffffffffffffffffffffffffffffffffffffffffffffffffffffffffffffff0483118215151615611b8057611b7f611a86565b5b828202905092915050565b7f4e487b7100000000000000000000000000000000000000000000000000000000600052601260045260246000fd5b6000611bc58261144f565b9150611bd08361144f565b925082611be057611bdf611b8b565b5b828204905092915050565b6000611bf68261144f565b9150611c018361144f565b9250827fffffffffffffffffffffffffffffffffffffffffffffffffffffffffffffffff03821115611c3657611c35611a86565b5b82820190509291505056fea26469706673582212202ed5cd1fb15d6bba69abe717680823d4d34eff2434f54408fbc746c7b0c199c064736f6c634300080f0033","opcodes":"PUSH1 0x80 PUSH1 0x40 MSTORE CALLVALUE DUP1 ISZERO PUSH3 0x11 JUMPI PUSH1 0x0 DUP1 REVERT JUMPDEST POP PUSH2 0x6DE PUSH1 0x0 DUP2 SWAP1 SSTORE POP PUSH1 0x5 PUSH1 0x1 DUP2 SWAP1 SSTORE POP PUSH3 0x4E PUSH1 0x1 PUSH20 0x94B9420F65FB3EC966D96BB034B35AF86487D929 PUSH1 0x1 PUSH1 0x64 PUSH3 0x19B PUSH1 0x20 SHL PUSH1 0x20 SHR JUMP JUMPDEST PUSH3 0x79 PUSH1 0x1 PUSH20 0xD9464D0F4BD1DA4DDA0DD998BC73AE2EC42418DE PUSH1 0x2 PUSH1 0x49 PUSH3 0x19B PUSH1 0x20 SHL PUSH1 0x20 SHR JUMP JUMPDEST PUSH3 0xA4 PUSH1 0x1 PUSH20 0x823DCDE7D906CF8BF1BB4208238EBB015FE5BD0A PUSH1 0xA PUSH1 0x63 PUSH3 0x19B PUSH1 0x20 SHL PUSH1 0x20 SHR JUMP JUMPDEST PUSH3 0xCF PUSH1 0x1 PUSH20 0xAB8483F64D9C6D1ECF9B849AE677DD3315835CB2 PUSH1 0x1 PUSH1 0x49 PUSH3 0x19B PUSH1 0x20 SHL PUSH1 0x20 SHR JUMP JUMPDEST PUSH3 0xFA PUSH1 0x1 PUSH20 0x5B38DA6A701C568545DCFCB03FCB875F56BEDDC4 PUSH1 0x1 PUSH1 0x64 PUSH3 0x19B PUSH1 0x20 SHL PUSH1 0x20 SHR JUMP JUMPDEST PUSH3 0x125 PUSH1 0x1 PUSH20 0x4B20993BC481177EC7E8F571CECAE8A9E22C02DB PUSH1 0x5 PUSH1 0x49 PUSH3 0x19B PUSH1 0x20 SHL PUSH1 0x20 SHR JUMP JUMPDEST PUSH3 0x150 PUSH1 0x1 PUSH20 0x78731D3CA6B7E34AC0F824C42A7CC18A495CABAB PUSH1 0x3 PUSH1 0x5A PUSH3 0x19B PUSH1 0x20 SHL PUSH1 0x20 SHR JUMP JUMPDEST PUSH3 0x17B PUSH1 0x1 PUSH20 0x2F9691DD9E3FDB64DAF2DC36A3B8D4F67A764654 PUSH1 0x2 PUSH1 0x5C PUSH3 0x19B PUSH1 0x20 SHL PUSH1 0x20 SHR JUMP JUMPDEST PUSH1 0x19 PUSH1 0x4 PUSH1 0x0 PUSH1 0x1 DUP2 MSTORE PUSH1 0x20 ADD SWAP1 DUP2 MSTORE PUSH1 0x20 ADD PUSH1 0x0 KECCAK256 DUP2 SWAP1 SSTORE POP PUSH3 0x26B JUMP JUMPDEST PUSH1 0x2 PUSH1 0x0 DUP6 DUP2 MSTORE PUSH1 0x20 ADD SWAP1 DUP2 MSTORE PUSH1 0x20 ADD PUSH1 0x0 KECCAK256 PUSH1 0x40 MLOAD DUP1 PUSH1 0x60 ADD PUSH1 0x40 MSTORE DUP1 DUP6 PUSH20 0xFFFFFFFFFFFFFFFFFFFFFFFFFFFFFFFFFFFFFFFF AND DUP2 MSTORE PUSH1 0x20 ADD DUP5 DUP2 MSTORE PUSH1 0x20 ADD DUP4 DUP2 MSTORE POP SWAP1 DUP1 PUSH1 0x1 DUP2 SLOAD ADD DUP1 DUP3 SSTORE DUP1 SWAP2 POP POP PUSH1 0x1 SWAP1 SUB SWAP1 PUSH1 0x0 MSTORE PUSH1 0x20 PUSH1 0x0 KECCAK256 SWAP1 PUSH1 0x3 MUL ADD PUSH1 0x0 SWAP1 SWAP2 SWAP1 SWAP2 SWAP1 SWAP2 POP PUSH1 0x0 DUP3 ADD MLOAD DUP2 PUSH1 0x0 ADD PUSH1 0x0 PUSH2 0x100 EXP DUP2 SLOAD DUP2 PUSH20 0xFFFFFFFFFFFFFFFFFFFFFFFFFFFFFFFFFFFFFFFF MUL NOT AND SWAP1 DUP4 PUSH20 0xFFFFFFFFFFFFFFFFFFFFFFFFFFFFFFFFFFFFFFFF AND MUL OR SWAP1 SSTORE POP PUSH1 0x20 DUP3 ADD MLOAD DUP2 PUSH1 0x1 ADD SSTORE PUSH1 0x40 DUP3 ADD MLOAD DUP2 PUSH1 0x2 ADD SSTORE POP POP POP POP POP POP JUMP JUMPDEST PUSH2 0x1C77 DUP1 PUSH3 0x27B PUSH1 0x0 CODECOPY PUSH1 0x0 RETURN INVALID PUSH1 0x80 PUSH1 0x40 MSTORE CALLVALUE DUP1 ISZERO PUSH2 0x10 JUMPI PUSH1 0x0 DUP1 REVERT JUMPDEST POP PUSH1 0x4 CALLDATASIZE LT PUSH2 0x7D JUMPI PUSH1 0x0 CALLDATALOAD PUSH1 0xE0 SHR DUP1 PUSH4 0x85ED8CA0 GT PUSH2 0x5B JUMPI DUP1 PUSH4 0x85ED8CA0 EQ PUSH2 0x102 JUMPI DUP1 PUSH4 0xB66195B8 EQ PUSH2 0x134 JUMPI DUP1 PUSH4 0xBFB1D55C EQ PUSH2 0x164 JUMPI DUP1 PUSH4 0xD6221518 EQ PUSH2 0x194 JUMPI PUSH2 0x7D JUMP JUMPDEST DUP1 PUSH4 0x2452A7E3 EQ PUSH2 0x82 JUMPI DUP1 PUSH4 0x45B39137 EQ PUSH2 0xB2 JUMPI DUP1 PUSH4 0x57D088FF EQ PUSH2 0xCE JUMPI JUMPDEST PUSH1 0x0 DUP1 REVERT JUMPDEST PUSH2 0x9C PUSH1 0x4 DUP1 CALLDATASIZE SUB DUP2 ADD SWAP1 PUSH2 0x97 SWAP2 SWAP1 PUSH2 0x1485 JUMP JUMPDEST PUSH2 0x1B0 JUMP JUMPDEST PUSH1 0x40 MLOAD PUSH2 0xA9 SWAP2 SWAP1 PUSH2 0x1619 JUMP JUMPDEST PUSH1 0x40 MLOAD DUP1 SWAP2 SUB SWAP1 RETURN JUMPDEST PUSH2 0xCC PUSH1 0x4 DUP1 CALLDATASIZE SUB DUP2 ADD SWAP1 PUSH2 0xC7 SWAP2 SWAP1 PUSH2 0x1667 JUMP JUMPDEST PUSH2 0x2A0 JUMP JUMPDEST STOP JUMPDEST PUSH2 0xE8 PUSH1 0x4 DUP1 CALLDATASIZE SUB DUP2 ADD SWAP1 PUSH2 0xE3 SWAP2 SWAP1 PUSH2 0x16CE JUMP JUMPDEST PUSH2 0x370 JUMP JUMPDEST PUSH1 0x40 MLOAD PUSH2 0xF9 SWAP6 SWAP5 SWAP4 SWAP3 SWAP2 SWAP1 PUSH2 0x172C JUMP JUMPDEST PUSH1 0x40 MLOAD DUP1 SWAP2 SUB SWAP1 RETURN JUMPDEST PUSH2 0x11C PUSH1 0x4 DUP1 CALLDATASIZE SUB DUP2 ADD SWAP1 PUSH2 0x117 SWAP2 SWAP1 PUSH2 0x16CE JUMP JUMPDEST PUSH2 0x3E3 JUMP JUMPDEST PUSH1 0x40 MLOAD PUSH2 0x12B SWAP4 SWAP3 SWAP2 SWAP1 PUSH2 0x177F JUMP JUMPDEST PUSH1 0x40 MLOAD DUP1 SWAP2 SUB SWAP1 RETURN JUMPDEST PUSH2 0x14E PUSH1 0x4 DUP1 CALLDATASIZE SUB DUP2 ADD SWAP1 PUSH2 0x149 SWAP2 SWAP1 PUSH2 0x1485 JUMP JUMPDEST PUSH2 0x44A JUMP JUMPDEST PUSH1 0x40 MLOAD PUSH2 0x15B SWAP2 SWAP1 PUSH2 0x18A7 JUMP JUMPDEST PUSH1 0x40 MLOAD DUP1 SWAP2 SUB SWAP1 RETURN JUMPDEST PUSH2 0x17E PUSH1 0x4 DUP1 CALLDATASIZE SUB DUP2 ADD SWAP1 PUSH2 0x179 SWAP2 SWAP1 PUSH2 0x1485 JUMP JUMPDEST PUSH2 0x526 JUMP JUMPDEST PUSH1 0x40 MLOAD PUSH2 0x18B SWAP2 SWAP1 PUSH2 0x1A06 JUMP JUMPDEST PUSH1 0x40 MLOAD DUP1 SWAP2 SUB SWAP1 RETURN JUMPDEST PUSH2 0x1AE PUSH1 0x4 DUP1 CALLDATASIZE SUB DUP2 ADD SWAP1 PUSH2 0x1A9 SWAP2 SWAP1 PUSH2 0x1485 JUMP JUMPDEST PUSH2 0xF36 JUMP JUMPDEST STOP JUMPDEST PUSH1 0x60 PUSH1 0x3 PUSH1 0x0 DUP4 DUP2 MSTORE PUSH1 0x20 ADD SWAP1 DUP2 MSTORE PUSH1 0x20 ADD PUSH1 0x0 KECCAK256 DUP1 SLOAD DUP1 PUSH1 0x20 MUL PUSH1 0x20 ADD PUSH1 0x40 MLOAD SWAP1 DUP2 ADD PUSH1 0x40 MSTORE DUP1 SWAP3 SWAP2 SWAP1 DUP2 DUP2 MSTORE PUSH1 0x20 ADD PUSH1 0x0 SWAP1 JUMPDEST DUP3 DUP3 LT ISZERO PUSH2 0x295 JUMPI DUP4 DUP3 SWAP1 PUSH1 0x0 MSTORE PUSH1 0x20 PUSH1 0x0 KECCAK256 SWAP1 PUSH1 0x5 MUL ADD PUSH1 0x40 MLOAD DUP1 PUSH1 0xA0 ADD PUSH1 0x40 MSTORE SWAP1 DUP2 PUSH1 0x0 DUP3 ADD PUSH1 0x0 SWAP1 SLOAD SWAP1 PUSH2 0x100 EXP SWAP1 DIV PUSH20 0xFFFFFFFFFFFFFFFFFFFFFFFFFFFFFFFFFFFFFFFF AND PUSH20 0xFFFFFFFFFFFFFFFFFFFFFFFFFFFFFFFFFFFFFFFF AND PUSH20 0xFFFFFFFFFFFFFFFFFFFFFFFFFFFFFFFFFFFFFFFF AND DUP2 MSTORE PUSH1 0x20 ADD PUSH1 0x1 DUP3 ADD SLOAD DUP2 MSTORE PUSH1 0x20 ADD PUSH1 0x2 DUP3 ADD SLOAD DUP2 MSTORE PUSH1 0x20 ADD PUSH1 0x3 DUP3 ADD SLOAD DUP2 MSTORE PUSH1 0x20 ADD PUSH1 0x4 DUP3 ADD SLOAD DUP2 MSTORE POP POP DUP2 MSTORE PUSH1 0x20 ADD SWAP1 PUSH1 0x1 ADD SWAP1 PUSH2 0x1E5 JUMP JUMPDEST POP POP POP POP SWAP1 POP SWAP2 SWAP1 POP JUMP JUMPDEST PUSH1 0x2 PUSH1 0x0 DUP6 DUP2 MSTORE PUSH1 0x20 ADD SWAP1 DUP2 MSTORE PUSH1 0x20 ADD PUSH1 0x0 KECCAK256 PUSH1 0x40 MLOAD DUP1 PUSH1 0x60 ADD PUSH1 0x40 MSTORE DUP1 DUP6 PUSH20 0xFFFFFFFFFFFFFFFFFFFFFFFFFFFFFFFFFFFFFFFF AND DUP2 MSTORE PUSH1 0x20 ADD DUP5 DUP2 MSTORE PUSH1 0x20 ADD DUP4 DUP2 MSTORE POP SWAP1 DUP1 PUSH1 0x1 DUP2 SLOAD ADD DUP1 DUP3 SSTORE DUP1 SWAP2 POP POP PUSH1 0x1 SWAP1 SUB SWAP1 PUSH1 0x0 MSTORE PUSH1 0x20 PUSH1 0x0 KECCAK256 SWAP1 PUSH1 0x3 MUL ADD PUSH1 0x0 SWAP1 SWAP2 SWAP1 SWAP2 SWAP1 SWAP2 POP PUSH1 0x0 DUP3 ADD MLOAD DUP2 PUSH1 0x0 ADD PUSH1 0x0 PUSH2 0x100 EXP DUP2 SLOAD DUP2 PUSH20 0xFFFFFFFFFFFFFFFFFFFFFFFFFFFFFFFFFFFFFFFF MUL NOT AND SWAP1 DUP4 PUSH20 0xFFFFFFFFFFFFFFFFFFFFFFFFFFFFFFFFFFFFFFFF AND MUL OR SWAP1 SSTORE POP PUSH1 0x20 DUP3 ADD MLOAD DUP2 PUSH1 0x1 ADD SSTORE PUSH1 0x40 DUP3 ADD MLOAD DUP2 PUSH1 0x2 ADD SSTORE POP POP POP POP POP POP JUMP JUMPDEST PUSH1 0x3 PUSH1 0x20 MSTORE DUP2 PUSH1 0x0 MSTORE PUSH1 0x40 PUSH1 0x0 KECCAK256 DUP2 DUP2 SLOAD DUP2 LT PUSH2 0x38C JUMPI PUSH1 0x0 DUP1 REVERT JUMPDEST SWAP1 PUSH1 0x0 MSTORE PUSH1 0x20 PUSH1 0x0 KECCAK256 SWAP1 PUSH1 0x5 MUL ADD PUSH1 0x0 SWAP2 POP SWAP2 POP POP DUP1 PUSH1 0x0 ADD PUSH1 0x0 SWAP1 SLOAD SWAP1 PUSH2 0x100 EXP SWAP1 DIV PUSH20 0xFFFFFFFFFFFFFFFFFFFFFFFFFFFFFFFFFFFFFFFF AND SWAP1 DUP1 PUSH1 0x1 ADD SLOAD SWAP1 DUP1 PUSH1 0x2 ADD SLOAD SWAP1 DUP1 PUSH1 0x3 ADD SLOAD SWAP1 DUP1 PUSH1 0x4 ADD SLOAD SWAP1 POP DUP6 JUMP JUMPDEST PUSH1 0x2 PUSH1 0x20 MSTORE DUP2 PUSH1 0x0 MSTORE PUSH1 0x40 PUSH1 0x0 KECCAK256 DUP2 DUP2 SLOAD DUP2 LT PUSH2 0x3FF JUMPI PUSH1 0x0 DUP1 REVERT JUMPDEST SWAP1 PUSH1 0x0 MSTORE PUSH1 0x20 PUSH1 0x0 KECCAK256 SWAP1 PUSH1 0x3 MUL ADD PUSH1 0x0 SWAP2 POP SWAP2 POP POP DUP1 PUSH1 0x0 ADD PUSH1 0x0 SWAP1 SLOAD SWAP1 PUSH2 0x100 EXP SWAP1 DIV PUSH20 0xFFFFFFFFFFFFFFFFFFFFFFFFFFFFFFFFFFFFFFFF AND SWAP1 DUP1 PUSH1 0x1 ADD SLOAD SWAP1 DUP1 PUSH1 0x2 ADD SLOAD SWAP1 POP DUP4 JUMP JUMPDEST PUSH1 0x60 PUSH1 0x2 PUSH1 0x0 DUP4 DUP2 MSTORE PUSH1 0x20 ADD SWAP1 DUP2 MSTORE PUSH1 0x20 ADD PUSH1 0x0 KECCAK256 DUP1 SLOAD DUP1 PUSH1 0x20 MUL PUSH1 0x20 ADD PUSH1 0x40 MLOAD SWAP1 DUP2 ADD PUSH1 0x40 MSTORE DUP1 SWAP3 SWAP2 SWAP1 DUP2 DUP2 MSTORE PUSH1 0x20 ADD PUSH1 0x0 SWAP1 JUMPDEST DUP3 DUP3 LT ISZERO PUSH2 0x51B JUMPI DUP4 DUP3 SWAP1 PUSH1 0x0 MSTORE PUSH1 0x20 PUSH1 0x0 KECCAK256 SWAP1 PUSH1 0x3 MUL ADD PUSH1 0x40 MLOAD DUP1 PUSH1 0x60 ADD PUSH1 0x40 MSTORE SWAP1 DUP2 PUSH1 0x0 DUP3 ADD PUSH1 0x0 SWAP1 SLOAD SWAP1 PUSH2 0x100 EXP SWAP1 DIV PUSH20 0xFFFFFFFFFFFFFFFFFFFFFFFFFFFFFFFFFFFFFFFF AND PUSH20 0xFFFFFFFFFFFFFFFFFFFFFFFFFFFFFFFFFFFFFFFF AND PUSH20 0xFFFFFFFFFFFFFFFFFFFFFFFFFFFFFFFFFFFFFFFF AND DUP2 MSTORE PUSH1 0x20 ADD PUSH1 0x1 DUP3 ADD SLOAD DUP2 MSTORE PUSH1 0x20 ADD PUSH1 0x2 DUP3 ADD SLOAD DUP2 MSTORE POP POP DUP2 MSTORE PUSH1 0x20 ADD SWAP1 PUSH1 0x1 ADD SWAP1 PUSH2 0x47F JUMP JUMPDEST POP POP POP POP SWAP1 POP SWAP2 SWAP1 POP JUMP JUMPDEST PUSH1 0x60 PUSH1 0x0 DUP1 PUSH1 0x0 DUP1 DUP1 PUSH1 0x0 DUP1 PUSH1 0x4 PUSH1 0x0 DUP11 DUP2 MSTORE PUSH1 0x20 ADD SWAP1 DUP2 MSTORE PUSH1 0x20 ADD PUSH1 0x0 KECCAK256 SLOAD SWAP1 POP PUSH1 0x0 DUP2 PUSH8 0xFFFFFFFFFFFFFFFF DUP2 GT ISZERO PUSH2 0x564 JUMPI PUSH2 0x563 PUSH2 0x1A28 JUMP JUMPDEST JUMPDEST PUSH1 0x40 MLOAD SWAP1 DUP1 DUP3 MSTORE DUP1 PUSH1 0x20 MUL PUSH1 0x20 ADD DUP3 ADD PUSH1 0x40 MSTORE DUP1 ISZERO PUSH2 0x59D JUMPI DUP2 PUSH1 0x20 ADD JUMPDEST PUSH2 0x58A PUSH2 0x1390 JUMP JUMPDEST DUP2 MSTORE PUSH1 0x20 ADD SWAP1 PUSH1 0x1 SWAP1 SUB SWAP1 DUP2 PUSH2 0x582 JUMPI SWAP1 POP JUMPDEST POP SWAP1 POP PUSH1 0x0 DUP3 PUSH8 0xFFFFFFFFFFFFFFFF DUP2 GT ISZERO PUSH2 0x5BC JUMPI PUSH2 0x5BB PUSH2 0x1A28 JUMP JUMPDEST JUMPDEST PUSH1 0x40 MLOAD SWAP1 DUP1 DUP3 MSTORE DUP1 PUSH1 0x20 MUL PUSH1 0x20 ADD DUP3 ADD PUSH1 0x40 MSTORE DUP1 ISZERO PUSH2 0x5F5 JUMPI DUP2 PUSH1 0x20 ADD JUMPDEST PUSH2 0x5E2 PUSH2 0x13C0 JUMP JUMPDEST DUP2 MSTORE PUSH1 0x20 ADD SWAP1 PUSH1 0x1 SWAP1 SUB SWAP1 DUP2 PUSH2 0x5DA JUMPI SWAP1 POP JUMPDEST POP SWAP1 POP PUSH1 0x0 DUP4 PUSH8 0xFFFFFFFFFFFFFFFF DUP2 GT ISZERO PUSH2 0x614 JUMPI PUSH2 0x613 PUSH2 0x1A28 JUMP JUMPDEST JUMPDEST PUSH1 0x40 MLOAD SWAP1 DUP1 DUP3 MSTORE DUP1 PUSH1 0x20 MUL PUSH1 0x20 ADD DUP3 ADD PUSH1 0x40 MSTORE DUP1 ISZERO PUSH2 0x64D JUMPI DUP2 PUSH1 0x20 ADD JUMPDEST PUSH2 0x63A PUSH2 0x13F7 JUMP JUMPDEST DUP2 MSTORE PUSH1 0x20 ADD SWAP1 PUSH1 0x1 SWAP1 SUB SWAP1 DUP2 PUSH2 0x632 JUMPI SWAP1 POP JUMPDEST POP SWAP1 POP PUSH1 0x0 JUMPDEST PUSH1 0x2 PUSH1 0x0 DUP15 DUP2 MSTORE PUSH1 0x20 ADD SWAP1 DUP2 MSTORE PUSH1 0x20 ADD PUSH1 0x0 KECCAK256 DUP1 SLOAD SWAP1 POP DUP2 LT ISZERO PUSH2 0x7B3 JUMPI PUSH1 0x0 PUSH1 0x2 PUSH1 0x0 DUP16 DUP2 MSTORE PUSH1 0x20 ADD SWAP1 DUP2 MSTORE PUSH1 0x20 ADD PUSH1 0x0 KECCAK256 DUP3 DUP2 SLOAD DUP2 LT PUSH2 0x698 JUMPI PUSH2 0x697 PUSH2 0x1A57 JUMP JUMPDEST JUMPDEST SWAP1 PUSH1 0x0 MSTORE PUSH1 0x20 PUSH1 0x0 KECCAK256 SWAP1 PUSH1 0x3 MUL ADD PUSH1 0x40 MLOAD DUP1 PUSH1 0x60 ADD PUSH1 0x40 MSTORE SWAP1 DUP2 PUSH1 0x0 DUP3 ADD PUSH1 0x0 SWAP1 SLOAD SWAP1 PUSH2 0x100 EXP SWAP1 DIV PUSH20 0xFFFFFFFFFFFFFFFFFFFFFFFFFFFFFFFFFFFFFFFF AND PUSH20 0xFFFFFFFFFFFFFFFFFFFFFFFFFFFFFFFFFFFFFFFF AND PUSH20 0xFFFFFFFFFFFFFFFFFFFFFFFFFFFFFFFFFFFFFFFF AND DUP2 MSTORE PUSH1 0x20 ADD PUSH1 0x1 DUP3 ADD SLOAD DUP2 MSTORE PUSH1 0x20 ADD PUSH1 0x2 DUP3 ADD SLOAD DUP2 MSTORE POP POP SWAP1 POP PUSH1 0x0 JUMPDEST DUP2 PUSH1 0x20 ADD MLOAD DUP2 LT ISZERO PUSH2 0x79E JUMPI PUSH1 0x40 MLOAD DUP1 PUSH1 0x40 ADD PUSH1 0x40 MSTORE DUP1 DUP4 PUSH1 0x0 ADD MLOAD PUSH20 0xFFFFFFFFFFFFFFFFFFFFFFFFFFFFFFFFFFFFFFFF AND DUP2 MSTORE PUSH1 0x20 ADD DUP4 PUSH1 0x40 ADD MLOAD DUP2 MSTORE POP DUP7 DUP10 DUP2 MLOAD DUP2 LT PUSH2 0x772 JUMPI PUSH2 0x771 PUSH2 0x1A57 JUMP JUMPDEST JUMPDEST PUSH1 0x20 MUL PUSH1 0x20 ADD ADD DUP2 SWAP1 MSTORE POP DUP8 DUP1 PUSH2 0x788 SWAP1 PUSH2 0x1AB5 JUMP JUMPDEST SWAP9 POP POP DUP1 DUP1 PUSH2 0x796 SWAP1 PUSH2 0x1AB5 JUMP JUMPDEST SWAP2 POP POP PUSH2 0x720 JUMP JUMPDEST POP POP DUP1 DUP1 PUSH2 0x7AB SWAP1 PUSH2 0x1AB5 JUMP JUMPDEST SWAP2 POP POP PUSH2 0x653 JUMP JUMPDEST POP PUSH1 0x0 JUMPDEST DUP5 DUP2 LT ISZERO PUSH2 0x8DF JUMPI PUSH1 0x1 SWAP11 POP PUSH1 0x0 JUMPDEST DUP6 DUP2 LT ISZERO PUSH2 0x840 JUMPI DUP5 DUP2 DUP2 MLOAD DUP2 LT PUSH2 0x7E1 JUMPI PUSH2 0x7E0 PUSH2 0x1A57 JUMP JUMPDEST JUMPDEST PUSH1 0x20 MUL PUSH1 0x20 ADD ADD MLOAD PUSH1 0x20 ADD MLOAD DUP6 DUP4 DUP2 MLOAD DUP2 LT PUSH2 0x800 JUMPI PUSH2 0x7FF PUSH2 0x1A57 JUMP JUMPDEST JUMPDEST PUSH1 0x20 MUL PUSH1 0x20 ADD ADD MLOAD PUSH1 0x20 ADD MLOAD LT ISZERO PUSH2 0x82D JUMPI DUP12 DUP1 PUSH2 0x81D SWAP1 PUSH2 0x1AB5 JUMP JUMPDEST SWAP13 POP POP DUP11 DUP13 GT ISZERO PUSH2 0x82C JUMPI DUP12 SWAP11 POP JUMPDEST JUMPDEST DUP1 DUP1 PUSH2 0x838 SWAP1 PUSH2 0x1AB5 JUMP JUMPDEST SWAP2 POP POP PUSH2 0x7C6 JUMP JUMPDEST POP PUSH1 0x40 MLOAD DUP1 PUSH1 0x60 ADD PUSH1 0x40 MSTORE DUP1 DUP6 DUP4 DUP2 MLOAD DUP2 LT PUSH2 0x85F JUMPI PUSH2 0x85E PUSH2 0x1A57 JUMP JUMPDEST JUMPDEST PUSH1 0x20 MUL PUSH1 0x20 ADD ADD MLOAD PUSH1 0x0 ADD MLOAD PUSH20 0xFFFFFFFFFFFFFFFFFFFFFFFFFFFFFFFFFFFFFFFF AND DUP2 MSTORE PUSH1 0x20 ADD DUP6 DUP4 DUP2 MLOAD DUP2 LT PUSH2 0x899 JUMPI PUSH2 0x898 PUSH2 0x1A57 JUMP JUMPDEST JUMPDEST PUSH1 0x20 MUL PUSH1 0x20 ADD ADD MLOAD PUSH1 0x20 ADD MLOAD DUP2 MSTORE PUSH1 0x20 ADD DUP13 DUP2 MSTORE POP DUP4 DUP3 DUP2 MLOAD DUP2 LT PUSH2 0x8C1 JUMPI PUSH2 0x8C0 PUSH2 0x1A57 JUMP JUMPDEST JUMPDEST PUSH1 0x20 MUL PUSH1 0x20 ADD ADD DUP2 SWAP1 MSTORE POP DUP1 DUP1 PUSH2 0x8D7 SWAP1 PUSH2 0x1AB5 JUMP JUMPDEST SWAP2 POP POP PUSH2 0x7B7 JUMP JUMPDEST POP PUSH1 0x0 SWAP5 POP PUSH1 0x0 PUSH1 0x1 SWAP1 POP JUMPDEST DUP10 DUP2 GT PUSH2 0xA1D JUMPI PUSH1 0x0 JUMPDEST DUP6 DUP2 LT ISZERO PUSH2 0xA09 JUMPI DUP2 DUP5 DUP3 DUP2 MLOAD DUP2 LT PUSH2 0x911 JUMPI PUSH2 0x910 PUSH2 0x1A57 JUMP JUMPDEST JUMPDEST PUSH1 0x20 MUL PUSH1 0x20 ADD ADD MLOAD PUSH1 0x40 ADD MLOAD SUB PUSH2 0x9F6 JUMPI PUSH1 0x40 MLOAD DUP1 PUSH1 0xE0 ADD PUSH1 0x40 MSTORE DUP1 DUP6 DUP4 DUP2 MLOAD DUP2 LT PUSH2 0x940 JUMPI PUSH2 0x93F PUSH2 0x1A57 JUMP JUMPDEST JUMPDEST PUSH1 0x20 MUL PUSH1 0x20 ADD ADD MLOAD PUSH1 0x0 ADD MLOAD PUSH20 0xFFFFFFFFFFFFFFFFFFFFFFFFFFFFFFFFFFFFFFFF AND DUP2 MSTORE PUSH1 0x20 ADD DUP6 DUP4 DUP2 MLOAD DUP2 LT PUSH2 0x97A JUMPI PUSH2 0x979 PUSH2 0x1A57 JUMP JUMPDEST JUMPDEST PUSH1 0x20 MUL PUSH1 0x20 ADD ADD MLOAD PUSH1 0x20 ADD MLOAD DUP2 MSTORE PUSH1 0x20 ADD DUP6 DUP4 DUP2 MLOAD DUP2 LT PUSH2 0x99E JUMPI PUSH2 0x99D PUSH2 0x1A57 JUMP JUMPDEST JUMPDEST PUSH1 0x20 MUL PUSH1 0x20 ADD ADD MLOAD PUSH1 0x40 ADD MLOAD DUP2 MSTORE PUSH1 0x20 ADD PUSH1 0x0 DUP2 MSTORE PUSH1 0x20 ADD PUSH1 0x0 DUP2 MSTORE PUSH1 0x20 ADD PUSH1 0x0 DUP2 MSTORE PUSH1 0x20 ADD PUSH1 0x0 DUP2 MSTORE POP DUP4 DUP9 DUP2 MLOAD DUP2 LT PUSH2 0x9DC JUMPI PUSH2 0x9DB PUSH2 0x1A57 JUMP JUMPDEST JUMPDEST PUSH1 0x20 MUL PUSH1 0x20 ADD ADD DUP2 SWAP1 MSTORE POP DUP7 DUP1 PUSH2 0x9F2 SWAP1 PUSH2 0x1AB5 JUMP JUMPDEST SWAP8 POP POP JUMPDEST DUP1 DUP1 PUSH2 0xA01 SWAP1 PUSH2 0x1AB5 JUMP JUMPDEST SWAP2 POP POP PUSH2 0x8F5 JUMP JUMPDEST POP DUP1 DUP1 PUSH2 0xA15 SWAP1 PUSH2 0x1AB5 JUMP JUMPDEST SWAP2 POP POP PUSH2 0x8EB JUMP JUMPDEST POP PUSH1 0x64 PUSH1 0x1 SLOAD DUP10 PUSH1 0x0 SLOAD PUSH2 0xA31 SWAP2 SWAP1 PUSH2 0x1AFD JUMP JUMPDEST PUSH2 0xA3B SWAP2 SWAP1 PUSH2 0x1B31 JUMP JUMPDEST PUSH2 0xA45 SWAP2 SWAP1 PUSH2 0x1BBA JUMP JUMPDEST SWAP6 POP DUP6 DUP9 PUSH2 0xA53 SWAP2 SWAP1 PUSH2 0x1BEB JUMP JUMPDEST SWAP8 POP DUP6 DUP2 PUSH1 0x0 DUP2 MLOAD DUP2 LT PUSH2 0xA6A JUMPI PUSH2 0xA69 PUSH2 0x1A57 JUMP JUMPDEST JUMPDEST PUSH1 0x20 MUL PUSH1 0x20 ADD ADD MLOAD PUSH1 0x60 ADD DUP2 DUP2 MSTORE POP POP DUP6 DUP2 PUSH1 0x0 DUP2 MLOAD DUP2 LT PUSH2 0xA8F JUMPI PUSH2 0xA8E PUSH2 0x1A57 JUMP JUMPDEST JUMPDEST PUSH1 0x20 MUL PUSH1 0x20 ADD ADD MLOAD PUSH1 0x80 ADD DUP2 DUP2 MSTORE POP POP DUP6 DUP2 PUSH1 0x0 DUP2 MLOAD DUP2 LT PUSH2 0xAB4 JUMPI PUSH2 0xAB3 PUSH2 0x1A57 JUMP JUMPDEST JUMPDEST PUSH1 0x20 MUL PUSH1 0x20 ADD ADD MLOAD PUSH1 0xA0 ADD DUP2 DUP2 MSTORE POP POP DUP6 DUP2 PUSH1 0x0 DUP2 MLOAD DUP2 LT PUSH2 0xAD9 JUMPI PUSH2 0xAD8 PUSH2 0x1A57 JUMP JUMPDEST JUMPDEST PUSH1 0x20 MUL PUSH1 0x20 ADD ADD MLOAD PUSH1 0xC0 ADD DUP2 DUP2 MSTORE POP POP PUSH1 0x0 PUSH1 0x1 SWAP1 POP JUMPDEST DUP5 DUP2 LT ISZERO PUSH2 0xF23 JUMPI PUSH1 0x64 PUSH1 0x1 SLOAD DUP11 PUSH1 0x0 SLOAD PUSH2 0xB0B SWAP2 SWAP1 PUSH2 0x1AFD JUMP JUMPDEST PUSH2 0xB15 SWAP2 SWAP1 PUSH2 0x1B31 JUMP JUMPDEST PUSH2 0xB1F SWAP2 SWAP1 PUSH2 0x1BBA JUMP JUMPDEST SWAP7 POP DUP7 DUP3 DUP3 DUP2 MLOAD DUP2 LT PUSH2 0xB35 JUMPI PUSH2 0xB34 PUSH2 0x1A57 JUMP JUMPDEST JUMPDEST PUSH1 0x20 MUL PUSH1 0x20 ADD ADD MLOAD PUSH1 0x60 ADD DUP2 DUP2 MSTORE POP POP DUP7 DUP10 PUSH2 0xB51 SWAP2 SWAP1 PUSH2 0x1BEB JUMP JUMPDEST SWAP9 POP DUP9 DUP3 DUP3 DUP2 MLOAD DUP2 LT PUSH2 0xB67 JUMPI PUSH2 0xB66 PUSH2 0x1A57 JUMP JUMPDEST JUMPDEST PUSH1 0x20 MUL PUSH1 0x20 ADD ADD MLOAD PUSH1 0x80 ADD DUP2 DUP2 MSTORE POP POP PUSH1 0x1 DUP6 PUSH2 0xB84 SWAP2 SWAP1 PUSH2 0x1AFD JUMP JUMPDEST DUP2 EQ PUSH2 0xD6A JUMPI DUP2 PUSH1 0x1 DUP3 PUSH2 0xB98 SWAP2 SWAP1 PUSH2 0x1AFD JUMP JUMPDEST DUP2 MLOAD DUP2 LT PUSH2 0xBA9 JUMPI PUSH2 0xBA8 PUSH2 0x1A57 JUMP JUMPDEST JUMPDEST PUSH1 0x20 MUL PUSH1 0x20 ADD ADD MLOAD PUSH1 0x40 ADD MLOAD DUP3 DUP3 DUP2 MLOAD DUP2 LT PUSH2 0xBC8 JUMPI PUSH2 0xBC7 PUSH2 0x1A57 JUMP JUMPDEST JUMPDEST PUSH1 0x20 MUL PUSH1 0x20 ADD ADD MLOAD PUSH1 0x40 ADD MLOAD SUB PUSH2 0xC37 JUMPI DUP7 DUP3 PUSH1 0x1 DUP4 PUSH2 0xBE8 SWAP2 SWAP1 PUSH2 0x1AFD JUMP JUMPDEST DUP2 MLOAD DUP2 LT PUSH2 0xBF9 JUMPI PUSH2 0xBF8 PUSH2 0x1A57 JUMP JUMPDEST JUMPDEST PUSH1 0x20 MUL PUSH1 0x20 ADD ADD MLOAD PUSH1 0xA0 ADD MLOAD PUSH2 0xC0F SWAP2 SWAP1 PUSH2 0x1BEB JUMP JUMPDEST DUP3 DUP3 DUP2 MLOAD DUP2 LT PUSH2 0xC22 JUMPI PUSH2 0xC21 PUSH2 0x1A57 JUMP JUMPDEST JUMPDEST PUSH1 0x20 MUL PUSH1 0x20 ADD ADD MLOAD PUSH1 0xA0 ADD DUP2 DUP2 MSTORE POP POP PUSH2 0xD65 JUMP JUMPDEST DUP7 DUP3 DUP3 DUP2 MLOAD DUP2 LT PUSH2 0xC4B JUMPI PUSH2 0xC4A PUSH2 0x1A57 JUMP JUMPDEST JUMPDEST PUSH1 0x20 MUL PUSH1 0x20 ADD ADD MLOAD PUSH1 0xA0 ADD DUP2 DUP2 MSTORE POP POP DUP7 DUP3 DUP3 DUP2 MLOAD DUP2 LT PUSH2 0xC6F JUMPI PUSH2 0xC6E PUSH2 0x1A57 JUMP JUMPDEST JUMPDEST PUSH1 0x20 MUL PUSH1 0x20 ADD ADD MLOAD PUSH1 0xC0 ADD DUP2 DUP2 MSTORE POP POP DUP2 PUSH1 0x1 DUP3 PUSH2 0xC8D SWAP2 SWAP1 PUSH2 0x1AFD JUMP JUMPDEST DUP2 MLOAD DUP2 LT PUSH2 0xC9E JUMPI PUSH2 0xC9D PUSH2 0x1A57 JUMP JUMPDEST JUMPDEST PUSH1 0x20 MUL PUSH1 0x20 ADD ADD MLOAD PUSH1 0x40 ADD MLOAD DUP3 DUP3 DUP2 MLOAD DUP2 LT PUSH2 0xCBD JUMPI PUSH2 0xCBC PUSH2 0x1A57 JUMP JUMPDEST JUMPDEST PUSH1 0x20 MUL PUSH1 0x20 ADD ADD MLOAD PUSH1 0x40 ADD MLOAD PUSH2 0xCD3 SWAP2 SWAP1 PUSH2 0x1AFD JUMP JUMPDEST SWAP8 POP PUSH1 0x0 JUMPDEST DUP9 DUP2 LT ISZERO PUSH2 0xD63 JUMPI DUP9 DUP4 PUSH1 0x1 DUP5 PUSH2 0xCEF SWAP2 SWAP1 PUSH2 0x1AFD JUMP JUMPDEST DUP2 MLOAD DUP2 LT PUSH2 0xD00 JUMPI PUSH2 0xCFF PUSH2 0x1A57 JUMP JUMPDEST JUMPDEST PUSH1 0x20 MUL PUSH1 0x20 ADD ADD MLOAD PUSH1 0xA0 ADD MLOAD PUSH2 0xD16 SWAP2 SWAP1 PUSH2 0x1BBA JUMP JUMPDEST DUP4 PUSH1 0x1 DUP4 PUSH2 0xD24 SWAP2 SWAP1 PUSH2 0x1BEB JUMP JUMPDEST DUP5 PUSH2 0xD2F SWAP2 SWAP1 PUSH2 0x1AFD JUMP JUMPDEST DUP2 MLOAD DUP2 LT PUSH2 0xD40 JUMPI PUSH2 0xD3F PUSH2 0x1A57 JUMP JUMPDEST JUMPDEST PUSH1 0x20 MUL PUSH1 0x20 ADD ADD MLOAD PUSH1 0xC0 ADD DUP2 DUP2 MSTORE POP POP DUP1 DUP1 PUSH2 0xD5B SWAP1 PUSH2 0x1AB5 JUMP JUMPDEST SWAP2 POP POP PUSH2 0xCD8 JUMP JUMPDEST POP JUMPDEST PUSH2 0xF10 JUMP JUMPDEST DUP2 PUSH1 0x1 DUP3 PUSH2 0xD78 SWAP2 SWAP1 PUSH2 0x1AFD JUMP JUMPDEST DUP2 MLOAD DUP2 LT PUSH2 0xD89 JUMPI PUSH2 0xD88 PUSH2 0x1A57 JUMP JUMPDEST JUMPDEST PUSH1 0x20 MUL PUSH1 0x20 ADD ADD MLOAD PUSH1 0x40 ADD MLOAD DUP3 DUP3 DUP2 MLOAD DUP2 LT PUSH2 0xDA8 JUMPI PUSH2 0xDA7 PUSH2 0x1A57 JUMP JUMPDEST JUMPDEST PUSH1 0x20 MUL PUSH1 0x20 ADD ADD MLOAD PUSH1 0x40 ADD MLOAD SUB PUSH2 0xEC6 JUMPI DUP7 DUP3 PUSH1 0x1 DUP4 PUSH2 0xDC8 SWAP2 SWAP1 PUSH2 0x1AFD JUMP JUMPDEST DUP2 MLOAD DUP2 LT PUSH2 0xDD9 JUMPI PUSH2 0xDD8 PUSH2 0x1A57 JUMP JUMPDEST JUMPDEST PUSH1 0x20 MUL PUSH1 0x20 ADD ADD MLOAD PUSH1 0xA0 ADD MLOAD PUSH2 0xDEF SWAP2 SWAP1 PUSH2 0x1BEB JUMP JUMPDEST DUP3 DUP3 DUP2 MLOAD DUP2 LT PUSH2 0xE02 JUMPI PUSH2 0xE01 PUSH2 0x1A57 JUMP JUMPDEST JUMPDEST PUSH1 0x20 MUL PUSH1 0x20 ADD ADD MLOAD PUSH1 0xA0 ADD DUP2 DUP2 MSTORE POP POP DUP2 DUP2 DUP2 MLOAD DUP2 LT PUSH2 0xE25 JUMPI PUSH2 0xE24 PUSH2 0x1A57 JUMP JUMPDEST JUMPDEST PUSH1 0x20 MUL PUSH1 0x20 ADD ADD MLOAD PUSH1 0x40 ADD MLOAD PUSH1 0x1 DUP7 PUSH2 0xE3E SWAP2 SWAP1 PUSH2 0x1BEB JUMP JUMPDEST PUSH2 0xE48 SWAP2 SWAP1 PUSH2 0x1AFD JUMP JUMPDEST SWAP8 POP PUSH1 0x0 JUMPDEST DUP9 DUP2 LT ISZERO PUSH2 0xEC0 JUMPI DUP9 DUP4 DUP4 DUP2 MLOAD DUP2 LT PUSH2 0xE69 JUMPI PUSH2 0xE68 PUSH2 0x1A57 JUMP JUMPDEST JUMPDEST PUSH1 0x20 MUL PUSH1 0x20 ADD ADD MLOAD PUSH1 0xA0 ADD MLOAD PUSH2 0xE7F SWAP2 SWAP1 PUSH2 0x1BBA JUMP JUMPDEST DUP4 DUP3 DUP5 PUSH2 0xE8C SWAP2 SWAP1 PUSH2 0x1AFD JUMP JUMPDEST DUP2 MLOAD DUP2 LT PUSH2 0xE9D JUMPI PUSH2 0xE9C PUSH2 0x1A57 JUMP JUMPDEST JUMPDEST PUSH1 0x20 MUL PUSH1 0x20 ADD ADD MLOAD PUSH1 0xC0 ADD DUP2 DUP2 MSTORE POP POP DUP1 DUP1 PUSH2 0xEB8 SWAP1 PUSH2 0x1AB5 JUMP JUMPDEST SWAP2 POP POP PUSH2 0xE4D JUMP JUMPDEST POP PUSH2 0xF0F JUMP JUMPDEST DUP7 DUP3 DUP3 DUP2 MLOAD DUP2 LT PUSH2 0xEDA JUMPI PUSH2 0xED9 PUSH2 0x1A57 JUMP JUMPDEST JUMPDEST PUSH1 0x20 MUL PUSH1 0x20 ADD ADD MLOAD PUSH1 0xA0 ADD DUP2 DUP2 MSTORE POP POP DUP7 DUP3 DUP3 DUP2 MLOAD DUP2 LT PUSH2 0xEFE JUMPI PUSH2 0xEFD PUSH2 0x1A57 JUMP JUMPDEST JUMPDEST PUSH1 0x20 MUL PUSH1 0x20 ADD ADD MLOAD PUSH1 0xC0 ADD DUP2 DUP2 MSTORE POP POP JUMPDEST JUMPDEST DUP1 DUP1 PUSH2 0xF1B SWAP1 PUSH2 0x1AB5 JUMP JUMPDEST SWAP2 POP POP PUSH2 0xAF0 JUMP JUMPDEST POP DUP1 SWAP11 POP POP POP POP POP POP POP POP POP POP POP SWAP2 SWAP1 POP JUMP JUMPDEST PUSH1 0x0 PUSH2 0xF41 DUP3 PUSH2 0x526 JUMP JUMPDEST SWAP1 POP PUSH1 0x0 PUSH1 0x3 PUSH1 0x0 DUP5 DUP2 MSTORE PUSH1 0x20 ADD SWAP1 DUP2 MSTORE PUSH1 0x20 ADD PUSH1 0x0 KECCAK256 PUSH1 0x40 MLOAD DUP1 PUSH1 0xA0 ADD PUSH1 0x40 MSTORE DUP1 DUP5 PUSH1 0x0 DUP2 MLOAD DUP2 LT PUSH2 0xF77 JUMPI PUSH2 0xF76 PUSH2 0x1A57 JUMP JUMPDEST JUMPDEST PUSH1 0x20 MUL PUSH1 0x20 ADD ADD MLOAD PUSH1 0x0 ADD MLOAD PUSH20 0xFFFFFFFFFFFFFFFFFFFFFFFFFFFFFFFFFFFFFFFF AND DUP2 MSTORE PUSH1 0x20 ADD PUSH1 0x1 DUP2 MSTORE PUSH1 0x20 ADD DUP5 PUSH1 0x0 DUP2 MLOAD DUP2 LT PUSH2 0xFB9 JUMPI PUSH2 0xFB8 PUSH2 0x1A57 JUMP JUMPDEST JUMPDEST PUSH1 0x20 MUL PUSH1 0x20 ADD ADD MLOAD PUSH1 0x20 ADD MLOAD DUP2 MSTORE PUSH1 0x20 ADD DUP5 PUSH1 0x0 DUP2 MLOAD DUP2 LT PUSH2 0xFDE JUMPI PUSH2 0xFDD PUSH2 0x1A57 JUMP JUMPDEST JUMPDEST PUSH1 0x20 MUL PUSH1 0x20 ADD ADD MLOAD PUSH1 0x40 ADD MLOAD DUP2 MSTORE PUSH1 0x20 ADD DUP5 PUSH1 0x0 DUP2 MLOAD DUP2 LT PUSH2 0x1003 JUMPI PUSH2 0x1002 PUSH2 0x1A57 JUMP JUMPDEST JUMPDEST PUSH1 0x20 MUL PUSH1 0x20 ADD ADD MLOAD PUSH1 0xC0 ADD MLOAD DUP2 MSTORE POP SWAP1 DUP1 PUSH1 0x1 DUP2 SLOAD ADD DUP1 DUP3 SSTORE DUP1 SWAP2 POP POP PUSH1 0x1 SWAP1 SUB SWAP1 PUSH1 0x0 MSTORE PUSH1 0x20 PUSH1 0x0 KECCAK256 SWAP1 PUSH1 0x5 MUL ADD PUSH1 0x0 SWAP1 SWAP2 SWAP1 SWAP2 SWAP1 SWAP2 POP PUSH1 0x0 DUP3 ADD MLOAD DUP2 PUSH1 0x0 ADD PUSH1 0x0 PUSH2 0x100 EXP DUP2 SLOAD DUP2 PUSH20 0xFFFFFFFFFFFFFFFFFFFFFFFFFFFFFFFFFFFFFFFF MUL NOT AND SWAP1 DUP4 PUSH20 0xFFFFFFFFFFFFFFFFFFFFFFFFFFFFFFFFFFFFFFFF AND MUL OR SWAP1 SSTORE POP PUSH1 0x20 DUP3 ADD MLOAD DUP2 PUSH1 0x1 ADD SSTORE PUSH1 0x40 DUP3 ADD MLOAD DUP2 PUSH1 0x2 ADD SSTORE PUSH1 0x60 DUP3 ADD MLOAD DUP2 PUSH1 0x3 ADD SSTORE PUSH1 0x80 DUP3 ADD MLOAD DUP2 PUSH1 0x4 ADD SSTORE POP POP PUSH1 0x0 PUSH1 0x1 SWAP1 POP JUMPDEST PUSH1 0x4 PUSH1 0x0 DUP6 DUP2 MSTORE PUSH1 0x20 ADD SWAP1 DUP2 MSTORE PUSH1 0x20 ADD PUSH1 0x0 KECCAK256 SLOAD DUP2 LT ISZERO PUSH2 0x138A JUMPI DUP3 PUSH1 0x1 DUP3 PUSH2 0x10DC SWAP2 SWAP1 PUSH2 0x1AFD JUMP JUMPDEST DUP2 MLOAD DUP2 LT PUSH2 0x10ED JUMPI PUSH2 0x10EC PUSH2 0x1A57 JUMP JUMPDEST JUMPDEST PUSH1 0x20 MUL PUSH1 0x20 ADD ADD MLOAD PUSH1 0x0 ADD MLOAD PUSH20 0xFFFFFFFFFFFFFFFFFFFFFFFFFFFFFFFFFFFFFFFF AND DUP4 DUP3 DUP2 MLOAD DUP2 LT PUSH2 0x1122 JUMPI PUSH2 0x1121 PUSH2 0x1A57 JUMP JUMPDEST JUMPDEST PUSH1 0x20 MUL PUSH1 0x20 ADD ADD MLOAD PUSH1 0x0 ADD MLOAD PUSH20 0xFFFFFFFFFFFFFFFFFFFFFFFFFFFFFFFFFFFFFFFF AND SUB PUSH2 0x1205 JUMPI PUSH1 0x3 PUSH1 0x0 DUP6 DUP2 MSTORE PUSH1 0x20 ADD SWAP1 DUP2 MSTORE PUSH1 0x20 ADD PUSH1 0x0 KECCAK256 DUP3 DUP2 SLOAD DUP2 LT PUSH2 0x116E JUMPI PUSH2 0x116D PUSH2 0x1A57 JUMP JUMPDEST JUMPDEST SWAP1 PUSH1 0x0 MSTORE PUSH1 0x20 PUSH1 0x0 KECCAK256 SWAP1 PUSH1 0x5 MUL ADD PUSH1 0x1 ADD PUSH1 0x0 DUP2 SLOAD DUP1 SWAP3 SWAP2 SWAP1 PUSH2 0x1190 SWAP1 PUSH2 0x1AB5 JUMP JUMPDEST SWAP2 SWAP1 POP SSTORE POP DUP3 DUP2 DUP2 MLOAD DUP2 LT PUSH2 0x11A8 JUMPI PUSH2 0x11A7 PUSH2 0x1A57 JUMP JUMPDEST JUMPDEST PUSH1 0x20 MUL PUSH1 0x20 ADD ADD MLOAD PUSH1 0xC0 ADD MLOAD PUSH1 0x3 PUSH1 0x0 DUP7 DUP2 MSTORE PUSH1 0x20 ADD SWAP1 DUP2 MSTORE PUSH1 0x20 ADD PUSH1 0x0 KECCAK256 DUP4 DUP2 SLOAD DUP2 LT PUSH2 0x11D9 JUMPI PUSH2 0x11D8 PUSH2 0x1A57 JUMP JUMPDEST JUMPDEST SWAP1 PUSH1 0x0 MSTORE PUSH1 0x20 PUSH1 0x0 KECCAK256 SWAP1 PUSH1 0x5 MUL ADD PUSH1 0x4 ADD PUSH1 0x0 DUP3 DUP3 SLOAD PUSH2 0x11F9 SWAP2 SWAP1 PUSH2 0x1BEB JUMP JUMPDEST SWAP3 POP POP DUP2 SWAP1 SSTORE POP PUSH2 0x1377 JUMP JUMPDEST PUSH1 0x3 PUSH1 0x0 DUP6 DUP2 MSTORE PUSH1 0x20 ADD SWAP1 DUP2 MSTORE PUSH1 0x20 ADD PUSH1 0x0 KECCAK256 PUSH1 0x40 MLOAD DUP1 PUSH1 0xA0 ADD PUSH1 0x40 MSTORE DUP1 DUP6 DUP5 DUP2 MLOAD DUP2 LT PUSH2 0x1236 JUMPI PUSH2 0x1235 PUSH2 0x1A57 JUMP JUMPDEST JUMPDEST PUSH1 0x20 MUL PUSH1 0x20 ADD ADD MLOAD PUSH1 0x0 ADD MLOAD PUSH20 0xFFFFFFFFFFFFFFFFFFFFFFFFFFFFFFFFFFFFFFFF AND DUP2 MSTORE PUSH1 0x20 ADD PUSH1 0x1 DUP2 MSTORE PUSH1 0x20 ADD DUP6 DUP5 DUP2 MLOAD DUP2 LT PUSH2 0x1277 JUMPI PUSH2 0x1276 PUSH2 0x1A57 JUMP JUMPDEST JUMPDEST PUSH1 0x20 MUL PUSH1 0x20 ADD ADD MLOAD PUSH1 0x20 ADD MLOAD DUP2 MSTORE PUSH1 0x20 ADD DUP6 DUP5 DUP2 MLOAD DUP2 LT PUSH2 0x129B JUMPI PUSH2 0x129A PUSH2 0x1A57 JUMP JUMPDEST JUMPDEST PUSH1 0x20 MUL PUSH1 0x20 ADD ADD MLOAD PUSH1 0x40 ADD MLOAD DUP2 MSTORE PUSH1 0x20 ADD DUP6 DUP5 DUP2 MLOAD DUP2 LT PUSH2 0x12BF JUMPI PUSH2 0x12BE PUSH2 0x1A57 JUMP JUMPDEST JUMPDEST PUSH1 0x20 MUL PUSH1 0x20 ADD ADD MLOAD PUSH1 0xC0 ADD MLOAD DUP2 MSTORE POP SWAP1 DUP1 PUSH1 0x1 DUP2 SLOAD ADD DUP1 DUP3 SSTORE DUP1 SWAP2 POP POP PUSH1 0x1 SWAP1 SUB SWAP1 PUSH1 0x0 MSTORE PUSH1 0x20 PUSH1 0x0 KECCAK256 SWAP1 PUSH1 0x5 MUL ADD PUSH1 0x0 SWAP1 SWAP2 SWAP1 SWAP2 SWAP1 SWAP2 POP PUSH1 0x0 DUP3 ADD MLOAD DUP2 PUSH1 0x0 ADD PUSH1 0x0 PUSH2 0x100 EXP DUP2 SLOAD DUP2 PUSH20 0xFFFFFFFFFFFFFFFFFFFFFFFFFFFFFFFFFFFFFFFF MUL NOT AND SWAP1 DUP4 PUSH20 0xFFFFFFFFFFFFFFFFFFFFFFFFFFFFFFFFFFFFFFFF AND MUL OR SWAP1 SSTORE POP PUSH1 0x20 DUP3 ADD MLOAD DUP2 PUSH1 0x1 ADD SSTORE PUSH1 0x40 DUP3 ADD MLOAD DUP2 PUSH1 0x2 ADD SSTORE PUSH1 0x60 DUP3 ADD MLOAD DUP2 PUSH1 0x3 ADD SSTORE PUSH1 0x80 DUP3 ADD MLOAD DUP2 PUSH1 0x4 ADD SSTORE POP POP DUP2 DUP1 PUSH2 0x1373 SWAP1 PUSH2 0x1AB5 JUMP JUMPDEST SWAP3 POP POP JUMPDEST DUP1 DUP1 PUSH2 0x1382 SWAP1 PUSH2 0x1AB5 JUMP JUMPDEST SWAP2 POP POP PUSH2 0x10B3 JUMP JUMPDEST POP POP POP POP JUMP JUMPDEST PUSH1 0x40 MLOAD DUP1 PUSH1 0x40 ADD PUSH1 0x40 MSTORE DUP1 PUSH1 0x0 PUSH20 0xFFFFFFFFFFFFFFFFFFFFFFFFFFFFFFFFFFFFFFFF AND DUP2 MSTORE PUSH1 0x20 ADD PUSH1 0x0 DUP2 MSTORE POP SWAP1 JUMP JUMPDEST PUSH1 0x40 MLOAD DUP1 PUSH1 0x60 ADD PUSH1 0x40 MSTORE DUP1 PUSH1 0x0 PUSH20 0xFFFFFFFFFFFFFFFFFFFFFFFFFFFFFFFFFFFFFFFF AND DUP2 MSTORE PUSH1 0x20 ADD PUSH1 0x0 DUP2 MSTORE PUSH1 0x20 ADD PUSH1 0x0 DUP2 MSTORE POP SWAP1 JUMP JUMPDEST PUSH1 0x40 MLOAD DUP1 PUSH1 0xE0 ADD PUSH1 0x40 MSTORE DUP1 PUSH1 0x0 PUSH20 0xFFFFFFFFFFFFFFFFFFFFFFFFFFFFFFFFFFFFFFFF AND DUP2 MSTORE PUSH1 0x20 ADD PUSH1 0x0 DUP2 MSTORE PUSH1 0x20 ADD PUSH1 0x0 DUP2 MSTORE PUSH1 0x20 ADD PUSH1 0x0 DUP2 MSTORE PUSH1 0x20 ADD PUSH1 0x0 DUP2 MSTORE PUSH1 0x20 ADD PUSH1 0x0 DUP2 MSTORE PUSH1 0x20 ADD PUSH1 0x0 DUP2 MSTORE POP SWAP1 JUMP JUMPDEST PUSH1 0x0 DUP1 REVERT JUMPDEST PUSH1 0x0 DUP2 SWAP1 POP SWAP2 SWAP1 POP JUMP JUMPDEST PUSH2 0x1462 DUP2 PUSH2 0x144F JUMP JUMPDEST DUP2 EQ PUSH2 0x146D JUMPI PUSH1 0x0 DUP1 REVERT JUMPDEST POP JUMP JUMPDEST PUSH1 0x0 DUP2 CALLDATALOAD SWAP1 POP PUSH2 0x147F DUP2 PUSH2 0x1459 JUMP JUMPDEST SWAP3 SWAP2 POP POP JUMP JUMPDEST PUSH1 0x0 PUSH1 0x20 DUP3 DUP5 SUB SLT ISZERO PUSH2 0x149B JUMPI PUSH2 0x149A PUSH2 0x144A JUMP JUMPDEST JUMPDEST PUSH1 0x0 PUSH2 0x14A9 DUP5 DUP3 DUP6 ADD PUSH2 0x1470 JUMP JUMPDEST SWAP2 POP POP SWAP3 SWAP2 POP POP JUMP JUMPDEST PUSH1 0x0 DUP2 MLOAD SWAP1 POP SWAP2 SWAP1 POP JUMP JUMPDEST PUSH1 0x0 DUP3 DUP3 MSTORE PUSH1 0x20 DUP3 ADD SWAP1 POP SWAP3 SWAP2 POP POP JUMP JUMPDEST PUSH1 0x0 DUP2 SWAP1 POP PUSH1 0x20 DUP3 ADD SWAP1 POP SWAP2 SWAP1 POP JUMP JUMPDEST PUSH1 0x0 PUSH20 0xFFFFFFFFFFFFFFFFFFFFFFFFFFFFFFFFFFFFFFFF DUP3 AND SWAP1 POP SWAP2 SWAP1 POP JUMP JUMPDEST PUSH1 0x0 PUSH2 0x1509 DUP3 PUSH2 0x14DE JUMP JUMPDEST SWAP1 POP SWAP2 SWAP1 POP JUMP JUMPDEST PUSH2 0x1519 DUP2 PUSH2 0x14FE JUMP JUMPDEST DUP3 MSTORE POP POP JUMP JUMPDEST PUSH2 0x1528 DUP2 PUSH2 0x144F JUMP JUMPDEST DUP3 MSTORE POP POP JUMP JUMPDEST PUSH1 0xA0 DUP3 ADD PUSH1 0x0 DUP3 ADD MLOAD PUSH2 0x1544 PUSH1 0x0 DUP6 ADD DUP3 PUSH2 0x1510 JUMP JUMPDEST POP PUSH1 0x20 DUP3 ADD MLOAD PUSH2 0x1557 PUSH1 0x20 DUP6 ADD DUP3 PUSH2 0x151F JUMP JUMPDEST POP PUSH1 0x40 DUP3 ADD MLOAD PUSH2 0x156A PUSH1 0x40 DUP6 ADD DUP3 PUSH2 0x151F JUMP JUMPDEST POP PUSH1 0x60 DUP3 ADD MLOAD PUSH2 0x157D PUSH1 0x60 DUP6 ADD DUP3 PUSH2 0x151F JUMP JUMPDEST POP PUSH1 0x80 DUP3 ADD MLOAD PUSH2 0x1590 PUSH1 0x80 DUP6 ADD DUP3 PUSH2 0x151F JUMP JUMPDEST POP POP POP POP JUMP JUMPDEST PUSH1 0x0 PUSH2 0x15A2 DUP4 DUP4 PUSH2 0x152E JUMP JUMPDEST PUSH1 0xA0 DUP4 ADD SWAP1 POP SWAP3 SWAP2 POP POP JUMP JUMPDEST PUSH1 0x0 PUSH1 0x20 DUP3 ADD SWAP1 POP SWAP2 SWAP1 POP JUMP JUMPDEST PUSH1 0x0 PUSH2 0x15C6 DUP3 PUSH2 0x14B2 JUMP JUMPDEST PUSH2 0x15D0 DUP2 DUP6 PUSH2 0x14BD JUMP JUMPDEST SWAP4 POP PUSH2 0x15DB DUP4 PUSH2 0x14CE JUMP JUMPDEST DUP1 PUSH1 0x0 JUMPDEST DUP4 DUP2 LT ISZERO PUSH2 0x160C JUMPI DUP2 MLOAD PUSH2 0x15F3 DUP9 DUP3 PUSH2 0x1596 JUMP JUMPDEST SWAP8 POP PUSH2 0x15FE DUP4 PUSH2 0x15AE JUMP JUMPDEST SWAP3 POP POP PUSH1 0x1 DUP2 ADD SWAP1 POP PUSH2 0x15DF JUMP JUMPDEST POP DUP6 SWAP4 POP POP POP POP SWAP3 SWAP2 POP POP JUMP JUMPDEST PUSH1 0x0 PUSH1 0x20 DUP3 ADD SWAP1 POP DUP2 DUP2 SUB PUSH1 0x0 DUP4 ADD MSTORE PUSH2 0x1633 DUP2 DUP5 PUSH2 0x15BB JUMP JUMPDEST SWAP1 POP SWAP3 SWAP2 POP POP JUMP JUMPDEST PUSH2 0x1644 DUP2 PUSH2 0x14FE JUMP JUMPDEST DUP2 EQ PUSH2 0x164F JUMPI PUSH1 0x0 DUP1 REVERT JUMPDEST POP JUMP JUMPDEST PUSH1 0x0 DUP2 CALLDATALOAD SWAP1 POP PUSH2 0x1661 DUP2 PUSH2 0x163B JUMP JUMPDEST SWAP3 SWAP2 POP POP JUMP JUMPDEST PUSH1 0x0 DUP1 PUSH1 0x0 DUP1 PUSH1 0x80 DUP6 DUP8 SUB SLT ISZERO PUSH2 0x1681 JUMPI PUSH2 0x1680 PUSH2 0x144A JUMP JUMPDEST JUMPDEST PUSH1 0x0 PUSH2 0x168F DUP8 DUP3 DUP9 ADD PUSH2 0x1470 JUMP JUMPDEST SWAP5 POP POP PUSH1 0x20 PUSH2 0x16A0 DUP8 DUP3 DUP9 ADD PUSH2 0x1652 JUMP JUMPDEST SWAP4 POP POP PUSH1 0x40 PUSH2 0x16B1 DUP8 DUP3 DUP9 ADD PUSH2 0x1470 JUMP JUMPDEST SWAP3 POP POP PUSH1 0x60 PUSH2 0x16C2 DUP8 DUP3 DUP9 ADD PUSH2 0x1470 JUMP JUMPDEST SWAP2 POP POP SWAP3 SWAP6 SWAP2 SWAP5 POP SWAP3 POP JUMP JUMPDEST PUSH1 0x0 DUP1 PUSH1 0x40 DUP4 DUP6 SUB SLT ISZERO PUSH2 0x16E5 JUMPI PUSH2 0x16E4 PUSH2 0x144A JUMP JUMPDEST JUMPDEST PUSH1 0x0 PUSH2 0x16F3 DUP6 DUP3 DUP7 ADD PUSH2 0x1470 JUMP JUMPDEST SWAP3 POP POP PUSH1 0x20 PUSH2 0x1704 DUP6 DUP3 DUP7 ADD PUSH2 0x1470 JUMP JUMPDEST SWAP2 POP POP SWAP3 POP SWAP3 SWAP1 POP JUMP JUMPDEST PUSH2 0x1717 DUP2 PUSH2 0x14FE JUMP JUMPDEST DUP3 MSTORE POP POP JUMP JUMPDEST PUSH2 0x1726 DUP2 PUSH2 0x144F JUMP JUMPDEST DUP3 MSTORE POP POP JUMP JUMPDEST PUSH1 0x0 PUSH1 0xA0 DUP3 ADD SWAP1 POP PUSH2 0x1741 PUSH1 0x0 DUP4 ADD DUP9 PUSH2 0x170E JUMP JUMPDEST PUSH2 0x174E PUSH1 0x20 DUP4 ADD DUP8 PUSH2 0x171D JUMP JUMPDEST PUSH2 0x175B PUSH1 0x40 DUP4 ADD DUP7 PUSH2 0x171D JUMP JUMPDEST PUSH2 0x1768 PUSH1 0x60 DUP4 ADD DUP6 PUSH2 0x171D JUMP JUMPDEST PUSH2 0x1775 PUSH1 0x80 DUP4 ADD DUP5 PUSH2 0x171D JUMP JUMPDEST SWAP7 SWAP6 POP POP POP POP POP POP JUMP JUMPDEST PUSH1 0x0 PUSH1 0x60 DUP3 ADD SWAP1 POP PUSH2 0x1794 PUSH1 0x0 DUP4 ADD DUP7 PUSH2 0x170E JUMP JUMPDEST PUSH2 0x17A1 PUSH1 0x20 DUP4 ADD DUP6 PUSH2 0x171D JUMP JUMPDEST PUSH2 0x17AE PUSH1 0x40 DUP4 ADD DUP5 PUSH2 0x171D JUMP JUMPDEST SWAP5 SWAP4 POP POP POP POP JUMP JUMPDEST PUSH1 0x0 DUP2 MLOAD SWAP1 POP SWAP2 SWAP1 POP JUMP JUMPDEST PUSH1 0x0 DUP3 DUP3 MSTORE PUSH1 0x20 DUP3 ADD SWAP1 POP SWAP3 SWAP2 POP POP JUMP JUMPDEST PUSH1 0x0 DUP2 SWAP1 POP PUSH1 0x20 DUP3 ADD SWAP1 POP SWAP2 SWAP1 POP JUMP JUMPDEST PUSH1 0x60 DUP3 ADD PUSH1 0x0 DUP3 ADD MLOAD PUSH2 0x17F8 PUSH1 0x0 DUP6 ADD DUP3 PUSH2 0x1510 JUMP JUMPDEST POP PUSH1 0x20 DUP3 ADD MLOAD PUSH2 0x180B PUSH1 0x20 DUP6 ADD DUP3 PUSH2 0x151F JUMP JUMPDEST POP PUSH1 0x40 DUP3 ADD MLOAD PUSH2 0x181E PUSH1 0x40 DUP6 ADD DUP3 PUSH2 0x151F JUMP JUMPDEST POP POP POP POP JUMP JUMPDEST PUSH1 0x0 PUSH2 0x1830 DUP4 DUP4 PUSH2 0x17E2 JUMP JUMPDEST PUSH1 0x60 DUP4 ADD SWAP1 POP SWAP3 SWAP2 POP POP JUMP JUMPDEST PUSH1 0x0 PUSH1 0x20 DUP3 ADD SWAP1 POP SWAP2 SWAP1 POP JUMP JUMPDEST PUSH1 0x0 PUSH2 0x1854 DUP3 PUSH2 0x17B6 JUMP JUMPDEST PUSH2 0x185E DUP2 DUP6 PUSH2 0x17C1 JUMP JUMPDEST SWAP4 POP PUSH2 0x1869 DUP4 PUSH2 0x17D2 JUMP JUMPDEST DUP1 PUSH1 0x0 JUMPDEST DUP4 DUP2 LT ISZERO PUSH2 0x189A JUMPI DUP2 MLOAD PUSH2 0x1881 DUP9 DUP3 PUSH2 0x1824 JUMP JUMPDEST SWAP8 POP PUSH2 0x188C DUP4 PUSH2 0x183C JUMP JUMPDEST SWAP3 POP POP PUSH1 0x1 DUP2 ADD SWAP1 POP PUSH2 0x186D JUMP JUMPDEST POP DUP6 SWAP4 POP POP POP POP SWAP3 SWAP2 POP POP JUMP JUMPDEST PUSH1 0x0 PUSH1 0x20 DUP3 ADD SWAP1 POP DUP2 DUP2 SUB PUSH1 0x0 DUP4 ADD MSTORE PUSH2 0x18C1 DUP2 DUP5 PUSH2 0x1849 JUMP JUMPDEST SWAP1 POP SWAP3 SWAP2 POP POP JUMP JUMPDEST PUSH1 0x0 DUP2 MLOAD SWAP1 POP SWAP2 SWAP1 POP JUMP JUMPDEST PUSH1 0x0 DUP3 DUP3 MSTORE PUSH1 0x20 DUP3 ADD SWAP1 POP SWAP3 SWAP2 POP POP JUMP JUMPDEST PUSH1 0x0 DUP2 SWAP1 POP PUSH1 0x20 DUP3 ADD SWAP1 POP SWAP2 SWAP1 POP JUMP JUMPDEST PUSH1 0xE0 DUP3 ADD PUSH1 0x0 DUP3 ADD MLOAD PUSH2 0x190B PUSH1 0x0 DUP6 ADD DUP3 PUSH2 0x1510 JUMP JUMPDEST POP PUSH1 0x20 DUP3 ADD MLOAD PUSH2 0x191E PUSH1 0x20 DUP6 ADD DUP3 PUSH2 0x151F JUMP JUMPDEST POP PUSH1 0x40 DUP3 ADD MLOAD PUSH2 0x1931 PUSH1 0x40 DUP6 ADD DUP3 PUSH2 0x151F JUMP JUMPDEST POP PUSH1 0x60 DUP3 ADD MLOAD PUSH2 0x1944 PUSH1 0x60 DUP6 ADD DUP3 PUSH2 0x151F JUMP JUMPDEST POP PUSH1 0x80 DUP3 ADD MLOAD PUSH2 0x1957 PUSH1 0x80 DUP6 ADD DUP3 PUSH2 0x151F JUMP JUMPDEST POP PUSH1 0xA0 DUP3 ADD MLOAD PUSH2 0x196A PUSH1 0xA0 DUP6 ADD DUP3 PUSH2 0x151F JUMP JUMPDEST POP PUSH1 0xC0 DUP3 ADD MLOAD PUSH2 0x197D PUSH1 0xC0 DUP6 ADD DUP3 PUSH2 0x151F JUMP JUMPDEST POP POP POP POP JUMP JUMPDEST PUSH1 0x0 PUSH2 0x198F DUP4 DUP4 PUSH2 0x18F5 JUMP JUMPDEST PUSH1 0xE0 DUP4 ADD SWAP1 POP SWAP3 SWAP2 POP POP JUMP JUMPDEST PUSH1 0x0 PUSH1 0x20 DUP3 ADD SWAP1 POP SWAP2 SWAP1 POP JUMP JUMPDEST PUSH1 0x0 PUSH2 0x19B3 DUP3 PUSH2 0x18C9 JUMP JUMPDEST PUSH2 0x19BD DUP2 DUP6 PUSH2 0x18D4 JUMP JUMPDEST SWAP4 POP PUSH2 0x19C8 DUP4 PUSH2 0x18E5 JUMP JUMPDEST DUP1 PUSH1 0x0 JUMPDEST DUP4 DUP2 LT ISZERO PUSH2 0x19F9 JUMPI DUP2 MLOAD PUSH2 0x19E0 DUP9 DUP3 PUSH2 0x1983 JUMP JUMPDEST SWAP8 POP PUSH2 0x19EB DUP4 PUSH2 0x199B JUMP JUMPDEST SWAP3 POP POP PUSH1 0x1 DUP2 ADD SWAP1 POP PUSH2 0x19CC JUMP JUMPDEST POP DUP6 SWAP4 POP POP POP POP SWAP3 SWAP2 POP POP JUMP JUMPDEST PUSH1 0x0 PUSH1 0x20 DUP3 ADD SWAP1 POP DUP2 DUP2 SUB PUSH1 0x0 DUP4 ADD MSTORE PUSH2 0x1A20 DUP2 DUP5 PUSH2 0x19A8 JUMP JUMPDEST SWAP1 POP SWAP3 SWAP2 POP POP JUMP JUMPDEST PUSH32 0x4E487B7100000000000000000000000000000000000000000000000000000000 PUSH1 0x0 MSTORE PUSH1 0x41 PUSH1 0x4 MSTORE PUSH1 0x24 PUSH1 0x0 REVERT JUMPDEST PUSH32 0x4E487B7100000000000000000000000000000000000000000000000000000000 PUSH1 0x0 MSTORE PUSH1 0x32 PUSH1 0x4 MSTORE PUSH1 0x24 PUSH1 0x0 REVERT JUMPDEST PUSH32 0x4E487B7100000000000000000000000000000000000000000000000000000000 PUSH1 0x0 MSTORE PUSH1 0x11 PUSH1 0x4 MSTORE PUSH1 0x24 PUSH1 0x0 REVERT JUMPDEST PUSH1 0x0 PUSH2 0x1AC0 DUP3 PUSH2 0x144F JUMP JUMPDEST SWAP2 POP PUSH32 0xFFFFFFFFFFFFFFFFFFFFFFFFFFFFFFFFFFFFFFFFFFFFFFFFFFFFFFFFFFFFFFFF DUP3 SUB PUSH2 0x1AF2 JUMPI PUSH2 0x1AF1 PUSH2 0x1A86 JUMP JUMPDEST JUMPDEST PUSH1 0x1 DUP3 ADD SWAP1 POP SWAP2 SWAP1 POP JUMP JUMPDEST PUSH1 0x0 PUSH2 0x1B08 DUP3 PUSH2 0x144F JUMP JUMPDEST SWAP2 POP PUSH2 0x1B13 DUP4 PUSH2 0x144F JUMP JUMPDEST SWAP3 POP DUP3 DUP3 LT ISZERO PUSH2 0x1B26 JUMPI PUSH2 0x1B25 PUSH2 0x1A86 JUMP JUMPDEST JUMPDEST DUP3 DUP3 SUB SWAP1 POP SWAP3 SWAP2 POP POP JUMP JUMPDEST PUSH1 0x0 PUSH2 0x1B3C DUP3 PUSH2 0x144F JUMP JUMPDEST SWAP2 POP PUSH2 0x1B47 DUP4 PUSH2 0x144F JUMP JUMPDEST SWAP3 POP DUP2 PUSH32 0xFFFFFFFFFFFFFFFFFFFFFFFFFFFFFFFFFFFFFFFFFFFFFFFFFFFFFFFFFFFFFFFF DIV DUP4 GT DUP3 ISZERO ISZERO AND ISZERO PUSH2 0x1B80 JUMPI PUSH2 0x1B7F PUSH2 0x1A86 JUMP JUMPDEST JUMPDEST DUP3 DUP3 MUL SWAP1 POP SWAP3 SWAP2 POP POP JUMP JUMPDEST PUSH32 0x4E487B7100000000000000000000000000000000000000000000000000000000 PUSH1 0x0 MSTORE PUSH1 0x12 PUSH1 0x4 MSTORE PUSH1 0x24 PUSH1 0x0 REVERT JUMPDEST PUSH1 0x0 PUSH2 0x1BC5 DUP3 PUSH2 0x144F JUMP JUMPDEST SWAP2 POP PUSH2 0x1BD0 DUP4 PUSH2 0x144F JUMP JUMPDEST SWAP3 POP DUP3 PUSH2 0x1BE0 JUMPI PUSH2 0x1BDF PUSH2 0x1B8B JUMP JUMPDEST JUMPDEST DUP3 DUP3 DIV SWAP1 POP SWAP3 SWAP2 POP POP JUMP JUMPDEST PUSH1 0x0 PUSH2 0x1BF6 DUP3 PUSH2 0x144F JUMP JUMPDEST SWAP2 POP PUSH2 0x1C01 DUP4 PUSH2 0x144F JUMP JUMPDEST SWAP3 POP DUP3 PUSH32 0xFFFFFFFFFFFFFFFFFFFFFFFFFFFFFFFFFFFFFFFFFFFFFFFFFFFFFFFFFFFFFFFF SUB DUP3 GT ISZERO PUSH2 0x1C36 JUMPI PUSH2 0x1C35 PUSH2 0x1A86 JUMP JUMPDEST JUMPDEST DUP3 DUP3 ADD SWAP1 POP SWAP3 SWAP2 POP POP JUMP INVALID LOG2 PUSH5 0x6970667358 0x22 SLT KECCAK256 0x2E 0xD5 0xCD 0x1F 0xB1 0x5D PUSH12 0xBA69ABE717680823D4D34EFF 0x24 CALLVALUE CREATE2 DIFFICULTY ADDMOD 0xFB 0xC7 CHAINID 0xC7 0xB0 0xC1 SWAP10 0xC0 PUSH5 0x736F6C6343 STOP ADDMOD 0xF STOP CALLER "},"methodIdentifiers":{"calculateGain(uint256)":"bfb1d55c","contestTable(uint256,uint256)":"57d088ff","getContestTable(uint256)":"2452a7e3","getScoreTable(uint256)":"b66195b8","pushInScoreTable(uint256,address,uint256,uint256)":"45b39137","scoreTable(uint256,uint256)":"85ed8ca0","updateContestTable(uint256)":"d6221518"}}}}}