{"contracts/IpFakeEnetScore.sol":{"IpFakeEnetScore":{"abi":[{"inputs":[],"stateMutability":"nonpayable","type":"constructor"},{"inputs":[{"internalType":"uint256","name":"_contestId","type":"uint256"},{"internalType":"address","name":"_player","type":"address"}],"name":"checkResult","outputs":[{"internalType":"uint256","name":"","type":"uint256"}],"stateMutability":"view","type":"function"},{"inputs":[{"internalType":"uint256","name":"_leagueId","type":"uint256"},{"internalType":"string[]","name":"_listRequestId","type":"string[]"},{"internalType":"uint256","name":"_dateEndContest","type":"uint256"}],"name":"createContest","outputs":[],"stateMutability":"nonpayable","type":"function"},{"inputs":[{"internalType":"string","name":"_requestId","type":"string"},{"components":[{"internalType":"uint32","name":"gameId","type":"uint32"},{"internalType":"uint40","name":"startTime","type":"uint40"},{"internalType":"string","name":"homeTeam","type":"string"},{"internalType":"string","name":"awayTeam","type":"string"}],"internalType":"struct IpFakeEnetScore.GameCreate[]","name":"_fakeGameCreate","type":"tuple[]"}],"name":"fakeGameCreate","outputs":[],"stateMutability":"nonpayable","type":"function"},{"inputs":[{"internalType":"uint32","name":"","type":"uint32"}],"name":"gamePlayed","outputs":[{"internalType":"bool","name":"","type":"bool"}],"stateMutability":"view","type":"function"},{"inputs":[],"name":"getContestPredictionEndDate","outputs":[{"internalType":"uint256","name":"","type":"uint256"}],"stateMutability":"view","type":"function"},{"inputs":[],"name":"getCurrentContestId","outputs":[{"internalType":"uint256","name":"","type":"uint256"}],"stateMutability":"view","type":"function"},{"inputs":[{"internalType":"string","name":"_requestId","type":"string"},{"internalType":"uint256","name":"_idx","type":"uint256"}],"name":"getGameCreate","outputs":[{"components":[{"internalType":"uint32","name":"gameId","type":"uint32"},{"internalType":"uint40","name":"startTime","type":"uint40"},{"internalType":"string","name":"homeTeam","type":"string"},{"internalType":"string","name":"awayTeam","type":"string"}],"internalType":"struct IpFakeEnetScore.GameCreate","name":"","type":"tuple"}],"stateMutability":"view","type":"function"},{"inputs":[{"internalType":"uint256","name":"_contestId","type":"uint256"}],"name":"getListGamesPerContest","outputs":[{"components":[{"internalType":"uint32","name":"gameId","type":"uint32"},{"internalType":"uint40","name":"startTime","type":"uint40"},{"internalType":"string","name":"homeTeam","type":"string"},{"internalType":"string","name":"awayTeam","type":"string"}],"internalType":"struct IpFakeEnetScore.GameCreate[]","name":"","type":"tuple[]"}],"stateMutability":"view","type":"function"},{"inputs":[{"internalType":"uint256","name":"_contestId","type":"uint256"}],"name":"getNumberOfGamesPerContest","outputs":[{"internalType":"uint256","name":"","type":"uint256"}],"stateMutability":"view","type":"function"},{"inputs":[{"internalType":"string","name":"_requestId","type":"string"}],"name":"getNumberOfGamesPerRequest","outputs":[{"internalType":"uint256","name":"","type":"uint256"}],"stateMutability":"view","type":"function"},{"inputs":[{"internalType":"uint256","name":"_contestId","type":"uint256"}],"name":"getNumberOfPlayers","outputs":[{"internalType":"uint256","name":"","type":"uint256"}],"stateMutability":"view","type":"function"},{"inputs":[{"internalType":"uint256","name":"_contestId","type":"uint256"},{"internalType":"address","name":"_player","type":"address"}],"name":"getPrevisionsPerPlayerPerContest","outputs":[{"components":[{"internalType":"uint32","name":"gameId","type":"uint32"},{"internalType":"uint8","name":"homeScore","type":"uint8"},{"internalType":"uint8","name":"awayScore","type":"uint8"}],"internalType":"struct IpFakeEnetScore.GamePredict[]","name":"","type":"tuple[]"}],"stateMutability":"view","type":"function"},{"inputs":[{"internalType":"uint256","name":"_contestId","type":"uint256"}],"name":"getRequestIdPerContest","outputs":[{"internalType":"string[]","name":"","type":"string[]"}],"stateMutability":"view","type":"function"},{"inputs":[{"internalType":"uint32","name":"_gameId","type":"uint32"}],"name":"getScorePerGameId","outputs":[{"components":[{"internalType":"uint8","name":"homeScore","type":"uint8"},{"internalType":"uint8","name":"awayScore","type":"uint8"}],"internalType":"struct IpFakeEnetScore.Scores","name":"","type":"tuple"}],"stateMutability":"view","type":"function"},{"inputs":[{"components":[{"internalType":"uint32","name":"gameId","type":"uint32"},{"internalType":"uint8","name":"homeScore","type":"uint8"},{"internalType":"uint8","name":"awayScore","type":"uint8"},{"internalType":"string","name":"status","type":"string"}],"internalType":"struct IpFakeEnetScore.GameResolve[]","name":"_fakeGameResolve","type":"tuple[]"}],"name":"saveRequestResults","outputs":[],"stateMutability":"nonpayable","type":"function"}],"evm":{"bytecode":{"linkReferences":{},"object":"608060405234801561001057600080fd5b50600060088190555061291c806100286000396000f3fe608060405234801561001057600080fd5b50600436106100f55760003560e01c80633302787d1161009757806380b41a091161006657806380b41a09146102bc5780638b617036146102ec578063ea6a04101461031c578063fb46bd221461034c576100f5565b80633302787d1461021057806362436d9d1461022c5780637e5dd9131461025c5780637fb9c45f1461028c576100f5565b806318699547116100d357806318699547146101785780631d883342146101945780631e7741f0146101c45780631f2bf10c146101f4576100f5565b806308af2d78146100fa578063117f3998146101185780631506bca614610148575b600080fd5b61010261036a565b60405161010f9190611603565b60405180910390f35b610132600480360381019061012d91906116bc565b61038a565b60405161013f9190611828565b60405180910390f35b610162600480360381019061015d919061184a565b6105e1565b60405161016f91906119d2565b60405180910390f35b610192600480360381019061018d9190611c0f565b6106cd565b005b6101ae60048036038101906101a9919061184a565b6107ad565b6040516101bb9190611603565b60405180910390f35b6101de60048036038101906101d99190611caa565b61084f565b6040516101eb9190611d06565b60405180910390f35b61020e60048036038101906102099190611ef9565b6108c2565b005b61022a60048036038101906102259190612112565b610a51565b005b6102466004803603810190610241919061184a565b610ba3565b6040516102539190611603565b60405180910390f35b6102766004803603810190610271919061184a565b610bc3565b6040516102839190612296565b60405180910390f35b6102a660048036038101906102a191906116bc565b610ef2565b6040516102b39190611603565b60405180910390f35b6102d660048036038101906102d191906122b8565b611307565b6040516102e3919061237e565b60405180910390f35b61030660048036038101906103019190611caa565b6114d3565b60405161031391906123bb565b60405180910390f35b610336600480360381019061033191906123d6565b6114f3565b6040516103439190611603565b60405180910390f35b61035461151d565b6040516103619190611603565b60405180910390f35b600060026000600854815260200190815260200160002060010154905090565b60606000610397846107ad565b90506000808267ffffffffffffffff8111156103b6576103b56119f9565b5b6040519080825280602002602001820160405280156103ef57816020015b6103dc611568565b8152602001906001900390816103d45790505b50905060008367ffffffffffffffff81111561040e5761040d6119f9565b5b60405190808252806020026020018201604052801561044757816020015b610434611595565b81526020019060019003908161042c5790505b50905061045387610bc3565b905060005b848110156105d3578181815181106104735761047261241f565b5b602002602001015160000151935060405180606001604052808563ffffffff168152602001600460008a73ffffffffffffffffffffffffffffffffffffffff1673ffffffffffffffffffffffffffffffffffffffff16815260200190815260200160002060008b815260200190815260200160002060008763ffffffff1663ffffffff16815260200190815260200160002060000160009054906101000a900460ff1660ff168152602001600460008a73ffffffffffffffffffffffffffffffffffffffff1673ffffffffffffffffffffffffffffffffffffffff16815260200190815260200160002060008b815260200190815260200160002060008763ffffffff1663ffffffff16815260200190815260200160002060000160019054906101000a900460ff1660ff168152508382815181106105b5576105b461241f565b5b602002602001018190525080806105cb9061247d565b915050610458565b508194505050505092915050565b606060016000838152602001908152602001600020805480602002602001604051908101604052809291908181526020016000905b828210156106c2578382906000526020600020018054610635906124f4565b80601f0160208091040260200160405190810160405280929190818152602001828054610661906124f4565b80156106ae5780601f10610683576101008083540402835291602001916106ae565b820191906000526020600020905b81548152906001019060200180831161069157829003601f168201915b505050505081526020019060010190610616565b505050509050919050565b600860008154809291906106e09061247d565b919050555060005b8251811015610766576001600060085481526020019081526020016000208382815181106107195761071861241f565b5b602002602001015190806001815401808255809150506001900390600052602060002001600090919091909150908161075291906126d1565b50808061075e9061247d565b9150506106e8565b506040518060400160405280848152602001828152506002600060085481526020019081526020016000206000820151816000015560208201518160010155905050505050565b6000806000905060005b60016000858152602001908152602001600020805490508110156108455760006001600086815260200190815260200160002082815481106107fc576107fb61241f565b5b906000526020600020016040516108139190612831565b908152602001604051809103902080549050826108309190612848565b9150808061083d9061247d565b9150506107b7565b5080915050919050565b6108576115ca565b600360008363ffffffff1663ffffffff1681526020019081526020016000206040518060400160405290816000820160009054906101000a900460ff1660ff1660ff1681526020016000820160019054906101000a900460ff1660ff1660ff16815250509050919050565b60005b8151811015610a4c576000836040516108de91906128cf565b9081526020016040518091039020604051806080016040528084848151811061090a5761090961241f565b5b60200260200101516000015163ffffffff1681526020018484815181106109345761093361241f565b5b60200260200101516020015164ffffffffff16815260200184848151811061095f5761095e61241f565b5b60200260200101516040015181526020018484815181106109835761098261241f565b5b602002602001015160600151815250908060018154018082558091505060019003906000526020600020906003020160009091909190915060008201518160000160006101000a81548163ffffffff021916908363ffffffff16021790555060208201518160000160046101000a81548164ffffffffff021916908364ffffffffff1602179055506040820151816001019081610a2091906126d1565b506060820151816002019081610a3691906126d1565b5050508080610a449061247d565b9150506108c5565b505050565b60005b8151811015610b9f576040518060400160405280838381518110610a7b57610a7a61241f565b5b60200260200101516020015160ff168152602001838381518110610aa257610aa161241f565b5b60200260200101516040015160ff1681525060036000848481518110610acb57610aca61241f565b5b60200260200101516000015163ffffffff1663ffffffff16815260200190815260200160002060008201518160000160006101000a81548160ff021916908360ff16021790555060208201518160000160016101000a81548160ff021916908360ff160217905550905050600160096000848481518110610b4f57610b4e61241f565b5b60200260200101516000015163ffffffff1663ffffffff16815260200190815260200160002060006101000a81548160ff0219169083151502179055508080610b979061247d565b915050610a54565b5050565b600060056000838152602001908152602001600020805490509050919050565b60606000610bd0836107ad565b90506000808267ffffffffffffffff811115610bef57610bee6119f9565b5b604051908082528060200260200182016040528015610c2857816020015b610c15611595565b815260200190600190039081610c0d5790505b50905060005b6001600087815260200190815260200160002080549050811015610ee6576000600160008881526020019081526020016000208281548110610c7357610c7261241f565b5b90600052602060002001604051610c8a9190612831565b908152602001604051809103902080549050935060005b84811015610ed2576000600160008981526020019081526020016000208381548110610cd057610ccf61241f565b5b90600052602060002001604051610ce79190612831565b90815260200160405180910390208181548110610d0757610d0661241f565b5b90600052602060002090600302016040518060800160405290816000820160009054906101000a900463ffffffff1663ffffffff1663ffffffff1681526020016000820160049054906101000a900464ffffffffff1664ffffffffff1664ffffffffff168152602001600182018054610d7f906124f4565b80601f0160208091040260200160405190810160405280929190818152602001828054610dab906124f4565b8015610df85780601f10610dcd57610100808354040283529160200191610df8565b820191906000526020600020905b815481529060010190602001808311610ddb57829003601f168201915b50505050508152602001600282018054610e11906124f4565b80601f0160208091040260200160405190810160405280929190818152602001828054610e3d906124f4565b8015610e8a5780601f10610e5f57610100808354040283529160200191610e8a565b820191906000526020600020905b815481529060010190602001808311610e6d57829003601f168201915b505050505081525050838581518110610ea657610ea561241f565b5b60200260200101819052508380610ebc9061247d565b9450508080610eca9061247d565b915050610ca1565b508080610ede9061247d565b915050610c2e565b50809350505050919050565b60008060008060009050600080610f08886107ad565b905060008167ffffffffffffffff811115610f2657610f256119f9565b5b604051908082528060200260200182016040528015610f5f57816020015b610f4c611595565b815260200190600190039081610f445790505b509050610f6b89610bc3565b905060005b828110156112f757818181518110610f8b57610f8a61241f565b5b602002602001015160000151935061109d600460008b73ffffffffffffffffffffffffffffffffffffffff1673ffffffffffffffffffffffffffffffffffffffff16815260200190815260200160002060008c815260200190815260200160002060008663ffffffff1663ffffffff16815260200190815260200160002060000160009054906101000a900460ff16600460008c73ffffffffffffffffffffffffffffffffffffffff1673ffffffffffffffffffffffffffffffffffffffff16815260200190815260200160002060008d815260200190815260200160002060008763ffffffff1663ffffffff16815260200190815260200160002060000160019054906101000a900460ff16611527565b9650611107600360008663ffffffff1663ffffffff16815260200190815260200160002060000160009054906101000a900460ff16600360008763ffffffff1663ffffffff16815260200190815260200160002060000160019054906101000a900460ff16611527565b95508587148015611148575060011515600960008663ffffffff1663ffffffff16815260200190815260200160002060009054906101000a900460ff161515145b156112e45760018561115a9190612848565b9450600360008563ffffffff1663ffffffff16815260200190815260200160002060000160009054906101000a900460ff1660ff16600460008b73ffffffffffffffffffffffffffffffffffffffff1673ffffffffffffffffffffffffffffffffffffffff16815260200190815260200160002060008c815260200190815260200160002060008663ffffffff1663ffffffff16815260200190815260200160002060000160009054906101000a900460ff1660ff161480156112ce5750600360008563ffffffff1663ffffffff16815260200190815260200160002060000160019054906101000a900460ff1660ff16600460008b73ffffffffffffffffffffffffffffffffffffffff1673ffffffffffffffffffffffffffffffffffffffff16815260200190815260200160002060008c815260200190815260200160002060008663ffffffff1663ffffffff16815260200190815260200160002060000160019054906101000a900460ff1660ff16145b156112e3576002856112e09190612848565b94505b5b80806112ef9061247d565b915050610f70565b5083965050505050505092915050565b61130f611595565b60008360405161131f91906128cf565b9081526020016040518091039020828154811061133f5761133e61241f565b5b90600052602060002090600302016040518060800160405290816000820160009054906101000a900463ffffffff1663ffffffff1663ffffffff1681526020016000820160049054906101000a900464ffffffffff1664ffffffffff1664ffffffffff1681526020016001820180546113b7906124f4565b80601f01602080910402602001604051908101604052809291908181526020018280546113e3906124f4565b80156114305780601f1061140557610100808354040283529160200191611430565b820191906000526020600020905b81548152906001019060200180831161141357829003601f168201915b50505050508152602001600282018054611449906124f4565b80601f0160208091040260200160405190810160405280929190818152602001828054611475906124f4565b80156114c25780601f10611497576101008083540402835291602001916114c2565b820191906000526020600020905b8154815290600101906020018083116114a557829003601f168201915b505050505081525050905092915050565b60096020528060005260406000206000915054906101000a900460ff1681565b6000808260405161150491906128cf565b9081526020016040518091039020805490509050919050565b6000600854905090565b6000808260ff168460ff161115611541576000905061155e565b8360ff168360ff161115611558576002905061155d565b600190505b5b8091505092915050565b6040518060600160405280600063ffffffff168152602001600060ff168152602001600060ff1681525090565b6040518060800160405280600063ffffffff168152602001600064ffffffffff16815260200160608152602001606081525090565b6040518060400160405280600060ff168152602001600060ff1681525090565b6000819050919050565b6115fd816115ea565b82525050565b600060208201905061161860008301846115f4565b92915050565b6000604051905090565b600080fd5b600080fd5b61163b816115ea565b811461164657600080fd5b50565b60008135905061165881611632565b92915050565b600073ffffffffffffffffffffffffffffffffffffffff82169050919050565b60006116898261165e565b9050919050565b6116998161167e565b81146116a457600080fd5b50565b6000813590506116b681611690565b92915050565b600080604083850312156116d3576116d2611628565b5b60006116e185828601611649565b92505060206116f2858286016116a7565b9150509250929050565b600081519050919050565b600082825260208201905092915050565b6000819050602082019050919050565b600063ffffffff82169050919050565b61174181611728565b82525050565b600060ff82169050919050565b61175d81611747565b82525050565b6060820160008201516117796000850182611738565b50602082015161178c6020850182611754565b50604082015161179f6040850182611754565b50505050565b60006117b18383611763565b60608301905092915050565b6000602082019050919050565b60006117d5826116fc565b6117df8185611707565b93506117ea83611718565b8060005b8381101561181b57815161180288826117a5565b975061180d836117bd565b9250506001810190506117ee565b5085935050505092915050565b6000602082019050818103600083015261184281846117ca565b905092915050565b6000602082840312156118605761185f611628565b5b600061186e84828501611649565b91505092915050565b600081519050919050565b600082825260208201905092915050565b6000819050602082019050919050565b600081519050919050565b600082825260208201905092915050565b60005b838110156118dd5780820151818401526020810190506118c2565b838111156118ec576000848401525b50505050565b6000601f19601f8301169050919050565b600061190e826118a3565b61191881856118ae565b93506119288185602086016118bf565b611931816118f2565b840191505092915050565b60006119488383611903565b905092915050565b6000602082019050919050565b600061196882611877565b6119728185611882565b93508360208202850161198485611893565b8060005b858110156119c057848403895281516119a1858261193c565b94506119ac83611950565b925060208a01995050600181019050611988565b50829750879550505050505092915050565b600060208201905081810360008301526119ec818461195d565b905092915050565b600080fd5b7f4e487b7100000000000000000000000000000000000000000000000000000000600052604160045260246000fd5b611a31826118f2565b810181811067ffffffffffffffff82111715611a5057611a4f6119f9565b5b80604052505050565b6000611a6361161e565b9050611a6f8282611a28565b919050565b600067ffffffffffffffff821115611a8f57611a8e6119f9565b5b602082029050602081019050919050565b600080fd5b600080fd5b600067ffffffffffffffff821115611ac557611ac46119f9565b5b611ace826118f2565b9050602081019050919050565b82818337600083830152505050565b6000611afd611af884611aaa565b611a59565b905082815260208101848484011115611b1957611b18611aa5565b5b611b24848285611adb565b509392505050565b600082601f830112611b4157611b406119f4565b5b8135611b51848260208601611aea565b91505092915050565b6000611b6d611b6884611a74565b611a59565b90508083825260208201905060208402830185811115611b9057611b8f611aa0565b5b835b81811015611bd757803567ffffffffffffffff811115611bb557611bb46119f4565b5b808601611bc28982611b2c565b85526020850194505050602081019050611b92565b5050509392505050565b600082601f830112611bf657611bf56119f4565b5b8135611c06848260208601611b5a565b91505092915050565b600080600060608486031215611c2857611c27611628565b5b6000611c3686828701611649565b935050602084013567ffffffffffffffff811115611c5757611c5661162d565b5b611c6386828701611be1565b9250506040611c7486828701611649565b9150509250925092565b611c8781611728565b8114611c9257600080fd5b50565b600081359050611ca481611c7e565b92915050565b600060208284031215611cc057611cbf611628565b5b6000611cce84828501611c95565b91505092915050565b604082016000820151611ced6000850182611754565b506020820151611d006020850182611754565b50505050565b6000604082019050611d1b6000830184611cd7565b92915050565b600067ffffffffffffffff821115611d3c57611d3b6119f9565b5b602082029050602081019050919050565b600080fd5b600080fd5b600064ffffffffff82169050919050565b611d7181611d57565b8114611d7c57600080fd5b50565b600081359050611d8e81611d68565b92915050565b600060808284031215611daa57611da9611d4d565b5b611db46080611a59565b90506000611dc484828501611c95565b6000830152506020611dd884828501611d7f565b602083015250604082013567ffffffffffffffff811115611dfc57611dfb611d52565b5b611e0884828501611b2c565b604083015250606082013567ffffffffffffffff811115611e2c57611e2b611d52565b5b611e3884828501611b2c565b60608301525092915050565b6000611e57611e5284611d21565b611a59565b90508083825260208201905060208402830185811115611e7a57611e79611aa0565b5b835b81811015611ec157803567ffffffffffffffff811115611e9f57611e9e6119f4565b5b808601611eac8982611d94565b85526020850194505050602081019050611e7c565b5050509392505050565b600082601f830112611ee057611edf6119f4565b5b8135611ef0848260208601611e44565b91505092915050565b60008060408385031215611f1057611f0f611628565b5b600083013567ffffffffffffffff811115611f2e57611f2d61162d565b5b611f3a85828601611b2c565b925050602083013567ffffffffffffffff811115611f5b57611f5a61162d565b5b611f6785828601611ecb565b9150509250929050565b600067ffffffffffffffff821115611f8c57611f8b6119f9565b5b602082029050602081019050919050565b611fa681611747565b8114611fb157600080fd5b50565b600081359050611fc381611f9d565b92915050565b600060808284031215611fdf57611fde611d4d565b5b611fe96080611a59565b90506000611ff984828501611c95565b600083015250602061200d84828501611fb4565b602083015250604061202184828501611fb4565b604083015250606082013567ffffffffffffffff81111561204557612044611d52565b5b61205184828501611b2c565b60608301525092915050565b600061207061206b84611f71565b611a59565b9050808382526020820190506020840283018581111561209357612092611aa0565b5b835b818110156120da57803567ffffffffffffffff8111156120b8576120b76119f4565b5b8086016120c58982611fc9565b85526020850194505050602081019050612095565b5050509392505050565b600082601f8301126120f9576120f86119f4565b5b813561210984826020860161205d565b91505092915050565b60006020828403121561212857612127611628565b5b600082013567ffffffffffffffff8111156121465761214561162d565b5b612152848285016120e4565b91505092915050565b600081519050919050565b600082825260208201905092915050565b6000819050602082019050919050565b61219081611d57565b82525050565b60006080830160008301516121ae6000860182611738565b5060208301516121c16020860182612187565b50604083015184820360408601526121d98282611903565b915050606083015184820360608601526121f38282611903565b9150508091505092915050565b600061220c8383612196565b905092915050565b6000602082019050919050565b600061222c8261215b565b6122368185612166565b93508360208202850161224885612177565b8060005b8581101561228457848403895281516122658582612200565b945061227083612214565b925060208a0199505060018101905061224c565b50829750879550505050505092915050565b600060208201905081810360008301526122b08184612221565b905092915050565b600080604083850312156122cf576122ce611628565b5b600083013567ffffffffffffffff8111156122ed576122ec61162d565b5b6122f985828601611b2c565b925050602061230a85828601611649565b9150509250929050565b600060808301600083015161232c6000860182611738565b50602083015161233f6020860182612187565b50604083015184820360408601526123578282611903565b915050606083015184820360608601526123718282611903565b9150508091505092915050565b600060208201905081810360008301526123988184612314565b905092915050565b60008115159050919050565b6123b5816123a0565b82525050565b60006020820190506123d060008301846123ac565b92915050565b6000602082840312156123ec576123eb611628565b5b600082013567ffffffffffffffff81111561240a5761240961162d565b5b61241684828501611b2c565b91505092915050565b7f4e487b7100000000000000000000000000000000000000000000000000000000600052603260045260246000fd5b7f4e487b7100000000000000000000000000000000000000000000000000000000600052601160045260246000fd5b6000612488826115ea565b91507fffffffffffffffffffffffffffffffffffffffffffffffffffffffffffffffff82036124ba576124b961244e565b5b600182019050919050565b7f4e487b7100000000000000000000000000000000000000000000000000000000600052602260045260246000fd5b6000600282049050600182168061250c57607f821691505b60208210810361251f5761251e6124c5565b5b50919050565b60008190508160005260206000209050919050565b60006020601f8301049050919050565b600082821b905092915050565b6000600883026125877fffffffffffffffffffffffffffffffffffffffffffffffffffffffffffffffff8261254a565b612591868361254a565b95508019841693508086168417925050509392505050565b6000819050919050565b60006125ce6125c96125c4846115ea565b6125a9565b6115ea565b9050919050565b6000819050919050565b6125e8836125b3565b6125fc6125f4826125d5565b848454612557565b825550505050565b600090565b612611612604565b61261c8184846125df565b505050565b5b8181101561264057612635600082612609565b600181019050612622565b5050565b601f8211156126855761265681612525565b61265f8461253a565b8101602085101561266e578190505b61268261267a8561253a565b830182612621565b50505b505050565b600082821c905092915050565b60006126a86000198460080261268a565b1980831691505092915050565b60006126c18383612697565b9150826002028217905092915050565b6126da826118a3565b67ffffffffffffffff8111156126f3576126f26119f9565b5b6126fd82546124f4565b612708828285612644565b600060209050601f83116001811461273b5760008415612729578287015190505b61273385826126b5565b86555061279b565b601f19841661274986612525565b60005b828110156127715784890151825560018201915060208501945060208101905061274c565b8683101561278e578489015161278a601f891682612697565b8355505b6001600288020188555050505b505050505050565b600081905092915050565b600081546127bb816124f4565b6127c581866127a3565b945060018216600081146127e057600181146127f557612828565b60ff1983168652811515820286019350612828565b6127fe85612525565b60005b8381101561282057815481890152600182019150602081019050612801565b838801955050505b50505092915050565b600061283d82846127ae565b915081905092915050565b6000612853826115ea565b915061285e836115ea565b9250827fffffffffffffffffffffffffffffffffffffffffffffffffffffffffffffffff038211156128935761289261244e565b5b828201905092915050565b60006128a9826118a3565b6128b381856127a3565b93506128c38185602086016118bf565b80840191505092915050565b60006128db828461289e565b91508190509291505056fea26469706673582212200f057100f5f60599c87cd44d7d2a0b220f87075876c6321bd04235c1d116f8f164736f6c634300080f0033","opcodes":"PUSH1 0x80 PUSH1 0x40 MSTORE CALLVALUE DUP1 ISZERO PUSH2 0x10 JUMPI PUSH1 0x0 DUP1 REVERT JUMPDEST POP PUSH1 0x0 PUSH1 0x8 DUP2 SWAP1 SSTORE POP PUSH2 0x291C DUP1 PUSH2 0x28 PUSH1 0x0 CODECOPY PUSH1 0x0 RETURN INVALID PUSH1 0x80 PUSH1 0x40 MSTORE CALLVALUE DUP1 ISZERO PUSH2 0x10 JUMPI PUSH1 0x0 DUP1 REVERT JUMPDEST POP PUSH1 0x4 CALLDATASIZE LT PUSH2 0xF5 JUMPI PUSH1 0x0 CALLDATALOAD PUSH1 0xE0 SHR DUP1 PUSH4 0x3302787D GT PUSH2 0x97 JUMPI DUP1 PUSH4 0x80B41A09 GT PUSH2 0x66 JUMPI DUP1 PUSH4 0x80B41A09 EQ PUSH2 0x2BC JUMPI DUP1 PUSH4 0x8B617036 EQ PUSH2 0x2EC JUMPI DUP1 PUSH4 0xEA6A0410 EQ PUSH2 0x31C JUMPI DUP1 PUSH4 0xFB46BD22 EQ PUSH2 0x34C JUMPI PUSH2 0xF5 JUMP JUMPDEST DUP1 PUSH4 0x3302787D EQ PUSH2 0x210 JUMPI DUP1 PUSH4 0x62436D9D EQ PUSH2 0x22C JUMPI DUP1 PUSH4 0x7E5DD913 EQ PUSH2 0x25C JUMPI DUP1 PUSH4 0x7FB9C45F EQ PUSH2 0x28C JUMPI PUSH2 0xF5 JUMP JUMPDEST DUP1 PUSH4 0x18699547 GT PUSH2 0xD3 JUMPI DUP1 PUSH4 0x18699547 EQ PUSH2 0x178 JUMPI DUP1 PUSH4 0x1D883342 EQ PUSH2 0x194 JUMPI DUP1 PUSH4 0x1E7741F0 EQ PUSH2 0x1C4 JUMPI DUP1 PUSH4 0x1F2BF10C EQ PUSH2 0x1F4 JUMPI PUSH2 0xF5 JUMP JUMPDEST DUP1 PUSH4 0x8AF2D78 EQ PUSH2 0xFA JUMPI DUP1 PUSH4 0x117F3998 EQ PUSH2 0x118 JUMPI DUP1 PUSH4 0x1506BCA6 EQ PUSH2 0x148 JUMPI JUMPDEST PUSH1 0x0 DUP1 REVERT JUMPDEST PUSH2 0x102 PUSH2 0x36A JUMP JUMPDEST PUSH1 0x40 MLOAD PUSH2 0x10F SWAP2 SWAP1 PUSH2 0x1603 JUMP JUMPDEST PUSH1 0x40 MLOAD DUP1 SWAP2 SUB SWAP1 RETURN JUMPDEST PUSH2 0x132 PUSH1 0x4 DUP1 CALLDATASIZE SUB DUP2 ADD SWAP1 PUSH2 0x12D SWAP2 SWAP1 PUSH2 0x16BC JUMP JUMPDEST PUSH2 0x38A JUMP JUMPDEST PUSH1 0x40 MLOAD PUSH2 0x13F SWAP2 SWAP1 PUSH2 0x1828 JUMP JUMPDEST PUSH1 0x40 MLOAD DUP1 SWAP2 SUB SWAP1 RETURN JUMPDEST PUSH2 0x162 PUSH1 0x4 DUP1 CALLDATASIZE SUB DUP2 ADD SWAP1 PUSH2 0x15D SWAP2 SWAP1 PUSH2 0x184A JUMP JUMPDEST PUSH2 0x5E1 JUMP JUMPDEST PUSH1 0x40 MLOAD PUSH2 0x16F SWAP2 SWAP1 PUSH2 0x19D2 JUMP JUMPDEST PUSH1 0x40 MLOAD DUP1 SWAP2 SUB SWAP1 RETURN JUMPDEST PUSH2 0x192 PUSH1 0x4 DUP1 CALLDATASIZE SUB DUP2 ADD SWAP1 PUSH2 0x18D SWAP2 SWAP1 PUSH2 0x1C0F JUMP JUMPDEST PUSH2 0x6CD JUMP JUMPDEST STOP JUMPDEST PUSH2 0x1AE PUSH1 0x4 DUP1 CALLDATASIZE SUB DUP2 ADD SWAP1 PUSH2 0x1A9 SWAP2 SWAP1 PUSH2 0x184A JUMP JUMPDEST PUSH2 0x7AD JUMP JUMPDEST PUSH1 0x40 MLOAD PUSH2 0x1BB SWAP2 SWAP1 PUSH2 0x1603 JUMP JUMPDEST PUSH1 0x40 MLOAD DUP1 SWAP2 SUB SWAP1 RETURN JUMPDEST PUSH2 0x1DE PUSH1 0x4 DUP1 CALLDATASIZE SUB DUP2 ADD SWAP1 PUSH2 0x1D9 SWAP2 SWAP1 PUSH2 0x1CAA JUMP JUMPDEST PUSH2 0x84F JUMP JUMPDEST PUSH1 0x40 MLOAD PUSH2 0x1EB SWAP2 SWAP1 PUSH2 0x1D06 JUMP JUMPDEST PUSH1 0x40 MLOAD DUP1 SWAP2 SUB SWAP1 RETURN JUMPDEST PUSH2 0x20E PUSH1 0x4 DUP1 CALLDATASIZE SUB DUP2 ADD SWAP1 PUSH2 0x209 SWAP2 SWAP1 PUSH2 0x1EF9 JUMP JUMPDEST PUSH2 0x8C2 JUMP JUMPDEST STOP JUMPDEST PUSH2 0x22A PUSH1 0x4 DUP1 CALLDATASIZE SUB DUP2 ADD SWAP1 PUSH2 0x225 SWAP2 SWAP1 PUSH2 0x2112 JUMP JUMPDEST PUSH2 0xA51 JUMP JUMPDEST STOP JUMPDEST PUSH2 0x246 PUSH1 0x4 DUP1 CALLDATASIZE SUB DUP2 ADD SWAP1 PUSH2 0x241 SWAP2 SWAP1 PUSH2 0x184A JUMP JUMPDEST PUSH2 0xBA3 JUMP JUMPDEST PUSH1 0x40 MLOAD PUSH2 0x253 SWAP2 SWAP1 PUSH2 0x1603 JUMP JUMPDEST PUSH1 0x40 MLOAD DUP1 SWAP2 SUB SWAP1 RETURN JUMPDEST PUSH2 0x276 PUSH1 0x4 DUP1 CALLDATASIZE SUB DUP2 ADD SWAP1 PUSH2 0x271 SWAP2 SWAP1 PUSH2 0x184A JUMP JUMPDEST PUSH2 0xBC3 JUMP JUMPDEST PUSH1 0x40 MLOAD PUSH2 0x283 SWAP2 SWAP1 PUSH2 0x2296 JUMP JUMPDEST PUSH1 0x40 MLOAD DUP1 SWAP2 SUB SWAP1 RETURN JUMPDEST PUSH2 0x2A6 PUSH1 0x4 DUP1 CALLDATASIZE SUB DUP2 ADD SWAP1 PUSH2 0x2A1 SWAP2 SWAP1 PUSH2 0x16BC JUMP JUMPDEST PUSH2 0xEF2 JUMP JUMPDEST PUSH1 0x40 MLOAD PUSH2 0x2B3 SWAP2 SWAP1 PUSH2 0x1603 JUMP JUMPDEST PUSH1 0x40 MLOAD DUP1 SWAP2 SUB SWAP1 RETURN JUMPDEST PUSH2 0x2D6 PUSH1 0x4 DUP1 CALLDATASIZE SUB DUP2 ADD SWAP1 PUSH2 0x2D1 SWAP2 SWAP1 PUSH2 0x22B8 JUMP JUMPDEST PUSH2 0x1307 JUMP JUMPDEST PUSH1 0x40 MLOAD PUSH2 0x2E3 SWAP2 SWAP1 PUSH2 0x237E JUMP JUMPDEST PUSH1 0x40 MLOAD DUP1 SWAP2 SUB SWAP1 RETURN JUMPDEST PUSH2 0x306 PUSH1 0x4 DUP1 CALLDATASIZE SUB DUP2 ADD SWAP1 PUSH2 0x301 SWAP2 SWAP1 PUSH2 0x1CAA JUMP JUMPDEST PUSH2 0x14D3 JUMP JUMPDEST PUSH1 0x40 MLOAD PUSH2 0x313 SWAP2 SWAP1 PUSH2 0x23BB JUMP JUMPDEST PUSH1 0x40 MLOAD DUP1 SWAP2 SUB SWAP1 RETURN JUMPDEST PUSH2 0x336 PUSH1 0x4 DUP1 CALLDATASIZE SUB DUP2 ADD SWAP1 PUSH2 0x331 SWAP2 SWAP1 PUSH2 0x23D6 JUMP JUMPDEST PUSH2 0x14F3 JUMP JUMPDEST PUSH1 0x40 MLOAD PUSH2 0x343 SWAP2 SWAP1 PUSH2 0x1603 JUMP JUMPDEST PUSH1 0x40 MLOAD DUP1 SWAP2 SUB SWAP1 RETURN JUMPDEST PUSH2 0x354 PUSH2 0x151D JUMP JUMPDEST PUSH1 0x40 MLOAD PUSH2 0x361 SWAP2 SWAP1 PUSH2 0x1603 JUMP JUMPDEST PUSH1 0x40 MLOAD DUP1 SWAP2 SUB SWAP1 RETURN JUMPDEST PUSH1 0x0 PUSH1 0x2 PUSH1 0x0 PUSH1 0x8 SLOAD DUP2 MSTORE PUSH1 0x20 ADD SWAP1 DUP2 MSTORE PUSH1 0x20 ADD PUSH1 0x0 KECCAK256 PUSH1 0x1 ADD SLOAD SWAP1 POP SWAP1 JUMP JUMPDEST PUSH1 0x60 PUSH1 0x0 PUSH2 0x397 DUP5 PUSH2 0x7AD JUMP JUMPDEST SWAP1 POP PUSH1 0x0 DUP1 DUP3 PUSH8 0xFFFFFFFFFFFFFFFF DUP2 GT ISZERO PUSH2 0x3B6 JUMPI PUSH2 0x3B5 PUSH2 0x19F9 JUMP JUMPDEST JUMPDEST PUSH1 0x40 MLOAD SWAP1 DUP1 DUP3 MSTORE DUP1 PUSH1 0x20 MUL PUSH1 0x20 ADD DUP3 ADD PUSH1 0x40 MSTORE DUP1 ISZERO PUSH2 0x3EF JUMPI DUP2 PUSH1 0x20 ADD JUMPDEST PUSH2 0x3DC PUSH2 0x1568 JUMP JUMPDEST DUP2 MSTORE PUSH1 0x20 ADD SWAP1 PUSH1 0x1 SWAP1 SUB SWAP1 DUP2 PUSH2 0x3D4 JUMPI SWAP1 POP JUMPDEST POP SWAP1 POP PUSH1 0x0 DUP4 PUSH8 0xFFFFFFFFFFFFFFFF DUP2 GT ISZERO PUSH2 0x40E JUMPI PUSH2 0x40D PUSH2 0x19F9 JUMP JUMPDEST JUMPDEST PUSH1 0x40 MLOAD SWAP1 DUP1 DUP3 MSTORE DUP1 PUSH1 0x20 MUL PUSH1 0x20 ADD DUP3 ADD PUSH1 0x40 MSTORE DUP1 ISZERO PUSH2 0x447 JUMPI DUP2 PUSH1 0x20 ADD JUMPDEST PUSH2 0x434 PUSH2 0x1595 JUMP JUMPDEST DUP2 MSTORE PUSH1 0x20 ADD SWAP1 PUSH1 0x1 SWAP1 SUB SWAP1 DUP2 PUSH2 0x42C JUMPI SWAP1 POP JUMPDEST POP SWAP1 POP PUSH2 0x453 DUP8 PUSH2 0xBC3 JUMP JUMPDEST SWAP1 POP PUSH1 0x0 JUMPDEST DUP5 DUP2 LT ISZERO PUSH2 0x5D3 JUMPI DUP2 DUP2 DUP2 MLOAD DUP2 LT PUSH2 0x473 JUMPI PUSH2 0x472 PUSH2 0x241F JUMP JUMPDEST JUMPDEST PUSH1 0x20 MUL PUSH1 0x20 ADD ADD MLOAD PUSH1 0x0 ADD MLOAD SWAP4 POP PUSH1 0x40 MLOAD DUP1 PUSH1 0x60 ADD PUSH1 0x40 MSTORE DUP1 DUP6 PUSH4 0xFFFFFFFF AND DUP2 MSTORE PUSH1 0x20 ADD PUSH1 0x4 PUSH1 0x0 DUP11 PUSH20 0xFFFFFFFFFFFFFFFFFFFFFFFFFFFFFFFFFFFFFFFF AND PUSH20 0xFFFFFFFFFFFFFFFFFFFFFFFFFFFFFFFFFFFFFFFF AND DUP2 MSTORE PUSH1 0x20 ADD SWAP1 DUP2 MSTORE PUSH1 0x20 ADD PUSH1 0x0 KECCAK256 PUSH1 0x0 DUP12 DUP2 MSTORE PUSH1 0x20 ADD SWAP1 DUP2 MSTORE PUSH1 0x20 ADD PUSH1 0x0 KECCAK256 PUSH1 0x0 DUP8 PUSH4 0xFFFFFFFF AND PUSH4 0xFFFFFFFF AND DUP2 MSTORE PUSH1 0x20 ADD SWAP1 DUP2 MSTORE PUSH1 0x20 ADD PUSH1 0x0 KECCAK256 PUSH1 0x0 ADD PUSH1 0x0 SWAP1 SLOAD SWAP1 PUSH2 0x100 EXP SWAP1 DIV PUSH1 0xFF AND PUSH1 0xFF AND DUP2 MSTORE PUSH1 0x20 ADD PUSH1 0x4 PUSH1 0x0 DUP11 PUSH20 0xFFFFFFFFFFFFFFFFFFFFFFFFFFFFFFFFFFFFFFFF AND PUSH20 0xFFFFFFFFFFFFFFFFFFFFFFFFFFFFFFFFFFFFFFFF AND DUP2 MSTORE PUSH1 0x20 ADD SWAP1 DUP2 MSTORE PUSH1 0x20 ADD PUSH1 0x0 KECCAK256 PUSH1 0x0 DUP12 DUP2 MSTORE PUSH1 0x20 ADD SWAP1 DUP2 MSTORE PUSH1 0x20 ADD PUSH1 0x0 KECCAK256 PUSH1 0x0 DUP8 PUSH4 0xFFFFFFFF AND PUSH4 0xFFFFFFFF AND DUP2 MSTORE PUSH1 0x20 ADD SWAP1 DUP2 MSTORE PUSH1 0x20 ADD PUSH1 0x0 KECCAK256 PUSH1 0x0 ADD PUSH1 0x1 SWAP1 SLOAD SWAP1 PUSH2 0x100 EXP SWAP1 DIV PUSH1 0xFF AND PUSH1 0xFF AND DUP2 MSTORE POP DUP4 DUP3 DUP2 MLOAD DUP2 LT PUSH2 0x5B5 JUMPI PUSH2 0x5B4 PUSH2 0x241F JUMP JUMPDEST JUMPDEST PUSH1 0x20 MUL PUSH1 0x20 ADD ADD DUP2 SWAP1 MSTORE POP DUP1 DUP1 PUSH2 0x5CB SWAP1 PUSH2 0x247D JUMP JUMPDEST SWAP2 POP POP PUSH2 0x458 JUMP JUMPDEST POP DUP2 SWAP5 POP POP POP POP POP SWAP3 SWAP2 POP POP JUMP JUMPDEST PUSH1 0x60 PUSH1 0x1 PUSH1 0x0 DUP4 DUP2 MSTORE PUSH1 0x20 ADD SWAP1 DUP2 MSTORE PUSH1 0x20 ADD PUSH1 0x0 KECCAK256 DUP1 SLOAD DUP1 PUSH1 0x20 MUL PUSH1 0x20 ADD PUSH1 0x40 MLOAD SWAP1 DUP2 ADD PUSH1 0x40 MSTORE DUP1 SWAP3 SWAP2 SWAP1 DUP2 DUP2 MSTORE PUSH1 0x20 ADD PUSH1 0x0 SWAP1 JUMPDEST DUP3 DUP3 LT ISZERO PUSH2 0x6C2 JUMPI DUP4 DUP3 SWAP1 PUSH1 0x0 MSTORE PUSH1 0x20 PUSH1 0x0 KECCAK256 ADD DUP1 SLOAD PUSH2 0x635 SWAP1 PUSH2 0x24F4 JUMP JUMPDEST DUP1 PUSH1 0x1F ADD PUSH1 0x20 DUP1 SWAP2 DIV MUL PUSH1 0x20 ADD PUSH1 0x40 MLOAD SWAP1 DUP2 ADD PUSH1 0x40 MSTORE DUP1 SWAP3 SWAP2 SWAP1 DUP2 DUP2 MSTORE PUSH1 0x20 ADD DUP3 DUP1 SLOAD PUSH2 0x661 SWAP1 PUSH2 0x24F4 JUMP JUMPDEST DUP1 ISZERO PUSH2 0x6AE JUMPI DUP1 PUSH1 0x1F LT PUSH2 0x683 JUMPI PUSH2 0x100 DUP1 DUP4 SLOAD DIV MUL DUP4 MSTORE SWAP2 PUSH1 0x20 ADD SWAP2 PUSH2 0x6AE JUMP JUMPDEST DUP3 ADD SWAP2 SWAP1 PUSH1 0x0 MSTORE PUSH1 0x20 PUSH1 0x0 KECCAK256 SWAP1 JUMPDEST DUP2 SLOAD DUP2 MSTORE SWAP1 PUSH1 0x1 ADD SWAP1 PUSH1 0x20 ADD DUP1 DUP4 GT PUSH2 0x691 JUMPI DUP3 SWAP1 SUB PUSH1 0x1F AND DUP3 ADD SWAP2 JUMPDEST POP POP POP POP POP DUP2 MSTORE PUSH1 0x20 ADD SWAP1 PUSH1 0x1 ADD SWAP1 PUSH2 0x616 JUMP JUMPDEST POP POP POP POP SWAP1 POP SWAP2 SWAP1 POP JUMP JUMPDEST PUSH1 0x8 PUSH1 0x0 DUP2 SLOAD DUP1 SWAP3 SWAP2 SWAP1 PUSH2 0x6E0 SWAP1 PUSH2 0x247D JUMP JUMPDEST SWAP2 SWAP1 POP SSTORE POP PUSH1 0x0 JUMPDEST DUP3 MLOAD DUP2 LT ISZERO PUSH2 0x766 JUMPI PUSH1 0x1 PUSH1 0x0 PUSH1 0x8 SLOAD DUP2 MSTORE PUSH1 0x20 ADD SWAP1 DUP2 MSTORE PUSH1 0x20 ADD PUSH1 0x0 KECCAK256 DUP4 DUP3 DUP2 MLOAD DUP2 LT PUSH2 0x719 JUMPI PUSH2 0x718 PUSH2 0x241F JUMP JUMPDEST JUMPDEST PUSH1 0x20 MUL PUSH1 0x20 ADD ADD MLOAD SWAP1 DUP1 PUSH1 0x1 DUP2 SLOAD ADD DUP1 DUP3 SSTORE DUP1 SWAP2 POP POP PUSH1 0x1 SWAP1 SUB SWAP1 PUSH1 0x0 MSTORE PUSH1 0x20 PUSH1 0x0 KECCAK256 ADD PUSH1 0x0 SWAP1 SWAP2 SWAP1 SWAP2 SWAP1 SWAP2 POP SWAP1 DUP2 PUSH2 0x752 SWAP2 SWAP1 PUSH2 0x26D1 JUMP JUMPDEST POP DUP1 DUP1 PUSH2 0x75E SWAP1 PUSH2 0x247D JUMP JUMPDEST SWAP2 POP POP PUSH2 0x6E8 JUMP JUMPDEST POP PUSH1 0x40 MLOAD DUP1 PUSH1 0x40 ADD PUSH1 0x40 MSTORE DUP1 DUP5 DUP2 MSTORE PUSH1 0x20 ADD DUP3 DUP2 MSTORE POP PUSH1 0x2 PUSH1 0x0 PUSH1 0x8 SLOAD DUP2 MSTORE PUSH1 0x20 ADD SWAP1 DUP2 MSTORE PUSH1 0x20 ADD PUSH1 0x0 KECCAK256 PUSH1 0x0 DUP3 ADD MLOAD DUP2 PUSH1 0x0 ADD SSTORE PUSH1 0x20 DUP3 ADD MLOAD DUP2 PUSH1 0x1 ADD SSTORE SWAP1 POP POP POP POP POP JUMP JUMPDEST PUSH1 0x0 DUP1 PUSH1 0x0 SWAP1 POP PUSH1 0x0 JUMPDEST PUSH1 0x1 PUSH1 0x0 DUP6 DUP2 MSTORE PUSH1 0x20 ADD SWAP1 DUP2 MSTORE PUSH1 0x20 ADD PUSH1 0x0 KECCAK256 DUP1 SLOAD SWAP1 POP DUP2 LT ISZERO PUSH2 0x845 JUMPI PUSH1 0x0 PUSH1 0x1 PUSH1 0x0 DUP7 DUP2 MSTORE PUSH1 0x20 ADD SWAP1 DUP2 MSTORE PUSH1 0x20 ADD PUSH1 0x0 KECCAK256 DUP3 DUP2 SLOAD DUP2 LT PUSH2 0x7FC JUMPI PUSH2 0x7FB PUSH2 0x241F JUMP JUMPDEST JUMPDEST SWAP1 PUSH1 0x0 MSTORE PUSH1 0x20 PUSH1 0x0 KECCAK256 ADD PUSH1 0x40 MLOAD PUSH2 0x813 SWAP2 SWAP1 PUSH2 0x2831 JUMP JUMPDEST SWAP1 DUP2 MSTORE PUSH1 0x20 ADD PUSH1 0x40 MLOAD DUP1 SWAP2 SUB SWAP1 KECCAK256 DUP1 SLOAD SWAP1 POP DUP3 PUSH2 0x830 SWAP2 SWAP1 PUSH2 0x2848 JUMP JUMPDEST SWAP2 POP DUP1 DUP1 PUSH2 0x83D SWAP1 PUSH2 0x247D JUMP JUMPDEST SWAP2 POP POP PUSH2 0x7B7 JUMP JUMPDEST POP DUP1 SWAP2 POP POP SWAP2 SWAP1 POP JUMP JUMPDEST PUSH2 0x857 PUSH2 0x15CA JUMP JUMPDEST PUSH1 0x3 PUSH1 0x0 DUP4 PUSH4 0xFFFFFFFF AND PUSH4 0xFFFFFFFF AND DUP2 MSTORE PUSH1 0x20 ADD SWAP1 DUP2 MSTORE PUSH1 0x20 ADD PUSH1 0x0 KECCAK256 PUSH1 0x40 MLOAD DUP1 PUSH1 0x40 ADD PUSH1 0x40 MSTORE SWAP1 DUP2 PUSH1 0x0 DUP3 ADD PUSH1 0x0 SWAP1 SLOAD SWAP1 PUSH2 0x100 EXP SWAP1 DIV PUSH1 0xFF AND PUSH1 0xFF AND PUSH1 0xFF AND DUP2 MSTORE PUSH1 0x20 ADD PUSH1 0x0 DUP3 ADD PUSH1 0x1 SWAP1 SLOAD SWAP1 PUSH2 0x100 EXP SWAP1 DIV PUSH1 0xFF AND PUSH1 0xFF AND PUSH1 0xFF AND DUP2 MSTORE POP POP SWAP1 POP SWAP2 SWAP1 POP JUMP JUMPDEST PUSH1 0x0 JUMPDEST DUP2 MLOAD DUP2 LT ISZERO PUSH2 0xA4C JUMPI PUSH1 0x0 DUP4 PUSH1 0x40 MLOAD PUSH2 0x8DE SWAP2 SWAP1 PUSH2 0x28CF JUMP JUMPDEST SWAP1 DUP2 MSTORE PUSH1 0x20 ADD PUSH1 0x40 MLOAD DUP1 SWAP2 SUB SWAP1 KECCAK256 PUSH1 0x40 MLOAD DUP1 PUSH1 0x80 ADD PUSH1 0x40 MSTORE DUP1 DUP5 DUP5 DUP2 MLOAD DUP2 LT PUSH2 0x90A JUMPI PUSH2 0x909 PUSH2 0x241F JUMP JUMPDEST JUMPDEST PUSH1 0x20 MUL PUSH1 0x20 ADD ADD MLOAD PUSH1 0x0 ADD MLOAD PUSH4 0xFFFFFFFF AND DUP2 MSTORE PUSH1 0x20 ADD DUP5 DUP5 DUP2 MLOAD DUP2 LT PUSH2 0x934 JUMPI PUSH2 0x933 PUSH2 0x241F JUMP JUMPDEST JUMPDEST PUSH1 0x20 MUL PUSH1 0x20 ADD ADD MLOAD PUSH1 0x20 ADD MLOAD PUSH5 0xFFFFFFFFFF AND DUP2 MSTORE PUSH1 0x20 ADD DUP5 DUP5 DUP2 MLOAD DUP2 LT PUSH2 0x95F JUMPI PUSH2 0x95E PUSH2 0x241F JUMP JUMPDEST JUMPDEST PUSH1 0x20 MUL PUSH1 0x20 ADD ADD MLOAD PUSH1 0x40 ADD MLOAD DUP2 MSTORE PUSH1 0x20 ADD DUP5 DUP5 DUP2 MLOAD DUP2 LT PUSH2 0x983 JUMPI PUSH2 0x982 PUSH2 0x241F JUMP JUMPDEST JUMPDEST PUSH1 0x20 MUL PUSH1 0x20 ADD ADD MLOAD PUSH1 0x60 ADD MLOAD DUP2 MSTORE POP SWAP1 DUP1 PUSH1 0x1 DUP2 SLOAD ADD DUP1 DUP3 SSTORE DUP1 SWAP2 POP POP PUSH1 0x1 SWAP1 SUB SWAP1 PUSH1 0x0 MSTORE PUSH1 0x20 PUSH1 0x0 KECCAK256 SWAP1 PUSH1 0x3 MUL ADD PUSH1 0x0 SWAP1 SWAP2 SWAP1 SWAP2 SWAP1 SWAP2 POP PUSH1 0x0 DUP3 ADD MLOAD DUP2 PUSH1 0x0 ADD PUSH1 0x0 PUSH2 0x100 EXP DUP2 SLOAD DUP2 PUSH4 0xFFFFFFFF MUL NOT AND SWAP1 DUP4 PUSH4 0xFFFFFFFF AND MUL OR SWAP1 SSTORE POP PUSH1 0x20 DUP3 ADD MLOAD DUP2 PUSH1 0x0 ADD PUSH1 0x4 PUSH2 0x100 EXP DUP2 SLOAD DUP2 PUSH5 0xFFFFFFFFFF MUL NOT AND SWAP1 DUP4 PUSH5 0xFFFFFFFFFF AND MUL OR SWAP1 SSTORE POP PUSH1 0x40 DUP3 ADD MLOAD DUP2 PUSH1 0x1 ADD SWAP1 DUP2 PUSH2 0xA20 SWAP2 SWAP1 PUSH2 0x26D1 JUMP JUMPDEST POP PUSH1 0x60 DUP3 ADD MLOAD DUP2 PUSH1 0x2 ADD SWAP1 DUP2 PUSH2 0xA36 SWAP2 SWAP1 PUSH2 0x26D1 JUMP JUMPDEST POP POP POP DUP1 DUP1 PUSH2 0xA44 SWAP1 PUSH2 0x247D JUMP JUMPDEST SWAP2 POP POP PUSH2 0x8C5 JUMP JUMPDEST POP POP POP JUMP JUMPDEST PUSH1 0x0 JUMPDEST DUP2 MLOAD DUP2 LT ISZERO PUSH2 0xB9F JUMPI PUSH1 0x40 MLOAD DUP1 PUSH1 0x40 ADD PUSH1 0x40 MSTORE DUP1 DUP4 DUP4 DUP2 MLOAD DUP2 LT PUSH2 0xA7B JUMPI PUSH2 0xA7A PUSH2 0x241F JUMP JUMPDEST JUMPDEST PUSH1 0x20 MUL PUSH1 0x20 ADD ADD MLOAD PUSH1 0x20 ADD MLOAD PUSH1 0xFF AND DUP2 MSTORE PUSH1 0x20 ADD DUP4 DUP4 DUP2 MLOAD DUP2 LT PUSH2 0xAA2 JUMPI PUSH2 0xAA1 PUSH2 0x241F JUMP JUMPDEST JUMPDEST PUSH1 0x20 MUL PUSH1 0x20 ADD ADD MLOAD PUSH1 0x40 ADD MLOAD PUSH1 0xFF AND DUP2 MSTORE POP PUSH1 0x3 PUSH1 0x0 DUP5 DUP5 DUP2 MLOAD DUP2 LT PUSH2 0xACB JUMPI PUSH2 0xACA PUSH2 0x241F JUMP JUMPDEST JUMPDEST PUSH1 0x20 MUL PUSH1 0x20 ADD ADD MLOAD PUSH1 0x0 ADD MLOAD PUSH4 0xFFFFFFFF AND PUSH4 0xFFFFFFFF AND DUP2 MSTORE PUSH1 0x20 ADD SWAP1 DUP2 MSTORE PUSH1 0x20 ADD PUSH1 0x0 KECCAK256 PUSH1 0x0 DUP3 ADD MLOAD DUP2 PUSH1 0x0 ADD PUSH1 0x0 PUSH2 0x100 EXP DUP2 SLOAD DUP2 PUSH1 0xFF MUL NOT AND SWAP1 DUP4 PUSH1 0xFF AND MUL OR SWAP1 SSTORE POP PUSH1 0x20 DUP3 ADD MLOAD DUP2 PUSH1 0x0 ADD PUSH1 0x1 PUSH2 0x100 EXP DUP2 SLOAD DUP2 PUSH1 0xFF MUL NOT AND SWAP1 DUP4 PUSH1 0xFF AND MUL OR SWAP1 SSTORE POP SWAP1 POP POP PUSH1 0x1 PUSH1 0x9 PUSH1 0x0 DUP5 DUP5 DUP2 MLOAD DUP2 LT PUSH2 0xB4F JUMPI PUSH2 0xB4E PUSH2 0x241F JUMP JUMPDEST JUMPDEST PUSH1 0x20 MUL PUSH1 0x20 ADD ADD MLOAD PUSH1 0x0 ADD MLOAD PUSH4 0xFFFFFFFF AND PUSH4 0xFFFFFFFF AND DUP2 MSTORE PUSH1 0x20 ADD SWAP1 DUP2 MSTORE PUSH1 0x20 ADD PUSH1 0x0 KECCAK256 PUSH1 0x0 PUSH2 0x100 EXP DUP2 SLOAD DUP2 PUSH1 0xFF MUL NOT AND SWAP1 DUP4 ISZERO ISZERO MUL OR SWAP1 SSTORE POP DUP1 DUP1 PUSH2 0xB97 SWAP1 PUSH2 0x247D JUMP JUMPDEST SWAP2 POP POP PUSH2 0xA54 JUMP JUMPDEST POP POP JUMP JUMPDEST PUSH1 0x0 PUSH1 0x5 PUSH1 0x0 DUP4 DUP2 MSTORE PUSH1 0x20 ADD SWAP1 DUP2 MSTORE PUSH1 0x20 ADD PUSH1 0x0 KECCAK256 DUP1 SLOAD SWAP1 POP SWAP1 POP SWAP2 SWAP1 POP JUMP JUMPDEST PUSH1 0x60 PUSH1 0x0 PUSH2 0xBD0 DUP4 PUSH2 0x7AD JUMP JUMPDEST SWAP1 POP PUSH1 0x0 DUP1 DUP3 PUSH8 0xFFFFFFFFFFFFFFFF DUP2 GT ISZERO PUSH2 0xBEF JUMPI PUSH2 0xBEE PUSH2 0x19F9 JUMP JUMPDEST JUMPDEST PUSH1 0x40 MLOAD SWAP1 DUP1 DUP3 MSTORE DUP1 PUSH1 0x20 MUL PUSH1 0x20 ADD DUP3 ADD PUSH1 0x40 MSTORE DUP1 ISZERO PUSH2 0xC28 JUMPI DUP2 PUSH1 0x20 ADD JUMPDEST PUSH2 0xC15 PUSH2 0x1595 JUMP JUMPDEST DUP2 MSTORE PUSH1 0x20 ADD SWAP1 PUSH1 0x1 SWAP1 SUB SWAP1 DUP2 PUSH2 0xC0D JUMPI SWAP1 POP JUMPDEST POP SWAP1 POP PUSH1 0x0 JUMPDEST PUSH1 0x1 PUSH1 0x0 DUP8 DUP2 MSTORE PUSH1 0x20 ADD SWAP1 DUP2 MSTORE PUSH1 0x20 ADD PUSH1 0x0 KECCAK256 DUP1 SLOAD SWAP1 POP DUP2 LT ISZERO PUSH2 0xEE6 JUMPI PUSH1 0x0 PUSH1 0x1 PUSH1 0x0 DUP9 DUP2 MSTORE PUSH1 0x20 ADD SWAP1 DUP2 MSTORE PUSH1 0x20 ADD PUSH1 0x0 KECCAK256 DUP3 DUP2 SLOAD DUP2 LT PUSH2 0xC73 JUMPI PUSH2 0xC72 PUSH2 0x241F JUMP JUMPDEST JUMPDEST SWAP1 PUSH1 0x0 MSTORE PUSH1 0x20 PUSH1 0x0 KECCAK256 ADD PUSH1 0x40 MLOAD PUSH2 0xC8A SWAP2 SWAP1 PUSH2 0x2831 JUMP JUMPDEST SWAP1 DUP2 MSTORE PUSH1 0x20 ADD PUSH1 0x40 MLOAD DUP1 SWAP2 SUB SWAP1 KECCAK256 DUP1 SLOAD SWAP1 POP SWAP4 POP PUSH1 0x0 JUMPDEST DUP5 DUP2 LT ISZERO PUSH2 0xED2 JUMPI PUSH1 0x0 PUSH1 0x1 PUSH1 0x0 DUP10 DUP2 MSTORE PUSH1 0x20 ADD SWAP1 DUP2 MSTORE PUSH1 0x20 ADD PUSH1 0x0 KECCAK256 DUP4 DUP2 SLOAD DUP2 LT PUSH2 0xCD0 JUMPI PUSH2 0xCCF PUSH2 0x241F JUMP JUMPDEST JUMPDEST SWAP1 PUSH1 0x0 MSTORE PUSH1 0x20 PUSH1 0x0 KECCAK256 ADD PUSH1 0x40 MLOAD PUSH2 0xCE7 SWAP2 SWAP1 PUSH2 0x2831 JUMP JUMPDEST SWAP1 DUP2 MSTORE PUSH1 0x20 ADD PUSH1 0x40 MLOAD DUP1 SWAP2 SUB SWAP1 KECCAK256 DUP2 DUP2 SLOAD DUP2 LT PUSH2 0xD07 JUMPI PUSH2 0xD06 PUSH2 0x241F JUMP JUMPDEST JUMPDEST SWAP1 PUSH1 0x0 MSTORE PUSH1 0x20 PUSH1 0x0 KECCAK256 SWAP1 PUSH1 0x3 MUL ADD PUSH1 0x40 MLOAD DUP1 PUSH1 0x80 ADD PUSH1 0x40 MSTORE SWAP1 DUP2 PUSH1 0x0 DUP3 ADD PUSH1 0x0 SWAP1 SLOAD SWAP1 PUSH2 0x100 EXP SWAP1 DIV PUSH4 0xFFFFFFFF AND PUSH4 0xFFFFFFFF AND PUSH4 0xFFFFFFFF AND DUP2 MSTORE PUSH1 0x20 ADD PUSH1 0x0 DUP3 ADD PUSH1 0x4 SWAP1 SLOAD SWAP1 PUSH2 0x100 EXP SWAP1 DIV PUSH5 0xFFFFFFFFFF AND PUSH5 0xFFFFFFFFFF AND PUSH5 0xFFFFFFFFFF AND DUP2 MSTORE PUSH1 0x20 ADD PUSH1 0x1 DUP3 ADD DUP1 SLOAD PUSH2 0xD7F SWAP1 PUSH2 0x24F4 JUMP JUMPDEST DUP1 PUSH1 0x1F ADD PUSH1 0x20 DUP1 SWAP2 DIV MUL PUSH1 0x20 ADD PUSH1 0x40 MLOAD SWAP1 DUP2 ADD PUSH1 0x40 MSTORE DUP1 SWAP3 SWAP2 SWAP1 DUP2 DUP2 MSTORE PUSH1 0x20 ADD DUP3 DUP1 SLOAD PUSH2 0xDAB SWAP1 PUSH2 0x24F4 JUMP JUMPDEST DUP1 ISZERO PUSH2 0xDF8 JUMPI DUP1 PUSH1 0x1F LT PUSH2 0xDCD JUMPI PUSH2 0x100 DUP1 DUP4 SLOAD DIV MUL DUP4 MSTORE SWAP2 PUSH1 0x20 ADD SWAP2 PUSH2 0xDF8 JUMP JUMPDEST DUP3 ADD SWAP2 SWAP1 PUSH1 0x0 MSTORE PUSH1 0x20 PUSH1 0x0 KECCAK256 SWAP1 JUMPDEST DUP2 SLOAD DUP2 MSTORE SWAP1 PUSH1 0x1 ADD SWAP1 PUSH1 0x20 ADD DUP1 DUP4 GT PUSH2 0xDDB JUMPI DUP3 SWAP1 SUB PUSH1 0x1F AND DUP3 ADD SWAP2 JUMPDEST POP POP POP POP POP DUP2 MSTORE PUSH1 0x20 ADD PUSH1 0x2 DUP3 ADD DUP1 SLOAD PUSH2 0xE11 SWAP1 PUSH2 0x24F4 JUMP JUMPDEST DUP1 PUSH1 0x1F ADD PUSH1 0x20 DUP1 SWAP2 DIV MUL PUSH1 0x20 ADD PUSH1 0x40 MLOAD SWAP1 DUP2 ADD PUSH1 0x40 MSTORE DUP1 SWAP3 SWAP2 SWAP1 DUP2 DUP2 MSTORE PUSH1 0x20 ADD DUP3 DUP1 SLOAD PUSH2 0xE3D SWAP1 PUSH2 0x24F4 JUMP JUMPDEST DUP1 ISZERO PUSH2 0xE8A JUMPI DUP1 PUSH1 0x1F LT PUSH2 0xE5F JUMPI PUSH2 0x100 DUP1 DUP4 SLOAD DIV MUL DUP4 MSTORE SWAP2 PUSH1 0x20 ADD SWAP2 PUSH2 0xE8A JUMP JUMPDEST DUP3 ADD SWAP2 SWAP1 PUSH1 0x0 MSTORE PUSH1 0x20 PUSH1 0x0 KECCAK256 SWAP1 JUMPDEST DUP2 SLOAD DUP2 MSTORE SWAP1 PUSH1 0x1 ADD SWAP1 PUSH1 0x20 ADD DUP1 DUP4 GT PUSH2 0xE6D JUMPI DUP3 SWAP1 SUB PUSH1 0x1F AND DUP3 ADD SWAP2 JUMPDEST POP POP POP POP POP DUP2 MSTORE POP POP DUP4 DUP6 DUP2 MLOAD DUP2 LT PUSH2 0xEA6 JUMPI PUSH2 0xEA5 PUSH2 0x241F JUMP JUMPDEST JUMPDEST PUSH1 0x20 MUL PUSH1 0x20 ADD ADD DUP2 SWAP1 MSTORE POP DUP4 DUP1 PUSH2 0xEBC SWAP1 PUSH2 0x247D JUMP JUMPDEST SWAP5 POP POP DUP1 DUP1 PUSH2 0xECA SWAP1 PUSH2 0x247D JUMP JUMPDEST SWAP2 POP POP PUSH2 0xCA1 JUMP JUMPDEST POP DUP1 DUP1 PUSH2 0xEDE SWAP1 PUSH2 0x247D JUMP JUMPDEST SWAP2 POP POP PUSH2 0xC2E JUMP JUMPDEST POP DUP1 SWAP4 POP POP POP POP SWAP2 SWAP1 POP JUMP JUMPDEST PUSH1 0x0 DUP1 PUSH1 0x0 DUP1 PUSH1 0x0 SWAP1 POP PUSH1 0x0 DUP1 PUSH2 0xF08 DUP9 PUSH2 0x7AD JUMP JUMPDEST SWAP1 POP PUSH1 0x0 DUP2 PUSH8 0xFFFFFFFFFFFFFFFF DUP2 GT ISZERO PUSH2 0xF26 JUMPI PUSH2 0xF25 PUSH2 0x19F9 JUMP JUMPDEST JUMPDEST PUSH1 0x40 MLOAD SWAP1 DUP1 DUP3 MSTORE DUP1 PUSH1 0x20 MUL PUSH1 0x20 ADD DUP3 ADD PUSH1 0x40 MSTORE DUP1 ISZERO PUSH2 0xF5F JUMPI DUP2 PUSH1 0x20 ADD JUMPDEST PUSH2 0xF4C PUSH2 0x1595 JUMP JUMPDEST DUP2 MSTORE PUSH1 0x20 ADD SWAP1 PUSH1 0x1 SWAP1 SUB SWAP1 DUP2 PUSH2 0xF44 JUMPI SWAP1 POP JUMPDEST POP SWAP1 POP PUSH2 0xF6B DUP10 PUSH2 0xBC3 JUMP JUMPDEST SWAP1 POP PUSH1 0x0 JUMPDEST DUP3 DUP2 LT ISZERO PUSH2 0x12F7 JUMPI DUP2 DUP2 DUP2 MLOAD DUP2 LT PUSH2 0xF8B JUMPI PUSH2 0xF8A PUSH2 0x241F JUMP JUMPDEST JUMPDEST PUSH1 0x20 MUL PUSH1 0x20 ADD ADD MLOAD PUSH1 0x0 ADD MLOAD SWAP4 POP PUSH2 0x109D PUSH1 0x4 PUSH1 0x0 DUP12 PUSH20 0xFFFFFFFFFFFFFFFFFFFFFFFFFFFFFFFFFFFFFFFF AND PUSH20 0xFFFFFFFFFFFFFFFFFFFFFFFFFFFFFFFFFFFFFFFF AND DUP2 MSTORE PUSH1 0x20 ADD SWAP1 DUP2 MSTORE PUSH1 0x20 ADD PUSH1 0x0 KECCAK256 PUSH1 0x0 DUP13 DUP2 MSTORE PUSH1 0x20 ADD SWAP1 DUP2 MSTORE PUSH1 0x20 ADD PUSH1 0x0 KECCAK256 PUSH1 0x0 DUP7 PUSH4 0xFFFFFFFF AND PUSH4 0xFFFFFFFF AND DUP2 MSTORE PUSH1 0x20 ADD SWAP1 DUP2 MSTORE PUSH1 0x20 ADD PUSH1 0x0 KECCAK256 PUSH1 0x0 ADD PUSH1 0x0 SWAP1 SLOAD SWAP1 PUSH2 0x100 EXP SWAP1 DIV PUSH1 0xFF AND PUSH1 0x4 PUSH1 0x0 DUP13 PUSH20 0xFFFFFFFFFFFFFFFFFFFFFFFFFFFFFFFFFFFFFFFF AND PUSH20 0xFFFFFFFFFFFFFFFFFFFFFFFFFFFFFFFFFFFFFFFF AND DUP2 MSTORE PUSH1 0x20 ADD SWAP1 DUP2 MSTORE PUSH1 0x20 ADD PUSH1 0x0 KECCAK256 PUSH1 0x0 DUP14 DUP2 MSTORE PUSH1 0x20 ADD SWAP1 DUP2 MSTORE PUSH1 0x20 ADD PUSH1 0x0 KECCAK256 PUSH1 0x0 DUP8 PUSH4 0xFFFFFFFF AND PUSH4 0xFFFFFFFF AND DUP2 MSTORE PUSH1 0x20 ADD SWAP1 DUP2 MSTORE PUSH1 0x20 ADD PUSH1 0x0 KECCAK256 PUSH1 0x0 ADD PUSH1 0x1 SWAP1 SLOAD SWAP1 PUSH2 0x100 EXP SWAP1 DIV PUSH1 0xFF AND PUSH2 0x1527 JUMP JUMPDEST SWAP7 POP PUSH2 0x1107 PUSH1 0x3 PUSH1 0x0 DUP7 PUSH4 0xFFFFFFFF AND PUSH4 0xFFFFFFFF AND DUP2 MSTORE PUSH1 0x20 ADD SWAP1 DUP2 MSTORE PUSH1 0x20 ADD PUSH1 0x0 KECCAK256 PUSH1 0x0 ADD PUSH1 0x0 SWAP1 SLOAD SWAP1 PUSH2 0x100 EXP SWAP1 DIV PUSH1 0xFF AND PUSH1 0x3 PUSH1 0x0 DUP8 PUSH4 0xFFFFFFFF AND PUSH4 0xFFFFFFFF AND DUP2 MSTORE PUSH1 0x20 ADD SWAP1 DUP2 MSTORE PUSH1 0x20 ADD PUSH1 0x0 KECCAK256 PUSH1 0x0 ADD PUSH1 0x1 SWAP1 SLOAD SWAP1 PUSH2 0x100 EXP SWAP1 DIV PUSH1 0xFF AND PUSH2 0x1527 JUMP JUMPDEST SWAP6 POP DUP6 DUP8 EQ DUP1 ISZERO PUSH2 0x1148 JUMPI POP PUSH1 0x1 ISZERO ISZERO PUSH1 0x9 PUSH1 0x0 DUP7 PUSH4 0xFFFFFFFF AND PUSH4 0xFFFFFFFF AND DUP2 MSTORE PUSH1 0x20 ADD SWAP1 DUP2 MSTORE PUSH1 0x20 ADD PUSH1 0x0 KECCAK256 PUSH1 0x0 SWAP1 SLOAD SWAP1 PUSH2 0x100 EXP SWAP1 DIV PUSH1 0xFF AND ISZERO ISZERO EQ JUMPDEST ISZERO PUSH2 0x12E4 JUMPI PUSH1 0x1 DUP6 PUSH2 0x115A SWAP2 SWAP1 PUSH2 0x2848 JUMP JUMPDEST SWAP5 POP PUSH1 0x3 PUSH1 0x0 DUP6 PUSH4 0xFFFFFFFF AND PUSH4 0xFFFFFFFF AND DUP2 MSTORE PUSH1 0x20 ADD SWAP1 DUP2 MSTORE PUSH1 0x20 ADD PUSH1 0x0 KECCAK256 PUSH1 0x0 ADD PUSH1 0x0 SWAP1 SLOAD SWAP1 PUSH2 0x100 EXP SWAP1 DIV PUSH1 0xFF AND PUSH1 0xFF AND PUSH1 0x4 PUSH1 0x0 DUP12 PUSH20 0xFFFFFFFFFFFFFFFFFFFFFFFFFFFFFFFFFFFFFFFF AND PUSH20 0xFFFFFFFFFFFFFFFFFFFFFFFFFFFFFFFFFFFFFFFF AND DUP2 MSTORE PUSH1 0x20 ADD SWAP1 DUP2 MSTORE PUSH1 0x20 ADD PUSH1 0x0 KECCAK256 PUSH1 0x0 DUP13 DUP2 MSTORE PUSH1 0x20 ADD SWAP1 DUP2 MSTORE PUSH1 0x20 ADD PUSH1 0x0 KECCAK256 PUSH1 0x0 DUP7 PUSH4 0xFFFFFFFF AND PUSH4 0xFFFFFFFF AND DUP2 MSTORE PUSH1 0x20 ADD SWAP1 DUP2 MSTORE PUSH1 0x20 ADD PUSH1 0x0 KECCAK256 PUSH1 0x0 ADD PUSH1 0x0 SWAP1 SLOAD SWAP1 PUSH2 0x100 EXP SWAP1 DIV PUSH1 0xFF AND PUSH1 0xFF AND EQ DUP1 ISZERO PUSH2 0x12CE JUMPI POP PUSH1 0x3 PUSH1 0x0 DUP6 PUSH4 0xFFFFFFFF AND PUSH4 0xFFFFFFFF AND DUP2 MSTORE PUSH1 0x20 ADD SWAP1 DUP2 MSTORE PUSH1 0x20 ADD PUSH1 0x0 KECCAK256 PUSH1 0x0 ADD PUSH1 0x1 SWAP1 SLOAD SWAP1 PUSH2 0x100 EXP SWAP1 DIV PUSH1 0xFF AND PUSH1 0xFF AND PUSH1 0x4 PUSH1 0x0 DUP12 PUSH20 0xFFFFFFFFFFFFFFFFFFFFFFFFFFFFFFFFFFFFFFFF AND PUSH20 0xFFFFFFFFFFFFFFFFFFFFFFFFFFFFFFFFFFFFFFFF AND DUP2 MSTORE PUSH1 0x20 ADD SWAP1 DUP2 MSTORE PUSH1 0x20 ADD PUSH1 0x0 KECCAK256 PUSH1 0x0 DUP13 DUP2 MSTORE PUSH1 0x20 ADD SWAP1 DUP2 MSTORE PUSH1 0x20 ADD PUSH1 0x0 KECCAK256 PUSH1 0x0 DUP7 PUSH4 0xFFFFFFFF AND PUSH4 0xFFFFFFFF AND DUP2 MSTORE PUSH1 0x20 ADD SWAP1 DUP2 MSTORE PUSH1 0x20 ADD PUSH1 0x0 KECCAK256 PUSH1 0x0 ADD PUSH1 0x1 SWAP1 SLOAD SWAP1 PUSH2 0x100 EXP SWAP1 DIV PUSH1 0xFF AND PUSH1 0xFF AND EQ JUMPDEST ISZERO PUSH2 0x12E3 JUMPI PUSH1 0x2 DUP6 PUSH2 0x12E0 SWAP2 SWAP1 PUSH2 0x2848 JUMP JUMPDEST SWAP5 POP JUMPDEST JUMPDEST DUP1 DUP1 PUSH2 0x12EF SWAP1 PUSH2 0x247D JUMP JUMPDEST SWAP2 POP POP PUSH2 0xF70 JUMP JUMPDEST POP DUP4 SWAP7 POP POP POP POP POP POP POP SWAP3 SWAP2 POP POP JUMP JUMPDEST PUSH2 0x130F PUSH2 0x1595 JUMP JUMPDEST PUSH1 0x0 DUP4 PUSH1 0x40 MLOAD PUSH2 0x131F SWAP2 SWAP1 PUSH2 0x28CF JUMP JUMPDEST SWAP1 DUP2 MSTORE PUSH1 0x20 ADD PUSH1 0x40 MLOAD DUP1 SWAP2 SUB SWAP1 KECCAK256 DUP3 DUP2 SLOAD DUP2 LT PUSH2 0x133F JUMPI PUSH2 0x133E PUSH2 0x241F JUMP JUMPDEST JUMPDEST SWAP1 PUSH1 0x0 MSTORE PUSH1 0x20 PUSH1 0x0 KECCAK256 SWAP1 PUSH1 0x3 MUL ADD PUSH1 0x40 MLOAD DUP1 PUSH1 0x80 ADD PUSH1 0x40 MSTORE SWAP1 DUP2 PUSH1 0x0 DUP3 ADD PUSH1 0x0 SWAP1 SLOAD SWAP1 PUSH2 0x100 EXP SWAP1 DIV PUSH4 0xFFFFFFFF AND PUSH4 0xFFFFFFFF AND PUSH4 0xFFFFFFFF AND DUP2 MSTORE PUSH1 0x20 ADD PUSH1 0x0 DUP3 ADD PUSH1 0x4 SWAP1 SLOAD SWAP1 PUSH2 0x100 EXP SWAP1 DIV PUSH5 0xFFFFFFFFFF AND PUSH5 0xFFFFFFFFFF AND PUSH5 0xFFFFFFFFFF AND DUP2 MSTORE PUSH1 0x20 ADD PUSH1 0x1 DUP3 ADD DUP1 SLOAD PUSH2 0x13B7 SWAP1 PUSH2 0x24F4 JUMP JUMPDEST DUP1 PUSH1 0x1F ADD PUSH1 0x20 DUP1 SWAP2 DIV MUL PUSH1 0x20 ADD PUSH1 0x40 MLOAD SWAP1 DUP2 ADD PUSH1 0x40 MSTORE DUP1 SWAP3 SWAP2 SWAP1 DUP2 DUP2 MSTORE PUSH1 0x20 ADD DUP3 DUP1 SLOAD PUSH2 0x13E3 SWAP1 PUSH2 0x24F4 JUMP JUMPDEST DUP1 ISZERO PUSH2 0x1430 JUMPI DUP1 PUSH1 0x1F LT PUSH2 0x1405 JUMPI PUSH2 0x100 DUP1 DUP4 SLOAD DIV MUL DUP4 MSTORE SWAP2 PUSH1 0x20 ADD SWAP2 PUSH2 0x1430 JUMP JUMPDEST DUP3 ADD SWAP2 SWAP1 PUSH1 0x0 MSTORE PUSH1 0x20 PUSH1 0x0 KECCAK256 SWAP1 JUMPDEST DUP2 SLOAD DUP2 MSTORE SWAP1 PUSH1 0x1 ADD SWAP1 PUSH1 0x20 ADD DUP1 DUP4 GT PUSH2 0x1413 JUMPI DUP3 SWAP1 SUB PUSH1 0x1F AND DUP3 ADD SWAP2 JUMPDEST POP POP POP POP POP DUP2 MSTORE PUSH1 0x20 ADD PUSH1 0x2 DUP3 ADD DUP1 SLOAD PUSH2 0x1449 SWAP1 PUSH2 0x24F4 JUMP JUMPDEST DUP1 PUSH1 0x1F ADD PUSH1 0x20 DUP1 SWAP2 DIV MUL PUSH1 0x20 ADD PUSH1 0x40 MLOAD SWAP1 DUP2 ADD PUSH1 0x40 MSTORE DUP1 SWAP3 SWAP2 SWAP1 DUP2 DUP2 MSTORE PUSH1 0x20 ADD DUP3 DUP1 SLOAD PUSH2 0x1475 SWAP1 PUSH2 0x24F4 JUMP JUMPDEST DUP1 ISZERO PUSH2 0x14C2 JUMPI DUP1 PUSH1 0x1F LT PUSH2 0x1497 JUMPI PUSH2 0x100 DUP1 DUP4 SLOAD DIV MUL DUP4 MSTORE SWAP2 PUSH1 0x20 ADD SWAP2 PUSH2 0x14C2 JUMP JUMPDEST DUP3 ADD SWAP2 SWAP1 PUSH1 0x0 MSTORE PUSH1 0x20 PUSH1 0x0 KECCAK256 SWAP1 JUMPDEST DUP2 SLOAD DUP2 MSTORE SWAP1 PUSH1 0x1 ADD SWAP1 PUSH1 0x20 ADD DUP1 DUP4 GT PUSH2 0x14A5 JUMPI DUP3 SWAP1 SUB PUSH1 0x1F AND DUP3 ADD SWAP2 JUMPDEST POP POP POP POP POP DUP2 MSTORE POP POP SWAP1 POP SWAP3 SWAP2 POP POP JUMP JUMPDEST PUSH1 0x9 PUSH1 0x20 MSTORE DUP1 PUSH1 0x0 MSTORE PUSH1 0x40 PUSH1 0x0 KECCAK256 PUSH1 0x0 SWAP2 POP SLOAD SWAP1 PUSH2 0x100 EXP SWAP1 DIV PUSH1 0xFF AND DUP2 JUMP JUMPDEST PUSH1 0x0 DUP1 DUP3 PUSH1 0x40 MLOAD PUSH2 0x1504 SWAP2 SWAP1 PUSH2 0x28CF JUMP JUMPDEST SWAP1 DUP2 MSTORE PUSH1 0x20 ADD PUSH1 0x40 MLOAD DUP1 SWAP2 SUB SWAP1 KECCAK256 DUP1 SLOAD SWAP1 POP SWAP1 POP SWAP2 SWAP1 POP JUMP JUMPDEST PUSH1 0x0 PUSH1 0x8 SLOAD SWAP1 POP SWAP1 JUMP JUMPDEST PUSH1 0x0 DUP1 DUP3 PUSH1 0xFF AND DUP5 PUSH1 0xFF AND GT ISZERO PUSH2 0x1541 JUMPI PUSH1 0x0 SWAP1 POP PUSH2 0x155E JUMP JUMPDEST DUP4 PUSH1 0xFF AND DUP4 PUSH1 0xFF AND GT ISZERO PUSH2 0x1558 JUMPI PUSH1 0x2 SWAP1 POP PUSH2 0x155D JUMP JUMPDEST PUSH1 0x1 SWAP1 POP JUMPDEST JUMPDEST DUP1 SWAP2 POP POP SWAP3 SWAP2 POP POP JUMP JUMPDEST PUSH1 0x40 MLOAD DUP1 PUSH1 0x60 ADD PUSH1 0x40 MSTORE DUP1 PUSH1 0x0 PUSH4 0xFFFFFFFF AND DUP2 MSTORE PUSH1 0x20 ADD PUSH1 0x0 PUSH1 0xFF AND DUP2 MSTORE PUSH1 0x20 ADD PUSH1 0x0 PUSH1 0xFF AND DUP2 MSTORE POP SWAP1 JUMP JUMPDEST PUSH1 0x40 MLOAD DUP1 PUSH1 0x80 ADD PUSH1 0x40 MSTORE DUP1 PUSH1 0x0 PUSH4 0xFFFFFFFF AND DUP2 MSTORE PUSH1 0x20 ADD PUSH1 0x0 PUSH5 0xFFFFFFFFFF AND DUP2 MSTORE PUSH1 0x20 ADD PUSH1 0x60 DUP2 MSTORE PUSH1 0x20 ADD PUSH1 0x60 DUP2 MSTORE POP SWAP1 JUMP JUMPDEST PUSH1 0x40 MLOAD DUP1 PUSH1 0x40 ADD PUSH1 0x40 MSTORE DUP1 PUSH1 0x0 PUSH1 0xFF AND DUP2 MSTORE PUSH1 0x20 ADD PUSH1 0x0 PUSH1 0xFF AND DUP2 MSTORE POP SWAP1 JUMP JUMPDEST PUSH1 0x0 DUP2 SWAP1 POP SWAP2 SWAP1 POP JUMP JUMPDEST PUSH2 0x15FD DUP2 PUSH2 0x15EA JUMP JUMPDEST DUP3 MSTORE POP POP JUMP JUMPDEST PUSH1 0x0 PUSH1 0x20 DUP3 ADD SWAP1 POP PUSH2 0x1618 PUSH1 0x0 DUP4 ADD DUP5 PUSH2 0x15F4 JUMP JUMPDEST SWAP3 SWAP2 POP POP JUMP JUMPDEST PUSH1 0x0 PUSH1 0x40 MLOAD SWAP1 POP SWAP1 JUMP JUMPDEST PUSH1 0x0 DUP1 REVERT JUMPDEST PUSH1 0x0 DUP1 REVERT JUMPDEST PUSH2 0x163B DUP2 PUSH2 0x15EA JUMP JUMPDEST DUP2 EQ PUSH2 0x1646 JUMPI PUSH1 0x0 DUP1 REVERT JUMPDEST POP JUMP JUMPDEST PUSH1 0x0 DUP2 CALLDATALOAD SWAP1 POP PUSH2 0x1658 DUP2 PUSH2 0x1632 JUMP JUMPDEST SWAP3 SWAP2 POP POP JUMP JUMPDEST PUSH1 0x0 PUSH20 0xFFFFFFFFFFFFFFFFFFFFFFFFFFFFFFFFFFFFFFFF DUP3 AND SWAP1 POP SWAP2 SWAP1 POP JUMP JUMPDEST PUSH1 0x0 PUSH2 0x1689 DUP3 PUSH2 0x165E JUMP JUMPDEST SWAP1 POP SWAP2 SWAP1 POP JUMP JUMPDEST PUSH2 0x1699 DUP2 PUSH2 0x167E JUMP JUMPDEST DUP2 EQ PUSH2 0x16A4 JUMPI PUSH1 0x0 DUP1 REVERT JUMPDEST POP JUMP JUMPDEST PUSH1 0x0 DUP2 CALLDATALOAD SWAP1 POP PUSH2 0x16B6 DUP2 PUSH2 0x1690 JUMP JUMPDEST SWAP3 SWAP2 POP POP JUMP JUMPDEST PUSH1 0x0 DUP1 PUSH1 0x40 DUP4 DUP6 SUB SLT ISZERO PUSH2 0x16D3 JUMPI PUSH2 0x16D2 PUSH2 0x1628 JUMP JUMPDEST JUMPDEST PUSH1 0x0 PUSH2 0x16E1 DUP6 DUP3 DUP7 ADD PUSH2 0x1649 JUMP JUMPDEST SWAP3 POP POP PUSH1 0x20 PUSH2 0x16F2 DUP6 DUP3 DUP7 ADD PUSH2 0x16A7 JUMP JUMPDEST SWAP2 POP POP SWAP3 POP SWAP3 SWAP1 POP JUMP JUMPDEST PUSH1 0x0 DUP2 MLOAD SWAP1 POP SWAP2 SWAP1 POP JUMP JUMPDEST PUSH1 0x0 DUP3 DUP3 MSTORE PUSH1 0x20 DUP3 ADD SWAP1 POP SWAP3 SWAP2 POP POP JUMP JUMPDEST PUSH1 0x0 DUP2 SWAP1 POP PUSH1 0x20 DUP3 ADD SWAP1 POP SWAP2 SWAP1 POP JUMP JUMPDEST PUSH1 0x0 PUSH4 0xFFFFFFFF DUP3 AND SWAP1 POP SWAP2 SWAP1 POP JUMP JUMPDEST PUSH2 0x1741 DUP2 PUSH2 0x1728 JUMP JUMPDEST DUP3 MSTORE POP POP JUMP JUMPDEST PUSH1 0x0 PUSH1 0xFF DUP3 AND SWAP1 POP SWAP2 SWAP1 POP JUMP JUMPDEST PUSH2 0x175D DUP2 PUSH2 0x1747 JUMP JUMPDEST DUP3 MSTORE POP POP JUMP JUMPDEST PUSH1 0x60 DUP3 ADD PUSH1 0x0 DUP3 ADD MLOAD PUSH2 0x1779 PUSH1 0x0 DUP6 ADD DUP3 PUSH2 0x1738 JUMP JUMPDEST POP PUSH1 0x20 DUP3 ADD MLOAD PUSH2 0x178C PUSH1 0x20 DUP6 ADD DUP3 PUSH2 0x1754 JUMP JUMPDEST POP PUSH1 0x40 DUP3 ADD MLOAD PUSH2 0x179F PUSH1 0x40 DUP6 ADD DUP3 PUSH2 0x1754 JUMP JUMPDEST POP POP POP POP JUMP JUMPDEST PUSH1 0x0 PUSH2 0x17B1 DUP4 DUP4 PUSH2 0x1763 JUMP JUMPDEST PUSH1 0x60 DUP4 ADD SWAP1 POP SWAP3 SWAP2 POP POP JUMP JUMPDEST PUSH1 0x0 PUSH1 0x20 DUP3 ADD SWAP1 POP SWAP2 SWAP1 POP JUMP JUMPDEST PUSH1 0x0 PUSH2 0x17D5 DUP3 PUSH2 0x16FC JUMP JUMPDEST PUSH2 0x17DF DUP2 DUP6 PUSH2 0x1707 JUMP JUMPDEST SWAP4 POP PUSH2 0x17EA DUP4 PUSH2 0x1718 JUMP JUMPDEST DUP1 PUSH1 0x0 JUMPDEST DUP4 DUP2 LT ISZERO PUSH2 0x181B JUMPI DUP2 MLOAD PUSH2 0x1802 DUP9 DUP3 PUSH2 0x17A5 JUMP JUMPDEST SWAP8 POP PUSH2 0x180D DUP4 PUSH2 0x17BD JUMP JUMPDEST SWAP3 POP POP PUSH1 0x1 DUP2 ADD SWAP1 POP PUSH2 0x17EE JUMP JUMPDEST POP DUP6 SWAP4 POP POP POP POP SWAP3 SWAP2 POP POP JUMP JUMPDEST PUSH1 0x0 PUSH1 0x20 DUP3 ADD SWAP1 POP DUP2 DUP2 SUB PUSH1 0x0 DUP4 ADD MSTORE PUSH2 0x1842 DUP2 DUP5 PUSH2 0x17CA JUMP JUMPDEST SWAP1 POP SWAP3 SWAP2 POP POP JUMP JUMPDEST PUSH1 0x0 PUSH1 0x20 DUP3 DUP5 SUB SLT ISZERO PUSH2 0x1860 JUMPI PUSH2 0x185F PUSH2 0x1628 JUMP JUMPDEST JUMPDEST PUSH1 0x0 PUSH2 0x186E DUP5 DUP3 DUP6 ADD PUSH2 0x1649 JUMP JUMPDEST SWAP2 POP POP SWAP3 SWAP2 POP POP JUMP JUMPDEST PUSH1 0x0 DUP2 MLOAD SWAP1 POP SWAP2 SWAP1 POP JUMP JUMPDEST PUSH1 0x0 DUP3 DUP3 MSTORE PUSH1 0x20 DUP3 ADD SWAP1 POP SWAP3 SWAP2 POP POP JUMP JUMPDEST PUSH1 0x0 DUP2 SWAP1 POP PUSH1 0x20 DUP3 ADD SWAP1 POP SWAP2 SWAP1 POP JUMP JUMPDEST PUSH1 0x0 DUP2 MLOAD SWAP1 POP SWAP2 SWAP1 POP JUMP JUMPDEST PUSH1 0x0 DUP3 DUP3 MSTORE PUSH1 0x20 DUP3 ADD SWAP1 POP SWAP3 SWAP2 POP POP JUMP JUMPDEST PUSH1 0x0 JUMPDEST DUP4 DUP2 LT ISZERO PUSH2 0x18DD JUMPI DUP1 DUP3 ADD MLOAD DUP2 DUP5 ADD MSTORE PUSH1 0x20 DUP2 ADD SWAP1 POP PUSH2 0x18C2 JUMP JUMPDEST DUP4 DUP2 GT ISZERO PUSH2 0x18EC JUMPI PUSH1 0x0 DUP5 DUP5 ADD MSTORE JUMPDEST POP POP POP POP JUMP JUMPDEST PUSH1 0x0 PUSH1 0x1F NOT PUSH1 0x1F DUP4 ADD AND SWAP1 POP SWAP2 SWAP1 POP JUMP JUMPDEST PUSH1 0x0 PUSH2 0x190E DUP3 PUSH2 0x18A3 JUMP JUMPDEST PUSH2 0x1918 DUP2 DUP6 PUSH2 0x18AE JUMP JUMPDEST SWAP4 POP PUSH2 0x1928 DUP2 DUP6 PUSH1 0x20 DUP7 ADD PUSH2 0x18BF JUMP JUMPDEST PUSH2 0x1931 DUP2 PUSH2 0x18F2 JUMP JUMPDEST DUP5 ADD SWAP2 POP POP SWAP3 SWAP2 POP POP JUMP JUMPDEST PUSH1 0x0 PUSH2 0x1948 DUP4 DUP4 PUSH2 0x1903 JUMP JUMPDEST SWAP1 POP SWAP3 SWAP2 POP POP JUMP JUMPDEST PUSH1 0x0 PUSH1 0x20 DUP3 ADD SWAP1 POP SWAP2 SWAP1 POP JUMP JUMPDEST PUSH1 0x0 PUSH2 0x1968 DUP3 PUSH2 0x1877 JUMP JUMPDEST PUSH2 0x1972 DUP2 DUP6 PUSH2 0x1882 JUMP JUMPDEST SWAP4 POP DUP4 PUSH1 0x20 DUP3 MUL DUP6 ADD PUSH2 0x1984 DUP6 PUSH2 0x1893 JUMP JUMPDEST DUP1 PUSH1 0x0 JUMPDEST DUP6 DUP2 LT ISZERO PUSH2 0x19C0 JUMPI DUP5 DUP5 SUB DUP10 MSTORE DUP2 MLOAD PUSH2 0x19A1 DUP6 DUP3 PUSH2 0x193C JUMP JUMPDEST SWAP5 POP PUSH2 0x19AC DUP4 PUSH2 0x1950 JUMP JUMPDEST SWAP3 POP PUSH1 0x20 DUP11 ADD SWAP10 POP POP PUSH1 0x1 DUP2 ADD SWAP1 POP PUSH2 0x1988 JUMP JUMPDEST POP DUP3 SWAP8 POP DUP8 SWAP6 POP POP POP POP POP POP SWAP3 SWAP2 POP POP JUMP JUMPDEST PUSH1 0x0 PUSH1 0x20 DUP3 ADD SWAP1 POP DUP2 DUP2 SUB PUSH1 0x0 DUP4 ADD MSTORE PUSH2 0x19EC DUP2 DUP5 PUSH2 0x195D JUMP JUMPDEST SWAP1 POP SWAP3 SWAP2 POP POP JUMP JUMPDEST PUSH1 0x0 DUP1 REVERT JUMPDEST PUSH32 0x4E487B7100000000000000000000000000000000000000000000000000000000 PUSH1 0x0 MSTORE PUSH1 0x41 PUSH1 0x4 MSTORE PUSH1 0x24 PUSH1 0x0 REVERT JUMPDEST PUSH2 0x1A31 DUP3 PUSH2 0x18F2 JUMP JUMPDEST DUP2 ADD DUP2 DUP2 LT PUSH8 0xFFFFFFFFFFFFFFFF DUP3 GT OR ISZERO PUSH2 0x1A50 JUMPI PUSH2 0x1A4F PUSH2 0x19F9 JUMP JUMPDEST JUMPDEST DUP1 PUSH1 0x40 MSTORE POP POP POP JUMP JUMPDEST PUSH1 0x0 PUSH2 0x1A63 PUSH2 0x161E JUMP JUMPDEST SWAP1 POP PUSH2 0x1A6F DUP3 DUP3 PUSH2 0x1A28 JUMP JUMPDEST SWAP2 SWAP1 POP JUMP JUMPDEST PUSH1 0x0 PUSH8 0xFFFFFFFFFFFFFFFF DUP3 GT ISZERO PUSH2 0x1A8F JUMPI PUSH2 0x1A8E PUSH2 0x19F9 JUMP JUMPDEST JUMPDEST PUSH1 0x20 DUP3 MUL SWAP1 POP PUSH1 0x20 DUP2 ADD SWAP1 POP SWAP2 SWAP1 POP JUMP JUMPDEST PUSH1 0x0 DUP1 REVERT JUMPDEST PUSH1 0x0 DUP1 REVERT JUMPDEST PUSH1 0x0 PUSH8 0xFFFFFFFFFFFFFFFF DUP3 GT ISZERO PUSH2 0x1AC5 JUMPI PUSH2 0x1AC4 PUSH2 0x19F9 JUMP JUMPDEST JUMPDEST PUSH2 0x1ACE DUP3 PUSH2 0x18F2 JUMP JUMPDEST SWAP1 POP PUSH1 0x20 DUP2 ADD SWAP1 POP SWAP2 SWAP1 POP JUMP JUMPDEST DUP3 DUP2 DUP4 CALLDATACOPY PUSH1 0x0 DUP4 DUP4 ADD MSTORE POP POP POP JUMP JUMPDEST PUSH1 0x0 PUSH2 0x1AFD PUSH2 0x1AF8 DUP5 PUSH2 0x1AAA JUMP JUMPDEST PUSH2 0x1A59 JUMP JUMPDEST SWAP1 POP DUP3 DUP2 MSTORE PUSH1 0x20 DUP2 ADD DUP5 DUP5 DUP5 ADD GT ISZERO PUSH2 0x1B19 JUMPI PUSH2 0x1B18 PUSH2 0x1AA5 JUMP JUMPDEST JUMPDEST PUSH2 0x1B24 DUP5 DUP3 DUP6 PUSH2 0x1ADB JUMP JUMPDEST POP SWAP4 SWAP3 POP POP POP JUMP JUMPDEST PUSH1 0x0 DUP3 PUSH1 0x1F DUP4 ADD SLT PUSH2 0x1B41 JUMPI PUSH2 0x1B40 PUSH2 0x19F4 JUMP JUMPDEST JUMPDEST DUP2 CALLDATALOAD PUSH2 0x1B51 DUP5 DUP3 PUSH1 0x20 DUP7 ADD PUSH2 0x1AEA JUMP JUMPDEST SWAP2 POP POP SWAP3 SWAP2 POP POP JUMP JUMPDEST PUSH1 0x0 PUSH2 0x1B6D PUSH2 0x1B68 DUP5 PUSH2 0x1A74 JUMP JUMPDEST PUSH2 0x1A59 JUMP JUMPDEST SWAP1 POP DUP1 DUP4 DUP3 MSTORE PUSH1 0x20 DUP3 ADD SWAP1 POP PUSH1 0x20 DUP5 MUL DUP4 ADD DUP6 DUP2 GT ISZERO PUSH2 0x1B90 JUMPI PUSH2 0x1B8F PUSH2 0x1AA0 JUMP JUMPDEST JUMPDEST DUP4 JUMPDEST DUP2 DUP2 LT ISZERO PUSH2 0x1BD7 JUMPI DUP1 CALLDATALOAD PUSH8 0xFFFFFFFFFFFFFFFF DUP2 GT ISZERO PUSH2 0x1BB5 JUMPI PUSH2 0x1BB4 PUSH2 0x19F4 JUMP JUMPDEST JUMPDEST DUP1 DUP7 ADD PUSH2 0x1BC2 DUP10 DUP3 PUSH2 0x1B2C JUMP JUMPDEST DUP6 MSTORE PUSH1 0x20 DUP6 ADD SWAP5 POP POP POP PUSH1 0x20 DUP2 ADD SWAP1 POP PUSH2 0x1B92 JUMP JUMPDEST POP POP POP SWAP4 SWAP3 POP POP POP JUMP JUMPDEST PUSH1 0x0 DUP3 PUSH1 0x1F DUP4 ADD SLT PUSH2 0x1BF6 JUMPI PUSH2 0x1BF5 PUSH2 0x19F4 JUMP JUMPDEST JUMPDEST DUP2 CALLDATALOAD PUSH2 0x1C06 DUP5 DUP3 PUSH1 0x20 DUP7 ADD PUSH2 0x1B5A JUMP JUMPDEST SWAP2 POP POP SWAP3 SWAP2 POP POP JUMP JUMPDEST PUSH1 0x0 DUP1 PUSH1 0x0 PUSH1 0x60 DUP5 DUP7 SUB SLT ISZERO PUSH2 0x1C28 JUMPI PUSH2 0x1C27 PUSH2 0x1628 JUMP JUMPDEST JUMPDEST PUSH1 0x0 PUSH2 0x1C36 DUP7 DUP3 DUP8 ADD PUSH2 0x1649 JUMP JUMPDEST SWAP4 POP POP PUSH1 0x20 DUP5 ADD CALLDATALOAD PUSH8 0xFFFFFFFFFFFFFFFF DUP2 GT ISZERO PUSH2 0x1C57 JUMPI PUSH2 0x1C56 PUSH2 0x162D JUMP JUMPDEST JUMPDEST PUSH2 0x1C63 DUP7 DUP3 DUP8 ADD PUSH2 0x1BE1 JUMP JUMPDEST SWAP3 POP POP PUSH1 0x40 PUSH2 0x1C74 DUP7 DUP3 DUP8 ADD PUSH2 0x1649 JUMP JUMPDEST SWAP2 POP POP SWAP3 POP SWAP3 POP SWAP3 JUMP JUMPDEST PUSH2 0x1C87 DUP2 PUSH2 0x1728 JUMP JUMPDEST DUP2 EQ PUSH2 0x1C92 JUMPI PUSH1 0x0 DUP1 REVERT JUMPDEST POP JUMP JUMPDEST PUSH1 0x0 DUP2 CALLDATALOAD SWAP1 POP PUSH2 0x1CA4 DUP2 PUSH2 0x1C7E JUMP JUMPDEST SWAP3 SWAP2 POP POP JUMP JUMPDEST PUSH1 0x0 PUSH1 0x20 DUP3 DUP5 SUB SLT ISZERO PUSH2 0x1CC0 JUMPI PUSH2 0x1CBF PUSH2 0x1628 JUMP JUMPDEST JUMPDEST PUSH1 0x0 PUSH2 0x1CCE DUP5 DUP3 DUP6 ADD PUSH2 0x1C95 JUMP JUMPDEST SWAP2 POP POP SWAP3 SWAP2 POP POP JUMP JUMPDEST PUSH1 0x40 DUP3 ADD PUSH1 0x0 DUP3 ADD MLOAD PUSH2 0x1CED PUSH1 0x0 DUP6 ADD DUP3 PUSH2 0x1754 JUMP JUMPDEST POP PUSH1 0x20 DUP3 ADD MLOAD PUSH2 0x1D00 PUSH1 0x20 DUP6 ADD DUP3 PUSH2 0x1754 JUMP JUMPDEST POP POP POP POP JUMP JUMPDEST PUSH1 0x0 PUSH1 0x40 DUP3 ADD SWAP1 POP PUSH2 0x1D1B PUSH1 0x0 DUP4 ADD DUP5 PUSH2 0x1CD7 JUMP JUMPDEST SWAP3 SWAP2 POP POP JUMP JUMPDEST PUSH1 0x0 PUSH8 0xFFFFFFFFFFFFFFFF DUP3 GT ISZERO PUSH2 0x1D3C JUMPI PUSH2 0x1D3B PUSH2 0x19F9 JUMP JUMPDEST JUMPDEST PUSH1 0x20 DUP3 MUL SWAP1 POP PUSH1 0x20 DUP2 ADD SWAP1 POP SWAP2 SWAP1 POP JUMP JUMPDEST PUSH1 0x0 DUP1 REVERT JUMPDEST PUSH1 0x0 DUP1 REVERT JUMPDEST PUSH1 0x0 PUSH5 0xFFFFFFFFFF DUP3 AND SWAP1 POP SWAP2 SWAP1 POP JUMP JUMPDEST PUSH2 0x1D71 DUP2 PUSH2 0x1D57 JUMP JUMPDEST DUP2 EQ PUSH2 0x1D7C JUMPI PUSH1 0x0 DUP1 REVERT JUMPDEST POP JUMP JUMPDEST PUSH1 0x0 DUP2 CALLDATALOAD SWAP1 POP PUSH2 0x1D8E DUP2 PUSH2 0x1D68 JUMP JUMPDEST SWAP3 SWAP2 POP POP JUMP JUMPDEST PUSH1 0x0 PUSH1 0x80 DUP3 DUP5 SUB SLT ISZERO PUSH2 0x1DAA JUMPI PUSH2 0x1DA9 PUSH2 0x1D4D JUMP JUMPDEST JUMPDEST PUSH2 0x1DB4 PUSH1 0x80 PUSH2 0x1A59 JUMP JUMPDEST SWAP1 POP PUSH1 0x0 PUSH2 0x1DC4 DUP5 DUP3 DUP6 ADD PUSH2 0x1C95 JUMP JUMPDEST PUSH1 0x0 DUP4 ADD MSTORE POP PUSH1 0x20 PUSH2 0x1DD8 DUP5 DUP3 DUP6 ADD PUSH2 0x1D7F JUMP JUMPDEST PUSH1 0x20 DUP4 ADD MSTORE POP PUSH1 0x40 DUP3 ADD CALLDATALOAD PUSH8 0xFFFFFFFFFFFFFFFF DUP2 GT ISZERO PUSH2 0x1DFC JUMPI PUSH2 0x1DFB PUSH2 0x1D52 JUMP JUMPDEST JUMPDEST PUSH2 0x1E08 DUP5 DUP3 DUP6 ADD PUSH2 0x1B2C JUMP JUMPDEST PUSH1 0x40 DUP4 ADD MSTORE POP PUSH1 0x60 DUP3 ADD CALLDATALOAD PUSH8 0xFFFFFFFFFFFFFFFF DUP2 GT ISZERO PUSH2 0x1E2C JUMPI PUSH2 0x1E2B PUSH2 0x1D52 JUMP JUMPDEST JUMPDEST PUSH2 0x1E38 DUP5 DUP3 DUP6 ADD PUSH2 0x1B2C JUMP JUMPDEST PUSH1 0x60 DUP4 ADD MSTORE POP SWAP3 SWAP2 POP POP JUMP JUMPDEST PUSH1 0x0 PUSH2 0x1E57 PUSH2 0x1E52 DUP5 PUSH2 0x1D21 JUMP JUMPDEST PUSH2 0x1A59 JUMP JUMPDEST SWAP1 POP DUP1 DUP4 DUP3 MSTORE PUSH1 0x20 DUP3 ADD SWAP1 POP PUSH1 0x20 DUP5 MUL DUP4 ADD DUP6 DUP2 GT ISZERO PUSH2 0x1E7A JUMPI PUSH2 0x1E79 PUSH2 0x1AA0 JUMP JUMPDEST JUMPDEST DUP4 JUMPDEST DUP2 DUP2 LT ISZERO PUSH2 0x1EC1 JUMPI DUP1 CALLDATALOAD PUSH8 0xFFFFFFFFFFFFFFFF DUP2 GT ISZERO PUSH2 0x1E9F JUMPI PUSH2 0x1E9E PUSH2 0x19F4 JUMP JUMPDEST JUMPDEST DUP1 DUP7 ADD PUSH2 0x1EAC DUP10 DUP3 PUSH2 0x1D94 JUMP JUMPDEST DUP6 MSTORE PUSH1 0x20 DUP6 ADD SWAP5 POP POP POP PUSH1 0x20 DUP2 ADD SWAP1 POP PUSH2 0x1E7C JUMP JUMPDEST POP POP POP SWAP4 SWAP3 POP POP POP JUMP JUMPDEST PUSH1 0x0 DUP3 PUSH1 0x1F DUP4 ADD SLT PUSH2 0x1EE0 JUMPI PUSH2 0x1EDF PUSH2 0x19F4 JUMP JUMPDEST JUMPDEST DUP2 CALLDATALOAD PUSH2 0x1EF0 DUP5 DUP3 PUSH1 0x20 DUP7 ADD PUSH2 0x1E44 JUMP JUMPDEST SWAP2 POP POP SWAP3 SWAP2 POP POP JUMP JUMPDEST PUSH1 0x0 DUP1 PUSH1 0x40 DUP4 DUP6 SUB SLT ISZERO PUSH2 0x1F10 JUMPI PUSH2 0x1F0F PUSH2 0x1628 JUMP JUMPDEST JUMPDEST PUSH1 0x0 DUP4 ADD CALLDATALOAD PUSH8 0xFFFFFFFFFFFFFFFF DUP2 GT ISZERO PUSH2 0x1F2E JUMPI PUSH2 0x1F2D PUSH2 0x162D JUMP JUMPDEST JUMPDEST PUSH2 0x1F3A DUP6 DUP3 DUP7 ADD PUSH2 0x1B2C JUMP JUMPDEST SWAP3 POP POP PUSH1 0x20 DUP4 ADD CALLDATALOAD PUSH8 0xFFFFFFFFFFFFFFFF DUP2 GT ISZERO PUSH2 0x1F5B JUMPI PUSH2 0x1F5A PUSH2 0x162D JUMP JUMPDEST JUMPDEST PUSH2 0x1F67 DUP6 DUP3 DUP7 ADD PUSH2 0x1ECB JUMP JUMPDEST SWAP2 POP POP SWAP3 POP SWAP3 SWAP1 POP JUMP JUMPDEST PUSH1 0x0 PUSH8 0xFFFFFFFFFFFFFFFF DUP3 GT ISZERO PUSH2 0x1F8C JUMPI PUSH2 0x1F8B PUSH2 0x19F9 JUMP JUMPDEST JUMPDEST PUSH1 0x20 DUP3 MUL SWAP1 POP PUSH1 0x20 DUP2 ADD SWAP1 POP SWAP2 SWAP1 POP JUMP JUMPDEST PUSH2 0x1FA6 DUP2 PUSH2 0x1747 JUMP JUMPDEST DUP2 EQ PUSH2 0x1FB1 JUMPI PUSH1 0x0 DUP1 REVERT JUMPDEST POP JUMP JUMPDEST PUSH1 0x0 DUP2 CALLDATALOAD SWAP1 POP PUSH2 0x1FC3 DUP2 PUSH2 0x1F9D JUMP JUMPDEST SWAP3 SWAP2 POP POP JUMP JUMPDEST PUSH1 0x0 PUSH1 0x80 DUP3 DUP5 SUB SLT ISZERO PUSH2 0x1FDF JUMPI PUSH2 0x1FDE PUSH2 0x1D4D JUMP JUMPDEST JUMPDEST PUSH2 0x1FE9 PUSH1 0x80 PUSH2 0x1A59 JUMP JUMPDEST SWAP1 POP PUSH1 0x0 PUSH2 0x1FF9 DUP5 DUP3 DUP6 ADD PUSH2 0x1C95 JUMP JUMPDEST PUSH1 0x0 DUP4 ADD MSTORE POP PUSH1 0x20 PUSH2 0x200D DUP5 DUP3 DUP6 ADD PUSH2 0x1FB4 JUMP JUMPDEST PUSH1 0x20 DUP4 ADD MSTORE POP PUSH1 0x40 PUSH2 0x2021 DUP5 DUP3 DUP6 ADD PUSH2 0x1FB4 JUMP JUMPDEST PUSH1 0x40 DUP4 ADD MSTORE POP PUSH1 0x60 DUP3 ADD CALLDATALOAD PUSH8 0xFFFFFFFFFFFFFFFF DUP2 GT ISZERO PUSH2 0x2045 JUMPI PUSH2 0x2044 PUSH2 0x1D52 JUMP JUMPDEST JUMPDEST PUSH2 0x2051 DUP5 DUP3 DUP6 ADD PUSH2 0x1B2C JUMP JUMPDEST PUSH1 0x60 DUP4 ADD MSTORE POP SWAP3 SWAP2 POP POP JUMP JUMPDEST PUSH1 0x0 PUSH2 0x2070 PUSH2 0x206B DUP5 PUSH2 0x1F71 JUMP JUMPDEST PUSH2 0x1A59 JUMP JUMPDEST SWAP1 POP DUP1 DUP4 DUP3 MSTORE PUSH1 0x20 DUP3 ADD SWAP1 POP PUSH1 0x20 DUP5 MUL DUP4 ADD DUP6 DUP2 GT ISZERO PUSH2 0x2093 JUMPI PUSH2 0x2092 PUSH2 0x1AA0 JUMP JUMPDEST JUMPDEST DUP4 JUMPDEST DUP2 DUP2 LT ISZERO PUSH2 0x20DA JUMPI DUP1 CALLDATALOAD PUSH8 0xFFFFFFFFFFFFFFFF DUP2 GT ISZERO PUSH2 0x20B8 JUMPI PUSH2 0x20B7 PUSH2 0x19F4 JUMP JUMPDEST JUMPDEST DUP1 DUP7 ADD PUSH2 0x20C5 DUP10 DUP3 PUSH2 0x1FC9 JUMP JUMPDEST DUP6 MSTORE PUSH1 0x20 DUP6 ADD SWAP5 POP POP POP PUSH1 0x20 DUP2 ADD SWAP1 POP PUSH2 0x2095 JUMP JUMPDEST POP POP POP SWAP4 SWAP3 POP POP POP JUMP JUMPDEST PUSH1 0x0 DUP3 PUSH1 0x1F DUP4 ADD SLT PUSH2 0x20F9 JUMPI PUSH2 0x20F8 PUSH2 0x19F4 JUMP JUMPDEST JUMPDEST DUP2 CALLDATALOAD PUSH2 0x2109 DUP5 DUP3 PUSH1 0x20 DUP7 ADD PUSH2 0x205D JUMP JUMPDEST SWAP2 POP POP SWAP3 SWAP2 POP POP JUMP JUMPDEST PUSH1 0x0 PUSH1 0x20 DUP3 DUP5 SUB SLT ISZERO PUSH2 0x2128 JUMPI PUSH2 0x2127 PUSH2 0x1628 JUMP JUMPDEST JUMPDEST PUSH1 0x0 DUP3 ADD CALLDATALOAD PUSH8 0xFFFFFFFFFFFFFFFF DUP2 GT ISZERO PUSH2 0x2146 JUMPI PUSH2 0x2145 PUSH2 0x162D JUMP JUMPDEST JUMPDEST PUSH2 0x2152 DUP5 DUP3 DUP6 ADD PUSH2 0x20E4 JUMP JUMPDEST SWAP2 POP POP SWAP3 SWAP2 POP POP JUMP JUMPDEST PUSH1 0x0 DUP2 MLOAD SWAP1 POP SWAP2 SWAP1 POP JUMP JUMPDEST PUSH1 0x0 DUP3 DUP3 MSTORE PUSH1 0x20 DUP3 ADD SWAP1 POP SWAP3 SWAP2 POP POP JUMP JUMPDEST PUSH1 0x0 DUP2 SWAP1 POP PUSH1 0x20 DUP3 ADD SWAP1 POP SWAP2 SWAP1 POP JUMP JUMPDEST PUSH2 0x2190 DUP2 PUSH2 0x1D57 JUMP JUMPDEST DUP3 MSTORE POP POP JUMP JUMPDEST PUSH1 0x0 PUSH1 0x80 DUP4 ADD PUSH1 0x0 DUP4 ADD MLOAD PUSH2 0x21AE PUSH1 0x0 DUP7 ADD DUP3 PUSH2 0x1738 JUMP JUMPDEST POP PUSH1 0x20 DUP4 ADD MLOAD PUSH2 0x21C1 PUSH1 0x20 DUP7 ADD DUP3 PUSH2 0x2187 JUMP JUMPDEST POP PUSH1 0x40 DUP4 ADD MLOAD DUP5 DUP3 SUB PUSH1 0x40 DUP7 ADD MSTORE PUSH2 0x21D9 DUP3 DUP3 PUSH2 0x1903 JUMP JUMPDEST SWAP2 POP POP PUSH1 0x60 DUP4 ADD MLOAD DUP5 DUP3 SUB PUSH1 0x60 DUP7 ADD MSTORE PUSH2 0x21F3 DUP3 DUP3 PUSH2 0x1903 JUMP JUMPDEST SWAP2 POP POP DUP1 SWAP2 POP POP SWAP3 SWAP2 POP POP JUMP JUMPDEST PUSH1 0x0 PUSH2 0x220C DUP4 DUP4 PUSH2 0x2196 JUMP JUMPDEST SWAP1 POP SWAP3 SWAP2 POP POP JUMP JUMPDEST PUSH1 0x0 PUSH1 0x20 DUP3 ADD SWAP1 POP SWAP2 SWAP1 POP JUMP JUMPDEST PUSH1 0x0 PUSH2 0x222C DUP3 PUSH2 0x215B JUMP JUMPDEST PUSH2 0x2236 DUP2 DUP6 PUSH2 0x2166 JUMP JUMPDEST SWAP4 POP DUP4 PUSH1 0x20 DUP3 MUL DUP6 ADD PUSH2 0x2248 DUP6 PUSH2 0x2177 JUMP JUMPDEST DUP1 PUSH1 0x0 JUMPDEST DUP6 DUP2 LT ISZERO PUSH2 0x2284 JUMPI DUP5 DUP5 SUB DUP10 MSTORE DUP2 MLOAD PUSH2 0x2265 DUP6 DUP3 PUSH2 0x2200 JUMP JUMPDEST SWAP5 POP PUSH2 0x2270 DUP4 PUSH2 0x2214 JUMP JUMPDEST SWAP3 POP PUSH1 0x20 DUP11 ADD SWAP10 POP POP PUSH1 0x1 DUP2 ADD SWAP1 POP PUSH2 0x224C JUMP JUMPDEST POP DUP3 SWAP8 POP DUP8 SWAP6 POP POP POP POP POP POP SWAP3 SWAP2 POP POP JUMP JUMPDEST PUSH1 0x0 PUSH1 0x20 DUP3 ADD SWAP1 POP DUP2 DUP2 SUB PUSH1 0x0 DUP4 ADD MSTORE PUSH2 0x22B0 DUP2 DUP5 PUSH2 0x2221 JUMP JUMPDEST SWAP1 POP SWAP3 SWAP2 POP POP JUMP JUMPDEST PUSH1 0x0 DUP1 PUSH1 0x40 DUP4 DUP6 SUB SLT ISZERO PUSH2 0x22CF JUMPI PUSH2 0x22CE PUSH2 0x1628 JUMP JUMPDEST JUMPDEST PUSH1 0x0 DUP4 ADD CALLDATALOAD PUSH8 0xFFFFFFFFFFFFFFFF DUP2 GT ISZERO PUSH2 0x22ED JUMPI PUSH2 0x22EC PUSH2 0x162D JUMP JUMPDEST JUMPDEST PUSH2 0x22F9 DUP6 DUP3 DUP7 ADD PUSH2 0x1B2C JUMP JUMPDEST SWAP3 POP POP PUSH1 0x20 PUSH2 0x230A DUP6 DUP3 DUP7 ADD PUSH2 0x1649 JUMP JUMPDEST SWAP2 POP POP SWAP3 POP SWAP3 SWAP1 POP JUMP JUMPDEST PUSH1 0x0 PUSH1 0x80 DUP4 ADD PUSH1 0x0 DUP4 ADD MLOAD PUSH2 0x232C PUSH1 0x0 DUP7 ADD DUP3 PUSH2 0x1738 JUMP JUMPDEST POP PUSH1 0x20 DUP4 ADD MLOAD PUSH2 0x233F PUSH1 0x20 DUP7 ADD DUP3 PUSH2 0x2187 JUMP JUMPDEST POP PUSH1 0x40 DUP4 ADD MLOAD DUP5 DUP3 SUB PUSH1 0x40 DUP7 ADD MSTORE PUSH2 0x2357 DUP3 DUP3 PUSH2 0x1903 JUMP JUMPDEST SWAP2 POP POP PUSH1 0x60 DUP4 ADD MLOAD DUP5 DUP3 SUB PUSH1 0x60 DUP7 ADD MSTORE PUSH2 0x2371 DUP3 DUP3 PUSH2 0x1903 JUMP JUMPDEST SWAP2 POP POP DUP1 SWAP2 POP POP SWAP3 SWAP2 POP POP JUMP JUMPDEST PUSH1 0x0 PUSH1 0x20 DUP3 ADD SWAP1 POP DUP2 DUP2 SUB PUSH1 0x0 DUP4 ADD MSTORE PUSH2 0x2398 DUP2 DUP5 PUSH2 0x2314 JUMP JUMPDEST SWAP1 POP SWAP3 SWAP2 POP POP JUMP JUMPDEST PUSH1 0x0 DUP2 ISZERO ISZERO SWAP1 POP SWAP2 SWAP1 POP JUMP JUMPDEST PUSH2 0x23B5 DUP2 PUSH2 0x23A0 JUMP JUMPDEST DUP3 MSTORE POP POP JUMP JUMPDEST PUSH1 0x0 PUSH1 0x20 DUP3 ADD SWAP1 POP PUSH2 0x23D0 PUSH1 0x0 DUP4 ADD DUP5 PUSH2 0x23AC JUMP JUMPDEST SWAP3 SWAP2 POP POP JUMP JUMPDEST PUSH1 0x0 PUSH1 0x20 DUP3 DUP5 SUB SLT ISZERO PUSH2 0x23EC JUMPI PUSH2 0x23EB PUSH2 0x1628 JUMP JUMPDEST JUMPDEST PUSH1 0x0 DUP3 ADD CALLDATALOAD PUSH8 0xFFFFFFFFFFFFFFFF DUP2 GT ISZERO PUSH2 0x240A JUMPI PUSH2 0x2409 PUSH2 0x162D JUMP JUMPDEST JUMPDEST PUSH2 0x2416 DUP5 DUP3 DUP6 ADD PUSH2 0x1B2C JUMP JUMPDEST SWAP2 POP POP SWAP3 SWAP2 POP POP JUMP JUMPDEST PUSH32 0x4E487B7100000000000000000000000000000000000000000000000000000000 PUSH1 0x0 MSTORE PUSH1 0x32 PUSH1 0x4 MSTORE PUSH1 0x24 PUSH1 0x0 REVERT JUMPDEST PUSH32 0x4E487B7100000000000000000000000000000000000000000000000000000000 PUSH1 0x0 MSTORE PUSH1 0x11 PUSH1 0x4 MSTORE PUSH1 0x24 PUSH1 0x0 REVERT JUMPDEST PUSH1 0x0 PUSH2 0x2488 DUP3 PUSH2 0x15EA JUMP JUMPDEST SWAP2 POP PUSH32 0xFFFFFFFFFFFFFFFFFFFFFFFFFFFFFFFFFFFFFFFFFFFFFFFFFFFFFFFFFFFFFFFF DUP3 SUB PUSH2 0x24BA JUMPI PUSH2 0x24B9 PUSH2 0x244E JUMP JUMPDEST JUMPDEST PUSH1 0x1 DUP3 ADD SWAP1 POP SWAP2 SWAP1 POP JUMP JUMPDEST PUSH32 0x4E487B7100000000000000000000000000000000000000000000000000000000 PUSH1 0x0 MSTORE PUSH1 0x22 PUSH1 0x4 MSTORE PUSH1 0x24 PUSH1 0x0 REVERT JUMPDEST PUSH1 0x0 PUSH1 0x2 DUP3 DIV SWAP1 POP PUSH1 0x1 DUP3 AND DUP1 PUSH2 0x250C JUMPI PUSH1 0x7F DUP3 AND SWAP2 POP JUMPDEST PUSH1 0x20 DUP3 LT DUP2 SUB PUSH2 0x251F JUMPI PUSH2 0x251E PUSH2 0x24C5 JUMP JUMPDEST JUMPDEST POP SWAP2 SWAP1 POP JUMP JUMPDEST PUSH1 0x0 DUP2 SWAP1 POP DUP2 PUSH1 0x0 MSTORE PUSH1 0x20 PUSH1 0x0 KECCAK256 SWAP1 POP SWAP2 SWAP1 POP JUMP JUMPDEST PUSH1 0x0 PUSH1 0x20 PUSH1 0x1F DUP4 ADD DIV SWAP1 POP SWAP2 SWAP1 POP JUMP JUMPDEST PUSH1 0x0 DUP3 DUP3 SHL SWAP1 POP SWAP3 SWAP2 POP POP JUMP JUMPDEST PUSH1 0x0 PUSH1 0x8 DUP4 MUL PUSH2 0x2587 PUSH32 0xFFFFFFFFFFFFFFFFFFFFFFFFFFFFFFFFFFFFFFFFFFFFFFFFFFFFFFFFFFFFFFFF DUP3 PUSH2 0x254A JUMP JUMPDEST PUSH2 0x2591 DUP7 DUP4 PUSH2 0x254A JUMP JUMPDEST SWAP6 POP DUP1 NOT DUP5 AND SWAP4 POP DUP1 DUP7 AND DUP5 OR SWAP3 POP POP POP SWAP4 SWAP3 POP POP POP JUMP JUMPDEST PUSH1 0x0 DUP2 SWAP1 POP SWAP2 SWAP1 POP JUMP JUMPDEST PUSH1 0x0 PUSH2 0x25CE PUSH2 0x25C9 PUSH2 0x25C4 DUP5 PUSH2 0x15EA JUMP JUMPDEST PUSH2 0x25A9 JUMP JUMPDEST PUSH2 0x15EA JUMP JUMPDEST SWAP1 POP SWAP2 SWAP1 POP JUMP JUMPDEST PUSH1 0x0 DUP2 SWAP1 POP SWAP2 SWAP1 POP JUMP JUMPDEST PUSH2 0x25E8 DUP4 PUSH2 0x25B3 JUMP JUMPDEST PUSH2 0x25FC PUSH2 0x25F4 DUP3 PUSH2 0x25D5 JUMP JUMPDEST DUP5 DUP5 SLOAD PUSH2 0x2557 JUMP JUMPDEST DUP3 SSTORE POP POP POP POP JUMP JUMPDEST PUSH1 0x0 SWAP1 JUMP JUMPDEST PUSH2 0x2611 PUSH2 0x2604 JUMP JUMPDEST PUSH2 0x261C DUP2 DUP5 DUP5 PUSH2 0x25DF JUMP JUMPDEST POP POP POP JUMP JUMPDEST JUMPDEST DUP2 DUP2 LT ISZERO PUSH2 0x2640 JUMPI PUSH2 0x2635 PUSH1 0x0 DUP3 PUSH2 0x2609 JUMP JUMPDEST PUSH1 0x1 DUP2 ADD SWAP1 POP PUSH2 0x2622 JUMP JUMPDEST POP POP JUMP JUMPDEST PUSH1 0x1F DUP3 GT ISZERO PUSH2 0x2685 JUMPI PUSH2 0x2656 DUP2 PUSH2 0x2525 JUMP JUMPDEST PUSH2 0x265F DUP5 PUSH2 0x253A JUMP JUMPDEST DUP2 ADD PUSH1 0x20 DUP6 LT ISZERO PUSH2 0x266E JUMPI DUP2 SWAP1 POP JUMPDEST PUSH2 0x2682 PUSH2 0x267A DUP6 PUSH2 0x253A JUMP JUMPDEST DUP4 ADD DUP3 PUSH2 0x2621 JUMP JUMPDEST POP POP JUMPDEST POP POP POP JUMP JUMPDEST PUSH1 0x0 DUP3 DUP3 SHR SWAP1 POP SWAP3 SWAP2 POP POP JUMP JUMPDEST PUSH1 0x0 PUSH2 0x26A8 PUSH1 0x0 NOT DUP5 PUSH1 0x8 MUL PUSH2 0x268A JUMP JUMPDEST NOT DUP1 DUP4 AND SWAP2 POP POP SWAP3 SWAP2 POP POP JUMP JUMPDEST PUSH1 0x0 PUSH2 0x26C1 DUP4 DUP4 PUSH2 0x2697 JUMP JUMPDEST SWAP2 POP DUP3 PUSH1 0x2 MUL DUP3 OR SWAP1 POP SWAP3 SWAP2 POP POP JUMP JUMPDEST PUSH2 0x26DA DUP3 PUSH2 0x18A3 JUMP JUMPDEST PUSH8 0xFFFFFFFFFFFFFFFF DUP2 GT ISZERO PUSH2 0x26F3 JUMPI PUSH2 0x26F2 PUSH2 0x19F9 JUMP JUMPDEST JUMPDEST PUSH2 0x26FD DUP3 SLOAD PUSH2 0x24F4 JUMP JUMPDEST PUSH2 0x2708 DUP3 DUP3 DUP6 PUSH2 0x2644 JUMP JUMPDEST PUSH1 0x0 PUSH1 0x20 SWAP1 POP PUSH1 0x1F DUP4 GT PUSH1 0x1 DUP2 EQ PUSH2 0x273B JUMPI PUSH1 0x0 DUP5 ISZERO PUSH2 0x2729 JUMPI DUP3 DUP8 ADD MLOAD SWAP1 POP JUMPDEST PUSH2 0x2733 DUP6 DUP3 PUSH2 0x26B5 JUMP JUMPDEST DUP7 SSTORE POP PUSH2 0x279B JUMP JUMPDEST PUSH1 0x1F NOT DUP5 AND PUSH2 0x2749 DUP7 PUSH2 0x2525 JUMP JUMPDEST PUSH1 0x0 JUMPDEST DUP3 DUP2 LT ISZERO PUSH2 0x2771 JUMPI DUP5 DUP10 ADD MLOAD DUP3 SSTORE PUSH1 0x1 DUP3 ADD SWAP2 POP PUSH1 0x20 DUP6 ADD SWAP5 POP PUSH1 0x20 DUP2 ADD SWAP1 POP PUSH2 0x274C JUMP JUMPDEST DUP7 DUP4 LT ISZERO PUSH2 0x278E JUMPI DUP5 DUP10 ADD MLOAD PUSH2 0x278A PUSH1 0x1F DUP10 AND DUP3 PUSH2 0x2697 JUMP JUMPDEST DUP4 SSTORE POP JUMPDEST PUSH1 0x1 PUSH1 0x2 DUP9 MUL ADD DUP9 SSTORE POP POP POP JUMPDEST POP POP POP POP POP POP JUMP JUMPDEST PUSH1 0x0 DUP2 SWAP1 POP SWAP3 SWAP2 POP POP JUMP JUMPDEST PUSH1 0x0 DUP2 SLOAD PUSH2 0x27BB DUP2 PUSH2 0x24F4 JUMP JUMPDEST PUSH2 0x27C5 DUP2 DUP7 PUSH2 0x27A3 JUMP JUMPDEST SWAP5 POP PUSH1 0x1 DUP3 AND PUSH1 0x0 DUP2 EQ PUSH2 0x27E0 JUMPI PUSH1 0x1 DUP2 EQ PUSH2 0x27F5 JUMPI PUSH2 0x2828 JUMP JUMPDEST PUSH1 0xFF NOT DUP4 AND DUP7 MSTORE DUP2 ISZERO ISZERO DUP3 MUL DUP7 ADD SWAP4 POP PUSH2 0x2828 JUMP JUMPDEST PUSH2 0x27FE DUP6 PUSH2 0x2525 JUMP JUMPDEST PUSH1 0x0 JUMPDEST DUP4 DUP2 LT ISZERO PUSH2 0x2820 JUMPI DUP2 SLOAD DUP2 DUP10 ADD MSTORE PUSH1 0x1 DUP3 ADD SWAP2 POP PUSH1 0x20 DUP2 ADD SWAP1 POP PUSH2 0x2801 JUMP JUMPDEST DUP4 DUP9 ADD SWAP6 POP POP POP JUMPDEST POP POP POP SWAP3 SWAP2 POP POP JUMP JUMPDEST PUSH1 0x0 PUSH2 0x283D DUP3 DUP5 PUSH2 0x27AE JUMP JUMPDEST SWAP2 POP DUP2 SWAP1 POP SWAP3 SWAP2 POP POP JUMP JUMPDEST PUSH1 0x0 PUSH2 0x2853 DUP3 PUSH2 0x15EA JUMP JUMPDEST SWAP2 POP PUSH2 0x285E DUP4 PUSH2 0x15EA JUMP JUMPDEST SWAP3 POP DUP3 PUSH32 0xFFFFFFFFFFFFFFFFFFFFFFFFFFFFFFFFFFFFFFFFFFFFFFFFFFFFFFFFFFFFFFFF SUB DUP3 GT ISZERO PUSH2 0x2893 JUMPI PUSH2 0x2892 PUSH2 0x244E JUMP JUMPDEST JUMPDEST DUP3 DUP3 ADD SWAP1 POP SWAP3 SWAP2 POP POP JUMP JUMPDEST PUSH1 0x0 PUSH2 0x28A9 DUP3 PUSH2 0x18A3 JUMP JUMPDEST PUSH2 0x28B3 DUP2 DUP6 PUSH2 0x27A3 JUMP JUMPDEST SWAP4 POP PUSH2 0x28C3 DUP2 DUP6 PUSH1 0x20 DUP7 ADD PUSH2 0x18BF JUMP JUMPDEST DUP1 DUP5 ADD SWAP2 POP POP SWAP3 SWAP2 POP POP JUMP JUMPDEST PUSH1 0x0 PUSH2 0x28DB DUP3 DUP5 PUSH2 0x289E JUMP JUMPDEST SWAP2 POP DUP2 SWAP1 POP SWAP3 SWAP2 POP POP JUMP INVALID LOG2 PUSH5 0x6970667358 0x22 SLT KECCAK256 0xF SDIV PUSH18 0xF5F60599C87CD44D7D2A0B220F87075876 0xC6 ORIGIN SHL 0xD0 TIMESTAMP CALLDATALOAD 0xC1 0xD1 AND 0xF8 CALL PUSH5 0x736F6C6343 STOP ADDMOD 0xF STOP CALLER "},"methodIdentifiers":{"checkResult(uint256,address)":"7fb9c45f","createContest(uint256,string[],uint256)":"18699547","fakeGameCreate(string,(uint32,uint40,string,string)[])":"1f2bf10c","gamePlayed(uint32)":"8b617036","getContestPredictionEndDate()":"08af2d78","getCurrentContestId()":"fb46bd22","getGameCreate(string,uint256)":"80b41a09","getListGamesPerContest(uint256)":"7e5dd913","getNumberOfGamesPerContest(uint256)":"1d883342","getNumberOfGamesPerRequest(string)":"ea6a0410","getNumberOfPlayers(uint256)":"62436d9d","getPrevisionsPerPlayerPerContest(uint256,address)":"117f3998","getRequestIdPerContest(uint256)":"1506bca6","getScorePerGameId(uint32)":"1e7741f0","saveRequestResults((uint32,uint8,uint8,string)[])":"3302787d"}}}}}