{"contracts/IpCalculation.sol":{"IpCalculation":{"abi":[{"inputs":[],"stateMutability":"nonpayable","type":"constructor"},{"inputs":[{"internalType":"uint256","name":"_contestId","type":"uint256"},{"components":[{"internalType":"address","name":"player","type":"address"},{"internalType":"uint256","name":"nbTickets","type":"uint256"},{"internalType":"uint256","name":"score","type":"uint256"}],"internalType":"struct IpCalculation.PlayerScoreTicket[]","name":"_scoreTable","type":"tuple[]"}],"name":"calculateGain","outputs":[{"components":[{"internalType":"address","name":"player","type":"address"},{"internalType":"uint256","name":"score","type":"uint256"},{"internalType":"uint256","name":"rankExAequo","type":"uint256"},{"internalType":"uint256","name":"rewardNoExAequo","type":"uint256"},{"internalType":"uint256","name":"cumulatedRewardsNoExAequo","type":"uint256"},{"internalType":"uint256","name":"cumulatedRewardsPerRank","type":"uint256"},{"internalType":"uint256","name":"rewardPerRankPerPlayer","type":"uint256"}],"internalType":"struct IpCalculation.Gain[]","name":"","type":"tuple[]"}],"stateMutability":"view","type":"function"},{"inputs":[{"internalType":"uint256","name":"_contestId","type":"uint256"},{"internalType":"address","name":"_player","type":"address"}],"name":"checkResult","outputs":[{"internalType":"uint256","name":"","type":"uint256"}],"stateMutability":"view","type":"function"},{"inputs":[{"internalType":"uint256","name":"","type":"uint256"},{"internalType":"uint256","name":"","type":"uint256"}],"name":"contestTable","outputs":[{"internalType":"address","name":"player","type":"address"},{"internalType":"uint256","name":"nbTickets","type":"uint256"},{"internalType":"uint256","name":"score","type":"uint256"},{"internalType":"uint256","name":"rankExAequo","type":"uint256"},{"internalType":"uint256","name":"rewardPerRankPerPlayer","type":"uint256"}],"stateMutability":"view","type":"function"},{"inputs":[{"internalType":"uint256","name":"_leagueId","type":"uint256"},{"internalType":"string[]","name":"_listRequestId","type":"string[]"},{"internalType":"uint256","name":"_dateEndContest","type":"uint256"}],"name":"createContest","outputs":[],"stateMutability":"nonpayable","type":"function"},{"inputs":[{"internalType":"string","name":"_requestId","type":"string"},{"components":[{"internalType":"uint32","name":"gameId","type":"uint32"},{"internalType":"uint40","name":"startTime","type":"uint40"},{"internalType":"string","name":"homeTeam","type":"string"},{"internalType":"string","name":"awayTeam","type":"string"}],"internalType":"struct IpFakeEnetScore.GameCreate[]","name":"_fakeGameCreate","type":"tuple[]"}],"name":"fakeGameCreate","outputs":[],"stateMutability":"nonpayable","type":"function"},{"inputs":[{"internalType":"uint32","name":"","type":"uint32"}],"name":"gamePlayed","outputs":[{"internalType":"bool","name":"","type":"bool"}],"stateMutability":"view","type":"function"},{"inputs":[],"name":"getContestPredictionEndDate","outputs":[{"internalType":"uint256","name":"","type":"uint256"}],"stateMutability":"view","type":"function"},{"inputs":[{"internalType":"uint256","name":"_contestId","type":"uint256"}],"name":"getContestTable","outputs":[{"components":[{"internalType":"address","name":"player","type":"address"},{"internalType":"uint256","name":"nbTickets","type":"uint256"},{"internalType":"uint256","name":"score","type":"uint256"},{"internalType":"uint256","name":"rankExAequo","type":"uint256"},{"internalType":"uint256","name":"rewardPerRankPerPlayer","type":"uint256"}],"internalType":"struct IpCalculation.ContestResult[]","name":"","type":"tuple[]"}],"stateMutability":"view","type":"function"},{"inputs":[],"name":"getCurrentContestId","outputs":[{"internalType":"uint256","name":"","type":"uint256"}],"stateMutability":"view","type":"function"},{"inputs":[{"internalType":"string","name":"_requestId","type":"string"},{"internalType":"uint256","name":"_idx","type":"uint256"}],"name":"getGameCreate","outputs":[{"components":[{"internalType":"uint32","name":"gameId","type":"uint32"},{"internalType":"uint40","name":"startTime","type":"uint40"},{"internalType":"string","name":"homeTeam","type":"string"},{"internalType":"string","name":"awayTeam","type":"string"}],"internalType":"struct IpFakeEnetScore.GameCreate","name":"","type":"tuple"}],"stateMutability":"view","type":"function"},{"inputs":[{"internalType":"uint256","name":"_contestId","type":"uint256"}],"name":"getListGamesPerContest","outputs":[{"components":[{"internalType":"uint32","name":"gameId","type":"uint32"},{"internalType":"uint40","name":"startTime","type":"uint40"},{"internalType":"string","name":"homeTeam","type":"string"},{"internalType":"string","name":"awayTeam","type":"string"}],"internalType":"struct IpFakeEnetScore.GameCreate[]","name":"","type":"tuple[]"}],"stateMutability":"view","type":"function"},{"inputs":[{"internalType":"uint256","name":"_contestId","type":"uint256"}],"name":"getNumberOfGamesPerContest","outputs":[{"internalType":"uint256","name":"","type":"uint256"}],"stateMutability":"view","type":"function"},{"inputs":[{"internalType":"string","name":"_requestId","type":"string"}],"name":"getNumberOfGamesPerRequest","outputs":[{"internalType":"uint256","name":"","type":"uint256"}],"stateMutability":"view","type":"function"},{"inputs":[{"internalType":"uint256","name":"_contestId","type":"uint256"}],"name":"getNumberOfPlayers","outputs":[{"internalType":"uint256","name":"","type":"uint256"}],"stateMutability":"view","type":"function"},{"inputs":[{"internalType":"uint256","name":"_contestId","type":"uint256"},{"internalType":"address","name":"_player","type":"address"}],"name":"getPlayerRank","outputs":[{"internalType":"uint256","name":"","type":"uint256"}],"stateMutability":"view","type":"function"},{"inputs":[{"internalType":"uint256","name":"_contestId","type":"uint256"},{"internalType":"address","name":"_player","type":"address"}],"name":"getPrevisionsPerPlayerPerContest","outputs":[{"components":[{"internalType":"uint32","name":"gameId","type":"uint32"},{"internalType":"uint8","name":"homeScore","type":"uint8"},{"internalType":"uint8","name":"awayScore","type":"uint8"}],"internalType":"struct IpFakeEnetScore.GamePredict[]","name":"","type":"tuple[]"}],"stateMutability":"view","type":"function"},{"inputs":[{"internalType":"uint256","name":"_contestId","type":"uint256"}],"name":"getRequestIdPerContest","outputs":[{"internalType":"string[]","name":"","type":"string[]"}],"stateMutability":"view","type":"function"},{"inputs":[{"internalType":"uint32","name":"_gameId","type":"uint32"}],"name":"getScorePerGameId","outputs":[{"components":[{"internalType":"uint8","name":"homeScore","type":"uint8"},{"internalType":"uint8","name":"awayScore","type":"uint8"}],"internalType":"struct IpFakeEnetScore.Scores","name":"","type":"tuple"}],"stateMutability":"view","type":"function"},{"inputs":[{"internalType":"uint256","name":"_contestId","type":"uint256"}],"name":"getScoreTable","outputs":[{"components":[{"internalType":"address","name":"player","type":"address"},{"internalType":"uint256","name":"nbTickets","type":"uint256"},{"internalType":"uint256","name":"score","type":"uint256"}],"internalType":"struct IpCalculation.PlayerScoreTicket[]","name":"","type":"tuple[]"}],"stateMutability":"view","type":"function"},{"inputs":[{"components":[{"internalType":"uint32","name":"gameId","type":"uint32"},{"internalType":"uint8","name":"homeScore","type":"uint8"},{"internalType":"uint8","name":"awayScore","type":"uint8"},{"internalType":"string","name":"status","type":"string"}],"internalType":"struct IpFakeEnetScore.GameResolve[]","name":"_fakeGameResolve","type":"tuple[]"}],"name":"saveRequestResults","outputs":[],"stateMutability":"nonpayable","type":"function"},{"inputs":[{"internalType":"uint256","name":"_contestId","type":"uint256"}],"name":"updateContestTable","outputs":[],"stateMutability":"nonpayable","type":"function"}],"evm":{"bytecode":{"linkReferences":{},"object":"608060405234801561001057600080fd5b5060006008819055506106de600a819055506005600b819055506019600d600060018152602001908152602001600020819055506144fc806100536000396000f3fe608060405234801561001057600080fd5b50600436106101375760003560e01c806357d088ff116100b85780638b6170361161007c5780638b617036146103c2578063b66195b8146103f2578063baf6378314610422578063d622151814610452578063ea6a04101461046e578063fb46bd221461049e57610137565b806357d088ff146102ce57806362436d9d146103025780637e5dd913146103325780637fb9c45f1461036257806380b41a091461039257610137565b80631e7741f0116100ff5780631e7741f0146102065780631f2bf10c146102365780632452a7e3146102525780633302787d146102825780634fda591e1461029e57610137565b806308af2d781461013c578063117f39981461015a5780631506bca61461018a57806318699547146101ba5780631d883342146101d6575b600080fd5b6101446104bc565b6040516101519190612b07565b60405180910390f35b610174600480360381019061016f9190612bc0565b6104dc565b6040516101819190612d2c565b60405180910390f35b6101a4600480360381019061019f9190612d4e565b610733565b6040516101b19190612ed6565b60405180910390f35b6101d460048036038101906101cf9190613113565b61081f565b005b6101f060048036038101906101eb9190612d4e565b6108ff565b6040516101fd9190612b07565b60405180910390f35b610220600480360381019061021b91906131ae565b6109a1565b60405161022d919061320a565b60405180910390f35b610250600480360381019061024b91906133fd565b610a14565b005b61026c60048036038101906102679190612d4e565b610ba3565b60405161027991906135aa565b60405180910390f35b61029c6004803603810190610297919061376d565b610c93565b005b6102b860048036038101906102b39190612bc0565b610de5565b6040516102c59190612b07565b60405180910390f35b6102e860048036038101906102e391906137b6565b611017565b6040516102f9959493929190613805565b60405180910390f35b61031c60048036038101906103179190612d4e565b61108a565b6040516103299190612b07565b60405180910390f35b61034c60048036038101906103479190612d4e565b6110aa565b6040516103599190613993565b60405180910390f35b61037c60048036038101906103779190612bc0565b6113d9565b6040516103899190612b07565b60405180910390f35b6103ac60048036038101906103a791906139b5565b6117ee565b6040516103b99190613a7b565b60405180910390f35b6103dc60048036038101906103d791906131ae565b6119ba565b6040516103e99190613ab8565b60405180910390f35b61040c60048036038101906104079190612d4e565b6119da565b6040516104199190613bc4565b60405180910390f35b61043c60048036038101906104379190613d0d565b611b2e565b6040516104499190613ea6565b60405180910390f35b61046c60048036038101906104679190612d4e565b61249d565b005b61048860048036038101906104839190613ec8565b612906565b6040516104959190612b07565b60405180910390f35b6104a6612930565b6040516104b39190612b07565b60405180910390f35b600060026000600854815260200190815260200160002060010154905090565b606060006104e9846108ff565b90506000808267ffffffffffffffff81111561050857610507612efd565b5b60405190808252806020026020018201604052801561054157816020015b61052e61297b565b8152602001906001900390816105265790505b50905060008367ffffffffffffffff8111156105605761055f612efd565b5b60405190808252806020026020018201604052801561059957816020015b6105866129a8565b81526020019060019003908161057e5790505b5090506105a5876110aa565b905060005b84811015610725578181815181106105c5576105c4613f11565b5b602002602001015160000151935060405180606001604052808563ffffffff168152602001600460008a73ffffffffffffffffffffffffffffffffffffffff1673ffffffffffffffffffffffffffffffffffffffff16815260200190815260200160002060008b815260200190815260200160002060008763ffffffff1663ffffffff16815260200190815260200160002060000160009054906101000a900460ff1660ff168152602001600460008a73ffffffffffffffffffffffffffffffffffffffff1673ffffffffffffffffffffffffffffffffffffffff16815260200190815260200160002060008b815260200190815260200160002060008763ffffffff1663ffffffff16815260200190815260200160002060000160019054906101000a900460ff1660ff1681525083828151811061070757610706613f11565b5b6020026020010181905250808061071d90613f6f565b9150506105aa565b508194505050505092915050565b606060016000838152602001908152602001600020805480602002602001604051908101604052809291908181526020016000905b8282101561081457838290600052602060002001805461078790613fe6565b80601f01602080910402602001604051908101604052809291908181526020018280546107b390613fe6565b80156108005780601f106107d557610100808354040283529160200191610800565b820191906000526020600020905b8154815290600101906020018083116107e357829003601f168201915b505050505081526020019060010190610768565b505050509050919050565b6008600081548092919061083290613f6f565b919050555060005b82518110156108b85760016000600854815260200190815260200160002083828151811061086b5761086a613f11565b5b60200260200101519080600181540180825580915050600190039060005260206000200160009091909190915090816108a491906141c3565b5080806108b090613f6f565b91505061083a565b506040518060400160405280848152602001828152506002600060085481526020019081526020016000206000820151816000015560208201518160010155905050505050565b6000806000905060005b600160008581526020019081526020016000208054905081101561099757600060016000868152602001908152602001600020828154811061094e5761094d613f11565b5b906000526020600020016040516109659190614323565b90815260200160405180910390208054905082610982919061433a565b9150808061098f90613f6f565b915050610909565b5080915050919050565b6109a96129dd565b600360008363ffffffff1663ffffffff1681526020019081526020016000206040518060400160405290816000820160009054906101000a900460ff1660ff1660ff1681526020016000820160019054906101000a900460ff1660ff1660ff16815250509050919050565b60005b8151811015610b9e57600083604051610a3091906143c1565b90815260200160405180910390206040518060800160405280848481518110610a5c57610a5b613f11565b5b60200260200101516000015163ffffffff168152602001848481518110610a8657610a85613f11565b5b60200260200101516020015164ffffffffff168152602001848481518110610ab157610ab0613f11565b5b6020026020010151604001518152602001848481518110610ad557610ad4613f11565b5b602002602001015160600151815250908060018154018082558091505060019003906000526020600020906003020160009091909190915060008201518160000160006101000a81548163ffffffff021916908363ffffffff16021790555060208201518160000160046101000a81548164ffffffffff021916908364ffffffffff1602179055506040820151816001019081610b7291906141c3565b506060820151816002019081610b8891906141c3565b5050508080610b9690613f6f565b915050610a17565b505050565b6060600c6000838152602001908152602001600020805480602002602001604051908101604052809291908181526020016000905b82821015610c8857838290600052602060002090600502016040518060a00160405290816000820160009054906101000a900473ffffffffffffffffffffffffffffffffffffffff1673ffffffffffffffffffffffffffffffffffffffff1673ffffffffffffffffffffffffffffffffffffffff16815260200160018201548152602001600282015481526020016003820154815260200160048201548152505081526020019060010190610bd8565b505050509050919050565b60005b8151811015610de1576040518060400160405280838381518110610cbd57610cbc613f11565b5b60200260200101516020015160ff168152602001838381518110610ce457610ce3613f11565b5b60200260200101516040015160ff1681525060036000848481518110610d0d57610d0c613f11565b5b60200260200101516000015163ffffffff1663ffffffff16815260200190815260200160002060008201518160000160006101000a81548160ff021916908360ff16021790555060208201518160000160016101000a81548160ff021916908360ff160217905550905050600160096000848481518110610d9157610d90613f11565b5b60200260200101516000015163ffffffff1663ffffffff16815260200190815260200160002060006101000a81548160ff0219169083151502179055508080610dd990613f6f565b915050610c96565b5050565b600080610df1846119da565b9050600080825190506000808267ffffffffffffffff811115610e1757610e16612efd565b5b604051908082528060200260200182016040528015610e5057816020015b610e3d6129fd565b815260200190600190039081610e355790505b50905060005b83811015610f72576001945060005b84811015610ed357868181518110610e8057610e7f613f11565b5b602002602001015160400151878381518110610e9f57610e9e613f11565b5b6020026020010151604001511015610ec0578580610ebc90613f6f565b9650505b8080610ecb90613f6f565b915050610e65565b506040518060600160405280878381518110610ef257610ef1613f11565b5b60200260200101516000015173ffffffffffffffffffffffffffffffffffffffff168152602001878381518110610f2c57610f2b613f11565b5b602002602001015160400151815260200186815250828281518110610f5457610f53613f11565b5b60200260200101819052508080610f6a90613f6f565b915050610e56565b5060005b8381101561100857818181518110610f9157610f90613f11565b5b60200260200101516000015173ffffffffffffffffffffffffffffffffffffffff168873ffffffffffffffffffffffffffffffffffffffff1603610ff557818181518110610fe257610fe1613f11565b5b6020026020010151604001519250611008565b808061100090613f6f565b915050610f76565b50819550505050505092915050565b600c602052816000526040600020818154811061103357600080fd5b9060005260206000209060050201600091509150508060000160009054906101000a900473ffffffffffffffffffffffffffffffffffffffff16908060010154908060020154908060030154908060040154905085565b600060056000838152602001908152602001600020805490509050919050565b606060006110b7836108ff565b90506000808267ffffffffffffffff8111156110d6576110d5612efd565b5b60405190808252806020026020018201604052801561110f57816020015b6110fc6129a8565b8152602001906001900390816110f45790505b50905060005b60016000878152602001908152602001600020805490508110156113cd57600060016000888152602001908152602001600020828154811061115a57611159613f11565b5b906000526020600020016040516111719190614323565b908152602001604051809103902080549050935060005b848110156113b95760006001600089815260200190815260200160002083815481106111b7576111b6613f11565b5b906000526020600020016040516111ce9190614323565b908152602001604051809103902081815481106111ee576111ed613f11565b5b90600052602060002090600302016040518060800160405290816000820160009054906101000a900463ffffffff1663ffffffff1663ffffffff1681526020016000820160049054906101000a900464ffffffffff1664ffffffffff1664ffffffffff16815260200160018201805461126690613fe6565b80601f016020809104026020016040519081016040528092919081815260200182805461129290613fe6565b80156112df5780601f106112b4576101008083540402835291602001916112df565b820191906000526020600020905b8154815290600101906020018083116112c257829003601f168201915b505050505081526020016002820180546112f890613fe6565b80601f016020809104026020016040519081016040528092919081815260200182805461132490613fe6565b80156113715780601f1061134657610100808354040283529160200191611371565b820191906000526020600020905b81548152906001019060200180831161135457829003601f168201915b50505050508152505083858151811061138d5761138c613f11565b5b602002602001018190525083806113a390613f6f565b94505080806113b190613f6f565b915050611188565b5080806113c590613f6f565b915050611115565b50809350505050919050565b600080600080600090506000806113ef886108ff565b905060008167ffffffffffffffff81111561140d5761140c612efd565b5b60405190808252806020026020018201604052801561144657816020015b6114336129a8565b81526020019060019003908161142b5790505b509050611452896110aa565b905060005b828110156117de5781818151811061147257611471613f11565b5b6020026020010151600001519350611584600460008b73ffffffffffffffffffffffffffffffffffffffff1673ffffffffffffffffffffffffffffffffffffffff16815260200190815260200160002060008c815260200190815260200160002060008663ffffffff1663ffffffff16815260200190815260200160002060000160009054906101000a900460ff16600460008c73ffffffffffffffffffffffffffffffffffffffff1673ffffffffffffffffffffffffffffffffffffffff16815260200190815260200160002060008d815260200190815260200160002060008763ffffffff1663ffffffff16815260200190815260200160002060000160019054906101000a900460ff1661293a565b96506115ee600360008663ffffffff1663ffffffff16815260200190815260200160002060000160009054906101000a900460ff16600360008763ffffffff1663ffffffff16815260200190815260200160002060000160019054906101000a900460ff1661293a565b9550858714801561162f575060011515600960008663ffffffff1663ffffffff16815260200190815260200160002060009054906101000a900460ff161515145b156117cb57600185611641919061433a565b9450600360008563ffffffff1663ffffffff16815260200190815260200160002060000160009054906101000a900460ff1660ff16600460008b73ffffffffffffffffffffffffffffffffffffffff1673ffffffffffffffffffffffffffffffffffffffff16815260200190815260200160002060008c815260200190815260200160002060008663ffffffff1663ffffffff16815260200190815260200160002060000160009054906101000a900460ff1660ff161480156117b55750600360008563ffffffff1663ffffffff16815260200190815260200160002060000160019054906101000a900460ff1660ff16600460008b73ffffffffffffffffffffffffffffffffffffffff1673ffffffffffffffffffffffffffffffffffffffff16815260200190815260200160002060008c815260200190815260200160002060008663ffffffff1663ffffffff16815260200190815260200160002060000160019054906101000a900460ff1660ff16145b156117ca576002856117c7919061433a565b94505b5b80806117d690613f6f565b915050611457565b5083965050505050505092915050565b6117f66129a8565b60008360405161180691906143c1565b9081526020016040518091039020828154811061182657611825613f11565b5b90600052602060002090600302016040518060800160405290816000820160009054906101000a900463ffffffff1663ffffffff1663ffffffff1681526020016000820160049054906101000a900464ffffffffff1664ffffffffff1664ffffffffff16815260200160018201805461189e90613fe6565b80601f01602080910402602001604051908101604052809291908181526020018280546118ca90613fe6565b80156119175780601f106118ec57610100808354040283529160200191611917565b820191906000526020600020905b8154815290600101906020018083116118fa57829003601f168201915b5050505050815260200160028201805461193090613fe6565b80601f016020809104026020016040519081016040528092919081815260200182805461195c90613fe6565b80156119a95780601f1061197e576101008083540402835291602001916119a9565b820191906000526020600020905b81548152906001019060200180831161198c57829003601f168201915b505050505081525050905092915050565b60096020528060005260406000206000915054906101000a900460ff1681565b60606000600560008481526020019081526020016000208054905090506000808267ffffffffffffffff811115611a1457611a13612efd565b5b604051908082528060200260200182016040528015611a4d57816020015b611a3a612a34565b815260200190600190039081611a325790505b509050600080600090505b84811015611b2157600560008881526020019081526020016000208181548110611a8557611a84613f11565b5b9060005260206000200160009054906101000a900473ffffffffffffffffffffffffffffffffffffffff169350611abc87856113d9565b915060405180606001604052808573ffffffffffffffffffffffffffffffffffffffff1681526020016001815260200183815250838281518110611b0357611b02613f11565b5b60200260200101819052508080611b1990613f6f565b915050611a58565b5081945050505050919050565b606060008060008080600080600d60008b815260200190815260200160002054905060008167ffffffffffffffff811115611b6c57611b6b612efd565b5b604051908082528060200260200182016040528015611ba557816020015b611b92612a6b565b815260200190600190039081611b8a5790505b50905060008267ffffffffffffffff811115611bc457611bc3612efd565b5b604051908082528060200260200182016040528015611bfd57816020015b611bea6129fd565b815260200190600190039081611be25790505b50905060008367ffffffffffffffff811115611c1c57611c1b612efd565b5b604051908082528060200260200182016040528015611c5557816020015b611c42612a9b565b815260200190600190039081611c3a5790505b50905060005b8c51811015611d195760008d8281518110611c7957611c78613f11565b5b6020026020010151905060005b8160200151811015611d04576040518060400160405280836000015173ffffffffffffffffffffffffffffffffffffffff1681526020018360400151815250868981518110611cd857611cd7613f11565b5b60200260200101819052508780611cee90613f6f565b9850508080611cfc90613f6f565b915050611c86565b50508080611d1190613f6f565b915050611c5b565b5060005b84811015611e455760019a5060005b85811015611da657848181518110611d4757611d46613f11565b5b602002602001015160200151858381518110611d6657611d65613f11565b5b6020026020010151602001511015611d93578b80611d8390613f6f565b9c50508a8c1115611d92578b9a505b5b8080611d9e90613f6f565b915050611d2c565b506040518060600160405280858381518110611dc557611dc4613f11565b5b60200260200101516000015173ffffffffffffffffffffffffffffffffffffffff168152602001858381518110611dff57611dfe613f11565b5b60200260200101516020015181526020018c815250838281518110611e2757611e26613f11565b5b60200260200101819052508080611e3d90613f6f565b915050611d1d565b50600094506000600190505b898111611f835760005b85811015611f6f5781848281518110611e7757611e76613f11565b5b60200260200101516040015103611f5c576040518060e00160405280858381518110611ea657611ea5613f11565b5b60200260200101516000015173ffffffffffffffffffffffffffffffffffffffff168152602001858381518110611ee057611edf613f11565b5b6020026020010151602001518152602001858381518110611f0457611f03613f11565b5b60200260200101516040015181526020016000815260200160008152602001600081526020016000815250838881518110611f4257611f41613f11565b5b60200260200101819052508680611f5890613f6f565b9750505b8080611f6790613f6f565b915050611e5b565b508080611f7b90613f6f565b915050611e51565b506064600b5489600a54611f9791906143d8565b611fa1919061440c565b611fab9190614495565b95508588611fb9919061433a565b97508581600081518110611fd057611fcf613f11565b5b602002602001015160600181815250508581600081518110611ff557611ff4613f11565b5b60200260200101516080018181525050858160008151811061201a57612019613f11565b5b602002602001015160a0018181525050858160008151811061203f5761203e613f11565b5b602002602001015160c00181815250506000600190505b84811015612489576064600b548a600a5461207191906143d8565b61207b919061440c565b6120859190614495565b96508682828151811061209b5761209a613f11565b5b6020026020010151606001818152505086896120b7919061433a565b9850888282815181106120cd576120cc613f11565b5b602002602001015160800181815250506001856120ea91906143d8565b81146122d057816001826120fe91906143d8565b8151811061210f5761210e613f11565b5b60200260200101516040015182828151811061212e5761212d613f11565b5b6020026020010151604001510361219d57868260018361214e91906143d8565b8151811061215f5761215e613f11565b5b602002602001015160a00151612175919061433a565b82828151811061218857612187613f11565b5b602002602001015160a00181815250506122cb565b868282815181106121b1576121b0613f11565b5b602002602001015160a0018181525050868282815181106121d5576121d4613f11565b5b602002602001015160c0018181525050816001826121f391906143d8565b8151811061220457612203613f11565b5b60200260200101516040015182828151811061222357612222613f11565b5b60200260200101516040015161223991906143d8565b975060005b888110156122c957888360018461225591906143d8565b8151811061226657612265613f11565b5b602002602001015160a0015161227c9190614495565b8360018361228a919061433a565b8461229591906143d8565b815181106122a6576122a5613f11565b5b602002602001015160c001818152505080806122c190613f6f565b91505061223e565b505b612476565b816001826122de91906143d8565b815181106122ef576122ee613f11565b5b60200260200101516040015182828151811061230e5761230d613f11565b5b6020026020010151604001510361242c57868260018361232e91906143d8565b8151811061233f5761233e613f11565b5b602002602001015160a00151612355919061433a565b82828151811061236857612367613f11565b5b602002602001015160a001818152505081818151811061238b5761238a613f11565b5b6020026020010151604001516001866123a4919061433a565b6123ae91906143d8565b975060005b8881101561242657888383815181106123cf576123ce613f11565b5b602002602001015160a001516123e59190614495565b8382846123f291906143d8565b8151811061240357612402613f11565b5b602002602001015160c0018181525050808061241e90613f6f565b9150506123b3565b50612475565b868282815181106124405761243f613f11565b5b602002602001015160a00181815250508682828151811061246457612463613f11565b5b602002602001015160c00181815250505b5b808061248190613f6f565b915050612056565b50809a505050505050505050505092915050565b60006124a8826119da565b905060006124b68383611b2e565b90506000600c60008581526020019081526020016000206040518060a00160405280846000815181106124ec576124eb613f11565b5b60200260200101516000015173ffffffffffffffffffffffffffffffffffffffff168152602001600181526020018460008151811061252e5761252d613f11565b5b60200260200101516020015181526020018460008151811061255357612552613f11565b5b60200260200101516040015181526020018460008151811061257857612577613f11565b5b602002602001015160c00151815250908060018154018082558091505060019003906000526020600020906005020160009091909190915060008201518160000160006101000a81548173ffffffffffffffffffffffffffffffffffffffff021916908373ffffffffffffffffffffffffffffffffffffffff1602179055506020820151816001015560408201518160020155606082015181600301556080820151816004015550506000600190505b600d6000868152602001908152602001600020548110156128ff578260018261265191906143d8565b8151811061266257612661613f11565b5b60200260200101516000015173ffffffffffffffffffffffffffffffffffffffff1683828151811061269757612696613f11565b5b60200260200101516000015173ffffffffffffffffffffffffffffffffffffffff160361277a57600c600086815260200190815260200160002082815481106126e3576126e2613f11565b5b9060005260206000209060050201600101600081548092919061270590613f6f565b919050555082818151811061271d5761271c613f11565b5b602002602001015160c00151600c6000878152602001908152602001600020838154811061274e5761274d613f11565b5b9060005260206000209060050201600401600082825461276e919061433a565b925050819055506128ec565b600c60008681526020019081526020016000206040518060a001604052808584815181106127ab576127aa613f11565b5b60200260200101516000015173ffffffffffffffffffffffffffffffffffffffff168152602001600181526020018584815181106127ec576127eb613f11565b5b60200260200101516020015181526020018584815181106128105761280f613f11565b5b602002602001015160400151815260200185848151811061283457612833613f11565b5b602002602001015160c00151815250908060018154018082558091505060019003906000526020600020906005020160009091909190915060008201518160000160006101000a81548173ffffffffffffffffffffffffffffffffffffffff021916908373ffffffffffffffffffffffffffffffffffffffff16021790555060208201518160010155604082015181600201556060820151816003015560808201518160040155505081806128e890613f6f565b9250505b80806128f790613f6f565b915050612628565b5050505050565b6000808260405161291791906143c1565b9081526020016040518091039020805490509050919050565b6000600854905090565b6000808260ff168460ff1611156129545760009050612971565b8360ff168360ff16111561296b5760029050612970565b600190505b5b8091505092915050565b6040518060600160405280600063ffffffff168152602001600060ff168152602001600060ff1681525090565b6040518060800160405280600063ffffffff168152602001600064ffffffffff16815260200160608152602001606081525090565b6040518060400160405280600060ff168152602001600060ff1681525090565b6040518060600160405280600073ffffffffffffffffffffffffffffffffffffffff16815260200160008152602001600081525090565b6040518060600160405280600073ffffffffffffffffffffffffffffffffffffffff16815260200160008152602001600081525090565b6040518060400160405280600073ffffffffffffffffffffffffffffffffffffffff168152602001600081525090565b6040518060e00160405280600073ffffffffffffffffffffffffffffffffffffffff1681526020016000815260200160008152602001600081526020016000815260200160008152602001600081525090565b6000819050919050565b612b0181612aee565b82525050565b6000602082019050612b1c6000830184612af8565b92915050565b6000604051905090565b600080fd5b600080fd5b612b3f81612aee565b8114612b4a57600080fd5b50565b600081359050612b5c81612b36565b92915050565b600073ffffffffffffffffffffffffffffffffffffffff82169050919050565b6000612b8d82612b62565b9050919050565b612b9d81612b82565b8114612ba857600080fd5b50565b600081359050612bba81612b94565b92915050565b60008060408385031215612bd757612bd6612b2c565b5b6000612be585828601612b4d565b9250506020612bf685828601612bab565b9150509250929050565b600081519050919050565b600082825260208201905092915050565b6000819050602082019050919050565b600063ffffffff82169050919050565b612c4581612c2c565b82525050565b600060ff82169050919050565b612c6181612c4b565b82525050565b606082016000820151612c7d6000850182612c3c565b506020820151612c906020850182612c58565b506040820151612ca36040850182612c58565b50505050565b6000612cb58383612c67565b60608301905092915050565b6000602082019050919050565b6000612cd982612c00565b612ce38185612c0b565b9350612cee83612c1c565b8060005b83811015612d1f578151612d068882612ca9565b9750612d1183612cc1565b925050600181019050612cf2565b5085935050505092915050565b60006020820190508181036000830152612d468184612cce565b905092915050565b600060208284031215612d6457612d63612b2c565b5b6000612d7284828501612b4d565b91505092915050565b600081519050919050565b600082825260208201905092915050565b6000819050602082019050919050565b600081519050919050565b600082825260208201905092915050565b60005b83811015612de1578082015181840152602081019050612dc6565b83811115612df0576000848401525b50505050565b6000601f19601f8301169050919050565b6000612e1282612da7565b612e1c8185612db2565b9350612e2c818560208601612dc3565b612e3581612df6565b840191505092915050565b6000612e4c8383612e07565b905092915050565b6000602082019050919050565b6000612e6c82612d7b565b612e768185612d86565b935083602082028501612e8885612d97565b8060005b85811015612ec45784840389528151612ea58582612e40565b9450612eb083612e54565b925060208a01995050600181019050612e8c565b50829750879550505050505092915050565b60006020820190508181036000830152612ef08184612e61565b905092915050565b600080fd5b7f4e487b7100000000000000000000000000000000000000000000000000000000600052604160045260246000fd5b612f3582612df6565b810181811067ffffffffffffffff82111715612f5457612f53612efd565b5b80604052505050565b6000612f67612b22565b9050612f738282612f2c565b919050565b600067ffffffffffffffff821115612f9357612f92612efd565b5b602082029050602081019050919050565b600080fd5b600080fd5b600067ffffffffffffffff821115612fc957612fc8612efd565b5b612fd282612df6565b9050602081019050919050565b82818337600083830152505050565b6000613001612ffc84612fae565b612f5d565b90508281526020810184848401111561301d5761301c612fa9565b5b613028848285612fdf565b509392505050565b600082601f83011261304557613044612ef8565b5b8135613055848260208601612fee565b91505092915050565b600061307161306c84612f78565b612f5d565b9050808382526020820190506020840283018581111561309457613093612fa4565b5b835b818110156130db57803567ffffffffffffffff8111156130b9576130b8612ef8565b5b8086016130c68982613030565b85526020850194505050602081019050613096565b5050509392505050565b600082601f8301126130fa576130f9612ef8565b5b813561310a84826020860161305e565b91505092915050565b60008060006060848603121561312c5761312b612b2c565b5b600061313a86828701612b4d565b935050602084013567ffffffffffffffff81111561315b5761315a612b31565b5b613167868287016130e5565b925050604061317886828701612b4d565b9150509250925092565b61318b81612c2c565b811461319657600080fd5b50565b6000813590506131a881613182565b92915050565b6000602082840312156131c4576131c3612b2c565b5b60006131d284828501613199565b91505092915050565b6040820160008201516131f16000850182612c58565b5060208201516132046020850182612c58565b50505050565b600060408201905061321f60008301846131db565b92915050565b600067ffffffffffffffff8211156132405761323f612efd565b5b602082029050602081019050919050565b600080fd5b600080fd5b600064ffffffffff82169050919050565b6132758161325b565b811461328057600080fd5b50565b6000813590506132928161326c565b92915050565b6000608082840312156132ae576132ad613251565b5b6132b86080612f5d565b905060006132c884828501613199565b60008301525060206132dc84828501613283565b602083015250604082013567ffffffffffffffff811115613300576132ff613256565b5b61330c84828501613030565b604083015250606082013567ffffffffffffffff8111156133305761332f613256565b5b61333c84828501613030565b60608301525092915050565b600061335b61335684613225565b612f5d565b9050808382526020820190506020840283018581111561337e5761337d612fa4565b5b835b818110156133c557803567ffffffffffffffff8111156133a3576133a2612ef8565b5b8086016133b08982613298565b85526020850194505050602081019050613380565b5050509392505050565b600082601f8301126133e4576133e3612ef8565b5b81356133f4848260208601613348565b91505092915050565b6000806040838503121561341457613413612b2c565b5b600083013567ffffffffffffffff81111561343257613431612b31565b5b61343e85828601613030565b925050602083013567ffffffffffffffff81111561345f5761345e612b31565b5b61346b858286016133cf565b9150509250929050565b600081519050919050565b600082825260208201905092915050565b6000819050602082019050919050565b6134aa81612b82565b82525050565b6134b981612aee565b82525050565b60a0820160008201516134d560008501826134a1565b5060208201516134e860208501826134b0565b5060408201516134fb60408501826134b0565b50606082015161350e60608501826134b0565b50608082015161352160808501826134b0565b50505050565b600061353383836134bf565b60a08301905092915050565b6000602082019050919050565b600061355782613475565b6135618185613480565b935061356c83613491565b8060005b8381101561359d5781516135848882613527565b975061358f8361353f565b925050600181019050613570565b5085935050505092915050565b600060208201905081810360008301526135c4818461354c565b905092915050565b600067ffffffffffffffff8211156135e7576135e6612efd565b5b602082029050602081019050919050565b61360181612c4b565b811461360c57600080fd5b50565b60008135905061361e816135f8565b92915050565b60006080828403121561363a57613639613251565b5b6136446080612f5d565b9050600061365484828501613199565b60008301525060206136688482850161360f565b602083015250604061367c8482850161360f565b604083015250606082013567ffffffffffffffff8111156136a05761369f613256565b5b6136ac84828501613030565b60608301525092915050565b60006136cb6136c6846135cc565b612f5d565b905080838252602082019050602084028301858111156136ee576136ed612fa4565b5b835b8181101561373557803567ffffffffffffffff81111561371357613712612ef8565b5b8086016137208982613624565b855260208501945050506020810190506136f0565b5050509392505050565b600082601f83011261375457613753612ef8565b5b81356137648482602086016136b8565b91505092915050565b60006020828403121561378357613782612b2c565b5b600082013567ffffffffffffffff8111156137a1576137a0612b31565b5b6137ad8482850161373f565b91505092915050565b600080604083850312156137cd576137cc612b2c565b5b60006137db85828601612b4d565b92505060206137ec85828601612b4d565b9150509250929050565b6137ff81612b82565b82525050565b600060a08201905061381a60008301886137f6565b6138276020830187612af8565b6138346040830186612af8565b6138416060830185612af8565b61384e6080830184612af8565b9695505050505050565b600081519050919050565b600082825260208201905092915050565b6000819050602082019050919050565b61388d8161325b565b82525050565b60006080830160008301516138ab6000860182612c3c565b5060208301516138be6020860182613884565b50604083015184820360408601526138d68282612e07565b915050606083015184820360608601526138f08282612e07565b9150508091505092915050565b60006139098383613893565b905092915050565b6000602082019050919050565b600061392982613858565b6139338185613863565b93508360208202850161394585613874565b8060005b85811015613981578484038952815161396285826138fd565b945061396d83613911565b925060208a01995050600181019050613949565b50829750879550505050505092915050565b600060208201905081810360008301526139ad818461391e565b905092915050565b600080604083850312156139cc576139cb612b2c565b5b600083013567ffffffffffffffff8111156139ea576139e9612b31565b5b6139f685828601613030565b9250506020613a0785828601612b4d565b9150509250929050565b6000608083016000830151613a296000860182612c3c565b506020830151613a3c6020860182613884565b5060408301518482036040860152613a548282612e07565b91505060608301518482036060860152613a6e8282612e07565b9150508091505092915050565b60006020820190508181036000830152613a958184613a11565b905092915050565b60008115159050919050565b613ab281613a9d565b82525050565b6000602082019050613acd6000830184613aa9565b92915050565b600081519050919050565b600082825260208201905092915050565b6000819050602082019050919050565b606082016000820151613b1560008501826134a1565b506020820151613b2860208501826134b0565b506040820151613b3b60408501826134b0565b50505050565b6000613b4d8383613aff565b60608301905092915050565b6000602082019050919050565b6000613b7182613ad3565b613b7b8185613ade565b9350613b8683613aef565b8060005b83811015613bb7578151613b9e8882613b41565b9750613ba983613b59565b925050600181019050613b8a565b5085935050505092915050565b60006020820190508181036000830152613bde8184613b66565b905092915050565b600067ffffffffffffffff821115613c0157613c00612efd565b5b602082029050602081019050919050565b600060608284031215613c2857613c27613251565b5b613c326060612f5d565b90506000613c4284828501612bab565b6000830152506020613c5684828501612b4d565b6020830152506040613c6a84828501612b4d565b60408301525092915050565b6000613c89613c8484613be6565b612f5d565b90508083825260208201905060608402830185811115613cac57613cab612fa4565b5b835b81811015613cd55780613cc18882613c12565b845260208401935050606081019050613cae565b5050509392505050565b600082601f830112613cf457613cf3612ef8565b5b8135613d04848260208601613c76565b91505092915050565b60008060408385031215613d2457613d23612b2c565b5b6000613d3285828601612b4d565b925050602083013567ffffffffffffffff811115613d5357613d52612b31565b5b613d5f85828601613cdf565b9150509250929050565b600081519050919050565b600082825260208201905092915050565b6000819050602082019050919050565b60e082016000820151613dab60008501826134a1565b506020820151613dbe60208501826134b0565b506040820151613dd160408501826134b0565b506060820151613de460608501826134b0565b506080820151613df760808501826134b0565b5060a0820151613e0a60a08501826134b0565b5060c0820151613e1d60c08501826134b0565b50505050565b6000613e2f8383613d95565b60e08301905092915050565b6000602082019050919050565b6000613e5382613d69565b613e5d8185613d74565b9350613e6883613d85565b8060005b83811015613e99578151613e808882613e23565b9750613e8b83613e3b565b925050600181019050613e6c565b5085935050505092915050565b60006020820190508181036000830152613ec08184613e48565b905092915050565b600060208284031215613ede57613edd612b2c565b5b600082013567ffffffffffffffff811115613efc57613efb612b31565b5b613f0884828501613030565b91505092915050565b7f4e487b7100000000000000000000000000000000000000000000000000000000600052603260045260246000fd5b7f4e487b7100000000000000000000000000000000000000000000000000000000600052601160045260246000fd5b6000613f7a82612aee565b91507fffffffffffffffffffffffffffffffffffffffffffffffffffffffffffffffff8203613fac57613fab613f40565b5b600182019050919050565b7f4e487b7100000000000000000000000000000000000000000000000000000000600052602260045260246000fd5b60006002820490506001821680613ffe57607f821691505b60208210810361401157614010613fb7565b5b50919050565b60008190508160005260206000209050919050565b60006020601f8301049050919050565b600082821b905092915050565b6000600883026140797fffffffffffffffffffffffffffffffffffffffffffffffffffffffffffffffff8261403c565b614083868361403c565b95508019841693508086168417925050509392505050565b6000819050919050565b60006140c06140bb6140b684612aee565b61409b565b612aee565b9050919050565b6000819050919050565b6140da836140a5565b6140ee6140e6826140c7565b848454614049565b825550505050565b600090565b6141036140f6565b61410e8184846140d1565b505050565b5b81811015614132576141276000826140fb565b600181019050614114565b5050565b601f8211156141775761414881614017565b6141518461402c565b81016020851015614160578190505b61417461416c8561402c565b830182614113565b50505b505050565b600082821c905092915050565b600061419a6000198460080261417c565b1980831691505092915050565b60006141b38383614189565b9150826002028217905092915050565b6141cc82612da7565b67ffffffffffffffff8111156141e5576141e4612efd565b5b6141ef8254613fe6565b6141fa828285614136565b600060209050601f83116001811461422d576000841561421b578287015190505b61422585826141a7565b86555061428d565b601f19841661423b86614017565b60005b828110156142635784890151825560018201915060208501945060208101905061423e565b86831015614280578489015161427c601f891682614189565b8355505b6001600288020188555050505b505050505050565b600081905092915050565b600081546142ad81613fe6565b6142b78186614295565b945060018216600081146142d257600181146142e75761431a565b60ff198316865281151582028601935061431a565b6142f085614017565b60005b83811015614312578154818901526001820191506020810190506142f3565b838801955050505b50505092915050565b600061432f82846142a0565b915081905092915050565b600061434582612aee565b915061435083612aee565b9250827fffffffffffffffffffffffffffffffffffffffffffffffffffffffffffffffff0382111561438557614384613f40565b5b828201905092915050565b600061439b82612da7565b6143a58185614295565b93506143b5818560208601612dc3565b80840191505092915050565b60006143cd8284614390565b915081905092915050565b60006143e382612aee565b91506143ee83612aee565b92508282101561440157614400613f40565b5b828203905092915050565b600061441782612aee565b915061442283612aee565b9250817fffffffffffffffffffffffffffffffffffffffffffffffffffffffffffffffff048311821515161561445b5761445a613f40565b5b828202905092915050565b7f4e487b7100000000000000000000000000000000000000000000000000000000600052601260045260246000fd5b60006144a082612aee565b91506144ab83612aee565b9250826144bb576144ba614466565b5b82820490509291505056fea2646970667358221220f7b3410bef33d8e5a376ab2eca2b23cee0b740f963e1a9f3feadb326cee440b664736f6c634300080f0033","opcodes":"PUSH1 0x80 PUSH1 0x40 MSTORE CALLVALUE DUP1 ISZERO PUSH2 0x10 JUMPI PUSH1 0x0 DUP1 REVERT JUMPDEST POP PUSH1 0x0 PUSH1 0x8 DUP2 SWAP1 SSTORE POP PUSH2 0x6DE PUSH1 0xA DUP2 SWAP1 SSTORE POP PUSH1 0x5 PUSH1 0xB DUP2 SWAP1 SSTORE POP PUSH1 0x19 PUSH1 0xD PUSH1 0x0 PUSH1 0x1 DUP2 MSTORE PUSH1 0x20 ADD SWAP1 DUP2 MSTORE PUSH1 0x20 ADD PUSH1 0x0 KECCAK256 DUP2 SWAP1 SSTORE POP PUSH2 0x44FC DUP1 PUSH2 0x53 PUSH1 0x0 CODECOPY PUSH1 0x0 RETURN INVALID PUSH1 0x80 PUSH1 0x40 MSTORE CALLVALUE DUP1 ISZERO PUSH2 0x10 JUMPI PUSH1 0x0 DUP1 REVERT JUMPDEST POP PUSH1 0x4 CALLDATASIZE LT PUSH2 0x137 JUMPI PUSH1 0x0 CALLDATALOAD PUSH1 0xE0 SHR DUP1 PUSH4 0x57D088FF GT PUSH2 0xB8 JUMPI DUP1 PUSH4 0x8B617036 GT PUSH2 0x7C JUMPI DUP1 PUSH4 0x8B617036 EQ PUSH2 0x3C2 JUMPI DUP1 PUSH4 0xB66195B8 EQ PUSH2 0x3F2 JUMPI DUP1 PUSH4 0xBAF63783 EQ PUSH2 0x422 JUMPI DUP1 PUSH4 0xD6221518 EQ PUSH2 0x452 JUMPI DUP1 PUSH4 0xEA6A0410 EQ PUSH2 0x46E JUMPI DUP1 PUSH4 0xFB46BD22 EQ PUSH2 0x49E JUMPI PUSH2 0x137 JUMP JUMPDEST DUP1 PUSH4 0x57D088FF EQ PUSH2 0x2CE JUMPI DUP1 PUSH4 0x62436D9D EQ PUSH2 0x302 JUMPI DUP1 PUSH4 0x7E5DD913 EQ PUSH2 0x332 JUMPI DUP1 PUSH4 0x7FB9C45F EQ PUSH2 0x362 JUMPI DUP1 PUSH4 0x80B41A09 EQ PUSH2 0x392 JUMPI PUSH2 0x137 JUMP JUMPDEST DUP1 PUSH4 0x1E7741F0 GT PUSH2 0xFF JUMPI DUP1 PUSH4 0x1E7741F0 EQ PUSH2 0x206 JUMPI DUP1 PUSH4 0x1F2BF10C EQ PUSH2 0x236 JUMPI DUP1 PUSH4 0x2452A7E3 EQ PUSH2 0x252 JUMPI DUP1 PUSH4 0x3302787D EQ PUSH2 0x282 JUMPI DUP1 PUSH4 0x4FDA591E EQ PUSH2 0x29E JUMPI PUSH2 0x137 JUMP JUMPDEST DUP1 PUSH4 0x8AF2D78 EQ PUSH2 0x13C JUMPI DUP1 PUSH4 0x117F3998 EQ PUSH2 0x15A JUMPI DUP1 PUSH4 0x1506BCA6 EQ PUSH2 0x18A JUMPI DUP1 PUSH4 0x18699547 EQ PUSH2 0x1BA JUMPI DUP1 PUSH4 0x1D883342 EQ PUSH2 0x1D6 JUMPI JUMPDEST PUSH1 0x0 DUP1 REVERT JUMPDEST PUSH2 0x144 PUSH2 0x4BC JUMP JUMPDEST PUSH1 0x40 MLOAD PUSH2 0x151 SWAP2 SWAP1 PUSH2 0x2B07 JUMP JUMPDEST PUSH1 0x40 MLOAD DUP1 SWAP2 SUB SWAP1 RETURN JUMPDEST PUSH2 0x174 PUSH1 0x4 DUP1 CALLDATASIZE SUB DUP2 ADD SWAP1 PUSH2 0x16F SWAP2 SWAP1 PUSH2 0x2BC0 JUMP JUMPDEST PUSH2 0x4DC JUMP JUMPDEST PUSH1 0x40 MLOAD PUSH2 0x181 SWAP2 SWAP1 PUSH2 0x2D2C JUMP JUMPDEST PUSH1 0x40 MLOAD DUP1 SWAP2 SUB SWAP1 RETURN JUMPDEST PUSH2 0x1A4 PUSH1 0x4 DUP1 CALLDATASIZE SUB DUP2 ADD SWAP1 PUSH2 0x19F SWAP2 SWAP1 PUSH2 0x2D4E JUMP JUMPDEST PUSH2 0x733 JUMP JUMPDEST PUSH1 0x40 MLOAD PUSH2 0x1B1 SWAP2 SWAP1 PUSH2 0x2ED6 JUMP JUMPDEST PUSH1 0x40 MLOAD DUP1 SWAP2 SUB SWAP1 RETURN JUMPDEST PUSH2 0x1D4 PUSH1 0x4 DUP1 CALLDATASIZE SUB DUP2 ADD SWAP1 PUSH2 0x1CF SWAP2 SWAP1 PUSH2 0x3113 JUMP JUMPDEST PUSH2 0x81F JUMP JUMPDEST STOP JUMPDEST PUSH2 0x1F0 PUSH1 0x4 DUP1 CALLDATASIZE SUB DUP2 ADD SWAP1 PUSH2 0x1EB SWAP2 SWAP1 PUSH2 0x2D4E JUMP JUMPDEST PUSH2 0x8FF JUMP JUMPDEST PUSH1 0x40 MLOAD PUSH2 0x1FD SWAP2 SWAP1 PUSH2 0x2B07 JUMP JUMPDEST PUSH1 0x40 MLOAD DUP1 SWAP2 SUB SWAP1 RETURN JUMPDEST PUSH2 0x220 PUSH1 0x4 DUP1 CALLDATASIZE SUB DUP2 ADD SWAP1 PUSH2 0x21B SWAP2 SWAP1 PUSH2 0x31AE JUMP JUMPDEST PUSH2 0x9A1 JUMP JUMPDEST PUSH1 0x40 MLOAD PUSH2 0x22D SWAP2 SWAP1 PUSH2 0x320A JUMP JUMPDEST PUSH1 0x40 MLOAD DUP1 SWAP2 SUB SWAP1 RETURN JUMPDEST PUSH2 0x250 PUSH1 0x4 DUP1 CALLDATASIZE SUB DUP2 ADD SWAP1 PUSH2 0x24B SWAP2 SWAP1 PUSH2 0x33FD JUMP JUMPDEST PUSH2 0xA14 JUMP JUMPDEST STOP JUMPDEST PUSH2 0x26C PUSH1 0x4 DUP1 CALLDATASIZE SUB DUP2 ADD SWAP1 PUSH2 0x267 SWAP2 SWAP1 PUSH2 0x2D4E JUMP JUMPDEST PUSH2 0xBA3 JUMP JUMPDEST PUSH1 0x40 MLOAD PUSH2 0x279 SWAP2 SWAP1 PUSH2 0x35AA JUMP JUMPDEST PUSH1 0x40 MLOAD DUP1 SWAP2 SUB SWAP1 RETURN JUMPDEST PUSH2 0x29C PUSH1 0x4 DUP1 CALLDATASIZE SUB DUP2 ADD SWAP1 PUSH2 0x297 SWAP2 SWAP1 PUSH2 0x376D JUMP JUMPDEST PUSH2 0xC93 JUMP JUMPDEST STOP JUMPDEST PUSH2 0x2B8 PUSH1 0x4 DUP1 CALLDATASIZE SUB DUP2 ADD SWAP1 PUSH2 0x2B3 SWAP2 SWAP1 PUSH2 0x2BC0 JUMP JUMPDEST PUSH2 0xDE5 JUMP JUMPDEST PUSH1 0x40 MLOAD PUSH2 0x2C5 SWAP2 SWAP1 PUSH2 0x2B07 JUMP JUMPDEST PUSH1 0x40 MLOAD DUP1 SWAP2 SUB SWAP1 RETURN JUMPDEST PUSH2 0x2E8 PUSH1 0x4 DUP1 CALLDATASIZE SUB DUP2 ADD SWAP1 PUSH2 0x2E3 SWAP2 SWAP1 PUSH2 0x37B6 JUMP JUMPDEST PUSH2 0x1017 JUMP JUMPDEST PUSH1 0x40 MLOAD PUSH2 0x2F9 SWAP6 SWAP5 SWAP4 SWAP3 SWAP2 SWAP1 PUSH2 0x3805 JUMP JUMPDEST PUSH1 0x40 MLOAD DUP1 SWAP2 SUB SWAP1 RETURN JUMPDEST PUSH2 0x31C PUSH1 0x4 DUP1 CALLDATASIZE SUB DUP2 ADD SWAP1 PUSH2 0x317 SWAP2 SWAP1 PUSH2 0x2D4E JUMP JUMPDEST PUSH2 0x108A JUMP JUMPDEST PUSH1 0x40 MLOAD PUSH2 0x329 SWAP2 SWAP1 PUSH2 0x2B07 JUMP JUMPDEST PUSH1 0x40 MLOAD DUP1 SWAP2 SUB SWAP1 RETURN JUMPDEST PUSH2 0x34C PUSH1 0x4 DUP1 CALLDATASIZE SUB DUP2 ADD SWAP1 PUSH2 0x347 SWAP2 SWAP1 PUSH2 0x2D4E JUMP JUMPDEST PUSH2 0x10AA JUMP JUMPDEST PUSH1 0x40 MLOAD PUSH2 0x359 SWAP2 SWAP1 PUSH2 0x3993 JUMP JUMPDEST PUSH1 0x40 MLOAD DUP1 SWAP2 SUB SWAP1 RETURN JUMPDEST PUSH2 0x37C PUSH1 0x4 DUP1 CALLDATASIZE SUB DUP2 ADD SWAP1 PUSH2 0x377 SWAP2 SWAP1 PUSH2 0x2BC0 JUMP JUMPDEST PUSH2 0x13D9 JUMP JUMPDEST PUSH1 0x40 MLOAD PUSH2 0x389 SWAP2 SWAP1 PUSH2 0x2B07 JUMP JUMPDEST PUSH1 0x40 MLOAD DUP1 SWAP2 SUB SWAP1 RETURN JUMPDEST PUSH2 0x3AC PUSH1 0x4 DUP1 CALLDATASIZE SUB DUP2 ADD SWAP1 PUSH2 0x3A7 SWAP2 SWAP1 PUSH2 0x39B5 JUMP JUMPDEST PUSH2 0x17EE JUMP JUMPDEST PUSH1 0x40 MLOAD PUSH2 0x3B9 SWAP2 SWAP1 PUSH2 0x3A7B JUMP JUMPDEST PUSH1 0x40 MLOAD DUP1 SWAP2 SUB SWAP1 RETURN JUMPDEST PUSH2 0x3DC PUSH1 0x4 DUP1 CALLDATASIZE SUB DUP2 ADD SWAP1 PUSH2 0x3D7 SWAP2 SWAP1 PUSH2 0x31AE JUMP JUMPDEST PUSH2 0x19BA JUMP JUMPDEST PUSH1 0x40 MLOAD PUSH2 0x3E9 SWAP2 SWAP1 PUSH2 0x3AB8 JUMP JUMPDEST PUSH1 0x40 MLOAD DUP1 SWAP2 SUB SWAP1 RETURN JUMPDEST PUSH2 0x40C PUSH1 0x4 DUP1 CALLDATASIZE SUB DUP2 ADD SWAP1 PUSH2 0x407 SWAP2 SWAP1 PUSH2 0x2D4E JUMP JUMPDEST PUSH2 0x19DA JUMP JUMPDEST PUSH1 0x40 MLOAD PUSH2 0x419 SWAP2 SWAP1 PUSH2 0x3BC4 JUMP JUMPDEST PUSH1 0x40 MLOAD DUP1 SWAP2 SUB SWAP1 RETURN JUMPDEST PUSH2 0x43C PUSH1 0x4 DUP1 CALLDATASIZE SUB DUP2 ADD SWAP1 PUSH2 0x437 SWAP2 SWAP1 PUSH2 0x3D0D JUMP JUMPDEST PUSH2 0x1B2E JUMP JUMPDEST PUSH1 0x40 MLOAD PUSH2 0x449 SWAP2 SWAP1 PUSH2 0x3EA6 JUMP JUMPDEST PUSH1 0x40 MLOAD DUP1 SWAP2 SUB SWAP1 RETURN JUMPDEST PUSH2 0x46C PUSH1 0x4 DUP1 CALLDATASIZE SUB DUP2 ADD SWAP1 PUSH2 0x467 SWAP2 SWAP1 PUSH2 0x2D4E JUMP JUMPDEST PUSH2 0x249D JUMP JUMPDEST STOP JUMPDEST PUSH2 0x488 PUSH1 0x4 DUP1 CALLDATASIZE SUB DUP2 ADD SWAP1 PUSH2 0x483 SWAP2 SWAP1 PUSH2 0x3EC8 JUMP JUMPDEST PUSH2 0x2906 JUMP JUMPDEST PUSH1 0x40 MLOAD PUSH2 0x495 SWAP2 SWAP1 PUSH2 0x2B07 JUMP JUMPDEST PUSH1 0x40 MLOAD DUP1 SWAP2 SUB SWAP1 RETURN JUMPDEST PUSH2 0x4A6 PUSH2 0x2930 JUMP JUMPDEST PUSH1 0x40 MLOAD PUSH2 0x4B3 SWAP2 SWAP1 PUSH2 0x2B07 JUMP JUMPDEST PUSH1 0x40 MLOAD DUP1 SWAP2 SUB SWAP1 RETURN JUMPDEST PUSH1 0x0 PUSH1 0x2 PUSH1 0x0 PUSH1 0x8 SLOAD DUP2 MSTORE PUSH1 0x20 ADD SWAP1 DUP2 MSTORE PUSH1 0x20 ADD PUSH1 0x0 KECCAK256 PUSH1 0x1 ADD SLOAD SWAP1 POP SWAP1 JUMP JUMPDEST PUSH1 0x60 PUSH1 0x0 PUSH2 0x4E9 DUP5 PUSH2 0x8FF JUMP JUMPDEST SWAP1 POP PUSH1 0x0 DUP1 DUP3 PUSH8 0xFFFFFFFFFFFFFFFF DUP2 GT ISZERO PUSH2 0x508 JUMPI PUSH2 0x507 PUSH2 0x2EFD JUMP JUMPDEST JUMPDEST PUSH1 0x40 MLOAD SWAP1 DUP1 DUP3 MSTORE DUP1 PUSH1 0x20 MUL PUSH1 0x20 ADD DUP3 ADD PUSH1 0x40 MSTORE DUP1 ISZERO PUSH2 0x541 JUMPI DUP2 PUSH1 0x20 ADD JUMPDEST PUSH2 0x52E PUSH2 0x297B JUMP JUMPDEST DUP2 MSTORE PUSH1 0x20 ADD SWAP1 PUSH1 0x1 SWAP1 SUB SWAP1 DUP2 PUSH2 0x526 JUMPI SWAP1 POP JUMPDEST POP SWAP1 POP PUSH1 0x0 DUP4 PUSH8 0xFFFFFFFFFFFFFFFF DUP2 GT ISZERO PUSH2 0x560 JUMPI PUSH2 0x55F PUSH2 0x2EFD JUMP JUMPDEST JUMPDEST PUSH1 0x40 MLOAD SWAP1 DUP1 DUP3 MSTORE DUP1 PUSH1 0x20 MUL PUSH1 0x20 ADD DUP3 ADD PUSH1 0x40 MSTORE DUP1 ISZERO PUSH2 0x599 JUMPI DUP2 PUSH1 0x20 ADD JUMPDEST PUSH2 0x586 PUSH2 0x29A8 JUMP JUMPDEST DUP2 MSTORE PUSH1 0x20 ADD SWAP1 PUSH1 0x1 SWAP1 SUB SWAP1 DUP2 PUSH2 0x57E JUMPI SWAP1 POP JUMPDEST POP SWAP1 POP PUSH2 0x5A5 DUP8 PUSH2 0x10AA JUMP JUMPDEST SWAP1 POP PUSH1 0x0 JUMPDEST DUP5 DUP2 LT ISZERO PUSH2 0x725 JUMPI DUP2 DUP2 DUP2 MLOAD DUP2 LT PUSH2 0x5C5 JUMPI PUSH2 0x5C4 PUSH2 0x3F11 JUMP JUMPDEST JUMPDEST PUSH1 0x20 MUL PUSH1 0x20 ADD ADD MLOAD PUSH1 0x0 ADD MLOAD SWAP4 POP PUSH1 0x40 MLOAD DUP1 PUSH1 0x60 ADD PUSH1 0x40 MSTORE DUP1 DUP6 PUSH4 0xFFFFFFFF AND DUP2 MSTORE PUSH1 0x20 ADD PUSH1 0x4 PUSH1 0x0 DUP11 PUSH20 0xFFFFFFFFFFFFFFFFFFFFFFFFFFFFFFFFFFFFFFFF AND PUSH20 0xFFFFFFFFFFFFFFFFFFFFFFFFFFFFFFFFFFFFFFFF AND DUP2 MSTORE PUSH1 0x20 ADD SWAP1 DUP2 MSTORE PUSH1 0x20 ADD PUSH1 0x0 KECCAK256 PUSH1 0x0 DUP12 DUP2 MSTORE PUSH1 0x20 ADD SWAP1 DUP2 MSTORE PUSH1 0x20 ADD PUSH1 0x0 KECCAK256 PUSH1 0x0 DUP8 PUSH4 0xFFFFFFFF AND PUSH4 0xFFFFFFFF AND DUP2 MSTORE PUSH1 0x20 ADD SWAP1 DUP2 MSTORE PUSH1 0x20 ADD PUSH1 0x0 KECCAK256 PUSH1 0x0 ADD PUSH1 0x0 SWAP1 SLOAD SWAP1 PUSH2 0x100 EXP SWAP1 DIV PUSH1 0xFF AND PUSH1 0xFF AND DUP2 MSTORE PUSH1 0x20 ADD PUSH1 0x4 PUSH1 0x0 DUP11 PUSH20 0xFFFFFFFFFFFFFFFFFFFFFFFFFFFFFFFFFFFFFFFF AND PUSH20 0xFFFFFFFFFFFFFFFFFFFFFFFFFFFFFFFFFFFFFFFF AND DUP2 MSTORE PUSH1 0x20 ADD SWAP1 DUP2 MSTORE PUSH1 0x20 ADD PUSH1 0x0 KECCAK256 PUSH1 0x0 DUP12 DUP2 MSTORE PUSH1 0x20 ADD SWAP1 DUP2 MSTORE PUSH1 0x20 ADD PUSH1 0x0 KECCAK256 PUSH1 0x0 DUP8 PUSH4 0xFFFFFFFF AND PUSH4 0xFFFFFFFF AND DUP2 MSTORE PUSH1 0x20 ADD SWAP1 DUP2 MSTORE PUSH1 0x20 ADD PUSH1 0x0 KECCAK256 PUSH1 0x0 ADD PUSH1 0x1 SWAP1 SLOAD SWAP1 PUSH2 0x100 EXP SWAP1 DIV PUSH1 0xFF AND PUSH1 0xFF AND DUP2 MSTORE POP DUP4 DUP3 DUP2 MLOAD DUP2 LT PUSH2 0x707 JUMPI PUSH2 0x706 PUSH2 0x3F11 JUMP JUMPDEST JUMPDEST PUSH1 0x20 MUL PUSH1 0x20 ADD ADD DUP2 SWAP1 MSTORE POP DUP1 DUP1 PUSH2 0x71D SWAP1 PUSH2 0x3F6F JUMP JUMPDEST SWAP2 POP POP PUSH2 0x5AA JUMP JUMPDEST POP DUP2 SWAP5 POP POP POP POP POP SWAP3 SWAP2 POP POP JUMP JUMPDEST PUSH1 0x60 PUSH1 0x1 PUSH1 0x0 DUP4 DUP2 MSTORE PUSH1 0x20 ADD SWAP1 DUP2 MSTORE PUSH1 0x20 ADD PUSH1 0x0 KECCAK256 DUP1 SLOAD DUP1 PUSH1 0x20 MUL PUSH1 0x20 ADD PUSH1 0x40 MLOAD SWAP1 DUP2 ADD PUSH1 0x40 MSTORE DUP1 SWAP3 SWAP2 SWAP1 DUP2 DUP2 MSTORE PUSH1 0x20 ADD PUSH1 0x0 SWAP1 JUMPDEST DUP3 DUP3 LT ISZERO PUSH2 0x814 JUMPI DUP4 DUP3 SWAP1 PUSH1 0x0 MSTORE PUSH1 0x20 PUSH1 0x0 KECCAK256 ADD DUP1 SLOAD PUSH2 0x787 SWAP1 PUSH2 0x3FE6 JUMP JUMPDEST DUP1 PUSH1 0x1F ADD PUSH1 0x20 DUP1 SWAP2 DIV MUL PUSH1 0x20 ADD PUSH1 0x40 MLOAD SWAP1 DUP2 ADD PUSH1 0x40 MSTORE DUP1 SWAP3 SWAP2 SWAP1 DUP2 DUP2 MSTORE PUSH1 0x20 ADD DUP3 DUP1 SLOAD PUSH2 0x7B3 SWAP1 PUSH2 0x3FE6 JUMP JUMPDEST DUP1 ISZERO PUSH2 0x800 JUMPI DUP1 PUSH1 0x1F LT PUSH2 0x7D5 JUMPI PUSH2 0x100 DUP1 DUP4 SLOAD DIV MUL DUP4 MSTORE SWAP2 PUSH1 0x20 ADD SWAP2 PUSH2 0x800 JUMP JUMPDEST DUP3 ADD SWAP2 SWAP1 PUSH1 0x0 MSTORE PUSH1 0x20 PUSH1 0x0 KECCAK256 SWAP1 JUMPDEST DUP2 SLOAD DUP2 MSTORE SWAP1 PUSH1 0x1 ADD SWAP1 PUSH1 0x20 ADD DUP1 DUP4 GT PUSH2 0x7E3 JUMPI DUP3 SWAP1 SUB PUSH1 0x1F AND DUP3 ADD SWAP2 JUMPDEST POP POP POP POP POP DUP2 MSTORE PUSH1 0x20 ADD SWAP1 PUSH1 0x1 ADD SWAP1 PUSH2 0x768 JUMP JUMPDEST POP POP POP POP SWAP1 POP SWAP2 SWAP1 POP JUMP JUMPDEST PUSH1 0x8 PUSH1 0x0 DUP2 SLOAD DUP1 SWAP3 SWAP2 SWAP1 PUSH2 0x832 SWAP1 PUSH2 0x3F6F JUMP JUMPDEST SWAP2 SWAP1 POP SSTORE POP PUSH1 0x0 JUMPDEST DUP3 MLOAD DUP2 LT ISZERO PUSH2 0x8B8 JUMPI PUSH1 0x1 PUSH1 0x0 PUSH1 0x8 SLOAD DUP2 MSTORE PUSH1 0x20 ADD SWAP1 DUP2 MSTORE PUSH1 0x20 ADD PUSH1 0x0 KECCAK256 DUP4 DUP3 DUP2 MLOAD DUP2 LT PUSH2 0x86B JUMPI PUSH2 0x86A PUSH2 0x3F11 JUMP JUMPDEST JUMPDEST PUSH1 0x20 MUL PUSH1 0x20 ADD ADD MLOAD SWAP1 DUP1 PUSH1 0x1 DUP2 SLOAD ADD DUP1 DUP3 SSTORE DUP1 SWAP2 POP POP PUSH1 0x1 SWAP1 SUB SWAP1 PUSH1 0x0 MSTORE PUSH1 0x20 PUSH1 0x0 KECCAK256 ADD PUSH1 0x0 SWAP1 SWAP2 SWAP1 SWAP2 SWAP1 SWAP2 POP SWAP1 DUP2 PUSH2 0x8A4 SWAP2 SWAP1 PUSH2 0x41C3 JUMP JUMPDEST POP DUP1 DUP1 PUSH2 0x8B0 SWAP1 PUSH2 0x3F6F JUMP JUMPDEST SWAP2 POP POP PUSH2 0x83A JUMP JUMPDEST POP PUSH1 0x40 MLOAD DUP1 PUSH1 0x40 ADD PUSH1 0x40 MSTORE DUP1 DUP5 DUP2 MSTORE PUSH1 0x20 ADD DUP3 DUP2 MSTORE POP PUSH1 0x2 PUSH1 0x0 PUSH1 0x8 SLOAD DUP2 MSTORE PUSH1 0x20 ADD SWAP1 DUP2 MSTORE PUSH1 0x20 ADD PUSH1 0x0 KECCAK256 PUSH1 0x0 DUP3 ADD MLOAD DUP2 PUSH1 0x0 ADD SSTORE PUSH1 0x20 DUP3 ADD MLOAD DUP2 PUSH1 0x1 ADD SSTORE SWAP1 POP POP POP POP POP JUMP JUMPDEST PUSH1 0x0 DUP1 PUSH1 0x0 SWAP1 POP PUSH1 0x0 JUMPDEST PUSH1 0x1 PUSH1 0x0 DUP6 DUP2 MSTORE PUSH1 0x20 ADD SWAP1 DUP2 MSTORE PUSH1 0x20 ADD PUSH1 0x0 KECCAK256 DUP1 SLOAD SWAP1 POP DUP2 LT ISZERO PUSH2 0x997 JUMPI PUSH1 0x0 PUSH1 0x1 PUSH1 0x0 DUP7 DUP2 MSTORE PUSH1 0x20 ADD SWAP1 DUP2 MSTORE PUSH1 0x20 ADD PUSH1 0x0 KECCAK256 DUP3 DUP2 SLOAD DUP2 LT PUSH2 0x94E JUMPI PUSH2 0x94D PUSH2 0x3F11 JUMP JUMPDEST JUMPDEST SWAP1 PUSH1 0x0 MSTORE PUSH1 0x20 PUSH1 0x0 KECCAK256 ADD PUSH1 0x40 MLOAD PUSH2 0x965 SWAP2 SWAP1 PUSH2 0x4323 JUMP JUMPDEST SWAP1 DUP2 MSTORE PUSH1 0x20 ADD PUSH1 0x40 MLOAD DUP1 SWAP2 SUB SWAP1 KECCAK256 DUP1 SLOAD SWAP1 POP DUP3 PUSH2 0x982 SWAP2 SWAP1 PUSH2 0x433A JUMP JUMPDEST SWAP2 POP DUP1 DUP1 PUSH2 0x98F SWAP1 PUSH2 0x3F6F JUMP JUMPDEST SWAP2 POP POP PUSH2 0x909 JUMP JUMPDEST POP DUP1 SWAP2 POP POP SWAP2 SWAP1 POP JUMP JUMPDEST PUSH2 0x9A9 PUSH2 0x29DD JUMP JUMPDEST PUSH1 0x3 PUSH1 0x0 DUP4 PUSH4 0xFFFFFFFF AND PUSH4 0xFFFFFFFF AND DUP2 MSTORE PUSH1 0x20 ADD SWAP1 DUP2 MSTORE PUSH1 0x20 ADD PUSH1 0x0 KECCAK256 PUSH1 0x40 MLOAD DUP1 PUSH1 0x40 ADD PUSH1 0x40 MSTORE SWAP1 DUP2 PUSH1 0x0 DUP3 ADD PUSH1 0x0 SWAP1 SLOAD SWAP1 PUSH2 0x100 EXP SWAP1 DIV PUSH1 0xFF AND PUSH1 0xFF AND PUSH1 0xFF AND DUP2 MSTORE PUSH1 0x20 ADD PUSH1 0x0 DUP3 ADD PUSH1 0x1 SWAP1 SLOAD SWAP1 PUSH2 0x100 EXP SWAP1 DIV PUSH1 0xFF AND PUSH1 0xFF AND PUSH1 0xFF AND DUP2 MSTORE POP POP SWAP1 POP SWAP2 SWAP1 POP JUMP JUMPDEST PUSH1 0x0 JUMPDEST DUP2 MLOAD DUP2 LT ISZERO PUSH2 0xB9E JUMPI PUSH1 0x0 DUP4 PUSH1 0x40 MLOAD PUSH2 0xA30 SWAP2 SWAP1 PUSH2 0x43C1 JUMP JUMPDEST SWAP1 DUP2 MSTORE PUSH1 0x20 ADD PUSH1 0x40 MLOAD DUP1 SWAP2 SUB SWAP1 KECCAK256 PUSH1 0x40 MLOAD DUP1 PUSH1 0x80 ADD PUSH1 0x40 MSTORE DUP1 DUP5 DUP5 DUP2 MLOAD DUP2 LT PUSH2 0xA5C JUMPI PUSH2 0xA5B PUSH2 0x3F11 JUMP JUMPDEST JUMPDEST PUSH1 0x20 MUL PUSH1 0x20 ADD ADD MLOAD PUSH1 0x0 ADD MLOAD PUSH4 0xFFFFFFFF AND DUP2 MSTORE PUSH1 0x20 ADD DUP5 DUP5 DUP2 MLOAD DUP2 LT PUSH2 0xA86 JUMPI PUSH2 0xA85 PUSH2 0x3F11 JUMP JUMPDEST JUMPDEST PUSH1 0x20 MUL PUSH1 0x20 ADD ADD MLOAD PUSH1 0x20 ADD MLOAD PUSH5 0xFFFFFFFFFF AND DUP2 MSTORE PUSH1 0x20 ADD DUP5 DUP5 DUP2 MLOAD DUP2 LT PUSH2 0xAB1 JUMPI PUSH2 0xAB0 PUSH2 0x3F11 JUMP JUMPDEST JUMPDEST PUSH1 0x20 MUL PUSH1 0x20 ADD ADD MLOAD PUSH1 0x40 ADD MLOAD DUP2 MSTORE PUSH1 0x20 ADD DUP5 DUP5 DUP2 MLOAD DUP2 LT PUSH2 0xAD5 JUMPI PUSH2 0xAD4 PUSH2 0x3F11 JUMP JUMPDEST JUMPDEST PUSH1 0x20 MUL PUSH1 0x20 ADD ADD MLOAD PUSH1 0x60 ADD MLOAD DUP2 MSTORE POP SWAP1 DUP1 PUSH1 0x1 DUP2 SLOAD ADD DUP1 DUP3 SSTORE DUP1 SWAP2 POP POP PUSH1 0x1 SWAP1 SUB SWAP1 PUSH1 0x0 MSTORE PUSH1 0x20 PUSH1 0x0 KECCAK256 SWAP1 PUSH1 0x3 MUL ADD PUSH1 0x0 SWAP1 SWAP2 SWAP1 SWAP2 SWAP1 SWAP2 POP PUSH1 0x0 DUP3 ADD MLOAD DUP2 PUSH1 0x0 ADD PUSH1 0x0 PUSH2 0x100 EXP DUP2 SLOAD DUP2 PUSH4 0xFFFFFFFF MUL NOT AND SWAP1 DUP4 PUSH4 0xFFFFFFFF AND MUL OR SWAP1 SSTORE POP PUSH1 0x20 DUP3 ADD MLOAD DUP2 PUSH1 0x0 ADD PUSH1 0x4 PUSH2 0x100 EXP DUP2 SLOAD DUP2 PUSH5 0xFFFFFFFFFF MUL NOT AND SWAP1 DUP4 PUSH5 0xFFFFFFFFFF AND MUL OR SWAP1 SSTORE POP PUSH1 0x40 DUP3 ADD MLOAD DUP2 PUSH1 0x1 ADD SWAP1 DUP2 PUSH2 0xB72 SWAP2 SWAP1 PUSH2 0x41C3 JUMP JUMPDEST POP PUSH1 0x60 DUP3 ADD MLOAD DUP2 PUSH1 0x2 ADD SWAP1 DUP2 PUSH2 0xB88 SWAP2 SWAP1 PUSH2 0x41C3 JUMP JUMPDEST POP POP POP DUP1 DUP1 PUSH2 0xB96 SWAP1 PUSH2 0x3F6F JUMP JUMPDEST SWAP2 POP POP PUSH2 0xA17 JUMP JUMPDEST POP POP POP JUMP JUMPDEST PUSH1 0x60 PUSH1 0xC PUSH1 0x0 DUP4 DUP2 MSTORE PUSH1 0x20 ADD SWAP1 DUP2 MSTORE PUSH1 0x20 ADD PUSH1 0x0 KECCAK256 DUP1 SLOAD DUP1 PUSH1 0x20 MUL PUSH1 0x20 ADD PUSH1 0x40 MLOAD SWAP1 DUP2 ADD PUSH1 0x40 MSTORE DUP1 SWAP3 SWAP2 SWAP1 DUP2 DUP2 MSTORE PUSH1 0x20 ADD PUSH1 0x0 SWAP1 JUMPDEST DUP3 DUP3 LT ISZERO PUSH2 0xC88 JUMPI DUP4 DUP3 SWAP1 PUSH1 0x0 MSTORE PUSH1 0x20 PUSH1 0x0 KECCAK256 SWAP1 PUSH1 0x5 MUL ADD PUSH1 0x40 MLOAD DUP1 PUSH1 0xA0 ADD PUSH1 0x40 MSTORE SWAP1 DUP2 PUSH1 0x0 DUP3 ADD PUSH1 0x0 SWAP1 SLOAD SWAP1 PUSH2 0x100 EXP SWAP1 DIV PUSH20 0xFFFFFFFFFFFFFFFFFFFFFFFFFFFFFFFFFFFFFFFF AND PUSH20 0xFFFFFFFFFFFFFFFFFFFFFFFFFFFFFFFFFFFFFFFF AND PUSH20 0xFFFFFFFFFFFFFFFFFFFFFFFFFFFFFFFFFFFFFFFF AND DUP2 MSTORE PUSH1 0x20 ADD PUSH1 0x1 DUP3 ADD SLOAD DUP2 MSTORE PUSH1 0x20 ADD PUSH1 0x2 DUP3 ADD SLOAD DUP2 MSTORE PUSH1 0x20 ADD PUSH1 0x3 DUP3 ADD SLOAD DUP2 MSTORE PUSH1 0x20 ADD PUSH1 0x4 DUP3 ADD SLOAD DUP2 MSTORE POP POP DUP2 MSTORE PUSH1 0x20 ADD SWAP1 PUSH1 0x1 ADD SWAP1 PUSH2 0xBD8 JUMP JUMPDEST POP POP POP POP SWAP1 POP SWAP2 SWAP1 POP JUMP JUMPDEST PUSH1 0x0 JUMPDEST DUP2 MLOAD DUP2 LT ISZERO PUSH2 0xDE1 JUMPI PUSH1 0x40 MLOAD DUP1 PUSH1 0x40 ADD PUSH1 0x40 MSTORE DUP1 DUP4 DUP4 DUP2 MLOAD DUP2 LT PUSH2 0xCBD JUMPI PUSH2 0xCBC PUSH2 0x3F11 JUMP JUMPDEST JUMPDEST PUSH1 0x20 MUL PUSH1 0x20 ADD ADD MLOAD PUSH1 0x20 ADD MLOAD PUSH1 0xFF AND DUP2 MSTORE PUSH1 0x20 ADD DUP4 DUP4 DUP2 MLOAD DUP2 LT PUSH2 0xCE4 JUMPI PUSH2 0xCE3 PUSH2 0x3F11 JUMP JUMPDEST JUMPDEST PUSH1 0x20 MUL PUSH1 0x20 ADD ADD MLOAD PUSH1 0x40 ADD MLOAD PUSH1 0xFF AND DUP2 MSTORE POP PUSH1 0x3 PUSH1 0x0 DUP5 DUP5 DUP2 MLOAD DUP2 LT PUSH2 0xD0D JUMPI PUSH2 0xD0C PUSH2 0x3F11 JUMP JUMPDEST JUMPDEST PUSH1 0x20 MUL PUSH1 0x20 ADD ADD MLOAD PUSH1 0x0 ADD MLOAD PUSH4 0xFFFFFFFF AND PUSH4 0xFFFFFFFF AND DUP2 MSTORE PUSH1 0x20 ADD SWAP1 DUP2 MSTORE PUSH1 0x20 ADD PUSH1 0x0 KECCAK256 PUSH1 0x0 DUP3 ADD MLOAD DUP2 PUSH1 0x0 ADD PUSH1 0x0 PUSH2 0x100 EXP DUP2 SLOAD DUP2 PUSH1 0xFF MUL NOT AND SWAP1 DUP4 PUSH1 0xFF AND MUL OR SWAP1 SSTORE POP PUSH1 0x20 DUP3 ADD MLOAD DUP2 PUSH1 0x0 ADD PUSH1 0x1 PUSH2 0x100 EXP DUP2 SLOAD DUP2 PUSH1 0xFF MUL NOT AND SWAP1 DUP4 PUSH1 0xFF AND MUL OR SWAP1 SSTORE POP SWAP1 POP POP PUSH1 0x1 PUSH1 0x9 PUSH1 0x0 DUP5 DUP5 DUP2 MLOAD DUP2 LT PUSH2 0xD91 JUMPI PUSH2 0xD90 PUSH2 0x3F11 JUMP JUMPDEST JUMPDEST PUSH1 0x20 MUL PUSH1 0x20 ADD ADD MLOAD PUSH1 0x0 ADD MLOAD PUSH4 0xFFFFFFFF AND PUSH4 0xFFFFFFFF AND DUP2 MSTORE PUSH1 0x20 ADD SWAP1 DUP2 MSTORE PUSH1 0x20 ADD PUSH1 0x0 KECCAK256 PUSH1 0x0 PUSH2 0x100 EXP DUP2 SLOAD DUP2 PUSH1 0xFF MUL NOT AND SWAP1 DUP4 ISZERO ISZERO MUL OR SWAP1 SSTORE POP DUP1 DUP1 PUSH2 0xDD9 SWAP1 PUSH2 0x3F6F JUMP JUMPDEST SWAP2 POP POP PUSH2 0xC96 JUMP JUMPDEST POP POP JUMP JUMPDEST PUSH1 0x0 DUP1 PUSH2 0xDF1 DUP5 PUSH2 0x19DA JUMP JUMPDEST SWAP1 POP PUSH1 0x0 DUP1 DUP3 MLOAD SWAP1 POP PUSH1 0x0 DUP1 DUP3 PUSH8 0xFFFFFFFFFFFFFFFF DUP2 GT ISZERO PUSH2 0xE17 JUMPI PUSH2 0xE16 PUSH2 0x2EFD JUMP JUMPDEST JUMPDEST PUSH1 0x40 MLOAD SWAP1 DUP1 DUP3 MSTORE DUP1 PUSH1 0x20 MUL PUSH1 0x20 ADD DUP3 ADD PUSH1 0x40 MSTORE DUP1 ISZERO PUSH2 0xE50 JUMPI DUP2 PUSH1 0x20 ADD JUMPDEST PUSH2 0xE3D PUSH2 0x29FD JUMP JUMPDEST DUP2 MSTORE PUSH1 0x20 ADD SWAP1 PUSH1 0x1 SWAP1 SUB SWAP1 DUP2 PUSH2 0xE35 JUMPI SWAP1 POP JUMPDEST POP SWAP1 POP PUSH1 0x0 JUMPDEST DUP4 DUP2 LT ISZERO PUSH2 0xF72 JUMPI PUSH1 0x1 SWAP5 POP PUSH1 0x0 JUMPDEST DUP5 DUP2 LT ISZERO PUSH2 0xED3 JUMPI DUP7 DUP2 DUP2 MLOAD DUP2 LT PUSH2 0xE80 JUMPI PUSH2 0xE7F PUSH2 0x3F11 JUMP JUMPDEST JUMPDEST PUSH1 0x20 MUL PUSH1 0x20 ADD ADD MLOAD PUSH1 0x40 ADD MLOAD DUP8 DUP4 DUP2 MLOAD DUP2 LT PUSH2 0xE9F JUMPI PUSH2 0xE9E PUSH2 0x3F11 JUMP JUMPDEST JUMPDEST PUSH1 0x20 MUL PUSH1 0x20 ADD ADD MLOAD PUSH1 0x40 ADD MLOAD LT ISZERO PUSH2 0xEC0 JUMPI DUP6 DUP1 PUSH2 0xEBC SWAP1 PUSH2 0x3F6F JUMP JUMPDEST SWAP7 POP POP JUMPDEST DUP1 DUP1 PUSH2 0xECB SWAP1 PUSH2 0x3F6F JUMP JUMPDEST SWAP2 POP POP PUSH2 0xE65 JUMP JUMPDEST POP PUSH1 0x40 MLOAD DUP1 PUSH1 0x60 ADD PUSH1 0x40 MSTORE DUP1 DUP8 DUP4 DUP2 MLOAD DUP2 LT PUSH2 0xEF2 JUMPI PUSH2 0xEF1 PUSH2 0x3F11 JUMP JUMPDEST JUMPDEST PUSH1 0x20 MUL PUSH1 0x20 ADD ADD MLOAD PUSH1 0x0 ADD MLOAD PUSH20 0xFFFFFFFFFFFFFFFFFFFFFFFFFFFFFFFFFFFFFFFF AND DUP2 MSTORE PUSH1 0x20 ADD DUP8 DUP4 DUP2 MLOAD DUP2 LT PUSH2 0xF2C JUMPI PUSH2 0xF2B PUSH2 0x3F11 JUMP JUMPDEST JUMPDEST PUSH1 0x20 MUL PUSH1 0x20 ADD ADD MLOAD PUSH1 0x40 ADD MLOAD DUP2 MSTORE PUSH1 0x20 ADD DUP7 DUP2 MSTORE POP DUP3 DUP3 DUP2 MLOAD DUP2 LT PUSH2 0xF54 JUMPI PUSH2 0xF53 PUSH2 0x3F11 JUMP JUMPDEST JUMPDEST PUSH1 0x20 MUL PUSH1 0x20 ADD ADD DUP2 SWAP1 MSTORE POP DUP1 DUP1 PUSH2 0xF6A SWAP1 PUSH2 0x3F6F JUMP JUMPDEST SWAP2 POP POP PUSH2 0xE56 JUMP JUMPDEST POP PUSH1 0x0 JUMPDEST DUP4 DUP2 LT ISZERO PUSH2 0x1008 JUMPI DUP2 DUP2 DUP2 MLOAD DUP2 LT PUSH2 0xF91 JUMPI PUSH2 0xF90 PUSH2 0x3F11 JUMP JUMPDEST JUMPDEST PUSH1 0x20 MUL PUSH1 0x20 ADD ADD MLOAD PUSH1 0x0 ADD MLOAD PUSH20 0xFFFFFFFFFFFFFFFFFFFFFFFFFFFFFFFFFFFFFFFF AND DUP9 PUSH20 0xFFFFFFFFFFFFFFFFFFFFFFFFFFFFFFFFFFFFFFFF AND SUB PUSH2 0xFF5 JUMPI DUP2 DUP2 DUP2 MLOAD DUP2 LT PUSH2 0xFE2 JUMPI PUSH2 0xFE1 PUSH2 0x3F11 JUMP JUMPDEST JUMPDEST PUSH1 0x20 MUL PUSH1 0x20 ADD ADD MLOAD PUSH1 0x40 ADD MLOAD SWAP3 POP PUSH2 0x1008 JUMP JUMPDEST DUP1 DUP1 PUSH2 0x1000 SWAP1 PUSH2 0x3F6F JUMP JUMPDEST SWAP2 POP POP PUSH2 0xF76 JUMP JUMPDEST POP DUP2 SWAP6 POP POP POP POP POP POP SWAP3 SWAP2 POP POP JUMP JUMPDEST PUSH1 0xC PUSH1 0x20 MSTORE DUP2 PUSH1 0x0 MSTORE PUSH1 0x40 PUSH1 0x0 KECCAK256 DUP2 DUP2 SLOAD DUP2 LT PUSH2 0x1033 JUMPI PUSH1 0x0 DUP1 REVERT JUMPDEST SWAP1 PUSH1 0x0 MSTORE PUSH1 0x20 PUSH1 0x0 KECCAK256 SWAP1 PUSH1 0x5 MUL ADD PUSH1 0x0 SWAP2 POP SWAP2 POP POP DUP1 PUSH1 0x0 ADD PUSH1 0x0 SWAP1 SLOAD SWAP1 PUSH2 0x100 EXP SWAP1 DIV PUSH20 0xFFFFFFFFFFFFFFFFFFFFFFFFFFFFFFFFFFFFFFFF AND SWAP1 DUP1 PUSH1 0x1 ADD SLOAD SWAP1 DUP1 PUSH1 0x2 ADD SLOAD SWAP1 DUP1 PUSH1 0x3 ADD SLOAD SWAP1 DUP1 PUSH1 0x4 ADD SLOAD SWAP1 POP DUP6 JUMP JUMPDEST PUSH1 0x0 PUSH1 0x5 PUSH1 0x0 DUP4 DUP2 MSTORE PUSH1 0x20 ADD SWAP1 DUP2 MSTORE PUSH1 0x20 ADD PUSH1 0x0 KECCAK256 DUP1 SLOAD SWAP1 POP SWAP1 POP SWAP2 SWAP1 POP JUMP JUMPDEST PUSH1 0x60 PUSH1 0x0 PUSH2 0x10B7 DUP4 PUSH2 0x8FF JUMP JUMPDEST SWAP1 POP PUSH1 0x0 DUP1 DUP3 PUSH8 0xFFFFFFFFFFFFFFFF DUP2 GT ISZERO PUSH2 0x10D6 JUMPI PUSH2 0x10D5 PUSH2 0x2EFD JUMP JUMPDEST JUMPDEST PUSH1 0x40 MLOAD SWAP1 DUP1 DUP3 MSTORE DUP1 PUSH1 0x20 MUL PUSH1 0x20 ADD DUP3 ADD PUSH1 0x40 MSTORE DUP1 ISZERO PUSH2 0x110F JUMPI DUP2 PUSH1 0x20 ADD JUMPDEST PUSH2 0x10FC PUSH2 0x29A8 JUMP JUMPDEST DUP2 MSTORE PUSH1 0x20 ADD SWAP1 PUSH1 0x1 SWAP1 SUB SWAP1 DUP2 PUSH2 0x10F4 JUMPI SWAP1 POP JUMPDEST POP SWAP1 POP PUSH1 0x0 JUMPDEST PUSH1 0x1 PUSH1 0x0 DUP8 DUP2 MSTORE PUSH1 0x20 ADD SWAP1 DUP2 MSTORE PUSH1 0x20 ADD PUSH1 0x0 KECCAK256 DUP1 SLOAD SWAP1 POP DUP2 LT ISZERO PUSH2 0x13CD JUMPI PUSH1 0x0 PUSH1 0x1 PUSH1 0x0 DUP9 DUP2 MSTORE PUSH1 0x20 ADD SWAP1 DUP2 MSTORE PUSH1 0x20 ADD PUSH1 0x0 KECCAK256 DUP3 DUP2 SLOAD DUP2 LT PUSH2 0x115A JUMPI PUSH2 0x1159 PUSH2 0x3F11 JUMP JUMPDEST JUMPDEST SWAP1 PUSH1 0x0 MSTORE PUSH1 0x20 PUSH1 0x0 KECCAK256 ADD PUSH1 0x40 MLOAD PUSH2 0x1171 SWAP2 SWAP1 PUSH2 0x4323 JUMP JUMPDEST SWAP1 DUP2 MSTORE PUSH1 0x20 ADD PUSH1 0x40 MLOAD DUP1 SWAP2 SUB SWAP1 KECCAK256 DUP1 SLOAD SWAP1 POP SWAP4 POP PUSH1 0x0 JUMPDEST DUP5 DUP2 LT ISZERO PUSH2 0x13B9 JUMPI PUSH1 0x0 PUSH1 0x1 PUSH1 0x0 DUP10 DUP2 MSTORE PUSH1 0x20 ADD SWAP1 DUP2 MSTORE PUSH1 0x20 ADD PUSH1 0x0 KECCAK256 DUP4 DUP2 SLOAD DUP2 LT PUSH2 0x11B7 JUMPI PUSH2 0x11B6 PUSH2 0x3F11 JUMP JUMPDEST JUMPDEST SWAP1 PUSH1 0x0 MSTORE PUSH1 0x20 PUSH1 0x0 KECCAK256 ADD PUSH1 0x40 MLOAD PUSH2 0x11CE SWAP2 SWAP1 PUSH2 0x4323 JUMP JUMPDEST SWAP1 DUP2 MSTORE PUSH1 0x20 ADD PUSH1 0x40 MLOAD DUP1 SWAP2 SUB SWAP1 KECCAK256 DUP2 DUP2 SLOAD DUP2 LT PUSH2 0x11EE JUMPI PUSH2 0x11ED PUSH2 0x3F11 JUMP JUMPDEST JUMPDEST SWAP1 PUSH1 0x0 MSTORE PUSH1 0x20 PUSH1 0x0 KECCAK256 SWAP1 PUSH1 0x3 MUL ADD PUSH1 0x40 MLOAD DUP1 PUSH1 0x80 ADD PUSH1 0x40 MSTORE SWAP1 DUP2 PUSH1 0x0 DUP3 ADD PUSH1 0x0 SWAP1 SLOAD SWAP1 PUSH2 0x100 EXP SWAP1 DIV PUSH4 0xFFFFFFFF AND PUSH4 0xFFFFFFFF AND PUSH4 0xFFFFFFFF AND DUP2 MSTORE PUSH1 0x20 ADD PUSH1 0x0 DUP3 ADD PUSH1 0x4 SWAP1 SLOAD SWAP1 PUSH2 0x100 EXP SWAP1 DIV PUSH5 0xFFFFFFFFFF AND PUSH5 0xFFFFFFFFFF AND PUSH5 0xFFFFFFFFFF AND DUP2 MSTORE PUSH1 0x20 ADD PUSH1 0x1 DUP3 ADD DUP1 SLOAD PUSH2 0x1266 SWAP1 PUSH2 0x3FE6 JUMP JUMPDEST DUP1 PUSH1 0x1F ADD PUSH1 0x20 DUP1 SWAP2 DIV MUL PUSH1 0x20 ADD PUSH1 0x40 MLOAD SWAP1 DUP2 ADD PUSH1 0x40 MSTORE DUP1 SWAP3 SWAP2 SWAP1 DUP2 DUP2 MSTORE PUSH1 0x20 ADD DUP3 DUP1 SLOAD PUSH2 0x1292 SWAP1 PUSH2 0x3FE6 JUMP JUMPDEST DUP1 ISZERO PUSH2 0x12DF JUMPI DUP1 PUSH1 0x1F LT PUSH2 0x12B4 JUMPI PUSH2 0x100 DUP1 DUP4 SLOAD DIV MUL DUP4 MSTORE SWAP2 PUSH1 0x20 ADD SWAP2 PUSH2 0x12DF JUMP JUMPDEST DUP3 ADD SWAP2 SWAP1 PUSH1 0x0 MSTORE PUSH1 0x20 PUSH1 0x0 KECCAK256 SWAP1 JUMPDEST DUP2 SLOAD DUP2 MSTORE SWAP1 PUSH1 0x1 ADD SWAP1 PUSH1 0x20 ADD DUP1 DUP4 GT PUSH2 0x12C2 JUMPI DUP3 SWAP1 SUB PUSH1 0x1F AND DUP3 ADD SWAP2 JUMPDEST POP POP POP POP POP DUP2 MSTORE PUSH1 0x20 ADD PUSH1 0x2 DUP3 ADD DUP1 SLOAD PUSH2 0x12F8 SWAP1 PUSH2 0x3FE6 JUMP JUMPDEST DUP1 PUSH1 0x1F ADD PUSH1 0x20 DUP1 SWAP2 DIV MUL PUSH1 0x20 ADD PUSH1 0x40 MLOAD SWAP1 DUP2 ADD PUSH1 0x40 MSTORE DUP1 SWAP3 SWAP2 SWAP1 DUP2 DUP2 MSTORE PUSH1 0x20 ADD DUP3 DUP1 SLOAD PUSH2 0x1324 SWAP1 PUSH2 0x3FE6 JUMP JUMPDEST DUP1 ISZERO PUSH2 0x1371 JUMPI DUP1 PUSH1 0x1F LT PUSH2 0x1346 JUMPI PUSH2 0x100 DUP1 DUP4 SLOAD DIV MUL DUP4 MSTORE SWAP2 PUSH1 0x20 ADD SWAP2 PUSH2 0x1371 JUMP JUMPDEST DUP3 ADD SWAP2 SWAP1 PUSH1 0x0 MSTORE PUSH1 0x20 PUSH1 0x0 KECCAK256 SWAP1 JUMPDEST DUP2 SLOAD DUP2 MSTORE SWAP1 PUSH1 0x1 ADD SWAP1 PUSH1 0x20 ADD DUP1 DUP4 GT PUSH2 0x1354 JUMPI DUP3 SWAP1 SUB PUSH1 0x1F AND DUP3 ADD SWAP2 JUMPDEST POP POP POP POP POP DUP2 MSTORE POP POP DUP4 DUP6 DUP2 MLOAD DUP2 LT PUSH2 0x138D JUMPI PUSH2 0x138C PUSH2 0x3F11 JUMP JUMPDEST JUMPDEST PUSH1 0x20 MUL PUSH1 0x20 ADD ADD DUP2 SWAP1 MSTORE POP DUP4 DUP1 PUSH2 0x13A3 SWAP1 PUSH2 0x3F6F JUMP JUMPDEST SWAP5 POP POP DUP1 DUP1 PUSH2 0x13B1 SWAP1 PUSH2 0x3F6F JUMP JUMPDEST SWAP2 POP POP PUSH2 0x1188 JUMP JUMPDEST POP DUP1 DUP1 PUSH2 0x13C5 SWAP1 PUSH2 0x3F6F JUMP JUMPDEST SWAP2 POP POP PUSH2 0x1115 JUMP JUMPDEST POP DUP1 SWAP4 POP POP POP POP SWAP2 SWAP1 POP JUMP JUMPDEST PUSH1 0x0 DUP1 PUSH1 0x0 DUP1 PUSH1 0x0 SWAP1 POP PUSH1 0x0 DUP1 PUSH2 0x13EF DUP9 PUSH2 0x8FF JUMP JUMPDEST SWAP1 POP PUSH1 0x0 DUP2 PUSH8 0xFFFFFFFFFFFFFFFF DUP2 GT ISZERO PUSH2 0x140D JUMPI PUSH2 0x140C PUSH2 0x2EFD JUMP JUMPDEST JUMPDEST PUSH1 0x40 MLOAD SWAP1 DUP1 DUP3 MSTORE DUP1 PUSH1 0x20 MUL PUSH1 0x20 ADD DUP3 ADD PUSH1 0x40 MSTORE DUP1 ISZERO PUSH2 0x1446 JUMPI DUP2 PUSH1 0x20 ADD JUMPDEST PUSH2 0x1433 PUSH2 0x29A8 JUMP JUMPDEST DUP2 MSTORE PUSH1 0x20 ADD SWAP1 PUSH1 0x1 SWAP1 SUB SWAP1 DUP2 PUSH2 0x142B JUMPI SWAP1 POP JUMPDEST POP SWAP1 POP PUSH2 0x1452 DUP10 PUSH2 0x10AA JUMP JUMPDEST SWAP1 POP PUSH1 0x0 JUMPDEST DUP3 DUP2 LT ISZERO PUSH2 0x17DE JUMPI DUP2 DUP2 DUP2 MLOAD DUP2 LT PUSH2 0x1472 JUMPI PUSH2 0x1471 PUSH2 0x3F11 JUMP JUMPDEST JUMPDEST PUSH1 0x20 MUL PUSH1 0x20 ADD ADD MLOAD PUSH1 0x0 ADD MLOAD SWAP4 POP PUSH2 0x1584 PUSH1 0x4 PUSH1 0x0 DUP12 PUSH20 0xFFFFFFFFFFFFFFFFFFFFFFFFFFFFFFFFFFFFFFFF AND PUSH20 0xFFFFFFFFFFFFFFFFFFFFFFFFFFFFFFFFFFFFFFFF AND DUP2 MSTORE PUSH1 0x20 ADD SWAP1 DUP2 MSTORE PUSH1 0x20 ADD PUSH1 0x0 KECCAK256 PUSH1 0x0 DUP13 DUP2 MSTORE PUSH1 0x20 ADD SWAP1 DUP2 MSTORE PUSH1 0x20 ADD PUSH1 0x0 KECCAK256 PUSH1 0x0 DUP7 PUSH4 0xFFFFFFFF AND PUSH4 0xFFFFFFFF AND DUP2 MSTORE PUSH1 0x20 ADD SWAP1 DUP2 MSTORE PUSH1 0x20 ADD PUSH1 0x0 KECCAK256 PUSH1 0x0 ADD PUSH1 0x0 SWAP1 SLOAD SWAP1 PUSH2 0x100 EXP SWAP1 DIV PUSH1 0xFF AND PUSH1 0x4 PUSH1 0x0 DUP13 PUSH20 0xFFFFFFFFFFFFFFFFFFFFFFFFFFFFFFFFFFFFFFFF AND PUSH20 0xFFFFFFFFFFFFFFFFFFFFFFFFFFFFFFFFFFFFFFFF AND DUP2 MSTORE PUSH1 0x20 ADD SWAP1 DUP2 MSTORE PUSH1 0x20 ADD PUSH1 0x0 KECCAK256 PUSH1 0x0 DUP14 DUP2 MSTORE PUSH1 0x20 ADD SWAP1 DUP2 MSTORE PUSH1 0x20 ADD PUSH1 0x0 KECCAK256 PUSH1 0x0 DUP8 PUSH4 0xFFFFFFFF AND PUSH4 0xFFFFFFFF AND DUP2 MSTORE PUSH1 0x20 ADD SWAP1 DUP2 MSTORE PUSH1 0x20 ADD PUSH1 0x0 KECCAK256 PUSH1 0x0 ADD PUSH1 0x1 SWAP1 SLOAD SWAP1 PUSH2 0x100 EXP SWAP1 DIV PUSH1 0xFF AND PUSH2 0x293A JUMP JUMPDEST SWAP7 POP PUSH2 0x15EE PUSH1 0x3 PUSH1 0x0 DUP7 PUSH4 0xFFFFFFFF AND PUSH4 0xFFFFFFFF AND DUP2 MSTORE PUSH1 0x20 ADD SWAP1 DUP2 MSTORE PUSH1 0x20 ADD PUSH1 0x0 KECCAK256 PUSH1 0x0 ADD PUSH1 0x0 SWAP1 SLOAD SWAP1 PUSH2 0x100 EXP SWAP1 DIV PUSH1 0xFF AND PUSH1 0x3 PUSH1 0x0 DUP8 PUSH4 0xFFFFFFFF AND PUSH4 0xFFFFFFFF AND DUP2 MSTORE PUSH1 0x20 ADD SWAP1 DUP2 MSTORE PUSH1 0x20 ADD PUSH1 0x0 KECCAK256 PUSH1 0x0 ADD PUSH1 0x1 SWAP1 SLOAD SWAP1 PUSH2 0x100 EXP SWAP1 DIV PUSH1 0xFF AND PUSH2 0x293A JUMP JUMPDEST SWAP6 POP DUP6 DUP8 EQ DUP1 ISZERO PUSH2 0x162F JUMPI POP PUSH1 0x1 ISZERO ISZERO PUSH1 0x9 PUSH1 0x0 DUP7 PUSH4 0xFFFFFFFF AND PUSH4 0xFFFFFFFF AND DUP2 MSTORE PUSH1 0x20 ADD SWAP1 DUP2 MSTORE PUSH1 0x20 ADD PUSH1 0x0 KECCAK256 PUSH1 0x0 SWAP1 SLOAD SWAP1 PUSH2 0x100 EXP SWAP1 DIV PUSH1 0xFF AND ISZERO ISZERO EQ JUMPDEST ISZERO PUSH2 0x17CB JUMPI PUSH1 0x1 DUP6 PUSH2 0x1641 SWAP2 SWAP1 PUSH2 0x433A JUMP JUMPDEST SWAP5 POP PUSH1 0x3 PUSH1 0x0 DUP6 PUSH4 0xFFFFFFFF AND PUSH4 0xFFFFFFFF AND DUP2 MSTORE PUSH1 0x20 ADD SWAP1 DUP2 MSTORE PUSH1 0x20 ADD PUSH1 0x0 KECCAK256 PUSH1 0x0 ADD PUSH1 0x0 SWAP1 SLOAD SWAP1 PUSH2 0x100 EXP SWAP1 DIV PUSH1 0xFF AND PUSH1 0xFF AND PUSH1 0x4 PUSH1 0x0 DUP12 PUSH20 0xFFFFFFFFFFFFFFFFFFFFFFFFFFFFFFFFFFFFFFFF AND PUSH20 0xFFFFFFFFFFFFFFFFFFFFFFFFFFFFFFFFFFFFFFFF AND DUP2 MSTORE PUSH1 0x20 ADD SWAP1 DUP2 MSTORE PUSH1 0x20 ADD PUSH1 0x0 KECCAK256 PUSH1 0x0 DUP13 DUP2 MSTORE PUSH1 0x20 ADD SWAP1 DUP2 MSTORE PUSH1 0x20 ADD PUSH1 0x0 KECCAK256 PUSH1 0x0 DUP7 PUSH4 0xFFFFFFFF AND PUSH4 0xFFFFFFFF AND DUP2 MSTORE PUSH1 0x20 ADD SWAP1 DUP2 MSTORE PUSH1 0x20 ADD PUSH1 0x0 KECCAK256 PUSH1 0x0 ADD PUSH1 0x0 SWAP1 SLOAD SWAP1 PUSH2 0x100 EXP SWAP1 DIV PUSH1 0xFF AND PUSH1 0xFF AND EQ DUP1 ISZERO PUSH2 0x17B5 JUMPI POP PUSH1 0x3 PUSH1 0x0 DUP6 PUSH4 0xFFFFFFFF AND PUSH4 0xFFFFFFFF AND DUP2 MSTORE PUSH1 0x20 ADD SWAP1 DUP2 MSTORE PUSH1 0x20 ADD PUSH1 0x0 KECCAK256 PUSH1 0x0 ADD PUSH1 0x1 SWAP1 SLOAD SWAP1 PUSH2 0x100 EXP SWAP1 DIV PUSH1 0xFF AND PUSH1 0xFF AND PUSH1 0x4 PUSH1 0x0 DUP12 PUSH20 0xFFFFFFFFFFFFFFFFFFFFFFFFFFFFFFFFFFFFFFFF AND PUSH20 0xFFFFFFFFFFFFFFFFFFFFFFFFFFFFFFFFFFFFFFFF AND DUP2 MSTORE PUSH1 0x20 ADD SWAP1 DUP2 MSTORE PUSH1 0x20 ADD PUSH1 0x0 KECCAK256 PUSH1 0x0 DUP13 DUP2 MSTORE PUSH1 0x20 ADD SWAP1 DUP2 MSTORE PUSH1 0x20 ADD PUSH1 0x0 KECCAK256 PUSH1 0x0 DUP7 PUSH4 0xFFFFFFFF AND PUSH4 0xFFFFFFFF AND DUP2 MSTORE PUSH1 0x20 ADD SWAP1 DUP2 MSTORE PUSH1 0x20 ADD PUSH1 0x0 KECCAK256 PUSH1 0x0 ADD PUSH1 0x1 SWAP1 SLOAD SWAP1 PUSH2 0x100 EXP SWAP1 DIV PUSH1 0xFF AND PUSH1 0xFF AND EQ JUMPDEST ISZERO PUSH2 0x17CA JUMPI PUSH1 0x2 DUP6 PUSH2 0x17C7 SWAP2 SWAP1 PUSH2 0x433A JUMP JUMPDEST SWAP5 POP JUMPDEST JUMPDEST DUP1 DUP1 PUSH2 0x17D6 SWAP1 PUSH2 0x3F6F JUMP JUMPDEST SWAP2 POP POP PUSH2 0x1457 JUMP JUMPDEST POP DUP4 SWAP7 POP POP POP POP POP POP POP SWAP3 SWAP2 POP POP JUMP JUMPDEST PUSH2 0x17F6 PUSH2 0x29A8 JUMP JUMPDEST PUSH1 0x0 DUP4 PUSH1 0x40 MLOAD PUSH2 0x1806 SWAP2 SWAP1 PUSH2 0x43C1 JUMP JUMPDEST SWAP1 DUP2 MSTORE PUSH1 0x20 ADD PUSH1 0x40 MLOAD DUP1 SWAP2 SUB SWAP1 KECCAK256 DUP3 DUP2 SLOAD DUP2 LT PUSH2 0x1826 JUMPI PUSH2 0x1825 PUSH2 0x3F11 JUMP JUMPDEST JUMPDEST SWAP1 PUSH1 0x0 MSTORE PUSH1 0x20 PUSH1 0x0 KECCAK256 SWAP1 PUSH1 0x3 MUL ADD PUSH1 0x40 MLOAD DUP1 PUSH1 0x80 ADD PUSH1 0x40 MSTORE SWAP1 DUP2 PUSH1 0x0 DUP3 ADD PUSH1 0x0 SWAP1 SLOAD SWAP1 PUSH2 0x100 EXP SWAP1 DIV PUSH4 0xFFFFFFFF AND PUSH4 0xFFFFFFFF AND PUSH4 0xFFFFFFFF AND DUP2 MSTORE PUSH1 0x20 ADD PUSH1 0x0 DUP3 ADD PUSH1 0x4 SWAP1 SLOAD SWAP1 PUSH2 0x100 EXP SWAP1 DIV PUSH5 0xFFFFFFFFFF AND PUSH5 0xFFFFFFFFFF AND PUSH5 0xFFFFFFFFFF AND DUP2 MSTORE PUSH1 0x20 ADD PUSH1 0x1 DUP3 ADD DUP1 SLOAD PUSH2 0x189E SWAP1 PUSH2 0x3FE6 JUMP JUMPDEST DUP1 PUSH1 0x1F ADD PUSH1 0x20 DUP1 SWAP2 DIV MUL PUSH1 0x20 ADD PUSH1 0x40 MLOAD SWAP1 DUP2 ADD PUSH1 0x40 MSTORE DUP1 SWAP3 SWAP2 SWAP1 DUP2 DUP2 MSTORE PUSH1 0x20 ADD DUP3 DUP1 SLOAD PUSH2 0x18CA SWAP1 PUSH2 0x3FE6 JUMP JUMPDEST DUP1 ISZERO PUSH2 0x1917 JUMPI DUP1 PUSH1 0x1F LT PUSH2 0x18EC JUMPI PUSH2 0x100 DUP1 DUP4 SLOAD DIV MUL DUP4 MSTORE SWAP2 PUSH1 0x20 ADD SWAP2 PUSH2 0x1917 JUMP JUMPDEST DUP3 ADD SWAP2 SWAP1 PUSH1 0x0 MSTORE PUSH1 0x20 PUSH1 0x0 KECCAK256 SWAP1 JUMPDEST DUP2 SLOAD DUP2 MSTORE SWAP1 PUSH1 0x1 ADD SWAP1 PUSH1 0x20 ADD DUP1 DUP4 GT PUSH2 0x18FA JUMPI DUP3 SWAP1 SUB PUSH1 0x1F AND DUP3 ADD SWAP2 JUMPDEST POP POP POP POP POP DUP2 MSTORE PUSH1 0x20 ADD PUSH1 0x2 DUP3 ADD DUP1 SLOAD PUSH2 0x1930 SWAP1 PUSH2 0x3FE6 JUMP JUMPDEST DUP1 PUSH1 0x1F ADD PUSH1 0x20 DUP1 SWAP2 DIV MUL PUSH1 0x20 ADD PUSH1 0x40 MLOAD SWAP1 DUP2 ADD PUSH1 0x40 MSTORE DUP1 SWAP3 SWAP2 SWAP1 DUP2 DUP2 MSTORE PUSH1 0x20 ADD DUP3 DUP1 SLOAD PUSH2 0x195C SWAP1 PUSH2 0x3FE6 JUMP JUMPDEST DUP1 ISZERO PUSH2 0x19A9 JUMPI DUP1 PUSH1 0x1F LT PUSH2 0x197E JUMPI PUSH2 0x100 DUP1 DUP4 SLOAD DIV MUL DUP4 MSTORE SWAP2 PUSH1 0x20 ADD SWAP2 PUSH2 0x19A9 JUMP JUMPDEST DUP3 ADD SWAP2 SWAP1 PUSH1 0x0 MSTORE PUSH1 0x20 PUSH1 0x0 KECCAK256 SWAP1 JUMPDEST DUP2 SLOAD DUP2 MSTORE SWAP1 PUSH1 0x1 ADD SWAP1 PUSH1 0x20 ADD DUP1 DUP4 GT PUSH2 0x198C JUMPI DUP3 SWAP1 SUB PUSH1 0x1F AND DUP3 ADD SWAP2 JUMPDEST POP POP POP POP POP DUP2 MSTORE POP POP SWAP1 POP SWAP3 SWAP2 POP POP JUMP JUMPDEST PUSH1 0x9 PUSH1 0x20 MSTORE DUP1 PUSH1 0x0 MSTORE PUSH1 0x40 PUSH1 0x0 KECCAK256 PUSH1 0x0 SWAP2 POP SLOAD SWAP1 PUSH2 0x100 EXP SWAP1 DIV PUSH1 0xFF AND DUP2 JUMP JUMPDEST PUSH1 0x60 PUSH1 0x0 PUSH1 0x5 PUSH1 0x0 DUP5 DUP2 MSTORE PUSH1 0x20 ADD SWAP1 DUP2 MSTORE PUSH1 0x20 ADD PUSH1 0x0 KECCAK256 DUP1 SLOAD SWAP1 POP SWAP1 POP PUSH1 0x0 DUP1 DUP3 PUSH8 0xFFFFFFFFFFFFFFFF DUP2 GT ISZERO PUSH2 0x1A14 JUMPI PUSH2 0x1A13 PUSH2 0x2EFD JUMP JUMPDEST JUMPDEST PUSH1 0x40 MLOAD SWAP1 DUP1 DUP3 MSTORE DUP1 PUSH1 0x20 MUL PUSH1 0x20 ADD DUP3 ADD PUSH1 0x40 MSTORE DUP1 ISZERO PUSH2 0x1A4D JUMPI DUP2 PUSH1 0x20 ADD JUMPDEST PUSH2 0x1A3A PUSH2 0x2A34 JUMP JUMPDEST DUP2 MSTORE PUSH1 0x20 ADD SWAP1 PUSH1 0x1 SWAP1 SUB SWAP1 DUP2 PUSH2 0x1A32 JUMPI SWAP1 POP JUMPDEST POP SWAP1 POP PUSH1 0x0 DUP1 PUSH1 0x0 SWAP1 POP JUMPDEST DUP5 DUP2 LT ISZERO PUSH2 0x1B21 JUMPI PUSH1 0x5 PUSH1 0x0 DUP9 DUP2 MSTORE PUSH1 0x20 ADD SWAP1 DUP2 MSTORE PUSH1 0x20 ADD PUSH1 0x0 KECCAK256 DUP2 DUP2 SLOAD DUP2 LT PUSH2 0x1A85 JUMPI PUSH2 0x1A84 PUSH2 0x3F11 JUMP JUMPDEST JUMPDEST SWAP1 PUSH1 0x0 MSTORE PUSH1 0x20 PUSH1 0x0 KECCAK256 ADD PUSH1 0x0 SWAP1 SLOAD SWAP1 PUSH2 0x100 EXP SWAP1 DIV PUSH20 0xFFFFFFFFFFFFFFFFFFFFFFFFFFFFFFFFFFFFFFFF AND SWAP4 POP PUSH2 0x1ABC DUP8 DUP6 PUSH2 0x13D9 JUMP JUMPDEST SWAP2 POP PUSH1 0x40 MLOAD DUP1 PUSH1 0x60 ADD PUSH1 0x40 MSTORE DUP1 DUP6 PUSH20 0xFFFFFFFFFFFFFFFFFFFFFFFFFFFFFFFFFFFFFFFF AND DUP2 MSTORE PUSH1 0x20 ADD PUSH1 0x1 DUP2 MSTORE PUSH1 0x20 ADD DUP4 DUP2 MSTORE POP DUP4 DUP3 DUP2 MLOAD DUP2 LT PUSH2 0x1B03 JUMPI PUSH2 0x1B02 PUSH2 0x3F11 JUMP JUMPDEST JUMPDEST PUSH1 0x20 MUL PUSH1 0x20 ADD ADD DUP2 SWAP1 MSTORE POP DUP1 DUP1 PUSH2 0x1B19 SWAP1 PUSH2 0x3F6F JUMP JUMPDEST SWAP2 POP POP PUSH2 0x1A58 JUMP JUMPDEST POP DUP2 SWAP5 POP POP POP POP POP SWAP2 SWAP1 POP JUMP JUMPDEST PUSH1 0x60 PUSH1 0x0 DUP1 PUSH1 0x0 DUP1 DUP1 PUSH1 0x0 DUP1 PUSH1 0xD PUSH1 0x0 DUP12 DUP2 MSTORE PUSH1 0x20 ADD SWAP1 DUP2 MSTORE PUSH1 0x20 ADD PUSH1 0x0 KECCAK256 SLOAD SWAP1 POP PUSH1 0x0 DUP2 PUSH8 0xFFFFFFFFFFFFFFFF DUP2 GT ISZERO PUSH2 0x1B6C JUMPI PUSH2 0x1B6B PUSH2 0x2EFD JUMP JUMPDEST JUMPDEST PUSH1 0x40 MLOAD SWAP1 DUP1 DUP3 MSTORE DUP1 PUSH1 0x20 MUL PUSH1 0x20 ADD DUP3 ADD PUSH1 0x40 MSTORE DUP1 ISZERO PUSH2 0x1BA5 JUMPI DUP2 PUSH1 0x20 ADD JUMPDEST PUSH2 0x1B92 PUSH2 0x2A6B JUMP JUMPDEST DUP2 MSTORE PUSH1 0x20 ADD SWAP1 PUSH1 0x1 SWAP1 SUB SWAP1 DUP2 PUSH2 0x1B8A JUMPI SWAP1 POP JUMPDEST POP SWAP1 POP PUSH1 0x0 DUP3 PUSH8 0xFFFFFFFFFFFFFFFF DUP2 GT ISZERO PUSH2 0x1BC4 JUMPI PUSH2 0x1BC3 PUSH2 0x2EFD JUMP JUMPDEST JUMPDEST PUSH1 0x40 MLOAD SWAP1 DUP1 DUP3 MSTORE DUP1 PUSH1 0x20 MUL PUSH1 0x20 ADD DUP3 ADD PUSH1 0x40 MSTORE DUP1 ISZERO PUSH2 0x1BFD JUMPI DUP2 PUSH1 0x20 ADD JUMPDEST PUSH2 0x1BEA PUSH2 0x29FD JUMP JUMPDEST DUP2 MSTORE PUSH1 0x20 ADD SWAP1 PUSH1 0x1 SWAP1 SUB SWAP1 DUP2 PUSH2 0x1BE2 JUMPI SWAP1 POP JUMPDEST POP SWAP1 POP PUSH1 0x0 DUP4 PUSH8 0xFFFFFFFFFFFFFFFF DUP2 GT ISZERO PUSH2 0x1C1C JUMPI PUSH2 0x1C1B PUSH2 0x2EFD JUMP JUMPDEST JUMPDEST PUSH1 0x40 MLOAD SWAP1 DUP1 DUP3 MSTORE DUP1 PUSH1 0x20 MUL PUSH1 0x20 ADD DUP3 ADD PUSH1 0x40 MSTORE DUP1 ISZERO PUSH2 0x1C55 JUMPI DUP2 PUSH1 0x20 ADD JUMPDEST PUSH2 0x1C42 PUSH2 0x2A9B JUMP JUMPDEST DUP2 MSTORE PUSH1 0x20 ADD SWAP1 PUSH1 0x1 SWAP1 SUB SWAP1 DUP2 PUSH2 0x1C3A JUMPI SWAP1 POP JUMPDEST POP SWAP1 POP PUSH1 0x0 JUMPDEST DUP13 MLOAD DUP2 LT ISZERO PUSH2 0x1D19 JUMPI PUSH1 0x0 DUP14 DUP3 DUP2 MLOAD DUP2 LT PUSH2 0x1C79 JUMPI PUSH2 0x1C78 PUSH2 0x3F11 JUMP JUMPDEST JUMPDEST PUSH1 0x20 MUL PUSH1 0x20 ADD ADD MLOAD SWAP1 POP PUSH1 0x0 JUMPDEST DUP2 PUSH1 0x20 ADD MLOAD DUP2 LT ISZERO PUSH2 0x1D04 JUMPI PUSH1 0x40 MLOAD DUP1 PUSH1 0x40 ADD PUSH1 0x40 MSTORE DUP1 DUP4 PUSH1 0x0 ADD MLOAD PUSH20 0xFFFFFFFFFFFFFFFFFFFFFFFFFFFFFFFFFFFFFFFF AND DUP2 MSTORE PUSH1 0x20 ADD DUP4 PUSH1 0x40 ADD MLOAD DUP2 MSTORE POP DUP7 DUP10 DUP2 MLOAD DUP2 LT PUSH2 0x1CD8 JUMPI PUSH2 0x1CD7 PUSH2 0x3F11 JUMP JUMPDEST JUMPDEST PUSH1 0x20 MUL PUSH1 0x20 ADD ADD DUP2 SWAP1 MSTORE POP DUP8 DUP1 PUSH2 0x1CEE SWAP1 PUSH2 0x3F6F JUMP JUMPDEST SWAP9 POP POP DUP1 DUP1 PUSH2 0x1CFC SWAP1 PUSH2 0x3F6F JUMP JUMPDEST SWAP2 POP POP PUSH2 0x1C86 JUMP JUMPDEST POP POP DUP1 DUP1 PUSH2 0x1D11 SWAP1 PUSH2 0x3F6F JUMP JUMPDEST SWAP2 POP POP PUSH2 0x1C5B JUMP JUMPDEST POP PUSH1 0x0 JUMPDEST DUP5 DUP2 LT ISZERO PUSH2 0x1E45 JUMPI PUSH1 0x1 SWAP11 POP PUSH1 0x0 JUMPDEST DUP6 DUP2 LT ISZERO PUSH2 0x1DA6 JUMPI DUP5 DUP2 DUP2 MLOAD DUP2 LT PUSH2 0x1D47 JUMPI PUSH2 0x1D46 PUSH2 0x3F11 JUMP JUMPDEST JUMPDEST PUSH1 0x20 MUL PUSH1 0x20 ADD ADD MLOAD PUSH1 0x20 ADD MLOAD DUP6 DUP4 DUP2 MLOAD DUP2 LT PUSH2 0x1D66 JUMPI PUSH2 0x1D65 PUSH2 0x3F11 JUMP JUMPDEST JUMPDEST PUSH1 0x20 MUL PUSH1 0x20 ADD ADD MLOAD PUSH1 0x20 ADD MLOAD LT ISZERO PUSH2 0x1D93 JUMPI DUP12 DUP1 PUSH2 0x1D83 SWAP1 PUSH2 0x3F6F JUMP JUMPDEST SWAP13 POP POP DUP11 DUP13 GT ISZERO PUSH2 0x1D92 JUMPI DUP12 SWAP11 POP JUMPDEST JUMPDEST DUP1 DUP1 PUSH2 0x1D9E SWAP1 PUSH2 0x3F6F JUMP JUMPDEST SWAP2 POP POP PUSH2 0x1D2C JUMP JUMPDEST POP PUSH1 0x40 MLOAD DUP1 PUSH1 0x60 ADD PUSH1 0x40 MSTORE DUP1 DUP6 DUP4 DUP2 MLOAD DUP2 LT PUSH2 0x1DC5 JUMPI PUSH2 0x1DC4 PUSH2 0x3F11 JUMP JUMPDEST JUMPDEST PUSH1 0x20 MUL PUSH1 0x20 ADD ADD MLOAD PUSH1 0x0 ADD MLOAD PUSH20 0xFFFFFFFFFFFFFFFFFFFFFFFFFFFFFFFFFFFFFFFF AND DUP2 MSTORE PUSH1 0x20 ADD DUP6 DUP4 DUP2 MLOAD DUP2 LT PUSH2 0x1DFF JUMPI PUSH2 0x1DFE PUSH2 0x3F11 JUMP JUMPDEST JUMPDEST PUSH1 0x20 MUL PUSH1 0x20 ADD ADD MLOAD PUSH1 0x20 ADD MLOAD DUP2 MSTORE PUSH1 0x20 ADD DUP13 DUP2 MSTORE POP DUP4 DUP3 DUP2 MLOAD DUP2 LT PUSH2 0x1E27 JUMPI PUSH2 0x1E26 PUSH2 0x3F11 JUMP JUMPDEST JUMPDEST PUSH1 0x20 MUL PUSH1 0x20 ADD ADD DUP2 SWAP1 MSTORE POP DUP1 DUP1 PUSH2 0x1E3D SWAP1 PUSH2 0x3F6F JUMP JUMPDEST SWAP2 POP POP PUSH2 0x1D1D JUMP JUMPDEST POP PUSH1 0x0 SWAP5 POP PUSH1 0x0 PUSH1 0x1 SWAP1 POP JUMPDEST DUP10 DUP2 GT PUSH2 0x1F83 JUMPI PUSH1 0x0 JUMPDEST DUP6 DUP2 LT ISZERO PUSH2 0x1F6F JUMPI DUP2 DUP5 DUP3 DUP2 MLOAD DUP2 LT PUSH2 0x1E77 JUMPI PUSH2 0x1E76 PUSH2 0x3F11 JUMP JUMPDEST JUMPDEST PUSH1 0x20 MUL PUSH1 0x20 ADD ADD MLOAD PUSH1 0x40 ADD MLOAD SUB PUSH2 0x1F5C JUMPI PUSH1 0x40 MLOAD DUP1 PUSH1 0xE0 ADD PUSH1 0x40 MSTORE DUP1 DUP6 DUP4 DUP2 MLOAD DUP2 LT PUSH2 0x1EA6 JUMPI PUSH2 0x1EA5 PUSH2 0x3F11 JUMP JUMPDEST JUMPDEST PUSH1 0x20 MUL PUSH1 0x20 ADD ADD MLOAD PUSH1 0x0 ADD MLOAD PUSH20 0xFFFFFFFFFFFFFFFFFFFFFFFFFFFFFFFFFFFFFFFF AND DUP2 MSTORE PUSH1 0x20 ADD DUP6 DUP4 DUP2 MLOAD DUP2 LT PUSH2 0x1EE0 JUMPI PUSH2 0x1EDF PUSH2 0x3F11 JUMP JUMPDEST JUMPDEST PUSH1 0x20 MUL PUSH1 0x20 ADD ADD MLOAD PUSH1 0x20 ADD MLOAD DUP2 MSTORE PUSH1 0x20 ADD DUP6 DUP4 DUP2 MLOAD DUP2 LT PUSH2 0x1F04 JUMPI PUSH2 0x1F03 PUSH2 0x3F11 JUMP JUMPDEST JUMPDEST PUSH1 0x20 MUL PUSH1 0x20 ADD ADD MLOAD PUSH1 0x40 ADD MLOAD DUP2 MSTORE PUSH1 0x20 ADD PUSH1 0x0 DUP2 MSTORE PUSH1 0x20 ADD PUSH1 0x0 DUP2 MSTORE PUSH1 0x20 ADD PUSH1 0x0 DUP2 MSTORE PUSH1 0x20 ADD PUSH1 0x0 DUP2 MSTORE POP DUP4 DUP9 DUP2 MLOAD DUP2 LT PUSH2 0x1F42 JUMPI PUSH2 0x1F41 PUSH2 0x3F11 JUMP JUMPDEST JUMPDEST PUSH1 0x20 MUL PUSH1 0x20 ADD ADD DUP2 SWAP1 MSTORE POP DUP7 DUP1 PUSH2 0x1F58 SWAP1 PUSH2 0x3F6F JUMP JUMPDEST SWAP8 POP POP JUMPDEST DUP1 DUP1 PUSH2 0x1F67 SWAP1 PUSH2 0x3F6F JUMP JUMPDEST SWAP2 POP POP PUSH2 0x1E5B JUMP JUMPDEST POP DUP1 DUP1 PUSH2 0x1F7B SWAP1 PUSH2 0x3F6F JUMP JUMPDEST SWAP2 POP POP PUSH2 0x1E51 JUMP JUMPDEST POP PUSH1 0x64 PUSH1 0xB SLOAD DUP10 PUSH1 0xA SLOAD PUSH2 0x1F97 SWAP2 SWAP1 PUSH2 0x43D8 JUMP JUMPDEST PUSH2 0x1FA1 SWAP2 SWAP1 PUSH2 0x440C JUMP JUMPDEST PUSH2 0x1FAB SWAP2 SWAP1 PUSH2 0x4495 JUMP JUMPDEST SWAP6 POP DUP6 DUP9 PUSH2 0x1FB9 SWAP2 SWAP1 PUSH2 0x433A JUMP JUMPDEST SWAP8 POP DUP6 DUP2 PUSH1 0x0 DUP2 MLOAD DUP2 LT PUSH2 0x1FD0 JUMPI PUSH2 0x1FCF PUSH2 0x3F11 JUMP JUMPDEST JUMPDEST PUSH1 0x20 MUL PUSH1 0x20 ADD ADD MLOAD PUSH1 0x60 ADD DUP2 DUP2 MSTORE POP POP DUP6 DUP2 PUSH1 0x0 DUP2 MLOAD DUP2 LT PUSH2 0x1FF5 JUMPI PUSH2 0x1FF4 PUSH2 0x3F11 JUMP JUMPDEST JUMPDEST PUSH1 0x20 MUL PUSH1 0x20 ADD ADD MLOAD PUSH1 0x80 ADD DUP2 DUP2 MSTORE POP POP DUP6 DUP2 PUSH1 0x0 DUP2 MLOAD DUP2 LT PUSH2 0x201A JUMPI PUSH2 0x2019 PUSH2 0x3F11 JUMP JUMPDEST JUMPDEST PUSH1 0x20 MUL PUSH1 0x20 ADD ADD MLOAD PUSH1 0xA0 ADD DUP2 DUP2 MSTORE POP POP DUP6 DUP2 PUSH1 0x0 DUP2 MLOAD DUP2 LT PUSH2 0x203F JUMPI PUSH2 0x203E PUSH2 0x3F11 JUMP JUMPDEST JUMPDEST PUSH1 0x20 MUL PUSH1 0x20 ADD ADD MLOAD PUSH1 0xC0 ADD DUP2 DUP2 MSTORE POP POP PUSH1 0x0 PUSH1 0x1 SWAP1 POP JUMPDEST DUP5 DUP2 LT ISZERO PUSH2 0x2489 JUMPI PUSH1 0x64 PUSH1 0xB SLOAD DUP11 PUSH1 0xA SLOAD PUSH2 0x2071 SWAP2 SWAP1 PUSH2 0x43D8 JUMP JUMPDEST PUSH2 0x207B SWAP2 SWAP1 PUSH2 0x440C JUMP JUMPDEST PUSH2 0x2085 SWAP2 SWAP1 PUSH2 0x4495 JUMP JUMPDEST SWAP7 POP DUP7 DUP3 DUP3 DUP2 MLOAD DUP2 LT PUSH2 0x209B JUMPI PUSH2 0x209A PUSH2 0x3F11 JUMP JUMPDEST JUMPDEST PUSH1 0x20 MUL PUSH1 0x20 ADD ADD MLOAD PUSH1 0x60 ADD DUP2 DUP2 MSTORE POP POP DUP7 DUP10 PUSH2 0x20B7 SWAP2 SWAP1 PUSH2 0x433A JUMP JUMPDEST SWAP9 POP DUP9 DUP3 DUP3 DUP2 MLOAD DUP2 LT PUSH2 0x20CD JUMPI PUSH2 0x20CC PUSH2 0x3F11 JUMP JUMPDEST JUMPDEST PUSH1 0x20 MUL PUSH1 0x20 ADD ADD MLOAD PUSH1 0x80 ADD DUP2 DUP2 MSTORE POP POP PUSH1 0x1 DUP6 PUSH2 0x20EA SWAP2 SWAP1 PUSH2 0x43D8 JUMP JUMPDEST DUP2 EQ PUSH2 0x22D0 JUMPI DUP2 PUSH1 0x1 DUP3 PUSH2 0x20FE SWAP2 SWAP1 PUSH2 0x43D8 JUMP JUMPDEST DUP2 MLOAD DUP2 LT PUSH2 0x210F JUMPI PUSH2 0x210E PUSH2 0x3F11 JUMP JUMPDEST JUMPDEST PUSH1 0x20 MUL PUSH1 0x20 ADD ADD MLOAD PUSH1 0x40 ADD MLOAD DUP3 DUP3 DUP2 MLOAD DUP2 LT PUSH2 0x212E JUMPI PUSH2 0x212D PUSH2 0x3F11 JUMP JUMPDEST JUMPDEST PUSH1 0x20 MUL PUSH1 0x20 ADD ADD MLOAD PUSH1 0x40 ADD MLOAD SUB PUSH2 0x219D JUMPI DUP7 DUP3 PUSH1 0x1 DUP4 PUSH2 0x214E SWAP2 SWAP1 PUSH2 0x43D8 JUMP JUMPDEST DUP2 MLOAD DUP2 LT PUSH2 0x215F JUMPI PUSH2 0x215E PUSH2 0x3F11 JUMP JUMPDEST JUMPDEST PUSH1 0x20 MUL PUSH1 0x20 ADD ADD MLOAD PUSH1 0xA0 ADD MLOAD PUSH2 0x2175 SWAP2 SWAP1 PUSH2 0x433A JUMP JUMPDEST DUP3 DUP3 DUP2 MLOAD DUP2 LT PUSH2 0x2188 JUMPI PUSH2 0x2187 PUSH2 0x3F11 JUMP JUMPDEST JUMPDEST PUSH1 0x20 MUL PUSH1 0x20 ADD ADD MLOAD PUSH1 0xA0 ADD DUP2 DUP2 MSTORE POP POP PUSH2 0x22CB JUMP JUMPDEST DUP7 DUP3 DUP3 DUP2 MLOAD DUP2 LT PUSH2 0x21B1 JUMPI PUSH2 0x21B0 PUSH2 0x3F11 JUMP JUMPDEST JUMPDEST PUSH1 0x20 MUL PUSH1 0x20 ADD ADD MLOAD PUSH1 0xA0 ADD DUP2 DUP2 MSTORE POP POP DUP7 DUP3 DUP3 DUP2 MLOAD DUP2 LT PUSH2 0x21D5 JUMPI PUSH2 0x21D4 PUSH2 0x3F11 JUMP JUMPDEST JUMPDEST PUSH1 0x20 MUL PUSH1 0x20 ADD ADD MLOAD PUSH1 0xC0 ADD DUP2 DUP2 MSTORE POP POP DUP2 PUSH1 0x1 DUP3 PUSH2 0x21F3 SWAP2 SWAP1 PUSH2 0x43D8 JUMP JUMPDEST DUP2 MLOAD DUP2 LT PUSH2 0x2204 JUMPI PUSH2 0x2203 PUSH2 0x3F11 JUMP JUMPDEST JUMPDEST PUSH1 0x20 MUL PUSH1 0x20 ADD ADD MLOAD PUSH1 0x40 ADD MLOAD DUP3 DUP3 DUP2 MLOAD DUP2 LT PUSH2 0x2223 JUMPI PUSH2 0x2222 PUSH2 0x3F11 JUMP JUMPDEST JUMPDEST PUSH1 0x20 MUL PUSH1 0x20 ADD ADD MLOAD PUSH1 0x40 ADD MLOAD PUSH2 0x2239 SWAP2 SWAP1 PUSH2 0x43D8 JUMP JUMPDEST SWAP8 POP PUSH1 0x0 JUMPDEST DUP9 DUP2 LT ISZERO PUSH2 0x22C9 JUMPI DUP9 DUP4 PUSH1 0x1 DUP5 PUSH2 0x2255 SWAP2 SWAP1 PUSH2 0x43D8 JUMP JUMPDEST DUP2 MLOAD DUP2 LT PUSH2 0x2266 JUMPI PUSH2 0x2265 PUSH2 0x3F11 JUMP JUMPDEST JUMPDEST PUSH1 0x20 MUL PUSH1 0x20 ADD ADD MLOAD PUSH1 0xA0 ADD MLOAD PUSH2 0x227C SWAP2 SWAP1 PUSH2 0x4495 JUMP JUMPDEST DUP4 PUSH1 0x1 DUP4 PUSH2 0x228A SWAP2 SWAP1 PUSH2 0x433A JUMP JUMPDEST DUP5 PUSH2 0x2295 SWAP2 SWAP1 PUSH2 0x43D8 JUMP JUMPDEST DUP2 MLOAD DUP2 LT PUSH2 0x22A6 JUMPI PUSH2 0x22A5 PUSH2 0x3F11 JUMP JUMPDEST JUMPDEST PUSH1 0x20 MUL PUSH1 0x20 ADD ADD MLOAD PUSH1 0xC0 ADD DUP2 DUP2 MSTORE POP POP DUP1 DUP1 PUSH2 0x22C1 SWAP1 PUSH2 0x3F6F JUMP JUMPDEST SWAP2 POP POP PUSH2 0x223E JUMP JUMPDEST POP JUMPDEST PUSH2 0x2476 JUMP JUMPDEST DUP2 PUSH1 0x1 DUP3 PUSH2 0x22DE SWAP2 SWAP1 PUSH2 0x43D8 JUMP JUMPDEST DUP2 MLOAD DUP2 LT PUSH2 0x22EF JUMPI PUSH2 0x22EE PUSH2 0x3F11 JUMP JUMPDEST JUMPDEST PUSH1 0x20 MUL PUSH1 0x20 ADD ADD MLOAD PUSH1 0x40 ADD MLOAD DUP3 DUP3 DUP2 MLOAD DUP2 LT PUSH2 0x230E JUMPI PUSH2 0x230D PUSH2 0x3F11 JUMP JUMPDEST JUMPDEST PUSH1 0x20 MUL PUSH1 0x20 ADD ADD MLOAD PUSH1 0x40 ADD MLOAD SUB PUSH2 0x242C JUMPI DUP7 DUP3 PUSH1 0x1 DUP4 PUSH2 0x232E SWAP2 SWAP1 PUSH2 0x43D8 JUMP JUMPDEST DUP2 MLOAD DUP2 LT PUSH2 0x233F JUMPI PUSH2 0x233E PUSH2 0x3F11 JUMP JUMPDEST JUMPDEST PUSH1 0x20 MUL PUSH1 0x20 ADD ADD MLOAD PUSH1 0xA0 ADD MLOAD PUSH2 0x2355 SWAP2 SWAP1 PUSH2 0x433A JUMP JUMPDEST DUP3 DUP3 DUP2 MLOAD DUP2 LT PUSH2 0x2368 JUMPI PUSH2 0x2367 PUSH2 0x3F11 JUMP JUMPDEST JUMPDEST PUSH1 0x20 MUL PUSH1 0x20 ADD ADD MLOAD PUSH1 0xA0 ADD DUP2 DUP2 MSTORE POP POP DUP2 DUP2 DUP2 MLOAD DUP2 LT PUSH2 0x238B JUMPI PUSH2 0x238A PUSH2 0x3F11 JUMP JUMPDEST JUMPDEST PUSH1 0x20 MUL PUSH1 0x20 ADD ADD MLOAD PUSH1 0x40 ADD MLOAD PUSH1 0x1 DUP7 PUSH2 0x23A4 SWAP2 SWAP1 PUSH2 0x433A JUMP JUMPDEST PUSH2 0x23AE SWAP2 SWAP1 PUSH2 0x43D8 JUMP JUMPDEST SWAP8 POP PUSH1 0x0 JUMPDEST DUP9 DUP2 LT ISZERO PUSH2 0x2426 JUMPI DUP9 DUP4 DUP4 DUP2 MLOAD DUP2 LT PUSH2 0x23CF JUMPI PUSH2 0x23CE PUSH2 0x3F11 JUMP JUMPDEST JUMPDEST PUSH1 0x20 MUL PUSH1 0x20 ADD ADD MLOAD PUSH1 0xA0 ADD MLOAD PUSH2 0x23E5 SWAP2 SWAP1 PUSH2 0x4495 JUMP JUMPDEST DUP4 DUP3 DUP5 PUSH2 0x23F2 SWAP2 SWAP1 PUSH2 0x43D8 JUMP JUMPDEST DUP2 MLOAD DUP2 LT PUSH2 0x2403 JUMPI PUSH2 0x2402 PUSH2 0x3F11 JUMP JUMPDEST JUMPDEST PUSH1 0x20 MUL PUSH1 0x20 ADD ADD MLOAD PUSH1 0xC0 ADD DUP2 DUP2 MSTORE POP POP DUP1 DUP1 PUSH2 0x241E SWAP1 PUSH2 0x3F6F JUMP JUMPDEST SWAP2 POP POP PUSH2 0x23B3 JUMP JUMPDEST POP PUSH2 0x2475 JUMP JUMPDEST DUP7 DUP3 DUP3 DUP2 MLOAD DUP2 LT PUSH2 0x2440 JUMPI PUSH2 0x243F PUSH2 0x3F11 JUMP JUMPDEST JUMPDEST PUSH1 0x20 MUL PUSH1 0x20 ADD ADD MLOAD PUSH1 0xA0 ADD DUP2 DUP2 MSTORE POP POP DUP7 DUP3 DUP3 DUP2 MLOAD DUP2 LT PUSH2 0x2464 JUMPI PUSH2 0x2463 PUSH2 0x3F11 JUMP JUMPDEST JUMPDEST PUSH1 0x20 MUL PUSH1 0x20 ADD ADD MLOAD PUSH1 0xC0 ADD DUP2 DUP2 MSTORE POP POP JUMPDEST JUMPDEST DUP1 DUP1 PUSH2 0x2481 SWAP1 PUSH2 0x3F6F JUMP JUMPDEST SWAP2 POP POP PUSH2 0x2056 JUMP JUMPDEST POP DUP1 SWAP11 POP POP POP POP POP POP POP POP POP POP POP SWAP3 SWAP2 POP POP JUMP JUMPDEST PUSH1 0x0 PUSH2 0x24A8 DUP3 PUSH2 0x19DA JUMP JUMPDEST SWAP1 POP PUSH1 0x0 PUSH2 0x24B6 DUP4 DUP4 PUSH2 0x1B2E JUMP JUMPDEST SWAP1 POP PUSH1 0x0 PUSH1 0xC PUSH1 0x0 DUP6 DUP2 MSTORE PUSH1 0x20 ADD SWAP1 DUP2 MSTORE PUSH1 0x20 ADD PUSH1 0x0 KECCAK256 PUSH1 0x40 MLOAD DUP1 PUSH1 0xA0 ADD PUSH1 0x40 MSTORE DUP1 DUP5 PUSH1 0x0 DUP2 MLOAD DUP2 LT PUSH2 0x24EC JUMPI PUSH2 0x24EB PUSH2 0x3F11 JUMP JUMPDEST JUMPDEST PUSH1 0x20 MUL PUSH1 0x20 ADD ADD MLOAD PUSH1 0x0 ADD MLOAD PUSH20 0xFFFFFFFFFFFFFFFFFFFFFFFFFFFFFFFFFFFFFFFF AND DUP2 MSTORE PUSH1 0x20 ADD PUSH1 0x1 DUP2 MSTORE PUSH1 0x20 ADD DUP5 PUSH1 0x0 DUP2 MLOAD DUP2 LT PUSH2 0x252E JUMPI PUSH2 0x252D PUSH2 0x3F11 JUMP JUMPDEST JUMPDEST PUSH1 0x20 MUL PUSH1 0x20 ADD ADD MLOAD PUSH1 0x20 ADD MLOAD DUP2 MSTORE PUSH1 0x20 ADD DUP5 PUSH1 0x0 DUP2 MLOAD DUP2 LT PUSH2 0x2553 JUMPI PUSH2 0x2552 PUSH2 0x3F11 JUMP JUMPDEST JUMPDEST PUSH1 0x20 MUL PUSH1 0x20 ADD ADD MLOAD PUSH1 0x40 ADD MLOAD DUP2 MSTORE PUSH1 0x20 ADD DUP5 PUSH1 0x0 DUP2 MLOAD DUP2 LT PUSH2 0x2578 JUMPI PUSH2 0x2577 PUSH2 0x3F11 JUMP JUMPDEST JUMPDEST PUSH1 0x20 MUL PUSH1 0x20 ADD ADD MLOAD PUSH1 0xC0 ADD MLOAD DUP2 MSTORE POP SWAP1 DUP1 PUSH1 0x1 DUP2 SLOAD ADD DUP1 DUP3 SSTORE DUP1 SWAP2 POP POP PUSH1 0x1 SWAP1 SUB SWAP1 PUSH1 0x0 MSTORE PUSH1 0x20 PUSH1 0x0 KECCAK256 SWAP1 PUSH1 0x5 MUL ADD PUSH1 0x0 SWAP1 SWAP2 SWAP1 SWAP2 SWAP1 SWAP2 POP PUSH1 0x0 DUP3 ADD MLOAD DUP2 PUSH1 0x0 ADD PUSH1 0x0 PUSH2 0x100 EXP DUP2 SLOAD DUP2 PUSH20 0xFFFFFFFFFFFFFFFFFFFFFFFFFFFFFFFFFFFFFFFF MUL NOT AND SWAP1 DUP4 PUSH20 0xFFFFFFFFFFFFFFFFFFFFFFFFFFFFFFFFFFFFFFFF AND MUL OR SWAP1 SSTORE POP PUSH1 0x20 DUP3 ADD MLOAD DUP2 PUSH1 0x1 ADD SSTORE PUSH1 0x40 DUP3 ADD MLOAD DUP2 PUSH1 0x2 ADD SSTORE PUSH1 0x60 DUP3 ADD MLOAD DUP2 PUSH1 0x3 ADD SSTORE PUSH1 0x80 DUP3 ADD MLOAD DUP2 PUSH1 0x4 ADD SSTORE POP POP PUSH1 0x0 PUSH1 0x1 SWAP1 POP JUMPDEST PUSH1 0xD PUSH1 0x0 DUP7 DUP2 MSTORE PUSH1 0x20 ADD SWAP1 DUP2 MSTORE PUSH1 0x20 ADD PUSH1 0x0 KECCAK256 SLOAD DUP2 LT ISZERO PUSH2 0x28FF JUMPI DUP3 PUSH1 0x1 DUP3 PUSH2 0x2651 SWAP2 SWAP1 PUSH2 0x43D8 JUMP JUMPDEST DUP2 MLOAD DUP2 LT PUSH2 0x2662 JUMPI PUSH2 0x2661 PUSH2 0x3F11 JUMP JUMPDEST JUMPDEST PUSH1 0x20 MUL PUSH1 0x20 ADD ADD MLOAD PUSH1 0x0 ADD MLOAD PUSH20 0xFFFFFFFFFFFFFFFFFFFFFFFFFFFFFFFFFFFFFFFF AND DUP4 DUP3 DUP2 MLOAD DUP2 LT PUSH2 0x2697 JUMPI PUSH2 0x2696 PUSH2 0x3F11 JUMP JUMPDEST JUMPDEST PUSH1 0x20 MUL PUSH1 0x20 ADD ADD MLOAD PUSH1 0x0 ADD MLOAD PUSH20 0xFFFFFFFFFFFFFFFFFFFFFFFFFFFFFFFFFFFFFFFF AND SUB PUSH2 0x277A JUMPI PUSH1 0xC PUSH1 0x0 DUP7 DUP2 MSTORE PUSH1 0x20 ADD SWAP1 DUP2 MSTORE PUSH1 0x20 ADD PUSH1 0x0 KECCAK256 DUP3 DUP2 SLOAD DUP2 LT PUSH2 0x26E3 JUMPI PUSH2 0x26E2 PUSH2 0x3F11 JUMP JUMPDEST JUMPDEST SWAP1 PUSH1 0x0 MSTORE PUSH1 0x20 PUSH1 0x0 KECCAK256 SWAP1 PUSH1 0x5 MUL ADD PUSH1 0x1 ADD PUSH1 0x0 DUP2 SLOAD DUP1 SWAP3 SWAP2 SWAP1 PUSH2 0x2705 SWAP1 PUSH2 0x3F6F JUMP JUMPDEST SWAP2 SWAP1 POP SSTORE POP DUP3 DUP2 DUP2 MLOAD DUP2 LT PUSH2 0x271D JUMPI PUSH2 0x271C PUSH2 0x3F11 JUMP JUMPDEST JUMPDEST PUSH1 0x20 MUL PUSH1 0x20 ADD ADD MLOAD PUSH1 0xC0 ADD MLOAD PUSH1 0xC PUSH1 0x0 DUP8 DUP2 MSTORE PUSH1 0x20 ADD SWAP1 DUP2 MSTORE PUSH1 0x20 ADD PUSH1 0x0 KECCAK256 DUP4 DUP2 SLOAD DUP2 LT PUSH2 0x274E JUMPI PUSH2 0x274D PUSH2 0x3F11 JUMP JUMPDEST JUMPDEST SWAP1 PUSH1 0x0 MSTORE PUSH1 0x20 PUSH1 0x0 KECCAK256 SWAP1 PUSH1 0x5 MUL ADD PUSH1 0x4 ADD PUSH1 0x0 DUP3 DUP3 SLOAD PUSH2 0x276E SWAP2 SWAP1 PUSH2 0x433A JUMP JUMPDEST SWAP3 POP POP DUP2 SWAP1 SSTORE POP PUSH2 0x28EC JUMP JUMPDEST PUSH1 0xC PUSH1 0x0 DUP7 DUP2 MSTORE PUSH1 0x20 ADD SWAP1 DUP2 MSTORE PUSH1 0x20 ADD PUSH1 0x0 KECCAK256 PUSH1 0x40 MLOAD DUP1 PUSH1 0xA0 ADD PUSH1 0x40 MSTORE DUP1 DUP6 DUP5 DUP2 MLOAD DUP2 LT PUSH2 0x27AB JUMPI PUSH2 0x27AA PUSH2 0x3F11 JUMP JUMPDEST JUMPDEST PUSH1 0x20 MUL PUSH1 0x20 ADD ADD MLOAD PUSH1 0x0 ADD MLOAD PUSH20 0xFFFFFFFFFFFFFFFFFFFFFFFFFFFFFFFFFFFFFFFF AND DUP2 MSTORE PUSH1 0x20 ADD PUSH1 0x1 DUP2 MSTORE PUSH1 0x20 ADD DUP6 DUP5 DUP2 MLOAD DUP2 LT PUSH2 0x27EC JUMPI PUSH2 0x27EB PUSH2 0x3F11 JUMP JUMPDEST JUMPDEST PUSH1 0x20 MUL PUSH1 0x20 ADD ADD MLOAD PUSH1 0x20 ADD MLOAD DUP2 MSTORE PUSH1 0x20 ADD DUP6 DUP5 DUP2 MLOAD DUP2 LT PUSH2 0x2810 JUMPI PUSH2 0x280F PUSH2 0x3F11 JUMP JUMPDEST JUMPDEST PUSH1 0x20 MUL PUSH1 0x20 ADD ADD MLOAD PUSH1 0x40 ADD MLOAD DUP2 MSTORE PUSH1 0x20 ADD DUP6 DUP5 DUP2 MLOAD DUP2 LT PUSH2 0x2834 JUMPI PUSH2 0x2833 PUSH2 0x3F11 JUMP JUMPDEST JUMPDEST PUSH1 0x20 MUL PUSH1 0x20 ADD ADD MLOAD PUSH1 0xC0 ADD MLOAD DUP2 MSTORE POP SWAP1 DUP1 PUSH1 0x1 DUP2 SLOAD ADD DUP1 DUP3 SSTORE DUP1 SWAP2 POP POP PUSH1 0x1 SWAP1 SUB SWAP1 PUSH1 0x0 MSTORE PUSH1 0x20 PUSH1 0x0 KECCAK256 SWAP1 PUSH1 0x5 MUL ADD PUSH1 0x0 SWAP1 SWAP2 SWAP1 SWAP2 SWAP1 SWAP2 POP PUSH1 0x0 DUP3 ADD MLOAD DUP2 PUSH1 0x0 ADD PUSH1 0x0 PUSH2 0x100 EXP DUP2 SLOAD DUP2 PUSH20 0xFFFFFFFFFFFFFFFFFFFFFFFFFFFFFFFFFFFFFFFF MUL NOT AND SWAP1 DUP4 PUSH20 0xFFFFFFFFFFFFFFFFFFFFFFFFFFFFFFFFFFFFFFFF AND MUL OR SWAP1 SSTORE POP PUSH1 0x20 DUP3 ADD MLOAD DUP2 PUSH1 0x1 ADD SSTORE PUSH1 0x40 DUP3 ADD MLOAD DUP2 PUSH1 0x2 ADD SSTORE PUSH1 0x60 DUP3 ADD MLOAD DUP2 PUSH1 0x3 ADD SSTORE PUSH1 0x80 DUP3 ADD MLOAD DUP2 PUSH1 0x4 ADD SSTORE POP POP DUP2 DUP1 PUSH2 0x28E8 SWAP1 PUSH2 0x3F6F JUMP JUMPDEST SWAP3 POP POP JUMPDEST DUP1 DUP1 PUSH2 0x28F7 SWAP1 PUSH2 0x3F6F JUMP JUMPDEST SWAP2 POP POP PUSH2 0x2628 JUMP JUMPDEST POP POP POP POP POP JUMP JUMPDEST PUSH1 0x0 DUP1 DUP3 PUSH1 0x40 MLOAD PUSH2 0x2917 SWAP2 SWAP1 PUSH2 0x43C1 JUMP JUMPDEST SWAP1 DUP2 MSTORE PUSH1 0x20 ADD PUSH1 0x40 MLOAD DUP1 SWAP2 SUB SWAP1 KECCAK256 DUP1 SLOAD SWAP1 POP SWAP1 POP SWAP2 SWAP1 POP JUMP JUMPDEST PUSH1 0x0 PUSH1 0x8 SLOAD SWAP1 POP SWAP1 JUMP JUMPDEST PUSH1 0x0 DUP1 DUP3 PUSH1 0xFF AND DUP5 PUSH1 0xFF AND GT ISZERO PUSH2 0x2954 JUMPI PUSH1 0x0 SWAP1 POP PUSH2 0x2971 JUMP JUMPDEST DUP4 PUSH1 0xFF AND DUP4 PUSH1 0xFF AND GT ISZERO PUSH2 0x296B JUMPI PUSH1 0x2 SWAP1 POP PUSH2 0x2970 JUMP JUMPDEST PUSH1 0x1 SWAP1 POP JUMPDEST JUMPDEST DUP1 SWAP2 POP POP SWAP3 SWAP2 POP POP JUMP JUMPDEST PUSH1 0x40 MLOAD DUP1 PUSH1 0x60 ADD PUSH1 0x40 MSTORE DUP1 PUSH1 0x0 PUSH4 0xFFFFFFFF AND DUP2 MSTORE PUSH1 0x20 ADD PUSH1 0x0 PUSH1 0xFF AND DUP2 MSTORE PUSH1 0x20 ADD PUSH1 0x0 PUSH1 0xFF AND DUP2 MSTORE POP SWAP1 JUMP JUMPDEST PUSH1 0x40 MLOAD DUP1 PUSH1 0x80 ADD PUSH1 0x40 MSTORE DUP1 PUSH1 0x0 PUSH4 0xFFFFFFFF AND DUP2 MSTORE PUSH1 0x20 ADD PUSH1 0x0 PUSH5 0xFFFFFFFFFF AND DUP2 MSTORE PUSH1 0x20 ADD PUSH1 0x60 DUP2 MSTORE PUSH1 0x20 ADD PUSH1 0x60 DUP2 MSTORE POP SWAP1 JUMP JUMPDEST PUSH1 0x40 MLOAD DUP1 PUSH1 0x40 ADD PUSH1 0x40 MSTORE DUP1 PUSH1 0x0 PUSH1 0xFF AND DUP2 MSTORE PUSH1 0x20 ADD PUSH1 0x0 PUSH1 0xFF AND DUP2 MSTORE POP SWAP1 JUMP JUMPDEST PUSH1 0x40 MLOAD DUP1 PUSH1 0x60 ADD PUSH1 0x40 MSTORE DUP1 PUSH1 0x0 PUSH20 0xFFFFFFFFFFFFFFFFFFFFFFFFFFFFFFFFFFFFFFFF AND DUP2 MSTORE PUSH1 0x20 ADD PUSH1 0x0 DUP2 MSTORE PUSH1 0x20 ADD PUSH1 0x0 DUP2 MSTORE POP SWAP1 JUMP JUMPDEST PUSH1 0x40 MLOAD DUP1 PUSH1 0x60 ADD PUSH1 0x40 MSTORE DUP1 PUSH1 0x0 PUSH20 0xFFFFFFFFFFFFFFFFFFFFFFFFFFFFFFFFFFFFFFFF AND DUP2 MSTORE PUSH1 0x20 ADD PUSH1 0x0 DUP2 MSTORE PUSH1 0x20 ADD PUSH1 0x0 DUP2 MSTORE POP SWAP1 JUMP JUMPDEST PUSH1 0x40 MLOAD DUP1 PUSH1 0x40 ADD PUSH1 0x40 MSTORE DUP1 PUSH1 0x0 PUSH20 0xFFFFFFFFFFFFFFFFFFFFFFFFFFFFFFFFFFFFFFFF AND DUP2 MSTORE PUSH1 0x20 ADD PUSH1 0x0 DUP2 MSTORE POP SWAP1 JUMP JUMPDEST PUSH1 0x40 MLOAD DUP1 PUSH1 0xE0 ADD PUSH1 0x40 MSTORE DUP1 PUSH1 0x0 PUSH20 0xFFFFFFFFFFFFFFFFFFFFFFFFFFFFFFFFFFFFFFFF AND DUP2 MSTORE PUSH1 0x20 ADD PUSH1 0x0 DUP2 MSTORE PUSH1 0x20 ADD PUSH1 0x0 DUP2 MSTORE PUSH1 0x20 ADD PUSH1 0x0 DUP2 MSTORE PUSH1 0x20 ADD PUSH1 0x0 DUP2 MSTORE PUSH1 0x20 ADD PUSH1 0x0 DUP2 MSTORE PUSH1 0x20 ADD PUSH1 0x0 DUP2 MSTORE POP SWAP1 JUMP JUMPDEST PUSH1 0x0 DUP2 SWAP1 POP SWAP2 SWAP1 POP JUMP JUMPDEST PUSH2 0x2B01 DUP2 PUSH2 0x2AEE JUMP JUMPDEST DUP3 MSTORE POP POP JUMP JUMPDEST PUSH1 0x0 PUSH1 0x20 DUP3 ADD SWAP1 POP PUSH2 0x2B1C PUSH1 0x0 DUP4 ADD DUP5 PUSH2 0x2AF8 JUMP JUMPDEST SWAP3 SWAP2 POP POP JUMP JUMPDEST PUSH1 0x0 PUSH1 0x40 MLOAD SWAP1 POP SWAP1 JUMP JUMPDEST PUSH1 0x0 DUP1 REVERT JUMPDEST PUSH1 0x0 DUP1 REVERT JUMPDEST PUSH2 0x2B3F DUP2 PUSH2 0x2AEE JUMP JUMPDEST DUP2 EQ PUSH2 0x2B4A JUMPI PUSH1 0x0 DUP1 REVERT JUMPDEST POP JUMP JUMPDEST PUSH1 0x0 DUP2 CALLDATALOAD SWAP1 POP PUSH2 0x2B5C DUP2 PUSH2 0x2B36 JUMP JUMPDEST SWAP3 SWAP2 POP POP JUMP JUMPDEST PUSH1 0x0 PUSH20 0xFFFFFFFFFFFFFFFFFFFFFFFFFFFFFFFFFFFFFFFF DUP3 AND SWAP1 POP SWAP2 SWAP1 POP JUMP JUMPDEST PUSH1 0x0 PUSH2 0x2B8D DUP3 PUSH2 0x2B62 JUMP JUMPDEST SWAP1 POP SWAP2 SWAP1 POP JUMP JUMPDEST PUSH2 0x2B9D DUP2 PUSH2 0x2B82 JUMP JUMPDEST DUP2 EQ PUSH2 0x2BA8 JUMPI PUSH1 0x0 DUP1 REVERT JUMPDEST POP JUMP JUMPDEST PUSH1 0x0 DUP2 CALLDATALOAD SWAP1 POP PUSH2 0x2BBA DUP2 PUSH2 0x2B94 JUMP JUMPDEST SWAP3 SWAP2 POP POP JUMP JUMPDEST PUSH1 0x0 DUP1 PUSH1 0x40 DUP4 DUP6 SUB SLT ISZERO PUSH2 0x2BD7 JUMPI PUSH2 0x2BD6 PUSH2 0x2B2C JUMP JUMPDEST JUMPDEST PUSH1 0x0 PUSH2 0x2BE5 DUP6 DUP3 DUP7 ADD PUSH2 0x2B4D JUMP JUMPDEST SWAP3 POP POP PUSH1 0x20 PUSH2 0x2BF6 DUP6 DUP3 DUP7 ADD PUSH2 0x2BAB JUMP JUMPDEST SWAP2 POP POP SWAP3 POP SWAP3 SWAP1 POP JUMP JUMPDEST PUSH1 0x0 DUP2 MLOAD SWAP1 POP SWAP2 SWAP1 POP JUMP JUMPDEST PUSH1 0x0 DUP3 DUP3 MSTORE PUSH1 0x20 DUP3 ADD SWAP1 POP SWAP3 SWAP2 POP POP JUMP JUMPDEST PUSH1 0x0 DUP2 SWAP1 POP PUSH1 0x20 DUP3 ADD SWAP1 POP SWAP2 SWAP1 POP JUMP JUMPDEST PUSH1 0x0 PUSH4 0xFFFFFFFF DUP3 AND SWAP1 POP SWAP2 SWAP1 POP JUMP JUMPDEST PUSH2 0x2C45 DUP2 PUSH2 0x2C2C JUMP JUMPDEST DUP3 MSTORE POP POP JUMP JUMPDEST PUSH1 0x0 PUSH1 0xFF DUP3 AND SWAP1 POP SWAP2 SWAP1 POP JUMP JUMPDEST PUSH2 0x2C61 DUP2 PUSH2 0x2C4B JUMP JUMPDEST DUP3 MSTORE POP POP JUMP JUMPDEST PUSH1 0x60 DUP3 ADD PUSH1 0x0 DUP3 ADD MLOAD PUSH2 0x2C7D PUSH1 0x0 DUP6 ADD DUP3 PUSH2 0x2C3C JUMP JUMPDEST POP PUSH1 0x20 DUP3 ADD MLOAD PUSH2 0x2C90 PUSH1 0x20 DUP6 ADD DUP3 PUSH2 0x2C58 JUMP JUMPDEST POP PUSH1 0x40 DUP3 ADD MLOAD PUSH2 0x2CA3 PUSH1 0x40 DUP6 ADD DUP3 PUSH2 0x2C58 JUMP JUMPDEST POP POP POP POP JUMP JUMPDEST PUSH1 0x0 PUSH2 0x2CB5 DUP4 DUP4 PUSH2 0x2C67 JUMP JUMPDEST PUSH1 0x60 DUP4 ADD SWAP1 POP SWAP3 SWAP2 POP POP JUMP JUMPDEST PUSH1 0x0 PUSH1 0x20 DUP3 ADD SWAP1 POP SWAP2 SWAP1 POP JUMP JUMPDEST PUSH1 0x0 PUSH2 0x2CD9 DUP3 PUSH2 0x2C00 JUMP JUMPDEST PUSH2 0x2CE3 DUP2 DUP6 PUSH2 0x2C0B JUMP JUMPDEST SWAP4 POP PUSH2 0x2CEE DUP4 PUSH2 0x2C1C JUMP JUMPDEST DUP1 PUSH1 0x0 JUMPDEST DUP4 DUP2 LT ISZERO PUSH2 0x2D1F JUMPI DUP2 MLOAD PUSH2 0x2D06 DUP9 DUP3 PUSH2 0x2CA9 JUMP JUMPDEST SWAP8 POP PUSH2 0x2D11 DUP4 PUSH2 0x2CC1 JUMP JUMPDEST SWAP3 POP POP PUSH1 0x1 DUP2 ADD SWAP1 POP PUSH2 0x2CF2 JUMP JUMPDEST POP DUP6 SWAP4 POP POP POP POP SWAP3 SWAP2 POP POP JUMP JUMPDEST PUSH1 0x0 PUSH1 0x20 DUP3 ADD SWAP1 POP DUP2 DUP2 SUB PUSH1 0x0 DUP4 ADD MSTORE PUSH2 0x2D46 DUP2 DUP5 PUSH2 0x2CCE JUMP JUMPDEST SWAP1 POP SWAP3 SWAP2 POP POP JUMP JUMPDEST PUSH1 0x0 PUSH1 0x20 DUP3 DUP5 SUB SLT ISZERO PUSH2 0x2D64 JUMPI PUSH2 0x2D63 PUSH2 0x2B2C JUMP JUMPDEST JUMPDEST PUSH1 0x0 PUSH2 0x2D72 DUP5 DUP3 DUP6 ADD PUSH2 0x2B4D JUMP JUMPDEST SWAP2 POP POP SWAP3 SWAP2 POP POP JUMP JUMPDEST PUSH1 0x0 DUP2 MLOAD SWAP1 POP SWAP2 SWAP1 POP JUMP JUMPDEST PUSH1 0x0 DUP3 DUP3 MSTORE PUSH1 0x20 DUP3 ADD SWAP1 POP SWAP3 SWAP2 POP POP JUMP JUMPDEST PUSH1 0x0 DUP2 SWAP1 POP PUSH1 0x20 DUP3 ADD SWAP1 POP SWAP2 SWAP1 POP JUMP JUMPDEST PUSH1 0x0 DUP2 MLOAD SWAP1 POP SWAP2 SWAP1 POP JUMP JUMPDEST PUSH1 0x0 DUP3 DUP3 MSTORE PUSH1 0x20 DUP3 ADD SWAP1 POP SWAP3 SWAP2 POP POP JUMP JUMPDEST PUSH1 0x0 JUMPDEST DUP4 DUP2 LT ISZERO PUSH2 0x2DE1 JUMPI DUP1 DUP3 ADD MLOAD DUP2 DUP5 ADD MSTORE PUSH1 0x20 DUP2 ADD SWAP1 POP PUSH2 0x2DC6 JUMP JUMPDEST DUP4 DUP2 GT ISZERO PUSH2 0x2DF0 JUMPI PUSH1 0x0 DUP5 DUP5 ADD MSTORE JUMPDEST POP POP POP POP JUMP JUMPDEST PUSH1 0x0 PUSH1 0x1F NOT PUSH1 0x1F DUP4 ADD AND SWAP1 POP SWAP2 SWAP1 POP JUMP JUMPDEST PUSH1 0x0 PUSH2 0x2E12 DUP3 PUSH2 0x2DA7 JUMP JUMPDEST PUSH2 0x2E1C DUP2 DUP6 PUSH2 0x2DB2 JUMP JUMPDEST SWAP4 POP PUSH2 0x2E2C DUP2 DUP6 PUSH1 0x20 DUP7 ADD PUSH2 0x2DC3 JUMP JUMPDEST PUSH2 0x2E35 DUP2 PUSH2 0x2DF6 JUMP JUMPDEST DUP5 ADD SWAP2 POP POP SWAP3 SWAP2 POP POP JUMP JUMPDEST PUSH1 0x0 PUSH2 0x2E4C DUP4 DUP4 PUSH2 0x2E07 JUMP JUMPDEST SWAP1 POP SWAP3 SWAP2 POP POP JUMP JUMPDEST PUSH1 0x0 PUSH1 0x20 DUP3 ADD SWAP1 POP SWAP2 SWAP1 POP JUMP JUMPDEST PUSH1 0x0 PUSH2 0x2E6C DUP3 PUSH2 0x2D7B JUMP JUMPDEST PUSH2 0x2E76 DUP2 DUP6 PUSH2 0x2D86 JUMP JUMPDEST SWAP4 POP DUP4 PUSH1 0x20 DUP3 MUL DUP6 ADD PUSH2 0x2E88 DUP6 PUSH2 0x2D97 JUMP JUMPDEST DUP1 PUSH1 0x0 JUMPDEST DUP6 DUP2 LT ISZERO PUSH2 0x2EC4 JUMPI DUP5 DUP5 SUB DUP10 MSTORE DUP2 MLOAD PUSH2 0x2EA5 DUP6 DUP3 PUSH2 0x2E40 JUMP JUMPDEST SWAP5 POP PUSH2 0x2EB0 DUP4 PUSH2 0x2E54 JUMP JUMPDEST SWAP3 POP PUSH1 0x20 DUP11 ADD SWAP10 POP POP PUSH1 0x1 DUP2 ADD SWAP1 POP PUSH2 0x2E8C JUMP JUMPDEST POP DUP3 SWAP8 POP DUP8 SWAP6 POP POP POP POP POP POP SWAP3 SWAP2 POP POP JUMP JUMPDEST PUSH1 0x0 PUSH1 0x20 DUP3 ADD SWAP1 POP DUP2 DUP2 SUB PUSH1 0x0 DUP4 ADD MSTORE PUSH2 0x2EF0 DUP2 DUP5 PUSH2 0x2E61 JUMP JUMPDEST SWAP1 POP SWAP3 SWAP2 POP POP JUMP JUMPDEST PUSH1 0x0 DUP1 REVERT JUMPDEST PUSH32 0x4E487B7100000000000000000000000000000000000000000000000000000000 PUSH1 0x0 MSTORE PUSH1 0x41 PUSH1 0x4 MSTORE PUSH1 0x24 PUSH1 0x0 REVERT JUMPDEST PUSH2 0x2F35 DUP3 PUSH2 0x2DF6 JUMP JUMPDEST DUP2 ADD DUP2 DUP2 LT PUSH8 0xFFFFFFFFFFFFFFFF DUP3 GT OR ISZERO PUSH2 0x2F54 JUMPI PUSH2 0x2F53 PUSH2 0x2EFD JUMP JUMPDEST JUMPDEST DUP1 PUSH1 0x40 MSTORE POP POP POP JUMP JUMPDEST PUSH1 0x0 PUSH2 0x2F67 PUSH2 0x2B22 JUMP JUMPDEST SWAP1 POP PUSH2 0x2F73 DUP3 DUP3 PUSH2 0x2F2C JUMP JUMPDEST SWAP2 SWAP1 POP JUMP JUMPDEST PUSH1 0x0 PUSH8 0xFFFFFFFFFFFFFFFF DUP3 GT ISZERO PUSH2 0x2F93 JUMPI PUSH2 0x2F92 PUSH2 0x2EFD JUMP JUMPDEST JUMPDEST PUSH1 0x20 DUP3 MUL SWAP1 POP PUSH1 0x20 DUP2 ADD SWAP1 POP SWAP2 SWAP1 POP JUMP JUMPDEST PUSH1 0x0 DUP1 REVERT JUMPDEST PUSH1 0x0 DUP1 REVERT JUMPDEST PUSH1 0x0 PUSH8 0xFFFFFFFFFFFFFFFF DUP3 GT ISZERO PUSH2 0x2FC9 JUMPI PUSH2 0x2FC8 PUSH2 0x2EFD JUMP JUMPDEST JUMPDEST PUSH2 0x2FD2 DUP3 PUSH2 0x2DF6 JUMP JUMPDEST SWAP1 POP PUSH1 0x20 DUP2 ADD SWAP1 POP SWAP2 SWAP1 POP JUMP JUMPDEST DUP3 DUP2 DUP4 CALLDATACOPY PUSH1 0x0 DUP4 DUP4 ADD MSTORE POP POP POP JUMP JUMPDEST PUSH1 0x0 PUSH2 0x3001 PUSH2 0x2FFC DUP5 PUSH2 0x2FAE JUMP JUMPDEST PUSH2 0x2F5D JUMP JUMPDEST SWAP1 POP DUP3 DUP2 MSTORE PUSH1 0x20 DUP2 ADD DUP5 DUP5 DUP5 ADD GT ISZERO PUSH2 0x301D JUMPI PUSH2 0x301C PUSH2 0x2FA9 JUMP JUMPDEST JUMPDEST PUSH2 0x3028 DUP5 DUP3 DUP6 PUSH2 0x2FDF JUMP JUMPDEST POP SWAP4 SWAP3 POP POP POP JUMP JUMPDEST PUSH1 0x0 DUP3 PUSH1 0x1F DUP4 ADD SLT PUSH2 0x3045 JUMPI PUSH2 0x3044 PUSH2 0x2EF8 JUMP JUMPDEST JUMPDEST DUP2 CALLDATALOAD PUSH2 0x3055 DUP5 DUP3 PUSH1 0x20 DUP7 ADD PUSH2 0x2FEE JUMP JUMPDEST SWAP2 POP POP SWAP3 SWAP2 POP POP JUMP JUMPDEST PUSH1 0x0 PUSH2 0x3071 PUSH2 0x306C DUP5 PUSH2 0x2F78 JUMP JUMPDEST PUSH2 0x2F5D JUMP JUMPDEST SWAP1 POP DUP1 DUP4 DUP3 MSTORE PUSH1 0x20 DUP3 ADD SWAP1 POP PUSH1 0x20 DUP5 MUL DUP4 ADD DUP6 DUP2 GT ISZERO PUSH2 0x3094 JUMPI PUSH2 0x3093 PUSH2 0x2FA4 JUMP JUMPDEST JUMPDEST DUP4 JUMPDEST DUP2 DUP2 LT ISZERO PUSH2 0x30DB JUMPI DUP1 CALLDATALOAD PUSH8 0xFFFFFFFFFFFFFFFF DUP2 GT ISZERO PUSH2 0x30B9 JUMPI PUSH2 0x30B8 PUSH2 0x2EF8 JUMP JUMPDEST JUMPDEST DUP1 DUP7 ADD PUSH2 0x30C6 DUP10 DUP3 PUSH2 0x3030 JUMP JUMPDEST DUP6 MSTORE PUSH1 0x20 DUP6 ADD SWAP5 POP POP POP PUSH1 0x20 DUP2 ADD SWAP1 POP PUSH2 0x3096 JUMP JUMPDEST POP POP POP SWAP4 SWAP3 POP POP POP JUMP JUMPDEST PUSH1 0x0 DUP3 PUSH1 0x1F DUP4 ADD SLT PUSH2 0x30FA JUMPI PUSH2 0x30F9 PUSH2 0x2EF8 JUMP JUMPDEST JUMPDEST DUP2 CALLDATALOAD PUSH2 0x310A DUP5 DUP3 PUSH1 0x20 DUP7 ADD PUSH2 0x305E JUMP JUMPDEST SWAP2 POP POP SWAP3 SWAP2 POP POP JUMP JUMPDEST PUSH1 0x0 DUP1 PUSH1 0x0 PUSH1 0x60 DUP5 DUP7 SUB SLT ISZERO PUSH2 0x312C JUMPI PUSH2 0x312B PUSH2 0x2B2C JUMP JUMPDEST JUMPDEST PUSH1 0x0 PUSH2 0x313A DUP7 DUP3 DUP8 ADD PUSH2 0x2B4D JUMP JUMPDEST SWAP4 POP POP PUSH1 0x20 DUP5 ADD CALLDATALOAD PUSH8 0xFFFFFFFFFFFFFFFF DUP2 GT ISZERO PUSH2 0x315B JUMPI PUSH2 0x315A PUSH2 0x2B31 JUMP JUMPDEST JUMPDEST PUSH2 0x3167 DUP7 DUP3 DUP8 ADD PUSH2 0x30E5 JUMP JUMPDEST SWAP3 POP POP PUSH1 0x40 PUSH2 0x3178 DUP7 DUP3 DUP8 ADD PUSH2 0x2B4D JUMP JUMPDEST SWAP2 POP POP SWAP3 POP SWAP3 POP SWAP3 JUMP JUMPDEST PUSH2 0x318B DUP2 PUSH2 0x2C2C JUMP JUMPDEST DUP2 EQ PUSH2 0x3196 JUMPI PUSH1 0x0 DUP1 REVERT JUMPDEST POP JUMP JUMPDEST PUSH1 0x0 DUP2 CALLDATALOAD SWAP1 POP PUSH2 0x31A8 DUP2 PUSH2 0x3182 JUMP JUMPDEST SWAP3 SWAP2 POP POP JUMP JUMPDEST PUSH1 0x0 PUSH1 0x20 DUP3 DUP5 SUB SLT ISZERO PUSH2 0x31C4 JUMPI PUSH2 0x31C3 PUSH2 0x2B2C JUMP JUMPDEST JUMPDEST PUSH1 0x0 PUSH2 0x31D2 DUP5 DUP3 DUP6 ADD PUSH2 0x3199 JUMP JUMPDEST SWAP2 POP POP SWAP3 SWAP2 POP POP JUMP JUMPDEST PUSH1 0x40 DUP3 ADD PUSH1 0x0 DUP3 ADD MLOAD PUSH2 0x31F1 PUSH1 0x0 DUP6 ADD DUP3 PUSH2 0x2C58 JUMP JUMPDEST POP PUSH1 0x20 DUP3 ADD MLOAD PUSH2 0x3204 PUSH1 0x20 DUP6 ADD DUP3 PUSH2 0x2C58 JUMP JUMPDEST POP POP POP POP JUMP JUMPDEST PUSH1 0x0 PUSH1 0x40 DUP3 ADD SWAP1 POP PUSH2 0x321F PUSH1 0x0 DUP4 ADD DUP5 PUSH2 0x31DB JUMP JUMPDEST SWAP3 SWAP2 POP POP JUMP JUMPDEST PUSH1 0x0 PUSH8 0xFFFFFFFFFFFFFFFF DUP3 GT ISZERO PUSH2 0x3240 JUMPI PUSH2 0x323F PUSH2 0x2EFD JUMP JUMPDEST JUMPDEST PUSH1 0x20 DUP3 MUL SWAP1 POP PUSH1 0x20 DUP2 ADD SWAP1 POP SWAP2 SWAP1 POP JUMP JUMPDEST PUSH1 0x0 DUP1 REVERT JUMPDEST PUSH1 0x0 DUP1 REVERT JUMPDEST PUSH1 0x0 PUSH5 0xFFFFFFFFFF DUP3 AND SWAP1 POP SWAP2 SWAP1 POP JUMP JUMPDEST PUSH2 0x3275 DUP2 PUSH2 0x325B JUMP JUMPDEST DUP2 EQ PUSH2 0x3280 JUMPI PUSH1 0x0 DUP1 REVERT JUMPDEST POP JUMP JUMPDEST PUSH1 0x0 DUP2 CALLDATALOAD SWAP1 POP PUSH2 0x3292 DUP2 PUSH2 0x326C JUMP JUMPDEST SWAP3 SWAP2 POP POP JUMP JUMPDEST PUSH1 0x0 PUSH1 0x80 DUP3 DUP5 SUB SLT ISZERO PUSH2 0x32AE JUMPI PUSH2 0x32AD PUSH2 0x3251 JUMP JUMPDEST JUMPDEST PUSH2 0x32B8 PUSH1 0x80 PUSH2 0x2F5D JUMP JUMPDEST SWAP1 POP PUSH1 0x0 PUSH2 0x32C8 DUP5 DUP3 DUP6 ADD PUSH2 0x3199 JUMP JUMPDEST PUSH1 0x0 DUP4 ADD MSTORE POP PUSH1 0x20 PUSH2 0x32DC DUP5 DUP3 DUP6 ADD PUSH2 0x3283 JUMP JUMPDEST PUSH1 0x20 DUP4 ADD MSTORE POP PUSH1 0x40 DUP3 ADD CALLDATALOAD PUSH8 0xFFFFFFFFFFFFFFFF DUP2 GT ISZERO PUSH2 0x3300 JUMPI PUSH2 0x32FF PUSH2 0x3256 JUMP JUMPDEST JUMPDEST PUSH2 0x330C DUP5 DUP3 DUP6 ADD PUSH2 0x3030 JUMP JUMPDEST PUSH1 0x40 DUP4 ADD MSTORE POP PUSH1 0x60 DUP3 ADD CALLDATALOAD PUSH8 0xFFFFFFFFFFFFFFFF DUP2 GT ISZERO PUSH2 0x3330 JUMPI PUSH2 0x332F PUSH2 0x3256 JUMP JUMPDEST JUMPDEST PUSH2 0x333C DUP5 DUP3 DUP6 ADD PUSH2 0x3030 JUMP JUMPDEST PUSH1 0x60 DUP4 ADD MSTORE POP SWAP3 SWAP2 POP POP JUMP JUMPDEST PUSH1 0x0 PUSH2 0x335B PUSH2 0x3356 DUP5 PUSH2 0x3225 JUMP JUMPDEST PUSH2 0x2F5D JUMP JUMPDEST SWAP1 POP DUP1 DUP4 DUP3 MSTORE PUSH1 0x20 DUP3 ADD SWAP1 POP PUSH1 0x20 DUP5 MUL DUP4 ADD DUP6 DUP2 GT ISZERO PUSH2 0x337E JUMPI PUSH2 0x337D PUSH2 0x2FA4 JUMP JUMPDEST JUMPDEST DUP4 JUMPDEST DUP2 DUP2 LT ISZERO PUSH2 0x33C5 JUMPI DUP1 CALLDATALOAD PUSH8 0xFFFFFFFFFFFFFFFF DUP2 GT ISZERO PUSH2 0x33A3 JUMPI PUSH2 0x33A2 PUSH2 0x2EF8 JUMP JUMPDEST JUMPDEST DUP1 DUP7 ADD PUSH2 0x33B0 DUP10 DUP3 PUSH2 0x3298 JUMP JUMPDEST DUP6 MSTORE PUSH1 0x20 DUP6 ADD SWAP5 POP POP POP PUSH1 0x20 DUP2 ADD SWAP1 POP PUSH2 0x3380 JUMP JUMPDEST POP POP POP SWAP4 SWAP3 POP POP POP JUMP JUMPDEST PUSH1 0x0 DUP3 PUSH1 0x1F DUP4 ADD SLT PUSH2 0x33E4 JUMPI PUSH2 0x33E3 PUSH2 0x2EF8 JUMP JUMPDEST JUMPDEST DUP2 CALLDATALOAD PUSH2 0x33F4 DUP5 DUP3 PUSH1 0x20 DUP7 ADD PUSH2 0x3348 JUMP JUMPDEST SWAP2 POP POP SWAP3 SWAP2 POP POP JUMP JUMPDEST PUSH1 0x0 DUP1 PUSH1 0x40 DUP4 DUP6 SUB SLT ISZERO PUSH2 0x3414 JUMPI PUSH2 0x3413 PUSH2 0x2B2C JUMP JUMPDEST JUMPDEST PUSH1 0x0 DUP4 ADD CALLDATALOAD PUSH8 0xFFFFFFFFFFFFFFFF DUP2 GT ISZERO PUSH2 0x3432 JUMPI PUSH2 0x3431 PUSH2 0x2B31 JUMP JUMPDEST JUMPDEST PUSH2 0x343E DUP6 DUP3 DUP7 ADD PUSH2 0x3030 JUMP JUMPDEST SWAP3 POP POP PUSH1 0x20 DUP4 ADD CALLDATALOAD PUSH8 0xFFFFFFFFFFFFFFFF DUP2 GT ISZERO PUSH2 0x345F JUMPI PUSH2 0x345E PUSH2 0x2B31 JUMP JUMPDEST JUMPDEST PUSH2 0x346B DUP6 DUP3 DUP7 ADD PUSH2 0x33CF JUMP JUMPDEST SWAP2 POP POP SWAP3 POP SWAP3 SWAP1 POP JUMP JUMPDEST PUSH1 0x0 DUP2 MLOAD SWAP1 POP SWAP2 SWAP1 POP JUMP JUMPDEST PUSH1 0x0 DUP3 DUP3 MSTORE PUSH1 0x20 DUP3 ADD SWAP1 POP SWAP3 SWAP2 POP POP JUMP JUMPDEST PUSH1 0x0 DUP2 SWAP1 POP PUSH1 0x20 DUP3 ADD SWAP1 POP SWAP2 SWAP1 POP JUMP JUMPDEST PUSH2 0x34AA DUP2 PUSH2 0x2B82 JUMP JUMPDEST DUP3 MSTORE POP POP JUMP JUMPDEST PUSH2 0x34B9 DUP2 PUSH2 0x2AEE JUMP JUMPDEST DUP3 MSTORE POP POP JUMP JUMPDEST PUSH1 0xA0 DUP3 ADD PUSH1 0x0 DUP3 ADD MLOAD PUSH2 0x34D5 PUSH1 0x0 DUP6 ADD DUP3 PUSH2 0x34A1 JUMP JUMPDEST POP PUSH1 0x20 DUP3 ADD MLOAD PUSH2 0x34E8 PUSH1 0x20 DUP6 ADD DUP3 PUSH2 0x34B0 JUMP JUMPDEST POP PUSH1 0x40 DUP3 ADD MLOAD PUSH2 0x34FB PUSH1 0x40 DUP6 ADD DUP3 PUSH2 0x34B0 JUMP JUMPDEST POP PUSH1 0x60 DUP3 ADD MLOAD PUSH2 0x350E PUSH1 0x60 DUP6 ADD DUP3 PUSH2 0x34B0 JUMP JUMPDEST POP PUSH1 0x80 DUP3 ADD MLOAD PUSH2 0x3521 PUSH1 0x80 DUP6 ADD DUP3 PUSH2 0x34B0 JUMP JUMPDEST POP POP POP POP JUMP JUMPDEST PUSH1 0x0 PUSH2 0x3533 DUP4 DUP4 PUSH2 0x34BF JUMP JUMPDEST PUSH1 0xA0 DUP4 ADD SWAP1 POP SWAP3 SWAP2 POP POP JUMP JUMPDEST PUSH1 0x0 PUSH1 0x20 DUP3 ADD SWAP1 POP SWAP2 SWAP1 POP JUMP JUMPDEST PUSH1 0x0 PUSH2 0x3557 DUP3 PUSH2 0x3475 JUMP JUMPDEST PUSH2 0x3561 DUP2 DUP6 PUSH2 0x3480 JUMP JUMPDEST SWAP4 POP PUSH2 0x356C DUP4 PUSH2 0x3491 JUMP JUMPDEST DUP1 PUSH1 0x0 JUMPDEST DUP4 DUP2 LT ISZERO PUSH2 0x359D JUMPI DUP2 MLOAD PUSH2 0x3584 DUP9 DUP3 PUSH2 0x3527 JUMP JUMPDEST SWAP8 POP PUSH2 0x358F DUP4 PUSH2 0x353F JUMP JUMPDEST SWAP3 POP POP PUSH1 0x1 DUP2 ADD SWAP1 POP PUSH2 0x3570 JUMP JUMPDEST POP DUP6 SWAP4 POP POP POP POP SWAP3 SWAP2 POP POP JUMP JUMPDEST PUSH1 0x0 PUSH1 0x20 DUP3 ADD SWAP1 POP DUP2 DUP2 SUB PUSH1 0x0 DUP4 ADD MSTORE PUSH2 0x35C4 DUP2 DUP5 PUSH2 0x354C JUMP JUMPDEST SWAP1 POP SWAP3 SWAP2 POP POP JUMP JUMPDEST PUSH1 0x0 PUSH8 0xFFFFFFFFFFFFFFFF DUP3 GT ISZERO PUSH2 0x35E7 JUMPI PUSH2 0x35E6 PUSH2 0x2EFD JUMP JUMPDEST JUMPDEST PUSH1 0x20 DUP3 MUL SWAP1 POP PUSH1 0x20 DUP2 ADD SWAP1 POP SWAP2 SWAP1 POP JUMP JUMPDEST PUSH2 0x3601 DUP2 PUSH2 0x2C4B JUMP JUMPDEST DUP2 EQ PUSH2 0x360C JUMPI PUSH1 0x0 DUP1 REVERT JUMPDEST POP JUMP JUMPDEST PUSH1 0x0 DUP2 CALLDATALOAD SWAP1 POP PUSH2 0x361E DUP2 PUSH2 0x35F8 JUMP JUMPDEST SWAP3 SWAP2 POP POP JUMP JUMPDEST PUSH1 0x0 PUSH1 0x80 DUP3 DUP5 SUB SLT ISZERO PUSH2 0x363A JUMPI PUSH2 0x3639 PUSH2 0x3251 JUMP JUMPDEST JUMPDEST PUSH2 0x3644 PUSH1 0x80 PUSH2 0x2F5D JUMP JUMPDEST SWAP1 POP PUSH1 0x0 PUSH2 0x3654 DUP5 DUP3 DUP6 ADD PUSH2 0x3199 JUMP JUMPDEST PUSH1 0x0 DUP4 ADD MSTORE POP PUSH1 0x20 PUSH2 0x3668 DUP5 DUP3 DUP6 ADD PUSH2 0x360F JUMP JUMPDEST PUSH1 0x20 DUP4 ADD MSTORE POP PUSH1 0x40 PUSH2 0x367C DUP5 DUP3 DUP6 ADD PUSH2 0x360F JUMP JUMPDEST PUSH1 0x40 DUP4 ADD MSTORE POP PUSH1 0x60 DUP3 ADD CALLDATALOAD PUSH8 0xFFFFFFFFFFFFFFFF DUP2 GT ISZERO PUSH2 0x36A0 JUMPI PUSH2 0x369F PUSH2 0x3256 JUMP JUMPDEST JUMPDEST PUSH2 0x36AC DUP5 DUP3 DUP6 ADD PUSH2 0x3030 JUMP JUMPDEST PUSH1 0x60 DUP4 ADD MSTORE POP SWAP3 SWAP2 POP POP JUMP JUMPDEST PUSH1 0x0 PUSH2 0x36CB PUSH2 0x36C6 DUP5 PUSH2 0x35CC JUMP JUMPDEST PUSH2 0x2F5D JUMP JUMPDEST SWAP1 POP DUP1 DUP4 DUP3 MSTORE PUSH1 0x20 DUP3 ADD SWAP1 POP PUSH1 0x20 DUP5 MUL DUP4 ADD DUP6 DUP2 GT ISZERO PUSH2 0x36EE JUMPI PUSH2 0x36ED PUSH2 0x2FA4 JUMP JUMPDEST JUMPDEST DUP4 JUMPDEST DUP2 DUP2 LT ISZERO PUSH2 0x3735 JUMPI DUP1 CALLDATALOAD PUSH8 0xFFFFFFFFFFFFFFFF DUP2 GT ISZERO PUSH2 0x3713 JUMPI PUSH2 0x3712 PUSH2 0x2EF8 JUMP JUMPDEST JUMPDEST DUP1 DUP7 ADD PUSH2 0x3720 DUP10 DUP3 PUSH2 0x3624 JUMP JUMPDEST DUP6 MSTORE PUSH1 0x20 DUP6 ADD SWAP5 POP POP POP PUSH1 0x20 DUP2 ADD SWAP1 POP PUSH2 0x36F0 JUMP JUMPDEST POP POP POP SWAP4 SWAP3 POP POP POP JUMP JUMPDEST PUSH1 0x0 DUP3 PUSH1 0x1F DUP4 ADD SLT PUSH2 0x3754 JUMPI PUSH2 0x3753 PUSH2 0x2EF8 JUMP JUMPDEST JUMPDEST DUP2 CALLDATALOAD PUSH2 0x3764 DUP5 DUP3 PUSH1 0x20 DUP7 ADD PUSH2 0x36B8 JUMP JUMPDEST SWAP2 POP POP SWAP3 SWAP2 POP POP JUMP JUMPDEST PUSH1 0x0 PUSH1 0x20 DUP3 DUP5 SUB SLT ISZERO PUSH2 0x3783 JUMPI PUSH2 0x3782 PUSH2 0x2B2C JUMP JUMPDEST JUMPDEST PUSH1 0x0 DUP3 ADD CALLDATALOAD PUSH8 0xFFFFFFFFFFFFFFFF DUP2 GT ISZERO PUSH2 0x37A1 JUMPI PUSH2 0x37A0 PUSH2 0x2B31 JUMP JUMPDEST JUMPDEST PUSH2 0x37AD DUP5 DUP3 DUP6 ADD PUSH2 0x373F JUMP JUMPDEST SWAP2 POP POP SWAP3 SWAP2 POP POP JUMP JUMPDEST PUSH1 0x0 DUP1 PUSH1 0x40 DUP4 DUP6 SUB SLT ISZERO PUSH2 0x37CD JUMPI PUSH2 0x37CC PUSH2 0x2B2C JUMP JUMPDEST JUMPDEST PUSH1 0x0 PUSH2 0x37DB DUP6 DUP3 DUP7 ADD PUSH2 0x2B4D JUMP JUMPDEST SWAP3 POP POP PUSH1 0x20 PUSH2 0x37EC DUP6 DUP3 DUP7 ADD PUSH2 0x2B4D JUMP JUMPDEST SWAP2 POP POP SWAP3 POP SWAP3 SWAP1 POP JUMP JUMPDEST PUSH2 0x37FF DUP2 PUSH2 0x2B82 JUMP JUMPDEST DUP3 MSTORE POP POP JUMP JUMPDEST PUSH1 0x0 PUSH1 0xA0 DUP3 ADD SWAP1 POP PUSH2 0x381A PUSH1 0x0 DUP4 ADD DUP9 PUSH2 0x37F6 JUMP JUMPDEST PUSH2 0x3827 PUSH1 0x20 DUP4 ADD DUP8 PUSH2 0x2AF8 JUMP JUMPDEST PUSH2 0x3834 PUSH1 0x40 DUP4 ADD DUP7 PUSH2 0x2AF8 JUMP JUMPDEST PUSH2 0x3841 PUSH1 0x60 DUP4 ADD DUP6 PUSH2 0x2AF8 JUMP JUMPDEST PUSH2 0x384E PUSH1 0x80 DUP4 ADD DUP5 PUSH2 0x2AF8 JUMP JUMPDEST SWAP7 SWAP6 POP POP POP POP POP POP JUMP JUMPDEST PUSH1 0x0 DUP2 MLOAD SWAP1 POP SWAP2 SWAP1 POP JUMP JUMPDEST PUSH1 0x0 DUP3 DUP3 MSTORE PUSH1 0x20 DUP3 ADD SWAP1 POP SWAP3 SWAP2 POP POP JUMP JUMPDEST PUSH1 0x0 DUP2 SWAP1 POP PUSH1 0x20 DUP3 ADD SWAP1 POP SWAP2 SWAP1 POP JUMP JUMPDEST PUSH2 0x388D DUP2 PUSH2 0x325B JUMP JUMPDEST DUP3 MSTORE POP POP JUMP JUMPDEST PUSH1 0x0 PUSH1 0x80 DUP4 ADD PUSH1 0x0 DUP4 ADD MLOAD PUSH2 0x38AB PUSH1 0x0 DUP7 ADD DUP3 PUSH2 0x2C3C JUMP JUMPDEST POP PUSH1 0x20 DUP4 ADD MLOAD PUSH2 0x38BE PUSH1 0x20 DUP7 ADD DUP3 PUSH2 0x3884 JUMP JUMPDEST POP PUSH1 0x40 DUP4 ADD MLOAD DUP5 DUP3 SUB PUSH1 0x40 DUP7 ADD MSTORE PUSH2 0x38D6 DUP3 DUP3 PUSH2 0x2E07 JUMP JUMPDEST SWAP2 POP POP PUSH1 0x60 DUP4 ADD MLOAD DUP5 DUP3 SUB PUSH1 0x60 DUP7 ADD MSTORE PUSH2 0x38F0 DUP3 DUP3 PUSH2 0x2E07 JUMP JUMPDEST SWAP2 POP POP DUP1 SWAP2 POP POP SWAP3 SWAP2 POP POP JUMP JUMPDEST PUSH1 0x0 PUSH2 0x3909 DUP4 DUP4 PUSH2 0x3893 JUMP JUMPDEST SWAP1 POP SWAP3 SWAP2 POP POP JUMP JUMPDEST PUSH1 0x0 PUSH1 0x20 DUP3 ADD SWAP1 POP SWAP2 SWAP1 POP JUMP JUMPDEST PUSH1 0x0 PUSH2 0x3929 DUP3 PUSH2 0x3858 JUMP JUMPDEST PUSH2 0x3933 DUP2 DUP6 PUSH2 0x3863 JUMP JUMPDEST SWAP4 POP DUP4 PUSH1 0x20 DUP3 MUL DUP6 ADD PUSH2 0x3945 DUP6 PUSH2 0x3874 JUMP JUMPDEST DUP1 PUSH1 0x0 JUMPDEST DUP6 DUP2 LT ISZERO PUSH2 0x3981 JUMPI DUP5 DUP5 SUB DUP10 MSTORE DUP2 MLOAD PUSH2 0x3962 DUP6 DUP3 PUSH2 0x38FD JUMP JUMPDEST SWAP5 POP PUSH2 0x396D DUP4 PUSH2 0x3911 JUMP JUMPDEST SWAP3 POP PUSH1 0x20 DUP11 ADD SWAP10 POP POP PUSH1 0x1 DUP2 ADD SWAP1 POP PUSH2 0x3949 JUMP JUMPDEST POP DUP3 SWAP8 POP DUP8 SWAP6 POP POP POP POP POP POP SWAP3 SWAP2 POP POP JUMP JUMPDEST PUSH1 0x0 PUSH1 0x20 DUP3 ADD SWAP1 POP DUP2 DUP2 SUB PUSH1 0x0 DUP4 ADD MSTORE PUSH2 0x39AD DUP2 DUP5 PUSH2 0x391E JUMP JUMPDEST SWAP1 POP SWAP3 SWAP2 POP POP JUMP JUMPDEST PUSH1 0x0 DUP1 PUSH1 0x40 DUP4 DUP6 SUB SLT ISZERO PUSH2 0x39CC JUMPI PUSH2 0x39CB PUSH2 0x2B2C JUMP JUMPDEST JUMPDEST PUSH1 0x0 DUP4 ADD CALLDATALOAD PUSH8 0xFFFFFFFFFFFFFFFF DUP2 GT ISZERO PUSH2 0x39EA JUMPI PUSH2 0x39E9 PUSH2 0x2B31 JUMP JUMPDEST JUMPDEST PUSH2 0x39F6 DUP6 DUP3 DUP7 ADD PUSH2 0x3030 JUMP JUMPDEST SWAP3 POP POP PUSH1 0x20 PUSH2 0x3A07 DUP6 DUP3 DUP7 ADD PUSH2 0x2B4D JUMP JUMPDEST SWAP2 POP POP SWAP3 POP SWAP3 SWAP1 POP JUMP JUMPDEST PUSH1 0x0 PUSH1 0x80 DUP4 ADD PUSH1 0x0 DUP4 ADD MLOAD PUSH2 0x3A29 PUSH1 0x0 DUP7 ADD DUP3 PUSH2 0x2C3C JUMP JUMPDEST POP PUSH1 0x20 DUP4 ADD MLOAD PUSH2 0x3A3C PUSH1 0x20 DUP7 ADD DUP3 PUSH2 0x3884 JUMP JUMPDEST POP PUSH1 0x40 DUP4 ADD MLOAD DUP5 DUP3 SUB PUSH1 0x40 DUP7 ADD MSTORE PUSH2 0x3A54 DUP3 DUP3 PUSH2 0x2E07 JUMP JUMPDEST SWAP2 POP POP PUSH1 0x60 DUP4 ADD MLOAD DUP5 DUP3 SUB PUSH1 0x60 DUP7 ADD MSTORE PUSH2 0x3A6E DUP3 DUP3 PUSH2 0x2E07 JUMP JUMPDEST SWAP2 POP POP DUP1 SWAP2 POP POP SWAP3 SWAP2 POP POP JUMP JUMPDEST PUSH1 0x0 PUSH1 0x20 DUP3 ADD SWAP1 POP DUP2 DUP2 SUB PUSH1 0x0 DUP4 ADD MSTORE PUSH2 0x3A95 DUP2 DUP5 PUSH2 0x3A11 JUMP JUMPDEST SWAP1 POP SWAP3 SWAP2 POP POP JUMP JUMPDEST PUSH1 0x0 DUP2 ISZERO ISZERO SWAP1 POP SWAP2 SWAP1 POP JUMP JUMPDEST PUSH2 0x3AB2 DUP2 PUSH2 0x3A9D JUMP JUMPDEST DUP3 MSTORE POP POP JUMP JUMPDEST PUSH1 0x0 PUSH1 0x20 DUP3 ADD SWAP1 POP PUSH2 0x3ACD PUSH1 0x0 DUP4 ADD DUP5 PUSH2 0x3AA9 JUMP JUMPDEST SWAP3 SWAP2 POP POP JUMP JUMPDEST PUSH1 0x0 DUP2 MLOAD SWAP1 POP SWAP2 SWAP1 POP JUMP JUMPDEST PUSH1 0x0 DUP3 DUP3 MSTORE PUSH1 0x20 DUP3 ADD SWAP1 POP SWAP3 SWAP2 POP POP JUMP JUMPDEST PUSH1 0x0 DUP2 SWAP1 POP PUSH1 0x20 DUP3 ADD SWAP1 POP SWAP2 SWAP1 POP JUMP JUMPDEST PUSH1 0x60 DUP3 ADD PUSH1 0x0 DUP3 ADD MLOAD PUSH2 0x3B15 PUSH1 0x0 DUP6 ADD DUP3 PUSH2 0x34A1 JUMP JUMPDEST POP PUSH1 0x20 DUP3 ADD MLOAD PUSH2 0x3B28 PUSH1 0x20 DUP6 ADD DUP3 PUSH2 0x34B0 JUMP JUMPDEST POP PUSH1 0x40 DUP3 ADD MLOAD PUSH2 0x3B3B PUSH1 0x40 DUP6 ADD DUP3 PUSH2 0x34B0 JUMP JUMPDEST POP POP POP POP JUMP JUMPDEST PUSH1 0x0 PUSH2 0x3B4D DUP4 DUP4 PUSH2 0x3AFF JUMP JUMPDEST PUSH1 0x60 DUP4 ADD SWAP1 POP SWAP3 SWAP2 POP POP JUMP JUMPDEST PUSH1 0x0 PUSH1 0x20 DUP3 ADD SWAP1 POP SWAP2 SWAP1 POP JUMP JUMPDEST PUSH1 0x0 PUSH2 0x3B71 DUP3 PUSH2 0x3AD3 JUMP JUMPDEST PUSH2 0x3B7B DUP2 DUP6 PUSH2 0x3ADE JUMP JUMPDEST SWAP4 POP PUSH2 0x3B86 DUP4 PUSH2 0x3AEF JUMP JUMPDEST DUP1 PUSH1 0x0 JUMPDEST DUP4 DUP2 LT ISZERO PUSH2 0x3BB7 JUMPI DUP2 MLOAD PUSH2 0x3B9E DUP9 DUP3 PUSH2 0x3B41 JUMP JUMPDEST SWAP8 POP PUSH2 0x3BA9 DUP4 PUSH2 0x3B59 JUMP JUMPDEST SWAP3 POP POP PUSH1 0x1 DUP2 ADD SWAP1 POP PUSH2 0x3B8A JUMP JUMPDEST POP DUP6 SWAP4 POP POP POP POP SWAP3 SWAP2 POP POP JUMP JUMPDEST PUSH1 0x0 PUSH1 0x20 DUP3 ADD SWAP1 POP DUP2 DUP2 SUB PUSH1 0x0 DUP4 ADD MSTORE PUSH2 0x3BDE DUP2 DUP5 PUSH2 0x3B66 JUMP JUMPDEST SWAP1 POP SWAP3 SWAP2 POP POP JUMP JUMPDEST PUSH1 0x0 PUSH8 0xFFFFFFFFFFFFFFFF DUP3 GT ISZERO PUSH2 0x3C01 JUMPI PUSH2 0x3C00 PUSH2 0x2EFD JUMP JUMPDEST JUMPDEST PUSH1 0x20 DUP3 MUL SWAP1 POP PUSH1 0x20 DUP2 ADD SWAP1 POP SWAP2 SWAP1 POP JUMP JUMPDEST PUSH1 0x0 PUSH1 0x60 DUP3 DUP5 SUB SLT ISZERO PUSH2 0x3C28 JUMPI PUSH2 0x3C27 PUSH2 0x3251 JUMP JUMPDEST JUMPDEST PUSH2 0x3C32 PUSH1 0x60 PUSH2 0x2F5D JUMP JUMPDEST SWAP1 POP PUSH1 0x0 PUSH2 0x3C42 DUP5 DUP3 DUP6 ADD PUSH2 0x2BAB JUMP JUMPDEST PUSH1 0x0 DUP4 ADD MSTORE POP PUSH1 0x20 PUSH2 0x3C56 DUP5 DUP3 DUP6 ADD PUSH2 0x2B4D JUMP JUMPDEST PUSH1 0x20 DUP4 ADD MSTORE POP PUSH1 0x40 PUSH2 0x3C6A DUP5 DUP3 DUP6 ADD PUSH2 0x2B4D JUMP JUMPDEST PUSH1 0x40 DUP4 ADD MSTORE POP SWAP3 SWAP2 POP POP JUMP JUMPDEST PUSH1 0x0 PUSH2 0x3C89 PUSH2 0x3C84 DUP5 PUSH2 0x3BE6 JUMP JUMPDEST PUSH2 0x2F5D JUMP JUMPDEST SWAP1 POP DUP1 DUP4 DUP3 MSTORE PUSH1 0x20 DUP3 ADD SWAP1 POP PUSH1 0x60 DUP5 MUL DUP4 ADD DUP6 DUP2 GT ISZERO PUSH2 0x3CAC JUMPI PUSH2 0x3CAB PUSH2 0x2FA4 JUMP JUMPDEST JUMPDEST DUP4 JUMPDEST DUP2 DUP2 LT ISZERO PUSH2 0x3CD5 JUMPI DUP1 PUSH2 0x3CC1 DUP9 DUP3 PUSH2 0x3C12 JUMP JUMPDEST DUP5 MSTORE PUSH1 0x20 DUP5 ADD SWAP4 POP POP PUSH1 0x60 DUP2 ADD SWAP1 POP PUSH2 0x3CAE JUMP JUMPDEST POP POP POP SWAP4 SWAP3 POP POP POP JUMP JUMPDEST PUSH1 0x0 DUP3 PUSH1 0x1F DUP4 ADD SLT PUSH2 0x3CF4 JUMPI PUSH2 0x3CF3 PUSH2 0x2EF8 JUMP JUMPDEST JUMPDEST DUP2 CALLDATALOAD PUSH2 0x3D04 DUP5 DUP3 PUSH1 0x20 DUP7 ADD PUSH2 0x3C76 JUMP JUMPDEST SWAP2 POP POP SWAP3 SWAP2 POP POP JUMP JUMPDEST PUSH1 0x0 DUP1 PUSH1 0x40 DUP4 DUP6 SUB SLT ISZERO PUSH2 0x3D24 JUMPI PUSH2 0x3D23 PUSH2 0x2B2C JUMP JUMPDEST JUMPDEST PUSH1 0x0 PUSH2 0x3D32 DUP6 DUP3 DUP7 ADD PUSH2 0x2B4D JUMP JUMPDEST SWAP3 POP POP PUSH1 0x20 DUP4 ADD CALLDATALOAD PUSH8 0xFFFFFFFFFFFFFFFF DUP2 GT ISZERO PUSH2 0x3D53 JUMPI PUSH2 0x3D52 PUSH2 0x2B31 JUMP JUMPDEST JUMPDEST PUSH2 0x3D5F DUP6 DUP3 DUP7 ADD PUSH2 0x3CDF JUMP JUMPDEST SWAP2 POP POP SWAP3 POP SWAP3 SWAP1 POP JUMP JUMPDEST PUSH1 0x0 DUP2 MLOAD SWAP1 POP SWAP2 SWAP1 POP JUMP JUMPDEST PUSH1 0x0 DUP3 DUP3 MSTORE PUSH1 0x20 DUP3 ADD SWAP1 POP SWAP3 SWAP2 POP POP JUMP JUMPDEST PUSH1 0x0 DUP2 SWAP1 POP PUSH1 0x20 DUP3 ADD SWAP1 POP SWAP2 SWAP1 POP JUMP JUMPDEST PUSH1 0xE0 DUP3 ADD PUSH1 0x0 DUP3 ADD MLOAD PUSH2 0x3DAB PUSH1 0x0 DUP6 ADD DUP3 PUSH2 0x34A1 JUMP JUMPDEST POP PUSH1 0x20 DUP3 ADD MLOAD PUSH2 0x3DBE PUSH1 0x20 DUP6 ADD DUP3 PUSH2 0x34B0 JUMP JUMPDEST POP PUSH1 0x40 DUP3 ADD MLOAD PUSH2 0x3DD1 PUSH1 0x40 DUP6 ADD DUP3 PUSH2 0x34B0 JUMP JUMPDEST POP PUSH1 0x60 DUP3 ADD MLOAD PUSH2 0x3DE4 PUSH1 0x60 DUP6 ADD DUP3 PUSH2 0x34B0 JUMP JUMPDEST POP PUSH1 0x80 DUP3 ADD MLOAD PUSH2 0x3DF7 PUSH1 0x80 DUP6 ADD DUP3 PUSH2 0x34B0 JUMP JUMPDEST POP PUSH1 0xA0 DUP3 ADD MLOAD PUSH2 0x3E0A PUSH1 0xA0 DUP6 ADD DUP3 PUSH2 0x34B0 JUMP JUMPDEST POP PUSH1 0xC0 DUP3 ADD MLOAD PUSH2 0x3E1D PUSH1 0xC0 DUP6 ADD DUP3 PUSH2 0x34B0 JUMP JUMPDEST POP POP POP POP JUMP JUMPDEST PUSH1 0x0 PUSH2 0x3E2F DUP4 DUP4 PUSH2 0x3D95 JUMP JUMPDEST PUSH1 0xE0 DUP4 ADD SWAP1 POP SWAP3 SWAP2 POP POP JUMP JUMPDEST PUSH1 0x0 PUSH1 0x20 DUP3 ADD SWAP1 POP SWAP2 SWAP1 POP JUMP JUMPDEST PUSH1 0x0 PUSH2 0x3E53 DUP3 PUSH2 0x3D69 JUMP JUMPDEST PUSH2 0x3E5D DUP2 DUP6 PUSH2 0x3D74 JUMP JUMPDEST SWAP4 POP PUSH2 0x3E68 DUP4 PUSH2 0x3D85 JUMP JUMPDEST DUP1 PUSH1 0x0 JUMPDEST DUP4 DUP2 LT ISZERO PUSH2 0x3E99 JUMPI DUP2 MLOAD PUSH2 0x3E80 DUP9 DUP3 PUSH2 0x3E23 JUMP JUMPDEST SWAP8 POP PUSH2 0x3E8B DUP4 PUSH2 0x3E3B JUMP JUMPDEST SWAP3 POP POP PUSH1 0x1 DUP2 ADD SWAP1 POP PUSH2 0x3E6C JUMP JUMPDEST POP DUP6 SWAP4 POP POP POP POP SWAP3 SWAP2 POP POP JUMP JUMPDEST PUSH1 0x0 PUSH1 0x20 DUP3 ADD SWAP1 POP DUP2 DUP2 SUB PUSH1 0x0 DUP4 ADD MSTORE PUSH2 0x3EC0 DUP2 DUP5 PUSH2 0x3E48 JUMP JUMPDEST SWAP1 POP SWAP3 SWAP2 POP POP JUMP JUMPDEST PUSH1 0x0 PUSH1 0x20 DUP3 DUP5 SUB SLT ISZERO PUSH2 0x3EDE JUMPI PUSH2 0x3EDD PUSH2 0x2B2C JUMP JUMPDEST JUMPDEST PUSH1 0x0 DUP3 ADD CALLDATALOAD PUSH8 0xFFFFFFFFFFFFFFFF DUP2 GT ISZERO PUSH2 0x3EFC JUMPI PUSH2 0x3EFB PUSH2 0x2B31 JUMP JUMPDEST JUMPDEST PUSH2 0x3F08 DUP5 DUP3 DUP6 ADD PUSH2 0x3030 JUMP JUMPDEST SWAP2 POP POP SWAP3 SWAP2 POP POP JUMP JUMPDEST PUSH32 0x4E487B7100000000000000000000000000000000000000000000000000000000 PUSH1 0x0 MSTORE PUSH1 0x32 PUSH1 0x4 MSTORE PUSH1 0x24 PUSH1 0x0 REVERT JUMPDEST PUSH32 0x4E487B7100000000000000000000000000000000000000000000000000000000 PUSH1 0x0 MSTORE PUSH1 0x11 PUSH1 0x4 MSTORE PUSH1 0x24 PUSH1 0x0 REVERT JUMPDEST PUSH1 0x0 PUSH2 0x3F7A DUP3 PUSH2 0x2AEE JUMP JUMPDEST SWAP2 POP PUSH32 0xFFFFFFFFFFFFFFFFFFFFFFFFFFFFFFFFFFFFFFFFFFFFFFFFFFFFFFFFFFFFFFFF DUP3 SUB PUSH2 0x3FAC JUMPI PUSH2 0x3FAB PUSH2 0x3F40 JUMP JUMPDEST JUMPDEST PUSH1 0x1 DUP3 ADD SWAP1 POP SWAP2 SWAP1 POP JUMP JUMPDEST PUSH32 0x4E487B7100000000000000000000000000000000000000000000000000000000 PUSH1 0x0 MSTORE PUSH1 0x22 PUSH1 0x4 MSTORE PUSH1 0x24 PUSH1 0x0 REVERT JUMPDEST PUSH1 0x0 PUSH1 0x2 DUP3 DIV SWAP1 POP PUSH1 0x1 DUP3 AND DUP1 PUSH2 0x3FFE JUMPI PUSH1 0x7F DUP3 AND SWAP2 POP JUMPDEST PUSH1 0x20 DUP3 LT DUP2 SUB PUSH2 0x4011 JUMPI PUSH2 0x4010 PUSH2 0x3FB7 JUMP JUMPDEST JUMPDEST POP SWAP2 SWAP1 POP JUMP JUMPDEST PUSH1 0x0 DUP2 SWAP1 POP DUP2 PUSH1 0x0 MSTORE PUSH1 0x20 PUSH1 0x0 KECCAK256 SWAP1 POP SWAP2 SWAP1 POP JUMP JUMPDEST PUSH1 0x0 PUSH1 0x20 PUSH1 0x1F DUP4 ADD DIV SWAP1 POP SWAP2 SWAP1 POP JUMP JUMPDEST PUSH1 0x0 DUP3 DUP3 SHL SWAP1 POP SWAP3 SWAP2 POP POP JUMP JUMPDEST PUSH1 0x0 PUSH1 0x8 DUP4 MUL PUSH2 0x4079 PUSH32 0xFFFFFFFFFFFFFFFFFFFFFFFFFFFFFFFFFFFFFFFFFFFFFFFFFFFFFFFFFFFFFFFF DUP3 PUSH2 0x403C JUMP JUMPDEST PUSH2 0x4083 DUP7 DUP4 PUSH2 0x403C JUMP JUMPDEST SWAP6 POP DUP1 NOT DUP5 AND SWAP4 POP DUP1 DUP7 AND DUP5 OR SWAP3 POP POP POP SWAP4 SWAP3 POP POP POP JUMP JUMPDEST PUSH1 0x0 DUP2 SWAP1 POP SWAP2 SWAP1 POP JUMP JUMPDEST PUSH1 0x0 PUSH2 0x40C0 PUSH2 0x40BB PUSH2 0x40B6 DUP5 PUSH2 0x2AEE JUMP JUMPDEST PUSH2 0x409B JUMP JUMPDEST PUSH2 0x2AEE JUMP JUMPDEST SWAP1 POP SWAP2 SWAP1 POP JUMP JUMPDEST PUSH1 0x0 DUP2 SWAP1 POP SWAP2 SWAP1 POP JUMP JUMPDEST PUSH2 0x40DA DUP4 PUSH2 0x40A5 JUMP JUMPDEST PUSH2 0x40EE PUSH2 0x40E6 DUP3 PUSH2 0x40C7 JUMP JUMPDEST DUP5 DUP5 SLOAD PUSH2 0x4049 JUMP JUMPDEST DUP3 SSTORE POP POP POP POP JUMP JUMPDEST PUSH1 0x0 SWAP1 JUMP JUMPDEST PUSH2 0x4103 PUSH2 0x40F6 JUMP JUMPDEST PUSH2 0x410E DUP2 DUP5 DUP5 PUSH2 0x40D1 JUMP JUMPDEST POP POP POP JUMP JUMPDEST JUMPDEST DUP2 DUP2 LT ISZERO PUSH2 0x4132 JUMPI PUSH2 0x4127 PUSH1 0x0 DUP3 PUSH2 0x40FB JUMP JUMPDEST PUSH1 0x1 DUP2 ADD SWAP1 POP PUSH2 0x4114 JUMP JUMPDEST POP POP JUMP JUMPDEST PUSH1 0x1F DUP3 GT ISZERO PUSH2 0x4177 JUMPI PUSH2 0x4148 DUP2 PUSH2 0x4017 JUMP JUMPDEST PUSH2 0x4151 DUP5 PUSH2 0x402C JUMP JUMPDEST DUP2 ADD PUSH1 0x20 DUP6 LT ISZERO PUSH2 0x4160 JUMPI DUP2 SWAP1 POP JUMPDEST PUSH2 0x4174 PUSH2 0x416C DUP6 PUSH2 0x402C JUMP JUMPDEST DUP4 ADD DUP3 PUSH2 0x4113 JUMP JUMPDEST POP POP JUMPDEST POP POP POP JUMP JUMPDEST PUSH1 0x0 DUP3 DUP3 SHR SWAP1 POP SWAP3 SWAP2 POP POP JUMP JUMPDEST PUSH1 0x0 PUSH2 0x419A PUSH1 0x0 NOT DUP5 PUSH1 0x8 MUL PUSH2 0x417C JUMP JUMPDEST NOT DUP1 DUP4 AND SWAP2 POP POP SWAP3 SWAP2 POP POP JUMP JUMPDEST PUSH1 0x0 PUSH2 0x41B3 DUP4 DUP4 PUSH2 0x4189 JUMP JUMPDEST SWAP2 POP DUP3 PUSH1 0x2 MUL DUP3 OR SWAP1 POP SWAP3 SWAP2 POP POP JUMP JUMPDEST PUSH2 0x41CC DUP3 PUSH2 0x2DA7 JUMP JUMPDEST PUSH8 0xFFFFFFFFFFFFFFFF DUP2 GT ISZERO PUSH2 0x41E5 JUMPI PUSH2 0x41E4 PUSH2 0x2EFD JUMP JUMPDEST JUMPDEST PUSH2 0x41EF DUP3 SLOAD PUSH2 0x3FE6 JUMP JUMPDEST PUSH2 0x41FA DUP3 DUP3 DUP6 PUSH2 0x4136 JUMP JUMPDEST PUSH1 0x0 PUSH1 0x20 SWAP1 POP PUSH1 0x1F DUP4 GT PUSH1 0x1 DUP2 EQ PUSH2 0x422D JUMPI PUSH1 0x0 DUP5 ISZERO PUSH2 0x421B JUMPI DUP3 DUP8 ADD MLOAD SWAP1 POP JUMPDEST PUSH2 0x4225 DUP6 DUP3 PUSH2 0x41A7 JUMP JUMPDEST DUP7 SSTORE POP PUSH2 0x428D JUMP JUMPDEST PUSH1 0x1F NOT DUP5 AND PUSH2 0x423B DUP7 PUSH2 0x4017 JUMP JUMPDEST PUSH1 0x0 JUMPDEST DUP3 DUP2 LT ISZERO PUSH2 0x4263 JUMPI DUP5 DUP10 ADD MLOAD DUP3 SSTORE PUSH1 0x1 DUP3 ADD SWAP2 POP PUSH1 0x20 DUP6 ADD SWAP5 POP PUSH1 0x20 DUP2 ADD SWAP1 POP PUSH2 0x423E JUMP JUMPDEST DUP7 DUP4 LT ISZERO PUSH2 0x4280 JUMPI DUP5 DUP10 ADD MLOAD PUSH2 0x427C PUSH1 0x1F DUP10 AND DUP3 PUSH2 0x4189 JUMP JUMPDEST DUP4 SSTORE POP JUMPDEST PUSH1 0x1 PUSH1 0x2 DUP9 MUL ADD DUP9 SSTORE POP POP POP JUMPDEST POP POP POP POP POP POP JUMP JUMPDEST PUSH1 0x0 DUP2 SWAP1 POP SWAP3 SWAP2 POP POP JUMP JUMPDEST PUSH1 0x0 DUP2 SLOAD PUSH2 0x42AD DUP2 PUSH2 0x3FE6 JUMP JUMPDEST PUSH2 0x42B7 DUP2 DUP7 PUSH2 0x4295 JUMP JUMPDEST SWAP5 POP PUSH1 0x1 DUP3 AND PUSH1 0x0 DUP2 EQ PUSH2 0x42D2 JUMPI PUSH1 0x1 DUP2 EQ PUSH2 0x42E7 JUMPI PUSH2 0x431A JUMP JUMPDEST PUSH1 0xFF NOT DUP4 AND DUP7 MSTORE DUP2 ISZERO ISZERO DUP3 MUL DUP7 ADD SWAP4 POP PUSH2 0x431A JUMP JUMPDEST PUSH2 0x42F0 DUP6 PUSH2 0x4017 JUMP JUMPDEST PUSH1 0x0 JUMPDEST DUP4 DUP2 LT ISZERO PUSH2 0x4312 JUMPI DUP2 SLOAD DUP2 DUP10 ADD MSTORE PUSH1 0x1 DUP3 ADD SWAP2 POP PUSH1 0x20 DUP2 ADD SWAP1 POP PUSH2 0x42F3 JUMP JUMPDEST DUP4 DUP9 ADD SWAP6 POP POP POP JUMPDEST POP POP POP SWAP3 SWAP2 POP POP JUMP JUMPDEST PUSH1 0x0 PUSH2 0x432F DUP3 DUP5 PUSH2 0x42A0 JUMP JUMPDEST SWAP2 POP DUP2 SWAP1 POP SWAP3 SWAP2 POP POP JUMP JUMPDEST PUSH1 0x0 PUSH2 0x4345 DUP3 PUSH2 0x2AEE JUMP JUMPDEST SWAP2 POP PUSH2 0x4350 DUP4 PUSH2 0x2AEE JUMP JUMPDEST SWAP3 POP DUP3 PUSH32 0xFFFFFFFFFFFFFFFFFFFFFFFFFFFFFFFFFFFFFFFFFFFFFFFFFFFFFFFFFFFFFFFF SUB DUP3 GT ISZERO PUSH2 0x4385 JUMPI PUSH2 0x4384 PUSH2 0x3F40 JUMP JUMPDEST JUMPDEST DUP3 DUP3 ADD SWAP1 POP SWAP3 SWAP2 POP POP JUMP JUMPDEST PUSH1 0x0 PUSH2 0x439B DUP3 PUSH2 0x2DA7 JUMP JUMPDEST PUSH2 0x43A5 DUP2 DUP6 PUSH2 0x4295 JUMP JUMPDEST SWAP4 POP PUSH2 0x43B5 DUP2 DUP6 PUSH1 0x20 DUP7 ADD PUSH2 0x2DC3 JUMP JUMPDEST DUP1 DUP5 ADD SWAP2 POP POP SWAP3 SWAP2 POP POP JUMP JUMPDEST PUSH1 0x0 PUSH2 0x43CD DUP3 DUP5 PUSH2 0x4390 JUMP JUMPDEST SWAP2 POP DUP2 SWAP1 POP SWAP3 SWAP2 POP POP JUMP JUMPDEST PUSH1 0x0 PUSH2 0x43E3 DUP3 PUSH2 0x2AEE JUMP JUMPDEST SWAP2 POP PUSH2 0x43EE DUP4 PUSH2 0x2AEE JUMP JUMPDEST SWAP3 POP DUP3 DUP3 LT ISZERO PUSH2 0x4401 JUMPI PUSH2 0x4400 PUSH2 0x3F40 JUMP JUMPDEST JUMPDEST DUP3 DUP3 SUB SWAP1 POP SWAP3 SWAP2 POP POP JUMP JUMPDEST PUSH1 0x0 PUSH2 0x4417 DUP3 PUSH2 0x2AEE JUMP JUMPDEST SWAP2 POP PUSH2 0x4422 DUP4 PUSH2 0x2AEE JUMP JUMPDEST SWAP3 POP DUP2 PUSH32 0xFFFFFFFFFFFFFFFFFFFFFFFFFFFFFFFFFFFFFFFFFFFFFFFFFFFFFFFFFFFFFFFF DIV DUP4 GT DUP3 ISZERO ISZERO AND ISZERO PUSH2 0x445B JUMPI PUSH2 0x445A PUSH2 0x3F40 JUMP JUMPDEST JUMPDEST DUP3 DUP3 MUL SWAP1 POP SWAP3 SWAP2 POP POP JUMP JUMPDEST PUSH32 0x4E487B7100000000000000000000000000000000000000000000000000000000 PUSH1 0x0 MSTORE PUSH1 0x12 PUSH1 0x4 MSTORE PUSH1 0x24 PUSH1 0x0 REVERT JUMPDEST PUSH1 0x0 PUSH2 0x44A0 DUP3 PUSH2 0x2AEE JUMP JUMPDEST SWAP2 POP PUSH2 0x44AB DUP4 PUSH2 0x2AEE JUMP JUMPDEST SWAP3 POP DUP3 PUSH2 0x44BB JUMPI PUSH2 0x44BA PUSH2 0x4466 JUMP JUMPDEST JUMPDEST DUP3 DUP3 DIV SWAP1 POP SWAP3 SWAP2 POP POP JUMP INVALID LOG2 PUSH5 0x6970667358 0x22 SLT KECCAK256 0xF7 0xB3 COINBASE SIGNEXTEND 0xEF CALLER 0xD8 0xE5 LOG3 PUSH23 0xAB2ECA2B23CEE0B740F963E1A9F3FEADB326CEE440B664 PUSH20 0x6F6C634300080F00330000000000000000000000 "},"methodIdentifiers":{"calculateGain(uint256,(address,uint256,uint256)[])":"baf63783","checkResult(uint256,address)":"7fb9c45f","contestTable(uint256,uint256)":"57d088ff","createContest(uint256,string[],uint256)":"18699547","fakeGameCreate(string,(uint32,uint40,string,string)[])":"1f2bf10c","gamePlayed(uint32)":"8b617036","getContestPredictionEndDate()":"08af2d78","getContestTable(uint256)":"2452a7e3","getCurrentContestId()":"fb46bd22","getGameCreate(string,uint256)":"80b41a09","getListGamesPerContest(uint256)":"7e5dd913","getNumberOfGamesPerContest(uint256)":"1d883342","getNumberOfGamesPerRequest(string)":"ea6a0410","getNumberOfPlayers(uint256)":"62436d9d","getPlayerRank(uint256,address)":"4fda591e","getPrevisionsPerPlayerPerContest(uint256,address)":"117f3998","getRequestIdPerContest(uint256)":"1506bca6","getScorePerGameId(uint32)":"1e7741f0","getScoreTable(uint256)":"b66195b8","saveRequestResults((uint32,uint8,uint8,string)[])":"3302787d","updateContestTable(uint256)":"d6221518"}}}}}