{"contracts/InterpoolContract.sol":{"InterpoolContract":{"abi":[{"inputs":[],"stateMutability":"nonpayable","type":"constructor"},{"anonymous":false,"inputs":[{"indexed":true,"internalType":"address","name":"previousOwner","type":"address"},{"indexed":true,"internalType":"address","name":"newOwner","type":"address"}],"name":"OwnershipTransferred","type":"event"},{"anonymous":false,"inputs":[{"indexed":false,"internalType":"address","name":"account","type":"address"}],"name":"Paused","type":"event"},{"anonymous":false,"inputs":[{"indexed":false,"internalType":"address","name":"account","type":"address"}],"name":"Unpaused","type":"event"},{"inputs":[{"internalType":"uint256","name":"_contestId","type":"uint256"},{"components":[{"internalType":"address","name":"player","type":"address"},{"internalType":"uint256","name":"nbTickets","type":"uint256"},{"internalType":"uint256","name":"score","type":"uint256"}],"internalType":"struct InterpoolContract.PlayerScoreTicket[]","name":"_scoreTable","type":"tuple[]"}],"name":"calculateGain","outputs":[{"components":[{"internalType":"address","name":"player","type":"address"},{"internalType":"uint256","name":"score","type":"uint256"},{"internalType":"uint256","name":"rankExAequo","type":"uint256"},{"internalType":"uint256","name":"rewardNoExAequo","type":"uint256"},{"internalType":"uint256","name":"cumulatedRewardsNoExAequo","type":"uint256"},{"internalType":"uint256","name":"cumulatedRewardsPerRank","type":"uint256"},{"internalType":"uint256","name":"rewardPerRankPerPlayer","type":"uint256"}],"internalType":"struct InterpoolContract.Gain[]","name":"","type":"tuple[]"}],"stateMutability":"view","type":"function"},{"inputs":[{"internalType":"uint256","name":"_contestId","type":"uint256"},{"internalType":"address","name":"_player","type":"address"}],"name":"checkResult","outputs":[{"internalType":"uint256","name":"","type":"uint256"}],"stateMutability":"view","type":"function"},{"inputs":[{"internalType":"uint256","name":"","type":"uint256"},{"internalType":"uint256","name":"","type":"uint256"}],"name":"contestTable","outputs":[{"internalType":"address","name":"player","type":"address"},{"internalType":"uint256","name":"nbTickets","type":"uint256"},{"internalType":"uint256","name":"score","type":"uint256"},{"internalType":"uint256","name":"rankExAequo","type":"uint256"},{"internalType":"uint256","name":"rewardPerRankPerPlayer","type":"uint256"}],"stateMutability":"view","type":"function"},{"inputs":[{"internalType":"uint256","name":"_leagueId","type":"uint256"},{"internalType":"string[]","name":"_listRequestId","type":"string[]"},{"internalType":"uint256","name":"_dateEndContest","type":"uint256"}],"name":"createContest","outputs":[],"stateMutability":"nonpayable","type":"function"},{"inputs":[{"internalType":"uint256","name":"_amount","type":"uint256"}],"name":"depositOnAave","outputs":[],"stateMutability":"nonpayable","type":"function"},{"inputs":[{"internalType":"string","name":"_requestId","type":"string"},{"components":[{"internalType":"uint32","name":"gameId","type":"uint32"},{"internalType":"uint40","name":"startTime","type":"uint40"},{"internalType":"string","name":"homeTeam","type":"string"},{"internalType":"string","name":"awayTeam","type":"string"}],"internalType":"struct IpFakeEnetScore.GameCreate[]","name":"_fakeGameCreate","type":"tuple[]"}],"name":"fakeGameCreate","outputs":[],"stateMutability":"nonpayable","type":"function"},{"inputs":[{"internalType":"uint32","name":"","type":"uint32"}],"name":"gamePlayed","outputs":[{"internalType":"bool","name":"","type":"bool"}],"stateMutability":"view","type":"function"},{"inputs":[],"name":"getContestPredictionEndDate","outputs":[{"internalType":"uint256","name":"","type":"uint256"}],"stateMutability":"view","type":"function"},{"inputs":[{"internalType":"uint256","name":"_contestId","type":"uint256"}],"name":"getContestTable","outputs":[{"components":[{"internalType":"address","name":"player","type":"address"},{"internalType":"uint256","name":"nbTickets","type":"uint256"},{"internalType":"uint256","name":"score","type":"uint256"},{"internalType":"uint256","name":"rankExAequo","type":"uint256"},{"internalType":"uint256","name":"rewardPerRankPerPlayer","type":"uint256"}],"internalType":"struct InterpoolContract.ContestResult[]","name":"","type":"tuple[]"}],"stateMutability":"view","type":"function"},{"inputs":[],"name":"getCurrentContestId","outputs":[{"internalType":"uint256","name":"","type":"uint256"}],"stateMutability":"view","type":"function"},{"inputs":[{"internalType":"string","name":"_requestId","type":"string"},{"internalType":"uint256","name":"_idx","type":"uint256"}],"name":"getGameCreate","outputs":[{"components":[{"internalType":"uint32","name":"gameId","type":"uint32"},{"internalType":"uint40","name":"startTime","type":"uint40"},{"internalType":"string","name":"homeTeam","type":"string"},{"internalType":"string","name":"awayTeam","type":"string"}],"internalType":"struct IpFakeEnetScore.GameCreate","name":"","type":"tuple"}],"stateMutability":"view","type":"function"},{"inputs":[],"name":"getGlobalPrizePool","outputs":[{"internalType":"uint256","name":"","type":"uint256"}],"stateMutability":"view","type":"function"},{"inputs":[{"internalType":"uint256","name":"_contestId","type":"uint256"}],"name":"getListGamesPerContest","outputs":[{"components":[{"internalType":"uint32","name":"gameId","type":"uint32"},{"internalType":"uint40","name":"startTime","type":"uint40"},{"internalType":"string","name":"homeTeam","type":"string"},{"internalType":"string","name":"awayTeam","type":"string"}],"internalType":"struct IpFakeEnetScore.GameCreate[]","name":"","type":"tuple[]"}],"stateMutability":"view","type":"function"},{"inputs":[{"internalType":"uint256","name":"_contestId","type":"uint256"}],"name":"getNumberOfGamesPerContest","outputs":[{"internalType":"uint256","name":"","type":"uint256"}],"stateMutability":"view","type":"function"},{"inputs":[{"internalType":"string","name":"_requestId","type":"string"}],"name":"getNumberOfGamesPerRequest","outputs":[{"internalType":"uint256","name":"","type":"uint256"}],"stateMutability":"view","type":"function"},{"inputs":[{"internalType":"uint256","name":"_contestId","type":"uint256"}],"name":"getNumberOfPlayers","outputs":[{"internalType":"uint256","name":"","type":"uint256"}],"stateMutability":"view","type":"function"},{"inputs":[{"internalType":"uint256","name":"_contestId","type":"uint256"},{"internalType":"address","name":"_player","type":"address"}],"name":"getPlayerRank","outputs":[{"internalType":"uint256","name":"","type":"uint256"}],"stateMutability":"view","type":"function"},{"inputs":[{"internalType":"uint256","name":"_contestId","type":"uint256"},{"internalType":"address","name":"_player","type":"address"}],"name":"getPrevisionsPerPlayerPerContest","outputs":[{"components":[{"internalType":"uint32","name":"gameId","type":"uint32"},{"internalType":"uint8","name":"homeScore","type":"uint8"},{"internalType":"uint8","name":"awayScore","type":"uint8"}],"internalType":"struct IpFakeEnetScore.GamePredict[]","name":"","type":"tuple[]"}],"stateMutability":"view","type":"function"},{"inputs":[{"internalType":"uint256","name":"_contestId","type":"uint256"}],"name":"getRequestIdPerContest","outputs":[{"internalType":"string[]","name":"","type":"string[]"}],"stateMutability":"view","type":"function"},{"inputs":[{"internalType":"uint32","name":"_gameId","type":"uint32"}],"name":"getScorePerGameId","outputs":[{"components":[{"internalType":"uint8","name":"homeScore","type":"uint8"},{"internalType":"uint8","name":"awayScore","type":"uint8"}],"internalType":"struct IpFakeEnetScore.Scores","name":"","type":"tuple"}],"stateMutability":"view","type":"function"},{"inputs":[{"internalType":"uint256","name":"_contestId","type":"uint256"}],"name":"getScoreTable","outputs":[{"components":[{"internalType":"address","name":"player","type":"address"},{"internalType":"uint256","name":"nbTickets","type":"uint256"},{"internalType":"uint256","name":"score","type":"uint256"}],"internalType":"struct InterpoolContract.PlayerScoreTicket[]","name":"","type":"tuple[]"}],"stateMutability":"view","type":"function"},{"inputs":[{"internalType":"uint256","name":"","type":"uint256"}],"name":"nbTotalTicketsPerContest","outputs":[{"internalType":"uint256","name":"","type":"uint256"}],"stateMutability":"view","type":"function"},{"inputs":[],"name":"owner","outputs":[{"internalType":"address","name":"","type":"address"}],"stateMutability":"view","type":"function"},{"inputs":[],"name":"pause","outputs":[],"stateMutability":"nonpayable","type":"function"},{"inputs":[],"name":"paused","outputs":[{"internalType":"bool","name":"","type":"bool"}],"stateMutability":"view","type":"function"},{"inputs":[],"name":"renounceOwnership","outputs":[],"stateMutability":"nonpayable","type":"function"},{"inputs":[{"components":[{"internalType":"uint32","name":"gameId","type":"uint32"},{"internalType":"uint8","name":"homeScore","type":"uint8"},{"internalType":"uint8","name":"awayScore","type":"uint8"}],"internalType":"struct IpFakeEnetScore.GamePredict[]","name":"_gamePredictions","type":"tuple[]"}],"name":"savePrediction","outputs":[],"stateMutability":"nonpayable","type":"function"},{"inputs":[{"components":[{"internalType":"uint32","name":"gameId","type":"uint32"},{"internalType":"uint8","name":"homeScore","type":"uint8"},{"internalType":"uint8","name":"awayScore","type":"uint8"},{"internalType":"string","name":"status","type":"string"}],"internalType":"struct IpFakeEnetScore.GameResolve[]","name":"_fakeGameResolve","type":"tuple[]"}],"name":"saveRequestResults","outputs":[],"stateMutability":"nonpayable","type":"function"},{"inputs":[{"internalType":"address","name":"newOwner","type":"address"}],"name":"transferOwnership","outputs":[],"stateMutability":"nonpayable","type":"function"},{"inputs":[],"name":"unpause","outputs":[],"stateMutability":"nonpayable","type":"function"},{"inputs":[{"internalType":"uint256","name":"_contestId","type":"uint256"}],"name":"updateContestTable","outputs":[],"stateMutability":"nonpayable","type":"function"}],"evm":{"bytecode":{"linkReferences":{},"object":"60806040523480156200001157600080fd5b5060006008819055506200003a6200002e620001b760201b60201c565b620001bf60201b60201c565b6000600a60146101000a81548160ff02191690831515021790555073a2025b15a1757311bfd68cb14eaefcc237af5b43600d60006101000a81548173ffffffffffffffffffffffffffffffffffffffff021916908373ffffffffffffffffffffffffffffffffffffffff16021790555073368eedf3f56ad10b9bc57eed4dac65b26bb667f6601060006101000a81548173ffffffffffffffffffffffffffffffffffffffff021916908373ffffffffffffffffffffffffffffffffffffffff160217905550731ee669290939f8a8864497af3bc83728715265ff600e60006101000a81548173ffffffffffffffffffffffffffffffffffffffff021916908373ffffffffffffffffffffffffffffffffffffffff160217905550733cb49b846f13c89dee256e90a3e8830f6a6fa9d1600f60006101000a81548173ffffffffffffffffffffffffffffffffffffffff021916908373ffffffffffffffffffffffffffffffffffffffff160217905550600560118190555062000285565b600033905090565b6000600a60009054906101000a900473ffffffffffffffffffffffffffffffffffffffff16905081600a60006101000a81548173ffffffffffffffffffffffffffffffffffffffff021916908373ffffffffffffffffffffffffffffffffffffffff1602179055508173ffffffffffffffffffffffffffffffffffffffff168173ffffffffffffffffffffffffffffffffffffffff167f8be0079c531659141344cd1fd0a4f28419497f9722a3daafe3b4186f6b6457e060405160405180910390a35050565b615ec980620002956000396000f3fe608060405234801561001057600080fd5b50600436106101e55760003560e01c80637e5dd9131161010f578063b4ace158116100a2578063ea6a041011610071578063ea6a0410146105e0578063f2fde38b14610610578063fb46bd221461062c578063fd8d19091461064a576101e5565b8063b4ace15814610546578063b66195b814610564578063baf6378314610594578063d6221518146105c4576101e5565b80638b617036116100de5780638b617036146104ac5780638da5cb5b146104dc578063946e18d9146104fa5780639fa75e9a1461052a576101e5565b80637e5dd913146104125780637fb9c45f1461044257806380b41a09146104725780638456cb59146104a2576101e5565b80632452a7e31161018757806357d088ff1161015657806357d088ff146103865780635c975abb146103ba57806362436d9d146103d8578063715018a614610408576101e5565b80632452a7e3146103005780633302787d146103305780633f4ba83a1461034c5780634fda591e14610356576101e5565b806318699547116101c357806318699547146102685780631d883342146102845780631e7741f0146102b45780631f2bf10c146102e4576101e5565b806308af2d78146101ea578063117f3998146102085780631506bca614610238575b600080fd5b6101f2610666565b6040516101ff9190613c58565b60405180910390f35b610222600480360381019061021d9190613d11565b610686565b60405161022f9190613e7d565b60405180910390f35b610252600480360381019061024d9190613e9f565b6108dd565b60405161025f9190614027565b60405180910390f35b610282600480360381019061027d9190614264565b6109c9565b005b61029e60048036038101906102999190613e9f565b610aa9565b6040516102ab9190613c58565b60405180910390f35b6102ce60048036038101906102c991906142ff565b610b4b565b6040516102db919061435b565b60405180910390f35b6102fe60048036038101906102f9919061454e565b610bbe565b005b61031a60048036038101906103159190613e9f565b610d4d565b60405161032791906146fb565b60405180910390f35b61034a600480360381019061034591906148be565b610e3d565b005b610354610f8f565b005b610370600480360381019061036b9190613d11565b610fa1565b60405161037d9190613c58565b60405180910390f35b6103a0600480360381019061039b9190614907565b6111d3565b6040516103b1959493929190614956565b60405180910390f35b6103c2611246565b6040516103cf91906149c4565b60405180910390f35b6103f260048036038101906103ed9190613e9f565b61125d565b6040516103ff9190613c58565b60405180910390f35b61041061127d565b005b61042c60048036038101906104279190613e9f565b611291565b6040516104399190614b1a565b60405180910390f35b61045c60048036038101906104579190613d11565b6115c0565b6040516104699190613c58565b60405180910390f35b61048c60048036038101906104879190614b3c565b6119d5565b6040516104999190614c02565b60405180910390f35b6104aa611ba1565b005b6104c660048036038101906104c191906142ff565b611bb3565b6040516104d391906149c4565b60405180910390f35b6104e4611bd3565b6040516104f19190614c24565b60405180910390f35b610514600480360381019061050f9190613e9f565b611bfd565b6040516105219190613c58565b60405180910390f35b610544600480360381019061053f9190614d66565b611c15565b005b61054e61203c565b60405161055b9190613c58565b60405180910390f35b61057e60048036038101906105799190613e9f565b61219f565b60405161058b9190614ea0565b60405180910390f35b6105ae60048036038101906105a99190614fe9565b612393565b6040516105bb9190615182565b60405180910390f35b6105de60048036038101906105d99190613e9f565b612d0b565b005b6105fa60048036038101906105f591906151a4565b61321c565b6040516106079190613c58565b60405180910390f35b61062a600480360381019061062591906151ed565b613246565b005b6106346132c9565b6040516106419190613c58565b60405180910390f35b610664600480360381019061065f9190613e9f565b6132d3565b005b600060026000600854815260200190815260200160002060010154905090565b6060600061069384610aa9565b90506000808267ffffffffffffffff8111156106b2576106b161404e565b5b6040519080825280602002602001820160405280156106eb57816020015b6106d8613acc565b8152602001906001900390816106d05790505b50905060008367ffffffffffffffff81111561070a5761070961404e565b5b60405190808252806020026020018201604052801561074357816020015b610730613af9565b8152602001906001900390816107285790505b50905061074f87611291565b905060005b848110156108cf5781818151811061076f5761076e61521a565b5b602002602001015160000151935060405180606001604052808563ffffffff168152602001600460008a73ffffffffffffffffffffffffffffffffffffffff1673ffffffffffffffffffffffffffffffffffffffff16815260200190815260200160002060008b815260200190815260200160002060008763ffffffff1663ffffffff16815260200190815260200160002060000160009054906101000a900460ff1660ff168152602001600460008a73ffffffffffffffffffffffffffffffffffffffff1673ffffffffffffffffffffffffffffffffffffffff16815260200190815260200160002060008b815260200190815260200160002060008763ffffffff1663ffffffff16815260200190815260200160002060000160019054906101000a900460ff1660ff168152508382815181106108b1576108b061521a565b5b602002602001018190525080806108c790615278565b915050610754565b508194505050505092915050565b606060016000838152602001908152602001600020805480602002602001604051908101604052809291908181526020016000905b828210156109be578382906000526020600020018054610931906152ef565b80601f016020809104026020016040519081016040528092919081815260200182805461095d906152ef565b80156109aa5780601f1061097f576101008083540402835291602001916109aa565b820191906000526020600020905b81548152906001019060200180831161098d57829003601f168201915b505050505081526020019060010190610912565b505050509050919050565b600860008154809291906109dc90615278565b919050555060005b8251811015610a6257600160006008548152602001908152602001600020838281518110610a1557610a1461521a565b5b6020026020010151908060018154018082558091505060019003906000526020600020016000909190919091509081610a4e91906154cc565b508080610a5a90615278565b9150506109e4565b506040518060400160405280848152602001828152506002600060085481526020019081526020016000206000820151816000015560208201518160010155905050505050565b6000806000905060005b6001600085815260200190815260200160002080549050811015610b41576000600160008681526020019081526020016000208281548110610af857610af761521a565b5b90600052602060002001604051610b0f919061562c565b90815260200160405180910390208054905082610b2c9190615643565b91508080610b3990615278565b915050610ab3565b5080915050919050565b610b53613b2e565b600360008363ffffffff1663ffffffff1681526020019081526020016000206040518060400160405290816000820160009054906101000a900460ff1660ff1660ff1681526020016000820160019054906101000a900460ff1660ff1660ff16815250509050919050565b60005b8151811015610d4857600083604051610bda91906156ca565b90815260200160405180910390206040518060800160405280848481518110610c0657610c0561521a565b5b60200260200101516000015163ffffffff168152602001848481518110610c3057610c2f61521a565b5b60200260200101516020015164ffffffffff168152602001848481518110610c5b57610c5a61521a565b5b6020026020010151604001518152602001848481518110610c7f57610c7e61521a565b5b602002602001015160600151815250908060018154018082558091505060019003906000526020600020906003020160009091909190915060008201518160000160006101000a81548163ffffffff021916908363ffffffff16021790555060208201518160000160046101000a81548164ffffffffff021916908364ffffffffff1602179055506040820151816001019081610d1c91906154cc565b506060820151816002019081610d3291906154cc565b5050508080610d4090615278565b915050610bc1565b505050565b606060126000838152602001908152602001600020805480602002602001604051908101604052809291908181526020016000905b82821015610e3257838290600052602060002090600502016040518060a00160405290816000820160009054906101000a900473ffffffffffffffffffffffffffffffffffffffff1673ffffffffffffffffffffffffffffffffffffffff1673ffffffffffffffffffffffffffffffffffffffff16815260200160018201548152602001600282015481526020016003820154815260200160048201548152505081526020019060010190610d82565b505050509050919050565b60005b8151811015610f8b576040518060400160405280838381518110610e6757610e6661521a565b5b60200260200101516020015160ff168152602001838381518110610e8e57610e8d61521a565b5b60200260200101516040015160ff1681525060036000848481518110610eb757610eb661521a565b5b60200260200101516000015163ffffffff1663ffffffff16815260200190815260200160002060008201518160000160006101000a81548160ff021916908360ff16021790555060208201518160000160016101000a81548160ff021916908360ff160217905550905050600160096000848481518110610f3b57610f3a61521a565b5b60200260200101516000015163ffffffff1663ffffffff16815260200190815260200160002060006101000a81548160ff0219169083151502179055508080610f8390615278565b915050610e40565b5050565b610f976137e6565b610f9f613864565b565b600080610fad8461219f565b9050600080825190506000808267ffffffffffffffff811115610fd357610fd261404e565b5b60405190808252806020026020018201604052801561100c57816020015b610ff9613b4e565b815260200190600190039081610ff15790505b50905060005b8381101561112e576001945060005b8481101561108f5786818151811061103c5761103b61521a565b5b60200260200101516040015187838151811061105b5761105a61521a565b5b602002602001015160400151101561107c57858061107890615278565b9650505b808061108790615278565b915050611021565b5060405180606001604052808783815181106110ae576110ad61521a565b5b60200260200101516000015173ffffffffffffffffffffffffffffffffffffffff1681526020018783815181106110e8576110e761521a565b5b6020026020010151604001518152602001868152508282815181106111105761110f61521a565b5b6020026020010181905250808061112690615278565b915050611012565b5060005b838110156111c45781818151811061114d5761114c61521a565b5b60200260200101516000015173ffffffffffffffffffffffffffffffffffffffff168873ffffffffffffffffffffffffffffffffffffffff16036111b15781818151811061119e5761119d61521a565b5b60200260200101516040015192506111c4565b80806111bc90615278565b915050611132565b50819550505050505092915050565b601260205281600052604060002081815481106111ef57600080fd5b9060005260206000209060050201600091509150508060000160009054906101000a900473ffffffffffffffffffffffffffffffffffffffff16908060010154908060020154908060030154908060040154905085565b6000600a60149054906101000a900460ff16905090565b600060056000838152602001908152602001600020805490509050919050565b6112856137e6565b61128f60006138c7565b565b6060600061129e83610aa9565b90506000808267ffffffffffffffff8111156112bd576112bc61404e565b5b6040519080825280602002602001820160405280156112f657816020015b6112e3613af9565b8152602001906001900390816112db5790505b50905060005b60016000878152602001908152602001600020805490508110156115b45760006001600088815260200190815260200160002082815481106113415761134061521a565b5b90600052602060002001604051611358919061562c565b908152602001604051809103902080549050935060005b848110156115a057600060016000898152602001908152602001600020838154811061139e5761139d61521a565b5b906000526020600020016040516113b5919061562c565b908152602001604051809103902081815481106113d5576113d461521a565b5b90600052602060002090600302016040518060800160405290816000820160009054906101000a900463ffffffff1663ffffffff1663ffffffff1681526020016000820160049054906101000a900464ffffffffff1664ffffffffff1664ffffffffff16815260200160018201805461144d906152ef565b80601f0160208091040260200160405190810160405280929190818152602001828054611479906152ef565b80156114c65780601f1061149b576101008083540402835291602001916114c6565b820191906000526020600020905b8154815290600101906020018083116114a957829003601f168201915b505050505081526020016002820180546114df906152ef565b80601f016020809104026020016040519081016040528092919081815260200182805461150b906152ef565b80156115585780601f1061152d57610100808354040283529160200191611558565b820191906000526020600020905b81548152906001019060200180831161153b57829003601f168201915b5050505050815250508385815181106115745761157361521a565b5b6020026020010181905250838061158a90615278565b945050808061159890615278565b91505061136f565b5080806115ac90615278565b9150506112fc565b50809350505050919050565b600080600080600090506000806115d688610aa9565b905060008167ffffffffffffffff8111156115f4576115f361404e565b5b60405190808252806020026020018201604052801561162d57816020015b61161a613af9565b8152602001906001900390816116125790505b50905061163989611291565b905060005b828110156119c5578181815181106116595761165861521a565b5b602002602001015160000151935061176b600460008b73ffffffffffffffffffffffffffffffffffffffff1673ffffffffffffffffffffffffffffffffffffffff16815260200190815260200160002060008c815260200190815260200160002060008663ffffffff1663ffffffff16815260200190815260200160002060000160009054906101000a900460ff16600460008c73ffffffffffffffffffffffffffffffffffffffff1673ffffffffffffffffffffffffffffffffffffffff16815260200190815260200160002060008d815260200190815260200160002060008763ffffffff1663ffffffff16815260200190815260200160002060000160019054906101000a900460ff1661398d565b96506117d5600360008663ffffffff1663ffffffff16815260200190815260200160002060000160009054906101000a900460ff16600360008763ffffffff1663ffffffff16815260200190815260200160002060000160019054906101000a900460ff1661398d565b95508587148015611816575060011515600960008663ffffffff1663ffffffff16815260200190815260200160002060009054906101000a900460ff161515145b156119b2576001856118289190615643565b9450600360008563ffffffff1663ffffffff16815260200190815260200160002060000160009054906101000a900460ff1660ff16600460008b73ffffffffffffffffffffffffffffffffffffffff1673ffffffffffffffffffffffffffffffffffffffff16815260200190815260200160002060008c815260200190815260200160002060008663ffffffff1663ffffffff16815260200190815260200160002060000160009054906101000a900460ff1660ff1614801561199c5750600360008563ffffffff1663ffffffff16815260200190815260200160002060000160019054906101000a900460ff1660ff16600460008b73ffffffffffffffffffffffffffffffffffffffff1673ffffffffffffffffffffffffffffffffffffffff16815260200190815260200160002060008c815260200190815260200160002060008663ffffffff1663ffffffff16815260200190815260200160002060000160019054906101000a900460ff1660ff16145b156119b1576002856119ae9190615643565b94505b5b80806119bd90615278565b91505061163e565b5083965050505050505092915050565b6119dd613af9565b6000836040516119ed91906156ca565b90815260200160405180910390208281548110611a0d57611a0c61521a565b5b90600052602060002090600302016040518060800160405290816000820160009054906101000a900463ffffffff1663ffffffff1663ffffffff1681526020016000820160049054906101000a900464ffffffffff1664ffffffffff1664ffffffffff168152602001600182018054611a85906152ef565b80601f0160208091040260200160405190810160405280929190818152602001828054611ab1906152ef565b8015611afe5780601f10611ad357610100808354040283529160200191611afe565b820191906000526020600020905b815481529060010190602001808311611ae157829003601f168201915b50505050508152602001600282018054611b17906152ef565b80601f0160208091040260200160405190810160405280929190818152602001828054611b43906152ef565b8015611b905780601f10611b6557610100808354040283529160200191611b90565b820191906000526020600020905b815481529060010190602001808311611b7357829003601f168201915b505050505081525050905092915050565b611ba96137e6565b611bb16139ce565b565b60096020528060005260406000206000915054906101000a900460ff1681565b6000600a60009054906101000a900473ffffffffffffffffffffffffffffffffffffffff16905090565b60136020528060005260406000206000915090505481565b6000600f60009054906101000a900473ffffffffffffffffffffffffffffffffffffffff1673ffffffffffffffffffffffffffffffffffffffff166370a08231336040518263ffffffff1660e01b8152600401611c729190614c24565b602060405180830381865afa158015611c8f573d6000803e3d6000fd5b505050506040513d601f19601f82011682018060405250810190611cb391906156f6565b11611cf3576040517f08c379a0000000000000000000000000000000000000000000000000000000008152600401611cea906157a6565b60405180910390fd5b600260006008548152602001908152602001600020600101544210611d4d576040517f08c379a0000000000000000000000000000000000000000000000000000000008152600401611d4490615812565b60405180910390fd5b611d58600854610aa9565b815114611d9a576040517f08c379a0000000000000000000000000000000000000000000000000000000008152600401611d91906158a4565b60405180910390fd5b6000611da7600854610aa9565b905060005b81811015611ef0576040518060400160405280848381518110611dd257611dd161521a565b5b60200260200101516020015160ff168152602001848381518110611df957611df861521a565b5b60200260200101516040015160ff16815250600460003373ffffffffffffffffffffffffffffffffffffffff1673ffffffffffffffffffffffffffffffffffffffff168152602001908152602001600020600060085481526020019081526020016000206000858481518110611e7257611e7161521a565b5b60200260200101516000015163ffffffff1663ffffffff16815260200190815260200160002060008201518160000160006101000a81548160ff021916908360ff16021790555060208201518160000160016101000a81548160ff021916908360ff1602179055509050508080611ee890615278565b915050611dac565b50600080600090505b60056000600854815260200190815260200160002080549050811015611fb5573373ffffffffffffffffffffffffffffffffffffffff166005600060085481526020019081526020016000208281548110611f5757611f5661521a565b5b9060005260206000200160009054906101000a900473ffffffffffffffffffffffffffffffffffffffff1673ffffffffffffffffffffffffffffffffffffffff1603611fa257600191505b8080611fad90615278565b915050611ef9565b5060019050801561203757600560006008548152602001908152602001600020339080600181540180825580915050600190039060005260206000200160009091909190916101000a81548173ffffffffffffffffffffffffffffffffffffffff021916908373ffffffffffffffffffffffffffffffffffffffff1602179055505b505050565b600080600e60009054906101000a900473ffffffffffffffffffffffffffffffffffffffff1673ffffffffffffffffffffffffffffffffffffffff166370a08231306040518263ffffffff1660e01b815260040161209a9190614c24565b602060405180830381865afa1580156120b7573d6000803e3d6000fd5b505050506040513d601f19601f820116820180604052508101906120db91906156f6565b90506000620f42406032600f60009054906101000a900473ffffffffffffffffffffffffffffffffffffffff1673ffffffffffffffffffffffffffffffffffffffff166318160ddd6040518163ffffffff1660e01b8152600401602060405180830381865afa158015612152573d6000803e3d6000fd5b505050506040513d601f19601f8201168201806040525081019061217691906156f6565b61218091906158c4565b61218a91906158c4565b90508082612198919061591e565b9250505090565b606060006005600084815260200190815260200160002080549050905060008060008367ffffffffffffffff8111156121db576121da61404e565b5b60405190808252806020026020018201604052801561221457816020015b612201613b85565b8152602001906001900390816121f95790505b509050600080600090505b858110156123855760056000898152602001908152602001600020818154811061224c5761224b61521a565b5b9060005260206000200160009054906101000a900473ffffffffffffffffffffffffffffffffffffffff169450600f60009054906101000a900473ffffffffffffffffffffffffffffffffffffffff1673ffffffffffffffffffffffffffffffffffffffff166370a08231866040518263ffffffff1660e01b81526004016122d49190614c24565b602060405180830381865afa1580156122f1573d6000803e3d6000fd5b505050506040513d601f19601f8201168201806040525081019061231591906156f6565b935061232188866115c0565b915060405180606001604052808673ffffffffffffffffffffffffffffffffffffffff168152602001858152602001838152508382815181106123675761236661521a565b5b6020026020010181905250808061237d90615278565b91505061221f565b508195505050505050919050565b6060600080600080806000806123a761203c565b90506000601360008c815260200190815260200160002054905060008167ffffffffffffffff8111156123dd576123dc61404e565b5b60405190808252806020026020018201604052801561241657816020015b612403613bbc565b8152602001906001900390816123fb5790505b50905060008267ffffffffffffffff8111156124355761243461404e565b5b60405190808252806020026020018201604052801561246e57816020015b61245b613b4e565b8152602001906001900390816124535790505b50905060008367ffffffffffffffff81111561248d5761248c61404e565b5b6040519080825280602002602001820160405280156124c657816020015b6124b3613bec565b8152602001906001900390816124ab5790505b50905060005b8d5181101561258a5760008e82815181106124ea576124e961521a565b5b6020026020010151905060005b8160200151811015612575576040518060400160405280836000015173ffffffffffffffffffffffffffffffffffffffff1681526020018360400151815250868a815181106125495761254861521a565b5b6020026020010181905250888061255f90615278565b995050808061256d90615278565b9150506124f7565b5050808061258290615278565b9150506124cc565b5060005b848110156126b65760019b5060005b85811015612617578481815181106125b8576125b761521a565b5b6020026020010151602001518583815181106125d7576125d661521a565b5b6020026020010151602001511015612604578c806125f490615278565b9d50508b8d1115612603578c9b505b5b808061260f90615278565b91505061259d565b5060405180606001604052808583815181106126365761263561521a565b5b60200260200101516000015173ffffffffffffffffffffffffffffffffffffffff1681526020018583815181106126705761266f61521a565b5b60200260200101516020015181526020018d8152508382815181106126985761269761521a565b5b602002602001018190525080806126ae90615278565b91505061258e565b50600095506000600190505b8a81116127f45760005b858110156127e057818482815181106126e8576126e761521a565b5b602002602001015160400151036127cd576040518060e001604052808583815181106127175761271661521a565b5b60200260200101516000015173ffffffffffffffffffffffffffffffffffffffff1681526020018583815181106127515761275061521a565b5b60200260200101516020015181526020018583815181106127755761277461521a565b5b602002602001015160400151815260200160008152602001600081526020016000815260200160008152508389815181106127b3576127b261521a565b5b602002602001018190525087806127c990615278565b9850505b80806127d890615278565b9150506126cc565b5080806127ec90615278565b9150506126c2565b5060646011548a87612806919061591e565b61281091906158c4565b61281a9190615981565b965086896128289190615643565b9850868160008151811061283f5761283e61521a565b5b6020026020010151606001818152505086816000815181106128645761286361521a565b5b6020026020010151608001818152505086816000815181106128895761288861521a565b5b602002602001015160a001818152505086816000815181106128ae576128ad61521a565b5b602002602001015160c00181815250506000600190505b84811015612cf65760646011548b886128de919061591e565b6128e891906158c4565b6128f29190615981565b9750878282815181106129085761290761521a565b5b60200260200101516060018181525050878a6129249190615643565b99508982828151811061293a5761293961521a565b5b60200260200101516080018181525050600185612957919061591e565b8114612b3d578160018261296b919061591e565b8151811061297c5761297b61521a565b5b60200260200101516040015182828151811061299b5761299a61521a565b5b60200260200101516040015103612a0a5787826001836129bb919061591e565b815181106129cc576129cb61521a565b5b602002602001015160a001516129e29190615643565b8282815181106129f5576129f461521a565b5b602002602001015160a0018181525050612b38565b87828281518110612a1e57612a1d61521a565b5b602002602001015160a001818152505087828281518110612a4257612a4161521a565b5b602002602001015160c001818152505081600182612a60919061591e565b81518110612a7157612a7061521a565b5b602002602001015160400151828281518110612a9057612a8f61521a565b5b602002602001015160400151612aa6919061591e565b985060005b89811015612b36578983600184612ac2919061591e565b81518110612ad357612ad261521a565b5b602002602001015160a00151612ae99190615981565b83600183612af79190615643565b84612b02919061591e565b81518110612b1357612b1261521a565b5b602002602001015160c00181815250508080612b2e90615278565b915050612aab565b505b612ce3565b81600182612b4b919061591e565b81518110612b5c57612b5b61521a565b5b602002602001015160400151828281518110612b7b57612b7a61521a565b5b60200260200101516040015103612c99578782600183612b9b919061591e565b81518110612bac57612bab61521a565b5b602002602001015160a00151612bc29190615643565b828281518110612bd557612bd461521a565b5b602002602001015160a0018181525050818181518110612bf857612bf761521a565b5b602002602001015160400151600186612c119190615643565b612c1b919061591e565b985060005b89811015612c935789838381518110612c3c57612c3b61521a565b5b602002602001015160a00151612c529190615981565b838284612c5f919061591e565b81518110612c7057612c6f61521a565b5b602002602001015160c00181815250508080612c8b90615278565b915050612c20565b50612ce2565b87828281518110612cad57612cac61521a565b5b602002602001015160a001818152505087828281518110612cd157612cd061521a565b5b602002602001015160c00181815250505b5b8080612cee90615278565b9150506128c5565b50809b50505050505050505050505092915050565b600f60009054906101000a900473ffffffffffffffffffffffffffffffffffffffff1673ffffffffffffffffffffffffffffffffffffffff166318160ddd6040518163ffffffff1660e01b8152600401602060405180830381865afa158015612d78573d6000803e3d6000fd5b505050506040513d601f19601f82011682018060405250810190612d9c91906156f6565b60136000838152602001908152602001600020819055506000612dbe8261219f565b90506000612dcc8383612393565b90506000601260008581526020019081526020016000206040518060a0016040528084600081518110612e0257612e0161521a565b5b60200260200101516000015173ffffffffffffffffffffffffffffffffffffffff1681526020016001815260200184600081518110612e4457612e4361521a565b5b602002602001015160200151815260200184600081518110612e6957612e6861521a565b5b602002602001015160400151815260200184600081518110612e8e57612e8d61521a565b5b602002602001015160c00151815250908060018154018082558091505060019003906000526020600020906005020160009091909190915060008201518160000160006101000a81548173ffffffffffffffffffffffffffffffffffffffff021916908373ffffffffffffffffffffffffffffffffffffffff1602179055506020820151816001015560408201518160020155606082015181600301556080820151816004015550506000600190505b60136000868152602001908152602001600020548110156132155782600182612f67919061591e565b81518110612f7857612f7761521a565b5b60200260200101516000015173ffffffffffffffffffffffffffffffffffffffff16838281518110612fad57612fac61521a565b5b60200260200101516000015173ffffffffffffffffffffffffffffffffffffffff160361309057601260008681526020019081526020016000208281548110612ff957612ff861521a565b5b9060005260206000209060050201600101600081548092919061301b90615278565b91905055508281815181106130335761303261521a565b5b602002602001015160c001516012600087815260200190815260200160002083815481106130645761306361521a565b5b906000526020600020906005020160040160008282546130849190615643565b92505081905550613202565b601260008681526020019081526020016000206040518060a001604052808584815181106130c1576130c061521a565b5b60200260200101516000015173ffffffffffffffffffffffffffffffffffffffff168152602001600181526020018584815181106131025761310161521a565b5b60200260200101516020015181526020018584815181106131265761312561521a565b5b602002602001015160400151815260200185848151811061314a5761314961521a565b5b602002602001015160c00151815250908060018154018082558091505060019003906000526020600020906005020160009091909190915060008201518160000160006101000a81548173ffffffffffffffffffffffffffffffffffffffff021916908373ffffffffffffffffffffffffffffffffffffffff16021790555060208201518160010155604082015181600201556060820151816003015560808201518160040155505081806131fe90615278565b9250505b808061320d90615278565b915050612f3e565b5050505050565b6000808260405161322d91906156ca565b9081526020016040518091039020805490509050919050565b61324e6137e6565b600073ffffffffffffffffffffffffffffffffffffffff168173ffffffffffffffffffffffffffffffffffffffff16036132bd576040517f08c379a00000000000000000000000000000000000000000000000000000000081526004016132b490615a24565b60405180910390fd5b6132c6816138c7565b50565b6000600854905090565b60006032826132e29190615a44565b14613322576040517f08c379a000000000000000000000000000000000000000000000000000000000815260040161331990615ae7565b60405180910390fd5b600d60009054906101000a900473ffffffffffffffffffffffffffffffffffffffff1673ffffffffffffffffffffffffffffffffffffffff166370a08231336040518263ffffffff1660e01b815260040161337d9190614c24565b602060405180830381865afa15801561339a573d6000803e3d6000fd5b505050506040513d601f19601f820116820180604052508101906133be91906156f6565b620f4240826133cd91906158c4565b111561340e576040517f08c379a000000000000000000000000000000000000000000000000000000000815260040161340590615b53565b60405180910390fd5b600d60009054906101000a900473ffffffffffffffffffffffffffffffffffffffff1673ffffffffffffffffffffffffffffffffffffffff1663dd62ed3e33306040518363ffffffff1660e01b815260040161346b929190615b73565b602060405180830381865afa158015613488573d6000803e3d6000fd5b505050506040513d601f19601f820116820180604052508101906134ac91906156f6565b620f4240826134bb91906158c4565b11156134fc576040517f08c379a00000000000000000000000000000000000000000000000000000000081526004016134f390615be8565b60405180910390fd5b600060328261350b9190615981565b9050600d60009054906101000a900473ffffffffffffffffffffffffffffffffffffffff1673ffffffffffffffffffffffffffffffffffffffff166323b872dd3330620f42408661355c91906158c4565b6040518463ffffffff1660e01b815260040161357a93929190615c08565b6020604051808303816000875af1158015613599573d6000803e3d6000fd5b505050506040513d601f19601f820116820180604052508101906135bd9190615c6b565b50600d60009054906101000a900473ffffffffffffffffffffffffffffffffffffffff1673ffffffffffffffffffffffffffffffffffffffff1663095ea7b3601060009054906101000a900473ffffffffffffffffffffffffffffffffffffffff16620f42408561362e91906158c4565b6040518363ffffffff1660e01b815260040161364b929190615c98565b6020604051808303816000875af115801561366a573d6000803e3d6000fd5b505050506040513d601f19601f8201168201806040525081019061368e9190615c6b565b50601060009054906101000a900473ffffffffffffffffffffffffffffffffffffffff1673ffffffffffffffffffffffffffffffffffffffff1663617ba037600d60009054906101000a900473ffffffffffffffffffffffffffffffffffffffff16620f4240856136ff91906158c4565b3060006040518563ffffffff1660e01b81526004016137219493929190615d0a565b600060405180830381600087803b15801561373b57600080fd5b505af115801561374f573d6000803e3d6000fd5b50505050600f60009054906101000a900473ffffffffffffffffffffffffffffffffffffffff1673ffffffffffffffffffffffffffffffffffffffff166340c10f1933836040518363ffffffff1660e01b81526004016137b0929190615c98565b600060405180830381600087803b1580156137ca57600080fd5b505af11580156137de573d6000803e3d6000fd5b505050505050565b6137ee613a31565b73ffffffffffffffffffffffffffffffffffffffff1661380c611bd3565b73ffffffffffffffffffffffffffffffffffffffff1614613862576040517f08c379a000000000000000000000000000000000000000000000000000000000815260040161385990615d9b565b60405180910390fd5b565b61386c613a39565b6000600a60146101000a81548160ff0219169083151502179055507f5db9ee0a495bf2e6ff9c91a7834c1ba4fdd244a5e8aa4e537bd38aeae4b073aa6138b0613a31565b6040516138bd9190614c24565b60405180910390a1565b6000600a60009054906101000a900473ffffffffffffffffffffffffffffffffffffffff16905081600a60006101000a81548173ffffffffffffffffffffffffffffffffffffffff021916908373ffffffffffffffffffffffffffffffffffffffff1602179055508173ffffffffffffffffffffffffffffffffffffffff168173ffffffffffffffffffffffffffffffffffffffff167f8be0079c531659141344cd1fd0a4f28419497f9722a3daafe3b4186f6b6457e060405160405180910390a35050565b6000808260ff168460ff1611156139a757600090506139c4565b8360ff168360ff1611156139be57600290506139c3565b600190505b5b8091505092915050565b6139d6613a82565b6001600a60146101000a81548160ff0219169083151502179055507f62e78cea01bee320cd4e420270b5ea74000d11b0c9f74754ebdbfc544b05a258613a1a613a31565b604051613a279190614c24565b60405180910390a1565b600033905090565b613a41611246565b613a80576040517f08c379a0000000000000000000000000000000000000000000000000000000008152600401613a7790615e07565b60405180910390fd5b565b613a8a611246565b15613aca576040517f08c379a0000000000000000000000000000000000000000000000000000000008152600401613ac190615e73565b60405180910390fd5b565b6040518060600160405280600063ffffffff168152602001600060ff168152602001600060ff1681525090565b6040518060800160405280600063ffffffff168152602001600064ffffffffff16815260200160608152602001606081525090565b6040518060400160405280600060ff168152602001600060ff1681525090565b6040518060600160405280600073ffffffffffffffffffffffffffffffffffffffff16815260200160008152602001600081525090565b6040518060600160405280600073ffffffffffffffffffffffffffffffffffffffff16815260200160008152602001600081525090565b6040518060400160405280600073ffffffffffffffffffffffffffffffffffffffff168152602001600081525090565b6040518060e00160405280600073ffffffffffffffffffffffffffffffffffffffff1681526020016000815260200160008152602001600081526020016000815260200160008152602001600081525090565b6000819050919050565b613c5281613c3f565b82525050565b6000602082019050613c6d6000830184613c49565b92915050565b6000604051905090565b600080fd5b600080fd5b613c9081613c3f565b8114613c9b57600080fd5b50565b600081359050613cad81613c87565b92915050565b600073ffffffffffffffffffffffffffffffffffffffff82169050919050565b6000613cde82613cb3565b9050919050565b613cee81613cd3565b8114613cf957600080fd5b50565b600081359050613d0b81613ce5565b92915050565b60008060408385031215613d2857613d27613c7d565b5b6000613d3685828601613c9e565b9250506020613d4785828601613cfc565b9150509250929050565b600081519050919050565b600082825260208201905092915050565b6000819050602082019050919050565b600063ffffffff82169050919050565b613d9681613d7d565b82525050565b600060ff82169050919050565b613db281613d9c565b82525050565b606082016000820151613dce6000850182613d8d565b506020820151613de16020850182613da9565b506040820151613df46040850182613da9565b50505050565b6000613e068383613db8565b60608301905092915050565b6000602082019050919050565b6000613e2a82613d51565b613e348185613d5c565b9350613e3f83613d6d565b8060005b83811015613e70578151613e578882613dfa565b9750613e6283613e12565b925050600181019050613e43565b5085935050505092915050565b60006020820190508181036000830152613e978184613e1f565b905092915050565b600060208284031215613eb557613eb4613c7d565b5b6000613ec384828501613c9e565b91505092915050565b600081519050919050565b600082825260208201905092915050565b6000819050602082019050919050565b600081519050919050565b600082825260208201905092915050565b60005b83811015613f32578082015181840152602081019050613f17565b83811115613f41576000848401525b50505050565b6000601f19601f8301169050919050565b6000613f6382613ef8565b613f6d8185613f03565b9350613f7d818560208601613f14565b613f8681613f47565b840191505092915050565b6000613f9d8383613f58565b905092915050565b6000602082019050919050565b6000613fbd82613ecc565b613fc78185613ed7565b935083602082028501613fd985613ee8565b8060005b858110156140155784840389528151613ff68582613f91565b945061400183613fa5565b925060208a01995050600181019050613fdd565b50829750879550505050505092915050565b600060208201905081810360008301526140418184613fb2565b905092915050565b600080fd5b7f4e487b7100000000000000000000000000000000000000000000000000000000600052604160045260246000fd5b61408682613f47565b810181811067ffffffffffffffff821117156140a5576140a461404e565b5b80604052505050565b60006140b8613c73565b90506140c4828261407d565b919050565b600067ffffffffffffffff8211156140e4576140e361404e565b5b602082029050602081019050919050565b600080fd5b600080fd5b600067ffffffffffffffff82111561411a5761411961404e565b5b61412382613f47565b9050602081019050919050565b82818337600083830152505050565b600061415261414d846140ff565b6140ae565b90508281526020810184848401111561416e5761416d6140fa565b5b614179848285614130565b509392505050565b600082601f83011261419657614195614049565b5b81356141a684826020860161413f565b91505092915050565b60006141c26141bd846140c9565b6140ae565b905080838252602082019050602084028301858111156141e5576141e46140f5565b5b835b8181101561422c57803567ffffffffffffffff81111561420a57614209614049565b5b8086016142178982614181565b855260208501945050506020810190506141e7565b5050509392505050565b600082601f83011261424b5761424a614049565b5b813561425b8482602086016141af565b91505092915050565b60008060006060848603121561427d5761427c613c7d565b5b600061428b86828701613c9e565b935050602084013567ffffffffffffffff8111156142ac576142ab613c82565b5b6142b886828701614236565b92505060406142c986828701613c9e565b9150509250925092565b6142dc81613d7d565b81146142e757600080fd5b50565b6000813590506142f9816142d3565b92915050565b60006020828403121561431557614314613c7d565b5b6000614323848285016142ea565b91505092915050565b6040820160008201516143426000850182613da9565b5060208201516143556020850182613da9565b50505050565b6000604082019050614370600083018461432c565b92915050565b600067ffffffffffffffff8211156143915761439061404e565b5b602082029050602081019050919050565b600080fd5b600080fd5b600064ffffffffff82169050919050565b6143c6816143ac565b81146143d157600080fd5b50565b6000813590506143e3816143bd565b92915050565b6000608082840312156143ff576143fe6143a2565b5b61440960806140ae565b90506000614419848285016142ea565b600083015250602061442d848285016143d4565b602083015250604082013567ffffffffffffffff811115614451576144506143a7565b5b61445d84828501614181565b604083015250606082013567ffffffffffffffff811115614481576144806143a7565b5b61448d84828501614181565b60608301525092915050565b60006144ac6144a784614376565b6140ae565b905080838252602082019050602084028301858111156144cf576144ce6140f5565b5b835b8181101561451657803567ffffffffffffffff8111156144f4576144f3614049565b5b80860161450189826143e9565b855260208501945050506020810190506144d1565b5050509392505050565b600082601f83011261453557614534614049565b5b8135614545848260208601614499565b91505092915050565b6000806040838503121561456557614564613c7d565b5b600083013567ffffffffffffffff81111561458357614582613c82565b5b61458f85828601614181565b925050602083013567ffffffffffffffff8111156145b0576145af613c82565b5b6145bc85828601614520565b9150509250929050565b600081519050919050565b600082825260208201905092915050565b6000819050602082019050919050565b6145fb81613cd3565b82525050565b61460a81613c3f565b82525050565b60a08201600082015161462660008501826145f2565b5060208201516146396020850182614601565b50604082015161464c6040850182614601565b50606082015161465f6060850182614601565b5060808201516146726080850182614601565b50505050565b60006146848383614610565b60a08301905092915050565b6000602082019050919050565b60006146a8826145c6565b6146b281856145d1565b93506146bd836145e2565b8060005b838110156146ee5781516146d58882614678565b97506146e083614690565b9250506001810190506146c1565b5085935050505092915050565b60006020820190508181036000830152614715818461469d565b905092915050565b600067ffffffffffffffff8211156147385761473761404e565b5b602082029050602081019050919050565b61475281613d9c565b811461475d57600080fd5b50565b60008135905061476f81614749565b92915050565b60006080828403121561478b5761478a6143a2565b5b61479560806140ae565b905060006147a5848285016142ea565b60008301525060206147b984828501614760565b60208301525060406147cd84828501614760565b604083015250606082013567ffffffffffffffff8111156147f1576147f06143a7565b5b6147fd84828501614181565b60608301525092915050565b600061481c6148178461471d565b6140ae565b9050808382526020820190506020840283018581111561483f5761483e6140f5565b5b835b8181101561488657803567ffffffffffffffff81111561486457614863614049565b5b8086016148718982614775565b85526020850194505050602081019050614841565b5050509392505050565b600082601f8301126148a5576148a4614049565b5b81356148b5848260208601614809565b91505092915050565b6000602082840312156148d4576148d3613c7d565b5b600082013567ffffffffffffffff8111156148f2576148f1613c82565b5b6148fe84828501614890565b91505092915050565b6000806040838503121561491e5761491d613c7d565b5b600061492c85828601613c9e565b925050602061493d85828601613c9e565b9150509250929050565b61495081613cd3565b82525050565b600060a08201905061496b6000830188614947565b6149786020830187613c49565b6149856040830186613c49565b6149926060830185613c49565b61499f6080830184613c49565b9695505050505050565b60008115159050919050565b6149be816149a9565b82525050565b60006020820190506149d960008301846149b5565b92915050565b600081519050919050565b600082825260208201905092915050565b6000819050602082019050919050565b614a14816143ac565b82525050565b6000608083016000830151614a326000860182613d8d565b506020830151614a456020860182614a0b565b5060408301518482036040860152614a5d8282613f58565b91505060608301518482036060860152614a778282613f58565b9150508091505092915050565b6000614a908383614a1a565b905092915050565b6000602082019050919050565b6000614ab0826149df565b614aba81856149ea565b935083602082028501614acc856149fb565b8060005b85811015614b085784840389528151614ae98582614a84565b9450614af483614a98565b925060208a01995050600181019050614ad0565b50829750879550505050505092915050565b60006020820190508181036000830152614b348184614aa5565b905092915050565b60008060408385031215614b5357614b52613c7d565b5b600083013567ffffffffffffffff811115614b7157614b70613c82565b5b614b7d85828601614181565b9250506020614b8e85828601613c9e565b9150509250929050565b6000608083016000830151614bb06000860182613d8d565b506020830151614bc36020860182614a0b565b5060408301518482036040860152614bdb8282613f58565b91505060608301518482036060860152614bf58282613f58565b9150508091505092915050565b60006020820190508181036000830152614c1c8184614b98565b905092915050565b6000602082019050614c396000830184614947565b92915050565b600067ffffffffffffffff821115614c5a57614c5961404e565b5b602082029050602081019050919050565b600060608284031215614c8157614c806143a2565b5b614c8b60606140ae565b90506000614c9b848285016142ea565b6000830152506020614caf84828501614760565b6020830152506040614cc384828501614760565b60408301525092915050565b6000614ce2614cdd84614c3f565b6140ae565b90508083825260208201905060608402830185811115614d0557614d046140f5565b5b835b81811015614d2e5780614d1a8882614c6b565b845260208401935050606081019050614d07565b5050509392505050565b600082601f830112614d4d57614d4c614049565b5b8135614d5d848260208601614ccf565b91505092915050565b600060208284031215614d7c57614d7b613c7d565b5b600082013567ffffffffffffffff811115614d9a57614d99613c82565b5b614da684828501614d38565b91505092915050565b600081519050919050565b600082825260208201905092915050565b6000819050602082019050919050565b606082016000820151614df160008501826145f2565b506020820151614e046020850182614601565b506040820151614e176040850182614601565b50505050565b6000614e298383614ddb565b60608301905092915050565b6000602082019050919050565b6000614e4d82614daf565b614e578185614dba565b9350614e6283614dcb565b8060005b83811015614e93578151614e7a8882614e1d565b9750614e8583614e35565b925050600181019050614e66565b5085935050505092915050565b60006020820190508181036000830152614eba8184614e42565b905092915050565b600067ffffffffffffffff821115614edd57614edc61404e565b5b602082029050602081019050919050565b600060608284031215614f0457614f036143a2565b5b614f0e60606140ae565b90506000614f1e84828501613cfc565b6000830152506020614f3284828501613c9e565b6020830152506040614f4684828501613c9e565b60408301525092915050565b6000614f65614f6084614ec2565b6140ae565b90508083825260208201905060608402830185811115614f8857614f876140f5565b5b835b81811015614fb15780614f9d8882614eee565b845260208401935050606081019050614f8a565b5050509392505050565b600082601f830112614fd057614fcf614049565b5b8135614fe0848260208601614f52565b91505092915050565b6000806040838503121561500057614fff613c7d565b5b600061500e85828601613c9e565b925050602083013567ffffffffffffffff81111561502f5761502e613c82565b5b61503b85828601614fbb565b9150509250929050565b600081519050919050565b600082825260208201905092915050565b6000819050602082019050919050565b60e08201600082015161508760008501826145f2565b50602082015161509a6020850182614601565b5060408201516150ad6040850182614601565b5060608201516150c06060850182614601565b5060808201516150d36080850182614601565b5060a08201516150e660a0850182614601565b5060c08201516150f960c0850182614601565b50505050565b600061510b8383615071565b60e08301905092915050565b6000602082019050919050565b600061512f82615045565b6151398185615050565b935061514483615061565b8060005b8381101561517557815161515c88826150ff565b975061516783615117565b925050600181019050615148565b5085935050505092915050565b6000602082019050818103600083015261519c8184615124565b905092915050565b6000602082840312156151ba576151b9613c7d565b5b600082013567ffffffffffffffff8111156151d8576151d7613c82565b5b6151e484828501614181565b91505092915050565b60006020828403121561520357615202613c7d565b5b600061521184828501613cfc565b91505092915050565b7f4e487b7100000000000000000000000000000000000000000000000000000000600052603260045260246000fd5b7f4e487b7100000000000000000000000000000000000000000000000000000000600052601160045260246000fd5b600061528382613c3f565b91507fffffffffffffffffffffffffffffffffffffffffffffffffffffffffffffffff82036152b5576152b4615249565b5b600182019050919050565b7f4e487b7100000000000000000000000000000000000000000000000000000000600052602260045260246000fd5b6000600282049050600182168061530757607f821691505b60208210810361531a576153196152c0565b5b50919050565b60008190508160005260206000209050919050565b60006020601f8301049050919050565b600082821b905092915050565b6000600883026153827fffffffffffffffffffffffffffffffffffffffffffffffffffffffffffffffff82615345565b61538c8683615345565b95508019841693508086168417925050509392505050565b6000819050919050565b60006153c96153c46153bf84613c3f565b6153a4565b613c3f565b9050919050565b6000819050919050565b6153e3836153ae565b6153f76153ef826153d0565b848454615352565b825550505050565b600090565b61540c6153ff565b6154178184846153da565b505050565b5b8181101561543b57615430600082615404565b60018101905061541d565b5050565b601f8211156154805761545181615320565b61545a84615335565b81016020851015615469578190505b61547d61547585615335565b83018261541c565b50505b505050565b600082821c905092915050565b60006154a360001984600802615485565b1980831691505092915050565b60006154bc8383615492565b9150826002028217905092915050565b6154d582613ef8565b67ffffffffffffffff8111156154ee576154ed61404e565b5b6154f882546152ef565b61550382828561543f565b600060209050601f8311600181146155365760008415615524578287015190505b61552e85826154b0565b865550615596565b601f19841661554486615320565b60005b8281101561556c57848901518255600182019150602085019450602081019050615547565b868310156155895784890151615585601f891682615492565b8355505b6001600288020188555050505b505050505050565b600081905092915050565b600081546155b6816152ef565b6155c0818661559e565b945060018216600081146155db57600181146155f057615623565b60ff1983168652811515820286019350615623565b6155f985615320565b60005b8381101561561b578154818901526001820191506020810190506155fc565b838801955050505b50505092915050565b600061563882846155a9565b915081905092915050565b600061564e82613c3f565b915061565983613c3f565b9250827fffffffffffffffffffffffffffffffffffffffffffffffffffffffffffffffff0382111561568e5761568d615249565b5b828201905092915050565b60006156a482613ef8565b6156ae818561559e565b93506156be818560208601613f14565b80840191505092915050565b60006156d68284615699565b915081905092915050565b6000815190506156f081613c87565b92915050565b60006020828403121561570c5761570b613c7d565b5b600061571a848285016156e1565b91505092915050565b600082825260208201905092915050565b7f596f75206e6565642061207469636b657420666f7220736176696e672070726560008201527f64696374696f6e73210000000000000000000000000000000000000000000000602082015250565b6000615790602983615723565b915061579b82615734565b604082019050919050565b600060208201905081810360008301526157bf81615783565b9050919050565b7f50726564696374696f6e20506572696f6420697320636c6f7365642100000000600082015250565b60006157fc601c83615723565b9150615807826157c6565b602082019050919050565b6000602082019050818103600083015261582b816157ef565b9050919050565b7f546865206e756d626572206f662070726564696374696f6e7320646f65736e2760008201527f74206d6174636821000000000000000000000000000000000000000000000000602082015250565b600061588e602883615723565b915061589982615832565b604082019050919050565b600060208201905081810360008301526158bd81615881565b9050919050565b60006158cf82613c3f565b91506158da83613c3f565b9250817fffffffffffffffffffffffffffffffffffffffffffffffffffffffffffffffff048311821515161561591357615912615249565b5b828202905092915050565b600061592982613c3f565b915061593483613c3f565b92508282101561594757615946615249565b5b828203905092915050565b7f4e487b7100000000000000000000000000000000000000000000000000000000600052601260045260246000fd5b600061598c82613c3f565b915061599783613c3f565b9250826159a7576159a6615952565b5b828204905092915050565b7f4f776e61626c653a206e6577206f776e657220697320746865207a65726f206160008201527f6464726573730000000000000000000000000000000000000000000000000000602082015250565b6000615a0e602683615723565b9150615a19826159b2565b604082019050919050565b60006020820190508181036000830152615a3d81615a01565b9050919050565b6000615a4f82613c3f565b9150615a5a83613c3f565b925082615a6a57615a69615952565b5b828206905092915050565b7f54686520616d6f756e74206d7573742062652061206d756c7469706c65206f6660008201527f2035300000000000000000000000000000000000000000000000000000000000602082015250565b6000615ad1602383615723565b9150615adc82615a75565b604082019050919050565b60006020820190508181036000830152615b0081615ac4565b9050919050565b7f496e737566666963656e7420616d6f756e74206f662055534443000000000000600082015250565b6000615b3d601a83615723565b9150615b4882615b07565b602082019050919050565b60006020820190508181036000830152615b6c81615b30565b9050919050565b6000604082019050615b886000830185614947565b615b956020830184614947565b9392505050565b7f496e73756666696369656e7420616c6c6f776564205553444300000000000000600082015250565b6000615bd2601983615723565b9150615bdd82615b9c565b602082019050919050565b60006020820190508181036000830152615c0181615bc5565b9050919050565b6000606082019050615c1d6000830186614947565b615c2a6020830185614947565b615c376040830184613c49565b949350505050565b615c48816149a9565b8114615c5357600080fd5b50565b600081519050615c6581615c3f565b92915050565b600060208284031215615c8157615c80613c7d565b5b6000615c8f84828501615c56565b91505092915050565b6000604082019050615cad6000830185614947565b615cba6020830184613c49565b9392505050565b6000819050919050565b600061ffff82169050919050565b6000615cf4615cef615cea84615cc1565b6153a4565b615ccb565b9050919050565b615d0481615cd9565b82525050565b6000608082019050615d1f6000830187614947565b615d2c6020830186613c49565b615d396040830185614947565b615d466060830184615cfb565b95945050505050565b7f4f776e61626c653a2063616c6c6572206973206e6f7420746865206f776e6572600082015250565b6000615d85602083615723565b9150615d9082615d4f565b602082019050919050565b60006020820190508181036000830152615db481615d78565b9050919050565b7f5061757361626c653a206e6f7420706175736564000000000000000000000000600082015250565b6000615df1601483615723565b9150615dfc82615dbb565b602082019050919050565b60006020820190508181036000830152615e2081615de4565b9050919050565b7f5061757361626c653a2070617573656400000000000000000000000000000000600082015250565b6000615e5d601083615723565b9150615e6882615e27565b602082019050919050565b60006020820190508181036000830152615e8c81615e50565b905091905056fea2646970667358221220480e0670663bfbf09edefd3c2b45fa5e93ce94b929d0dc529c3fc9b7eb6ee05f64736f6c634300080f0033","opcodes":"PUSH1 0x80 PUSH1 0x40 MSTORE CALLVALUE DUP1 ISZERO PUSH3 0x11 JUMPI PUSH1 0x0 DUP1 REVERT JUMPDEST POP PUSH1 0x0 PUSH1 0x8 DUP2 SWAP1 SSTORE POP PUSH3 0x3A PUSH3 0x2E PUSH3 0x1B7 PUSH1 0x20 SHL PUSH1 0x20 SHR JUMP JUMPDEST PUSH3 0x1BF PUSH1 0x20 SHL PUSH1 0x20 SHR JUMP JUMPDEST PUSH1 0x0 PUSH1 0xA PUSH1 0x14 PUSH2 0x100 EXP DUP2 SLOAD DUP2 PUSH1 0xFF MUL NOT AND SWAP1 DUP4 ISZERO ISZERO MUL OR SWAP1 SSTORE POP PUSH20 0xA2025B15A1757311BFD68CB14EAEFCC237AF5B43 PUSH1 0xD PUSH1 0x0 PUSH2 0x100 EXP DUP2 SLOAD DUP2 PUSH20 0xFFFFFFFFFFFFFFFFFFFFFFFFFFFFFFFFFFFFFFFF MUL NOT AND SWAP1 DUP4 PUSH20 0xFFFFFFFFFFFFFFFFFFFFFFFFFFFFFFFFFFFFFFFF AND MUL OR SWAP1 SSTORE POP PUSH20 0x368EEDF3F56AD10B9BC57EED4DAC65B26BB667F6 PUSH1 0x10 PUSH1 0x0 PUSH2 0x100 EXP DUP2 SLOAD DUP2 PUSH20 0xFFFFFFFFFFFFFFFFFFFFFFFFFFFFFFFFFFFFFFFF MUL NOT AND SWAP1 DUP4 PUSH20 0xFFFFFFFFFFFFFFFFFFFFFFFFFFFFFFFFFFFFFFFF AND MUL OR SWAP1 SSTORE POP PUSH20 0x1EE669290939F8A8864497AF3BC83728715265FF PUSH1 0xE PUSH1 0x0 PUSH2 0x100 EXP DUP2 SLOAD DUP2 PUSH20 0xFFFFFFFFFFFFFFFFFFFFFFFFFFFFFFFFFFFFFFFF MUL NOT AND SWAP1 DUP4 PUSH20 0xFFFFFFFFFFFFFFFFFFFFFFFFFFFFFFFFFFFFFFFF AND MUL OR SWAP1 SSTORE POP PUSH20 0x3CB49B846F13C89DEE256E90A3E8830F6A6FA9D1 PUSH1 0xF PUSH1 0x0 PUSH2 0x100 EXP DUP2 SLOAD DUP2 PUSH20 0xFFFFFFFFFFFFFFFFFFFFFFFFFFFFFFFFFFFFFFFF MUL NOT AND SWAP1 DUP4 PUSH20 0xFFFFFFFFFFFFFFFFFFFFFFFFFFFFFFFFFFFFFFFF AND MUL OR SWAP1 SSTORE POP PUSH1 0x5 PUSH1 0x11 DUP2 SWAP1 SSTORE POP PUSH3 0x285 JUMP JUMPDEST PUSH1 0x0 CALLER SWAP1 POP SWAP1 JUMP JUMPDEST PUSH1 0x0 PUSH1 0xA PUSH1 0x0 SWAP1 SLOAD SWAP1 PUSH2 0x100 EXP SWAP1 DIV PUSH20 0xFFFFFFFFFFFFFFFFFFFFFFFFFFFFFFFFFFFFFFFF AND SWAP1 POP DUP2 PUSH1 0xA PUSH1 0x0 PUSH2 0x100 EXP DUP2 SLOAD DUP2 PUSH20 0xFFFFFFFFFFFFFFFFFFFFFFFFFFFFFFFFFFFFFFFF MUL NOT AND SWAP1 DUP4 PUSH20 0xFFFFFFFFFFFFFFFFFFFFFFFFFFFFFFFFFFFFFFFF AND MUL OR SWAP1 SSTORE POP DUP2 PUSH20 0xFFFFFFFFFFFFFFFFFFFFFFFFFFFFFFFFFFFFFFFF AND DUP2 PUSH20 0xFFFFFFFFFFFFFFFFFFFFFFFFFFFFFFFFFFFFFFFF AND PUSH32 0x8BE0079C531659141344CD1FD0A4F28419497F9722A3DAAFE3B4186F6B6457E0 PUSH1 0x40 MLOAD PUSH1 0x40 MLOAD DUP1 SWAP2 SUB SWAP1 LOG3 POP POP JUMP JUMPDEST PUSH2 0x5EC9 DUP1 PUSH3 0x295 PUSH1 0x0 CODECOPY PUSH1 0x0 RETURN INVALID PUSH1 0x80 PUSH1 0x40 MSTORE CALLVALUE DUP1 ISZERO PUSH2 0x10 JUMPI PUSH1 0x0 DUP1 REVERT JUMPDEST POP PUSH1 0x4 CALLDATASIZE LT PUSH2 0x1E5 JUMPI PUSH1 0x0 CALLDATALOAD PUSH1 0xE0 SHR DUP1 PUSH4 0x7E5DD913 GT PUSH2 0x10F JUMPI DUP1 PUSH4 0xB4ACE158 GT PUSH2 0xA2 JUMPI DUP1 PUSH4 0xEA6A0410 GT PUSH2 0x71 JUMPI DUP1 PUSH4 0xEA6A0410 EQ PUSH2 0x5E0 JUMPI DUP1 PUSH4 0xF2FDE38B EQ PUSH2 0x610 JUMPI DUP1 PUSH4 0xFB46BD22 EQ PUSH2 0x62C JUMPI DUP1 PUSH4 0xFD8D1909 EQ PUSH2 0x64A JUMPI PUSH2 0x1E5 JUMP JUMPDEST DUP1 PUSH4 0xB4ACE158 EQ PUSH2 0x546 JUMPI DUP1 PUSH4 0xB66195B8 EQ PUSH2 0x564 JUMPI DUP1 PUSH4 0xBAF63783 EQ PUSH2 0x594 JUMPI DUP1 PUSH4 0xD6221518 EQ PUSH2 0x5C4 JUMPI PUSH2 0x1E5 JUMP JUMPDEST DUP1 PUSH4 0x8B617036 GT PUSH2 0xDE JUMPI DUP1 PUSH4 0x8B617036 EQ PUSH2 0x4AC JUMPI DUP1 PUSH4 0x8DA5CB5B EQ PUSH2 0x4DC JUMPI DUP1 PUSH4 0x946E18D9 EQ PUSH2 0x4FA JUMPI DUP1 PUSH4 0x9FA75E9A EQ PUSH2 0x52A JUMPI PUSH2 0x1E5 JUMP JUMPDEST DUP1 PUSH4 0x7E5DD913 EQ PUSH2 0x412 JUMPI DUP1 PUSH4 0x7FB9C45F EQ PUSH2 0x442 JUMPI DUP1 PUSH4 0x80B41A09 EQ PUSH2 0x472 JUMPI DUP1 PUSH4 0x8456CB59 EQ PUSH2 0x4A2 JUMPI PUSH2 0x1E5 JUMP JUMPDEST DUP1 PUSH4 0x2452A7E3 GT PUSH2 0x187 JUMPI DUP1 PUSH4 0x57D088FF GT PUSH2 0x156 JUMPI DUP1 PUSH4 0x57D088FF EQ PUSH2 0x386 JUMPI DUP1 PUSH4 0x5C975ABB EQ PUSH2 0x3BA JUMPI DUP1 PUSH4 0x62436D9D EQ PUSH2 0x3D8 JUMPI DUP1 PUSH4 0x715018A6 EQ PUSH2 0x408 JUMPI PUSH2 0x1E5 JUMP JUMPDEST DUP1 PUSH4 0x2452A7E3 EQ PUSH2 0x300 JUMPI DUP1 PUSH4 0x3302787D EQ PUSH2 0x330 JUMPI DUP1 PUSH4 0x3F4BA83A EQ PUSH2 0x34C JUMPI DUP1 PUSH4 0x4FDA591E EQ PUSH2 0x356 JUMPI PUSH2 0x1E5 JUMP JUMPDEST DUP1 PUSH4 0x18699547 GT PUSH2 0x1C3 JUMPI DUP1 PUSH4 0x18699547 EQ PUSH2 0x268 JUMPI DUP1 PUSH4 0x1D883342 EQ PUSH2 0x284 JUMPI DUP1 PUSH4 0x1E7741F0 EQ PUSH2 0x2B4 JUMPI DUP1 PUSH4 0x1F2BF10C EQ PUSH2 0x2E4 JUMPI PUSH2 0x1E5 JUMP JUMPDEST DUP1 PUSH4 0x8AF2D78 EQ PUSH2 0x1EA JUMPI DUP1 PUSH4 0x117F3998 EQ PUSH2 0x208 JUMPI DUP1 PUSH4 0x1506BCA6 EQ PUSH2 0x238 JUMPI JUMPDEST PUSH1 0x0 DUP1 REVERT JUMPDEST PUSH2 0x1F2 PUSH2 0x666 JUMP JUMPDEST PUSH1 0x40 MLOAD PUSH2 0x1FF SWAP2 SWAP1 PUSH2 0x3C58 JUMP JUMPDEST PUSH1 0x40 MLOAD DUP1 SWAP2 SUB SWAP1 RETURN JUMPDEST PUSH2 0x222 PUSH1 0x4 DUP1 CALLDATASIZE SUB DUP2 ADD SWAP1 PUSH2 0x21D SWAP2 SWAP1 PUSH2 0x3D11 JUMP JUMPDEST PUSH2 0x686 JUMP JUMPDEST PUSH1 0x40 MLOAD PUSH2 0x22F SWAP2 SWAP1 PUSH2 0x3E7D JUMP JUMPDEST PUSH1 0x40 MLOAD DUP1 SWAP2 SUB SWAP1 RETURN JUMPDEST PUSH2 0x252 PUSH1 0x4 DUP1 CALLDATASIZE SUB DUP2 ADD SWAP1 PUSH2 0x24D SWAP2 SWAP1 PUSH2 0x3E9F JUMP JUMPDEST PUSH2 0x8DD JUMP JUMPDEST PUSH1 0x40 MLOAD PUSH2 0x25F SWAP2 SWAP1 PUSH2 0x4027 JUMP JUMPDEST PUSH1 0x40 MLOAD DUP1 SWAP2 SUB SWAP1 RETURN JUMPDEST PUSH2 0x282 PUSH1 0x4 DUP1 CALLDATASIZE SUB DUP2 ADD SWAP1 PUSH2 0x27D SWAP2 SWAP1 PUSH2 0x4264 JUMP JUMPDEST PUSH2 0x9C9 JUMP JUMPDEST STOP JUMPDEST PUSH2 0x29E PUSH1 0x4 DUP1 CALLDATASIZE SUB DUP2 ADD SWAP1 PUSH2 0x299 SWAP2 SWAP1 PUSH2 0x3E9F JUMP JUMPDEST PUSH2 0xAA9 JUMP JUMPDEST PUSH1 0x40 MLOAD PUSH2 0x2AB SWAP2 SWAP1 PUSH2 0x3C58 JUMP JUMPDEST PUSH1 0x40 MLOAD DUP1 SWAP2 SUB SWAP1 RETURN JUMPDEST PUSH2 0x2CE PUSH1 0x4 DUP1 CALLDATASIZE SUB DUP2 ADD SWAP1 PUSH2 0x2C9 SWAP2 SWAP1 PUSH2 0x42FF JUMP JUMPDEST PUSH2 0xB4B JUMP JUMPDEST PUSH1 0x40 MLOAD PUSH2 0x2DB SWAP2 SWAP1 PUSH2 0x435B JUMP JUMPDEST PUSH1 0x40 MLOAD DUP1 SWAP2 SUB SWAP1 RETURN JUMPDEST PUSH2 0x2FE PUSH1 0x4 DUP1 CALLDATASIZE SUB DUP2 ADD SWAP1 PUSH2 0x2F9 SWAP2 SWAP1 PUSH2 0x454E JUMP JUMPDEST PUSH2 0xBBE JUMP JUMPDEST STOP JUMPDEST PUSH2 0x31A PUSH1 0x4 DUP1 CALLDATASIZE SUB DUP2 ADD SWAP1 PUSH2 0x315 SWAP2 SWAP1 PUSH2 0x3E9F JUMP JUMPDEST PUSH2 0xD4D JUMP JUMPDEST PUSH1 0x40 MLOAD PUSH2 0x327 SWAP2 SWAP1 PUSH2 0x46FB JUMP JUMPDEST PUSH1 0x40 MLOAD DUP1 SWAP2 SUB SWAP1 RETURN JUMPDEST PUSH2 0x34A PUSH1 0x4 DUP1 CALLDATASIZE SUB DUP2 ADD SWAP1 PUSH2 0x345 SWAP2 SWAP1 PUSH2 0x48BE JUMP JUMPDEST PUSH2 0xE3D JUMP JUMPDEST STOP JUMPDEST PUSH2 0x354 PUSH2 0xF8F JUMP JUMPDEST STOP JUMPDEST PUSH2 0x370 PUSH1 0x4 DUP1 CALLDATASIZE SUB DUP2 ADD SWAP1 PUSH2 0x36B SWAP2 SWAP1 PUSH2 0x3D11 JUMP JUMPDEST PUSH2 0xFA1 JUMP JUMPDEST PUSH1 0x40 MLOAD PUSH2 0x37D SWAP2 SWAP1 PUSH2 0x3C58 JUMP JUMPDEST PUSH1 0x40 MLOAD DUP1 SWAP2 SUB SWAP1 RETURN JUMPDEST PUSH2 0x3A0 PUSH1 0x4 DUP1 CALLDATASIZE SUB DUP2 ADD SWAP1 PUSH2 0x39B SWAP2 SWAP1 PUSH2 0x4907 JUMP JUMPDEST PUSH2 0x11D3 JUMP JUMPDEST PUSH1 0x40 MLOAD PUSH2 0x3B1 SWAP6 SWAP5 SWAP4 SWAP3 SWAP2 SWAP1 PUSH2 0x4956 JUMP JUMPDEST PUSH1 0x40 MLOAD DUP1 SWAP2 SUB SWAP1 RETURN JUMPDEST PUSH2 0x3C2 PUSH2 0x1246 JUMP JUMPDEST PUSH1 0x40 MLOAD PUSH2 0x3CF SWAP2 SWAP1 PUSH2 0x49C4 JUMP JUMPDEST PUSH1 0x40 MLOAD DUP1 SWAP2 SUB SWAP1 RETURN JUMPDEST PUSH2 0x3F2 PUSH1 0x4 DUP1 CALLDATASIZE SUB DUP2 ADD SWAP1 PUSH2 0x3ED SWAP2 SWAP1 PUSH2 0x3E9F JUMP JUMPDEST PUSH2 0x125D JUMP JUMPDEST PUSH1 0x40 MLOAD PUSH2 0x3FF SWAP2 SWAP1 PUSH2 0x3C58 JUMP JUMPDEST PUSH1 0x40 MLOAD DUP1 SWAP2 SUB SWAP1 RETURN JUMPDEST PUSH2 0x410 PUSH2 0x127D JUMP JUMPDEST STOP JUMPDEST PUSH2 0x42C PUSH1 0x4 DUP1 CALLDATASIZE SUB DUP2 ADD SWAP1 PUSH2 0x427 SWAP2 SWAP1 PUSH2 0x3E9F JUMP JUMPDEST PUSH2 0x1291 JUMP JUMPDEST PUSH1 0x40 MLOAD PUSH2 0x439 SWAP2 SWAP1 PUSH2 0x4B1A JUMP JUMPDEST PUSH1 0x40 MLOAD DUP1 SWAP2 SUB SWAP1 RETURN JUMPDEST PUSH2 0x45C PUSH1 0x4 DUP1 CALLDATASIZE SUB DUP2 ADD SWAP1 PUSH2 0x457 SWAP2 SWAP1 PUSH2 0x3D11 JUMP JUMPDEST PUSH2 0x15C0 JUMP JUMPDEST PUSH1 0x40 MLOAD PUSH2 0x469 SWAP2 SWAP1 PUSH2 0x3C58 JUMP JUMPDEST PUSH1 0x40 MLOAD DUP1 SWAP2 SUB SWAP1 RETURN JUMPDEST PUSH2 0x48C PUSH1 0x4 DUP1 CALLDATASIZE SUB DUP2 ADD SWAP1 PUSH2 0x487 SWAP2 SWAP1 PUSH2 0x4B3C JUMP JUMPDEST PUSH2 0x19D5 JUMP JUMPDEST PUSH1 0x40 MLOAD PUSH2 0x499 SWAP2 SWAP1 PUSH2 0x4C02 JUMP JUMPDEST PUSH1 0x40 MLOAD DUP1 SWAP2 SUB SWAP1 RETURN JUMPDEST PUSH2 0x4AA PUSH2 0x1BA1 JUMP JUMPDEST STOP JUMPDEST PUSH2 0x4C6 PUSH1 0x4 DUP1 CALLDATASIZE SUB DUP2 ADD SWAP1 PUSH2 0x4C1 SWAP2 SWAP1 PUSH2 0x42FF JUMP JUMPDEST PUSH2 0x1BB3 JUMP JUMPDEST PUSH1 0x40 MLOAD PUSH2 0x4D3 SWAP2 SWAP1 PUSH2 0x49C4 JUMP JUMPDEST PUSH1 0x40 MLOAD DUP1 SWAP2 SUB SWAP1 RETURN JUMPDEST PUSH2 0x4E4 PUSH2 0x1BD3 JUMP JUMPDEST PUSH1 0x40 MLOAD PUSH2 0x4F1 SWAP2 SWAP1 PUSH2 0x4C24 JUMP JUMPDEST PUSH1 0x40 MLOAD DUP1 SWAP2 SUB SWAP1 RETURN JUMPDEST PUSH2 0x514 PUSH1 0x4 DUP1 CALLDATASIZE SUB DUP2 ADD SWAP1 PUSH2 0x50F SWAP2 SWAP1 PUSH2 0x3E9F JUMP JUMPDEST PUSH2 0x1BFD JUMP JUMPDEST PUSH1 0x40 MLOAD PUSH2 0x521 SWAP2 SWAP1 PUSH2 0x3C58 JUMP JUMPDEST PUSH1 0x40 MLOAD DUP1 SWAP2 SUB SWAP1 RETURN JUMPDEST PUSH2 0x544 PUSH1 0x4 DUP1 CALLDATASIZE SUB DUP2 ADD SWAP1 PUSH2 0x53F SWAP2 SWAP1 PUSH2 0x4D66 JUMP JUMPDEST PUSH2 0x1C15 JUMP JUMPDEST STOP JUMPDEST PUSH2 0x54E PUSH2 0x203C JUMP JUMPDEST PUSH1 0x40 MLOAD PUSH2 0x55B SWAP2 SWAP1 PUSH2 0x3C58 JUMP JUMPDEST PUSH1 0x40 MLOAD DUP1 SWAP2 SUB SWAP1 RETURN JUMPDEST PUSH2 0x57E PUSH1 0x4 DUP1 CALLDATASIZE SUB DUP2 ADD SWAP1 PUSH2 0x579 SWAP2 SWAP1 PUSH2 0x3E9F JUMP JUMPDEST PUSH2 0x219F JUMP JUMPDEST PUSH1 0x40 MLOAD PUSH2 0x58B SWAP2 SWAP1 PUSH2 0x4EA0 JUMP JUMPDEST PUSH1 0x40 MLOAD DUP1 SWAP2 SUB SWAP1 RETURN JUMPDEST PUSH2 0x5AE PUSH1 0x4 DUP1 CALLDATASIZE SUB DUP2 ADD SWAP1 PUSH2 0x5A9 SWAP2 SWAP1 PUSH2 0x4FE9 JUMP JUMPDEST PUSH2 0x2393 JUMP JUMPDEST PUSH1 0x40 MLOAD PUSH2 0x5BB SWAP2 SWAP1 PUSH2 0x5182 JUMP JUMPDEST PUSH1 0x40 MLOAD DUP1 SWAP2 SUB SWAP1 RETURN JUMPDEST PUSH2 0x5DE PUSH1 0x4 DUP1 CALLDATASIZE SUB DUP2 ADD SWAP1 PUSH2 0x5D9 SWAP2 SWAP1 PUSH2 0x3E9F JUMP JUMPDEST PUSH2 0x2D0B JUMP JUMPDEST STOP JUMPDEST PUSH2 0x5FA PUSH1 0x4 DUP1 CALLDATASIZE SUB DUP2 ADD SWAP1 PUSH2 0x5F5 SWAP2 SWAP1 PUSH2 0x51A4 JUMP JUMPDEST PUSH2 0x321C JUMP JUMPDEST PUSH1 0x40 MLOAD PUSH2 0x607 SWAP2 SWAP1 PUSH2 0x3C58 JUMP JUMPDEST PUSH1 0x40 MLOAD DUP1 SWAP2 SUB SWAP1 RETURN JUMPDEST PUSH2 0x62A PUSH1 0x4 DUP1 CALLDATASIZE SUB DUP2 ADD SWAP1 PUSH2 0x625 SWAP2 SWAP1 PUSH2 0x51ED JUMP JUMPDEST PUSH2 0x3246 JUMP JUMPDEST STOP JUMPDEST PUSH2 0x634 PUSH2 0x32C9 JUMP JUMPDEST PUSH1 0x40 MLOAD PUSH2 0x641 SWAP2 SWAP1 PUSH2 0x3C58 JUMP JUMPDEST PUSH1 0x40 MLOAD DUP1 SWAP2 SUB SWAP1 RETURN JUMPDEST PUSH2 0x664 PUSH1 0x4 DUP1 CALLDATASIZE SUB DUP2 ADD SWAP1 PUSH2 0x65F SWAP2 SWAP1 PUSH2 0x3E9F JUMP JUMPDEST PUSH2 0x32D3 JUMP JUMPDEST STOP JUMPDEST PUSH1 0x0 PUSH1 0x2 PUSH1 0x0 PUSH1 0x8 SLOAD DUP2 MSTORE PUSH1 0x20 ADD SWAP1 DUP2 MSTORE PUSH1 0x20 ADD PUSH1 0x0 KECCAK256 PUSH1 0x1 ADD SLOAD SWAP1 POP SWAP1 JUMP JUMPDEST PUSH1 0x60 PUSH1 0x0 PUSH2 0x693 DUP5 PUSH2 0xAA9 JUMP JUMPDEST SWAP1 POP PUSH1 0x0 DUP1 DUP3 PUSH8 0xFFFFFFFFFFFFFFFF DUP2 GT ISZERO PUSH2 0x6B2 JUMPI PUSH2 0x6B1 PUSH2 0x404E JUMP JUMPDEST JUMPDEST PUSH1 0x40 MLOAD SWAP1 DUP1 DUP3 MSTORE DUP1 PUSH1 0x20 MUL PUSH1 0x20 ADD DUP3 ADD PUSH1 0x40 MSTORE DUP1 ISZERO PUSH2 0x6EB JUMPI DUP2 PUSH1 0x20 ADD JUMPDEST PUSH2 0x6D8 PUSH2 0x3ACC JUMP JUMPDEST DUP2 MSTORE PUSH1 0x20 ADD SWAP1 PUSH1 0x1 SWAP1 SUB SWAP1 DUP2 PUSH2 0x6D0 JUMPI SWAP1 POP JUMPDEST POP SWAP1 POP PUSH1 0x0 DUP4 PUSH8 0xFFFFFFFFFFFFFFFF DUP2 GT ISZERO PUSH2 0x70A JUMPI PUSH2 0x709 PUSH2 0x404E JUMP JUMPDEST JUMPDEST PUSH1 0x40 MLOAD SWAP1 DUP1 DUP3 MSTORE DUP1 PUSH1 0x20 MUL PUSH1 0x20 ADD DUP3 ADD PUSH1 0x40 MSTORE DUP1 ISZERO PUSH2 0x743 JUMPI DUP2 PUSH1 0x20 ADD JUMPDEST PUSH2 0x730 PUSH2 0x3AF9 JUMP JUMPDEST DUP2 MSTORE PUSH1 0x20 ADD SWAP1 PUSH1 0x1 SWAP1 SUB SWAP1 DUP2 PUSH2 0x728 JUMPI SWAP1 POP JUMPDEST POP SWAP1 POP PUSH2 0x74F DUP8 PUSH2 0x1291 JUMP JUMPDEST SWAP1 POP PUSH1 0x0 JUMPDEST DUP5 DUP2 LT ISZERO PUSH2 0x8CF JUMPI DUP2 DUP2 DUP2 MLOAD DUP2 LT PUSH2 0x76F JUMPI PUSH2 0x76E PUSH2 0x521A JUMP JUMPDEST JUMPDEST PUSH1 0x20 MUL PUSH1 0x20 ADD ADD MLOAD PUSH1 0x0 ADD MLOAD SWAP4 POP PUSH1 0x40 MLOAD DUP1 PUSH1 0x60 ADD PUSH1 0x40 MSTORE DUP1 DUP6 PUSH4 0xFFFFFFFF AND DUP2 MSTORE PUSH1 0x20 ADD PUSH1 0x4 PUSH1 0x0 DUP11 PUSH20 0xFFFFFFFFFFFFFFFFFFFFFFFFFFFFFFFFFFFFFFFF AND PUSH20 0xFFFFFFFFFFFFFFFFFFFFFFFFFFFFFFFFFFFFFFFF AND DUP2 MSTORE PUSH1 0x20 ADD SWAP1 DUP2 MSTORE PUSH1 0x20 ADD PUSH1 0x0 KECCAK256 PUSH1 0x0 DUP12 DUP2 MSTORE PUSH1 0x20 ADD SWAP1 DUP2 MSTORE PUSH1 0x20 ADD PUSH1 0x0 KECCAK256 PUSH1 0x0 DUP8 PUSH4 0xFFFFFFFF AND PUSH4 0xFFFFFFFF AND DUP2 MSTORE PUSH1 0x20 ADD SWAP1 DUP2 MSTORE PUSH1 0x20 ADD PUSH1 0x0 KECCAK256 PUSH1 0x0 ADD PUSH1 0x0 SWAP1 SLOAD SWAP1 PUSH2 0x100 EXP SWAP1 DIV PUSH1 0xFF AND PUSH1 0xFF AND DUP2 MSTORE PUSH1 0x20 ADD PUSH1 0x4 PUSH1 0x0 DUP11 PUSH20 0xFFFFFFFFFFFFFFFFFFFFFFFFFFFFFFFFFFFFFFFF AND PUSH20 0xFFFFFFFFFFFFFFFFFFFFFFFFFFFFFFFFFFFFFFFF AND DUP2 MSTORE PUSH1 0x20 ADD SWAP1 DUP2 MSTORE PUSH1 0x20 ADD PUSH1 0x0 KECCAK256 PUSH1 0x0 DUP12 DUP2 MSTORE PUSH1 0x20 ADD SWAP1 DUP2 MSTORE PUSH1 0x20 ADD PUSH1 0x0 KECCAK256 PUSH1 0x0 DUP8 PUSH4 0xFFFFFFFF AND PUSH4 0xFFFFFFFF AND DUP2 MSTORE PUSH1 0x20 ADD SWAP1 DUP2 MSTORE PUSH1 0x20 ADD PUSH1 0x0 KECCAK256 PUSH1 0x0 ADD PUSH1 0x1 SWAP1 SLOAD SWAP1 PUSH2 0x100 EXP SWAP1 DIV PUSH1 0xFF AND PUSH1 0xFF AND DUP2 MSTORE POP DUP4 DUP3 DUP2 MLOAD DUP2 LT PUSH2 0x8B1 JUMPI PUSH2 0x8B0 PUSH2 0x521A JUMP JUMPDEST JUMPDEST PUSH1 0x20 MUL PUSH1 0x20 ADD ADD DUP2 SWAP1 MSTORE POP DUP1 DUP1 PUSH2 0x8C7 SWAP1 PUSH2 0x5278 JUMP JUMPDEST SWAP2 POP POP PUSH2 0x754 JUMP JUMPDEST POP DUP2 SWAP5 POP POP POP POP POP SWAP3 SWAP2 POP POP JUMP JUMPDEST PUSH1 0x60 PUSH1 0x1 PUSH1 0x0 DUP4 DUP2 MSTORE PUSH1 0x20 ADD SWAP1 DUP2 MSTORE PUSH1 0x20 ADD PUSH1 0x0 KECCAK256 DUP1 SLOAD DUP1 PUSH1 0x20 MUL PUSH1 0x20 ADD PUSH1 0x40 MLOAD SWAP1 DUP2 ADD PUSH1 0x40 MSTORE DUP1 SWAP3 SWAP2 SWAP1 DUP2 DUP2 MSTORE PUSH1 0x20 ADD PUSH1 0x0 SWAP1 JUMPDEST DUP3 DUP3 LT ISZERO PUSH2 0x9BE JUMPI DUP4 DUP3 SWAP1 PUSH1 0x0 MSTORE PUSH1 0x20 PUSH1 0x0 KECCAK256 ADD DUP1 SLOAD PUSH2 0x931 SWAP1 PUSH2 0x52EF JUMP JUMPDEST DUP1 PUSH1 0x1F ADD PUSH1 0x20 DUP1 SWAP2 DIV MUL PUSH1 0x20 ADD PUSH1 0x40 MLOAD SWAP1 DUP2 ADD PUSH1 0x40 MSTORE DUP1 SWAP3 SWAP2 SWAP1 DUP2 DUP2 MSTORE PUSH1 0x20 ADD DUP3 DUP1 SLOAD PUSH2 0x95D SWAP1 PUSH2 0x52EF JUMP JUMPDEST DUP1 ISZERO PUSH2 0x9AA JUMPI DUP1 PUSH1 0x1F LT PUSH2 0x97F JUMPI PUSH2 0x100 DUP1 DUP4 SLOAD DIV MUL DUP4 MSTORE SWAP2 PUSH1 0x20 ADD SWAP2 PUSH2 0x9AA JUMP JUMPDEST DUP3 ADD SWAP2 SWAP1 PUSH1 0x0 MSTORE PUSH1 0x20 PUSH1 0x0 KECCAK256 SWAP1 JUMPDEST DUP2 SLOAD DUP2 MSTORE SWAP1 PUSH1 0x1 ADD SWAP1 PUSH1 0x20 ADD DUP1 DUP4 GT PUSH2 0x98D JUMPI DUP3 SWAP1 SUB PUSH1 0x1F AND DUP3 ADD SWAP2 JUMPDEST POP POP POP POP POP DUP2 MSTORE PUSH1 0x20 ADD SWAP1 PUSH1 0x1 ADD SWAP1 PUSH2 0x912 JUMP JUMPDEST POP POP POP POP SWAP1 POP SWAP2 SWAP1 POP JUMP JUMPDEST PUSH1 0x8 PUSH1 0x0 DUP2 SLOAD DUP1 SWAP3 SWAP2 SWAP1 PUSH2 0x9DC SWAP1 PUSH2 0x5278 JUMP JUMPDEST SWAP2 SWAP1 POP SSTORE POP PUSH1 0x0 JUMPDEST DUP3 MLOAD DUP2 LT ISZERO PUSH2 0xA62 JUMPI PUSH1 0x1 PUSH1 0x0 PUSH1 0x8 SLOAD DUP2 MSTORE PUSH1 0x20 ADD SWAP1 DUP2 MSTORE PUSH1 0x20 ADD PUSH1 0x0 KECCAK256 DUP4 DUP3 DUP2 MLOAD DUP2 LT PUSH2 0xA15 JUMPI PUSH2 0xA14 PUSH2 0x521A JUMP JUMPDEST JUMPDEST PUSH1 0x20 MUL PUSH1 0x20 ADD ADD MLOAD SWAP1 DUP1 PUSH1 0x1 DUP2 SLOAD ADD DUP1 DUP3 SSTORE DUP1 SWAP2 POP POP PUSH1 0x1 SWAP1 SUB SWAP1 PUSH1 0x0 MSTORE PUSH1 0x20 PUSH1 0x0 KECCAK256 ADD PUSH1 0x0 SWAP1 SWAP2 SWAP1 SWAP2 SWAP1 SWAP2 POP SWAP1 DUP2 PUSH2 0xA4E SWAP2 SWAP1 PUSH2 0x54CC JUMP JUMPDEST POP DUP1 DUP1 PUSH2 0xA5A SWAP1 PUSH2 0x5278 JUMP JUMPDEST SWAP2 POP POP PUSH2 0x9E4 JUMP JUMPDEST POP PUSH1 0x40 MLOAD DUP1 PUSH1 0x40 ADD PUSH1 0x40 MSTORE DUP1 DUP5 DUP2 MSTORE PUSH1 0x20 ADD DUP3 DUP2 MSTORE POP PUSH1 0x2 PUSH1 0x0 PUSH1 0x8 SLOAD DUP2 MSTORE PUSH1 0x20 ADD SWAP1 DUP2 MSTORE PUSH1 0x20 ADD PUSH1 0x0 KECCAK256 PUSH1 0x0 DUP3 ADD MLOAD DUP2 PUSH1 0x0 ADD SSTORE PUSH1 0x20 DUP3 ADD MLOAD DUP2 PUSH1 0x1 ADD SSTORE SWAP1 POP POP POP POP POP JUMP JUMPDEST PUSH1 0x0 DUP1 PUSH1 0x0 SWAP1 POP PUSH1 0x0 JUMPDEST PUSH1 0x1 PUSH1 0x0 DUP6 DUP2 MSTORE PUSH1 0x20 ADD SWAP1 DUP2 MSTORE PUSH1 0x20 ADD PUSH1 0x0 KECCAK256 DUP1 SLOAD SWAP1 POP DUP2 LT ISZERO PUSH2 0xB41 JUMPI PUSH1 0x0 PUSH1 0x1 PUSH1 0x0 DUP7 DUP2 MSTORE PUSH1 0x20 ADD SWAP1 DUP2 MSTORE PUSH1 0x20 ADD PUSH1 0x0 KECCAK256 DUP3 DUP2 SLOAD DUP2 LT PUSH2 0xAF8 JUMPI PUSH2 0xAF7 PUSH2 0x521A JUMP JUMPDEST JUMPDEST SWAP1 PUSH1 0x0 MSTORE PUSH1 0x20 PUSH1 0x0 KECCAK256 ADD PUSH1 0x40 MLOAD PUSH2 0xB0F SWAP2 SWAP1 PUSH2 0x562C JUMP JUMPDEST SWAP1 DUP2 MSTORE PUSH1 0x20 ADD PUSH1 0x40 MLOAD DUP1 SWAP2 SUB SWAP1 KECCAK256 DUP1 SLOAD SWAP1 POP DUP3 PUSH2 0xB2C SWAP2 SWAP1 PUSH2 0x5643 JUMP JUMPDEST SWAP2 POP DUP1 DUP1 PUSH2 0xB39 SWAP1 PUSH2 0x5278 JUMP JUMPDEST SWAP2 POP POP PUSH2 0xAB3 JUMP JUMPDEST POP DUP1 SWAP2 POP POP SWAP2 SWAP1 POP JUMP JUMPDEST PUSH2 0xB53 PUSH2 0x3B2E JUMP JUMPDEST PUSH1 0x3 PUSH1 0x0 DUP4 PUSH4 0xFFFFFFFF AND PUSH4 0xFFFFFFFF AND DUP2 MSTORE PUSH1 0x20 ADD SWAP1 DUP2 MSTORE PUSH1 0x20 ADD PUSH1 0x0 KECCAK256 PUSH1 0x40 MLOAD DUP1 PUSH1 0x40 ADD PUSH1 0x40 MSTORE SWAP1 DUP2 PUSH1 0x0 DUP3 ADD PUSH1 0x0 SWAP1 SLOAD SWAP1 PUSH2 0x100 EXP SWAP1 DIV PUSH1 0xFF AND PUSH1 0xFF AND PUSH1 0xFF AND DUP2 MSTORE PUSH1 0x20 ADD PUSH1 0x0 DUP3 ADD PUSH1 0x1 SWAP1 SLOAD SWAP1 PUSH2 0x100 EXP SWAP1 DIV PUSH1 0xFF AND PUSH1 0xFF AND PUSH1 0xFF AND DUP2 MSTORE POP POP SWAP1 POP SWAP2 SWAP1 POP JUMP JUMPDEST PUSH1 0x0 JUMPDEST DUP2 MLOAD DUP2 LT ISZERO PUSH2 0xD48 JUMPI PUSH1 0x0 DUP4 PUSH1 0x40 MLOAD PUSH2 0xBDA SWAP2 SWAP1 PUSH2 0x56CA JUMP JUMPDEST SWAP1 DUP2 MSTORE PUSH1 0x20 ADD PUSH1 0x40 MLOAD DUP1 SWAP2 SUB SWAP1 KECCAK256 PUSH1 0x40 MLOAD DUP1 PUSH1 0x80 ADD PUSH1 0x40 MSTORE DUP1 DUP5 DUP5 DUP2 MLOAD DUP2 LT PUSH2 0xC06 JUMPI PUSH2 0xC05 PUSH2 0x521A JUMP JUMPDEST JUMPDEST PUSH1 0x20 MUL PUSH1 0x20 ADD ADD MLOAD PUSH1 0x0 ADD MLOAD PUSH4 0xFFFFFFFF AND DUP2 MSTORE PUSH1 0x20 ADD DUP5 DUP5 DUP2 MLOAD DUP2 LT PUSH2 0xC30 JUMPI PUSH2 0xC2F PUSH2 0x521A JUMP JUMPDEST JUMPDEST PUSH1 0x20 MUL PUSH1 0x20 ADD ADD MLOAD PUSH1 0x20 ADD MLOAD PUSH5 0xFFFFFFFFFF AND DUP2 MSTORE PUSH1 0x20 ADD DUP5 DUP5 DUP2 MLOAD DUP2 LT PUSH2 0xC5B JUMPI PUSH2 0xC5A PUSH2 0x521A JUMP JUMPDEST JUMPDEST PUSH1 0x20 MUL PUSH1 0x20 ADD ADD MLOAD PUSH1 0x40 ADD MLOAD DUP2 MSTORE PUSH1 0x20 ADD DUP5 DUP5 DUP2 MLOAD DUP2 LT PUSH2 0xC7F JUMPI PUSH2 0xC7E PUSH2 0x521A JUMP JUMPDEST JUMPDEST PUSH1 0x20 MUL PUSH1 0x20 ADD ADD MLOAD PUSH1 0x60 ADD MLOAD DUP2 MSTORE POP SWAP1 DUP1 PUSH1 0x1 DUP2 SLOAD ADD DUP1 DUP3 SSTORE DUP1 SWAP2 POP POP PUSH1 0x1 SWAP1 SUB SWAP1 PUSH1 0x0 MSTORE PUSH1 0x20 PUSH1 0x0 KECCAK256 SWAP1 PUSH1 0x3 MUL ADD PUSH1 0x0 SWAP1 SWAP2 SWAP1 SWAP2 SWAP1 SWAP2 POP PUSH1 0x0 DUP3 ADD MLOAD DUP2 PUSH1 0x0 ADD PUSH1 0x0 PUSH2 0x100 EXP DUP2 SLOAD DUP2 PUSH4 0xFFFFFFFF MUL NOT AND SWAP1 DUP4 PUSH4 0xFFFFFFFF AND MUL OR SWAP1 SSTORE POP PUSH1 0x20 DUP3 ADD MLOAD DUP2 PUSH1 0x0 ADD PUSH1 0x4 PUSH2 0x100 EXP DUP2 SLOAD DUP2 PUSH5 0xFFFFFFFFFF MUL NOT AND SWAP1 DUP4 PUSH5 0xFFFFFFFFFF AND MUL OR SWAP1 SSTORE POP PUSH1 0x40 DUP3 ADD MLOAD DUP2 PUSH1 0x1 ADD SWAP1 DUP2 PUSH2 0xD1C SWAP2 SWAP1 PUSH2 0x54CC JUMP JUMPDEST POP PUSH1 0x60 DUP3 ADD MLOAD DUP2 PUSH1 0x2 ADD SWAP1 DUP2 PUSH2 0xD32 SWAP2 SWAP1 PUSH2 0x54CC JUMP JUMPDEST POP POP POP DUP1 DUP1 PUSH2 0xD40 SWAP1 PUSH2 0x5278 JUMP JUMPDEST SWAP2 POP POP PUSH2 0xBC1 JUMP JUMPDEST POP POP POP JUMP JUMPDEST PUSH1 0x60 PUSH1 0x12 PUSH1 0x0 DUP4 DUP2 MSTORE PUSH1 0x20 ADD SWAP1 DUP2 MSTORE PUSH1 0x20 ADD PUSH1 0x0 KECCAK256 DUP1 SLOAD DUP1 PUSH1 0x20 MUL PUSH1 0x20 ADD PUSH1 0x40 MLOAD SWAP1 DUP2 ADD PUSH1 0x40 MSTORE DUP1 SWAP3 SWAP2 SWAP1 DUP2 DUP2 MSTORE PUSH1 0x20 ADD PUSH1 0x0 SWAP1 JUMPDEST DUP3 DUP3 LT ISZERO PUSH2 0xE32 JUMPI DUP4 DUP3 SWAP1 PUSH1 0x0 MSTORE PUSH1 0x20 PUSH1 0x0 KECCAK256 SWAP1 PUSH1 0x5 MUL ADD PUSH1 0x40 MLOAD DUP1 PUSH1 0xA0 ADD PUSH1 0x40 MSTORE SWAP1 DUP2 PUSH1 0x0 DUP3 ADD PUSH1 0x0 SWAP1 SLOAD SWAP1 PUSH2 0x100 EXP SWAP1 DIV PUSH20 0xFFFFFFFFFFFFFFFFFFFFFFFFFFFFFFFFFFFFFFFF AND PUSH20 0xFFFFFFFFFFFFFFFFFFFFFFFFFFFFFFFFFFFFFFFF AND PUSH20 0xFFFFFFFFFFFFFFFFFFFFFFFFFFFFFFFFFFFFFFFF AND DUP2 MSTORE PUSH1 0x20 ADD PUSH1 0x1 DUP3 ADD SLOAD DUP2 MSTORE PUSH1 0x20 ADD PUSH1 0x2 DUP3 ADD SLOAD DUP2 MSTORE PUSH1 0x20 ADD PUSH1 0x3 DUP3 ADD SLOAD DUP2 MSTORE PUSH1 0x20 ADD PUSH1 0x4 DUP3 ADD SLOAD DUP2 MSTORE POP POP DUP2 MSTORE PUSH1 0x20 ADD SWAP1 PUSH1 0x1 ADD SWAP1 PUSH2 0xD82 JUMP JUMPDEST POP POP POP POP SWAP1 POP SWAP2 SWAP1 POP JUMP JUMPDEST PUSH1 0x0 JUMPDEST DUP2 MLOAD DUP2 LT ISZERO PUSH2 0xF8B JUMPI PUSH1 0x40 MLOAD DUP1 PUSH1 0x40 ADD PUSH1 0x40 MSTORE DUP1 DUP4 DUP4 DUP2 MLOAD DUP2 LT PUSH2 0xE67 JUMPI PUSH2 0xE66 PUSH2 0x521A JUMP JUMPDEST JUMPDEST PUSH1 0x20 MUL PUSH1 0x20 ADD ADD MLOAD PUSH1 0x20 ADD MLOAD PUSH1 0xFF AND DUP2 MSTORE PUSH1 0x20 ADD DUP4 DUP4 DUP2 MLOAD DUP2 LT PUSH2 0xE8E JUMPI PUSH2 0xE8D PUSH2 0x521A JUMP JUMPDEST JUMPDEST PUSH1 0x20 MUL PUSH1 0x20 ADD ADD MLOAD PUSH1 0x40 ADD MLOAD PUSH1 0xFF AND DUP2 MSTORE POP PUSH1 0x3 PUSH1 0x0 DUP5 DUP5 DUP2 MLOAD DUP2 LT PUSH2 0xEB7 JUMPI PUSH2 0xEB6 PUSH2 0x521A JUMP JUMPDEST JUMPDEST PUSH1 0x20 MUL PUSH1 0x20 ADD ADD MLOAD PUSH1 0x0 ADD MLOAD PUSH4 0xFFFFFFFF AND PUSH4 0xFFFFFFFF AND DUP2 MSTORE PUSH1 0x20 ADD SWAP1 DUP2 MSTORE PUSH1 0x20 ADD PUSH1 0x0 KECCAK256 PUSH1 0x0 DUP3 ADD MLOAD DUP2 PUSH1 0x0 ADD PUSH1 0x0 PUSH2 0x100 EXP DUP2 SLOAD DUP2 PUSH1 0xFF MUL NOT AND SWAP1 DUP4 PUSH1 0xFF AND MUL OR SWAP1 SSTORE POP PUSH1 0x20 DUP3 ADD MLOAD DUP2 PUSH1 0x0 ADD PUSH1 0x1 PUSH2 0x100 EXP DUP2 SLOAD DUP2 PUSH1 0xFF MUL NOT AND SWAP1 DUP4 PUSH1 0xFF AND MUL OR SWAP1 SSTORE POP SWAP1 POP POP PUSH1 0x1 PUSH1 0x9 PUSH1 0x0 DUP5 DUP5 DUP2 MLOAD DUP2 LT PUSH2 0xF3B JUMPI PUSH2 0xF3A PUSH2 0x521A JUMP JUMPDEST JUMPDEST PUSH1 0x20 MUL PUSH1 0x20 ADD ADD MLOAD PUSH1 0x0 ADD MLOAD PUSH4 0xFFFFFFFF AND PUSH4 0xFFFFFFFF AND DUP2 MSTORE PUSH1 0x20 ADD SWAP1 DUP2 MSTORE PUSH1 0x20 ADD PUSH1 0x0 KECCAK256 PUSH1 0x0 PUSH2 0x100 EXP DUP2 SLOAD DUP2 PUSH1 0xFF MUL NOT AND SWAP1 DUP4 ISZERO ISZERO MUL OR SWAP1 SSTORE POP DUP1 DUP1 PUSH2 0xF83 SWAP1 PUSH2 0x5278 JUMP JUMPDEST SWAP2 POP POP PUSH2 0xE40 JUMP JUMPDEST POP POP JUMP JUMPDEST PUSH2 0xF97 PUSH2 0x37E6 JUMP JUMPDEST PUSH2 0xF9F PUSH2 0x3864 JUMP JUMPDEST JUMP JUMPDEST PUSH1 0x0 DUP1 PUSH2 0xFAD DUP5 PUSH2 0x219F JUMP JUMPDEST SWAP1 POP PUSH1 0x0 DUP1 DUP3 MLOAD SWAP1 POP PUSH1 0x0 DUP1 DUP3 PUSH8 0xFFFFFFFFFFFFFFFF DUP2 GT ISZERO PUSH2 0xFD3 JUMPI PUSH2 0xFD2 PUSH2 0x404E JUMP JUMPDEST JUMPDEST PUSH1 0x40 MLOAD SWAP1 DUP1 DUP3 MSTORE DUP1 PUSH1 0x20 MUL PUSH1 0x20 ADD DUP3 ADD PUSH1 0x40 MSTORE DUP1 ISZERO PUSH2 0x100C JUMPI DUP2 PUSH1 0x20 ADD JUMPDEST PUSH2 0xFF9 PUSH2 0x3B4E JUMP JUMPDEST DUP2 MSTORE PUSH1 0x20 ADD SWAP1 PUSH1 0x1 SWAP1 SUB SWAP1 DUP2 PUSH2 0xFF1 JUMPI SWAP1 POP JUMPDEST POP SWAP1 POP PUSH1 0x0 JUMPDEST DUP4 DUP2 LT ISZERO PUSH2 0x112E JUMPI PUSH1 0x1 SWAP5 POP PUSH1 0x0 JUMPDEST DUP5 DUP2 LT ISZERO PUSH2 0x108F JUMPI DUP7 DUP2 DUP2 MLOAD DUP2 LT PUSH2 0x103C JUMPI PUSH2 0x103B PUSH2 0x521A JUMP JUMPDEST JUMPDEST PUSH1 0x20 MUL PUSH1 0x20 ADD ADD MLOAD PUSH1 0x40 ADD MLOAD DUP8 DUP4 DUP2 MLOAD DUP2 LT PUSH2 0x105B JUMPI PUSH2 0x105A PUSH2 0x521A JUMP JUMPDEST JUMPDEST PUSH1 0x20 MUL PUSH1 0x20 ADD ADD MLOAD PUSH1 0x40 ADD MLOAD LT ISZERO PUSH2 0x107C JUMPI DUP6 DUP1 PUSH2 0x1078 SWAP1 PUSH2 0x5278 JUMP JUMPDEST SWAP7 POP POP JUMPDEST DUP1 DUP1 PUSH2 0x1087 SWAP1 PUSH2 0x5278 JUMP JUMPDEST SWAP2 POP POP PUSH2 0x1021 JUMP JUMPDEST POP PUSH1 0x40 MLOAD DUP1 PUSH1 0x60 ADD PUSH1 0x40 MSTORE DUP1 DUP8 DUP4 DUP2 MLOAD DUP2 LT PUSH2 0x10AE JUMPI PUSH2 0x10AD PUSH2 0x521A JUMP JUMPDEST JUMPDEST PUSH1 0x20 MUL PUSH1 0x20 ADD ADD MLOAD PUSH1 0x0 ADD MLOAD PUSH20 0xFFFFFFFFFFFFFFFFFFFFFFFFFFFFFFFFFFFFFFFF AND DUP2 MSTORE PUSH1 0x20 ADD DUP8 DUP4 DUP2 MLOAD DUP2 LT PUSH2 0x10E8 JUMPI PUSH2 0x10E7 PUSH2 0x521A JUMP JUMPDEST JUMPDEST PUSH1 0x20 MUL PUSH1 0x20 ADD ADD MLOAD PUSH1 0x40 ADD MLOAD DUP2 MSTORE PUSH1 0x20 ADD DUP7 DUP2 MSTORE POP DUP3 DUP3 DUP2 MLOAD DUP2 LT PUSH2 0x1110 JUMPI PUSH2 0x110F PUSH2 0x521A JUMP JUMPDEST JUMPDEST PUSH1 0x20 MUL PUSH1 0x20 ADD ADD DUP2 SWAP1 MSTORE POP DUP1 DUP1 PUSH2 0x1126 SWAP1 PUSH2 0x5278 JUMP JUMPDEST SWAP2 POP POP PUSH2 0x1012 JUMP JUMPDEST POP PUSH1 0x0 JUMPDEST DUP4 DUP2 LT ISZERO PUSH2 0x11C4 JUMPI DUP2 DUP2 DUP2 MLOAD DUP2 LT PUSH2 0x114D JUMPI PUSH2 0x114C PUSH2 0x521A JUMP JUMPDEST JUMPDEST PUSH1 0x20 MUL PUSH1 0x20 ADD ADD MLOAD PUSH1 0x0 ADD MLOAD PUSH20 0xFFFFFFFFFFFFFFFFFFFFFFFFFFFFFFFFFFFFFFFF AND DUP9 PUSH20 0xFFFFFFFFFFFFFFFFFFFFFFFFFFFFFFFFFFFFFFFF AND SUB PUSH2 0x11B1 JUMPI DUP2 DUP2 DUP2 MLOAD DUP2 LT PUSH2 0x119E JUMPI PUSH2 0x119D PUSH2 0x521A JUMP JUMPDEST JUMPDEST PUSH1 0x20 MUL PUSH1 0x20 ADD ADD MLOAD PUSH1 0x40 ADD MLOAD SWAP3 POP PUSH2 0x11C4 JUMP JUMPDEST DUP1 DUP1 PUSH2 0x11BC SWAP1 PUSH2 0x5278 JUMP JUMPDEST SWAP2 POP POP PUSH2 0x1132 JUMP JUMPDEST POP DUP2 SWAP6 POP POP POP POP POP POP SWAP3 SWAP2 POP POP JUMP JUMPDEST PUSH1 0x12 PUSH1 0x20 MSTORE DUP2 PUSH1 0x0 MSTORE PUSH1 0x40 PUSH1 0x0 KECCAK256 DUP2 DUP2 SLOAD DUP2 LT PUSH2 0x11EF JUMPI PUSH1 0x0 DUP1 REVERT JUMPDEST SWAP1 PUSH1 0x0 MSTORE PUSH1 0x20 PUSH1 0x0 KECCAK256 SWAP1 PUSH1 0x5 MUL ADD PUSH1 0x0 SWAP2 POP SWAP2 POP POP DUP1 PUSH1 0x0 ADD PUSH1 0x0 SWAP1 SLOAD SWAP1 PUSH2 0x100 EXP SWAP1 DIV PUSH20 0xFFFFFFFFFFFFFFFFFFFFFFFFFFFFFFFFFFFFFFFF AND SWAP1 DUP1 PUSH1 0x1 ADD SLOAD SWAP1 DUP1 PUSH1 0x2 ADD SLOAD SWAP1 DUP1 PUSH1 0x3 ADD SLOAD SWAP1 DUP1 PUSH1 0x4 ADD SLOAD SWAP1 POP DUP6 JUMP JUMPDEST PUSH1 0x0 PUSH1 0xA PUSH1 0x14 SWAP1 SLOAD SWAP1 PUSH2 0x100 EXP SWAP1 DIV PUSH1 0xFF AND SWAP1 POP SWAP1 JUMP JUMPDEST PUSH1 0x0 PUSH1 0x5 PUSH1 0x0 DUP4 DUP2 MSTORE PUSH1 0x20 ADD SWAP1 DUP2 MSTORE PUSH1 0x20 ADD PUSH1 0x0 KECCAK256 DUP1 SLOAD SWAP1 POP SWAP1 POP SWAP2 SWAP1 POP JUMP JUMPDEST PUSH2 0x1285 PUSH2 0x37E6 JUMP JUMPDEST PUSH2 0x128F PUSH1 0x0 PUSH2 0x38C7 JUMP JUMPDEST JUMP JUMPDEST PUSH1 0x60 PUSH1 0x0 PUSH2 0x129E DUP4 PUSH2 0xAA9 JUMP JUMPDEST SWAP1 POP PUSH1 0x0 DUP1 DUP3 PUSH8 0xFFFFFFFFFFFFFFFF DUP2 GT ISZERO PUSH2 0x12BD JUMPI PUSH2 0x12BC PUSH2 0x404E JUMP JUMPDEST JUMPDEST PUSH1 0x40 MLOAD SWAP1 DUP1 DUP3 MSTORE DUP1 PUSH1 0x20 MUL PUSH1 0x20 ADD DUP3 ADD PUSH1 0x40 MSTORE DUP1 ISZERO PUSH2 0x12F6 JUMPI DUP2 PUSH1 0x20 ADD JUMPDEST PUSH2 0x12E3 PUSH2 0x3AF9 JUMP JUMPDEST DUP2 MSTORE PUSH1 0x20 ADD SWAP1 PUSH1 0x1 SWAP1 SUB SWAP1 DUP2 PUSH2 0x12DB JUMPI SWAP1 POP JUMPDEST POP SWAP1 POP PUSH1 0x0 JUMPDEST PUSH1 0x1 PUSH1 0x0 DUP8 DUP2 MSTORE PUSH1 0x20 ADD SWAP1 DUP2 MSTORE PUSH1 0x20 ADD PUSH1 0x0 KECCAK256 DUP1 SLOAD SWAP1 POP DUP2 LT ISZERO PUSH2 0x15B4 JUMPI PUSH1 0x0 PUSH1 0x1 PUSH1 0x0 DUP9 DUP2 MSTORE PUSH1 0x20 ADD SWAP1 DUP2 MSTORE PUSH1 0x20 ADD PUSH1 0x0 KECCAK256 DUP3 DUP2 SLOAD DUP2 LT PUSH2 0x1341 JUMPI PUSH2 0x1340 PUSH2 0x521A JUMP JUMPDEST JUMPDEST SWAP1 PUSH1 0x0 MSTORE PUSH1 0x20 PUSH1 0x0 KECCAK256 ADD PUSH1 0x40 MLOAD PUSH2 0x1358 SWAP2 SWAP1 PUSH2 0x562C JUMP JUMPDEST SWAP1 DUP2 MSTORE PUSH1 0x20 ADD PUSH1 0x40 MLOAD DUP1 SWAP2 SUB SWAP1 KECCAK256 DUP1 SLOAD SWAP1 POP SWAP4 POP PUSH1 0x0 JUMPDEST DUP5 DUP2 LT ISZERO PUSH2 0x15A0 JUMPI PUSH1 0x0 PUSH1 0x1 PUSH1 0x0 DUP10 DUP2 MSTORE PUSH1 0x20 ADD SWAP1 DUP2 MSTORE PUSH1 0x20 ADD PUSH1 0x0 KECCAK256 DUP4 DUP2 SLOAD DUP2 LT PUSH2 0x139E JUMPI PUSH2 0x139D PUSH2 0x521A JUMP JUMPDEST JUMPDEST SWAP1 PUSH1 0x0 MSTORE PUSH1 0x20 PUSH1 0x0 KECCAK256 ADD PUSH1 0x40 MLOAD PUSH2 0x13B5 SWAP2 SWAP1 PUSH2 0x562C JUMP JUMPDEST SWAP1 DUP2 MSTORE PUSH1 0x20 ADD PUSH1 0x40 MLOAD DUP1 SWAP2 SUB SWAP1 KECCAK256 DUP2 DUP2 SLOAD DUP2 LT PUSH2 0x13D5 JUMPI PUSH2 0x13D4 PUSH2 0x521A JUMP JUMPDEST JUMPDEST SWAP1 PUSH1 0x0 MSTORE PUSH1 0x20 PUSH1 0x0 KECCAK256 SWAP1 PUSH1 0x3 MUL ADD PUSH1 0x40 MLOAD DUP1 PUSH1 0x80 ADD PUSH1 0x40 MSTORE SWAP1 DUP2 PUSH1 0x0 DUP3 ADD PUSH1 0x0 SWAP1 SLOAD SWAP1 PUSH2 0x100 EXP SWAP1 DIV PUSH4 0xFFFFFFFF AND PUSH4 0xFFFFFFFF AND PUSH4 0xFFFFFFFF AND DUP2 MSTORE PUSH1 0x20 ADD PUSH1 0x0 DUP3 ADD PUSH1 0x4 SWAP1 SLOAD SWAP1 PUSH2 0x100 EXP SWAP1 DIV PUSH5 0xFFFFFFFFFF AND PUSH5 0xFFFFFFFFFF AND PUSH5 0xFFFFFFFFFF AND DUP2 MSTORE PUSH1 0x20 ADD PUSH1 0x1 DUP3 ADD DUP1 SLOAD PUSH2 0x144D SWAP1 PUSH2 0x52EF JUMP JUMPDEST DUP1 PUSH1 0x1F ADD PUSH1 0x20 DUP1 SWAP2 DIV MUL PUSH1 0x20 ADD PUSH1 0x40 MLOAD SWAP1 DUP2 ADD PUSH1 0x40 MSTORE DUP1 SWAP3 SWAP2 SWAP1 DUP2 DUP2 MSTORE PUSH1 0x20 ADD DUP3 DUP1 SLOAD PUSH2 0x1479 SWAP1 PUSH2 0x52EF JUMP JUMPDEST DUP1 ISZERO PUSH2 0x14C6 JUMPI DUP1 PUSH1 0x1F LT PUSH2 0x149B JUMPI PUSH2 0x100 DUP1 DUP4 SLOAD DIV MUL DUP4 MSTORE SWAP2 PUSH1 0x20 ADD SWAP2 PUSH2 0x14C6 JUMP JUMPDEST DUP3 ADD SWAP2 SWAP1 PUSH1 0x0 MSTORE PUSH1 0x20 PUSH1 0x0 KECCAK256 SWAP1 JUMPDEST DUP2 SLOAD DUP2 MSTORE SWAP1 PUSH1 0x1 ADD SWAP1 PUSH1 0x20 ADD DUP1 DUP4 GT PUSH2 0x14A9 JUMPI DUP3 SWAP1 SUB PUSH1 0x1F AND DUP3 ADD SWAP2 JUMPDEST POP POP POP POP POP DUP2 MSTORE PUSH1 0x20 ADD PUSH1 0x2 DUP3 ADD DUP1 SLOAD PUSH2 0x14DF SWAP1 PUSH2 0x52EF JUMP JUMPDEST DUP1 PUSH1 0x1F ADD PUSH1 0x20 DUP1 SWAP2 DIV MUL PUSH1 0x20 ADD PUSH1 0x40 MLOAD SWAP1 DUP2 ADD PUSH1 0x40 MSTORE DUP1 SWAP3 SWAP2 SWAP1 DUP2 DUP2 MSTORE PUSH1 0x20 ADD DUP3 DUP1 SLOAD PUSH2 0x150B SWAP1 PUSH2 0x52EF JUMP JUMPDEST DUP1 ISZERO PUSH2 0x1558 JUMPI DUP1 PUSH1 0x1F LT PUSH2 0x152D JUMPI PUSH2 0x100 DUP1 DUP4 SLOAD DIV MUL DUP4 MSTORE SWAP2 PUSH1 0x20 ADD SWAP2 PUSH2 0x1558 JUMP JUMPDEST DUP3 ADD SWAP2 SWAP1 PUSH1 0x0 MSTORE PUSH1 0x20 PUSH1 0x0 KECCAK256 SWAP1 JUMPDEST DUP2 SLOAD DUP2 MSTORE SWAP1 PUSH1 0x1 ADD SWAP1 PUSH1 0x20 ADD DUP1 DUP4 GT PUSH2 0x153B JUMPI DUP3 SWAP1 SUB PUSH1 0x1F AND DUP3 ADD SWAP2 JUMPDEST POP POP POP POP POP DUP2 MSTORE POP POP DUP4 DUP6 DUP2 MLOAD DUP2 LT PUSH2 0x1574 JUMPI PUSH2 0x1573 PUSH2 0x521A JUMP JUMPDEST JUMPDEST PUSH1 0x20 MUL PUSH1 0x20 ADD ADD DUP2 SWAP1 MSTORE POP DUP4 DUP1 PUSH2 0x158A SWAP1 PUSH2 0x5278 JUMP JUMPDEST SWAP5 POP POP DUP1 DUP1 PUSH2 0x1598 SWAP1 PUSH2 0x5278 JUMP JUMPDEST SWAP2 POP POP PUSH2 0x136F JUMP JUMPDEST POP DUP1 DUP1 PUSH2 0x15AC SWAP1 PUSH2 0x5278 JUMP JUMPDEST SWAP2 POP POP PUSH2 0x12FC JUMP JUMPDEST POP DUP1 SWAP4 POP POP POP POP SWAP2 SWAP1 POP JUMP JUMPDEST PUSH1 0x0 DUP1 PUSH1 0x0 DUP1 PUSH1 0x0 SWAP1 POP PUSH1 0x0 DUP1 PUSH2 0x15D6 DUP9 PUSH2 0xAA9 JUMP JUMPDEST SWAP1 POP PUSH1 0x0 DUP2 PUSH8 0xFFFFFFFFFFFFFFFF DUP2 GT ISZERO PUSH2 0x15F4 JUMPI PUSH2 0x15F3 PUSH2 0x404E JUMP JUMPDEST JUMPDEST PUSH1 0x40 MLOAD SWAP1 DUP1 DUP3 MSTORE DUP1 PUSH1 0x20 MUL PUSH1 0x20 ADD DUP3 ADD PUSH1 0x40 MSTORE DUP1 ISZERO PUSH2 0x162D JUMPI DUP2 PUSH1 0x20 ADD JUMPDEST PUSH2 0x161A PUSH2 0x3AF9 JUMP JUMPDEST DUP2 MSTORE PUSH1 0x20 ADD SWAP1 PUSH1 0x1 SWAP1 SUB SWAP1 DUP2 PUSH2 0x1612 JUMPI SWAP1 POP JUMPDEST POP SWAP1 POP PUSH2 0x1639 DUP10 PUSH2 0x1291 JUMP JUMPDEST SWAP1 POP PUSH1 0x0 JUMPDEST DUP3 DUP2 LT ISZERO PUSH2 0x19C5 JUMPI DUP2 DUP2 DUP2 MLOAD DUP2 LT PUSH2 0x1659 JUMPI PUSH2 0x1658 PUSH2 0x521A JUMP JUMPDEST JUMPDEST PUSH1 0x20 MUL PUSH1 0x20 ADD ADD MLOAD PUSH1 0x0 ADD MLOAD SWAP4 POP PUSH2 0x176B PUSH1 0x4 PUSH1 0x0 DUP12 PUSH20 0xFFFFFFFFFFFFFFFFFFFFFFFFFFFFFFFFFFFFFFFF AND PUSH20 0xFFFFFFFFFFFFFFFFFFFFFFFFFFFFFFFFFFFFFFFF AND DUP2 MSTORE PUSH1 0x20 ADD SWAP1 DUP2 MSTORE PUSH1 0x20 ADD PUSH1 0x0 KECCAK256 PUSH1 0x0 DUP13 DUP2 MSTORE PUSH1 0x20 ADD SWAP1 DUP2 MSTORE PUSH1 0x20 ADD PUSH1 0x0 KECCAK256 PUSH1 0x0 DUP7 PUSH4 0xFFFFFFFF AND PUSH4 0xFFFFFFFF AND DUP2 MSTORE PUSH1 0x20 ADD SWAP1 DUP2 MSTORE PUSH1 0x20 ADD PUSH1 0x0 KECCAK256 PUSH1 0x0 ADD PUSH1 0x0 SWAP1 SLOAD SWAP1 PUSH2 0x100 EXP SWAP1 DIV PUSH1 0xFF AND PUSH1 0x4 PUSH1 0x0 DUP13 PUSH20 0xFFFFFFFFFFFFFFFFFFFFFFFFFFFFFFFFFFFFFFFF AND PUSH20 0xFFFFFFFFFFFFFFFFFFFFFFFFFFFFFFFFFFFFFFFF AND DUP2 MSTORE PUSH1 0x20 ADD SWAP1 DUP2 MSTORE PUSH1 0x20 ADD PUSH1 0x0 KECCAK256 PUSH1 0x0 DUP14 DUP2 MSTORE PUSH1 0x20 ADD SWAP1 DUP2 MSTORE PUSH1 0x20 ADD PUSH1 0x0 KECCAK256 PUSH1 0x0 DUP8 PUSH4 0xFFFFFFFF AND PUSH4 0xFFFFFFFF AND DUP2 MSTORE PUSH1 0x20 ADD SWAP1 DUP2 MSTORE PUSH1 0x20 ADD PUSH1 0x0 KECCAK256 PUSH1 0x0 ADD PUSH1 0x1 SWAP1 SLOAD SWAP1 PUSH2 0x100 EXP SWAP1 DIV PUSH1 0xFF AND PUSH2 0x398D JUMP JUMPDEST SWAP7 POP PUSH2 0x17D5 PUSH1 0x3 PUSH1 0x0 DUP7 PUSH4 0xFFFFFFFF AND PUSH4 0xFFFFFFFF AND DUP2 MSTORE PUSH1 0x20 ADD SWAP1 DUP2 MSTORE PUSH1 0x20 ADD PUSH1 0x0 KECCAK256 PUSH1 0x0 ADD PUSH1 0x0 SWAP1 SLOAD SWAP1 PUSH2 0x100 EXP SWAP1 DIV PUSH1 0xFF AND PUSH1 0x3 PUSH1 0x0 DUP8 PUSH4 0xFFFFFFFF AND PUSH4 0xFFFFFFFF AND DUP2 MSTORE PUSH1 0x20 ADD SWAP1 DUP2 MSTORE PUSH1 0x20 ADD PUSH1 0x0 KECCAK256 PUSH1 0x0 ADD PUSH1 0x1 SWAP1 SLOAD SWAP1 PUSH2 0x100 EXP SWAP1 DIV PUSH1 0xFF AND PUSH2 0x398D JUMP JUMPDEST SWAP6 POP DUP6 DUP8 EQ DUP1 ISZERO PUSH2 0x1816 JUMPI POP PUSH1 0x1 ISZERO ISZERO PUSH1 0x9 PUSH1 0x0 DUP7 PUSH4 0xFFFFFFFF AND PUSH4 0xFFFFFFFF AND DUP2 MSTORE PUSH1 0x20 ADD SWAP1 DUP2 MSTORE PUSH1 0x20 ADD PUSH1 0x0 KECCAK256 PUSH1 0x0 SWAP1 SLOAD SWAP1 PUSH2 0x100 EXP SWAP1 DIV PUSH1 0xFF AND ISZERO ISZERO EQ JUMPDEST ISZERO PUSH2 0x19B2 JUMPI PUSH1 0x1 DUP6 PUSH2 0x1828 SWAP2 SWAP1 PUSH2 0x5643 JUMP JUMPDEST SWAP5 POP PUSH1 0x3 PUSH1 0x0 DUP6 PUSH4 0xFFFFFFFF AND PUSH4 0xFFFFFFFF AND DUP2 MSTORE PUSH1 0x20 ADD SWAP1 DUP2 MSTORE PUSH1 0x20 ADD PUSH1 0x0 KECCAK256 PUSH1 0x0 ADD PUSH1 0x0 SWAP1 SLOAD SWAP1 PUSH2 0x100 EXP SWAP1 DIV PUSH1 0xFF AND PUSH1 0xFF AND PUSH1 0x4 PUSH1 0x0 DUP12 PUSH20 0xFFFFFFFFFFFFFFFFFFFFFFFFFFFFFFFFFFFFFFFF AND PUSH20 0xFFFFFFFFFFFFFFFFFFFFFFFFFFFFFFFFFFFFFFFF AND DUP2 MSTORE PUSH1 0x20 ADD SWAP1 DUP2 MSTORE PUSH1 0x20 ADD PUSH1 0x0 KECCAK256 PUSH1 0x0 DUP13 DUP2 MSTORE PUSH1 0x20 ADD SWAP1 DUP2 MSTORE PUSH1 0x20 ADD PUSH1 0x0 KECCAK256 PUSH1 0x0 DUP7 PUSH4 0xFFFFFFFF AND PUSH4 0xFFFFFFFF AND DUP2 MSTORE PUSH1 0x20 ADD SWAP1 DUP2 MSTORE PUSH1 0x20 ADD PUSH1 0x0 KECCAK256 PUSH1 0x0 ADD PUSH1 0x0 SWAP1 SLOAD SWAP1 PUSH2 0x100 EXP SWAP1 DIV PUSH1 0xFF AND PUSH1 0xFF AND EQ DUP1 ISZERO PUSH2 0x199C JUMPI POP PUSH1 0x3 PUSH1 0x0 DUP6 PUSH4 0xFFFFFFFF AND PUSH4 0xFFFFFFFF AND DUP2 MSTORE PUSH1 0x20 ADD SWAP1 DUP2 MSTORE PUSH1 0x20 ADD PUSH1 0x0 KECCAK256 PUSH1 0x0 ADD PUSH1 0x1 SWAP1 SLOAD SWAP1 PUSH2 0x100 EXP SWAP1 DIV PUSH1 0xFF AND PUSH1 0xFF AND PUSH1 0x4 PUSH1 0x0 DUP12 PUSH20 0xFFFFFFFFFFFFFFFFFFFFFFFFFFFFFFFFFFFFFFFF AND PUSH20 0xFFFFFFFFFFFFFFFFFFFFFFFFFFFFFFFFFFFFFFFF AND DUP2 MSTORE PUSH1 0x20 ADD SWAP1 DUP2 MSTORE PUSH1 0x20 ADD PUSH1 0x0 KECCAK256 PUSH1 0x0 DUP13 DUP2 MSTORE PUSH1 0x20 ADD SWAP1 DUP2 MSTORE PUSH1 0x20 ADD PUSH1 0x0 KECCAK256 PUSH1 0x0 DUP7 PUSH4 0xFFFFFFFF AND PUSH4 0xFFFFFFFF AND DUP2 MSTORE PUSH1 0x20 ADD SWAP1 DUP2 MSTORE PUSH1 0x20 ADD PUSH1 0x0 KECCAK256 PUSH1 0x0 ADD PUSH1 0x1 SWAP1 SLOAD SWAP1 PUSH2 0x100 EXP SWAP1 DIV PUSH1 0xFF AND PUSH1 0xFF AND EQ JUMPDEST ISZERO PUSH2 0x19B1 JUMPI PUSH1 0x2 DUP6 PUSH2 0x19AE SWAP2 SWAP1 PUSH2 0x5643 JUMP JUMPDEST SWAP5 POP JUMPDEST JUMPDEST DUP1 DUP1 PUSH2 0x19BD SWAP1 PUSH2 0x5278 JUMP JUMPDEST SWAP2 POP POP PUSH2 0x163E JUMP JUMPDEST POP DUP4 SWAP7 POP POP POP POP POP POP POP SWAP3 SWAP2 POP POP JUMP JUMPDEST PUSH2 0x19DD PUSH2 0x3AF9 JUMP JUMPDEST PUSH1 0x0 DUP4 PUSH1 0x40 MLOAD PUSH2 0x19ED SWAP2 SWAP1 PUSH2 0x56CA JUMP JUMPDEST SWAP1 DUP2 MSTORE PUSH1 0x20 ADD PUSH1 0x40 MLOAD DUP1 SWAP2 SUB SWAP1 KECCAK256 DUP3 DUP2 SLOAD DUP2 LT PUSH2 0x1A0D JUMPI PUSH2 0x1A0C PUSH2 0x521A JUMP JUMPDEST JUMPDEST SWAP1 PUSH1 0x0 MSTORE PUSH1 0x20 PUSH1 0x0 KECCAK256 SWAP1 PUSH1 0x3 MUL ADD PUSH1 0x40 MLOAD DUP1 PUSH1 0x80 ADD PUSH1 0x40 MSTORE SWAP1 DUP2 PUSH1 0x0 DUP3 ADD PUSH1 0x0 SWAP1 SLOAD SWAP1 PUSH2 0x100 EXP SWAP1 DIV PUSH4 0xFFFFFFFF AND PUSH4 0xFFFFFFFF AND PUSH4 0xFFFFFFFF AND DUP2 MSTORE PUSH1 0x20 ADD PUSH1 0x0 DUP3 ADD PUSH1 0x4 SWAP1 SLOAD SWAP1 PUSH2 0x100 EXP SWAP1 DIV PUSH5 0xFFFFFFFFFF AND PUSH5 0xFFFFFFFFFF AND PUSH5 0xFFFFFFFFFF AND DUP2 MSTORE PUSH1 0x20 ADD PUSH1 0x1 DUP3 ADD DUP1 SLOAD PUSH2 0x1A85 SWAP1 PUSH2 0x52EF JUMP JUMPDEST DUP1 PUSH1 0x1F ADD PUSH1 0x20 DUP1 SWAP2 DIV MUL PUSH1 0x20 ADD PUSH1 0x40 MLOAD SWAP1 DUP2 ADD PUSH1 0x40 MSTORE DUP1 SWAP3 SWAP2 SWAP1 DUP2 DUP2 MSTORE PUSH1 0x20 ADD DUP3 DUP1 SLOAD PUSH2 0x1AB1 SWAP1 PUSH2 0x52EF JUMP JUMPDEST DUP1 ISZERO PUSH2 0x1AFE JUMPI DUP1 PUSH1 0x1F LT PUSH2 0x1AD3 JUMPI PUSH2 0x100 DUP1 DUP4 SLOAD DIV MUL DUP4 MSTORE SWAP2 PUSH1 0x20 ADD SWAP2 PUSH2 0x1AFE JUMP JUMPDEST DUP3 ADD SWAP2 SWAP1 PUSH1 0x0 MSTORE PUSH1 0x20 PUSH1 0x0 KECCAK256 SWAP1 JUMPDEST DUP2 SLOAD DUP2 MSTORE SWAP1 PUSH1 0x1 ADD SWAP1 PUSH1 0x20 ADD DUP1 DUP4 GT PUSH2 0x1AE1 JUMPI DUP3 SWAP1 SUB PUSH1 0x1F AND DUP3 ADD SWAP2 JUMPDEST POP POP POP POP POP DUP2 MSTORE PUSH1 0x20 ADD PUSH1 0x2 DUP3 ADD DUP1 SLOAD PUSH2 0x1B17 SWAP1 PUSH2 0x52EF JUMP JUMPDEST DUP1 PUSH1 0x1F ADD PUSH1 0x20 DUP1 SWAP2 DIV MUL PUSH1 0x20 ADD PUSH1 0x40 MLOAD SWAP1 DUP2 ADD PUSH1 0x40 MSTORE DUP1 SWAP3 SWAP2 SWAP1 DUP2 DUP2 MSTORE PUSH1 0x20 ADD DUP3 DUP1 SLOAD PUSH2 0x1B43 SWAP1 PUSH2 0x52EF JUMP JUMPDEST DUP1 ISZERO PUSH2 0x1B90 JUMPI DUP1 PUSH1 0x1F LT PUSH2 0x1B65 JUMPI PUSH2 0x100 DUP1 DUP4 SLOAD DIV MUL DUP4 MSTORE SWAP2 PUSH1 0x20 ADD SWAP2 PUSH2 0x1B90 JUMP JUMPDEST DUP3 ADD SWAP2 SWAP1 PUSH1 0x0 MSTORE PUSH1 0x20 PUSH1 0x0 KECCAK256 SWAP1 JUMPDEST DUP2 SLOAD DUP2 MSTORE SWAP1 PUSH1 0x1 ADD SWAP1 PUSH1 0x20 ADD DUP1 DUP4 GT PUSH2 0x1B73 JUMPI DUP3 SWAP1 SUB PUSH1 0x1F AND DUP3 ADD SWAP2 JUMPDEST POP POP POP POP POP DUP2 MSTORE POP POP SWAP1 POP SWAP3 SWAP2 POP POP JUMP JUMPDEST PUSH2 0x1BA9 PUSH2 0x37E6 JUMP JUMPDEST PUSH2 0x1BB1 PUSH2 0x39CE JUMP JUMPDEST JUMP JUMPDEST PUSH1 0x9 PUSH1 0x20 MSTORE DUP1 PUSH1 0x0 MSTORE PUSH1 0x40 PUSH1 0x0 KECCAK256 PUSH1 0x0 SWAP2 POP SLOAD SWAP1 PUSH2 0x100 EXP SWAP1 DIV PUSH1 0xFF AND DUP2 JUMP JUMPDEST PUSH1 0x0 PUSH1 0xA PUSH1 0x0 SWAP1 SLOAD SWAP1 PUSH2 0x100 EXP SWAP1 DIV PUSH20 0xFFFFFFFFFFFFFFFFFFFFFFFFFFFFFFFFFFFFFFFF AND SWAP1 POP SWAP1 JUMP JUMPDEST PUSH1 0x13 PUSH1 0x20 MSTORE DUP1 PUSH1 0x0 MSTORE PUSH1 0x40 PUSH1 0x0 KECCAK256 PUSH1 0x0 SWAP2 POP SWAP1 POP SLOAD DUP2 JUMP JUMPDEST PUSH1 0x0 PUSH1 0xF PUSH1 0x0 SWAP1 SLOAD SWAP1 PUSH2 0x100 EXP SWAP1 DIV PUSH20 0xFFFFFFFFFFFFFFFFFFFFFFFFFFFFFFFFFFFFFFFF AND PUSH20 0xFFFFFFFFFFFFFFFFFFFFFFFFFFFFFFFFFFFFFFFF AND PUSH4 0x70A08231 CALLER PUSH1 0x40 MLOAD DUP3 PUSH4 0xFFFFFFFF AND PUSH1 0xE0 SHL DUP2 MSTORE PUSH1 0x4 ADD PUSH2 0x1C72 SWAP2 SWAP1 PUSH2 0x4C24 JUMP JUMPDEST PUSH1 0x20 PUSH1 0x40 MLOAD DUP1 DUP4 SUB DUP2 DUP7 GAS STATICCALL ISZERO DUP1 ISZERO PUSH2 0x1C8F JUMPI RETURNDATASIZE PUSH1 0x0 DUP1 RETURNDATACOPY RETURNDATASIZE PUSH1 0x0 REVERT JUMPDEST POP POP POP POP PUSH1 0x40 MLOAD RETURNDATASIZE PUSH1 0x1F NOT PUSH1 0x1F DUP3 ADD AND DUP3 ADD DUP1 PUSH1 0x40 MSTORE POP DUP2 ADD SWAP1 PUSH2 0x1CB3 SWAP2 SWAP1 PUSH2 0x56F6 JUMP JUMPDEST GT PUSH2 0x1CF3 JUMPI PUSH1 0x40 MLOAD PUSH32 0x8C379A000000000000000000000000000000000000000000000000000000000 DUP2 MSTORE PUSH1 0x4 ADD PUSH2 0x1CEA SWAP1 PUSH2 0x57A6 JUMP JUMPDEST PUSH1 0x40 MLOAD DUP1 SWAP2 SUB SWAP1 REVERT JUMPDEST PUSH1 0x2 PUSH1 0x0 PUSH1 0x8 SLOAD DUP2 MSTORE PUSH1 0x20 ADD SWAP1 DUP2 MSTORE PUSH1 0x20 ADD PUSH1 0x0 KECCAK256 PUSH1 0x1 ADD SLOAD TIMESTAMP LT PUSH2 0x1D4D JUMPI PUSH1 0x40 MLOAD PUSH32 0x8C379A000000000000000000000000000000000000000000000000000000000 DUP2 MSTORE PUSH1 0x4 ADD PUSH2 0x1D44 SWAP1 PUSH2 0x5812 JUMP JUMPDEST PUSH1 0x40 MLOAD DUP1 SWAP2 SUB SWAP1 REVERT JUMPDEST PUSH2 0x1D58 PUSH1 0x8 SLOAD PUSH2 0xAA9 JUMP JUMPDEST DUP2 MLOAD EQ PUSH2 0x1D9A JUMPI PUSH1 0x40 MLOAD PUSH32 0x8C379A000000000000000000000000000000000000000000000000000000000 DUP2 MSTORE PUSH1 0x4 ADD PUSH2 0x1D91 SWAP1 PUSH2 0x58A4 JUMP JUMPDEST PUSH1 0x40 MLOAD DUP1 SWAP2 SUB SWAP1 REVERT JUMPDEST PUSH1 0x0 PUSH2 0x1DA7 PUSH1 0x8 SLOAD PUSH2 0xAA9 JUMP JUMPDEST SWAP1 POP PUSH1 0x0 JUMPDEST DUP2 DUP2 LT ISZERO PUSH2 0x1EF0 JUMPI PUSH1 0x40 MLOAD DUP1 PUSH1 0x40 ADD PUSH1 0x40 MSTORE DUP1 DUP5 DUP4 DUP2 MLOAD DUP2 LT PUSH2 0x1DD2 JUMPI PUSH2 0x1DD1 PUSH2 0x521A JUMP JUMPDEST JUMPDEST PUSH1 0x20 MUL PUSH1 0x20 ADD ADD MLOAD PUSH1 0x20 ADD MLOAD PUSH1 0xFF AND DUP2 MSTORE PUSH1 0x20 ADD DUP5 DUP4 DUP2 MLOAD DUP2 LT PUSH2 0x1DF9 JUMPI PUSH2 0x1DF8 PUSH2 0x521A JUMP JUMPDEST JUMPDEST PUSH1 0x20 MUL PUSH1 0x20 ADD ADD MLOAD PUSH1 0x40 ADD MLOAD PUSH1 0xFF AND DUP2 MSTORE POP PUSH1 0x4 PUSH1 0x0 CALLER PUSH20 0xFFFFFFFFFFFFFFFFFFFFFFFFFFFFFFFFFFFFFFFF AND PUSH20 0xFFFFFFFFFFFFFFFFFFFFFFFFFFFFFFFFFFFFFFFF AND DUP2 MSTORE PUSH1 0x20 ADD SWAP1 DUP2 MSTORE PUSH1 0x20 ADD PUSH1 0x0 KECCAK256 PUSH1 0x0 PUSH1 0x8 SLOAD DUP2 MSTORE PUSH1 0x20 ADD SWAP1 DUP2 MSTORE PUSH1 0x20 ADD PUSH1 0x0 KECCAK256 PUSH1 0x0 DUP6 DUP5 DUP2 MLOAD DUP2 LT PUSH2 0x1E72 JUMPI PUSH2 0x1E71 PUSH2 0x521A JUMP JUMPDEST JUMPDEST PUSH1 0x20 MUL PUSH1 0x20 ADD ADD MLOAD PUSH1 0x0 ADD MLOAD PUSH4 0xFFFFFFFF AND PUSH4 0xFFFFFFFF AND DUP2 MSTORE PUSH1 0x20 ADD SWAP1 DUP2 MSTORE PUSH1 0x20 ADD PUSH1 0x0 KECCAK256 PUSH1 0x0 DUP3 ADD MLOAD DUP2 PUSH1 0x0 ADD PUSH1 0x0 PUSH2 0x100 EXP DUP2 SLOAD DUP2 PUSH1 0xFF MUL NOT AND SWAP1 DUP4 PUSH1 0xFF AND MUL OR SWAP1 SSTORE POP PUSH1 0x20 DUP3 ADD MLOAD DUP2 PUSH1 0x0 ADD PUSH1 0x1 PUSH2 0x100 EXP DUP2 SLOAD DUP2 PUSH1 0xFF MUL NOT AND SWAP1 DUP4 PUSH1 0xFF AND MUL OR SWAP1 SSTORE POP SWAP1 POP POP DUP1 DUP1 PUSH2 0x1EE8 SWAP1 PUSH2 0x5278 JUMP JUMPDEST SWAP2 POP POP PUSH2 0x1DAC JUMP JUMPDEST POP PUSH1 0x0 DUP1 PUSH1 0x0 SWAP1 POP JUMPDEST PUSH1 0x5 PUSH1 0x0 PUSH1 0x8 SLOAD DUP2 MSTORE PUSH1 0x20 ADD SWAP1 DUP2 MSTORE PUSH1 0x20 ADD PUSH1 0x0 KECCAK256 DUP1 SLOAD SWAP1 POP DUP2 LT ISZERO PUSH2 0x1FB5 JUMPI CALLER PUSH20 0xFFFFFFFFFFFFFFFFFFFFFFFFFFFFFFFFFFFFFFFF AND PUSH1 0x5 PUSH1 0x0 PUSH1 0x8 SLOAD DUP2 MSTORE PUSH1 0x20 ADD SWAP1 DUP2 MSTORE PUSH1 0x20 ADD PUSH1 0x0 KECCAK256 DUP3 DUP2 SLOAD DUP2 LT PUSH2 0x1F57 JUMPI PUSH2 0x1F56 PUSH2 0x521A JUMP JUMPDEST JUMPDEST SWAP1 PUSH1 0x0 MSTORE PUSH1 0x20 PUSH1 0x0 KECCAK256 ADD PUSH1 0x0 SWAP1 SLOAD SWAP1 PUSH2 0x100 EXP SWAP1 DIV PUSH20 0xFFFFFFFFFFFFFFFFFFFFFFFFFFFFFFFFFFFFFFFF AND PUSH20 0xFFFFFFFFFFFFFFFFFFFFFFFFFFFFFFFFFFFFFFFF AND SUB PUSH2 0x1FA2 JUMPI PUSH1 0x1 SWAP2 POP JUMPDEST DUP1 DUP1 PUSH2 0x1FAD SWAP1 PUSH2 0x5278 JUMP JUMPDEST SWAP2 POP POP PUSH2 0x1EF9 JUMP JUMPDEST POP PUSH1 0x1 SWAP1 POP DUP1 ISZERO PUSH2 0x2037 JUMPI PUSH1 0x5 PUSH1 0x0 PUSH1 0x8 SLOAD DUP2 MSTORE PUSH1 0x20 ADD SWAP1 DUP2 MSTORE PUSH1 0x20 ADD PUSH1 0x0 KECCAK256 CALLER SWAP1 DUP1 PUSH1 0x1 DUP2 SLOAD ADD DUP1 DUP3 SSTORE DUP1 SWAP2 POP POP PUSH1 0x1 SWAP1 SUB SWAP1 PUSH1 0x0 MSTORE PUSH1 0x20 PUSH1 0x0 KECCAK256 ADD PUSH1 0x0 SWAP1 SWAP2 SWAP1 SWAP2 SWAP1 SWAP2 PUSH2 0x100 EXP DUP2 SLOAD DUP2 PUSH20 0xFFFFFFFFFFFFFFFFFFFFFFFFFFFFFFFFFFFFFFFF MUL NOT AND SWAP1 DUP4 PUSH20 0xFFFFFFFFFFFFFFFFFFFFFFFFFFFFFFFFFFFFFFFF AND MUL OR SWAP1 SSTORE POP JUMPDEST POP POP POP JUMP JUMPDEST PUSH1 0x0 DUP1 PUSH1 0xE PUSH1 0x0 SWAP1 SLOAD SWAP1 PUSH2 0x100 EXP SWAP1 DIV PUSH20 0xFFFFFFFFFFFFFFFFFFFFFFFFFFFFFFFFFFFFFFFF AND PUSH20 0xFFFFFFFFFFFFFFFFFFFFFFFFFFFFFFFFFFFFFFFF AND PUSH4 0x70A08231 ADDRESS PUSH1 0x40 MLOAD DUP3 PUSH4 0xFFFFFFFF AND PUSH1 0xE0 SHL DUP2 MSTORE PUSH1 0x4 ADD PUSH2 0x209A SWAP2 SWAP1 PUSH2 0x4C24 JUMP JUMPDEST PUSH1 0x20 PUSH1 0x40 MLOAD DUP1 DUP4 SUB DUP2 DUP7 GAS STATICCALL ISZERO DUP1 ISZERO PUSH2 0x20B7 JUMPI RETURNDATASIZE PUSH1 0x0 DUP1 RETURNDATACOPY RETURNDATASIZE PUSH1 0x0 REVERT JUMPDEST POP POP POP POP PUSH1 0x40 MLOAD RETURNDATASIZE PUSH1 0x1F NOT PUSH1 0x1F DUP3 ADD AND DUP3 ADD DUP1 PUSH1 0x40 MSTORE POP DUP2 ADD SWAP1 PUSH2 0x20DB SWAP2 SWAP1 PUSH2 0x56F6 JUMP JUMPDEST SWAP1 POP PUSH1 0x0 PUSH3 0xF4240 PUSH1 0x32 PUSH1 0xF PUSH1 0x0 SWAP1 SLOAD SWAP1 PUSH2 0x100 EXP SWAP1 DIV PUSH20 0xFFFFFFFFFFFFFFFFFFFFFFFFFFFFFFFFFFFFFFFF AND PUSH20 0xFFFFFFFFFFFFFFFFFFFFFFFFFFFFFFFFFFFFFFFF AND PUSH4 0x18160DDD PUSH1 0x40 MLOAD DUP2 PUSH4 0xFFFFFFFF AND PUSH1 0xE0 SHL DUP2 MSTORE PUSH1 0x4 ADD PUSH1 0x20 PUSH1 0x40 MLOAD DUP1 DUP4 SUB DUP2 DUP7 GAS STATICCALL ISZERO DUP1 ISZERO PUSH2 0x2152 JUMPI RETURNDATASIZE PUSH1 0x0 DUP1 RETURNDATACOPY RETURNDATASIZE PUSH1 0x0 REVERT JUMPDEST POP POP POP POP PUSH1 0x40 MLOAD RETURNDATASIZE PUSH1 0x1F NOT PUSH1 0x1F DUP3 ADD AND DUP3 ADD DUP1 PUSH1 0x40 MSTORE POP DUP2 ADD SWAP1 PUSH2 0x2176 SWAP2 SWAP1 PUSH2 0x56F6 JUMP JUMPDEST PUSH2 0x2180 SWAP2 SWAP1 PUSH2 0x58C4 JUMP JUMPDEST PUSH2 0x218A SWAP2 SWAP1 PUSH2 0x58C4 JUMP JUMPDEST SWAP1 POP DUP1 DUP3 PUSH2 0x2198 SWAP2 SWAP1 PUSH2 0x591E JUMP JUMPDEST SWAP3 POP POP POP SWAP1 JUMP JUMPDEST PUSH1 0x60 PUSH1 0x0 PUSH1 0x5 PUSH1 0x0 DUP5 DUP2 MSTORE PUSH1 0x20 ADD SWAP1 DUP2 MSTORE PUSH1 0x20 ADD PUSH1 0x0 KECCAK256 DUP1 SLOAD SWAP1 POP SWAP1 POP PUSH1 0x0 DUP1 PUSH1 0x0 DUP4 PUSH8 0xFFFFFFFFFFFFFFFF DUP2 GT ISZERO PUSH2 0x21DB JUMPI PUSH2 0x21DA PUSH2 0x404E JUMP JUMPDEST JUMPDEST PUSH1 0x40 MLOAD SWAP1 DUP1 DUP3 MSTORE DUP1 PUSH1 0x20 MUL PUSH1 0x20 ADD DUP3 ADD PUSH1 0x40 MSTORE DUP1 ISZERO PUSH2 0x2214 JUMPI DUP2 PUSH1 0x20 ADD JUMPDEST PUSH2 0x2201 PUSH2 0x3B85 JUMP JUMPDEST DUP2 MSTORE PUSH1 0x20 ADD SWAP1 PUSH1 0x1 SWAP1 SUB SWAP1 DUP2 PUSH2 0x21F9 JUMPI SWAP1 POP JUMPDEST POP SWAP1 POP PUSH1 0x0 DUP1 PUSH1 0x0 SWAP1 POP JUMPDEST DUP6 DUP2 LT ISZERO PUSH2 0x2385 JUMPI PUSH1 0x5 PUSH1 0x0 DUP10 DUP2 MSTORE PUSH1 0x20 ADD SWAP1 DUP2 MSTORE PUSH1 0x20 ADD PUSH1 0x0 KECCAK256 DUP2 DUP2 SLOAD DUP2 LT PUSH2 0x224C JUMPI PUSH2 0x224B PUSH2 0x521A JUMP JUMPDEST JUMPDEST SWAP1 PUSH1 0x0 MSTORE PUSH1 0x20 PUSH1 0x0 KECCAK256 ADD PUSH1 0x0 SWAP1 SLOAD SWAP1 PUSH2 0x100 EXP SWAP1 DIV PUSH20 0xFFFFFFFFFFFFFFFFFFFFFFFFFFFFFFFFFFFFFFFF AND SWAP5 POP PUSH1 0xF PUSH1 0x0 SWAP1 SLOAD SWAP1 PUSH2 0x100 EXP SWAP1 DIV PUSH20 0xFFFFFFFFFFFFFFFFFFFFFFFFFFFFFFFFFFFFFFFF AND PUSH20 0xFFFFFFFFFFFFFFFFFFFFFFFFFFFFFFFFFFFFFFFF AND PUSH4 0x70A08231 DUP7 PUSH1 0x40 MLOAD DUP3 PUSH4 0xFFFFFFFF AND PUSH1 0xE0 SHL DUP2 MSTORE PUSH1 0x4 ADD PUSH2 0x22D4 SWAP2 SWAP1 PUSH2 0x4C24 JUMP JUMPDEST PUSH1 0x20 PUSH1 0x40 MLOAD DUP1 DUP4 SUB DUP2 DUP7 GAS STATICCALL ISZERO DUP1 ISZERO PUSH2 0x22F1 JUMPI RETURNDATASIZE PUSH1 0x0 DUP1 RETURNDATACOPY RETURNDATASIZE PUSH1 0x0 REVERT JUMPDEST POP POP POP POP PUSH1 0x40 MLOAD RETURNDATASIZE PUSH1 0x1F NOT PUSH1 0x1F DUP3 ADD AND DUP3 ADD DUP1 PUSH1 0x40 MSTORE POP DUP2 ADD SWAP1 PUSH2 0x2315 SWAP2 SWAP1 PUSH2 0x56F6 JUMP JUMPDEST SWAP4 POP PUSH2 0x2321 DUP9 DUP7 PUSH2 0x15C0 JUMP JUMPDEST SWAP2 POP PUSH1 0x40 MLOAD DUP1 PUSH1 0x60 ADD PUSH1 0x40 MSTORE DUP1 DUP7 PUSH20 0xFFFFFFFFFFFFFFFFFFFFFFFFFFFFFFFFFFFFFFFF AND DUP2 MSTORE PUSH1 0x20 ADD DUP6 DUP2 MSTORE PUSH1 0x20 ADD DUP4 DUP2 MSTORE POP DUP4 DUP3 DUP2 MLOAD DUP2 LT PUSH2 0x2367 JUMPI PUSH2 0x2366 PUSH2 0x521A JUMP JUMPDEST JUMPDEST PUSH1 0x20 MUL PUSH1 0x20 ADD ADD DUP2 SWAP1 MSTORE POP DUP1 DUP1 PUSH2 0x237D SWAP1 PUSH2 0x5278 JUMP JUMPDEST SWAP2 POP POP PUSH2 0x221F JUMP JUMPDEST POP DUP2 SWAP6 POP POP POP POP POP POP SWAP2 SWAP1 POP JUMP JUMPDEST PUSH1 0x60 PUSH1 0x0 DUP1 PUSH1 0x0 DUP1 DUP1 PUSH1 0x0 DUP1 PUSH2 0x23A7 PUSH2 0x203C JUMP JUMPDEST SWAP1 POP PUSH1 0x0 PUSH1 0x13 PUSH1 0x0 DUP13 DUP2 MSTORE PUSH1 0x20 ADD SWAP1 DUP2 MSTORE PUSH1 0x20 ADD PUSH1 0x0 KECCAK256 SLOAD SWAP1 POP PUSH1 0x0 DUP2 PUSH8 0xFFFFFFFFFFFFFFFF DUP2 GT ISZERO PUSH2 0x23DD JUMPI PUSH2 0x23DC PUSH2 0x404E JUMP JUMPDEST JUMPDEST PUSH1 0x40 MLOAD SWAP1 DUP1 DUP3 MSTORE DUP1 PUSH1 0x20 MUL PUSH1 0x20 ADD DUP3 ADD PUSH1 0x40 MSTORE DUP1 ISZERO PUSH2 0x2416 JUMPI DUP2 PUSH1 0x20 ADD JUMPDEST PUSH2 0x2403 PUSH2 0x3BBC JUMP JUMPDEST DUP2 MSTORE PUSH1 0x20 ADD SWAP1 PUSH1 0x1 SWAP1 SUB SWAP1 DUP2 PUSH2 0x23FB JUMPI SWAP1 POP JUMPDEST POP SWAP1 POP PUSH1 0x0 DUP3 PUSH8 0xFFFFFFFFFFFFFFFF DUP2 GT ISZERO PUSH2 0x2435 JUMPI PUSH2 0x2434 PUSH2 0x404E JUMP JUMPDEST JUMPDEST PUSH1 0x40 MLOAD SWAP1 DUP1 DUP3 MSTORE DUP1 PUSH1 0x20 MUL PUSH1 0x20 ADD DUP3 ADD PUSH1 0x40 MSTORE DUP1 ISZERO PUSH2 0x246E JUMPI DUP2 PUSH1 0x20 ADD JUMPDEST PUSH2 0x245B PUSH2 0x3B4E JUMP JUMPDEST DUP2 MSTORE PUSH1 0x20 ADD SWAP1 PUSH1 0x1 SWAP1 SUB SWAP1 DUP2 PUSH2 0x2453 JUMPI SWAP1 POP JUMPDEST POP SWAP1 POP PUSH1 0x0 DUP4 PUSH8 0xFFFFFFFFFFFFFFFF DUP2 GT ISZERO PUSH2 0x248D JUMPI PUSH2 0x248C PUSH2 0x404E JUMP JUMPDEST JUMPDEST PUSH1 0x40 MLOAD SWAP1 DUP1 DUP3 MSTORE DUP1 PUSH1 0x20 MUL PUSH1 0x20 ADD DUP3 ADD PUSH1 0x40 MSTORE DUP1 ISZERO PUSH2 0x24C6 JUMPI DUP2 PUSH1 0x20 ADD JUMPDEST PUSH2 0x24B3 PUSH2 0x3BEC JUMP JUMPDEST DUP2 MSTORE PUSH1 0x20 ADD SWAP1 PUSH1 0x1 SWAP1 SUB SWAP1 DUP2 PUSH2 0x24AB JUMPI SWAP1 POP JUMPDEST POP SWAP1 POP PUSH1 0x0 JUMPDEST DUP14 MLOAD DUP2 LT ISZERO PUSH2 0x258A JUMPI PUSH1 0x0 DUP15 DUP3 DUP2 MLOAD DUP2 LT PUSH2 0x24EA JUMPI PUSH2 0x24E9 PUSH2 0x521A JUMP JUMPDEST JUMPDEST PUSH1 0x20 MUL PUSH1 0x20 ADD ADD MLOAD SWAP1 POP PUSH1 0x0 JUMPDEST DUP2 PUSH1 0x20 ADD MLOAD DUP2 LT ISZERO PUSH2 0x2575 JUMPI PUSH1 0x40 MLOAD DUP1 PUSH1 0x40 ADD PUSH1 0x40 MSTORE DUP1 DUP4 PUSH1 0x0 ADD MLOAD PUSH20 0xFFFFFFFFFFFFFFFFFFFFFFFFFFFFFFFFFFFFFFFF AND DUP2 MSTORE PUSH1 0x20 ADD DUP4 PUSH1 0x40 ADD MLOAD DUP2 MSTORE POP DUP7 DUP11 DUP2 MLOAD DUP2 LT PUSH2 0x2549 JUMPI PUSH2 0x2548 PUSH2 0x521A JUMP JUMPDEST JUMPDEST PUSH1 0x20 MUL PUSH1 0x20 ADD ADD DUP2 SWAP1 MSTORE POP DUP9 DUP1 PUSH2 0x255F SWAP1 PUSH2 0x5278 JUMP JUMPDEST SWAP10 POP POP DUP1 DUP1 PUSH2 0x256D SWAP1 PUSH2 0x5278 JUMP JUMPDEST SWAP2 POP POP PUSH2 0x24F7 JUMP JUMPDEST POP POP DUP1 DUP1 PUSH2 0x2582 SWAP1 PUSH2 0x5278 JUMP JUMPDEST SWAP2 POP POP PUSH2 0x24CC JUMP JUMPDEST POP PUSH1 0x0 JUMPDEST DUP5 DUP2 LT ISZERO PUSH2 0x26B6 JUMPI PUSH1 0x1 SWAP12 POP PUSH1 0x0 JUMPDEST DUP6 DUP2 LT ISZERO PUSH2 0x2617 JUMPI DUP5 DUP2 DUP2 MLOAD DUP2 LT PUSH2 0x25B8 JUMPI PUSH2 0x25B7 PUSH2 0x521A JUMP JUMPDEST JUMPDEST PUSH1 0x20 MUL PUSH1 0x20 ADD ADD MLOAD PUSH1 0x20 ADD MLOAD DUP6 DUP4 DUP2 MLOAD DUP2 LT PUSH2 0x25D7 JUMPI PUSH2 0x25D6 PUSH2 0x521A JUMP JUMPDEST JUMPDEST PUSH1 0x20 MUL PUSH1 0x20 ADD ADD MLOAD PUSH1 0x20 ADD MLOAD LT ISZERO PUSH2 0x2604 JUMPI DUP13 DUP1 PUSH2 0x25F4 SWAP1 PUSH2 0x5278 JUMP JUMPDEST SWAP14 POP POP DUP12 DUP14 GT ISZERO PUSH2 0x2603 JUMPI DUP13 SWAP12 POP JUMPDEST JUMPDEST DUP1 DUP1 PUSH2 0x260F SWAP1 PUSH2 0x5278 JUMP JUMPDEST SWAP2 POP POP PUSH2 0x259D JUMP JUMPDEST POP PUSH1 0x40 MLOAD DUP1 PUSH1 0x60 ADD PUSH1 0x40 MSTORE DUP1 DUP6 DUP4 DUP2 MLOAD DUP2 LT PUSH2 0x2636 JUMPI PUSH2 0x2635 PUSH2 0x521A JUMP JUMPDEST JUMPDEST PUSH1 0x20 MUL PUSH1 0x20 ADD ADD MLOAD PUSH1 0x0 ADD MLOAD PUSH20 0xFFFFFFFFFFFFFFFFFFFFFFFFFFFFFFFFFFFFFFFF AND DUP2 MSTORE PUSH1 0x20 ADD DUP6 DUP4 DUP2 MLOAD DUP2 LT PUSH2 0x2670 JUMPI PUSH2 0x266F PUSH2 0x521A JUMP JUMPDEST JUMPDEST PUSH1 0x20 MUL PUSH1 0x20 ADD ADD MLOAD PUSH1 0x20 ADD MLOAD DUP2 MSTORE PUSH1 0x20 ADD DUP14 DUP2 MSTORE POP DUP4 DUP3 DUP2 MLOAD DUP2 LT PUSH2 0x2698 JUMPI PUSH2 0x2697 PUSH2 0x521A JUMP JUMPDEST JUMPDEST PUSH1 0x20 MUL PUSH1 0x20 ADD ADD DUP2 SWAP1 MSTORE POP DUP1 DUP1 PUSH2 0x26AE SWAP1 PUSH2 0x5278 JUMP JUMPDEST SWAP2 POP POP PUSH2 0x258E JUMP JUMPDEST POP PUSH1 0x0 SWAP6 POP PUSH1 0x0 PUSH1 0x1 SWAP1 POP JUMPDEST DUP11 DUP2 GT PUSH2 0x27F4 JUMPI PUSH1 0x0 JUMPDEST DUP6 DUP2 LT ISZERO PUSH2 0x27E0 JUMPI DUP2 DUP5 DUP3 DUP2 MLOAD DUP2 LT PUSH2 0x26E8 JUMPI PUSH2 0x26E7 PUSH2 0x521A JUMP JUMPDEST JUMPDEST PUSH1 0x20 MUL PUSH1 0x20 ADD ADD MLOAD PUSH1 0x40 ADD MLOAD SUB PUSH2 0x27CD JUMPI PUSH1 0x40 MLOAD DUP1 PUSH1 0xE0 ADD PUSH1 0x40 MSTORE DUP1 DUP6 DUP4 DUP2 MLOAD DUP2 LT PUSH2 0x2717 JUMPI PUSH2 0x2716 PUSH2 0x521A JUMP JUMPDEST JUMPDEST PUSH1 0x20 MUL PUSH1 0x20 ADD ADD MLOAD PUSH1 0x0 ADD MLOAD PUSH20 0xFFFFFFFFFFFFFFFFFFFFFFFFFFFFFFFFFFFFFFFF AND DUP2 MSTORE PUSH1 0x20 ADD DUP6 DUP4 DUP2 MLOAD DUP2 LT PUSH2 0x2751 JUMPI PUSH2 0x2750 PUSH2 0x521A JUMP JUMPDEST JUMPDEST PUSH1 0x20 MUL PUSH1 0x20 ADD ADD MLOAD PUSH1 0x20 ADD MLOAD DUP2 MSTORE PUSH1 0x20 ADD DUP6 DUP4 DUP2 MLOAD DUP2 LT PUSH2 0x2775 JUMPI PUSH2 0x2774 PUSH2 0x521A JUMP JUMPDEST JUMPDEST PUSH1 0x20 MUL PUSH1 0x20 ADD ADD MLOAD PUSH1 0x40 ADD MLOAD DUP2 MSTORE PUSH1 0x20 ADD PUSH1 0x0 DUP2 MSTORE PUSH1 0x20 ADD PUSH1 0x0 DUP2 MSTORE PUSH1 0x20 ADD PUSH1 0x0 DUP2 MSTORE PUSH1 0x20 ADD PUSH1 0x0 DUP2 MSTORE POP DUP4 DUP10 DUP2 MLOAD DUP2 LT PUSH2 0x27B3 JUMPI PUSH2 0x27B2 PUSH2 0x521A JUMP JUMPDEST JUMPDEST PUSH1 0x20 MUL PUSH1 0x20 ADD ADD DUP2 SWAP1 MSTORE POP DUP8 DUP1 PUSH2 0x27C9 SWAP1 PUSH2 0x5278 JUMP JUMPDEST SWAP9 POP POP JUMPDEST DUP1 DUP1 PUSH2 0x27D8 SWAP1 PUSH2 0x5278 JUMP JUMPDEST SWAP2 POP POP PUSH2 0x26CC JUMP JUMPDEST POP DUP1 DUP1 PUSH2 0x27EC SWAP1 PUSH2 0x5278 JUMP JUMPDEST SWAP2 POP POP PUSH2 0x26C2 JUMP JUMPDEST POP PUSH1 0x64 PUSH1 0x11 SLOAD DUP11 DUP8 PUSH2 0x2806 SWAP2 SWAP1 PUSH2 0x591E JUMP JUMPDEST PUSH2 0x2810 SWAP2 SWAP1 PUSH2 0x58C4 JUMP JUMPDEST PUSH2 0x281A SWAP2 SWAP1 PUSH2 0x5981 JUMP JUMPDEST SWAP7 POP DUP7 DUP10 PUSH2 0x2828 SWAP2 SWAP1 PUSH2 0x5643 JUMP JUMPDEST SWAP9 POP DUP7 DUP2 PUSH1 0x0 DUP2 MLOAD DUP2 LT PUSH2 0x283F JUMPI PUSH2 0x283E PUSH2 0x521A JUMP JUMPDEST JUMPDEST PUSH1 0x20 MUL PUSH1 0x20 ADD ADD MLOAD PUSH1 0x60 ADD DUP2 DUP2 MSTORE POP POP DUP7 DUP2 PUSH1 0x0 DUP2 MLOAD DUP2 LT PUSH2 0x2864 JUMPI PUSH2 0x2863 PUSH2 0x521A JUMP JUMPDEST JUMPDEST PUSH1 0x20 MUL PUSH1 0x20 ADD ADD MLOAD PUSH1 0x80 ADD DUP2 DUP2 MSTORE POP POP DUP7 DUP2 PUSH1 0x0 DUP2 MLOAD DUP2 LT PUSH2 0x2889 JUMPI PUSH2 0x2888 PUSH2 0x521A JUMP JUMPDEST JUMPDEST PUSH1 0x20 MUL PUSH1 0x20 ADD ADD MLOAD PUSH1 0xA0 ADD DUP2 DUP2 MSTORE POP POP DUP7 DUP2 PUSH1 0x0 DUP2 MLOAD DUP2 LT PUSH2 0x28AE JUMPI PUSH2 0x28AD PUSH2 0x521A JUMP JUMPDEST JUMPDEST PUSH1 0x20 MUL PUSH1 0x20 ADD ADD MLOAD PUSH1 0xC0 ADD DUP2 DUP2 MSTORE POP POP PUSH1 0x0 PUSH1 0x1 SWAP1 POP JUMPDEST DUP5 DUP2 LT ISZERO PUSH2 0x2CF6 JUMPI PUSH1 0x64 PUSH1 0x11 SLOAD DUP12 DUP9 PUSH2 0x28DE SWAP2 SWAP1 PUSH2 0x591E JUMP JUMPDEST PUSH2 0x28E8 SWAP2 SWAP1 PUSH2 0x58C4 JUMP JUMPDEST PUSH2 0x28F2 SWAP2 SWAP1 PUSH2 0x5981 JUMP JUMPDEST SWAP8 POP DUP8 DUP3 DUP3 DUP2 MLOAD DUP2 LT PUSH2 0x2908 JUMPI PUSH2 0x2907 PUSH2 0x521A JUMP JUMPDEST JUMPDEST PUSH1 0x20 MUL PUSH1 0x20 ADD ADD MLOAD PUSH1 0x60 ADD DUP2 DUP2 MSTORE POP POP DUP8 DUP11 PUSH2 0x2924 SWAP2 SWAP1 PUSH2 0x5643 JUMP JUMPDEST SWAP10 POP DUP10 DUP3 DUP3 DUP2 MLOAD DUP2 LT PUSH2 0x293A JUMPI PUSH2 0x2939 PUSH2 0x521A JUMP JUMPDEST JUMPDEST PUSH1 0x20 MUL PUSH1 0x20 ADD ADD MLOAD PUSH1 0x80 ADD DUP2 DUP2 MSTORE POP POP PUSH1 0x1 DUP6 PUSH2 0x2957 SWAP2 SWAP1 PUSH2 0x591E JUMP JUMPDEST DUP2 EQ PUSH2 0x2B3D JUMPI DUP2 PUSH1 0x1 DUP3 PUSH2 0x296B SWAP2 SWAP1 PUSH2 0x591E JUMP JUMPDEST DUP2 MLOAD DUP2 LT PUSH2 0x297C JUMPI PUSH2 0x297B PUSH2 0x521A JUMP JUMPDEST JUMPDEST PUSH1 0x20 MUL PUSH1 0x20 ADD ADD MLOAD PUSH1 0x40 ADD MLOAD DUP3 DUP3 DUP2 MLOAD DUP2 LT PUSH2 0x299B JUMPI PUSH2 0x299A PUSH2 0x521A JUMP JUMPDEST JUMPDEST PUSH1 0x20 MUL PUSH1 0x20 ADD ADD MLOAD PUSH1 0x40 ADD MLOAD SUB PUSH2 0x2A0A JUMPI DUP8 DUP3 PUSH1 0x1 DUP4 PUSH2 0x29BB SWAP2 SWAP1 PUSH2 0x591E JUMP JUMPDEST DUP2 MLOAD DUP2 LT PUSH2 0x29CC JUMPI PUSH2 0x29CB PUSH2 0x521A JUMP JUMPDEST JUMPDEST PUSH1 0x20 MUL PUSH1 0x20 ADD ADD MLOAD PUSH1 0xA0 ADD MLOAD PUSH2 0x29E2 SWAP2 SWAP1 PUSH2 0x5643 JUMP JUMPDEST DUP3 DUP3 DUP2 MLOAD DUP2 LT PUSH2 0x29F5 JUMPI PUSH2 0x29F4 PUSH2 0x521A JUMP JUMPDEST JUMPDEST PUSH1 0x20 MUL PUSH1 0x20 ADD ADD MLOAD PUSH1 0xA0 ADD DUP2 DUP2 MSTORE POP POP PUSH2 0x2B38 JUMP JUMPDEST DUP8 DUP3 DUP3 DUP2 MLOAD DUP2 LT PUSH2 0x2A1E JUMPI PUSH2 0x2A1D PUSH2 0x521A JUMP JUMPDEST JUMPDEST PUSH1 0x20 MUL PUSH1 0x20 ADD ADD MLOAD PUSH1 0xA0 ADD DUP2 DUP2 MSTORE POP POP DUP8 DUP3 DUP3 DUP2 MLOAD DUP2 LT PUSH2 0x2A42 JUMPI PUSH2 0x2A41 PUSH2 0x521A JUMP JUMPDEST JUMPDEST PUSH1 0x20 MUL PUSH1 0x20 ADD ADD MLOAD PUSH1 0xC0 ADD DUP2 DUP2 MSTORE POP POP DUP2 PUSH1 0x1 DUP3 PUSH2 0x2A60 SWAP2 SWAP1 PUSH2 0x591E JUMP JUMPDEST DUP2 MLOAD DUP2 LT PUSH2 0x2A71 JUMPI PUSH2 0x2A70 PUSH2 0x521A JUMP JUMPDEST JUMPDEST PUSH1 0x20 MUL PUSH1 0x20 ADD ADD MLOAD PUSH1 0x40 ADD MLOAD DUP3 DUP3 DUP2 MLOAD DUP2 LT PUSH2 0x2A90 JUMPI PUSH2 0x2A8F PUSH2 0x521A JUMP JUMPDEST JUMPDEST PUSH1 0x20 MUL PUSH1 0x20 ADD ADD MLOAD PUSH1 0x40 ADD MLOAD PUSH2 0x2AA6 SWAP2 SWAP1 PUSH2 0x591E JUMP JUMPDEST SWAP9 POP PUSH1 0x0 JUMPDEST DUP10 DUP2 LT ISZERO PUSH2 0x2B36 JUMPI DUP10 DUP4 PUSH1 0x1 DUP5 PUSH2 0x2AC2 SWAP2 SWAP1 PUSH2 0x591E JUMP JUMPDEST DUP2 MLOAD DUP2 LT PUSH2 0x2AD3 JUMPI PUSH2 0x2AD2 PUSH2 0x521A JUMP JUMPDEST JUMPDEST PUSH1 0x20 MUL PUSH1 0x20 ADD ADD MLOAD PUSH1 0xA0 ADD MLOAD PUSH2 0x2AE9 SWAP2 SWAP1 PUSH2 0x5981 JUMP JUMPDEST DUP4 PUSH1 0x1 DUP4 PUSH2 0x2AF7 SWAP2 SWAP1 PUSH2 0x5643 JUMP JUMPDEST DUP5 PUSH2 0x2B02 SWAP2 SWAP1 PUSH2 0x591E JUMP JUMPDEST DUP2 MLOAD DUP2 LT PUSH2 0x2B13 JUMPI PUSH2 0x2B12 PUSH2 0x521A JUMP JUMPDEST JUMPDEST PUSH1 0x20 MUL PUSH1 0x20 ADD ADD MLOAD PUSH1 0xC0 ADD DUP2 DUP2 MSTORE POP POP DUP1 DUP1 PUSH2 0x2B2E SWAP1 PUSH2 0x5278 JUMP JUMPDEST SWAP2 POP POP PUSH2 0x2AAB JUMP JUMPDEST POP JUMPDEST PUSH2 0x2CE3 JUMP JUMPDEST DUP2 PUSH1 0x1 DUP3 PUSH2 0x2B4B SWAP2 SWAP1 PUSH2 0x591E JUMP JUMPDEST DUP2 MLOAD DUP2 LT PUSH2 0x2B5C JUMPI PUSH2 0x2B5B PUSH2 0x521A JUMP JUMPDEST JUMPDEST PUSH1 0x20 MUL PUSH1 0x20 ADD ADD MLOAD PUSH1 0x40 ADD MLOAD DUP3 DUP3 DUP2 MLOAD DUP2 LT PUSH2 0x2B7B JUMPI PUSH2 0x2B7A PUSH2 0x521A JUMP JUMPDEST JUMPDEST PUSH1 0x20 MUL PUSH1 0x20 ADD ADD MLOAD PUSH1 0x40 ADD MLOAD SUB PUSH2 0x2C99 JUMPI DUP8 DUP3 PUSH1 0x1 DUP4 PUSH2 0x2B9B SWAP2 SWAP1 PUSH2 0x591E JUMP JUMPDEST DUP2 MLOAD DUP2 LT PUSH2 0x2BAC JUMPI PUSH2 0x2BAB PUSH2 0x521A JUMP JUMPDEST JUMPDEST PUSH1 0x20 MUL PUSH1 0x20 ADD ADD MLOAD PUSH1 0xA0 ADD MLOAD PUSH2 0x2BC2 SWAP2 SWAP1 PUSH2 0x5643 JUMP JUMPDEST DUP3 DUP3 DUP2 MLOAD DUP2 LT PUSH2 0x2BD5 JUMPI PUSH2 0x2BD4 PUSH2 0x521A JUMP JUMPDEST JUMPDEST PUSH1 0x20 MUL PUSH1 0x20 ADD ADD MLOAD PUSH1 0xA0 ADD DUP2 DUP2 MSTORE POP POP DUP2 DUP2 DUP2 MLOAD DUP2 LT PUSH2 0x2BF8 JUMPI PUSH2 0x2BF7 PUSH2 0x521A JUMP JUMPDEST JUMPDEST PUSH1 0x20 MUL PUSH1 0x20 ADD ADD MLOAD PUSH1 0x40 ADD MLOAD PUSH1 0x1 DUP7 PUSH2 0x2C11 SWAP2 SWAP1 PUSH2 0x5643 JUMP JUMPDEST PUSH2 0x2C1B SWAP2 SWAP1 PUSH2 0x591E JUMP JUMPDEST SWAP9 POP PUSH1 0x0 JUMPDEST DUP10 DUP2 LT ISZERO PUSH2 0x2C93 JUMPI DUP10 DUP4 DUP4 DUP2 MLOAD DUP2 LT PUSH2 0x2C3C JUMPI PUSH2 0x2C3B PUSH2 0x521A JUMP JUMPDEST JUMPDEST PUSH1 0x20 MUL PUSH1 0x20 ADD ADD MLOAD PUSH1 0xA0 ADD MLOAD PUSH2 0x2C52 SWAP2 SWAP1 PUSH2 0x5981 JUMP JUMPDEST DUP4 DUP3 DUP5 PUSH2 0x2C5F SWAP2 SWAP1 PUSH2 0x591E JUMP JUMPDEST DUP2 MLOAD DUP2 LT PUSH2 0x2C70 JUMPI PUSH2 0x2C6F PUSH2 0x521A JUMP JUMPDEST JUMPDEST PUSH1 0x20 MUL PUSH1 0x20 ADD ADD MLOAD PUSH1 0xC0 ADD DUP2 DUP2 MSTORE POP POP DUP1 DUP1 PUSH2 0x2C8B SWAP1 PUSH2 0x5278 JUMP JUMPDEST SWAP2 POP POP PUSH2 0x2C20 JUMP JUMPDEST POP PUSH2 0x2CE2 JUMP JUMPDEST DUP8 DUP3 DUP3 DUP2 MLOAD DUP2 LT PUSH2 0x2CAD JUMPI PUSH2 0x2CAC PUSH2 0x521A JUMP JUMPDEST JUMPDEST PUSH1 0x20 MUL PUSH1 0x20 ADD ADD MLOAD PUSH1 0xA0 ADD DUP2 DUP2 MSTORE POP POP DUP8 DUP3 DUP3 DUP2 MLOAD DUP2 LT PUSH2 0x2CD1 JUMPI PUSH2 0x2CD0 PUSH2 0x521A JUMP JUMPDEST JUMPDEST PUSH1 0x20 MUL PUSH1 0x20 ADD ADD MLOAD PUSH1 0xC0 ADD DUP2 DUP2 MSTORE POP POP JUMPDEST JUMPDEST DUP1 DUP1 PUSH2 0x2CEE SWAP1 PUSH2 0x5278 JUMP JUMPDEST SWAP2 POP POP PUSH2 0x28C5 JUMP JUMPDEST POP DUP1 SWAP12 POP POP POP POP POP POP POP POP POP POP POP POP SWAP3 SWAP2 POP POP JUMP JUMPDEST PUSH1 0xF PUSH1 0x0 SWAP1 SLOAD SWAP1 PUSH2 0x100 EXP SWAP1 DIV PUSH20 0xFFFFFFFFFFFFFFFFFFFFFFFFFFFFFFFFFFFFFFFF AND PUSH20 0xFFFFFFFFFFFFFFFFFFFFFFFFFFFFFFFFFFFFFFFF AND PUSH4 0x18160DDD PUSH1 0x40 MLOAD DUP2 PUSH4 0xFFFFFFFF AND PUSH1 0xE0 SHL DUP2 MSTORE PUSH1 0x4 ADD PUSH1 0x20 PUSH1 0x40 MLOAD DUP1 DUP4 SUB DUP2 DUP7 GAS STATICCALL ISZERO DUP1 ISZERO PUSH2 0x2D78 JUMPI RETURNDATASIZE PUSH1 0x0 DUP1 RETURNDATACOPY RETURNDATASIZE PUSH1 0x0 REVERT JUMPDEST POP POP POP POP PUSH1 0x40 MLOAD RETURNDATASIZE PUSH1 0x1F NOT PUSH1 0x1F DUP3 ADD AND DUP3 ADD DUP1 PUSH1 0x40 MSTORE POP DUP2 ADD SWAP1 PUSH2 0x2D9C SWAP2 SWAP1 PUSH2 0x56F6 JUMP JUMPDEST PUSH1 0x13 PUSH1 0x0 DUP4 DUP2 MSTORE PUSH1 0x20 ADD SWAP1 DUP2 MSTORE PUSH1 0x20 ADD PUSH1 0x0 KECCAK256 DUP2 SWAP1 SSTORE POP PUSH1 0x0 PUSH2 0x2DBE DUP3 PUSH2 0x219F JUMP JUMPDEST SWAP1 POP PUSH1 0x0 PUSH2 0x2DCC DUP4 DUP4 PUSH2 0x2393 JUMP JUMPDEST SWAP1 POP PUSH1 0x0 PUSH1 0x12 PUSH1 0x0 DUP6 DUP2 MSTORE PUSH1 0x20 ADD SWAP1 DUP2 MSTORE PUSH1 0x20 ADD PUSH1 0x0 KECCAK256 PUSH1 0x40 MLOAD DUP1 PUSH1 0xA0 ADD PUSH1 0x40 MSTORE DUP1 DUP5 PUSH1 0x0 DUP2 MLOAD DUP2 LT PUSH2 0x2E02 JUMPI PUSH2 0x2E01 PUSH2 0x521A JUMP JUMPDEST JUMPDEST PUSH1 0x20 MUL PUSH1 0x20 ADD ADD MLOAD PUSH1 0x0 ADD MLOAD PUSH20 0xFFFFFFFFFFFFFFFFFFFFFFFFFFFFFFFFFFFFFFFF AND DUP2 MSTORE PUSH1 0x20 ADD PUSH1 0x1 DUP2 MSTORE PUSH1 0x20 ADD DUP5 PUSH1 0x0 DUP2 MLOAD DUP2 LT PUSH2 0x2E44 JUMPI PUSH2 0x2E43 PUSH2 0x521A JUMP JUMPDEST JUMPDEST PUSH1 0x20 MUL PUSH1 0x20 ADD ADD MLOAD PUSH1 0x20 ADD MLOAD DUP2 MSTORE PUSH1 0x20 ADD DUP5 PUSH1 0x0 DUP2 MLOAD DUP2 LT PUSH2 0x2E69 JUMPI PUSH2 0x2E68 PUSH2 0x521A JUMP JUMPDEST JUMPDEST PUSH1 0x20 MUL PUSH1 0x20 ADD ADD MLOAD PUSH1 0x40 ADD MLOAD DUP2 MSTORE PUSH1 0x20 ADD DUP5 PUSH1 0x0 DUP2 MLOAD DUP2 LT PUSH2 0x2E8E JUMPI PUSH2 0x2E8D PUSH2 0x521A JUMP JUMPDEST JUMPDEST PUSH1 0x20 MUL PUSH1 0x20 ADD ADD MLOAD PUSH1 0xC0 ADD MLOAD DUP2 MSTORE POP SWAP1 DUP1 PUSH1 0x1 DUP2 SLOAD ADD DUP1 DUP3 SSTORE DUP1 SWAP2 POP POP PUSH1 0x1 SWAP1 SUB SWAP1 PUSH1 0x0 MSTORE PUSH1 0x20 PUSH1 0x0 KECCAK256 SWAP1 PUSH1 0x5 MUL ADD PUSH1 0x0 SWAP1 SWAP2 SWAP1 SWAP2 SWAP1 SWAP2 POP PUSH1 0x0 DUP3 ADD MLOAD DUP2 PUSH1 0x0 ADD PUSH1 0x0 PUSH2 0x100 EXP DUP2 SLOAD DUP2 PUSH20 0xFFFFFFFFFFFFFFFFFFFFFFFFFFFFFFFFFFFFFFFF MUL NOT AND SWAP1 DUP4 PUSH20 0xFFFFFFFFFFFFFFFFFFFFFFFFFFFFFFFFFFFFFFFF AND MUL OR SWAP1 SSTORE POP PUSH1 0x20 DUP3 ADD MLOAD DUP2 PUSH1 0x1 ADD SSTORE PUSH1 0x40 DUP3 ADD MLOAD DUP2 PUSH1 0x2 ADD SSTORE PUSH1 0x60 DUP3 ADD MLOAD DUP2 PUSH1 0x3 ADD SSTORE PUSH1 0x80 DUP3 ADD MLOAD DUP2 PUSH1 0x4 ADD SSTORE POP POP PUSH1 0x0 PUSH1 0x1 SWAP1 POP JUMPDEST PUSH1 0x13 PUSH1 0x0 DUP7 DUP2 MSTORE PUSH1 0x20 ADD SWAP1 DUP2 MSTORE PUSH1 0x20 ADD PUSH1 0x0 KECCAK256 SLOAD DUP2 LT ISZERO PUSH2 0x3215 JUMPI DUP3 PUSH1 0x1 DUP3 PUSH2 0x2F67 SWAP2 SWAP1 PUSH2 0x591E JUMP JUMPDEST DUP2 MLOAD DUP2 LT PUSH2 0x2F78 JUMPI PUSH2 0x2F77 PUSH2 0x521A JUMP JUMPDEST JUMPDEST PUSH1 0x20 MUL PUSH1 0x20 ADD ADD MLOAD PUSH1 0x0 ADD MLOAD PUSH20 0xFFFFFFFFFFFFFFFFFFFFFFFFFFFFFFFFFFFFFFFF AND DUP4 DUP3 DUP2 MLOAD DUP2 LT PUSH2 0x2FAD JUMPI PUSH2 0x2FAC PUSH2 0x521A JUMP JUMPDEST JUMPDEST PUSH1 0x20 MUL PUSH1 0x20 ADD ADD MLOAD PUSH1 0x0 ADD MLOAD PUSH20 0xFFFFFFFFFFFFFFFFFFFFFFFFFFFFFFFFFFFFFFFF AND SUB PUSH2 0x3090 JUMPI PUSH1 0x12 PUSH1 0x0 DUP7 DUP2 MSTORE PUSH1 0x20 ADD SWAP1 DUP2 MSTORE PUSH1 0x20 ADD PUSH1 0x0 KECCAK256 DUP3 DUP2 SLOAD DUP2 LT PUSH2 0x2FF9 JUMPI PUSH2 0x2FF8 PUSH2 0x521A JUMP JUMPDEST JUMPDEST SWAP1 PUSH1 0x0 MSTORE PUSH1 0x20 PUSH1 0x0 KECCAK256 SWAP1 PUSH1 0x5 MUL ADD PUSH1 0x1 ADD PUSH1 0x0 DUP2 SLOAD DUP1 SWAP3 SWAP2 SWAP1 PUSH2 0x301B SWAP1 PUSH2 0x5278 JUMP JUMPDEST SWAP2 SWAP1 POP SSTORE POP DUP3 DUP2 DUP2 MLOAD DUP2 LT PUSH2 0x3033 JUMPI PUSH2 0x3032 PUSH2 0x521A JUMP JUMPDEST JUMPDEST PUSH1 0x20 MUL PUSH1 0x20 ADD ADD MLOAD PUSH1 0xC0 ADD MLOAD PUSH1 0x12 PUSH1 0x0 DUP8 DUP2 MSTORE PUSH1 0x20 ADD SWAP1 DUP2 MSTORE PUSH1 0x20 ADD PUSH1 0x0 KECCAK256 DUP4 DUP2 SLOAD DUP2 LT PUSH2 0x3064 JUMPI PUSH2 0x3063 PUSH2 0x521A JUMP JUMPDEST JUMPDEST SWAP1 PUSH1 0x0 MSTORE PUSH1 0x20 PUSH1 0x0 KECCAK256 SWAP1 PUSH1 0x5 MUL ADD PUSH1 0x4 ADD PUSH1 0x0 DUP3 DUP3 SLOAD PUSH2 0x3084 SWAP2 SWAP1 PUSH2 0x5643 JUMP JUMPDEST SWAP3 POP POP DUP2 SWAP1 SSTORE POP PUSH2 0x3202 JUMP JUMPDEST PUSH1 0x12 PUSH1 0x0 DUP7 DUP2 MSTORE PUSH1 0x20 ADD SWAP1 DUP2 MSTORE PUSH1 0x20 ADD PUSH1 0x0 KECCAK256 PUSH1 0x40 MLOAD DUP1 PUSH1 0xA0 ADD PUSH1 0x40 MSTORE DUP1 DUP6 DUP5 DUP2 MLOAD DUP2 LT PUSH2 0x30C1 JUMPI PUSH2 0x30C0 PUSH2 0x521A JUMP JUMPDEST JUMPDEST PUSH1 0x20 MUL PUSH1 0x20 ADD ADD MLOAD PUSH1 0x0 ADD MLOAD PUSH20 0xFFFFFFFFFFFFFFFFFFFFFFFFFFFFFFFFFFFFFFFF AND DUP2 MSTORE PUSH1 0x20 ADD PUSH1 0x1 DUP2 MSTORE PUSH1 0x20 ADD DUP6 DUP5 DUP2 MLOAD DUP2 LT PUSH2 0x3102 JUMPI PUSH2 0x3101 PUSH2 0x521A JUMP JUMPDEST JUMPDEST PUSH1 0x20 MUL PUSH1 0x20 ADD ADD MLOAD PUSH1 0x20 ADD MLOAD DUP2 MSTORE PUSH1 0x20 ADD DUP6 DUP5 DUP2 MLOAD DUP2 LT PUSH2 0x3126 JUMPI PUSH2 0x3125 PUSH2 0x521A JUMP JUMPDEST JUMPDEST PUSH1 0x20 MUL PUSH1 0x20 ADD ADD MLOAD PUSH1 0x40 ADD MLOAD DUP2 MSTORE PUSH1 0x20 ADD DUP6 DUP5 DUP2 MLOAD DUP2 LT PUSH2 0x314A JUMPI PUSH2 0x3149 PUSH2 0x521A JUMP JUMPDEST JUMPDEST PUSH1 0x20 MUL PUSH1 0x20 ADD ADD MLOAD PUSH1 0xC0 ADD MLOAD DUP2 MSTORE POP SWAP1 DUP1 PUSH1 0x1 DUP2 SLOAD ADD DUP1 DUP3 SSTORE DUP1 SWAP2 POP POP PUSH1 0x1 SWAP1 SUB SWAP1 PUSH1 0x0 MSTORE PUSH1 0x20 PUSH1 0x0 KECCAK256 SWAP1 PUSH1 0x5 MUL ADD PUSH1 0x0 SWAP1 SWAP2 SWAP1 SWAP2 SWAP1 SWAP2 POP PUSH1 0x0 DUP3 ADD MLOAD DUP2 PUSH1 0x0 ADD PUSH1 0x0 PUSH2 0x100 EXP DUP2 SLOAD DUP2 PUSH20 0xFFFFFFFFFFFFFFFFFFFFFFFFFFFFFFFFFFFFFFFF MUL NOT AND SWAP1 DUP4 PUSH20 0xFFFFFFFFFFFFFFFFFFFFFFFFFFFFFFFFFFFFFFFF AND MUL OR SWAP1 SSTORE POP PUSH1 0x20 DUP3 ADD MLOAD DUP2 PUSH1 0x1 ADD SSTORE PUSH1 0x40 DUP3 ADD MLOAD DUP2 PUSH1 0x2 ADD SSTORE PUSH1 0x60 DUP3 ADD MLOAD DUP2 PUSH1 0x3 ADD SSTORE PUSH1 0x80 DUP3 ADD MLOAD DUP2 PUSH1 0x4 ADD SSTORE POP POP DUP2 DUP1 PUSH2 0x31FE SWAP1 PUSH2 0x5278 JUMP JUMPDEST SWAP3 POP POP JUMPDEST DUP1 DUP1 PUSH2 0x320D SWAP1 PUSH2 0x5278 JUMP JUMPDEST SWAP2 POP POP PUSH2 0x2F3E JUMP JUMPDEST POP POP POP POP POP JUMP JUMPDEST PUSH1 0x0 DUP1 DUP3 PUSH1 0x40 MLOAD PUSH2 0x322D SWAP2 SWAP1 PUSH2 0x56CA JUMP JUMPDEST SWAP1 DUP2 MSTORE PUSH1 0x20 ADD PUSH1 0x40 MLOAD DUP1 SWAP2 SUB SWAP1 KECCAK256 DUP1 SLOAD SWAP1 POP SWAP1 POP SWAP2 SWAP1 POP JUMP JUMPDEST PUSH2 0x324E PUSH2 0x37E6 JUMP JUMPDEST PUSH1 0x0 PUSH20 0xFFFFFFFFFFFFFFFFFFFFFFFFFFFFFFFFFFFFFFFF AND DUP2 PUSH20 0xFFFFFFFFFFFFFFFFFFFFFFFFFFFFFFFFFFFFFFFF AND SUB PUSH2 0x32BD JUMPI PUSH1 0x40 MLOAD PUSH32 0x8C379A000000000000000000000000000000000000000000000000000000000 DUP2 MSTORE PUSH1 0x4 ADD PUSH2 0x32B4 SWAP1 PUSH2 0x5A24 JUMP JUMPDEST PUSH1 0x40 MLOAD DUP1 SWAP2 SUB SWAP1 REVERT JUMPDEST PUSH2 0x32C6 DUP2 PUSH2 0x38C7 JUMP JUMPDEST POP JUMP JUMPDEST PUSH1 0x0 PUSH1 0x8 SLOAD SWAP1 POP SWAP1 JUMP JUMPDEST PUSH1 0x0 PUSH1 0x32 DUP3 PUSH2 0x32E2 SWAP2 SWAP1 PUSH2 0x5A44 JUMP JUMPDEST EQ PUSH2 0x3322 JUMPI PUSH1 0x40 MLOAD PUSH32 0x8C379A000000000000000000000000000000000000000000000000000000000 DUP2 MSTORE PUSH1 0x4 ADD PUSH2 0x3319 SWAP1 PUSH2 0x5AE7 JUMP JUMPDEST PUSH1 0x40 MLOAD DUP1 SWAP2 SUB SWAP1 REVERT JUMPDEST PUSH1 0xD PUSH1 0x0 SWAP1 SLOAD SWAP1 PUSH2 0x100 EXP SWAP1 DIV PUSH20 0xFFFFFFFFFFFFFFFFFFFFFFFFFFFFFFFFFFFFFFFF AND PUSH20 0xFFFFFFFFFFFFFFFFFFFFFFFFFFFFFFFFFFFFFFFF AND PUSH4 0x70A08231 CALLER PUSH1 0x40 MLOAD DUP3 PUSH4 0xFFFFFFFF AND PUSH1 0xE0 SHL DUP2 MSTORE PUSH1 0x4 ADD PUSH2 0x337D SWAP2 SWAP1 PUSH2 0x4C24 JUMP JUMPDEST PUSH1 0x20 PUSH1 0x40 MLOAD DUP1 DUP4 SUB DUP2 DUP7 GAS STATICCALL ISZERO DUP1 ISZERO PUSH2 0x339A JUMPI RETURNDATASIZE PUSH1 0x0 DUP1 RETURNDATACOPY RETURNDATASIZE PUSH1 0x0 REVERT JUMPDEST POP POP POP POP PUSH1 0x40 MLOAD RETURNDATASIZE PUSH1 0x1F NOT PUSH1 0x1F DUP3 ADD AND DUP3 ADD DUP1 PUSH1 0x40 MSTORE POP DUP2 ADD SWAP1 PUSH2 0x33BE SWAP2 SWAP1 PUSH2 0x56F6 JUMP JUMPDEST PUSH3 0xF4240 DUP3 PUSH2 0x33CD SWAP2 SWAP1 PUSH2 0x58C4 JUMP JUMPDEST GT ISZERO PUSH2 0x340E JUMPI PUSH1 0x40 MLOAD PUSH32 0x8C379A000000000000000000000000000000000000000000000000000000000 DUP2 MSTORE PUSH1 0x4 ADD PUSH2 0x3405 SWAP1 PUSH2 0x5B53 JUMP JUMPDEST PUSH1 0x40 MLOAD DUP1 SWAP2 SUB SWAP1 REVERT JUMPDEST PUSH1 0xD PUSH1 0x0 SWAP1 SLOAD SWAP1 PUSH2 0x100 EXP SWAP1 DIV PUSH20 0xFFFFFFFFFFFFFFFFFFFFFFFFFFFFFFFFFFFFFFFF AND PUSH20 0xFFFFFFFFFFFFFFFFFFFFFFFFFFFFFFFFFFFFFFFF AND PUSH4 0xDD62ED3E CALLER ADDRESS PUSH1 0x40 MLOAD DUP4 PUSH4 0xFFFFFFFF AND PUSH1 0xE0 SHL DUP2 MSTORE PUSH1 0x4 ADD PUSH2 0x346B SWAP3 SWAP2 SWAP1 PUSH2 0x5B73 JUMP JUMPDEST PUSH1 0x20 PUSH1 0x40 MLOAD DUP1 DUP4 SUB DUP2 DUP7 GAS STATICCALL ISZERO DUP1 ISZERO PUSH2 0x3488 JUMPI RETURNDATASIZE PUSH1 0x0 DUP1 RETURNDATACOPY RETURNDATASIZE PUSH1 0x0 REVERT JUMPDEST POP POP POP POP PUSH1 0x40 MLOAD RETURNDATASIZE PUSH1 0x1F NOT PUSH1 0x1F DUP3 ADD AND DUP3 ADD DUP1 PUSH1 0x40 MSTORE POP DUP2 ADD SWAP1 PUSH2 0x34AC SWAP2 SWAP1 PUSH2 0x56F6 JUMP JUMPDEST PUSH3 0xF4240 DUP3 PUSH2 0x34BB SWAP2 SWAP1 PUSH2 0x58C4 JUMP JUMPDEST GT ISZERO PUSH2 0x34FC JUMPI PUSH1 0x40 MLOAD PUSH32 0x8C379A000000000000000000000000000000000000000000000000000000000 DUP2 MSTORE PUSH1 0x4 ADD PUSH2 0x34F3 SWAP1 PUSH2 0x5BE8 JUMP JUMPDEST PUSH1 0x40 MLOAD DUP1 SWAP2 SUB SWAP1 REVERT JUMPDEST PUSH1 0x0 PUSH1 0x32 DUP3 PUSH2 0x350B SWAP2 SWAP1 PUSH2 0x5981 JUMP JUMPDEST SWAP1 POP PUSH1 0xD PUSH1 0x0 SWAP1 SLOAD SWAP1 PUSH2 0x100 EXP SWAP1 DIV PUSH20 0xFFFFFFFFFFFFFFFFFFFFFFFFFFFFFFFFFFFFFFFF AND PUSH20 0xFFFFFFFFFFFFFFFFFFFFFFFFFFFFFFFFFFFFFFFF AND PUSH4 0x23B872DD CALLER ADDRESS PUSH3 0xF4240 DUP7 PUSH2 0x355C SWAP2 SWAP1 PUSH2 0x58C4 JUMP JUMPDEST PUSH1 0x40 MLOAD DUP5 PUSH4 0xFFFFFFFF AND PUSH1 0xE0 SHL DUP2 MSTORE PUSH1 0x4 ADD PUSH2 0x357A SWAP4 SWAP3 SWAP2 SWAP1 PUSH2 0x5C08 JUMP JUMPDEST PUSH1 0x20 PUSH1 0x40 MLOAD DUP1 DUP4 SUB DUP2 PUSH1 0x0 DUP8 GAS CALL ISZERO DUP1 ISZERO PUSH2 0x3599 JUMPI RETURNDATASIZE PUSH1 0x0 DUP1 RETURNDATACOPY RETURNDATASIZE PUSH1 0x0 REVERT JUMPDEST POP POP POP POP PUSH1 0x40 MLOAD RETURNDATASIZE PUSH1 0x1F NOT PUSH1 0x1F DUP3 ADD AND DUP3 ADD DUP1 PUSH1 0x40 MSTORE POP DUP2 ADD SWAP1 PUSH2 0x35BD SWAP2 SWAP1 PUSH2 0x5C6B JUMP JUMPDEST POP PUSH1 0xD PUSH1 0x0 SWAP1 SLOAD SWAP1 PUSH2 0x100 EXP SWAP1 DIV PUSH20 0xFFFFFFFFFFFFFFFFFFFFFFFFFFFFFFFFFFFFFFFF AND PUSH20 0xFFFFFFFFFFFFFFFFFFFFFFFFFFFFFFFFFFFFFFFF AND PUSH4 0x95EA7B3 PUSH1 0x10 PUSH1 0x0 SWAP1 SLOAD SWAP1 PUSH2 0x100 EXP SWAP1 DIV PUSH20 0xFFFFFFFFFFFFFFFFFFFFFFFFFFFFFFFFFFFFFFFF AND PUSH3 0xF4240 DUP6 PUSH2 0x362E SWAP2 SWAP1 PUSH2 0x58C4 JUMP JUMPDEST PUSH1 0x40 MLOAD DUP4 PUSH4 0xFFFFFFFF AND PUSH1 0xE0 SHL DUP2 MSTORE PUSH1 0x4 ADD PUSH2 0x364B SWAP3 SWAP2 SWAP1 PUSH2 0x5C98 JUMP JUMPDEST PUSH1 0x20 PUSH1 0x40 MLOAD DUP1 DUP4 SUB DUP2 PUSH1 0x0 DUP8 GAS CALL ISZERO DUP1 ISZERO PUSH2 0x366A JUMPI RETURNDATASIZE PUSH1 0x0 DUP1 RETURNDATACOPY RETURNDATASIZE PUSH1 0x0 REVERT JUMPDEST POP POP POP POP PUSH1 0x40 MLOAD RETURNDATASIZE PUSH1 0x1F NOT PUSH1 0x1F DUP3 ADD AND DUP3 ADD DUP1 PUSH1 0x40 MSTORE POP DUP2 ADD SWAP1 PUSH2 0x368E SWAP2 SWAP1 PUSH2 0x5C6B JUMP JUMPDEST POP PUSH1 0x10 PUSH1 0x0 SWAP1 SLOAD SWAP1 PUSH2 0x100 EXP SWAP1 DIV PUSH20 0xFFFFFFFFFFFFFFFFFFFFFFFFFFFFFFFFFFFFFFFF AND PUSH20 0xFFFFFFFFFFFFFFFFFFFFFFFFFFFFFFFFFFFFFFFF AND PUSH4 0x617BA037 PUSH1 0xD PUSH1 0x0 SWAP1 SLOAD SWAP1 PUSH2 0x100 EXP SWAP1 DIV PUSH20 0xFFFFFFFFFFFFFFFFFFFFFFFFFFFFFFFFFFFFFFFF AND PUSH3 0xF4240 DUP6 PUSH2 0x36FF SWAP2 SWAP1 PUSH2 0x58C4 JUMP JUMPDEST ADDRESS PUSH1 0x0 PUSH1 0x40 MLOAD DUP6 PUSH4 0xFFFFFFFF AND PUSH1 0xE0 SHL DUP2 MSTORE PUSH1 0x4 ADD PUSH2 0x3721 SWAP5 SWAP4 SWAP3 SWAP2 SWAP1 PUSH2 0x5D0A JUMP JUMPDEST PUSH1 0x0 PUSH1 0x40 MLOAD DUP1 DUP4 SUB DUP2 PUSH1 0x0 DUP8 DUP1 EXTCODESIZE ISZERO DUP1 ISZERO PUSH2 0x373B JUMPI PUSH1 0x0 DUP1 REVERT JUMPDEST POP GAS CALL ISZERO DUP1 ISZERO PUSH2 0x374F JUMPI RETURNDATASIZE PUSH1 0x0 DUP1 RETURNDATACOPY RETURNDATASIZE PUSH1 0x0 REVERT JUMPDEST POP POP POP POP PUSH1 0xF PUSH1 0x0 SWAP1 SLOAD SWAP1 PUSH2 0x100 EXP SWAP1 DIV PUSH20 0xFFFFFFFFFFFFFFFFFFFFFFFFFFFFFFFFFFFFFFFF AND PUSH20 0xFFFFFFFFFFFFFFFFFFFFFFFFFFFFFFFFFFFFFFFF AND PUSH4 0x40C10F19 CALLER DUP4 PUSH1 0x40 MLOAD DUP4 PUSH4 0xFFFFFFFF AND PUSH1 0xE0 SHL DUP2 MSTORE PUSH1 0x4 ADD PUSH2 0x37B0 SWAP3 SWAP2 SWAP1 PUSH2 0x5C98 JUMP JUMPDEST PUSH1 0x0 PUSH1 0x40 MLOAD DUP1 DUP4 SUB DUP2 PUSH1 0x0 DUP8 DUP1 EXTCODESIZE ISZERO DUP1 ISZERO PUSH2 0x37CA JUMPI PUSH1 0x0 DUP1 REVERT JUMPDEST POP GAS CALL ISZERO DUP1 ISZERO PUSH2 0x37DE JUMPI RETURNDATASIZE PUSH1 0x0 DUP1 RETURNDATACOPY RETURNDATASIZE PUSH1 0x0 REVERT JUMPDEST POP POP POP POP POP POP JUMP JUMPDEST PUSH2 0x37EE PUSH2 0x3A31 JUMP JUMPDEST PUSH20 0xFFFFFFFFFFFFFFFFFFFFFFFFFFFFFFFFFFFFFFFF AND PUSH2 0x380C PUSH2 0x1BD3 JUMP JUMPDEST PUSH20 0xFFFFFFFFFFFFFFFFFFFFFFFFFFFFFFFFFFFFFFFF AND EQ PUSH2 0x3862 JUMPI PUSH1 0x40 MLOAD PUSH32 0x8C379A000000000000000000000000000000000000000000000000000000000 DUP2 MSTORE PUSH1 0x4 ADD PUSH2 0x3859 SWAP1 PUSH2 0x5D9B JUMP JUMPDEST PUSH1 0x40 MLOAD DUP1 SWAP2 SUB SWAP1 REVERT JUMPDEST JUMP JUMPDEST PUSH2 0x386C PUSH2 0x3A39 JUMP JUMPDEST PUSH1 0x0 PUSH1 0xA PUSH1 0x14 PUSH2 0x100 EXP DUP2 SLOAD DUP2 PUSH1 0xFF MUL NOT AND SWAP1 DUP4 ISZERO ISZERO MUL OR SWAP1 SSTORE POP PUSH32 0x5DB9EE0A495BF2E6FF9C91A7834C1BA4FDD244A5E8AA4E537BD38AEAE4B073AA PUSH2 0x38B0 PUSH2 0x3A31 JUMP JUMPDEST PUSH1 0x40 MLOAD PUSH2 0x38BD SWAP2 SWAP1 PUSH2 0x4C24 JUMP JUMPDEST PUSH1 0x40 MLOAD DUP1 SWAP2 SUB SWAP1 LOG1 JUMP JUMPDEST PUSH1 0x0 PUSH1 0xA PUSH1 0x0 SWAP1 SLOAD SWAP1 PUSH2 0x100 EXP SWAP1 DIV PUSH20 0xFFFFFFFFFFFFFFFFFFFFFFFFFFFFFFFFFFFFFFFF AND SWAP1 POP DUP2 PUSH1 0xA PUSH1 0x0 PUSH2 0x100 EXP DUP2 SLOAD DUP2 PUSH20 0xFFFFFFFFFFFFFFFFFFFFFFFFFFFFFFFFFFFFFFFF MUL NOT AND SWAP1 DUP4 PUSH20 0xFFFFFFFFFFFFFFFFFFFFFFFFFFFFFFFFFFFFFFFF AND MUL OR SWAP1 SSTORE POP DUP2 PUSH20 0xFFFFFFFFFFFFFFFFFFFFFFFFFFFFFFFFFFFFFFFF AND DUP2 PUSH20 0xFFFFFFFFFFFFFFFFFFFFFFFFFFFFFFFFFFFFFFFF AND PUSH32 0x8BE0079C531659141344CD1FD0A4F28419497F9722A3DAAFE3B4186F6B6457E0 PUSH1 0x40 MLOAD PUSH1 0x40 MLOAD DUP1 SWAP2 SUB SWAP1 LOG3 POP POP JUMP JUMPDEST PUSH1 0x0 DUP1 DUP3 PUSH1 0xFF AND DUP5 PUSH1 0xFF AND GT ISZERO PUSH2 0x39A7 JUMPI PUSH1 0x0 SWAP1 POP PUSH2 0x39C4 JUMP JUMPDEST DUP4 PUSH1 0xFF AND DUP4 PUSH1 0xFF AND GT ISZERO PUSH2 0x39BE JUMPI PUSH1 0x2 SWAP1 POP PUSH2 0x39C3 JUMP JUMPDEST PUSH1 0x1 SWAP1 POP JUMPDEST JUMPDEST DUP1 SWAP2 POP POP SWAP3 SWAP2 POP POP JUMP JUMPDEST PUSH2 0x39D6 PUSH2 0x3A82 JUMP JUMPDEST PUSH1 0x1 PUSH1 0xA PUSH1 0x14 PUSH2 0x100 EXP DUP2 SLOAD DUP2 PUSH1 0xFF MUL NOT AND SWAP1 DUP4 ISZERO ISZERO MUL OR SWAP1 SSTORE POP PUSH32 0x62E78CEA01BEE320CD4E420270B5EA74000D11B0C9F74754EBDBFC544B05A258 PUSH2 0x3A1A PUSH2 0x3A31 JUMP JUMPDEST PUSH1 0x40 MLOAD PUSH2 0x3A27 SWAP2 SWAP1 PUSH2 0x4C24 JUMP JUMPDEST PUSH1 0x40 MLOAD DUP1 SWAP2 SUB SWAP1 LOG1 JUMP JUMPDEST PUSH1 0x0 CALLER SWAP1 POP SWAP1 JUMP JUMPDEST PUSH2 0x3A41 PUSH2 0x1246 JUMP JUMPDEST PUSH2 0x3A80 JUMPI PUSH1 0x40 MLOAD PUSH32 0x8C379A000000000000000000000000000000000000000000000000000000000 DUP2 MSTORE PUSH1 0x4 ADD PUSH2 0x3A77 SWAP1 PUSH2 0x5E07 JUMP JUMPDEST PUSH1 0x40 MLOAD DUP1 SWAP2 SUB SWAP1 REVERT JUMPDEST JUMP JUMPDEST PUSH2 0x3A8A PUSH2 0x1246 JUMP JUMPDEST ISZERO PUSH2 0x3ACA JUMPI PUSH1 0x40 MLOAD PUSH32 0x8C379A000000000000000000000000000000000000000000000000000000000 DUP2 MSTORE PUSH1 0x4 ADD PUSH2 0x3AC1 SWAP1 PUSH2 0x5E73 JUMP JUMPDEST PUSH1 0x40 MLOAD DUP1 SWAP2 SUB SWAP1 REVERT JUMPDEST JUMP JUMPDEST PUSH1 0x40 MLOAD DUP1 PUSH1 0x60 ADD PUSH1 0x40 MSTORE DUP1 PUSH1 0x0 PUSH4 0xFFFFFFFF AND DUP2 MSTORE PUSH1 0x20 ADD PUSH1 0x0 PUSH1 0xFF AND DUP2 MSTORE PUSH1 0x20 ADD PUSH1 0x0 PUSH1 0xFF AND DUP2 MSTORE POP SWAP1 JUMP JUMPDEST PUSH1 0x40 MLOAD DUP1 PUSH1 0x80 ADD PUSH1 0x40 MSTORE DUP1 PUSH1 0x0 PUSH4 0xFFFFFFFF AND DUP2 MSTORE PUSH1 0x20 ADD PUSH1 0x0 PUSH5 0xFFFFFFFFFF AND DUP2 MSTORE PUSH1 0x20 ADD PUSH1 0x60 DUP2 MSTORE PUSH1 0x20 ADD PUSH1 0x60 DUP2 MSTORE POP SWAP1 JUMP JUMPDEST PUSH1 0x40 MLOAD DUP1 PUSH1 0x40 ADD PUSH1 0x40 MSTORE DUP1 PUSH1 0x0 PUSH1 0xFF AND DUP2 MSTORE PUSH1 0x20 ADD PUSH1 0x0 PUSH1 0xFF AND DUP2 MSTORE POP SWAP1 JUMP JUMPDEST PUSH1 0x40 MLOAD DUP1 PUSH1 0x60 ADD PUSH1 0x40 MSTORE DUP1 PUSH1 0x0 PUSH20 0xFFFFFFFFFFFFFFFFFFFFFFFFFFFFFFFFFFFFFFFF AND DUP2 MSTORE PUSH1 0x20 ADD PUSH1 0x0 DUP2 MSTORE PUSH1 0x20 ADD PUSH1 0x0 DUP2 MSTORE POP SWAP1 JUMP JUMPDEST PUSH1 0x40 MLOAD DUP1 PUSH1 0x60 ADD PUSH1 0x40 MSTORE DUP1 PUSH1 0x0 PUSH20 0xFFFFFFFFFFFFFFFFFFFFFFFFFFFFFFFFFFFFFFFF AND DUP2 MSTORE PUSH1 0x20 ADD PUSH1 0x0 DUP2 MSTORE PUSH1 0x20 ADD PUSH1 0x0 DUP2 MSTORE POP SWAP1 JUMP JUMPDEST PUSH1 0x40 MLOAD DUP1 PUSH1 0x40 ADD PUSH1 0x40 MSTORE DUP1 PUSH1 0x0 PUSH20 0xFFFFFFFFFFFFFFFFFFFFFFFFFFFFFFFFFFFFFFFF AND DUP2 MSTORE PUSH1 0x20 ADD PUSH1 0x0 DUP2 MSTORE POP SWAP1 JUMP JUMPDEST PUSH1 0x40 MLOAD DUP1 PUSH1 0xE0 ADD PUSH1 0x40 MSTORE DUP1 PUSH1 0x0 PUSH20 0xFFFFFFFFFFFFFFFFFFFFFFFFFFFFFFFFFFFFFFFF AND DUP2 MSTORE PUSH1 0x20 ADD PUSH1 0x0 DUP2 MSTORE PUSH1 0x20 ADD PUSH1 0x0 DUP2 MSTORE PUSH1 0x20 ADD PUSH1 0x0 DUP2 MSTORE PUSH1 0x20 ADD PUSH1 0x0 DUP2 MSTORE PUSH1 0x20 ADD PUSH1 0x0 DUP2 MSTORE PUSH1 0x20 ADD PUSH1 0x0 DUP2 MSTORE POP SWAP1 JUMP JUMPDEST PUSH1 0x0 DUP2 SWAP1 POP SWAP2 SWAP1 POP JUMP JUMPDEST PUSH2 0x3C52 DUP2 PUSH2 0x3C3F JUMP JUMPDEST DUP3 MSTORE POP POP JUMP JUMPDEST PUSH1 0x0 PUSH1 0x20 DUP3 ADD SWAP1 POP PUSH2 0x3C6D PUSH1 0x0 DUP4 ADD DUP5 PUSH2 0x3C49 JUMP JUMPDEST SWAP3 SWAP2 POP POP JUMP JUMPDEST PUSH1 0x0 PUSH1 0x40 MLOAD SWAP1 POP SWAP1 JUMP JUMPDEST PUSH1 0x0 DUP1 REVERT JUMPDEST PUSH1 0x0 DUP1 REVERT JUMPDEST PUSH2 0x3C90 DUP2 PUSH2 0x3C3F JUMP JUMPDEST DUP2 EQ PUSH2 0x3C9B JUMPI PUSH1 0x0 DUP1 REVERT JUMPDEST POP JUMP JUMPDEST PUSH1 0x0 DUP2 CALLDATALOAD SWAP1 POP PUSH2 0x3CAD DUP2 PUSH2 0x3C87 JUMP JUMPDEST SWAP3 SWAP2 POP POP JUMP JUMPDEST PUSH1 0x0 PUSH20 0xFFFFFFFFFFFFFFFFFFFFFFFFFFFFFFFFFFFFFFFF DUP3 AND SWAP1 POP SWAP2 SWAP1 POP JUMP JUMPDEST PUSH1 0x0 PUSH2 0x3CDE DUP3 PUSH2 0x3CB3 JUMP JUMPDEST SWAP1 POP SWAP2 SWAP1 POP JUMP JUMPDEST PUSH2 0x3CEE DUP2 PUSH2 0x3CD3 JUMP JUMPDEST DUP2 EQ PUSH2 0x3CF9 JUMPI PUSH1 0x0 DUP1 REVERT JUMPDEST POP JUMP JUMPDEST PUSH1 0x0 DUP2 CALLDATALOAD SWAP1 POP PUSH2 0x3D0B DUP2 PUSH2 0x3CE5 JUMP JUMPDEST SWAP3 SWAP2 POP POP JUMP JUMPDEST PUSH1 0x0 DUP1 PUSH1 0x40 DUP4 DUP6 SUB SLT ISZERO PUSH2 0x3D28 JUMPI PUSH2 0x3D27 PUSH2 0x3C7D JUMP JUMPDEST JUMPDEST PUSH1 0x0 PUSH2 0x3D36 DUP6 DUP3 DUP7 ADD PUSH2 0x3C9E JUMP JUMPDEST SWAP3 POP POP PUSH1 0x20 PUSH2 0x3D47 DUP6 DUP3 DUP7 ADD PUSH2 0x3CFC JUMP JUMPDEST SWAP2 POP POP SWAP3 POP SWAP3 SWAP1 POP JUMP JUMPDEST PUSH1 0x0 DUP2 MLOAD SWAP1 POP SWAP2 SWAP1 POP JUMP JUMPDEST PUSH1 0x0 DUP3 DUP3 MSTORE PUSH1 0x20 DUP3 ADD SWAP1 POP SWAP3 SWAP2 POP POP JUMP JUMPDEST PUSH1 0x0 DUP2 SWAP1 POP PUSH1 0x20 DUP3 ADD SWAP1 POP SWAP2 SWAP1 POP JUMP JUMPDEST PUSH1 0x0 PUSH4 0xFFFFFFFF DUP3 AND SWAP1 POP SWAP2 SWAP1 POP JUMP JUMPDEST PUSH2 0x3D96 DUP2 PUSH2 0x3D7D JUMP JUMPDEST DUP3 MSTORE POP POP JUMP JUMPDEST PUSH1 0x0 PUSH1 0xFF DUP3 AND SWAP1 POP SWAP2 SWAP1 POP JUMP JUMPDEST PUSH2 0x3DB2 DUP2 PUSH2 0x3D9C JUMP JUMPDEST DUP3 MSTORE POP POP JUMP JUMPDEST PUSH1 0x60 DUP3 ADD PUSH1 0x0 DUP3 ADD MLOAD PUSH2 0x3DCE PUSH1 0x0 DUP6 ADD DUP3 PUSH2 0x3D8D JUMP JUMPDEST POP PUSH1 0x20 DUP3 ADD MLOAD PUSH2 0x3DE1 PUSH1 0x20 DUP6 ADD DUP3 PUSH2 0x3DA9 JUMP JUMPDEST POP PUSH1 0x40 DUP3 ADD MLOAD PUSH2 0x3DF4 PUSH1 0x40 DUP6 ADD DUP3 PUSH2 0x3DA9 JUMP JUMPDEST POP POP POP POP JUMP JUMPDEST PUSH1 0x0 PUSH2 0x3E06 DUP4 DUP4 PUSH2 0x3DB8 JUMP JUMPDEST PUSH1 0x60 DUP4 ADD SWAP1 POP SWAP3 SWAP2 POP POP JUMP JUMPDEST PUSH1 0x0 PUSH1 0x20 DUP3 ADD SWAP1 POP SWAP2 SWAP1 POP JUMP JUMPDEST PUSH1 0x0 PUSH2 0x3E2A DUP3 PUSH2 0x3D51 JUMP JUMPDEST PUSH2 0x3E34 DUP2 DUP6 PUSH2 0x3D5C JUMP JUMPDEST SWAP4 POP PUSH2 0x3E3F DUP4 PUSH2 0x3D6D JUMP JUMPDEST DUP1 PUSH1 0x0 JUMPDEST DUP4 DUP2 LT ISZERO PUSH2 0x3E70 JUMPI DUP2 MLOAD PUSH2 0x3E57 DUP9 DUP3 PUSH2 0x3DFA JUMP JUMPDEST SWAP8 POP PUSH2 0x3E62 DUP4 PUSH2 0x3E12 JUMP JUMPDEST SWAP3 POP POP PUSH1 0x1 DUP2 ADD SWAP1 POP PUSH2 0x3E43 JUMP JUMPDEST POP DUP6 SWAP4 POP POP POP POP SWAP3 SWAP2 POP POP JUMP JUMPDEST PUSH1 0x0 PUSH1 0x20 DUP3 ADD SWAP1 POP DUP2 DUP2 SUB PUSH1 0x0 DUP4 ADD MSTORE PUSH2 0x3E97 DUP2 DUP5 PUSH2 0x3E1F JUMP JUMPDEST SWAP1 POP SWAP3 SWAP2 POP POP JUMP JUMPDEST PUSH1 0x0 PUSH1 0x20 DUP3 DUP5 SUB SLT ISZERO PUSH2 0x3EB5 JUMPI PUSH2 0x3EB4 PUSH2 0x3C7D JUMP JUMPDEST JUMPDEST PUSH1 0x0 PUSH2 0x3EC3 DUP5 DUP3 DUP6 ADD PUSH2 0x3C9E JUMP JUMPDEST SWAP2 POP POP SWAP3 SWAP2 POP POP JUMP JUMPDEST PUSH1 0x0 DUP2 MLOAD SWAP1 POP SWAP2 SWAP1 POP JUMP JUMPDEST PUSH1 0x0 DUP3 DUP3 MSTORE PUSH1 0x20 DUP3 ADD SWAP1 POP SWAP3 SWAP2 POP POP JUMP JUMPDEST PUSH1 0x0 DUP2 SWAP1 POP PUSH1 0x20 DUP3 ADD SWAP1 POP SWAP2 SWAP1 POP JUMP JUMPDEST PUSH1 0x0 DUP2 MLOAD SWAP1 POP SWAP2 SWAP1 POP JUMP JUMPDEST PUSH1 0x0 DUP3 DUP3 MSTORE PUSH1 0x20 DUP3 ADD SWAP1 POP SWAP3 SWAP2 POP POP JUMP JUMPDEST PUSH1 0x0 JUMPDEST DUP4 DUP2 LT ISZERO PUSH2 0x3F32 JUMPI DUP1 DUP3 ADD MLOAD DUP2 DUP5 ADD MSTORE PUSH1 0x20 DUP2 ADD SWAP1 POP PUSH2 0x3F17 JUMP JUMPDEST DUP4 DUP2 GT ISZERO PUSH2 0x3F41 JUMPI PUSH1 0x0 DUP5 DUP5 ADD MSTORE JUMPDEST POP POP POP POP JUMP JUMPDEST PUSH1 0x0 PUSH1 0x1F NOT PUSH1 0x1F DUP4 ADD AND SWAP1 POP SWAP2 SWAP1 POP JUMP JUMPDEST PUSH1 0x0 PUSH2 0x3F63 DUP3 PUSH2 0x3EF8 JUMP JUMPDEST PUSH2 0x3F6D DUP2 DUP6 PUSH2 0x3F03 JUMP JUMPDEST SWAP4 POP PUSH2 0x3F7D DUP2 DUP6 PUSH1 0x20 DUP7 ADD PUSH2 0x3F14 JUMP JUMPDEST PUSH2 0x3F86 DUP2 PUSH2 0x3F47 JUMP JUMPDEST DUP5 ADD SWAP2 POP POP SWAP3 SWAP2 POP POP JUMP JUMPDEST PUSH1 0x0 PUSH2 0x3F9D DUP4 DUP4 PUSH2 0x3F58 JUMP JUMPDEST SWAP1 POP SWAP3 SWAP2 POP POP JUMP JUMPDEST PUSH1 0x0 PUSH1 0x20 DUP3 ADD SWAP1 POP SWAP2 SWAP1 POP JUMP JUMPDEST PUSH1 0x0 PUSH2 0x3FBD DUP3 PUSH2 0x3ECC JUMP JUMPDEST PUSH2 0x3FC7 DUP2 DUP6 PUSH2 0x3ED7 JUMP JUMPDEST SWAP4 POP DUP4 PUSH1 0x20 DUP3 MUL DUP6 ADD PUSH2 0x3FD9 DUP6 PUSH2 0x3EE8 JUMP JUMPDEST DUP1 PUSH1 0x0 JUMPDEST DUP6 DUP2 LT ISZERO PUSH2 0x4015 JUMPI DUP5 DUP5 SUB DUP10 MSTORE DUP2 MLOAD PUSH2 0x3FF6 DUP6 DUP3 PUSH2 0x3F91 JUMP JUMPDEST SWAP5 POP PUSH2 0x4001 DUP4 PUSH2 0x3FA5 JUMP JUMPDEST SWAP3 POP PUSH1 0x20 DUP11 ADD SWAP10 POP POP PUSH1 0x1 DUP2 ADD SWAP1 POP PUSH2 0x3FDD JUMP JUMPDEST POP DUP3 SWAP8 POP DUP8 SWAP6 POP POP POP POP POP POP SWAP3 SWAP2 POP POP JUMP JUMPDEST PUSH1 0x0 PUSH1 0x20 DUP3 ADD SWAP1 POP DUP2 DUP2 SUB PUSH1 0x0 DUP4 ADD MSTORE PUSH2 0x4041 DUP2 DUP5 PUSH2 0x3FB2 JUMP JUMPDEST SWAP1 POP SWAP3 SWAP2 POP POP JUMP JUMPDEST PUSH1 0x0 DUP1 REVERT JUMPDEST PUSH32 0x4E487B7100000000000000000000000000000000000000000000000000000000 PUSH1 0x0 MSTORE PUSH1 0x41 PUSH1 0x4 MSTORE PUSH1 0x24 PUSH1 0x0 REVERT JUMPDEST PUSH2 0x4086 DUP3 PUSH2 0x3F47 JUMP JUMPDEST DUP2 ADD DUP2 DUP2 LT PUSH8 0xFFFFFFFFFFFFFFFF DUP3 GT OR ISZERO PUSH2 0x40A5 JUMPI PUSH2 0x40A4 PUSH2 0x404E JUMP JUMPDEST JUMPDEST DUP1 PUSH1 0x40 MSTORE POP POP POP JUMP JUMPDEST PUSH1 0x0 PUSH2 0x40B8 PUSH2 0x3C73 JUMP JUMPDEST SWAP1 POP PUSH2 0x40C4 DUP3 DUP3 PUSH2 0x407D JUMP JUMPDEST SWAP2 SWAP1 POP JUMP JUMPDEST PUSH1 0x0 PUSH8 0xFFFFFFFFFFFFFFFF DUP3 GT ISZERO PUSH2 0x40E4 JUMPI PUSH2 0x40E3 PUSH2 0x404E JUMP JUMPDEST JUMPDEST PUSH1 0x20 DUP3 MUL SWAP1 POP PUSH1 0x20 DUP2 ADD SWAP1 POP SWAP2 SWAP1 POP JUMP JUMPDEST PUSH1 0x0 DUP1 REVERT JUMPDEST PUSH1 0x0 DUP1 REVERT JUMPDEST PUSH1 0x0 PUSH8 0xFFFFFFFFFFFFFFFF DUP3 GT ISZERO PUSH2 0x411A JUMPI PUSH2 0x4119 PUSH2 0x404E JUMP JUMPDEST JUMPDEST PUSH2 0x4123 DUP3 PUSH2 0x3F47 JUMP JUMPDEST SWAP1 POP PUSH1 0x20 DUP2 ADD SWAP1 POP SWAP2 SWAP1 POP JUMP JUMPDEST DUP3 DUP2 DUP4 CALLDATACOPY PUSH1 0x0 DUP4 DUP4 ADD MSTORE POP POP POP JUMP JUMPDEST PUSH1 0x0 PUSH2 0x4152 PUSH2 0x414D DUP5 PUSH2 0x40FF JUMP JUMPDEST PUSH2 0x40AE JUMP JUMPDEST SWAP1 POP DUP3 DUP2 MSTORE PUSH1 0x20 DUP2 ADD DUP5 DUP5 DUP5 ADD GT ISZERO PUSH2 0x416E JUMPI PUSH2 0x416D PUSH2 0x40FA JUMP JUMPDEST JUMPDEST PUSH2 0x4179 DUP5 DUP3 DUP6 PUSH2 0x4130 JUMP JUMPDEST POP SWAP4 SWAP3 POP POP POP JUMP JUMPDEST PUSH1 0x0 DUP3 PUSH1 0x1F DUP4 ADD SLT PUSH2 0x4196 JUMPI PUSH2 0x4195 PUSH2 0x4049 JUMP JUMPDEST JUMPDEST DUP2 CALLDATALOAD PUSH2 0x41A6 DUP5 DUP3 PUSH1 0x20 DUP7 ADD PUSH2 0x413F JUMP JUMPDEST SWAP2 POP POP SWAP3 SWAP2 POP POP JUMP JUMPDEST PUSH1 0x0 PUSH2 0x41C2 PUSH2 0x41BD DUP5 PUSH2 0x40C9 JUMP JUMPDEST PUSH2 0x40AE JUMP JUMPDEST SWAP1 POP DUP1 DUP4 DUP3 MSTORE PUSH1 0x20 DUP3 ADD SWAP1 POP PUSH1 0x20 DUP5 MUL DUP4 ADD DUP6 DUP2 GT ISZERO PUSH2 0x41E5 JUMPI PUSH2 0x41E4 PUSH2 0x40F5 JUMP JUMPDEST JUMPDEST DUP4 JUMPDEST DUP2 DUP2 LT ISZERO PUSH2 0x422C JUMPI DUP1 CALLDATALOAD PUSH8 0xFFFFFFFFFFFFFFFF DUP2 GT ISZERO PUSH2 0x420A JUMPI PUSH2 0x4209 PUSH2 0x4049 JUMP JUMPDEST JUMPDEST DUP1 DUP7 ADD PUSH2 0x4217 DUP10 DUP3 PUSH2 0x4181 JUMP JUMPDEST DUP6 MSTORE PUSH1 0x20 DUP6 ADD SWAP5 POP POP POP PUSH1 0x20 DUP2 ADD SWAP1 POP PUSH2 0x41E7 JUMP JUMPDEST POP POP POP SWAP4 SWAP3 POP POP POP JUMP JUMPDEST PUSH1 0x0 DUP3 PUSH1 0x1F DUP4 ADD SLT PUSH2 0x424B JUMPI PUSH2 0x424A PUSH2 0x4049 JUMP JUMPDEST JUMPDEST DUP2 CALLDATALOAD PUSH2 0x425B DUP5 DUP3 PUSH1 0x20 DUP7 ADD PUSH2 0x41AF JUMP JUMPDEST SWAP2 POP POP SWAP3 SWAP2 POP POP JUMP JUMPDEST PUSH1 0x0 DUP1 PUSH1 0x0 PUSH1 0x60 DUP5 DUP7 SUB SLT ISZERO PUSH2 0x427D JUMPI PUSH2 0x427C PUSH2 0x3C7D JUMP JUMPDEST JUMPDEST PUSH1 0x0 PUSH2 0x428B DUP7 DUP3 DUP8 ADD PUSH2 0x3C9E JUMP JUMPDEST SWAP4 POP POP PUSH1 0x20 DUP5 ADD CALLDATALOAD PUSH8 0xFFFFFFFFFFFFFFFF DUP2 GT ISZERO PUSH2 0x42AC JUMPI PUSH2 0x42AB PUSH2 0x3C82 JUMP JUMPDEST JUMPDEST PUSH2 0x42B8 DUP7 DUP3 DUP8 ADD PUSH2 0x4236 JUMP JUMPDEST SWAP3 POP POP PUSH1 0x40 PUSH2 0x42C9 DUP7 DUP3 DUP8 ADD PUSH2 0x3C9E JUMP JUMPDEST SWAP2 POP POP SWAP3 POP SWAP3 POP SWAP3 JUMP JUMPDEST PUSH2 0x42DC DUP2 PUSH2 0x3D7D JUMP JUMPDEST DUP2 EQ PUSH2 0x42E7 JUMPI PUSH1 0x0 DUP1 REVERT JUMPDEST POP JUMP JUMPDEST PUSH1 0x0 DUP2 CALLDATALOAD SWAP1 POP PUSH2 0x42F9 DUP2 PUSH2 0x42D3 JUMP JUMPDEST SWAP3 SWAP2 POP POP JUMP JUMPDEST PUSH1 0x0 PUSH1 0x20 DUP3 DUP5 SUB SLT ISZERO PUSH2 0x4315 JUMPI PUSH2 0x4314 PUSH2 0x3C7D JUMP JUMPDEST JUMPDEST PUSH1 0x0 PUSH2 0x4323 DUP5 DUP3 DUP6 ADD PUSH2 0x42EA JUMP JUMPDEST SWAP2 POP POP SWAP3 SWAP2 POP POP JUMP JUMPDEST PUSH1 0x40 DUP3 ADD PUSH1 0x0 DUP3 ADD MLOAD PUSH2 0x4342 PUSH1 0x0 DUP6 ADD DUP3 PUSH2 0x3DA9 JUMP JUMPDEST POP PUSH1 0x20 DUP3 ADD MLOAD PUSH2 0x4355 PUSH1 0x20 DUP6 ADD DUP3 PUSH2 0x3DA9 JUMP JUMPDEST POP POP POP POP JUMP JUMPDEST PUSH1 0x0 PUSH1 0x40 DUP3 ADD SWAP1 POP PUSH2 0x4370 PUSH1 0x0 DUP4 ADD DUP5 PUSH2 0x432C JUMP JUMPDEST SWAP3 SWAP2 POP POP JUMP JUMPDEST PUSH1 0x0 PUSH8 0xFFFFFFFFFFFFFFFF DUP3 GT ISZERO PUSH2 0x4391 JUMPI PUSH2 0x4390 PUSH2 0x404E JUMP JUMPDEST JUMPDEST PUSH1 0x20 DUP3 MUL SWAP1 POP PUSH1 0x20 DUP2 ADD SWAP1 POP SWAP2 SWAP1 POP JUMP JUMPDEST PUSH1 0x0 DUP1 REVERT JUMPDEST PUSH1 0x0 DUP1 REVERT JUMPDEST PUSH1 0x0 PUSH5 0xFFFFFFFFFF DUP3 AND SWAP1 POP SWAP2 SWAP1 POP JUMP JUMPDEST PUSH2 0x43C6 DUP2 PUSH2 0x43AC JUMP JUMPDEST DUP2 EQ PUSH2 0x43D1 JUMPI PUSH1 0x0 DUP1 REVERT JUMPDEST POP JUMP JUMPDEST PUSH1 0x0 DUP2 CALLDATALOAD SWAP1 POP PUSH2 0x43E3 DUP2 PUSH2 0x43BD JUMP JUMPDEST SWAP3 SWAP2 POP POP JUMP JUMPDEST PUSH1 0x0 PUSH1 0x80 DUP3 DUP5 SUB SLT ISZERO PUSH2 0x43FF JUMPI PUSH2 0x43FE PUSH2 0x43A2 JUMP JUMPDEST JUMPDEST PUSH2 0x4409 PUSH1 0x80 PUSH2 0x40AE JUMP JUMPDEST SWAP1 POP PUSH1 0x0 PUSH2 0x4419 DUP5 DUP3 DUP6 ADD PUSH2 0x42EA JUMP JUMPDEST PUSH1 0x0 DUP4 ADD MSTORE POP PUSH1 0x20 PUSH2 0x442D DUP5 DUP3 DUP6 ADD PUSH2 0x43D4 JUMP JUMPDEST PUSH1 0x20 DUP4 ADD MSTORE POP PUSH1 0x40 DUP3 ADD CALLDATALOAD PUSH8 0xFFFFFFFFFFFFFFFF DUP2 GT ISZERO PUSH2 0x4451 JUMPI PUSH2 0x4450 PUSH2 0x43A7 JUMP JUMPDEST JUMPDEST PUSH2 0x445D DUP5 DUP3 DUP6 ADD PUSH2 0x4181 JUMP JUMPDEST PUSH1 0x40 DUP4 ADD MSTORE POP PUSH1 0x60 DUP3 ADD CALLDATALOAD PUSH8 0xFFFFFFFFFFFFFFFF DUP2 GT ISZERO PUSH2 0x4481 JUMPI PUSH2 0x4480 PUSH2 0x43A7 JUMP JUMPDEST JUMPDEST PUSH2 0x448D DUP5 DUP3 DUP6 ADD PUSH2 0x4181 JUMP JUMPDEST PUSH1 0x60 DUP4 ADD MSTORE POP SWAP3 SWAP2 POP POP JUMP JUMPDEST PUSH1 0x0 PUSH2 0x44AC PUSH2 0x44A7 DUP5 PUSH2 0x4376 JUMP JUMPDEST PUSH2 0x40AE JUMP JUMPDEST SWAP1 POP DUP1 DUP4 DUP3 MSTORE PUSH1 0x20 DUP3 ADD SWAP1 POP PUSH1 0x20 DUP5 MUL DUP4 ADD DUP6 DUP2 GT ISZERO PUSH2 0x44CF JUMPI PUSH2 0x44CE PUSH2 0x40F5 JUMP JUMPDEST JUMPDEST DUP4 JUMPDEST DUP2 DUP2 LT ISZERO PUSH2 0x4516 JUMPI DUP1 CALLDATALOAD PUSH8 0xFFFFFFFFFFFFFFFF DUP2 GT ISZERO PUSH2 0x44F4 JUMPI PUSH2 0x44F3 PUSH2 0x4049 JUMP JUMPDEST JUMPDEST DUP1 DUP7 ADD PUSH2 0x4501 DUP10 DUP3 PUSH2 0x43E9 JUMP JUMPDEST DUP6 MSTORE PUSH1 0x20 DUP6 ADD SWAP5 POP POP POP PUSH1 0x20 DUP2 ADD SWAP1 POP PUSH2 0x44D1 JUMP JUMPDEST POP POP POP SWAP4 SWAP3 POP POP POP JUMP JUMPDEST PUSH1 0x0 DUP3 PUSH1 0x1F DUP4 ADD SLT PUSH2 0x4535 JUMPI PUSH2 0x4534 PUSH2 0x4049 JUMP JUMPDEST JUMPDEST DUP2 CALLDATALOAD PUSH2 0x4545 DUP5 DUP3 PUSH1 0x20 DUP7 ADD PUSH2 0x4499 JUMP JUMPDEST SWAP2 POP POP SWAP3 SWAP2 POP POP JUMP JUMPDEST PUSH1 0x0 DUP1 PUSH1 0x40 DUP4 DUP6 SUB SLT ISZERO PUSH2 0x4565 JUMPI PUSH2 0x4564 PUSH2 0x3C7D JUMP JUMPDEST JUMPDEST PUSH1 0x0 DUP4 ADD CALLDATALOAD PUSH8 0xFFFFFFFFFFFFFFFF DUP2 GT ISZERO PUSH2 0x4583 JUMPI PUSH2 0x4582 PUSH2 0x3C82 JUMP JUMPDEST JUMPDEST PUSH2 0x458F DUP6 DUP3 DUP7 ADD PUSH2 0x4181 JUMP JUMPDEST SWAP3 POP POP PUSH1 0x20 DUP4 ADD CALLDATALOAD PUSH8 0xFFFFFFFFFFFFFFFF DUP2 GT ISZERO PUSH2 0x45B0 JUMPI PUSH2 0x45AF PUSH2 0x3C82 JUMP JUMPDEST JUMPDEST PUSH2 0x45BC DUP6 DUP3 DUP7 ADD PUSH2 0x4520 JUMP JUMPDEST SWAP2 POP POP SWAP3 POP SWAP3 SWAP1 POP JUMP JUMPDEST PUSH1 0x0 DUP2 MLOAD SWAP1 POP SWAP2 SWAP1 POP JUMP JUMPDEST PUSH1 0x0 DUP3 DUP3 MSTORE PUSH1 0x20 DUP3 ADD SWAP1 POP SWAP3 SWAP2 POP POP JUMP JUMPDEST PUSH1 0x0 DUP2 SWAP1 POP PUSH1 0x20 DUP3 ADD SWAP1 POP SWAP2 SWAP1 POP JUMP JUMPDEST PUSH2 0x45FB DUP2 PUSH2 0x3CD3 JUMP JUMPDEST DUP3 MSTORE POP POP JUMP JUMPDEST PUSH2 0x460A DUP2 PUSH2 0x3C3F JUMP JUMPDEST DUP3 MSTORE POP POP JUMP JUMPDEST PUSH1 0xA0 DUP3 ADD PUSH1 0x0 DUP3 ADD MLOAD PUSH2 0x4626 PUSH1 0x0 DUP6 ADD DUP3 PUSH2 0x45F2 JUMP JUMPDEST POP PUSH1 0x20 DUP3 ADD MLOAD PUSH2 0x4639 PUSH1 0x20 DUP6 ADD DUP3 PUSH2 0x4601 JUMP JUMPDEST POP PUSH1 0x40 DUP3 ADD MLOAD PUSH2 0x464C PUSH1 0x40 DUP6 ADD DUP3 PUSH2 0x4601 JUMP JUMPDEST POP PUSH1 0x60 DUP3 ADD MLOAD PUSH2 0x465F PUSH1 0x60 DUP6 ADD DUP3 PUSH2 0x4601 JUMP JUMPDEST POP PUSH1 0x80 DUP3 ADD MLOAD PUSH2 0x4672 PUSH1 0x80 DUP6 ADD DUP3 PUSH2 0x4601 JUMP JUMPDEST POP POP POP POP JUMP JUMPDEST PUSH1 0x0 PUSH2 0x4684 DUP4 DUP4 PUSH2 0x4610 JUMP JUMPDEST PUSH1 0xA0 DUP4 ADD SWAP1 POP SWAP3 SWAP2 POP POP JUMP JUMPDEST PUSH1 0x0 PUSH1 0x20 DUP3 ADD SWAP1 POP SWAP2 SWAP1 POP JUMP JUMPDEST PUSH1 0x0 PUSH2 0x46A8 DUP3 PUSH2 0x45C6 JUMP JUMPDEST PUSH2 0x46B2 DUP2 DUP6 PUSH2 0x45D1 JUMP JUMPDEST SWAP4 POP PUSH2 0x46BD DUP4 PUSH2 0x45E2 JUMP JUMPDEST DUP1 PUSH1 0x0 JUMPDEST DUP4 DUP2 LT ISZERO PUSH2 0x46EE JUMPI DUP2 MLOAD PUSH2 0x46D5 DUP9 DUP3 PUSH2 0x4678 JUMP JUMPDEST SWAP8 POP PUSH2 0x46E0 DUP4 PUSH2 0x4690 JUMP JUMPDEST SWAP3 POP POP PUSH1 0x1 DUP2 ADD SWAP1 POP PUSH2 0x46C1 JUMP JUMPDEST POP DUP6 SWAP4 POP POP POP POP SWAP3 SWAP2 POP POP JUMP JUMPDEST PUSH1 0x0 PUSH1 0x20 DUP3 ADD SWAP1 POP DUP2 DUP2 SUB PUSH1 0x0 DUP4 ADD MSTORE PUSH2 0x4715 DUP2 DUP5 PUSH2 0x469D JUMP JUMPDEST SWAP1 POP SWAP3 SWAP2 POP POP JUMP JUMPDEST PUSH1 0x0 PUSH8 0xFFFFFFFFFFFFFFFF DUP3 GT ISZERO PUSH2 0x4738 JUMPI PUSH2 0x4737 PUSH2 0x404E JUMP JUMPDEST JUMPDEST PUSH1 0x20 DUP3 MUL SWAP1 POP PUSH1 0x20 DUP2 ADD SWAP1 POP SWAP2 SWAP1 POP JUMP JUMPDEST PUSH2 0x4752 DUP2 PUSH2 0x3D9C JUMP JUMPDEST DUP2 EQ PUSH2 0x475D JUMPI PUSH1 0x0 DUP1 REVERT JUMPDEST POP JUMP JUMPDEST PUSH1 0x0 DUP2 CALLDATALOAD SWAP1 POP PUSH2 0x476F DUP2 PUSH2 0x4749 JUMP JUMPDEST SWAP3 SWAP2 POP POP JUMP JUMPDEST PUSH1 0x0 PUSH1 0x80 DUP3 DUP5 SUB SLT ISZERO PUSH2 0x478B JUMPI PUSH2 0x478A PUSH2 0x43A2 JUMP JUMPDEST JUMPDEST PUSH2 0x4795 PUSH1 0x80 PUSH2 0x40AE JUMP JUMPDEST SWAP1 POP PUSH1 0x0 PUSH2 0x47A5 DUP5 DUP3 DUP6 ADD PUSH2 0x42EA JUMP JUMPDEST PUSH1 0x0 DUP4 ADD MSTORE POP PUSH1 0x20 PUSH2 0x47B9 DUP5 DUP3 DUP6 ADD PUSH2 0x4760 JUMP JUMPDEST PUSH1 0x20 DUP4 ADD MSTORE POP PUSH1 0x40 PUSH2 0x47CD DUP5 DUP3 DUP6 ADD PUSH2 0x4760 JUMP JUMPDEST PUSH1 0x40 DUP4 ADD MSTORE POP PUSH1 0x60 DUP3 ADD CALLDATALOAD PUSH8 0xFFFFFFFFFFFFFFFF DUP2 GT ISZERO PUSH2 0x47F1 JUMPI PUSH2 0x47F0 PUSH2 0x43A7 JUMP JUMPDEST JUMPDEST PUSH2 0x47FD DUP5 DUP3 DUP6 ADD PUSH2 0x4181 JUMP JUMPDEST PUSH1 0x60 DUP4 ADD MSTORE POP SWAP3 SWAP2 POP POP JUMP JUMPDEST PUSH1 0x0 PUSH2 0x481C PUSH2 0x4817 DUP5 PUSH2 0x471D JUMP JUMPDEST PUSH2 0x40AE JUMP JUMPDEST SWAP1 POP DUP1 DUP4 DUP3 MSTORE PUSH1 0x20 DUP3 ADD SWAP1 POP PUSH1 0x20 DUP5 MUL DUP4 ADD DUP6 DUP2 GT ISZERO PUSH2 0x483F JUMPI PUSH2 0x483E PUSH2 0x40F5 JUMP JUMPDEST JUMPDEST DUP4 JUMPDEST DUP2 DUP2 LT ISZERO PUSH2 0x4886 JUMPI DUP1 CALLDATALOAD PUSH8 0xFFFFFFFFFFFFFFFF DUP2 GT ISZERO PUSH2 0x4864 JUMPI PUSH2 0x4863 PUSH2 0x4049 JUMP JUMPDEST JUMPDEST DUP1 DUP7 ADD PUSH2 0x4871 DUP10 DUP3 PUSH2 0x4775 JUMP JUMPDEST DUP6 MSTORE PUSH1 0x20 DUP6 ADD SWAP5 POP POP POP PUSH1 0x20 DUP2 ADD SWAP1 POP PUSH2 0x4841 JUMP JUMPDEST POP POP POP SWAP4 SWAP3 POP POP POP JUMP JUMPDEST PUSH1 0x0 DUP3 PUSH1 0x1F DUP4 ADD SLT PUSH2 0x48A5 JUMPI PUSH2 0x48A4 PUSH2 0x4049 JUMP JUMPDEST JUMPDEST DUP2 CALLDATALOAD PUSH2 0x48B5 DUP5 DUP3 PUSH1 0x20 DUP7 ADD PUSH2 0x4809 JUMP JUMPDEST SWAP2 POP POP SWAP3 SWAP2 POP POP JUMP JUMPDEST PUSH1 0x0 PUSH1 0x20 DUP3 DUP5 SUB SLT ISZERO PUSH2 0x48D4 JUMPI PUSH2 0x48D3 PUSH2 0x3C7D JUMP JUMPDEST JUMPDEST PUSH1 0x0 DUP3 ADD CALLDATALOAD PUSH8 0xFFFFFFFFFFFFFFFF DUP2 GT ISZERO PUSH2 0x48F2 JUMPI PUSH2 0x48F1 PUSH2 0x3C82 JUMP JUMPDEST JUMPDEST PUSH2 0x48FE DUP5 DUP3 DUP6 ADD PUSH2 0x4890 JUMP JUMPDEST SWAP2 POP POP SWAP3 SWAP2 POP POP JUMP JUMPDEST PUSH1 0x0 DUP1 PUSH1 0x40 DUP4 DUP6 SUB SLT ISZERO PUSH2 0x491E JUMPI PUSH2 0x491D PUSH2 0x3C7D JUMP JUMPDEST JUMPDEST PUSH1 0x0 PUSH2 0x492C DUP6 DUP3 DUP7 ADD PUSH2 0x3C9E JUMP JUMPDEST SWAP3 POP POP PUSH1 0x20 PUSH2 0x493D DUP6 DUP3 DUP7 ADD PUSH2 0x3C9E JUMP JUMPDEST SWAP2 POP POP SWAP3 POP SWAP3 SWAP1 POP JUMP JUMPDEST PUSH2 0x4950 DUP2 PUSH2 0x3CD3 JUMP JUMPDEST DUP3 MSTORE POP POP JUMP JUMPDEST PUSH1 0x0 PUSH1 0xA0 DUP3 ADD SWAP1 POP PUSH2 0x496B PUSH1 0x0 DUP4 ADD DUP9 PUSH2 0x4947 JUMP JUMPDEST PUSH2 0x4978 PUSH1 0x20 DUP4 ADD DUP8 PUSH2 0x3C49 JUMP JUMPDEST PUSH2 0x4985 PUSH1 0x40 DUP4 ADD DUP7 PUSH2 0x3C49 JUMP JUMPDEST PUSH2 0x4992 PUSH1 0x60 DUP4 ADD DUP6 PUSH2 0x3C49 JUMP JUMPDEST PUSH2 0x499F PUSH1 0x80 DUP4 ADD DUP5 PUSH2 0x3C49 JUMP JUMPDEST SWAP7 SWAP6 POP POP POP POP POP POP JUMP JUMPDEST PUSH1 0x0 DUP2 ISZERO ISZERO SWAP1 POP SWAP2 SWAP1 POP JUMP JUMPDEST PUSH2 0x49BE DUP2 PUSH2 0x49A9 JUMP JUMPDEST DUP3 MSTORE POP POP JUMP JUMPDEST PUSH1 0x0 PUSH1 0x20 DUP3 ADD SWAP1 POP PUSH2 0x49D9 PUSH1 0x0 DUP4 ADD DUP5 PUSH2 0x49B5 JUMP JUMPDEST SWAP3 SWAP2 POP POP JUMP JUMPDEST PUSH1 0x0 DUP2 MLOAD SWAP1 POP SWAP2 SWAP1 POP JUMP JUMPDEST PUSH1 0x0 DUP3 DUP3 MSTORE PUSH1 0x20 DUP3 ADD SWAP1 POP SWAP3 SWAP2 POP POP JUMP JUMPDEST PUSH1 0x0 DUP2 SWAP1 POP PUSH1 0x20 DUP3 ADD SWAP1 POP SWAP2 SWAP1 POP JUMP JUMPDEST PUSH2 0x4A14 DUP2 PUSH2 0x43AC JUMP JUMPDEST DUP3 MSTORE POP POP JUMP JUMPDEST PUSH1 0x0 PUSH1 0x80 DUP4 ADD PUSH1 0x0 DUP4 ADD MLOAD PUSH2 0x4A32 PUSH1 0x0 DUP7 ADD DUP3 PUSH2 0x3D8D JUMP JUMPDEST POP PUSH1 0x20 DUP4 ADD MLOAD PUSH2 0x4A45 PUSH1 0x20 DUP7 ADD DUP3 PUSH2 0x4A0B JUMP JUMPDEST POP PUSH1 0x40 DUP4 ADD MLOAD DUP5 DUP3 SUB PUSH1 0x40 DUP7 ADD MSTORE PUSH2 0x4A5D DUP3 DUP3 PUSH2 0x3F58 JUMP JUMPDEST SWAP2 POP POP PUSH1 0x60 DUP4 ADD MLOAD DUP5 DUP3 SUB PUSH1 0x60 DUP7 ADD MSTORE PUSH2 0x4A77 DUP3 DUP3 PUSH2 0x3F58 JUMP JUMPDEST SWAP2 POP POP DUP1 SWAP2 POP POP SWAP3 SWAP2 POP POP JUMP JUMPDEST PUSH1 0x0 PUSH2 0x4A90 DUP4 DUP4 PUSH2 0x4A1A JUMP JUMPDEST SWAP1 POP SWAP3 SWAP2 POP POP JUMP JUMPDEST PUSH1 0x0 PUSH1 0x20 DUP3 ADD SWAP1 POP SWAP2 SWAP1 POP JUMP JUMPDEST PUSH1 0x0 PUSH2 0x4AB0 DUP3 PUSH2 0x49DF JUMP JUMPDEST PUSH2 0x4ABA DUP2 DUP6 PUSH2 0x49EA JUMP JUMPDEST SWAP4 POP DUP4 PUSH1 0x20 DUP3 MUL DUP6 ADD PUSH2 0x4ACC DUP6 PUSH2 0x49FB JUMP JUMPDEST DUP1 PUSH1 0x0 JUMPDEST DUP6 DUP2 LT ISZERO PUSH2 0x4B08 JUMPI DUP5 DUP5 SUB DUP10 MSTORE DUP2 MLOAD PUSH2 0x4AE9 DUP6 DUP3 PUSH2 0x4A84 JUMP JUMPDEST SWAP5 POP PUSH2 0x4AF4 DUP4 PUSH2 0x4A98 JUMP JUMPDEST SWAP3 POP PUSH1 0x20 DUP11 ADD SWAP10 POP POP PUSH1 0x1 DUP2 ADD SWAP1 POP PUSH2 0x4AD0 JUMP JUMPDEST POP DUP3 SWAP8 POP DUP8 SWAP6 POP POP POP POP POP POP SWAP3 SWAP2 POP POP JUMP JUMPDEST PUSH1 0x0 PUSH1 0x20 DUP3 ADD SWAP1 POP DUP2 DUP2 SUB PUSH1 0x0 DUP4 ADD MSTORE PUSH2 0x4B34 DUP2 DUP5 PUSH2 0x4AA5 JUMP JUMPDEST SWAP1 POP SWAP3 SWAP2 POP POP JUMP JUMPDEST PUSH1 0x0 DUP1 PUSH1 0x40 DUP4 DUP6 SUB SLT ISZERO PUSH2 0x4B53 JUMPI PUSH2 0x4B52 PUSH2 0x3C7D JUMP JUMPDEST JUMPDEST PUSH1 0x0 DUP4 ADD CALLDATALOAD PUSH8 0xFFFFFFFFFFFFFFFF DUP2 GT ISZERO PUSH2 0x4B71 JUMPI PUSH2 0x4B70 PUSH2 0x3C82 JUMP JUMPDEST JUMPDEST PUSH2 0x4B7D DUP6 DUP3 DUP7 ADD PUSH2 0x4181 JUMP JUMPDEST SWAP3 POP POP PUSH1 0x20 PUSH2 0x4B8E DUP6 DUP3 DUP7 ADD PUSH2 0x3C9E JUMP JUMPDEST SWAP2 POP POP SWAP3 POP SWAP3 SWAP1 POP JUMP JUMPDEST PUSH1 0x0 PUSH1 0x80 DUP4 ADD PUSH1 0x0 DUP4 ADD MLOAD PUSH2 0x4BB0 PUSH1 0x0 DUP7 ADD DUP3 PUSH2 0x3D8D JUMP JUMPDEST POP PUSH1 0x20 DUP4 ADD MLOAD PUSH2 0x4BC3 PUSH1 0x20 DUP7 ADD DUP3 PUSH2 0x4A0B JUMP JUMPDEST POP PUSH1 0x40 DUP4 ADD MLOAD DUP5 DUP3 SUB PUSH1 0x40 DUP7 ADD MSTORE PUSH2 0x4BDB DUP3 DUP3 PUSH2 0x3F58 JUMP JUMPDEST SWAP2 POP POP PUSH1 0x60 DUP4 ADD MLOAD DUP5 DUP3 SUB PUSH1 0x60 DUP7 ADD MSTORE PUSH2 0x4BF5 DUP3 DUP3 PUSH2 0x3F58 JUMP JUMPDEST SWAP2 POP POP DUP1 SWAP2 POP POP SWAP3 SWAP2 POP POP JUMP JUMPDEST PUSH1 0x0 PUSH1 0x20 DUP3 ADD SWAP1 POP DUP2 DUP2 SUB PUSH1 0x0 DUP4 ADD MSTORE PUSH2 0x4C1C DUP2 DUP5 PUSH2 0x4B98 JUMP JUMPDEST SWAP1 POP SWAP3 SWAP2 POP POP JUMP JUMPDEST PUSH1 0x0 PUSH1 0x20 DUP3 ADD SWAP1 POP PUSH2 0x4C39 PUSH1 0x0 DUP4 ADD DUP5 PUSH2 0x4947 JUMP JUMPDEST SWAP3 SWAP2 POP POP JUMP JUMPDEST PUSH1 0x0 PUSH8 0xFFFFFFFFFFFFFFFF DUP3 GT ISZERO PUSH2 0x4C5A JUMPI PUSH2 0x4C59 PUSH2 0x404E JUMP JUMPDEST JUMPDEST PUSH1 0x20 DUP3 MUL SWAP1 POP PUSH1 0x20 DUP2 ADD SWAP1 POP SWAP2 SWAP1 POP JUMP JUMPDEST PUSH1 0x0 PUSH1 0x60 DUP3 DUP5 SUB SLT ISZERO PUSH2 0x4C81 JUMPI PUSH2 0x4C80 PUSH2 0x43A2 JUMP JUMPDEST JUMPDEST PUSH2 0x4C8B PUSH1 0x60 PUSH2 0x40AE JUMP JUMPDEST SWAP1 POP PUSH1 0x0 PUSH2 0x4C9B DUP5 DUP3 DUP6 ADD PUSH2 0x42EA JUMP JUMPDEST PUSH1 0x0 DUP4 ADD MSTORE POP PUSH1 0x20 PUSH2 0x4CAF DUP5 DUP3 DUP6 ADD PUSH2 0x4760 JUMP JUMPDEST PUSH1 0x20 DUP4 ADD MSTORE POP PUSH1 0x40 PUSH2 0x4CC3 DUP5 DUP3 DUP6 ADD PUSH2 0x4760 JUMP JUMPDEST PUSH1 0x40 DUP4 ADD MSTORE POP SWAP3 SWAP2 POP POP JUMP JUMPDEST PUSH1 0x0 PUSH2 0x4CE2 PUSH2 0x4CDD DUP5 PUSH2 0x4C3F JUMP JUMPDEST PUSH2 0x40AE JUMP JUMPDEST SWAP1 POP DUP1 DUP4 DUP3 MSTORE PUSH1 0x20 DUP3 ADD SWAP1 POP PUSH1 0x60 DUP5 MUL DUP4 ADD DUP6 DUP2 GT ISZERO PUSH2 0x4D05 JUMPI PUSH2 0x4D04 PUSH2 0x40F5 JUMP JUMPDEST JUMPDEST DUP4 JUMPDEST DUP2 DUP2 LT ISZERO PUSH2 0x4D2E JUMPI DUP1 PUSH2 0x4D1A DUP9 DUP3 PUSH2 0x4C6B JUMP JUMPDEST DUP5 MSTORE PUSH1 0x20 DUP5 ADD SWAP4 POP POP PUSH1 0x60 DUP2 ADD SWAP1 POP PUSH2 0x4D07 JUMP JUMPDEST POP POP POP SWAP4 SWAP3 POP POP POP JUMP JUMPDEST PUSH1 0x0 DUP3 PUSH1 0x1F DUP4 ADD SLT PUSH2 0x4D4D JUMPI PUSH2 0x4D4C PUSH2 0x4049 JUMP JUMPDEST JUMPDEST DUP2 CALLDATALOAD PUSH2 0x4D5D DUP5 DUP3 PUSH1 0x20 DUP7 ADD PUSH2 0x4CCF JUMP JUMPDEST SWAP2 POP POP SWAP3 SWAP2 POP POP JUMP JUMPDEST PUSH1 0x0 PUSH1 0x20 DUP3 DUP5 SUB SLT ISZERO PUSH2 0x4D7C JUMPI PUSH2 0x4D7B PUSH2 0x3C7D JUMP JUMPDEST JUMPDEST PUSH1 0x0 DUP3 ADD CALLDATALOAD PUSH8 0xFFFFFFFFFFFFFFFF DUP2 GT ISZERO PUSH2 0x4D9A JUMPI PUSH2 0x4D99 PUSH2 0x3C82 JUMP JUMPDEST JUMPDEST PUSH2 0x4DA6 DUP5 DUP3 DUP6 ADD PUSH2 0x4D38 JUMP JUMPDEST SWAP2 POP POP SWAP3 SWAP2 POP POP JUMP JUMPDEST PUSH1 0x0 DUP2 MLOAD SWAP1 POP SWAP2 SWAP1 POP JUMP JUMPDEST PUSH1 0x0 DUP3 DUP3 MSTORE PUSH1 0x20 DUP3 ADD SWAP1 POP SWAP3 SWAP2 POP POP JUMP JUMPDEST PUSH1 0x0 DUP2 SWAP1 POP PUSH1 0x20 DUP3 ADD SWAP1 POP SWAP2 SWAP1 POP JUMP JUMPDEST PUSH1 0x60 DUP3 ADD PUSH1 0x0 DUP3 ADD MLOAD PUSH2 0x4DF1 PUSH1 0x0 DUP6 ADD DUP3 PUSH2 0x45F2 JUMP JUMPDEST POP PUSH1 0x20 DUP3 ADD MLOAD PUSH2 0x4E04 PUSH1 0x20 DUP6 ADD DUP3 PUSH2 0x4601 JUMP JUMPDEST POP PUSH1 0x40 DUP3 ADD MLOAD PUSH2 0x4E17 PUSH1 0x40 DUP6 ADD DUP3 PUSH2 0x4601 JUMP JUMPDEST POP POP POP POP JUMP JUMPDEST PUSH1 0x0 PUSH2 0x4E29 DUP4 DUP4 PUSH2 0x4DDB JUMP JUMPDEST PUSH1 0x60 DUP4 ADD SWAP1 POP SWAP3 SWAP2 POP POP JUMP JUMPDEST PUSH1 0x0 PUSH1 0x20 DUP3 ADD SWAP1 POP SWAP2 SWAP1 POP JUMP JUMPDEST PUSH1 0x0 PUSH2 0x4E4D DUP3 PUSH2 0x4DAF JUMP JUMPDEST PUSH2 0x4E57 DUP2 DUP6 PUSH2 0x4DBA JUMP JUMPDEST SWAP4 POP PUSH2 0x4E62 DUP4 PUSH2 0x4DCB JUMP JUMPDEST DUP1 PUSH1 0x0 JUMPDEST DUP4 DUP2 LT ISZERO PUSH2 0x4E93 JUMPI DUP2 MLOAD PUSH2 0x4E7A DUP9 DUP3 PUSH2 0x4E1D JUMP JUMPDEST SWAP8 POP PUSH2 0x4E85 DUP4 PUSH2 0x4E35 JUMP JUMPDEST SWAP3 POP POP PUSH1 0x1 DUP2 ADD SWAP1 POP PUSH2 0x4E66 JUMP JUMPDEST POP DUP6 SWAP4 POP POP POP POP SWAP3 SWAP2 POP POP JUMP JUMPDEST PUSH1 0x0 PUSH1 0x20 DUP3 ADD SWAP1 POP DUP2 DUP2 SUB PUSH1 0x0 DUP4 ADD MSTORE PUSH2 0x4EBA DUP2 DUP5 PUSH2 0x4E42 JUMP JUMPDEST SWAP1 POP SWAP3 SWAP2 POP POP JUMP JUMPDEST PUSH1 0x0 PUSH8 0xFFFFFFFFFFFFFFFF DUP3 GT ISZERO PUSH2 0x4EDD JUMPI PUSH2 0x4EDC PUSH2 0x404E JUMP JUMPDEST JUMPDEST PUSH1 0x20 DUP3 MUL SWAP1 POP PUSH1 0x20 DUP2 ADD SWAP1 POP SWAP2 SWAP1 POP JUMP JUMPDEST PUSH1 0x0 PUSH1 0x60 DUP3 DUP5 SUB SLT ISZERO PUSH2 0x4F04 JUMPI PUSH2 0x4F03 PUSH2 0x43A2 JUMP JUMPDEST JUMPDEST PUSH2 0x4F0E PUSH1 0x60 PUSH2 0x40AE JUMP JUMPDEST SWAP1 POP PUSH1 0x0 PUSH2 0x4F1E DUP5 DUP3 DUP6 ADD PUSH2 0x3CFC JUMP JUMPDEST PUSH1 0x0 DUP4 ADD MSTORE POP PUSH1 0x20 PUSH2 0x4F32 DUP5 DUP3 DUP6 ADD PUSH2 0x3C9E JUMP JUMPDEST PUSH1 0x20 DUP4 ADD MSTORE POP PUSH1 0x40 PUSH2 0x4F46 DUP5 DUP3 DUP6 ADD PUSH2 0x3C9E JUMP JUMPDEST PUSH1 0x40 DUP4 ADD MSTORE POP SWAP3 SWAP2 POP POP JUMP JUMPDEST PUSH1 0x0 PUSH2 0x4F65 PUSH2 0x4F60 DUP5 PUSH2 0x4EC2 JUMP JUMPDEST PUSH2 0x40AE JUMP JUMPDEST SWAP1 POP DUP1 DUP4 DUP3 MSTORE PUSH1 0x20 DUP3 ADD SWAP1 POP PUSH1 0x60 DUP5 MUL DUP4 ADD DUP6 DUP2 GT ISZERO PUSH2 0x4F88 JUMPI PUSH2 0x4F87 PUSH2 0x40F5 JUMP JUMPDEST JUMPDEST DUP4 JUMPDEST DUP2 DUP2 LT ISZERO PUSH2 0x4FB1 JUMPI DUP1 PUSH2 0x4F9D DUP9 DUP3 PUSH2 0x4EEE JUMP JUMPDEST DUP5 MSTORE PUSH1 0x20 DUP5 ADD SWAP4 POP POP PUSH1 0x60 DUP2 ADD SWAP1 POP PUSH2 0x4F8A JUMP JUMPDEST POP POP POP SWAP4 SWAP3 POP POP POP JUMP JUMPDEST PUSH1 0x0 DUP3 PUSH1 0x1F DUP4 ADD SLT PUSH2 0x4FD0 JUMPI PUSH2 0x4FCF PUSH2 0x4049 JUMP JUMPDEST JUMPDEST DUP2 CALLDATALOAD PUSH2 0x4FE0 DUP5 DUP3 PUSH1 0x20 DUP7 ADD PUSH2 0x4F52 JUMP JUMPDEST SWAP2 POP POP SWAP3 SWAP2 POP POP JUMP JUMPDEST PUSH1 0x0 DUP1 PUSH1 0x40 DUP4 DUP6 SUB SLT ISZERO PUSH2 0x5000 JUMPI PUSH2 0x4FFF PUSH2 0x3C7D JUMP JUMPDEST JUMPDEST PUSH1 0x0 PUSH2 0x500E DUP6 DUP3 DUP7 ADD PUSH2 0x3C9E JUMP JUMPDEST SWAP3 POP POP PUSH1 0x20 DUP4 ADD CALLDATALOAD PUSH8 0xFFFFFFFFFFFFFFFF DUP2 GT ISZERO PUSH2 0x502F JUMPI PUSH2 0x502E PUSH2 0x3C82 JUMP JUMPDEST JUMPDEST PUSH2 0x503B DUP6 DUP3 DUP7 ADD PUSH2 0x4FBB JUMP JUMPDEST SWAP2 POP POP SWAP3 POP SWAP3 SWAP1 POP JUMP JUMPDEST PUSH1 0x0 DUP2 MLOAD SWAP1 POP SWAP2 SWAP1 POP JUMP JUMPDEST PUSH1 0x0 DUP3 DUP3 MSTORE PUSH1 0x20 DUP3 ADD SWAP1 POP SWAP3 SWAP2 POP POP JUMP JUMPDEST PUSH1 0x0 DUP2 SWAP1 POP PUSH1 0x20 DUP3 ADD SWAP1 POP SWAP2 SWAP1 POP JUMP JUMPDEST PUSH1 0xE0 DUP3 ADD PUSH1 0x0 DUP3 ADD MLOAD PUSH2 0x5087 PUSH1 0x0 DUP6 ADD DUP3 PUSH2 0x45F2 JUMP JUMPDEST POP PUSH1 0x20 DUP3 ADD MLOAD PUSH2 0x509A PUSH1 0x20 DUP6 ADD DUP3 PUSH2 0x4601 JUMP JUMPDEST POP PUSH1 0x40 DUP3 ADD MLOAD PUSH2 0x50AD PUSH1 0x40 DUP6 ADD DUP3 PUSH2 0x4601 JUMP JUMPDEST POP PUSH1 0x60 DUP3 ADD MLOAD PUSH2 0x50C0 PUSH1 0x60 DUP6 ADD DUP3 PUSH2 0x4601 JUMP JUMPDEST POP PUSH1 0x80 DUP3 ADD MLOAD PUSH2 0x50D3 PUSH1 0x80 DUP6 ADD DUP3 PUSH2 0x4601 JUMP JUMPDEST POP PUSH1 0xA0 DUP3 ADD MLOAD PUSH2 0x50E6 PUSH1 0xA0 DUP6 ADD DUP3 PUSH2 0x4601 JUMP JUMPDEST POP PUSH1 0xC0 DUP3 ADD MLOAD PUSH2 0x50F9 PUSH1 0xC0 DUP6 ADD DUP3 PUSH2 0x4601 JUMP JUMPDEST POP POP POP POP JUMP JUMPDEST PUSH1 0x0 PUSH2 0x510B DUP4 DUP4 PUSH2 0x5071 JUMP JUMPDEST PUSH1 0xE0 DUP4 ADD SWAP1 POP SWAP3 SWAP2 POP POP JUMP JUMPDEST PUSH1 0x0 PUSH1 0x20 DUP3 ADD SWAP1 POP SWAP2 SWAP1 POP JUMP JUMPDEST PUSH1 0x0 PUSH2 0x512F DUP3 PUSH2 0x5045 JUMP JUMPDEST PUSH2 0x5139 DUP2 DUP6 PUSH2 0x5050 JUMP JUMPDEST SWAP4 POP PUSH2 0x5144 DUP4 PUSH2 0x5061 JUMP JUMPDEST DUP1 PUSH1 0x0 JUMPDEST DUP4 DUP2 LT ISZERO PUSH2 0x5175 JUMPI DUP2 MLOAD PUSH2 0x515C DUP9 DUP3 PUSH2 0x50FF JUMP JUMPDEST SWAP8 POP PUSH2 0x5167 DUP4 PUSH2 0x5117 JUMP JUMPDEST SWAP3 POP POP PUSH1 0x1 DUP2 ADD SWAP1 POP PUSH2 0x5148 JUMP JUMPDEST POP DUP6 SWAP4 POP POP POP POP SWAP3 SWAP2 POP POP JUMP JUMPDEST PUSH1 0x0 PUSH1 0x20 DUP3 ADD SWAP1 POP DUP2 DUP2 SUB PUSH1 0x0 DUP4 ADD MSTORE PUSH2 0x519C DUP2 DUP5 PUSH2 0x5124 JUMP JUMPDEST SWAP1 POP SWAP3 SWAP2 POP POP JUMP JUMPDEST PUSH1 0x0 PUSH1 0x20 DUP3 DUP5 SUB SLT ISZERO PUSH2 0x51BA JUMPI PUSH2 0x51B9 PUSH2 0x3C7D JUMP JUMPDEST JUMPDEST PUSH1 0x0 DUP3 ADD CALLDATALOAD PUSH8 0xFFFFFFFFFFFFFFFF DUP2 GT ISZERO PUSH2 0x51D8 JUMPI PUSH2 0x51D7 PUSH2 0x3C82 JUMP JUMPDEST JUMPDEST PUSH2 0x51E4 DUP5 DUP3 DUP6 ADD PUSH2 0x4181 JUMP JUMPDEST SWAP2 POP POP SWAP3 SWAP2 POP POP JUMP JUMPDEST PUSH1 0x0 PUSH1 0x20 DUP3 DUP5 SUB SLT ISZERO PUSH2 0x5203 JUMPI PUSH2 0x5202 PUSH2 0x3C7D JUMP JUMPDEST JUMPDEST PUSH1 0x0 PUSH2 0x5211 DUP5 DUP3 DUP6 ADD PUSH2 0x3CFC JUMP JUMPDEST SWAP2 POP POP SWAP3 SWAP2 POP POP JUMP JUMPDEST PUSH32 0x4E487B7100000000000000000000000000000000000000000000000000000000 PUSH1 0x0 MSTORE PUSH1 0x32 PUSH1 0x4 MSTORE PUSH1 0x24 PUSH1 0x0 REVERT JUMPDEST PUSH32 0x4E487B7100000000000000000000000000000000000000000000000000000000 PUSH1 0x0 MSTORE PUSH1 0x11 PUSH1 0x4 MSTORE PUSH1 0x24 PUSH1 0x0 REVERT JUMPDEST PUSH1 0x0 PUSH2 0x5283 DUP3 PUSH2 0x3C3F JUMP JUMPDEST SWAP2 POP PUSH32 0xFFFFFFFFFFFFFFFFFFFFFFFFFFFFFFFFFFFFFFFFFFFFFFFFFFFFFFFFFFFFFFFF DUP3 SUB PUSH2 0x52B5 JUMPI PUSH2 0x52B4 PUSH2 0x5249 JUMP JUMPDEST JUMPDEST PUSH1 0x1 DUP3 ADD SWAP1 POP SWAP2 SWAP1 POP JUMP JUMPDEST PUSH32 0x4E487B7100000000000000000000000000000000000000000000000000000000 PUSH1 0x0 MSTORE PUSH1 0x22 PUSH1 0x4 MSTORE PUSH1 0x24 PUSH1 0x0 REVERT JUMPDEST PUSH1 0x0 PUSH1 0x2 DUP3 DIV SWAP1 POP PUSH1 0x1 DUP3 AND DUP1 PUSH2 0x5307 JUMPI PUSH1 0x7F DUP3 AND SWAP2 POP JUMPDEST PUSH1 0x20 DUP3 LT DUP2 SUB PUSH2 0x531A JUMPI PUSH2 0x5319 PUSH2 0x52C0 JUMP JUMPDEST JUMPDEST POP SWAP2 SWAP1 POP JUMP JUMPDEST PUSH1 0x0 DUP2 SWAP1 POP DUP2 PUSH1 0x0 MSTORE PUSH1 0x20 PUSH1 0x0 KECCAK256 SWAP1 POP SWAP2 SWAP1 POP JUMP JUMPDEST PUSH1 0x0 PUSH1 0x20 PUSH1 0x1F DUP4 ADD DIV SWAP1 POP SWAP2 SWAP1 POP JUMP JUMPDEST PUSH1 0x0 DUP3 DUP3 SHL SWAP1 POP SWAP3 SWAP2 POP POP JUMP JUMPDEST PUSH1 0x0 PUSH1 0x8 DUP4 MUL PUSH2 0x5382 PUSH32 0xFFFFFFFFFFFFFFFFFFFFFFFFFFFFFFFFFFFFFFFFFFFFFFFFFFFFFFFFFFFFFFFF DUP3 PUSH2 0x5345 JUMP JUMPDEST PUSH2 0x538C DUP7 DUP4 PUSH2 0x5345 JUMP JUMPDEST SWAP6 POP DUP1 NOT DUP5 AND SWAP4 POP DUP1 DUP7 AND DUP5 OR SWAP3 POP POP POP SWAP4 SWAP3 POP POP POP JUMP JUMPDEST PUSH1 0x0 DUP2 SWAP1 POP SWAP2 SWAP1 POP JUMP JUMPDEST PUSH1 0x0 PUSH2 0x53C9 PUSH2 0x53C4 PUSH2 0x53BF DUP5 PUSH2 0x3C3F JUMP JUMPDEST PUSH2 0x53A4 JUMP JUMPDEST PUSH2 0x3C3F JUMP JUMPDEST SWAP1 POP SWAP2 SWAP1 POP JUMP JUMPDEST PUSH1 0x0 DUP2 SWAP1 POP SWAP2 SWAP1 POP JUMP JUMPDEST PUSH2 0x53E3 DUP4 PUSH2 0x53AE JUMP JUMPDEST PUSH2 0x53F7 PUSH2 0x53EF DUP3 PUSH2 0x53D0 JUMP JUMPDEST DUP5 DUP5 SLOAD PUSH2 0x5352 JUMP JUMPDEST DUP3 SSTORE POP POP POP POP JUMP JUMPDEST PUSH1 0x0 SWAP1 JUMP JUMPDEST PUSH2 0x540C PUSH2 0x53FF JUMP JUMPDEST PUSH2 0x5417 DUP2 DUP5 DUP5 PUSH2 0x53DA JUMP JUMPDEST POP POP POP JUMP JUMPDEST JUMPDEST DUP2 DUP2 LT ISZERO PUSH2 0x543B JUMPI PUSH2 0x5430 PUSH1 0x0 DUP3 PUSH2 0x5404 JUMP JUMPDEST PUSH1 0x1 DUP2 ADD SWAP1 POP PUSH2 0x541D JUMP JUMPDEST POP POP JUMP JUMPDEST PUSH1 0x1F DUP3 GT ISZERO PUSH2 0x5480 JUMPI PUSH2 0x5451 DUP2 PUSH2 0x5320 JUMP JUMPDEST PUSH2 0x545A DUP5 PUSH2 0x5335 JUMP JUMPDEST DUP2 ADD PUSH1 0x20 DUP6 LT ISZERO PUSH2 0x5469 JUMPI DUP2 SWAP1 POP JUMPDEST PUSH2 0x547D PUSH2 0x5475 DUP6 PUSH2 0x5335 JUMP JUMPDEST DUP4 ADD DUP3 PUSH2 0x541C JUMP JUMPDEST POP POP JUMPDEST POP POP POP JUMP JUMPDEST PUSH1 0x0 DUP3 DUP3 SHR SWAP1 POP SWAP3 SWAP2 POP POP JUMP JUMPDEST PUSH1 0x0 PUSH2 0x54A3 PUSH1 0x0 NOT DUP5 PUSH1 0x8 MUL PUSH2 0x5485 JUMP JUMPDEST NOT DUP1 DUP4 AND SWAP2 POP POP SWAP3 SWAP2 POP POP JUMP JUMPDEST PUSH1 0x0 PUSH2 0x54BC DUP4 DUP4 PUSH2 0x5492 JUMP JUMPDEST SWAP2 POP DUP3 PUSH1 0x2 MUL DUP3 OR SWAP1 POP SWAP3 SWAP2 POP POP JUMP JUMPDEST PUSH2 0x54D5 DUP3 PUSH2 0x3EF8 JUMP JUMPDEST PUSH8 0xFFFFFFFFFFFFFFFF DUP2 GT ISZERO PUSH2 0x54EE JUMPI PUSH2 0x54ED PUSH2 0x404E JUMP JUMPDEST JUMPDEST PUSH2 0x54F8 DUP3 SLOAD PUSH2 0x52EF JUMP JUMPDEST PUSH2 0x5503 DUP3 DUP3 DUP6 PUSH2 0x543F JUMP JUMPDEST PUSH1 0x0 PUSH1 0x20 SWAP1 POP PUSH1 0x1F DUP4 GT PUSH1 0x1 DUP2 EQ PUSH2 0x5536 JUMPI PUSH1 0x0 DUP5 ISZERO PUSH2 0x5524 JUMPI DUP3 DUP8 ADD MLOAD SWAP1 POP JUMPDEST PUSH2 0x552E DUP6 DUP3 PUSH2 0x54B0 JUMP JUMPDEST DUP7 SSTORE POP PUSH2 0x5596 JUMP JUMPDEST PUSH1 0x1F NOT DUP5 AND PUSH2 0x5544 DUP7 PUSH2 0x5320 JUMP JUMPDEST PUSH1 0x0 JUMPDEST DUP3 DUP2 LT ISZERO PUSH2 0x556C JUMPI DUP5 DUP10 ADD MLOAD DUP3 SSTORE PUSH1 0x1 DUP3 ADD SWAP2 POP PUSH1 0x20 DUP6 ADD SWAP5 POP PUSH1 0x20 DUP2 ADD SWAP1 POP PUSH2 0x5547 JUMP JUMPDEST DUP7 DUP4 LT ISZERO PUSH2 0x5589 JUMPI DUP5 DUP10 ADD MLOAD PUSH2 0x5585 PUSH1 0x1F DUP10 AND DUP3 PUSH2 0x5492 JUMP JUMPDEST DUP4 SSTORE POP JUMPDEST PUSH1 0x1 PUSH1 0x2 DUP9 MUL ADD DUP9 SSTORE POP POP POP JUMPDEST POP POP POP POP POP POP JUMP JUMPDEST PUSH1 0x0 DUP2 SWAP1 POP SWAP3 SWAP2 POP POP JUMP JUMPDEST PUSH1 0x0 DUP2 SLOAD PUSH2 0x55B6 DUP2 PUSH2 0x52EF JUMP JUMPDEST PUSH2 0x55C0 DUP2 DUP7 PUSH2 0x559E JUMP JUMPDEST SWAP5 POP PUSH1 0x1 DUP3 AND PUSH1 0x0 DUP2 EQ PUSH2 0x55DB JUMPI PUSH1 0x1 DUP2 EQ PUSH2 0x55F0 JUMPI PUSH2 0x5623 JUMP JUMPDEST PUSH1 0xFF NOT DUP4 AND DUP7 MSTORE DUP2 ISZERO ISZERO DUP3 MUL DUP7 ADD SWAP4 POP PUSH2 0x5623 JUMP JUMPDEST PUSH2 0x55F9 DUP6 PUSH2 0x5320 JUMP JUMPDEST PUSH1 0x0 JUMPDEST DUP4 DUP2 LT ISZERO PUSH2 0x561B JUMPI DUP2 SLOAD DUP2 DUP10 ADD MSTORE PUSH1 0x1 DUP3 ADD SWAP2 POP PUSH1 0x20 DUP2 ADD SWAP1 POP PUSH2 0x55FC JUMP JUMPDEST DUP4 DUP9 ADD SWAP6 POP POP POP JUMPDEST POP POP POP SWAP3 SWAP2 POP POP JUMP JUMPDEST PUSH1 0x0 PUSH2 0x5638 DUP3 DUP5 PUSH2 0x55A9 JUMP JUMPDEST SWAP2 POP DUP2 SWAP1 POP SWAP3 SWAP2 POP POP JUMP JUMPDEST PUSH1 0x0 PUSH2 0x564E DUP3 PUSH2 0x3C3F JUMP JUMPDEST SWAP2 POP PUSH2 0x5659 DUP4 PUSH2 0x3C3F JUMP JUMPDEST SWAP3 POP DUP3 PUSH32 0xFFFFFFFFFFFFFFFFFFFFFFFFFFFFFFFFFFFFFFFFFFFFFFFFFFFFFFFFFFFFFFFF SUB DUP3 GT ISZERO PUSH2 0x568E JUMPI PUSH2 0x568D PUSH2 0x5249 JUMP JUMPDEST JUMPDEST DUP3 DUP3 ADD SWAP1 POP SWAP3 SWAP2 POP POP JUMP JUMPDEST PUSH1 0x0 PUSH2 0x56A4 DUP3 PUSH2 0x3EF8 JUMP JUMPDEST PUSH2 0x56AE DUP2 DUP6 PUSH2 0x559E JUMP JUMPDEST SWAP4 POP PUSH2 0x56BE DUP2 DUP6 PUSH1 0x20 DUP7 ADD PUSH2 0x3F14 JUMP JUMPDEST DUP1 DUP5 ADD SWAP2 POP POP SWAP3 SWAP2 POP POP JUMP JUMPDEST PUSH1 0x0 PUSH2 0x56D6 DUP3 DUP5 PUSH2 0x5699 JUMP JUMPDEST SWAP2 POP DUP2 SWAP1 POP SWAP3 SWAP2 POP POP JUMP JUMPDEST PUSH1 0x0 DUP2 MLOAD SWAP1 POP PUSH2 0x56F0 DUP2 PUSH2 0x3C87 JUMP JUMPDEST SWAP3 SWAP2 POP POP JUMP JUMPDEST PUSH1 0x0 PUSH1 0x20 DUP3 DUP5 SUB SLT ISZERO PUSH2 0x570C JUMPI PUSH2 0x570B PUSH2 0x3C7D JUMP JUMPDEST JUMPDEST PUSH1 0x0 PUSH2 0x571A DUP5 DUP3 DUP6 ADD PUSH2 0x56E1 JUMP JUMPDEST SWAP2 POP POP SWAP3 SWAP2 POP POP JUMP JUMPDEST PUSH1 0x0 DUP3 DUP3 MSTORE PUSH1 0x20 DUP3 ADD SWAP1 POP SWAP3 SWAP2 POP POP JUMP JUMPDEST PUSH32 0x596F75206E6565642061207469636B657420666F7220736176696E6720707265 PUSH1 0x0 DUP3 ADD MSTORE PUSH32 0x64696374696F6E73210000000000000000000000000000000000000000000000 PUSH1 0x20 DUP3 ADD MSTORE POP JUMP JUMPDEST PUSH1 0x0 PUSH2 0x5790 PUSH1 0x29 DUP4 PUSH2 0x5723 JUMP JUMPDEST SWAP2 POP PUSH2 0x579B DUP3 PUSH2 0x5734 JUMP JUMPDEST PUSH1 0x40 DUP3 ADD SWAP1 POP SWAP2 SWAP1 POP JUMP JUMPDEST PUSH1 0x0 PUSH1 0x20 DUP3 ADD SWAP1 POP DUP2 DUP2 SUB PUSH1 0x0 DUP4 ADD MSTORE PUSH2 0x57BF DUP2 PUSH2 0x5783 JUMP JUMPDEST SWAP1 POP SWAP2 SWAP1 POP JUMP JUMPDEST PUSH32 0x50726564696374696F6E20506572696F6420697320636C6F7365642100000000 PUSH1 0x0 DUP3 ADD MSTORE POP JUMP JUMPDEST PUSH1 0x0 PUSH2 0x57FC PUSH1 0x1C DUP4 PUSH2 0x5723 JUMP JUMPDEST SWAP2 POP PUSH2 0x5807 DUP3 PUSH2 0x57C6 JUMP JUMPDEST PUSH1 0x20 DUP3 ADD SWAP1 POP SWAP2 SWAP1 POP JUMP JUMPDEST PUSH1 0x0 PUSH1 0x20 DUP3 ADD SWAP1 POP DUP2 DUP2 SUB PUSH1 0x0 DUP4 ADD MSTORE PUSH2 0x582B DUP2 PUSH2 0x57EF JUMP JUMPDEST SWAP1 POP SWAP2 SWAP1 POP JUMP JUMPDEST PUSH32 0x546865206E756D626572206F662070726564696374696F6E7320646F65736E27 PUSH1 0x0 DUP3 ADD MSTORE PUSH32 0x74206D6174636821000000000000000000000000000000000000000000000000 PUSH1 0x20 DUP3 ADD MSTORE POP JUMP JUMPDEST PUSH1 0x0 PUSH2 0x588E PUSH1 0x28 DUP4 PUSH2 0x5723 JUMP JUMPDEST SWAP2 POP PUSH2 0x5899 DUP3 PUSH2 0x5832 JUMP JUMPDEST PUSH1 0x40 DUP3 ADD SWAP1 POP SWAP2 SWAP1 POP JUMP JUMPDEST PUSH1 0x0 PUSH1 0x20 DUP3 ADD SWAP1 POP DUP2 DUP2 SUB PUSH1 0x0 DUP4 ADD MSTORE PUSH2 0x58BD DUP2 PUSH2 0x5881 JUMP JUMPDEST SWAP1 POP SWAP2 SWAP1 POP JUMP JUMPDEST PUSH1 0x0 PUSH2 0x58CF DUP3 PUSH2 0x3C3F JUMP JUMPDEST SWAP2 POP PUSH2 0x58DA DUP4 PUSH2 0x3C3F JUMP JUMPDEST SWAP3 POP DUP2 PUSH32 0xFFFFFFFFFFFFFFFFFFFFFFFFFFFFFFFFFFFFFFFFFFFFFFFFFFFFFFFFFFFFFFFF DIV DUP4 GT DUP3 ISZERO ISZERO AND ISZERO PUSH2 0x5913 JUMPI PUSH2 0x5912 PUSH2 0x5249 JUMP JUMPDEST JUMPDEST DUP3 DUP3 MUL SWAP1 POP SWAP3 SWAP2 POP POP JUMP JUMPDEST PUSH1 0x0 PUSH2 0x5929 DUP3 PUSH2 0x3C3F JUMP JUMPDEST SWAP2 POP PUSH2 0x5934 DUP4 PUSH2 0x3C3F JUMP JUMPDEST SWAP3 POP DUP3 DUP3 LT ISZERO PUSH2 0x5947 JUMPI PUSH2 0x5946 PUSH2 0x5249 JUMP JUMPDEST JUMPDEST DUP3 DUP3 SUB SWAP1 POP SWAP3 SWAP2 POP POP JUMP JUMPDEST PUSH32 0x4E487B7100000000000000000000000000000000000000000000000000000000 PUSH1 0x0 MSTORE PUSH1 0x12 PUSH1 0x4 MSTORE PUSH1 0x24 PUSH1 0x0 REVERT JUMPDEST PUSH1 0x0 PUSH2 0x598C DUP3 PUSH2 0x3C3F JUMP JUMPDEST SWAP2 POP PUSH2 0x5997 DUP4 PUSH2 0x3C3F JUMP JUMPDEST SWAP3 POP DUP3 PUSH2 0x59A7 JUMPI PUSH2 0x59A6 PUSH2 0x5952 JUMP JUMPDEST JUMPDEST DUP3 DUP3 DIV SWAP1 POP SWAP3 SWAP2 POP POP JUMP JUMPDEST PUSH32 0x4F776E61626C653A206E6577206F776E657220697320746865207A65726F2061 PUSH1 0x0 DUP3 ADD MSTORE PUSH32 0x6464726573730000000000000000000000000000000000000000000000000000 PUSH1 0x20 DUP3 ADD MSTORE POP JUMP JUMPDEST PUSH1 0x0 PUSH2 0x5A0E PUSH1 0x26 DUP4 PUSH2 0x5723 JUMP JUMPDEST SWAP2 POP PUSH2 0x5A19 DUP3 PUSH2 0x59B2 JUMP JUMPDEST PUSH1 0x40 DUP3 ADD SWAP1 POP SWAP2 SWAP1 POP JUMP JUMPDEST PUSH1 0x0 PUSH1 0x20 DUP3 ADD SWAP1 POP DUP2 DUP2 SUB PUSH1 0x0 DUP4 ADD MSTORE PUSH2 0x5A3D DUP2 PUSH2 0x5A01 JUMP JUMPDEST SWAP1 POP SWAP2 SWAP1 POP JUMP JUMPDEST PUSH1 0x0 PUSH2 0x5A4F DUP3 PUSH2 0x3C3F JUMP JUMPDEST SWAP2 POP PUSH2 0x5A5A DUP4 PUSH2 0x3C3F JUMP JUMPDEST SWAP3 POP DUP3 PUSH2 0x5A6A JUMPI PUSH2 0x5A69 PUSH2 0x5952 JUMP JUMPDEST JUMPDEST DUP3 DUP3 MOD SWAP1 POP SWAP3 SWAP2 POP POP JUMP JUMPDEST PUSH32 0x54686520616D6F756E74206D7573742062652061206D756C7469706C65206F66 PUSH1 0x0 DUP3 ADD MSTORE PUSH32 0x2035300000000000000000000000000000000000000000000000000000000000 PUSH1 0x20 DUP3 ADD MSTORE POP JUMP JUMPDEST PUSH1 0x0 PUSH2 0x5AD1 PUSH1 0x23 DUP4 PUSH2 0x5723 JUMP JUMPDEST SWAP2 POP PUSH2 0x5ADC DUP3 PUSH2 0x5A75 JUMP JUMPDEST PUSH1 0x40 DUP3 ADD SWAP1 POP SWAP2 SWAP1 POP JUMP JUMPDEST PUSH1 0x0 PUSH1 0x20 DUP3 ADD SWAP1 POP DUP2 DUP2 SUB PUSH1 0x0 DUP4 ADD MSTORE PUSH2 0x5B00 DUP2 PUSH2 0x5AC4 JUMP JUMPDEST SWAP1 POP SWAP2 SWAP1 POP JUMP JUMPDEST PUSH32 0x496E737566666963656E7420616D6F756E74206F662055534443000000000000 PUSH1 0x0 DUP3 ADD MSTORE POP JUMP JUMPDEST PUSH1 0x0 PUSH2 0x5B3D PUSH1 0x1A DUP4 PUSH2 0x5723 JUMP JUMPDEST SWAP2 POP PUSH2 0x5B48 DUP3 PUSH2 0x5B07 JUMP JUMPDEST PUSH1 0x20 DUP3 ADD SWAP1 POP SWAP2 SWAP1 POP JUMP JUMPDEST PUSH1 0x0 PUSH1 0x20 DUP3 ADD SWAP1 POP DUP2 DUP2 SUB PUSH1 0x0 DUP4 ADD MSTORE PUSH2 0x5B6C DUP2 PUSH2 0x5B30 JUMP JUMPDEST SWAP1 POP SWAP2 SWAP1 POP JUMP JUMPDEST PUSH1 0x0 PUSH1 0x40 DUP3 ADD SWAP1 POP PUSH2 0x5B88 PUSH1 0x0 DUP4 ADD DUP6 PUSH2 0x4947 JUMP JUMPDEST PUSH2 0x5B95 PUSH1 0x20 DUP4 ADD DUP5 PUSH2 0x4947 JUMP JUMPDEST SWAP4 SWAP3 POP POP POP JUMP JUMPDEST PUSH32 0x496E73756666696369656E7420616C6C6F776564205553444300000000000000 PUSH1 0x0 DUP3 ADD MSTORE POP JUMP JUMPDEST PUSH1 0x0 PUSH2 0x5BD2 PUSH1 0x19 DUP4 PUSH2 0x5723 JUMP JUMPDEST SWAP2 POP PUSH2 0x5BDD DUP3 PUSH2 0x5B9C JUMP JUMPDEST PUSH1 0x20 DUP3 ADD SWAP1 POP SWAP2 SWAP1 POP JUMP JUMPDEST PUSH1 0x0 PUSH1 0x20 DUP3 ADD SWAP1 POP DUP2 DUP2 SUB PUSH1 0x0 DUP4 ADD MSTORE PUSH2 0x5C01 DUP2 PUSH2 0x5BC5 JUMP JUMPDEST SWAP1 POP SWAP2 SWAP1 POP JUMP JUMPDEST PUSH1 0x0 PUSH1 0x60 DUP3 ADD SWAP1 POP PUSH2 0x5C1D PUSH1 0x0 DUP4 ADD DUP7 PUSH2 0x4947 JUMP JUMPDEST PUSH2 0x5C2A PUSH1 0x20 DUP4 ADD DUP6 PUSH2 0x4947 JUMP JUMPDEST PUSH2 0x5C37 PUSH1 0x40 DUP4 ADD DUP5 PUSH2 0x3C49 JUMP JUMPDEST SWAP5 SWAP4 POP POP POP POP JUMP JUMPDEST PUSH2 0x5C48 DUP2 PUSH2 0x49A9 JUMP JUMPDEST DUP2 EQ PUSH2 0x5C53 JUMPI PUSH1 0x0 DUP1 REVERT JUMPDEST POP JUMP JUMPDEST PUSH1 0x0 DUP2 MLOAD SWAP1 POP PUSH2 0x5C65 DUP2 PUSH2 0x5C3F JUMP JUMPDEST SWAP3 SWAP2 POP POP JUMP JUMPDEST PUSH1 0x0 PUSH1 0x20 DUP3 DUP5 SUB SLT ISZERO PUSH2 0x5C81 JUMPI PUSH2 0x5C80 PUSH2 0x3C7D JUMP JUMPDEST JUMPDEST PUSH1 0x0 PUSH2 0x5C8F DUP5 DUP3 DUP6 ADD PUSH2 0x5C56 JUMP JUMPDEST SWAP2 POP POP SWAP3 SWAP2 POP POP JUMP JUMPDEST PUSH1 0x0 PUSH1 0x40 DUP3 ADD SWAP1 POP PUSH2 0x5CAD PUSH1 0x0 DUP4 ADD DUP6 PUSH2 0x4947 JUMP JUMPDEST PUSH2 0x5CBA PUSH1 0x20 DUP4 ADD DUP5 PUSH2 0x3C49 JUMP JUMPDEST SWAP4 SWAP3 POP POP POP JUMP JUMPDEST PUSH1 0x0 DUP2 SWAP1 POP SWAP2 SWAP1 POP JUMP JUMPDEST PUSH1 0x0 PUSH2 0xFFFF DUP3 AND SWAP1 POP SWAP2 SWAP1 POP JUMP JUMPDEST PUSH1 0x0 PUSH2 0x5CF4 PUSH2 0x5CEF PUSH2 0x5CEA DUP5 PUSH2 0x5CC1 JUMP JUMPDEST PUSH2 0x53A4 JUMP JUMPDEST PUSH2 0x5CCB JUMP JUMPDEST SWAP1 POP SWAP2 SWAP1 POP JUMP JUMPDEST PUSH2 0x5D04 DUP2 PUSH2 0x5CD9 JUMP JUMPDEST DUP3 MSTORE POP POP JUMP JUMPDEST PUSH1 0x0 PUSH1 0x80 DUP3 ADD SWAP1 POP PUSH2 0x5D1F PUSH1 0x0 DUP4 ADD DUP8 PUSH2 0x4947 JUMP JUMPDEST PUSH2 0x5D2C PUSH1 0x20 DUP4 ADD DUP7 PUSH2 0x3C49 JUMP JUMPDEST PUSH2 0x5D39 PUSH1 0x40 DUP4 ADD DUP6 PUSH2 0x4947 JUMP JUMPDEST PUSH2 0x5D46 PUSH1 0x60 DUP4 ADD DUP5 PUSH2 0x5CFB JUMP JUMPDEST SWAP6 SWAP5 POP POP POP POP POP JUMP JUMPDEST PUSH32 0x4F776E61626C653A2063616C6C6572206973206E6F7420746865206F776E6572 PUSH1 0x0 DUP3 ADD MSTORE POP JUMP JUMPDEST PUSH1 0x0 PUSH2 0x5D85 PUSH1 0x20 DUP4 PUSH2 0x5723 JUMP JUMPDEST SWAP2 POP PUSH2 0x5D90 DUP3 PUSH2 0x5D4F JUMP JUMPDEST PUSH1 0x20 DUP3 ADD SWAP1 POP SWAP2 SWAP1 POP JUMP JUMPDEST PUSH1 0x0 PUSH1 0x20 DUP3 ADD SWAP1 POP DUP2 DUP2 SUB PUSH1 0x0 DUP4 ADD MSTORE PUSH2 0x5DB4 DUP2 PUSH2 0x5D78 JUMP JUMPDEST SWAP1 POP SWAP2 SWAP1 POP JUMP JUMPDEST PUSH32 0x5061757361626C653A206E6F7420706175736564000000000000000000000000 PUSH1 0x0 DUP3 ADD MSTORE POP JUMP JUMPDEST PUSH1 0x0 PUSH2 0x5DF1 PUSH1 0x14 DUP4 PUSH2 0x5723 JUMP JUMPDEST SWAP2 POP PUSH2 0x5DFC DUP3 PUSH2 0x5DBB JUMP JUMPDEST PUSH1 0x20 DUP3 ADD SWAP1 POP SWAP2 SWAP1 POP JUMP JUMPDEST PUSH1 0x0 PUSH1 0x20 DUP3 ADD SWAP1 POP DUP2 DUP2 SUB PUSH1 0x0 DUP4 ADD MSTORE PUSH2 0x5E20 DUP2 PUSH2 0x5DE4 JUMP JUMPDEST SWAP1 POP SWAP2 SWAP1 POP JUMP JUMPDEST PUSH32 0x5061757361626C653A2070617573656400000000000000000000000000000000 PUSH1 0x0 DUP3 ADD MSTORE POP JUMP JUMPDEST PUSH1 0x0 PUSH2 0x5E5D PUSH1 0x10 DUP4 PUSH2 0x5723 JUMP JUMPDEST SWAP2 POP PUSH2 0x5E68 DUP3 PUSH2 0x5E27 JUMP JUMPDEST PUSH1 0x20 DUP3 ADD SWAP1 POP SWAP2 SWAP1 POP JUMP JUMPDEST PUSH1 0x0 PUSH1 0x20 DUP3 ADD SWAP1 POP DUP2 DUP2 SUB PUSH1 0x0 DUP4 ADD MSTORE PUSH2 0x5E8C DUP2 PUSH2 0x5E50 JUMP JUMPDEST SWAP1 POP SWAP2 SWAP1 POP JUMP INVALID LOG2 PUSH5 0x6970667358 0x22 SLT KECCAK256 BASEFEE 0xE MOD PUSH17 0x663BFBF09EDEFD3C2B45FA5E93CE94B929 0xD0 0xDC MSTORE SWAP13 EXTCODEHASH 0xC9 0xB7 0xEB PUSH15 0xE05F64736F6C634300080F00330000 "},"methodIdentifiers":{"calculateGain(uint256,(address,uint256,uint256)[])":"baf63783","checkResult(uint256,address)":"7fb9c45f","contestTable(uint256,uint256)":"57d088ff","createContest(uint256,string[],uint256)":"18699547","depositOnAave(uint256)":"fd8d1909","fakeGameCreate(string,(uint32,uint40,string,string)[])":"1f2bf10c","gamePlayed(uint32)":"8b617036","getContestPredictionEndDate()":"08af2d78","getContestTable(uint256)":"2452a7e3","getCurrentContestId()":"fb46bd22","getGameCreate(string,uint256)":"80b41a09","getGlobalPrizePool()":"b4ace158","getListGamesPerContest(uint256)":"7e5dd913","getNumberOfGamesPerContest(uint256)":"1d883342","getNumberOfGamesPerRequest(string)":"ea6a0410","getNumberOfPlayers(uint256)":"62436d9d","getPlayerRank(uint256,address)":"4fda591e","getPrevisionsPerPlayerPerContest(uint256,address)":"117f3998","getRequestIdPerContest(uint256)":"1506bca6","getScorePerGameId(uint32)":"1e7741f0","getScoreTable(uint256)":"b66195b8","nbTotalTicketsPerContest(uint256)":"946e18d9","owner()":"8da5cb5b","pause()":"8456cb59","paused()":"5c975abb","renounceOwnership()":"715018a6","savePrediction((uint32,uint8,uint8)[])":"9fa75e9a","saveRequestResults((uint32,uint8,uint8,string)[])":"3302787d","transferOwnership(address)":"f2fde38b","unpause()":"3f4ba83a","updateContestTable(uint256)":"d6221518"}}}}}