{
  "_format": "hh-sol-artifact-1",
  "contractName": "Test",
  "sourceName": "contracts/Test.sol",
  "abi": [
    {
      "inputs": [],
      "stateMutability": "nonpayable",
      "type": "constructor"
    },
    {
      "inputs": [
        {
          "internalType": "uint256",
          "name": "_contestId",
          "type": "uint256"
        }
      ],
      "name": "calculateGain",
      "outputs": [
        {
          "components": [
            {
              "internalType": "address",
              "name": "player",
              "type": "address"
            },
            {
              "internalType": "uint256",
              "name": "score",
              "type": "uint256"
            },
            {
              "internalType": "uint256",
              "name": "rankExAequo",
              "type": "uint256"
            },
            {
              "internalType": "uint256",
              "name": "rewardNoExAequo",
              "type": "uint256"
            },
            {
              "internalType": "uint256",
              "name": "cumulatedRewardsNoExAequo",
              "type": "uint256"
            },
            {
              "internalType": "uint256",
              "name": "cumulatedRewardsPerRank",
              "type": "uint256"
            },
            {
              "internalType": "uint256",
              "name": "rewardPerRankPerPlayer",
              "type": "uint256"
            }
          ],
          "internalType": "struct Test.Gain[]",
          "name": "",
          "type": "tuple[]"
        }
      ],
      "stateMutability": "view",
      "type": "function"
    },
    {
      "inputs": [
        {
          "internalType": "uint256",
          "name": "",
          "type": "uint256"
        },
        {
          "internalType": "uint256",
          "name": "",
          "type": "uint256"
        }
      ],
      "name": "contestTable",
      "outputs": [
        {
          "internalType": "address",
          "name": "player",
          "type": "address"
        },
        {
          "internalType": "uint256",
          "name": "nbTickets",
          "type": "uint256"
        },
        {
          "internalType": "uint256",
          "name": "score",
          "type": "uint256"
        },
        {
          "internalType": "uint256",
          "name": "rankExAequo",
          "type": "uint256"
        },
        {
          "internalType": "uint256",
          "name": "rewardPerRankPerPlayer",
          "type": "uint256"
        }
      ],
      "stateMutability": "view",
      "type": "function"
    },
    {
      "inputs": [
        {
          "internalType": "uint256",
          "name": "_contestId",
          "type": "uint256"
        }
      ],
      "name": "getContestTable",
      "outputs": [
        {
          "components": [
            {
              "internalType": "address",
              "name": "player",
              "type": "address"
            },
            {
              "internalType": "uint256",
              "name": "nbTickets",
              "type": "uint256"
            },
            {
              "internalType": "uint256",
              "name": "score",
              "type": "uint256"
            },
            {
              "internalType": "uint256",
              "name": "rankExAequo",
              "type": "uint256"
            },
            {
              "internalType": "uint256",
              "name": "rewardPerRankPerPlayer",
              "type": "uint256"
            }
          ],
          "internalType": "struct Test.ContestResult[]",
          "name": "",
          "type": "tuple[]"
        }
      ],
      "stateMutability": "view",
      "type": "function"
    },
    {
      "inputs": [
        {
          "internalType": "uint256",
          "name": "_contestId",
          "type": "uint256"
        }
      ],
      "name": "getScoreTable",
      "outputs": [
        {
          "components": [
            {
              "internalType": "address",
              "name": "player",
              "type": "address"
            },
            {
              "internalType": "uint256",
              "name": "nbTickets",
              "type": "uint256"
            },
            {
              "internalType": "uint256",
              "name": "score",
              "type": "uint256"
            }
          ],
          "internalType": "struct Test.PlayerScoreTicket[]",
          "name": "",
          "type": "tuple[]"
        }
      ],
      "stateMutability": "view",
      "type": "function"
    },
    {
      "inputs": [
        {
          "internalType": "uint256",
          "name": "_contestId",
          "type": "uint256"
        },
        {
          "internalType": "address",
          "name": "_player",
          "type": "address"
        },
        {
          "internalType": "uint256",
          "name": "_nbTickets",
          "type": "uint256"
        },
        {
          "internalType": "uint256",
          "name": "_score",
          "type": "uint256"
        }
      ],
      "name": "pushInScoreTable",
      "outputs": [],
      "stateMutability": "nonpayable",
      "type": "function"
    },
    {
      "inputs": [
        {
          "internalType": "uint256",
          "name": "",
          "type": "uint256"
        },
        {
          "internalType": "uint256",
          "name": "",
          "type": "uint256"
        }
      ],
      "name": "scoreTable",
      "outputs": [
        {
          "internalType": "address",
          "name": "player",
          "type": "address"
        },
        {
          "internalType": "uint256",
          "name": "nbTickets",
          "type": "uint256"
        },
        {
          "internalType": "uint256",
          "name": "score",
          "type": "uint256"
        }
      ],
      "stateMutability": "view",
      "type": "function"
    },
    {
      "inputs": [
        {
          "internalType": "uint256",
          "name": "_contestId",
          "type": "uint256"
        }
      ],
      "name": "updateContestTable",
      "outputs": [],
      "stateMutability": "nonpayable",
      "type": "function"
    }
  ],
  "bytecode": "0x60806040523480156200001157600080fd5b506106de60008190555060056001819055506200004e60017394b9420f65fb3ec966d96bb034b35af86487d929600160646200019b60201b60201c565b62000079600173d9464d0f4bd1da4dda0dd998bc73ae2ec42418de600260496200019b60201b60201c565b620000a4600173823dcde7d906cf8bf1bb4208238ebb015fe5bd0a600a60636200019b60201b60201c565b620000cf600173ab8483f64d9c6d1ecf9b849ae677dd3315835cb2600160496200019b60201b60201c565b620000fa6001735b38da6a701c568545dcfcb03fcb875f56beddc4600160646200019b60201b60201c565b620001256001734b20993bc481177ec7e8f571cecae8a9e22c02db600560496200019b60201b60201c565b6200015060017378731d3ca6b7e34ac0f824c42a7cc18a495cabab6003605a6200019b60201b60201c565b6200017b6001732f9691dd9e3fdb64daf2dc36a3b8d4f67a7646546002605c6200019b60201b60201c565b60196004600060018152602001908152602001600020819055506200026b565b6002600085815260200190815260200160002060405180606001604052808573ffffffffffffffffffffffffffffffffffffffff16815260200184815260200183815250908060018154018082558091505060019003906000526020600020906003020160009091909190915060008201518160000160006101000a81548173ffffffffffffffffffffffffffffffffffffffff021916908373ffffffffffffffffffffffffffffffffffffffff1602179055506020820151816001015560408201518160020155505050505050565b611c77806200027b6000396000f3fe608060405234801561001057600080fd5b506004361061007d5760003560e01c806385ed8ca01161005b57806385ed8ca014610102578063b66195b814610134578063bfb1d55c14610164578063d6221518146101945761007d565b80632452a7e31461008257806345b39137146100b257806357d088ff146100ce575b600080fd5b61009c60048036038101906100979190611485565b6101b0565b6040516100a99190611619565b60405180910390f35b6100cc60048036038101906100c79190611667565b6102a0565b005b6100e860048036038101906100e391906116ce565b610370565b6040516100f995949392919061172c565b60405180910390f35b61011c600480360381019061011791906116ce565b6103e3565b60405161012b9392919061177f565b60405180910390f35b61014e60048036038101906101499190611485565b61044a565b60405161015b91906118a7565b60405180910390f35b61017e60048036038101906101799190611485565b610526565b60405161018b9190611a06565b60405180910390f35b6101ae60048036038101906101a99190611485565b610f36565b005b606060036000838152602001908152602001600020805480602002602001604051908101604052809291908181526020016000905b8282101561029557838290600052602060002090600502016040518060a00160405290816000820160009054906101000a900473ffffffffffffffffffffffffffffffffffffffff1673ffffffffffffffffffffffffffffffffffffffff1673ffffffffffffffffffffffffffffffffffffffff168152602001600182015481526020016002820154815260200160038201548152602001600482015481525050815260200190600101906101e5565b505050509050919050565b6002600085815260200190815260200160002060405180606001604052808573ffffffffffffffffffffffffffffffffffffffff16815260200184815260200183815250908060018154018082558091505060019003906000526020600020906003020160009091909190915060008201518160000160006101000a81548173ffffffffffffffffffffffffffffffffffffffff021916908373ffffffffffffffffffffffffffffffffffffffff1602179055506020820151816001015560408201518160020155505050505050565b6003602052816000526040600020818154811061038c57600080fd5b9060005260206000209060050201600091509150508060000160009054906101000a900473ffffffffffffffffffffffffffffffffffffffff16908060010154908060020154908060030154908060040154905085565b600260205281600052604060002081815481106103ff57600080fd5b9060005260206000209060030201600091509150508060000160009054906101000a900473ffffffffffffffffffffffffffffffffffffffff16908060010154908060020154905083565b606060026000838152602001908152602001600020805480602002602001604051908101604052809291908181526020016000905b8282101561051b57838290600052602060002090600302016040518060600160405290816000820160009054906101000a900473ffffffffffffffffffffffffffffffffffffffff1673ffffffffffffffffffffffffffffffffffffffff1673ffffffffffffffffffffffffffffffffffffffff168152602001600182015481526020016002820154815250508152602001906001019061047f565b505050509050919050565b606060008060008080600080600460008a815260200190815260200160002054905060008167ffffffffffffffff81111561056457610563611a28565b5b60405190808252806020026020018201604052801561059d57816020015b61058a611390565b8152602001906001900390816105825790505b50905060008267ffffffffffffffff8111156105bc576105bb611a28565b5b6040519080825280602002602001820160405280156105f557816020015b6105e26113c0565b8152602001906001900390816105da5790505b50905060008367ffffffffffffffff81111561061457610613611a28565b5b60405190808252806020026020018201604052801561064d57816020015b61063a6113f7565b8152602001906001900390816106325790505b50905060005b600260008e8152602001908152602001600020805490508110156107b3576000600260008f8152602001908152602001600020828154811061069857610697611a57565b5b90600052602060002090600302016040518060600160405290816000820160009054906101000a900473ffffffffffffffffffffffffffffffffffffffff1673ffffffffffffffffffffffffffffffffffffffff1673ffffffffffffffffffffffffffffffffffffffff16815260200160018201548152602001600282015481525050905060005b816020015181101561079e576040518060400160405280836000015173ffffffffffffffffffffffffffffffffffffffff168152602001836040015181525086898151811061077257610771611a57565b5b6020026020010181905250878061078890611ab5565b985050808061079690611ab5565b915050610720565b505080806107ab90611ab5565b915050610653565b5060005b848110156108df5760019a5060005b85811015610840578481815181106107e1576107e0611a57565b5b602002602001015160200151858381518110610800576107ff611a57565b5b602002602001015160200151101561082d578b8061081d90611ab5565b9c50508a8c111561082c578b9a505b5b808061083890611ab5565b9150506107c6565b50604051806060016040528085838151811061085f5761085e611a57565b5b60200260200101516000015173ffffffffffffffffffffffffffffffffffffffff16815260200185838151811061089957610898611a57565b5b60200260200101516020015181526020018c8152508382815181106108c1576108c0611a57565b5b602002602001018190525080806108d790611ab5565b9150506107b7565b50600094506000600190505b898111610a1d5760005b85811015610a09578184828151811061091157610910611a57565b5b602002602001015160400151036109f6576040518060e001604052808583815181106109405761093f611a57565b5b60200260200101516000015173ffffffffffffffffffffffffffffffffffffffff16815260200185838151811061097a57610979611a57565b5b602002602001015160200151815260200185838151811061099e5761099d611a57565b5b602002602001015160400151815260200160008152602001600081526020016000815260200160008152508388815181106109dc576109db611a57565b5b602002602001018190525086806109f290611ab5565b9750505b8080610a0190611ab5565b9150506108f5565b508080610a1590611ab5565b9150506108eb565b50606460015489600054610a319190611afd565b610a3b9190611b31565b610a459190611bba565b95508588610a539190611beb565b97508581600081518110610a6a57610a69611a57565b5b602002602001015160600181815250508581600081518110610a8f57610a8e611a57565b5b602002602001015160800181815250508581600081518110610ab457610ab3611a57565b5b602002602001015160a00181815250508581600081518110610ad957610ad8611a57565b5b602002602001015160c00181815250506000600190505b84811015610f235760646001548a600054610b0b9190611afd565b610b159190611b31565b610b1f9190611bba565b965086828281518110610b3557610b34611a57565b5b602002602001015160600181815250508689610b519190611beb565b985088828281518110610b6757610b66611a57565b5b60200260200101516080018181525050600185610b849190611afd565b8114610d6a5781600182610b989190611afd565b81518110610ba957610ba8611a57565b5b602002602001015160400151828281518110610bc857610bc7611a57565b5b60200260200101516040015103610c37578682600183610be89190611afd565b81518110610bf957610bf8611a57565b5b602002602001015160a00151610c0f9190611beb565b828281518110610c2257610c21611a57565b5b602002602001015160a0018181525050610d65565b86828281518110610c4b57610c4a611a57565b5b602002602001015160a001818152505086828281518110610c6f57610c6e611a57565b5b602002602001015160c001818152505081600182610c8d9190611afd565b81518110610c9e57610c9d611a57565b5b602002602001015160400151828281518110610cbd57610cbc611a57565b5b602002602001015160400151610cd39190611afd565b975060005b88811015610d63578883600184610cef9190611afd565b81518110610d0057610cff611a57565b5b602002602001015160a00151610d169190611bba565b83600183610d249190611beb565b84610d2f9190611afd565b81518110610d4057610d3f611a57565b5b602002602001015160c00181815250508080610d5b90611ab5565b915050610cd8565b505b610f10565b81600182610d789190611afd565b81518110610d8957610d88611a57565b5b602002602001015160400151828281518110610da857610da7611a57565b5b60200260200101516040015103610ec6578682600183610dc89190611afd565b81518110610dd957610dd8611a57565b5b602002602001015160a00151610def9190611beb565b828281518110610e0257610e01611a57565b5b602002602001015160a0018181525050818181518110610e2557610e24611a57565b5b602002602001015160400151600186610e3e9190611beb565b610e489190611afd565b975060005b88811015610ec05788838381518110610e6957610e68611a57565b5b602002602001015160a00151610e7f9190611bba565b838284610e8c9190611afd565b81518110610e9d57610e9c611a57565b5b602002602001015160c00181815250508080610eb890611ab5565b915050610e4d565b50610f0f565b86828281518110610eda57610ed9611a57565b5b602002602001015160a001818152505086828281518110610efe57610efd611a57565b5b602002602001015160c00181815250505b5b8080610f1b90611ab5565b915050610af0565b50809a5050505050505050505050919050565b6000610f4182610526565b90506000600360008481526020019081526020016000206040518060a0016040528084600081518110610f7757610f76611a57565b5b60200260200101516000015173ffffffffffffffffffffffffffffffffffffffff1681526020016001815260200184600081518110610fb957610fb8611a57565b5b602002602001015160200151815260200184600081518110610fde57610fdd611a57565b5b60200260200101516040015181526020018460008151811061100357611002611a57565b5b602002602001015160c00151815250908060018154018082558091505060019003906000526020600020906005020160009091909190915060008201518160000160006101000a81548173ffffffffffffffffffffffffffffffffffffffff021916908373ffffffffffffffffffffffffffffffffffffffff1602179055506020820151816001015560408201518160020155606082015181600301556080820151816004015550506000600190505b600460008581526020019081526020016000205481101561138a57826001826110dc9190611afd565b815181106110ed576110ec611a57565b5b60200260200101516000015173ffffffffffffffffffffffffffffffffffffffff1683828151811061112257611121611a57565b5b60200260200101516000015173ffffffffffffffffffffffffffffffffffffffff16036112055760036000858152602001908152602001600020828154811061116e5761116d611a57565b5b9060005260206000209060050201600101600081548092919061119090611ab5565b91905055508281815181106111a8576111a7611a57565b5b602002602001015160c001516003600086815260200190815260200160002083815481106111d9576111d8611a57565b5b906000526020600020906005020160040160008282546111f99190611beb565b92505081905550611377565b600360008581526020019081526020016000206040518060a0016040528085848151811061123657611235611a57565b5b60200260200101516000015173ffffffffffffffffffffffffffffffffffffffff1681526020016001815260200185848151811061127757611276611a57565b5b602002602001015160200151815260200185848151811061129b5761129a611a57565b5b60200260200101516040015181526020018584815181106112bf576112be611a57565b5b602002602001015160c00151815250908060018154018082558091505060019003906000526020600020906005020160009091909190915060008201518160000160006101000a81548173ffffffffffffffffffffffffffffffffffffffff021916908373ffffffffffffffffffffffffffffffffffffffff160217905550602082015181600101556040820151816002015560608201518160030155608082015181600401555050818061137390611ab5565b9250505b808061138290611ab5565b9150506110b3565b50505050565b6040518060400160405280600073ffffffffffffffffffffffffffffffffffffffff168152602001600081525090565b6040518060600160405280600073ffffffffffffffffffffffffffffffffffffffff16815260200160008152602001600081525090565b6040518060e00160405280600073ffffffffffffffffffffffffffffffffffffffff1681526020016000815260200160008152602001600081526020016000815260200160008152602001600081525090565b600080fd5b6000819050919050565b6114628161144f565b811461146d57600080fd5b50565b60008135905061147f81611459565b92915050565b60006020828403121561149b5761149a61144a565b5b60006114a984828501611470565b91505092915050565b600081519050919050565b600082825260208201905092915050565b6000819050602082019050919050565b600073ffffffffffffffffffffffffffffffffffffffff82169050919050565b6000611509826114de565b9050919050565b611519816114fe565b82525050565b6115288161144f565b82525050565b60a0820160008201516115446000850182611510565b506020820151611557602085018261151f565b50604082015161156a604085018261151f565b50606082015161157d606085018261151f565b506080820151611590608085018261151f565b50505050565b60006115a2838361152e565b60a08301905092915050565b6000602082019050919050565b60006115c6826114b2565b6115d081856114bd565b93506115db836114ce565b8060005b8381101561160c5781516115f38882611596565b97506115fe836115ae565b9250506001810190506115df565b5085935050505092915050565b6000602082019050818103600083015261163381846115bb565b905092915050565b611644816114fe565b811461164f57600080fd5b50565b6000813590506116618161163b565b92915050565b600080600080608085870312156116815761168061144a565b5b600061168f87828801611470565b94505060206116a087828801611652565b93505060406116b187828801611470565b92505060606116c287828801611470565b91505092959194509250565b600080604083850312156116e5576116e461144a565b5b60006116f385828601611470565b925050602061170485828601611470565b9150509250929050565b611717816114fe565b82525050565b6117268161144f565b82525050565b600060a082019050611741600083018861170e565b61174e602083018761171d565b61175b604083018661171d565b611768606083018561171d565b611775608083018461171d565b9695505050505050565b6000606082019050611794600083018661170e565b6117a1602083018561171d565b6117ae604083018461171d565b949350505050565b600081519050919050565b600082825260208201905092915050565b6000819050602082019050919050565b6060820160008201516117f86000850182611510565b50602082015161180b602085018261151f565b50604082015161181e604085018261151f565b50505050565b600061183083836117e2565b60608301905092915050565b6000602082019050919050565b6000611854826117b6565b61185e81856117c1565b9350611869836117d2565b8060005b8381101561189a5781516118818882611824565b975061188c8361183c565b92505060018101905061186d565b5085935050505092915050565b600060208201905081810360008301526118c18184611849565b905092915050565b600081519050919050565b600082825260208201905092915050565b6000819050602082019050919050565b60e08201600082015161190b6000850182611510565b50602082015161191e602085018261151f565b506040820151611931604085018261151f565b506060820151611944606085018261151f565b506080820151611957608085018261151f565b5060a082015161196a60a085018261151f565b5060c082015161197d60c085018261151f565b50505050565b600061198f83836118f5565b60e08301905092915050565b6000602082019050919050565b60006119b3826118c9565b6119bd81856118d4565b93506119c8836118e5565b8060005b838110156119f95781516119e08882611983565b97506119eb8361199b565b9250506001810190506119cc565b5085935050505092915050565b60006020820190508181036000830152611a2081846119a8565b905092915050565b7f4e487b7100000000000000000000000000000000000000000000000000000000600052604160045260246000fd5b7f4e487b7100000000000000000000000000000000000000000000000000000000600052603260045260246000fd5b7f4e487b7100000000000000000000000000000000000000000000000000000000600052601160045260246000fd5b6000611ac08261144f565b91507fffffffffffffffffffffffffffffffffffffffffffffffffffffffffffffffff8203611af257611af1611a86565b5b600182019050919050565b6000611b088261144f565b9150611b138361144f565b925082821015611b2657611b25611a86565b5b828203905092915050565b6000611b3c8261144f565b9150611b478361144f565b9250817fffffffffffffffffffffffffffffffffffffffffffffffffffffffffffffffff0483118215151615611b8057611b7f611a86565b5b828202905092915050565b7f4e487b7100000000000000000000000000000000000000000000000000000000600052601260045260246000fd5b6000611bc58261144f565b9150611bd08361144f565b925082611be057611bdf611b8b565b5b828204905092915050565b6000611bf68261144f565b9150611c018361144f565b9250827fffffffffffffffffffffffffffffffffffffffffffffffffffffffffffffffff03821115611c3657611c35611a86565b5b82820190509291505056fea26469706673582212202ed5cd1fb15d6bba69abe717680823d4d34eff2434f54408fbc746c7b0c199c064736f6c634300080f0033",
  "linkReferences": {},
  "deployedLinkReferences": {}
}