{
  "_format": "hh-sol-artifact-1",
  "contractName": "IpCalculation",
  "sourceName": "contracts/IpCalculation.sol",
  "abi": [
    {
      "inputs": [],
      "stateMutability": "nonpayable",
      "type": "constructor"
    },
    {
      "inputs": [
        {
          "internalType": "uint256",
          "name": "_contestId",
          "type": "uint256"
        },
        {
          "components": [
            {
              "internalType": "address",
              "name": "player",
              "type": "address"
            },
            {
              "internalType": "uint256",
              "name": "nbTickets",
              "type": "uint256"
            },
            {
              "internalType": "uint256",
              "name": "score",
              "type": "uint256"
            }
          ],
          "internalType": "struct IpCalculation.PlayerScoreTicket[]",
          "name": "_scoreTable",
          "type": "tuple[]"
        }
      ],
      "name": "calculateGain",
      "outputs": [
        {
          "components": [
            {
              "internalType": "address",
              "name": "player",
              "type": "address"
            },
            {
              "internalType": "uint256",
              "name": "score",
              "type": "uint256"
            },
            {
              "internalType": "uint256",
              "name": "rankExAequo",
              "type": "uint256"
            },
            {
              "internalType": "uint256",
              "name": "rewardNoExAequo",
              "type": "uint256"
            },
            {
              "internalType": "uint256",
              "name": "cumulatedRewardsNoExAequo",
              "type": "uint256"
            },
            {
              "internalType": "uint256",
              "name": "cumulatedRewardsPerRank",
              "type": "uint256"
            },
            {
              "internalType": "uint256",
              "name": "rewardPerRankPerPlayer",
              "type": "uint256"
            }
          ],
          "internalType": "struct IpCalculation.Gain[]",
          "name": "",
          "type": "tuple[]"
        }
      ],
      "stateMutability": "view",
      "type": "function"
    },
    {
      "inputs": [
        {
          "internalType": "uint256",
          "name": "_contestId",
          "type": "uint256"
        },
        {
          "internalType": "address",
          "name": "_player",
          "type": "address"
        }
      ],
      "name": "checkResult",
      "outputs": [
        {
          "internalType": "uint256",
          "name": "",
          "type": "uint256"
        }
      ],
      "stateMutability": "view",
      "type": "function"
    },
    {
      "inputs": [
        {
          "internalType": "uint256",
          "name": "",
          "type": "uint256"
        },
        {
          "internalType": "uint256",
          "name": "",
          "type": "uint256"
        }
      ],
      "name": "contestTable",
      "outputs": [
        {
          "internalType": "address",
          "name": "player",
          "type": "address"
        },
        {
          "internalType": "uint256",
          "name": "nbTickets",
          "type": "uint256"
        },
        {
          "internalType": "uint256",
          "name": "score",
          "type": "uint256"
        },
        {
          "internalType": "uint256",
          "name": "rankExAequo",
          "type": "uint256"
        },
        {
          "internalType": "uint256",
          "name": "rewardPerRankPerPlayer",
          "type": "uint256"
        }
      ],
      "stateMutability": "view",
      "type": "function"
    },
    {
      "inputs": [
        {
          "internalType": "uint256",
          "name": "_leagueId",
          "type": "uint256"
        },
        {
          "internalType": "string[]",
          "name": "_listRequestId",
          "type": "string[]"
        },
        {
          "internalType": "uint256",
          "name": "_dateEndContest",
          "type": "uint256"
        }
      ],
      "name": "createContest",
      "outputs": [],
      "stateMutability": "nonpayable",
      "type": "function"
    },
    {
      "inputs": [
        {
          "internalType": "string",
          "name": "_requestId",
          "type": "string"
        },
        {
          "components": [
            {
              "internalType": "uint32",
              "name": "gameId",
              "type": "uint32"
            },
            {
              "internalType": "uint40",
              "name": "startTime",
              "type": "uint40"
            },
            {
              "internalType": "string",
              "name": "homeTeam",
              "type": "string"
            },
            {
              "internalType": "string",
              "name": "awayTeam",
              "type": "string"
            }
          ],
          "internalType": "struct IpFakeEnetScore.GameCreate[]",
          "name": "_fakeGameCreate",
          "type": "tuple[]"
        }
      ],
      "name": "fakeGameCreate",
      "outputs": [],
      "stateMutability": "nonpayable",
      "type": "function"
    },
    {
      "inputs": [
        {
          "internalType": "uint256",
          "name": "_contestId",
          "type": "uint256"
        }
      ],
      "name": "getContestTable",
      "outputs": [
        {
          "components": [
            {
              "internalType": "address",
              "name": "player",
              "type": "address"
            },
            {
              "internalType": "uint256",
              "name": "nbTickets",
              "type": "uint256"
            },
            {
              "internalType": "uint256",
              "name": "score",
              "type": "uint256"
            },
            {
              "internalType": "uint256",
              "name": "rankExAequo",
              "type": "uint256"
            },
            {
              "internalType": "uint256",
              "name": "rewardPerRankPerPlayer",
              "type": "uint256"
            }
          ],
          "internalType": "struct IpCalculation.ContestResult[]",
          "name": "",
          "type": "tuple[]"
        }
      ],
      "stateMutability": "view",
      "type": "function"
    },
    {
      "inputs": [],
      "name": "getCurrentContestId",
      "outputs": [
        {
          "internalType": "uint256",
          "name": "",
          "type": "uint256"
        }
      ],
      "stateMutability": "view",
      "type": "function"
    },
    {
      "inputs": [
        {
          "internalType": "string",
          "name": "_requestId",
          "type": "string"
        },
        {
          "internalType": "uint256",
          "name": "_idx",
          "type": "uint256"
        }
      ],
      "name": "getGameCreate",
      "outputs": [
        {
          "components": [
            {
              "internalType": "uint32",
              "name": "gameId",
              "type": "uint32"
            },
            {
              "internalType": "uint40",
              "name": "startTime",
              "type": "uint40"
            },
            {
              "internalType": "string",
              "name": "homeTeam",
              "type": "string"
            },
            {
              "internalType": "string",
              "name": "awayTeam",
              "type": "string"
            }
          ],
          "internalType": "struct IpFakeEnetScore.GameCreate",
          "name": "",
          "type": "tuple"
        }
      ],
      "stateMutability": "view",
      "type": "function"
    },
    {
      "inputs": [
        {
          "internalType": "uint256",
          "name": "_contestId",
          "type": "uint256"
        }
      ],
      "name": "getListGamesPerContest",
      "outputs": [
        {
          "components": [
            {
              "internalType": "uint32",
              "name": "gameId",
              "type": "uint32"
            },
            {
              "internalType": "uint40",
              "name": "startTime",
              "type": "uint40"
            },
            {
              "internalType": "string",
              "name": "homeTeam",
              "type": "string"
            },
            {
              "internalType": "string",
              "name": "awayTeam",
              "type": "string"
            }
          ],
          "internalType": "struct IpFakeEnetScore.GameCreate[]",
          "name": "",
          "type": "tuple[]"
        }
      ],
      "stateMutability": "view",
      "type": "function"
    },
    {
      "inputs": [
        {
          "internalType": "uint256",
          "name": "_contestId",
          "type": "uint256"
        }
      ],
      "name": "getNumberOfGamesPerContest",
      "outputs": [
        {
          "internalType": "uint256",
          "name": "",
          "type": "uint256"
        }
      ],
      "stateMutability": "view",
      "type": "function"
    },
    {
      "inputs": [
        {
          "internalType": "string",
          "name": "_requestId",
          "type": "string"
        }
      ],
      "name": "getNumberOfGamesPerRequest",
      "outputs": [
        {
          "internalType": "uint256",
          "name": "",
          "type": "uint256"
        }
      ],
      "stateMutability": "view",
      "type": "function"
    },
    {
      "inputs": [
        {
          "internalType": "uint256",
          "name": "_contestId",
          "type": "uint256"
        }
      ],
      "name": "getNumberOfPlayers",
      "outputs": [
        {
          "internalType": "uint256",
          "name": "",
          "type": "uint256"
        }
      ],
      "stateMutability": "view",
      "type": "function"
    },
    {
      "inputs": [
        {
          "internalType": "uint256",
          "name": "_contestId",
          "type": "uint256"
        },
        {
          "internalType": "address",
          "name": "_player",
          "type": "address"
        }
      ],
      "name": "getPlayerRank",
      "outputs": [
        {
          "internalType": "uint256",
          "name": "",
          "type": "uint256"
        }
      ],
      "stateMutability": "view",
      "type": "function"
    },
    {
      "inputs": [
        {
          "internalType": "uint256",
          "name": "_contestId",
          "type": "uint256"
        },
        {
          "internalType": "address",
          "name": "_player",
          "type": "address"
        }
      ],
      "name": "getPrevisionsPerPlayerPerContest",
      "outputs": [
        {
          "components": [
            {
              "internalType": "uint32",
              "name": "gameId",
              "type": "uint32"
            },
            {
              "internalType": "uint8",
              "name": "homeScore",
              "type": "uint8"
            },
            {
              "internalType": "uint8",
              "name": "awayScore",
              "type": "uint8"
            }
          ],
          "internalType": "struct IpFakeEnetScore.GamePredict[]",
          "name": "",
          "type": "tuple[]"
        }
      ],
      "stateMutability": "view",
      "type": "function"
    },
    {
      "inputs": [
        {
          "internalType": "uint256",
          "name": "_contestId",
          "type": "uint256"
        }
      ],
      "name": "getRequestIdPerContest",
      "outputs": [
        {
          "internalType": "string[]",
          "name": "",
          "type": "string[]"
        }
      ],
      "stateMutability": "view",
      "type": "function"
    },
    {
      "inputs": [
        {
          "internalType": "uint32",
          "name": "_gameId",
          "type": "uint32"
        }
      ],
      "name": "getScorePerGameId",
      "outputs": [
        {
          "components": [
            {
              "internalType": "uint8",
              "name": "homeScore",
              "type": "uint8"
            },
            {
              "internalType": "uint8",
              "name": "awayScore",
              "type": "uint8"
            }
          ],
          "internalType": "struct IpFakeEnetScore.Scores",
          "name": "",
          "type": "tuple"
        }
      ],
      "stateMutability": "view",
      "type": "function"
    },
    {
      "inputs": [
        {
          "internalType": "uint256",
          "name": "_contestId",
          "type": "uint256"
        }
      ],
      "name": "getScoreTable",
      "outputs": [
        {
          "components": [
            {
              "internalType": "address",
              "name": "player",
              "type": "address"
            },
            {
              "internalType": "uint256",
              "name": "nbTickets",
              "type": "uint256"
            },
            {
              "internalType": "uint256",
              "name": "score",
              "type": "uint256"
            }
          ],
          "internalType": "struct IpCalculation.PlayerScoreTicket[]",
          "name": "",
          "type": "tuple[]"
        }
      ],
      "stateMutability": "view",
      "type": "function"
    },
    {
      "inputs": [
        {
          "components": [
            {
              "internalType": "uint32",
              "name": "gameId",
              "type": "uint32"
            },
            {
              "internalType": "uint8",
              "name": "homeScore",
              "type": "uint8"
            },
            {
              "internalType": "uint8",
              "name": "awayScore",
              "type": "uint8"
            }
          ],
          "internalType": "struct IpFakeEnetScore.GamePredict[]",
          "name": "_gamePredictions",
          "type": "tuple[]"
        }
      ],
      "name": "savePrediction",
      "outputs": [],
      "stateMutability": "nonpayable",
      "type": "function"
    },
    {
      "inputs": [
        {
          "components": [
            {
              "internalType": "uint32",
              "name": "gameId",
              "type": "uint32"
            },
            {
              "internalType": "uint8",
              "name": "homeScore",
              "type": "uint8"
            },
            {
              "internalType": "uint8",
              "name": "awayScore",
              "type": "uint8"
            },
            {
              "internalType": "string",
              "name": "status",
              "type": "string"
            }
          ],
          "internalType": "struct IpFakeEnetScore.GameResolve[]",
          "name": "_fakeGameResolve",
          "type": "tuple[]"
        }
      ],
      "name": "saveRequestResults",
      "outputs": [],
      "stateMutability": "nonpayable",
      "type": "function"
    },
    {
      "inputs": [
        {
          "internalType": "uint256",
          "name": "_contestId",
          "type": "uint256"
        }
      ],
      "name": "updateContestTable",
      "outputs": [],
      "stateMutability": "nonpayable",
      "type": "function"
    }
  ],
  "bytecode": "0x608060405234801561001057600080fd5b5060006008819055506106de600a819055506005600b819055506019600d60006001815260200190815260200160002081905550614940806100536000396000f3fe608060405234801561001057600080fd5b506004361061012c5760003560e01c806362436d9d116100ad578063b66195b811610071578063b66195b8146103b5578063baf63783146103e5578063d622151814610415578063ea6a041014610431578063fb46bd22146104615761012c565b806362436d9d146102d95780637e5dd913146103095780637fb9c45f1461033957806380b41a09146103695780639fa75e9a146103995761012c565b80631f2bf10c116100f45780631f2bf10c1461020d5780632452a7e3146102295780633302787d146102595780634fda591e1461027557806357d088ff146102a55761012c565b8063117f3998146101315780631506bca61461016157806318699547146101915780631d883342146101ad5780631e7741f0146101dd575b600080fd5b61014b60048036038101906101469190612d91565b61047f565b6040516101589190612efd565b60405180910390f35b61017b60048036038101906101769190612f1f565b6106d6565b60405161018891906130a7565b60405180910390f35b6101ab60048036038101906101a691906132e4565b6107c2565b005b6101c760048036038101906101c29190612f1f565b6108a2565b6040516101d49190613362565b60405180910390f35b6101f760048036038101906101f291906133a9565b610944565b6040516102049190613405565b60405180910390f35b610227600480360381019061022291906135f8565b6109b7565b005b610243600480360381019061023e9190612f1f565b610b46565b60405161025091906137a5565b60405180910390f35b610273600480360381019061026e9190613968565b610c36565b005b61028f600480360381019061028a9190612d91565b610d88565b60405161029c9190613362565b60405180910390f35b6102bf60048036038101906102ba91906139b1565b610fba565b6040516102d0959493929190613a00565b60405180910390f35b6102f360048036038101906102ee9190612f1f565b61102d565b6040516103009190613362565b60405180910390f35b610323600480360381019061031e9190612f1f565b61104d565b6040516103309190613b8e565b60405180910390f35b610353600480360381019061034e9190612d91565b61137c565b6040516103609190613362565b60405180910390f35b610383600480360381019061037e9190613bb0565b611791565b6040516103909190613c76565b60405180910390f35b6103b360048036038101906103ae9190613dbf565b61195d565b005b6103cf60048036038101906103ca9190612f1f565b611bd5565b6040516103dc9190613ef9565b60405180910390f35b6103ff60048036038101906103fa9190614042565b611d29565b60405161040c91906141db565b60405180910390f35b61042f600480360381019061042a9190612f1f565b612698565b005b61044b600480360381019061044691906141fd565b612b01565b6040516104589190613362565b60405180910390f35b610469612b2b565b6040516104769190613362565b60405180910390f35b6060600061048c846108a2565b90506000808267ffffffffffffffff8111156104ab576104aa6130ce565b5b6040519080825280602002602001820160405280156104e457816020015b6104d1612b76565b8152602001906001900390816104c95790505b50905060008367ffffffffffffffff811115610503576105026130ce565b5b60405190808252806020026020018201604052801561053c57816020015b610529612ba3565b8152602001906001900390816105215790505b5090506105488761104d565b905060005b848110156106c85781818151811061056857610567614246565b5b602002602001015160000151935060405180606001604052808563ffffffff168152602001600460008a73ffffffffffffffffffffffffffffffffffffffff1673ffffffffffffffffffffffffffffffffffffffff16815260200190815260200160002060008b815260200190815260200160002060008763ffffffff1663ffffffff16815260200190815260200160002060000160009054906101000a900460ff1660ff168152602001600460008a73ffffffffffffffffffffffffffffffffffffffff1673ffffffffffffffffffffffffffffffffffffffff16815260200190815260200160002060008b815260200190815260200160002060008763ffffffff1663ffffffff16815260200190815260200160002060000160019054906101000a900460ff1660ff168152508382815181106106aa576106a9614246565b5b602002602001018190525080806106c0906142a4565b91505061054d565b508194505050505092915050565b606060016000838152602001908152602001600020805480602002602001604051908101604052809291908181526020016000905b828210156107b757838290600052602060002001805461072a9061431b565b80601f01602080910402602001604051908101604052809291908181526020018280546107569061431b565b80156107a35780601f10610778576101008083540402835291602001916107a3565b820191906000526020600020905b81548152906001019060200180831161078657829003601f168201915b50505050508152602001906001019061070b565b505050509050919050565b600860008154809291906107d5906142a4565b919050555060005b825181101561085b5760016000600854815260200190815260200160002083828151811061080e5761080d614246565b5b602002602001015190806001815401808255809150506001900390600052602060002001600090919091909150908161084791906144f8565b508080610853906142a4565b9150506107dd565b506040518060400160405280848152602001828152506002600060085481526020019081526020016000206000820151816000015560208201518160010155905050505050565b6000806000905060005b600160008581526020019081526020016000208054905081101561093a5760006001600086815260200190815260200160002082815481106108f1576108f0614246565b5b906000526020600020016040516109089190614658565b90815260200160405180910390208054905082610925919061466f565b91508080610932906142a4565b9150506108ac565b5080915050919050565b61094c612bd8565b600360008363ffffffff1663ffffffff1681526020019081526020016000206040518060400160405290816000820160009054906101000a900460ff1660ff1660ff1681526020016000820160019054906101000a900460ff1660ff1660ff16815250509050919050565b60005b8151811015610b41576000836040516109d391906146f6565b908152602001604051809103902060405180608001604052808484815181106109ff576109fe614246565b5b60200260200101516000015163ffffffff168152602001848481518110610a2957610a28614246565b5b60200260200101516020015164ffffffffff168152602001848481518110610a5457610a53614246565b5b6020026020010151604001518152602001848481518110610a7857610a77614246565b5b602002602001015160600151815250908060018154018082558091505060019003906000526020600020906003020160009091909190915060008201518160000160006101000a81548163ffffffff021916908363ffffffff16021790555060208201518160000160046101000a81548164ffffffffff021916908364ffffffffff1602179055506040820151816001019081610b1591906144f8565b506060820151816002019081610b2b91906144f8565b5050508080610b39906142a4565b9150506109ba565b505050565b6060600c6000838152602001908152602001600020805480602002602001604051908101604052809291908181526020016000905b82821015610c2b57838290600052602060002090600502016040518060a00160405290816000820160009054906101000a900473ffffffffffffffffffffffffffffffffffffffff1673ffffffffffffffffffffffffffffffffffffffff1673ffffffffffffffffffffffffffffffffffffffff16815260200160018201548152602001600282015481526020016003820154815260200160048201548152505081526020019060010190610b7b565b505050509050919050565b60005b8151811015610d84576040518060400160405280838381518110610c6057610c5f614246565b5b60200260200101516020015160ff168152602001838381518110610c8757610c86614246565b5b60200260200101516040015160ff1681525060036000848481518110610cb057610caf614246565b5b60200260200101516000015163ffffffff1663ffffffff16815260200190815260200160002060008201518160000160006101000a81548160ff021916908360ff16021790555060208201518160000160016101000a81548160ff021916908360ff160217905550905050600160096000848481518110610d3457610d33614246565b5b60200260200101516000015163ffffffff1663ffffffff16815260200190815260200160002060006101000a81548160ff0219169083151502179055508080610d7c906142a4565b915050610c39565b5050565b600080610d9484611bd5565b9050600080825190506000808267ffffffffffffffff811115610dba57610db96130ce565b5b604051908082528060200260200182016040528015610df357816020015b610de0612bf8565b815260200190600190039081610dd85790505b50905060005b83811015610f15576001945060005b84811015610e7657868181518110610e2357610e22614246565b5b602002602001015160400151878381518110610e4257610e41614246565b5b6020026020010151604001511015610e63578580610e5f906142a4565b9650505b8080610e6e906142a4565b915050610e08565b506040518060600160405280878381518110610e9557610e94614246565b5b60200260200101516000015173ffffffffffffffffffffffffffffffffffffffff168152602001878381518110610ecf57610ece614246565b5b602002602001015160400151815260200186815250828281518110610ef757610ef6614246565b5b60200260200101819052508080610f0d906142a4565b915050610df9565b5060005b83811015610fab57818181518110610f3457610f33614246565b5b60200260200101516000015173ffffffffffffffffffffffffffffffffffffffff168873ffffffffffffffffffffffffffffffffffffffff1603610f9857818181518110610f8557610f84614246565b5b6020026020010151604001519250610fab565b8080610fa3906142a4565b915050610f19565b50819550505050505092915050565b600c6020528160005260406000208181548110610fd657600080fd5b9060005260206000209060050201600091509150508060000160009054906101000a900473ffffffffffffffffffffffffffffffffffffffff16908060010154908060020154908060030154908060040154905085565b600060056000838152602001908152602001600020805490509050919050565b6060600061105a836108a2565b90506000808267ffffffffffffffff811115611079576110786130ce565b5b6040519080825280602002602001820160405280156110b257816020015b61109f612ba3565b8152602001906001900390816110975790505b50905060005b60016000878152602001908152602001600020805490508110156113705760006001600088815260200190815260200160002082815481106110fd576110fc614246565b5b906000526020600020016040516111149190614658565b908152602001604051809103902080549050935060005b8481101561135c57600060016000898152602001908152602001600020838154811061115a57611159614246565b5b906000526020600020016040516111719190614658565b9081526020016040518091039020818154811061119157611190614246565b5b90600052602060002090600302016040518060800160405290816000820160009054906101000a900463ffffffff1663ffffffff1663ffffffff1681526020016000820160049054906101000a900464ffffffffff1664ffffffffff1664ffffffffff1681526020016001820180546112099061431b565b80601f01602080910402602001604051908101604052809291908181526020018280546112359061431b565b80156112825780601f1061125757610100808354040283529160200191611282565b820191906000526020600020905b81548152906001019060200180831161126557829003601f168201915b5050505050815260200160028201805461129b9061431b565b80601f01602080910402602001604051908101604052809291908181526020018280546112c79061431b565b80156113145780601f106112e957610100808354040283529160200191611314565b820191906000526020600020905b8154815290600101906020018083116112f757829003601f168201915b5050505050815250508385815181106113305761132f614246565b5b60200260200101819052508380611346906142a4565b9450508080611354906142a4565b91505061112b565b508080611368906142a4565b9150506110b8565b50809350505050919050565b60008060008060009050600080611392886108a2565b905060008167ffffffffffffffff8111156113b0576113af6130ce565b5b6040519080825280602002602001820160405280156113e957816020015b6113d6612ba3565b8152602001906001900390816113ce5790505b5090506113f58961104d565b905060005b828110156117815781818151811061141557611414614246565b5b6020026020010151600001519350611527600460008b73ffffffffffffffffffffffffffffffffffffffff1673ffffffffffffffffffffffffffffffffffffffff16815260200190815260200160002060008c815260200190815260200160002060008663ffffffff1663ffffffff16815260200190815260200160002060000160009054906101000a900460ff16600460008c73ffffffffffffffffffffffffffffffffffffffff1673ffffffffffffffffffffffffffffffffffffffff16815260200190815260200160002060008d815260200190815260200160002060008763ffffffff1663ffffffff16815260200190815260200160002060000160019054906101000a900460ff16612b35565b9650611591600360008663ffffffff1663ffffffff16815260200190815260200160002060000160009054906101000a900460ff16600360008763ffffffff1663ffffffff16815260200190815260200160002060000160019054906101000a900460ff16612b35565b955085871480156115d2575060011515600960008663ffffffff1663ffffffff16815260200190815260200160002060009054906101000a900460ff161515145b1561176e576001856115e4919061466f565b9450600360008563ffffffff1663ffffffff16815260200190815260200160002060000160009054906101000a900460ff1660ff16600460008b73ffffffffffffffffffffffffffffffffffffffff1673ffffffffffffffffffffffffffffffffffffffff16815260200190815260200160002060008c815260200190815260200160002060008663ffffffff1663ffffffff16815260200190815260200160002060000160009054906101000a900460ff1660ff161480156117585750600360008563ffffffff1663ffffffff16815260200190815260200160002060000160019054906101000a900460ff1660ff16600460008b73ffffffffffffffffffffffffffffffffffffffff1673ffffffffffffffffffffffffffffffffffffffff16815260200190815260200160002060008c815260200190815260200160002060008663ffffffff1663ffffffff16815260200190815260200160002060000160019054906101000a900460ff1660ff16145b1561176d5760028561176a919061466f565b94505b5b8080611779906142a4565b9150506113fa565b5083965050505050505092915050565b611799612ba3565b6000836040516117a991906146f6565b908152602001604051809103902082815481106117c9576117c8614246565b5b90600052602060002090600302016040518060800160405290816000820160009054906101000a900463ffffffff1663ffffffff1663ffffffff1681526020016000820160049054906101000a900464ffffffffff1664ffffffffff1664ffffffffff1681526020016001820180546118419061431b565b80601f016020809104026020016040519081016040528092919081815260200182805461186d9061431b565b80156118ba5780601f1061188f576101008083540402835291602001916118ba565b820191906000526020600020905b81548152906001019060200180831161189d57829003601f168201915b505050505081526020016002820180546118d39061431b565b80601f01602080910402602001604051908101604052809291908181526020018280546118ff9061431b565b801561194c5780601f106119215761010080835404028352916020019161194c565b820191906000526020600020905b81548152906001019060200180831161192f57829003601f168201915b505050505081525050905092915050565b6002600060085481526020019081526020016000206001015442106119b7576040517f08c379a00000000000000000000000000000000000000000000000000000000081526004016119ae9061476a565b60405180910390fd5b6119c26008546108a2565b815114611a04576040517f08c379a00000000000000000000000000000000000000000000000000000000081526004016119fb906147fc565b60405180910390fd5b6000611a116008546108a2565b905060005b81811015611b5a576040518060400160405280848381518110611a3c57611a3b614246565b5b60200260200101516020015160ff168152602001848381518110611a6357611a62614246565b5b60200260200101516040015160ff16815250600460003373ffffffffffffffffffffffffffffffffffffffff1673ffffffffffffffffffffffffffffffffffffffff168152602001908152602001600020600060085481526020019081526020016000206000858481518110611adc57611adb614246565b5b60200260200101516000015163ffffffff1663ffffffff16815260200190815260200160002060008201518160000160006101000a81548160ff021916908360ff16021790555060208201518160000160016101000a81548160ff021916908360ff1602179055509050508080611b52906142a4565b915050611a16565b50600560006008548152602001908152602001600020339080600181540180825580915050600190039060005260206000200160009091909190916101000a81548173ffffffffffffffffffffffffffffffffffffffff021916908373ffffffffffffffffffffffffffffffffffffffff1602179055505050565b60606000600560008481526020019081526020016000208054905090506000808267ffffffffffffffff811115611c0f57611c0e6130ce565b5b604051908082528060200260200182016040528015611c4857816020015b611c35612c2f565b815260200190600190039081611c2d5790505b509050600080600090505b84811015611d1c57600560008881526020019081526020016000208181548110611c8057611c7f614246565b5b9060005260206000200160009054906101000a900473ffffffffffffffffffffffffffffffffffffffff169350611cb7878561137c565b915060405180606001604052808573ffffffffffffffffffffffffffffffffffffffff1681526020016001815260200183815250838281518110611cfe57611cfd614246565b5b60200260200101819052508080611d14906142a4565b915050611c53565b5081945050505050919050565b606060008060008080600080600d60008b815260200190815260200160002054905060008167ffffffffffffffff811115611d6757611d666130ce565b5b604051908082528060200260200182016040528015611da057816020015b611d8d612c66565b815260200190600190039081611d855790505b50905060008267ffffffffffffffff811115611dbf57611dbe6130ce565b5b604051908082528060200260200182016040528015611df857816020015b611de5612bf8565b815260200190600190039081611ddd5790505b50905060008367ffffffffffffffff811115611e1757611e166130ce565b5b604051908082528060200260200182016040528015611e5057816020015b611e3d612c96565b815260200190600190039081611e355790505b50905060005b8c51811015611f145760008d8281518110611e7457611e73614246565b5b6020026020010151905060005b8160200151811015611eff576040518060400160405280836000015173ffffffffffffffffffffffffffffffffffffffff1681526020018360400151815250868981518110611ed357611ed2614246565b5b60200260200101819052508780611ee9906142a4565b9850508080611ef7906142a4565b915050611e81565b50508080611f0c906142a4565b915050611e56565b5060005b848110156120405760019a5060005b85811015611fa157848181518110611f4257611f41614246565b5b602002602001015160200151858381518110611f6157611f60614246565b5b6020026020010151602001511015611f8e578b80611f7e906142a4565b9c50508a8c1115611f8d578b9a505b5b8080611f99906142a4565b915050611f27565b506040518060600160405280858381518110611fc057611fbf614246565b5b60200260200101516000015173ffffffffffffffffffffffffffffffffffffffff168152602001858381518110611ffa57611ff9614246565b5b60200260200101516020015181526020018c81525083828151811061202257612021614246565b5b60200260200101819052508080612038906142a4565b915050611f18565b50600094506000600190505b89811161217e5760005b8581101561216a578184828151811061207257612071614246565b5b60200260200101516040015103612157576040518060e001604052808583815181106120a1576120a0614246565b5b60200260200101516000015173ffffffffffffffffffffffffffffffffffffffff1681526020018583815181106120db576120da614246565b5b60200260200101516020015181526020018583815181106120ff576120fe614246565b5b6020026020010151604001518152602001600081526020016000815260200160008152602001600081525083888151811061213d5761213c614246565b5b60200260200101819052508680612153906142a4565b9750505b8080612162906142a4565b915050612056565b508080612176906142a4565b91505061204c565b506064600b5489600a54612192919061481c565b61219c9190614850565b6121a691906148d9565b955085886121b4919061466f565b975085816000815181106121cb576121ca614246565b5b6020026020010151606001818152505085816000815181106121f0576121ef614246565b5b60200260200101516080018181525050858160008151811061221557612214614246565b5b602002602001015160a0018181525050858160008151811061223a57612239614246565b5b602002602001015160c00181815250506000600190505b84811015612684576064600b548a600a5461226c919061481c565b6122769190614850565b61228091906148d9565b96508682828151811061229657612295614246565b5b6020026020010151606001818152505086896122b2919061466f565b9850888282815181106122c8576122c7614246565b5b602002602001015160800181815250506001856122e5919061481c565b81146124cb57816001826122f9919061481c565b8151811061230a57612309614246565b5b60200260200101516040015182828151811061232957612328614246565b5b60200260200101516040015103612398578682600183612349919061481c565b8151811061235a57612359614246565b5b602002602001015160a00151612370919061466f565b82828151811061238357612382614246565b5b602002602001015160a00181815250506124c6565b868282815181106123ac576123ab614246565b5b602002602001015160a0018181525050868282815181106123d0576123cf614246565b5b602002602001015160c0018181525050816001826123ee919061481c565b815181106123ff576123fe614246565b5b60200260200101516040015182828151811061241e5761241d614246565b5b602002602001015160400151612434919061481c565b975060005b888110156124c4578883600184612450919061481c565b8151811061246157612460614246565b5b602002602001015160a0015161247791906148d9565b83600183612485919061466f565b84612490919061481c565b815181106124a1576124a0614246565b5b602002602001015160c001818152505080806124bc906142a4565b915050612439565b505b612671565b816001826124d9919061481c565b815181106124ea576124e9614246565b5b60200260200101516040015182828151811061250957612508614246565b5b60200260200101516040015103612627578682600183612529919061481c565b8151811061253a57612539614246565b5b602002602001015160a00151612550919061466f565b82828151811061256357612562614246565b5b602002602001015160a001818152505081818151811061258657612585614246565b5b60200260200101516040015160018661259f919061466f565b6125a9919061481c565b975060005b8881101561262157888383815181106125ca576125c9614246565b5b602002602001015160a001516125e091906148d9565b8382846125ed919061481c565b815181106125fe576125fd614246565b5b602002602001015160c00181815250508080612619906142a4565b9150506125ae565b50612670565b8682828151811061263b5761263a614246565b5b602002602001015160a00181815250508682828151811061265f5761265e614246565b5b602002602001015160c00181815250505b5b808061267c906142a4565b915050612251565b50809a505050505050505050505092915050565b60006126a382611bd5565b905060006126b18383611d29565b90506000600c60008581526020019081526020016000206040518060a00160405280846000815181106126e7576126e6614246565b5b60200260200101516000015173ffffffffffffffffffffffffffffffffffffffff168152602001600181526020018460008151811061272957612728614246565b5b60200260200101516020015181526020018460008151811061274e5761274d614246565b5b60200260200101516040015181526020018460008151811061277357612772614246565b5b602002602001015160c00151815250908060018154018082558091505060019003906000526020600020906005020160009091909190915060008201518160000160006101000a81548173ffffffffffffffffffffffffffffffffffffffff021916908373ffffffffffffffffffffffffffffffffffffffff1602179055506020820151816001015560408201518160020155606082015181600301556080820151816004015550506000600190505b600d600086815260200190815260200160002054811015612afa578260018261284c919061481c565b8151811061285d5761285c614246565b5b60200260200101516000015173ffffffffffffffffffffffffffffffffffffffff1683828151811061289257612891614246565b5b60200260200101516000015173ffffffffffffffffffffffffffffffffffffffff160361297557600c600086815260200190815260200160002082815481106128de576128dd614246565b5b90600052602060002090600502016001016000815480929190612900906142a4565b919050555082818151811061291857612917614246565b5b602002602001015160c00151600c6000878152602001908152602001600020838154811061294957612948614246565b5b90600052602060002090600502016004016000828254612969919061466f565b92505081905550612ae7565b600c60008681526020019081526020016000206040518060a001604052808584815181106129a6576129a5614246565b5b60200260200101516000015173ffffffffffffffffffffffffffffffffffffffff168152602001600181526020018584815181106129e7576129e6614246565b5b6020026020010151602001518152602001858481518110612a0b57612a0a614246565b5b6020026020010151604001518152602001858481518110612a2f57612a2e614246565b5b602002602001015160c00151815250908060018154018082558091505060019003906000526020600020906005020160009091909190915060008201518160000160006101000a81548173ffffffffffffffffffffffffffffffffffffffff021916908373ffffffffffffffffffffffffffffffffffffffff1602179055506020820151816001015560408201518160020155606082015181600301556080820151816004015550508180612ae3906142a4565b9250505b8080612af2906142a4565b915050612823565b5050505050565b60008082604051612b1291906146f6565b9081526020016040518091039020805490509050919050565b6000600854905090565b6000808260ff168460ff161115612b4f5760009050612b6c565b8360ff168360ff161115612b665760029050612b6b565b600190505b5b8091505092915050565b6040518060600160405280600063ffffffff168152602001600060ff168152602001600060ff1681525090565b6040518060800160405280600063ffffffff168152602001600064ffffffffff16815260200160608152602001606081525090565b6040518060400160405280600060ff168152602001600060ff1681525090565b6040518060600160405280600073ffffffffffffffffffffffffffffffffffffffff16815260200160008152602001600081525090565b6040518060600160405280600073ffffffffffffffffffffffffffffffffffffffff16815260200160008152602001600081525090565b6040518060400160405280600073ffffffffffffffffffffffffffffffffffffffff168152602001600081525090565b6040518060e00160405280600073ffffffffffffffffffffffffffffffffffffffff1681526020016000815260200160008152602001600081526020016000815260200160008152602001600081525090565b6000604051905090565b600080fd5b600080fd5b6000819050919050565b612d1081612cfd565b8114612d1b57600080fd5b50565b600081359050612d2d81612d07565b92915050565b600073ffffffffffffffffffffffffffffffffffffffff82169050919050565b6000612d5e82612d33565b9050919050565b612d6e81612d53565b8114612d7957600080fd5b50565b600081359050612d8b81612d65565b92915050565b60008060408385031215612da857612da7612cf3565b5b6000612db685828601612d1e565b9250506020612dc785828601612d7c565b9150509250929050565b600081519050919050565b600082825260208201905092915050565b6000819050602082019050919050565b600063ffffffff82169050919050565b612e1681612dfd565b82525050565b600060ff82169050919050565b612e3281612e1c565b82525050565b606082016000820151612e4e6000850182612e0d565b506020820151612e616020850182612e29565b506040820151612e746040850182612e29565b50505050565b6000612e868383612e38565b60608301905092915050565b6000602082019050919050565b6000612eaa82612dd1565b612eb48185612ddc565b9350612ebf83612ded565b8060005b83811015612ef0578151612ed78882612e7a565b9750612ee283612e92565b925050600181019050612ec3565b5085935050505092915050565b60006020820190508181036000830152612f178184612e9f565b905092915050565b600060208284031215612f3557612f34612cf3565b5b6000612f4384828501612d1e565b91505092915050565b600081519050919050565b600082825260208201905092915050565b6000819050602082019050919050565b600081519050919050565b600082825260208201905092915050565b60005b83811015612fb2578082015181840152602081019050612f97565b83811115612fc1576000848401525b50505050565b6000601f19601f8301169050919050565b6000612fe382612f78565b612fed8185612f83565b9350612ffd818560208601612f94565b61300681612fc7565b840191505092915050565b600061301d8383612fd8565b905092915050565b6000602082019050919050565b600061303d82612f4c565b6130478185612f57565b93508360208202850161305985612f68565b8060005b8581101561309557848403895281516130768582613011565b945061308183613025565b925060208a0199505060018101905061305d565b50829750879550505050505092915050565b600060208201905081810360008301526130c18184613032565b905092915050565b600080fd5b7f4e487b7100000000000000000000000000000000000000000000000000000000600052604160045260246000fd5b61310682612fc7565b810181811067ffffffffffffffff82111715613125576131246130ce565b5b80604052505050565b6000613138612ce9565b905061314482826130fd565b919050565b600067ffffffffffffffff821115613164576131636130ce565b5b602082029050602081019050919050565b600080fd5b600080fd5b600067ffffffffffffffff82111561319a576131996130ce565b5b6131a382612fc7565b9050602081019050919050565b82818337600083830152505050565b60006131d26131cd8461317f565b61312e565b9050828152602081018484840111156131ee576131ed61317a565b5b6131f98482856131b0565b509392505050565b600082601f830112613216576132156130c9565b5b81356132268482602086016131bf565b91505092915050565b600061324261323d84613149565b61312e565b9050808382526020820190506020840283018581111561326557613264613175565b5b835b818110156132ac57803567ffffffffffffffff81111561328a576132896130c9565b5b8086016132978982613201565b85526020850194505050602081019050613267565b5050509392505050565b600082601f8301126132cb576132ca6130c9565b5b81356132db84826020860161322f565b91505092915050565b6000806000606084860312156132fd576132fc612cf3565b5b600061330b86828701612d1e565b935050602084013567ffffffffffffffff81111561332c5761332b612cf8565b5b613338868287016132b6565b925050604061334986828701612d1e565b9150509250925092565b61335c81612cfd565b82525050565b60006020820190506133776000830184613353565b92915050565b61338681612dfd565b811461339157600080fd5b50565b6000813590506133a38161337d565b92915050565b6000602082840312156133bf576133be612cf3565b5b60006133cd84828501613394565b91505092915050565b6040820160008201516133ec6000850182612e29565b5060208201516133ff6020850182612e29565b50505050565b600060408201905061341a60008301846133d6565b92915050565b600067ffffffffffffffff82111561343b5761343a6130ce565b5b602082029050602081019050919050565b600080fd5b600080fd5b600064ffffffffff82169050919050565b61347081613456565b811461347b57600080fd5b50565b60008135905061348d81613467565b92915050565b6000608082840312156134a9576134a861344c565b5b6134b3608061312e565b905060006134c384828501613394565b60008301525060206134d78482850161347e565b602083015250604082013567ffffffffffffffff8111156134fb576134fa613451565b5b61350784828501613201565b604083015250606082013567ffffffffffffffff81111561352b5761352a613451565b5b61353784828501613201565b60608301525092915050565b600061355661355184613420565b61312e565b9050808382526020820190506020840283018581111561357957613578613175565b5b835b818110156135c057803567ffffffffffffffff81111561359e5761359d6130c9565b5b8086016135ab8982613493565b8552602085019450505060208101905061357b565b5050509392505050565b600082601f8301126135df576135de6130c9565b5b81356135ef848260208601613543565b91505092915050565b6000806040838503121561360f5761360e612cf3565b5b600083013567ffffffffffffffff81111561362d5761362c612cf8565b5b61363985828601613201565b925050602083013567ffffffffffffffff81111561365a57613659612cf8565b5b613666858286016135ca565b9150509250929050565b600081519050919050565b600082825260208201905092915050565b6000819050602082019050919050565b6136a581612d53565b82525050565b6136b481612cfd565b82525050565b60a0820160008201516136d0600085018261369c565b5060208201516136e360208501826136ab565b5060408201516136f660408501826136ab565b50606082015161370960608501826136ab565b50608082015161371c60808501826136ab565b50505050565b600061372e83836136ba565b60a08301905092915050565b6000602082019050919050565b600061375282613670565b61375c818561367b565b93506137678361368c565b8060005b8381101561379857815161377f8882613722565b975061378a8361373a565b92505060018101905061376b565b5085935050505092915050565b600060208201905081810360008301526137bf8184613747565b905092915050565b600067ffffffffffffffff8211156137e2576137e16130ce565b5b602082029050602081019050919050565b6137fc81612e1c565b811461380757600080fd5b50565b600081359050613819816137f3565b92915050565b6000608082840312156138355761383461344c565b5b61383f608061312e565b9050600061384f84828501613394565b60008301525060206138638482850161380a565b60208301525060406138778482850161380a565b604083015250606082013567ffffffffffffffff81111561389b5761389a613451565b5b6138a784828501613201565b60608301525092915050565b60006138c66138c1846137c7565b61312e565b905080838252602082019050602084028301858111156138e9576138e8613175565b5b835b8181101561393057803567ffffffffffffffff81111561390e5761390d6130c9565b5b80860161391b898261381f565b855260208501945050506020810190506138eb565b5050509392505050565b600082601f83011261394f5761394e6130c9565b5b813561395f8482602086016138b3565b91505092915050565b60006020828403121561397e5761397d612cf3565b5b600082013567ffffffffffffffff81111561399c5761399b612cf8565b5b6139a88482850161393a565b91505092915050565b600080604083850312156139c8576139c7612cf3565b5b60006139d685828601612d1e565b92505060206139e785828601612d1e565b9150509250929050565b6139fa81612d53565b82525050565b600060a082019050613a1560008301886139f1565b613a226020830187613353565b613a2f6040830186613353565b613a3c6060830185613353565b613a496080830184613353565b9695505050505050565b600081519050919050565b600082825260208201905092915050565b6000819050602082019050919050565b613a8881613456565b82525050565b6000608083016000830151613aa66000860182612e0d565b506020830151613ab96020860182613a7f565b5060408301518482036040860152613ad18282612fd8565b91505060608301518482036060860152613aeb8282612fd8565b9150508091505092915050565b6000613b048383613a8e565b905092915050565b6000602082019050919050565b6000613b2482613a53565b613b2e8185613a5e565b935083602082028501613b4085613a6f565b8060005b85811015613b7c5784840389528151613b5d8582613af8565b9450613b6883613b0c565b925060208a01995050600181019050613b44565b50829750879550505050505092915050565b60006020820190508181036000830152613ba88184613b19565b905092915050565b60008060408385031215613bc757613bc6612cf3565b5b600083013567ffffffffffffffff811115613be557613be4612cf8565b5b613bf185828601613201565b9250506020613c0285828601612d1e565b9150509250929050565b6000608083016000830151613c246000860182612e0d565b506020830151613c376020860182613a7f565b5060408301518482036040860152613c4f8282612fd8565b91505060608301518482036060860152613c698282612fd8565b9150508091505092915050565b60006020820190508181036000830152613c908184613c0c565b905092915050565b600067ffffffffffffffff821115613cb357613cb26130ce565b5b602082029050602081019050919050565b600060608284031215613cda57613cd961344c565b5b613ce4606061312e565b90506000613cf484828501613394565b6000830152506020613d088482850161380a565b6020830152506040613d1c8482850161380a565b60408301525092915050565b6000613d3b613d3684613c98565b61312e565b90508083825260208201905060608402830185811115613d5e57613d5d613175565b5b835b81811015613d875780613d738882613cc4565b845260208401935050606081019050613d60565b5050509392505050565b600082601f830112613da657613da56130c9565b5b8135613db6848260208601613d28565b91505092915050565b600060208284031215613dd557613dd4612cf3565b5b600082013567ffffffffffffffff811115613df357613df2612cf8565b5b613dff84828501613d91565b91505092915050565b600081519050919050565b600082825260208201905092915050565b6000819050602082019050919050565b606082016000820151613e4a600085018261369c565b506020820151613e5d60208501826136ab565b506040820151613e7060408501826136ab565b50505050565b6000613e828383613e34565b60608301905092915050565b6000602082019050919050565b6000613ea682613e08565b613eb08185613e13565b9350613ebb83613e24565b8060005b83811015613eec578151613ed38882613e76565b9750613ede83613e8e565b925050600181019050613ebf565b5085935050505092915050565b60006020820190508181036000830152613f138184613e9b565b905092915050565b600067ffffffffffffffff821115613f3657613f356130ce565b5b602082029050602081019050919050565b600060608284031215613f5d57613f5c61344c565b5b613f67606061312e565b90506000613f7784828501612d7c565b6000830152506020613f8b84828501612d1e565b6020830152506040613f9f84828501612d1e565b60408301525092915050565b6000613fbe613fb984613f1b565b61312e565b90508083825260208201905060608402830185811115613fe157613fe0613175565b5b835b8181101561400a5780613ff68882613f47565b845260208401935050606081019050613fe3565b5050509392505050565b600082601f830112614029576140286130c9565b5b8135614039848260208601613fab565b91505092915050565b6000806040838503121561405957614058612cf3565b5b600061406785828601612d1e565b925050602083013567ffffffffffffffff81111561408857614087612cf8565b5b61409485828601614014565b9150509250929050565b600081519050919050565b600082825260208201905092915050565b6000819050602082019050919050565b60e0820160008201516140e0600085018261369c565b5060208201516140f360208501826136ab565b50604082015161410660408501826136ab565b50606082015161411960608501826136ab565b50608082015161412c60808501826136ab565b5060a082015161413f60a08501826136ab565b5060c082015161415260c08501826136ab565b50505050565b600061416483836140ca565b60e08301905092915050565b6000602082019050919050565b60006141888261409e565b61419281856140a9565b935061419d836140ba565b8060005b838110156141ce5781516141b58882614158565b97506141c083614170565b9250506001810190506141a1565b5085935050505092915050565b600060208201905081810360008301526141f5818461417d565b905092915050565b60006020828403121561421357614212612cf3565b5b600082013567ffffffffffffffff81111561423157614230612cf8565b5b61423d84828501613201565b91505092915050565b7f4e487b7100000000000000000000000000000000000000000000000000000000600052603260045260246000fd5b7f4e487b7100000000000000000000000000000000000000000000000000000000600052601160045260246000fd5b60006142af82612cfd565b91507fffffffffffffffffffffffffffffffffffffffffffffffffffffffffffffffff82036142e1576142e0614275565b5b600182019050919050565b7f4e487b7100000000000000000000000000000000000000000000000000000000600052602260045260246000fd5b6000600282049050600182168061433357607f821691505b602082108103614346576143456142ec565b5b50919050565b60008190508160005260206000209050919050565b60006020601f8301049050919050565b600082821b905092915050565b6000600883026143ae7fffffffffffffffffffffffffffffffffffffffffffffffffffffffffffffffff82614371565b6143b88683614371565b95508019841693508086168417925050509392505050565b6000819050919050565b60006143f56143f06143eb84612cfd565b6143d0565b612cfd565b9050919050565b6000819050919050565b61440f836143da565b61442361441b826143fc565b84845461437e565b825550505050565b600090565b61443861442b565b614443818484614406565b505050565b5b818110156144675761445c600082614430565b600181019050614449565b5050565b601f8211156144ac5761447d8161434c565b61448684614361565b81016020851015614495578190505b6144a96144a185614361565b830182614448565b50505b505050565b600082821c905092915050565b60006144cf600019846008026144b1565b1980831691505092915050565b60006144e883836144be565b9150826002028217905092915050565b61450182612f78565b67ffffffffffffffff81111561451a576145196130ce565b5b614524825461431b565b61452f82828561446b565b600060209050601f8311600181146145625760008415614550578287015190505b61455a85826144dc565b8655506145c2565b601f1984166145708661434c565b60005b8281101561459857848901518255600182019150602085019450602081019050614573565b868310156145b557848901516145b1601f8916826144be565b8355505b6001600288020188555050505b505050505050565b600081905092915050565b600081546145e28161431b565b6145ec81866145ca565b94506001821660008114614607576001811461461c5761464f565b60ff198316865281151582028601935061464f565b6146258561434c565b60005b8381101561464757815481890152600182019150602081019050614628565b838801955050505b50505092915050565b600061466482846145d5565b915081905092915050565b600061467a82612cfd565b915061468583612cfd565b9250827fffffffffffffffffffffffffffffffffffffffffffffffffffffffffffffffff038211156146ba576146b9614275565b5b828201905092915050565b60006146d082612f78565b6146da81856145ca565b93506146ea818560208601612f94565b80840191505092915050565b600061470282846146c5565b915081905092915050565b600082825260208201905092915050565b7f50726564696374696f6e20506572696f6420697320636c6f7365642100000000600082015250565b6000614754601c8361470d565b915061475f8261471e565b602082019050919050565b6000602082019050818103600083015261478381614747565b9050919050565b7f546865206e756d626572206f662070726564696374696f6e7320646f65736e2760008201527f74206d6174636821000000000000000000000000000000000000000000000000602082015250565b60006147e660288361470d565b91506147f18261478a565b604082019050919050565b60006020820190508181036000830152614815816147d9565b9050919050565b600061482782612cfd565b915061483283612cfd565b92508282101561484557614844614275565b5b828203905092915050565b600061485b82612cfd565b915061486683612cfd565b9250817fffffffffffffffffffffffffffffffffffffffffffffffffffffffffffffffff048311821515161561489f5761489e614275565b5b828202905092915050565b7f4e487b7100000000000000000000000000000000000000000000000000000000600052601260045260246000fd5b60006148e482612cfd565b91506148ef83612cfd565b9250826148ff576148fe6148aa565b5b82820490509291505056fea264697066735822122071b566fe7e72363fe90a19e0fec1880809ec85c31c73d2b7dde15c1f5577051264736f6c634300080f0033",
  "linkReferences": {},
  "deployedLinkReferences": {}
}